{
	"data": {
		"bytecode": {
			"linkReferences": {},
			"object": "61311061003a600b82828239805160001a60731461002d57634e487b7160e01b600052600060045260246000fd5b30600052607381538281f3fe730000000000000000000000000000000000000000301460806040526004361061018c5760003560e01c80638cf57cb9116100e2578063db4b7eee11610096578063ea02a08811610070578063ea02a0881461037c578063eb7e4f911461039c578063ffbe9f1e1461025457600080fd5b8063db4b7eee14610321578063dd51d4f91461033c578063dfebf9dc1461035c57600080fd5b80639872317f116100c75780639872317f146102d3578063a70e997e146102ee578063b94bed2b1461030e57600080fd5b80638cf57cb9146102af5780638fefda06146102ca57600080fd5b806367057b6c11610144578063829827061161011e5780638298270614610266578063866b20181461028657806388df53711461028f57600080fd5b806367057b6c14610254578063783478ad1461025d578063784def8c1461022657600080fd5b806323ba71f51161017557806323ba71f5146101f857806341275358146102265780635b2b51ea1461024157600080fd5b806302d45457146101915780631a2f4bd3146101d6575b600080fd5b6101ac732791bca1f2de4661ed88a30c99a7a9449aa8417481565b60405173ffffffffffffffffffffffffffffffffffffffff90911681526020015b60405180910390f35b8180156101e257600080fd5b506101f66101f1366004612cbb565b6103bc565b005b81801561020457600080fd5b50610218610213366004612c99565b610721565b6040519081526020016101cd565b6101ac735386881b46c37cdd30a748f7771cf95d7b21363781565b61021861024f366004612c80565b610ace565b61021861271081565b6101ac61dead81565b81801561027257600080fd5b50610218610281366004612c99565b610b8e565b6102186126ac81565b81801561029b57600080fd5b506102186102aa366004612d3a565b610c1e565b6101ac73917fb15e8aaa12264dcbdc15afef7cd3ce76ba3981565b6102186103e881565b6101ac7376bf0c28e604cc3fe9967c83b3c3f31c213cfe6481565b8180156102fa57600080fd5b506101f6610309366004612d3a565b610e91565b61021861031c366004612c80565b611064565b6101ac730d500b1d8e8ef31e21c99d1db9a6444d3adf127081565b81801561034857600080fd5b50610218610357366004612c99565b611130565b81801561036857600080fd5b506101f6610377366004612c80565b611447565b81801561038857600080fd5b506101f6610397366004612c80565b61177c565b8180156103a857600080fd5b506101f66103b7366004612c80565b611f31565b6103e8846103ca8789612f09565b6103d49190612f09565b61ffff161115610445576040517f08c379a000000000000000000000000000000000000000000000000000000000815260206004820152600e60248201527f4d617820666565206f662031302500000000000000000000000000000000000060448201526064015b60405180910390fd5b6126ac8361ffff1610156104b5576040517f08c379a000000000000000000000000000000000000000000000000000000000815260206004820152601a60248201527f5f7769746864726177466565466163746f7220746f6f206c6f77000000000000604482015260640161043c565b6127108361ffff161115610525576040517f08c379a000000000000000000000000000000000000000000000000000000000815260206004820152601b60248201527f5f7769746864726177466565466163746f7220746f6f20686967680000000000604482015260640161043c565b86547fffffffffffffffff00000000ffffffffffffffffffffffffffffffffffffffff167401000000000000000000000000000000000000000061ffff8881169182027fffffffffffffffff0000ffffffffffffffffffffffffffffffffffffffffffff1692909217760100000000000000000000000000000000000000000000888416908102919091177fffffffff00000000ffffffffffffffffffffffffffffffffffffffffffffffff1678010000000000000000000000000000000000000000000000008885169081027fffffffff0000ffffffffffffffffffffffffffffffffffffffffffffffffffff16919091177a010000000000000000000000000000000000000000000000000000888616908102919091177fffff0000ffffffffffffffff0000000000000000000000000000000000000000167c01000000000000000000000000000000000000000000000000000000009588169586027fffffffffffffffffffffffff0000000000000000000000000000000000000000161773ffffffffffffffffffffffffffffffffffffffff87169081178d55604080519182526020820195909552938401929092526060830152608082015260a08101919091527f7a7d844bfb1d318bd3e5ae1415b68abf83071edf39724448cf5399d43cfda9309060c00160405180910390a150505050505050565b600582018054829190600785019074010000000000000000000000000000000000000000900461ffff16156107b95781546000906127109061077f9074010000000000000000000000000000000000000000900461ffff1687612f5b565b6107899190612f47565b90506107ab838284735386881b46c37cdd30a748f7771cf95d7b213637610e91565b6107b58185612f98565b9350505b8154760100000000000000000000000000000000000000000000900461ffff1615610a285781546000906127109061080f90760100000000000000000000000000000000000000000000900461ffff1687612f5b565b6108199190612f47565b6040517f70a08231000000000000000000000000000000000000000000000000000000008152306004820152909150600090732791bca1f2de4661ed88a30c99a7a9449aa84174906370a082319060240160206040518083038186803b15801561088257600080fd5b505afa158015610896573d6000803e3d6000fd5b505050506040513d601f19601f820116820180604052508101906108ba9190612d79565b90506108cb84838560010130610c1e565b506040517f70a082310000000000000000000000000000000000000000000000000000000081523060048201526000908290732791bca1f2de4661ed88a30c99a7a9449aa84174906370a082319060240160206040518083038186803b15801561093457600080fd5b505afa158015610948573d6000803e3d6000fd5b505050506040513d601f19601f8201168201806040525081019061096c9190612d79565b6109769190612f98565b6040517f1e2720ff0000000000000000000000000000000000000000000000000000000081526004810182905290915073917fb15e8aaa12264dcbdc15afef7cd3ce76ba3990631e2720ff90602401602060405180830381600087803b1580156109df57600080fd5b505af11580156109f3573d6000803e3d6000fd5b505050506040513d601f19601f82011682018060405250810190610a179190612c5e565b50610a228387612f98565b95505050505b81547801000000000000000000000000000000000000000000000000900461ffff1615610ac657815460009061271090610a82907801000000000000000000000000000000000000000000000000900461ffff1687612f5b565b610a8c9190612f47565b9050610a9f83828460020161dead610c1e565b866010016000828254610ab29190612f2f565b90915550610ac290508185612f98565b9350505b505092915050565b600081610ada81611064565b60018201546040517f70a0823100000000000000000000000000000000000000000000000000000000815230600482015273ffffffffffffffffffffffffffffffffffffffff909116906370a082319060240160206040518083038186803b158015610b4557600080fd5b505afa158015610b59573d6000803e3d6000fd5b505050506040513d601f19601f82011682018060405250810190610b7d9190612d79565b610b879190612f2f565b9392505050565b60008281610b9b82610ace565b6001830154909150610bc59073ffffffffffffffffffffffffffffffffffffffff163330876122af565b6000610bd08661238b565b600f87015490915015610bfb578186600f015482610bee9190612f5b565b610bf89190612f47565b90505b8086600f016000828254610c0f9190612f2f565b90915550909695505050505050565b83546040517fd06ca61f000000000000000000000000000000000000000000000000000000008152600091829173ffffffffffffffffffffffffffffffffffffffff9091169063d06ca61f90610c7a9088908890600401612ea7565b60006040518083038186803b158015610c9257600080fd5b505afa158015610ca6573d6000803e3d6000fd5b505050506040513d6000823e601f3d9081017fffffffffffffffffffffffffffffffffffffffffffffffffffffffffffffffe0168201604052610cec9190810190612b7b565b905060008160018351610cff9190612f98565b81518110610d0f57610d0f61307c565b602002602001015190507376bf0c28e604cc3fe9967c83b3c3f31c213cfe6473ffffffffffffffffffffffffffffffffffffffff168560018780549050610d569190612f98565b81548110610d6657610d6661307c565b60009182526020909120015473ffffffffffffffffffffffffffffffffffffffff16148015610dac575073ffffffffffffffffffffffffffffffffffffffff841661dead145b15610db5578092505b86546040517f38ed173900000000000000000000000000000000000000000000000000000000815273ffffffffffffffffffffffffffffffffffffffff909116906338ed173990610e1290899085908a908a904290600401612ec0565b600060405180830381600087803b158015610e2c57600080fd5b505af1158015610e40573d6000803e3d6000fd5b505050506040513d6000823e601f3d9081017fffffffffffffffffffffffffffffffffffffffffffffffffffffffffffffffe0168201604052610e869190810190612b7b565b505050949350505050565b83546040517fd06ca61f00000000000000000000000000000000000000000000000000000000815260009173ffffffffffffffffffffffffffffffffffffffff169063d06ca61f90610ee99087908790600401612ea7565b60006040518083038186803b158015610f0157600080fd5b505afa158015610f15573d6000803e3d6000fd5b505050506040513d6000823e601f3d9081017fffffffffffffffffffffffffffffffffffffffffffffffffffffffffffffffe0168201604052610f5b9190810190612b7b565b905060008160018351610f6e9190612f98565b81518110610f7e57610f7e61307c565b602090810291909101015186546040517f18cbafe500000000000000000000000000000000000000000000000000000000815291925073ffffffffffffffffffffffffffffffffffffffff16906318cbafe590610fe79088908590899089904290600401612ec0565b600060405180830381600087803b15801561100157600080fd5b505af1158015611015573d6000803e3d6000fd5b505050506040513d6000823e601f3d9081017fffffffffffffffffffffffffffffffffffffffffffffffffffffffffffffffe016820160405261105b9190810190612b7b565b50505050505050565b600381015460118201546040517f93f1a40b0000000000000000000000000000000000000000000000000000000081526801000000000000000090910462ffffff1660048201523060248201526000918391839173ffffffffffffffffffffffffffffffffffffffff16906393f1a40b90604401604080518083038186803b1580156110ef57600080fd5b505afa158015611103573d6000803e3d6000fd5b505050506040513d601f19601f820116820180604052508101906111279190612d92565b50949350505050565b600080821161119b576040517f08c379a000000000000000000000000000000000000000000000000000000000815260206004820152600d60248201527f5f77616e74416d74206973203000000000000000000000000000000000000000604482015260640161043c565b60018301546040517f70a082310000000000000000000000000000000000000000000000000000000081523060048201528491600583019160009173ffffffffffffffffffffffffffffffffffffffff16906370a082319060240160206040518083038186803b15801561120e57600080fd5b505afa158015611222573d6000803e3d6000fd5b505050506040513d601f19601f820116820180604052508101906112469190612d79565b905080851115611309576112638661125e8388612f98565b61247c565b60018301546040517f70a0823100000000000000000000000000000000000000000000000000000000815230600482015273ffffffffffffffffffffffffffffffffffffffff909116906370a082319060240160206040518083038186803b1580156112ce57600080fd5b505afa1580156112e2573d6000803e3d6000fd5b505050506040513d601f19601f820116820180604052508101906113069190612d79565b90505b80851115611315578094505b600061132087610ace565b90508086111561132e578095505b600061134a8289600f0154896113449190612f5b565b9061251b565b905087600f015481111561135f5750600f8701545b8088600f0160008282546113739190612f98565b90915550508354600090612710906113ad907a010000000000000000000000000000000000000000000000000000900461ffff1682612f98565b6113b7908a612f5b565b6113c19190612f47565b905080156114035760018601546114039073ffffffffffffffffffffffffffffffffffffffff16735386881b46c37cdd30a748f7771cf95d7b21363783612543565b61140d8189612f98565b8654600188015491995061143b9173ffffffffffffffffffffffffffffffffffffffff90811691168a612543565b50979650505050505050565b600160118201546b010000000000000000000000900460ff1660038111156114715761147161304d565b146114d8576040517f08c379a000000000000000000000000000000000000000000000000000000000815260206004820152601360248201527f6d757374206265204c5020737472617465677900000000000000000000000000604482015260640161043c565b600c81018054600783019160058401916000919082906114fa576114fa61307c565b600091825260208220015460068501805473ffffffffffffffffffffffffffffffffffffffff90921693509082906115345761153461307c565b600091825260208220015460058601805473ffffffffffffffffffffffffffffffffffffffff90921693509061156c90600190612f98565b8154811061157c5761157c61307c565b60009182526020822001546040517f70a0823100000000000000000000000000000000000000000000000000000000815230600482015273ffffffffffffffffffffffffffffffffffffffff9182169350908516906370a082319060240160206040518083038186803b1580156115f257600080fd5b505afa158015611606573d6000803e3d6000fd5b505050506040513d601f19601f8201168201806040525081019061162a9190612d79565b905060008111801561166857508173ffffffffffffffffffffffffffffffffffffffff168473ffffffffffffffffffffffffffffffffffffffff1614155b1561167e5761167c85828860050130610c1e565b505b6040517f70a0823100000000000000000000000000000000000000000000000000000000815230600482015260009073ffffffffffffffffffffffffffffffffffffffff8516906370a082319060240160206040518083038186803b1580156116e657600080fd5b505afa1580156116fa573d6000803e3d6000fd5b505050506040513d601f19601f8201168201806040525081019061171e9190612d79565b905060008111801561175c57508273ffffffffffffffffffffffffffffffffffffffff168473ffffffffffffffffffffffffffffffffffffffff1614155b156117725761177086828960060130610c1e565b505b5050505050505050565b60028101546040517f70a0823100000000000000000000000000000000000000000000000000000000815230600482015282916007830191600584019160009173ffffffffffffffffffffffffffffffffffffffff909116906370a082319060240160206040518083038186803b1580156117f657600080fd5b505afa15801561180a573d6000803e3d6000fd5b505050506040513d601f19601f8201168201806040525081019061182e9190612d79565b90506118398561259e565b60028401546040517f70a08231000000000000000000000000000000000000000000000000000000008152306004820152600091839173ffffffffffffffffffffffffffffffffffffffff909116906370a082319060240160206040518083038186803b1580156118a957600080fd5b505afa1580156118bd573d6000803e3d6000fd5b505050506040513d601f19601f820116820180604052508101906118e19190612d79565b6118eb9190612f98565b905080156118ff576118fd8682610721565b505b60028501546040517f70a0823100000000000000000000000000000000000000000000000000000000815230600482015273ffffffffffffffffffffffffffffffffffffffff909116906370a082319060240160206040518083038186803b15801561196a57600080fd5b505afa15801561197e573d6000803e3d6000fd5b505050506040513d601f19601f820116820180604052508101906119a29190612d79565b9050600160118701546b010000000000000000000000900460ff1660038111156119ce576119ce61304d565b1415611cf4576000846005016000815481106119ec576119ec61307c565b600091825260208220015460068701805473ffffffffffffffffffffffffffffffffffffffff9092169350908290611a2657611a2661307c565b600091825260209091200154600288015473ffffffffffffffffffffffffffffffffffffffff9182169250811690831614611a7957611a7760058901611a6d600286612f47565b8860030130610c1e565b505b600287015473ffffffffffffffffffffffffffffffffffffffff828116911614611ab857611ab685611aac600286612f47565b8860040130610c1e565b505b6040517f70a0823100000000000000000000000000000000000000000000000000000000815230600482015260009073ffffffffffffffffffffffffffffffffffffffff8416906370a082319060240160206040518083038186803b158015611b2057600080fd5b505afa158015611b34573d6000803e3d6000fd5b505050506040513d601f19601f82011682018060405250810190611b589190612d79565b6040517f70a0823100000000000000000000000000000000000000000000000000000000815230600482015290915060009073ffffffffffffffffffffffffffffffffffffffff8416906370a082319060240160206040518083038186803b158015611bc357600080fd5b505afa158015611bd7573d6000803e3d6000fd5b505050506040513d601f19601f82011682018060405250810190611bfb9190612d79565b9050600082118015611c0d5750600081115b15611ceb5786546040517fe8e3370000000000000000000000000000000000000000000000000000000000815273ffffffffffffffffffffffffffffffffffffffff86811660048301528581166024830152604482018590526064820184905260006084830181905260a48301523060c48301524260e48301529091169063e8e337009061010401606060405180830381600087803b158015611caf57600080fd5b505af1158015611cc3573d6000803e3d6000fd5b505050506040513d601f19601f82011682018060405250810190611ce79190612db6565b5050505b50505050611ef2565b600260118701546b010000000000000000000000900460ff166003811115611d1e57611d1e61304d565b1415611e5b576004850154600286015473ffffffffffffffffffffffffffffffffffffffff908116911614611d5e57611d5c83828660070130610c1e565b505b84546004808701546040517f70a08231000000000000000000000000000000000000000000000000000000008152309281019290925273ffffffffffffffffffffffffffffffffffffffff9283169263fc77c9db929116906370a082319060240160206040518083038186803b158015611dd757600080fd5b505afa158015611deb573d6000803e3d6000fd5b505050506040513d601f19601f82011682018060405250810190611e0f9190612d79565b6040518263ffffffff1660e01b8152600401611e2d91815260200190565b600060405180830381600087803b158015611e4757600080fd5b505af1158015611ceb573d6000803e3d6000fd5b600360118701546b010000000000000000000000900460ff166003811115611e8557611e8561304d565b1415611e9057611ef2565b6040517f08c379a000000000000000000000000000000000000000000000000000000000815260206004820152601560248201527f6561726e5f2066756e6374696f6e2062726f6b656e0000000000000000000000604482015260640161043c565b6011860180547fffffffffffffffffffffffffffffffffffffffffffffffff0000000000000000164367ffffffffffffffff1617905561105b8661238b565b600581018160078101600160118501546b010000000000000000000000900460ff166003811115611f6457611f6461304d565b141561206057600081600501600081548110611f8257611f8261307c565b600091825260208220015460068401805473ffffffffffffffffffffffffffffffffffffffff9092169350908290611fbc57611fbc61307c565b600091825260209091200154855473ffffffffffffffffffffffffffffffffffffffff91821692506120139184811691167fffffffffffffffffffffffffffffffffffffffffffffffffffffffffffffffff612644565b84546120599073ffffffffffffffffffffffffffffffffffffffff83811691167fffffffffffffffffffffffffffffffffffffffffffffffffffffffffffffffff612644565b50506121bd565b600360118501546b010000000000000000000000900460ff16600381111561208a5761208a61304d565b14156120e057825460018301546120db9173ffffffffffffffffffffffffffffffffffffffff91821691167fffffffffffffffffffffffffffffffffffffffffffffffffffffffffffffffff612644565b6121bd565b600260118501546b010000000000000000000000900460ff16600381111561210a5761210a61304d565b141561215b57815460018301546120db9173ffffffffffffffffffffffffffffffffffffffff91821691167fffffffffffffffffffffffffffffffffffffffffffffffffffffffffffffffff612644565b6040517f08c379a000000000000000000000000000000000000000000000000000000000815260206004820152601f60248201527f7265736574416c6c6f77616e6365732066756e6374696f6e2062726f6b656e00604482015260640161043c565b6003820154600183015461220b9173ffffffffffffffffffffffffffffffffffffffff91821691167fffffffffffffffffffffffffffffffffffffffffffffffffffffffffffffffff612644565b825460028301546122569173ffffffffffffffffffffffffffffffffffffffff91821691167fffffffffffffffffffffffffffffffffffffffffffffffffffffffffffffffff612644565b6122a9732791bca1f2de4661ed88a30c99a7a9449aa8417473917fb15e8aaa12264dcbdc15afef7cd3ce76ba397fffffffffffffffffffffffffffffffffffffffffffffffffffffffffffffffff612644565b50505050565b60405173ffffffffffffffffffffffffffffffffffffffff808516602483015283166044820152606481018290526122a99085907f23b872dd00000000000000000000000000000000000000000000000000000000906084015b604080517fffffffffffffffffffffffffffffffffffffffffffffffffffffffffffffffe08184030181529190526020810180517bffffffffffffffffffffffffffffffffffffffffffffffffffffffff167fffffffff00000000000000000000000000000000000000000000000000000000909316929092179091526127d5565b60018101546040517f70a082310000000000000000000000000000000000000000000000000000000081523060048201526000918391839173ffffffffffffffffffffffffffffffffffffffff16906370a082319060240160206040518083038186803b1580156123fb57600080fd5b505afa15801561240f573d6000803e3d6000fd5b505050506040513d601f19601f820116820180604052508101906124339190612d79565b905080612444575060009392505050565b600061244f85611064565b905061245b85836128e1565b600061246686611064565b90506124728282612f98565b9695505050505050565b600382015460118301546040517f441a3e700000000000000000000000000000000000000000000000000000000081526801000000000000000090910462ffffff16600482015260248101839052839173ffffffffffffffffffffffffffffffffffffffff169063441a3e70906044015b600060405180830381600087803b15801561250757600080fd5b505af115801561105b573d6000803e3d6000fd5b60006125278284612fdb565b15612533576001612536565b60005b60ff16610b7d8385612f47565b60405173ffffffffffffffffffffffffffffffffffffffff83166024820152604481018290526125999084907fa9059cbb0000000000000000000000000000000000000000000000000000000090606401612309565b505050565b600381015460118201546040517f441a3e700000000000000000000000000000000000000000000000000000000081526801000000000000000090910462ffffff16600482015260006024820152829173ffffffffffffffffffffffffffffffffffffffff169063441a3e7090604401600060405180830381600087803b15801561262857600080fd5b505af115801561263c573d6000803e3d6000fd5b505050505050565b8015806126f357506040517fdd62ed3e00000000000000000000000000000000000000000000000000000000815230600482015273ffffffffffffffffffffffffffffffffffffffff838116602483015284169063dd62ed3e9060440160206040518083038186803b1580156126b957600080fd5b505afa1580156126cd573d6000803e3d6000fd5b505050506040513d601f19601f820116820180604052508101906126f19190612d79565b155b61277f576040517f08c379a000000000000000000000000000000000000000000000000000000000815260206004820152603660248201527f5361666545524332303a20617070726f76652066726f6d206e6f6e2d7a65726f60448201527f20746f206e6f6e2d7a65726f20616c6c6f77616e636500000000000000000000606482015260840161043c565b60405173ffffffffffffffffffffffffffffffffffffffff83166024820152604481018290526125999084907f095ea7b30000000000000000000000000000000000000000000000000000000090606401612309565b6000612837826040518060400160405280602081526020017f5361666545524332303a206c6f772d6c6576656c2063616c6c206661696c65648152508573ffffffffffffffffffffffffffffffffffffffff166129569092919063ffffffff16565b80519091501561259957808060200190518101906128559190612c5e565b612599576040517f08c379a000000000000000000000000000000000000000000000000000000000815260206004820152602a60248201527f5361666545524332303a204552433230206f7065726174696f6e20646964206e60448201527f6f74207375636365656400000000000000000000000000000000000000000000606482015260840161043c565b600382015460118301546040517fe2bbb1580000000000000000000000000000000000000000000000000000000081526801000000000000000090910462ffffff16600482015260248101839052839173ffffffffffffffffffffffffffffffffffffffff169063e2bbb158906044016124ed565b6060612965848460008561296d565b949350505050565b6060824710156129ff576040517f08c379a000000000000000000000000000000000000000000000000000000000815260206004820152602660248201527f416464726573733a20696e73756666696369656e742062616c616e636520666f60448201527f722063616c6c0000000000000000000000000000000000000000000000000000606482015260840161043c565b843b612a67576040517f08c379a000000000000000000000000000000000000000000000000000000000815260206004820152601d60248201527f416464726573733a2063616c6c20746f206e6f6e2d636f6e7472616374000000604482015260640161043c565b6000808673ffffffffffffffffffffffffffffffffffffffff168587604051612a909190612e3a565b60006040518083038185875af1925050503d8060008114612acd576040519150601f19603f3d011682016040523d82523d6000602084013e612ad2565b606091505b5091509150612ae2828286612aed565b979650505050505050565b60608315612afc575081610b87565b825115612b0c5782518084602001fd5b816040517f08c379a000000000000000000000000000000000000000000000000000000000815260040161043c9190612e56565b803573ffffffffffffffffffffffffffffffffffffffff81168114612b6457600080fd5b919050565b803561ffff81168114612b6457600080fd5b60006020808385031215612b8e57600080fd5b825167ffffffffffffffff80821115612ba657600080fd5b818501915085601f830112612bba57600080fd5b815181811115612bcc57612bcc6130ab565b8060051b6040517fffffffffffffffffffffffffffffffffffffffffffffffffffffffffffffffe0603f83011681018181108582111715612c0f57612c0f6130ab565b604052828152858101935084860182860187018a1015612c2e57600080fd5b600095505b83861015612c51578051855260019590950194938601938601612c33565b5098975050505050505050565b600060208284031215612c7057600080fd5b81518015158114610b8757600080fd5b600060208284031215612c9257600080fd5b5035919050565b60008060408385031215612cac57600080fd5b50508035926020909101359150565b600080600080600080600060e0888a031215612cd657600080fd5b87359650612ce660208901612b69565b9550612cf460408901612b69565b9450612d0260608901612b69565b9350612d1060808901612b69565b9250612d1e60a08901612b69565b9150612d2c60c08901612b40565b905092959891949750929550565b60008060008060808587031215612d5057600080fd5b843593506020850135925060408501359150612d6e60608601612b40565b905092959194509250565b600060208284031215612d8b57600080fd5b5051919050565b60008060408385031215612da557600080fd5b505080516020909101519092909150565b600080600060608486031215612dcb57600080fd5b8351925060208401519150604084015190509250925092565b6000815480845260208085019450836000528060002060005b83811015612e2f57815473ffffffffffffffffffffffffffffffffffffffff1687529582019560019182019101612dfd565b509495945050505050565b60008251612e4c818460208701612faf565b9190910192915050565b6020815260008251806020840152612e75816040850160208701612faf565b601f017fffffffffffffffffffffffffffffffffffffffffffffffffffffffffffffffe0169190910160400192915050565b8281526040602082015260006129656040830184612de4565b85815284602082015260a060408201526000612edf60a0830186612de4565b73ffffffffffffffffffffffffffffffffffffffff94909416606083015250608001529392505050565b600061ffff808316818516808303821115612f2657612f26612fef565b01949350505050565b60008219821115612f4257612f42612fef565b500190565b600082612f5657612f5661301e565b500490565b6000817fffffffffffffffffffffffffffffffffffffffffffffffffffffffffffffffff0483118215151615612f9357612f93612fef565b500290565b600082821015612faa57612faa612fef565b500390565b60005b83811015612fca578181015183820152602001612fb2565b838111156122a95750506000910152565b600082612fea57612fea61301e565b500690565b7f4e487b7100000000000000000000000000000000000000000000000000000000600052601160045260246000fd5b7f4e487b7100000000000000000000000000000000000000000000000000000000600052601260045260246000fd5b7f4e487b7100000000000000000000000000000000000000000000000000000000600052602160045260246000fd5b7f4e487b7100000000000000000000000000000000000000000000000000000000600052603260045260246000fd5b7f4e487b7100000000000000000000000000000000000000000000000000000000600052604160045260246000fdfea26469706673582212208a6d64ccbf93e2ab6951455fabfc3dee5b26adc2695e48dc88d1afadb8eeb1f364736f6c63430008070033",
			"opcodes": "PUSH2 0x3110 PUSH2 0x3A PUSH1 0xB DUP3 DUP3 DUP3 CODECOPY DUP1 MLOAD PUSH1 0x0 BYTE PUSH1 0x73 EQ PUSH2 0x2D JUMPI PUSH4 0x4E487B71 PUSH1 0xE0 SHL PUSH1 0x0 MSTORE PUSH1 0x0 PUSH1 0x4 MSTORE PUSH1 0x24 PUSH1 0x0 REVERT JUMPDEST ADDRESS PUSH1 0x0 MSTORE PUSH1 0x73 DUP2 MSTORE8 DUP3 DUP2 RETURN INVALID PUSH20 0x0 ADDRESS EQ PUSH1 0x80 PUSH1 0x40 MSTORE PUSH1 0x4 CALLDATASIZE LT PUSH2 0x18C JUMPI PUSH1 0x0 CALLDATALOAD PUSH1 0xE0 SHR DUP1 PUSH4 0x8CF57CB9 GT PUSH2 0xE2 JUMPI DUP1 PUSH4 0xDB4B7EEE GT PUSH2 0x96 JUMPI DUP1 PUSH4 0xEA02A088 GT PUSH2 0x70 JUMPI DUP1 PUSH4 0xEA02A088 EQ PUSH2 0x37C JUMPI DUP1 PUSH4 0xEB7E4F91 EQ PUSH2 0x39C JUMPI DUP1 PUSH4 0xFFBE9F1E EQ PUSH2 0x254 JUMPI PUSH1 0x0 DUP1 REVERT JUMPDEST DUP1 PUSH4 0xDB4B7EEE EQ PUSH2 0x321 JUMPI DUP1 PUSH4 0xDD51D4F9 EQ PUSH2 0x33C JUMPI DUP1 PUSH4 0xDFEBF9DC EQ PUSH2 0x35C JUMPI PUSH1 0x0 DUP1 REVERT JUMPDEST DUP1 PUSH4 0x9872317F GT PUSH2 0xC7 JUMPI DUP1 PUSH4 0x9872317F EQ PUSH2 0x2D3 JUMPI DUP1 PUSH4 0xA70E997E EQ PUSH2 0x2EE JUMPI DUP1 PUSH4 0xB94BED2B EQ PUSH2 0x30E JUMPI PUSH1 0x0 DUP1 REVERT JUMPDEST DUP1 PUSH4 0x8CF57CB9 EQ PUSH2 0x2AF JUMPI DUP1 PUSH4 0x8FEFDA06 EQ PUSH2 0x2CA JUMPI PUSH1 0x0 DUP1 REVERT JUMPDEST DUP1 PUSH4 0x67057B6C GT PUSH2 0x144 JUMPI DUP1 PUSH4 0x82982706 GT PUSH2 0x11E JUMPI DUP1 PUSH4 0x82982706 EQ PUSH2 0x266 JUMPI DUP1 PUSH4 0x866B2018 EQ PUSH2 0x286 JUMPI DUP1 PUSH4 0x88DF5371 EQ PUSH2 0x28F JUMPI PUSH1 0x0 DUP1 REVERT JUMPDEST DUP1 PUSH4 0x67057B6C EQ PUSH2 0x254 JUMPI DUP1 PUSH4 0x783478AD EQ PUSH2 0x25D JUMPI DUP1 PUSH4 0x784DEF8C EQ PUSH2 0x226 JUMPI PUSH1 0x0 DUP1 REVERT JUMPDEST DUP1 PUSH4 0x23BA71F5 GT PUSH2 0x175 JUMPI DUP1 PUSH4 0x23BA71F5 EQ PUSH2 0x1F8 JUMPI DUP1 PUSH4 0x41275358 EQ PUSH2 0x226 JUMPI DUP1 PUSH4 0x5B2B51EA EQ PUSH2 0x241 JUMPI PUSH1 0x0 DUP1 REVERT JUMPDEST DUP1 PUSH4 0x2D45457 EQ PUSH2 0x191 JUMPI DUP1 PUSH4 0x1A2F4BD3 EQ PUSH2 0x1D6 JUMPI JUMPDEST PUSH1 0x0 DUP1 REVERT JUMPDEST PUSH2 0x1AC PUSH20 0x2791BCA1F2DE4661ED88A30C99A7A9449AA84174 DUP2 JUMP JUMPDEST PUSH1 0x40 MLOAD PUSH20 0xFFFFFFFFFFFFFFFFFFFFFFFFFFFFFFFFFFFFFFFF SWAP1 SWAP2 AND DUP2 MSTORE PUSH1 0x20 ADD JUMPDEST PUSH1 0x40 MLOAD DUP1 SWAP2 SUB SWAP1 RETURN JUMPDEST DUP2 DUP1 ISZERO PUSH2 0x1E2 JUMPI PUSH1 0x0 DUP1 REVERT JUMPDEST POP PUSH2 0x1F6 PUSH2 0x1F1 CALLDATASIZE PUSH1 0x4 PUSH2 0x2CBB JUMP JUMPDEST PUSH2 0x3BC JUMP JUMPDEST STOP JUMPDEST DUP2 DUP1 ISZERO PUSH2 0x204 JUMPI PUSH1 0x0 DUP1 REVERT JUMPDEST POP PUSH2 0x218 PUSH2 0x213 CALLDATASIZE PUSH1 0x4 PUSH2 0x2C99 JUMP JUMPDEST PUSH2 0x721 JUMP JUMPDEST PUSH1 0x40 MLOAD SWAP1 DUP2 MSTORE PUSH1 0x20 ADD PUSH2 0x1CD JUMP JUMPDEST PUSH2 0x1AC PUSH20 0x5386881B46C37CDD30A748F7771CF95D7B213637 DUP2 JUMP JUMPDEST PUSH2 0x218 PUSH2 0x24F CALLDATASIZE PUSH1 0x4 PUSH2 0x2C80 JUMP JUMPDEST PUSH2 0xACE JUMP JUMPDEST PUSH2 0x218 PUSH2 0x2710 DUP2 JUMP JUMPDEST PUSH2 0x1AC PUSH2 0xDEAD DUP2 JUMP JUMPDEST DUP2 DUP1 ISZERO PUSH2 0x272 JUMPI PUSH1 0x0 DUP1 REVERT JUMPDEST POP PUSH2 0x218 PUSH2 0x281 CALLDATASIZE PUSH1 0x4 PUSH2 0x2C99 JUMP JUMPDEST PUSH2 0xB8E JUMP JUMPDEST PUSH2 0x218 PUSH2 0x26AC DUP2 JUMP JUMPDEST DUP2 DUP1 ISZERO PUSH2 0x29B JUMPI PUSH1 0x0 DUP1 REVERT JUMPDEST POP PUSH2 0x218 PUSH2 0x2AA CALLDATASIZE PUSH1 0x4 PUSH2 0x2D3A JUMP JUMPDEST PUSH2 0xC1E JUMP JUMPDEST PUSH2 0x1AC PUSH20 0x917FB15E8AAA12264DCBDC15AFEF7CD3CE76BA39 DUP2 JUMP JUMPDEST PUSH2 0x218 PUSH2 0x3E8 DUP2 JUMP JUMPDEST PUSH2 0x1AC PUSH20 0x76BF0C28E604CC3FE9967C83B3C3F31C213CFE64 DUP2 JUMP JUMPDEST DUP2 DUP1 ISZERO PUSH2 0x2FA JUMPI PUSH1 0x0 DUP1 REVERT JUMPDEST POP PUSH2 0x1F6 PUSH2 0x309 CALLDATASIZE PUSH1 0x4 PUSH2 0x2D3A JUMP JUMPDEST PUSH2 0xE91 JUMP JUMPDEST PUSH2 0x218 PUSH2 0x31C CALLDATASIZE PUSH1 0x4 PUSH2 0x2C80 JUMP JUMPDEST PUSH2 0x1064 JUMP JUMPDEST PUSH2 0x1AC PUSH20 0xD500B1D8E8EF31E21C99D1DB9A6444D3ADF1270 DUP2 JUMP JUMPDEST DUP2 DUP1 ISZERO PUSH2 0x348 JUMPI PUSH1 0x0 DUP1 REVERT JUMPDEST POP PUSH2 0x218 PUSH2 0x357 CALLDATASIZE PUSH1 0x4 PUSH2 0x2C99 JUMP JUMPDEST PUSH2 0x1130 JUMP JUMPDEST DUP2 DUP1 ISZERO PUSH2 0x368 JUMPI PUSH1 0x0 DUP1 REVERT JUMPDEST POP PUSH2 0x1F6 PUSH2 0x377 CALLDATASIZE PUSH1 0x4 PUSH2 0x2C80 JUMP JUMPDEST PUSH2 0x1447 JUMP JUMPDEST DUP2 DUP1 ISZERO PUSH2 0x388 JUMPI PUSH1 0x0 DUP1 REVERT JUMPDEST POP PUSH2 0x1F6 PUSH2 0x397 CALLDATASIZE PUSH1 0x4 PUSH2 0x2C80 JUMP JUMPDEST PUSH2 0x177C JUMP JUMPDEST DUP2 DUP1 ISZERO PUSH2 0x3A8 JUMPI PUSH1 0x0 DUP1 REVERT JUMPDEST POP PUSH2 0x1F6 PUSH2 0x3B7 CALLDATASIZE PUSH1 0x4 PUSH2 0x2C80 JUMP JUMPDEST PUSH2 0x1F31 JUMP JUMPDEST PUSH2 0x3E8 DUP5 PUSH2 0x3CA DUP8 DUP10 PUSH2 0x2F09 JUMP JUMPDEST PUSH2 0x3D4 SWAP2 SWAP1 PUSH2 0x2F09 JUMP JUMPDEST PUSH2 0xFFFF AND GT ISZERO PUSH2 0x445 JUMPI PUSH1 0x40 MLOAD PUSH32 0x8C379A000000000000000000000000000000000000000000000000000000000 DUP2 MSTORE PUSH1 0x20 PUSH1 0x4 DUP3 ADD MSTORE PUSH1 0xE PUSH1 0x24 DUP3 ADD MSTORE PUSH32 0x4D617820666565206F6620313025000000000000000000000000000000000000 PUSH1 0x44 DUP3 ADD MSTORE PUSH1 0x64 ADD JUMPDEST PUSH1 0x40 MLOAD DUP1 SWAP2 SUB SWAP1 REVERT JUMPDEST PUSH2 0x26AC DUP4 PUSH2 0xFFFF AND LT ISZERO PUSH2 0x4B5 JUMPI PUSH1 0x40 MLOAD PUSH32 0x8C379A000000000000000000000000000000000000000000000000000000000 DUP2 MSTORE PUSH1 0x20 PUSH1 0x4 DUP3 ADD MSTORE PUSH1 0x1A PUSH1 0x24 DUP3 ADD MSTORE PUSH32 0x5F7769746864726177466565466163746F7220746F6F206C6F77000000000000 PUSH1 0x44 DUP3 ADD MSTORE PUSH1 0x64 ADD PUSH2 0x43C JUMP JUMPDEST PUSH2 0x2710 DUP4 PUSH2 0xFFFF AND GT ISZERO PUSH2 0x525 JUMPI PUSH1 0x40 MLOAD PUSH32 0x8C379A000000000000000000000000000000000000000000000000000000000 DUP2 MSTORE PUSH1 0x20 PUSH1 0x4 DUP3 ADD MSTORE PUSH1 0x1B PUSH1 0x24 DUP3 ADD MSTORE PUSH32 0x5F7769746864726177466565466163746F7220746F6F20686967680000000000 PUSH1 0x44 DUP3 ADD MSTORE PUSH1 0x64 ADD PUSH2 0x43C JUMP JUMPDEST DUP7 SLOAD PUSH32 0xFFFFFFFFFFFFFFFF00000000FFFFFFFFFFFFFFFFFFFFFFFFFFFFFFFFFFFFFFFF AND PUSH21 0x10000000000000000000000000000000000000000 PUSH2 0xFFFF DUP9 DUP2 AND SWAP2 DUP3 MUL PUSH32 0xFFFFFFFFFFFFFFFF0000FFFFFFFFFFFFFFFFFFFFFFFFFFFFFFFFFFFFFFFFFFFF AND SWAP3 SWAP1 SWAP3 OR PUSH23 0x100000000000000000000000000000000000000000000 DUP9 DUP5 AND SWAP1 DUP2 MUL SWAP2 SWAP1 SWAP2 OR PUSH32 0xFFFFFFFF00000000FFFFFFFFFFFFFFFFFFFFFFFFFFFFFFFFFFFFFFFFFFFFFFFF AND PUSH25 0x1000000000000000000000000000000000000000000000000 DUP9 DUP6 AND SWAP1 DUP2 MUL PUSH32 0xFFFFFFFF0000FFFFFFFFFFFFFFFFFFFFFFFFFFFFFFFFFFFFFFFFFFFFFFFFFFFF AND SWAP2 SWAP1 SWAP2 OR PUSH27 0x10000000000000000000000000000000000000000000000000000 DUP9 DUP7 AND SWAP1 DUP2 MUL SWAP2 SWAP1 SWAP2 OR PUSH32 0xFFFF0000FFFFFFFFFFFFFFFF0000000000000000000000000000000000000000 AND PUSH29 0x100000000000000000000000000000000000000000000000000000000 SWAP6 DUP9 AND SWAP6 DUP7 MUL PUSH32 0xFFFFFFFFFFFFFFFFFFFFFFFF0000000000000000000000000000000000000000 AND OR PUSH20 0xFFFFFFFFFFFFFFFFFFFFFFFFFFFFFFFFFFFFFFFF DUP8 AND SWAP1 DUP2 OR DUP14 SSTORE PUSH1 0x40 DUP1 MLOAD SWAP2 DUP3 MSTORE PUSH1 0x20 DUP3 ADD SWAP6 SWAP1 SWAP6 MSTORE SWAP4 DUP5 ADD SWAP3 SWAP1 SWAP3 MSTORE PUSH1 0x60 DUP4 ADD MSTORE PUSH1 0x80 DUP3 ADD MSTORE PUSH1 0xA0 DUP2 ADD SWAP2 SWAP1 SWAP2 MSTORE PUSH32 0x7A7D844BFB1D318BD3E5AE1415B68ABF83071EDF39724448CF5399D43CFDA930 SWAP1 PUSH1 0xC0 ADD PUSH1 0x40 MLOAD DUP1 SWAP2 SUB SWAP1 LOG1 POP POP POP POP POP POP POP JUMP JUMPDEST PUSH1 0x5 DUP3 ADD DUP1 SLOAD DUP3 SWAP2 SWAP1 PUSH1 0x7 DUP6 ADD SWAP1 PUSH21 0x10000000000000000000000000000000000000000 SWAP1 DIV PUSH2 0xFFFF AND ISZERO PUSH2 0x7B9 JUMPI DUP2 SLOAD PUSH1 0x0 SWAP1 PUSH2 0x2710 SWAP1 PUSH2 0x77F SWAP1 PUSH21 0x10000000000000000000000000000000000000000 SWAP1 DIV PUSH2 0xFFFF AND DUP8 PUSH2 0x2F5B JUMP JUMPDEST PUSH2 0x789 SWAP2 SWAP1 PUSH2 0x2F47 JUMP JUMPDEST SWAP1 POP PUSH2 0x7AB DUP4 DUP3 DUP5 PUSH20 0x5386881B46C37CDD30A748F7771CF95D7B213637 PUSH2 0xE91 JUMP JUMPDEST PUSH2 0x7B5 DUP2 DUP6 PUSH2 0x2F98 JUMP JUMPDEST SWAP4 POP POP JUMPDEST DUP2 SLOAD PUSH23 0x100000000000000000000000000000000000000000000 SWAP1 DIV PUSH2 0xFFFF AND ISZERO PUSH2 0xA28 JUMPI DUP2 SLOAD PUSH1 0x0 SWAP1 PUSH2 0x2710 SWAP1 PUSH2 0x80F SWAP1 PUSH23 0x100000000000000000000000000000000000000000000 SWAP1 DIV PUSH2 0xFFFF AND DUP8 PUSH2 0x2F5B JUMP JUMPDEST PUSH2 0x819 SWAP2 SWAP1 PUSH2 0x2F47 JUMP JUMPDEST PUSH1 0x40 MLOAD PUSH32 0x70A0823100000000000000000000000000000000000000000000000000000000 DUP2 MSTORE ADDRESS PUSH1 0x4 DUP3 ADD MSTORE SWAP1 SWAP2 POP PUSH1 0x0 SWAP1 PUSH20 0x2791BCA1F2DE4661ED88A30C99A7A9449AA84174 SWAP1 PUSH4 0x70A08231 SWAP1 PUSH1 0x24 ADD PUSH1 0x20 PUSH1 0x40 MLOAD DUP1 DUP4 SUB DUP2 DUP7 DUP1 EXTCODESIZE ISZERO DUP1 ISZERO PUSH2 0x882 JUMPI PUSH1 0x0 DUP1 REVERT JUMPDEST POP GAS STATICCALL ISZERO DUP1 ISZERO PUSH2 0x896 JUMPI RETURNDATASIZE PUSH1 0x0 DUP1 RETURNDATACOPY RETURNDATASIZE PUSH1 0x0 REVERT JUMPDEST POP POP POP POP PUSH1 0x40 MLOAD RETURNDATASIZE PUSH1 0x1F NOT PUSH1 0x1F DUP3 ADD AND DUP3 ADD DUP1 PUSH1 0x40 MSTORE POP DUP2 ADD SWAP1 PUSH2 0x8BA SWAP2 SWAP1 PUSH2 0x2D79 JUMP JUMPDEST SWAP1 POP PUSH2 0x8CB DUP5 DUP4 DUP6 PUSH1 0x1 ADD ADDRESS PUSH2 0xC1E JUMP JUMPDEST POP PUSH1 0x40 MLOAD PUSH32 0x70A0823100000000000000000000000000000000000000000000000000000000 DUP2 MSTORE ADDRESS PUSH1 0x4 DUP3 ADD MSTORE PUSH1 0x0 SWAP1 DUP3 SWAP1 PUSH20 0x2791BCA1F2DE4661ED88A30C99A7A9449AA84174 SWAP1 PUSH4 0x70A08231 SWAP1 PUSH1 0x24 ADD PUSH1 0x20 PUSH1 0x40 MLOAD DUP1 DUP4 SUB DUP2 DUP7 DUP1 EXTCODESIZE ISZERO DUP1 ISZERO PUSH2 0x934 JUMPI PUSH1 0x0 DUP1 REVERT JUMPDEST POP GAS STATICCALL ISZERO DUP1 ISZERO PUSH2 0x948 JUMPI RETURNDATASIZE PUSH1 0x0 DUP1 RETURNDATACOPY RETURNDATASIZE PUSH1 0x0 REVERT JUMPDEST POP POP POP POP PUSH1 0x40 MLOAD RETURNDATASIZE PUSH1 0x1F NOT PUSH1 0x1F DUP3 ADD AND DUP3 ADD DUP1 PUSH1 0x40 MSTORE POP DUP2 ADD SWAP1 PUSH2 0x96C SWAP2 SWAP1 PUSH2 0x2D79 JUMP JUMPDEST PUSH2 0x976 SWAP2 SWAP1 PUSH2 0x2F98 JUMP JUMPDEST PUSH1 0x40 MLOAD PUSH32 0x1E2720FF00000000000000000000000000000000000000000000000000000000 DUP2 MSTORE PUSH1 0x4 DUP2 ADD DUP3 SWAP1 MSTORE SWAP1 SWAP2 POP PUSH20 0x917FB15E8AAA12264DCBDC15AFEF7CD3CE76BA39 SWAP1 PUSH4 0x1E2720FF SWAP1 PUSH1 0x24 ADD PUSH1 0x20 PUSH1 0x40 MLOAD DUP1 DUP4 SUB DUP2 PUSH1 0x0 DUP8 DUP1 EXTCODESIZE ISZERO DUP1 ISZERO PUSH2 0x9DF JUMPI PUSH1 0x0 DUP1 REVERT JUMPDEST POP GAS CALL ISZERO DUP1 ISZERO PUSH2 0x9F3 JUMPI RETURNDATASIZE PUSH1 0x0 DUP1 RETURNDATACOPY RETURNDATASIZE PUSH1 0x0 REVERT JUMPDEST POP POP POP POP PUSH1 0x40 MLOAD RETURNDATASIZE PUSH1 0x1F NOT PUSH1 0x1F DUP3 ADD AND DUP3 ADD DUP1 PUSH1 0x40 MSTORE POP DUP2 ADD SWAP1 PUSH2 0xA17 SWAP2 SWAP1 PUSH2 0x2C5E JUMP JUMPDEST POP PUSH2 0xA22 DUP4 DUP8 PUSH2 0x2F98 JUMP JUMPDEST SWAP6 POP POP POP POP JUMPDEST DUP2 SLOAD PUSH25 0x1000000000000000000000000000000000000000000000000 SWAP1 DIV PUSH2 0xFFFF AND ISZERO PUSH2 0xAC6 JUMPI DUP2 SLOAD PUSH1 0x0 SWAP1 PUSH2 0x2710 SWAP1 PUSH2 0xA82 SWAP1 PUSH25 0x1000000000000000000000000000000000000000000000000 SWAP1 DIV PUSH2 0xFFFF AND DUP8 PUSH2 0x2F5B JUMP JUMPDEST PUSH2 0xA8C SWAP2 SWAP1 PUSH2 0x2F47 JUMP JUMPDEST SWAP1 POP PUSH2 0xA9F DUP4 DUP3 DUP5 PUSH1 0x2 ADD PUSH2 0xDEAD PUSH2 0xC1E JUMP JUMPDEST DUP7 PUSH1 0x10 ADD PUSH1 0x0 DUP3 DUP3 SLOAD PUSH2 0xAB2 SWAP2 SWAP1 PUSH2 0x2F2F JUMP JUMPDEST SWAP1 SWAP2 SSTORE POP PUSH2 0xAC2 SWAP1 POP DUP2 DUP6 PUSH2 0x2F98 JUMP JUMPDEST SWAP4 POP POP JUMPDEST POP POP SWAP3 SWAP2 POP POP JUMP JUMPDEST PUSH1 0x0 DUP2 PUSH2 0xADA DUP2 PUSH2 0x1064 JUMP JUMPDEST PUSH1 0x1 DUP3 ADD SLOAD PUSH1 0x40 MLOAD PUSH32 0x70A0823100000000000000000000000000000000000000000000000000000000 DUP2 MSTORE ADDRESS PUSH1 0x4 DUP3 ADD MSTORE PUSH20 0xFFFFFFFFFFFFFFFFFFFFFFFFFFFFFFFFFFFFFFFF SWAP1 SWAP2 AND SWAP1 PUSH4 0x70A08231 SWAP1 PUSH1 0x24 ADD PUSH1 0x20 PUSH1 0x40 MLOAD DUP1 DUP4 SUB DUP2 DUP7 DUP1 EXTCODESIZE ISZERO DUP1 ISZERO PUSH2 0xB45 JUMPI PUSH1 0x0 DUP1 REVERT JUMPDEST POP GAS STATICCALL ISZERO DUP1 ISZERO PUSH2 0xB59 JUMPI RETURNDATASIZE PUSH1 0x0 DUP1 RETURNDATACOPY RETURNDATASIZE PUSH1 0x0 REVERT JUMPDEST POP POP POP POP PUSH1 0x40 MLOAD RETURNDATASIZE PUSH1 0x1F NOT PUSH1 0x1F DUP3 ADD AND DUP3 ADD DUP1 PUSH1 0x40 MSTORE POP DUP2 ADD SWAP1 PUSH2 0xB7D SWAP2 SWAP1 PUSH2 0x2D79 JUMP JUMPDEST PUSH2 0xB87 SWAP2 SWAP1 PUSH2 0x2F2F JUMP JUMPDEST SWAP4 SWAP3 POP POP POP JUMP JUMPDEST PUSH1 0x0 DUP3 DUP2 PUSH2 0xB9B DUP3 PUSH2 0xACE JUMP JUMPDEST PUSH1 0x1 DUP4 ADD SLOAD SWAP1 SWAP2 POP PUSH2 0xBC5 SWAP1 PUSH20 0xFFFFFFFFFFFFFFFFFFFFFFFFFFFFFFFFFFFFFFFF AND CALLER ADDRESS DUP8 PUSH2 0x22AF JUMP JUMPDEST PUSH1 0x0 PUSH2 0xBD0 DUP7 PUSH2 0x238B JUMP JUMPDEST PUSH1 0xF DUP8 ADD SLOAD SWAP1 SWAP2 POP ISZERO PUSH2 0xBFB JUMPI DUP2 DUP7 PUSH1 0xF ADD SLOAD DUP3 PUSH2 0xBEE SWAP2 SWAP1 PUSH2 0x2F5B JUMP JUMPDEST PUSH2 0xBF8 SWAP2 SWAP1 PUSH2 0x2F47 JUMP JUMPDEST SWAP1 POP JUMPDEST DUP1 DUP7 PUSH1 0xF ADD PUSH1 0x0 DUP3 DUP3 SLOAD PUSH2 0xC0F SWAP2 SWAP1 PUSH2 0x2F2F JUMP JUMPDEST SWAP1 SWAP2 SSTORE POP SWAP1 SWAP7 SWAP6 POP POP POP POP POP POP JUMP JUMPDEST DUP4 SLOAD PUSH1 0x40 MLOAD PUSH32 0xD06CA61F00000000000000000000000000000000000000000000000000000000 DUP2 MSTORE PUSH1 0x0 SWAP2 DUP3 SWAP2 PUSH20 0xFFFFFFFFFFFFFFFFFFFFFFFFFFFFFFFFFFFFFFFF SWAP1 SWAP2 AND SWAP1 PUSH4 0xD06CA61F SWAP1 PUSH2 0xC7A SWAP1 DUP9 SWAP1 DUP9 SWAP1 PUSH1 0x4 ADD PUSH2 0x2EA7 JUMP JUMPDEST PUSH1 0x0 PUSH1 0x40 MLOAD DUP1 DUP4 SUB DUP2 DUP7 DUP1 EXTCODESIZE ISZERO DUP1 ISZERO PUSH2 0xC92 JUMPI PUSH1 0x0 DUP1 REVERT JUMPDEST POP GAS STATICCALL ISZERO DUP1 ISZERO PUSH2 0xCA6 JUMPI RETURNDATASIZE PUSH1 0x0 DUP1 RETURNDATACOPY RETURNDATASIZE PUSH1 0x0 REVERT JUMPDEST POP POP POP POP PUSH1 0x40 MLOAD RETURNDATASIZE PUSH1 0x0 DUP3 RETURNDATACOPY PUSH1 0x1F RETURNDATASIZE SWAP1 DUP2 ADD PUSH32 0xFFFFFFFFFFFFFFFFFFFFFFFFFFFFFFFFFFFFFFFFFFFFFFFFFFFFFFFFFFFFFFE0 AND DUP3 ADD PUSH1 0x40 MSTORE PUSH2 0xCEC SWAP2 SWAP1 DUP2 ADD SWAP1 PUSH2 0x2B7B JUMP JUMPDEST SWAP1 POP PUSH1 0x0 DUP2 PUSH1 0x1 DUP4 MLOAD PUSH2 0xCFF SWAP2 SWAP1 PUSH2 0x2F98 JUMP JUMPDEST DUP2 MLOAD DUP2 LT PUSH2 0xD0F JUMPI PUSH2 0xD0F PUSH2 0x307C JUMP JUMPDEST PUSH1 0x20 MUL PUSH1 0x20 ADD ADD MLOAD SWAP1 POP PUSH20 0x76BF0C28E604CC3FE9967C83B3C3F31C213CFE64 PUSH20 0xFFFFFFFFFFFFFFFFFFFFFFFFFFFFFFFFFFFFFFFF AND DUP6 PUSH1 0x1 DUP8 DUP1 SLOAD SWAP1 POP PUSH2 0xD56 SWAP2 SWAP1 PUSH2 0x2F98 JUMP JUMPDEST DUP2 SLOAD DUP2 LT PUSH2 0xD66 JUMPI PUSH2 0xD66 PUSH2 0x307C JUMP JUMPDEST PUSH1 0x0 SWAP2 DUP3 MSTORE PUSH1 0x20 SWAP1 SWAP2 KECCAK256 ADD SLOAD PUSH20 0xFFFFFFFFFFFFFFFFFFFFFFFFFFFFFFFFFFFFFFFF AND EQ DUP1 ISZERO PUSH2 0xDAC JUMPI POP PUSH20 0xFFFFFFFFFFFFFFFFFFFFFFFFFFFFFFFFFFFFFFFF DUP5 AND PUSH2 0xDEAD EQ JUMPDEST ISZERO PUSH2 0xDB5 JUMPI DUP1 SWAP3 POP JUMPDEST DUP7 SLOAD PUSH1 0x40 MLOAD PUSH32 0x38ED173900000000000000000000000000000000000000000000000000000000 DUP2 MSTORE PUSH20 0xFFFFFFFFFFFFFFFFFFFFFFFFFFFFFFFFFFFFFFFF SWAP1 SWAP2 AND SWAP1 PUSH4 0x38ED1739 SWAP1 PUSH2 0xE12 SWAP1 DUP10 SWAP1 DUP6 SWAP1 DUP11 SWAP1 DUP11 SWAP1 TIMESTAMP SWAP1 PUSH1 0x4 ADD PUSH2 0x2EC0 JUMP JUMPDEST PUSH1 0x0 PUSH1 0x40 MLOAD DUP1 DUP4 SUB DUP2 PUSH1 0x0 DUP8 DUP1 EXTCODESIZE ISZERO DUP1 ISZERO PUSH2 0xE2C JUMPI PUSH1 0x0 DUP1 REVERT JUMPDEST POP GAS CALL ISZERO DUP1 ISZERO PUSH2 0xE40 JUMPI RETURNDATASIZE PUSH1 0x0 DUP1 RETURNDATACOPY RETURNDATASIZE PUSH1 0x0 REVERT JUMPDEST POP POP POP POP PUSH1 0x40 MLOAD RETURNDATASIZE PUSH1 0x0 DUP3 RETURNDATACOPY PUSH1 0x1F RETURNDATASIZE SWAP1 DUP2 ADD PUSH32 0xFFFFFFFFFFFFFFFFFFFFFFFFFFFFFFFFFFFFFFFFFFFFFFFFFFFFFFFFFFFFFFE0 AND DUP3 ADD PUSH1 0x40 MSTORE PUSH2 0xE86 SWAP2 SWAP1 DUP2 ADD SWAP1 PUSH2 0x2B7B JUMP JUMPDEST POP POP POP SWAP5 SWAP4 POP POP POP POP JUMP JUMPDEST DUP4 SLOAD PUSH1 0x40 MLOAD PUSH32 0xD06CA61F00000000000000000000000000000000000000000000000000000000 DUP2 MSTORE PUSH1 0x0 SWAP2 PUSH20 0xFFFFFFFFFFFFFFFFFFFFFFFFFFFFFFFFFFFFFFFF AND SWAP1 PUSH4 0xD06CA61F SWAP1 PUSH2 0xEE9 SWAP1 DUP8 SWAP1 DUP8 SWAP1 PUSH1 0x4 ADD PUSH2 0x2EA7 JUMP JUMPDEST PUSH1 0x0 PUSH1 0x40 MLOAD DUP1 DUP4 SUB DUP2 DUP7 DUP1 EXTCODESIZE ISZERO DUP1 ISZERO PUSH2 0xF01 JUMPI PUSH1 0x0 DUP1 REVERT JUMPDEST POP GAS STATICCALL ISZERO DUP1 ISZERO PUSH2 0xF15 JUMPI RETURNDATASIZE PUSH1 0x0 DUP1 RETURNDATACOPY RETURNDATASIZE PUSH1 0x0 REVERT JUMPDEST POP POP POP POP PUSH1 0x40 MLOAD RETURNDATASIZE PUSH1 0x0 DUP3 RETURNDATACOPY PUSH1 0x1F RETURNDATASIZE SWAP1 DUP2 ADD PUSH32 0xFFFFFFFFFFFFFFFFFFFFFFFFFFFFFFFFFFFFFFFFFFFFFFFFFFFFFFFFFFFFFFE0 AND DUP3 ADD PUSH1 0x40 MSTORE PUSH2 0xF5B SWAP2 SWAP1 DUP2 ADD SWAP1 PUSH2 0x2B7B JUMP JUMPDEST SWAP1 POP PUSH1 0x0 DUP2 PUSH1 0x1 DUP4 MLOAD PUSH2 0xF6E SWAP2 SWAP1 PUSH2 0x2F98 JUMP JUMPDEST DUP2 MLOAD DUP2 LT PUSH2 0xF7E JUMPI PUSH2 0xF7E PUSH2 0x307C JUMP JUMPDEST PUSH1 0x20 SWAP1 DUP2 MUL SWAP2 SWAP1 SWAP2 ADD ADD MLOAD DUP7 SLOAD PUSH1 0x40 MLOAD PUSH32 0x18CBAFE500000000000000000000000000000000000000000000000000000000 DUP2 MSTORE SWAP2 SWAP3 POP PUSH20 0xFFFFFFFFFFFFFFFFFFFFFFFFFFFFFFFFFFFFFFFF AND SWAP1 PUSH4 0x18CBAFE5 SWAP1 PUSH2 0xFE7 SWAP1 DUP9 SWAP1 DUP6 SWAP1 DUP10 SWAP1 DUP10 SWAP1 TIMESTAMP SWAP1 PUSH1 0x4 ADD PUSH2 0x2EC0 JUMP JUMPDEST PUSH1 0x0 PUSH1 0x40 MLOAD DUP1 DUP4 SUB DUP2 PUSH1 0x0 DUP8 DUP1 EXTCODESIZE ISZERO DUP1 ISZERO PUSH2 0x1001 JUMPI PUSH1 0x0 DUP1 REVERT JUMPDEST POP GAS CALL ISZERO DUP1 ISZERO PUSH2 0x1015 JUMPI RETURNDATASIZE PUSH1 0x0 DUP1 RETURNDATACOPY RETURNDATASIZE PUSH1 0x0 REVERT JUMPDEST POP POP POP POP PUSH1 0x40 MLOAD RETURNDATASIZE PUSH1 0x0 DUP3 RETURNDATACOPY PUSH1 0x1F RETURNDATASIZE SWAP1 DUP2 ADD PUSH32 0xFFFFFFFFFFFFFFFFFFFFFFFFFFFFFFFFFFFFFFFFFFFFFFFFFFFFFFFFFFFFFFE0 AND DUP3 ADD PUSH1 0x40 MSTORE PUSH2 0x105B SWAP2 SWAP1 DUP2 ADD SWAP1 PUSH2 0x2B7B JUMP JUMPDEST POP POP POP POP POP POP POP JUMP JUMPDEST PUSH1 0x3 DUP2 ADD SLOAD PUSH1 0x11 DUP3 ADD SLOAD PUSH1 0x40 MLOAD PUSH32 0x93F1A40B00000000000000000000000000000000000000000000000000000000 DUP2 MSTORE PUSH9 0x10000000000000000 SWAP1 SWAP2 DIV PUSH3 0xFFFFFF AND PUSH1 0x4 DUP3 ADD MSTORE ADDRESS PUSH1 0x24 DUP3 ADD MSTORE PUSH1 0x0 SWAP2 DUP4 SWAP2 DUP4 SWAP2 PUSH20 0xFFFFFFFFFFFFFFFFFFFFFFFFFFFFFFFFFFFFFFFF AND SWAP1 PUSH4 0x93F1A40B SWAP1 PUSH1 0x44 ADD PUSH1 0x40 DUP1 MLOAD DUP1 DUP4 SUB DUP2 DUP7 DUP1 EXTCODESIZE ISZERO DUP1 ISZERO PUSH2 0x10EF JUMPI PUSH1 0x0 DUP1 REVERT JUMPDEST POP GAS STATICCALL ISZERO DUP1 ISZERO PUSH2 0x1103 JUMPI RETURNDATASIZE PUSH1 0x0 DUP1 RETURNDATACOPY RETURNDATASIZE PUSH1 0x0 REVERT JUMPDEST POP POP POP POP PUSH1 0x40 MLOAD RETURNDATASIZE PUSH1 0x1F NOT PUSH1 0x1F DUP3 ADD AND DUP3 ADD DUP1 PUSH1 0x40 MSTORE POP DUP2 ADD SWAP1 PUSH2 0x1127 SWAP2 SWAP1 PUSH2 0x2D92 JUMP JUMPDEST POP SWAP5 SWAP4 POP POP POP POP JUMP JUMPDEST PUSH1 0x0 DUP1 DUP3 GT PUSH2 0x119B JUMPI PUSH1 0x40 MLOAD PUSH32 0x8C379A000000000000000000000000000000000000000000000000000000000 DUP2 MSTORE PUSH1 0x20 PUSH1 0x4 DUP3 ADD MSTORE PUSH1 0xD PUSH1 0x24 DUP3 ADD MSTORE PUSH32 0x5F77616E74416D74206973203000000000000000000000000000000000000000 PUSH1 0x44 DUP3 ADD MSTORE PUSH1 0x64 ADD PUSH2 0x43C JUMP JUMPDEST PUSH1 0x1 DUP4 ADD SLOAD PUSH1 0x40 MLOAD PUSH32 0x70A0823100000000000000000000000000000000000000000000000000000000 DUP2 MSTORE ADDRESS PUSH1 0x4 DUP3 ADD MSTORE DUP5 SWAP2 PUSH1 0x5 DUP4 ADD SWAP2 PUSH1 0x0 SWAP2 PUSH20 0xFFFFFFFFFFFFFFFFFFFFFFFFFFFFFFFFFFFFFFFF AND SWAP1 PUSH4 0x70A08231 SWAP1 PUSH1 0x24 ADD PUSH1 0x20 PUSH1 0x40 MLOAD DUP1 DUP4 SUB DUP2 DUP7 DUP1 EXTCODESIZE ISZERO DUP1 ISZERO PUSH2 0x120E JUMPI PUSH1 0x0 DUP1 REVERT JUMPDEST POP GAS STATICCALL ISZERO DUP1 ISZERO PUSH2 0x1222 JUMPI RETURNDATASIZE PUSH1 0x0 DUP1 RETURNDATACOPY RETURNDATASIZE PUSH1 0x0 REVERT JUMPDEST POP POP POP POP PUSH1 0x40 MLOAD RETURNDATASIZE PUSH1 0x1F NOT PUSH1 0x1F DUP3 ADD AND DUP3 ADD DUP1 PUSH1 0x40 MSTORE POP DUP2 ADD SWAP1 PUSH2 0x1246 SWAP2 SWAP1 PUSH2 0x2D79 JUMP JUMPDEST SWAP1 POP DUP1 DUP6 GT ISZERO PUSH2 0x1309 JUMPI PUSH2 0x1263 DUP7 PUSH2 0x125E DUP4 DUP9 PUSH2 0x2F98 JUMP JUMPDEST PUSH2 0x247C JUMP JUMPDEST PUSH1 0x1 DUP4 ADD SLOAD PUSH1 0x40 MLOAD PUSH32 0x70A0823100000000000000000000000000000000000000000000000000000000 DUP2 MSTORE ADDRESS PUSH1 0x4 DUP3 ADD MSTORE PUSH20 0xFFFFFFFFFFFFFFFFFFFFFFFFFFFFFFFFFFFFFFFF SWAP1 SWAP2 AND SWAP1 PUSH4 0x70A08231 SWAP1 PUSH1 0x24 ADD PUSH1 0x20 PUSH1 0x40 MLOAD DUP1 DUP4 SUB DUP2 DUP7 DUP1 EXTCODESIZE ISZERO DUP1 ISZERO PUSH2 0x12CE JUMPI PUSH1 0x0 DUP1 REVERT JUMPDEST POP GAS STATICCALL ISZERO DUP1 ISZERO PUSH2 0x12E2 JUMPI RETURNDATASIZE PUSH1 0x0 DUP1 RETURNDATACOPY RETURNDATASIZE PUSH1 0x0 REVERT JUMPDEST POP POP POP POP PUSH1 0x40 MLOAD RETURNDATASIZE PUSH1 0x1F NOT PUSH1 0x1F DUP3 ADD AND DUP3 ADD DUP1 PUSH1 0x40 MSTORE POP DUP2 ADD SWAP1 PUSH2 0x1306 SWAP2 SWAP1 PUSH2 0x2D79 JUMP JUMPDEST SWAP1 POP JUMPDEST DUP1 DUP6 GT ISZERO PUSH2 0x1315 JUMPI DUP1 SWAP5 POP JUMPDEST PUSH1 0x0 PUSH2 0x1320 DUP8 PUSH2 0xACE JUMP JUMPDEST SWAP1 POP DUP1 DUP7 GT ISZERO PUSH2 0x132E JUMPI DUP1 SWAP6 POP JUMPDEST PUSH1 0x0 PUSH2 0x134A DUP3 DUP10 PUSH1 0xF ADD SLOAD DUP10 PUSH2 0x1344 SWAP2 SWAP1 PUSH2 0x2F5B JUMP JUMPDEST SWAP1 PUSH2 0x251B JUMP JUMPDEST SWAP1 POP DUP8 PUSH1 0xF ADD SLOAD DUP2 GT ISZERO PUSH2 0x135F JUMPI POP PUSH1 0xF DUP8 ADD SLOAD JUMPDEST DUP1 DUP9 PUSH1 0xF ADD PUSH1 0x0 DUP3 DUP3 SLOAD PUSH2 0x1373 SWAP2 SWAP1 PUSH2 0x2F98 JUMP JUMPDEST SWAP1 SWAP2 SSTORE POP POP DUP4 SLOAD PUSH1 0x0 SWAP1 PUSH2 0x2710 SWAP1 PUSH2 0x13AD SWAP1 PUSH27 0x10000000000000000000000000000000000000000000000000000 SWAP1 DIV PUSH2 0xFFFF AND DUP3 PUSH2 0x2F98 JUMP JUMPDEST PUSH2 0x13B7 SWAP1 DUP11 PUSH2 0x2F5B JUMP JUMPDEST PUSH2 0x13C1 SWAP2 SWAP1 PUSH2 0x2F47 JUMP JUMPDEST SWAP1 POP DUP1 ISZERO PUSH2 0x1403 JUMPI PUSH1 0x1 DUP7 ADD SLOAD PUSH2 0x1403 SWAP1 PUSH20 0xFFFFFFFFFFFFFFFFFFFFFFFFFFFFFFFFFFFFFFFF AND PUSH20 0x5386881B46C37CDD30A748F7771CF95D7B213637 DUP4 PUSH2 0x2543 JUMP JUMPDEST PUSH2 0x140D DUP2 DUP10 PUSH2 0x2F98 JUMP JUMPDEST DUP7 SLOAD PUSH1 0x1 DUP9 ADD SLOAD SWAP2 SWAP10 POP PUSH2 0x143B SWAP2 PUSH20 0xFFFFFFFFFFFFFFFFFFFFFFFFFFFFFFFFFFFFFFFF SWAP1 DUP2 AND SWAP2 AND DUP11 PUSH2 0x2543 JUMP JUMPDEST POP SWAP8 SWAP7 POP POP POP POP POP POP POP JUMP JUMPDEST PUSH1 0x1 PUSH1 0x11 DUP3 ADD SLOAD PUSH12 0x10000000000000000000000 SWAP1 DIV PUSH1 0xFF AND PUSH1 0x3 DUP2 GT ISZERO PUSH2 0x1471 JUMPI PUSH2 0x1471 PUSH2 0x304D JUMP JUMPDEST EQ PUSH2 0x14D8 JUMPI PUSH1 0x40 MLOAD PUSH32 0x8C379A000000000000000000000000000000000000000000000000000000000 DUP2 MSTORE PUSH1 0x20 PUSH1 0x4 DUP3 ADD MSTORE PUSH1 0x13 PUSH1 0x24 DUP3 ADD MSTORE PUSH32 0x6D757374206265204C5020737472617465677900000000000000000000000000 PUSH1 0x44 DUP3 ADD MSTORE PUSH1 0x64 ADD PUSH2 0x43C JUMP JUMPDEST PUSH1 0xC DUP2 ADD DUP1 SLOAD PUSH1 0x7 DUP4 ADD SWAP2 PUSH1 0x5 DUP5 ADD SWAP2 PUSH1 0x0 SWAP2 SWAP1 DUP3 SWAP1 PUSH2 0x14FA JUMPI PUSH2 0x14FA PUSH2 0x307C JUMP JUMPDEST PUSH1 0x0 SWAP2 DUP3 MSTORE PUSH1 0x20 DUP3 KECCAK256 ADD SLOAD PUSH1 0x6 DUP6 ADD DUP1 SLOAD PUSH20 0xFFFFFFFFFFFFFFFFFFFFFFFFFFFFFFFFFFFFFFFF SWAP1 SWAP3 AND SWAP4 POP SWAP1 DUP3 SWAP1 PUSH2 0x1534 JUMPI PUSH2 0x1534 PUSH2 0x307C JUMP JUMPDEST PUSH1 0x0 SWAP2 DUP3 MSTORE PUSH1 0x20 DUP3 KECCAK256 ADD SLOAD PUSH1 0x5 DUP7 ADD DUP1 SLOAD PUSH20 0xFFFFFFFFFFFFFFFFFFFFFFFFFFFFFFFFFFFFFFFF SWAP1 SWAP3 AND SWAP4 POP SWAP1 PUSH2 0x156C SWAP1 PUSH1 0x1 SWAP1 PUSH2 0x2F98 JUMP JUMPDEST DUP2 SLOAD DUP2 LT PUSH2 0x157C JUMPI PUSH2 0x157C PUSH2 0x307C JUMP JUMPDEST PUSH1 0x0 SWAP2 DUP3 MSTORE PUSH1 0x20 DUP3 KECCAK256 ADD SLOAD PUSH1 0x40 MLOAD PUSH32 0x70A0823100000000000000000000000000000000000000000000000000000000 DUP2 MSTORE ADDRESS PUSH1 0x4 DUP3 ADD MSTORE PUSH20 0xFFFFFFFFFFFFFFFFFFFFFFFFFFFFFFFFFFFFFFFF SWAP2 DUP3 AND SWAP4 POP SWAP1 DUP6 AND SWAP1 PUSH4 0x70A08231 SWAP1 PUSH1 0x24 ADD PUSH1 0x20 PUSH1 0x40 MLOAD DUP1 DUP4 SUB DUP2 DUP7 DUP1 EXTCODESIZE ISZERO DUP1 ISZERO PUSH2 0x15F2 JUMPI PUSH1 0x0 DUP1 REVERT JUMPDEST POP GAS STATICCALL ISZERO DUP1 ISZERO PUSH2 0x1606 JUMPI RETURNDATASIZE PUSH1 0x0 DUP1 RETURNDATACOPY RETURNDATASIZE PUSH1 0x0 REVERT JUMPDEST POP POP POP POP PUSH1 0x40 MLOAD RETURNDATASIZE PUSH1 0x1F NOT PUSH1 0x1F DUP3 ADD AND DUP3 ADD DUP1 PUSH1 0x40 MSTORE POP DUP2 ADD SWAP1 PUSH2 0x162A SWAP2 SWAP1 PUSH2 0x2D79 JUMP JUMPDEST SWAP1 POP PUSH1 0x0 DUP2 GT DUP1 ISZERO PUSH2 0x1668 JUMPI POP DUP2 PUSH20 0xFFFFFFFFFFFFFFFFFFFFFFFFFFFFFFFFFFFFFFFF AND DUP5 PUSH20 0xFFFFFFFFFFFFFFFFFFFFFFFFFFFFFFFFFFFFFFFF AND EQ ISZERO JUMPDEST ISZERO PUSH2 0x167E JUMPI PUSH2 0x167C DUP6 DUP3 DUP9 PUSH1 0x5 ADD ADDRESS PUSH2 0xC1E JUMP JUMPDEST POP JUMPDEST PUSH1 0x40 MLOAD PUSH32 0x70A0823100000000000000000000000000000000000000000000000000000000 DUP2 MSTORE ADDRESS PUSH1 0x4 DUP3 ADD MSTORE PUSH1 0x0 SWAP1 PUSH20 0xFFFFFFFFFFFFFFFFFFFFFFFFFFFFFFFFFFFFFFFF DUP6 AND SWAP1 PUSH4 0x70A08231 SWAP1 PUSH1 0x24 ADD PUSH1 0x20 PUSH1 0x40 MLOAD DUP1 DUP4 SUB DUP2 DUP7 DUP1 EXTCODESIZE ISZERO DUP1 ISZERO PUSH2 0x16E6 JUMPI PUSH1 0x0 DUP1 REVERT JUMPDEST POP GAS STATICCALL ISZERO DUP1 ISZERO PUSH2 0x16FA JUMPI RETURNDATASIZE PUSH1 0x0 DUP1 RETURNDATACOPY RETURNDATASIZE PUSH1 0x0 REVERT JUMPDEST POP POP POP POP PUSH1 0x40 MLOAD RETURNDATASIZE PUSH1 0x1F NOT PUSH1 0x1F DUP3 ADD AND DUP3 ADD DUP1 PUSH1 0x40 MSTORE POP DUP2 ADD SWAP1 PUSH2 0x171E SWAP2 SWAP1 PUSH2 0x2D79 JUMP JUMPDEST SWAP1 POP PUSH1 0x0 DUP2 GT DUP1 ISZERO PUSH2 0x175C JUMPI POP DUP3 PUSH20 0xFFFFFFFFFFFFFFFFFFFFFFFFFFFFFFFFFFFFFFFF AND DUP5 PUSH20 0xFFFFFFFFFFFFFFFFFFFFFFFFFFFFFFFFFFFFFFFF AND EQ ISZERO JUMPDEST ISZERO PUSH2 0x1772 JUMPI PUSH2 0x1770 DUP7 DUP3 DUP10 PUSH1 0x6 ADD ADDRESS PUSH2 0xC1E JUMP JUMPDEST POP JUMPDEST POP POP POP POP POP POP POP POP JUMP JUMPDEST PUSH1 0x2 DUP2 ADD SLOAD PUSH1 0x40 MLOAD PUSH32 0x70A0823100000000000000000000000000000000000000000000000000000000 DUP2 MSTORE ADDRESS PUSH1 0x4 DUP3 ADD MSTORE DUP3 SWAP2 PUSH1 0x7 DUP4 ADD SWAP2 PUSH1 0x5 DUP5 ADD SWAP2 PUSH1 0x0 SWAP2 PUSH20 0xFFFFFFFFFFFFFFFFFFFFFFFFFFFFFFFFFFFFFFFF SWAP1 SWAP2 AND SWAP1 PUSH4 0x70A08231 SWAP1 PUSH1 0x24 ADD PUSH1 0x20 PUSH1 0x40 MLOAD DUP1 DUP4 SUB DUP2 DUP7 DUP1 EXTCODESIZE ISZERO DUP1 ISZERO PUSH2 0x17F6 JUMPI PUSH1 0x0 DUP1 REVERT JUMPDEST POP GAS STATICCALL ISZERO DUP1 ISZERO PUSH2 0x180A JUMPI RETURNDATASIZE PUSH1 0x0 DUP1 RETURNDATACOPY RETURNDATASIZE PUSH1 0x0 REVERT JUMPDEST POP POP POP POP PUSH1 0x40 MLOAD RETURNDATASIZE PUSH1 0x1F NOT PUSH1 0x1F DUP3 ADD AND DUP3 ADD DUP1 PUSH1 0x40 MSTORE POP DUP2 ADD SWAP1 PUSH2 0x182E SWAP2 SWAP1 PUSH2 0x2D79 JUMP JUMPDEST SWAP1 POP PUSH2 0x1839 DUP6 PUSH2 0x259E JUMP JUMPDEST PUSH1 0x2 DUP5 ADD SLOAD PUSH1 0x40 MLOAD PUSH32 0x70A0823100000000000000000000000000000000000000000000000000000000 DUP2 MSTORE ADDRESS PUSH1 0x4 DUP3 ADD MSTORE PUSH1 0x0 SWAP2 DUP4 SWAP2 PUSH20 0xFFFFFFFFFFFFFFFFFFFFFFFFFFFFFFFFFFFFFFFF SWAP1 SWAP2 AND SWAP1 PUSH4 0x70A08231 SWAP1 PUSH1 0x24 ADD PUSH1 0x20 PUSH1 0x40 MLOAD DUP1 DUP4 SUB DUP2 DUP7 DUP1 EXTCODESIZE ISZERO DUP1 ISZERO PUSH2 0x18A9 JUMPI PUSH1 0x0 DUP1 REVERT JUMPDEST POP GAS STATICCALL ISZERO DUP1 ISZERO PUSH2 0x18BD JUMPI RETURNDATASIZE PUSH1 0x0 DUP1 RETURNDATACOPY RETURNDATASIZE PUSH1 0x0 REVERT JUMPDEST POP POP POP POP PUSH1 0x40 MLOAD RETURNDATASIZE PUSH1 0x1F NOT PUSH1 0x1F DUP3 ADD AND DUP3 ADD DUP1 PUSH1 0x40 MSTORE POP DUP2 ADD SWAP1 PUSH2 0x18E1 SWAP2 SWAP1 PUSH2 0x2D79 JUMP JUMPDEST PUSH2 0x18EB SWAP2 SWAP1 PUSH2 0x2F98 JUMP JUMPDEST SWAP1 POP DUP1 ISZERO PUSH2 0x18FF JUMPI PUSH2 0x18FD DUP7 DUP3 PUSH2 0x721 JUMP JUMPDEST POP JUMPDEST PUSH1 0x2 DUP6 ADD SLOAD PUSH1 0x40 MLOAD PUSH32 0x70A0823100000000000000000000000000000000000000000000000000000000 DUP2 MSTORE ADDRESS PUSH1 0x4 DUP3 ADD MSTORE PUSH20 0xFFFFFFFFFFFFFFFFFFFFFFFFFFFFFFFFFFFFFFFF SWAP1 SWAP2 AND SWAP1 PUSH4 0x70A08231 SWAP1 PUSH1 0x24 ADD PUSH1 0x20 PUSH1 0x40 MLOAD DUP1 DUP4 SUB DUP2 DUP7 DUP1 EXTCODESIZE ISZERO DUP1 ISZERO PUSH2 0x196A JUMPI PUSH1 0x0 DUP1 REVERT JUMPDEST POP GAS STATICCALL ISZERO DUP1 ISZERO PUSH2 0x197E JUMPI RETURNDATASIZE PUSH1 0x0 DUP1 RETURNDATACOPY RETURNDATASIZE PUSH1 0x0 REVERT JUMPDEST POP POP POP POP PUSH1 0x40 MLOAD RETURNDATASIZE PUSH1 0x1F NOT PUSH1 0x1F DUP3 ADD AND DUP3 ADD DUP1 PUSH1 0x40 MSTORE POP DUP2 ADD SWAP1 PUSH2 0x19A2 SWAP2 SWAP1 PUSH2 0x2D79 JUMP JUMPDEST SWAP1 POP PUSH1 0x1 PUSH1 0x11 DUP8 ADD SLOAD PUSH12 0x10000000000000000000000 SWAP1 DIV PUSH1 0xFF AND PUSH1 0x3 DUP2 GT ISZERO PUSH2 0x19CE JUMPI PUSH2 0x19CE PUSH2 0x304D JUMP JUMPDEST EQ ISZERO PUSH2 0x1CF4 JUMPI PUSH1 0x0 DUP5 PUSH1 0x5 ADD PUSH1 0x0 DUP2 SLOAD DUP2 LT PUSH2 0x19EC JUMPI PUSH2 0x19EC PUSH2 0x307C JUMP JUMPDEST PUSH1 0x0 SWAP2 DUP3 MSTORE PUSH1 0x20 DUP3 KECCAK256 ADD SLOAD PUSH1 0x6 DUP8 ADD DUP1 SLOAD PUSH20 0xFFFFFFFFFFFFFFFFFFFFFFFFFFFFFFFFFFFFFFFF SWAP1 SWAP3 AND SWAP4 POP SWAP1 DUP3 SWAP1 PUSH2 0x1A26 JUMPI PUSH2 0x1A26 PUSH2 0x307C JUMP JUMPDEST PUSH1 0x0 SWAP2 DUP3 MSTORE PUSH1 0x20 SWAP1 SWAP2 KECCAK256 ADD SLOAD PUSH1 0x2 DUP9 ADD SLOAD PUSH20 0xFFFFFFFFFFFFFFFFFFFFFFFFFFFFFFFFFFFFFFFF SWAP2 DUP3 AND SWAP3 POP DUP2 AND SWAP1 DUP4 AND EQ PUSH2 0x1A79 JUMPI PUSH2 0x1A77 PUSH1 0x5 DUP10 ADD PUSH2 0x1A6D PUSH1 0x2 DUP7 PUSH2 0x2F47 JUMP JUMPDEST DUP9 PUSH1 0x3 ADD ADDRESS PUSH2 0xC1E JUMP JUMPDEST POP JUMPDEST PUSH1 0x2 DUP8 ADD SLOAD PUSH20 0xFFFFFFFFFFFFFFFFFFFFFFFFFFFFFFFFFFFFFFFF DUP3 DUP2 AND SWAP2 AND EQ PUSH2 0x1AB8 JUMPI PUSH2 0x1AB6 DUP6 PUSH2 0x1AAC PUSH1 0x2 DUP7 PUSH2 0x2F47 JUMP JUMPDEST DUP9 PUSH1 0x4 ADD ADDRESS PUSH2 0xC1E JUMP JUMPDEST POP JUMPDEST PUSH1 0x40 MLOAD PUSH32 0x70A0823100000000000000000000000000000000000000000000000000000000 DUP2 MSTORE ADDRESS PUSH1 0x4 DUP3 ADD MSTORE PUSH1 0x0 SWAP1 PUSH20 0xFFFFFFFFFFFFFFFFFFFFFFFFFFFFFFFFFFFFFFFF DUP5 AND SWAP1 PUSH4 0x70A08231 SWAP1 PUSH1 0x24 ADD PUSH1 0x20 PUSH1 0x40 MLOAD DUP1 DUP4 SUB DUP2 DUP7 DUP1 EXTCODESIZE ISZERO DUP1 ISZERO PUSH2 0x1B20 JUMPI PUSH1 0x0 DUP1 REVERT JUMPDEST POP GAS STATICCALL ISZERO DUP1 ISZERO PUSH2 0x1B34 JUMPI RETURNDATASIZE PUSH1 0x0 DUP1 RETURNDATACOPY RETURNDATASIZE PUSH1 0x0 REVERT JUMPDEST POP POP POP POP PUSH1 0x40 MLOAD RETURNDATASIZE PUSH1 0x1F NOT PUSH1 0x1F DUP3 ADD AND DUP3 ADD DUP1 PUSH1 0x40 MSTORE POP DUP2 ADD SWAP1 PUSH2 0x1B58 SWAP2 SWAP1 PUSH2 0x2D79 JUMP JUMPDEST PUSH1 0x40 MLOAD PUSH32 0x70A0823100000000000000000000000000000000000000000000000000000000 DUP2 MSTORE ADDRESS PUSH1 0x4 DUP3 ADD MSTORE SWAP1 SWAP2 POP PUSH1 0x0 SWAP1 PUSH20 0xFFFFFFFFFFFFFFFFFFFFFFFFFFFFFFFFFFFFFFFF DUP5 AND SWAP1 PUSH4 0x70A08231 SWAP1 PUSH1 0x24 ADD PUSH1 0x20 PUSH1 0x40 MLOAD DUP1 DUP4 SUB DUP2 DUP7 DUP1 EXTCODESIZE ISZERO DUP1 ISZERO PUSH2 0x1BC3 JUMPI PUSH1 0x0 DUP1 REVERT JUMPDEST POP GAS STATICCALL ISZERO DUP1 ISZERO PUSH2 0x1BD7 JUMPI RETURNDATASIZE PUSH1 0x0 DUP1 RETURNDATACOPY RETURNDATASIZE PUSH1 0x0 REVERT JUMPDEST POP POP POP POP PUSH1 0x40 MLOAD RETURNDATASIZE PUSH1 0x1F NOT PUSH1 0x1F DUP3 ADD AND DUP3 ADD DUP1 PUSH1 0x40 MSTORE POP DUP2 ADD SWAP1 PUSH2 0x1BFB SWAP2 SWAP1 PUSH2 0x2D79 JUMP JUMPDEST SWAP1 POP PUSH1 0x0 DUP3 GT DUP1 ISZERO PUSH2 0x1C0D JUMPI POP PUSH1 0x0 DUP2 GT JUMPDEST ISZERO PUSH2 0x1CEB JUMPI DUP7 SLOAD PUSH1 0x40 MLOAD PUSH32 0xE8E3370000000000000000000000000000000000000000000000000000000000 DUP2 MSTORE PUSH20 0xFFFFFFFFFFFFFFFFFFFFFFFFFFFFFFFFFFFFFFFF DUP7 DUP2 AND PUSH1 0x4 DUP4 ADD MSTORE DUP6 DUP2 AND PUSH1 0x24 DUP4 ADD MSTORE PUSH1 0x44 DUP3 ADD DUP6 SWAP1 MSTORE PUSH1 0x64 DUP3 ADD DUP5 SWAP1 MSTORE PUSH1 0x0 PUSH1 0x84 DUP4 ADD DUP2 SWAP1 MSTORE PUSH1 0xA4 DUP4 ADD MSTORE ADDRESS PUSH1 0xC4 DUP4 ADD MSTORE TIMESTAMP PUSH1 0xE4 DUP4 ADD MSTORE SWAP1 SWAP2 AND SWAP1 PUSH4 0xE8E33700 SWAP1 PUSH2 0x104 ADD PUSH1 0x60 PUSH1 0x40 MLOAD DUP1 DUP4 SUB DUP2 PUSH1 0x0 DUP8 DUP1 EXTCODESIZE ISZERO DUP1 ISZERO PUSH2 0x1CAF JUMPI PUSH1 0x0 DUP1 REVERT JUMPDEST POP GAS CALL ISZERO DUP1 ISZERO PUSH2 0x1CC3 JUMPI RETURNDATASIZE PUSH1 0x0 DUP1 RETURNDATACOPY RETURNDATASIZE PUSH1 0x0 REVERT JUMPDEST POP POP POP POP PUSH1 0x40 MLOAD RETURNDATASIZE PUSH1 0x1F NOT PUSH1 0x1F DUP3 ADD AND DUP3 ADD DUP1 PUSH1 0x40 MSTORE POP DUP2 ADD SWAP1 PUSH2 0x1CE7 SWAP2 SWAP1 PUSH2 0x2DB6 JUMP JUMPDEST POP POP POP JUMPDEST POP POP POP POP PUSH2 0x1EF2 JUMP JUMPDEST PUSH1 0x2 PUSH1 0x11 DUP8 ADD SLOAD PUSH12 0x10000000000000000000000 SWAP1 DIV PUSH1 0xFF AND PUSH1 0x3 DUP2 GT ISZERO PUSH2 0x1D1E JUMPI PUSH2 0x1D1E PUSH2 0x304D JUMP JUMPDEST EQ ISZERO PUSH2 0x1E5B JUMPI PUSH1 0x4 DUP6 ADD SLOAD PUSH1 0x2 DUP7 ADD SLOAD PUSH20 0xFFFFFFFFFFFFFFFFFFFFFFFFFFFFFFFFFFFFFFFF SWAP1 DUP2 AND SWAP2 AND EQ PUSH2 0x1D5E JUMPI PUSH2 0x1D5C DUP4 DUP3 DUP7 PUSH1 0x7 ADD ADDRESS PUSH2 0xC1E JUMP JUMPDEST POP JUMPDEST DUP5 SLOAD PUSH1 0x4 DUP1 DUP8 ADD SLOAD PUSH1 0x40 MLOAD PUSH32 0x70A0823100000000000000000000000000000000000000000000000000000000 DUP2 MSTORE ADDRESS SWAP3 DUP2 ADD SWAP3 SWAP1 SWAP3 MSTORE PUSH20 0xFFFFFFFFFFFFFFFFFFFFFFFFFFFFFFFFFFFFFFFF SWAP3 DUP4 AND SWAP3 PUSH4 0xFC77C9DB SWAP3 SWAP2 AND SWAP1 PUSH4 0x70A08231 SWAP1 PUSH1 0x24 ADD PUSH1 0x20 PUSH1 0x40 MLOAD DUP1 DUP4 SUB DUP2 DUP7 DUP1 EXTCODESIZE ISZERO DUP1 ISZERO PUSH2 0x1DD7 JUMPI PUSH1 0x0 DUP1 REVERT JUMPDEST POP GAS STATICCALL ISZERO DUP1 ISZERO PUSH2 0x1DEB JUMPI RETURNDATASIZE PUSH1 0x0 DUP1 RETURNDATACOPY RETURNDATASIZE PUSH1 0x0 REVERT JUMPDEST POP POP POP POP PUSH1 0x40 MLOAD RETURNDATASIZE PUSH1 0x1F NOT PUSH1 0x1F DUP3 ADD AND DUP3 ADD DUP1 PUSH1 0x40 MSTORE POP DUP2 ADD SWAP1 PUSH2 0x1E0F SWAP2 SWAP1 PUSH2 0x2D79 JUMP JUMPDEST PUSH1 0x40 MLOAD DUP3 PUSH4 0xFFFFFFFF AND PUSH1 0xE0 SHL DUP2 MSTORE PUSH1 0x4 ADD PUSH2 0x1E2D SWAP2 DUP2 MSTORE PUSH1 0x20 ADD SWAP1 JUMP JUMPDEST PUSH1 0x0 PUSH1 0x40 MLOAD DUP1 DUP4 SUB DUP2 PUSH1 0x0 DUP8 DUP1 EXTCODESIZE ISZERO DUP1 ISZERO PUSH2 0x1E47 JUMPI PUSH1 0x0 DUP1 REVERT JUMPDEST POP GAS CALL ISZERO DUP1 ISZERO PUSH2 0x1CEB JUMPI RETURNDATASIZE PUSH1 0x0 DUP1 RETURNDATACOPY RETURNDATASIZE PUSH1 0x0 REVERT JUMPDEST PUSH1 0x3 PUSH1 0x11 DUP8 ADD SLOAD PUSH12 0x10000000000000000000000 SWAP1 DIV PUSH1 0xFF AND PUSH1 0x3 DUP2 GT ISZERO PUSH2 0x1E85 JUMPI PUSH2 0x1E85 PUSH2 0x304D JUMP JUMPDEST EQ ISZERO PUSH2 0x1E90 JUMPI PUSH2 0x1EF2 JUMP JUMPDEST PUSH1 0x40 MLOAD PUSH32 0x8C379A000000000000000000000000000000000000000000000000000000000 DUP2 MSTORE PUSH1 0x20 PUSH1 0x4 DUP3 ADD MSTORE PUSH1 0x15 PUSH1 0x24 DUP3 ADD MSTORE PUSH32 0x6561726E5F2066756E6374696F6E2062726F6B656E0000000000000000000000 PUSH1 0x44 DUP3 ADD MSTORE PUSH1 0x64 ADD PUSH2 0x43C JUMP JUMPDEST PUSH1 0x11 DUP7 ADD DUP1 SLOAD PUSH32 0xFFFFFFFFFFFFFFFFFFFFFFFFFFFFFFFFFFFFFFFFFFFFFFFF0000000000000000 AND NUMBER PUSH8 0xFFFFFFFFFFFFFFFF AND OR SWAP1 SSTORE PUSH2 0x105B DUP7 PUSH2 0x238B JUMP JUMPDEST PUSH1 0x5 DUP2 ADD DUP2 PUSH1 0x7 DUP2 ADD PUSH1 0x1 PUSH1 0x11 DUP6 ADD SLOAD PUSH12 0x10000000000000000000000 SWAP1 DIV PUSH1 0xFF AND PUSH1 0x3 DUP2 GT ISZERO PUSH2 0x1F64 JUMPI PUSH2 0x1F64 PUSH2 0x304D JUMP JUMPDEST EQ ISZERO PUSH2 0x2060 JUMPI PUSH1 0x0 DUP2 PUSH1 0x5 ADD PUSH1 0x0 DUP2 SLOAD DUP2 LT PUSH2 0x1F82 JUMPI PUSH2 0x1F82 PUSH2 0x307C JUMP JUMPDEST PUSH1 0x0 SWAP2 DUP3 MSTORE PUSH1 0x20 DUP3 KECCAK256 ADD SLOAD PUSH1 0x6 DUP5 ADD DUP1 SLOAD PUSH20 0xFFFFFFFFFFFFFFFFFFFFFFFFFFFFFFFFFFFFFFFF SWAP1 SWAP3 AND SWAP4 POP SWAP1 DUP3 SWAP1 PUSH2 0x1FBC JUMPI PUSH2 0x1FBC PUSH2 0x307C JUMP JUMPDEST PUSH1 0x0 SWAP2 DUP3 MSTORE PUSH1 0x20 SWAP1 SWAP2 KECCAK256 ADD SLOAD DUP6 SLOAD PUSH20 0xFFFFFFFFFFFFFFFFFFFFFFFFFFFFFFFFFFFFFFFF SWAP2 DUP3 AND SWAP3 POP PUSH2 0x2013 SWAP2 DUP5 DUP2 AND SWAP2 AND PUSH32 0xFFFFFFFFFFFFFFFFFFFFFFFFFFFFFFFFFFFFFFFFFFFFFFFFFFFFFFFFFFFFFFFF PUSH2 0x2644 JUMP JUMPDEST DUP5 SLOAD PUSH2 0x2059 SWAP1 PUSH20 0xFFFFFFFFFFFFFFFFFFFFFFFFFFFFFFFFFFFFFFFF DUP4 DUP2 AND SWAP2 AND PUSH32 0xFFFFFFFFFFFFFFFFFFFFFFFFFFFFFFFFFFFFFFFFFFFFFFFFFFFFFFFFFFFFFFFF PUSH2 0x2644 JUMP JUMPDEST POP POP PUSH2 0x21BD JUMP JUMPDEST PUSH1 0x3 PUSH1 0x11 DUP6 ADD SLOAD PUSH12 0x10000000000000000000000 SWAP1 DIV PUSH1 0xFF AND PUSH1 0x3 DUP2 GT ISZERO PUSH2 0x208A JUMPI PUSH2 0x208A PUSH2 0x304D JUMP JUMPDEST EQ ISZERO PUSH2 0x20E0 JUMPI DUP3 SLOAD PUSH1 0x1 DUP4 ADD SLOAD PUSH2 0x20DB SWAP2 PUSH20 0xFFFFFFFFFFFFFFFFFFFFFFFFFFFFFFFFFFFFFFFF SWAP2 DUP3 AND SWAP2 AND PUSH32 0xFFFFFFFFFFFFFFFFFFFFFFFFFFFFFFFFFFFFFFFFFFFFFFFFFFFFFFFFFFFFFFFF PUSH2 0x2644 JUMP JUMPDEST PUSH2 0x21BD JUMP JUMPDEST PUSH1 0x2 PUSH1 0x11 DUP6 ADD SLOAD PUSH12 0x10000000000000000000000 SWAP1 DIV PUSH1 0xFF AND PUSH1 0x3 DUP2 GT ISZERO PUSH2 0x210A JUMPI PUSH2 0x210A PUSH2 0x304D JUMP JUMPDEST EQ ISZERO PUSH2 0x215B JUMPI DUP2 SLOAD PUSH1 0x1 DUP4 ADD SLOAD PUSH2 0x20DB SWAP2 PUSH20 0xFFFFFFFFFFFFFFFFFFFFFFFFFFFFFFFFFFFFFFFF SWAP2 DUP3 AND SWAP2 AND PUSH32 0xFFFFFFFFFFFFFFFFFFFFFFFFFFFFFFFFFFFFFFFFFFFFFFFFFFFFFFFFFFFFFFFF PUSH2 0x2644 JUMP JUMPDEST PUSH1 0x40 MLOAD PUSH32 0x8C379A000000000000000000000000000000000000000000000000000000000 DUP2 MSTORE PUSH1 0x20 PUSH1 0x4 DUP3 ADD MSTORE PUSH1 0x1F PUSH1 0x24 DUP3 ADD MSTORE PUSH32 0x7265736574416C6C6F77616E6365732066756E6374696F6E2062726F6B656E00 PUSH1 0x44 DUP3 ADD MSTORE PUSH1 0x64 ADD PUSH2 0x43C JUMP JUMPDEST PUSH1 0x3 DUP3 ADD SLOAD PUSH1 0x1 DUP4 ADD SLOAD PUSH2 0x220B SWAP2 PUSH20 0xFFFFFFFFFFFFFFFFFFFFFFFFFFFFFFFFFFFFFFFF SWAP2 DUP3 AND SWAP2 AND PUSH32 0xFFFFFFFFFFFFFFFFFFFFFFFFFFFFFFFFFFFFFFFFFFFFFFFFFFFFFFFFFFFFFFFF PUSH2 0x2644 JUMP JUMPDEST DUP3 SLOAD PUSH1 0x2 DUP4 ADD SLOAD PUSH2 0x2256 SWAP2 PUSH20 0xFFFFFFFFFFFFFFFFFFFFFFFFFFFFFFFFFFFFFFFF SWAP2 DUP3 AND SWAP2 AND PUSH32 0xFFFFFFFFFFFFFFFFFFFFFFFFFFFFFFFFFFFFFFFFFFFFFFFFFFFFFFFFFFFFFFFF PUSH2 0x2644 JUMP JUMPDEST PUSH2 0x22A9 PUSH20 0x2791BCA1F2DE4661ED88A30C99A7A9449AA84174 PUSH20 0x917FB15E8AAA12264DCBDC15AFEF7CD3CE76BA39 PUSH32 0xFFFFFFFFFFFFFFFFFFFFFFFFFFFFFFFFFFFFFFFFFFFFFFFFFFFFFFFFFFFFFFFF PUSH2 0x2644 JUMP JUMPDEST POP POP POP POP JUMP JUMPDEST PUSH1 0x40 MLOAD PUSH20 0xFFFFFFFFFFFFFFFFFFFFFFFFFFFFFFFFFFFFFFFF DUP1 DUP6 AND PUSH1 0x24 DUP4 ADD MSTORE DUP4 AND PUSH1 0x44 DUP3 ADD MSTORE PUSH1 0x64 DUP2 ADD DUP3 SWAP1 MSTORE PUSH2 0x22A9 SWAP1 DUP6 SWAP1 PUSH32 0x23B872DD00000000000000000000000000000000000000000000000000000000 SWAP1 PUSH1 0x84 ADD JUMPDEST PUSH1 0x40 DUP1 MLOAD PUSH32 0xFFFFFFFFFFFFFFFFFFFFFFFFFFFFFFFFFFFFFFFFFFFFFFFFFFFFFFFFFFFFFFE0 DUP2 DUP5 SUB ADD DUP2 MSTORE SWAP2 SWAP1 MSTORE PUSH1 0x20 DUP2 ADD DUP1 MLOAD PUSH28 0xFFFFFFFFFFFFFFFFFFFFFFFFFFFFFFFFFFFFFFFFFFFFFFFFFFFFFFFF AND PUSH32 0xFFFFFFFF00000000000000000000000000000000000000000000000000000000 SWAP1 SWAP4 AND SWAP3 SWAP1 SWAP3 OR SWAP1 SWAP2 MSTORE PUSH2 0x27D5 JUMP JUMPDEST PUSH1 0x1 DUP2 ADD SLOAD PUSH1 0x40 MLOAD PUSH32 0x70A0823100000000000000000000000000000000000000000000000000000000 DUP2 MSTORE ADDRESS PUSH1 0x4 DUP3 ADD MSTORE PUSH1 0x0 SWAP2 DUP4 SWAP2 DUP4 SWAP2 PUSH20 0xFFFFFFFFFFFFFFFFFFFFFFFFFFFFFFFFFFFFFFFF AND SWAP1 PUSH4 0x70A08231 SWAP1 PUSH1 0x24 ADD PUSH1 0x20 PUSH1 0x40 MLOAD DUP1 DUP4 SUB DUP2 DUP7 DUP1 EXTCODESIZE ISZERO DUP1 ISZERO PUSH2 0x23FB JUMPI PUSH1 0x0 DUP1 REVERT JUMPDEST POP GAS STATICCALL ISZERO DUP1 ISZERO PUSH2 0x240F JUMPI RETURNDATASIZE PUSH1 0x0 DUP1 RETURNDATACOPY RETURNDATASIZE PUSH1 0x0 REVERT JUMPDEST POP POP POP POP PUSH1 0x40 MLOAD RETURNDATASIZE PUSH1 0x1F NOT PUSH1 0x1F DUP3 ADD AND DUP3 ADD DUP1 PUSH1 0x40 MSTORE POP DUP2 ADD SWAP1 PUSH2 0x2433 SWAP2 SWAP1 PUSH2 0x2D79 JUMP JUMPDEST SWAP1 POP DUP1 PUSH2 0x2444 JUMPI POP PUSH1 0x0 SWAP4 SWAP3 POP POP POP JUMP JUMPDEST PUSH1 0x0 PUSH2 0x244F DUP6 PUSH2 0x1064 JUMP JUMPDEST SWAP1 POP PUSH2 0x245B DUP6 DUP4 PUSH2 0x28E1 JUMP JUMPDEST PUSH1 0x0 PUSH2 0x2466 DUP7 PUSH2 0x1064 JUMP JUMPDEST SWAP1 POP PUSH2 0x2472 DUP3 DUP3 PUSH2 0x2F98 JUMP JUMPDEST SWAP7 SWAP6 POP POP POP POP POP POP JUMP JUMPDEST PUSH1 0x3 DUP3 ADD SLOAD PUSH1 0x11 DUP4 ADD SLOAD PUSH1 0x40 MLOAD PUSH32 0x441A3E7000000000000000000000000000000000000000000000000000000000 DUP2 MSTORE PUSH9 0x10000000000000000 SWAP1 SWAP2 DIV PUSH3 0xFFFFFF AND PUSH1 0x4 DUP3 ADD MSTORE PUSH1 0x24 DUP2 ADD DUP4 SWAP1 MSTORE DUP4 SWAP2 PUSH20 0xFFFFFFFFFFFFFFFFFFFFFFFFFFFFFFFFFFFFFFFF AND SWAP1 PUSH4 0x441A3E70 SWAP1 PUSH1 0x44 ADD JUMPDEST PUSH1 0x0 PUSH1 0x40 MLOAD DUP1 DUP4 SUB DUP2 PUSH1 0x0 DUP8 DUP1 EXTCODESIZE ISZERO DUP1 ISZERO PUSH2 0x2507 JUMPI PUSH1 0x0 DUP1 REVERT JUMPDEST POP GAS CALL ISZERO DUP1 ISZERO PUSH2 0x105B JUMPI RETURNDATASIZE PUSH1 0x0 DUP1 RETURNDATACOPY RETURNDATASIZE PUSH1 0x0 REVERT JUMPDEST PUSH1 0x0 PUSH2 0x2527 DUP3 DUP5 PUSH2 0x2FDB JUMP JUMPDEST ISZERO PUSH2 0x2533 JUMPI PUSH1 0x1 PUSH2 0x2536 JUMP JUMPDEST PUSH1 0x0 JUMPDEST PUSH1 0xFF AND PUSH2 0xB7D DUP4 DUP6 PUSH2 0x2F47 JUMP JUMPDEST PUSH1 0x40 MLOAD PUSH20 0xFFFFFFFFFFFFFFFFFFFFFFFFFFFFFFFFFFFFFFFF DUP4 AND PUSH1 0x24 DUP3 ADD MSTORE PUSH1 0x44 DUP2 ADD DUP3 SWAP1 MSTORE PUSH2 0x2599 SWAP1 DUP5 SWAP1 PUSH32 0xA9059CBB00000000000000000000000000000000000000000000000000000000 SWAP1 PUSH1 0x64 ADD PUSH2 0x2309 JUMP JUMPDEST POP POP POP JUMP JUMPDEST PUSH1 0x3 DUP2 ADD SLOAD PUSH1 0x11 DUP3 ADD SLOAD PUSH1 0x40 MLOAD PUSH32 0x441A3E7000000000000000000000000000000000000000000000000000000000 DUP2 MSTORE PUSH9 0x10000000000000000 SWAP1 SWAP2 DIV PUSH3 0xFFFFFF AND PUSH1 0x4 DUP3 ADD MSTORE PUSH1 0x0 PUSH1 0x24 DUP3 ADD MSTORE DUP3 SWAP2 PUSH20 0xFFFFFFFFFFFFFFFFFFFFFFFFFFFFFFFFFFFFFFFF AND SWAP1 PUSH4 0x441A3E70 SWAP1 PUSH1 0x44 ADD PUSH1 0x0 PUSH1 0x40 MLOAD DUP1 DUP4 SUB DUP2 PUSH1 0x0 DUP8 DUP1 EXTCODESIZE ISZERO DUP1 ISZERO PUSH2 0x2628 JUMPI PUSH1 0x0 DUP1 REVERT JUMPDEST POP GAS CALL ISZERO DUP1 ISZERO PUSH2 0x263C JUMPI RETURNDATASIZE PUSH1 0x0 DUP1 RETURNDATACOPY RETURNDATASIZE PUSH1 0x0 REVERT JUMPDEST POP POP POP POP POP POP JUMP JUMPDEST DUP1 ISZERO DUP1 PUSH2 0x26F3 JUMPI POP PUSH1 0x40 MLOAD PUSH32 0xDD62ED3E00000000000000000000000000000000000000000000000000000000 DUP2 MSTORE ADDRESS PUSH1 0x4 DUP3 ADD MSTORE PUSH20 0xFFFFFFFFFFFFFFFFFFFFFFFFFFFFFFFFFFFFFFFF DUP4 DUP2 AND PUSH1 0x24 DUP4 ADD MSTORE DUP5 AND SWAP1 PUSH4 0xDD62ED3E SWAP1 PUSH1 0x44 ADD PUSH1 0x20 PUSH1 0x40 MLOAD DUP1 DUP4 SUB DUP2 DUP7 DUP1 EXTCODESIZE ISZERO DUP1 ISZERO PUSH2 0x26B9 JUMPI PUSH1 0x0 DUP1 REVERT JUMPDEST POP GAS STATICCALL ISZERO DUP1 ISZERO PUSH2 0x26CD JUMPI RETURNDATASIZE PUSH1 0x0 DUP1 RETURNDATACOPY RETURNDATASIZE PUSH1 0x0 REVERT JUMPDEST POP POP POP POP PUSH1 0x40 MLOAD RETURNDATASIZE PUSH1 0x1F NOT PUSH1 0x1F DUP3 ADD AND DUP3 ADD DUP1 PUSH1 0x40 MSTORE POP DUP2 ADD SWAP1 PUSH2 0x26F1 SWAP2 SWAP1 PUSH2 0x2D79 JUMP JUMPDEST ISZERO JUMPDEST PUSH2 0x277F JUMPI PUSH1 0x40 MLOAD PUSH32 0x8C379A000000000000000000000000000000000000000000000000000000000 DUP2 MSTORE PUSH1 0x20 PUSH1 0x4 DUP3 ADD MSTORE PUSH1 0x36 PUSH1 0x24 DUP3 ADD MSTORE PUSH32 0x5361666545524332303A20617070726F76652066726F6D206E6F6E2D7A65726F PUSH1 0x44 DUP3 ADD MSTORE PUSH32 0x20746F206E6F6E2D7A65726F20616C6C6F77616E636500000000000000000000 PUSH1 0x64 DUP3 ADD MSTORE PUSH1 0x84 ADD PUSH2 0x43C JUMP JUMPDEST PUSH1 0x40 MLOAD PUSH20 0xFFFFFFFFFFFFFFFFFFFFFFFFFFFFFFFFFFFFFFFF DUP4 AND PUSH1 0x24 DUP3 ADD MSTORE PUSH1 0x44 DUP2 ADD DUP3 SWAP1 MSTORE PUSH2 0x2599 SWAP1 DUP5 SWAP1 PUSH32 0x95EA7B300000000000000000000000000000000000000000000000000000000 SWAP1 PUSH1 0x64 ADD PUSH2 0x2309 JUMP JUMPDEST PUSH1 0x0 PUSH2 0x2837 DUP3 PUSH1 0x40 MLOAD DUP1 PUSH1 0x40 ADD PUSH1 0x40 MSTORE DUP1 PUSH1 0x20 DUP2 MSTORE PUSH1 0x20 ADD PUSH32 0x5361666545524332303A206C6F772D6C6576656C2063616C6C206661696C6564 DUP2 MSTORE POP DUP6 PUSH20 0xFFFFFFFFFFFFFFFFFFFFFFFFFFFFFFFFFFFFFFFF AND PUSH2 0x2956 SWAP1 SWAP3 SWAP2 SWAP1 PUSH4 0xFFFFFFFF AND JUMP JUMPDEST DUP1 MLOAD SWAP1 SWAP2 POP ISZERO PUSH2 0x2599 JUMPI DUP1 DUP1 PUSH1 0x20 ADD SWAP1 MLOAD DUP2 ADD SWAP1 PUSH2 0x2855 SWAP2 SWAP1 PUSH2 0x2C5E JUMP JUMPDEST PUSH2 0x2599 JUMPI PUSH1 0x40 MLOAD PUSH32 0x8C379A000000000000000000000000000000000000000000000000000000000 DUP2 MSTORE PUSH1 0x20 PUSH1 0x4 DUP3 ADD MSTORE PUSH1 0x2A PUSH1 0x24 DUP3 ADD MSTORE PUSH32 0x5361666545524332303A204552433230206F7065726174696F6E20646964206E PUSH1 0x44 DUP3 ADD MSTORE PUSH32 0x6F74207375636365656400000000000000000000000000000000000000000000 PUSH1 0x64 DUP3 ADD MSTORE PUSH1 0x84 ADD PUSH2 0x43C JUMP JUMPDEST PUSH1 0x3 DUP3 ADD SLOAD PUSH1 0x11 DUP4 ADD SLOAD PUSH1 0x40 MLOAD PUSH32 0xE2BBB15800000000000000000000000000000000000000000000000000000000 DUP2 MSTORE PUSH9 0x10000000000000000 SWAP1 SWAP2 DIV PUSH3 0xFFFFFF AND PUSH1 0x4 DUP3 ADD MSTORE PUSH1 0x24 DUP2 ADD DUP4 SWAP1 MSTORE DUP4 SWAP2 PUSH20 0xFFFFFFFFFFFFFFFFFFFFFFFFFFFFFFFFFFFFFFFF AND SWAP1 PUSH4 0xE2BBB158 SWAP1 PUSH1 0x44 ADD PUSH2 0x24ED JUMP JUMPDEST PUSH1 0x60 PUSH2 0x2965 DUP5 DUP5 PUSH1 0x0 DUP6 PUSH2 0x296D JUMP JUMPDEST SWAP5 SWAP4 POP POP POP POP JUMP JUMPDEST PUSH1 0x60 DUP3 SELFBALANCE LT ISZERO PUSH2 0x29FF JUMPI PUSH1 0x40 MLOAD PUSH32 0x8C379A000000000000000000000000000000000000000000000000000000000 DUP2 MSTORE PUSH1 0x20 PUSH1 0x4 DUP3 ADD MSTORE PUSH1 0x26 PUSH1 0x24 DUP3 ADD MSTORE PUSH32 0x416464726573733A20696E73756666696369656E742062616C616E636520666F PUSH1 0x44 DUP3 ADD MSTORE PUSH32 0x722063616C6C0000000000000000000000000000000000000000000000000000 PUSH1 0x64 DUP3 ADD MSTORE PUSH1 0x84 ADD PUSH2 0x43C JUMP JUMPDEST DUP5 EXTCODESIZE PUSH2 0x2A67 JUMPI PUSH1 0x40 MLOAD PUSH32 0x8C379A000000000000000000000000000000000000000000000000000000000 DUP2 MSTORE PUSH1 0x20 PUSH1 0x4 DUP3 ADD MSTORE PUSH1 0x1D PUSH1 0x24 DUP3 ADD MSTORE PUSH32 0x416464726573733A2063616C6C20746F206E6F6E2D636F6E7472616374000000 PUSH1 0x44 DUP3 ADD MSTORE PUSH1 0x64 ADD PUSH2 0x43C JUMP JUMPDEST PUSH1 0x0 DUP1 DUP7 PUSH20 0xFFFFFFFFFFFFFFFFFFFFFFFFFFFFFFFFFFFFFFFF AND DUP6 DUP8 PUSH1 0x40 MLOAD PUSH2 0x2A90 SWAP2 SWAP1 PUSH2 0x2E3A JUMP JUMPDEST PUSH1 0x0 PUSH1 0x40 MLOAD DUP1 DUP4 SUB DUP2 DUP6 DUP8 GAS CALL SWAP3 POP POP POP RETURNDATASIZE DUP1 PUSH1 0x0 DUP2 EQ PUSH2 0x2ACD JUMPI PUSH1 0x40 MLOAD SWAP2 POP PUSH1 0x1F NOT PUSH1 0x3F RETURNDATASIZE ADD AND DUP3 ADD PUSH1 0x40 MSTORE RETURNDATASIZE DUP3 MSTORE RETURNDATASIZE PUSH1 0x0 PUSH1 0x20 DUP5 ADD RETURNDATACOPY PUSH2 0x2AD2 JUMP JUMPDEST PUSH1 0x60 SWAP2 POP JUMPDEST POP SWAP2 POP SWAP2 POP PUSH2 0x2AE2 DUP3 DUP3 DUP7 PUSH2 0x2AED JUMP JUMPDEST SWAP8 SWAP7 POP POP POP POP POP POP POP JUMP JUMPDEST PUSH1 0x60 DUP4 ISZERO PUSH2 0x2AFC JUMPI POP DUP2 PUSH2 0xB87 JUMP JUMPDEST DUP3 MLOAD ISZERO PUSH2 0x2B0C JUMPI DUP3 MLOAD DUP1 DUP5 PUSH1 0x20 ADD REVERT JUMPDEST DUP2 PUSH1 0x40 MLOAD PUSH32 0x8C379A000000000000000000000000000000000000000000000000000000000 DUP2 MSTORE PUSH1 0x4 ADD PUSH2 0x43C SWAP2 SWAP1 PUSH2 0x2E56 JUMP JUMPDEST DUP1 CALLDATALOAD PUSH20 0xFFFFFFFFFFFFFFFFFFFFFFFFFFFFFFFFFFFFFFFF DUP2 AND DUP2 EQ PUSH2 0x2B64 JUMPI PUSH1 0x0 DUP1 REVERT JUMPDEST SWAP2 SWAP1 POP JUMP JUMPDEST DUP1 CALLDATALOAD PUSH2 0xFFFF DUP2 AND DUP2 EQ PUSH2 0x2B64 JUMPI PUSH1 0x0 DUP1 REVERT JUMPDEST PUSH1 0x0 PUSH1 0x20 DUP1 DUP4 DUP6 SUB SLT ISZERO PUSH2 0x2B8E JUMPI PUSH1 0x0 DUP1 REVERT JUMPDEST DUP3 MLOAD PUSH8 0xFFFFFFFFFFFFFFFF DUP1 DUP3 GT ISZERO PUSH2 0x2BA6 JUMPI PUSH1 0x0 DUP1 REVERT JUMPDEST DUP2 DUP6 ADD SWAP2 POP DUP6 PUSH1 0x1F DUP4 ADD SLT PUSH2 0x2BBA JUMPI PUSH1 0x0 DUP1 REVERT JUMPDEST DUP2 MLOAD DUP2 DUP2 GT ISZERO PUSH2 0x2BCC JUMPI PUSH2 0x2BCC PUSH2 0x30AB JUMP JUMPDEST DUP1 PUSH1 0x5 SHL PUSH1 0x40 MLOAD PUSH32 0xFFFFFFFFFFFFFFFFFFFFFFFFFFFFFFFFFFFFFFFFFFFFFFFFFFFFFFFFFFFFFFE0 PUSH1 0x3F DUP4 ADD AND DUP2 ADD DUP2 DUP2 LT DUP6 DUP3 GT OR ISZERO PUSH2 0x2C0F JUMPI PUSH2 0x2C0F PUSH2 0x30AB JUMP JUMPDEST PUSH1 0x40 MSTORE DUP3 DUP2 MSTORE DUP6 DUP2 ADD SWAP4 POP DUP5 DUP7 ADD DUP3 DUP7 ADD DUP8 ADD DUP11 LT ISZERO PUSH2 0x2C2E JUMPI PUSH1 0x0 DUP1 REVERT JUMPDEST PUSH1 0x0 SWAP6 POP JUMPDEST DUP4 DUP7 LT ISZERO PUSH2 0x2C51 JUMPI DUP1 MLOAD DUP6 MSTORE PUSH1 0x1 SWAP6 SWAP1 SWAP6 ADD SWAP5 SWAP4 DUP7 ADD SWAP4 DUP7 ADD PUSH2 0x2C33 JUMP JUMPDEST POP SWAP9 SWAP8 POP POP POP POP POP POP POP POP JUMP JUMPDEST PUSH1 0x0 PUSH1 0x20 DUP3 DUP5 SUB SLT ISZERO PUSH2 0x2C70 JUMPI PUSH1 0x0 DUP1 REVERT JUMPDEST DUP2 MLOAD DUP1 ISZERO ISZERO DUP2 EQ PUSH2 0xB87 JUMPI PUSH1 0x0 DUP1 REVERT JUMPDEST PUSH1 0x0 PUSH1 0x20 DUP3 DUP5 SUB SLT ISZERO PUSH2 0x2C92 JUMPI PUSH1 0x0 DUP1 REVERT JUMPDEST POP CALLDATALOAD SWAP2 SWAP1 POP JUMP JUMPDEST PUSH1 0x0 DUP1 PUSH1 0x40 DUP4 DUP6 SUB SLT ISZERO PUSH2 0x2CAC JUMPI PUSH1 0x0 DUP1 REVERT JUMPDEST POP POP DUP1 CALLDATALOAD SWAP3 PUSH1 0x20 SWAP1 SWAP2 ADD CALLDATALOAD SWAP2 POP JUMP JUMPDEST PUSH1 0x0 DUP1 PUSH1 0x0 DUP1 PUSH1 0x0 DUP1 PUSH1 0x0 PUSH1 0xE0 DUP9 DUP11 SUB SLT ISZERO PUSH2 0x2CD6 JUMPI PUSH1 0x0 DUP1 REVERT JUMPDEST DUP8 CALLDATALOAD SWAP7 POP PUSH2 0x2CE6 PUSH1 0x20 DUP10 ADD PUSH2 0x2B69 JUMP JUMPDEST SWAP6 POP PUSH2 0x2CF4 PUSH1 0x40 DUP10 ADD PUSH2 0x2B69 JUMP JUMPDEST SWAP5 POP PUSH2 0x2D02 PUSH1 0x60 DUP10 ADD PUSH2 0x2B69 JUMP JUMPDEST SWAP4 POP PUSH2 0x2D10 PUSH1 0x80 DUP10 ADD PUSH2 0x2B69 JUMP JUMPDEST SWAP3 POP PUSH2 0x2D1E PUSH1 0xA0 DUP10 ADD PUSH2 0x2B69 JUMP JUMPDEST SWAP2 POP PUSH2 0x2D2C PUSH1 0xC0 DUP10 ADD PUSH2 0x2B40 JUMP JUMPDEST SWAP1 POP SWAP3 SWAP6 SWAP9 SWAP2 SWAP5 SWAP8 POP SWAP3 SWAP6 POP JUMP JUMPDEST PUSH1 0x0 DUP1 PUSH1 0x0 DUP1 PUSH1 0x80 DUP6 DUP8 SUB SLT ISZERO PUSH2 0x2D50 JUMPI PUSH1 0x0 DUP1 REVERT JUMPDEST DUP5 CALLDATALOAD SWAP4 POP PUSH1 0x20 DUP6 ADD CALLDATALOAD SWAP3 POP PUSH1 0x40 DUP6 ADD CALLDATALOAD SWAP2 POP PUSH2 0x2D6E PUSH1 0x60 DUP7 ADD PUSH2 0x2B40 JUMP JUMPDEST SWAP1 POP SWAP3 SWAP6 SWAP2 SWAP5 POP SWAP3 POP JUMP JUMPDEST PUSH1 0x0 PUSH1 0x20 DUP3 DUP5 SUB SLT ISZERO PUSH2 0x2D8B JUMPI PUSH1 0x0 DUP1 REVERT JUMPDEST POP MLOAD SWAP2 SWAP1 POP JUMP JUMPDEST PUSH1 0x0 DUP1 PUSH1 0x40 DUP4 DUP6 SUB SLT ISZERO PUSH2 0x2DA5 JUMPI PUSH1 0x0 DUP1 REVERT JUMPDEST POP POP DUP1 MLOAD PUSH1 0x20 SWAP1 SWAP2 ADD MLOAD SWAP1 SWAP3 SWAP1 SWAP2 POP JUMP JUMPDEST PUSH1 0x0 DUP1 PUSH1 0x0 PUSH1 0x60 DUP5 DUP7 SUB SLT ISZERO PUSH2 0x2DCB JUMPI PUSH1 0x0 DUP1 REVERT JUMPDEST DUP4 MLOAD SWAP3 POP PUSH1 0x20 DUP5 ADD MLOAD SWAP2 POP PUSH1 0x40 DUP5 ADD MLOAD SWAP1 POP SWAP3 POP SWAP3 POP SWAP3 JUMP JUMPDEST PUSH1 0x0 DUP2 SLOAD DUP1 DUP5 MSTORE PUSH1 0x20 DUP1 DUP6 ADD SWAP5 POP DUP4 PUSH1 0x0 MSTORE DUP1 PUSH1 0x0 KECCAK256 PUSH1 0x0 JUMPDEST DUP4 DUP2 LT ISZERO PUSH2 0x2E2F JUMPI DUP2 SLOAD PUSH20 0xFFFFFFFFFFFFFFFFFFFFFFFFFFFFFFFFFFFFFFFF AND DUP8 MSTORE SWAP6 DUP3 ADD SWAP6 PUSH1 0x1 SWAP2 DUP3 ADD SWAP2 ADD PUSH2 0x2DFD JUMP JUMPDEST POP SWAP5 SWAP6 SWAP5 POP POP POP POP POP JUMP JUMPDEST PUSH1 0x0 DUP3 MLOAD PUSH2 0x2E4C DUP2 DUP5 PUSH1 0x20 DUP8 ADD PUSH2 0x2FAF JUMP JUMPDEST SWAP2 SWAP1 SWAP2 ADD SWAP3 SWAP2 POP POP JUMP JUMPDEST PUSH1 0x20 DUP2 MSTORE PUSH1 0x0 DUP3 MLOAD DUP1 PUSH1 0x20 DUP5 ADD MSTORE PUSH2 0x2E75 DUP2 PUSH1 0x40 DUP6 ADD PUSH1 0x20 DUP8 ADD PUSH2 0x2FAF JUMP JUMPDEST PUSH1 0x1F ADD PUSH32 0xFFFFFFFFFFFFFFFFFFFFFFFFFFFFFFFFFFFFFFFFFFFFFFFFFFFFFFFFFFFFFFE0 AND SWAP2 SWAP1 SWAP2 ADD PUSH1 0x40 ADD SWAP3 SWAP2 POP POP JUMP JUMPDEST DUP3 DUP2 MSTORE PUSH1 0x40 PUSH1 0x20 DUP3 ADD MSTORE PUSH1 0x0 PUSH2 0x2965 PUSH1 0x40 DUP4 ADD DUP5 PUSH2 0x2DE4 JUMP JUMPDEST DUP6 DUP2 MSTORE DUP5 PUSH1 0x20 DUP3 ADD MSTORE PUSH1 0xA0 PUSH1 0x40 DUP3 ADD MSTORE PUSH1 0x0 PUSH2 0x2EDF PUSH1 0xA0 DUP4 ADD DUP7 PUSH2 0x2DE4 JUMP JUMPDEST PUSH20 0xFFFFFFFFFFFFFFFFFFFFFFFFFFFFFFFFFFFFFFFF SWAP5 SWAP1 SWAP5 AND PUSH1 0x60 DUP4 ADD MSTORE POP PUSH1 0x80 ADD MSTORE SWAP4 SWAP3 POP POP POP JUMP JUMPDEST PUSH1 0x0 PUSH2 0xFFFF DUP1 DUP4 AND DUP2 DUP6 AND DUP1 DUP4 SUB DUP3 GT ISZERO PUSH2 0x2F26 JUMPI PUSH2 0x2F26 PUSH2 0x2FEF JUMP JUMPDEST ADD SWAP5 SWAP4 POP POP POP POP JUMP JUMPDEST PUSH1 0x0 DUP3 NOT DUP3 GT ISZERO PUSH2 0x2F42 JUMPI PUSH2 0x2F42 PUSH2 0x2FEF JUMP JUMPDEST POP ADD SWAP1 JUMP JUMPDEST PUSH1 0x0 DUP3 PUSH2 0x2F56 JUMPI PUSH2 0x2F56 PUSH2 0x301E JUMP JUMPDEST POP DIV SWAP1 JUMP JUMPDEST PUSH1 0x0 DUP2 PUSH32 0xFFFFFFFFFFFFFFFFFFFFFFFFFFFFFFFFFFFFFFFFFFFFFFFFFFFFFFFFFFFFFFFF DIV DUP4 GT DUP3 ISZERO ISZERO AND ISZERO PUSH2 0x2F93 JUMPI PUSH2 0x2F93 PUSH2 0x2FEF JUMP JUMPDEST POP MUL SWAP1 JUMP JUMPDEST PUSH1 0x0 DUP3 DUP3 LT ISZERO PUSH2 0x2FAA JUMPI PUSH2 0x2FAA PUSH2 0x2FEF JUMP JUMPDEST POP SUB SWAP1 JUMP JUMPDEST PUSH1 0x0 JUMPDEST DUP4 DUP2 LT ISZERO PUSH2 0x2FCA JUMPI DUP2 DUP2 ADD MLOAD DUP4 DUP3 ADD MSTORE PUSH1 0x20 ADD PUSH2 0x2FB2 JUMP JUMPDEST DUP4 DUP2 GT ISZERO PUSH2 0x22A9 JUMPI POP POP PUSH1 0x0 SWAP2 ADD MSTORE JUMP JUMPDEST PUSH1 0x0 DUP3 PUSH2 0x2FEA JUMPI PUSH2 0x2FEA PUSH2 0x301E JUMP JUMPDEST POP MOD SWAP1 JUMP JUMPDEST PUSH32 0x4E487B7100000000000000000000000000000000000000000000000000000000 PUSH1 0x0 MSTORE PUSH1 0x11 PUSH1 0x4 MSTORE PUSH1 0x24 PUSH1 0x0 REVERT JUMPDEST PUSH32 0x4E487B7100000000000000000000000000000000000000000000000000000000 PUSH1 0x0 MSTORE PUSH1 0x12 PUSH1 0x4 MSTORE PUSH1 0x24 PUSH1 0x0 REVERT JUMPDEST PUSH32 0x4E487B7100000000000000000000000000000000000000000000000000000000 PUSH1 0x0 MSTORE PUSH1 0x21 PUSH1 0x4 MSTORE PUSH1 0x24 PUSH1 0x0 REVERT JUMPDEST PUSH32 0x4E487B7100000000000000000000000000000000000000000000000000000000 PUSH1 0x0 MSTORE PUSH1 0x32 PUSH1 0x4 MSTORE PUSH1 0x24 PUSH1 0x0 REVERT JUMPDEST PUSH32 0x4E487B7100000000000000000000000000000000000000000000000000000000 PUSH1 0x0 MSTORE PUSH1 0x41 PUSH1 0x4 MSTORE PUSH1 0x24 PUSH1 0x0 REVERT INVALID LOG2 PUSH5 0x6970667358 0x22 SLT KECCAK256 DUP11 PUSH14 0x64CCBF93E2AB6951455FABFC3DEE JUMPDEST 0x26 0xAD 0xC2 PUSH10 0x5E48DC88D1AFADB8EEB1 RETURN PUSH5 0x736F6C6343 STOP ADDMOD SMOD STOP CALLER "
		},
		"gasEstimates": {
			"creation": {
				"codeDepositCost": "2512000",
				"executionCost": "2741",
				"totalCost": "2514741"
			},
			"external": {
				"_safeSwap(BaseStrategyLogic.Settings storage,uint256,address[] storage,address)": "infinite",
				"_safeSwapWmatic(BaseStrategyLogic.Settings storage,uint256,address[] storage,address)": "infinite",
				"buyBackAddress()": "245",
				"convertDustToEarned_(BaseStrategyLogic.Data storage)": "infinite",
				"deposit_(BaseStrategyLogic.Data storage,uint256)": "infinite",
				"earn_(BaseStrategyLogic.Data storage)": "infinite",
				"feeAddress()": "245",
				"feeMax()": "267",
				"feeMaxTotal()": "247",
				"fishAddress()": "222",
				"payAllFees(BaseStrategyLogic.Data storage,uint256)": "infinite",
				"resetAllowances(BaseStrategyLogic.Data storage)": "infinite",
				"rewardAddress()": "223",
				"setSettings_(BaseStrategyLogic.Settings storage,uint16,uint16,uint16,uint16,uint16,address)": "infinite",
				"usdcAddress()": "224",
				"vaultSharesTotal(BaseStrategyLogic.Data storage)": "infinite",
				"wantLockedTotal(BaseStrategyLogic.Data storage)": "infinite",
				"withdrawFeeAddress()": "267",
				"withdrawFeeFactorLL()": "246",
				"withdrawFeeFactorMax()": "225",
				"withdraw_(BaseStrategyLogic.Data storage,uint256)": "infinite",
				"wmaticAddress()": "222"
			},
			"internal": {
				"_emergencyVaultWithdraw(struct BaseStrategyLogic.Data storage pointer)": "infinite",
				"_farm(struct BaseStrategyLogic.Data storage pointer)": "infinite",
				"_vaultDeposit(struct BaseStrategyLogic.Data storage pointer,uint256)": "infinite",
				"_vaultHarvest(struct BaseStrategyLogic.Data storage pointer)": "infinite",
				"_vaultWithdraw(struct BaseStrategyLogic.Data storage pointer,uint256)": "infinite"
			}
		},
		"methodIdentifiers": {
			"_safeSwap(BaseStrategyLogic.Settings storage,uint256,address[] storage,address)": "88df5371",
			"_safeSwapWmatic(BaseStrategyLogic.Settings storage,uint256,address[] storage,address)": "a70e997e",
			"buyBackAddress()": "783478ad",
			"convertDustToEarned_(BaseStrategyLogic.Data storage)": "dfebf9dc",
			"deposit_(BaseStrategyLogic.Data storage,uint256)": "82982706",
			"earn_(BaseStrategyLogic.Data storage)": "ea02a088",
			"feeAddress()": "41275358",
			"feeMax()": "ffbe9f1e",
			"feeMaxTotal()": "8fefda06",
			"fishAddress()": "9872317f",
			"payAllFees(BaseStrategyLogic.Data storage,uint256)": "23ba71f5",
			"resetAllowances(BaseStrategyLogic.Data storage)": "eb7e4f91",
			"rewardAddress()": "8cf57cb9",
			"setSettings_(BaseStrategyLogic.Settings storage,uint16,uint16,uint16,uint16,uint16,address)": "1a2f4bd3",
			"usdcAddress()": "02d45457",
			"vaultSharesTotal(BaseStrategyLogic.Data storage)": "b94bed2b",
			"wantLockedTotal(BaseStrategyLogic.Data storage)": "5b2b51ea",
			"withdrawFeeAddress()": "784def8c",
			"withdrawFeeFactorLL()": "866b2018",
			"withdrawFeeFactorMax()": "67057b6c",
			"withdraw_(BaseStrategyLogic.Data storage,uint256)": "dd51d4f9",
			"wmaticAddress()": "db4b7eee"
		}
	},
	"abi": [
		{
			"anonymous": false,
			"inputs": [
				{
					"indexed": false,
					"internalType": "address",
					"name": "_uniRouterAddress",
					"type": "address"
				},
				{
					"indexed": false,
					"internalType": "uint16",
					"name": "_controllerFee",
					"type": "uint16"
				},
				{
					"indexed": false,
					"internalType": "uint16",
					"name": "_rewardRate",
					"type": "uint16"
				},
				{
					"indexed": false,
					"internalType": "uint16",
					"name": "_buyBackRate",
					"type": "uint16"
				},
				{
					"indexed": false,
					"internalType": "uint16",
					"name": "_withdrawFeeFactor",
					"type": "uint16"
				},
				{
					"indexed": false,
					"internalType": "uint16",
					"name": "_tolerance",
					"type": "uint16"
				}
			],
			"name": "SetSettings",
			"type": "event"
		},
		{
			"inputs": [],
			"name": "buyBackAddress",
			"outputs": [
				{
					"internalType": "address",
					"name": "",
					"type": "address"
				}
			],
			"stateMutability": "view",
			"type": "function"
		},
		{
			"inputs": [],
			"name": "feeAddress",
			"outputs": [
				{
					"internalType": "address",
					"name": "",
					"type": "address"
				}
			],
			"stateMutability": "view",
			"type": "function"
		},
		{
			"inputs": [],
			"name": "feeMax",
			"outputs": [
				{
					"internalType": "uint256",
					"name": "",
					"type": "uint256"
				}
			],
			"stateMutability": "view",
			"type": "function"
		},
		{
			"inputs": [],
			"name": "feeMaxTotal",
			"outputs": [
				{
					"internalType": "uint256",
					"name": "",
					"type": "uint256"
				}
			],
			"stateMutability": "view",
			"type": "function"
		},
		{
			"inputs": [],
			"name": "fishAddress",
			"outputs": [
				{
					"internalType": "address",
					"name": "",
					"type": "address"
				}
			],
			"stateMutability": "view",
			"type": "function"
		},
		{
			"inputs": [],
			"name": "rewardAddress",
			"outputs": [
				{
					"internalType": "address",
					"name": "",
					"type": "address"
				}
			],
			"stateMutability": "view",
			"type": "function"
		},
		{
			"inputs": [],
			"name": "usdcAddress",
			"outputs": [
				{
					"internalType": "address",
					"name": "",
					"type": "address"
				}
			],
			"stateMutability": "view",
			"type": "function"
		},
		{
			"inputs": [],
			"name": "withdrawFeeAddress",
			"outputs": [
				{
					"internalType": "address",
					"name": "",
					"type": "address"
				}
			],
			"stateMutability": "view",
			"type": "function"
		},
		{
			"inputs": [],
			"name": "withdrawFeeFactorLL",
			"outputs": [
				{
					"internalType": "uint256",
					"name": "",
					"type": "uint256"
				}
			],
			"stateMutability": "view",
			"type": "function"
		},
		{
			"inputs": [],
			"name": "withdrawFeeFactorMax",
			"outputs": [
				{
					"internalType": "uint256",
					"name": "",
					"type": "uint256"
				}
			],
			"stateMutability": "view",
			"type": "function"
		},
		{
			"inputs": [],
			"name": "wmaticAddress",
			"outputs": [
				{
					"internalType": "address",
					"name": "",
					"type": "address"
				}
			],
			"stateMutability": "view",
			"type": "function"
		}
	]
}