{
	"data": {
		"bytecode": {
			"linkReferences": {},
			"object": "60ec610039600b82828239805160001a60731461002c57634e487b7160e01b600052600060045260246000fd5b30600052607381538281f3fe730000000000000000000000000000000000000000301460806040526004361060475760003560e01c80634d95cad914604c5780636cd8de6214608257806389a3027114609c575b600080fd5b6066730d500b1d8e8ef31e21c99d1db9a6444d3adf127081565b6040516001600160a01b03909116815260200160405180910390f35b60667376bf0c28e604cc3fe9967c83b3c3f31c213cfe6481565b6066732791bca1f2de4661ed88a30c99a7a9449aa841748156fea26469706673582212202b2d7bce7d15cbdb90846521dfb6e6a5552d1f0c8d66ca40e131ca51bdeff3e564736f6c63430008070033",
			"opcodes": "PUSH1 0xEC PUSH2 0x39 PUSH1 0xB DUP3 DUP3 DUP3 CODECOPY DUP1 MLOAD PUSH1 0x0 BYTE PUSH1 0x73 EQ PUSH2 0x2C JUMPI PUSH4 0x4E487B71 PUSH1 0xE0 SHL PUSH1 0x0 MSTORE PUSH1 0x0 PUSH1 0x4 MSTORE PUSH1 0x24 PUSH1 0x0 REVERT JUMPDEST ADDRESS PUSH1 0x0 MSTORE PUSH1 0x73 DUP2 MSTORE8 DUP3 DUP2 RETURN INVALID PUSH20 0x0 ADDRESS EQ PUSH1 0x80 PUSH1 0x40 MSTORE PUSH1 0x4 CALLDATASIZE LT PUSH1 0x47 JUMPI PUSH1 0x0 CALLDATALOAD PUSH1 0xE0 SHR DUP1 PUSH4 0x4D95CAD9 EQ PUSH1 0x4C JUMPI DUP1 PUSH4 0x6CD8DE62 EQ PUSH1 0x82 JUMPI DUP1 PUSH4 0x89A30271 EQ PUSH1 0x9C JUMPI JUMPDEST PUSH1 0x0 DUP1 REVERT JUMPDEST PUSH1 0x66 PUSH20 0xD500B1D8E8EF31E21C99D1DB9A6444D3ADF1270 DUP2 JUMP JUMPDEST PUSH1 0x40 MLOAD PUSH1 0x1 PUSH1 0x1 PUSH1 0xA0 SHL SUB SWAP1 SWAP2 AND DUP2 MSTORE PUSH1 0x20 ADD PUSH1 0x40 MLOAD DUP1 SWAP2 SUB SWAP1 RETURN JUMPDEST PUSH1 0x66 PUSH20 0x76BF0C28E604CC3FE9967C83B3C3F31C213CFE64 DUP2 JUMP JUMPDEST PUSH1 0x66 PUSH20 0x2791BCA1F2DE4661ED88A30C99A7A9449AA84174 DUP2 JUMP INVALID LOG2 PUSH5 0x6970667358 0x22 SLT KECCAK256 0x2B 0x2D PUSH28 0xCE7D15CBDB90846521DFB6E6A5552D1F0C8D66CA40E131CA51BDEFF3 0xE5 PUSH5 0x736F6C6343 STOP ADDMOD SMOD STOP CALLER "
		},
		"gasEstimates": {
			"creation": {
				"codeDepositCost": "47200",
				"executionCost": "130",
				"totalCost": "47330"
			},
			"external": {
				"CRYSTL()": "188",
				"USDC()": "210",
				"WMATIC()": "166"
			},
			"internal": {
				"buildAllPaths(struct StrategyData.Tokens storage pointer,struct StrategyData.Paths storage pointer,address,bool)": "infinite",
				"makeEarnedToWmaticPath(struct StrategyData.Tokens storage pointer,struct StrategyData.Paths storage pointer,address)": "infinite",
				"makeEarnedToXPath(address[] storage pointer,address[] memory,contract IERC20)": "infinite"
			}
		},
		"methodIdentifiers": {
			"CRYSTL()": "6cd8de62",
			"USDC()": "89a30271",
			"WMATIC()": "4d95cad9"
		}
	},
	"abi": [
		{
			"inputs": [],
			"name": "CRYSTL",
			"outputs": [
				{
					"internalType": "contract IERC20",
					"name": "",
					"type": "IERC20"
				}
			],
			"stateMutability": "view",
			"type": "function"
		},
		{
			"inputs": [],
			"name": "USDC",
			"outputs": [
				{
					"internalType": "contract IERC20",
					"name": "",
					"type": "IERC20"
				}
			],
			"stateMutability": "view",
			"type": "function"
		},
		{
			"inputs": [],
			"name": "WMATIC",
			"outputs": [
				{
					"internalType": "contract IERC20",
					"name": "",
					"type": "IERC20"
				}
			],
			"stateMutability": "view",
			"type": "function"
		}
	]
}