{
	"data": {
		"bytecode": {
			"linkReferences": {},
			"object": "61387661003a600b82828239805160001a60731461002d57634e487b7160e01b600052600060045260246000fd5b30600052607381538281f3fe73000000000000000000000000000000000000000030146080604052600436106101c35760003560e01c80638cf57cb911610103578063b5a465d5116100a1578063d1ed134b1161007b578063d1ed134b14610426578063e9915f8914610444578063ee83712c14610457578063ffbe9f1e1461028b57600080fd5b8063b5a465d5146103d3578063b5f9e6b4146103f3578063b801e9621461040657600080fd5b80639bf6b601116100dd5780639bf6b601146103535780639c972aac14610373578063a9904cbd14610393578063b114d075146103b357600080fd5b80638cf57cb91461031c5780638da6d8f0146103375780638fefda061461034a57600080fd5b80636cd8de6211610170578063834bb1531161014a578063834bb153146102b8578063866b2018146102d8578063898bcd8c146102e157806389a302711461030157600080fd5b80636cd8de6214610294578063783478ad146102af578063784def8c146101ea57600080fd5b80634d95cad9116101a15780634d95cad9146102505780635fc767e21461026b57806367057b6c1461028b57600080fd5b80633054089b146101c857806341275358146101ea57806343fec9981461022f575b600080fd5b8180156101d457600080fd5b506101e86101e33660046133cd565b610477565b005b610205735386881b46c37cdd30a748f7771cf95d7b21363781565b60405173ffffffffffffffffffffffffffffffffffffffff90911681526020015b60405180910390f35b61024261023d36600461332f565b61064a565b604051908152602001610226565b610205730d500b1d8e8ef31e21c99d1db9a6444d3adf127081565b81801561027757600080fd5b506102426102863660046133cd565b610716565b61024261271081565b6102057376bf0c28e604cc3fe9967c83b3c3f31c213cfe6481565b61020561dead81565b8180156102c457600080fd5b506102426102d33660046133ab565b610989565b6102426126ac81565b8180156102ed57600080fd5b506101e86102fc36600461332f565b610d1e565b610205732791bca1f2de4661ed88a30c99a7a9449aa8417481565b61020573917fb15e8aaa12264dcbdc15afef7cd3ce76ba3981565b61024261034536600461332f565b6110a1565b6102426103e881565b81801561035f57600080fd5b5061024261036e366004613252565b61111a565b81801561037f57600080fd5b506101e861038e366004613348565b611347565b81801561039f57600080fd5b506102426103ae3660046133ab565b611620565b8180156103bf57600080fd5b506101e86103ce36600461332f565b611937565b8180156103df57600080fd5b506102426103ee3660046132d1565b611c6c565b6102426104013660046130bf565b611e99565b81801561041257600080fd5b506101e861042136600461332f565b611edb565b81801561043257600080fd5b506101e861044136600461332f565b50565b61024261045236600461332f565b612690565b81801561046357600080fd5b506102426104723660046133ab565b612750565b83546040517fd06ca61f00000000000000000000000000000000000000000000000000000000815260009173ffffffffffffffffffffffffffffffffffffffff169063d06ca61f906104cf908790879060040161360d565b60006040518083038186803b1580156104e757600080fd5b505afa1580156104fb573d6000803e3d6000fd5b505050506040513d6000823e601f3d9081017fffffffffffffffffffffffffffffffffffffffffffffffffffffffffffffffe0168201604052610541919081019061314d565b90506000816001835161055491906136fe565b81518110610564576105646137e2565b602090810291909101015186546040517f18cbafe500000000000000000000000000000000000000000000000000000000815291925073ffffffffffffffffffffffffffffffffffffffff16906318cbafe5906105cd9088908590899089904290600401613626565b600060405180830381600087803b1580156105e757600080fd5b505af11580156105fb573d6000803e3d6000fd5b505050506040513d6000823e601f3d9081017fffffffffffffffffffffffffffffffffffffffffffffffffffffffffffffffe0168201604052610641919081019061314d565b50505050505050565b600381015460118201546040517f93f1a40b0000000000000000000000000000000000000000000000000000000081526801000000000000000090910462ffffff1660048201523060248201526000918391839173ffffffffffffffffffffffffffffffffffffffff16906393f1a40b90604401604080518083038186803b1580156106d557600080fd5b505afa1580156106e9573d6000803e3d6000fd5b505050506040513d601f19601f8201168201806040525081019061070d9190613425565b50949350505050565b83546040517fd06ca61f000000000000000000000000000000000000000000000000000000008152600091829173ffffffffffffffffffffffffffffffffffffffff9091169063d06ca61f90610772908890889060040161360d565b60006040518083038186803b15801561078a57600080fd5b505afa15801561079e573d6000803e3d6000fd5b505050506040513d6000823e601f3d9081017fffffffffffffffffffffffffffffffffffffffffffffffffffffffffffffffe01682016040526107e4919081019061314d565b9050600081600183516107f791906136fe565b81518110610807576108076137e2565b602002602001015190507376bf0c28e604cc3fe9967c83b3c3f31c213cfe6473ffffffffffffffffffffffffffffffffffffffff16856001878054905061084e91906136fe565b8154811061085e5761085e6137e2565b60009182526020909120015473ffffffffffffffffffffffffffffffffffffffff161480156108a4575073ffffffffffffffffffffffffffffffffffffffff841661dead145b156108ad578092505b86546040517f38ed173900000000000000000000000000000000000000000000000000000000815273ffffffffffffffffffffffffffffffffffffffff909116906338ed17399061090a90899085908a908a904290600401613626565b600060405180830381600087803b15801561092457600080fd5b505af1158015610938573d6000803e3d6000fd5b505050506040513d6000823e601f3d9081017fffffffffffffffffffffffffffffffffffffffffffffffffffffffffffffffe016820160405261097e919081019061314d565b505050949350505050565b600582018054829190600785019074010000000000000000000000000000000000000000900461ffff1615610a21578154600090612710906109e79074010000000000000000000000000000000000000000900461ffff16876136c1565b6109f191906136ad565b9050610a13838284735386881b46c37cdd30a748f7771cf95d7b213637610477565b610a1d81856136fe565b9350505b8154760100000000000000000000000000000000000000000000900461ffff1615610c9057815460009061271090610a7790760100000000000000000000000000000000000000000000900461ffff16876136c1565b610a8191906136ad565b6040517f70a08231000000000000000000000000000000000000000000000000000000008152306004820152909150600090732791bca1f2de4661ed88a30c99a7a9449aa84174906370a082319060240160206040518083038186803b158015610aea57600080fd5b505afa158015610afe573d6000803e3d6000fd5b505050506040513d601f19601f82011682018060405250810190610b22919061340c565b9050610b3384838560010130610716565b506040517f70a082310000000000000000000000000000000000000000000000000000000081523060048201526000908290732791bca1f2de4661ed88a30c99a7a9449aa84174906370a082319060240160206040518083038186803b158015610b9c57600080fd5b505afa158015610bb0573d6000803e3d6000fd5b505050506040513d601f19601f82011682018060405250810190610bd4919061340c565b610bde91906136fe565b6040517f1e2720ff0000000000000000000000000000000000000000000000000000000081526004810182905290915073917fb15e8aaa12264dcbdc15afef7cd3ce76ba3990631e2720ff90602401602060405180830381600087803b158015610c4757600080fd5b505af1158015610c5b573d6000803e3d6000fd5b505050506040513d601f19601f82011682018060405250810190610c7f9190613230565b50610c8a83876136fe565b95505050505b81547801000000000000000000000000000000000000000000000000900461ffff1615610d1657815460009061271090610cea907801000000000000000000000000000000000000000000000000900461ffff16876136c1565b610cf491906136ad565b9050610d0783828460020161dead610716565b50610d1281856136fe565b9350505b505092915050565b600581018160078101600160118501546b010000000000000000000000900460ff166004811115610d5157610d516137b3565b1415610e4d57600081600501600081548110610d6f57610d6f6137e2565b600091825260208220015460068401805473ffffffffffffffffffffffffffffffffffffffff9092169350908290610da957610da96137e2565b600091825260209091200154855473ffffffffffffffffffffffffffffffffffffffff9182169250610e009184811691167fffffffffffffffffffffffffffffffffffffffffffffffffffffffffffffffff6127e0565b8454610e469073ffffffffffffffffffffffffffffffffffffffff83811691167fffffffffffffffffffffffffffffffffffffffffffffffffffffffffffffffff6127e0565b5050610faf565b600360118501546b010000000000000000000000900460ff166004811115610e7757610e776137b3565b1415610ecd5782546001830154610ec89173ffffffffffffffffffffffffffffffffffffffff91821691167fffffffffffffffffffffffffffffffffffffffffffffffffffffffffffffffff6127e0565b610faf565b600260118501546b010000000000000000000000900460ff166004811115610ef757610ef76137b3565b1415610f485781546001830154610ec89173ffffffffffffffffffffffffffffffffffffffff91821691167fffffffffffffffffffffffffffffffffffffffffffffffffffffffffffffffff6127e0565b6040517f08c379a000000000000000000000000000000000000000000000000000000000815260206004820152601f60248201527f7265736574416c6c6f77616e6365732066756e6374696f6e2062726f6b656e0060448201526064015b60405180910390fd5b60038201546001830154610ffd9173ffffffffffffffffffffffffffffffffffffffff91821691167fffffffffffffffffffffffffffffffffffffffffffffffffffffffffffffffff6127e0565b825460028301546110489173ffffffffffffffffffffffffffffffffffffffff91821691167fffffffffffffffffffffffffffffffffffffffffffffffffffffffffffffffff6127e0565b61109b732791bca1f2de4661ed88a30c99a7a9449aa8417473917fb15e8aaa12264dcbdc15afef7cd3ce76ba397fffffffffffffffffffffffffffffffffffffffffffffffffffffffffffffffff6127e0565b50505050565b8054600182015460028301546004840154600385015460118601546000956111149573ffffffffffffffffffffffffffffffffffffffff9182169590821694908216939082169291169068010000000000000000810462ffffff16906b010000000000000000000000900460ff16611e99565b92915050565b600061112c878387878a886004611e99565b600081815260208a90526040902060018101549192509073ffffffffffffffffffffffffffffffffffffffff16156111c0576040517f08c379a000000000000000000000000000000000000000000000000000000000815260206004820152601460248201527f7661756c7420616c7265616479206578697374730000000000000000000000006044820152606401610fa6565b80547fffffffffffffffffffffffff000000000000000000000000000000000000000090811673ffffffffffffffffffffffffffffffffffffffff8a81169190911783556001830180548316868316179055600283018054831689831617905560038301805483168a83161790556004830180549092169087161790556011810180547fffffffffffffffffffffffffffffffffffffffffff000000ffffffffffffffff166801000000000000000062ffffff871602179055806005820180547fffffffff00000000ffff0000ffffffffffffffffffffffffffffffffffffffff167b270601c20000003200000000000000000000000000000000000000001790556006820180547fffffffffffffffff00000000ffffffffffffffffffffffffffffffffffffffff16772710000000000000000000000000000000000000000000001790555060110180547fffffffffffffffffffffffffffffffffffffffffffffffff0000000000000000164367ffffffffffffffff16179055979650505050505050565b6103e884611355878961366f565b61135f919061366f565b61ffff1611156113cb576040517f08c379a000000000000000000000000000000000000000000000000000000000815260206004820152600e60248201527f4d617820666565206f66203130250000000000000000000000000000000000006044820152606401610fa6565b6126ac8361ffff16101561143b576040517f08c379a000000000000000000000000000000000000000000000000000000000815260206004820152601a60248201527f5f7769746864726177466565466163746f7220746f6f206c6f770000000000006044820152606401610fa6565b6127108361ffff1611156114ab576040517f08c379a000000000000000000000000000000000000000000000000000000000815260206004820152601b60248201527f5f7769746864726177466565466163746f7220746f6f206869676800000000006044820152606401610fa6565b6000876005019050868160000160146101000a81548161ffff021916908361ffff160217905550858160000160166101000a81548161ffff021916908361ffff160217905550848160000160186101000a81548161ffff021916908361ffff1602179055508381600001601a6101000a81548161ffff021916908361ffff1602179055508281600001601c6101000a81548161ffff021916908361ffff160217905550818160000160006101000a81548173ffffffffffffffffffffffffffffffffffffffff021916908373ffffffffffffffffffffffffffffffffffffffff1602179055507f7a7d844bfb1d318bd3e5ae1415b68abf83071edf39724448cf5399d43cfda93082888888888860405161160e9695949392919073ffffffffffffffffffffffffffffffffffffffff96909616865261ffff948516602087015292841660408601529083166060850152821660808401521660a082015260c00190565b60405180910390a15050505050505050565b600080821161168b576040517f08c379a000000000000000000000000000000000000000000000000000000000815260206004820152600d60248201527f5f77616e74416d742069732030000000000000000000000000000000000000006044820152606401610fa6565b60018301546040517f70a082310000000000000000000000000000000000000000000000000000000081523060048201528491600583019160009173ffffffffffffffffffffffffffffffffffffffff16906370a082319060240160206040518083038186803b1580156116fe57600080fd5b505afa158015611712573d6000803e3d6000fd5b505050506040513d601f19601f82011682018060405250810190611736919061340c565b9050808511156117f9576117538661174e83886136fe565b6129f4565b60018301546040517f70a0823100000000000000000000000000000000000000000000000000000000815230600482015273ffffffffffffffffffffffffffffffffffffffff909116906370a082319060240160206040518083038186803b1580156117be57600080fd5b505afa1580156117d2573d6000803e3d6000fd5b505050506040513d601f19601f820116820180604052508101906117f6919061340c565b90505b80851115611805578094505b600061181087612690565b90508086111561181e578095505b600061183a8289600f01548961183491906136c1565b90612a93565b905087600f015481111561184f5750600f8701545b8088600f01600082825461186391906136fe565b909155505083546000906127109061189d907a010000000000000000000000000000000000000000000000000000900461ffff16826136fe565b6118a7908a6136c1565b6118b191906136ad565b905080156118f35760018601546118f39073ffffffffffffffffffffffffffffffffffffffff16735386881b46c37cdd30a748f7771cf95d7b21363783612abb565b6118fd81896136fe565b8654600188015491995061192b9173ffffffffffffffffffffffffffffffffffffffff90811691168a612abb565b50979650505050505050565b600160118201546b010000000000000000000000900460ff166004811115611961576119616137b3565b146119c8576040517f08c379a000000000000000000000000000000000000000000000000000000000815260206004820152601360248201527f6d757374206265204c50207374726174656779000000000000000000000000006044820152606401610fa6565b600c81018054600783019160058401916000919082906119ea576119ea6137e2565b600091825260208220015460068501805473ffffffffffffffffffffffffffffffffffffffff9092169350908290611a2457611a246137e2565b600091825260208220015460058601805473ffffffffffffffffffffffffffffffffffffffff909216935090611a5c906001906136fe565b81548110611a6c57611a6c6137e2565b60009182526020822001546040517f70a0823100000000000000000000000000000000000000000000000000000000815230600482015273ffffffffffffffffffffffffffffffffffffffff9182169350908516906370a082319060240160206040518083038186803b158015611ae257600080fd5b505afa158015611af6573d6000803e3d6000fd5b505050506040513d601f19601f82011682018060405250810190611b1a919061340c565b9050600081118015611b5857508173ffffffffffffffffffffffffffffffffffffffff168473ffffffffffffffffffffffffffffffffffffffff1614155b15611b6e57611b6c85828860050130610716565b505b6040517f70a0823100000000000000000000000000000000000000000000000000000000815230600482015260009073ffffffffffffffffffffffffffffffffffffffff8516906370a082319060240160206040518083038186803b158015611bd657600080fd5b505afa158015611bea573d6000803e3d6000fd5b505050506040513d601f19601f82011682018060405250810190611c0e919061340c565b9050600081118015611c4c57508273ffffffffffffffffffffffffffffffffffffffff168473ffffffffffffffffffffffffffffffffffffffff1614155b15611c6257611c6086828960060130610716565b505b5050505050505050565b6000611c7e8583848588886003611e99565b600081815260208890526040902060018101549192509073ffffffffffffffffffffffffffffffffffffffff1615611d12576040517f08c379a000000000000000000000000000000000000000000000000000000000815260206004820152601460248201527f7661756c7420616c7265616479206578697374730000000000000000000000006044820152606401610fa6565b805473ffffffffffffffffffffffffffffffffffffffff8088167fffffffffffffffffffffffff000000000000000000000000000000000000000092831617835560018301805486831690841681179091556002840180548416821790556003840180549289169284169290921790915560048301805490921617905560118101805462ffffff861668010000000000000000027fffffffffffffffffffffffffffffffffffffffffff000000ffffffffffffffff909116179055806005820180547fffffffff00000000ffff0000ffffffffffffffffffffffffffffffffffffffff167b270601c20000003200000000000000000000000000000000000000001790556006820180547fffffffffffffffff00000000ffffffffffffffffffffffffffffffffffffffff16772710000000000000000000000000000000000000000000001790555060110180547fffffffffffffffffffffffffffffffffffffffffffffffff0000000000000000164367ffffffffffffffff1617905595945050505050565b600087878787878787604051602001611eb897969594939291906134cd565b604051602081830303815290604052805190602001209050979650505050505050565b60028101546040517f70a0823100000000000000000000000000000000000000000000000000000000815230600482015282916007830191600584019160009173ffffffffffffffffffffffffffffffffffffffff909116906370a082319060240160206040518083038186803b158015611f5557600080fd5b505afa158015611f69573d6000803e3d6000fd5b505050506040513d601f19601f82011682018060405250810190611f8d919061340c565b9050611f9885612b11565b60028401546040517f70a08231000000000000000000000000000000000000000000000000000000008152306004820152600091839173ffffffffffffffffffffffffffffffffffffffff909116906370a082319060240160206040518083038186803b15801561200857600080fd5b505afa15801561201c573d6000803e3d6000fd5b505050506040513d601f19601f82011682018060405250810190612040919061340c565b61204a91906136fe565b9050801561205e5761205c8682610989565b505b60028501546040517f70a0823100000000000000000000000000000000000000000000000000000000815230600482015273ffffffffffffffffffffffffffffffffffffffff909116906370a082319060240160206040518083038186803b1580156120c957600080fd5b505afa1580156120dd573d6000803e3d6000fd5b505050506040513d601f19601f82011682018060405250810190612101919061340c565b9050600160118701546b010000000000000000000000900460ff16600481111561212d5761212d6137b3565b14156124535760008460050160008154811061214b5761214b6137e2565b600091825260208220015460068701805473ffffffffffffffffffffffffffffffffffffffff9092169350908290612185576121856137e2565b600091825260209091200154600288015473ffffffffffffffffffffffffffffffffffffffff91821692508116908316146121d8576121d6600589016121cc6002866136ad565b8860030130610716565b505b600287015473ffffffffffffffffffffffffffffffffffffffff828116911614612217576122158561220b6002866136ad565b8860040130610716565b505b6040517f70a0823100000000000000000000000000000000000000000000000000000000815230600482015260009073ffffffffffffffffffffffffffffffffffffffff8416906370a082319060240160206040518083038186803b15801561227f57600080fd5b505afa158015612293573d6000803e3d6000fd5b505050506040513d601f19601f820116820180604052508101906122b7919061340c565b6040517f70a0823100000000000000000000000000000000000000000000000000000000815230600482015290915060009073ffffffffffffffffffffffffffffffffffffffff8416906370a082319060240160206040518083038186803b15801561232257600080fd5b505afa158015612336573d6000803e3d6000fd5b505050506040513d601f19601f8201168201806040525081019061235a919061340c565b905060008211801561236c5750600081115b1561244a5786546040517fe8e3370000000000000000000000000000000000000000000000000000000000815273ffffffffffffffffffffffffffffffffffffffff86811660048301528581166024830152604482018590526064820184905260006084830181905260a48301523060c48301524260e48301529091169063e8e337009061010401606060405180830381600087803b15801561240e57600080fd5b505af1158015612422573d6000803e3d6000fd5b505050506040513d601f19601f820116820180604052508101906124469190613449565b5050505b50505050612651565b600260118701546b010000000000000000000000900460ff16600481111561247d5761247d6137b3565b14156125ba576004850154600286015473ffffffffffffffffffffffffffffffffffffffff9081169116146124bd576124bb83828660070130610716565b505b84546004808701546040517f70a08231000000000000000000000000000000000000000000000000000000008152309281019290925273ffffffffffffffffffffffffffffffffffffffff9283169263fc77c9db929116906370a082319060240160206040518083038186803b15801561253657600080fd5b505afa15801561254a573d6000803e3d6000fd5b505050506040513d601f19601f8201168201806040525081019061256e919061340c565b6040518263ffffffff1660e01b815260040161258c91815260200190565b600060405180830381600087803b1580156125a657600080fd5b505af115801561244a573d6000803e3d6000fd5b600360118701546b010000000000000000000000900460ff1660048111156125e4576125e46137b3565b14156125ef57612651565b6040517f08c379a000000000000000000000000000000000000000000000000000000000815260206004820152601560248201527f6561726e5f2066756e6374696f6e2062726f6b656e00000000000000000000006044820152606401610fa6565b6011860180547fffffffffffffffffffffffffffffffffffffffffffffffff0000000000000000164367ffffffffffffffff1617905561064186612bb7565b60008161269c8161064a565b60018201546040517f70a0823100000000000000000000000000000000000000000000000000000000815230600482015273ffffffffffffffffffffffffffffffffffffffff909116906370a082319060240160206040518083038186803b15801561270757600080fd5b505afa15801561271b573d6000803e3d6000fd5b505050506040513d601f19601f8201168201806040525081019061273f919061340c565b6127499190613695565b9392505050565b6000828161275d82612690565b60018301549091506127879073ffffffffffffffffffffffffffffffffffffffff16333087612ca8565b600061279286612bb7565b600f870154909150156127bd578186600f0154826127b091906136c1565b6127ba91906136ad565b90505b8086600f0160008282546127d19190613695565b90915550909695505050505050565b80158061288f57506040517fdd62ed3e00000000000000000000000000000000000000000000000000000000815230600482015273ffffffffffffffffffffffffffffffffffffffff838116602483015284169063dd62ed3e9060440160206040518083038186803b15801561285557600080fd5b505afa158015612869573d6000803e3d6000fd5b505050506040513d601f19601f8201168201806040525081019061288d919061340c565b155b61291b576040517f08c379a000000000000000000000000000000000000000000000000000000000815260206004820152603660248201527f5361666545524332303a20617070726f76652066726f6d206e6f6e2d7a65726f60448201527f20746f206e6f6e2d7a65726f20616c6c6f77616e6365000000000000000000006064820152608401610fa6565b60405173ffffffffffffffffffffffffffffffffffffffff83166024820152604481018290526129ef9084907f095ea7b300000000000000000000000000000000000000000000000000000000906064015b604080517fffffffffffffffffffffffffffffffffffffffffffffffffffffffffffffffe08184030181529190526020810180517bffffffffffffffffffffffffffffffffffffffffffffffffffffffff167fffffffff0000000000000000000000000000000000000000000000000000000090931692909217909152612d06565b505050565b600382015460118301546040517f441a3e700000000000000000000000000000000000000000000000000000000081526801000000000000000090910462ffffff16600482015260248101839052839173ffffffffffffffffffffffffffffffffffffffff169063441a3e70906044015b600060405180830381600087803b158015612a7f57600080fd5b505af1158015610641573d6000803e3d6000fd5b6000612a9f8284613741565b15612aab576001612aae565b60005b60ff1661273f83856136ad565b60405173ffffffffffffffffffffffffffffffffffffffff83166024820152604481018290526129ef9084907fa9059cbb000000000000000000000000000000000000000000000000000000009060640161296d565b600381015460118201546040517f441a3e700000000000000000000000000000000000000000000000000000000081526801000000000000000090910462ffffff16600482015260006024820152829173ffffffffffffffffffffffffffffffffffffffff169063441a3e7090604401600060405180830381600087803b158015612b9b57600080fd5b505af1158015612baf573d6000803e3d6000fd5b505050505050565b60018101546040517f70a082310000000000000000000000000000000000000000000000000000000081523060048201526000918391839173ffffffffffffffffffffffffffffffffffffffff16906370a082319060240160206040518083038186803b158015612c2757600080fd5b505afa158015612c3b573d6000803e3d6000fd5b505050506040513d601f19601f82011682018060405250810190612c5f919061340c565b905080612c70575060009392505050565b6000612c7b8561064a565b9050612c878583612e12565b6000612c928661064a565b9050612c9e82826136fe565b9695505050505050565b60405173ffffffffffffffffffffffffffffffffffffffff8085166024830152831660448201526064810182905261109b9085907f23b872dd000000000000000000000000000000000000000000000000000000009060840161296d565b6000612d68826040518060400160405280602081526020017f5361666545524332303a206c6f772d6c6576656c2063616c6c206661696c65648152508573ffffffffffffffffffffffffffffffffffffffff16612e879092919063ffffffff16565b8051909150156129ef5780806020019051810190612d869190613230565b6129ef576040517f08c379a000000000000000000000000000000000000000000000000000000000815260206004820152602a60248201527f5361666545524332303a204552433230206f7065726174696f6e20646964206e60448201527f6f742073756363656564000000000000000000000000000000000000000000006064820152608401610fa6565b600382015460118301546040517fe2bbb1580000000000000000000000000000000000000000000000000000000081526801000000000000000090910462ffffff16600482015260248101839052839173ffffffffffffffffffffffffffffffffffffffff169063e2bbb15890604401612a65565b6060612e968484600085612e9e565b949350505050565b606082471015612f30576040517f08c379a000000000000000000000000000000000000000000000000000000000815260206004820152602660248201527f416464726573733a20696e73756666696369656e742062616c616e636520666f60448201527f722063616c6c00000000000000000000000000000000000000000000000000006064820152608401610fa6565b843b612f98576040517f08c379a000000000000000000000000000000000000000000000000000000000815260206004820152601d60248201527f416464726573733a2063616c6c20746f206e6f6e2d636f6e74726163740000006044820152606401610fa6565b6000808673ffffffffffffffffffffffffffffffffffffffff168587604051612fc191906135a0565b60006040518083038185875af1925050503d8060008114612ffe576040519150601f19603f3d011682016040523d82523d6000602084013e613003565b606091505b509150915061301382828661301e565b979650505050505050565b6060831561302d575081612749565b82511561303d5782518084602001fd5b816040517f08c379a0000000000000000000000000000000000000000000000000000000008152600401610fa691906135bc565b803573ffffffffffffffffffffffffffffffffffffffff8116811461309557600080fd5b919050565b803561ffff8116811461309557600080fd5b803562ffffff8116811461309557600080fd5b600080600080600080600060e0888a0312156130da57600080fd5b6130e388613071565b96506130f160208901613071565b95506130ff60408901613071565b945061310d60608901613071565b935061311b60808901613071565b925061312960a089016130ac565b915060c08801356005811061313d57600080fd5b8091505092959891949750929550565b6000602080838503121561316057600080fd5b825167ffffffffffffffff8082111561317857600080fd5b818501915085601f83011261318c57600080fd5b81518181111561319e5761319e613811565b8060051b6040517fffffffffffffffffffffffffffffffffffffffffffffffffffffffffffffffe0603f830116810181811085821117156131e1576131e1613811565b604052828152858101935084860182860187018a101561320057600080fd5b600095505b83861015613223578051855260019590950194938601938601613205565b5098975050505050505050565b60006020828403121561324257600080fd5b8151801515811461274957600080fd5b600080600080600080600060e0888a03121561326d57600080fd5b8735965061327d60208901613071565b955061328b60408901613071565b945061329960608901613071565b93506132a760808901613071565b92506132b560a089016130ac565b91506132c360c08901613071565b905092959891949750929550565b600080600080600060a086880312156132e957600080fd5b853594506132f960208701613071565b935061330760408701613071565b9250613315606087016130ac565b915061332360808701613071565b90509295509295909350565b60006020828403121561334157600080fd5b5035919050565b600080600080600080600060e0888a03121561336357600080fd5b873596506133736020890161309a565b95506133816040890161309a565b945061338f6060890161309a565b935061339d6080890161309a565b92506132b560a0890161309a565b600080604083850312156133be57600080fd5b50508035926020909101359150565b600080600080608085870312156133e357600080fd5b84359350602085013592506040850135915061340160608601613071565b905092959194509250565b60006020828403121561341e57600080fd5b5051919050565b6000806040838503121561343857600080fd5b505080516020909101519092909150565b60008060006060848603121561345e57600080fd5b8351925060208401519150604084015190509250925092565b6000815480845260208085019450836000528060002060005b838110156134c257815473ffffffffffffffffffffffffffffffffffffffff1687529582019560019182019101613490565b509495945050505050565b60007fffffffffffffffffffffffffffffffffffffffff000000000000000000000000808a60601b168352808960601b166014840152808860601b166028840152808760601b16603c840152808660601b166050840152507fffffff00000000000000000000000000000000000000000000000000000000008460e81b16606483015260058310613587577f4e487b7100000000000000000000000000000000000000000000000000000000600052602160045260246000fd5b5060f89190911b60678201526068019695505050505050565b600082516135b2818460208701613715565b9190910192915050565b60208152600082518060208401526135db816040850160208701613715565b601f017fffffffffffffffffffffffffffffffffffffffffffffffffffffffffffffffe0169190910160400192915050565b828152604060208201526000612e966040830184613477565b85815284602082015260a06040820152600061364560a0830186613477565b73ffffffffffffffffffffffffffffffffffffffff94909416606083015250608001529392505050565b600061ffff80831681851680830382111561368c5761368c613755565b01949350505050565b600082198211156136a8576136a8613755565b500190565b6000826136bc576136bc613784565b500490565b6000817fffffffffffffffffffffffffffffffffffffffffffffffffffffffffffffffff04831182151516156136f9576136f9613755565b500290565b60008282101561371057613710613755565b500390565b60005b83811015613730578181015183820152602001613718565b8381111561109b5750506000910152565b60008261375057613750613784565b500690565b7f4e487b7100000000000000000000000000000000000000000000000000000000600052601160045260246000fd5b7f4e487b7100000000000000000000000000000000000000000000000000000000600052601260045260246000fd5b7f4e487b7100000000000000000000000000000000000000000000000000000000600052602160045260246000fd5b7f4e487b7100000000000000000000000000000000000000000000000000000000600052603260045260246000fd5b7f4e487b7100000000000000000000000000000000000000000000000000000000600052604160045260246000fdfea2646970667358221220ba44e304537d081ecabf0902c45a7c3720986f2f489e04f737cd742475abef5c64736f6c63430008070033",
			"opcodes": "PUSH2 0x3876 PUSH2 0x3A PUSH1 0xB DUP3 DUP3 DUP3 CODECOPY DUP1 MLOAD PUSH1 0x0 BYTE PUSH1 0x73 EQ PUSH2 0x2D JUMPI PUSH4 0x4E487B71 PUSH1 0xE0 SHL PUSH1 0x0 MSTORE PUSH1 0x0 PUSH1 0x4 MSTORE PUSH1 0x24 PUSH1 0x0 REVERT JUMPDEST ADDRESS PUSH1 0x0 MSTORE PUSH1 0x73 DUP2 MSTORE8 DUP3 DUP2 RETURN INVALID PUSH20 0x0 ADDRESS EQ PUSH1 0x80 PUSH1 0x40 MSTORE PUSH1 0x4 CALLDATASIZE LT PUSH2 0x1C3 JUMPI PUSH1 0x0 CALLDATALOAD PUSH1 0xE0 SHR DUP1 PUSH4 0x8CF57CB9 GT PUSH2 0x103 JUMPI DUP1 PUSH4 0xB5A465D5 GT PUSH2 0xA1 JUMPI DUP1 PUSH4 0xD1ED134B GT PUSH2 0x7B JUMPI DUP1 PUSH4 0xD1ED134B EQ PUSH2 0x426 JUMPI DUP1 PUSH4 0xE9915F89 EQ PUSH2 0x444 JUMPI DUP1 PUSH4 0xEE83712C EQ PUSH2 0x457 JUMPI DUP1 PUSH4 0xFFBE9F1E EQ PUSH2 0x28B JUMPI PUSH1 0x0 DUP1 REVERT JUMPDEST DUP1 PUSH4 0xB5A465D5 EQ PUSH2 0x3D3 JUMPI DUP1 PUSH4 0xB5F9E6B4 EQ PUSH2 0x3F3 JUMPI DUP1 PUSH4 0xB801E962 EQ PUSH2 0x406 JUMPI PUSH1 0x0 DUP1 REVERT JUMPDEST DUP1 PUSH4 0x9BF6B601 GT PUSH2 0xDD JUMPI DUP1 PUSH4 0x9BF6B601 EQ PUSH2 0x353 JUMPI DUP1 PUSH4 0x9C972AAC EQ PUSH2 0x373 JUMPI DUP1 PUSH4 0xA9904CBD EQ PUSH2 0x393 JUMPI DUP1 PUSH4 0xB114D075 EQ PUSH2 0x3B3 JUMPI PUSH1 0x0 DUP1 REVERT JUMPDEST DUP1 PUSH4 0x8CF57CB9 EQ PUSH2 0x31C JUMPI DUP1 PUSH4 0x8DA6D8F0 EQ PUSH2 0x337 JUMPI DUP1 PUSH4 0x8FEFDA06 EQ PUSH2 0x34A JUMPI PUSH1 0x0 DUP1 REVERT JUMPDEST DUP1 PUSH4 0x6CD8DE62 GT PUSH2 0x170 JUMPI DUP1 PUSH4 0x834BB153 GT PUSH2 0x14A JUMPI DUP1 PUSH4 0x834BB153 EQ PUSH2 0x2B8 JUMPI DUP1 PUSH4 0x866B2018 EQ PUSH2 0x2D8 JUMPI DUP1 PUSH4 0x898BCD8C EQ PUSH2 0x2E1 JUMPI DUP1 PUSH4 0x89A30271 EQ PUSH2 0x301 JUMPI PUSH1 0x0 DUP1 REVERT JUMPDEST DUP1 PUSH4 0x6CD8DE62 EQ PUSH2 0x294 JUMPI DUP1 PUSH4 0x783478AD EQ PUSH2 0x2AF JUMPI DUP1 PUSH4 0x784DEF8C EQ PUSH2 0x1EA JUMPI PUSH1 0x0 DUP1 REVERT JUMPDEST DUP1 PUSH4 0x4D95CAD9 GT PUSH2 0x1A1 JUMPI DUP1 PUSH4 0x4D95CAD9 EQ PUSH2 0x250 JUMPI DUP1 PUSH4 0x5FC767E2 EQ PUSH2 0x26B JUMPI DUP1 PUSH4 0x67057B6C EQ PUSH2 0x28B JUMPI PUSH1 0x0 DUP1 REVERT JUMPDEST DUP1 PUSH4 0x3054089B EQ PUSH2 0x1C8 JUMPI DUP1 PUSH4 0x41275358 EQ PUSH2 0x1EA JUMPI DUP1 PUSH4 0x43FEC998 EQ PUSH2 0x22F JUMPI JUMPDEST PUSH1 0x0 DUP1 REVERT JUMPDEST DUP2 DUP1 ISZERO PUSH2 0x1D4 JUMPI PUSH1 0x0 DUP1 REVERT JUMPDEST POP PUSH2 0x1E8 PUSH2 0x1E3 CALLDATASIZE PUSH1 0x4 PUSH2 0x33CD JUMP JUMPDEST PUSH2 0x477 JUMP JUMPDEST STOP JUMPDEST PUSH2 0x205 PUSH20 0x5386881B46C37CDD30A748F7771CF95D7B213637 DUP2 JUMP JUMPDEST PUSH1 0x40 MLOAD PUSH20 0xFFFFFFFFFFFFFFFFFFFFFFFFFFFFFFFFFFFFFFFF SWAP1 SWAP2 AND DUP2 MSTORE PUSH1 0x20 ADD JUMPDEST PUSH1 0x40 MLOAD DUP1 SWAP2 SUB SWAP1 RETURN JUMPDEST PUSH2 0x242 PUSH2 0x23D CALLDATASIZE PUSH1 0x4 PUSH2 0x332F JUMP JUMPDEST PUSH2 0x64A JUMP JUMPDEST PUSH1 0x40 MLOAD SWAP1 DUP2 MSTORE PUSH1 0x20 ADD PUSH2 0x226 JUMP JUMPDEST PUSH2 0x205 PUSH20 0xD500B1D8E8EF31E21C99D1DB9A6444D3ADF1270 DUP2 JUMP JUMPDEST DUP2 DUP1 ISZERO PUSH2 0x277 JUMPI PUSH1 0x0 DUP1 REVERT JUMPDEST POP PUSH2 0x242 PUSH2 0x286 CALLDATASIZE PUSH1 0x4 PUSH2 0x33CD JUMP JUMPDEST PUSH2 0x716 JUMP JUMPDEST PUSH2 0x242 PUSH2 0x2710 DUP2 JUMP JUMPDEST PUSH2 0x205 PUSH20 0x76BF0C28E604CC3FE9967C83B3C3F31C213CFE64 DUP2 JUMP JUMPDEST PUSH2 0x205 PUSH2 0xDEAD DUP2 JUMP JUMPDEST DUP2 DUP1 ISZERO PUSH2 0x2C4 JUMPI PUSH1 0x0 DUP1 REVERT JUMPDEST POP PUSH2 0x242 PUSH2 0x2D3 CALLDATASIZE PUSH1 0x4 PUSH2 0x33AB JUMP JUMPDEST PUSH2 0x989 JUMP JUMPDEST PUSH2 0x242 PUSH2 0x26AC DUP2 JUMP JUMPDEST DUP2 DUP1 ISZERO PUSH2 0x2ED JUMPI PUSH1 0x0 DUP1 REVERT JUMPDEST POP PUSH2 0x1E8 PUSH2 0x2FC CALLDATASIZE PUSH1 0x4 PUSH2 0x332F JUMP JUMPDEST PUSH2 0xD1E JUMP JUMPDEST PUSH2 0x205 PUSH20 0x2791BCA1F2DE4661ED88A30C99A7A9449AA84174 DUP2 JUMP JUMPDEST PUSH2 0x205 PUSH20 0x917FB15E8AAA12264DCBDC15AFEF7CD3CE76BA39 DUP2 JUMP JUMPDEST PUSH2 0x242 PUSH2 0x345 CALLDATASIZE PUSH1 0x4 PUSH2 0x332F JUMP JUMPDEST PUSH2 0x10A1 JUMP JUMPDEST PUSH2 0x242 PUSH2 0x3E8 DUP2 JUMP JUMPDEST DUP2 DUP1 ISZERO PUSH2 0x35F JUMPI PUSH1 0x0 DUP1 REVERT JUMPDEST POP PUSH2 0x242 PUSH2 0x36E CALLDATASIZE PUSH1 0x4 PUSH2 0x3252 JUMP JUMPDEST PUSH2 0x111A JUMP JUMPDEST DUP2 DUP1 ISZERO PUSH2 0x37F JUMPI PUSH1 0x0 DUP1 REVERT JUMPDEST POP PUSH2 0x1E8 PUSH2 0x38E CALLDATASIZE PUSH1 0x4 PUSH2 0x3348 JUMP JUMPDEST PUSH2 0x1347 JUMP JUMPDEST DUP2 DUP1 ISZERO PUSH2 0x39F JUMPI PUSH1 0x0 DUP1 REVERT JUMPDEST POP PUSH2 0x242 PUSH2 0x3AE CALLDATASIZE PUSH1 0x4 PUSH2 0x33AB JUMP JUMPDEST PUSH2 0x1620 JUMP JUMPDEST DUP2 DUP1 ISZERO PUSH2 0x3BF JUMPI PUSH1 0x0 DUP1 REVERT JUMPDEST POP PUSH2 0x1E8 PUSH2 0x3CE CALLDATASIZE PUSH1 0x4 PUSH2 0x332F JUMP JUMPDEST PUSH2 0x1937 JUMP JUMPDEST DUP2 DUP1 ISZERO PUSH2 0x3DF JUMPI PUSH1 0x0 DUP1 REVERT JUMPDEST POP PUSH2 0x242 PUSH2 0x3EE CALLDATASIZE PUSH1 0x4 PUSH2 0x32D1 JUMP JUMPDEST PUSH2 0x1C6C JUMP JUMPDEST PUSH2 0x242 PUSH2 0x401 CALLDATASIZE PUSH1 0x4 PUSH2 0x30BF JUMP JUMPDEST PUSH2 0x1E99 JUMP JUMPDEST DUP2 DUP1 ISZERO PUSH2 0x412 JUMPI PUSH1 0x0 DUP1 REVERT JUMPDEST POP PUSH2 0x1E8 PUSH2 0x421 CALLDATASIZE PUSH1 0x4 PUSH2 0x332F JUMP JUMPDEST PUSH2 0x1EDB JUMP JUMPDEST DUP2 DUP1 ISZERO PUSH2 0x432 JUMPI PUSH1 0x0 DUP1 REVERT JUMPDEST POP PUSH2 0x1E8 PUSH2 0x441 CALLDATASIZE PUSH1 0x4 PUSH2 0x332F JUMP JUMPDEST POP JUMP JUMPDEST PUSH2 0x242 PUSH2 0x452 CALLDATASIZE PUSH1 0x4 PUSH2 0x332F JUMP JUMPDEST PUSH2 0x2690 JUMP JUMPDEST DUP2 DUP1 ISZERO PUSH2 0x463 JUMPI PUSH1 0x0 DUP1 REVERT JUMPDEST POP PUSH2 0x242 PUSH2 0x472 CALLDATASIZE PUSH1 0x4 PUSH2 0x33AB JUMP JUMPDEST PUSH2 0x2750 JUMP JUMPDEST DUP4 SLOAD PUSH1 0x40 MLOAD PUSH32 0xD06CA61F00000000000000000000000000000000000000000000000000000000 DUP2 MSTORE PUSH1 0x0 SWAP2 PUSH20 0xFFFFFFFFFFFFFFFFFFFFFFFFFFFFFFFFFFFFFFFF AND SWAP1 PUSH4 0xD06CA61F SWAP1 PUSH2 0x4CF SWAP1 DUP8 SWAP1 DUP8 SWAP1 PUSH1 0x4 ADD PUSH2 0x360D JUMP JUMPDEST PUSH1 0x0 PUSH1 0x40 MLOAD DUP1 DUP4 SUB DUP2 DUP7 DUP1 EXTCODESIZE ISZERO DUP1 ISZERO PUSH2 0x4E7 JUMPI PUSH1 0x0 DUP1 REVERT JUMPDEST POP GAS STATICCALL ISZERO DUP1 ISZERO PUSH2 0x4FB JUMPI RETURNDATASIZE PUSH1 0x0 DUP1 RETURNDATACOPY RETURNDATASIZE PUSH1 0x0 REVERT JUMPDEST POP POP POP POP PUSH1 0x40 MLOAD RETURNDATASIZE PUSH1 0x0 DUP3 RETURNDATACOPY PUSH1 0x1F RETURNDATASIZE SWAP1 DUP2 ADD PUSH32 0xFFFFFFFFFFFFFFFFFFFFFFFFFFFFFFFFFFFFFFFFFFFFFFFFFFFFFFFFFFFFFFE0 AND DUP3 ADD PUSH1 0x40 MSTORE PUSH2 0x541 SWAP2 SWAP1 DUP2 ADD SWAP1 PUSH2 0x314D JUMP JUMPDEST SWAP1 POP PUSH1 0x0 DUP2 PUSH1 0x1 DUP4 MLOAD PUSH2 0x554 SWAP2 SWAP1 PUSH2 0x36FE JUMP JUMPDEST DUP2 MLOAD DUP2 LT PUSH2 0x564 JUMPI PUSH2 0x564 PUSH2 0x37E2 JUMP JUMPDEST PUSH1 0x20 SWAP1 DUP2 MUL SWAP2 SWAP1 SWAP2 ADD ADD MLOAD DUP7 SLOAD PUSH1 0x40 MLOAD PUSH32 0x18CBAFE500000000000000000000000000000000000000000000000000000000 DUP2 MSTORE SWAP2 SWAP3 POP PUSH20 0xFFFFFFFFFFFFFFFFFFFFFFFFFFFFFFFFFFFFFFFF AND SWAP1 PUSH4 0x18CBAFE5 SWAP1 PUSH2 0x5CD SWAP1 DUP9 SWAP1 DUP6 SWAP1 DUP10 SWAP1 DUP10 SWAP1 TIMESTAMP SWAP1 PUSH1 0x4 ADD PUSH2 0x3626 JUMP JUMPDEST PUSH1 0x0 PUSH1 0x40 MLOAD DUP1 DUP4 SUB DUP2 PUSH1 0x0 DUP8 DUP1 EXTCODESIZE ISZERO DUP1 ISZERO PUSH2 0x5E7 JUMPI PUSH1 0x0 DUP1 REVERT JUMPDEST POP GAS CALL ISZERO DUP1 ISZERO PUSH2 0x5FB JUMPI RETURNDATASIZE PUSH1 0x0 DUP1 RETURNDATACOPY RETURNDATASIZE PUSH1 0x0 REVERT JUMPDEST POP POP POP POP PUSH1 0x40 MLOAD RETURNDATASIZE PUSH1 0x0 DUP3 RETURNDATACOPY PUSH1 0x1F RETURNDATASIZE SWAP1 DUP2 ADD PUSH32 0xFFFFFFFFFFFFFFFFFFFFFFFFFFFFFFFFFFFFFFFFFFFFFFFFFFFFFFFFFFFFFFE0 AND DUP3 ADD PUSH1 0x40 MSTORE PUSH2 0x641 SWAP2 SWAP1 DUP2 ADD SWAP1 PUSH2 0x314D JUMP JUMPDEST POP POP POP POP POP POP POP JUMP JUMPDEST PUSH1 0x3 DUP2 ADD SLOAD PUSH1 0x11 DUP3 ADD SLOAD PUSH1 0x40 MLOAD PUSH32 0x93F1A40B00000000000000000000000000000000000000000000000000000000 DUP2 MSTORE PUSH9 0x10000000000000000 SWAP1 SWAP2 DIV PUSH3 0xFFFFFF AND PUSH1 0x4 DUP3 ADD MSTORE ADDRESS PUSH1 0x24 DUP3 ADD MSTORE PUSH1 0x0 SWAP2 DUP4 SWAP2 DUP4 SWAP2 PUSH20 0xFFFFFFFFFFFFFFFFFFFFFFFFFFFFFFFFFFFFFFFF AND SWAP1 PUSH4 0x93F1A40B SWAP1 PUSH1 0x44 ADD PUSH1 0x40 DUP1 MLOAD DUP1 DUP4 SUB DUP2 DUP7 DUP1 EXTCODESIZE ISZERO DUP1 ISZERO PUSH2 0x6D5 JUMPI PUSH1 0x0 DUP1 REVERT JUMPDEST POP GAS STATICCALL ISZERO DUP1 ISZERO PUSH2 0x6E9 JUMPI RETURNDATASIZE PUSH1 0x0 DUP1 RETURNDATACOPY RETURNDATASIZE PUSH1 0x0 REVERT JUMPDEST POP POP POP POP PUSH1 0x40 MLOAD RETURNDATASIZE PUSH1 0x1F NOT PUSH1 0x1F DUP3 ADD AND DUP3 ADD DUP1 PUSH1 0x40 MSTORE POP DUP2 ADD SWAP1 PUSH2 0x70D SWAP2 SWAP1 PUSH2 0x3425 JUMP JUMPDEST POP SWAP5 SWAP4 POP POP POP POP JUMP JUMPDEST DUP4 SLOAD PUSH1 0x40 MLOAD PUSH32 0xD06CA61F00000000000000000000000000000000000000000000000000000000 DUP2 MSTORE PUSH1 0x0 SWAP2 DUP3 SWAP2 PUSH20 0xFFFFFFFFFFFFFFFFFFFFFFFFFFFFFFFFFFFFFFFF SWAP1 SWAP2 AND SWAP1 PUSH4 0xD06CA61F SWAP1 PUSH2 0x772 SWAP1 DUP9 SWAP1 DUP9 SWAP1 PUSH1 0x4 ADD PUSH2 0x360D JUMP JUMPDEST PUSH1 0x0 PUSH1 0x40 MLOAD DUP1 DUP4 SUB DUP2 DUP7 DUP1 EXTCODESIZE ISZERO DUP1 ISZERO PUSH2 0x78A JUMPI PUSH1 0x0 DUP1 REVERT JUMPDEST POP GAS STATICCALL ISZERO DUP1 ISZERO PUSH2 0x79E JUMPI RETURNDATASIZE PUSH1 0x0 DUP1 RETURNDATACOPY RETURNDATASIZE PUSH1 0x0 REVERT JUMPDEST POP POP POP POP PUSH1 0x40 MLOAD RETURNDATASIZE PUSH1 0x0 DUP3 RETURNDATACOPY PUSH1 0x1F RETURNDATASIZE SWAP1 DUP2 ADD PUSH32 0xFFFFFFFFFFFFFFFFFFFFFFFFFFFFFFFFFFFFFFFFFFFFFFFFFFFFFFFFFFFFFFE0 AND DUP3 ADD PUSH1 0x40 MSTORE PUSH2 0x7E4 SWAP2 SWAP1 DUP2 ADD SWAP1 PUSH2 0x314D JUMP JUMPDEST SWAP1 POP PUSH1 0x0 DUP2 PUSH1 0x1 DUP4 MLOAD PUSH2 0x7F7 SWAP2 SWAP1 PUSH2 0x36FE JUMP JUMPDEST DUP2 MLOAD DUP2 LT PUSH2 0x807 JUMPI PUSH2 0x807 PUSH2 0x37E2 JUMP JUMPDEST PUSH1 0x20 MUL PUSH1 0x20 ADD ADD MLOAD SWAP1 POP PUSH20 0x76BF0C28E604CC3FE9967C83B3C3F31C213CFE64 PUSH20 0xFFFFFFFFFFFFFFFFFFFFFFFFFFFFFFFFFFFFFFFF AND DUP6 PUSH1 0x1 DUP8 DUP1 SLOAD SWAP1 POP PUSH2 0x84E SWAP2 SWAP1 PUSH2 0x36FE JUMP JUMPDEST DUP2 SLOAD DUP2 LT PUSH2 0x85E JUMPI PUSH2 0x85E PUSH2 0x37E2 JUMP JUMPDEST PUSH1 0x0 SWAP2 DUP3 MSTORE PUSH1 0x20 SWAP1 SWAP2 KECCAK256 ADD SLOAD PUSH20 0xFFFFFFFFFFFFFFFFFFFFFFFFFFFFFFFFFFFFFFFF AND EQ DUP1 ISZERO PUSH2 0x8A4 JUMPI POP PUSH20 0xFFFFFFFFFFFFFFFFFFFFFFFFFFFFFFFFFFFFFFFF DUP5 AND PUSH2 0xDEAD EQ JUMPDEST ISZERO PUSH2 0x8AD JUMPI DUP1 SWAP3 POP JUMPDEST DUP7 SLOAD PUSH1 0x40 MLOAD PUSH32 0x38ED173900000000000000000000000000000000000000000000000000000000 DUP2 MSTORE PUSH20 0xFFFFFFFFFFFFFFFFFFFFFFFFFFFFFFFFFFFFFFFF SWAP1 SWAP2 AND SWAP1 PUSH4 0x38ED1739 SWAP1 PUSH2 0x90A SWAP1 DUP10 SWAP1 DUP6 SWAP1 DUP11 SWAP1 DUP11 SWAP1 TIMESTAMP SWAP1 PUSH1 0x4 ADD PUSH2 0x3626 JUMP JUMPDEST PUSH1 0x0 PUSH1 0x40 MLOAD DUP1 DUP4 SUB DUP2 PUSH1 0x0 DUP8 DUP1 EXTCODESIZE ISZERO DUP1 ISZERO PUSH2 0x924 JUMPI PUSH1 0x0 DUP1 REVERT JUMPDEST POP GAS CALL ISZERO DUP1 ISZERO PUSH2 0x938 JUMPI RETURNDATASIZE PUSH1 0x0 DUP1 RETURNDATACOPY RETURNDATASIZE PUSH1 0x0 REVERT JUMPDEST POP POP POP POP PUSH1 0x40 MLOAD RETURNDATASIZE PUSH1 0x0 DUP3 RETURNDATACOPY PUSH1 0x1F RETURNDATASIZE SWAP1 DUP2 ADD PUSH32 0xFFFFFFFFFFFFFFFFFFFFFFFFFFFFFFFFFFFFFFFFFFFFFFFFFFFFFFFFFFFFFFE0 AND DUP3 ADD PUSH1 0x40 MSTORE PUSH2 0x97E SWAP2 SWAP1 DUP2 ADD SWAP1 PUSH2 0x314D JUMP JUMPDEST POP POP POP SWAP5 SWAP4 POP POP POP POP JUMP JUMPDEST PUSH1 0x5 DUP3 ADD DUP1 SLOAD DUP3 SWAP2 SWAP1 PUSH1 0x7 DUP6 ADD SWAP1 PUSH21 0x10000000000000000000000000000000000000000 SWAP1 DIV PUSH2 0xFFFF AND ISZERO PUSH2 0xA21 JUMPI DUP2 SLOAD PUSH1 0x0 SWAP1 PUSH2 0x2710 SWAP1 PUSH2 0x9E7 SWAP1 PUSH21 0x10000000000000000000000000000000000000000 SWAP1 DIV PUSH2 0xFFFF AND DUP8 PUSH2 0x36C1 JUMP JUMPDEST PUSH2 0x9F1 SWAP2 SWAP1 PUSH2 0x36AD JUMP JUMPDEST SWAP1 POP PUSH2 0xA13 DUP4 DUP3 DUP5 PUSH20 0x5386881B46C37CDD30A748F7771CF95D7B213637 PUSH2 0x477 JUMP JUMPDEST PUSH2 0xA1D DUP2 DUP6 PUSH2 0x36FE JUMP JUMPDEST SWAP4 POP POP JUMPDEST DUP2 SLOAD PUSH23 0x100000000000000000000000000000000000000000000 SWAP1 DIV PUSH2 0xFFFF AND ISZERO PUSH2 0xC90 JUMPI DUP2 SLOAD PUSH1 0x0 SWAP1 PUSH2 0x2710 SWAP1 PUSH2 0xA77 SWAP1 PUSH23 0x100000000000000000000000000000000000000000000 SWAP1 DIV PUSH2 0xFFFF AND DUP8 PUSH2 0x36C1 JUMP JUMPDEST PUSH2 0xA81 SWAP2 SWAP1 PUSH2 0x36AD JUMP JUMPDEST PUSH1 0x40 MLOAD PUSH32 0x70A0823100000000000000000000000000000000000000000000000000000000 DUP2 MSTORE ADDRESS PUSH1 0x4 DUP3 ADD MSTORE SWAP1 SWAP2 POP PUSH1 0x0 SWAP1 PUSH20 0x2791BCA1F2DE4661ED88A30C99A7A9449AA84174 SWAP1 PUSH4 0x70A08231 SWAP1 PUSH1 0x24 ADD PUSH1 0x20 PUSH1 0x40 MLOAD DUP1 DUP4 SUB DUP2 DUP7 DUP1 EXTCODESIZE ISZERO DUP1 ISZERO PUSH2 0xAEA JUMPI PUSH1 0x0 DUP1 REVERT JUMPDEST POP GAS STATICCALL ISZERO DUP1 ISZERO PUSH2 0xAFE JUMPI RETURNDATASIZE PUSH1 0x0 DUP1 RETURNDATACOPY RETURNDATASIZE PUSH1 0x0 REVERT JUMPDEST POP POP POP POP PUSH1 0x40 MLOAD RETURNDATASIZE PUSH1 0x1F NOT PUSH1 0x1F DUP3 ADD AND DUP3 ADD DUP1 PUSH1 0x40 MSTORE POP DUP2 ADD SWAP1 PUSH2 0xB22 SWAP2 SWAP1 PUSH2 0x340C JUMP JUMPDEST SWAP1 POP PUSH2 0xB33 DUP5 DUP4 DUP6 PUSH1 0x1 ADD ADDRESS PUSH2 0x716 JUMP JUMPDEST POP PUSH1 0x40 MLOAD PUSH32 0x70A0823100000000000000000000000000000000000000000000000000000000 DUP2 MSTORE ADDRESS PUSH1 0x4 DUP3 ADD MSTORE PUSH1 0x0 SWAP1 DUP3 SWAP1 PUSH20 0x2791BCA1F2DE4661ED88A30C99A7A9449AA84174 SWAP1 PUSH4 0x70A08231 SWAP1 PUSH1 0x24 ADD PUSH1 0x20 PUSH1 0x40 MLOAD DUP1 DUP4 SUB DUP2 DUP7 DUP1 EXTCODESIZE ISZERO DUP1 ISZERO PUSH2 0xB9C JUMPI PUSH1 0x0 DUP1 REVERT JUMPDEST POP GAS STATICCALL ISZERO DUP1 ISZERO PUSH2 0xBB0 JUMPI RETURNDATASIZE PUSH1 0x0 DUP1 RETURNDATACOPY RETURNDATASIZE PUSH1 0x0 REVERT JUMPDEST POP POP POP POP PUSH1 0x40 MLOAD RETURNDATASIZE PUSH1 0x1F NOT PUSH1 0x1F DUP3 ADD AND DUP3 ADD DUP1 PUSH1 0x40 MSTORE POP DUP2 ADD SWAP1 PUSH2 0xBD4 SWAP2 SWAP1 PUSH2 0x340C JUMP JUMPDEST PUSH2 0xBDE SWAP2 SWAP1 PUSH2 0x36FE JUMP JUMPDEST PUSH1 0x40 MLOAD PUSH32 0x1E2720FF00000000000000000000000000000000000000000000000000000000 DUP2 MSTORE PUSH1 0x4 DUP2 ADD DUP3 SWAP1 MSTORE SWAP1 SWAP2 POP PUSH20 0x917FB15E8AAA12264DCBDC15AFEF7CD3CE76BA39 SWAP1 PUSH4 0x1E2720FF SWAP1 PUSH1 0x24 ADD PUSH1 0x20 PUSH1 0x40 MLOAD DUP1 DUP4 SUB DUP2 PUSH1 0x0 DUP8 DUP1 EXTCODESIZE ISZERO DUP1 ISZERO PUSH2 0xC47 JUMPI PUSH1 0x0 DUP1 REVERT JUMPDEST POP GAS CALL ISZERO DUP1 ISZERO PUSH2 0xC5B JUMPI RETURNDATASIZE PUSH1 0x0 DUP1 RETURNDATACOPY RETURNDATASIZE PUSH1 0x0 REVERT JUMPDEST POP POP POP POP PUSH1 0x40 MLOAD RETURNDATASIZE PUSH1 0x1F NOT PUSH1 0x1F DUP3 ADD AND DUP3 ADD DUP1 PUSH1 0x40 MSTORE POP DUP2 ADD SWAP1 PUSH2 0xC7F SWAP2 SWAP1 PUSH2 0x3230 JUMP JUMPDEST POP PUSH2 0xC8A DUP4 DUP8 PUSH2 0x36FE JUMP JUMPDEST SWAP6 POP POP POP POP JUMPDEST DUP2 SLOAD PUSH25 0x1000000000000000000000000000000000000000000000000 SWAP1 DIV PUSH2 0xFFFF AND ISZERO PUSH2 0xD16 JUMPI DUP2 SLOAD PUSH1 0x0 SWAP1 PUSH2 0x2710 SWAP1 PUSH2 0xCEA SWAP1 PUSH25 0x1000000000000000000000000000000000000000000000000 SWAP1 DIV PUSH2 0xFFFF AND DUP8 PUSH2 0x36C1 JUMP JUMPDEST PUSH2 0xCF4 SWAP2 SWAP1 PUSH2 0x36AD JUMP JUMPDEST SWAP1 POP PUSH2 0xD07 DUP4 DUP3 DUP5 PUSH1 0x2 ADD PUSH2 0xDEAD PUSH2 0x716 JUMP JUMPDEST POP PUSH2 0xD12 DUP2 DUP6 PUSH2 0x36FE JUMP JUMPDEST SWAP4 POP POP JUMPDEST POP POP SWAP3 SWAP2 POP POP JUMP JUMPDEST PUSH1 0x5 DUP2 ADD DUP2 PUSH1 0x7 DUP2 ADD PUSH1 0x1 PUSH1 0x11 DUP6 ADD SLOAD PUSH12 0x10000000000000000000000 SWAP1 DIV PUSH1 0xFF AND PUSH1 0x4 DUP2 GT ISZERO PUSH2 0xD51 JUMPI PUSH2 0xD51 PUSH2 0x37B3 JUMP JUMPDEST EQ ISZERO PUSH2 0xE4D JUMPI PUSH1 0x0 DUP2 PUSH1 0x5 ADD PUSH1 0x0 DUP2 SLOAD DUP2 LT PUSH2 0xD6F JUMPI PUSH2 0xD6F PUSH2 0x37E2 JUMP JUMPDEST PUSH1 0x0 SWAP2 DUP3 MSTORE PUSH1 0x20 DUP3 KECCAK256 ADD SLOAD PUSH1 0x6 DUP5 ADD DUP1 SLOAD PUSH20 0xFFFFFFFFFFFFFFFFFFFFFFFFFFFFFFFFFFFFFFFF SWAP1 SWAP3 AND SWAP4 POP SWAP1 DUP3 SWAP1 PUSH2 0xDA9 JUMPI PUSH2 0xDA9 PUSH2 0x37E2 JUMP JUMPDEST PUSH1 0x0 SWAP2 DUP3 MSTORE PUSH1 0x20 SWAP1 SWAP2 KECCAK256 ADD SLOAD DUP6 SLOAD PUSH20 0xFFFFFFFFFFFFFFFFFFFFFFFFFFFFFFFFFFFFFFFF SWAP2 DUP3 AND SWAP3 POP PUSH2 0xE00 SWAP2 DUP5 DUP2 AND SWAP2 AND PUSH32 0xFFFFFFFFFFFFFFFFFFFFFFFFFFFFFFFFFFFFFFFFFFFFFFFFFFFFFFFFFFFFFFFF PUSH2 0x27E0 JUMP JUMPDEST DUP5 SLOAD PUSH2 0xE46 SWAP1 PUSH20 0xFFFFFFFFFFFFFFFFFFFFFFFFFFFFFFFFFFFFFFFF DUP4 DUP2 AND SWAP2 AND PUSH32 0xFFFFFFFFFFFFFFFFFFFFFFFFFFFFFFFFFFFFFFFFFFFFFFFFFFFFFFFFFFFFFFFF PUSH2 0x27E0 JUMP JUMPDEST POP POP PUSH2 0xFAF JUMP JUMPDEST PUSH1 0x3 PUSH1 0x11 DUP6 ADD SLOAD PUSH12 0x10000000000000000000000 SWAP1 DIV PUSH1 0xFF AND PUSH1 0x4 DUP2 GT ISZERO PUSH2 0xE77 JUMPI PUSH2 0xE77 PUSH2 0x37B3 JUMP JUMPDEST EQ ISZERO PUSH2 0xECD JUMPI DUP3 SLOAD PUSH1 0x1 DUP4 ADD SLOAD PUSH2 0xEC8 SWAP2 PUSH20 0xFFFFFFFFFFFFFFFFFFFFFFFFFFFFFFFFFFFFFFFF SWAP2 DUP3 AND SWAP2 AND PUSH32 0xFFFFFFFFFFFFFFFFFFFFFFFFFFFFFFFFFFFFFFFFFFFFFFFFFFFFFFFFFFFFFFFF PUSH2 0x27E0 JUMP JUMPDEST PUSH2 0xFAF JUMP JUMPDEST PUSH1 0x2 PUSH1 0x11 DUP6 ADD SLOAD PUSH12 0x10000000000000000000000 SWAP1 DIV PUSH1 0xFF AND PUSH1 0x4 DUP2 GT ISZERO PUSH2 0xEF7 JUMPI PUSH2 0xEF7 PUSH2 0x37B3 JUMP JUMPDEST EQ ISZERO PUSH2 0xF48 JUMPI DUP2 SLOAD PUSH1 0x1 DUP4 ADD SLOAD PUSH2 0xEC8 SWAP2 PUSH20 0xFFFFFFFFFFFFFFFFFFFFFFFFFFFFFFFFFFFFFFFF SWAP2 DUP3 AND SWAP2 AND PUSH32 0xFFFFFFFFFFFFFFFFFFFFFFFFFFFFFFFFFFFFFFFFFFFFFFFFFFFFFFFFFFFFFFFF PUSH2 0x27E0 JUMP JUMPDEST PUSH1 0x40 MLOAD PUSH32 0x8C379A000000000000000000000000000000000000000000000000000000000 DUP2 MSTORE PUSH1 0x20 PUSH1 0x4 DUP3 ADD MSTORE PUSH1 0x1F PUSH1 0x24 DUP3 ADD MSTORE PUSH32 0x7265736574416C6C6F77616E6365732066756E6374696F6E2062726F6B656E00 PUSH1 0x44 DUP3 ADD MSTORE PUSH1 0x64 ADD JUMPDEST PUSH1 0x40 MLOAD DUP1 SWAP2 SUB SWAP1 REVERT JUMPDEST PUSH1 0x3 DUP3 ADD SLOAD PUSH1 0x1 DUP4 ADD SLOAD PUSH2 0xFFD SWAP2 PUSH20 0xFFFFFFFFFFFFFFFFFFFFFFFFFFFFFFFFFFFFFFFF SWAP2 DUP3 AND SWAP2 AND PUSH32 0xFFFFFFFFFFFFFFFFFFFFFFFFFFFFFFFFFFFFFFFFFFFFFFFFFFFFFFFFFFFFFFFF PUSH2 0x27E0 JUMP JUMPDEST DUP3 SLOAD PUSH1 0x2 DUP4 ADD SLOAD PUSH2 0x1048 SWAP2 PUSH20 0xFFFFFFFFFFFFFFFFFFFFFFFFFFFFFFFFFFFFFFFF SWAP2 DUP3 AND SWAP2 AND PUSH32 0xFFFFFFFFFFFFFFFFFFFFFFFFFFFFFFFFFFFFFFFFFFFFFFFFFFFFFFFFFFFFFFFF PUSH2 0x27E0 JUMP JUMPDEST PUSH2 0x109B PUSH20 0x2791BCA1F2DE4661ED88A30C99A7A9449AA84174 PUSH20 0x917FB15E8AAA12264DCBDC15AFEF7CD3CE76BA39 PUSH32 0xFFFFFFFFFFFFFFFFFFFFFFFFFFFFFFFFFFFFFFFFFFFFFFFFFFFFFFFFFFFFFFFF PUSH2 0x27E0 JUMP JUMPDEST POP POP POP POP JUMP JUMPDEST DUP1 SLOAD PUSH1 0x1 DUP3 ADD SLOAD PUSH1 0x2 DUP4 ADD SLOAD PUSH1 0x4 DUP5 ADD SLOAD PUSH1 0x3 DUP6 ADD SLOAD PUSH1 0x11 DUP7 ADD SLOAD PUSH1 0x0 SWAP6 PUSH2 0x1114 SWAP6 PUSH20 0xFFFFFFFFFFFFFFFFFFFFFFFFFFFFFFFFFFFFFFFF SWAP2 DUP3 AND SWAP6 SWAP1 DUP3 AND SWAP5 SWAP1 DUP3 AND SWAP4 SWAP1 DUP3 AND SWAP3 SWAP2 AND SWAP1 PUSH9 0x10000000000000000 DUP2 DIV PUSH3 0xFFFFFF AND SWAP1 PUSH12 0x10000000000000000000000 SWAP1 DIV PUSH1 0xFF AND PUSH2 0x1E99 JUMP JUMPDEST SWAP3 SWAP2 POP POP JUMP JUMPDEST PUSH1 0x0 PUSH2 0x112C DUP8 DUP4 DUP8 DUP8 DUP11 DUP9 PUSH1 0x4 PUSH2 0x1E99 JUMP JUMPDEST PUSH1 0x0 DUP2 DUP2 MSTORE PUSH1 0x20 DUP11 SWAP1 MSTORE PUSH1 0x40 SWAP1 KECCAK256 PUSH1 0x1 DUP2 ADD SLOAD SWAP2 SWAP3 POP SWAP1 PUSH20 0xFFFFFFFFFFFFFFFFFFFFFFFFFFFFFFFFFFFFFFFF AND ISZERO PUSH2 0x11C0 JUMPI PUSH1 0x40 MLOAD PUSH32 0x8C379A000000000000000000000000000000000000000000000000000000000 DUP2 MSTORE PUSH1 0x20 PUSH1 0x4 DUP3 ADD MSTORE PUSH1 0x14 PUSH1 0x24 DUP3 ADD MSTORE PUSH32 0x7661756C7420616C726561647920657869737473000000000000000000000000 PUSH1 0x44 DUP3 ADD MSTORE PUSH1 0x64 ADD PUSH2 0xFA6 JUMP JUMPDEST DUP1 SLOAD PUSH32 0xFFFFFFFFFFFFFFFFFFFFFFFF0000000000000000000000000000000000000000 SWAP1 DUP2 AND PUSH20 0xFFFFFFFFFFFFFFFFFFFFFFFFFFFFFFFFFFFFFFFF DUP11 DUP2 AND SWAP2 SWAP1 SWAP2 OR DUP4 SSTORE PUSH1 0x1 DUP4 ADD DUP1 SLOAD DUP4 AND DUP7 DUP4 AND OR SWAP1 SSTORE PUSH1 0x2 DUP4 ADD DUP1 SLOAD DUP4 AND DUP10 DUP4 AND OR SWAP1 SSTORE PUSH1 0x3 DUP4 ADD DUP1 SLOAD DUP4 AND DUP11 DUP4 AND OR SWAP1 SSTORE PUSH1 0x4 DUP4 ADD DUP1 SLOAD SWAP1 SWAP3 AND SWAP1 DUP8 AND OR SWAP1 SSTORE PUSH1 0x11 DUP2 ADD DUP1 SLOAD PUSH32 0xFFFFFFFFFFFFFFFFFFFFFFFFFFFFFFFFFFFFFFFFFF000000FFFFFFFFFFFFFFFF AND PUSH9 0x10000000000000000 PUSH3 0xFFFFFF DUP8 AND MUL OR SWAP1 SSTORE DUP1 PUSH1 0x5 DUP3 ADD DUP1 SLOAD PUSH32 0xFFFFFFFF00000000FFFF0000FFFFFFFFFFFFFFFFFFFFFFFFFFFFFFFFFFFFFFFF AND PUSH28 0x270601C2000000320000000000000000000000000000000000000000 OR SWAP1 SSTORE PUSH1 0x6 DUP3 ADD DUP1 SLOAD PUSH32 0xFFFFFFFFFFFFFFFF00000000FFFFFFFFFFFFFFFFFFFFFFFFFFFFFFFFFFFFFFFF AND PUSH24 0x271000000000000000000000000000000000000000000000 OR SWAP1 SSTORE POP PUSH1 0x11 ADD DUP1 SLOAD PUSH32 0xFFFFFFFFFFFFFFFFFFFFFFFFFFFFFFFFFFFFFFFFFFFFFFFF0000000000000000 AND NUMBER PUSH8 0xFFFFFFFFFFFFFFFF AND OR SWAP1 SSTORE SWAP8 SWAP7 POP POP POP POP POP POP POP JUMP JUMPDEST PUSH2 0x3E8 DUP5 PUSH2 0x1355 DUP8 DUP10 PUSH2 0x366F JUMP JUMPDEST PUSH2 0x135F SWAP2 SWAP1 PUSH2 0x366F JUMP JUMPDEST PUSH2 0xFFFF AND GT ISZERO PUSH2 0x13CB JUMPI PUSH1 0x40 MLOAD PUSH32 0x8C379A000000000000000000000000000000000000000000000000000000000 DUP2 MSTORE PUSH1 0x20 PUSH1 0x4 DUP3 ADD MSTORE PUSH1 0xE PUSH1 0x24 DUP3 ADD MSTORE PUSH32 0x4D617820666565206F6620313025000000000000000000000000000000000000 PUSH1 0x44 DUP3 ADD MSTORE PUSH1 0x64 ADD PUSH2 0xFA6 JUMP JUMPDEST PUSH2 0x26AC DUP4 PUSH2 0xFFFF AND LT ISZERO PUSH2 0x143B JUMPI PUSH1 0x40 MLOAD PUSH32 0x8C379A000000000000000000000000000000000000000000000000000000000 DUP2 MSTORE PUSH1 0x20 PUSH1 0x4 DUP3 ADD MSTORE PUSH1 0x1A PUSH1 0x24 DUP3 ADD MSTORE PUSH32 0x5F7769746864726177466565466163746F7220746F6F206C6F77000000000000 PUSH1 0x44 DUP3 ADD MSTORE PUSH1 0x64 ADD PUSH2 0xFA6 JUMP JUMPDEST PUSH2 0x2710 DUP4 PUSH2 0xFFFF AND GT ISZERO PUSH2 0x14AB JUMPI PUSH1 0x40 MLOAD PUSH32 0x8C379A000000000000000000000000000000000000000000000000000000000 DUP2 MSTORE PUSH1 0x20 PUSH1 0x4 DUP3 ADD MSTORE PUSH1 0x1B PUSH1 0x24 DUP3 ADD MSTORE PUSH32 0x5F7769746864726177466565466163746F7220746F6F20686967680000000000 PUSH1 0x44 DUP3 ADD MSTORE PUSH1 0x64 ADD PUSH2 0xFA6 JUMP JUMPDEST PUSH1 0x0 DUP8 PUSH1 0x5 ADD SWAP1 POP DUP7 DUP2 PUSH1 0x0 ADD PUSH1 0x14 PUSH2 0x100 EXP DUP2 SLOAD DUP2 PUSH2 0xFFFF MUL NOT AND SWAP1 DUP4 PUSH2 0xFFFF AND MUL OR SWAP1 SSTORE POP DUP6 DUP2 PUSH1 0x0 ADD PUSH1 0x16 PUSH2 0x100 EXP DUP2 SLOAD DUP2 PUSH2 0xFFFF MUL NOT AND SWAP1 DUP4 PUSH2 0xFFFF AND MUL OR SWAP1 SSTORE POP DUP5 DUP2 PUSH1 0x0 ADD PUSH1 0x18 PUSH2 0x100 EXP DUP2 SLOAD DUP2 PUSH2 0xFFFF MUL NOT AND SWAP1 DUP4 PUSH2 0xFFFF AND MUL OR SWAP1 SSTORE POP DUP4 DUP2 PUSH1 0x0 ADD PUSH1 0x1A PUSH2 0x100 EXP DUP2 SLOAD DUP2 PUSH2 0xFFFF MUL NOT AND SWAP1 DUP4 PUSH2 0xFFFF AND MUL OR SWAP1 SSTORE POP DUP3 DUP2 PUSH1 0x0 ADD PUSH1 0x1C PUSH2 0x100 EXP DUP2 SLOAD DUP2 PUSH2 0xFFFF MUL NOT AND SWAP1 DUP4 PUSH2 0xFFFF AND MUL OR SWAP1 SSTORE POP DUP2 DUP2 PUSH1 0x0 ADD PUSH1 0x0 PUSH2 0x100 EXP DUP2 SLOAD DUP2 PUSH20 0xFFFFFFFFFFFFFFFFFFFFFFFFFFFFFFFFFFFFFFFF MUL NOT AND SWAP1 DUP4 PUSH20 0xFFFFFFFFFFFFFFFFFFFFFFFFFFFFFFFFFFFFFFFF AND MUL OR SWAP1 SSTORE POP PUSH32 0x7A7D844BFB1D318BD3E5AE1415B68ABF83071EDF39724448CF5399D43CFDA930 DUP3 DUP9 DUP9 DUP9 DUP9 DUP9 PUSH1 0x40 MLOAD PUSH2 0x160E SWAP7 SWAP6 SWAP5 SWAP4 SWAP3 SWAP2 SWAP1 PUSH20 0xFFFFFFFFFFFFFFFFFFFFFFFFFFFFFFFFFFFFFFFF SWAP7 SWAP1 SWAP7 AND DUP7 MSTORE PUSH2 0xFFFF SWAP5 DUP6 AND PUSH1 0x20 DUP8 ADD MSTORE SWAP3 DUP5 AND PUSH1 0x40 DUP7 ADD MSTORE SWAP1 DUP4 AND PUSH1 0x60 DUP6 ADD MSTORE DUP3 AND PUSH1 0x80 DUP5 ADD MSTORE AND PUSH1 0xA0 DUP3 ADD MSTORE PUSH1 0xC0 ADD SWAP1 JUMP JUMPDEST PUSH1 0x40 MLOAD DUP1 SWAP2 SUB SWAP1 LOG1 POP POP POP POP POP POP POP POP JUMP JUMPDEST PUSH1 0x0 DUP1 DUP3 GT PUSH2 0x168B JUMPI PUSH1 0x40 MLOAD PUSH32 0x8C379A000000000000000000000000000000000000000000000000000000000 DUP2 MSTORE PUSH1 0x20 PUSH1 0x4 DUP3 ADD MSTORE PUSH1 0xD PUSH1 0x24 DUP3 ADD MSTORE PUSH32 0x5F77616E74416D74206973203000000000000000000000000000000000000000 PUSH1 0x44 DUP3 ADD MSTORE PUSH1 0x64 ADD PUSH2 0xFA6 JUMP JUMPDEST PUSH1 0x1 DUP4 ADD SLOAD PUSH1 0x40 MLOAD PUSH32 0x70A0823100000000000000000000000000000000000000000000000000000000 DUP2 MSTORE ADDRESS PUSH1 0x4 DUP3 ADD MSTORE DUP5 SWAP2 PUSH1 0x5 DUP4 ADD SWAP2 PUSH1 0x0 SWAP2 PUSH20 0xFFFFFFFFFFFFFFFFFFFFFFFFFFFFFFFFFFFFFFFF AND SWAP1 PUSH4 0x70A08231 SWAP1 PUSH1 0x24 ADD PUSH1 0x20 PUSH1 0x40 MLOAD DUP1 DUP4 SUB DUP2 DUP7 DUP1 EXTCODESIZE ISZERO DUP1 ISZERO PUSH2 0x16FE JUMPI PUSH1 0x0 DUP1 REVERT JUMPDEST POP GAS STATICCALL ISZERO DUP1 ISZERO PUSH2 0x1712 JUMPI RETURNDATASIZE PUSH1 0x0 DUP1 RETURNDATACOPY RETURNDATASIZE PUSH1 0x0 REVERT JUMPDEST POP POP POP POP PUSH1 0x40 MLOAD RETURNDATASIZE PUSH1 0x1F NOT PUSH1 0x1F DUP3 ADD AND DUP3 ADD DUP1 PUSH1 0x40 MSTORE POP DUP2 ADD SWAP1 PUSH2 0x1736 SWAP2 SWAP1 PUSH2 0x340C JUMP JUMPDEST SWAP1 POP DUP1 DUP6 GT ISZERO PUSH2 0x17F9 JUMPI PUSH2 0x1753 DUP7 PUSH2 0x174E DUP4 DUP9 PUSH2 0x36FE JUMP JUMPDEST PUSH2 0x29F4 JUMP JUMPDEST PUSH1 0x1 DUP4 ADD SLOAD PUSH1 0x40 MLOAD PUSH32 0x70A0823100000000000000000000000000000000000000000000000000000000 DUP2 MSTORE ADDRESS PUSH1 0x4 DUP3 ADD MSTORE PUSH20 0xFFFFFFFFFFFFFFFFFFFFFFFFFFFFFFFFFFFFFFFF SWAP1 SWAP2 AND SWAP1 PUSH4 0x70A08231 SWAP1 PUSH1 0x24 ADD PUSH1 0x20 PUSH1 0x40 MLOAD DUP1 DUP4 SUB DUP2 DUP7 DUP1 EXTCODESIZE ISZERO DUP1 ISZERO PUSH2 0x17BE JUMPI PUSH1 0x0 DUP1 REVERT JUMPDEST POP GAS STATICCALL ISZERO DUP1 ISZERO PUSH2 0x17D2 JUMPI RETURNDATASIZE PUSH1 0x0 DUP1 RETURNDATACOPY RETURNDATASIZE PUSH1 0x0 REVERT JUMPDEST POP POP POP POP PUSH1 0x40 MLOAD RETURNDATASIZE PUSH1 0x1F NOT PUSH1 0x1F DUP3 ADD AND DUP3 ADD DUP1 PUSH1 0x40 MSTORE POP DUP2 ADD SWAP1 PUSH2 0x17F6 SWAP2 SWAP1 PUSH2 0x340C JUMP JUMPDEST SWAP1 POP JUMPDEST DUP1 DUP6 GT ISZERO PUSH2 0x1805 JUMPI DUP1 SWAP5 POP JUMPDEST PUSH1 0x0 PUSH2 0x1810 DUP8 PUSH2 0x2690 JUMP JUMPDEST SWAP1 POP DUP1 DUP7 GT ISZERO PUSH2 0x181E JUMPI DUP1 SWAP6 POP JUMPDEST PUSH1 0x0 PUSH2 0x183A DUP3 DUP10 PUSH1 0xF ADD SLOAD DUP10 PUSH2 0x1834 SWAP2 SWAP1 PUSH2 0x36C1 JUMP JUMPDEST SWAP1 PUSH2 0x2A93 JUMP JUMPDEST SWAP1 POP DUP8 PUSH1 0xF ADD SLOAD DUP2 GT ISZERO PUSH2 0x184F JUMPI POP PUSH1 0xF DUP8 ADD SLOAD JUMPDEST DUP1 DUP9 PUSH1 0xF ADD PUSH1 0x0 DUP3 DUP3 SLOAD PUSH2 0x1863 SWAP2 SWAP1 PUSH2 0x36FE JUMP JUMPDEST SWAP1 SWAP2 SSTORE POP POP DUP4 SLOAD PUSH1 0x0 SWAP1 PUSH2 0x2710 SWAP1 PUSH2 0x189D SWAP1 PUSH27 0x10000000000000000000000000000000000000000000000000000 SWAP1 DIV PUSH2 0xFFFF AND DUP3 PUSH2 0x36FE JUMP JUMPDEST PUSH2 0x18A7 SWAP1 DUP11 PUSH2 0x36C1 JUMP JUMPDEST PUSH2 0x18B1 SWAP2 SWAP1 PUSH2 0x36AD JUMP JUMPDEST SWAP1 POP DUP1 ISZERO PUSH2 0x18F3 JUMPI PUSH1 0x1 DUP7 ADD SLOAD PUSH2 0x18F3 SWAP1 PUSH20 0xFFFFFFFFFFFFFFFFFFFFFFFFFFFFFFFFFFFFFFFF AND PUSH20 0x5386881B46C37CDD30A748F7771CF95D7B213637 DUP4 PUSH2 0x2ABB JUMP JUMPDEST PUSH2 0x18FD DUP2 DUP10 PUSH2 0x36FE JUMP JUMPDEST DUP7 SLOAD PUSH1 0x1 DUP9 ADD SLOAD SWAP2 SWAP10 POP PUSH2 0x192B SWAP2 PUSH20 0xFFFFFFFFFFFFFFFFFFFFFFFFFFFFFFFFFFFFFFFF SWAP1 DUP2 AND SWAP2 AND DUP11 PUSH2 0x2ABB JUMP JUMPDEST POP SWAP8 SWAP7 POP POP POP POP POP POP POP JUMP JUMPDEST PUSH1 0x1 PUSH1 0x11 DUP3 ADD SLOAD PUSH12 0x10000000000000000000000 SWAP1 DIV PUSH1 0xFF AND PUSH1 0x4 DUP2 GT ISZERO PUSH2 0x1961 JUMPI PUSH2 0x1961 PUSH2 0x37B3 JUMP JUMPDEST EQ PUSH2 0x19C8 JUMPI PUSH1 0x40 MLOAD PUSH32 0x8C379A000000000000000000000000000000000000000000000000000000000 DUP2 MSTORE PUSH1 0x20 PUSH1 0x4 DUP3 ADD MSTORE PUSH1 0x13 PUSH1 0x24 DUP3 ADD MSTORE PUSH32 0x6D757374206265204C5020737472617465677900000000000000000000000000 PUSH1 0x44 DUP3 ADD MSTORE PUSH1 0x64 ADD PUSH2 0xFA6 JUMP JUMPDEST PUSH1 0xC DUP2 ADD DUP1 SLOAD PUSH1 0x7 DUP4 ADD SWAP2 PUSH1 0x5 DUP5 ADD SWAP2 PUSH1 0x0 SWAP2 SWAP1 DUP3 SWAP1 PUSH2 0x19EA JUMPI PUSH2 0x19EA PUSH2 0x37E2 JUMP JUMPDEST PUSH1 0x0 SWAP2 DUP3 MSTORE PUSH1 0x20 DUP3 KECCAK256 ADD SLOAD PUSH1 0x6 DUP6 ADD DUP1 SLOAD PUSH20 0xFFFFFFFFFFFFFFFFFFFFFFFFFFFFFFFFFFFFFFFF SWAP1 SWAP3 AND SWAP4 POP SWAP1 DUP3 SWAP1 PUSH2 0x1A24 JUMPI PUSH2 0x1A24 PUSH2 0x37E2 JUMP JUMPDEST PUSH1 0x0 SWAP2 DUP3 MSTORE PUSH1 0x20 DUP3 KECCAK256 ADD SLOAD PUSH1 0x5 DUP7 ADD DUP1 SLOAD PUSH20 0xFFFFFFFFFFFFFFFFFFFFFFFFFFFFFFFFFFFFFFFF SWAP1 SWAP3 AND SWAP4 POP SWAP1 PUSH2 0x1A5C SWAP1 PUSH1 0x1 SWAP1 PUSH2 0x36FE JUMP JUMPDEST DUP2 SLOAD DUP2 LT PUSH2 0x1A6C JUMPI PUSH2 0x1A6C PUSH2 0x37E2 JUMP JUMPDEST PUSH1 0x0 SWAP2 DUP3 MSTORE PUSH1 0x20 DUP3 KECCAK256 ADD SLOAD PUSH1 0x40 MLOAD PUSH32 0x70A0823100000000000000000000000000000000000000000000000000000000 DUP2 MSTORE ADDRESS PUSH1 0x4 DUP3 ADD MSTORE PUSH20 0xFFFFFFFFFFFFFFFFFFFFFFFFFFFFFFFFFFFFFFFF SWAP2 DUP3 AND SWAP4 POP SWAP1 DUP6 AND SWAP1 PUSH4 0x70A08231 SWAP1 PUSH1 0x24 ADD PUSH1 0x20 PUSH1 0x40 MLOAD DUP1 DUP4 SUB DUP2 DUP7 DUP1 EXTCODESIZE ISZERO DUP1 ISZERO PUSH2 0x1AE2 JUMPI PUSH1 0x0 DUP1 REVERT JUMPDEST POP GAS STATICCALL ISZERO DUP1 ISZERO PUSH2 0x1AF6 JUMPI RETURNDATASIZE PUSH1 0x0 DUP1 RETURNDATACOPY RETURNDATASIZE PUSH1 0x0 REVERT JUMPDEST POP POP POP POP PUSH1 0x40 MLOAD RETURNDATASIZE PUSH1 0x1F NOT PUSH1 0x1F DUP3 ADD AND DUP3 ADD DUP1 PUSH1 0x40 MSTORE POP DUP2 ADD SWAP1 PUSH2 0x1B1A SWAP2 SWAP1 PUSH2 0x340C JUMP JUMPDEST SWAP1 POP PUSH1 0x0 DUP2 GT DUP1 ISZERO PUSH2 0x1B58 JUMPI POP DUP2 PUSH20 0xFFFFFFFFFFFFFFFFFFFFFFFFFFFFFFFFFFFFFFFF AND DUP5 PUSH20 0xFFFFFFFFFFFFFFFFFFFFFFFFFFFFFFFFFFFFFFFF AND EQ ISZERO JUMPDEST ISZERO PUSH2 0x1B6E JUMPI PUSH2 0x1B6C DUP6 DUP3 DUP9 PUSH1 0x5 ADD ADDRESS PUSH2 0x716 JUMP JUMPDEST POP JUMPDEST PUSH1 0x40 MLOAD PUSH32 0x70A0823100000000000000000000000000000000000000000000000000000000 DUP2 MSTORE ADDRESS PUSH1 0x4 DUP3 ADD MSTORE PUSH1 0x0 SWAP1 PUSH20 0xFFFFFFFFFFFFFFFFFFFFFFFFFFFFFFFFFFFFFFFF DUP6 AND SWAP1 PUSH4 0x70A08231 SWAP1 PUSH1 0x24 ADD PUSH1 0x20 PUSH1 0x40 MLOAD DUP1 DUP4 SUB DUP2 DUP7 DUP1 EXTCODESIZE ISZERO DUP1 ISZERO PUSH2 0x1BD6 JUMPI PUSH1 0x0 DUP1 REVERT JUMPDEST POP GAS STATICCALL ISZERO DUP1 ISZERO PUSH2 0x1BEA JUMPI RETURNDATASIZE PUSH1 0x0 DUP1 RETURNDATACOPY RETURNDATASIZE PUSH1 0x0 REVERT JUMPDEST POP POP POP POP PUSH1 0x40 MLOAD RETURNDATASIZE PUSH1 0x1F NOT PUSH1 0x1F DUP3 ADD AND DUP3 ADD DUP1 PUSH1 0x40 MSTORE POP DUP2 ADD SWAP1 PUSH2 0x1C0E SWAP2 SWAP1 PUSH2 0x340C JUMP JUMPDEST SWAP1 POP PUSH1 0x0 DUP2 GT DUP1 ISZERO PUSH2 0x1C4C JUMPI POP DUP3 PUSH20 0xFFFFFFFFFFFFFFFFFFFFFFFFFFFFFFFFFFFFFFFF AND DUP5 PUSH20 0xFFFFFFFFFFFFFFFFFFFFFFFFFFFFFFFFFFFFFFFF AND EQ ISZERO JUMPDEST ISZERO PUSH2 0x1C62 JUMPI PUSH2 0x1C60 DUP7 DUP3 DUP10 PUSH1 0x6 ADD ADDRESS PUSH2 0x716 JUMP JUMPDEST POP JUMPDEST POP POP POP POP POP POP POP POP JUMP JUMPDEST PUSH1 0x0 PUSH2 0x1C7E DUP6 DUP4 DUP5 DUP6 DUP9 DUP9 PUSH1 0x3 PUSH2 0x1E99 JUMP JUMPDEST PUSH1 0x0 DUP2 DUP2 MSTORE PUSH1 0x20 DUP9 SWAP1 MSTORE PUSH1 0x40 SWAP1 KECCAK256 PUSH1 0x1 DUP2 ADD SLOAD SWAP2 SWAP3 POP SWAP1 PUSH20 0xFFFFFFFFFFFFFFFFFFFFFFFFFFFFFFFFFFFFFFFF AND ISZERO PUSH2 0x1D12 JUMPI PUSH1 0x40 MLOAD PUSH32 0x8C379A000000000000000000000000000000000000000000000000000000000 DUP2 MSTORE PUSH1 0x20 PUSH1 0x4 DUP3 ADD MSTORE PUSH1 0x14 PUSH1 0x24 DUP3 ADD MSTORE PUSH32 0x7661756C7420616C726561647920657869737473000000000000000000000000 PUSH1 0x44 DUP3 ADD MSTORE PUSH1 0x64 ADD PUSH2 0xFA6 JUMP JUMPDEST DUP1 SLOAD PUSH20 0xFFFFFFFFFFFFFFFFFFFFFFFFFFFFFFFFFFFFFFFF DUP1 DUP9 AND PUSH32 0xFFFFFFFFFFFFFFFFFFFFFFFF0000000000000000000000000000000000000000 SWAP3 DUP4 AND OR DUP4 SSTORE PUSH1 0x1 DUP4 ADD DUP1 SLOAD DUP7 DUP4 AND SWAP1 DUP5 AND DUP2 OR SWAP1 SWAP2 SSTORE PUSH1 0x2 DUP5 ADD DUP1 SLOAD DUP5 AND DUP3 OR SWAP1 SSTORE PUSH1 0x3 DUP5 ADD DUP1 SLOAD SWAP3 DUP10 AND SWAP3 DUP5 AND SWAP3 SWAP1 SWAP3 OR SWAP1 SWAP2 SSTORE PUSH1 0x4 DUP4 ADD DUP1 SLOAD SWAP1 SWAP3 AND OR SWAP1 SSTORE PUSH1 0x11 DUP2 ADD DUP1 SLOAD PUSH3 0xFFFFFF DUP7 AND PUSH9 0x10000000000000000 MUL PUSH32 0xFFFFFFFFFFFFFFFFFFFFFFFFFFFFFFFFFFFFFFFFFF000000FFFFFFFFFFFFFFFF SWAP1 SWAP2 AND OR SWAP1 SSTORE DUP1 PUSH1 0x5 DUP3 ADD DUP1 SLOAD PUSH32 0xFFFFFFFF00000000FFFF0000FFFFFFFFFFFFFFFFFFFFFFFFFFFFFFFFFFFFFFFF AND PUSH28 0x270601C2000000320000000000000000000000000000000000000000 OR SWAP1 SSTORE PUSH1 0x6 DUP3 ADD DUP1 SLOAD PUSH32 0xFFFFFFFFFFFFFFFF00000000FFFFFFFFFFFFFFFFFFFFFFFFFFFFFFFFFFFFFFFF AND PUSH24 0x271000000000000000000000000000000000000000000000 OR SWAP1 SSTORE POP PUSH1 0x11 ADD DUP1 SLOAD PUSH32 0xFFFFFFFFFFFFFFFFFFFFFFFFFFFFFFFFFFFFFFFFFFFFFFFF0000000000000000 AND NUMBER PUSH8 0xFFFFFFFFFFFFFFFF AND OR SWAP1 SSTORE SWAP6 SWAP5 POP POP POP POP POP JUMP JUMPDEST PUSH1 0x0 DUP8 DUP8 DUP8 DUP8 DUP8 DUP8 DUP8 PUSH1 0x40 MLOAD PUSH1 0x20 ADD PUSH2 0x1EB8 SWAP8 SWAP7 SWAP6 SWAP5 SWAP4 SWAP3 SWAP2 SWAP1 PUSH2 0x34CD JUMP JUMPDEST PUSH1 0x40 MLOAD PUSH1 0x20 DUP2 DUP4 SUB SUB DUP2 MSTORE SWAP1 PUSH1 0x40 MSTORE DUP1 MLOAD SWAP1 PUSH1 0x20 ADD KECCAK256 SWAP1 POP SWAP8 SWAP7 POP POP POP POP POP POP POP JUMP JUMPDEST PUSH1 0x2 DUP2 ADD SLOAD PUSH1 0x40 MLOAD PUSH32 0x70A0823100000000000000000000000000000000000000000000000000000000 DUP2 MSTORE ADDRESS PUSH1 0x4 DUP3 ADD MSTORE DUP3 SWAP2 PUSH1 0x7 DUP4 ADD SWAP2 PUSH1 0x5 DUP5 ADD SWAP2 PUSH1 0x0 SWAP2 PUSH20 0xFFFFFFFFFFFFFFFFFFFFFFFFFFFFFFFFFFFFFFFF SWAP1 SWAP2 AND SWAP1 PUSH4 0x70A08231 SWAP1 PUSH1 0x24 ADD PUSH1 0x20 PUSH1 0x40 MLOAD DUP1 DUP4 SUB DUP2 DUP7 DUP1 EXTCODESIZE ISZERO DUP1 ISZERO PUSH2 0x1F55 JUMPI PUSH1 0x0 DUP1 REVERT JUMPDEST POP GAS STATICCALL ISZERO DUP1 ISZERO PUSH2 0x1F69 JUMPI RETURNDATASIZE PUSH1 0x0 DUP1 RETURNDATACOPY RETURNDATASIZE PUSH1 0x0 REVERT JUMPDEST POP POP POP POP PUSH1 0x40 MLOAD RETURNDATASIZE PUSH1 0x1F NOT PUSH1 0x1F DUP3 ADD AND DUP3 ADD DUP1 PUSH1 0x40 MSTORE POP DUP2 ADD SWAP1 PUSH2 0x1F8D SWAP2 SWAP1 PUSH2 0x340C JUMP JUMPDEST SWAP1 POP PUSH2 0x1F98 DUP6 PUSH2 0x2B11 JUMP JUMPDEST PUSH1 0x2 DUP5 ADD SLOAD PUSH1 0x40 MLOAD PUSH32 0x70A0823100000000000000000000000000000000000000000000000000000000 DUP2 MSTORE ADDRESS PUSH1 0x4 DUP3 ADD MSTORE PUSH1 0x0 SWAP2 DUP4 SWAP2 PUSH20 0xFFFFFFFFFFFFFFFFFFFFFFFFFFFFFFFFFFFFFFFF SWAP1 SWAP2 AND SWAP1 PUSH4 0x70A08231 SWAP1 PUSH1 0x24 ADD PUSH1 0x20 PUSH1 0x40 MLOAD DUP1 DUP4 SUB DUP2 DUP7 DUP1 EXTCODESIZE ISZERO DUP1 ISZERO PUSH2 0x2008 JUMPI PUSH1 0x0 DUP1 REVERT JUMPDEST POP GAS STATICCALL ISZERO DUP1 ISZERO PUSH2 0x201C JUMPI RETURNDATASIZE PUSH1 0x0 DUP1 RETURNDATACOPY RETURNDATASIZE PUSH1 0x0 REVERT JUMPDEST POP POP POP POP PUSH1 0x40 MLOAD RETURNDATASIZE PUSH1 0x1F NOT PUSH1 0x1F DUP3 ADD AND DUP3 ADD DUP1 PUSH1 0x40 MSTORE POP DUP2 ADD SWAP1 PUSH2 0x2040 SWAP2 SWAP1 PUSH2 0x340C JUMP JUMPDEST PUSH2 0x204A SWAP2 SWAP1 PUSH2 0x36FE JUMP JUMPDEST SWAP1 POP DUP1 ISZERO PUSH2 0x205E JUMPI PUSH2 0x205C DUP7 DUP3 PUSH2 0x989 JUMP JUMPDEST POP JUMPDEST PUSH1 0x2 DUP6 ADD SLOAD PUSH1 0x40 MLOAD PUSH32 0x70A0823100000000000000000000000000000000000000000000000000000000 DUP2 MSTORE ADDRESS PUSH1 0x4 DUP3 ADD MSTORE PUSH20 0xFFFFFFFFFFFFFFFFFFFFFFFFFFFFFFFFFFFFFFFF SWAP1 SWAP2 AND SWAP1 PUSH4 0x70A08231 SWAP1 PUSH1 0x24 ADD PUSH1 0x20 PUSH1 0x40 MLOAD DUP1 DUP4 SUB DUP2 DUP7 DUP1 EXTCODESIZE ISZERO DUP1 ISZERO PUSH2 0x20C9 JUMPI PUSH1 0x0 DUP1 REVERT JUMPDEST POP GAS STATICCALL ISZERO DUP1 ISZERO PUSH2 0x20DD JUMPI RETURNDATASIZE PUSH1 0x0 DUP1 RETURNDATACOPY RETURNDATASIZE PUSH1 0x0 REVERT JUMPDEST POP POP POP POP PUSH1 0x40 MLOAD RETURNDATASIZE PUSH1 0x1F NOT PUSH1 0x1F DUP3 ADD AND DUP3 ADD DUP1 PUSH1 0x40 MSTORE POP DUP2 ADD SWAP1 PUSH2 0x2101 SWAP2 SWAP1 PUSH2 0x340C JUMP JUMPDEST SWAP1 POP PUSH1 0x1 PUSH1 0x11 DUP8 ADD SLOAD PUSH12 0x10000000000000000000000 SWAP1 DIV PUSH1 0xFF AND PUSH1 0x4 DUP2 GT ISZERO PUSH2 0x212D JUMPI PUSH2 0x212D PUSH2 0x37B3 JUMP JUMPDEST EQ ISZERO PUSH2 0x2453 JUMPI PUSH1 0x0 DUP5 PUSH1 0x5 ADD PUSH1 0x0 DUP2 SLOAD DUP2 LT PUSH2 0x214B JUMPI PUSH2 0x214B PUSH2 0x37E2 JUMP JUMPDEST PUSH1 0x0 SWAP2 DUP3 MSTORE PUSH1 0x20 DUP3 KECCAK256 ADD SLOAD PUSH1 0x6 DUP8 ADD DUP1 SLOAD PUSH20 0xFFFFFFFFFFFFFFFFFFFFFFFFFFFFFFFFFFFFFFFF SWAP1 SWAP3 AND SWAP4 POP SWAP1 DUP3 SWAP1 PUSH2 0x2185 JUMPI PUSH2 0x2185 PUSH2 0x37E2 JUMP JUMPDEST PUSH1 0x0 SWAP2 DUP3 MSTORE PUSH1 0x20 SWAP1 SWAP2 KECCAK256 ADD SLOAD PUSH1 0x2 DUP9 ADD SLOAD PUSH20 0xFFFFFFFFFFFFFFFFFFFFFFFFFFFFFFFFFFFFFFFF SWAP2 DUP3 AND SWAP3 POP DUP2 AND SWAP1 DUP4 AND EQ PUSH2 0x21D8 JUMPI PUSH2 0x21D6 PUSH1 0x5 DUP10 ADD PUSH2 0x21CC PUSH1 0x2 DUP7 PUSH2 0x36AD JUMP JUMPDEST DUP9 PUSH1 0x3 ADD ADDRESS PUSH2 0x716 JUMP JUMPDEST POP JUMPDEST PUSH1 0x2 DUP8 ADD SLOAD PUSH20 0xFFFFFFFFFFFFFFFFFFFFFFFFFFFFFFFFFFFFFFFF DUP3 DUP2 AND SWAP2 AND EQ PUSH2 0x2217 JUMPI PUSH2 0x2215 DUP6 PUSH2 0x220B PUSH1 0x2 DUP7 PUSH2 0x36AD JUMP JUMPDEST DUP9 PUSH1 0x4 ADD ADDRESS PUSH2 0x716 JUMP JUMPDEST POP JUMPDEST PUSH1 0x40 MLOAD PUSH32 0x70A0823100000000000000000000000000000000000000000000000000000000 DUP2 MSTORE ADDRESS PUSH1 0x4 DUP3 ADD MSTORE PUSH1 0x0 SWAP1 PUSH20 0xFFFFFFFFFFFFFFFFFFFFFFFFFFFFFFFFFFFFFFFF DUP5 AND SWAP1 PUSH4 0x70A08231 SWAP1 PUSH1 0x24 ADD PUSH1 0x20 PUSH1 0x40 MLOAD DUP1 DUP4 SUB DUP2 DUP7 DUP1 EXTCODESIZE ISZERO DUP1 ISZERO PUSH2 0x227F JUMPI PUSH1 0x0 DUP1 REVERT JUMPDEST POP GAS STATICCALL ISZERO DUP1 ISZERO PUSH2 0x2293 JUMPI RETURNDATASIZE PUSH1 0x0 DUP1 RETURNDATACOPY RETURNDATASIZE PUSH1 0x0 REVERT JUMPDEST POP POP POP POP PUSH1 0x40 MLOAD RETURNDATASIZE PUSH1 0x1F NOT PUSH1 0x1F DUP3 ADD AND DUP3 ADD DUP1 PUSH1 0x40 MSTORE POP DUP2 ADD SWAP1 PUSH2 0x22B7 SWAP2 SWAP1 PUSH2 0x340C JUMP JUMPDEST PUSH1 0x40 MLOAD PUSH32 0x70A0823100000000000000000000000000000000000000000000000000000000 DUP2 MSTORE ADDRESS PUSH1 0x4 DUP3 ADD MSTORE SWAP1 SWAP2 POP PUSH1 0x0 SWAP1 PUSH20 0xFFFFFFFFFFFFFFFFFFFFFFFFFFFFFFFFFFFFFFFF DUP5 AND SWAP1 PUSH4 0x70A08231 SWAP1 PUSH1 0x24 ADD PUSH1 0x20 PUSH1 0x40 MLOAD DUP1 DUP4 SUB DUP2 DUP7 DUP1 EXTCODESIZE ISZERO DUP1 ISZERO PUSH2 0x2322 JUMPI PUSH1 0x0 DUP1 REVERT JUMPDEST POP GAS STATICCALL ISZERO DUP1 ISZERO PUSH2 0x2336 JUMPI RETURNDATASIZE PUSH1 0x0 DUP1 RETURNDATACOPY RETURNDATASIZE PUSH1 0x0 REVERT JUMPDEST POP POP POP POP PUSH1 0x40 MLOAD RETURNDATASIZE PUSH1 0x1F NOT PUSH1 0x1F DUP3 ADD AND DUP3 ADD DUP1 PUSH1 0x40 MSTORE POP DUP2 ADD SWAP1 PUSH2 0x235A SWAP2 SWAP1 PUSH2 0x340C JUMP JUMPDEST SWAP1 POP PUSH1 0x0 DUP3 GT DUP1 ISZERO PUSH2 0x236C JUMPI POP PUSH1 0x0 DUP2 GT JUMPDEST ISZERO PUSH2 0x244A JUMPI DUP7 SLOAD PUSH1 0x40 MLOAD PUSH32 0xE8E3370000000000000000000000000000000000000000000000000000000000 DUP2 MSTORE PUSH20 0xFFFFFFFFFFFFFFFFFFFFFFFFFFFFFFFFFFFFFFFF DUP7 DUP2 AND PUSH1 0x4 DUP4 ADD MSTORE DUP6 DUP2 AND PUSH1 0x24 DUP4 ADD MSTORE PUSH1 0x44 DUP3 ADD DUP6 SWAP1 MSTORE PUSH1 0x64 DUP3 ADD DUP5 SWAP1 MSTORE PUSH1 0x0 PUSH1 0x84 DUP4 ADD DUP2 SWAP1 MSTORE PUSH1 0xA4 DUP4 ADD MSTORE ADDRESS PUSH1 0xC4 DUP4 ADD MSTORE TIMESTAMP PUSH1 0xE4 DUP4 ADD MSTORE SWAP1 SWAP2 AND SWAP1 PUSH4 0xE8E33700 SWAP1 PUSH2 0x104 ADD PUSH1 0x60 PUSH1 0x40 MLOAD DUP1 DUP4 SUB DUP2 PUSH1 0x0 DUP8 DUP1 EXTCODESIZE ISZERO DUP1 ISZERO PUSH2 0x240E JUMPI PUSH1 0x0 DUP1 REVERT JUMPDEST POP GAS CALL ISZERO DUP1 ISZERO PUSH2 0x2422 JUMPI RETURNDATASIZE PUSH1 0x0 DUP1 RETURNDATACOPY RETURNDATASIZE PUSH1 0x0 REVERT JUMPDEST POP POP POP POP PUSH1 0x40 MLOAD RETURNDATASIZE PUSH1 0x1F NOT PUSH1 0x1F DUP3 ADD AND DUP3 ADD DUP1 PUSH1 0x40 MSTORE POP DUP2 ADD SWAP1 PUSH2 0x2446 SWAP2 SWAP1 PUSH2 0x3449 JUMP JUMPDEST POP POP POP JUMPDEST POP POP POP POP PUSH2 0x2651 JUMP JUMPDEST PUSH1 0x2 PUSH1 0x11 DUP8 ADD SLOAD PUSH12 0x10000000000000000000000 SWAP1 DIV PUSH1 0xFF AND PUSH1 0x4 DUP2 GT ISZERO PUSH2 0x247D JUMPI PUSH2 0x247D PUSH2 0x37B3 JUMP JUMPDEST EQ ISZERO PUSH2 0x25BA JUMPI PUSH1 0x4 DUP6 ADD SLOAD PUSH1 0x2 DUP7 ADD SLOAD PUSH20 0xFFFFFFFFFFFFFFFFFFFFFFFFFFFFFFFFFFFFFFFF SWAP1 DUP2 AND SWAP2 AND EQ PUSH2 0x24BD JUMPI PUSH2 0x24BB DUP4 DUP3 DUP7 PUSH1 0x7 ADD ADDRESS PUSH2 0x716 JUMP JUMPDEST POP JUMPDEST DUP5 SLOAD PUSH1 0x4 DUP1 DUP8 ADD SLOAD PUSH1 0x40 MLOAD PUSH32 0x70A0823100000000000000000000000000000000000000000000000000000000 DUP2 MSTORE ADDRESS SWAP3 DUP2 ADD SWAP3 SWAP1 SWAP3 MSTORE PUSH20 0xFFFFFFFFFFFFFFFFFFFFFFFFFFFFFFFFFFFFFFFF SWAP3 DUP4 AND SWAP3 PUSH4 0xFC77C9DB SWAP3 SWAP2 AND SWAP1 PUSH4 0x70A08231 SWAP1 PUSH1 0x24 ADD PUSH1 0x20 PUSH1 0x40 MLOAD DUP1 DUP4 SUB DUP2 DUP7 DUP1 EXTCODESIZE ISZERO DUP1 ISZERO PUSH2 0x2536 JUMPI PUSH1 0x0 DUP1 REVERT JUMPDEST POP GAS STATICCALL ISZERO DUP1 ISZERO PUSH2 0x254A JUMPI RETURNDATASIZE PUSH1 0x0 DUP1 RETURNDATACOPY RETURNDATASIZE PUSH1 0x0 REVERT JUMPDEST POP POP POP POP PUSH1 0x40 MLOAD RETURNDATASIZE PUSH1 0x1F NOT PUSH1 0x1F DUP3 ADD AND DUP3 ADD DUP1 PUSH1 0x40 MSTORE POP DUP2 ADD SWAP1 PUSH2 0x256E SWAP2 SWAP1 PUSH2 0x340C JUMP JUMPDEST PUSH1 0x40 MLOAD DUP3 PUSH4 0xFFFFFFFF AND PUSH1 0xE0 SHL DUP2 MSTORE PUSH1 0x4 ADD PUSH2 0x258C SWAP2 DUP2 MSTORE PUSH1 0x20 ADD SWAP1 JUMP JUMPDEST PUSH1 0x0 PUSH1 0x40 MLOAD DUP1 DUP4 SUB DUP2 PUSH1 0x0 DUP8 DUP1 EXTCODESIZE ISZERO DUP1 ISZERO PUSH2 0x25A6 JUMPI PUSH1 0x0 DUP1 REVERT JUMPDEST POP GAS CALL ISZERO DUP1 ISZERO PUSH2 0x244A JUMPI RETURNDATASIZE PUSH1 0x0 DUP1 RETURNDATACOPY RETURNDATASIZE PUSH1 0x0 REVERT JUMPDEST PUSH1 0x3 PUSH1 0x11 DUP8 ADD SLOAD PUSH12 0x10000000000000000000000 SWAP1 DIV PUSH1 0xFF AND PUSH1 0x4 DUP2 GT ISZERO PUSH2 0x25E4 JUMPI PUSH2 0x25E4 PUSH2 0x37B3 JUMP JUMPDEST EQ ISZERO PUSH2 0x25EF JUMPI PUSH2 0x2651 JUMP JUMPDEST PUSH1 0x40 MLOAD PUSH32 0x8C379A000000000000000000000000000000000000000000000000000000000 DUP2 MSTORE PUSH1 0x20 PUSH1 0x4 DUP3 ADD MSTORE PUSH1 0x15 PUSH1 0x24 DUP3 ADD MSTORE PUSH32 0x6561726E5F2066756E6374696F6E2062726F6B656E0000000000000000000000 PUSH1 0x44 DUP3 ADD MSTORE PUSH1 0x64 ADD PUSH2 0xFA6 JUMP JUMPDEST PUSH1 0x11 DUP7 ADD DUP1 SLOAD PUSH32 0xFFFFFFFFFFFFFFFFFFFFFFFFFFFFFFFFFFFFFFFFFFFFFFFF0000000000000000 AND NUMBER PUSH8 0xFFFFFFFFFFFFFFFF AND OR SWAP1 SSTORE PUSH2 0x641 DUP7 PUSH2 0x2BB7 JUMP JUMPDEST PUSH1 0x0 DUP2 PUSH2 0x269C DUP2 PUSH2 0x64A JUMP JUMPDEST PUSH1 0x1 DUP3 ADD SLOAD PUSH1 0x40 MLOAD PUSH32 0x70A0823100000000000000000000000000000000000000000000000000000000 DUP2 MSTORE ADDRESS PUSH1 0x4 DUP3 ADD MSTORE PUSH20 0xFFFFFFFFFFFFFFFFFFFFFFFFFFFFFFFFFFFFFFFF SWAP1 SWAP2 AND SWAP1 PUSH4 0x70A08231 SWAP1 PUSH1 0x24 ADD PUSH1 0x20 PUSH1 0x40 MLOAD DUP1 DUP4 SUB DUP2 DUP7 DUP1 EXTCODESIZE ISZERO DUP1 ISZERO PUSH2 0x2707 JUMPI PUSH1 0x0 DUP1 REVERT JUMPDEST POP GAS STATICCALL ISZERO DUP1 ISZERO PUSH2 0x271B JUMPI RETURNDATASIZE PUSH1 0x0 DUP1 RETURNDATACOPY RETURNDATASIZE PUSH1 0x0 REVERT JUMPDEST POP POP POP POP PUSH1 0x40 MLOAD RETURNDATASIZE PUSH1 0x1F NOT PUSH1 0x1F DUP3 ADD AND DUP3 ADD DUP1 PUSH1 0x40 MSTORE POP DUP2 ADD SWAP1 PUSH2 0x273F SWAP2 SWAP1 PUSH2 0x340C JUMP JUMPDEST PUSH2 0x2749 SWAP2 SWAP1 PUSH2 0x3695 JUMP JUMPDEST SWAP4 SWAP3 POP POP POP JUMP JUMPDEST PUSH1 0x0 DUP3 DUP2 PUSH2 0x275D DUP3 PUSH2 0x2690 JUMP JUMPDEST PUSH1 0x1 DUP4 ADD SLOAD SWAP1 SWAP2 POP PUSH2 0x2787 SWAP1 PUSH20 0xFFFFFFFFFFFFFFFFFFFFFFFFFFFFFFFFFFFFFFFF AND CALLER ADDRESS DUP8 PUSH2 0x2CA8 JUMP JUMPDEST PUSH1 0x0 PUSH2 0x2792 DUP7 PUSH2 0x2BB7 JUMP JUMPDEST PUSH1 0xF DUP8 ADD SLOAD SWAP1 SWAP2 POP ISZERO PUSH2 0x27BD JUMPI DUP2 DUP7 PUSH1 0xF ADD SLOAD DUP3 PUSH2 0x27B0 SWAP2 SWAP1 PUSH2 0x36C1 JUMP JUMPDEST PUSH2 0x27BA SWAP2 SWAP1 PUSH2 0x36AD JUMP JUMPDEST SWAP1 POP JUMPDEST DUP1 DUP7 PUSH1 0xF ADD PUSH1 0x0 DUP3 DUP3 SLOAD PUSH2 0x27D1 SWAP2 SWAP1 PUSH2 0x3695 JUMP JUMPDEST SWAP1 SWAP2 SSTORE POP SWAP1 SWAP7 SWAP6 POP POP POP POP POP POP JUMP JUMPDEST DUP1 ISZERO DUP1 PUSH2 0x288F JUMPI POP PUSH1 0x40 MLOAD PUSH32 0xDD62ED3E00000000000000000000000000000000000000000000000000000000 DUP2 MSTORE ADDRESS PUSH1 0x4 DUP3 ADD MSTORE PUSH20 0xFFFFFFFFFFFFFFFFFFFFFFFFFFFFFFFFFFFFFFFF DUP4 DUP2 AND PUSH1 0x24 DUP4 ADD MSTORE DUP5 AND SWAP1 PUSH4 0xDD62ED3E SWAP1 PUSH1 0x44 ADD PUSH1 0x20 PUSH1 0x40 MLOAD DUP1 DUP4 SUB DUP2 DUP7 DUP1 EXTCODESIZE ISZERO DUP1 ISZERO PUSH2 0x2855 JUMPI PUSH1 0x0 DUP1 REVERT JUMPDEST POP GAS STATICCALL ISZERO DUP1 ISZERO PUSH2 0x2869 JUMPI RETURNDATASIZE PUSH1 0x0 DUP1 RETURNDATACOPY RETURNDATASIZE PUSH1 0x0 REVERT JUMPDEST POP POP POP POP PUSH1 0x40 MLOAD RETURNDATASIZE PUSH1 0x1F NOT PUSH1 0x1F DUP3 ADD AND DUP3 ADD DUP1 PUSH1 0x40 MSTORE POP DUP2 ADD SWAP1 PUSH2 0x288D SWAP2 SWAP1 PUSH2 0x340C JUMP JUMPDEST ISZERO JUMPDEST PUSH2 0x291B JUMPI PUSH1 0x40 MLOAD PUSH32 0x8C379A000000000000000000000000000000000000000000000000000000000 DUP2 MSTORE PUSH1 0x20 PUSH1 0x4 DUP3 ADD MSTORE PUSH1 0x36 PUSH1 0x24 DUP3 ADD MSTORE PUSH32 0x5361666545524332303A20617070726F76652066726F6D206E6F6E2D7A65726F PUSH1 0x44 DUP3 ADD MSTORE PUSH32 0x20746F206E6F6E2D7A65726F20616C6C6F77616E636500000000000000000000 PUSH1 0x64 DUP3 ADD MSTORE PUSH1 0x84 ADD PUSH2 0xFA6 JUMP JUMPDEST PUSH1 0x40 MLOAD PUSH20 0xFFFFFFFFFFFFFFFFFFFFFFFFFFFFFFFFFFFFFFFF DUP4 AND PUSH1 0x24 DUP3 ADD MSTORE PUSH1 0x44 DUP2 ADD DUP3 SWAP1 MSTORE PUSH2 0x29EF SWAP1 DUP5 SWAP1 PUSH32 0x95EA7B300000000000000000000000000000000000000000000000000000000 SWAP1 PUSH1 0x64 ADD JUMPDEST PUSH1 0x40 DUP1 MLOAD PUSH32 0xFFFFFFFFFFFFFFFFFFFFFFFFFFFFFFFFFFFFFFFFFFFFFFFFFFFFFFFFFFFFFFE0 DUP2 DUP5 SUB ADD DUP2 MSTORE SWAP2 SWAP1 MSTORE PUSH1 0x20 DUP2 ADD DUP1 MLOAD PUSH28 0xFFFFFFFFFFFFFFFFFFFFFFFFFFFFFFFFFFFFFFFFFFFFFFFFFFFFFFFF AND PUSH32 0xFFFFFFFF00000000000000000000000000000000000000000000000000000000 SWAP1 SWAP4 AND SWAP3 SWAP1 SWAP3 OR SWAP1 SWAP2 MSTORE PUSH2 0x2D06 JUMP JUMPDEST POP POP POP JUMP JUMPDEST PUSH1 0x3 DUP3 ADD SLOAD PUSH1 0x11 DUP4 ADD SLOAD PUSH1 0x40 MLOAD PUSH32 0x441A3E7000000000000000000000000000000000000000000000000000000000 DUP2 MSTORE PUSH9 0x10000000000000000 SWAP1 SWAP2 DIV PUSH3 0xFFFFFF AND PUSH1 0x4 DUP3 ADD MSTORE PUSH1 0x24 DUP2 ADD DUP4 SWAP1 MSTORE DUP4 SWAP2 PUSH20 0xFFFFFFFFFFFFFFFFFFFFFFFFFFFFFFFFFFFFFFFF AND SWAP1 PUSH4 0x441A3E70 SWAP1 PUSH1 0x44 ADD JUMPDEST PUSH1 0x0 PUSH1 0x40 MLOAD DUP1 DUP4 SUB DUP2 PUSH1 0x0 DUP8 DUP1 EXTCODESIZE ISZERO DUP1 ISZERO PUSH2 0x2A7F JUMPI PUSH1 0x0 DUP1 REVERT JUMPDEST POP GAS CALL ISZERO DUP1 ISZERO PUSH2 0x641 JUMPI RETURNDATASIZE PUSH1 0x0 DUP1 RETURNDATACOPY RETURNDATASIZE PUSH1 0x0 REVERT JUMPDEST PUSH1 0x0 PUSH2 0x2A9F DUP3 DUP5 PUSH2 0x3741 JUMP JUMPDEST ISZERO PUSH2 0x2AAB JUMPI PUSH1 0x1 PUSH2 0x2AAE JUMP JUMPDEST PUSH1 0x0 JUMPDEST PUSH1 0xFF AND PUSH2 0x273F DUP4 DUP6 PUSH2 0x36AD JUMP JUMPDEST PUSH1 0x40 MLOAD PUSH20 0xFFFFFFFFFFFFFFFFFFFFFFFFFFFFFFFFFFFFFFFF DUP4 AND PUSH1 0x24 DUP3 ADD MSTORE PUSH1 0x44 DUP2 ADD DUP3 SWAP1 MSTORE PUSH2 0x29EF SWAP1 DUP5 SWAP1 PUSH32 0xA9059CBB00000000000000000000000000000000000000000000000000000000 SWAP1 PUSH1 0x64 ADD PUSH2 0x296D JUMP JUMPDEST PUSH1 0x3 DUP2 ADD SLOAD PUSH1 0x11 DUP3 ADD SLOAD PUSH1 0x40 MLOAD PUSH32 0x441A3E7000000000000000000000000000000000000000000000000000000000 DUP2 MSTORE PUSH9 0x10000000000000000 SWAP1 SWAP2 DIV PUSH3 0xFFFFFF AND PUSH1 0x4 DUP3 ADD MSTORE PUSH1 0x0 PUSH1 0x24 DUP3 ADD MSTORE DUP3 SWAP2 PUSH20 0xFFFFFFFFFFFFFFFFFFFFFFFFFFFFFFFFFFFFFFFF AND SWAP1 PUSH4 0x441A3E70 SWAP1 PUSH1 0x44 ADD PUSH1 0x0 PUSH1 0x40 MLOAD DUP1 DUP4 SUB DUP2 PUSH1 0x0 DUP8 DUP1 EXTCODESIZE ISZERO DUP1 ISZERO PUSH2 0x2B9B JUMPI PUSH1 0x0 DUP1 REVERT JUMPDEST POP GAS CALL ISZERO DUP1 ISZERO PUSH2 0x2BAF JUMPI RETURNDATASIZE PUSH1 0x0 DUP1 RETURNDATACOPY RETURNDATASIZE PUSH1 0x0 REVERT JUMPDEST POP POP POP POP POP POP JUMP JUMPDEST PUSH1 0x1 DUP2 ADD SLOAD PUSH1 0x40 MLOAD PUSH32 0x70A0823100000000000000000000000000000000000000000000000000000000 DUP2 MSTORE ADDRESS PUSH1 0x4 DUP3 ADD MSTORE PUSH1 0x0 SWAP2 DUP4 SWAP2 DUP4 SWAP2 PUSH20 0xFFFFFFFFFFFFFFFFFFFFFFFFFFFFFFFFFFFFFFFF AND SWAP1 PUSH4 0x70A08231 SWAP1 PUSH1 0x24 ADD PUSH1 0x20 PUSH1 0x40 MLOAD DUP1 DUP4 SUB DUP2 DUP7 DUP1 EXTCODESIZE ISZERO DUP1 ISZERO PUSH2 0x2C27 JUMPI PUSH1 0x0 DUP1 REVERT JUMPDEST POP GAS STATICCALL ISZERO DUP1 ISZERO PUSH2 0x2C3B JUMPI RETURNDATASIZE PUSH1 0x0 DUP1 RETURNDATACOPY RETURNDATASIZE PUSH1 0x0 REVERT JUMPDEST POP POP POP POP PUSH1 0x40 MLOAD RETURNDATASIZE PUSH1 0x1F NOT PUSH1 0x1F DUP3 ADD AND DUP3 ADD DUP1 PUSH1 0x40 MSTORE POP DUP2 ADD SWAP1 PUSH2 0x2C5F SWAP2 SWAP1 PUSH2 0x340C JUMP JUMPDEST SWAP1 POP DUP1 PUSH2 0x2C70 JUMPI POP PUSH1 0x0 SWAP4 SWAP3 POP POP POP JUMP JUMPDEST PUSH1 0x0 PUSH2 0x2C7B DUP6 PUSH2 0x64A JUMP JUMPDEST SWAP1 POP PUSH2 0x2C87 DUP6 DUP4 PUSH2 0x2E12 JUMP JUMPDEST PUSH1 0x0 PUSH2 0x2C92 DUP7 PUSH2 0x64A JUMP JUMPDEST SWAP1 POP PUSH2 0x2C9E DUP3 DUP3 PUSH2 0x36FE JUMP JUMPDEST SWAP7 SWAP6 POP POP POP POP POP POP JUMP JUMPDEST PUSH1 0x40 MLOAD PUSH20 0xFFFFFFFFFFFFFFFFFFFFFFFFFFFFFFFFFFFFFFFF DUP1 DUP6 AND PUSH1 0x24 DUP4 ADD MSTORE DUP4 AND PUSH1 0x44 DUP3 ADD MSTORE PUSH1 0x64 DUP2 ADD DUP3 SWAP1 MSTORE PUSH2 0x109B SWAP1 DUP6 SWAP1 PUSH32 0x23B872DD00000000000000000000000000000000000000000000000000000000 SWAP1 PUSH1 0x84 ADD PUSH2 0x296D JUMP JUMPDEST PUSH1 0x0 PUSH2 0x2D68 DUP3 PUSH1 0x40 MLOAD DUP1 PUSH1 0x40 ADD PUSH1 0x40 MSTORE DUP1 PUSH1 0x20 DUP2 MSTORE PUSH1 0x20 ADD PUSH32 0x5361666545524332303A206C6F772D6C6576656C2063616C6C206661696C6564 DUP2 MSTORE POP DUP6 PUSH20 0xFFFFFFFFFFFFFFFFFFFFFFFFFFFFFFFFFFFFFFFF AND PUSH2 0x2E87 SWAP1 SWAP3 SWAP2 SWAP1 PUSH4 0xFFFFFFFF AND JUMP JUMPDEST DUP1 MLOAD SWAP1 SWAP2 POP ISZERO PUSH2 0x29EF JUMPI DUP1 DUP1 PUSH1 0x20 ADD SWAP1 MLOAD DUP2 ADD SWAP1 PUSH2 0x2D86 SWAP2 SWAP1 PUSH2 0x3230 JUMP JUMPDEST PUSH2 0x29EF JUMPI PUSH1 0x40 MLOAD PUSH32 0x8C379A000000000000000000000000000000000000000000000000000000000 DUP2 MSTORE PUSH1 0x20 PUSH1 0x4 DUP3 ADD MSTORE PUSH1 0x2A PUSH1 0x24 DUP3 ADD MSTORE PUSH32 0x5361666545524332303A204552433230206F7065726174696F6E20646964206E PUSH1 0x44 DUP3 ADD MSTORE PUSH32 0x6F74207375636365656400000000000000000000000000000000000000000000 PUSH1 0x64 DUP3 ADD MSTORE PUSH1 0x84 ADD PUSH2 0xFA6 JUMP JUMPDEST PUSH1 0x3 DUP3 ADD SLOAD PUSH1 0x11 DUP4 ADD SLOAD PUSH1 0x40 MLOAD PUSH32 0xE2BBB15800000000000000000000000000000000000000000000000000000000 DUP2 MSTORE PUSH9 0x10000000000000000 SWAP1 SWAP2 DIV PUSH3 0xFFFFFF AND PUSH1 0x4 DUP3 ADD MSTORE PUSH1 0x24 DUP2 ADD DUP4 SWAP1 MSTORE DUP4 SWAP2 PUSH20 0xFFFFFFFFFFFFFFFFFFFFFFFFFFFFFFFFFFFFFFFF AND SWAP1 PUSH4 0xE2BBB158 SWAP1 PUSH1 0x44 ADD PUSH2 0x2A65 JUMP JUMPDEST PUSH1 0x60 PUSH2 0x2E96 DUP5 DUP5 PUSH1 0x0 DUP6 PUSH2 0x2E9E JUMP JUMPDEST SWAP5 SWAP4 POP POP POP POP JUMP JUMPDEST PUSH1 0x60 DUP3 SELFBALANCE LT ISZERO PUSH2 0x2F30 JUMPI PUSH1 0x40 MLOAD PUSH32 0x8C379A000000000000000000000000000000000000000000000000000000000 DUP2 MSTORE PUSH1 0x20 PUSH1 0x4 DUP3 ADD MSTORE PUSH1 0x26 PUSH1 0x24 DUP3 ADD MSTORE PUSH32 0x416464726573733A20696E73756666696369656E742062616C616E636520666F PUSH1 0x44 DUP3 ADD MSTORE PUSH32 0x722063616C6C0000000000000000000000000000000000000000000000000000 PUSH1 0x64 DUP3 ADD MSTORE PUSH1 0x84 ADD PUSH2 0xFA6 JUMP JUMPDEST DUP5 EXTCODESIZE PUSH2 0x2F98 JUMPI PUSH1 0x40 MLOAD PUSH32 0x8C379A000000000000000000000000000000000000000000000000000000000 DUP2 MSTORE PUSH1 0x20 PUSH1 0x4 DUP3 ADD MSTORE PUSH1 0x1D PUSH1 0x24 DUP3 ADD MSTORE PUSH32 0x416464726573733A2063616C6C20746F206E6F6E2D636F6E7472616374000000 PUSH1 0x44 DUP3 ADD MSTORE PUSH1 0x64 ADD PUSH2 0xFA6 JUMP JUMPDEST PUSH1 0x0 DUP1 DUP7 PUSH20 0xFFFFFFFFFFFFFFFFFFFFFFFFFFFFFFFFFFFFFFFF AND DUP6 DUP8 PUSH1 0x40 MLOAD PUSH2 0x2FC1 SWAP2 SWAP1 PUSH2 0x35A0 JUMP JUMPDEST PUSH1 0x0 PUSH1 0x40 MLOAD DUP1 DUP4 SUB DUP2 DUP6 DUP8 GAS CALL SWAP3 POP POP POP RETURNDATASIZE DUP1 PUSH1 0x0 DUP2 EQ PUSH2 0x2FFE JUMPI PUSH1 0x40 MLOAD SWAP2 POP PUSH1 0x1F NOT PUSH1 0x3F RETURNDATASIZE ADD AND DUP3 ADD PUSH1 0x40 MSTORE RETURNDATASIZE DUP3 MSTORE RETURNDATASIZE PUSH1 0x0 PUSH1 0x20 DUP5 ADD RETURNDATACOPY PUSH2 0x3003 JUMP JUMPDEST PUSH1 0x60 SWAP2 POP JUMPDEST POP SWAP2 POP SWAP2 POP PUSH2 0x3013 DUP3 DUP3 DUP7 PUSH2 0x301E JUMP JUMPDEST SWAP8 SWAP7 POP POP POP POP POP POP POP JUMP JUMPDEST PUSH1 0x60 DUP4 ISZERO PUSH2 0x302D JUMPI POP DUP2 PUSH2 0x2749 JUMP JUMPDEST DUP3 MLOAD ISZERO PUSH2 0x303D JUMPI DUP3 MLOAD DUP1 DUP5 PUSH1 0x20 ADD REVERT JUMPDEST DUP2 PUSH1 0x40 MLOAD PUSH32 0x8C379A000000000000000000000000000000000000000000000000000000000 DUP2 MSTORE PUSH1 0x4 ADD PUSH2 0xFA6 SWAP2 SWAP1 PUSH2 0x35BC JUMP JUMPDEST DUP1 CALLDATALOAD PUSH20 0xFFFFFFFFFFFFFFFFFFFFFFFFFFFFFFFFFFFFFFFF DUP2 AND DUP2 EQ PUSH2 0x3095 JUMPI PUSH1 0x0 DUP1 REVERT JUMPDEST SWAP2 SWAP1 POP JUMP JUMPDEST DUP1 CALLDATALOAD PUSH2 0xFFFF DUP2 AND DUP2 EQ PUSH2 0x3095 JUMPI PUSH1 0x0 DUP1 REVERT JUMPDEST DUP1 CALLDATALOAD PUSH3 0xFFFFFF DUP2 AND DUP2 EQ PUSH2 0x3095 JUMPI PUSH1 0x0 DUP1 REVERT JUMPDEST PUSH1 0x0 DUP1 PUSH1 0x0 DUP1 PUSH1 0x0 DUP1 PUSH1 0x0 PUSH1 0xE0 DUP9 DUP11 SUB SLT ISZERO PUSH2 0x30DA JUMPI PUSH1 0x0 DUP1 REVERT JUMPDEST PUSH2 0x30E3 DUP9 PUSH2 0x3071 JUMP JUMPDEST SWAP7 POP PUSH2 0x30F1 PUSH1 0x20 DUP10 ADD PUSH2 0x3071 JUMP JUMPDEST SWAP6 POP PUSH2 0x30FF PUSH1 0x40 DUP10 ADD PUSH2 0x3071 JUMP JUMPDEST SWAP5 POP PUSH2 0x310D PUSH1 0x60 DUP10 ADD PUSH2 0x3071 JUMP JUMPDEST SWAP4 POP PUSH2 0x311B PUSH1 0x80 DUP10 ADD PUSH2 0x3071 JUMP JUMPDEST SWAP3 POP PUSH2 0x3129 PUSH1 0xA0 DUP10 ADD PUSH2 0x30AC JUMP JUMPDEST SWAP2 POP PUSH1 0xC0 DUP9 ADD CALLDATALOAD PUSH1 0x5 DUP2 LT PUSH2 0x313D JUMPI PUSH1 0x0 DUP1 REVERT JUMPDEST DUP1 SWAP2 POP POP SWAP3 SWAP6 SWAP9 SWAP2 SWAP5 SWAP8 POP SWAP3 SWAP6 POP JUMP JUMPDEST PUSH1 0x0 PUSH1 0x20 DUP1 DUP4 DUP6 SUB SLT ISZERO PUSH2 0x3160 JUMPI PUSH1 0x0 DUP1 REVERT JUMPDEST DUP3 MLOAD PUSH8 0xFFFFFFFFFFFFFFFF DUP1 DUP3 GT ISZERO PUSH2 0x3178 JUMPI PUSH1 0x0 DUP1 REVERT JUMPDEST DUP2 DUP6 ADD SWAP2 POP DUP6 PUSH1 0x1F DUP4 ADD SLT PUSH2 0x318C JUMPI PUSH1 0x0 DUP1 REVERT JUMPDEST DUP2 MLOAD DUP2 DUP2 GT ISZERO PUSH2 0x319E JUMPI PUSH2 0x319E PUSH2 0x3811 JUMP JUMPDEST DUP1 PUSH1 0x5 SHL PUSH1 0x40 MLOAD PUSH32 0xFFFFFFFFFFFFFFFFFFFFFFFFFFFFFFFFFFFFFFFFFFFFFFFFFFFFFFFFFFFFFFE0 PUSH1 0x3F DUP4 ADD AND DUP2 ADD DUP2 DUP2 LT DUP6 DUP3 GT OR ISZERO PUSH2 0x31E1 JUMPI PUSH2 0x31E1 PUSH2 0x3811 JUMP JUMPDEST PUSH1 0x40 MSTORE DUP3 DUP2 MSTORE DUP6 DUP2 ADD SWAP4 POP DUP5 DUP7 ADD DUP3 DUP7 ADD DUP8 ADD DUP11 LT ISZERO PUSH2 0x3200 JUMPI PUSH1 0x0 DUP1 REVERT JUMPDEST PUSH1 0x0 SWAP6 POP JUMPDEST DUP4 DUP7 LT ISZERO PUSH2 0x3223 JUMPI DUP1 MLOAD DUP6 MSTORE PUSH1 0x1 SWAP6 SWAP1 SWAP6 ADD SWAP5 SWAP4 DUP7 ADD SWAP4 DUP7 ADD PUSH2 0x3205 JUMP JUMPDEST POP SWAP9 SWAP8 POP POP POP POP POP POP POP POP JUMP JUMPDEST PUSH1 0x0 PUSH1 0x20 DUP3 DUP5 SUB SLT ISZERO PUSH2 0x3242 JUMPI PUSH1 0x0 DUP1 REVERT JUMPDEST DUP2 MLOAD DUP1 ISZERO ISZERO DUP2 EQ PUSH2 0x2749 JUMPI PUSH1 0x0 DUP1 REVERT JUMPDEST PUSH1 0x0 DUP1 PUSH1 0x0 DUP1 PUSH1 0x0 DUP1 PUSH1 0x0 PUSH1 0xE0 DUP9 DUP11 SUB SLT ISZERO PUSH2 0x326D JUMPI PUSH1 0x0 DUP1 REVERT JUMPDEST DUP8 CALLDATALOAD SWAP7 POP PUSH2 0x327D PUSH1 0x20 DUP10 ADD PUSH2 0x3071 JUMP JUMPDEST SWAP6 POP PUSH2 0x328B PUSH1 0x40 DUP10 ADD PUSH2 0x3071 JUMP JUMPDEST SWAP5 POP PUSH2 0x3299 PUSH1 0x60 DUP10 ADD PUSH2 0x3071 JUMP JUMPDEST SWAP4 POP PUSH2 0x32A7 PUSH1 0x80 DUP10 ADD PUSH2 0x3071 JUMP JUMPDEST SWAP3 POP PUSH2 0x32B5 PUSH1 0xA0 DUP10 ADD PUSH2 0x30AC JUMP JUMPDEST SWAP2 POP PUSH2 0x32C3 PUSH1 0xC0 DUP10 ADD PUSH2 0x3071 JUMP JUMPDEST SWAP1 POP SWAP3 SWAP6 SWAP9 SWAP2 SWAP5 SWAP8 POP SWAP3 SWAP6 POP JUMP JUMPDEST PUSH1 0x0 DUP1 PUSH1 0x0 DUP1 PUSH1 0x0 PUSH1 0xA0 DUP7 DUP9 SUB SLT ISZERO PUSH2 0x32E9 JUMPI PUSH1 0x0 DUP1 REVERT JUMPDEST DUP6 CALLDATALOAD SWAP5 POP PUSH2 0x32F9 PUSH1 0x20 DUP8 ADD PUSH2 0x3071 JUMP JUMPDEST SWAP4 POP PUSH2 0x3307 PUSH1 0x40 DUP8 ADD PUSH2 0x3071 JUMP JUMPDEST SWAP3 POP PUSH2 0x3315 PUSH1 0x60 DUP8 ADD PUSH2 0x30AC JUMP JUMPDEST SWAP2 POP PUSH2 0x3323 PUSH1 0x80 DUP8 ADD PUSH2 0x3071 JUMP JUMPDEST SWAP1 POP SWAP3 SWAP6 POP SWAP3 SWAP6 SWAP1 SWAP4 POP JUMP JUMPDEST PUSH1 0x0 PUSH1 0x20 DUP3 DUP5 SUB SLT ISZERO PUSH2 0x3341 JUMPI PUSH1 0x0 DUP1 REVERT JUMPDEST POP CALLDATALOAD SWAP2 SWAP1 POP JUMP JUMPDEST PUSH1 0x0 DUP1 PUSH1 0x0 DUP1 PUSH1 0x0 DUP1 PUSH1 0x0 PUSH1 0xE0 DUP9 DUP11 SUB SLT ISZERO PUSH2 0x3363 JUMPI PUSH1 0x0 DUP1 REVERT JUMPDEST DUP8 CALLDATALOAD SWAP7 POP PUSH2 0x3373 PUSH1 0x20 DUP10 ADD PUSH2 0x309A JUMP JUMPDEST SWAP6 POP PUSH2 0x3381 PUSH1 0x40 DUP10 ADD PUSH2 0x309A JUMP JUMPDEST SWAP5 POP PUSH2 0x338F PUSH1 0x60 DUP10 ADD PUSH2 0x309A JUMP JUMPDEST SWAP4 POP PUSH2 0x339D PUSH1 0x80 DUP10 ADD PUSH2 0x309A JUMP JUMPDEST SWAP3 POP PUSH2 0x32B5 PUSH1 0xA0 DUP10 ADD PUSH2 0x309A JUMP JUMPDEST PUSH1 0x0 DUP1 PUSH1 0x40 DUP4 DUP6 SUB SLT ISZERO PUSH2 0x33BE JUMPI PUSH1 0x0 DUP1 REVERT JUMPDEST POP POP DUP1 CALLDATALOAD SWAP3 PUSH1 0x20 SWAP1 SWAP2 ADD CALLDATALOAD SWAP2 POP JUMP JUMPDEST PUSH1 0x0 DUP1 PUSH1 0x0 DUP1 PUSH1 0x80 DUP6 DUP8 SUB SLT ISZERO PUSH2 0x33E3 JUMPI PUSH1 0x0 DUP1 REVERT JUMPDEST DUP5 CALLDATALOAD SWAP4 POP PUSH1 0x20 DUP6 ADD CALLDATALOAD SWAP3 POP PUSH1 0x40 DUP6 ADD CALLDATALOAD SWAP2 POP PUSH2 0x3401 PUSH1 0x60 DUP7 ADD PUSH2 0x3071 JUMP JUMPDEST SWAP1 POP SWAP3 SWAP6 SWAP2 SWAP5 POP SWAP3 POP JUMP JUMPDEST PUSH1 0x0 PUSH1 0x20 DUP3 DUP5 SUB SLT ISZERO PUSH2 0x341E JUMPI PUSH1 0x0 DUP1 REVERT JUMPDEST POP MLOAD SWAP2 SWAP1 POP JUMP JUMPDEST PUSH1 0x0 DUP1 PUSH1 0x40 DUP4 DUP6 SUB SLT ISZERO PUSH2 0x3438 JUMPI PUSH1 0x0 DUP1 REVERT JUMPDEST POP POP DUP1 MLOAD PUSH1 0x20 SWAP1 SWAP2 ADD MLOAD SWAP1 SWAP3 SWAP1 SWAP2 POP JUMP JUMPDEST PUSH1 0x0 DUP1 PUSH1 0x0 PUSH1 0x60 DUP5 DUP7 SUB SLT ISZERO PUSH2 0x345E JUMPI PUSH1 0x0 DUP1 REVERT JUMPDEST DUP4 MLOAD SWAP3 POP PUSH1 0x20 DUP5 ADD MLOAD SWAP2 POP PUSH1 0x40 DUP5 ADD MLOAD SWAP1 POP SWAP3 POP SWAP3 POP SWAP3 JUMP JUMPDEST PUSH1 0x0 DUP2 SLOAD DUP1 DUP5 MSTORE PUSH1 0x20 DUP1 DUP6 ADD SWAP5 POP DUP4 PUSH1 0x0 MSTORE DUP1 PUSH1 0x0 KECCAK256 PUSH1 0x0 JUMPDEST DUP4 DUP2 LT ISZERO PUSH2 0x34C2 JUMPI DUP2 SLOAD PUSH20 0xFFFFFFFFFFFFFFFFFFFFFFFFFFFFFFFFFFFFFFFF AND DUP8 MSTORE SWAP6 DUP3 ADD SWAP6 PUSH1 0x1 SWAP2 DUP3 ADD SWAP2 ADD PUSH2 0x3490 JUMP JUMPDEST POP SWAP5 SWAP6 SWAP5 POP POP POP POP POP JUMP JUMPDEST PUSH1 0x0 PUSH32 0xFFFFFFFFFFFFFFFFFFFFFFFFFFFFFFFFFFFFFFFF000000000000000000000000 DUP1 DUP11 PUSH1 0x60 SHL AND DUP4 MSTORE DUP1 DUP10 PUSH1 0x60 SHL AND PUSH1 0x14 DUP5 ADD MSTORE DUP1 DUP9 PUSH1 0x60 SHL AND PUSH1 0x28 DUP5 ADD MSTORE DUP1 DUP8 PUSH1 0x60 SHL AND PUSH1 0x3C DUP5 ADD MSTORE DUP1 DUP7 PUSH1 0x60 SHL AND PUSH1 0x50 DUP5 ADD MSTORE POP PUSH32 0xFFFFFF0000000000000000000000000000000000000000000000000000000000 DUP5 PUSH1 0xE8 SHL AND PUSH1 0x64 DUP4 ADD MSTORE PUSH1 0x5 DUP4 LT PUSH2 0x3587 JUMPI PUSH32 0x4E487B7100000000000000000000000000000000000000000000000000000000 PUSH1 0x0 MSTORE PUSH1 0x21 PUSH1 0x4 MSTORE PUSH1 0x24 PUSH1 0x0 REVERT JUMPDEST POP PUSH1 0xF8 SWAP2 SWAP1 SWAP2 SHL PUSH1 0x67 DUP3 ADD MSTORE PUSH1 0x68 ADD SWAP7 SWAP6 POP POP POP POP POP POP JUMP JUMPDEST PUSH1 0x0 DUP3 MLOAD PUSH2 0x35B2 DUP2 DUP5 PUSH1 0x20 DUP8 ADD PUSH2 0x3715 JUMP JUMPDEST SWAP2 SWAP1 SWAP2 ADD SWAP3 SWAP2 POP POP JUMP JUMPDEST PUSH1 0x20 DUP2 MSTORE PUSH1 0x0 DUP3 MLOAD DUP1 PUSH1 0x20 DUP5 ADD MSTORE PUSH2 0x35DB DUP2 PUSH1 0x40 DUP6 ADD PUSH1 0x20 DUP8 ADD PUSH2 0x3715 JUMP JUMPDEST PUSH1 0x1F ADD PUSH32 0xFFFFFFFFFFFFFFFFFFFFFFFFFFFFFFFFFFFFFFFFFFFFFFFFFFFFFFFFFFFFFFE0 AND SWAP2 SWAP1 SWAP2 ADD PUSH1 0x40 ADD SWAP3 SWAP2 POP POP JUMP JUMPDEST DUP3 DUP2 MSTORE PUSH1 0x40 PUSH1 0x20 DUP3 ADD MSTORE PUSH1 0x0 PUSH2 0x2E96 PUSH1 0x40 DUP4 ADD DUP5 PUSH2 0x3477 JUMP JUMPDEST DUP6 DUP2 MSTORE DUP5 PUSH1 0x20 DUP3 ADD MSTORE PUSH1 0xA0 PUSH1 0x40 DUP3 ADD MSTORE PUSH1 0x0 PUSH2 0x3645 PUSH1 0xA0 DUP4 ADD DUP7 PUSH2 0x3477 JUMP JUMPDEST PUSH20 0xFFFFFFFFFFFFFFFFFFFFFFFFFFFFFFFFFFFFFFFF SWAP5 SWAP1 SWAP5 AND PUSH1 0x60 DUP4 ADD MSTORE POP PUSH1 0x80 ADD MSTORE SWAP4 SWAP3 POP POP POP JUMP JUMPDEST PUSH1 0x0 PUSH2 0xFFFF DUP1 DUP4 AND DUP2 DUP6 AND DUP1 DUP4 SUB DUP3 GT ISZERO PUSH2 0x368C JUMPI PUSH2 0x368C PUSH2 0x3755 JUMP JUMPDEST ADD SWAP5 SWAP4 POP POP POP POP JUMP JUMPDEST PUSH1 0x0 DUP3 NOT DUP3 GT ISZERO PUSH2 0x36A8 JUMPI PUSH2 0x36A8 PUSH2 0x3755 JUMP JUMPDEST POP ADD SWAP1 JUMP JUMPDEST PUSH1 0x0 DUP3 PUSH2 0x36BC JUMPI PUSH2 0x36BC PUSH2 0x3784 JUMP JUMPDEST POP DIV SWAP1 JUMP JUMPDEST PUSH1 0x0 DUP2 PUSH32 0xFFFFFFFFFFFFFFFFFFFFFFFFFFFFFFFFFFFFFFFFFFFFFFFFFFFFFFFFFFFFFFFF DIV DUP4 GT DUP3 ISZERO ISZERO AND ISZERO PUSH2 0x36F9 JUMPI PUSH2 0x36F9 PUSH2 0x3755 JUMP JUMPDEST POP MUL SWAP1 JUMP JUMPDEST PUSH1 0x0 DUP3 DUP3 LT ISZERO PUSH2 0x3710 JUMPI PUSH2 0x3710 PUSH2 0x3755 JUMP JUMPDEST POP SUB SWAP1 JUMP JUMPDEST PUSH1 0x0 JUMPDEST DUP4 DUP2 LT ISZERO PUSH2 0x3730 JUMPI DUP2 DUP2 ADD MLOAD DUP4 DUP3 ADD MSTORE PUSH1 0x20 ADD PUSH2 0x3718 JUMP JUMPDEST DUP4 DUP2 GT ISZERO PUSH2 0x109B JUMPI POP POP PUSH1 0x0 SWAP2 ADD MSTORE JUMP JUMPDEST PUSH1 0x0 DUP3 PUSH2 0x3750 JUMPI PUSH2 0x3750 PUSH2 0x3784 JUMP JUMPDEST POP MOD SWAP1 JUMP JUMPDEST PUSH32 0x4E487B7100000000000000000000000000000000000000000000000000000000 PUSH1 0x0 MSTORE PUSH1 0x11 PUSH1 0x4 MSTORE PUSH1 0x24 PUSH1 0x0 REVERT JUMPDEST PUSH32 0x4E487B7100000000000000000000000000000000000000000000000000000000 PUSH1 0x0 MSTORE PUSH1 0x12 PUSH1 0x4 MSTORE PUSH1 0x24 PUSH1 0x0 REVERT JUMPDEST PUSH32 0x4E487B7100000000000000000000000000000000000000000000000000000000 PUSH1 0x0 MSTORE PUSH1 0x21 PUSH1 0x4 MSTORE PUSH1 0x24 PUSH1 0x0 REVERT JUMPDEST PUSH32 0x4E487B7100000000000000000000000000000000000000000000000000000000 PUSH1 0x0 MSTORE PUSH1 0x32 PUSH1 0x4 MSTORE PUSH1 0x24 PUSH1 0x0 REVERT JUMPDEST PUSH32 0x4E487B7100000000000000000000000000000000000000000000000000000000 PUSH1 0x0 MSTORE PUSH1 0x41 PUSH1 0x4 MSTORE PUSH1 0x24 PUSH1 0x0 REVERT INVALID LOG2 PUSH5 0x6970667358 0x22 SLT KECCAK256 0xBA DIFFICULTY 0xE3 DIV MSTORE8 PUSH30 0x81ECABF0902C45A7C3720986F2F489E04F737CD742475ABEF5C64736F6C PUSH4 0x43000807 STOP CALLER "
		},
		"gasEstimates": {
			"creation": {
				"codeDepositCost": "2890800",
				"executionCost": "3197",
				"totalCost": "2893997"
			},
			"external": {
				"CRYSTL()": "223",
				"USDC()": "288",
				"WMATIC()": "223",
				"_safeSwap(StrategyLogic.Settings storage,uint256,address[] storage,address)": "infinite",
				"_safeSwapWmatic(StrategyLogic.Settings storage,uint256,address[] storage,address)": "infinite",
				"buyBackAddress()": "245",
				"convertDustToEarned_(StrategyLogic.Data storage)": "infinite",
				"deposit_(StrategyLogic.Data storage,uint256)": "infinite",
				"earn_(StrategyLogic.Data storage)": "infinite",
				"feeAddress()": "246",
				"feeMax()": "289",
				"feeMaxTotal()": "269",
				"generateRoutingData(StrategyLogic.Data storage)": "264",
				"generateUID(StrategyLogic.Data storage)": "13587",
				"generateUID(address,address,address,address,address,uint24,StratType)": "infinite",
				"makeMaxiCore(mapping(bytes32 => StrategyLogic.Data) storage,address,address,uint24,address)": "infinite",
				"makeMaxiDuo(mapping(bytes32 => StrategyLogic.Data) storage,address,address,address,address,uint24,address)": "infinite",
				"payAllFees(StrategyLogic.Data storage,uint256)": "infinite",
				"resetAllowances(StrategyLogic.Data storage)": "infinite",
				"rewardAddress()": "223",
				"setSettings_(StrategyLogic.Data storage,uint16,uint16,uint16,uint16,uint16,address)": "infinite",
				"vaultSharesTotal(StrategyLogic.Data storage)": "infinite",
				"wantLockedTotal(StrategyLogic.Data storage)": "infinite",
				"withdrawFeeAddress()": "267",
				"withdrawFeeFactorLL()": "246",
				"withdrawFeeFactorMax()": "269",
				"withdraw_(StrategyLogic.Data storage,uint256)": "infinite"
			},
			"internal": {
				"_emergencyVaultWithdraw(struct StrategyLogic.Data storage pointer)": "infinite",
				"_farm(struct StrategyLogic.Data storage pointer)": "infinite",
				"_vaultDeposit(struct StrategyLogic.Data storage pointer,uint256)": "infinite",
				"_vaultHarvest(struct StrategyLogic.Data storage pointer)": "infinite",
				"_vaultWithdraw(struct StrategyLogic.Data storage pointer,uint256)": "infinite",
				"setDefaults(struct StrategyLogic.Data storage pointer)": "infinite"
			}
		},
		"methodIdentifiers": {
			"CRYSTL()": "6cd8de62",
			"USDC()": "89a30271",
			"WMATIC()": "4d95cad9",
			"_safeSwap(StrategyLogic.Settings storage,uint256,address[] storage,address)": "5fc767e2",
			"_safeSwapWmatic(StrategyLogic.Settings storage,uint256,address[] storage,address)": "3054089b",
			"buyBackAddress()": "783478ad",
			"convertDustToEarned_(StrategyLogic.Data storage)": "b114d075",
			"deposit_(StrategyLogic.Data storage,uint256)": "ee83712c",
			"earn_(StrategyLogic.Data storage)": "b801e962",
			"feeAddress()": "41275358",
			"feeMax()": "ffbe9f1e",
			"feeMaxTotal()": "8fefda06",
			"generateRoutingData(StrategyLogic.Data storage)": "d1ed134b",
			"generateUID(StrategyLogic.Data storage)": "8da6d8f0",
			"generateUID(address,address,address,address,address,uint24,StratType)": "b5f9e6b4",
			"makeMaxiCore(mapping(bytes32 => StrategyLogic.Data) storage,address,address,uint24,address)": "b5a465d5",
			"makeMaxiDuo(mapping(bytes32 => StrategyLogic.Data) storage,address,address,address,address,uint24,address)": "9bf6b601",
			"payAllFees(StrategyLogic.Data storage,uint256)": "834bb153",
			"resetAllowances(StrategyLogic.Data storage)": "898bcd8c",
			"rewardAddress()": "8cf57cb9",
			"setSettings_(StrategyLogic.Data storage,uint16,uint16,uint16,uint16,uint16,address)": "9c972aac",
			"vaultSharesTotal(StrategyLogic.Data storage)": "43fec998",
			"wantLockedTotal(StrategyLogic.Data storage)": "e9915f89",
			"withdrawFeeAddress()": "784def8c",
			"withdrawFeeFactorLL()": "866b2018",
			"withdrawFeeFactorMax()": "67057b6c",
			"withdraw_(StrategyLogic.Data storage,uint256)": "a9904cbd"
		}
	},
	"abi": [
		{
			"anonymous": false,
			"inputs": [
				{
					"indexed": false,
					"internalType": "address",
					"name": "_uniRouterAddress",
					"type": "address"
				},
				{
					"indexed": false,
					"internalType": "uint16",
					"name": "_controllerFee",
					"type": "uint16"
				},
				{
					"indexed": false,
					"internalType": "uint16",
					"name": "_rewardRate",
					"type": "uint16"
				},
				{
					"indexed": false,
					"internalType": "uint16",
					"name": "_buyBackRate",
					"type": "uint16"
				},
				{
					"indexed": false,
					"internalType": "uint16",
					"name": "_withdrawFeeFactor",
					"type": "uint16"
				},
				{
					"indexed": false,
					"internalType": "uint16",
					"name": "_tolerance",
					"type": "uint16"
				}
			],
			"name": "SetSettings",
			"type": "event"
		},
		{
			"inputs": [],
			"name": "CRYSTL",
			"outputs": [
				{
					"internalType": "address",
					"name": "",
					"type": "address"
				}
			],
			"stateMutability": "view",
			"type": "function"
		},
		{
			"inputs": [],
			"name": "USDC",
			"outputs": [
				{
					"internalType": "address",
					"name": "",
					"type": "address"
				}
			],
			"stateMutability": "view",
			"type": "function"
		},
		{
			"inputs": [],
			"name": "WMATIC",
			"outputs": [
				{
					"internalType": "address",
					"name": "",
					"type": "address"
				}
			],
			"stateMutability": "view",
			"type": "function"
		},
		{
			"inputs": [],
			"name": "buyBackAddress",
			"outputs": [
				{
					"internalType": "address",
					"name": "",
					"type": "address"
				}
			],
			"stateMutability": "view",
			"type": "function"
		},
		{
			"inputs": [],
			"name": "feeAddress",
			"outputs": [
				{
					"internalType": "address",
					"name": "",
					"type": "address"
				}
			],
			"stateMutability": "view",
			"type": "function"
		},
		{
			"inputs": [],
			"name": "feeMax",
			"outputs": [
				{
					"internalType": "uint256",
					"name": "",
					"type": "uint256"
				}
			],
			"stateMutability": "view",
			"type": "function"
		},
		{
			"inputs": [],
			"name": "feeMaxTotal",
			"outputs": [
				{
					"internalType": "uint256",
					"name": "",
					"type": "uint256"
				}
			],
			"stateMutability": "view",
			"type": "function"
		},
		{
			"inputs": [
				{
					"internalType": "address",
					"name": "_vaultHealer",
					"type": "address"
				},
				{
					"internalType": "address",
					"name": "_want",
					"type": "address"
				},
				{
					"internalType": "address",
					"name": "_earned",
					"type": "address"
				},
				{
					"internalType": "address",
					"name": "_maxiWant",
					"type": "address"
				},
				{
					"internalType": "address",
					"name": "masterChef",
					"type": "address"
				},
				{
					"internalType": "uint24",
					"name": "_pid",
					"type": "uint24"
				},
				{
					"internalType": "enum StratType",
					"name": "_stratType",
					"type": "StratType"
				}
			],
			"name": "generateUID",
			"outputs": [
				{
					"internalType": "bytes32",
					"name": "",
					"type": "bytes32"
				}
			],
			"stateMutability": "pure",
			"type": "function"
		},
		{
			"inputs": [],
			"name": "rewardAddress",
			"outputs": [
				{
					"internalType": "address",
					"name": "",
					"type": "address"
				}
			],
			"stateMutability": "view",
			"type": "function"
		},
		{
			"inputs": [],
			"name": "withdrawFeeAddress",
			"outputs": [
				{
					"internalType": "address",
					"name": "",
					"type": "address"
				}
			],
			"stateMutability": "view",
			"type": "function"
		},
		{
			"inputs": [],
			"name": "withdrawFeeFactorLL",
			"outputs": [
				{
					"internalType": "uint256",
					"name": "",
					"type": "uint256"
				}
			],
			"stateMutability": "view",
			"type": "function"
		},
		{
			"inputs": [],
			"name": "withdrawFeeFactorMax",
			"outputs": [
				{
					"internalType": "uint256",
					"name": "",
					"type": "uint256"
				}
			],
			"stateMutability": "view",
			"type": "function"
		}
	]
}