{
	"data": {
		"bytecode": {
			"linkReferences": {},
			"object": "6080604052436009556000600a556032600b556000600c556101c2600d55612706600e556103b6600f553480156200003657600080fd5b5060405162003bbc38038062003bbc833981016040819052620000599162000d10565b620000643362000305565b600180556002805460088054336001600160a01b0319918216179091558a516007805483166001600160a01b039283161790556020808d0151601b805485169184169190911790556040808e015160068054861691851691909117905560608e01516001600160a81b03199095166101009584168602179586905560808e015160058054909516908416179093558251630dfe168160e01b81529251939094041692630dfe168192600483810193829003018186803b1580156200012757600080fd5b505afa1580156200013c573d6000803e3d6000fd5b505050506040513d601f19601f8201168201806040525081019062000162919062000cb4565b600380546001600160a01b0319166001600160a01b039283161790556002546040805163d21220a760e01b815290516101009092049092169163d21220a7916004808301926020929190829003018186803b158015620001c157600080fd5b505afa158015620001d6573d6000803e3d6000fd5b505050506040513d601f19601f82011682018060405250810190620001fc919062000cb4565b600480546001600160a01b0319166001600160a01b0392909216919091179055601c8a9055601089905586516200023b9060129060208a019062000ac5565b5085516200025190601390602089019062000ac5565b5084516200026790601490602088019062000ac5565b5083516200027d90601590602087019062000ac5565b5082516200029390601690602086019062000ac5565b508151620002a990601790602085019062000ac5565b508051620002bf90601890602084019062000ac5565b50600754620002d7906001600160a01b031662000355565b620002e16200042a565b5050601a805460ff60a01b1916600160a01b1790555062000f2d9650505050505050565b600080546001600160a01b038381166001600160a01b0319831681178455604051919092169283917f8be0079c531659141344cd1fd0a4f28419497f9722a3daafe3b4186f6b6457e09190a35050565b6000546001600160a01b03163314620003b55760405162461bcd60e51b815260206004820181905260248201527f4f776e61626c653a2063616c6c6572206973206e6f7420746865206f776e657260448201526064015b60405180910390fd5b6001600160a01b0381166200041c5760405162461bcd60e51b815260206004820152602660248201527f4f776e61626c653a206e6577206f776e657220697320746865207a65726f206160448201526564647265737360d01b6064820152608401620003ac565b620004278162000305565b50565b601b546002546200045b916001600160a01b036101009092048216911660006200061f602090811b6200174c17901c565b601b546002546200048d916001600160a01b03610100909204821691166000196200078c602090811b620018a817901c565b600654600554620004b9916001600160a01b03918216911660006200061f602090811b6200174c17901c565b600654600554620004e6916001600160a01b0391821691166000196200078c602090811b620018a817901c565b60065460035462000512916001600160a01b03918216911660006200061f602090811b6200174c17901c565b6006546003546200053f916001600160a01b0391821691166000196200078c602090811b620018a817901c565b6006546004546200056b916001600160a01b03918216911660006200061f602090811b6200174c17901c565b60065460045462000598916001600160a01b0391821691166000196200078c602090811b620018a817901c565b620005da732791bca1f2de4661ed88a30c99a7a9449aa8417473917fb15e8aaa12264dcbdc15afef7cd3ce76ba3960006200061f602090811b6200174c17901c565b6200061d732791bca1f2de4661ed88a30c99a7a9449aa8417473917fb15e8aaa12264dcbdc15afef7cd3ce76ba396000196200078c602090811b620018a817901c565b565b801580620006ad5750604051636eb1769f60e11b81523060048201526001600160a01b03838116602483015284169063dd62ed3e9060440160206040518083038186803b1580156200067057600080fd5b505afa15801562000685573d6000803e3d6000fd5b505050506040513d601f19601f82011682018060405250810190620006ab919062000cf6565b155b620007215760405162461bcd60e51b815260206004820152603660248201527f5361666545524332303a20617070726f76652066726f6d206e6f6e2d7a65726f60448201527f20746f206e6f6e2d7a65726f20616c6c6f77616e6365000000000000000000006064820152608401620003ac565b6040516001600160a01b0383166024820152604481018290526200078790849063095ea7b360e01b906064015b60408051808303601f190181529190526020810180516001600160e01b0319939093166001600160e01b03938416179052906200085b16565b505050565b604051636eb1769f60e11b81523060048201526001600160a01b038381166024830152600091839186169063dd62ed3e9060440160206040518083038186803b158015620007d957600080fd5b505afa158015620007ee573d6000803e3d6000fd5b505050506040513d601f19601f8201168201806040525081019062000814919062000cf6565b62000820919062000ec1565b6040516001600160a01b0385166024820152604481018290529091506200085590859063095ea7b360e01b906064016200074e565b50505050565b6000620008b7826040518060400160405280602081526020017f5361666545524332303a206c6f772d6c6576656c2063616c6c206661696c6564815250856001600160a01b03166200093960201b6200196f179092919060201c565b805190915015620007875780806020019051810190620008d8919062000cd2565b620007875760405162461bcd60e51b815260206004820152602a60248201527f5361666545524332303a204552433230206f7065726174696f6e20646964206e6044820152691bdd081cdd58d8d9595960b21b6064820152608401620003ac565b60606200094a848460008562000954565b90505b9392505050565b606082471015620009b75760405162461bcd60e51b815260206004820152602660248201527f416464726573733a20696e73756666696369656e742062616c616e636520666f6044820152651c8818d85b1b60d21b6064820152608401620003ac565b843b62000a075760405162461bcd60e51b815260206004820152601d60248201527f416464726573733a2063616c6c20746f206e6f6e2d636f6e74726163740000006044820152606401620003ac565b600080866001600160a01b0316858760405162000a25919062000e6e565b60006040518083038185875af1925050503d806000811462000a64576040519150601f19603f3d011682016040523d82523d6000602084013e62000a69565b606091505b50909250905062000a7c82828662000a87565b979650505050505050565b6060831562000a985750816200094d565b82511562000aa95782518084602001fd5b8160405162461bcd60e51b8152600401620003ac919062000e8c565b82805482825590600052602060002090810192821562000b1d579160200282015b8281111562000b1d57825182546001600160a01b0319166001600160a01b0390911617825560209092019160019091019062000ae6565b5062000b2b92915062000b2f565b5090565b5b8082111562000b2b576000815560010162000b30565b80516001600160a01b038116811462000b5e57600080fd5b919050565b600082601f83011262000b7557600080fd5b815160206001600160401b038083111562000b945762000b9462000f17565b8260051b604051601f19603f8301168101818110848211171562000bbc5762000bbc62000f17565b6040528481528381019250868401828801850189101562000bdc57600080fd5b600092505b8583101562000c0a5762000bf58162000b46565b84529284019260019290920191840162000be1565b50979650505050505050565b600060a0828403121562000c2957600080fd5b60405160a081016001600160401b038111828210171562000c4e5762000c4e62000f17565b60405290508062000c5f8362000b46565b815262000c6f6020840162000b46565b602082015262000c826040840162000b46565b604082015262000c956060840162000b46565b606082015262000ca86080840162000b46565b60808201525092915050565b60006020828403121562000cc757600080fd5b6200094d8262000b46565b60006020828403121562000ce557600080fd5b815180151581146200094d57600080fd5b60006020828403121562000d0957600080fd5b5051919050565b6000806000806000806000806000806101c08b8d03121562000d3157600080fd5b8a51995060208b0151985062000d4b8c60408d0162000c16565b60e08c01519098506001600160401b038082111562000d6957600080fd5b62000d778e838f0162000b63565b98506101008d015191508082111562000d8f57600080fd5b62000d9d8e838f0162000b63565b97506101208d015191508082111562000db557600080fd5b62000dc38e838f0162000b63565b96506101408d015191508082111562000ddb57600080fd5b62000de98e838f0162000b63565b95506101608d015191508082111562000e0157600080fd5b62000e0f8e838f0162000b63565b94506101808d015191508082111562000e2757600080fd5b62000e358e838f0162000b63565b93506101a08d015191508082111562000e4d57600080fd5b5062000e5c8d828e0162000b63565b9150509295989b9194979a5092959850565b6000825162000e8281846020870162000ee8565b9190910192915050565b602081526000825180602084015262000ead81604085016020870162000ee8565b601f01601f19169190910160400192915050565b6000821982111562000ee357634e487b7160e01b600052601160045260246000fd5b500190565b60005b8381101562000f0557818101518382015260200162000eeb565b83811115620008555750506000910152565b634e487b7160e01b600052604160045260246000fd5b612c7f8062000f3d6000396000f3fe608060405234801561001057600080fd5b50600436106103775760003560e01c80637b0a47ee116101d3578063c11c2e9211610104578063e7198474116100a2578063f2fde38b1161007c578063f2fde38b146106ac578063f3fef3a3146106bf578063ffbd3b1f146106d2578063ffbe9f1e146104e157600080fd5b8063e719847414610678578063e7a036791461068b578063f1068454146106a357600080fd5b8063d389800f116100de578063d389800f14610641578063d62e969d14610649578063d7cb416f1461065c578063dce52dfa1461066f57600080fd5b8063c11c2e9214610613578063c8e3d18b1461061b578063cfad57a21461062e57600080fd5b80638da5cb5b116101715780639872317f1161014b5780639872317f146105c9578063b02381c6146105e4578063b74cd242146105f7578063b77050e71461060057600080fd5b80638da5cb5b1461059c5780638fefda06146105ad57806396e9aff8146105b657600080fd5b806385f02dd6116101ad57806385f02dd61461055c578063866b2018146105655780638811dad01461056e5780638cf57cb91461058157600080fd5b80637b0a47ee146105385780637ff36fbe146105415780638456cb591461055457600080fd5b806346008a07116102ad57806367057b6c1161024b5780637115e9fa116102255780637115e9fa14610506578063715018a614610527578063783478ad1461052f578063784def8c1461044d57600080fd5b806367057b6c146104e157806368f54162146104ea578063693a090b146104f357600080fd5b8063492816831161028757806349281683146104a757806350e15fdd146104ba5780635c975abb146104c357806365a5e30b146104d957600080fd5b806346008a07146104795780634700d3051461048c57806347e7ef241461049457600080fd5b80633220d7321161031a57806340c34b58116102f457806340c34b581461043a578063412753581461044d57806342da4eb31461046857806344a3955e1461047057600080fd5b80633220d732146104155780633505b09f146104285780633f4ba83a1461043257600080fd5b80630fa4e01e116103565780630fa4e01e146103dd578063178a8d07146103e6578063260ab48c146103ef57806330f6cf631461040257600080fd5b80627a2ae31461037c57806302d45457146103ac57806304c9d490146103c7575b600080fd5b61038f61038a3660046128ab565b6106db565b6040516001600160a01b0390911681526020015b60405180910390f35b61038f732791bca1f2de4661ed88a30c99a7a9449aa8417481565b6103cf610705565b6040519081526020016103a3565b6103cf60095481565b6103cf600d5481565b61038f6103fd3660046128ab565b610796565b61038f6104103660046128ab565b6107a6565b60075461038f906001600160a01b031681565b6104306107b6565b005b6104306107f3565b601b5461038f906001600160a01b031681565b61038f735386881b46c37cdd30a748f7771cf95d7b21363781565b6103cf610825565b6103cf600a5481565b60085461038f906001600160a01b031681565b6104306108bd565b6103cf6104a236600461279a565b6108f7565b61038f6104b53660046128ab565b6109f1565b6103cf60115481565b60025460ff1660405190151581526020016103a3565b610430610a01565b6103cf61271081565b6103cf600e5481565b60065461038f906001600160a01b031681565b601a5461051a90600160a01b900460ff1681565b6040516103a391906129eb565b610430610a3e565b61038f61dead81565b6103cf600c5481565b60035461038f906001600160a01b031681565b610430610a72565b6103cf600b5481565b6103cf6126ac81565b61038f61057c3660046128ab565b610aa4565b61038f73917fb15e8aaa12264dcbdc15afef7cd3ce76ba3981565b6000546001600160a01b031661038f565b6103cf6103e881565b61038f6105c43660046128ab565b610ab4565b61038f7376bf0c28e604cc3fe9967c83b3c3f31c213cfe6481565b6104306105f236600461292f565b610ac4565b6103cf6103e381565b61038f61060e3660046128ab565b610cde565b610430610cee565b61038f6106293660046128ab565b610f5c565b61043061063c36600461277f565b610f6c565b610430610fb8565b601a5461038f906001600160a01b031681565b60045461038f906001600160a01b031681565b6103cf60105481565b60055461038f906001600160a01b031681565b60025461038f9061010090046001600160a01b031681565b6103cf601c5481565b6104306106ba36600461277f565b6113fb565b6103cf6106cd36600461279a565b611493565b6103cf600f5481565b601881815481106106eb57600080fd5b6000918252602090912001546001600160a01b0316905081565b601b54601c546040516393f1a40b60e01b8152600481019190915230602482015260009182916001600160a01b03909116906393f1a40b90604401604080518083038186803b15801561075757600080fd5b505afa15801561076b573d6000803e3d6000fd5b505050506040513d601f19601f8201168201806040525081019061078f91906128dd565b5092915050565b601281815481106106eb57600080fd5b601981815481106106eb57600080fd5b6008546001600160a01b031633146107e95760405162461bcd60e51b81526004016107e090612a46565b60405180910390fd5b6107f1611988565b565b6008546001600160a01b0316331461081d5760405162461bcd60e51b81526004016107e090612a46565b6107e9611aef565b600061082f610705565b6002546040516370a0823160e01b81523060048201526101009091046001600160a01b0316906370a082319060240160206040518083038186803b15801561087657600080fd5b505afa15801561088a573d6000803e3d6000fd5b505050506040513d601f19601f820116820180604052508101906108ae91906128c4565b6108b89190612b4f565b905090565b6008546001600160a01b031633146108e75760405162461bcd60e51b81526004016107e090612a46565b6108ef611b82565b6107f1611bda565b600080546001600160a01b031633146109225760405162461bcd60e51b81526004016107e090612a8e565b600260015414156109455760405162461bcd60e51b81526004016107e090612ac3565b600260015561095660025460ff1690565b156109735760405162461bcd60e51b81526004016107e090612a64565b600061097d610825565b60025490915061099d9061010090046001600160a01b0316333086611c3d565b60006109a7611c75565b600a54909150156109ce5781600a54826109c19190612b7b565b6109cb9190612b67565b90505b80600a60008282546109e09190612b4f565b909155505060018055949350505050565b601381815481106106eb57600080fd5b6008546001600160a01b03163314610a2b5760405162461bcd60e51b81526004016107e090612a46565b610a33611aef565b610a3b611c75565b50565b6000546001600160a01b03163314610a685760405162461bcd60e51b81526004016107e090612a8e565b6107f16000611d3b565b6008546001600160a01b03163314610a9c5760405162461bcd60e51b81526004016107e090612a46565b6107f1611b82565b601481815481106106eb57600080fd5b601681815481106106eb57600080fd5b6008546001600160a01b03163314610aee5760405162461bcd60e51b81526004016107e090612a46565b6103e885610afc888a612b4f565b610b069190612b4f565b1115610b455760405162461bcd60e51b815260206004820152600e60248201526d4d617820666565206f662031302560901b60448201526064016107e0565b6126ac841015610b975760405162461bcd60e51b815260206004820152601a60248201527f5f7769746864726177466565466163746f7220746f6f206c6f7700000000000060448201526064016107e0565b612710841115610be95760405162461bcd60e51b815260206004820152601b60248201527f5f7769746864726177466565466163746f7220746f6f2068696768000000000060448201526064016107e0565b6103e3831115610c3b5760405162461bcd60e51b815260206004820152601860248201527f5f736c697070616765466163746f7220746f6f2068696768000000000000000060448201526064016107e0565b600b879055600c869055600d859055600e849055600f8390556010829055600680546001600160a01b0319166001600160a01b0383169081179091556040805189815260208101899052908101879052606081018690526080810185905260a0810184905260c08101919091527f813767a04e11dfab70a5ec48c4fd7c344ab48e62196586790931dc9dfaed97e99060e00160405180910390a150505050505050565b601781815481106106eb57600080fd5b60026001541415610d115760405162461bcd60e51b81526004016107e090612ac3565b6002600155610d2260025460ff1690565b15610d3f5760405162461bcd60e51b81526004016107e090612a64565b6003546040516370a0823160e01b81523060048201526000916001600160a01b0316906370a082319060240160206040518083038186803b158015610d8357600080fd5b505afa158015610d97573d6000803e3d6000fd5b505050506040513d601f19601f82011682018060405250810190610dbb91906128c4565b9050600081118015610dde57506005546003546001600160a01b03908116911614155b15610e4857610e48816017805480602002602001604051908101604052809291908181526020018280548015610e3d57602002820191906000526020600020905b81546001600160a01b03168152600190910190602001808311610e1f575b505050505030611d8b565b600480546040516370a0823160e01b815230928101929092526000916001600160a01b03909116906370a082319060240160206040518083038186803b158015610e9157600080fd5b505afa158015610ea5573d6000803e3d6000fd5b505050506040513d601f19601f82011682018060405250810190610ec991906128c4565b9050600081118015610eec57506005546004546001600160a01b03908116911614155b15610f5457610f54816018805480602002602001604051908101604052809291908181526020018280548015610e3d576020028201919060005260206000209081546001600160a01b03168152600190910190602001808311610e1f57505050505030611d8b565b505060018055565b601581815481106106eb57600080fd5b6008546001600160a01b03163314610f965760405162461bcd60e51b81526004016107e090612a46565b600880546001600160a01b0319166001600160a01b0392909216919091179055565b60026001541415610fdb5760405162461bcd60e51b81526004016107e090612ac3565b6002600155610fec60025460ff1690565b156110095760405162461bcd60e51b81526004016107e090612a64565b6000546001600160a01b031633146110335760405162461bcd60e51b81526004016107e090612a8e565b61103b611f7f565b6005546040516370a0823160e01b81523060048201526000916001600160a01b0316906370a082319060240160206040518083038186803b15801561107f57600080fd5b505afa158015611093573d6000803e3d6000fd5b505050506040513d601f19601f820116820180604052508101906110b791906128c4565b905080156113f4576110c881611fbb565b90506110d381612070565b90506110de816122b2565b6003546005549192506001600160a01b0391821691161461116657611166611107600283612b67565b6015805480602002602001604051908101604052809291908181526020018280548015610e3d576020028201919060005260206000209081546001600160a01b03168152600190910190602001808311610e1f57505050505030611d8b565b6004546005546001600160a01b039081169116146111eb576111eb61118c600283612b67565b6016805480602002602001604051908101604052809291908181526020018280548015610e3d576020028201919060005260206000209081546001600160a01b03168152600190910190602001808311610e1f57505050505030611d8b565b6003546040516370a0823160e01b81523060048201526000916001600160a01b0316906370a082319060240160206040518083038186803b15801561122f57600080fd5b505afa158015611243573d6000803e3d6000fd5b505050506040513d601f19601f8201168201806040525081019061126791906128c4565b600480546040516370a0823160e01b815230928101929092529192506000916001600160a01b0316906370a082319060240160206040518083038186803b1580156112b157600080fd5b505afa1580156112c5573d6000803e3d6000fd5b505050506040513d601f19601f820116820180604052508101906112e991906128c4565b90506000821180156112fb5750600081115b156113e4576006546003546004546001600160a01b039283169263e8e33700928116911685856000803061133142610258612b4f565b60405160e08a901b6001600160e01b03191681526001600160a01b039889166004820152968816602488015260448701959095526064860193909352608485019190915260a484015290921660c482015260e481019190915261010401606060405180830381600087803b1580156113a857600080fd5b505af11580156113bc573d6000803e3d6000fd5b505050506040513d601f19601f820116820180604052508101906113e09190612901565b5050505b436009556113f0611c75565b5050505b5060018055565b6000546001600160a01b031633146114255760405162461bcd60e51b81526004016107e090612a8e565b6001600160a01b03811661148a5760405162461bcd60e51b815260206004820152602660248201527f4f776e61626c653a206e6577206f776e657220697320746865207a65726f206160448201526564647265737360d01b60648201526084016107e0565b610a3b81611d3b565b600080546001600160a01b031633146114be5760405162461bcd60e51b81526004016107e090612a8e565b600260015414156114e15760405162461bcd60e51b81526004016107e090612ac3565b6002600155816115235760405162461bcd60e51b815260206004820152600d60248201526c05f77616e74416d74206973203609c1b60448201526064016107e0565b6002546040516370a0823160e01b815230600482015260009161010090046001600160a01b0316906370a082319060240160206040518083038186803b15801561156c57600080fd5b505afa158015611580573d6000803e3d6000fd5b505050506040513d601f19601f820116820180604052508101906115a491906128c4565b905080831115611642576115c06115bb8285612b9a565b612343565b6002546040516370a0823160e01b81523060048201526101009091046001600160a01b0316906370a082319060240160206040518083038186803b15801561160757600080fd5b505afa15801561161b573d6000803e3d6000fd5b505050506040513d601f19601f8201168201806040525081019061163f91906128c4565b90505b8083111561164e578092505b611656610825565b83111561166857611665610825565b92505b6000611688611675610825565b600a546116829087612b7b565b906123b4565b9050600a548111156116995750600a545b80600a60008282546116ab9190612b9a565b9091555050600e54600090612710906116c49082612b9a565b6116ce9087612b7b565b6116d89190612b67565b90508015611710576002546117109061010090046001600160a01b0316735386881b46c37cdd30a748f7771cf95d7b213637836123e6565b61171a8186612b9a565b60075460025491965061173f9161010090046001600160a01b039081169116876123e6565b5060018055949350505050565b8015806117d55750604051636eb1769f60e11b81523060048201526001600160a01b03838116602483015284169063dd62ed3e9060440160206040518083038186803b15801561179b57600080fd5b505afa1580156117af573d6000803e3d6000fd5b505050506040513d601f19601f820116820180604052508101906117d391906128c4565b155b6118405760405162461bcd60e51b815260206004820152603660248201527f5361666545524332303a20617070726f76652066726f6d206e6f6e2d7a65726f60448201527520746f206e6f6e2d7a65726f20616c6c6f77616e636560501b60648201526084016107e0565b6040516001600160a01b0383166024820152604481018290526118a390849063095ea7b360e01b906064015b60408051601f198184030181529190526020810180516001600160e01b03166001600160e01b031990931692909217909152612416565b505050565b604051636eb1769f60e11b81523060048201526001600160a01b038381166024830152600091839186169063dd62ed3e9060440160206040518083038186803b1580156118f457600080fd5b505afa158015611908573d6000803e3d6000fd5b505050506040513d601f19601f8201168201806040525081019061192c91906128c4565b6119369190612b4f565b6040516001600160a01b03851660248201526044810182905290915061196990859063095ea7b360e01b9060640161186c565b50505050565b606061197e84846000856124e8565b90505b9392505050565b601b546002546119ab916001600160a01b0361010090920482169116600061174c565b601b546002546119cf916001600160a01b03610100909204821691166000196118a8565b6006546005546119ed916001600160a01b039182169116600061174c565b600654600554611a0c916001600160a01b0391821691166000196118a8565b600654600354611a2a916001600160a01b039182169116600061174c565b600654600354611a49916001600160a01b0391821691166000196118a8565b600654600454611a67916001600160a01b039182169116600061174c565b600654600454611a86916001600160a01b0391821691166000196118a8565b611aba732791bca1f2de4661ed88a30c99a7a9449aa8417473917fb15e8aaa12264dcbdc15afef7cd3ce76ba39600061174c565b6107f1732791bca1f2de4661ed88a30c99a7a9449aa8417473917fb15e8aaa12264dcbdc15afef7cd3ce76ba396000196118a8565b60025460ff16611b385760405162461bcd60e51b815260206004820152601460248201527314185d5cd8589b194e881b9bdd081c185d5cd95960621b60448201526064016107e0565b6002805460ff191690557f5db9ee0a495bf2e6ff9c91a7834c1ba4fdd244a5e8aa4e537bd38aeae4b073aa335b6040516001600160a01b03909116815260200160405180910390a1565b60025460ff1615611ba55760405162461bcd60e51b81526004016107e090612a64565b6002805460ff191660011790557f62e78cea01bee320cd4e420270b5ea74000d11b0c9f74754ebdbfc544b05a258611b653390565b601b54601c54604051632989754760e11b81526001600160a01b0390921691635312ea8e91611c0f9160040190815260200190565b600060405180830381600087803b158015611c2957600080fd5b505af1158015611969573d6000803e3d6000fd5b6040516001600160a01b03808516602483015283166044820152606481018290526119699085906323b872dd60e01b9060840161186c565b6002546040516370a0823160e01b815230600482015260009182916101009091046001600160a01b0316906370a082319060240160206040518083038186803b158015611cc157600080fd5b505afa158015611cd5573d6000803e3d6000fd5b505050506040513d601f19601f82011682018060405250810190611cf991906128c4565b905080611d0857600091505090565b6000611d12610705565b9050611d1d82612610565b6000611d27610705565b9050611d338282612b9a565b935050505090565b600080546001600160a01b038381166001600160a01b0319831681178455604051919092169283917f8be0079c531659141344cd1fd0a4f28419497f9722a3daafe3b4186f6b6457e09190a35050565b60065460405163d06ca61f60e01b81526000916001600160a01b03169063d06ca61f90611dbe9087908790600401612afa565b60006040518083038186803b158015611dd657600080fd5b505afa158015611dea573d6000803e3d6000fd5b505050506040513d6000823e601f3d908101601f19168201604052611e1291908101906127c4565b905060008160018351611e259190612b9a565b81518110611e3557611e35612c1d565b602002602001015190507376bf0c28e604cc3fe9967c83b3c3f31c213cfe646001600160a01b03168460018651611e6c9190612b9a565b81518110611e7c57611e7c612c1d565b60200260200101516001600160a01b0316148015611ea457506001600160a01b03831661dead145b15611ec1578060116000828254611ebb9190612b4f565b90915550505b600654600f546001600160a01b03909116906338ed17399087906103e890611ee99086612b7b565b611ef39190612b67565b8787611f0142610258612b4f565b6040518663ffffffff1660e01b8152600401611f21959493929190612b13565b600060405180830381600087803b158015611f3b57600080fd5b505af1158015611f4f573d6000803e3d6000fd5b505050506040513d6000823e601f3d908101601f19168201604052611f7791908101906127c4565b505050505050565b601b54601c54604051630441a3e760e41b81526004810191909152600060248201526001600160a01b039091169063441a3e7090604401611c0f565b600b546000901561206c576000612710600b5484611fd99190612b7b565b611fe39190612b67565b905061205e81601280548060200260200160405190810160405280929190818152602001828054801561203f57602002820191906000526020600020905b81546001600160a01b03168152600190910190602001808311612021575b5050505050735386881b46c37cdd30a748f7771cf95d7b21363761264c565b6120688184612b9a565b9250505b5090565b600c546000901561206c576000612710600c548461208e9190612b7b565b6120989190612b67565b6040516370a0823160e01b8152306004820152909150600090732791bca1f2de4661ed88a30c99a7a9449aa84174906370a082319060240160206040518083038186803b1580156120e857600080fd5b505afa1580156120fc573d6000803e3d6000fd5b505050506040513d601f19601f8201168201806040525081019061212091906128c4565b9050612185826013805480602002602001604051908101604052809291908181526020018280548015610e3d576020028201919060005260206000209081546001600160a01b03168152600190910190602001808311610e1f57505050505030611d8b565b6040516370a0823160e01b81523060048201526000908290732791bca1f2de4661ed88a30c99a7a9449aa84174906370a082319060240160206040518083038186803b1580156121d457600080fd5b505afa1580156121e8573d6000803e3d6000fd5b505050506040513d601f19601f8201168201806040525081019061220c91906128c4565b6122169190612b9a565b604051631e2720ff60e01b81526004810182905290915073917fb15e8aaa12264dcbdc15afef7cd3ce76ba3990631e2720ff90602401602060405180830381600087803b15801561226657600080fd5b505af115801561227a573d6000803e3d6000fd5b505050506040513d601f19601f8201168201806040525081019061229e9190612889565b506122a98386612b9a565b94505050505090565b600d546000901561206c576000612710600d54846122d09190612b7b565b6122da9190612b67565b905061205e81601480548060200260200160405190810160405280929190818152602001828054801561233657602002820191906000526020600020905b81546001600160a01b03168152600190910190602001808311612318575b505050505061dead611d8b565b601b54601c54604051630441a3e760e41b81526001600160a01b039092169163441a3e709161237f918590600401918252602082015260400190565b600060405180830381600087803b15801561239957600080fd5b505af11580156123ad573d6000803e3d6000fd5b5050505050565b60006123c08284612bdd565b156123cc5760016123cf565b60005b60ff166123dc8385612b67565b6119819190612b4f565b6040516001600160a01b0383166024820152604481018290526118a390849063a9059cbb60e01b9060640161186c565b600061246b826040518060400160405280602081526020017f5361666545524332303a206c6f772d6c6576656c2063616c6c206661696c6564815250856001600160a01b031661196f9092919063ffffffff16565b8051909150156118a357808060200190518101906124899190612889565b6118a35760405162461bcd60e51b815260206004820152602a60248201527f5361666545524332303a204552433230206f7065726174696f6e20646964206e6044820152691bdd081cdd58d8d9595960b21b60648201526084016107e0565b6060824710156125495760405162461bcd60e51b815260206004820152602660248201527f416464726573733a20696e73756666696369656e742062616c616e636520666f6044820152651c8818d85b1b60d21b60648201526084016107e0565b843b6125975760405162461bcd60e51b815260206004820152601d60248201527f416464726573733a2063616c6c20746f206e6f6e2d636f6e747261637400000060448201526064016107e0565b600080866001600160a01b031685876040516125b391906129cf565b60006040518083038185875af1925050503d80600081146125f0576040519150601f19603f3d011682016040523d82523d6000602084013e6125f5565b606091505b509150915061260582828661272a565b979650505050505050565b601b54601c54604051631c57762b60e31b81526001600160a01b039092169163e2bbb1589161237f918590600401918252602082015260400190565b60065460405163d06ca61f60e01b81526000916001600160a01b03169063d06ca61f9061267f9087908790600401612afa565b60006040518083038186803b15801561269757600080fd5b505afa1580156126ab573d6000803e3d6000fd5b505050506040513d6000823e601f3d908101601f191682016040526126d391908101906127c4565b9050600081600183516126e69190612b9a565b815181106126f6576126f6612c1d565b6020908102919091010151600654600f549192506001600160a01b0316906318cbafe59087906103e890611ee99086612b7b565b60608315612739575081611981565b8251156127495782518084602001fd5b8160405162461bcd60e51b81526004016107e09190612a13565b80356001600160a01b038116811461277a57600080fd5b919050565b60006020828403121561279157600080fd5b61198182612763565b600080604083850312156127ad57600080fd5b6127b683612763565b946020939093013593505050565b600060208083850312156127d757600080fd5b825167ffffffffffffffff808211156127ef57600080fd5b818501915085601f83011261280357600080fd5b81518181111561281557612815612c33565b8060051b604051601f19603f8301168101818110858211171561283a5761283a612c33565b604052828152858101935084860182860187018a101561285957600080fd5b600095505b8386101561287c57805185526001959095019493860193860161285e565b5098975050505050505050565b60006020828403121561289b57600080fd5b8151801515811461198157600080fd5b6000602082840312156128bd57600080fd5b5035919050565b6000602082840312156128d657600080fd5b5051919050565b600080604083850312156128f057600080fd5b505080516020909101519092909150565b60008060006060848603121561291657600080fd5b8351925060208401519150604084015190509250925092565b600080600080600080600060e0888a03121561294a57600080fd5b873596506020880135955060408801359450606088013593506080880135925060a0880135915061297d60c08901612763565b905092959891949750929550565b600081518084526020808501945080840160005b838110156129c45781516001600160a01b03168752958201959082019060010161299f565b509495945050505050565b600082516129e1818460208701612bb1565b9190910192915050565b6020810160048310612a0d57634e487b7160e01b600052602160045260246000fd5b91905290565b6020815260008251806020840152612a32816040850160208701612bb1565b601f01601f19169190910160400192915050565b60208082526004908201526310b3b7bb60e11b604082015260600190565b60208082526010908201526f14185d5cd8589b194e881c185d5cd95960821b604082015260600190565b6020808252818101527f4f776e61626c653a2063616c6c6572206973206e6f7420746865206f776e6572604082015260600190565b6020808252601f908201527f5265656e7472616e637947756172643a207265656e7472616e742063616c6c00604082015260600190565b82815260406020820152600061197e604083018461298b565b85815284602082015260a060408201526000612b3260a083018661298b565b6001600160a01b0394909416606083015250608001529392505050565b60008219821115612b6257612b62612bf1565b500190565b600082612b7657612b76612c07565b500490565b6000816000190483118215151615612b9557612b95612bf1565b500290565b600082821015612bac57612bac612bf1565b500390565b60005b83811015612bcc578181015183820152602001612bb4565b838111156119695750506000910152565b600082612bec57612bec612c07565b500690565b634e487b7160e01b600052601160045260246000fd5b634e487b7160e01b600052601260045260246000fd5b634e487b7160e01b600052603260045260246000fd5b634e487b7160e01b600052604160045260246000fdfea26469706673582212209929c1e61085b3a94a2dbc53f792d76200b3ecaa5ca8704af83450f23c8bdab864736f6c63430008070033",
			"opcodes": "PUSH1 0x80 PUSH1 0x40 MSTORE NUMBER PUSH1 0x9 SSTORE PUSH1 0x0 PUSH1 0xA SSTORE PUSH1 0x32 PUSH1 0xB SSTORE PUSH1 0x0 PUSH1 0xC SSTORE PUSH2 0x1C2 PUSH1 0xD SSTORE PUSH2 0x2706 PUSH1 0xE SSTORE PUSH2 0x3B6 PUSH1 0xF SSTORE CALLVALUE DUP1 ISZERO PUSH3 0x36 JUMPI PUSH1 0x0 DUP1 REVERT JUMPDEST POP PUSH1 0x40 MLOAD PUSH3 0x3BBC CODESIZE SUB DUP1 PUSH3 0x3BBC DUP4 CODECOPY DUP2 ADD PUSH1 0x40 DUP2 SWAP1 MSTORE PUSH3 0x59 SWAP2 PUSH3 0xD10 JUMP JUMPDEST PUSH3 0x64 CALLER PUSH3 0x305 JUMP JUMPDEST PUSH1 0x1 DUP1 SSTORE PUSH1 0x2 DUP1 SLOAD PUSH1 0x8 DUP1 SLOAD CALLER PUSH1 0x1 PUSH1 0x1 PUSH1 0xA0 SHL SUB NOT SWAP2 DUP3 AND OR SWAP1 SWAP2 SSTORE DUP11 MLOAD PUSH1 0x7 DUP1 SLOAD DUP4 AND PUSH1 0x1 PUSH1 0x1 PUSH1 0xA0 SHL SUB SWAP3 DUP4 AND OR SWAP1 SSTORE PUSH1 0x20 DUP1 DUP14 ADD MLOAD PUSH1 0x1B DUP1 SLOAD DUP6 AND SWAP2 DUP5 AND SWAP2 SWAP1 SWAP2 OR SWAP1 SSTORE PUSH1 0x40 DUP1 DUP15 ADD MLOAD PUSH1 0x6 DUP1 SLOAD DUP7 AND SWAP2 DUP6 AND SWAP2 SWAP1 SWAP2 OR SWAP1 SSTORE PUSH1 0x60 DUP15 ADD MLOAD PUSH1 0x1 PUSH1 0x1 PUSH1 0xA8 SHL SUB NOT SWAP1 SWAP6 AND PUSH2 0x100 SWAP6 DUP5 AND DUP7 MUL OR SWAP6 DUP7 SWAP1 SSTORE PUSH1 0x80 DUP15 ADD MLOAD PUSH1 0x5 DUP1 SLOAD SWAP1 SWAP6 AND SWAP1 DUP5 AND OR SWAP1 SWAP4 SSTORE DUP3 MLOAD PUSH4 0xDFE1681 PUSH1 0xE0 SHL DUP2 MSTORE SWAP3 MLOAD SWAP4 SWAP1 SWAP5 DIV AND SWAP3 PUSH4 0xDFE1681 SWAP3 PUSH1 0x4 DUP4 DUP2 ADD SWAP4 DUP3 SWAP1 SUB ADD DUP2 DUP7 DUP1 EXTCODESIZE ISZERO DUP1 ISZERO PUSH3 0x127 JUMPI PUSH1 0x0 DUP1 REVERT JUMPDEST POP GAS STATICCALL ISZERO DUP1 ISZERO PUSH3 0x13C JUMPI RETURNDATASIZE PUSH1 0x0 DUP1 RETURNDATACOPY RETURNDATASIZE PUSH1 0x0 REVERT JUMPDEST POP POP POP POP PUSH1 0x40 MLOAD RETURNDATASIZE PUSH1 0x1F NOT PUSH1 0x1F DUP3 ADD AND DUP3 ADD DUP1 PUSH1 0x40 MSTORE POP DUP2 ADD SWAP1 PUSH3 0x162 SWAP2 SWAP1 PUSH3 0xCB4 JUMP JUMPDEST PUSH1 0x3 DUP1 SLOAD PUSH1 0x1 PUSH1 0x1 PUSH1 0xA0 SHL SUB NOT AND PUSH1 0x1 PUSH1 0x1 PUSH1 0xA0 SHL SUB SWAP3 DUP4 AND OR SWAP1 SSTORE PUSH1 0x2 SLOAD PUSH1 0x40 DUP1 MLOAD PUSH4 0xD21220A7 PUSH1 0xE0 SHL DUP2 MSTORE SWAP1 MLOAD PUSH2 0x100 SWAP1 SWAP3 DIV SWAP1 SWAP3 AND SWAP2 PUSH4 0xD21220A7 SWAP2 PUSH1 0x4 DUP1 DUP4 ADD SWAP3 PUSH1 0x20 SWAP3 SWAP2 SWAP1 DUP3 SWAP1 SUB ADD DUP2 DUP7 DUP1 EXTCODESIZE ISZERO DUP1 ISZERO PUSH3 0x1C1 JUMPI PUSH1 0x0 DUP1 REVERT JUMPDEST POP GAS STATICCALL ISZERO DUP1 ISZERO PUSH3 0x1D6 JUMPI RETURNDATASIZE PUSH1 0x0 DUP1 RETURNDATACOPY RETURNDATASIZE PUSH1 0x0 REVERT JUMPDEST POP POP POP POP PUSH1 0x40 MLOAD RETURNDATASIZE PUSH1 0x1F NOT PUSH1 0x1F DUP3 ADD AND DUP3 ADD DUP1 PUSH1 0x40 MSTORE POP DUP2 ADD SWAP1 PUSH3 0x1FC SWAP2 SWAP1 PUSH3 0xCB4 JUMP JUMPDEST PUSH1 0x4 DUP1 SLOAD PUSH1 0x1 PUSH1 0x1 PUSH1 0xA0 SHL SUB NOT AND PUSH1 0x1 PUSH1 0x1 PUSH1 0xA0 SHL SUB SWAP3 SWAP1 SWAP3 AND SWAP2 SWAP1 SWAP2 OR SWAP1 SSTORE PUSH1 0x1C DUP11 SWAP1 SSTORE PUSH1 0x10 DUP10 SWAP1 SSTORE DUP7 MLOAD PUSH3 0x23B SWAP1 PUSH1 0x12 SWAP1 PUSH1 0x20 DUP11 ADD SWAP1 PUSH3 0xAC5 JUMP JUMPDEST POP DUP6 MLOAD PUSH3 0x251 SWAP1 PUSH1 0x13 SWAP1 PUSH1 0x20 DUP10 ADD SWAP1 PUSH3 0xAC5 JUMP JUMPDEST POP DUP5 MLOAD PUSH3 0x267 SWAP1 PUSH1 0x14 SWAP1 PUSH1 0x20 DUP9 ADD SWAP1 PUSH3 0xAC5 JUMP JUMPDEST POP DUP4 MLOAD PUSH3 0x27D SWAP1 PUSH1 0x15 SWAP1 PUSH1 0x20 DUP8 ADD SWAP1 PUSH3 0xAC5 JUMP JUMPDEST POP DUP3 MLOAD PUSH3 0x293 SWAP1 PUSH1 0x16 SWAP1 PUSH1 0x20 DUP7 ADD SWAP1 PUSH3 0xAC5 JUMP JUMPDEST POP DUP2 MLOAD PUSH3 0x2A9 SWAP1 PUSH1 0x17 SWAP1 PUSH1 0x20 DUP6 ADD SWAP1 PUSH3 0xAC5 JUMP JUMPDEST POP DUP1 MLOAD PUSH3 0x2BF SWAP1 PUSH1 0x18 SWAP1 PUSH1 0x20 DUP5 ADD SWAP1 PUSH3 0xAC5 JUMP JUMPDEST POP PUSH1 0x7 SLOAD PUSH3 0x2D7 SWAP1 PUSH1 0x1 PUSH1 0x1 PUSH1 0xA0 SHL SUB AND PUSH3 0x355 JUMP JUMPDEST PUSH3 0x2E1 PUSH3 0x42A JUMP JUMPDEST POP POP PUSH1 0x1A DUP1 SLOAD PUSH1 0xFF PUSH1 0xA0 SHL NOT AND PUSH1 0x1 PUSH1 0xA0 SHL OR SWAP1 SSTORE POP PUSH3 0xF2D SWAP7 POP POP POP POP POP POP POP JUMP JUMPDEST PUSH1 0x0 DUP1 SLOAD PUSH1 0x1 PUSH1 0x1 PUSH1 0xA0 SHL SUB DUP4 DUP2 AND PUSH1 0x1 PUSH1 0x1 PUSH1 0xA0 SHL SUB NOT DUP4 AND DUP2 OR DUP5 SSTORE PUSH1 0x40 MLOAD SWAP2 SWAP1 SWAP3 AND SWAP3 DUP4 SWAP2 PUSH32 0x8BE0079C531659141344CD1FD0A4F28419497F9722A3DAAFE3B4186F6B6457E0 SWAP2 SWAP1 LOG3 POP POP JUMP JUMPDEST PUSH1 0x0 SLOAD PUSH1 0x1 PUSH1 0x1 PUSH1 0xA0 SHL SUB AND CALLER EQ PUSH3 0x3B5 JUMPI PUSH1 0x40 MLOAD PUSH3 0x461BCD PUSH1 0xE5 SHL DUP2 MSTORE PUSH1 0x20 PUSH1 0x4 DUP3 ADD DUP2 SWAP1 MSTORE PUSH1 0x24 DUP3 ADD MSTORE PUSH32 0x4F776E61626C653A2063616C6C6572206973206E6F7420746865206F776E6572 PUSH1 0x44 DUP3 ADD MSTORE PUSH1 0x64 ADD JUMPDEST PUSH1 0x40 MLOAD DUP1 SWAP2 SUB SWAP1 REVERT JUMPDEST PUSH1 0x1 PUSH1 0x1 PUSH1 0xA0 SHL SUB DUP2 AND PUSH3 0x41C JUMPI PUSH1 0x40 MLOAD PUSH3 0x461BCD PUSH1 0xE5 SHL DUP2 MSTORE PUSH1 0x20 PUSH1 0x4 DUP3 ADD MSTORE PUSH1 0x26 PUSH1 0x24 DUP3 ADD MSTORE PUSH32 0x4F776E61626C653A206E6577206F776E657220697320746865207A65726F2061 PUSH1 0x44 DUP3 ADD MSTORE PUSH6 0x646472657373 PUSH1 0xD0 SHL PUSH1 0x64 DUP3 ADD MSTORE PUSH1 0x84 ADD PUSH3 0x3AC JUMP JUMPDEST PUSH3 0x427 DUP2 PUSH3 0x305 JUMP JUMPDEST POP JUMP JUMPDEST PUSH1 0x1B SLOAD PUSH1 0x2 SLOAD PUSH3 0x45B SWAP2 PUSH1 0x1 PUSH1 0x1 PUSH1 0xA0 SHL SUB PUSH2 0x100 SWAP1 SWAP3 DIV DUP3 AND SWAP2 AND PUSH1 0x0 PUSH3 0x61F PUSH1 0x20 SWAP1 DUP2 SHL PUSH3 0x174C OR SWAP1 SHR JUMP JUMPDEST PUSH1 0x1B SLOAD PUSH1 0x2 SLOAD PUSH3 0x48D SWAP2 PUSH1 0x1 PUSH1 0x1 PUSH1 0xA0 SHL SUB PUSH2 0x100 SWAP1 SWAP3 DIV DUP3 AND SWAP2 AND PUSH1 0x0 NOT PUSH3 0x78C PUSH1 0x20 SWAP1 DUP2 SHL PUSH3 0x18A8 OR SWAP1 SHR JUMP JUMPDEST PUSH1 0x6 SLOAD PUSH1 0x5 SLOAD PUSH3 0x4B9 SWAP2 PUSH1 0x1 PUSH1 0x1 PUSH1 0xA0 SHL SUB SWAP2 DUP3 AND SWAP2 AND PUSH1 0x0 PUSH3 0x61F PUSH1 0x20 SWAP1 DUP2 SHL PUSH3 0x174C OR SWAP1 SHR JUMP JUMPDEST PUSH1 0x6 SLOAD PUSH1 0x5 SLOAD PUSH3 0x4E6 SWAP2 PUSH1 0x1 PUSH1 0x1 PUSH1 0xA0 SHL SUB SWAP2 DUP3 AND SWAP2 AND PUSH1 0x0 NOT PUSH3 0x78C PUSH1 0x20 SWAP1 DUP2 SHL PUSH3 0x18A8 OR SWAP1 SHR JUMP JUMPDEST PUSH1 0x6 SLOAD PUSH1 0x3 SLOAD PUSH3 0x512 SWAP2 PUSH1 0x1 PUSH1 0x1 PUSH1 0xA0 SHL SUB SWAP2 DUP3 AND SWAP2 AND PUSH1 0x0 PUSH3 0x61F PUSH1 0x20 SWAP1 DUP2 SHL PUSH3 0x174C OR SWAP1 SHR JUMP JUMPDEST PUSH1 0x6 SLOAD PUSH1 0x3 SLOAD PUSH3 0x53F SWAP2 PUSH1 0x1 PUSH1 0x1 PUSH1 0xA0 SHL SUB SWAP2 DUP3 AND SWAP2 AND PUSH1 0x0 NOT PUSH3 0x78C PUSH1 0x20 SWAP1 DUP2 SHL PUSH3 0x18A8 OR SWAP1 SHR JUMP JUMPDEST PUSH1 0x6 SLOAD PUSH1 0x4 SLOAD PUSH3 0x56B SWAP2 PUSH1 0x1 PUSH1 0x1 PUSH1 0xA0 SHL SUB SWAP2 DUP3 AND SWAP2 AND PUSH1 0x0 PUSH3 0x61F PUSH1 0x20 SWAP1 DUP2 SHL PUSH3 0x174C OR SWAP1 SHR JUMP JUMPDEST PUSH1 0x6 SLOAD PUSH1 0x4 SLOAD PUSH3 0x598 SWAP2 PUSH1 0x1 PUSH1 0x1 PUSH1 0xA0 SHL SUB SWAP2 DUP3 AND SWAP2 AND PUSH1 0x0 NOT PUSH3 0x78C PUSH1 0x20 SWAP1 DUP2 SHL PUSH3 0x18A8 OR SWAP1 SHR JUMP JUMPDEST PUSH3 0x5DA PUSH20 0x2791BCA1F2DE4661ED88A30C99A7A9449AA84174 PUSH20 0x917FB15E8AAA12264DCBDC15AFEF7CD3CE76BA39 PUSH1 0x0 PUSH3 0x61F PUSH1 0x20 SWAP1 DUP2 SHL PUSH3 0x174C OR SWAP1 SHR JUMP JUMPDEST PUSH3 0x61D PUSH20 0x2791BCA1F2DE4661ED88A30C99A7A9449AA84174 PUSH20 0x917FB15E8AAA12264DCBDC15AFEF7CD3CE76BA39 PUSH1 0x0 NOT PUSH3 0x78C PUSH1 0x20 SWAP1 DUP2 SHL PUSH3 0x18A8 OR SWAP1 SHR JUMP JUMPDEST JUMP JUMPDEST DUP1 ISZERO DUP1 PUSH3 0x6AD JUMPI POP PUSH1 0x40 MLOAD PUSH4 0x6EB1769F PUSH1 0xE1 SHL DUP2 MSTORE ADDRESS PUSH1 0x4 DUP3 ADD MSTORE PUSH1 0x1 PUSH1 0x1 PUSH1 0xA0 SHL SUB DUP4 DUP2 AND PUSH1 0x24 DUP4 ADD MSTORE DUP5 AND SWAP1 PUSH4 0xDD62ED3E SWAP1 PUSH1 0x44 ADD PUSH1 0x20 PUSH1 0x40 MLOAD DUP1 DUP4 SUB DUP2 DUP7 DUP1 EXTCODESIZE ISZERO DUP1 ISZERO PUSH3 0x670 JUMPI PUSH1 0x0 DUP1 REVERT JUMPDEST POP GAS STATICCALL ISZERO DUP1 ISZERO PUSH3 0x685 JUMPI RETURNDATASIZE PUSH1 0x0 DUP1 RETURNDATACOPY RETURNDATASIZE PUSH1 0x0 REVERT JUMPDEST POP POP POP POP PUSH1 0x40 MLOAD RETURNDATASIZE PUSH1 0x1F NOT PUSH1 0x1F DUP3 ADD AND DUP3 ADD DUP1 PUSH1 0x40 MSTORE POP DUP2 ADD SWAP1 PUSH3 0x6AB SWAP2 SWAP1 PUSH3 0xCF6 JUMP JUMPDEST ISZERO JUMPDEST PUSH3 0x721 JUMPI PUSH1 0x40 MLOAD PUSH3 0x461BCD PUSH1 0xE5 SHL DUP2 MSTORE PUSH1 0x20 PUSH1 0x4 DUP3 ADD MSTORE PUSH1 0x36 PUSH1 0x24 DUP3 ADD MSTORE PUSH32 0x5361666545524332303A20617070726F76652066726F6D206E6F6E2D7A65726F PUSH1 0x44 DUP3 ADD MSTORE PUSH32 0x20746F206E6F6E2D7A65726F20616C6C6F77616E636500000000000000000000 PUSH1 0x64 DUP3 ADD MSTORE PUSH1 0x84 ADD PUSH3 0x3AC JUMP JUMPDEST PUSH1 0x40 MLOAD PUSH1 0x1 PUSH1 0x1 PUSH1 0xA0 SHL SUB DUP4 AND PUSH1 0x24 DUP3 ADD MSTORE PUSH1 0x44 DUP2 ADD DUP3 SWAP1 MSTORE PUSH3 0x787 SWAP1 DUP5 SWAP1 PUSH4 0x95EA7B3 PUSH1 0xE0 SHL SWAP1 PUSH1 0x64 ADD JUMPDEST PUSH1 0x40 DUP1 MLOAD DUP1 DUP4 SUB PUSH1 0x1F NOT ADD DUP2 MSTORE SWAP2 SWAP1 MSTORE PUSH1 0x20 DUP2 ADD DUP1 MLOAD PUSH1 0x1 PUSH1 0x1 PUSH1 0xE0 SHL SUB NOT SWAP4 SWAP1 SWAP4 AND PUSH1 0x1 PUSH1 0x1 PUSH1 0xE0 SHL SUB SWAP4 DUP5 AND OR SWAP1 MSTORE SWAP1 PUSH3 0x85B AND JUMP JUMPDEST POP POP POP JUMP JUMPDEST PUSH1 0x40 MLOAD PUSH4 0x6EB1769F PUSH1 0xE1 SHL DUP2 MSTORE ADDRESS PUSH1 0x4 DUP3 ADD MSTORE PUSH1 0x1 PUSH1 0x1 PUSH1 0xA0 SHL SUB DUP4 DUP2 AND PUSH1 0x24 DUP4 ADD MSTORE PUSH1 0x0 SWAP2 DUP4 SWAP2 DUP7 AND SWAP1 PUSH4 0xDD62ED3E SWAP1 PUSH1 0x44 ADD PUSH1 0x20 PUSH1 0x40 MLOAD DUP1 DUP4 SUB DUP2 DUP7 DUP1 EXTCODESIZE ISZERO DUP1 ISZERO PUSH3 0x7D9 JUMPI PUSH1 0x0 DUP1 REVERT JUMPDEST POP GAS STATICCALL ISZERO DUP1 ISZERO PUSH3 0x7EE JUMPI RETURNDATASIZE PUSH1 0x0 DUP1 RETURNDATACOPY RETURNDATASIZE PUSH1 0x0 REVERT JUMPDEST POP POP POP POP PUSH1 0x40 MLOAD RETURNDATASIZE PUSH1 0x1F NOT PUSH1 0x1F DUP3 ADD AND DUP3 ADD DUP1 PUSH1 0x40 MSTORE POP DUP2 ADD SWAP1 PUSH3 0x814 SWAP2 SWAP1 PUSH3 0xCF6 JUMP JUMPDEST PUSH3 0x820 SWAP2 SWAP1 PUSH3 0xEC1 JUMP JUMPDEST PUSH1 0x40 MLOAD PUSH1 0x1 PUSH1 0x1 PUSH1 0xA0 SHL SUB DUP6 AND PUSH1 0x24 DUP3 ADD MSTORE PUSH1 0x44 DUP2 ADD DUP3 SWAP1 MSTORE SWAP1 SWAP2 POP PUSH3 0x855 SWAP1 DUP6 SWAP1 PUSH4 0x95EA7B3 PUSH1 0xE0 SHL SWAP1 PUSH1 0x64 ADD PUSH3 0x74E JUMP JUMPDEST POP POP POP POP JUMP JUMPDEST PUSH1 0x0 PUSH3 0x8B7 DUP3 PUSH1 0x40 MLOAD DUP1 PUSH1 0x40 ADD PUSH1 0x40 MSTORE DUP1 PUSH1 0x20 DUP2 MSTORE PUSH1 0x20 ADD PUSH32 0x5361666545524332303A206C6F772D6C6576656C2063616C6C206661696C6564 DUP2 MSTORE POP DUP6 PUSH1 0x1 PUSH1 0x1 PUSH1 0xA0 SHL SUB AND PUSH3 0x939 PUSH1 0x20 SHL PUSH3 0x196F OR SWAP1 SWAP3 SWAP2 SWAP1 PUSH1 0x20 SHR JUMP JUMPDEST DUP1 MLOAD SWAP1 SWAP2 POP ISZERO PUSH3 0x787 JUMPI DUP1 DUP1 PUSH1 0x20 ADD SWAP1 MLOAD DUP2 ADD SWAP1 PUSH3 0x8D8 SWAP2 SWAP1 PUSH3 0xCD2 JUMP JUMPDEST PUSH3 0x787 JUMPI PUSH1 0x40 MLOAD PUSH3 0x461BCD PUSH1 0xE5 SHL DUP2 MSTORE PUSH1 0x20 PUSH1 0x4 DUP3 ADD MSTORE PUSH1 0x2A PUSH1 0x24 DUP3 ADD MSTORE PUSH32 0x5361666545524332303A204552433230206F7065726174696F6E20646964206E PUSH1 0x44 DUP3 ADD MSTORE PUSH10 0x1BDD081CDD58D8D95959 PUSH1 0xB2 SHL PUSH1 0x64 DUP3 ADD MSTORE PUSH1 0x84 ADD PUSH3 0x3AC JUMP JUMPDEST PUSH1 0x60 PUSH3 0x94A DUP5 DUP5 PUSH1 0x0 DUP6 PUSH3 0x954 JUMP JUMPDEST SWAP1 POP JUMPDEST SWAP4 SWAP3 POP POP POP JUMP JUMPDEST PUSH1 0x60 DUP3 SELFBALANCE LT ISZERO PUSH3 0x9B7 JUMPI PUSH1 0x40 MLOAD PUSH3 0x461BCD PUSH1 0xE5 SHL DUP2 MSTORE PUSH1 0x20 PUSH1 0x4 DUP3 ADD MSTORE PUSH1 0x26 PUSH1 0x24 DUP3 ADD MSTORE PUSH32 0x416464726573733A20696E73756666696369656E742062616C616E636520666F PUSH1 0x44 DUP3 ADD MSTORE PUSH6 0x1C8818D85B1B PUSH1 0xD2 SHL PUSH1 0x64 DUP3 ADD MSTORE PUSH1 0x84 ADD PUSH3 0x3AC JUMP JUMPDEST DUP5 EXTCODESIZE PUSH3 0xA07 JUMPI PUSH1 0x40 MLOAD PUSH3 0x461BCD PUSH1 0xE5 SHL DUP2 MSTORE PUSH1 0x20 PUSH1 0x4 DUP3 ADD MSTORE PUSH1 0x1D PUSH1 0x24 DUP3 ADD MSTORE PUSH32 0x416464726573733A2063616C6C20746F206E6F6E2D636F6E7472616374000000 PUSH1 0x44 DUP3 ADD MSTORE PUSH1 0x64 ADD PUSH3 0x3AC JUMP JUMPDEST PUSH1 0x0 DUP1 DUP7 PUSH1 0x1 PUSH1 0x1 PUSH1 0xA0 SHL SUB AND DUP6 DUP8 PUSH1 0x40 MLOAD PUSH3 0xA25 SWAP2 SWAP1 PUSH3 0xE6E JUMP JUMPDEST PUSH1 0x0 PUSH1 0x40 MLOAD DUP1 DUP4 SUB DUP2 DUP6 DUP8 GAS CALL SWAP3 POP POP POP RETURNDATASIZE DUP1 PUSH1 0x0 DUP2 EQ PUSH3 0xA64 JUMPI PUSH1 0x40 MLOAD SWAP2 POP PUSH1 0x1F NOT PUSH1 0x3F RETURNDATASIZE ADD AND DUP3 ADD PUSH1 0x40 MSTORE RETURNDATASIZE DUP3 MSTORE RETURNDATASIZE PUSH1 0x0 PUSH1 0x20 DUP5 ADD RETURNDATACOPY PUSH3 0xA69 JUMP JUMPDEST PUSH1 0x60 SWAP2 POP JUMPDEST POP SWAP1 SWAP3 POP SWAP1 POP PUSH3 0xA7C DUP3 DUP3 DUP7 PUSH3 0xA87 JUMP JUMPDEST SWAP8 SWAP7 POP POP POP POP POP POP POP JUMP JUMPDEST PUSH1 0x60 DUP4 ISZERO PUSH3 0xA98 JUMPI POP DUP2 PUSH3 0x94D JUMP JUMPDEST DUP3 MLOAD ISZERO PUSH3 0xAA9 JUMPI DUP3 MLOAD DUP1 DUP5 PUSH1 0x20 ADD REVERT JUMPDEST DUP2 PUSH1 0x40 MLOAD PUSH3 0x461BCD PUSH1 0xE5 SHL DUP2 MSTORE PUSH1 0x4 ADD PUSH3 0x3AC SWAP2 SWAP1 PUSH3 0xE8C JUMP JUMPDEST DUP3 DUP1 SLOAD DUP3 DUP3 SSTORE SWAP1 PUSH1 0x0 MSTORE PUSH1 0x20 PUSH1 0x0 KECCAK256 SWAP1 DUP2 ADD SWAP3 DUP3 ISZERO PUSH3 0xB1D JUMPI SWAP2 PUSH1 0x20 MUL DUP3 ADD JUMPDEST DUP3 DUP2 GT ISZERO PUSH3 0xB1D JUMPI DUP3 MLOAD DUP3 SLOAD PUSH1 0x1 PUSH1 0x1 PUSH1 0xA0 SHL SUB NOT AND PUSH1 0x1 PUSH1 0x1 PUSH1 0xA0 SHL SUB SWAP1 SWAP2 AND OR DUP3 SSTORE PUSH1 0x20 SWAP1 SWAP3 ADD SWAP2 PUSH1 0x1 SWAP1 SWAP2 ADD SWAP1 PUSH3 0xAE6 JUMP JUMPDEST POP PUSH3 0xB2B SWAP3 SWAP2 POP PUSH3 0xB2F JUMP JUMPDEST POP SWAP1 JUMP JUMPDEST JUMPDEST DUP1 DUP3 GT ISZERO PUSH3 0xB2B JUMPI PUSH1 0x0 DUP2 SSTORE PUSH1 0x1 ADD PUSH3 0xB30 JUMP JUMPDEST DUP1 MLOAD PUSH1 0x1 PUSH1 0x1 PUSH1 0xA0 SHL SUB DUP2 AND DUP2 EQ PUSH3 0xB5E JUMPI PUSH1 0x0 DUP1 REVERT JUMPDEST SWAP2 SWAP1 POP JUMP JUMPDEST PUSH1 0x0 DUP3 PUSH1 0x1F DUP4 ADD SLT PUSH3 0xB75 JUMPI PUSH1 0x0 DUP1 REVERT JUMPDEST DUP2 MLOAD PUSH1 0x20 PUSH1 0x1 PUSH1 0x1 PUSH1 0x40 SHL SUB DUP1 DUP4 GT ISZERO PUSH3 0xB94 JUMPI PUSH3 0xB94 PUSH3 0xF17 JUMP JUMPDEST DUP3 PUSH1 0x5 SHL PUSH1 0x40 MLOAD PUSH1 0x1F NOT PUSH1 0x3F DUP4 ADD AND DUP2 ADD DUP2 DUP2 LT DUP5 DUP3 GT OR ISZERO PUSH3 0xBBC JUMPI PUSH3 0xBBC PUSH3 0xF17 JUMP JUMPDEST PUSH1 0x40 MSTORE DUP5 DUP2 MSTORE DUP4 DUP2 ADD SWAP3 POP DUP7 DUP5 ADD DUP3 DUP9 ADD DUP6 ADD DUP10 LT ISZERO PUSH3 0xBDC JUMPI PUSH1 0x0 DUP1 REVERT JUMPDEST PUSH1 0x0 SWAP3 POP JUMPDEST DUP6 DUP4 LT ISZERO PUSH3 0xC0A JUMPI PUSH3 0xBF5 DUP2 PUSH3 0xB46 JUMP JUMPDEST DUP5 MSTORE SWAP3 DUP5 ADD SWAP3 PUSH1 0x1 SWAP3 SWAP1 SWAP3 ADD SWAP2 DUP5 ADD PUSH3 0xBE1 JUMP JUMPDEST POP SWAP8 SWAP7 POP POP POP POP POP POP POP JUMP JUMPDEST PUSH1 0x0 PUSH1 0xA0 DUP3 DUP5 SUB SLT ISZERO PUSH3 0xC29 JUMPI PUSH1 0x0 DUP1 REVERT JUMPDEST PUSH1 0x40 MLOAD PUSH1 0xA0 DUP2 ADD PUSH1 0x1 PUSH1 0x1 PUSH1 0x40 SHL SUB DUP2 GT DUP3 DUP3 LT OR ISZERO PUSH3 0xC4E JUMPI PUSH3 0xC4E PUSH3 0xF17 JUMP JUMPDEST PUSH1 0x40 MSTORE SWAP1 POP DUP1 PUSH3 0xC5F DUP4 PUSH3 0xB46 JUMP JUMPDEST DUP2 MSTORE PUSH3 0xC6F PUSH1 0x20 DUP5 ADD PUSH3 0xB46 JUMP JUMPDEST PUSH1 0x20 DUP3 ADD MSTORE PUSH3 0xC82 PUSH1 0x40 DUP5 ADD PUSH3 0xB46 JUMP JUMPDEST PUSH1 0x40 DUP3 ADD MSTORE PUSH3 0xC95 PUSH1 0x60 DUP5 ADD PUSH3 0xB46 JUMP JUMPDEST PUSH1 0x60 DUP3 ADD MSTORE PUSH3 0xCA8 PUSH1 0x80 DUP5 ADD PUSH3 0xB46 JUMP JUMPDEST PUSH1 0x80 DUP3 ADD MSTORE POP SWAP3 SWAP2 POP POP JUMP JUMPDEST PUSH1 0x0 PUSH1 0x20 DUP3 DUP5 SUB SLT ISZERO PUSH3 0xCC7 JUMPI PUSH1 0x0 DUP1 REVERT JUMPDEST PUSH3 0x94D DUP3 PUSH3 0xB46 JUMP JUMPDEST PUSH1 0x0 PUSH1 0x20 DUP3 DUP5 SUB SLT ISZERO PUSH3 0xCE5 JUMPI PUSH1 0x0 DUP1 REVERT JUMPDEST DUP2 MLOAD DUP1 ISZERO ISZERO DUP2 EQ PUSH3 0x94D JUMPI PUSH1 0x0 DUP1 REVERT JUMPDEST PUSH1 0x0 PUSH1 0x20 DUP3 DUP5 SUB SLT ISZERO PUSH3 0xD09 JUMPI PUSH1 0x0 DUP1 REVERT JUMPDEST POP MLOAD SWAP2 SWAP1 POP JUMP JUMPDEST PUSH1 0x0 DUP1 PUSH1 0x0 DUP1 PUSH1 0x0 DUP1 PUSH1 0x0 DUP1 PUSH1 0x0 DUP1 PUSH2 0x1C0 DUP12 DUP14 SUB SLT ISZERO PUSH3 0xD31 JUMPI PUSH1 0x0 DUP1 REVERT JUMPDEST DUP11 MLOAD SWAP10 POP PUSH1 0x20 DUP12 ADD MLOAD SWAP9 POP PUSH3 0xD4B DUP13 PUSH1 0x40 DUP14 ADD PUSH3 0xC16 JUMP JUMPDEST PUSH1 0xE0 DUP13 ADD MLOAD SWAP1 SWAP9 POP PUSH1 0x1 PUSH1 0x1 PUSH1 0x40 SHL SUB DUP1 DUP3 GT ISZERO PUSH3 0xD69 JUMPI PUSH1 0x0 DUP1 REVERT JUMPDEST PUSH3 0xD77 DUP15 DUP4 DUP16 ADD PUSH3 0xB63 JUMP JUMPDEST SWAP9 POP PUSH2 0x100 DUP14 ADD MLOAD SWAP2 POP DUP1 DUP3 GT ISZERO PUSH3 0xD8F JUMPI PUSH1 0x0 DUP1 REVERT JUMPDEST PUSH3 0xD9D DUP15 DUP4 DUP16 ADD PUSH3 0xB63 JUMP JUMPDEST SWAP8 POP PUSH2 0x120 DUP14 ADD MLOAD SWAP2 POP DUP1 DUP3 GT ISZERO PUSH3 0xDB5 JUMPI PUSH1 0x0 DUP1 REVERT JUMPDEST PUSH3 0xDC3 DUP15 DUP4 DUP16 ADD PUSH3 0xB63 JUMP JUMPDEST SWAP7 POP PUSH2 0x140 DUP14 ADD MLOAD SWAP2 POP DUP1 DUP3 GT ISZERO PUSH3 0xDDB JUMPI PUSH1 0x0 DUP1 REVERT JUMPDEST PUSH3 0xDE9 DUP15 DUP4 DUP16 ADD PUSH3 0xB63 JUMP JUMPDEST SWAP6 POP PUSH2 0x160 DUP14 ADD MLOAD SWAP2 POP DUP1 DUP3 GT ISZERO PUSH3 0xE01 JUMPI PUSH1 0x0 DUP1 REVERT JUMPDEST PUSH3 0xE0F DUP15 DUP4 DUP16 ADD PUSH3 0xB63 JUMP JUMPDEST SWAP5 POP PUSH2 0x180 DUP14 ADD MLOAD SWAP2 POP DUP1 DUP3 GT ISZERO PUSH3 0xE27 JUMPI PUSH1 0x0 DUP1 REVERT JUMPDEST PUSH3 0xE35 DUP15 DUP4 DUP16 ADD PUSH3 0xB63 JUMP JUMPDEST SWAP4 POP PUSH2 0x1A0 DUP14 ADD MLOAD SWAP2 POP DUP1 DUP3 GT ISZERO PUSH3 0xE4D JUMPI PUSH1 0x0 DUP1 REVERT JUMPDEST POP PUSH3 0xE5C DUP14 DUP3 DUP15 ADD PUSH3 0xB63 JUMP JUMPDEST SWAP2 POP POP SWAP3 SWAP6 SWAP9 SWAP12 SWAP2 SWAP5 SWAP8 SWAP11 POP SWAP3 SWAP6 SWAP9 POP JUMP JUMPDEST PUSH1 0x0 DUP3 MLOAD PUSH3 0xE82 DUP2 DUP5 PUSH1 0x20 DUP8 ADD PUSH3 0xEE8 JUMP JUMPDEST SWAP2 SWAP1 SWAP2 ADD SWAP3 SWAP2 POP POP JUMP JUMPDEST PUSH1 0x20 DUP2 MSTORE PUSH1 0x0 DUP3 MLOAD DUP1 PUSH1 0x20 DUP5 ADD MSTORE PUSH3 0xEAD DUP2 PUSH1 0x40 DUP6 ADD PUSH1 0x20 DUP8 ADD PUSH3 0xEE8 JUMP JUMPDEST PUSH1 0x1F ADD PUSH1 0x1F NOT AND SWAP2 SWAP1 SWAP2 ADD PUSH1 0x40 ADD SWAP3 SWAP2 POP POP JUMP JUMPDEST PUSH1 0x0 DUP3 NOT DUP3 GT ISZERO PUSH3 0xEE3 JUMPI PUSH4 0x4E487B71 PUSH1 0xE0 SHL PUSH1 0x0 MSTORE PUSH1 0x11 PUSH1 0x4 MSTORE PUSH1 0x24 PUSH1 0x0 REVERT JUMPDEST POP ADD SWAP1 JUMP JUMPDEST PUSH1 0x0 JUMPDEST DUP4 DUP2 LT ISZERO PUSH3 0xF05 JUMPI DUP2 DUP2 ADD MLOAD DUP4 DUP3 ADD MSTORE PUSH1 0x20 ADD PUSH3 0xEEB JUMP JUMPDEST DUP4 DUP2 GT ISZERO PUSH3 0x855 JUMPI POP POP PUSH1 0x0 SWAP2 ADD MSTORE JUMP JUMPDEST PUSH4 0x4E487B71 PUSH1 0xE0 SHL PUSH1 0x0 MSTORE PUSH1 0x41 PUSH1 0x4 MSTORE PUSH1 0x24 PUSH1 0x0 REVERT JUMPDEST PUSH2 0x2C7F DUP1 PUSH3 0xF3D PUSH1 0x0 CODECOPY PUSH1 0x0 RETURN INVALID PUSH1 0x80 PUSH1 0x40 MSTORE CALLVALUE DUP1 ISZERO PUSH2 0x10 JUMPI PUSH1 0x0 DUP1 REVERT JUMPDEST POP PUSH1 0x4 CALLDATASIZE LT PUSH2 0x377 JUMPI PUSH1 0x0 CALLDATALOAD PUSH1 0xE0 SHR DUP1 PUSH4 0x7B0A47EE GT PUSH2 0x1D3 JUMPI DUP1 PUSH4 0xC11C2E92 GT PUSH2 0x104 JUMPI DUP1 PUSH4 0xE7198474 GT PUSH2 0xA2 JUMPI DUP1 PUSH4 0xF2FDE38B GT PUSH2 0x7C JUMPI DUP1 PUSH4 0xF2FDE38B EQ PUSH2 0x6AC JUMPI DUP1 PUSH4 0xF3FEF3A3 EQ PUSH2 0x6BF JUMPI DUP1 PUSH4 0xFFBD3B1F EQ PUSH2 0x6D2 JUMPI DUP1 PUSH4 0xFFBE9F1E EQ PUSH2 0x4E1 JUMPI PUSH1 0x0 DUP1 REVERT JUMPDEST DUP1 PUSH4 0xE7198474 EQ PUSH2 0x678 JUMPI DUP1 PUSH4 0xE7A03679 EQ PUSH2 0x68B JUMPI DUP1 PUSH4 0xF1068454 EQ PUSH2 0x6A3 JUMPI PUSH1 0x0 DUP1 REVERT JUMPDEST DUP1 PUSH4 0xD389800F GT PUSH2 0xDE JUMPI DUP1 PUSH4 0xD389800F EQ PUSH2 0x641 JUMPI DUP1 PUSH4 0xD62E969D EQ PUSH2 0x649 JUMPI DUP1 PUSH4 0xD7CB416F EQ PUSH2 0x65C JUMPI DUP1 PUSH4 0xDCE52DFA EQ PUSH2 0x66F JUMPI PUSH1 0x0 DUP1 REVERT JUMPDEST DUP1 PUSH4 0xC11C2E92 EQ PUSH2 0x613 JUMPI DUP1 PUSH4 0xC8E3D18B EQ PUSH2 0x61B JUMPI DUP1 PUSH4 0xCFAD57A2 EQ PUSH2 0x62E JUMPI PUSH1 0x0 DUP1 REVERT JUMPDEST DUP1 PUSH4 0x8DA5CB5B GT PUSH2 0x171 JUMPI DUP1 PUSH4 0x9872317F GT PUSH2 0x14B JUMPI DUP1 PUSH4 0x9872317F EQ PUSH2 0x5C9 JUMPI DUP1 PUSH4 0xB02381C6 EQ PUSH2 0x5E4 JUMPI DUP1 PUSH4 0xB74CD242 EQ PUSH2 0x5F7 JUMPI DUP1 PUSH4 0xB77050E7 EQ PUSH2 0x600 JUMPI PUSH1 0x0 DUP1 REVERT JUMPDEST DUP1 PUSH4 0x8DA5CB5B EQ PUSH2 0x59C JUMPI DUP1 PUSH4 0x8FEFDA06 EQ PUSH2 0x5AD JUMPI DUP1 PUSH4 0x96E9AFF8 EQ PUSH2 0x5B6 JUMPI PUSH1 0x0 DUP1 REVERT JUMPDEST DUP1 PUSH4 0x85F02DD6 GT PUSH2 0x1AD JUMPI DUP1 PUSH4 0x85F02DD6 EQ PUSH2 0x55C JUMPI DUP1 PUSH4 0x866B2018 EQ PUSH2 0x565 JUMPI DUP1 PUSH4 0x8811DAD0 EQ PUSH2 0x56E JUMPI DUP1 PUSH4 0x8CF57CB9 EQ PUSH2 0x581 JUMPI PUSH1 0x0 DUP1 REVERT JUMPDEST DUP1 PUSH4 0x7B0A47EE EQ PUSH2 0x538 JUMPI DUP1 PUSH4 0x7FF36FBE EQ PUSH2 0x541 JUMPI DUP1 PUSH4 0x8456CB59 EQ PUSH2 0x554 JUMPI PUSH1 0x0 DUP1 REVERT JUMPDEST DUP1 PUSH4 0x46008A07 GT PUSH2 0x2AD JUMPI DUP1 PUSH4 0x67057B6C GT PUSH2 0x24B JUMPI DUP1 PUSH4 0x7115E9FA GT PUSH2 0x225 JUMPI DUP1 PUSH4 0x7115E9FA EQ PUSH2 0x506 JUMPI DUP1 PUSH4 0x715018A6 EQ PUSH2 0x527 JUMPI DUP1 PUSH4 0x783478AD EQ PUSH2 0x52F JUMPI DUP1 PUSH4 0x784DEF8C EQ PUSH2 0x44D JUMPI PUSH1 0x0 DUP1 REVERT JUMPDEST DUP1 PUSH4 0x67057B6C EQ PUSH2 0x4E1 JUMPI DUP1 PUSH4 0x68F54162 EQ PUSH2 0x4EA JUMPI DUP1 PUSH4 0x693A090B EQ PUSH2 0x4F3 JUMPI PUSH1 0x0 DUP1 REVERT JUMPDEST DUP1 PUSH4 0x49281683 GT PUSH2 0x287 JUMPI DUP1 PUSH4 0x49281683 EQ PUSH2 0x4A7 JUMPI DUP1 PUSH4 0x50E15FDD EQ PUSH2 0x4BA JUMPI DUP1 PUSH4 0x5C975ABB EQ PUSH2 0x4C3 JUMPI DUP1 PUSH4 0x65A5E30B EQ PUSH2 0x4D9 JUMPI PUSH1 0x0 DUP1 REVERT JUMPDEST DUP1 PUSH4 0x46008A07 EQ PUSH2 0x479 JUMPI DUP1 PUSH4 0x4700D305 EQ PUSH2 0x48C JUMPI DUP1 PUSH4 0x47E7EF24 EQ PUSH2 0x494 JUMPI PUSH1 0x0 DUP1 REVERT JUMPDEST DUP1 PUSH4 0x3220D732 GT PUSH2 0x31A JUMPI DUP1 PUSH4 0x40C34B58 GT PUSH2 0x2F4 JUMPI DUP1 PUSH4 0x40C34B58 EQ PUSH2 0x43A JUMPI DUP1 PUSH4 0x41275358 EQ PUSH2 0x44D JUMPI DUP1 PUSH4 0x42DA4EB3 EQ PUSH2 0x468 JUMPI DUP1 PUSH4 0x44A3955E EQ PUSH2 0x470 JUMPI PUSH1 0x0 DUP1 REVERT JUMPDEST DUP1 PUSH4 0x3220D732 EQ PUSH2 0x415 JUMPI DUP1 PUSH4 0x3505B09F EQ PUSH2 0x428 JUMPI DUP1 PUSH4 0x3F4BA83A EQ PUSH2 0x432 JUMPI PUSH1 0x0 DUP1 REVERT JUMPDEST DUP1 PUSH4 0xFA4E01E GT PUSH2 0x356 JUMPI DUP1 PUSH4 0xFA4E01E EQ PUSH2 0x3DD JUMPI DUP1 PUSH4 0x178A8D07 EQ PUSH2 0x3E6 JUMPI DUP1 PUSH4 0x260AB48C EQ PUSH2 0x3EF JUMPI DUP1 PUSH4 0x30F6CF63 EQ PUSH2 0x402 JUMPI PUSH1 0x0 DUP1 REVERT JUMPDEST DUP1 PUSH3 0x7A2AE3 EQ PUSH2 0x37C JUMPI DUP1 PUSH4 0x2D45457 EQ PUSH2 0x3AC JUMPI DUP1 PUSH4 0x4C9D490 EQ PUSH2 0x3C7 JUMPI JUMPDEST PUSH1 0x0 DUP1 REVERT JUMPDEST PUSH2 0x38F PUSH2 0x38A CALLDATASIZE PUSH1 0x4 PUSH2 0x28AB JUMP JUMPDEST PUSH2 0x6DB JUMP JUMPDEST PUSH1 0x40 MLOAD PUSH1 0x1 PUSH1 0x1 PUSH1 0xA0 SHL SUB SWAP1 SWAP2 AND DUP2 MSTORE PUSH1 0x20 ADD JUMPDEST PUSH1 0x40 MLOAD DUP1 SWAP2 SUB SWAP1 RETURN JUMPDEST PUSH2 0x38F PUSH20 0x2791BCA1F2DE4661ED88A30C99A7A9449AA84174 DUP2 JUMP JUMPDEST PUSH2 0x3CF PUSH2 0x705 JUMP JUMPDEST PUSH1 0x40 MLOAD SWAP1 DUP2 MSTORE PUSH1 0x20 ADD PUSH2 0x3A3 JUMP JUMPDEST PUSH2 0x3CF PUSH1 0x9 SLOAD DUP2 JUMP JUMPDEST PUSH2 0x3CF PUSH1 0xD SLOAD DUP2 JUMP JUMPDEST PUSH2 0x38F PUSH2 0x3FD CALLDATASIZE PUSH1 0x4 PUSH2 0x28AB JUMP JUMPDEST PUSH2 0x796 JUMP JUMPDEST PUSH2 0x38F PUSH2 0x410 CALLDATASIZE PUSH1 0x4 PUSH2 0x28AB JUMP JUMPDEST PUSH2 0x7A6 JUMP JUMPDEST PUSH1 0x7 SLOAD PUSH2 0x38F SWAP1 PUSH1 0x1 PUSH1 0x1 PUSH1 0xA0 SHL SUB AND DUP2 JUMP JUMPDEST PUSH2 0x430 PUSH2 0x7B6 JUMP JUMPDEST STOP JUMPDEST PUSH2 0x430 PUSH2 0x7F3 JUMP JUMPDEST PUSH1 0x1B SLOAD PUSH2 0x38F SWAP1 PUSH1 0x1 PUSH1 0x1 PUSH1 0xA0 SHL SUB AND DUP2 JUMP JUMPDEST PUSH2 0x38F PUSH20 0x5386881B46C37CDD30A748F7771CF95D7B213637 DUP2 JUMP JUMPDEST PUSH2 0x3CF PUSH2 0x825 JUMP JUMPDEST PUSH2 0x3CF PUSH1 0xA SLOAD DUP2 JUMP JUMPDEST PUSH1 0x8 SLOAD PUSH2 0x38F SWAP1 PUSH1 0x1 PUSH1 0x1 PUSH1 0xA0 SHL SUB AND DUP2 JUMP JUMPDEST PUSH2 0x430 PUSH2 0x8BD JUMP JUMPDEST PUSH2 0x3CF PUSH2 0x4A2 CALLDATASIZE PUSH1 0x4 PUSH2 0x279A JUMP JUMPDEST PUSH2 0x8F7 JUMP JUMPDEST PUSH2 0x38F PUSH2 0x4B5 CALLDATASIZE PUSH1 0x4 PUSH2 0x28AB JUMP JUMPDEST PUSH2 0x9F1 JUMP JUMPDEST PUSH2 0x3CF PUSH1 0x11 SLOAD DUP2 JUMP JUMPDEST PUSH1 0x2 SLOAD PUSH1 0xFF AND PUSH1 0x40 MLOAD SWAP1 ISZERO ISZERO DUP2 MSTORE PUSH1 0x20 ADD PUSH2 0x3A3 JUMP JUMPDEST PUSH2 0x430 PUSH2 0xA01 JUMP JUMPDEST PUSH2 0x3CF PUSH2 0x2710 DUP2 JUMP JUMPDEST PUSH2 0x3CF PUSH1 0xE SLOAD DUP2 JUMP JUMPDEST PUSH1 0x6 SLOAD PUSH2 0x38F SWAP1 PUSH1 0x1 PUSH1 0x1 PUSH1 0xA0 SHL SUB AND DUP2 JUMP JUMPDEST PUSH1 0x1A SLOAD PUSH2 0x51A SWAP1 PUSH1 0x1 PUSH1 0xA0 SHL SWAP1 DIV PUSH1 0xFF AND DUP2 JUMP JUMPDEST PUSH1 0x40 MLOAD PUSH2 0x3A3 SWAP2 SWAP1 PUSH2 0x29EB JUMP JUMPDEST PUSH2 0x430 PUSH2 0xA3E JUMP JUMPDEST PUSH2 0x38F PUSH2 0xDEAD DUP2 JUMP JUMPDEST PUSH2 0x3CF PUSH1 0xC SLOAD DUP2 JUMP JUMPDEST PUSH1 0x3 SLOAD PUSH2 0x38F SWAP1 PUSH1 0x1 PUSH1 0x1 PUSH1 0xA0 SHL SUB AND DUP2 JUMP JUMPDEST PUSH2 0x430 PUSH2 0xA72 JUMP JUMPDEST PUSH2 0x3CF PUSH1 0xB SLOAD DUP2 JUMP JUMPDEST PUSH2 0x3CF PUSH2 0x26AC DUP2 JUMP JUMPDEST PUSH2 0x38F PUSH2 0x57C CALLDATASIZE PUSH1 0x4 PUSH2 0x28AB JUMP JUMPDEST PUSH2 0xAA4 JUMP JUMPDEST PUSH2 0x38F PUSH20 0x917FB15E8AAA12264DCBDC15AFEF7CD3CE76BA39 DUP2 JUMP JUMPDEST PUSH1 0x0 SLOAD PUSH1 0x1 PUSH1 0x1 PUSH1 0xA0 SHL SUB AND PUSH2 0x38F JUMP JUMPDEST PUSH2 0x3CF PUSH2 0x3E8 DUP2 JUMP JUMPDEST PUSH2 0x38F PUSH2 0x5C4 CALLDATASIZE PUSH1 0x4 PUSH2 0x28AB JUMP JUMPDEST PUSH2 0xAB4 JUMP JUMPDEST PUSH2 0x38F PUSH20 0x76BF0C28E604CC3FE9967C83B3C3F31C213CFE64 DUP2 JUMP JUMPDEST PUSH2 0x430 PUSH2 0x5F2 CALLDATASIZE PUSH1 0x4 PUSH2 0x292F JUMP JUMPDEST PUSH2 0xAC4 JUMP JUMPDEST PUSH2 0x3CF PUSH2 0x3E3 DUP2 JUMP JUMPDEST PUSH2 0x38F PUSH2 0x60E CALLDATASIZE PUSH1 0x4 PUSH2 0x28AB JUMP JUMPDEST PUSH2 0xCDE JUMP JUMPDEST PUSH2 0x430 PUSH2 0xCEE JUMP JUMPDEST PUSH2 0x38F PUSH2 0x629 CALLDATASIZE PUSH1 0x4 PUSH2 0x28AB JUMP JUMPDEST PUSH2 0xF5C JUMP JUMPDEST PUSH2 0x430 PUSH2 0x63C CALLDATASIZE PUSH1 0x4 PUSH2 0x277F JUMP JUMPDEST PUSH2 0xF6C JUMP JUMPDEST PUSH2 0x430 PUSH2 0xFB8 JUMP JUMPDEST PUSH1 0x1A SLOAD PUSH2 0x38F SWAP1 PUSH1 0x1 PUSH1 0x1 PUSH1 0xA0 SHL SUB AND DUP2 JUMP JUMPDEST PUSH1 0x4 SLOAD PUSH2 0x38F SWAP1 PUSH1 0x1 PUSH1 0x1 PUSH1 0xA0 SHL SUB AND DUP2 JUMP JUMPDEST PUSH2 0x3CF PUSH1 0x10 SLOAD DUP2 JUMP JUMPDEST PUSH1 0x5 SLOAD PUSH2 0x38F SWAP1 PUSH1 0x1 PUSH1 0x1 PUSH1 0xA0 SHL SUB AND DUP2 JUMP JUMPDEST PUSH1 0x2 SLOAD PUSH2 0x38F SWAP1 PUSH2 0x100 SWAP1 DIV PUSH1 0x1 PUSH1 0x1 PUSH1 0xA0 SHL SUB AND DUP2 JUMP JUMPDEST PUSH2 0x3CF PUSH1 0x1C SLOAD DUP2 JUMP JUMPDEST PUSH2 0x430 PUSH2 0x6BA CALLDATASIZE PUSH1 0x4 PUSH2 0x277F JUMP JUMPDEST PUSH2 0x13FB JUMP JUMPDEST PUSH2 0x3CF PUSH2 0x6CD CALLDATASIZE PUSH1 0x4 PUSH2 0x279A JUMP JUMPDEST PUSH2 0x1493 JUMP JUMPDEST PUSH2 0x3CF PUSH1 0xF SLOAD DUP2 JUMP JUMPDEST PUSH1 0x18 DUP2 DUP2 SLOAD DUP2 LT PUSH2 0x6EB JUMPI PUSH1 0x0 DUP1 REVERT JUMPDEST PUSH1 0x0 SWAP2 DUP3 MSTORE PUSH1 0x20 SWAP1 SWAP2 KECCAK256 ADD SLOAD PUSH1 0x1 PUSH1 0x1 PUSH1 0xA0 SHL SUB AND SWAP1 POP DUP2 JUMP JUMPDEST PUSH1 0x1B SLOAD PUSH1 0x1C SLOAD PUSH1 0x40 MLOAD PUSH4 0x93F1A40B PUSH1 0xE0 SHL DUP2 MSTORE PUSH1 0x4 DUP2 ADD SWAP2 SWAP1 SWAP2 MSTORE ADDRESS PUSH1 0x24 DUP3 ADD MSTORE PUSH1 0x0 SWAP2 DUP3 SWAP2 PUSH1 0x1 PUSH1 0x1 PUSH1 0xA0 SHL SUB SWAP1 SWAP2 AND SWAP1 PUSH4 0x93F1A40B SWAP1 PUSH1 0x44 ADD PUSH1 0x40 DUP1 MLOAD DUP1 DUP4 SUB DUP2 DUP7 DUP1 EXTCODESIZE ISZERO DUP1 ISZERO PUSH2 0x757 JUMPI PUSH1 0x0 DUP1 REVERT JUMPDEST POP GAS STATICCALL ISZERO DUP1 ISZERO PUSH2 0x76B JUMPI RETURNDATASIZE PUSH1 0x0 DUP1 RETURNDATACOPY RETURNDATASIZE PUSH1 0x0 REVERT JUMPDEST POP POP POP POP PUSH1 0x40 MLOAD RETURNDATASIZE PUSH1 0x1F NOT PUSH1 0x1F DUP3 ADD AND DUP3 ADD DUP1 PUSH1 0x40 MSTORE POP DUP2 ADD SWAP1 PUSH2 0x78F SWAP2 SWAP1 PUSH2 0x28DD JUMP JUMPDEST POP SWAP3 SWAP2 POP POP JUMP JUMPDEST PUSH1 0x12 DUP2 DUP2 SLOAD DUP2 LT PUSH2 0x6EB JUMPI PUSH1 0x0 DUP1 REVERT JUMPDEST PUSH1 0x19 DUP2 DUP2 SLOAD DUP2 LT PUSH2 0x6EB JUMPI PUSH1 0x0 DUP1 REVERT JUMPDEST PUSH1 0x8 SLOAD PUSH1 0x1 PUSH1 0x1 PUSH1 0xA0 SHL SUB AND CALLER EQ PUSH2 0x7E9 JUMPI PUSH1 0x40 MLOAD PUSH3 0x461BCD PUSH1 0xE5 SHL DUP2 MSTORE PUSH1 0x4 ADD PUSH2 0x7E0 SWAP1 PUSH2 0x2A46 JUMP JUMPDEST PUSH1 0x40 MLOAD DUP1 SWAP2 SUB SWAP1 REVERT JUMPDEST PUSH2 0x7F1 PUSH2 0x1988 JUMP JUMPDEST JUMP JUMPDEST PUSH1 0x8 SLOAD PUSH1 0x1 PUSH1 0x1 PUSH1 0xA0 SHL SUB AND CALLER EQ PUSH2 0x81D JUMPI PUSH1 0x40 MLOAD PUSH3 0x461BCD PUSH1 0xE5 SHL DUP2 MSTORE PUSH1 0x4 ADD PUSH2 0x7E0 SWAP1 PUSH2 0x2A46 JUMP JUMPDEST PUSH2 0x7E9 PUSH2 0x1AEF JUMP JUMPDEST PUSH1 0x0 PUSH2 0x82F PUSH2 0x705 JUMP JUMPDEST PUSH1 0x2 SLOAD PUSH1 0x40 MLOAD PUSH4 0x70A08231 PUSH1 0xE0 SHL DUP2 MSTORE ADDRESS PUSH1 0x4 DUP3 ADD MSTORE PUSH2 0x100 SWAP1 SWAP2 DIV PUSH1 0x1 PUSH1 0x1 PUSH1 0xA0 SHL SUB AND SWAP1 PUSH4 0x70A08231 SWAP1 PUSH1 0x24 ADD PUSH1 0x20 PUSH1 0x40 MLOAD DUP1 DUP4 SUB DUP2 DUP7 DUP1 EXTCODESIZE ISZERO DUP1 ISZERO PUSH2 0x876 JUMPI PUSH1 0x0 DUP1 REVERT JUMPDEST POP GAS STATICCALL ISZERO DUP1 ISZERO PUSH2 0x88A JUMPI RETURNDATASIZE PUSH1 0x0 DUP1 RETURNDATACOPY RETURNDATASIZE PUSH1 0x0 REVERT JUMPDEST POP POP POP POP PUSH1 0x40 MLOAD RETURNDATASIZE PUSH1 0x1F NOT PUSH1 0x1F DUP3 ADD AND DUP3 ADD DUP1 PUSH1 0x40 MSTORE POP DUP2 ADD SWAP1 PUSH2 0x8AE SWAP2 SWAP1 PUSH2 0x28C4 JUMP JUMPDEST PUSH2 0x8B8 SWAP2 SWAP1 PUSH2 0x2B4F JUMP JUMPDEST SWAP1 POP SWAP1 JUMP JUMPDEST PUSH1 0x8 SLOAD PUSH1 0x1 PUSH1 0x1 PUSH1 0xA0 SHL SUB AND CALLER EQ PUSH2 0x8E7 JUMPI PUSH1 0x40 MLOAD PUSH3 0x461BCD PUSH1 0xE5 SHL DUP2 MSTORE PUSH1 0x4 ADD PUSH2 0x7E0 SWAP1 PUSH2 0x2A46 JUMP JUMPDEST PUSH2 0x8EF PUSH2 0x1B82 JUMP JUMPDEST PUSH2 0x7F1 PUSH2 0x1BDA JUMP JUMPDEST PUSH1 0x0 DUP1 SLOAD PUSH1 0x1 PUSH1 0x1 PUSH1 0xA0 SHL SUB AND CALLER EQ PUSH2 0x922 JUMPI PUSH1 0x40 MLOAD PUSH3 0x461BCD PUSH1 0xE5 SHL DUP2 MSTORE PUSH1 0x4 ADD PUSH2 0x7E0 SWAP1 PUSH2 0x2A8E JUMP JUMPDEST PUSH1 0x2 PUSH1 0x1 SLOAD EQ ISZERO PUSH2 0x945 JUMPI PUSH1 0x40 MLOAD PUSH3 0x461BCD PUSH1 0xE5 SHL DUP2 MSTORE PUSH1 0x4 ADD PUSH2 0x7E0 SWAP1 PUSH2 0x2AC3 JUMP JUMPDEST PUSH1 0x2 PUSH1 0x1 SSTORE PUSH2 0x956 PUSH1 0x2 SLOAD PUSH1 0xFF AND SWAP1 JUMP JUMPDEST ISZERO PUSH2 0x973 JUMPI PUSH1 0x40 MLOAD PUSH3 0x461BCD PUSH1 0xE5 SHL DUP2 MSTORE PUSH1 0x4 ADD PUSH2 0x7E0 SWAP1 PUSH2 0x2A64 JUMP JUMPDEST PUSH1 0x0 PUSH2 0x97D PUSH2 0x825 JUMP JUMPDEST PUSH1 0x2 SLOAD SWAP1 SWAP2 POP PUSH2 0x99D SWAP1 PUSH2 0x100 SWAP1 DIV PUSH1 0x1 PUSH1 0x1 PUSH1 0xA0 SHL SUB AND CALLER ADDRESS DUP7 PUSH2 0x1C3D JUMP JUMPDEST PUSH1 0x0 PUSH2 0x9A7 PUSH2 0x1C75 JUMP JUMPDEST PUSH1 0xA SLOAD SWAP1 SWAP2 POP ISZERO PUSH2 0x9CE JUMPI DUP2 PUSH1 0xA SLOAD DUP3 PUSH2 0x9C1 SWAP2 SWAP1 PUSH2 0x2B7B JUMP JUMPDEST PUSH2 0x9CB SWAP2 SWAP1 PUSH2 0x2B67 JUMP JUMPDEST SWAP1 POP JUMPDEST DUP1 PUSH1 0xA PUSH1 0x0 DUP3 DUP3 SLOAD PUSH2 0x9E0 SWAP2 SWAP1 PUSH2 0x2B4F JUMP JUMPDEST SWAP1 SWAP2 SSTORE POP POP PUSH1 0x1 DUP1 SSTORE SWAP5 SWAP4 POP POP POP POP JUMP JUMPDEST PUSH1 0x13 DUP2 DUP2 SLOAD DUP2 LT PUSH2 0x6EB JUMPI PUSH1 0x0 DUP1 REVERT JUMPDEST PUSH1 0x8 SLOAD PUSH1 0x1 PUSH1 0x1 PUSH1 0xA0 SHL SUB AND CALLER EQ PUSH2 0xA2B JUMPI PUSH1 0x40 MLOAD PUSH3 0x461BCD PUSH1 0xE5 SHL DUP2 MSTORE PUSH1 0x4 ADD PUSH2 0x7E0 SWAP1 PUSH2 0x2A46 JUMP JUMPDEST PUSH2 0xA33 PUSH2 0x1AEF JUMP JUMPDEST PUSH2 0xA3B PUSH2 0x1C75 JUMP JUMPDEST POP JUMP JUMPDEST PUSH1 0x0 SLOAD PUSH1 0x1 PUSH1 0x1 PUSH1 0xA0 SHL SUB AND CALLER EQ PUSH2 0xA68 JUMPI PUSH1 0x40 MLOAD PUSH3 0x461BCD PUSH1 0xE5 SHL DUP2 MSTORE PUSH1 0x4 ADD PUSH2 0x7E0 SWAP1 PUSH2 0x2A8E JUMP JUMPDEST PUSH2 0x7F1 PUSH1 0x0 PUSH2 0x1D3B JUMP JUMPDEST PUSH1 0x8 SLOAD PUSH1 0x1 PUSH1 0x1 PUSH1 0xA0 SHL SUB AND CALLER EQ PUSH2 0xA9C JUMPI PUSH1 0x40 MLOAD PUSH3 0x461BCD PUSH1 0xE5 SHL DUP2 MSTORE PUSH1 0x4 ADD PUSH2 0x7E0 SWAP1 PUSH2 0x2A46 JUMP JUMPDEST PUSH2 0x7F1 PUSH2 0x1B82 JUMP JUMPDEST PUSH1 0x14 DUP2 DUP2 SLOAD DUP2 LT PUSH2 0x6EB JUMPI PUSH1 0x0 DUP1 REVERT JUMPDEST PUSH1 0x16 DUP2 DUP2 SLOAD DUP2 LT PUSH2 0x6EB JUMPI PUSH1 0x0 DUP1 REVERT JUMPDEST PUSH1 0x8 SLOAD PUSH1 0x1 PUSH1 0x1 PUSH1 0xA0 SHL SUB AND CALLER EQ PUSH2 0xAEE JUMPI PUSH1 0x40 MLOAD PUSH3 0x461BCD PUSH1 0xE5 SHL DUP2 MSTORE PUSH1 0x4 ADD PUSH2 0x7E0 SWAP1 PUSH2 0x2A46 JUMP JUMPDEST PUSH2 0x3E8 DUP6 PUSH2 0xAFC DUP9 DUP11 PUSH2 0x2B4F JUMP JUMPDEST PUSH2 0xB06 SWAP2 SWAP1 PUSH2 0x2B4F JUMP JUMPDEST GT ISZERO PUSH2 0xB45 JUMPI PUSH1 0x40 MLOAD PUSH3 0x461BCD PUSH1 0xE5 SHL DUP2 MSTORE PUSH1 0x20 PUSH1 0x4 DUP3 ADD MSTORE PUSH1 0xE PUSH1 0x24 DUP3 ADD MSTORE PUSH14 0x4D617820666565206F6620313025 PUSH1 0x90 SHL PUSH1 0x44 DUP3 ADD MSTORE PUSH1 0x64 ADD PUSH2 0x7E0 JUMP JUMPDEST PUSH2 0x26AC DUP5 LT ISZERO PUSH2 0xB97 JUMPI PUSH1 0x40 MLOAD PUSH3 0x461BCD PUSH1 0xE5 SHL DUP2 MSTORE PUSH1 0x20 PUSH1 0x4 DUP3 ADD MSTORE PUSH1 0x1A PUSH1 0x24 DUP3 ADD MSTORE PUSH32 0x5F7769746864726177466565466163746F7220746F6F206C6F77000000000000 PUSH1 0x44 DUP3 ADD MSTORE PUSH1 0x64 ADD PUSH2 0x7E0 JUMP JUMPDEST PUSH2 0x2710 DUP5 GT ISZERO PUSH2 0xBE9 JUMPI PUSH1 0x40 MLOAD PUSH3 0x461BCD PUSH1 0xE5 SHL DUP2 MSTORE PUSH1 0x20 PUSH1 0x4 DUP3 ADD MSTORE PUSH1 0x1B PUSH1 0x24 DUP3 ADD MSTORE PUSH32 0x5F7769746864726177466565466163746F7220746F6F20686967680000000000 PUSH1 0x44 DUP3 ADD MSTORE PUSH1 0x64 ADD PUSH2 0x7E0 JUMP JUMPDEST PUSH2 0x3E3 DUP4 GT ISZERO PUSH2 0xC3B JUMPI PUSH1 0x40 MLOAD PUSH3 0x461BCD PUSH1 0xE5 SHL DUP2 MSTORE PUSH1 0x20 PUSH1 0x4 DUP3 ADD MSTORE PUSH1 0x18 PUSH1 0x24 DUP3 ADD MSTORE PUSH32 0x5F736C697070616765466163746F7220746F6F20686967680000000000000000 PUSH1 0x44 DUP3 ADD MSTORE PUSH1 0x64 ADD PUSH2 0x7E0 JUMP JUMPDEST PUSH1 0xB DUP8 SWAP1 SSTORE PUSH1 0xC DUP7 SWAP1 SSTORE PUSH1 0xD DUP6 SWAP1 SSTORE PUSH1 0xE DUP5 SWAP1 SSTORE PUSH1 0xF DUP4 SWAP1 SSTORE PUSH1 0x10 DUP3 SWAP1 SSTORE PUSH1 0x6 DUP1 SLOAD PUSH1 0x1 PUSH1 0x1 PUSH1 0xA0 SHL SUB NOT AND PUSH1 0x1 PUSH1 0x1 PUSH1 0xA0 SHL SUB DUP4 AND SWAP1 DUP2 OR SWAP1 SWAP2 SSTORE PUSH1 0x40 DUP1 MLOAD DUP10 DUP2 MSTORE PUSH1 0x20 DUP2 ADD DUP10 SWAP1 MSTORE SWAP1 DUP2 ADD DUP8 SWAP1 MSTORE PUSH1 0x60 DUP2 ADD DUP7 SWAP1 MSTORE PUSH1 0x80 DUP2 ADD DUP6 SWAP1 MSTORE PUSH1 0xA0 DUP2 ADD DUP5 SWAP1 MSTORE PUSH1 0xC0 DUP2 ADD SWAP2 SWAP1 SWAP2 MSTORE PUSH32 0x813767A04E11DFAB70A5EC48C4FD7C344AB48E62196586790931DC9DFAED97E9 SWAP1 PUSH1 0xE0 ADD PUSH1 0x40 MLOAD DUP1 SWAP2 SUB SWAP1 LOG1 POP POP POP POP POP POP POP JUMP JUMPDEST PUSH1 0x17 DUP2 DUP2 SLOAD DUP2 LT PUSH2 0x6EB JUMPI PUSH1 0x0 DUP1 REVERT JUMPDEST PUSH1 0x2 PUSH1 0x1 SLOAD EQ ISZERO PUSH2 0xD11 JUMPI PUSH1 0x40 MLOAD PUSH3 0x461BCD PUSH1 0xE5 SHL DUP2 MSTORE PUSH1 0x4 ADD PUSH2 0x7E0 SWAP1 PUSH2 0x2AC3 JUMP JUMPDEST PUSH1 0x2 PUSH1 0x1 SSTORE PUSH2 0xD22 PUSH1 0x2 SLOAD PUSH1 0xFF AND SWAP1 JUMP JUMPDEST ISZERO PUSH2 0xD3F JUMPI PUSH1 0x40 MLOAD PUSH3 0x461BCD PUSH1 0xE5 SHL DUP2 MSTORE PUSH1 0x4 ADD PUSH2 0x7E0 SWAP1 PUSH2 0x2A64 JUMP JUMPDEST PUSH1 0x3 SLOAD PUSH1 0x40 MLOAD PUSH4 0x70A08231 PUSH1 0xE0 SHL DUP2 MSTORE ADDRESS PUSH1 0x4 DUP3 ADD MSTORE PUSH1 0x0 SWAP2 PUSH1 0x1 PUSH1 0x1 PUSH1 0xA0 SHL SUB AND SWAP1 PUSH4 0x70A08231 SWAP1 PUSH1 0x24 ADD PUSH1 0x20 PUSH1 0x40 MLOAD DUP1 DUP4 SUB DUP2 DUP7 DUP1 EXTCODESIZE ISZERO DUP1 ISZERO PUSH2 0xD83 JUMPI PUSH1 0x0 DUP1 REVERT JUMPDEST POP GAS STATICCALL ISZERO DUP1 ISZERO PUSH2 0xD97 JUMPI RETURNDATASIZE PUSH1 0x0 DUP1 RETURNDATACOPY RETURNDATASIZE PUSH1 0x0 REVERT JUMPDEST POP POP POP POP PUSH1 0x40 MLOAD RETURNDATASIZE PUSH1 0x1F NOT PUSH1 0x1F DUP3 ADD AND DUP3 ADD DUP1 PUSH1 0x40 MSTORE POP DUP2 ADD SWAP1 PUSH2 0xDBB SWAP2 SWAP1 PUSH2 0x28C4 JUMP JUMPDEST SWAP1 POP PUSH1 0x0 DUP2 GT DUP1 ISZERO PUSH2 0xDDE JUMPI POP PUSH1 0x5 SLOAD PUSH1 0x3 SLOAD PUSH1 0x1 PUSH1 0x1 PUSH1 0xA0 SHL SUB SWAP1 DUP2 AND SWAP2 AND EQ ISZERO JUMPDEST ISZERO PUSH2 0xE48 JUMPI PUSH2 0xE48 DUP2 PUSH1 0x17 DUP1 SLOAD DUP1 PUSH1 0x20 MUL PUSH1 0x20 ADD PUSH1 0x40 MLOAD SWAP1 DUP2 ADD PUSH1 0x40 MSTORE DUP1 SWAP3 SWAP2 SWAP1 DUP2 DUP2 MSTORE PUSH1 0x20 ADD DUP3 DUP1 SLOAD DUP1 ISZERO PUSH2 0xE3D JUMPI PUSH1 0x20 MUL DUP3 ADD SWAP2 SWAP1 PUSH1 0x0 MSTORE PUSH1 0x20 PUSH1 0x0 KECCAK256 SWAP1 JUMPDEST DUP2 SLOAD PUSH1 0x1 PUSH1 0x1 PUSH1 0xA0 SHL SUB AND DUP2 MSTORE PUSH1 0x1 SWAP1 SWAP2 ADD SWAP1 PUSH1 0x20 ADD DUP1 DUP4 GT PUSH2 0xE1F JUMPI JUMPDEST POP POP POP POP POP ADDRESS PUSH2 0x1D8B JUMP JUMPDEST PUSH1 0x4 DUP1 SLOAD PUSH1 0x40 MLOAD PUSH4 0x70A08231 PUSH1 0xE0 SHL DUP2 MSTORE ADDRESS SWAP3 DUP2 ADD SWAP3 SWAP1 SWAP3 MSTORE PUSH1 0x0 SWAP2 PUSH1 0x1 PUSH1 0x1 PUSH1 0xA0 SHL SUB SWAP1 SWAP2 AND SWAP1 PUSH4 0x70A08231 SWAP1 PUSH1 0x24 ADD PUSH1 0x20 PUSH1 0x40 MLOAD DUP1 DUP4 SUB DUP2 DUP7 DUP1 EXTCODESIZE ISZERO DUP1 ISZERO PUSH2 0xE91 JUMPI PUSH1 0x0 DUP1 REVERT JUMPDEST POP GAS STATICCALL ISZERO DUP1 ISZERO PUSH2 0xEA5 JUMPI RETURNDATASIZE PUSH1 0x0 DUP1 RETURNDATACOPY RETURNDATASIZE PUSH1 0x0 REVERT JUMPDEST POP POP POP POP PUSH1 0x40 MLOAD RETURNDATASIZE PUSH1 0x1F NOT PUSH1 0x1F DUP3 ADD AND DUP3 ADD DUP1 PUSH1 0x40 MSTORE POP DUP2 ADD SWAP1 PUSH2 0xEC9 SWAP2 SWAP1 PUSH2 0x28C4 JUMP JUMPDEST SWAP1 POP PUSH1 0x0 DUP2 GT DUP1 ISZERO PUSH2 0xEEC JUMPI POP PUSH1 0x5 SLOAD PUSH1 0x4 SLOAD PUSH1 0x1 PUSH1 0x1 PUSH1 0xA0 SHL SUB SWAP1 DUP2 AND SWAP2 AND EQ ISZERO JUMPDEST ISZERO PUSH2 0xF54 JUMPI PUSH2 0xF54 DUP2 PUSH1 0x18 DUP1 SLOAD DUP1 PUSH1 0x20 MUL PUSH1 0x20 ADD PUSH1 0x40 MLOAD SWAP1 DUP2 ADD PUSH1 0x40 MSTORE DUP1 SWAP3 SWAP2 SWAP1 DUP2 DUP2 MSTORE PUSH1 0x20 ADD DUP3 DUP1 SLOAD DUP1 ISZERO PUSH2 0xE3D JUMPI PUSH1 0x20 MUL DUP3 ADD SWAP2 SWAP1 PUSH1 0x0 MSTORE PUSH1 0x20 PUSH1 0x0 KECCAK256 SWAP1 DUP2 SLOAD PUSH1 0x1 PUSH1 0x1 PUSH1 0xA0 SHL SUB AND DUP2 MSTORE PUSH1 0x1 SWAP1 SWAP2 ADD SWAP1 PUSH1 0x20 ADD DUP1 DUP4 GT PUSH2 0xE1F JUMPI POP POP POP POP POP ADDRESS PUSH2 0x1D8B JUMP JUMPDEST POP POP PUSH1 0x1 DUP1 SSTORE JUMP JUMPDEST PUSH1 0x15 DUP2 DUP2 SLOAD DUP2 LT PUSH2 0x6EB JUMPI PUSH1 0x0 DUP1 REVERT JUMPDEST PUSH1 0x8 SLOAD PUSH1 0x1 PUSH1 0x1 PUSH1 0xA0 SHL SUB AND CALLER EQ PUSH2 0xF96 JUMPI PUSH1 0x40 MLOAD PUSH3 0x461BCD PUSH1 0xE5 SHL DUP2 MSTORE PUSH1 0x4 ADD PUSH2 0x7E0 SWAP1 PUSH2 0x2A46 JUMP JUMPDEST PUSH1 0x8 DUP1 SLOAD PUSH1 0x1 PUSH1 0x1 PUSH1 0xA0 SHL SUB NOT AND PUSH1 0x1 PUSH1 0x1 PUSH1 0xA0 SHL SUB SWAP3 SWAP1 SWAP3 AND SWAP2 SWAP1 SWAP2 OR SWAP1 SSTORE JUMP JUMPDEST PUSH1 0x2 PUSH1 0x1 SLOAD EQ ISZERO PUSH2 0xFDB JUMPI PUSH1 0x40 MLOAD PUSH3 0x461BCD PUSH1 0xE5 SHL DUP2 MSTORE PUSH1 0x4 ADD PUSH2 0x7E0 SWAP1 PUSH2 0x2AC3 JUMP JUMPDEST PUSH1 0x2 PUSH1 0x1 SSTORE PUSH2 0xFEC PUSH1 0x2 SLOAD PUSH1 0xFF AND SWAP1 JUMP JUMPDEST ISZERO PUSH2 0x1009 JUMPI PUSH1 0x40 MLOAD PUSH3 0x461BCD PUSH1 0xE5 SHL DUP2 MSTORE PUSH1 0x4 ADD PUSH2 0x7E0 SWAP1 PUSH2 0x2A64 JUMP JUMPDEST PUSH1 0x0 SLOAD PUSH1 0x1 PUSH1 0x1 PUSH1 0xA0 SHL SUB AND CALLER EQ PUSH2 0x1033 JUMPI PUSH1 0x40 MLOAD PUSH3 0x461BCD PUSH1 0xE5 SHL DUP2 MSTORE PUSH1 0x4 ADD PUSH2 0x7E0 SWAP1 PUSH2 0x2A8E JUMP JUMPDEST PUSH2 0x103B PUSH2 0x1F7F JUMP JUMPDEST PUSH1 0x5 SLOAD PUSH1 0x40 MLOAD PUSH4 0x70A08231 PUSH1 0xE0 SHL DUP2 MSTORE ADDRESS PUSH1 0x4 DUP3 ADD MSTORE PUSH1 0x0 SWAP2 PUSH1 0x1 PUSH1 0x1 PUSH1 0xA0 SHL SUB AND SWAP1 PUSH4 0x70A08231 SWAP1 PUSH1 0x24 ADD PUSH1 0x20 PUSH1 0x40 MLOAD DUP1 DUP4 SUB DUP2 DUP7 DUP1 EXTCODESIZE ISZERO DUP1 ISZERO PUSH2 0x107F JUMPI PUSH1 0x0 DUP1 REVERT JUMPDEST POP GAS STATICCALL ISZERO DUP1 ISZERO PUSH2 0x1093 JUMPI RETURNDATASIZE PUSH1 0x0 DUP1 RETURNDATACOPY RETURNDATASIZE PUSH1 0x0 REVERT JUMPDEST POP POP POP POP PUSH1 0x40 MLOAD RETURNDATASIZE PUSH1 0x1F NOT PUSH1 0x1F DUP3 ADD AND DUP3 ADD DUP1 PUSH1 0x40 MSTORE POP DUP2 ADD SWAP1 PUSH2 0x10B7 SWAP2 SWAP1 PUSH2 0x28C4 JUMP JUMPDEST SWAP1 POP DUP1 ISZERO PUSH2 0x13F4 JUMPI PUSH2 0x10C8 DUP2 PUSH2 0x1FBB JUMP JUMPDEST SWAP1 POP PUSH2 0x10D3 DUP2 PUSH2 0x2070 JUMP JUMPDEST SWAP1 POP PUSH2 0x10DE DUP2 PUSH2 0x22B2 JUMP JUMPDEST PUSH1 0x3 SLOAD PUSH1 0x5 SLOAD SWAP2 SWAP3 POP PUSH1 0x1 PUSH1 0x1 PUSH1 0xA0 SHL SUB SWAP2 DUP3 AND SWAP2 AND EQ PUSH2 0x1166 JUMPI PUSH2 0x1166 PUSH2 0x1107 PUSH1 0x2 DUP4 PUSH2 0x2B67 JUMP JUMPDEST PUSH1 0x15 DUP1 SLOAD DUP1 PUSH1 0x20 MUL PUSH1 0x20 ADD PUSH1 0x40 MLOAD SWAP1 DUP2 ADD PUSH1 0x40 MSTORE DUP1 SWAP3 SWAP2 SWAP1 DUP2 DUP2 MSTORE PUSH1 0x20 ADD DUP3 DUP1 SLOAD DUP1 ISZERO PUSH2 0xE3D JUMPI PUSH1 0x20 MUL DUP3 ADD SWAP2 SWAP1 PUSH1 0x0 MSTORE PUSH1 0x20 PUSH1 0x0 KECCAK256 SWAP1 DUP2 SLOAD PUSH1 0x1 PUSH1 0x1 PUSH1 0xA0 SHL SUB AND DUP2 MSTORE PUSH1 0x1 SWAP1 SWAP2 ADD SWAP1 PUSH1 0x20 ADD DUP1 DUP4 GT PUSH2 0xE1F JUMPI POP POP POP POP POP ADDRESS PUSH2 0x1D8B JUMP JUMPDEST PUSH1 0x4 SLOAD PUSH1 0x5 SLOAD PUSH1 0x1 PUSH1 0x1 PUSH1 0xA0 SHL SUB SWAP1 DUP2 AND SWAP2 AND EQ PUSH2 0x11EB JUMPI PUSH2 0x11EB PUSH2 0x118C PUSH1 0x2 DUP4 PUSH2 0x2B67 JUMP JUMPDEST PUSH1 0x16 DUP1 SLOAD DUP1 PUSH1 0x20 MUL PUSH1 0x20 ADD PUSH1 0x40 MLOAD SWAP1 DUP2 ADD PUSH1 0x40 MSTORE DUP1 SWAP3 SWAP2 SWAP1 DUP2 DUP2 MSTORE PUSH1 0x20 ADD DUP3 DUP1 SLOAD DUP1 ISZERO PUSH2 0xE3D JUMPI PUSH1 0x20 MUL DUP3 ADD SWAP2 SWAP1 PUSH1 0x0 MSTORE PUSH1 0x20 PUSH1 0x0 KECCAK256 SWAP1 DUP2 SLOAD PUSH1 0x1 PUSH1 0x1 PUSH1 0xA0 SHL SUB AND DUP2 MSTORE PUSH1 0x1 SWAP1 SWAP2 ADD SWAP1 PUSH1 0x20 ADD DUP1 DUP4 GT PUSH2 0xE1F JUMPI POP POP POP POP POP ADDRESS PUSH2 0x1D8B JUMP JUMPDEST PUSH1 0x3 SLOAD PUSH1 0x40 MLOAD PUSH4 0x70A08231 PUSH1 0xE0 SHL DUP2 MSTORE ADDRESS PUSH1 0x4 DUP3 ADD MSTORE PUSH1 0x0 SWAP2 PUSH1 0x1 PUSH1 0x1 PUSH1 0xA0 SHL SUB AND SWAP1 PUSH4 0x70A08231 SWAP1 PUSH1 0x24 ADD PUSH1 0x20 PUSH1 0x40 MLOAD DUP1 DUP4 SUB DUP2 DUP7 DUP1 EXTCODESIZE ISZERO DUP1 ISZERO PUSH2 0x122F JUMPI PUSH1 0x0 DUP1 REVERT JUMPDEST POP GAS STATICCALL ISZERO DUP1 ISZERO PUSH2 0x1243 JUMPI RETURNDATASIZE PUSH1 0x0 DUP1 RETURNDATACOPY RETURNDATASIZE PUSH1 0x0 REVERT JUMPDEST POP POP POP POP PUSH1 0x40 MLOAD RETURNDATASIZE PUSH1 0x1F NOT PUSH1 0x1F DUP3 ADD AND DUP3 ADD DUP1 PUSH1 0x40 MSTORE POP DUP2 ADD SWAP1 PUSH2 0x1267 SWAP2 SWAP1 PUSH2 0x28C4 JUMP JUMPDEST PUSH1 0x4 DUP1 SLOAD PUSH1 0x40 MLOAD PUSH4 0x70A08231 PUSH1 0xE0 SHL DUP2 MSTORE ADDRESS SWAP3 DUP2 ADD SWAP3 SWAP1 SWAP3 MSTORE SWAP2 SWAP3 POP PUSH1 0x0 SWAP2 PUSH1 0x1 PUSH1 0x1 PUSH1 0xA0 SHL SUB AND SWAP1 PUSH4 0x70A08231 SWAP1 PUSH1 0x24 ADD PUSH1 0x20 PUSH1 0x40 MLOAD DUP1 DUP4 SUB DUP2 DUP7 DUP1 EXTCODESIZE ISZERO DUP1 ISZERO PUSH2 0x12B1 JUMPI PUSH1 0x0 DUP1 REVERT JUMPDEST POP GAS STATICCALL ISZERO DUP1 ISZERO PUSH2 0x12C5 JUMPI RETURNDATASIZE PUSH1 0x0 DUP1 RETURNDATACOPY RETURNDATASIZE PUSH1 0x0 REVERT JUMPDEST POP POP POP POP PUSH1 0x40 MLOAD RETURNDATASIZE PUSH1 0x1F NOT PUSH1 0x1F DUP3 ADD AND DUP3 ADD DUP1 PUSH1 0x40 MSTORE POP DUP2 ADD SWAP1 PUSH2 0x12E9 SWAP2 SWAP1 PUSH2 0x28C4 JUMP JUMPDEST SWAP1 POP PUSH1 0x0 DUP3 GT DUP1 ISZERO PUSH2 0x12FB JUMPI POP PUSH1 0x0 DUP2 GT JUMPDEST ISZERO PUSH2 0x13E4 JUMPI PUSH1 0x6 SLOAD PUSH1 0x3 SLOAD PUSH1 0x4 SLOAD PUSH1 0x1 PUSH1 0x1 PUSH1 0xA0 SHL SUB SWAP3 DUP4 AND SWAP3 PUSH4 0xE8E33700 SWAP3 DUP2 AND SWAP2 AND DUP6 DUP6 PUSH1 0x0 DUP1 ADDRESS PUSH2 0x1331 TIMESTAMP PUSH2 0x258 PUSH2 0x2B4F JUMP JUMPDEST PUSH1 0x40 MLOAD PUSH1 0xE0 DUP11 SWAP1 SHL PUSH1 0x1 PUSH1 0x1 PUSH1 0xE0 SHL SUB NOT AND DUP2 MSTORE PUSH1 0x1 PUSH1 0x1 PUSH1 0xA0 SHL SUB SWAP9 DUP10 AND PUSH1 0x4 DUP3 ADD MSTORE SWAP7 DUP9 AND PUSH1 0x24 DUP9 ADD MSTORE PUSH1 0x44 DUP8 ADD SWAP6 SWAP1 SWAP6 MSTORE PUSH1 0x64 DUP7 ADD SWAP4 SWAP1 SWAP4 MSTORE PUSH1 0x84 DUP6 ADD SWAP2 SWAP1 SWAP2 MSTORE PUSH1 0xA4 DUP5 ADD MSTORE SWAP1 SWAP3 AND PUSH1 0xC4 DUP3 ADD MSTORE PUSH1 0xE4 DUP2 ADD SWAP2 SWAP1 SWAP2 MSTORE PUSH2 0x104 ADD PUSH1 0x60 PUSH1 0x40 MLOAD DUP1 DUP4 SUB DUP2 PUSH1 0x0 DUP8 DUP1 EXTCODESIZE ISZERO DUP1 ISZERO PUSH2 0x13A8 JUMPI PUSH1 0x0 DUP1 REVERT JUMPDEST POP GAS CALL ISZERO DUP1 ISZERO PUSH2 0x13BC JUMPI RETURNDATASIZE PUSH1 0x0 DUP1 RETURNDATACOPY RETURNDATASIZE PUSH1 0x0 REVERT JUMPDEST POP POP POP POP PUSH1 0x40 MLOAD RETURNDATASIZE PUSH1 0x1F NOT PUSH1 0x1F DUP3 ADD AND DUP3 ADD DUP1 PUSH1 0x40 MSTORE POP DUP2 ADD SWAP1 PUSH2 0x13E0 SWAP2 SWAP1 PUSH2 0x2901 JUMP JUMPDEST POP POP POP JUMPDEST NUMBER PUSH1 0x9 SSTORE PUSH2 0x13F0 PUSH2 0x1C75 JUMP JUMPDEST POP POP POP JUMPDEST POP PUSH1 0x1 DUP1 SSTORE JUMP JUMPDEST PUSH1 0x0 SLOAD PUSH1 0x1 PUSH1 0x1 PUSH1 0xA0 SHL SUB AND CALLER EQ PUSH2 0x1425 JUMPI PUSH1 0x40 MLOAD PUSH3 0x461BCD PUSH1 0xE5 SHL DUP2 MSTORE PUSH1 0x4 ADD PUSH2 0x7E0 SWAP1 PUSH2 0x2A8E JUMP JUMPDEST PUSH1 0x1 PUSH1 0x1 PUSH1 0xA0 SHL SUB DUP2 AND PUSH2 0x148A JUMPI PUSH1 0x40 MLOAD PUSH3 0x461BCD PUSH1 0xE5 SHL DUP2 MSTORE PUSH1 0x20 PUSH1 0x4 DUP3 ADD MSTORE PUSH1 0x26 PUSH1 0x24 DUP3 ADD MSTORE PUSH32 0x4F776E61626C653A206E6577206F776E657220697320746865207A65726F2061 PUSH1 0x44 DUP3 ADD MSTORE PUSH6 0x646472657373 PUSH1 0xD0 SHL PUSH1 0x64 DUP3 ADD MSTORE PUSH1 0x84 ADD PUSH2 0x7E0 JUMP JUMPDEST PUSH2 0xA3B DUP2 PUSH2 0x1D3B JUMP JUMPDEST PUSH1 0x0 DUP1 SLOAD PUSH1 0x1 PUSH1 0x1 PUSH1 0xA0 SHL SUB AND CALLER EQ PUSH2 0x14BE JUMPI PUSH1 0x40 MLOAD PUSH3 0x461BCD PUSH1 0xE5 SHL DUP2 MSTORE PUSH1 0x4 ADD PUSH2 0x7E0 SWAP1 PUSH2 0x2A8E JUMP JUMPDEST PUSH1 0x2 PUSH1 0x1 SLOAD EQ ISZERO PUSH2 0x14E1 JUMPI PUSH1 0x40 MLOAD PUSH3 0x461BCD PUSH1 0xE5 SHL DUP2 MSTORE PUSH1 0x4 ADD PUSH2 0x7E0 SWAP1 PUSH2 0x2AC3 JUMP JUMPDEST PUSH1 0x2 PUSH1 0x1 SSTORE DUP2 PUSH2 0x1523 JUMPI PUSH1 0x40 MLOAD PUSH3 0x461BCD PUSH1 0xE5 SHL DUP2 MSTORE PUSH1 0x20 PUSH1 0x4 DUP3 ADD MSTORE PUSH1 0xD PUSH1 0x24 DUP3 ADD MSTORE PUSH13 0x5F77616E74416D74206973203 PUSH1 0x9C SHL PUSH1 0x44 DUP3 ADD MSTORE PUSH1 0x64 ADD PUSH2 0x7E0 JUMP JUMPDEST PUSH1 0x2 SLOAD PUSH1 0x40 MLOAD PUSH4 0x70A08231 PUSH1 0xE0 SHL DUP2 MSTORE ADDRESS PUSH1 0x4 DUP3 ADD MSTORE PUSH1 0x0 SWAP2 PUSH2 0x100 SWAP1 DIV PUSH1 0x1 PUSH1 0x1 PUSH1 0xA0 SHL SUB AND SWAP1 PUSH4 0x70A08231 SWAP1 PUSH1 0x24 ADD PUSH1 0x20 PUSH1 0x40 MLOAD DUP1 DUP4 SUB DUP2 DUP7 DUP1 EXTCODESIZE ISZERO DUP1 ISZERO PUSH2 0x156C JUMPI PUSH1 0x0 DUP1 REVERT JUMPDEST POP GAS STATICCALL ISZERO DUP1 ISZERO PUSH2 0x1580 JUMPI RETURNDATASIZE PUSH1 0x0 DUP1 RETURNDATACOPY RETURNDATASIZE PUSH1 0x0 REVERT JUMPDEST POP POP POP POP PUSH1 0x40 MLOAD RETURNDATASIZE PUSH1 0x1F NOT PUSH1 0x1F DUP3 ADD AND DUP3 ADD DUP1 PUSH1 0x40 MSTORE POP DUP2 ADD SWAP1 PUSH2 0x15A4 SWAP2 SWAP1 PUSH2 0x28C4 JUMP JUMPDEST SWAP1 POP DUP1 DUP4 GT ISZERO PUSH2 0x1642 JUMPI PUSH2 0x15C0 PUSH2 0x15BB DUP3 DUP6 PUSH2 0x2B9A JUMP JUMPDEST PUSH2 0x2343 JUMP JUMPDEST PUSH1 0x2 SLOAD PUSH1 0x40 MLOAD PUSH4 0x70A08231 PUSH1 0xE0 SHL DUP2 MSTORE ADDRESS PUSH1 0x4 DUP3 ADD MSTORE PUSH2 0x100 SWAP1 SWAP2 DIV PUSH1 0x1 PUSH1 0x1 PUSH1 0xA0 SHL SUB AND SWAP1 PUSH4 0x70A08231 SWAP1 PUSH1 0x24 ADD PUSH1 0x20 PUSH1 0x40 MLOAD DUP1 DUP4 SUB DUP2 DUP7 DUP1 EXTCODESIZE ISZERO DUP1 ISZERO PUSH2 0x1607 JUMPI PUSH1 0x0 DUP1 REVERT JUMPDEST POP GAS STATICCALL ISZERO DUP1 ISZERO PUSH2 0x161B JUMPI RETURNDATASIZE PUSH1 0x0 DUP1 RETURNDATACOPY RETURNDATASIZE PUSH1 0x0 REVERT JUMPDEST POP POP POP POP PUSH1 0x40 MLOAD RETURNDATASIZE PUSH1 0x1F NOT PUSH1 0x1F DUP3 ADD AND DUP3 ADD DUP1 PUSH1 0x40 MSTORE POP DUP2 ADD SWAP1 PUSH2 0x163F SWAP2 SWAP1 PUSH2 0x28C4 JUMP JUMPDEST SWAP1 POP JUMPDEST DUP1 DUP4 GT ISZERO PUSH2 0x164E JUMPI DUP1 SWAP3 POP JUMPDEST PUSH2 0x1656 PUSH2 0x825 JUMP JUMPDEST DUP4 GT ISZERO PUSH2 0x1668 JUMPI PUSH2 0x1665 PUSH2 0x825 JUMP JUMPDEST SWAP3 POP JUMPDEST PUSH1 0x0 PUSH2 0x1688 PUSH2 0x1675 PUSH2 0x825 JUMP JUMPDEST PUSH1 0xA SLOAD PUSH2 0x1682 SWAP1 DUP8 PUSH2 0x2B7B JUMP JUMPDEST SWAP1 PUSH2 0x23B4 JUMP JUMPDEST SWAP1 POP PUSH1 0xA SLOAD DUP2 GT ISZERO PUSH2 0x1699 JUMPI POP PUSH1 0xA SLOAD JUMPDEST DUP1 PUSH1 0xA PUSH1 0x0 DUP3 DUP3 SLOAD PUSH2 0x16AB SWAP2 SWAP1 PUSH2 0x2B9A JUMP JUMPDEST SWAP1 SWAP2 SSTORE POP POP PUSH1 0xE SLOAD PUSH1 0x0 SWAP1 PUSH2 0x2710 SWAP1 PUSH2 0x16C4 SWAP1 DUP3 PUSH2 0x2B9A JUMP JUMPDEST PUSH2 0x16CE SWAP1 DUP8 PUSH2 0x2B7B JUMP JUMPDEST PUSH2 0x16D8 SWAP2 SWAP1 PUSH2 0x2B67 JUMP JUMPDEST SWAP1 POP DUP1 ISZERO PUSH2 0x1710 JUMPI PUSH1 0x2 SLOAD PUSH2 0x1710 SWAP1 PUSH2 0x100 SWAP1 DIV PUSH1 0x1 PUSH1 0x1 PUSH1 0xA0 SHL SUB AND PUSH20 0x5386881B46C37CDD30A748F7771CF95D7B213637 DUP4 PUSH2 0x23E6 JUMP JUMPDEST PUSH2 0x171A DUP2 DUP7 PUSH2 0x2B9A JUMP JUMPDEST PUSH1 0x7 SLOAD PUSH1 0x2 SLOAD SWAP2 SWAP7 POP PUSH2 0x173F SWAP2 PUSH2 0x100 SWAP1 DIV PUSH1 0x1 PUSH1 0x1 PUSH1 0xA0 SHL SUB SWAP1 DUP2 AND SWAP2 AND DUP8 PUSH2 0x23E6 JUMP JUMPDEST POP PUSH1 0x1 DUP1 SSTORE SWAP5 SWAP4 POP POP POP POP JUMP JUMPDEST DUP1 ISZERO DUP1 PUSH2 0x17D5 JUMPI POP PUSH1 0x40 MLOAD PUSH4 0x6EB1769F PUSH1 0xE1 SHL DUP2 MSTORE ADDRESS PUSH1 0x4 DUP3 ADD MSTORE PUSH1 0x1 PUSH1 0x1 PUSH1 0xA0 SHL SUB DUP4 DUP2 AND PUSH1 0x24 DUP4 ADD MSTORE DUP5 AND SWAP1 PUSH4 0xDD62ED3E SWAP1 PUSH1 0x44 ADD PUSH1 0x20 PUSH1 0x40 MLOAD DUP1 DUP4 SUB DUP2 DUP7 DUP1 EXTCODESIZE ISZERO DUP1 ISZERO PUSH2 0x179B JUMPI PUSH1 0x0 DUP1 REVERT JUMPDEST POP GAS STATICCALL ISZERO DUP1 ISZERO PUSH2 0x17AF JUMPI RETURNDATASIZE PUSH1 0x0 DUP1 RETURNDATACOPY RETURNDATASIZE PUSH1 0x0 REVERT JUMPDEST POP POP POP POP PUSH1 0x40 MLOAD RETURNDATASIZE PUSH1 0x1F NOT PUSH1 0x1F DUP3 ADD AND DUP3 ADD DUP1 PUSH1 0x40 MSTORE POP DUP2 ADD SWAP1 PUSH2 0x17D3 SWAP2 SWAP1 PUSH2 0x28C4 JUMP JUMPDEST ISZERO JUMPDEST PUSH2 0x1840 JUMPI PUSH1 0x40 MLOAD PUSH3 0x461BCD PUSH1 0xE5 SHL DUP2 MSTORE PUSH1 0x20 PUSH1 0x4 DUP3 ADD MSTORE PUSH1 0x36 PUSH1 0x24 DUP3 ADD MSTORE PUSH32 0x5361666545524332303A20617070726F76652066726F6D206E6F6E2D7A65726F PUSH1 0x44 DUP3 ADD MSTORE PUSH22 0x20746F206E6F6E2D7A65726F20616C6C6F77616E6365 PUSH1 0x50 SHL PUSH1 0x64 DUP3 ADD MSTORE PUSH1 0x84 ADD PUSH2 0x7E0 JUMP JUMPDEST PUSH1 0x40 MLOAD PUSH1 0x1 PUSH1 0x1 PUSH1 0xA0 SHL SUB DUP4 AND PUSH1 0x24 DUP3 ADD MSTORE PUSH1 0x44 DUP2 ADD DUP3 SWAP1 MSTORE PUSH2 0x18A3 SWAP1 DUP5 SWAP1 PUSH4 0x95EA7B3 PUSH1 0xE0 SHL SWAP1 PUSH1 0x64 ADD JUMPDEST PUSH1 0x40 DUP1 MLOAD PUSH1 0x1F NOT DUP2 DUP5 SUB ADD DUP2 MSTORE SWAP2 SWAP1 MSTORE PUSH1 0x20 DUP2 ADD DUP1 MLOAD PUSH1 0x1 PUSH1 0x1 PUSH1 0xE0 SHL SUB AND PUSH1 0x1 PUSH1 0x1 PUSH1 0xE0 SHL SUB NOT SWAP1 SWAP4 AND SWAP3 SWAP1 SWAP3 OR SWAP1 SWAP2 MSTORE PUSH2 0x2416 JUMP JUMPDEST POP POP POP JUMP JUMPDEST PUSH1 0x40 MLOAD PUSH4 0x6EB1769F PUSH1 0xE1 SHL DUP2 MSTORE ADDRESS PUSH1 0x4 DUP3 ADD MSTORE PUSH1 0x1 PUSH1 0x1 PUSH1 0xA0 SHL SUB DUP4 DUP2 AND PUSH1 0x24 DUP4 ADD MSTORE PUSH1 0x0 SWAP2 DUP4 SWAP2 DUP7 AND SWAP1 PUSH4 0xDD62ED3E SWAP1 PUSH1 0x44 ADD PUSH1 0x20 PUSH1 0x40 MLOAD DUP1 DUP4 SUB DUP2 DUP7 DUP1 EXTCODESIZE ISZERO DUP1 ISZERO PUSH2 0x18F4 JUMPI PUSH1 0x0 DUP1 REVERT JUMPDEST POP GAS STATICCALL ISZERO DUP1 ISZERO PUSH2 0x1908 JUMPI RETURNDATASIZE PUSH1 0x0 DUP1 RETURNDATACOPY RETURNDATASIZE PUSH1 0x0 REVERT JUMPDEST POP POP POP POP PUSH1 0x40 MLOAD RETURNDATASIZE PUSH1 0x1F NOT PUSH1 0x1F DUP3 ADD AND DUP3 ADD DUP1 PUSH1 0x40 MSTORE POP DUP2 ADD SWAP1 PUSH2 0x192C SWAP2 SWAP1 PUSH2 0x28C4 JUMP JUMPDEST PUSH2 0x1936 SWAP2 SWAP1 PUSH2 0x2B4F JUMP JUMPDEST PUSH1 0x40 MLOAD PUSH1 0x1 PUSH1 0x1 PUSH1 0xA0 SHL SUB DUP6 AND PUSH1 0x24 DUP3 ADD MSTORE PUSH1 0x44 DUP2 ADD DUP3 SWAP1 MSTORE SWAP1 SWAP2 POP PUSH2 0x1969 SWAP1 DUP6 SWAP1 PUSH4 0x95EA7B3 PUSH1 0xE0 SHL SWAP1 PUSH1 0x64 ADD PUSH2 0x186C JUMP JUMPDEST POP POP POP POP JUMP JUMPDEST PUSH1 0x60 PUSH2 0x197E DUP5 DUP5 PUSH1 0x0 DUP6 PUSH2 0x24E8 JUMP JUMPDEST SWAP1 POP JUMPDEST SWAP4 SWAP3 POP POP POP JUMP JUMPDEST PUSH1 0x1B SLOAD PUSH1 0x2 SLOAD PUSH2 0x19AB SWAP2 PUSH1 0x1 PUSH1 0x1 PUSH1 0xA0 SHL SUB PUSH2 0x100 SWAP1 SWAP3 DIV DUP3 AND SWAP2 AND PUSH1 0x0 PUSH2 0x174C JUMP JUMPDEST PUSH1 0x1B SLOAD PUSH1 0x2 SLOAD PUSH2 0x19CF SWAP2 PUSH1 0x1 PUSH1 0x1 PUSH1 0xA0 SHL SUB PUSH2 0x100 SWAP1 SWAP3 DIV DUP3 AND SWAP2 AND PUSH1 0x0 NOT PUSH2 0x18A8 JUMP JUMPDEST PUSH1 0x6 SLOAD PUSH1 0x5 SLOAD PUSH2 0x19ED SWAP2 PUSH1 0x1 PUSH1 0x1 PUSH1 0xA0 SHL SUB SWAP2 DUP3 AND SWAP2 AND PUSH1 0x0 PUSH2 0x174C JUMP JUMPDEST PUSH1 0x6 SLOAD PUSH1 0x5 SLOAD PUSH2 0x1A0C SWAP2 PUSH1 0x1 PUSH1 0x1 PUSH1 0xA0 SHL SUB SWAP2 DUP3 AND SWAP2 AND PUSH1 0x0 NOT PUSH2 0x18A8 JUMP JUMPDEST PUSH1 0x6 SLOAD PUSH1 0x3 SLOAD PUSH2 0x1A2A SWAP2 PUSH1 0x1 PUSH1 0x1 PUSH1 0xA0 SHL SUB SWAP2 DUP3 AND SWAP2 AND PUSH1 0x0 PUSH2 0x174C JUMP JUMPDEST PUSH1 0x6 SLOAD PUSH1 0x3 SLOAD PUSH2 0x1A49 SWAP2 PUSH1 0x1 PUSH1 0x1 PUSH1 0xA0 SHL SUB SWAP2 DUP3 AND SWAP2 AND PUSH1 0x0 NOT PUSH2 0x18A8 JUMP JUMPDEST PUSH1 0x6 SLOAD PUSH1 0x4 SLOAD PUSH2 0x1A67 SWAP2 PUSH1 0x1 PUSH1 0x1 PUSH1 0xA0 SHL SUB SWAP2 DUP3 AND SWAP2 AND PUSH1 0x0 PUSH2 0x174C JUMP JUMPDEST PUSH1 0x6 SLOAD PUSH1 0x4 SLOAD PUSH2 0x1A86 SWAP2 PUSH1 0x1 PUSH1 0x1 PUSH1 0xA0 SHL SUB SWAP2 DUP3 AND SWAP2 AND PUSH1 0x0 NOT PUSH2 0x18A8 JUMP JUMPDEST PUSH2 0x1ABA PUSH20 0x2791BCA1F2DE4661ED88A30C99A7A9449AA84174 PUSH20 0x917FB15E8AAA12264DCBDC15AFEF7CD3CE76BA39 PUSH1 0x0 PUSH2 0x174C JUMP JUMPDEST PUSH2 0x7F1 PUSH20 0x2791BCA1F2DE4661ED88A30C99A7A9449AA84174 PUSH20 0x917FB15E8AAA12264DCBDC15AFEF7CD3CE76BA39 PUSH1 0x0 NOT PUSH2 0x18A8 JUMP JUMPDEST PUSH1 0x2 SLOAD PUSH1 0xFF AND PUSH2 0x1B38 JUMPI PUSH1 0x40 MLOAD PUSH3 0x461BCD PUSH1 0xE5 SHL DUP2 MSTORE PUSH1 0x20 PUSH1 0x4 DUP3 ADD MSTORE PUSH1 0x14 PUSH1 0x24 DUP3 ADD MSTORE PUSH20 0x14185D5CD8589B194E881B9BDD081C185D5CD959 PUSH1 0x62 SHL PUSH1 0x44 DUP3 ADD MSTORE PUSH1 0x64 ADD PUSH2 0x7E0 JUMP JUMPDEST PUSH1 0x2 DUP1 SLOAD PUSH1 0xFF NOT AND SWAP1 SSTORE PUSH32 0x5DB9EE0A495BF2E6FF9C91A7834C1BA4FDD244A5E8AA4E537BD38AEAE4B073AA CALLER JUMPDEST PUSH1 0x40 MLOAD PUSH1 0x1 PUSH1 0x1 PUSH1 0xA0 SHL SUB SWAP1 SWAP2 AND DUP2 MSTORE PUSH1 0x20 ADD PUSH1 0x40 MLOAD DUP1 SWAP2 SUB SWAP1 LOG1 JUMP JUMPDEST PUSH1 0x2 SLOAD PUSH1 0xFF AND ISZERO PUSH2 0x1BA5 JUMPI PUSH1 0x40 MLOAD PUSH3 0x461BCD PUSH1 0xE5 SHL DUP2 MSTORE PUSH1 0x4 ADD PUSH2 0x7E0 SWAP1 PUSH2 0x2A64 JUMP JUMPDEST PUSH1 0x2 DUP1 SLOAD PUSH1 0xFF NOT AND PUSH1 0x1 OR SWAP1 SSTORE PUSH32 0x62E78CEA01BEE320CD4E420270B5EA74000D11B0C9F74754EBDBFC544B05A258 PUSH2 0x1B65 CALLER SWAP1 JUMP JUMPDEST PUSH1 0x1B SLOAD PUSH1 0x1C SLOAD PUSH1 0x40 MLOAD PUSH4 0x29897547 PUSH1 0xE1 SHL DUP2 MSTORE PUSH1 0x1 PUSH1 0x1 PUSH1 0xA0 SHL SUB SWAP1 SWAP3 AND SWAP2 PUSH4 0x5312EA8E SWAP2 PUSH2 0x1C0F SWAP2 PUSH1 0x4 ADD SWAP1 DUP2 MSTORE PUSH1 0x20 ADD SWAP1 JUMP JUMPDEST PUSH1 0x0 PUSH1 0x40 MLOAD DUP1 DUP4 SUB DUP2 PUSH1 0x0 DUP8 DUP1 EXTCODESIZE ISZERO DUP1 ISZERO PUSH2 0x1C29 JUMPI PUSH1 0x0 DUP1 REVERT JUMPDEST POP GAS CALL ISZERO DUP1 ISZERO PUSH2 0x1969 JUMPI RETURNDATASIZE PUSH1 0x0 DUP1 RETURNDATACOPY RETURNDATASIZE PUSH1 0x0 REVERT JUMPDEST PUSH1 0x40 MLOAD PUSH1 0x1 PUSH1 0x1 PUSH1 0xA0 SHL SUB DUP1 DUP6 AND PUSH1 0x24 DUP4 ADD MSTORE DUP4 AND PUSH1 0x44 DUP3 ADD MSTORE PUSH1 0x64 DUP2 ADD DUP3 SWAP1 MSTORE PUSH2 0x1969 SWAP1 DUP6 SWAP1 PUSH4 0x23B872DD PUSH1 0xE0 SHL SWAP1 PUSH1 0x84 ADD PUSH2 0x186C JUMP JUMPDEST PUSH1 0x2 SLOAD PUSH1 0x40 MLOAD PUSH4 0x70A08231 PUSH1 0xE0 SHL DUP2 MSTORE ADDRESS PUSH1 0x4 DUP3 ADD MSTORE PUSH1 0x0 SWAP2 DUP3 SWAP2 PUSH2 0x100 SWAP1 SWAP2 DIV PUSH1 0x1 PUSH1 0x1 PUSH1 0xA0 SHL SUB AND SWAP1 PUSH4 0x70A08231 SWAP1 PUSH1 0x24 ADD PUSH1 0x20 PUSH1 0x40 MLOAD DUP1 DUP4 SUB DUP2 DUP7 DUP1 EXTCODESIZE ISZERO DUP1 ISZERO PUSH2 0x1CC1 JUMPI PUSH1 0x0 DUP1 REVERT JUMPDEST POP GAS STATICCALL ISZERO DUP1 ISZERO PUSH2 0x1CD5 JUMPI RETURNDATASIZE PUSH1 0x0 DUP1 RETURNDATACOPY RETURNDATASIZE PUSH1 0x0 REVERT JUMPDEST POP POP POP POP PUSH1 0x40 MLOAD RETURNDATASIZE PUSH1 0x1F NOT PUSH1 0x1F DUP3 ADD AND DUP3 ADD DUP1 PUSH1 0x40 MSTORE POP DUP2 ADD SWAP1 PUSH2 0x1CF9 SWAP2 SWAP1 PUSH2 0x28C4 JUMP JUMPDEST SWAP1 POP DUP1 PUSH2 0x1D08 JUMPI PUSH1 0x0 SWAP2 POP POP SWAP1 JUMP JUMPDEST PUSH1 0x0 PUSH2 0x1D12 PUSH2 0x705 JUMP JUMPDEST SWAP1 POP PUSH2 0x1D1D DUP3 PUSH2 0x2610 JUMP JUMPDEST PUSH1 0x0 PUSH2 0x1D27 PUSH2 0x705 JUMP JUMPDEST SWAP1 POP PUSH2 0x1D33 DUP3 DUP3 PUSH2 0x2B9A JUMP JUMPDEST SWAP4 POP POP POP POP SWAP1 JUMP JUMPDEST PUSH1 0x0 DUP1 SLOAD PUSH1 0x1 PUSH1 0x1 PUSH1 0xA0 SHL SUB DUP4 DUP2 AND PUSH1 0x1 PUSH1 0x1 PUSH1 0xA0 SHL SUB NOT DUP4 AND DUP2 OR DUP5 SSTORE PUSH1 0x40 MLOAD SWAP2 SWAP1 SWAP3 AND SWAP3 DUP4 SWAP2 PUSH32 0x8BE0079C531659141344CD1FD0A4F28419497F9722A3DAAFE3B4186F6B6457E0 SWAP2 SWAP1 LOG3 POP POP JUMP JUMPDEST PUSH1 0x6 SLOAD PUSH1 0x40 MLOAD PUSH4 0xD06CA61F PUSH1 0xE0 SHL DUP2 MSTORE PUSH1 0x0 SWAP2 PUSH1 0x1 PUSH1 0x1 PUSH1 0xA0 SHL SUB AND SWAP1 PUSH4 0xD06CA61F SWAP1 PUSH2 0x1DBE SWAP1 DUP8 SWAP1 DUP8 SWAP1 PUSH1 0x4 ADD PUSH2 0x2AFA JUMP JUMPDEST PUSH1 0x0 PUSH1 0x40 MLOAD DUP1 DUP4 SUB DUP2 DUP7 DUP1 EXTCODESIZE ISZERO DUP1 ISZERO PUSH2 0x1DD6 JUMPI PUSH1 0x0 DUP1 REVERT JUMPDEST POP GAS STATICCALL ISZERO DUP1 ISZERO PUSH2 0x1DEA JUMPI RETURNDATASIZE PUSH1 0x0 DUP1 RETURNDATACOPY RETURNDATASIZE PUSH1 0x0 REVERT JUMPDEST POP POP POP POP PUSH1 0x40 MLOAD RETURNDATASIZE PUSH1 0x0 DUP3 RETURNDATACOPY PUSH1 0x1F RETURNDATASIZE SWAP1 DUP2 ADD PUSH1 0x1F NOT AND DUP3 ADD PUSH1 0x40 MSTORE PUSH2 0x1E12 SWAP2 SWAP1 DUP2 ADD SWAP1 PUSH2 0x27C4 JUMP JUMPDEST SWAP1 POP PUSH1 0x0 DUP2 PUSH1 0x1 DUP4 MLOAD PUSH2 0x1E25 SWAP2 SWAP1 PUSH2 0x2B9A JUMP JUMPDEST DUP2 MLOAD DUP2 LT PUSH2 0x1E35 JUMPI PUSH2 0x1E35 PUSH2 0x2C1D JUMP JUMPDEST PUSH1 0x20 MUL PUSH1 0x20 ADD ADD MLOAD SWAP1 POP PUSH20 0x76BF0C28E604CC3FE9967C83B3C3F31C213CFE64 PUSH1 0x1 PUSH1 0x1 PUSH1 0xA0 SHL SUB AND DUP5 PUSH1 0x1 DUP7 MLOAD PUSH2 0x1E6C SWAP2 SWAP1 PUSH2 0x2B9A JUMP JUMPDEST DUP2 MLOAD DUP2 LT PUSH2 0x1E7C JUMPI PUSH2 0x1E7C PUSH2 0x2C1D JUMP JUMPDEST PUSH1 0x20 MUL PUSH1 0x20 ADD ADD MLOAD PUSH1 0x1 PUSH1 0x1 PUSH1 0xA0 SHL SUB AND EQ DUP1 ISZERO PUSH2 0x1EA4 JUMPI POP PUSH1 0x1 PUSH1 0x1 PUSH1 0xA0 SHL SUB DUP4 AND PUSH2 0xDEAD EQ JUMPDEST ISZERO PUSH2 0x1EC1 JUMPI DUP1 PUSH1 0x11 PUSH1 0x0 DUP3 DUP3 SLOAD PUSH2 0x1EBB SWAP2 SWAP1 PUSH2 0x2B4F JUMP JUMPDEST SWAP1 SWAP2 SSTORE POP POP JUMPDEST PUSH1 0x6 SLOAD PUSH1 0xF SLOAD PUSH1 0x1 PUSH1 0x1 PUSH1 0xA0 SHL SUB SWAP1 SWAP2 AND SWAP1 PUSH4 0x38ED1739 SWAP1 DUP8 SWAP1 PUSH2 0x3E8 SWAP1 PUSH2 0x1EE9 SWAP1 DUP7 PUSH2 0x2B7B JUMP JUMPDEST PUSH2 0x1EF3 SWAP2 SWAP1 PUSH2 0x2B67 JUMP JUMPDEST DUP8 DUP8 PUSH2 0x1F01 TIMESTAMP PUSH2 0x258 PUSH2 0x2B4F JUMP JUMPDEST PUSH1 0x40 MLOAD DUP7 PUSH4 0xFFFFFFFF AND PUSH1 0xE0 SHL DUP2 MSTORE PUSH1 0x4 ADD PUSH2 0x1F21 SWAP6 SWAP5 SWAP4 SWAP3 SWAP2 SWAP1 PUSH2 0x2B13 JUMP JUMPDEST PUSH1 0x0 PUSH1 0x40 MLOAD DUP1 DUP4 SUB DUP2 PUSH1 0x0 DUP8 DUP1 EXTCODESIZE ISZERO DUP1 ISZERO PUSH2 0x1F3B JUMPI PUSH1 0x0 DUP1 REVERT JUMPDEST POP GAS CALL ISZERO DUP1 ISZERO PUSH2 0x1F4F JUMPI RETURNDATASIZE PUSH1 0x0 DUP1 RETURNDATACOPY RETURNDATASIZE PUSH1 0x0 REVERT JUMPDEST POP POP POP POP PUSH1 0x40 MLOAD RETURNDATASIZE PUSH1 0x0 DUP3 RETURNDATACOPY PUSH1 0x1F RETURNDATASIZE SWAP1 DUP2 ADD PUSH1 0x1F NOT AND DUP3 ADD PUSH1 0x40 MSTORE PUSH2 0x1F77 SWAP2 SWAP1 DUP2 ADD SWAP1 PUSH2 0x27C4 JUMP JUMPDEST POP POP POP POP POP POP JUMP JUMPDEST PUSH1 0x1B SLOAD PUSH1 0x1C SLOAD PUSH1 0x40 MLOAD PUSH4 0x441A3E7 PUSH1 0xE4 SHL DUP2 MSTORE PUSH1 0x4 DUP2 ADD SWAP2 SWAP1 SWAP2 MSTORE PUSH1 0x0 PUSH1 0x24 DUP3 ADD MSTORE PUSH1 0x1 PUSH1 0x1 PUSH1 0xA0 SHL SUB SWAP1 SWAP2 AND SWAP1 PUSH4 0x441A3E70 SWAP1 PUSH1 0x44 ADD PUSH2 0x1C0F JUMP JUMPDEST PUSH1 0xB SLOAD PUSH1 0x0 SWAP1 ISZERO PUSH2 0x206C JUMPI PUSH1 0x0 PUSH2 0x2710 PUSH1 0xB SLOAD DUP5 PUSH2 0x1FD9 SWAP2 SWAP1 PUSH2 0x2B7B JUMP JUMPDEST PUSH2 0x1FE3 SWAP2 SWAP1 PUSH2 0x2B67 JUMP JUMPDEST SWAP1 POP PUSH2 0x205E DUP2 PUSH1 0x12 DUP1 SLOAD DUP1 PUSH1 0x20 MUL PUSH1 0x20 ADD PUSH1 0x40 MLOAD SWAP1 DUP2 ADD PUSH1 0x40 MSTORE DUP1 SWAP3 SWAP2 SWAP1 DUP2 DUP2 MSTORE PUSH1 0x20 ADD DUP3 DUP1 SLOAD DUP1 ISZERO PUSH2 0x203F JUMPI PUSH1 0x20 MUL DUP3 ADD SWAP2 SWAP1 PUSH1 0x0 MSTORE PUSH1 0x20 PUSH1 0x0 KECCAK256 SWAP1 JUMPDEST DUP2 SLOAD PUSH1 0x1 PUSH1 0x1 PUSH1 0xA0 SHL SUB AND DUP2 MSTORE PUSH1 0x1 SWAP1 SWAP2 ADD SWAP1 PUSH1 0x20 ADD DUP1 DUP4 GT PUSH2 0x2021 JUMPI JUMPDEST POP POP POP POP POP PUSH20 0x5386881B46C37CDD30A748F7771CF95D7B213637 PUSH2 0x264C JUMP JUMPDEST PUSH2 0x2068 DUP2 DUP5 PUSH2 0x2B9A JUMP JUMPDEST SWAP3 POP POP JUMPDEST POP SWAP1 JUMP JUMPDEST PUSH1 0xC SLOAD PUSH1 0x0 SWAP1 ISZERO PUSH2 0x206C JUMPI PUSH1 0x0 PUSH2 0x2710 PUSH1 0xC SLOAD DUP5 PUSH2 0x208E SWAP2 SWAP1 PUSH2 0x2B7B JUMP JUMPDEST PUSH2 0x2098 SWAP2 SWAP1 PUSH2 0x2B67 JUMP JUMPDEST PUSH1 0x40 MLOAD PUSH4 0x70A08231 PUSH1 0xE0 SHL DUP2 MSTORE ADDRESS PUSH1 0x4 DUP3 ADD MSTORE SWAP1 SWAP2 POP PUSH1 0x0 SWAP1 PUSH20 0x2791BCA1F2DE4661ED88A30C99A7A9449AA84174 SWAP1 PUSH4 0x70A08231 SWAP1 PUSH1 0x24 ADD PUSH1 0x20 PUSH1 0x40 MLOAD DUP1 DUP4 SUB DUP2 DUP7 DUP1 EXTCODESIZE ISZERO DUP1 ISZERO PUSH2 0x20E8 JUMPI PUSH1 0x0 DUP1 REVERT JUMPDEST POP GAS STATICCALL ISZERO DUP1 ISZERO PUSH2 0x20FC JUMPI RETURNDATASIZE PUSH1 0x0 DUP1 RETURNDATACOPY RETURNDATASIZE PUSH1 0x0 REVERT JUMPDEST POP POP POP POP PUSH1 0x40 MLOAD RETURNDATASIZE PUSH1 0x1F NOT PUSH1 0x1F DUP3 ADD AND DUP3 ADD DUP1 PUSH1 0x40 MSTORE POP DUP2 ADD SWAP1 PUSH2 0x2120 SWAP2 SWAP1 PUSH2 0x28C4 JUMP JUMPDEST SWAP1 POP PUSH2 0x2185 DUP3 PUSH1 0x13 DUP1 SLOAD DUP1 PUSH1 0x20 MUL PUSH1 0x20 ADD PUSH1 0x40 MLOAD SWAP1 DUP2 ADD PUSH1 0x40 MSTORE DUP1 SWAP3 SWAP2 SWAP1 DUP2 DUP2 MSTORE PUSH1 0x20 ADD DUP3 DUP1 SLOAD DUP1 ISZERO PUSH2 0xE3D JUMPI PUSH1 0x20 MUL DUP3 ADD SWAP2 SWAP1 PUSH1 0x0 MSTORE PUSH1 0x20 PUSH1 0x0 KECCAK256 SWAP1 DUP2 SLOAD PUSH1 0x1 PUSH1 0x1 PUSH1 0xA0 SHL SUB AND DUP2 MSTORE PUSH1 0x1 SWAP1 SWAP2 ADD SWAP1 PUSH1 0x20 ADD DUP1 DUP4 GT PUSH2 0xE1F JUMPI POP POP POP POP POP ADDRESS PUSH2 0x1D8B JUMP JUMPDEST PUSH1 0x40 MLOAD PUSH4 0x70A08231 PUSH1 0xE0 SHL DUP2 MSTORE ADDRESS PUSH1 0x4 DUP3 ADD MSTORE PUSH1 0x0 SWAP1 DUP3 SWAP1 PUSH20 0x2791BCA1F2DE4661ED88A30C99A7A9449AA84174 SWAP1 PUSH4 0x70A08231 SWAP1 PUSH1 0x24 ADD PUSH1 0x20 PUSH1 0x40 MLOAD DUP1 DUP4 SUB DUP2 DUP7 DUP1 EXTCODESIZE ISZERO DUP1 ISZERO PUSH2 0x21D4 JUMPI PUSH1 0x0 DUP1 REVERT JUMPDEST POP GAS STATICCALL ISZERO DUP1 ISZERO PUSH2 0x21E8 JUMPI RETURNDATASIZE PUSH1 0x0 DUP1 RETURNDATACOPY RETURNDATASIZE PUSH1 0x0 REVERT JUMPDEST POP POP POP POP PUSH1 0x40 MLOAD RETURNDATASIZE PUSH1 0x1F NOT PUSH1 0x1F DUP3 ADD AND DUP3 ADD DUP1 PUSH1 0x40 MSTORE POP DUP2 ADD SWAP1 PUSH2 0x220C SWAP2 SWAP1 PUSH2 0x28C4 JUMP JUMPDEST PUSH2 0x2216 SWAP2 SWAP1 PUSH2 0x2B9A JUMP JUMPDEST PUSH1 0x40 MLOAD PUSH4 0x1E2720FF PUSH1 0xE0 SHL DUP2 MSTORE PUSH1 0x4 DUP2 ADD DUP3 SWAP1 MSTORE SWAP1 SWAP2 POP PUSH20 0x917FB15E8AAA12264DCBDC15AFEF7CD3CE76BA39 SWAP1 PUSH4 0x1E2720FF SWAP1 PUSH1 0x24 ADD PUSH1 0x20 PUSH1 0x40 MLOAD DUP1 DUP4 SUB DUP2 PUSH1 0x0 DUP8 DUP1 EXTCODESIZE ISZERO DUP1 ISZERO PUSH2 0x2266 JUMPI PUSH1 0x0 DUP1 REVERT JUMPDEST POP GAS CALL ISZERO DUP1 ISZERO PUSH2 0x227A JUMPI RETURNDATASIZE PUSH1 0x0 DUP1 RETURNDATACOPY RETURNDATASIZE PUSH1 0x0 REVERT JUMPDEST POP POP POP POP PUSH1 0x40 MLOAD RETURNDATASIZE PUSH1 0x1F NOT PUSH1 0x1F DUP3 ADD AND DUP3 ADD DUP1 PUSH1 0x40 MSTORE POP DUP2 ADD SWAP1 PUSH2 0x229E SWAP2 SWAP1 PUSH2 0x2889 JUMP JUMPDEST POP PUSH2 0x22A9 DUP4 DUP7 PUSH2 0x2B9A JUMP JUMPDEST SWAP5 POP POP POP POP POP SWAP1 JUMP JUMPDEST PUSH1 0xD SLOAD PUSH1 0x0 SWAP1 ISZERO PUSH2 0x206C JUMPI PUSH1 0x0 PUSH2 0x2710 PUSH1 0xD SLOAD DUP5 PUSH2 0x22D0 SWAP2 SWAP1 PUSH2 0x2B7B JUMP JUMPDEST PUSH2 0x22DA SWAP2 SWAP1 PUSH2 0x2B67 JUMP JUMPDEST SWAP1 POP PUSH2 0x205E DUP2 PUSH1 0x14 DUP1 SLOAD DUP1 PUSH1 0x20 MUL PUSH1 0x20 ADD PUSH1 0x40 MLOAD SWAP1 DUP2 ADD PUSH1 0x40 MSTORE DUP1 SWAP3 SWAP2 SWAP1 DUP2 DUP2 MSTORE PUSH1 0x20 ADD DUP3 DUP1 SLOAD DUP1 ISZERO PUSH2 0x2336 JUMPI PUSH1 0x20 MUL DUP3 ADD SWAP2 SWAP1 PUSH1 0x0 MSTORE PUSH1 0x20 PUSH1 0x0 KECCAK256 SWAP1 JUMPDEST DUP2 SLOAD PUSH1 0x1 PUSH1 0x1 PUSH1 0xA0 SHL SUB AND DUP2 MSTORE PUSH1 0x1 SWAP1 SWAP2 ADD SWAP1 PUSH1 0x20 ADD DUP1 DUP4 GT PUSH2 0x2318 JUMPI JUMPDEST POP POP POP POP POP PUSH2 0xDEAD PUSH2 0x1D8B JUMP JUMPDEST PUSH1 0x1B SLOAD PUSH1 0x1C SLOAD PUSH1 0x40 MLOAD PUSH4 0x441A3E7 PUSH1 0xE4 SHL DUP2 MSTORE PUSH1 0x1 PUSH1 0x1 PUSH1 0xA0 SHL SUB SWAP1 SWAP3 AND SWAP2 PUSH4 0x441A3E70 SWAP2 PUSH2 0x237F SWAP2 DUP6 SWAP1 PUSH1 0x4 ADD SWAP2 DUP3 MSTORE PUSH1 0x20 DUP3 ADD MSTORE PUSH1 0x40 ADD SWAP1 JUMP JUMPDEST PUSH1 0x0 PUSH1 0x40 MLOAD DUP1 DUP4 SUB DUP2 PUSH1 0x0 DUP8 DUP1 EXTCODESIZE ISZERO DUP1 ISZERO PUSH2 0x2399 JUMPI PUSH1 0x0 DUP1 REVERT JUMPDEST POP GAS CALL ISZERO DUP1 ISZERO PUSH2 0x23AD JUMPI RETURNDATASIZE PUSH1 0x0 DUP1 RETURNDATACOPY RETURNDATASIZE PUSH1 0x0 REVERT JUMPDEST POP POP POP POP POP JUMP JUMPDEST PUSH1 0x0 PUSH2 0x23C0 DUP3 DUP5 PUSH2 0x2BDD JUMP JUMPDEST ISZERO PUSH2 0x23CC JUMPI PUSH1 0x1 PUSH2 0x23CF JUMP JUMPDEST PUSH1 0x0 JUMPDEST PUSH1 0xFF AND PUSH2 0x23DC DUP4 DUP6 PUSH2 0x2B67 JUMP JUMPDEST PUSH2 0x1981 SWAP2 SWAP1 PUSH2 0x2B4F JUMP JUMPDEST PUSH1 0x40 MLOAD PUSH1 0x1 PUSH1 0x1 PUSH1 0xA0 SHL SUB DUP4 AND PUSH1 0x24 DUP3 ADD MSTORE PUSH1 0x44 DUP2 ADD DUP3 SWAP1 MSTORE PUSH2 0x18A3 SWAP1 DUP5 SWAP1 PUSH4 0xA9059CBB PUSH1 0xE0 SHL SWAP1 PUSH1 0x64 ADD PUSH2 0x186C JUMP JUMPDEST PUSH1 0x0 PUSH2 0x246B DUP3 PUSH1 0x40 MLOAD DUP1 PUSH1 0x40 ADD PUSH1 0x40 MSTORE DUP1 PUSH1 0x20 DUP2 MSTORE PUSH1 0x20 ADD PUSH32 0x5361666545524332303A206C6F772D6C6576656C2063616C6C206661696C6564 DUP2 MSTORE POP DUP6 PUSH1 0x1 PUSH1 0x1 PUSH1 0xA0 SHL SUB AND PUSH2 0x196F SWAP1 SWAP3 SWAP2 SWAP1 PUSH4 0xFFFFFFFF AND JUMP JUMPDEST DUP1 MLOAD SWAP1 SWAP2 POP ISZERO PUSH2 0x18A3 JUMPI DUP1 DUP1 PUSH1 0x20 ADD SWAP1 MLOAD DUP2 ADD SWAP1 PUSH2 0x2489 SWAP2 SWAP1 PUSH2 0x2889 JUMP JUMPDEST PUSH2 0x18A3 JUMPI PUSH1 0x40 MLOAD PUSH3 0x461BCD PUSH1 0xE5 SHL DUP2 MSTORE PUSH1 0x20 PUSH1 0x4 DUP3 ADD MSTORE PUSH1 0x2A PUSH1 0x24 DUP3 ADD MSTORE PUSH32 0x5361666545524332303A204552433230206F7065726174696F6E20646964206E PUSH1 0x44 DUP3 ADD MSTORE PUSH10 0x1BDD081CDD58D8D95959 PUSH1 0xB2 SHL PUSH1 0x64 DUP3 ADD MSTORE PUSH1 0x84 ADD PUSH2 0x7E0 JUMP JUMPDEST PUSH1 0x60 DUP3 SELFBALANCE LT ISZERO PUSH2 0x2549 JUMPI PUSH1 0x40 MLOAD PUSH3 0x461BCD PUSH1 0xE5 SHL DUP2 MSTORE PUSH1 0x20 PUSH1 0x4 DUP3 ADD MSTORE PUSH1 0x26 PUSH1 0x24 DUP3 ADD MSTORE PUSH32 0x416464726573733A20696E73756666696369656E742062616C616E636520666F PUSH1 0x44 DUP3 ADD MSTORE PUSH6 0x1C8818D85B1B PUSH1 0xD2 SHL PUSH1 0x64 DUP3 ADD MSTORE PUSH1 0x84 ADD PUSH2 0x7E0 JUMP JUMPDEST DUP5 EXTCODESIZE PUSH2 0x2597 JUMPI PUSH1 0x40 MLOAD PUSH3 0x461BCD PUSH1 0xE5 SHL DUP2 MSTORE PUSH1 0x20 PUSH1 0x4 DUP3 ADD MSTORE PUSH1 0x1D PUSH1 0x24 DUP3 ADD MSTORE PUSH32 0x416464726573733A2063616C6C20746F206E6F6E2D636F6E7472616374000000 PUSH1 0x44 DUP3 ADD MSTORE PUSH1 0x64 ADD PUSH2 0x7E0 JUMP JUMPDEST PUSH1 0x0 DUP1 DUP7 PUSH1 0x1 PUSH1 0x1 PUSH1 0xA0 SHL SUB AND DUP6 DUP8 PUSH1 0x40 MLOAD PUSH2 0x25B3 SWAP2 SWAP1 PUSH2 0x29CF JUMP JUMPDEST PUSH1 0x0 PUSH1 0x40 MLOAD DUP1 DUP4 SUB DUP2 DUP6 DUP8 GAS CALL SWAP3 POP POP POP RETURNDATASIZE DUP1 PUSH1 0x0 DUP2 EQ PUSH2 0x25F0 JUMPI PUSH1 0x40 MLOAD SWAP2 POP PUSH1 0x1F NOT PUSH1 0x3F RETURNDATASIZE ADD AND DUP3 ADD PUSH1 0x40 MSTORE RETURNDATASIZE DUP3 MSTORE RETURNDATASIZE PUSH1 0x0 PUSH1 0x20 DUP5 ADD RETURNDATACOPY PUSH2 0x25F5 JUMP JUMPDEST PUSH1 0x60 SWAP2 POP JUMPDEST POP SWAP2 POP SWAP2 POP PUSH2 0x2605 DUP3 DUP3 DUP7 PUSH2 0x272A JUMP JUMPDEST SWAP8 SWAP7 POP POP POP POP POP POP POP JUMP JUMPDEST PUSH1 0x1B SLOAD PUSH1 0x1C SLOAD PUSH1 0x40 MLOAD PUSH4 0x1C57762B PUSH1 0xE3 SHL DUP2 MSTORE PUSH1 0x1 PUSH1 0x1 PUSH1 0xA0 SHL SUB SWAP1 SWAP3 AND SWAP2 PUSH4 0xE2BBB158 SWAP2 PUSH2 0x237F SWAP2 DUP6 SWAP1 PUSH1 0x4 ADD SWAP2 DUP3 MSTORE PUSH1 0x20 DUP3 ADD MSTORE PUSH1 0x40 ADD SWAP1 JUMP JUMPDEST PUSH1 0x6 SLOAD PUSH1 0x40 MLOAD PUSH4 0xD06CA61F PUSH1 0xE0 SHL DUP2 MSTORE PUSH1 0x0 SWAP2 PUSH1 0x1 PUSH1 0x1 PUSH1 0xA0 SHL SUB AND SWAP1 PUSH4 0xD06CA61F SWAP1 PUSH2 0x267F SWAP1 DUP8 SWAP1 DUP8 SWAP1 PUSH1 0x4 ADD PUSH2 0x2AFA JUMP JUMPDEST PUSH1 0x0 PUSH1 0x40 MLOAD DUP1 DUP4 SUB DUP2 DUP7 DUP1 EXTCODESIZE ISZERO DUP1 ISZERO PUSH2 0x2697 JUMPI PUSH1 0x0 DUP1 REVERT JUMPDEST POP GAS STATICCALL ISZERO DUP1 ISZERO PUSH2 0x26AB JUMPI RETURNDATASIZE PUSH1 0x0 DUP1 RETURNDATACOPY RETURNDATASIZE PUSH1 0x0 REVERT JUMPDEST POP POP POP POP PUSH1 0x40 MLOAD RETURNDATASIZE PUSH1 0x0 DUP3 RETURNDATACOPY PUSH1 0x1F RETURNDATASIZE SWAP1 DUP2 ADD PUSH1 0x1F NOT AND DUP3 ADD PUSH1 0x40 MSTORE PUSH2 0x26D3 SWAP2 SWAP1 DUP2 ADD SWAP1 PUSH2 0x27C4 JUMP JUMPDEST SWAP1 POP PUSH1 0x0 DUP2 PUSH1 0x1 DUP4 MLOAD PUSH2 0x26E6 SWAP2 SWAP1 PUSH2 0x2B9A JUMP JUMPDEST DUP2 MLOAD DUP2 LT PUSH2 0x26F6 JUMPI PUSH2 0x26F6 PUSH2 0x2C1D JUMP JUMPDEST PUSH1 0x20 SWAP1 DUP2 MUL SWAP2 SWAP1 SWAP2 ADD ADD MLOAD PUSH1 0x6 SLOAD PUSH1 0xF SLOAD SWAP2 SWAP3 POP PUSH1 0x1 PUSH1 0x1 PUSH1 0xA0 SHL SUB AND SWAP1 PUSH4 0x18CBAFE5 SWAP1 DUP8 SWAP1 PUSH2 0x3E8 SWAP1 PUSH2 0x1EE9 SWAP1 DUP7 PUSH2 0x2B7B JUMP JUMPDEST PUSH1 0x60 DUP4 ISZERO PUSH2 0x2739 JUMPI POP DUP2 PUSH2 0x1981 JUMP JUMPDEST DUP3 MLOAD ISZERO PUSH2 0x2749 JUMPI DUP3 MLOAD DUP1 DUP5 PUSH1 0x20 ADD REVERT JUMPDEST DUP2 PUSH1 0x40 MLOAD PUSH3 0x461BCD PUSH1 0xE5 SHL DUP2 MSTORE PUSH1 0x4 ADD PUSH2 0x7E0 SWAP2 SWAP1 PUSH2 0x2A13 JUMP JUMPDEST DUP1 CALLDATALOAD PUSH1 0x1 PUSH1 0x1 PUSH1 0xA0 SHL SUB DUP2 AND DUP2 EQ PUSH2 0x277A JUMPI PUSH1 0x0 DUP1 REVERT JUMPDEST SWAP2 SWAP1 POP JUMP JUMPDEST PUSH1 0x0 PUSH1 0x20 DUP3 DUP5 SUB SLT ISZERO PUSH2 0x2791 JUMPI PUSH1 0x0 DUP1 REVERT JUMPDEST PUSH2 0x1981 DUP3 PUSH2 0x2763 JUMP JUMPDEST PUSH1 0x0 DUP1 PUSH1 0x40 DUP4 DUP6 SUB SLT ISZERO PUSH2 0x27AD JUMPI PUSH1 0x0 DUP1 REVERT JUMPDEST PUSH2 0x27B6 DUP4 PUSH2 0x2763 JUMP JUMPDEST SWAP5 PUSH1 0x20 SWAP4 SWAP1 SWAP4 ADD CALLDATALOAD SWAP4 POP POP POP JUMP JUMPDEST PUSH1 0x0 PUSH1 0x20 DUP1 DUP4 DUP6 SUB SLT ISZERO PUSH2 0x27D7 JUMPI PUSH1 0x0 DUP1 REVERT JUMPDEST DUP3 MLOAD PUSH8 0xFFFFFFFFFFFFFFFF DUP1 DUP3 GT ISZERO PUSH2 0x27EF JUMPI PUSH1 0x0 DUP1 REVERT JUMPDEST DUP2 DUP6 ADD SWAP2 POP DUP6 PUSH1 0x1F DUP4 ADD SLT PUSH2 0x2803 JUMPI PUSH1 0x0 DUP1 REVERT JUMPDEST DUP2 MLOAD DUP2 DUP2 GT ISZERO PUSH2 0x2815 JUMPI PUSH2 0x2815 PUSH2 0x2C33 JUMP JUMPDEST DUP1 PUSH1 0x5 SHL PUSH1 0x40 MLOAD PUSH1 0x1F NOT PUSH1 0x3F DUP4 ADD AND DUP2 ADD DUP2 DUP2 LT DUP6 DUP3 GT OR ISZERO PUSH2 0x283A JUMPI PUSH2 0x283A PUSH2 0x2C33 JUMP JUMPDEST PUSH1 0x40 MSTORE DUP3 DUP2 MSTORE DUP6 DUP2 ADD SWAP4 POP DUP5 DUP7 ADD DUP3 DUP7 ADD DUP8 ADD DUP11 LT ISZERO PUSH2 0x2859 JUMPI PUSH1 0x0 DUP1 REVERT JUMPDEST PUSH1 0x0 SWAP6 POP JUMPDEST DUP4 DUP7 LT ISZERO PUSH2 0x287C JUMPI DUP1 MLOAD DUP6 MSTORE PUSH1 0x1 SWAP6 SWAP1 SWAP6 ADD SWAP5 SWAP4 DUP7 ADD SWAP4 DUP7 ADD PUSH2 0x285E JUMP JUMPDEST POP SWAP9 SWAP8 POP POP POP POP POP POP POP POP JUMP JUMPDEST PUSH1 0x0 PUSH1 0x20 DUP3 DUP5 SUB SLT ISZERO PUSH2 0x289B JUMPI PUSH1 0x0 DUP1 REVERT JUMPDEST DUP2 MLOAD DUP1 ISZERO ISZERO DUP2 EQ PUSH2 0x1981 JUMPI PUSH1 0x0 DUP1 REVERT JUMPDEST PUSH1 0x0 PUSH1 0x20 DUP3 DUP5 SUB SLT ISZERO PUSH2 0x28BD JUMPI PUSH1 0x0 DUP1 REVERT JUMPDEST POP CALLDATALOAD SWAP2 SWAP1 POP JUMP JUMPDEST PUSH1 0x0 PUSH1 0x20 DUP3 DUP5 SUB SLT ISZERO PUSH2 0x28D6 JUMPI PUSH1 0x0 DUP1 REVERT JUMPDEST POP MLOAD SWAP2 SWAP1 POP JUMP JUMPDEST PUSH1 0x0 DUP1 PUSH1 0x40 DUP4 DUP6 SUB SLT ISZERO PUSH2 0x28F0 JUMPI PUSH1 0x0 DUP1 REVERT JUMPDEST POP POP DUP1 MLOAD PUSH1 0x20 SWAP1 SWAP2 ADD MLOAD SWAP1 SWAP3 SWAP1 SWAP2 POP JUMP JUMPDEST PUSH1 0x0 DUP1 PUSH1 0x0 PUSH1 0x60 DUP5 DUP7 SUB SLT ISZERO PUSH2 0x2916 JUMPI PUSH1 0x0 DUP1 REVERT JUMPDEST DUP4 MLOAD SWAP3 POP PUSH1 0x20 DUP5 ADD MLOAD SWAP2 POP PUSH1 0x40 DUP5 ADD MLOAD SWAP1 POP SWAP3 POP SWAP3 POP SWAP3 JUMP JUMPDEST PUSH1 0x0 DUP1 PUSH1 0x0 DUP1 PUSH1 0x0 DUP1 PUSH1 0x0 PUSH1 0xE0 DUP9 DUP11 SUB SLT ISZERO PUSH2 0x294A JUMPI PUSH1 0x0 DUP1 REVERT JUMPDEST DUP8 CALLDATALOAD SWAP7 POP PUSH1 0x20 DUP9 ADD CALLDATALOAD SWAP6 POP PUSH1 0x40 DUP9 ADD CALLDATALOAD SWAP5 POP PUSH1 0x60 DUP9 ADD CALLDATALOAD SWAP4 POP PUSH1 0x80 DUP9 ADD CALLDATALOAD SWAP3 POP PUSH1 0xA0 DUP9 ADD CALLDATALOAD SWAP2 POP PUSH2 0x297D PUSH1 0xC0 DUP10 ADD PUSH2 0x2763 JUMP JUMPDEST SWAP1 POP SWAP3 SWAP6 SWAP9 SWAP2 SWAP5 SWAP8 POP SWAP3 SWAP6 POP JUMP JUMPDEST PUSH1 0x0 DUP2 MLOAD DUP1 DUP5 MSTORE PUSH1 0x20 DUP1 DUP6 ADD SWAP5 POP DUP1 DUP5 ADD PUSH1 0x0 JUMPDEST DUP4 DUP2 LT ISZERO PUSH2 0x29C4 JUMPI DUP2 MLOAD PUSH1 0x1 PUSH1 0x1 PUSH1 0xA0 SHL SUB AND DUP8 MSTORE SWAP6 DUP3 ADD SWAP6 SWAP1 DUP3 ADD SWAP1 PUSH1 0x1 ADD PUSH2 0x299F JUMP JUMPDEST POP SWAP5 SWAP6 SWAP5 POP POP POP POP POP JUMP JUMPDEST PUSH1 0x0 DUP3 MLOAD PUSH2 0x29E1 DUP2 DUP5 PUSH1 0x20 DUP8 ADD PUSH2 0x2BB1 JUMP JUMPDEST SWAP2 SWAP1 SWAP2 ADD SWAP3 SWAP2 POP POP JUMP JUMPDEST PUSH1 0x20 DUP2 ADD PUSH1 0x4 DUP4 LT PUSH2 0x2A0D JUMPI PUSH4 0x4E487B71 PUSH1 0xE0 SHL PUSH1 0x0 MSTORE PUSH1 0x21 PUSH1 0x4 MSTORE PUSH1 0x24 PUSH1 0x0 REVERT JUMPDEST SWAP2 SWAP1 MSTORE SWAP1 JUMP JUMPDEST PUSH1 0x20 DUP2 MSTORE PUSH1 0x0 DUP3 MLOAD DUP1 PUSH1 0x20 DUP5 ADD MSTORE PUSH2 0x2A32 DUP2 PUSH1 0x40 DUP6 ADD PUSH1 0x20 DUP8 ADD PUSH2 0x2BB1 JUMP JUMPDEST PUSH1 0x1F ADD PUSH1 0x1F NOT AND SWAP2 SWAP1 SWAP2 ADD PUSH1 0x40 ADD SWAP3 SWAP2 POP POP JUMP JUMPDEST PUSH1 0x20 DUP1 DUP3 MSTORE PUSH1 0x4 SWAP1 DUP3 ADD MSTORE PUSH4 0x10B3B7BB PUSH1 0xE1 SHL PUSH1 0x40 DUP3 ADD MSTORE PUSH1 0x60 ADD SWAP1 JUMP JUMPDEST PUSH1 0x20 DUP1 DUP3 MSTORE PUSH1 0x10 SWAP1 DUP3 ADD MSTORE PUSH16 0x14185D5CD8589B194E881C185D5CD959 PUSH1 0x82 SHL PUSH1 0x40 DUP3 ADD MSTORE PUSH1 0x60 ADD SWAP1 JUMP JUMPDEST PUSH1 0x20 DUP1 DUP3 MSTORE DUP2 DUP2 ADD MSTORE PUSH32 0x4F776E61626C653A2063616C6C6572206973206E6F7420746865206F776E6572 PUSH1 0x40 DUP3 ADD MSTORE PUSH1 0x60 ADD SWAP1 JUMP JUMPDEST PUSH1 0x20 DUP1 DUP3 MSTORE PUSH1 0x1F SWAP1 DUP3 ADD MSTORE PUSH32 0x5265656E7472616E637947756172643A207265656E7472616E742063616C6C00 PUSH1 0x40 DUP3 ADD MSTORE PUSH1 0x60 ADD SWAP1 JUMP JUMPDEST DUP3 DUP2 MSTORE PUSH1 0x40 PUSH1 0x20 DUP3 ADD MSTORE PUSH1 0x0 PUSH2 0x197E PUSH1 0x40 DUP4 ADD DUP5 PUSH2 0x298B JUMP JUMPDEST DUP6 DUP2 MSTORE DUP5 PUSH1 0x20 DUP3 ADD MSTORE PUSH1 0xA0 PUSH1 0x40 DUP3 ADD MSTORE PUSH1 0x0 PUSH2 0x2B32 PUSH1 0xA0 DUP4 ADD DUP7 PUSH2 0x298B JUMP JUMPDEST PUSH1 0x1 PUSH1 0x1 PUSH1 0xA0 SHL SUB SWAP5 SWAP1 SWAP5 AND PUSH1 0x60 DUP4 ADD MSTORE POP PUSH1 0x80 ADD MSTORE SWAP4 SWAP3 POP POP POP JUMP JUMPDEST PUSH1 0x0 DUP3 NOT DUP3 GT ISZERO PUSH2 0x2B62 JUMPI PUSH2 0x2B62 PUSH2 0x2BF1 JUMP JUMPDEST POP ADD SWAP1 JUMP JUMPDEST PUSH1 0x0 DUP3 PUSH2 0x2B76 JUMPI PUSH2 0x2B76 PUSH2 0x2C07 JUMP JUMPDEST POP DIV SWAP1 JUMP JUMPDEST PUSH1 0x0 DUP2 PUSH1 0x0 NOT DIV DUP4 GT DUP3 ISZERO ISZERO AND ISZERO PUSH2 0x2B95 JUMPI PUSH2 0x2B95 PUSH2 0x2BF1 JUMP JUMPDEST POP MUL SWAP1 JUMP JUMPDEST PUSH1 0x0 DUP3 DUP3 LT ISZERO PUSH2 0x2BAC JUMPI PUSH2 0x2BAC PUSH2 0x2BF1 JUMP JUMPDEST POP SUB SWAP1 JUMP JUMPDEST PUSH1 0x0 JUMPDEST DUP4 DUP2 LT ISZERO PUSH2 0x2BCC JUMPI DUP2 DUP2 ADD MLOAD DUP4 DUP3 ADD MSTORE PUSH1 0x20 ADD PUSH2 0x2BB4 JUMP JUMPDEST DUP4 DUP2 GT ISZERO PUSH2 0x1969 JUMPI POP POP PUSH1 0x0 SWAP2 ADD MSTORE JUMP JUMPDEST PUSH1 0x0 DUP3 PUSH2 0x2BEC JUMPI PUSH2 0x2BEC PUSH2 0x2C07 JUMP JUMPDEST POP MOD SWAP1 JUMP JUMPDEST PUSH4 0x4E487B71 PUSH1 0xE0 SHL PUSH1 0x0 MSTORE PUSH1 0x11 PUSH1 0x4 MSTORE PUSH1 0x24 PUSH1 0x0 REVERT JUMPDEST PUSH4 0x4E487B71 PUSH1 0xE0 SHL PUSH1 0x0 MSTORE PUSH1 0x12 PUSH1 0x4 MSTORE PUSH1 0x24 PUSH1 0x0 REVERT JUMPDEST PUSH4 0x4E487B71 PUSH1 0xE0 SHL PUSH1 0x0 MSTORE PUSH1 0x32 PUSH1 0x4 MSTORE PUSH1 0x24 PUSH1 0x0 REVERT JUMPDEST PUSH4 0x4E487B71 PUSH1 0xE0 SHL PUSH1 0x0 MSTORE PUSH1 0x41 PUSH1 0x4 MSTORE PUSH1 0x24 PUSH1 0x0 REVERT INVALID LOG2 PUSH5 0x6970667358 0x22 SLT KECCAK256 SWAP10 0x29 0xC1 0xE6 LT DUP6 0xB3 0xA9 0x4A 0x2D 0xBC MSTORE8 0xF7 SWAP3 0xD7 PUSH3 0xB3EC 0xAA 0x5C 0xA8 PUSH17 0x4AF83450F23C8BDAB864736F6C63430008 SMOD STOP CALLER "
		},
		"gasEstimates": {
			"creation": {
				"codeDepositCost": "2278200",
				"executionCost": "infinite",
				"totalCost": "infinite"
			},
			"external": {
				"burnedAmount()": "2385",
				"buyBackAddress()": "316",
				"buyBackRate()": "2386",
				"controllerFee()": "2363",
				"convertDustToEarned()": "infinite",
				"deposit(address,uint256)": "infinite",
				"earn()": "infinite",
				"earnedAddress()": "2393",
				"earnedToFishPath(uint256)": "4715",
				"earnedToMaxiPath(uint256)": "4738",
				"earnedToToken0Path(uint256)": "4693",
				"earnedToToken1Path(uint256)": "4715",
				"earnedToUsdcPath(uint256)": "4671",
				"earnedToWmaticPath(uint256)": "4716",
				"feeAddress()": "295",
				"feeMax()": "327",
				"feeMaxTotal()": "285",
				"fishAddress()": "272",
				"govAddress()": "2395",
				"lastEarnBlock()": "2364",
				"masterchefAddress()": "2394",
				"maxiAddress()": "2415",
				"owner()": "2388",
				"panic()": "infinite",
				"pause()": "29863",
				"paused()": "2404",
				"pid()": "2406",
				"renounceOwnership()": "28203",
				"resetAllowances()": "infinite",
				"rewardAddress()": "339",
				"rewardRate()": "2364",
				"setGov(address)": "26823",
				"setSettings(uint256,uint256,uint256,uint256,uint256,uint256,address)": "infinite",
				"sharesTotal()": "2429",
				"slippageFactor()": "2405",
				"slippageFactorUL()": "306",
				"stratType()": "2435",
				"token0Address()": "2417",
				"token0ToEarnedPath(uint256)": "4736",
				"token1Address()": "2437",
				"token1ToEarnedPath(uint256)": "4673",
				"tolerance()": "2428",
				"transferOwnership(address)": "28375",
				"uniRouterAddress()": "2438",
				"unpanic()": "infinite",
				"unpause()": "infinite",
				"usdcAddress()": "297",
				"vaultChefAddress()": "2395",
				"vaultSharesTotal()": "infinite",
				"wantAddress()": "2426",
				"wantLockedTotal()": "infinite",
				"withdraw(address,uint256)": "infinite",
				"withdrawFeeAddress()": "338",
				"withdrawFeeFactor()": "2385",
				"withdrawFeeFactorLL()": "285",
				"withdrawFeeFactorMax()": "263"
			},
			"internal": {
				"_emergencyVaultWithdraw()": "infinite",
				"_resetAllowances()": "infinite",
				"_vaultDeposit(uint256)": "infinite",
				"_vaultHarvest()": "infinite",
				"_vaultWithdraw(uint256)": "infinite"
			}
		},
		"methodIdentifiers": {
			"burnedAmount()": "50e15fdd",
			"buyBackAddress()": "783478ad",
			"buyBackRate()": "178a8d07",
			"controllerFee()": "85f02dd6",
			"convertDustToEarned()": "c11c2e92",
			"deposit(address,uint256)": "47e7ef24",
			"earn()": "d389800f",
			"earnedAddress()": "e7198474",
			"earnedToFishPath(uint256)": "8811dad0",
			"earnedToMaxiPath(uint256)": "30f6cf63",
			"earnedToToken0Path(uint256)": "c8e3d18b",
			"earnedToToken1Path(uint256)": "96e9aff8",
			"earnedToUsdcPath(uint256)": "49281683",
			"earnedToWmaticPath(uint256)": "260ab48c",
			"feeAddress()": "41275358",
			"feeMax()": "ffbe9f1e",
			"feeMaxTotal()": "8fefda06",
			"fishAddress()": "9872317f",
			"govAddress()": "46008a07",
			"lastEarnBlock()": "0fa4e01e",
			"masterchefAddress()": "40c34b58",
			"maxiAddress()": "d62e969d",
			"owner()": "8da5cb5b",
			"panic()": "4700d305",
			"pause()": "8456cb59",
			"paused()": "5c975abb",
			"pid()": "f1068454",
			"renounceOwnership()": "715018a6",
			"resetAllowances()": "3505b09f",
			"rewardAddress()": "8cf57cb9",
			"rewardRate()": "7b0a47ee",
			"setGov(address)": "cfad57a2",
			"setSettings(uint256,uint256,uint256,uint256,uint256,uint256,address)": "b02381c6",
			"sharesTotal()": "44a3955e",
			"slippageFactor()": "ffbd3b1f",
			"slippageFactorUL()": "b74cd242",
			"stratType()": "7115e9fa",
			"token0Address()": "7ff36fbe",
			"token0ToEarnedPath(uint256)": "b77050e7",
			"token1Address()": "d7cb416f",
			"token1ToEarnedPath(uint256)": "007a2ae3",
			"tolerance()": "dce52dfa",
			"transferOwnership(address)": "f2fde38b",
			"uniRouterAddress()": "693a090b",
			"unpanic()": "65a5e30b",
			"unpause()": "3f4ba83a",
			"usdcAddress()": "02d45457",
			"vaultChefAddress()": "3220d732",
			"vaultSharesTotal()": "04c9d490",
			"wantAddress()": "e7a03679",
			"wantLockedTotal()": "42da4eb3",
			"withdraw(address,uint256)": "f3fef3a3",
			"withdrawFeeAddress()": "784def8c",
			"withdrawFeeFactor()": "68f54162",
			"withdrawFeeFactorLL()": "866b2018",
			"withdrawFeeFactorMax()": "67057b6c"
		}
	},
	"abi": [
		{
			"inputs": [
				{
					"internalType": "uint256",
					"name": "_pid",
					"type": "uint256"
				},
				{
					"internalType": "uint256",
					"name": "_tolerance",
					"type": "uint256"
				},
				{
					"components": [
						{
							"internalType": "address",
							"name": "vaultChef",
							"type": "address"
						},
						{
							"internalType": "address",
							"name": "masterChef",
							"type": "address"
						},
						{
							"internalType": "address",
							"name": "uniRouter",
							"type": "address"
						},
						{
							"internalType": "address",
							"name": "want",
							"type": "address"
						},
						{
							"internalType": "address",
							"name": "earned",
							"type": "address"
						}
					],
					"internalType": "struct StrategyMasterHealer.InitAddresses",
					"name": "_initAddr",
					"type": "tuple"
				},
				{
					"internalType": "address[]",
					"name": "_earnedToWmaticPath",
					"type": "address[]"
				},
				{
					"internalType": "address[]",
					"name": "_earnedToUsdcPath",
					"type": "address[]"
				},
				{
					"internalType": "address[]",
					"name": "_earnedToFishPath",
					"type": "address[]"
				},
				{
					"internalType": "address[]",
					"name": "_earnedToToken0Path",
					"type": "address[]"
				},
				{
					"internalType": "address[]",
					"name": "_earnedToToken1Path",
					"type": "address[]"
				},
				{
					"internalType": "address[]",
					"name": "_token0ToEarnedPath",
					"type": "address[]"
				},
				{
					"internalType": "address[]",
					"name": "_token1ToEarnedPath",
					"type": "address[]"
				}
			],
			"stateMutability": "nonpayable",
			"type": "constructor"
		},
		{
			"anonymous": false,
			"inputs": [
				{
					"indexed": true,
					"internalType": "address",
					"name": "previousOwner",
					"type": "address"
				},
				{
					"indexed": true,
					"internalType": "address",
					"name": "newOwner",
					"type": "address"
				}
			],
			"name": "OwnershipTransferred",
			"type": "event"
		},
		{
			"anonymous": false,
			"inputs": [
				{
					"indexed": false,
					"internalType": "address",
					"name": "account",
					"type": "address"
				}
			],
			"name": "Paused",
			"type": "event"
		},
		{
			"anonymous": false,
			"inputs": [
				{
					"indexed": false,
					"internalType": "uint256",
					"name": "_controllerFee",
					"type": "uint256"
				},
				{
					"indexed": false,
					"internalType": "uint256",
					"name": "_rewardRate",
					"type": "uint256"
				},
				{
					"indexed": false,
					"internalType": "uint256",
					"name": "_buyBackRate",
					"type": "uint256"
				},
				{
					"indexed": false,
					"internalType": "uint256",
					"name": "_withdrawFeeFactor",
					"type": "uint256"
				},
				{
					"indexed": false,
					"internalType": "uint256",
					"name": "_slippageFactor",
					"type": "uint256"
				},
				{
					"indexed": false,
					"internalType": "uint256",
					"name": "_tolerance",
					"type": "uint256"
				},
				{
					"indexed": false,
					"internalType": "address",
					"name": "_uniRouterAddress",
					"type": "address"
				}
			],
			"name": "SetSettings",
			"type": "event"
		},
		{
			"anonymous": false,
			"inputs": [
				{
					"indexed": false,
					"internalType": "address",
					"name": "account",
					"type": "address"
				}
			],
			"name": "Unpaused",
			"type": "event"
		},
		{
			"inputs": [],
			"name": "burnedAmount",
			"outputs": [
				{
					"internalType": "uint256",
					"name": "",
					"type": "uint256"
				}
			],
			"stateMutability": "view",
			"type": "function"
		},
		{
			"inputs": [],
			"name": "buyBackAddress",
			"outputs": [
				{
					"internalType": "address",
					"name": "",
					"type": "address"
				}
			],
			"stateMutability": "view",
			"type": "function"
		},
		{
			"inputs": [],
			"name": "buyBackRate",
			"outputs": [
				{
					"internalType": "uint256",
					"name": "",
					"type": "uint256"
				}
			],
			"stateMutability": "view",
			"type": "function"
		},
		{
			"inputs": [],
			"name": "controllerFee",
			"outputs": [
				{
					"internalType": "uint256",
					"name": "",
					"type": "uint256"
				}
			],
			"stateMutability": "view",
			"type": "function"
		},
		{
			"inputs": [],
			"name": "convertDustToEarned",
			"outputs": [],
			"stateMutability": "nonpayable",
			"type": "function"
		},
		{
			"inputs": [
				{
					"internalType": "address",
					"name": "",
					"type": "address"
				},
				{
					"internalType": "uint256",
					"name": "_wantAmt",
					"type": "uint256"
				}
			],
			"name": "deposit",
			"outputs": [
				{
					"internalType": "uint256",
					"name": "",
					"type": "uint256"
				}
			],
			"stateMutability": "nonpayable",
			"type": "function"
		},
		{
			"inputs": [],
			"name": "earn",
			"outputs": [],
			"stateMutability": "nonpayable",
			"type": "function"
		},
		{
			"inputs": [],
			"name": "earnedAddress",
			"outputs": [
				{
					"internalType": "address",
					"name": "",
					"type": "address"
				}
			],
			"stateMutability": "view",
			"type": "function"
		},
		{
			"inputs": [
				{
					"internalType": "uint256",
					"name": "",
					"type": "uint256"
				}
			],
			"name": "earnedToFishPath",
			"outputs": [
				{
					"internalType": "address",
					"name": "",
					"type": "address"
				}
			],
			"stateMutability": "view",
			"type": "function"
		},
		{
			"inputs": [
				{
					"internalType": "uint256",
					"name": "",
					"type": "uint256"
				}
			],
			"name": "earnedToMaxiPath",
			"outputs": [
				{
					"internalType": "address",
					"name": "",
					"type": "address"
				}
			],
			"stateMutability": "view",
			"type": "function"
		},
		{
			"inputs": [
				{
					"internalType": "uint256",
					"name": "",
					"type": "uint256"
				}
			],
			"name": "earnedToToken0Path",
			"outputs": [
				{
					"internalType": "address",
					"name": "",
					"type": "address"
				}
			],
			"stateMutability": "view",
			"type": "function"
		},
		{
			"inputs": [
				{
					"internalType": "uint256",
					"name": "",
					"type": "uint256"
				}
			],
			"name": "earnedToToken1Path",
			"outputs": [
				{
					"internalType": "address",
					"name": "",
					"type": "address"
				}
			],
			"stateMutability": "view",
			"type": "function"
		},
		{
			"inputs": [
				{
					"internalType": "uint256",
					"name": "",
					"type": "uint256"
				}
			],
			"name": "earnedToUsdcPath",
			"outputs": [
				{
					"internalType": "address",
					"name": "",
					"type": "address"
				}
			],
			"stateMutability": "view",
			"type": "function"
		},
		{
			"inputs": [
				{
					"internalType": "uint256",
					"name": "",
					"type": "uint256"
				}
			],
			"name": "earnedToWmaticPath",
			"outputs": [
				{
					"internalType": "address",
					"name": "",
					"type": "address"
				}
			],
			"stateMutability": "view",
			"type": "function"
		},
		{
			"inputs": [],
			"name": "feeAddress",
			"outputs": [
				{
					"internalType": "address",
					"name": "",
					"type": "address"
				}
			],
			"stateMutability": "view",
			"type": "function"
		},
		{
			"inputs": [],
			"name": "feeMax",
			"outputs": [
				{
					"internalType": "uint256",
					"name": "",
					"type": "uint256"
				}
			],
			"stateMutability": "view",
			"type": "function"
		},
		{
			"inputs": [],
			"name": "feeMaxTotal",
			"outputs": [
				{
					"internalType": "uint256",
					"name": "",
					"type": "uint256"
				}
			],
			"stateMutability": "view",
			"type": "function"
		},
		{
			"inputs": [],
			"name": "fishAddress",
			"outputs": [
				{
					"internalType": "address",
					"name": "",
					"type": "address"
				}
			],
			"stateMutability": "view",
			"type": "function"
		},
		{
			"inputs": [],
			"name": "govAddress",
			"outputs": [
				{
					"internalType": "address",
					"name": "",
					"type": "address"
				}
			],
			"stateMutability": "view",
			"type": "function"
		},
		{
			"inputs": [],
			"name": "lastEarnBlock",
			"outputs": [
				{
					"internalType": "uint256",
					"name": "",
					"type": "uint256"
				}
			],
			"stateMutability": "view",
			"type": "function"
		},
		{
			"inputs": [],
			"name": "masterchefAddress",
			"outputs": [
				{
					"internalType": "address",
					"name": "",
					"type": "address"
				}
			],
			"stateMutability": "view",
			"type": "function"
		},
		{
			"inputs": [],
			"name": "maxiAddress",
			"outputs": [
				{
					"internalType": "address",
					"name": "",
					"type": "address"
				}
			],
			"stateMutability": "view",
			"type": "function"
		},
		{
			"inputs": [],
			"name": "owner",
			"outputs": [
				{
					"internalType": "address",
					"name": "",
					"type": "address"
				}
			],
			"stateMutability": "view",
			"type": "function"
		},
		{
			"inputs": [],
			"name": "panic",
			"outputs": [],
			"stateMutability": "nonpayable",
			"type": "function"
		},
		{
			"inputs": [],
			"name": "pause",
			"outputs": [],
			"stateMutability": "nonpayable",
			"type": "function"
		},
		{
			"inputs": [],
			"name": "paused",
			"outputs": [
				{
					"internalType": "bool",
					"name": "",
					"type": "bool"
				}
			],
			"stateMutability": "view",
			"type": "function"
		},
		{
			"inputs": [],
			"name": "pid",
			"outputs": [
				{
					"internalType": "uint256",
					"name": "",
					"type": "uint256"
				}
			],
			"stateMutability": "view",
			"type": "function"
		},
		{
			"inputs": [],
			"name": "renounceOwnership",
			"outputs": [],
			"stateMutability": "nonpayable",
			"type": "function"
		},
		{
			"inputs": [],
			"name": "resetAllowances",
			"outputs": [],
			"stateMutability": "nonpayable",
			"type": "function"
		},
		{
			"inputs": [],
			"name": "rewardAddress",
			"outputs": [
				{
					"internalType": "address",
					"name": "",
					"type": "address"
				}
			],
			"stateMutability": "view",
			"type": "function"
		},
		{
			"inputs": [],
			"name": "rewardRate",
			"outputs": [
				{
					"internalType": "uint256",
					"name": "",
					"type": "uint256"
				}
			],
			"stateMutability": "view",
			"type": "function"
		},
		{
			"inputs": [
				{
					"internalType": "address",
					"name": "_govAddress",
					"type": "address"
				}
			],
			"name": "setGov",
			"outputs": [],
			"stateMutability": "nonpayable",
			"type": "function"
		},
		{
			"inputs": [
				{
					"internalType": "uint256",
					"name": "_controllerFee",
					"type": "uint256"
				},
				{
					"internalType": "uint256",
					"name": "_rewardRate",
					"type": "uint256"
				},
				{
					"internalType": "uint256",
					"name": "_buyBackRate",
					"type": "uint256"
				},
				{
					"internalType": "uint256",
					"name": "_withdrawFeeFactor",
					"type": "uint256"
				},
				{
					"internalType": "uint256",
					"name": "_slippageFactor",
					"type": "uint256"
				},
				{
					"internalType": "uint256",
					"name": "_tolerance",
					"type": "uint256"
				},
				{
					"internalType": "address",
					"name": "_uniRouterAddress",
					"type": "address"
				}
			],
			"name": "setSettings",
			"outputs": [],
			"stateMutability": "nonpayable",
			"type": "function"
		},
		{
			"inputs": [],
			"name": "sharesTotal",
			"outputs": [
				{
					"internalType": "uint256",
					"name": "",
					"type": "uint256"
				}
			],
			"stateMutability": "view",
			"type": "function"
		},
		{
			"inputs": [],
			"name": "slippageFactor",
			"outputs": [
				{
					"internalType": "uint256",
					"name": "",
					"type": "uint256"
				}
			],
			"stateMutability": "view",
			"type": "function"
		},
		{
			"inputs": [],
			"name": "slippageFactorUL",
			"outputs": [
				{
					"internalType": "uint256",
					"name": "",
					"type": "uint256"
				}
			],
			"stateMutability": "view",
			"type": "function"
		},
		{
			"inputs": [],
			"name": "stratType",
			"outputs": [
				{
					"internalType": "enum BaseStrategy.StratType",
					"name": "",
					"type": "uint8"
				}
			],
			"stateMutability": "view",
			"type": "function"
		},
		{
			"inputs": [],
			"name": "token0Address",
			"outputs": [
				{
					"internalType": "address",
					"name": "",
					"type": "address"
				}
			],
			"stateMutability": "view",
			"type": "function"
		},
		{
			"inputs": [
				{
					"internalType": "uint256",
					"name": "",
					"type": "uint256"
				}
			],
			"name": "token0ToEarnedPath",
			"outputs": [
				{
					"internalType": "address",
					"name": "",
					"type": "address"
				}
			],
			"stateMutability": "view",
			"type": "function"
		},
		{
			"inputs": [],
			"name": "token1Address",
			"outputs": [
				{
					"internalType": "address",
					"name": "",
					"type": "address"
				}
			],
			"stateMutability": "view",
			"type": "function"
		},
		{
			"inputs": [
				{
					"internalType": "uint256",
					"name": "",
					"type": "uint256"
				}
			],
			"name": "token1ToEarnedPath",
			"outputs": [
				{
					"internalType": "address",
					"name": "",
					"type": "address"
				}
			],
			"stateMutability": "view",
			"type": "function"
		},
		{
			"inputs": [],
			"name": "tolerance",
			"outputs": [
				{
					"internalType": "uint256",
					"name": "",
					"type": "uint256"
				}
			],
			"stateMutability": "view",
			"type": "function"
		},
		{
			"inputs": [
				{
					"internalType": "address",
					"name": "newOwner",
					"type": "address"
				}
			],
			"name": "transferOwnership",
			"outputs": [],
			"stateMutability": "nonpayable",
			"type": "function"
		},
		{
			"inputs": [],
			"name": "uniRouterAddress",
			"outputs": [
				{
					"internalType": "address",
					"name": "",
					"type": "address"
				}
			],
			"stateMutability": "view",
			"type": "function"
		},
		{
			"inputs": [],
			"name": "unpanic",
			"outputs": [],
			"stateMutability": "nonpayable",
			"type": "function"
		},
		{
			"inputs": [],
			"name": "unpause",
			"outputs": [],
			"stateMutability": "nonpayable",
			"type": "function"
		},
		{
			"inputs": [],
			"name": "usdcAddress",
			"outputs": [
				{
					"internalType": "address",
					"name": "",
					"type": "address"
				}
			],
			"stateMutability": "view",
			"type": "function"
		},
		{
			"inputs": [],
			"name": "vaultChefAddress",
			"outputs": [
				{
					"internalType": "address",
					"name": "",
					"type": "address"
				}
			],
			"stateMutability": "view",
			"type": "function"
		},
		{
			"inputs": [],
			"name": "vaultSharesTotal",
			"outputs": [
				{
					"internalType": "uint256",
					"name": "",
					"type": "uint256"
				}
			],
			"stateMutability": "view",
			"type": "function"
		},
		{
			"inputs": [],
			"name": "wantAddress",
			"outputs": [
				{
					"internalType": "address",
					"name": "",
					"type": "address"
				}
			],
			"stateMutability": "view",
			"type": "function"
		},
		{
			"inputs": [],
			"name": "wantLockedTotal",
			"outputs": [
				{
					"internalType": "uint256",
					"name": "",
					"type": "uint256"
				}
			],
			"stateMutability": "view",
			"type": "function"
		},
		{
			"inputs": [
				{
					"internalType": "address",
					"name": "",
					"type": "address"
				},
				{
					"internalType": "uint256",
					"name": "_wantAmt",
					"type": "uint256"
				}
			],
			"name": "withdraw",
			"outputs": [
				{
					"internalType": "uint256",
					"name": "",
					"type": "uint256"
				}
			],
			"stateMutability": "nonpayable",
			"type": "function"
		},
		{
			"inputs": [],
			"name": "withdrawFeeAddress",
			"outputs": [
				{
					"internalType": "address",
					"name": "",
					"type": "address"
				}
			],
			"stateMutability": "view",
			"type": "function"
		},
		{
			"inputs": [],
			"name": "withdrawFeeFactor",
			"outputs": [
				{
					"internalType": "uint256",
					"name": "",
					"type": "uint256"
				}
			],
			"stateMutability": "view",
			"type": "function"
		},
		{
			"inputs": [],
			"name": "withdrawFeeFactorLL",
			"outputs": [
				{
					"internalType": "uint256",
					"name": "",
					"type": "uint256"
				}
			],
			"stateMutability": "view",
			"type": "function"
		},
		{
			"inputs": [],
			"name": "withdrawFeeFactorMax",
			"outputs": [
				{
					"internalType": "uint256",
					"name": "",
					"type": "uint256"
				}
			],
			"stateMutability": "view",
			"type": "function"
		}
	]
}