{
	"data": {
		"bytecode": {
			"linkReferences": {},
			"object": "60806040523480156200001157600080fd5b506200001d3362000031565b600180556002805460ff1916905562000081565b600080546001600160a01b038381166001600160a01b0319831681178455604051919092169283917f8be0079c531659141344cd1fd0a4f28419497f9722a3daafe3b4186f6b6457e09190a35050565b613d7080620000916000396000f3fe608060405234801561001057600080fd5b50600436106103155760003560e01c8063783478ad116101a7578063cfad57a2116100ee578063e7a0367911610097578063f3fef3a311610071578063f3fef3a314610646578063ffbd3b1f14610659578063ffbe9f1e1461047a57600080fd5b8063e7a036791461060a578063f10684541461062a578063f2fde38b1461063357600080fd5b8063db4b7eee116100c8578063db4b7eee146105c6578063dce52dfa146105e1578063e7198474146105ea57600080fd5b8063cfad57a21461058b578063d389800f1461059e578063d62e969d146105a657600080fd5b80638cf57cb911610150578063a1a7194f1161012a578063a1a7194f14610554578063b02381c61461056f578063b74cd2421461058257600080fd5b80638cf57cb9146105125780638da5cb5b1461052d5780638fefda061461054b57600080fd5b80638456cb59116101815780638456cb59146104f857806385f02dd614610500578063866b20181461050957600080fd5b8063783478ad146104e6578063784def8c146103ec5780637b0a47ee146104ef57600080fd5b806344a3955e1161026b57806365a5e30b11610214578063693a090b116101ee578063693a090b1461048c5780637115e9fa146104ac578063715018a6146104de57600080fd5b806365a5e30b1461047257806367057b6c1461047a57806368f541621461048357600080fd5b806347e7ef241161024557806347e7ef241461044057806350e15fdd146104535780635c975abb1461045c57600080fd5b806344a3955e1461040f57806346008a07146104185780634700d3051461043857600080fd5b80633220d732116102cd57806340c34b58116102a757806340c34b58146103cc57806341275358146103ec57806342da4eb31461040757600080fd5b80633220d7321461039c5780633505b09f146103bc5780633f4ba83a146103c457600080fd5b80630fa4e01e116102fe5780630fa4e01e146103755780631268a28f1461037e578063178a8d071461039357600080fd5b806302d454571461031a57806304c9d4901461035f575b600080fd5b610335732791bca1f2de4661ed88a30c99a7a9449aa8417481565b60405173ffffffffffffffffffffffffffffffffffffffff90911681526020015b60405180910390f35b610367610662565b604051908152602001610356565b610367600c5481565b61039161038c36600461392e565b610719565b005b61036760105481565b6007546103359073ffffffffffffffffffffffffffffffffffffffff1681565b610391610842565b6103916108d8565b6009546103359073ffffffffffffffffffffffffffffffffffffffff1681565b610335735386881b46c37cdd30a748f7771cf95d7b21363781565b610367610963565b610367600d5481565b6008546103359073ffffffffffffffffffffffffffffffffffffffff1681565b610391610a1e565b61036761044e3660046137c0565b610ab1565b61036760145481565b60025460ff166040519015158152602001610356565b610391610c9e565b61036761271081565b61036760115481565b6006546103359073ffffffffffffffffffffffffffffffffffffffff1681565b600a546104d19074010000000000000000000000000000000000000000900460ff1681565b6040516103569190613a6f565b610391610d34565b61033561dead81565b610367600f5481565b610391610dbf565b610367600e5481565b6103676126ac81565b61033573917fb15e8aaa12264dcbdc15afef7cd3ce76ba3981565b60005473ffffffffffffffffffffffffffffffffffffffff16610335565b6103676103e881565b6103357376bf0c28e604cc3fe9967c83b3c3f31c213cfe6481565b61039161057d3660046139b2565b610e4a565b6103676103e381565b610391610599366004613786565b611159565b610391611223565b600a546103359073ffffffffffffffffffffffffffffffffffffffff1681565b610335730d500b1d8e8ef31e21c99d1db9a6444d3adf127081565b61036760135481565b6005546103359073ffffffffffffffffffffffffffffffffffffffff1681565b6004546103359073ffffffffffffffffffffffffffffffffffffffff1681565b610367600b5481565b610391610641366004613786565b611524565b6103676106543660046137c0565b611651565b61036760125481565b600954600b546040517f93f1a40b0000000000000000000000000000000000000000000000000000000081526004810191909152306024820152600091829173ffffffffffffffffffffffffffffffffffffffff909116906393f1a40b90604401604080518083038186803b1580156106da57600080fd5b505afa1580156106ee573d6000803e3d6000fd5b505050506040513d601f19601f82011682018060405250810190610712919061390a565b5092915050565b610721611a2e565b6008805473ffffffffffffffffffffffffffffffffffffffff8088167fffffffffffffffffffffffff0000000000000000000000000000000000000000928316179092556007805482163317905560098054878416908316179055600680548684169083161790556004805492851692821683179055600b89905560058054909116909117905560138690556107d0601583837376bf0c28e604cc3fe9967c83b3c3f31c213cfe648280611b66565b6007546107f29073ffffffffffffffffffffffffffffffffffffffff16611524565b6107fa611f28565b5050600a80547fffffffffffffffffffffff00ffffffffffffffffffffffffffffffffffffffff16740200000000000000000000000000000000000000001790555050505050565b60085473ffffffffffffffffffffffffffffffffffffffff1633146108ce576040517f08c379a00000000000000000000000000000000000000000000000000000000081526004016108c59060208082526004908201527f21676f7600000000000000000000000000000000000000000000000000000000604082015260600190565b60405180910390fd5b6108d6611f28565b565b60085473ffffffffffffffffffffffffffffffffffffffff16331461095b576040517f08c379a00000000000000000000000000000000000000000000000000000000081526004016108c59060208082526004908201527f21676f7600000000000000000000000000000000000000000000000000000000604082015260600190565b6108ce61226b565b600061096d610662565b600480546040517f70a08231000000000000000000000000000000000000000000000000000000008152309281019290925273ffffffffffffffffffffffffffffffffffffffff16906370a082319060240160206040518083038186803b1580156109d757600080fd5b505afa1580156109eb573d6000803e3d6000fd5b505050506040513d601f19601f82011682018060405250810190610a0f91906138f1565b610a199190613b63565b905090565b60085473ffffffffffffffffffffffffffffffffffffffff163314610aa1576040517f08c379a00000000000000000000000000000000000000000000000000000000081526004016108c59060208082526004908201527f21676f7600000000000000000000000000000000000000000000000000000000604082015260600190565b610aa961234c565b6108d661240c565b6000805473ffffffffffffffffffffffffffffffffffffffff163314610b33576040517f08c379a000000000000000000000000000000000000000000000000000000000815260206004820181905260248201527f4f776e61626c653a2063616c6c6572206973206e6f7420746865206f776e657260448201526064016108c5565b60026001541415610ba0576040517f08c379a000000000000000000000000000000000000000000000000000000000815260206004820152601f60248201527f5265656e7472616e637947756172643a207265656e7472616e742063616c6c0060448201526064016108c5565b6002600155610bb160025460ff1690565b15610c18576040517f08c379a000000000000000000000000000000000000000000000000000000000815260206004820152601060248201527f5061757361626c653a207061757365640000000000000000000000000000000060448201526064016108c5565b6000610c22610963565b600454909150610c4a9073ffffffffffffffffffffffffffffffffffffffff1633308661249b565b6000610c54612577565b600d5490915015610c7b5781600d5482610c6e9190613b8f565b610c789190613b7b565b90505b80600d6000828254610c8d9190613b63565b909155505060018055949350505050565b60085473ffffffffffffffffffffffffffffffffffffffff163314610d21576040517f08c379a00000000000000000000000000000000000000000000000000000000081526004016108c59060208082526004908201527f21676f7600000000000000000000000000000000000000000000000000000000604082015260600190565b610d2961226b565b610d31612577565b50565b60005473ffffffffffffffffffffffffffffffffffffffff163314610db5576040517f08c379a000000000000000000000000000000000000000000000000000000000815260206004820181905260248201527f4f776e61626c653a2063616c6c6572206973206e6f7420746865206f776e657260448201526064016108c5565b6108d66000612660565b60085473ffffffffffffffffffffffffffffffffffffffff163314610e42576040517f08c379a00000000000000000000000000000000000000000000000000000000081526004016108c59060208082526004908201527f21676f7600000000000000000000000000000000000000000000000000000000604082015260600190565b6108d661234c565b60085473ffffffffffffffffffffffffffffffffffffffff163314610ecd576040517f08c379a00000000000000000000000000000000000000000000000000000000081526004016108c59060208082526004908201527f21676f7600000000000000000000000000000000000000000000000000000000604082015260600190565b6103e885610edb888a613b63565b610ee59190613b63565b1115610f4d576040517f08c379a000000000000000000000000000000000000000000000000000000000815260206004820152600e60248201527f4d617820666565206f662031302500000000000000000000000000000000000060448201526064016108c5565b6126ac841015610fb9576040517f08c379a000000000000000000000000000000000000000000000000000000000815260206004820152601a60248201527f5f7769746864726177466565466163746f7220746f6f206c6f7700000000000060448201526064016108c5565b612710841115611025576040517f08c379a000000000000000000000000000000000000000000000000000000000815260206004820152601b60248201527f5f7769746864726177466565466163746f7220746f6f2068696768000000000060448201526064016108c5565b6103e3831115611091576040517f08c379a000000000000000000000000000000000000000000000000000000000815260206004820152601860248201527f5f736c697070616765466163746f7220746f6f2068696768000000000000000060448201526064016108c5565b600e879055600f8690556010859055601184905560128390556013829055600680547fffffffffffffffffffffffff00000000000000000000000000000000000000001673ffffffffffffffffffffffffffffffffffffffff83169081179091556040805189815260208101899052908101879052606081018690526080810185905260a0810184905260c08101919091527f813767a04e11dfab70a5ec48c4fd7c344ab48e62196586790931dc9dfaed97e99060e00160405180910390a150505050505050565b60085473ffffffffffffffffffffffffffffffffffffffff1633146111dc576040517f08c379a00000000000000000000000000000000000000000000000000000000081526004016108c59060208082526004908201527f21676f7600000000000000000000000000000000000000000000000000000000604082015260600190565b600880547fffffffffffffffffffffffff00000000000000000000000000000000000000001673ffffffffffffffffffffffffffffffffffffffff92909216919091179055565b60026001541415611290576040517f08c379a000000000000000000000000000000000000000000000000000000000815260206004820152601f60248201527f5265656e7472616e637947756172643a207265656e7472616e742063616c6c0060448201526064016108c5565b60026001556112a160025460ff1690565b15611308576040517f08c379a000000000000000000000000000000000000000000000000000000000815260206004820152601060248201527f5061757361626c653a207061757365640000000000000000000000000000000060448201526064016108c5565b60005473ffffffffffffffffffffffffffffffffffffffff163314611389576040517f08c379a000000000000000000000000000000000000000000000000000000000815260206004820181905260248201527f4f776e61626c653a2063616c6c6572206973206e6f7420746865206f776e657260448201526064016108c5565b6005546040517f70a0823100000000000000000000000000000000000000000000000000000000815230600482015260009173ffffffffffffffffffffffffffffffffffffffff16906370a082319060240160206040518083038186803b1580156113f357600080fd5b505afa158015611407573d6000803e3d6000fd5b505050506040513d601f19601f8201168201806040525081019061142b91906138f1565b90506114356126d5565b6005546040517f70a08231000000000000000000000000000000000000000000000000000000008152306004820152600091839173ffffffffffffffffffffffffffffffffffffffff909116906370a082319060240160206040518083038186803b1580156114a357600080fd5b505afa1580156114b7573d6000803e3d6000fd5b505050506040513d601f19601f820116820180604052508101906114db91906138f1565b6114e59190613bcc565b9050801561151c576114f681612737565b9050611501816127fc565b905061150c81612a9b565b43600c55905061151a612577565b505b505060018055565b60005473ffffffffffffffffffffffffffffffffffffffff1633146115a5576040517f08c379a000000000000000000000000000000000000000000000000000000000815260206004820181905260248201527f4f776e61626c653a2063616c6c6572206973206e6f7420746865206f776e657260448201526064016108c5565b73ffffffffffffffffffffffffffffffffffffffff8116611648576040517f08c379a000000000000000000000000000000000000000000000000000000000815260206004820152602660248201527f4f776e61626c653a206e6577206f776e657220697320746865207a65726f206160448201527f646472657373000000000000000000000000000000000000000000000000000060648201526084016108c5565b610d3181612660565b6000805473ffffffffffffffffffffffffffffffffffffffff1633146116d3576040517f08c379a000000000000000000000000000000000000000000000000000000000815260206004820181905260248201527f4f776e61626c653a2063616c6c6572206973206e6f7420746865206f776e657260448201526064016108c5565b60026001541415611740576040517f08c379a000000000000000000000000000000000000000000000000000000000815260206004820152601f60248201527f5265656e7472616e637947756172643a207265656e7472616e742063616c6c0060448201526064016108c5565b6002600155816117ac576040517f08c379a000000000000000000000000000000000000000000000000000000000815260206004820152600d60248201527f5f77616e74416d7420697320300000000000000000000000000000000000000060448201526064016108c5565b600480546040517f70a08231000000000000000000000000000000000000000000000000000000008152309281019290925260009173ffffffffffffffffffffffffffffffffffffffff909116906370a082319060240160206040518083038186803b15801561181b57600080fd5b505afa15801561182f573d6000803e3d6000fd5b505050506040513d601f19601f8201168201806040525081019061185391906138f1565b9050808311156119145761186f61186a8285613bcc565b612b3c565b600480546040517f70a08231000000000000000000000000000000000000000000000000000000008152309281019290925273ffffffffffffffffffffffffffffffffffffffff16906370a082319060240160206040518083038186803b1580156118d957600080fd5b505afa1580156118ed573d6000803e3d6000fd5b505050506040513d601f19601f8201168201806040525081019061191191906138f1565b90505b80831115611920578092505b611928610963565b83111561193a57611937610963565b92505b600061195a611947610963565b600d546119549087613b8f565b90612bd3565b9050600d5481111561196b5750600d545b80600d600082825461197d9190613bcc565b9091555050601154600090612710906119969082613bcc565b6119a09087613b8f565b6119aa9190613b7b565b905080156119ea576004546119ea9073ffffffffffffffffffffffffffffffffffffffff16735386881b46c37cdd30a748f7771cf95d7b21363783612c0c565b6119f48186613bcc565b600754600454919650611a219173ffffffffffffffffffffffffffffffffffffffff908116911687612c0c565b5060018055949350505050565b60025462010000900460ff1680611a4d5750600254610100900460ff16155b611ad9576040517f08c379a000000000000000000000000000000000000000000000000000000000815260206004820152602e60248201527f496e697469616c697a61626c653a20636f6e747261637420697320616c72656160448201527f647920696e697469616c697a656400000000000000000000000000000000000060648201526084016108c5565b60025462010000900460ff16158015611b1a57600280547fffffffffffffffffffffffffffffffffffffffffffffffffffffffffff0000ff16620101001790555b43600c556032600e556101c26010556127066011556103b66012558015610d3157600280547fffffffffffffffffffffffffffffffffffffffffffffffffffffffffff00ffff16905550565b611b71868686612c67565b855460408051602080840282018101909252828152611bf79260018a01928a9190830182828015611bd857602002820191906000526020600020905b815473ffffffffffffffffffffffffffffffffffffffff168152600190910190602001808311611bad575b5050505050732791bca1f2de4661ed88a30c99a7a9449aa84174612dc9565b855460408051602080840282018101909252828152611c699260028a01928a9190830182828015611c5e57602002820191906000526020600020905b815473ffffffffffffffffffffffffffffffffffffffff168152600190910190602001808311611c33575b505050505085612dc9565b73ffffffffffffffffffffffffffffffffffffffff811615611cf757855460408051602080840282018101909252828152611cf79260078a01928a9190830182828015611cec57602002820191906000526020600020905b815473ffffffffffffffffffffffffffffffffffffffff168152600190910190602001808311611cc1575b505050505083612dc9565b8173ffffffffffffffffffffffffffffffffffffffff16630dfe16816040518163ffffffff1660e01b815260040160206040518083038186803b158015611d3d57600080fd5b505afa925050508015611d8b575060408051601f3d9081017fffffffffffffffffffffffffffffffffffffffffffffffffffffffffffffffe0168201909252611d88918101906137a3565b60015b611d9457611f20565b60008373ffffffffffffffffffffffffffffffffffffffff1663d21220a76040518163ffffffff1660e01b815260040160206040518083038186803b158015611ddc57600080fd5b505afa158015611df0573d6000803e3d6000fd5b505050506040513d601f19601f82011682018060405250810190611e1491906137a3565b9050611e8d8860030189600001805480602002602001604051908101604052809291908181526020018280548015611e8257602002820191906000526020600020905b815473ffffffffffffffffffffffffffffffffffffffff168152600190910190602001808311611e57575b505050505084612dc9565b875460408051602080840282018101909252828152611efd9260048c01928c9190830182828015611cec5760200282019190600052602060002090815473ffffffffffffffffffffffffffffffffffffffff168152600190910190602001808311611cc157505050505083612dc9565b611f0d8860050189600301612fd1565b611f1d8860060189600401612fd1565b50505b505050505050565b600480546009546040517f095ea7b300000000000000000000000000000000000000000000000000000000815273ffffffffffffffffffffffffffffffffffffffff918216938101939093527fffffffffffffffffffffffffffffffffffffffffffffffffffffffffffffffff6024840152169063095ea7b390604401602060405180830381600087803b158015611fbf57600080fd5b505af1158015611fd3573d6000803e3d6000fd5b505050506040513d601f19601f82011682018060405250810190611ff791906138cf565b506005546006546040517f095ea7b300000000000000000000000000000000000000000000000000000000815273ffffffffffffffffffffffffffffffffffffffff91821660048201527fffffffffffffffffffffffffffffffffffffffffffffffffffffffffffffffff602482015291169063095ea7b390604401602060405180830381600087803b15801561208d57600080fd5b505af11580156120a1573d6000803e3d6000fd5b505050506040513d601f19601f820116820180604052508101906120c591906138cf565b506040517f095ea7b300000000000000000000000000000000000000000000000000000000815273917fb15e8aaa12264dcbdc15afef7cd3ce76ba3960048201527fffffffffffffffffffffffffffffffffffffffffffffffffffffffffffffffff6024820152732791bca1f2de4661ed88a30c99a7a9449aa841749063095ea7b390604401602060405180830381600087803b15801561216557600080fd5b505af1158015612179573d6000803e3d6000fd5b505050506040513d601f19601f8201168201806040525081019061219d91906138cf565b506005546007546040517f095ea7b300000000000000000000000000000000000000000000000000000000815273ffffffffffffffffffffffffffffffffffffffff91821660048201527fffffffffffffffffffffffffffffffffffffffffffffffffffffffffffffffff602482015291169063095ea7b390604401602060405180830381600087803b15801561223357600080fd5b505af1158015612247573d6000803e3d6000fd5b505050506040513d601f19601f82011682018060405250810190610d3191906138cf565b60025460ff166122d7576040517f08c379a000000000000000000000000000000000000000000000000000000000815260206004820152601460248201527f5061757361626c653a206e6f742070617573656400000000000000000000000060448201526064016108c5565b600280547fffffffffffffffffffffffffffffffffffffffffffffffffffffffffffffff001690557f5db9ee0a495bf2e6ff9c91a7834c1ba4fdd244a5e8aa4e537bd38aeae4b073aa335b60405173ffffffffffffffffffffffffffffffffffffffff909116815260200160405180910390a1565b60025460ff16156123b9576040517f08c379a000000000000000000000000000000000000000000000000000000000815260206004820152601060248201527f5061757361626c653a207061757365640000000000000000000000000000000060448201526064016108c5565b600280547fffffffffffffffffffffffffffffffffffffffffffffffffffffffffffffff001660011790557f62e78cea01bee320cd4e420270b5ea74000d11b0c9f74754ebdbfc544b05a2586123223390565b600954600b546040517f5312ea8e00000000000000000000000000000000000000000000000000000000815273ffffffffffffffffffffffffffffffffffffffff90921691635312ea8e916124679160040190815260200190565b600060405180830381600087803b15801561248157600080fd5b505af1158015612495573d6000803e3d6000fd5b50505050565b60405173ffffffffffffffffffffffffffffffffffffffff808516602483015283166044820152606481018290526124959085907f23b872dd00000000000000000000000000000000000000000000000000000000906084015b604080517fffffffffffffffffffffffffffffffffffffffffffffffffffffffffffffffe08184030181529190526020810180517bffffffffffffffffffffffffffffffffffffffffffffffffffffffff167fffffffff000000000000000000000000000000000000000000000000000000009093169290921790915261307d565b600480546040517f70a082310000000000000000000000000000000000000000000000000000000081523092810192909252600091829173ffffffffffffffffffffffffffffffffffffffff16906370a082319060240160206040518083038186803b1580156125e657600080fd5b505afa1580156125fa573d6000803e3d6000fd5b505050506040513d601f19601f8201168201806040525081019061261e91906138f1565b90508061262d57600091505090565b6000612637610662565b905061264282613189565b600061264c610662565b90506126588282613bcc565b935050505090565b6000805473ffffffffffffffffffffffffffffffffffffffff8381167fffffffffffffffffffffffff0000000000000000000000000000000000000000831681178455604051919092169283917f8be0079c531659141344cd1fd0a4f28419497f9722a3daafe3b4186f6b6457e09190a35050565b600954600b546040517f441a3e7000000000000000000000000000000000000000000000000000000000815260048101919091526000602482015273ffffffffffffffffffffffffffffffffffffffff9091169063441a3e7090604401612467565b600e54600090156127f8576000612710600e54846127559190613b8f565b61275f9190613b7b565b90506127ea8160156000018054806020026020016040519081016040528092919081815260200182805480156127cb57602002820191906000526020600020905b815473ffffffffffffffffffffffffffffffffffffffff1681526001909101906020018083116127a0575b5050505050735386881b46c37cdd30a748f7771cf95d7b2136376131eb565b6127f48184613bcc565b9250505b5090565b600f54600090156127f8576000612710600f548461281a9190613b8f565b6128249190613b7b565b6040517f70a08231000000000000000000000000000000000000000000000000000000008152306004820152909150600090732791bca1f2de4661ed88a30c99a7a9449aa84174906370a082319060240160206040518083038186803b15801561288d57600080fd5b505afa1580156128a1573d6000803e3d6000fd5b505050506040513d601f19601f820116820180604052508101906128c591906138f1565b905061293c82601560010180548060200260200160405190810160405280929190818152602001828054801561293157602002820191906000526020600020905b815473ffffffffffffffffffffffffffffffffffffffff168152600190910190602001808311612906575b5050505050306133c6565b6040517f70a082310000000000000000000000000000000000000000000000000000000081523060048201526000908290732791bca1f2de4661ed88a30c99a7a9449aa84174906370a082319060240160206040518083038186803b1580156129a457600080fd5b505afa1580156129b8573d6000803e3d6000fd5b505050506040513d601f19601f820116820180604052508101906129dc91906138f1565b6129e69190613bcc565b6040517f1e2720ff0000000000000000000000000000000000000000000000000000000081526004810182905290915073917fb15e8aaa12264dcbdc15afef7cd3ce76ba3990631e2720ff90602401602060405180830381600087803b158015612a4f57600080fd5b505af1158015612a63573d6000803e3d6000fd5b505050506040513d601f19601f82011682018060405250810190612a8791906138cf565b50612a928386613bcc565b94505050505090565b601054600090156127f857600061271060105484612ab99190613b8f565b612ac39190613b7b565b90506127ea816015600201805480602002602001604051908101604052809291908181526020018280548015612b2f57602002820191906000526020600020905b815473ffffffffffffffffffffffffffffffffffffffff168152600190910190602001808311612b04575b505050505061dead6133c6565b600954600b546040517f441a3e7000000000000000000000000000000000000000000000000000000000815273ffffffffffffffffffffffffffffffffffffffff9092169163441a3e7091612b9e918590600401918252602082015260400190565b600060405180830381600087803b158015612bb857600080fd5b505af1158015612bcc573d6000803e3d6000fd5b5050505050565b6000612bdf8284613c48565b15612beb576001612bee565b60005b60ff16612bfb8385613b7b565b612c059190613b63565b9392505050565b60405173ffffffffffffffffffffffffffffffffffffffff8316602482015260448101829052612c629084907fa9059cbb00000000000000000000000000000000000000000000000000000000906064016124f5565b505050565b82546001810184556000848152602090200180547fffffffffffffffffffffffff00000000000000000000000000000000000000001673ffffffffffffffffffffffffffffffffffffffff8416908117909155730d500b1d8e8ef31e21c99d1db9a6444d3adf12701415612cda57505050565b73ffffffffffffffffffffffffffffffffffffffff8116612d485782546001810184556000848152602090200180547fffffffffffffffffffffffff000000000000000000000000000000000000000016730d500b1d8e8ef31e21c99d1db9a6444d3adf1270179055505050565b825460018181018555600085815260209020918201805473ffffffffffffffffffffffffffffffffffffffff85167fffffffffffffffffffffffff0000000000000000000000000000000000000000918216179091558554918201865591018054909116730d500b1d8e8ef31e21c99d1db9a6444d3adf1270179055505050565b8073ffffffffffffffffffffffffffffffffffffffff1682600081518110612df357612df3613cba565b602002602001015173ffffffffffffffffffffffffffffffffffffffff161415612e1c57612f76565b8073ffffffffffffffffffffffffffffffffffffffff1682600181518110612e4657612e46613cba565b602002602001015173ffffffffffffffffffffffffffffffffffffffff161415612ee3578282600081518110612e7e57612e7e613cba565b60209081029190910181015182546001810184556000938452919092200180547fffffffffffffffffffffffff00000000000000000000000000000000000000001673ffffffffffffffffffffffffffffffffffffffff909216919091179055612f76565b60005b8251811015612f745783838281518110612f0257612f02613cba565b60209081029190910181015182546001810184556000938452919092200180547fffffffffffffffffffffffff00000000000000000000000000000000000000001673ffffffffffffffffffffffffffffffffffffffff90921691909117905580612f6c81613c0f565b915050612ee6565b505b82546001810184556000938452602090932090920180547fffffffffffffffffffffffff00000000000000000000000000000000000000001673ffffffffffffffffffffffffffffffffffffffff9093169290921790915550565b60005b8154811015612c625782828260018580549050612ff19190613bcc565b612ffb9190613bcc565b8154811061300b5761300b613cba565b60009182526020808320909101548354600181018555938352912090910180547fffffffffffffffffffffffff00000000000000000000000000000000000000001673ffffffffffffffffffffffffffffffffffffffff9092169190911790558061307581613c0f565b915050612fd4565b60006130df826040518060400160405280602081526020017f5361666545524332303a206c6f772d6c6576656c2063616c6c206661696c65648152508573ffffffffffffffffffffffffffffffffffffffff1661359c9092919063ffffffff16565b805190915015612c6257808060200190518101906130fd91906138cf565b612c62576040517f08c379a000000000000000000000000000000000000000000000000000000000815260206004820152602a60248201527f5361666545524332303a204552433230206f7065726174696f6e20646964206e60448201527f6f7420737563636565640000000000000000000000000000000000000000000060648201526084016108c5565b600954600b546040517fe2bbb15800000000000000000000000000000000000000000000000000000000815273ffffffffffffffffffffffffffffffffffffffff9092169163e2bbb15891612b9e918590600401918252602082015260400190565b6006546040517fd06ca61f00000000000000000000000000000000000000000000000000000000815260009173ffffffffffffffffffffffffffffffffffffffff169063d06ca61f906132449087908790600401613b01565b60006040518083038186803b15801561325c57600080fd5b505afa158015613270573d6000803e3d6000fd5b505050506040513d6000823e601f3d9081017fffffffffffffffffffffffffffffffffffffffffffffffffffffffffffffffe01682016040526132b691908101906137ec565b9050600081600183516132c99190613bcc565b815181106132d9576132d9613cba565b602090810291909101015160065460125491925073ffffffffffffffffffffffffffffffffffffffff16906318cbafe59087906103e89061331a9086613b8f565b6133249190613b7b565b878761333242610258613b63565b6040518663ffffffff1660e01b8152600401613352959493929190613b1a565b600060405180830381600087803b15801561336c57600080fd5b505af1158015613380573d6000803e3d6000fd5b505050506040513d6000823e601f3d9081017fffffffffffffffffffffffffffffffffffffffffffffffffffffffffffffffe0168201604052611f2091908101906137ec565b6006546040517fd06ca61f00000000000000000000000000000000000000000000000000000000815260009173ffffffffffffffffffffffffffffffffffffffff169063d06ca61f9061341f9087908790600401613b01565b60006040518083038186803b15801561343757600080fd5b505afa15801561344b573d6000803e3d6000fd5b505050506040513d6000823e601f3d9081017fffffffffffffffffffffffffffffffffffffffffffffffffffffffffffffffe016820160405261349191908101906137ec565b9050600081600183516134a49190613bcc565b815181106134b4576134b4613cba565b602002602001015190507376bf0c28e604cc3fe9967c83b3c3f31c213cfe6473ffffffffffffffffffffffffffffffffffffffff1684600186516134f89190613bcc565b8151811061350857613508613cba565b602002602001015173ffffffffffffffffffffffffffffffffffffffff1614801561354a575073ffffffffffffffffffffffffffffffffffffffff831661dead145b156135675780601460008282546135619190613b63565b90915550505b60065460125473ffffffffffffffffffffffffffffffffffffffff909116906338ed17399087906103e89061331a9086613b8f565b60606135ab84846000856135b3565b949350505050565b606082471015613645576040517f08c379a000000000000000000000000000000000000000000000000000000000815260206004820152602660248201527f416464726573733a20696e73756666696369656e742062616c616e636520666f60448201527f722063616c6c000000000000000000000000000000000000000000000000000060648201526084016108c5565b843b6136ad576040517f08c379a000000000000000000000000000000000000000000000000000000000815260206004820152601d60248201527f416464726573733a2063616c6c20746f206e6f6e2d636f6e747261637400000060448201526064016108c5565b6000808673ffffffffffffffffffffffffffffffffffffffff1685876040516136d69190613a53565b60006040518083038185875af1925050503d8060008114613713576040519150601f19603f3d011682016040523d82523d6000602084013e613718565b606091505b5091509150613728828286613733565b979650505050505050565b60608315613742575081612c05565b8251156137525782518084602001fd5b816040517f08c379a00000000000000000000000000000000000000000000000000000000081526004016108c59190613ab0565b60006020828403121561379857600080fd5b8135612c0581613d18565b6000602082840312156137b557600080fd5b8151612c0581613d18565b600080604083850312156137d357600080fd5b82356137de81613d18565b946020939093013593505050565b600060208083850312156137ff57600080fd5b825167ffffffffffffffff8082111561381757600080fd5b818501915085601f83011261382b57600080fd5b81518181111561383d5761383d613ce9565b8060051b6040517fffffffffffffffffffffffffffffffffffffffffffffffffffffffffffffffe0603f8301168101818110858211171561388057613880613ce9565b604052828152858101935084860182860187018a101561389f57600080fd5b600095505b838610156138c25780518552600195909501949386019386016138a4565b5098975050505050505050565b6000602082840312156138e157600080fd5b81518015158114612c0557600080fd5b60006020828403121561390357600080fd5b5051919050565b6000806040838503121561391d57600080fd5b505080516020909101519092909150565b600080600080600080600060e0888a03121561394957600080fd5b8735965060208801359550604088013561396281613d18565b9450606088013561397281613d18565b9350608088013561398281613d18565b925060a088013561399281613d18565b915060c08801356139a281613d18565b8091505092959891949750929550565b600080600080600080600060e0888a0312156139cd57600080fd5b873596506020880135955060408801359450606088013593506080880135925060a0880135915060c08801356139a281613d18565b600081518084526020808501945080840160005b83811015613a4857815173ffffffffffffffffffffffffffffffffffffffff1687529582019590820190600101613a16565b509495945050505050565b60008251613a65818460208701613be3565b9190910192915050565b6020810160048310613aaa577f4e487b7100000000000000000000000000000000000000000000000000000000600052602160045260246000fd5b91905290565b6020815260008251806020840152613acf816040850160208701613be3565b601f017fffffffffffffffffffffffffffffffffffffffffffffffffffffffffffffffe0169190910160400192915050565b8281526040602082015260006135ab6040830184613a02565b85815284602082015260a060408201526000613b3960a0830186613a02565b73ffffffffffffffffffffffffffffffffffffffff94909416606083015250608001529392505050565b60008219821115613b7657613b76613c5c565b500190565b600082613b8a57613b8a613c8b565b500490565b6000817fffffffffffffffffffffffffffffffffffffffffffffffffffffffffffffffff0483118215151615613bc757613bc7613c5c565b500290565b600082821015613bde57613bde613c5c565b500390565b60005b83811015613bfe578181015183820152602001613be6565b838111156124955750506000910152565b60007fffffffffffffffffffffffffffffffffffffffffffffffffffffffffffffffff821415613c4157613c41613c5c565b5060010190565b600082613c5757613c57613c8b565b500690565b7f4e487b7100000000000000000000000000000000000000000000000000000000600052601160045260246000fd5b7f4e487b7100000000000000000000000000000000000000000000000000000000600052601260045260246000fd5b7f4e487b7100000000000000000000000000000000000000000000000000000000600052603260045260246000fd5b7f4e487b7100000000000000000000000000000000000000000000000000000000600052604160045260246000fd5b73ffffffffffffffffffffffffffffffffffffffff81168114610d3157600080fdfea2646970667358221220d56b67088fd704f6e952148dd24a80643f79b7e5ee53d0ca3d2e1f25be0545bb64736f6c63430008070033",
			"opcodes": "PUSH1 0x80 PUSH1 0x40 MSTORE CALLVALUE DUP1 ISZERO PUSH3 0x11 JUMPI PUSH1 0x0 DUP1 REVERT JUMPDEST POP PUSH3 0x1D CALLER PUSH3 0x31 JUMP JUMPDEST PUSH1 0x1 DUP1 SSTORE PUSH1 0x2 DUP1 SLOAD PUSH1 0xFF NOT AND SWAP1 SSTORE PUSH3 0x81 JUMP JUMPDEST PUSH1 0x0 DUP1 SLOAD PUSH1 0x1 PUSH1 0x1 PUSH1 0xA0 SHL SUB DUP4 DUP2 AND PUSH1 0x1 PUSH1 0x1 PUSH1 0xA0 SHL SUB NOT DUP4 AND DUP2 OR DUP5 SSTORE PUSH1 0x40 MLOAD SWAP2 SWAP1 SWAP3 AND SWAP3 DUP4 SWAP2 PUSH32 0x8BE0079C531659141344CD1FD0A4F28419497F9722A3DAAFE3B4186F6B6457E0 SWAP2 SWAP1 LOG3 POP POP JUMP JUMPDEST PUSH2 0x3D70 DUP1 PUSH3 0x91 PUSH1 0x0 CODECOPY PUSH1 0x0 RETURN INVALID PUSH1 0x80 PUSH1 0x40 MSTORE CALLVALUE DUP1 ISZERO PUSH2 0x10 JUMPI PUSH1 0x0 DUP1 REVERT JUMPDEST POP PUSH1 0x4 CALLDATASIZE LT PUSH2 0x315 JUMPI PUSH1 0x0 CALLDATALOAD PUSH1 0xE0 SHR DUP1 PUSH4 0x783478AD GT PUSH2 0x1A7 JUMPI DUP1 PUSH4 0xCFAD57A2 GT PUSH2 0xEE JUMPI DUP1 PUSH4 0xE7A03679 GT PUSH2 0x97 JUMPI DUP1 PUSH4 0xF3FEF3A3 GT PUSH2 0x71 JUMPI DUP1 PUSH4 0xF3FEF3A3 EQ PUSH2 0x646 JUMPI DUP1 PUSH4 0xFFBD3B1F EQ PUSH2 0x659 JUMPI DUP1 PUSH4 0xFFBE9F1E EQ PUSH2 0x47A JUMPI PUSH1 0x0 DUP1 REVERT JUMPDEST DUP1 PUSH4 0xE7A03679 EQ PUSH2 0x60A JUMPI DUP1 PUSH4 0xF1068454 EQ PUSH2 0x62A JUMPI DUP1 PUSH4 0xF2FDE38B EQ PUSH2 0x633 JUMPI PUSH1 0x0 DUP1 REVERT JUMPDEST DUP1 PUSH4 0xDB4B7EEE GT PUSH2 0xC8 JUMPI DUP1 PUSH4 0xDB4B7EEE EQ PUSH2 0x5C6 JUMPI DUP1 PUSH4 0xDCE52DFA EQ PUSH2 0x5E1 JUMPI DUP1 PUSH4 0xE7198474 EQ PUSH2 0x5EA JUMPI PUSH1 0x0 DUP1 REVERT JUMPDEST DUP1 PUSH4 0xCFAD57A2 EQ PUSH2 0x58B JUMPI DUP1 PUSH4 0xD389800F EQ PUSH2 0x59E JUMPI DUP1 PUSH4 0xD62E969D EQ PUSH2 0x5A6 JUMPI PUSH1 0x0 DUP1 REVERT JUMPDEST DUP1 PUSH4 0x8CF57CB9 GT PUSH2 0x150 JUMPI DUP1 PUSH4 0xA1A7194F GT PUSH2 0x12A JUMPI DUP1 PUSH4 0xA1A7194F EQ PUSH2 0x554 JUMPI DUP1 PUSH4 0xB02381C6 EQ PUSH2 0x56F JUMPI DUP1 PUSH4 0xB74CD242 EQ PUSH2 0x582 JUMPI PUSH1 0x0 DUP1 REVERT JUMPDEST DUP1 PUSH4 0x8CF57CB9 EQ PUSH2 0x512 JUMPI DUP1 PUSH4 0x8DA5CB5B EQ PUSH2 0x52D JUMPI DUP1 PUSH4 0x8FEFDA06 EQ PUSH2 0x54B JUMPI PUSH1 0x0 DUP1 REVERT JUMPDEST DUP1 PUSH4 0x8456CB59 GT PUSH2 0x181 JUMPI DUP1 PUSH4 0x8456CB59 EQ PUSH2 0x4F8 JUMPI DUP1 PUSH4 0x85F02DD6 EQ PUSH2 0x500 JUMPI DUP1 PUSH4 0x866B2018 EQ PUSH2 0x509 JUMPI PUSH1 0x0 DUP1 REVERT JUMPDEST DUP1 PUSH4 0x783478AD EQ PUSH2 0x4E6 JUMPI DUP1 PUSH4 0x784DEF8C EQ PUSH2 0x3EC JUMPI DUP1 PUSH4 0x7B0A47EE EQ PUSH2 0x4EF JUMPI PUSH1 0x0 DUP1 REVERT JUMPDEST DUP1 PUSH4 0x44A3955E GT PUSH2 0x26B JUMPI DUP1 PUSH4 0x65A5E30B GT PUSH2 0x214 JUMPI DUP1 PUSH4 0x693A090B GT PUSH2 0x1EE JUMPI DUP1 PUSH4 0x693A090B EQ PUSH2 0x48C JUMPI DUP1 PUSH4 0x7115E9FA EQ PUSH2 0x4AC JUMPI DUP1 PUSH4 0x715018A6 EQ PUSH2 0x4DE JUMPI PUSH1 0x0 DUP1 REVERT JUMPDEST DUP1 PUSH4 0x65A5E30B EQ PUSH2 0x472 JUMPI DUP1 PUSH4 0x67057B6C EQ PUSH2 0x47A JUMPI DUP1 PUSH4 0x68F54162 EQ PUSH2 0x483 JUMPI PUSH1 0x0 DUP1 REVERT JUMPDEST DUP1 PUSH4 0x47E7EF24 GT PUSH2 0x245 JUMPI DUP1 PUSH4 0x47E7EF24 EQ PUSH2 0x440 JUMPI DUP1 PUSH4 0x50E15FDD EQ PUSH2 0x453 JUMPI DUP1 PUSH4 0x5C975ABB EQ PUSH2 0x45C JUMPI PUSH1 0x0 DUP1 REVERT JUMPDEST DUP1 PUSH4 0x44A3955E EQ PUSH2 0x40F JUMPI DUP1 PUSH4 0x46008A07 EQ PUSH2 0x418 JUMPI DUP1 PUSH4 0x4700D305 EQ PUSH2 0x438 JUMPI PUSH1 0x0 DUP1 REVERT JUMPDEST DUP1 PUSH4 0x3220D732 GT PUSH2 0x2CD JUMPI DUP1 PUSH4 0x40C34B58 GT PUSH2 0x2A7 JUMPI DUP1 PUSH4 0x40C34B58 EQ PUSH2 0x3CC JUMPI DUP1 PUSH4 0x41275358 EQ PUSH2 0x3EC JUMPI DUP1 PUSH4 0x42DA4EB3 EQ PUSH2 0x407 JUMPI PUSH1 0x0 DUP1 REVERT JUMPDEST DUP1 PUSH4 0x3220D732 EQ PUSH2 0x39C JUMPI DUP1 PUSH4 0x3505B09F EQ PUSH2 0x3BC JUMPI DUP1 PUSH4 0x3F4BA83A EQ PUSH2 0x3C4 JUMPI PUSH1 0x0 DUP1 REVERT JUMPDEST DUP1 PUSH4 0xFA4E01E GT PUSH2 0x2FE JUMPI DUP1 PUSH4 0xFA4E01E EQ PUSH2 0x375 JUMPI DUP1 PUSH4 0x1268A28F EQ PUSH2 0x37E JUMPI DUP1 PUSH4 0x178A8D07 EQ PUSH2 0x393 JUMPI PUSH1 0x0 DUP1 REVERT JUMPDEST DUP1 PUSH4 0x2D45457 EQ PUSH2 0x31A JUMPI DUP1 PUSH4 0x4C9D490 EQ PUSH2 0x35F JUMPI JUMPDEST PUSH1 0x0 DUP1 REVERT JUMPDEST PUSH2 0x335 PUSH20 0x2791BCA1F2DE4661ED88A30C99A7A9449AA84174 DUP2 JUMP JUMPDEST PUSH1 0x40 MLOAD PUSH20 0xFFFFFFFFFFFFFFFFFFFFFFFFFFFFFFFFFFFFFFFF SWAP1 SWAP2 AND DUP2 MSTORE PUSH1 0x20 ADD JUMPDEST PUSH1 0x40 MLOAD DUP1 SWAP2 SUB SWAP1 RETURN JUMPDEST PUSH2 0x367 PUSH2 0x662 JUMP JUMPDEST PUSH1 0x40 MLOAD SWAP1 DUP2 MSTORE PUSH1 0x20 ADD PUSH2 0x356 JUMP JUMPDEST PUSH2 0x367 PUSH1 0xC SLOAD DUP2 JUMP JUMPDEST PUSH2 0x391 PUSH2 0x38C CALLDATASIZE PUSH1 0x4 PUSH2 0x392E JUMP JUMPDEST PUSH2 0x719 JUMP JUMPDEST STOP JUMPDEST PUSH2 0x367 PUSH1 0x10 SLOAD DUP2 JUMP JUMPDEST PUSH1 0x7 SLOAD PUSH2 0x335 SWAP1 PUSH20 0xFFFFFFFFFFFFFFFFFFFFFFFFFFFFFFFFFFFFFFFF AND DUP2 JUMP JUMPDEST PUSH2 0x391 PUSH2 0x842 JUMP JUMPDEST PUSH2 0x391 PUSH2 0x8D8 JUMP JUMPDEST PUSH1 0x9 SLOAD PUSH2 0x335 SWAP1 PUSH20 0xFFFFFFFFFFFFFFFFFFFFFFFFFFFFFFFFFFFFFFFF AND DUP2 JUMP JUMPDEST PUSH2 0x335 PUSH20 0x5386881B46C37CDD30A748F7771CF95D7B213637 DUP2 JUMP JUMPDEST PUSH2 0x367 PUSH2 0x963 JUMP JUMPDEST PUSH2 0x367 PUSH1 0xD SLOAD DUP2 JUMP JUMPDEST PUSH1 0x8 SLOAD PUSH2 0x335 SWAP1 PUSH20 0xFFFFFFFFFFFFFFFFFFFFFFFFFFFFFFFFFFFFFFFF AND DUP2 JUMP JUMPDEST PUSH2 0x391 PUSH2 0xA1E JUMP JUMPDEST PUSH2 0x367 PUSH2 0x44E CALLDATASIZE PUSH1 0x4 PUSH2 0x37C0 JUMP JUMPDEST PUSH2 0xAB1 JUMP JUMPDEST PUSH2 0x367 PUSH1 0x14 SLOAD DUP2 JUMP JUMPDEST PUSH1 0x2 SLOAD PUSH1 0xFF AND PUSH1 0x40 MLOAD SWAP1 ISZERO ISZERO DUP2 MSTORE PUSH1 0x20 ADD PUSH2 0x356 JUMP JUMPDEST PUSH2 0x391 PUSH2 0xC9E JUMP JUMPDEST PUSH2 0x367 PUSH2 0x2710 DUP2 JUMP JUMPDEST PUSH2 0x367 PUSH1 0x11 SLOAD DUP2 JUMP JUMPDEST PUSH1 0x6 SLOAD PUSH2 0x335 SWAP1 PUSH20 0xFFFFFFFFFFFFFFFFFFFFFFFFFFFFFFFFFFFFFFFF AND DUP2 JUMP JUMPDEST PUSH1 0xA SLOAD PUSH2 0x4D1 SWAP1 PUSH21 0x10000000000000000000000000000000000000000 SWAP1 DIV PUSH1 0xFF AND DUP2 JUMP JUMPDEST PUSH1 0x40 MLOAD PUSH2 0x356 SWAP2 SWAP1 PUSH2 0x3A6F JUMP JUMPDEST PUSH2 0x391 PUSH2 0xD34 JUMP JUMPDEST PUSH2 0x335 PUSH2 0xDEAD DUP2 JUMP JUMPDEST PUSH2 0x367 PUSH1 0xF SLOAD DUP2 JUMP JUMPDEST PUSH2 0x391 PUSH2 0xDBF JUMP JUMPDEST PUSH2 0x367 PUSH1 0xE SLOAD DUP2 JUMP JUMPDEST PUSH2 0x367 PUSH2 0x26AC DUP2 JUMP JUMPDEST PUSH2 0x335 PUSH20 0x917FB15E8AAA12264DCBDC15AFEF7CD3CE76BA39 DUP2 JUMP JUMPDEST PUSH1 0x0 SLOAD PUSH20 0xFFFFFFFFFFFFFFFFFFFFFFFFFFFFFFFFFFFFFFFF AND PUSH2 0x335 JUMP JUMPDEST PUSH2 0x367 PUSH2 0x3E8 DUP2 JUMP JUMPDEST PUSH2 0x335 PUSH20 0x76BF0C28E604CC3FE9967C83B3C3F31C213CFE64 DUP2 JUMP JUMPDEST PUSH2 0x391 PUSH2 0x57D CALLDATASIZE PUSH1 0x4 PUSH2 0x39B2 JUMP JUMPDEST PUSH2 0xE4A JUMP JUMPDEST PUSH2 0x367 PUSH2 0x3E3 DUP2 JUMP JUMPDEST PUSH2 0x391 PUSH2 0x599 CALLDATASIZE PUSH1 0x4 PUSH2 0x3786 JUMP JUMPDEST PUSH2 0x1159 JUMP JUMPDEST PUSH2 0x391 PUSH2 0x1223 JUMP JUMPDEST PUSH1 0xA SLOAD PUSH2 0x335 SWAP1 PUSH20 0xFFFFFFFFFFFFFFFFFFFFFFFFFFFFFFFFFFFFFFFF AND DUP2 JUMP JUMPDEST PUSH2 0x335 PUSH20 0xD500B1D8E8EF31E21C99D1DB9A6444D3ADF1270 DUP2 JUMP JUMPDEST PUSH2 0x367 PUSH1 0x13 SLOAD DUP2 JUMP JUMPDEST PUSH1 0x5 SLOAD PUSH2 0x335 SWAP1 PUSH20 0xFFFFFFFFFFFFFFFFFFFFFFFFFFFFFFFFFFFFFFFF AND DUP2 JUMP JUMPDEST PUSH1 0x4 SLOAD PUSH2 0x335 SWAP1 PUSH20 0xFFFFFFFFFFFFFFFFFFFFFFFFFFFFFFFFFFFFFFFF AND DUP2 JUMP JUMPDEST PUSH2 0x367 PUSH1 0xB SLOAD DUP2 JUMP JUMPDEST PUSH2 0x391 PUSH2 0x641 CALLDATASIZE PUSH1 0x4 PUSH2 0x3786 JUMP JUMPDEST PUSH2 0x1524 JUMP JUMPDEST PUSH2 0x367 PUSH2 0x654 CALLDATASIZE PUSH1 0x4 PUSH2 0x37C0 JUMP JUMPDEST PUSH2 0x1651 JUMP JUMPDEST PUSH2 0x367 PUSH1 0x12 SLOAD DUP2 JUMP JUMPDEST PUSH1 0x9 SLOAD PUSH1 0xB SLOAD PUSH1 0x40 MLOAD PUSH32 0x93F1A40B00000000000000000000000000000000000000000000000000000000 DUP2 MSTORE PUSH1 0x4 DUP2 ADD SWAP2 SWAP1 SWAP2 MSTORE ADDRESS PUSH1 0x24 DUP3 ADD MSTORE PUSH1 0x0 SWAP2 DUP3 SWAP2 PUSH20 0xFFFFFFFFFFFFFFFFFFFFFFFFFFFFFFFFFFFFFFFF SWAP1 SWAP2 AND SWAP1 PUSH4 0x93F1A40B SWAP1 PUSH1 0x44 ADD PUSH1 0x40 DUP1 MLOAD DUP1 DUP4 SUB DUP2 DUP7 DUP1 EXTCODESIZE ISZERO DUP1 ISZERO PUSH2 0x6DA JUMPI PUSH1 0x0 DUP1 REVERT JUMPDEST POP GAS STATICCALL ISZERO DUP1 ISZERO PUSH2 0x6EE JUMPI RETURNDATASIZE PUSH1 0x0 DUP1 RETURNDATACOPY RETURNDATASIZE PUSH1 0x0 REVERT JUMPDEST POP POP POP POP PUSH1 0x40 MLOAD RETURNDATASIZE PUSH1 0x1F NOT PUSH1 0x1F DUP3 ADD AND DUP3 ADD DUP1 PUSH1 0x40 MSTORE POP DUP2 ADD SWAP1 PUSH2 0x712 SWAP2 SWAP1 PUSH2 0x390A JUMP JUMPDEST POP SWAP3 SWAP2 POP POP JUMP JUMPDEST PUSH2 0x721 PUSH2 0x1A2E JUMP JUMPDEST PUSH1 0x8 DUP1 SLOAD PUSH20 0xFFFFFFFFFFFFFFFFFFFFFFFFFFFFFFFFFFFFFFFF DUP1 DUP9 AND PUSH32 0xFFFFFFFFFFFFFFFFFFFFFFFF0000000000000000000000000000000000000000 SWAP3 DUP4 AND OR SWAP1 SWAP3 SSTORE PUSH1 0x7 DUP1 SLOAD DUP3 AND CALLER OR SWAP1 SSTORE PUSH1 0x9 DUP1 SLOAD DUP8 DUP5 AND SWAP1 DUP4 AND OR SWAP1 SSTORE PUSH1 0x6 DUP1 SLOAD DUP7 DUP5 AND SWAP1 DUP4 AND OR SWAP1 SSTORE PUSH1 0x4 DUP1 SLOAD SWAP3 DUP6 AND SWAP3 DUP3 AND DUP4 OR SWAP1 SSTORE PUSH1 0xB DUP10 SWAP1 SSTORE PUSH1 0x5 DUP1 SLOAD SWAP1 SWAP2 AND SWAP1 SWAP2 OR SWAP1 SSTORE PUSH1 0x13 DUP7 SWAP1 SSTORE PUSH2 0x7D0 PUSH1 0x15 DUP4 DUP4 PUSH20 0x76BF0C28E604CC3FE9967C83B3C3F31C213CFE64 DUP3 DUP1 PUSH2 0x1B66 JUMP JUMPDEST PUSH1 0x7 SLOAD PUSH2 0x7F2 SWAP1 PUSH20 0xFFFFFFFFFFFFFFFFFFFFFFFFFFFFFFFFFFFFFFFF AND PUSH2 0x1524 JUMP JUMPDEST PUSH2 0x7FA PUSH2 0x1F28 JUMP JUMPDEST POP POP PUSH1 0xA DUP1 SLOAD PUSH32 0xFFFFFFFFFFFFFFFFFFFFFF00FFFFFFFFFFFFFFFFFFFFFFFFFFFFFFFFFFFFFFFF AND PUSH21 0x20000000000000000000000000000000000000000 OR SWAP1 SSTORE POP POP POP POP POP JUMP JUMPDEST PUSH1 0x8 SLOAD PUSH20 0xFFFFFFFFFFFFFFFFFFFFFFFFFFFFFFFFFFFFFFFF AND CALLER EQ PUSH2 0x8CE JUMPI PUSH1 0x40 MLOAD PUSH32 0x8C379A000000000000000000000000000000000000000000000000000000000 DUP2 MSTORE PUSH1 0x4 ADD PUSH2 0x8C5 SWAP1 PUSH1 0x20 DUP1 DUP3 MSTORE PUSH1 0x4 SWAP1 DUP3 ADD MSTORE PUSH32 0x21676F7600000000000000000000000000000000000000000000000000000000 PUSH1 0x40 DUP3 ADD MSTORE PUSH1 0x60 ADD SWAP1 JUMP JUMPDEST PUSH1 0x40 MLOAD DUP1 SWAP2 SUB SWAP1 REVERT JUMPDEST PUSH2 0x8D6 PUSH2 0x1F28 JUMP JUMPDEST JUMP JUMPDEST PUSH1 0x8 SLOAD PUSH20 0xFFFFFFFFFFFFFFFFFFFFFFFFFFFFFFFFFFFFFFFF AND CALLER EQ PUSH2 0x95B JUMPI PUSH1 0x40 MLOAD PUSH32 0x8C379A000000000000000000000000000000000000000000000000000000000 DUP2 MSTORE PUSH1 0x4 ADD PUSH2 0x8C5 SWAP1 PUSH1 0x20 DUP1 DUP3 MSTORE PUSH1 0x4 SWAP1 DUP3 ADD MSTORE PUSH32 0x21676F7600000000000000000000000000000000000000000000000000000000 PUSH1 0x40 DUP3 ADD MSTORE PUSH1 0x60 ADD SWAP1 JUMP JUMPDEST PUSH2 0x8CE PUSH2 0x226B JUMP JUMPDEST PUSH1 0x0 PUSH2 0x96D PUSH2 0x662 JUMP JUMPDEST PUSH1 0x4 DUP1 SLOAD PUSH1 0x40 MLOAD PUSH32 0x70A0823100000000000000000000000000000000000000000000000000000000 DUP2 MSTORE ADDRESS SWAP3 DUP2 ADD SWAP3 SWAP1 SWAP3 MSTORE PUSH20 0xFFFFFFFFFFFFFFFFFFFFFFFFFFFFFFFFFFFFFFFF AND SWAP1 PUSH4 0x70A08231 SWAP1 PUSH1 0x24 ADD PUSH1 0x20 PUSH1 0x40 MLOAD DUP1 DUP4 SUB DUP2 DUP7 DUP1 EXTCODESIZE ISZERO DUP1 ISZERO PUSH2 0x9D7 JUMPI PUSH1 0x0 DUP1 REVERT JUMPDEST POP GAS STATICCALL ISZERO DUP1 ISZERO PUSH2 0x9EB JUMPI RETURNDATASIZE PUSH1 0x0 DUP1 RETURNDATACOPY RETURNDATASIZE PUSH1 0x0 REVERT JUMPDEST POP POP POP POP PUSH1 0x40 MLOAD RETURNDATASIZE PUSH1 0x1F NOT PUSH1 0x1F DUP3 ADD AND DUP3 ADD DUP1 PUSH1 0x40 MSTORE POP DUP2 ADD SWAP1 PUSH2 0xA0F SWAP2 SWAP1 PUSH2 0x38F1 JUMP JUMPDEST PUSH2 0xA19 SWAP2 SWAP1 PUSH2 0x3B63 JUMP JUMPDEST SWAP1 POP SWAP1 JUMP JUMPDEST PUSH1 0x8 SLOAD PUSH20 0xFFFFFFFFFFFFFFFFFFFFFFFFFFFFFFFFFFFFFFFF AND CALLER EQ PUSH2 0xAA1 JUMPI PUSH1 0x40 MLOAD PUSH32 0x8C379A000000000000000000000000000000000000000000000000000000000 DUP2 MSTORE PUSH1 0x4 ADD PUSH2 0x8C5 SWAP1 PUSH1 0x20 DUP1 DUP3 MSTORE PUSH1 0x4 SWAP1 DUP3 ADD MSTORE PUSH32 0x21676F7600000000000000000000000000000000000000000000000000000000 PUSH1 0x40 DUP3 ADD MSTORE PUSH1 0x60 ADD SWAP1 JUMP JUMPDEST PUSH2 0xAA9 PUSH2 0x234C JUMP JUMPDEST PUSH2 0x8D6 PUSH2 0x240C JUMP JUMPDEST PUSH1 0x0 DUP1 SLOAD PUSH20 0xFFFFFFFFFFFFFFFFFFFFFFFFFFFFFFFFFFFFFFFF AND CALLER EQ PUSH2 0xB33 JUMPI PUSH1 0x40 MLOAD PUSH32 0x8C379A000000000000000000000000000000000000000000000000000000000 DUP2 MSTORE PUSH1 0x20 PUSH1 0x4 DUP3 ADD DUP2 SWAP1 MSTORE PUSH1 0x24 DUP3 ADD MSTORE PUSH32 0x4F776E61626C653A2063616C6C6572206973206E6F7420746865206F776E6572 PUSH1 0x44 DUP3 ADD MSTORE PUSH1 0x64 ADD PUSH2 0x8C5 JUMP JUMPDEST PUSH1 0x2 PUSH1 0x1 SLOAD EQ ISZERO PUSH2 0xBA0 JUMPI PUSH1 0x40 MLOAD PUSH32 0x8C379A000000000000000000000000000000000000000000000000000000000 DUP2 MSTORE PUSH1 0x20 PUSH1 0x4 DUP3 ADD MSTORE PUSH1 0x1F PUSH1 0x24 DUP3 ADD MSTORE PUSH32 0x5265656E7472616E637947756172643A207265656E7472616E742063616C6C00 PUSH1 0x44 DUP3 ADD MSTORE PUSH1 0x64 ADD PUSH2 0x8C5 JUMP JUMPDEST PUSH1 0x2 PUSH1 0x1 SSTORE PUSH2 0xBB1 PUSH1 0x2 SLOAD PUSH1 0xFF AND SWAP1 JUMP JUMPDEST ISZERO PUSH2 0xC18 JUMPI PUSH1 0x40 MLOAD PUSH32 0x8C379A000000000000000000000000000000000000000000000000000000000 DUP2 MSTORE PUSH1 0x20 PUSH1 0x4 DUP3 ADD MSTORE PUSH1 0x10 PUSH1 0x24 DUP3 ADD MSTORE PUSH32 0x5061757361626C653A2070617573656400000000000000000000000000000000 PUSH1 0x44 DUP3 ADD MSTORE PUSH1 0x64 ADD PUSH2 0x8C5 JUMP JUMPDEST PUSH1 0x0 PUSH2 0xC22 PUSH2 0x963 JUMP JUMPDEST PUSH1 0x4 SLOAD SWAP1 SWAP2 POP PUSH2 0xC4A SWAP1 PUSH20 0xFFFFFFFFFFFFFFFFFFFFFFFFFFFFFFFFFFFFFFFF AND CALLER ADDRESS DUP7 PUSH2 0x249B JUMP JUMPDEST PUSH1 0x0 PUSH2 0xC54 PUSH2 0x2577 JUMP JUMPDEST PUSH1 0xD SLOAD SWAP1 SWAP2 POP ISZERO PUSH2 0xC7B JUMPI DUP2 PUSH1 0xD SLOAD DUP3 PUSH2 0xC6E SWAP2 SWAP1 PUSH2 0x3B8F JUMP JUMPDEST PUSH2 0xC78 SWAP2 SWAP1 PUSH2 0x3B7B JUMP JUMPDEST SWAP1 POP JUMPDEST DUP1 PUSH1 0xD PUSH1 0x0 DUP3 DUP3 SLOAD PUSH2 0xC8D SWAP2 SWAP1 PUSH2 0x3B63 JUMP JUMPDEST SWAP1 SWAP2 SSTORE POP POP PUSH1 0x1 DUP1 SSTORE SWAP5 SWAP4 POP POP POP POP JUMP JUMPDEST PUSH1 0x8 SLOAD PUSH20 0xFFFFFFFFFFFFFFFFFFFFFFFFFFFFFFFFFFFFFFFF AND CALLER EQ PUSH2 0xD21 JUMPI PUSH1 0x40 MLOAD PUSH32 0x8C379A000000000000000000000000000000000000000000000000000000000 DUP2 MSTORE PUSH1 0x4 ADD PUSH2 0x8C5 SWAP1 PUSH1 0x20 DUP1 DUP3 MSTORE PUSH1 0x4 SWAP1 DUP3 ADD MSTORE PUSH32 0x21676F7600000000000000000000000000000000000000000000000000000000 PUSH1 0x40 DUP3 ADD MSTORE PUSH1 0x60 ADD SWAP1 JUMP JUMPDEST PUSH2 0xD29 PUSH2 0x226B JUMP JUMPDEST PUSH2 0xD31 PUSH2 0x2577 JUMP JUMPDEST POP JUMP JUMPDEST PUSH1 0x0 SLOAD PUSH20 0xFFFFFFFFFFFFFFFFFFFFFFFFFFFFFFFFFFFFFFFF AND CALLER EQ PUSH2 0xDB5 JUMPI PUSH1 0x40 MLOAD PUSH32 0x8C379A000000000000000000000000000000000000000000000000000000000 DUP2 MSTORE PUSH1 0x20 PUSH1 0x4 DUP3 ADD DUP2 SWAP1 MSTORE PUSH1 0x24 DUP3 ADD MSTORE PUSH32 0x4F776E61626C653A2063616C6C6572206973206E6F7420746865206F776E6572 PUSH1 0x44 DUP3 ADD MSTORE PUSH1 0x64 ADD PUSH2 0x8C5 JUMP JUMPDEST PUSH2 0x8D6 PUSH1 0x0 PUSH2 0x2660 JUMP JUMPDEST PUSH1 0x8 SLOAD PUSH20 0xFFFFFFFFFFFFFFFFFFFFFFFFFFFFFFFFFFFFFFFF AND CALLER EQ PUSH2 0xE42 JUMPI PUSH1 0x40 MLOAD PUSH32 0x8C379A000000000000000000000000000000000000000000000000000000000 DUP2 MSTORE PUSH1 0x4 ADD PUSH2 0x8C5 SWAP1 PUSH1 0x20 DUP1 DUP3 MSTORE PUSH1 0x4 SWAP1 DUP3 ADD MSTORE PUSH32 0x21676F7600000000000000000000000000000000000000000000000000000000 PUSH1 0x40 DUP3 ADD MSTORE PUSH1 0x60 ADD SWAP1 JUMP JUMPDEST PUSH2 0x8D6 PUSH2 0x234C JUMP JUMPDEST PUSH1 0x8 SLOAD PUSH20 0xFFFFFFFFFFFFFFFFFFFFFFFFFFFFFFFFFFFFFFFF AND CALLER EQ PUSH2 0xECD JUMPI PUSH1 0x40 MLOAD PUSH32 0x8C379A000000000000000000000000000000000000000000000000000000000 DUP2 MSTORE PUSH1 0x4 ADD PUSH2 0x8C5 SWAP1 PUSH1 0x20 DUP1 DUP3 MSTORE PUSH1 0x4 SWAP1 DUP3 ADD MSTORE PUSH32 0x21676F7600000000000000000000000000000000000000000000000000000000 PUSH1 0x40 DUP3 ADD MSTORE PUSH1 0x60 ADD SWAP1 JUMP JUMPDEST PUSH2 0x3E8 DUP6 PUSH2 0xEDB DUP9 DUP11 PUSH2 0x3B63 JUMP JUMPDEST PUSH2 0xEE5 SWAP2 SWAP1 PUSH2 0x3B63 JUMP JUMPDEST GT ISZERO PUSH2 0xF4D JUMPI PUSH1 0x40 MLOAD PUSH32 0x8C379A000000000000000000000000000000000000000000000000000000000 DUP2 MSTORE PUSH1 0x20 PUSH1 0x4 DUP3 ADD MSTORE PUSH1 0xE PUSH1 0x24 DUP3 ADD MSTORE PUSH32 0x4D617820666565206F6620313025000000000000000000000000000000000000 PUSH1 0x44 DUP3 ADD MSTORE PUSH1 0x64 ADD PUSH2 0x8C5 JUMP JUMPDEST PUSH2 0x26AC DUP5 LT ISZERO PUSH2 0xFB9 JUMPI PUSH1 0x40 MLOAD PUSH32 0x8C379A000000000000000000000000000000000000000000000000000000000 DUP2 MSTORE PUSH1 0x20 PUSH1 0x4 DUP3 ADD MSTORE PUSH1 0x1A PUSH1 0x24 DUP3 ADD MSTORE PUSH32 0x5F7769746864726177466565466163746F7220746F6F206C6F77000000000000 PUSH1 0x44 DUP3 ADD MSTORE PUSH1 0x64 ADD PUSH2 0x8C5 JUMP JUMPDEST PUSH2 0x2710 DUP5 GT ISZERO PUSH2 0x1025 JUMPI PUSH1 0x40 MLOAD PUSH32 0x8C379A000000000000000000000000000000000000000000000000000000000 DUP2 MSTORE PUSH1 0x20 PUSH1 0x4 DUP3 ADD MSTORE PUSH1 0x1B PUSH1 0x24 DUP3 ADD MSTORE PUSH32 0x5F7769746864726177466565466163746F7220746F6F20686967680000000000 PUSH1 0x44 DUP3 ADD MSTORE PUSH1 0x64 ADD PUSH2 0x8C5 JUMP JUMPDEST PUSH2 0x3E3 DUP4 GT ISZERO PUSH2 0x1091 JUMPI PUSH1 0x40 MLOAD PUSH32 0x8C379A000000000000000000000000000000000000000000000000000000000 DUP2 MSTORE PUSH1 0x20 PUSH1 0x4 DUP3 ADD MSTORE PUSH1 0x18 PUSH1 0x24 DUP3 ADD MSTORE PUSH32 0x5F736C697070616765466163746F7220746F6F20686967680000000000000000 PUSH1 0x44 DUP3 ADD MSTORE PUSH1 0x64 ADD PUSH2 0x8C5 JUMP JUMPDEST PUSH1 0xE DUP8 SWAP1 SSTORE PUSH1 0xF DUP7 SWAP1 SSTORE PUSH1 0x10 DUP6 SWAP1 SSTORE PUSH1 0x11 DUP5 SWAP1 SSTORE PUSH1 0x12 DUP4 SWAP1 SSTORE PUSH1 0x13 DUP3 SWAP1 SSTORE PUSH1 0x6 DUP1 SLOAD PUSH32 0xFFFFFFFFFFFFFFFFFFFFFFFF0000000000000000000000000000000000000000 AND PUSH20 0xFFFFFFFFFFFFFFFFFFFFFFFFFFFFFFFFFFFFFFFF DUP4 AND SWAP1 DUP2 OR SWAP1 SWAP2 SSTORE PUSH1 0x40 DUP1 MLOAD DUP10 DUP2 MSTORE PUSH1 0x20 DUP2 ADD DUP10 SWAP1 MSTORE SWAP1 DUP2 ADD DUP8 SWAP1 MSTORE PUSH1 0x60 DUP2 ADD DUP7 SWAP1 MSTORE PUSH1 0x80 DUP2 ADD DUP6 SWAP1 MSTORE PUSH1 0xA0 DUP2 ADD DUP5 SWAP1 MSTORE PUSH1 0xC0 DUP2 ADD SWAP2 SWAP1 SWAP2 MSTORE PUSH32 0x813767A04E11DFAB70A5EC48C4FD7C344AB48E62196586790931DC9DFAED97E9 SWAP1 PUSH1 0xE0 ADD PUSH1 0x40 MLOAD DUP1 SWAP2 SUB SWAP1 LOG1 POP POP POP POP POP POP POP JUMP JUMPDEST PUSH1 0x8 SLOAD PUSH20 0xFFFFFFFFFFFFFFFFFFFFFFFFFFFFFFFFFFFFFFFF AND CALLER EQ PUSH2 0x11DC JUMPI PUSH1 0x40 MLOAD PUSH32 0x8C379A000000000000000000000000000000000000000000000000000000000 DUP2 MSTORE PUSH1 0x4 ADD PUSH2 0x8C5 SWAP1 PUSH1 0x20 DUP1 DUP3 MSTORE PUSH1 0x4 SWAP1 DUP3 ADD MSTORE PUSH32 0x21676F7600000000000000000000000000000000000000000000000000000000 PUSH1 0x40 DUP3 ADD MSTORE PUSH1 0x60 ADD SWAP1 JUMP JUMPDEST PUSH1 0x8 DUP1 SLOAD PUSH32 0xFFFFFFFFFFFFFFFFFFFFFFFF0000000000000000000000000000000000000000 AND PUSH20 0xFFFFFFFFFFFFFFFFFFFFFFFFFFFFFFFFFFFFFFFF SWAP3 SWAP1 SWAP3 AND SWAP2 SWAP1 SWAP2 OR SWAP1 SSTORE JUMP JUMPDEST PUSH1 0x2 PUSH1 0x1 SLOAD EQ ISZERO PUSH2 0x1290 JUMPI PUSH1 0x40 MLOAD PUSH32 0x8C379A000000000000000000000000000000000000000000000000000000000 DUP2 MSTORE PUSH1 0x20 PUSH1 0x4 DUP3 ADD MSTORE PUSH1 0x1F PUSH1 0x24 DUP3 ADD MSTORE PUSH32 0x5265656E7472616E637947756172643A207265656E7472616E742063616C6C00 PUSH1 0x44 DUP3 ADD MSTORE PUSH1 0x64 ADD PUSH2 0x8C5 JUMP JUMPDEST PUSH1 0x2 PUSH1 0x1 SSTORE PUSH2 0x12A1 PUSH1 0x2 SLOAD PUSH1 0xFF AND SWAP1 JUMP JUMPDEST ISZERO PUSH2 0x1308 JUMPI PUSH1 0x40 MLOAD PUSH32 0x8C379A000000000000000000000000000000000000000000000000000000000 DUP2 MSTORE PUSH1 0x20 PUSH1 0x4 DUP3 ADD MSTORE PUSH1 0x10 PUSH1 0x24 DUP3 ADD MSTORE PUSH32 0x5061757361626C653A2070617573656400000000000000000000000000000000 PUSH1 0x44 DUP3 ADD MSTORE PUSH1 0x64 ADD PUSH2 0x8C5 JUMP JUMPDEST PUSH1 0x0 SLOAD PUSH20 0xFFFFFFFFFFFFFFFFFFFFFFFFFFFFFFFFFFFFFFFF AND CALLER EQ PUSH2 0x1389 JUMPI PUSH1 0x40 MLOAD PUSH32 0x8C379A000000000000000000000000000000000000000000000000000000000 DUP2 MSTORE PUSH1 0x20 PUSH1 0x4 DUP3 ADD DUP2 SWAP1 MSTORE PUSH1 0x24 DUP3 ADD MSTORE PUSH32 0x4F776E61626C653A2063616C6C6572206973206E6F7420746865206F776E6572 PUSH1 0x44 DUP3 ADD MSTORE PUSH1 0x64 ADD PUSH2 0x8C5 JUMP JUMPDEST PUSH1 0x5 SLOAD PUSH1 0x40 MLOAD PUSH32 0x70A0823100000000000000000000000000000000000000000000000000000000 DUP2 MSTORE ADDRESS PUSH1 0x4 DUP3 ADD MSTORE PUSH1 0x0 SWAP2 PUSH20 0xFFFFFFFFFFFFFFFFFFFFFFFFFFFFFFFFFFFFFFFF AND SWAP1 PUSH4 0x70A08231 SWAP1 PUSH1 0x24 ADD PUSH1 0x20 PUSH1 0x40 MLOAD DUP1 DUP4 SUB DUP2 DUP7 DUP1 EXTCODESIZE ISZERO DUP1 ISZERO PUSH2 0x13F3 JUMPI PUSH1 0x0 DUP1 REVERT JUMPDEST POP GAS STATICCALL ISZERO DUP1 ISZERO PUSH2 0x1407 JUMPI RETURNDATASIZE PUSH1 0x0 DUP1 RETURNDATACOPY RETURNDATASIZE PUSH1 0x0 REVERT JUMPDEST POP POP POP POP PUSH1 0x40 MLOAD RETURNDATASIZE PUSH1 0x1F NOT PUSH1 0x1F DUP3 ADD AND DUP3 ADD DUP1 PUSH1 0x40 MSTORE POP DUP2 ADD SWAP1 PUSH2 0x142B SWAP2 SWAP1 PUSH2 0x38F1 JUMP JUMPDEST SWAP1 POP PUSH2 0x1435 PUSH2 0x26D5 JUMP JUMPDEST PUSH1 0x5 SLOAD PUSH1 0x40 MLOAD PUSH32 0x70A0823100000000000000000000000000000000000000000000000000000000 DUP2 MSTORE ADDRESS PUSH1 0x4 DUP3 ADD MSTORE PUSH1 0x0 SWAP2 DUP4 SWAP2 PUSH20 0xFFFFFFFFFFFFFFFFFFFFFFFFFFFFFFFFFFFFFFFF SWAP1 SWAP2 AND SWAP1 PUSH4 0x70A08231 SWAP1 PUSH1 0x24 ADD PUSH1 0x20 PUSH1 0x40 MLOAD DUP1 DUP4 SUB DUP2 DUP7 DUP1 EXTCODESIZE ISZERO DUP1 ISZERO PUSH2 0x14A3 JUMPI PUSH1 0x0 DUP1 REVERT JUMPDEST POP GAS STATICCALL ISZERO DUP1 ISZERO PUSH2 0x14B7 JUMPI RETURNDATASIZE PUSH1 0x0 DUP1 RETURNDATACOPY RETURNDATASIZE PUSH1 0x0 REVERT JUMPDEST POP POP POP POP PUSH1 0x40 MLOAD RETURNDATASIZE PUSH1 0x1F NOT PUSH1 0x1F DUP3 ADD AND DUP3 ADD DUP1 PUSH1 0x40 MSTORE POP DUP2 ADD SWAP1 PUSH2 0x14DB SWAP2 SWAP1 PUSH2 0x38F1 JUMP JUMPDEST PUSH2 0x14E5 SWAP2 SWAP1 PUSH2 0x3BCC JUMP JUMPDEST SWAP1 POP DUP1 ISZERO PUSH2 0x151C JUMPI PUSH2 0x14F6 DUP2 PUSH2 0x2737 JUMP JUMPDEST SWAP1 POP PUSH2 0x1501 DUP2 PUSH2 0x27FC JUMP JUMPDEST SWAP1 POP PUSH2 0x150C DUP2 PUSH2 0x2A9B JUMP JUMPDEST NUMBER PUSH1 0xC SSTORE SWAP1 POP PUSH2 0x151A PUSH2 0x2577 JUMP JUMPDEST POP JUMPDEST POP POP PUSH1 0x1 DUP1 SSTORE JUMP JUMPDEST PUSH1 0x0 SLOAD PUSH20 0xFFFFFFFFFFFFFFFFFFFFFFFFFFFFFFFFFFFFFFFF AND CALLER EQ PUSH2 0x15A5 JUMPI PUSH1 0x40 MLOAD PUSH32 0x8C379A000000000000000000000000000000000000000000000000000000000 DUP2 MSTORE PUSH1 0x20 PUSH1 0x4 DUP3 ADD DUP2 SWAP1 MSTORE PUSH1 0x24 DUP3 ADD MSTORE PUSH32 0x4F776E61626C653A2063616C6C6572206973206E6F7420746865206F776E6572 PUSH1 0x44 DUP3 ADD MSTORE PUSH1 0x64 ADD PUSH2 0x8C5 JUMP JUMPDEST PUSH20 0xFFFFFFFFFFFFFFFFFFFFFFFFFFFFFFFFFFFFFFFF DUP2 AND PUSH2 0x1648 JUMPI PUSH1 0x40 MLOAD PUSH32 0x8C379A000000000000000000000000000000000000000000000000000000000 DUP2 MSTORE PUSH1 0x20 PUSH1 0x4 DUP3 ADD MSTORE PUSH1 0x26 PUSH1 0x24 DUP3 ADD MSTORE PUSH32 0x4F776E61626C653A206E6577206F776E657220697320746865207A65726F2061 PUSH1 0x44 DUP3 ADD MSTORE PUSH32 0x6464726573730000000000000000000000000000000000000000000000000000 PUSH1 0x64 DUP3 ADD MSTORE PUSH1 0x84 ADD PUSH2 0x8C5 JUMP JUMPDEST PUSH2 0xD31 DUP2 PUSH2 0x2660 JUMP JUMPDEST PUSH1 0x0 DUP1 SLOAD PUSH20 0xFFFFFFFFFFFFFFFFFFFFFFFFFFFFFFFFFFFFFFFF AND CALLER EQ PUSH2 0x16D3 JUMPI PUSH1 0x40 MLOAD PUSH32 0x8C379A000000000000000000000000000000000000000000000000000000000 DUP2 MSTORE PUSH1 0x20 PUSH1 0x4 DUP3 ADD DUP2 SWAP1 MSTORE PUSH1 0x24 DUP3 ADD MSTORE PUSH32 0x4F776E61626C653A2063616C6C6572206973206E6F7420746865206F776E6572 PUSH1 0x44 DUP3 ADD MSTORE PUSH1 0x64 ADD PUSH2 0x8C5 JUMP JUMPDEST PUSH1 0x2 PUSH1 0x1 SLOAD EQ ISZERO PUSH2 0x1740 JUMPI PUSH1 0x40 MLOAD PUSH32 0x8C379A000000000000000000000000000000000000000000000000000000000 DUP2 MSTORE PUSH1 0x20 PUSH1 0x4 DUP3 ADD MSTORE PUSH1 0x1F PUSH1 0x24 DUP3 ADD MSTORE PUSH32 0x5265656E7472616E637947756172643A207265656E7472616E742063616C6C00 PUSH1 0x44 DUP3 ADD MSTORE PUSH1 0x64 ADD PUSH2 0x8C5 JUMP JUMPDEST PUSH1 0x2 PUSH1 0x1 SSTORE DUP2 PUSH2 0x17AC JUMPI PUSH1 0x40 MLOAD PUSH32 0x8C379A000000000000000000000000000000000000000000000000000000000 DUP2 MSTORE PUSH1 0x20 PUSH1 0x4 DUP3 ADD MSTORE PUSH1 0xD PUSH1 0x24 DUP3 ADD MSTORE PUSH32 0x5F77616E74416D74206973203000000000000000000000000000000000000000 PUSH1 0x44 DUP3 ADD MSTORE PUSH1 0x64 ADD PUSH2 0x8C5 JUMP JUMPDEST PUSH1 0x4 DUP1 SLOAD PUSH1 0x40 MLOAD PUSH32 0x70A0823100000000000000000000000000000000000000000000000000000000 DUP2 MSTORE ADDRESS SWAP3 DUP2 ADD SWAP3 SWAP1 SWAP3 MSTORE PUSH1 0x0 SWAP2 PUSH20 0xFFFFFFFFFFFFFFFFFFFFFFFFFFFFFFFFFFFFFFFF SWAP1 SWAP2 AND SWAP1 PUSH4 0x70A08231 SWAP1 PUSH1 0x24 ADD PUSH1 0x20 PUSH1 0x40 MLOAD DUP1 DUP4 SUB DUP2 DUP7 DUP1 EXTCODESIZE ISZERO DUP1 ISZERO PUSH2 0x181B JUMPI PUSH1 0x0 DUP1 REVERT JUMPDEST POP GAS STATICCALL ISZERO DUP1 ISZERO PUSH2 0x182F JUMPI RETURNDATASIZE PUSH1 0x0 DUP1 RETURNDATACOPY RETURNDATASIZE PUSH1 0x0 REVERT JUMPDEST POP POP POP POP PUSH1 0x40 MLOAD RETURNDATASIZE PUSH1 0x1F NOT PUSH1 0x1F DUP3 ADD AND DUP3 ADD DUP1 PUSH1 0x40 MSTORE POP DUP2 ADD SWAP1 PUSH2 0x1853 SWAP2 SWAP1 PUSH2 0x38F1 JUMP JUMPDEST SWAP1 POP DUP1 DUP4 GT ISZERO PUSH2 0x1914 JUMPI PUSH2 0x186F PUSH2 0x186A DUP3 DUP6 PUSH2 0x3BCC JUMP JUMPDEST PUSH2 0x2B3C JUMP JUMPDEST PUSH1 0x4 DUP1 SLOAD PUSH1 0x40 MLOAD PUSH32 0x70A0823100000000000000000000000000000000000000000000000000000000 DUP2 MSTORE ADDRESS SWAP3 DUP2 ADD SWAP3 SWAP1 SWAP3 MSTORE PUSH20 0xFFFFFFFFFFFFFFFFFFFFFFFFFFFFFFFFFFFFFFFF AND SWAP1 PUSH4 0x70A08231 SWAP1 PUSH1 0x24 ADD PUSH1 0x20 PUSH1 0x40 MLOAD DUP1 DUP4 SUB DUP2 DUP7 DUP1 EXTCODESIZE ISZERO DUP1 ISZERO PUSH2 0x18D9 JUMPI PUSH1 0x0 DUP1 REVERT JUMPDEST POP GAS STATICCALL ISZERO DUP1 ISZERO PUSH2 0x18ED JUMPI RETURNDATASIZE PUSH1 0x0 DUP1 RETURNDATACOPY RETURNDATASIZE PUSH1 0x0 REVERT JUMPDEST POP POP POP POP PUSH1 0x40 MLOAD RETURNDATASIZE PUSH1 0x1F NOT PUSH1 0x1F DUP3 ADD AND DUP3 ADD DUP1 PUSH1 0x40 MSTORE POP DUP2 ADD SWAP1 PUSH2 0x1911 SWAP2 SWAP1 PUSH2 0x38F1 JUMP JUMPDEST SWAP1 POP JUMPDEST DUP1 DUP4 GT ISZERO PUSH2 0x1920 JUMPI DUP1 SWAP3 POP JUMPDEST PUSH2 0x1928 PUSH2 0x963 JUMP JUMPDEST DUP4 GT ISZERO PUSH2 0x193A JUMPI PUSH2 0x1937 PUSH2 0x963 JUMP JUMPDEST SWAP3 POP JUMPDEST PUSH1 0x0 PUSH2 0x195A PUSH2 0x1947 PUSH2 0x963 JUMP JUMPDEST PUSH1 0xD SLOAD PUSH2 0x1954 SWAP1 DUP8 PUSH2 0x3B8F JUMP JUMPDEST SWAP1 PUSH2 0x2BD3 JUMP JUMPDEST SWAP1 POP PUSH1 0xD SLOAD DUP2 GT ISZERO PUSH2 0x196B JUMPI POP PUSH1 0xD SLOAD JUMPDEST DUP1 PUSH1 0xD PUSH1 0x0 DUP3 DUP3 SLOAD PUSH2 0x197D SWAP2 SWAP1 PUSH2 0x3BCC JUMP JUMPDEST SWAP1 SWAP2 SSTORE POP POP PUSH1 0x11 SLOAD PUSH1 0x0 SWAP1 PUSH2 0x2710 SWAP1 PUSH2 0x1996 SWAP1 DUP3 PUSH2 0x3BCC JUMP JUMPDEST PUSH2 0x19A0 SWAP1 DUP8 PUSH2 0x3B8F JUMP JUMPDEST PUSH2 0x19AA SWAP2 SWAP1 PUSH2 0x3B7B JUMP JUMPDEST SWAP1 POP DUP1 ISZERO PUSH2 0x19EA JUMPI PUSH1 0x4 SLOAD PUSH2 0x19EA SWAP1 PUSH20 0xFFFFFFFFFFFFFFFFFFFFFFFFFFFFFFFFFFFFFFFF AND PUSH20 0x5386881B46C37CDD30A748F7771CF95D7B213637 DUP4 PUSH2 0x2C0C JUMP JUMPDEST PUSH2 0x19F4 DUP2 DUP7 PUSH2 0x3BCC JUMP JUMPDEST PUSH1 0x7 SLOAD PUSH1 0x4 SLOAD SWAP2 SWAP7 POP PUSH2 0x1A21 SWAP2 PUSH20 0xFFFFFFFFFFFFFFFFFFFFFFFFFFFFFFFFFFFFFFFF SWAP1 DUP2 AND SWAP2 AND DUP8 PUSH2 0x2C0C JUMP JUMPDEST POP PUSH1 0x1 DUP1 SSTORE SWAP5 SWAP4 POP POP POP POP JUMP JUMPDEST PUSH1 0x2 SLOAD PUSH3 0x10000 SWAP1 DIV PUSH1 0xFF AND DUP1 PUSH2 0x1A4D JUMPI POP PUSH1 0x2 SLOAD PUSH2 0x100 SWAP1 DIV PUSH1 0xFF AND ISZERO JUMPDEST PUSH2 0x1AD9 JUMPI PUSH1 0x40 MLOAD PUSH32 0x8C379A000000000000000000000000000000000000000000000000000000000 DUP2 MSTORE PUSH1 0x20 PUSH1 0x4 DUP3 ADD MSTORE PUSH1 0x2E PUSH1 0x24 DUP3 ADD MSTORE PUSH32 0x496E697469616C697A61626C653A20636F6E747261637420697320616C726561 PUSH1 0x44 DUP3 ADD MSTORE PUSH32 0x647920696E697469616C697A6564000000000000000000000000000000000000 PUSH1 0x64 DUP3 ADD MSTORE PUSH1 0x84 ADD PUSH2 0x8C5 JUMP JUMPDEST PUSH1 0x2 SLOAD PUSH3 0x10000 SWAP1 DIV PUSH1 0xFF AND ISZERO DUP1 ISZERO PUSH2 0x1B1A JUMPI PUSH1 0x2 DUP1 SLOAD PUSH32 0xFFFFFFFFFFFFFFFFFFFFFFFFFFFFFFFFFFFFFFFFFFFFFFFFFFFFFFFFFF0000FF AND PUSH3 0x10100 OR SWAP1 SSTORE JUMPDEST NUMBER PUSH1 0xC SSTORE PUSH1 0x32 PUSH1 0xE SSTORE PUSH2 0x1C2 PUSH1 0x10 SSTORE PUSH2 0x2706 PUSH1 0x11 SSTORE PUSH2 0x3B6 PUSH1 0x12 SSTORE DUP1 ISZERO PUSH2 0xD31 JUMPI PUSH1 0x2 DUP1 SLOAD PUSH32 0xFFFFFFFFFFFFFFFFFFFFFFFFFFFFFFFFFFFFFFFFFFFFFFFFFFFFFFFFFF00FFFF AND SWAP1 SSTORE POP JUMP JUMPDEST PUSH2 0x1B71 DUP7 DUP7 DUP7 PUSH2 0x2C67 JUMP JUMPDEST DUP6 SLOAD PUSH1 0x40 DUP1 MLOAD PUSH1 0x20 DUP1 DUP5 MUL DUP3 ADD DUP2 ADD SWAP1 SWAP3 MSTORE DUP3 DUP2 MSTORE PUSH2 0x1BF7 SWAP3 PUSH1 0x1 DUP11 ADD SWAP3 DUP11 SWAP2 SWAP1 DUP4 ADD DUP3 DUP3 DUP1 ISZERO PUSH2 0x1BD8 JUMPI PUSH1 0x20 MUL DUP3 ADD SWAP2 SWAP1 PUSH1 0x0 MSTORE PUSH1 0x20 PUSH1 0x0 KECCAK256 SWAP1 JUMPDEST DUP2 SLOAD PUSH20 0xFFFFFFFFFFFFFFFFFFFFFFFFFFFFFFFFFFFFFFFF AND DUP2 MSTORE PUSH1 0x1 SWAP1 SWAP2 ADD SWAP1 PUSH1 0x20 ADD DUP1 DUP4 GT PUSH2 0x1BAD JUMPI JUMPDEST POP POP POP POP POP PUSH20 0x2791BCA1F2DE4661ED88A30C99A7A9449AA84174 PUSH2 0x2DC9 JUMP JUMPDEST DUP6 SLOAD PUSH1 0x40 DUP1 MLOAD PUSH1 0x20 DUP1 DUP5 MUL DUP3 ADD DUP2 ADD SWAP1 SWAP3 MSTORE DUP3 DUP2 MSTORE PUSH2 0x1C69 SWAP3 PUSH1 0x2 DUP11 ADD SWAP3 DUP11 SWAP2 SWAP1 DUP4 ADD DUP3 DUP3 DUP1 ISZERO PUSH2 0x1C5E JUMPI PUSH1 0x20 MUL DUP3 ADD SWAP2 SWAP1 PUSH1 0x0 MSTORE PUSH1 0x20 PUSH1 0x0 KECCAK256 SWAP1 JUMPDEST DUP2 SLOAD PUSH20 0xFFFFFFFFFFFFFFFFFFFFFFFFFFFFFFFFFFFFFFFF AND DUP2 MSTORE PUSH1 0x1 SWAP1 SWAP2 ADD SWAP1 PUSH1 0x20 ADD DUP1 DUP4 GT PUSH2 0x1C33 JUMPI JUMPDEST POP POP POP POP POP DUP6 PUSH2 0x2DC9 JUMP JUMPDEST PUSH20 0xFFFFFFFFFFFFFFFFFFFFFFFFFFFFFFFFFFFFFFFF DUP2 AND ISZERO PUSH2 0x1CF7 JUMPI DUP6 SLOAD PUSH1 0x40 DUP1 MLOAD PUSH1 0x20 DUP1 DUP5 MUL DUP3 ADD DUP2 ADD SWAP1 SWAP3 MSTORE DUP3 DUP2 MSTORE PUSH2 0x1CF7 SWAP3 PUSH1 0x7 DUP11 ADD SWAP3 DUP11 SWAP2 SWAP1 DUP4 ADD DUP3 DUP3 DUP1 ISZERO PUSH2 0x1CEC JUMPI PUSH1 0x20 MUL DUP3 ADD SWAP2 SWAP1 PUSH1 0x0 MSTORE PUSH1 0x20 PUSH1 0x0 KECCAK256 SWAP1 JUMPDEST DUP2 SLOAD PUSH20 0xFFFFFFFFFFFFFFFFFFFFFFFFFFFFFFFFFFFFFFFF AND DUP2 MSTORE PUSH1 0x1 SWAP1 SWAP2 ADD SWAP1 PUSH1 0x20 ADD DUP1 DUP4 GT PUSH2 0x1CC1 JUMPI JUMPDEST POP POP POP POP POP DUP4 PUSH2 0x2DC9 JUMP JUMPDEST DUP2 PUSH20 0xFFFFFFFFFFFFFFFFFFFFFFFFFFFFFFFFFFFFFFFF AND PUSH4 0xDFE1681 PUSH1 0x40 MLOAD DUP2 PUSH4 0xFFFFFFFF AND PUSH1 0xE0 SHL DUP2 MSTORE PUSH1 0x4 ADD PUSH1 0x20 PUSH1 0x40 MLOAD DUP1 DUP4 SUB DUP2 DUP7 DUP1 EXTCODESIZE ISZERO DUP1 ISZERO PUSH2 0x1D3D JUMPI PUSH1 0x0 DUP1 REVERT JUMPDEST POP GAS STATICCALL SWAP3 POP POP POP DUP1 ISZERO PUSH2 0x1D8B JUMPI POP PUSH1 0x40 DUP1 MLOAD PUSH1 0x1F RETURNDATASIZE SWAP1 DUP2 ADD PUSH32 0xFFFFFFFFFFFFFFFFFFFFFFFFFFFFFFFFFFFFFFFFFFFFFFFFFFFFFFFFFFFFFFE0 AND DUP3 ADD SWAP1 SWAP3 MSTORE PUSH2 0x1D88 SWAP2 DUP2 ADD SWAP1 PUSH2 0x37A3 JUMP JUMPDEST PUSH1 0x1 JUMPDEST PUSH2 0x1D94 JUMPI PUSH2 0x1F20 JUMP JUMPDEST PUSH1 0x0 DUP4 PUSH20 0xFFFFFFFFFFFFFFFFFFFFFFFFFFFFFFFFFFFFFFFF AND PUSH4 0xD21220A7 PUSH1 0x40 MLOAD DUP2 PUSH4 0xFFFFFFFF AND PUSH1 0xE0 SHL DUP2 MSTORE PUSH1 0x4 ADD PUSH1 0x20 PUSH1 0x40 MLOAD DUP1 DUP4 SUB DUP2 DUP7 DUP1 EXTCODESIZE ISZERO DUP1 ISZERO PUSH2 0x1DDC JUMPI PUSH1 0x0 DUP1 REVERT JUMPDEST POP GAS STATICCALL ISZERO DUP1 ISZERO PUSH2 0x1DF0 JUMPI RETURNDATASIZE PUSH1 0x0 DUP1 RETURNDATACOPY RETURNDATASIZE PUSH1 0x0 REVERT JUMPDEST POP POP POP POP PUSH1 0x40 MLOAD RETURNDATASIZE PUSH1 0x1F NOT PUSH1 0x1F DUP3 ADD AND DUP3 ADD DUP1 PUSH1 0x40 MSTORE POP DUP2 ADD SWAP1 PUSH2 0x1E14 SWAP2 SWAP1 PUSH2 0x37A3 JUMP JUMPDEST SWAP1 POP PUSH2 0x1E8D DUP9 PUSH1 0x3 ADD DUP10 PUSH1 0x0 ADD DUP1 SLOAD DUP1 PUSH1 0x20 MUL PUSH1 0x20 ADD PUSH1 0x40 MLOAD SWAP1 DUP2 ADD PUSH1 0x40 MSTORE DUP1 SWAP3 SWAP2 SWAP1 DUP2 DUP2 MSTORE PUSH1 0x20 ADD DUP3 DUP1 SLOAD DUP1 ISZERO PUSH2 0x1E82 JUMPI PUSH1 0x20 MUL DUP3 ADD SWAP2 SWAP1 PUSH1 0x0 MSTORE PUSH1 0x20 PUSH1 0x0 KECCAK256 SWAP1 JUMPDEST DUP2 SLOAD PUSH20 0xFFFFFFFFFFFFFFFFFFFFFFFFFFFFFFFFFFFFFFFF AND DUP2 MSTORE PUSH1 0x1 SWAP1 SWAP2 ADD SWAP1 PUSH1 0x20 ADD DUP1 DUP4 GT PUSH2 0x1E57 JUMPI JUMPDEST POP POP POP POP POP DUP5 PUSH2 0x2DC9 JUMP JUMPDEST DUP8 SLOAD PUSH1 0x40 DUP1 MLOAD PUSH1 0x20 DUP1 DUP5 MUL DUP3 ADD DUP2 ADD SWAP1 SWAP3 MSTORE DUP3 DUP2 MSTORE PUSH2 0x1EFD SWAP3 PUSH1 0x4 DUP13 ADD SWAP3 DUP13 SWAP2 SWAP1 DUP4 ADD DUP3 DUP3 DUP1 ISZERO PUSH2 0x1CEC JUMPI PUSH1 0x20 MUL DUP3 ADD SWAP2 SWAP1 PUSH1 0x0 MSTORE PUSH1 0x20 PUSH1 0x0 KECCAK256 SWAP1 DUP2 SLOAD PUSH20 0xFFFFFFFFFFFFFFFFFFFFFFFFFFFFFFFFFFFFFFFF AND DUP2 MSTORE PUSH1 0x1 SWAP1 SWAP2 ADD SWAP1 PUSH1 0x20 ADD DUP1 DUP4 GT PUSH2 0x1CC1 JUMPI POP POP POP POP POP DUP4 PUSH2 0x2DC9 JUMP JUMPDEST PUSH2 0x1F0D DUP9 PUSH1 0x5 ADD DUP10 PUSH1 0x3 ADD PUSH2 0x2FD1 JUMP JUMPDEST PUSH2 0x1F1D DUP9 PUSH1 0x6 ADD DUP10 PUSH1 0x4 ADD PUSH2 0x2FD1 JUMP JUMPDEST POP POP JUMPDEST POP POP POP POP POP POP JUMP JUMPDEST PUSH1 0x4 DUP1 SLOAD PUSH1 0x9 SLOAD PUSH1 0x40 MLOAD PUSH32 0x95EA7B300000000000000000000000000000000000000000000000000000000 DUP2 MSTORE PUSH20 0xFFFFFFFFFFFFFFFFFFFFFFFFFFFFFFFFFFFFFFFF SWAP2 DUP3 AND SWAP4 DUP2 ADD SWAP4 SWAP1 SWAP4 MSTORE PUSH32 0xFFFFFFFFFFFFFFFFFFFFFFFFFFFFFFFFFFFFFFFFFFFFFFFFFFFFFFFFFFFFFFFF PUSH1 0x24 DUP5 ADD MSTORE AND SWAP1 PUSH4 0x95EA7B3 SWAP1 PUSH1 0x44 ADD PUSH1 0x20 PUSH1 0x40 MLOAD DUP1 DUP4 SUB DUP2 PUSH1 0x0 DUP8 DUP1 EXTCODESIZE ISZERO DUP1 ISZERO PUSH2 0x1FBF JUMPI PUSH1 0x0 DUP1 REVERT JUMPDEST POP GAS CALL ISZERO DUP1 ISZERO PUSH2 0x1FD3 JUMPI RETURNDATASIZE PUSH1 0x0 DUP1 RETURNDATACOPY RETURNDATASIZE PUSH1 0x0 REVERT JUMPDEST POP POP POP POP PUSH1 0x40 MLOAD RETURNDATASIZE PUSH1 0x1F NOT PUSH1 0x1F DUP3 ADD AND DUP3 ADD DUP1 PUSH1 0x40 MSTORE POP DUP2 ADD SWAP1 PUSH2 0x1FF7 SWAP2 SWAP1 PUSH2 0x38CF JUMP JUMPDEST POP PUSH1 0x5 SLOAD PUSH1 0x6 SLOAD PUSH1 0x40 MLOAD PUSH32 0x95EA7B300000000000000000000000000000000000000000000000000000000 DUP2 MSTORE PUSH20 0xFFFFFFFFFFFFFFFFFFFFFFFFFFFFFFFFFFFFFFFF SWAP2 DUP3 AND PUSH1 0x4 DUP3 ADD MSTORE PUSH32 0xFFFFFFFFFFFFFFFFFFFFFFFFFFFFFFFFFFFFFFFFFFFFFFFFFFFFFFFFFFFFFFFF PUSH1 0x24 DUP3 ADD MSTORE SWAP2 AND SWAP1 PUSH4 0x95EA7B3 SWAP1 PUSH1 0x44 ADD PUSH1 0x20 PUSH1 0x40 MLOAD DUP1 DUP4 SUB DUP2 PUSH1 0x0 DUP8 DUP1 EXTCODESIZE ISZERO DUP1 ISZERO PUSH2 0x208D JUMPI PUSH1 0x0 DUP1 REVERT JUMPDEST POP GAS CALL ISZERO DUP1 ISZERO PUSH2 0x20A1 JUMPI RETURNDATASIZE PUSH1 0x0 DUP1 RETURNDATACOPY RETURNDATASIZE PUSH1 0x0 REVERT JUMPDEST POP POP POP POP PUSH1 0x40 MLOAD RETURNDATASIZE PUSH1 0x1F NOT PUSH1 0x1F DUP3 ADD AND DUP3 ADD DUP1 PUSH1 0x40 MSTORE POP DUP2 ADD SWAP1 PUSH2 0x20C5 SWAP2 SWAP1 PUSH2 0x38CF JUMP JUMPDEST POP PUSH1 0x40 MLOAD PUSH32 0x95EA7B300000000000000000000000000000000000000000000000000000000 DUP2 MSTORE PUSH20 0x917FB15E8AAA12264DCBDC15AFEF7CD3CE76BA39 PUSH1 0x4 DUP3 ADD MSTORE PUSH32 0xFFFFFFFFFFFFFFFFFFFFFFFFFFFFFFFFFFFFFFFFFFFFFFFFFFFFFFFFFFFFFFFF PUSH1 0x24 DUP3 ADD MSTORE PUSH20 0x2791BCA1F2DE4661ED88A30C99A7A9449AA84174 SWAP1 PUSH4 0x95EA7B3 SWAP1 PUSH1 0x44 ADD PUSH1 0x20 PUSH1 0x40 MLOAD DUP1 DUP4 SUB DUP2 PUSH1 0x0 DUP8 DUP1 EXTCODESIZE ISZERO DUP1 ISZERO PUSH2 0x2165 JUMPI PUSH1 0x0 DUP1 REVERT JUMPDEST POP GAS CALL ISZERO DUP1 ISZERO PUSH2 0x2179 JUMPI RETURNDATASIZE PUSH1 0x0 DUP1 RETURNDATACOPY RETURNDATASIZE PUSH1 0x0 REVERT JUMPDEST POP POP POP POP PUSH1 0x40 MLOAD RETURNDATASIZE PUSH1 0x1F NOT PUSH1 0x1F DUP3 ADD AND DUP3 ADD DUP1 PUSH1 0x40 MSTORE POP DUP2 ADD SWAP1 PUSH2 0x219D SWAP2 SWAP1 PUSH2 0x38CF JUMP JUMPDEST POP PUSH1 0x5 SLOAD PUSH1 0x7 SLOAD PUSH1 0x40 MLOAD PUSH32 0x95EA7B300000000000000000000000000000000000000000000000000000000 DUP2 MSTORE PUSH20 0xFFFFFFFFFFFFFFFFFFFFFFFFFFFFFFFFFFFFFFFF SWAP2 DUP3 AND PUSH1 0x4 DUP3 ADD MSTORE PUSH32 0xFFFFFFFFFFFFFFFFFFFFFFFFFFFFFFFFFFFFFFFFFFFFFFFFFFFFFFFFFFFFFFFF PUSH1 0x24 DUP3 ADD MSTORE SWAP2 AND SWAP1 PUSH4 0x95EA7B3 SWAP1 PUSH1 0x44 ADD PUSH1 0x20 PUSH1 0x40 MLOAD DUP1 DUP4 SUB DUP2 PUSH1 0x0 DUP8 DUP1 EXTCODESIZE ISZERO DUP1 ISZERO PUSH2 0x2233 JUMPI PUSH1 0x0 DUP1 REVERT JUMPDEST POP GAS CALL ISZERO DUP1 ISZERO PUSH2 0x2247 JUMPI RETURNDATASIZE PUSH1 0x0 DUP1 RETURNDATACOPY RETURNDATASIZE PUSH1 0x0 REVERT JUMPDEST POP POP POP POP PUSH1 0x40 MLOAD RETURNDATASIZE PUSH1 0x1F NOT PUSH1 0x1F DUP3 ADD AND DUP3 ADD DUP1 PUSH1 0x40 MSTORE POP DUP2 ADD SWAP1 PUSH2 0xD31 SWAP2 SWAP1 PUSH2 0x38CF JUMP JUMPDEST PUSH1 0x2 SLOAD PUSH1 0xFF AND PUSH2 0x22D7 JUMPI PUSH1 0x40 MLOAD PUSH32 0x8C379A000000000000000000000000000000000000000000000000000000000 DUP2 MSTORE PUSH1 0x20 PUSH1 0x4 DUP3 ADD MSTORE PUSH1 0x14 PUSH1 0x24 DUP3 ADD MSTORE PUSH32 0x5061757361626C653A206E6F7420706175736564000000000000000000000000 PUSH1 0x44 DUP3 ADD MSTORE PUSH1 0x64 ADD PUSH2 0x8C5 JUMP JUMPDEST PUSH1 0x2 DUP1 SLOAD PUSH32 0xFFFFFFFFFFFFFFFFFFFFFFFFFFFFFFFFFFFFFFFFFFFFFFFFFFFFFFFFFFFFFF00 AND SWAP1 SSTORE PUSH32 0x5DB9EE0A495BF2E6FF9C91A7834C1BA4FDD244A5E8AA4E537BD38AEAE4B073AA CALLER JUMPDEST PUSH1 0x40 MLOAD PUSH20 0xFFFFFFFFFFFFFFFFFFFFFFFFFFFFFFFFFFFFFFFF SWAP1 SWAP2 AND DUP2 MSTORE PUSH1 0x20 ADD PUSH1 0x40 MLOAD DUP1 SWAP2 SUB SWAP1 LOG1 JUMP JUMPDEST PUSH1 0x2 SLOAD PUSH1 0xFF AND ISZERO PUSH2 0x23B9 JUMPI PUSH1 0x40 MLOAD PUSH32 0x8C379A000000000000000000000000000000000000000000000000000000000 DUP2 MSTORE PUSH1 0x20 PUSH1 0x4 DUP3 ADD MSTORE PUSH1 0x10 PUSH1 0x24 DUP3 ADD MSTORE PUSH32 0x5061757361626C653A2070617573656400000000000000000000000000000000 PUSH1 0x44 DUP3 ADD MSTORE PUSH1 0x64 ADD PUSH2 0x8C5 JUMP JUMPDEST PUSH1 0x2 DUP1 SLOAD PUSH32 0xFFFFFFFFFFFFFFFFFFFFFFFFFFFFFFFFFFFFFFFFFFFFFFFFFFFFFFFFFFFFFF00 AND PUSH1 0x1 OR SWAP1 SSTORE PUSH32 0x62E78CEA01BEE320CD4E420270B5EA74000D11B0C9F74754EBDBFC544B05A258 PUSH2 0x2322 CALLER SWAP1 JUMP JUMPDEST PUSH1 0x9 SLOAD PUSH1 0xB SLOAD PUSH1 0x40 MLOAD PUSH32 0x5312EA8E00000000000000000000000000000000000000000000000000000000 DUP2 MSTORE PUSH20 0xFFFFFFFFFFFFFFFFFFFFFFFFFFFFFFFFFFFFFFFF SWAP1 SWAP3 AND SWAP2 PUSH4 0x5312EA8E SWAP2 PUSH2 0x2467 SWAP2 PUSH1 0x4 ADD SWAP1 DUP2 MSTORE PUSH1 0x20 ADD SWAP1 JUMP JUMPDEST PUSH1 0x0 PUSH1 0x40 MLOAD DUP1 DUP4 SUB DUP2 PUSH1 0x0 DUP8 DUP1 EXTCODESIZE ISZERO DUP1 ISZERO PUSH2 0x2481 JUMPI PUSH1 0x0 DUP1 REVERT JUMPDEST POP GAS CALL ISZERO DUP1 ISZERO PUSH2 0x2495 JUMPI RETURNDATASIZE PUSH1 0x0 DUP1 RETURNDATACOPY RETURNDATASIZE PUSH1 0x0 REVERT JUMPDEST POP POP POP POP JUMP JUMPDEST PUSH1 0x40 MLOAD PUSH20 0xFFFFFFFFFFFFFFFFFFFFFFFFFFFFFFFFFFFFFFFF DUP1 DUP6 AND PUSH1 0x24 DUP4 ADD MSTORE DUP4 AND PUSH1 0x44 DUP3 ADD MSTORE PUSH1 0x64 DUP2 ADD DUP3 SWAP1 MSTORE PUSH2 0x2495 SWAP1 DUP6 SWAP1 PUSH32 0x23B872DD00000000000000000000000000000000000000000000000000000000 SWAP1 PUSH1 0x84 ADD JUMPDEST PUSH1 0x40 DUP1 MLOAD PUSH32 0xFFFFFFFFFFFFFFFFFFFFFFFFFFFFFFFFFFFFFFFFFFFFFFFFFFFFFFFFFFFFFFE0 DUP2 DUP5 SUB ADD DUP2 MSTORE SWAP2 SWAP1 MSTORE PUSH1 0x20 DUP2 ADD DUP1 MLOAD PUSH28 0xFFFFFFFFFFFFFFFFFFFFFFFFFFFFFFFFFFFFFFFFFFFFFFFFFFFFFFFF AND PUSH32 0xFFFFFFFF00000000000000000000000000000000000000000000000000000000 SWAP1 SWAP4 AND SWAP3 SWAP1 SWAP3 OR SWAP1 SWAP2 MSTORE PUSH2 0x307D JUMP JUMPDEST PUSH1 0x4 DUP1 SLOAD PUSH1 0x40 MLOAD PUSH32 0x70A0823100000000000000000000000000000000000000000000000000000000 DUP2 MSTORE ADDRESS SWAP3 DUP2 ADD SWAP3 SWAP1 SWAP3 MSTORE PUSH1 0x0 SWAP2 DUP3 SWAP2 PUSH20 0xFFFFFFFFFFFFFFFFFFFFFFFFFFFFFFFFFFFFFFFF AND SWAP1 PUSH4 0x70A08231 SWAP1 PUSH1 0x24 ADD PUSH1 0x20 PUSH1 0x40 MLOAD DUP1 DUP4 SUB DUP2 DUP7 DUP1 EXTCODESIZE ISZERO DUP1 ISZERO PUSH2 0x25E6 JUMPI PUSH1 0x0 DUP1 REVERT JUMPDEST POP GAS STATICCALL ISZERO DUP1 ISZERO PUSH2 0x25FA JUMPI RETURNDATASIZE PUSH1 0x0 DUP1 RETURNDATACOPY RETURNDATASIZE PUSH1 0x0 REVERT JUMPDEST POP POP POP POP PUSH1 0x40 MLOAD RETURNDATASIZE PUSH1 0x1F NOT PUSH1 0x1F DUP3 ADD AND DUP3 ADD DUP1 PUSH1 0x40 MSTORE POP DUP2 ADD SWAP1 PUSH2 0x261E SWAP2 SWAP1 PUSH2 0x38F1 JUMP JUMPDEST SWAP1 POP DUP1 PUSH2 0x262D JUMPI PUSH1 0x0 SWAP2 POP POP SWAP1 JUMP JUMPDEST PUSH1 0x0 PUSH2 0x2637 PUSH2 0x662 JUMP JUMPDEST SWAP1 POP PUSH2 0x2642 DUP3 PUSH2 0x3189 JUMP JUMPDEST PUSH1 0x0 PUSH2 0x264C PUSH2 0x662 JUMP JUMPDEST SWAP1 POP PUSH2 0x2658 DUP3 DUP3 PUSH2 0x3BCC JUMP JUMPDEST SWAP4 POP POP POP POP SWAP1 JUMP JUMPDEST PUSH1 0x0 DUP1 SLOAD PUSH20 0xFFFFFFFFFFFFFFFFFFFFFFFFFFFFFFFFFFFFFFFF DUP4 DUP2 AND PUSH32 0xFFFFFFFFFFFFFFFFFFFFFFFF0000000000000000000000000000000000000000 DUP4 AND DUP2 OR DUP5 SSTORE PUSH1 0x40 MLOAD SWAP2 SWAP1 SWAP3 AND SWAP3 DUP4 SWAP2 PUSH32 0x8BE0079C531659141344CD1FD0A4F28419497F9722A3DAAFE3B4186F6B6457E0 SWAP2 SWAP1 LOG3 POP POP JUMP JUMPDEST PUSH1 0x9 SLOAD PUSH1 0xB SLOAD PUSH1 0x40 MLOAD PUSH32 0x441A3E7000000000000000000000000000000000000000000000000000000000 DUP2 MSTORE PUSH1 0x4 DUP2 ADD SWAP2 SWAP1 SWAP2 MSTORE PUSH1 0x0 PUSH1 0x24 DUP3 ADD MSTORE PUSH20 0xFFFFFFFFFFFFFFFFFFFFFFFFFFFFFFFFFFFFFFFF SWAP1 SWAP2 AND SWAP1 PUSH4 0x441A3E70 SWAP1 PUSH1 0x44 ADD PUSH2 0x2467 JUMP JUMPDEST PUSH1 0xE SLOAD PUSH1 0x0 SWAP1 ISZERO PUSH2 0x27F8 JUMPI PUSH1 0x0 PUSH2 0x2710 PUSH1 0xE SLOAD DUP5 PUSH2 0x2755 SWAP2 SWAP1 PUSH2 0x3B8F JUMP JUMPDEST PUSH2 0x275F SWAP2 SWAP1 PUSH2 0x3B7B JUMP JUMPDEST SWAP1 POP PUSH2 0x27EA DUP2 PUSH1 0x15 PUSH1 0x0 ADD DUP1 SLOAD DUP1 PUSH1 0x20 MUL PUSH1 0x20 ADD PUSH1 0x40 MLOAD SWAP1 DUP2 ADD PUSH1 0x40 MSTORE DUP1 SWAP3 SWAP2 SWAP1 DUP2 DUP2 MSTORE PUSH1 0x20 ADD DUP3 DUP1 SLOAD DUP1 ISZERO PUSH2 0x27CB JUMPI PUSH1 0x20 MUL DUP3 ADD SWAP2 SWAP1 PUSH1 0x0 MSTORE PUSH1 0x20 PUSH1 0x0 KECCAK256 SWAP1 JUMPDEST DUP2 SLOAD PUSH20 0xFFFFFFFFFFFFFFFFFFFFFFFFFFFFFFFFFFFFFFFF AND DUP2 MSTORE PUSH1 0x1 SWAP1 SWAP2 ADD SWAP1 PUSH1 0x20 ADD DUP1 DUP4 GT PUSH2 0x27A0 JUMPI JUMPDEST POP POP POP POP POP PUSH20 0x5386881B46C37CDD30A748F7771CF95D7B213637 PUSH2 0x31EB JUMP JUMPDEST PUSH2 0x27F4 DUP2 DUP5 PUSH2 0x3BCC JUMP JUMPDEST SWAP3 POP POP JUMPDEST POP SWAP1 JUMP JUMPDEST PUSH1 0xF SLOAD PUSH1 0x0 SWAP1 ISZERO PUSH2 0x27F8 JUMPI PUSH1 0x0 PUSH2 0x2710 PUSH1 0xF SLOAD DUP5 PUSH2 0x281A SWAP2 SWAP1 PUSH2 0x3B8F JUMP JUMPDEST PUSH2 0x2824 SWAP2 SWAP1 PUSH2 0x3B7B JUMP JUMPDEST PUSH1 0x40 MLOAD PUSH32 0x70A0823100000000000000000000000000000000000000000000000000000000 DUP2 MSTORE ADDRESS PUSH1 0x4 DUP3 ADD MSTORE SWAP1 SWAP2 POP PUSH1 0x0 SWAP1 PUSH20 0x2791BCA1F2DE4661ED88A30C99A7A9449AA84174 SWAP1 PUSH4 0x70A08231 SWAP1 PUSH1 0x24 ADD PUSH1 0x20 PUSH1 0x40 MLOAD DUP1 DUP4 SUB DUP2 DUP7 DUP1 EXTCODESIZE ISZERO DUP1 ISZERO PUSH2 0x288D JUMPI PUSH1 0x0 DUP1 REVERT JUMPDEST POP GAS STATICCALL ISZERO DUP1 ISZERO PUSH2 0x28A1 JUMPI RETURNDATASIZE PUSH1 0x0 DUP1 RETURNDATACOPY RETURNDATASIZE PUSH1 0x0 REVERT JUMPDEST POP POP POP POP PUSH1 0x40 MLOAD RETURNDATASIZE PUSH1 0x1F NOT PUSH1 0x1F DUP3 ADD AND DUP3 ADD DUP1 PUSH1 0x40 MSTORE POP DUP2 ADD SWAP1 PUSH2 0x28C5 SWAP2 SWAP1 PUSH2 0x38F1 JUMP JUMPDEST SWAP1 POP PUSH2 0x293C DUP3 PUSH1 0x15 PUSH1 0x1 ADD DUP1 SLOAD DUP1 PUSH1 0x20 MUL PUSH1 0x20 ADD PUSH1 0x40 MLOAD SWAP1 DUP2 ADD PUSH1 0x40 MSTORE DUP1 SWAP3 SWAP2 SWAP1 DUP2 DUP2 MSTORE PUSH1 0x20 ADD DUP3 DUP1 SLOAD DUP1 ISZERO PUSH2 0x2931 JUMPI PUSH1 0x20 MUL DUP3 ADD SWAP2 SWAP1 PUSH1 0x0 MSTORE PUSH1 0x20 PUSH1 0x0 KECCAK256 SWAP1 JUMPDEST DUP2 SLOAD PUSH20 0xFFFFFFFFFFFFFFFFFFFFFFFFFFFFFFFFFFFFFFFF AND DUP2 MSTORE PUSH1 0x1 SWAP1 SWAP2 ADD SWAP1 PUSH1 0x20 ADD DUP1 DUP4 GT PUSH2 0x2906 JUMPI JUMPDEST POP POP POP POP POP ADDRESS PUSH2 0x33C6 JUMP JUMPDEST PUSH1 0x40 MLOAD PUSH32 0x70A0823100000000000000000000000000000000000000000000000000000000 DUP2 MSTORE ADDRESS PUSH1 0x4 DUP3 ADD MSTORE PUSH1 0x0 SWAP1 DUP3 SWAP1 PUSH20 0x2791BCA1F2DE4661ED88A30C99A7A9449AA84174 SWAP1 PUSH4 0x70A08231 SWAP1 PUSH1 0x24 ADD PUSH1 0x20 PUSH1 0x40 MLOAD DUP1 DUP4 SUB DUP2 DUP7 DUP1 EXTCODESIZE ISZERO DUP1 ISZERO PUSH2 0x29A4 JUMPI PUSH1 0x0 DUP1 REVERT JUMPDEST POP GAS STATICCALL ISZERO DUP1 ISZERO PUSH2 0x29B8 JUMPI RETURNDATASIZE PUSH1 0x0 DUP1 RETURNDATACOPY RETURNDATASIZE PUSH1 0x0 REVERT JUMPDEST POP POP POP POP PUSH1 0x40 MLOAD RETURNDATASIZE PUSH1 0x1F NOT PUSH1 0x1F DUP3 ADD AND DUP3 ADD DUP1 PUSH1 0x40 MSTORE POP DUP2 ADD SWAP1 PUSH2 0x29DC SWAP2 SWAP1 PUSH2 0x38F1 JUMP JUMPDEST PUSH2 0x29E6 SWAP2 SWAP1 PUSH2 0x3BCC JUMP JUMPDEST PUSH1 0x40 MLOAD PUSH32 0x1E2720FF00000000000000000000000000000000000000000000000000000000 DUP2 MSTORE PUSH1 0x4 DUP2 ADD DUP3 SWAP1 MSTORE SWAP1 SWAP2 POP PUSH20 0x917FB15E8AAA12264DCBDC15AFEF7CD3CE76BA39 SWAP1 PUSH4 0x1E2720FF SWAP1 PUSH1 0x24 ADD PUSH1 0x20 PUSH1 0x40 MLOAD DUP1 DUP4 SUB DUP2 PUSH1 0x0 DUP8 DUP1 EXTCODESIZE ISZERO DUP1 ISZERO PUSH2 0x2A4F JUMPI PUSH1 0x0 DUP1 REVERT JUMPDEST POP GAS CALL ISZERO DUP1 ISZERO PUSH2 0x2A63 JUMPI RETURNDATASIZE PUSH1 0x0 DUP1 RETURNDATACOPY RETURNDATASIZE PUSH1 0x0 REVERT JUMPDEST POP POP POP POP PUSH1 0x40 MLOAD RETURNDATASIZE PUSH1 0x1F NOT PUSH1 0x1F DUP3 ADD AND DUP3 ADD DUP1 PUSH1 0x40 MSTORE POP DUP2 ADD SWAP1 PUSH2 0x2A87 SWAP2 SWAP1 PUSH2 0x38CF JUMP JUMPDEST POP PUSH2 0x2A92 DUP4 DUP7 PUSH2 0x3BCC JUMP JUMPDEST SWAP5 POP POP POP POP POP SWAP1 JUMP JUMPDEST PUSH1 0x10 SLOAD PUSH1 0x0 SWAP1 ISZERO PUSH2 0x27F8 JUMPI PUSH1 0x0 PUSH2 0x2710 PUSH1 0x10 SLOAD DUP5 PUSH2 0x2AB9 SWAP2 SWAP1 PUSH2 0x3B8F JUMP JUMPDEST PUSH2 0x2AC3 SWAP2 SWAP1 PUSH2 0x3B7B JUMP JUMPDEST SWAP1 POP PUSH2 0x27EA DUP2 PUSH1 0x15 PUSH1 0x2 ADD DUP1 SLOAD DUP1 PUSH1 0x20 MUL PUSH1 0x20 ADD PUSH1 0x40 MLOAD SWAP1 DUP2 ADD PUSH1 0x40 MSTORE DUP1 SWAP3 SWAP2 SWAP1 DUP2 DUP2 MSTORE PUSH1 0x20 ADD DUP3 DUP1 SLOAD DUP1 ISZERO PUSH2 0x2B2F JUMPI PUSH1 0x20 MUL DUP3 ADD SWAP2 SWAP1 PUSH1 0x0 MSTORE PUSH1 0x20 PUSH1 0x0 KECCAK256 SWAP1 JUMPDEST DUP2 SLOAD PUSH20 0xFFFFFFFFFFFFFFFFFFFFFFFFFFFFFFFFFFFFFFFF AND DUP2 MSTORE PUSH1 0x1 SWAP1 SWAP2 ADD SWAP1 PUSH1 0x20 ADD DUP1 DUP4 GT PUSH2 0x2B04 JUMPI JUMPDEST POP POP POP POP POP PUSH2 0xDEAD PUSH2 0x33C6 JUMP JUMPDEST PUSH1 0x9 SLOAD PUSH1 0xB SLOAD PUSH1 0x40 MLOAD PUSH32 0x441A3E7000000000000000000000000000000000000000000000000000000000 DUP2 MSTORE PUSH20 0xFFFFFFFFFFFFFFFFFFFFFFFFFFFFFFFFFFFFFFFF SWAP1 SWAP3 AND SWAP2 PUSH4 0x441A3E70 SWAP2 PUSH2 0x2B9E SWAP2 DUP6 SWAP1 PUSH1 0x4 ADD SWAP2 DUP3 MSTORE PUSH1 0x20 DUP3 ADD MSTORE PUSH1 0x40 ADD SWAP1 JUMP JUMPDEST PUSH1 0x0 PUSH1 0x40 MLOAD DUP1 DUP4 SUB DUP2 PUSH1 0x0 DUP8 DUP1 EXTCODESIZE ISZERO DUP1 ISZERO PUSH2 0x2BB8 JUMPI PUSH1 0x0 DUP1 REVERT JUMPDEST POP GAS CALL ISZERO DUP1 ISZERO PUSH2 0x2BCC JUMPI RETURNDATASIZE PUSH1 0x0 DUP1 RETURNDATACOPY RETURNDATASIZE PUSH1 0x0 REVERT JUMPDEST POP POP POP POP POP JUMP JUMPDEST PUSH1 0x0 PUSH2 0x2BDF DUP3 DUP5 PUSH2 0x3C48 JUMP JUMPDEST ISZERO PUSH2 0x2BEB JUMPI PUSH1 0x1 PUSH2 0x2BEE JUMP JUMPDEST PUSH1 0x0 JUMPDEST PUSH1 0xFF AND PUSH2 0x2BFB DUP4 DUP6 PUSH2 0x3B7B JUMP JUMPDEST PUSH2 0x2C05 SWAP2 SWAP1 PUSH2 0x3B63 JUMP JUMPDEST SWAP4 SWAP3 POP POP POP JUMP JUMPDEST PUSH1 0x40 MLOAD PUSH20 0xFFFFFFFFFFFFFFFFFFFFFFFFFFFFFFFFFFFFFFFF DUP4 AND PUSH1 0x24 DUP3 ADD MSTORE PUSH1 0x44 DUP2 ADD DUP3 SWAP1 MSTORE PUSH2 0x2C62 SWAP1 DUP5 SWAP1 PUSH32 0xA9059CBB00000000000000000000000000000000000000000000000000000000 SWAP1 PUSH1 0x64 ADD PUSH2 0x24F5 JUMP JUMPDEST POP POP POP JUMP JUMPDEST DUP3 SLOAD PUSH1 0x1 DUP2 ADD DUP5 SSTORE PUSH1 0x0 DUP5 DUP2 MSTORE PUSH1 0x20 SWAP1 KECCAK256 ADD DUP1 SLOAD PUSH32 0xFFFFFFFFFFFFFFFFFFFFFFFF0000000000000000000000000000000000000000 AND PUSH20 0xFFFFFFFFFFFFFFFFFFFFFFFFFFFFFFFFFFFFFFFF DUP5 AND SWAP1 DUP2 OR SWAP1 SWAP2 SSTORE PUSH20 0xD500B1D8E8EF31E21C99D1DB9A6444D3ADF1270 EQ ISZERO PUSH2 0x2CDA JUMPI POP POP POP JUMP JUMPDEST PUSH20 0xFFFFFFFFFFFFFFFFFFFFFFFFFFFFFFFFFFFFFFFF DUP2 AND PUSH2 0x2D48 JUMPI DUP3 SLOAD PUSH1 0x1 DUP2 ADD DUP5 SSTORE PUSH1 0x0 DUP5 DUP2 MSTORE PUSH1 0x20 SWAP1 KECCAK256 ADD DUP1 SLOAD PUSH32 0xFFFFFFFFFFFFFFFFFFFFFFFF0000000000000000000000000000000000000000 AND PUSH20 0xD500B1D8E8EF31E21C99D1DB9A6444D3ADF1270 OR SWAP1 SSTORE POP POP POP JUMP JUMPDEST DUP3 SLOAD PUSH1 0x1 DUP2 DUP2 ADD DUP6 SSTORE PUSH1 0x0 DUP6 DUP2 MSTORE PUSH1 0x20 SWAP1 KECCAK256 SWAP2 DUP3 ADD DUP1 SLOAD PUSH20 0xFFFFFFFFFFFFFFFFFFFFFFFFFFFFFFFFFFFFFFFF DUP6 AND PUSH32 0xFFFFFFFFFFFFFFFFFFFFFFFF0000000000000000000000000000000000000000 SWAP2 DUP3 AND OR SWAP1 SWAP2 SSTORE DUP6 SLOAD SWAP2 DUP3 ADD DUP7 SSTORE SWAP2 ADD DUP1 SLOAD SWAP1 SWAP2 AND PUSH20 0xD500B1D8E8EF31E21C99D1DB9A6444D3ADF1270 OR SWAP1 SSTORE POP POP POP JUMP JUMPDEST DUP1 PUSH20 0xFFFFFFFFFFFFFFFFFFFFFFFFFFFFFFFFFFFFFFFF AND DUP3 PUSH1 0x0 DUP2 MLOAD DUP2 LT PUSH2 0x2DF3 JUMPI PUSH2 0x2DF3 PUSH2 0x3CBA JUMP JUMPDEST PUSH1 0x20 MUL PUSH1 0x20 ADD ADD MLOAD PUSH20 0xFFFFFFFFFFFFFFFFFFFFFFFFFFFFFFFFFFFFFFFF AND EQ ISZERO PUSH2 0x2E1C JUMPI PUSH2 0x2F76 JUMP JUMPDEST DUP1 PUSH20 0xFFFFFFFFFFFFFFFFFFFFFFFFFFFFFFFFFFFFFFFF AND DUP3 PUSH1 0x1 DUP2 MLOAD DUP2 LT PUSH2 0x2E46 JUMPI PUSH2 0x2E46 PUSH2 0x3CBA JUMP JUMPDEST PUSH1 0x20 MUL PUSH1 0x20 ADD ADD MLOAD PUSH20 0xFFFFFFFFFFFFFFFFFFFFFFFFFFFFFFFFFFFFFFFF AND EQ ISZERO PUSH2 0x2EE3 JUMPI DUP3 DUP3 PUSH1 0x0 DUP2 MLOAD DUP2 LT PUSH2 0x2E7E JUMPI PUSH2 0x2E7E PUSH2 0x3CBA JUMP JUMPDEST PUSH1 0x20 SWAP1 DUP2 MUL SWAP2 SWAP1 SWAP2 ADD DUP2 ADD MLOAD DUP3 SLOAD PUSH1 0x1 DUP2 ADD DUP5 SSTORE PUSH1 0x0 SWAP4 DUP5 MSTORE SWAP2 SWAP1 SWAP3 KECCAK256 ADD DUP1 SLOAD PUSH32 0xFFFFFFFFFFFFFFFFFFFFFFFF0000000000000000000000000000000000000000 AND PUSH20 0xFFFFFFFFFFFFFFFFFFFFFFFFFFFFFFFFFFFFFFFF SWAP1 SWAP3 AND SWAP2 SWAP1 SWAP2 OR SWAP1 SSTORE PUSH2 0x2F76 JUMP JUMPDEST PUSH1 0x0 JUMPDEST DUP3 MLOAD DUP2 LT ISZERO PUSH2 0x2F74 JUMPI DUP4 DUP4 DUP3 DUP2 MLOAD DUP2 LT PUSH2 0x2F02 JUMPI PUSH2 0x2F02 PUSH2 0x3CBA JUMP JUMPDEST PUSH1 0x20 SWAP1 DUP2 MUL SWAP2 SWAP1 SWAP2 ADD DUP2 ADD MLOAD DUP3 SLOAD PUSH1 0x1 DUP2 ADD DUP5 SSTORE PUSH1 0x0 SWAP4 DUP5 MSTORE SWAP2 SWAP1 SWAP3 KECCAK256 ADD DUP1 SLOAD PUSH32 0xFFFFFFFFFFFFFFFFFFFFFFFF0000000000000000000000000000000000000000 AND PUSH20 0xFFFFFFFFFFFFFFFFFFFFFFFFFFFFFFFFFFFFFFFF SWAP1 SWAP3 AND SWAP2 SWAP1 SWAP2 OR SWAP1 SSTORE DUP1 PUSH2 0x2F6C DUP2 PUSH2 0x3C0F JUMP JUMPDEST SWAP2 POP POP PUSH2 0x2EE6 JUMP JUMPDEST POP JUMPDEST DUP3 SLOAD PUSH1 0x1 DUP2 ADD DUP5 SSTORE PUSH1 0x0 SWAP4 DUP5 MSTORE PUSH1 0x20 SWAP1 SWAP4 KECCAK256 SWAP1 SWAP3 ADD DUP1 SLOAD PUSH32 0xFFFFFFFFFFFFFFFFFFFFFFFF0000000000000000000000000000000000000000 AND PUSH20 0xFFFFFFFFFFFFFFFFFFFFFFFFFFFFFFFFFFFFFFFF SWAP1 SWAP4 AND SWAP3 SWAP1 SWAP3 OR SWAP1 SWAP2 SSTORE POP JUMP JUMPDEST PUSH1 0x0 JUMPDEST DUP2 SLOAD DUP2 LT ISZERO PUSH2 0x2C62 JUMPI DUP3 DUP3 DUP3 PUSH1 0x1 DUP6 DUP1 SLOAD SWAP1 POP PUSH2 0x2FF1 SWAP2 SWAP1 PUSH2 0x3BCC JUMP JUMPDEST PUSH2 0x2FFB SWAP2 SWAP1 PUSH2 0x3BCC JUMP JUMPDEST DUP2 SLOAD DUP2 LT PUSH2 0x300B JUMPI PUSH2 0x300B PUSH2 0x3CBA JUMP JUMPDEST PUSH1 0x0 SWAP2 DUP3 MSTORE PUSH1 0x20 DUP1 DUP4 KECCAK256 SWAP1 SWAP2 ADD SLOAD DUP4 SLOAD PUSH1 0x1 DUP2 ADD DUP6 SSTORE SWAP4 DUP4 MSTORE SWAP2 KECCAK256 SWAP1 SWAP2 ADD DUP1 SLOAD PUSH32 0xFFFFFFFFFFFFFFFFFFFFFFFF0000000000000000000000000000000000000000 AND PUSH20 0xFFFFFFFFFFFFFFFFFFFFFFFFFFFFFFFFFFFFFFFF SWAP1 SWAP3 AND SWAP2 SWAP1 SWAP2 OR SWAP1 SSTORE DUP1 PUSH2 0x3075 DUP2 PUSH2 0x3C0F JUMP JUMPDEST SWAP2 POP POP PUSH2 0x2FD4 JUMP JUMPDEST PUSH1 0x0 PUSH2 0x30DF DUP3 PUSH1 0x40 MLOAD DUP1 PUSH1 0x40 ADD PUSH1 0x40 MSTORE DUP1 PUSH1 0x20 DUP2 MSTORE PUSH1 0x20 ADD PUSH32 0x5361666545524332303A206C6F772D6C6576656C2063616C6C206661696C6564 DUP2 MSTORE POP DUP6 PUSH20 0xFFFFFFFFFFFFFFFFFFFFFFFFFFFFFFFFFFFFFFFF AND PUSH2 0x359C SWAP1 SWAP3 SWAP2 SWAP1 PUSH4 0xFFFFFFFF AND JUMP JUMPDEST DUP1 MLOAD SWAP1 SWAP2 POP ISZERO PUSH2 0x2C62 JUMPI DUP1 DUP1 PUSH1 0x20 ADD SWAP1 MLOAD DUP2 ADD SWAP1 PUSH2 0x30FD SWAP2 SWAP1 PUSH2 0x38CF JUMP JUMPDEST PUSH2 0x2C62 JUMPI PUSH1 0x40 MLOAD PUSH32 0x8C379A000000000000000000000000000000000000000000000000000000000 DUP2 MSTORE PUSH1 0x20 PUSH1 0x4 DUP3 ADD MSTORE PUSH1 0x2A PUSH1 0x24 DUP3 ADD MSTORE PUSH32 0x5361666545524332303A204552433230206F7065726174696F6E20646964206E PUSH1 0x44 DUP3 ADD MSTORE PUSH32 0x6F74207375636365656400000000000000000000000000000000000000000000 PUSH1 0x64 DUP3 ADD MSTORE PUSH1 0x84 ADD PUSH2 0x8C5 JUMP JUMPDEST PUSH1 0x9 SLOAD PUSH1 0xB SLOAD PUSH1 0x40 MLOAD PUSH32 0xE2BBB15800000000000000000000000000000000000000000000000000000000 DUP2 MSTORE PUSH20 0xFFFFFFFFFFFFFFFFFFFFFFFFFFFFFFFFFFFFFFFF SWAP1 SWAP3 AND SWAP2 PUSH4 0xE2BBB158 SWAP2 PUSH2 0x2B9E SWAP2 DUP6 SWAP1 PUSH1 0x4 ADD SWAP2 DUP3 MSTORE PUSH1 0x20 DUP3 ADD MSTORE PUSH1 0x40 ADD SWAP1 JUMP JUMPDEST PUSH1 0x6 SLOAD PUSH1 0x40 MLOAD PUSH32 0xD06CA61F00000000000000000000000000000000000000000000000000000000 DUP2 MSTORE PUSH1 0x0 SWAP2 PUSH20 0xFFFFFFFFFFFFFFFFFFFFFFFFFFFFFFFFFFFFFFFF AND SWAP1 PUSH4 0xD06CA61F SWAP1 PUSH2 0x3244 SWAP1 DUP8 SWAP1 DUP8 SWAP1 PUSH1 0x4 ADD PUSH2 0x3B01 JUMP JUMPDEST PUSH1 0x0 PUSH1 0x40 MLOAD DUP1 DUP4 SUB DUP2 DUP7 DUP1 EXTCODESIZE ISZERO DUP1 ISZERO PUSH2 0x325C JUMPI PUSH1 0x0 DUP1 REVERT JUMPDEST POP GAS STATICCALL ISZERO DUP1 ISZERO PUSH2 0x3270 JUMPI RETURNDATASIZE PUSH1 0x0 DUP1 RETURNDATACOPY RETURNDATASIZE PUSH1 0x0 REVERT JUMPDEST POP POP POP POP PUSH1 0x40 MLOAD RETURNDATASIZE PUSH1 0x0 DUP3 RETURNDATACOPY PUSH1 0x1F RETURNDATASIZE SWAP1 DUP2 ADD PUSH32 0xFFFFFFFFFFFFFFFFFFFFFFFFFFFFFFFFFFFFFFFFFFFFFFFFFFFFFFFFFFFFFFE0 AND DUP3 ADD PUSH1 0x40 MSTORE PUSH2 0x32B6 SWAP2 SWAP1 DUP2 ADD SWAP1 PUSH2 0x37EC JUMP JUMPDEST SWAP1 POP PUSH1 0x0 DUP2 PUSH1 0x1 DUP4 MLOAD PUSH2 0x32C9 SWAP2 SWAP1 PUSH2 0x3BCC JUMP JUMPDEST DUP2 MLOAD DUP2 LT PUSH2 0x32D9 JUMPI PUSH2 0x32D9 PUSH2 0x3CBA JUMP JUMPDEST PUSH1 0x20 SWAP1 DUP2 MUL SWAP2 SWAP1 SWAP2 ADD ADD MLOAD PUSH1 0x6 SLOAD PUSH1 0x12 SLOAD SWAP2 SWAP3 POP PUSH20 0xFFFFFFFFFFFFFFFFFFFFFFFFFFFFFFFFFFFFFFFF AND SWAP1 PUSH4 0x18CBAFE5 SWAP1 DUP8 SWAP1 PUSH2 0x3E8 SWAP1 PUSH2 0x331A SWAP1 DUP7 PUSH2 0x3B8F JUMP JUMPDEST PUSH2 0x3324 SWAP2 SWAP1 PUSH2 0x3B7B JUMP JUMPDEST DUP8 DUP8 PUSH2 0x3332 TIMESTAMP PUSH2 0x258 PUSH2 0x3B63 JUMP JUMPDEST PUSH1 0x40 MLOAD DUP7 PUSH4 0xFFFFFFFF AND PUSH1 0xE0 SHL DUP2 MSTORE PUSH1 0x4 ADD PUSH2 0x3352 SWAP6 SWAP5 SWAP4 SWAP3 SWAP2 SWAP1 PUSH2 0x3B1A JUMP JUMPDEST PUSH1 0x0 PUSH1 0x40 MLOAD DUP1 DUP4 SUB DUP2 PUSH1 0x0 DUP8 DUP1 EXTCODESIZE ISZERO DUP1 ISZERO PUSH2 0x336C JUMPI PUSH1 0x0 DUP1 REVERT JUMPDEST POP GAS CALL ISZERO DUP1 ISZERO PUSH2 0x3380 JUMPI RETURNDATASIZE PUSH1 0x0 DUP1 RETURNDATACOPY RETURNDATASIZE PUSH1 0x0 REVERT JUMPDEST POP POP POP POP PUSH1 0x40 MLOAD RETURNDATASIZE PUSH1 0x0 DUP3 RETURNDATACOPY PUSH1 0x1F RETURNDATASIZE SWAP1 DUP2 ADD PUSH32 0xFFFFFFFFFFFFFFFFFFFFFFFFFFFFFFFFFFFFFFFFFFFFFFFFFFFFFFFFFFFFFFE0 AND DUP3 ADD PUSH1 0x40 MSTORE PUSH2 0x1F20 SWAP2 SWAP1 DUP2 ADD SWAP1 PUSH2 0x37EC JUMP JUMPDEST PUSH1 0x6 SLOAD PUSH1 0x40 MLOAD PUSH32 0xD06CA61F00000000000000000000000000000000000000000000000000000000 DUP2 MSTORE PUSH1 0x0 SWAP2 PUSH20 0xFFFFFFFFFFFFFFFFFFFFFFFFFFFFFFFFFFFFFFFF AND SWAP1 PUSH4 0xD06CA61F SWAP1 PUSH2 0x341F SWAP1 DUP8 SWAP1 DUP8 SWAP1 PUSH1 0x4 ADD PUSH2 0x3B01 JUMP JUMPDEST PUSH1 0x0 PUSH1 0x40 MLOAD DUP1 DUP4 SUB DUP2 DUP7 DUP1 EXTCODESIZE ISZERO DUP1 ISZERO PUSH2 0x3437 JUMPI PUSH1 0x0 DUP1 REVERT JUMPDEST POP GAS STATICCALL ISZERO DUP1 ISZERO PUSH2 0x344B JUMPI RETURNDATASIZE PUSH1 0x0 DUP1 RETURNDATACOPY RETURNDATASIZE PUSH1 0x0 REVERT JUMPDEST POP POP POP POP PUSH1 0x40 MLOAD RETURNDATASIZE PUSH1 0x0 DUP3 RETURNDATACOPY PUSH1 0x1F RETURNDATASIZE SWAP1 DUP2 ADD PUSH32 0xFFFFFFFFFFFFFFFFFFFFFFFFFFFFFFFFFFFFFFFFFFFFFFFFFFFFFFFFFFFFFFE0 AND DUP3 ADD PUSH1 0x40 MSTORE PUSH2 0x3491 SWAP2 SWAP1 DUP2 ADD SWAP1 PUSH2 0x37EC JUMP JUMPDEST SWAP1 POP PUSH1 0x0 DUP2 PUSH1 0x1 DUP4 MLOAD PUSH2 0x34A4 SWAP2 SWAP1 PUSH2 0x3BCC JUMP JUMPDEST DUP2 MLOAD DUP2 LT PUSH2 0x34B4 JUMPI PUSH2 0x34B4 PUSH2 0x3CBA JUMP JUMPDEST PUSH1 0x20 MUL PUSH1 0x20 ADD ADD MLOAD SWAP1 POP PUSH20 0x76BF0C28E604CC3FE9967C83B3C3F31C213CFE64 PUSH20 0xFFFFFFFFFFFFFFFFFFFFFFFFFFFFFFFFFFFFFFFF AND DUP5 PUSH1 0x1 DUP7 MLOAD PUSH2 0x34F8 SWAP2 SWAP1 PUSH2 0x3BCC JUMP JUMPDEST DUP2 MLOAD DUP2 LT PUSH2 0x3508 JUMPI PUSH2 0x3508 PUSH2 0x3CBA JUMP JUMPDEST PUSH1 0x20 MUL PUSH1 0x20 ADD ADD MLOAD PUSH20 0xFFFFFFFFFFFFFFFFFFFFFFFFFFFFFFFFFFFFFFFF AND EQ DUP1 ISZERO PUSH2 0x354A JUMPI POP PUSH20 0xFFFFFFFFFFFFFFFFFFFFFFFFFFFFFFFFFFFFFFFF DUP4 AND PUSH2 0xDEAD EQ JUMPDEST ISZERO PUSH2 0x3567 JUMPI DUP1 PUSH1 0x14 PUSH1 0x0 DUP3 DUP3 SLOAD PUSH2 0x3561 SWAP2 SWAP1 PUSH2 0x3B63 JUMP JUMPDEST SWAP1 SWAP2 SSTORE POP POP JUMPDEST PUSH1 0x6 SLOAD PUSH1 0x12 SLOAD PUSH20 0xFFFFFFFFFFFFFFFFFFFFFFFFFFFFFFFFFFFFFFFF SWAP1 SWAP2 AND SWAP1 PUSH4 0x38ED1739 SWAP1 DUP8 SWAP1 PUSH2 0x3E8 SWAP1 PUSH2 0x331A SWAP1 DUP7 PUSH2 0x3B8F JUMP JUMPDEST PUSH1 0x60 PUSH2 0x35AB DUP5 DUP5 PUSH1 0x0 DUP6 PUSH2 0x35B3 JUMP JUMPDEST SWAP5 SWAP4 POP POP POP POP JUMP JUMPDEST PUSH1 0x60 DUP3 SELFBALANCE LT ISZERO PUSH2 0x3645 JUMPI PUSH1 0x40 MLOAD PUSH32 0x8C379A000000000000000000000000000000000000000000000000000000000 DUP2 MSTORE PUSH1 0x20 PUSH1 0x4 DUP3 ADD MSTORE PUSH1 0x26 PUSH1 0x24 DUP3 ADD MSTORE PUSH32 0x416464726573733A20696E73756666696369656E742062616C616E636520666F PUSH1 0x44 DUP3 ADD MSTORE PUSH32 0x722063616C6C0000000000000000000000000000000000000000000000000000 PUSH1 0x64 DUP3 ADD MSTORE PUSH1 0x84 ADD PUSH2 0x8C5 JUMP JUMPDEST DUP5 EXTCODESIZE PUSH2 0x36AD JUMPI PUSH1 0x40 MLOAD PUSH32 0x8C379A000000000000000000000000000000000000000000000000000000000 DUP2 MSTORE PUSH1 0x20 PUSH1 0x4 DUP3 ADD MSTORE PUSH1 0x1D PUSH1 0x24 DUP3 ADD MSTORE PUSH32 0x416464726573733A2063616C6C20746F206E6F6E2D636F6E7472616374000000 PUSH1 0x44 DUP3 ADD MSTORE PUSH1 0x64 ADD PUSH2 0x8C5 JUMP JUMPDEST PUSH1 0x0 DUP1 DUP7 PUSH20 0xFFFFFFFFFFFFFFFFFFFFFFFFFFFFFFFFFFFFFFFF AND DUP6 DUP8 PUSH1 0x40 MLOAD PUSH2 0x36D6 SWAP2 SWAP1 PUSH2 0x3A53 JUMP JUMPDEST PUSH1 0x0 PUSH1 0x40 MLOAD DUP1 DUP4 SUB DUP2 DUP6 DUP8 GAS CALL SWAP3 POP POP POP RETURNDATASIZE DUP1 PUSH1 0x0 DUP2 EQ PUSH2 0x3713 JUMPI PUSH1 0x40 MLOAD SWAP2 POP PUSH1 0x1F NOT PUSH1 0x3F RETURNDATASIZE ADD AND DUP3 ADD PUSH1 0x40 MSTORE RETURNDATASIZE DUP3 MSTORE RETURNDATASIZE PUSH1 0x0 PUSH1 0x20 DUP5 ADD RETURNDATACOPY PUSH2 0x3718 JUMP JUMPDEST PUSH1 0x60 SWAP2 POP JUMPDEST POP SWAP2 POP SWAP2 POP PUSH2 0x3728 DUP3 DUP3 DUP7 PUSH2 0x3733 JUMP JUMPDEST SWAP8 SWAP7 POP POP POP POP POP POP POP JUMP JUMPDEST PUSH1 0x60 DUP4 ISZERO PUSH2 0x3742 JUMPI POP DUP2 PUSH2 0x2C05 JUMP JUMPDEST DUP3 MLOAD ISZERO PUSH2 0x3752 JUMPI DUP3 MLOAD DUP1 DUP5 PUSH1 0x20 ADD REVERT JUMPDEST DUP2 PUSH1 0x40 MLOAD PUSH32 0x8C379A000000000000000000000000000000000000000000000000000000000 DUP2 MSTORE PUSH1 0x4 ADD PUSH2 0x8C5 SWAP2 SWAP1 PUSH2 0x3AB0 JUMP JUMPDEST PUSH1 0x0 PUSH1 0x20 DUP3 DUP5 SUB SLT ISZERO PUSH2 0x3798 JUMPI PUSH1 0x0 DUP1 REVERT JUMPDEST DUP2 CALLDATALOAD PUSH2 0x2C05 DUP2 PUSH2 0x3D18 JUMP JUMPDEST PUSH1 0x0 PUSH1 0x20 DUP3 DUP5 SUB SLT ISZERO PUSH2 0x37B5 JUMPI PUSH1 0x0 DUP1 REVERT JUMPDEST DUP2 MLOAD PUSH2 0x2C05 DUP2 PUSH2 0x3D18 JUMP JUMPDEST PUSH1 0x0 DUP1 PUSH1 0x40 DUP4 DUP6 SUB SLT ISZERO PUSH2 0x37D3 JUMPI PUSH1 0x0 DUP1 REVERT JUMPDEST DUP3 CALLDATALOAD PUSH2 0x37DE DUP2 PUSH2 0x3D18 JUMP JUMPDEST SWAP5 PUSH1 0x20 SWAP4 SWAP1 SWAP4 ADD CALLDATALOAD SWAP4 POP POP POP JUMP JUMPDEST PUSH1 0x0 PUSH1 0x20 DUP1 DUP4 DUP6 SUB SLT ISZERO PUSH2 0x37FF JUMPI PUSH1 0x0 DUP1 REVERT JUMPDEST DUP3 MLOAD PUSH8 0xFFFFFFFFFFFFFFFF DUP1 DUP3 GT ISZERO PUSH2 0x3817 JUMPI PUSH1 0x0 DUP1 REVERT JUMPDEST DUP2 DUP6 ADD SWAP2 POP DUP6 PUSH1 0x1F DUP4 ADD SLT PUSH2 0x382B JUMPI PUSH1 0x0 DUP1 REVERT JUMPDEST DUP2 MLOAD DUP2 DUP2 GT ISZERO PUSH2 0x383D JUMPI PUSH2 0x383D PUSH2 0x3CE9 JUMP JUMPDEST DUP1 PUSH1 0x5 SHL PUSH1 0x40 MLOAD PUSH32 0xFFFFFFFFFFFFFFFFFFFFFFFFFFFFFFFFFFFFFFFFFFFFFFFFFFFFFFFFFFFFFFE0 PUSH1 0x3F DUP4 ADD AND DUP2 ADD DUP2 DUP2 LT DUP6 DUP3 GT OR ISZERO PUSH2 0x3880 JUMPI PUSH2 0x3880 PUSH2 0x3CE9 JUMP JUMPDEST PUSH1 0x40 MSTORE DUP3 DUP2 MSTORE DUP6 DUP2 ADD SWAP4 POP DUP5 DUP7 ADD DUP3 DUP7 ADD DUP8 ADD DUP11 LT ISZERO PUSH2 0x389F JUMPI PUSH1 0x0 DUP1 REVERT JUMPDEST PUSH1 0x0 SWAP6 POP JUMPDEST DUP4 DUP7 LT ISZERO PUSH2 0x38C2 JUMPI DUP1 MLOAD DUP6 MSTORE PUSH1 0x1 SWAP6 SWAP1 SWAP6 ADD SWAP5 SWAP4 DUP7 ADD SWAP4 DUP7 ADD PUSH2 0x38A4 JUMP JUMPDEST POP SWAP9 SWAP8 POP POP POP POP POP POP POP POP JUMP JUMPDEST PUSH1 0x0 PUSH1 0x20 DUP3 DUP5 SUB SLT ISZERO PUSH2 0x38E1 JUMPI PUSH1 0x0 DUP1 REVERT JUMPDEST DUP2 MLOAD DUP1 ISZERO ISZERO DUP2 EQ PUSH2 0x2C05 JUMPI PUSH1 0x0 DUP1 REVERT JUMPDEST PUSH1 0x0 PUSH1 0x20 DUP3 DUP5 SUB SLT ISZERO PUSH2 0x3903 JUMPI PUSH1 0x0 DUP1 REVERT JUMPDEST POP MLOAD SWAP2 SWAP1 POP JUMP JUMPDEST PUSH1 0x0 DUP1 PUSH1 0x40 DUP4 DUP6 SUB SLT ISZERO PUSH2 0x391D JUMPI PUSH1 0x0 DUP1 REVERT JUMPDEST POP POP DUP1 MLOAD PUSH1 0x20 SWAP1 SWAP2 ADD MLOAD SWAP1 SWAP3 SWAP1 SWAP2 POP JUMP JUMPDEST PUSH1 0x0 DUP1 PUSH1 0x0 DUP1 PUSH1 0x0 DUP1 PUSH1 0x0 PUSH1 0xE0 DUP9 DUP11 SUB SLT ISZERO PUSH2 0x3949 JUMPI PUSH1 0x0 DUP1 REVERT JUMPDEST DUP8 CALLDATALOAD SWAP7 POP PUSH1 0x20 DUP9 ADD CALLDATALOAD SWAP6 POP PUSH1 0x40 DUP9 ADD CALLDATALOAD PUSH2 0x3962 DUP2 PUSH2 0x3D18 JUMP JUMPDEST SWAP5 POP PUSH1 0x60 DUP9 ADD CALLDATALOAD PUSH2 0x3972 DUP2 PUSH2 0x3D18 JUMP JUMPDEST SWAP4 POP PUSH1 0x80 DUP9 ADD CALLDATALOAD PUSH2 0x3982 DUP2 PUSH2 0x3D18 JUMP JUMPDEST SWAP3 POP PUSH1 0xA0 DUP9 ADD CALLDATALOAD PUSH2 0x3992 DUP2 PUSH2 0x3D18 JUMP JUMPDEST SWAP2 POP PUSH1 0xC0 DUP9 ADD CALLDATALOAD PUSH2 0x39A2 DUP2 PUSH2 0x3D18 JUMP JUMPDEST DUP1 SWAP2 POP POP SWAP3 SWAP6 SWAP9 SWAP2 SWAP5 SWAP8 POP SWAP3 SWAP6 POP JUMP JUMPDEST PUSH1 0x0 DUP1 PUSH1 0x0 DUP1 PUSH1 0x0 DUP1 PUSH1 0x0 PUSH1 0xE0 DUP9 DUP11 SUB SLT ISZERO PUSH2 0x39CD JUMPI PUSH1 0x0 DUP1 REVERT JUMPDEST DUP8 CALLDATALOAD SWAP7 POP PUSH1 0x20 DUP9 ADD CALLDATALOAD SWAP6 POP PUSH1 0x40 DUP9 ADD CALLDATALOAD SWAP5 POP PUSH1 0x60 DUP9 ADD CALLDATALOAD SWAP4 POP PUSH1 0x80 DUP9 ADD CALLDATALOAD SWAP3 POP PUSH1 0xA0 DUP9 ADD CALLDATALOAD SWAP2 POP PUSH1 0xC0 DUP9 ADD CALLDATALOAD PUSH2 0x39A2 DUP2 PUSH2 0x3D18 JUMP JUMPDEST PUSH1 0x0 DUP2 MLOAD DUP1 DUP5 MSTORE PUSH1 0x20 DUP1 DUP6 ADD SWAP5 POP DUP1 DUP5 ADD PUSH1 0x0 JUMPDEST DUP4 DUP2 LT ISZERO PUSH2 0x3A48 JUMPI DUP2 MLOAD PUSH20 0xFFFFFFFFFFFFFFFFFFFFFFFFFFFFFFFFFFFFFFFF AND DUP8 MSTORE SWAP6 DUP3 ADD SWAP6 SWAP1 DUP3 ADD SWAP1 PUSH1 0x1 ADD PUSH2 0x3A16 JUMP JUMPDEST POP SWAP5 SWAP6 SWAP5 POP POP POP POP POP JUMP JUMPDEST PUSH1 0x0 DUP3 MLOAD PUSH2 0x3A65 DUP2 DUP5 PUSH1 0x20 DUP8 ADD PUSH2 0x3BE3 JUMP JUMPDEST SWAP2 SWAP1 SWAP2 ADD SWAP3 SWAP2 POP POP JUMP JUMPDEST PUSH1 0x20 DUP2 ADD PUSH1 0x4 DUP4 LT PUSH2 0x3AAA JUMPI PUSH32 0x4E487B7100000000000000000000000000000000000000000000000000000000 PUSH1 0x0 MSTORE PUSH1 0x21 PUSH1 0x4 MSTORE PUSH1 0x24 PUSH1 0x0 REVERT JUMPDEST SWAP2 SWAP1 MSTORE SWAP1 JUMP JUMPDEST PUSH1 0x20 DUP2 MSTORE PUSH1 0x0 DUP3 MLOAD DUP1 PUSH1 0x20 DUP5 ADD MSTORE PUSH2 0x3ACF DUP2 PUSH1 0x40 DUP6 ADD PUSH1 0x20 DUP8 ADD PUSH2 0x3BE3 JUMP JUMPDEST PUSH1 0x1F ADD PUSH32 0xFFFFFFFFFFFFFFFFFFFFFFFFFFFFFFFFFFFFFFFFFFFFFFFFFFFFFFFFFFFFFFE0 AND SWAP2 SWAP1 SWAP2 ADD PUSH1 0x40 ADD SWAP3 SWAP2 POP POP JUMP JUMPDEST DUP3 DUP2 MSTORE PUSH1 0x40 PUSH1 0x20 DUP3 ADD MSTORE PUSH1 0x0 PUSH2 0x35AB PUSH1 0x40 DUP4 ADD DUP5 PUSH2 0x3A02 JUMP JUMPDEST DUP6 DUP2 MSTORE DUP5 PUSH1 0x20 DUP3 ADD MSTORE PUSH1 0xA0 PUSH1 0x40 DUP3 ADD MSTORE PUSH1 0x0 PUSH2 0x3B39 PUSH1 0xA0 DUP4 ADD DUP7 PUSH2 0x3A02 JUMP JUMPDEST PUSH20 0xFFFFFFFFFFFFFFFFFFFFFFFFFFFFFFFFFFFFFFFF SWAP5 SWAP1 SWAP5 AND PUSH1 0x60 DUP4 ADD MSTORE POP PUSH1 0x80 ADD MSTORE SWAP4 SWAP3 POP POP POP JUMP JUMPDEST PUSH1 0x0 DUP3 NOT DUP3 GT ISZERO PUSH2 0x3B76 JUMPI PUSH2 0x3B76 PUSH2 0x3C5C JUMP JUMPDEST POP ADD SWAP1 JUMP JUMPDEST PUSH1 0x0 DUP3 PUSH2 0x3B8A JUMPI PUSH2 0x3B8A PUSH2 0x3C8B JUMP JUMPDEST POP DIV SWAP1 JUMP JUMPDEST PUSH1 0x0 DUP2 PUSH32 0xFFFFFFFFFFFFFFFFFFFFFFFFFFFFFFFFFFFFFFFFFFFFFFFFFFFFFFFFFFFFFFFF DIV DUP4 GT DUP3 ISZERO ISZERO AND ISZERO PUSH2 0x3BC7 JUMPI PUSH2 0x3BC7 PUSH2 0x3C5C JUMP JUMPDEST POP MUL SWAP1 JUMP JUMPDEST PUSH1 0x0 DUP3 DUP3 LT ISZERO PUSH2 0x3BDE JUMPI PUSH2 0x3BDE PUSH2 0x3C5C JUMP JUMPDEST POP SUB SWAP1 JUMP JUMPDEST PUSH1 0x0 JUMPDEST DUP4 DUP2 LT ISZERO PUSH2 0x3BFE JUMPI DUP2 DUP2 ADD MLOAD DUP4 DUP3 ADD MSTORE PUSH1 0x20 ADD PUSH2 0x3BE6 JUMP JUMPDEST DUP4 DUP2 GT ISZERO PUSH2 0x2495 JUMPI POP POP PUSH1 0x0 SWAP2 ADD MSTORE JUMP JUMPDEST PUSH1 0x0 PUSH32 0xFFFFFFFFFFFFFFFFFFFFFFFFFFFFFFFFFFFFFFFFFFFFFFFFFFFFFFFFFFFFFFFF DUP3 EQ ISZERO PUSH2 0x3C41 JUMPI PUSH2 0x3C41 PUSH2 0x3C5C JUMP JUMPDEST POP PUSH1 0x1 ADD SWAP1 JUMP JUMPDEST PUSH1 0x0 DUP3 PUSH2 0x3C57 JUMPI PUSH2 0x3C57 PUSH2 0x3C8B JUMP JUMPDEST POP MOD SWAP1 JUMP JUMPDEST PUSH32 0x4E487B7100000000000000000000000000000000000000000000000000000000 PUSH1 0x0 MSTORE PUSH1 0x11 PUSH1 0x4 MSTORE PUSH1 0x24 PUSH1 0x0 REVERT JUMPDEST PUSH32 0x4E487B7100000000000000000000000000000000000000000000000000000000 PUSH1 0x0 MSTORE PUSH1 0x12 PUSH1 0x4 MSTORE PUSH1 0x24 PUSH1 0x0 REVERT JUMPDEST PUSH32 0x4E487B7100000000000000000000000000000000000000000000000000000000 PUSH1 0x0 MSTORE PUSH1 0x32 PUSH1 0x4 MSTORE PUSH1 0x24 PUSH1 0x0 REVERT JUMPDEST PUSH32 0x4E487B7100000000000000000000000000000000000000000000000000000000 PUSH1 0x0 MSTORE PUSH1 0x41 PUSH1 0x4 MSTORE PUSH1 0x24 PUSH1 0x0 REVERT JUMPDEST PUSH20 0xFFFFFFFFFFFFFFFFFFFFFFFFFFFFFFFFFFFFFFFF DUP2 AND DUP2 EQ PUSH2 0xD31 JUMPI PUSH1 0x0 DUP1 REVERT INVALID LOG2 PUSH5 0x6970667358 0x22 SLT KECCAK256 0xD5 PUSH12 0x67088FD704F6E952148DD24A DUP1 PUSH5 0x3F79B7E5EE MSTORE8 0xD0 0xCA RETURNDATASIZE 0x2E 0x1F 0x25 0xBE SDIV GASLIMIT 0xBB PUSH5 0x736F6C6343 STOP ADDMOD SMOD STOP CALLER "
		},
		"gasEstimates": {
			"creation": {
				"codeDepositCost": "3145600",
				"executionCost": "75640",
				"totalCost": "3221240"
			},
			"external": {
				"burnedAmount()": "2385",
				"buyBackAddress()": "262",
				"buyBackRate()": "2408",
				"controllerFee()": "2385",
				"crystlAddress()": "260",
				"deposit(address,uint256)": "infinite",
				"earn()": "infinite",
				"earnedAddress()": "2413",
				"feeAddress()": "283",
				"feeMax()": "305",
				"feeMaxTotal()": "307",
				"govAddress()": "2393",
				"initialize(uint256,uint256,address,address,address,address,address)": "infinite",
				"lastEarnBlock()": "2364",
				"masterchefAddress()": "2370",
				"maxiAddress()": "2414",
				"owner()": "2386",
				"panic()": "infinite",
				"pause()": "29791",
				"paused()": "2404",
				"pid()": "2384",
				"renounceOwnership()": "28186",
				"resetAllowances()": "infinite",
				"rewardAddress()": "261",
				"rewardRate()": "2408",
				"setGov(address)": "26722",
				"setSettings(uint256,uint256,uint256,uint256,uint256,uint256,address)": "infinite",
				"sharesTotal()": "2364",
				"slippageFactor()": "2383",
				"slippageFactorUL()": "306",
				"stratType()": "2451",
				"tolerance()": "2384",
				"transferOwnership(address)": "infinite",
				"uniRouterAddress()": "2369",
				"unpanic()": "infinite",
				"unpause()": "infinite",
				"usdcAddress()": "263",
				"vaultChefAddress()": "2371",
				"vaultSharesTotal()": "infinite",
				"wantAddress()": "2369",
				"wantLockedTotal()": "infinite",
				"withdraw(address,uint256)": "infinite",
				"withdrawFeeAddress()": "284",
				"withdrawFeeFactor()": "2407",
				"withdrawFeeFactorLL()": "307",
				"withdrawFeeFactorMax()": "285",
				"wmaticAddress()": "260"
			},
			"internal": {
				"_emergencyVaultWithdraw()": "infinite",
				"_resetAllowances()": "infinite",
				"_vaultDeposit(uint256)": "infinite",
				"_vaultHarvest()": "infinite",
				"_vaultWithdraw(uint256)": "infinite"
			}
		},
		"methodIdentifiers": {
			"burnedAmount()": "50e15fdd",
			"buyBackAddress()": "783478ad",
			"buyBackRate()": "178a8d07",
			"controllerFee()": "85f02dd6",
			"crystlAddress()": "a1a7194f",
			"deposit(address,uint256)": "47e7ef24",
			"earn()": "d389800f",
			"earnedAddress()": "e7198474",
			"feeAddress()": "41275358",
			"feeMax()": "ffbe9f1e",
			"feeMaxTotal()": "8fefda06",
			"govAddress()": "46008a07",
			"initialize(uint256,uint256,address,address,address,address,address)": "1268a28f",
			"lastEarnBlock()": "0fa4e01e",
			"masterchefAddress()": "40c34b58",
			"maxiAddress()": "d62e969d",
			"owner()": "8da5cb5b",
			"panic()": "4700d305",
			"pause()": "8456cb59",
			"paused()": "5c975abb",
			"pid()": "f1068454",
			"renounceOwnership()": "715018a6",
			"resetAllowances()": "3505b09f",
			"rewardAddress()": "8cf57cb9",
			"rewardRate()": "7b0a47ee",
			"setGov(address)": "cfad57a2",
			"setSettings(uint256,uint256,uint256,uint256,uint256,uint256,address)": "b02381c6",
			"sharesTotal()": "44a3955e",
			"slippageFactor()": "ffbd3b1f",
			"slippageFactorUL()": "b74cd242",
			"stratType()": "7115e9fa",
			"tolerance()": "dce52dfa",
			"transferOwnership(address)": "f2fde38b",
			"uniRouterAddress()": "693a090b",
			"unpanic()": "65a5e30b",
			"unpause()": "3f4ba83a",
			"usdcAddress()": "02d45457",
			"vaultChefAddress()": "3220d732",
			"vaultSharesTotal()": "04c9d490",
			"wantAddress()": "e7a03679",
			"wantLockedTotal()": "42da4eb3",
			"withdraw(address,uint256)": "f3fef3a3",
			"withdrawFeeAddress()": "784def8c",
			"withdrawFeeFactor()": "68f54162",
			"withdrawFeeFactorLL()": "866b2018",
			"withdrawFeeFactorMax()": "67057b6c",
			"wmaticAddress()": "db4b7eee"
		}
	},
	"abi": [
		{
			"anonymous": false,
			"inputs": [
				{
					"indexed": true,
					"internalType": "address",
					"name": "previousOwner",
					"type": "address"
				},
				{
					"indexed": true,
					"internalType": "address",
					"name": "newOwner",
					"type": "address"
				}
			],
			"name": "OwnershipTransferred",
			"type": "event"
		},
		{
			"anonymous": false,
			"inputs": [
				{
					"indexed": false,
					"internalType": "address",
					"name": "account",
					"type": "address"
				}
			],
			"name": "Paused",
			"type": "event"
		},
		{
			"anonymous": false,
			"inputs": [
				{
					"indexed": false,
					"internalType": "uint256",
					"name": "_controllerFee",
					"type": "uint256"
				},
				{
					"indexed": false,
					"internalType": "uint256",
					"name": "_rewardRate",
					"type": "uint256"
				},
				{
					"indexed": false,
					"internalType": "uint256",
					"name": "_buyBackRate",
					"type": "uint256"
				},
				{
					"indexed": false,
					"internalType": "uint256",
					"name": "_withdrawFeeFactor",
					"type": "uint256"
				},
				{
					"indexed": false,
					"internalType": "uint256",
					"name": "_slippageFactor",
					"type": "uint256"
				},
				{
					"indexed": false,
					"internalType": "uint256",
					"name": "_tolerance",
					"type": "uint256"
				},
				{
					"indexed": false,
					"internalType": "address",
					"name": "_uniRouterAddress",
					"type": "address"
				}
			],
			"name": "SetSettings",
			"type": "event"
		},
		{
			"anonymous": false,
			"inputs": [
				{
					"indexed": false,
					"internalType": "address",
					"name": "account",
					"type": "address"
				}
			],
			"name": "Unpaused",
			"type": "event"
		},
		{
			"inputs": [],
			"name": "burnedAmount",
			"outputs": [
				{
					"internalType": "uint256",
					"name": "",
					"type": "uint256"
				}
			],
			"stateMutability": "view",
			"type": "function"
		},
		{
			"inputs": [],
			"name": "buyBackAddress",
			"outputs": [
				{
					"internalType": "address",
					"name": "",
					"type": "address"
				}
			],
			"stateMutability": "view",
			"type": "function"
		},
		{
			"inputs": [],
			"name": "buyBackRate",
			"outputs": [
				{
					"internalType": "uint256",
					"name": "",
					"type": "uint256"
				}
			],
			"stateMutability": "view",
			"type": "function"
		},
		{
			"inputs": [],
			"name": "controllerFee",
			"outputs": [
				{
					"internalType": "uint256",
					"name": "",
					"type": "uint256"
				}
			],
			"stateMutability": "view",
			"type": "function"
		},
		{
			"inputs": [],
			"name": "crystlAddress",
			"outputs": [
				{
					"internalType": "address",
					"name": "",
					"type": "address"
				}
			],
			"stateMutability": "view",
			"type": "function"
		},
		{
			"inputs": [
				{
					"internalType": "address",
					"name": "",
					"type": "address"
				},
				{
					"internalType": "uint256",
					"name": "_wantAmt",
					"type": "uint256"
				}
			],
			"name": "deposit",
			"outputs": [
				{
					"internalType": "uint256",
					"name": "",
					"type": "uint256"
				}
			],
			"stateMutability": "nonpayable",
			"type": "function"
		},
		{
			"inputs": [],
			"name": "earn",
			"outputs": [],
			"stateMutability": "nonpayable",
			"type": "function"
		},
		{
			"inputs": [],
			"name": "earnedAddress",
			"outputs": [
				{
					"internalType": "address",
					"name": "",
					"type": "address"
				}
			],
			"stateMutability": "view",
			"type": "function"
		},
		{
			"inputs": [],
			"name": "feeAddress",
			"outputs": [
				{
					"internalType": "address",
					"name": "",
					"type": "address"
				}
			],
			"stateMutability": "view",
			"type": "function"
		},
		{
			"inputs": [],
			"name": "feeMax",
			"outputs": [
				{
					"internalType": "uint256",
					"name": "",
					"type": "uint256"
				}
			],
			"stateMutability": "view",
			"type": "function"
		},
		{
			"inputs": [],
			"name": "feeMaxTotal",
			"outputs": [
				{
					"internalType": "uint256",
					"name": "",
					"type": "uint256"
				}
			],
			"stateMutability": "view",
			"type": "function"
		},
		{
			"inputs": [],
			"name": "govAddress",
			"outputs": [
				{
					"internalType": "address",
					"name": "",
					"type": "address"
				}
			],
			"stateMutability": "view",
			"type": "function"
		},
		{
			"inputs": [
				{
					"internalType": "uint256",
					"name": "_pid",
					"type": "uint256"
				},
				{
					"internalType": "uint256",
					"name": "_tolerance",
					"type": "uint256"
				},
				{
					"internalType": "address",
					"name": "_govAddress",
					"type": "address"
				},
				{
					"internalType": "address",
					"name": "_masterChef",
					"type": "address"
				},
				{
					"internalType": "address",
					"name": "_uniRouter",
					"type": "address"
				},
				{
					"internalType": "address",
					"name": "_wantAddress",
					"type": "address"
				},
				{
					"internalType": "address",
					"name": "_earnedToWmaticStep",
					"type": "address"
				}
			],
			"name": "initialize",
			"outputs": [],
			"stateMutability": "nonpayable",
			"type": "function"
		},
		{
			"inputs": [],
			"name": "lastEarnBlock",
			"outputs": [
				{
					"internalType": "uint256",
					"name": "",
					"type": "uint256"
				}
			],
			"stateMutability": "view",
			"type": "function"
		},
		{
			"inputs": [],
			"name": "masterchefAddress",
			"outputs": [
				{
					"internalType": "address",
					"name": "",
					"type": "address"
				}
			],
			"stateMutability": "view",
			"type": "function"
		},
		{
			"inputs": [],
			"name": "maxiAddress",
			"outputs": [
				{
					"internalType": "address",
					"name": "",
					"type": "address"
				}
			],
			"stateMutability": "view",
			"type": "function"
		},
		{
			"inputs": [],
			"name": "owner",
			"outputs": [
				{
					"internalType": "address",
					"name": "",
					"type": "address"
				}
			],
			"stateMutability": "view",
			"type": "function"
		},
		{
			"inputs": [],
			"name": "panic",
			"outputs": [],
			"stateMutability": "nonpayable",
			"type": "function"
		},
		{
			"inputs": [],
			"name": "pause",
			"outputs": [],
			"stateMutability": "nonpayable",
			"type": "function"
		},
		{
			"inputs": [],
			"name": "paused",
			"outputs": [
				{
					"internalType": "bool",
					"name": "",
					"type": "bool"
				}
			],
			"stateMutability": "view",
			"type": "function"
		},
		{
			"inputs": [],
			"name": "pid",
			"outputs": [
				{
					"internalType": "uint256",
					"name": "",
					"type": "uint256"
				}
			],
			"stateMutability": "view",
			"type": "function"
		},
		{
			"inputs": [],
			"name": "renounceOwnership",
			"outputs": [],
			"stateMutability": "nonpayable",
			"type": "function"
		},
		{
			"inputs": [],
			"name": "resetAllowances",
			"outputs": [],
			"stateMutability": "nonpayable",
			"type": "function"
		},
		{
			"inputs": [],
			"name": "rewardAddress",
			"outputs": [
				{
					"internalType": "address",
					"name": "",
					"type": "address"
				}
			],
			"stateMutability": "view",
			"type": "function"
		},
		{
			"inputs": [],
			"name": "rewardRate",
			"outputs": [
				{
					"internalType": "uint256",
					"name": "",
					"type": "uint256"
				}
			],
			"stateMutability": "view",
			"type": "function"
		},
		{
			"inputs": [
				{
					"internalType": "address",
					"name": "_govAddress",
					"type": "address"
				}
			],
			"name": "setGov",
			"outputs": [],
			"stateMutability": "nonpayable",
			"type": "function"
		},
		{
			"inputs": [
				{
					"internalType": "uint256",
					"name": "_controllerFee",
					"type": "uint256"
				},
				{
					"internalType": "uint256",
					"name": "_rewardRate",
					"type": "uint256"
				},
				{
					"internalType": "uint256",
					"name": "_buyBackRate",
					"type": "uint256"
				},
				{
					"internalType": "uint256",
					"name": "_withdrawFeeFactor",
					"type": "uint256"
				},
				{
					"internalType": "uint256",
					"name": "_slippageFactor",
					"type": "uint256"
				},
				{
					"internalType": "uint256",
					"name": "_tolerance",
					"type": "uint256"
				},
				{
					"internalType": "address",
					"name": "_uniRouterAddress",
					"type": "address"
				}
			],
			"name": "setSettings",
			"outputs": [],
			"stateMutability": "nonpayable",
			"type": "function"
		},
		{
			"inputs": [],
			"name": "sharesTotal",
			"outputs": [
				{
					"internalType": "uint256",
					"name": "",
					"type": "uint256"
				}
			],
			"stateMutability": "view",
			"type": "function"
		},
		{
			"inputs": [],
			"name": "slippageFactor",
			"outputs": [
				{
					"internalType": "uint256",
					"name": "",
					"type": "uint256"
				}
			],
			"stateMutability": "view",
			"type": "function"
		},
		{
			"inputs": [],
			"name": "slippageFactorUL",
			"outputs": [
				{
					"internalType": "uint256",
					"name": "",
					"type": "uint256"
				}
			],
			"stateMutability": "view",
			"type": "function"
		},
		{
			"inputs": [],
			"name": "stratType",
			"outputs": [
				{
					"internalType": "enum StratType",
					"name": "",
					"type": "uint8"
				}
			],
			"stateMutability": "view",
			"type": "function"
		},
		{
			"inputs": [],
			"name": "tolerance",
			"outputs": [
				{
					"internalType": "uint256",
					"name": "",
					"type": "uint256"
				}
			],
			"stateMutability": "view",
			"type": "function"
		},
		{
			"inputs": [
				{
					"internalType": "address",
					"name": "newOwner",
					"type": "address"
				}
			],
			"name": "transferOwnership",
			"outputs": [],
			"stateMutability": "nonpayable",
			"type": "function"
		},
		{
			"inputs": [],
			"name": "uniRouterAddress",
			"outputs": [
				{
					"internalType": "address",
					"name": "",
					"type": "address"
				}
			],
			"stateMutability": "view",
			"type": "function"
		},
		{
			"inputs": [],
			"name": "unpanic",
			"outputs": [],
			"stateMutability": "nonpayable",
			"type": "function"
		},
		{
			"inputs": [],
			"name": "unpause",
			"outputs": [],
			"stateMutability": "nonpayable",
			"type": "function"
		},
		{
			"inputs": [],
			"name": "usdcAddress",
			"outputs": [
				{
					"internalType": "address",
					"name": "",
					"type": "address"
				}
			],
			"stateMutability": "view",
			"type": "function"
		},
		{
			"inputs": [],
			"name": "vaultChefAddress",
			"outputs": [
				{
					"internalType": "address",
					"name": "",
					"type": "address"
				}
			],
			"stateMutability": "view",
			"type": "function"
		},
		{
			"inputs": [],
			"name": "vaultSharesTotal",
			"outputs": [
				{
					"internalType": "uint256",
					"name": "",
					"type": "uint256"
				}
			],
			"stateMutability": "view",
			"type": "function"
		},
		{
			"inputs": [],
			"name": "wantAddress",
			"outputs": [
				{
					"internalType": "address",
					"name": "",
					"type": "address"
				}
			],
			"stateMutability": "view",
			"type": "function"
		},
		{
			"inputs": [],
			"name": "wantLockedTotal",
			"outputs": [
				{
					"internalType": "uint256",
					"name": "",
					"type": "uint256"
				}
			],
			"stateMutability": "view",
			"type": "function"
		},
		{
			"inputs": [
				{
					"internalType": "address",
					"name": "",
					"type": "address"
				},
				{
					"internalType": "uint256",
					"name": "_wantAmt",
					"type": "uint256"
				}
			],
			"name": "withdraw",
			"outputs": [
				{
					"internalType": "uint256",
					"name": "",
					"type": "uint256"
				}
			],
			"stateMutability": "nonpayable",
			"type": "function"
		},
		{
			"inputs": [],
			"name": "withdrawFeeAddress",
			"outputs": [
				{
					"internalType": "address",
					"name": "",
					"type": "address"
				}
			],
			"stateMutability": "view",
			"type": "function"
		},
		{
			"inputs": [],
			"name": "withdrawFeeFactor",
			"outputs": [
				{
					"internalType": "uint256",
					"name": "",
					"type": "uint256"
				}
			],
			"stateMutability": "view",
			"type": "function"
		},
		{
			"inputs": [],
			"name": "withdrawFeeFactorLL",
			"outputs": [
				{
					"internalType": "uint256",
					"name": "",
					"type": "uint256"
				}
			],
			"stateMutability": "view",
			"type": "function"
		},
		{
			"inputs": [],
			"name": "withdrawFeeFactorMax",
			"outputs": [
				{
					"internalType": "uint256",
					"name": "",
					"type": "uint256"
				}
			],
			"stateMutability": "view",
			"type": "function"
		},
		{
			"inputs": [],
			"name": "wmaticAddress",
			"outputs": [
				{
					"internalType": "address",
					"name": "",
					"type": "address"
				}
			],
			"stateMutability": "view",
			"type": "function"
		}
	]
}