{
	"data": {
		"bytecode": {
			"linkReferences": {
				"vaults-v1/contracts/libs/BaseStrategyLogic.sol": {
					"BaseStrategyLogic": [
						{
							"length": 20,
							"start": 850
						},
						{
							"length": 20,
							"start": 3650
						},
						{
							"length": 20,
							"start": 3913
						},
						{
							"length": 20,
							"start": 6948
						},
						{
							"length": 20,
							"start": 7646
						}
					]
				}
			},
			"object": "60806040523480156200001157600080fd5b506040516200346238038062003462833981016040819052620000349162000823565b855160608701516080880151600060016200004f33620003b2565b600180556002805460ff19169055600380546001600160a01b038088166001600160a01b03199283161783556004805488831690841617905560058054878316908416179055600780549186169190921617905560148054839260ff60581b19909116906b010000000000000000000000908490811115620000d557620000d5620009ce565b02179055506032600360050160000160146101000a81548161ffff021916908361ffff1602179055506101c2600360050160000160186101000a81548161ffff021916908361ffff1602179055506127066003600501600001601a6101000a81548161ffff021916908361ffff16021790555043600360110160006101000a8154816001600160401b0302191690836001600160401b031602179055505050505050600060036005019050600060036000019050600060036007019050338360010160006101000a8154816001600160a01b0302191690836001600160a01b0316021790555088602001518260030160006101000a8154816001600160a01b0302191690836001600160a01b0316021790555088604001518360000160006101000a8154816001600160a01b0302191690836001600160a01b031602179055508a600360110160086101000a81548162ffffff021916908362ffffff1602179055508983600001601c6101000a81548161ffff021916908361ffff16021790555087816000019080519060200190620002709291906200060d565b5086516200028890600183019060208a01906200060d565b508551620002a090600283019060208901906200060d565b508451620002b890600383019060208801906200060d565b508351620002d090600483019060208701906200060d565b50620002e7856200040260201b620019551760201c565b8051620002ff9160058401916020909101906200060d565b5062000316846200040260201b620019551760201c565b80516200032e9160068401916020909101906200060d565b5088516200033c9062000538565b60405163eb7e4f9160e01b81526003600482015273__$80416b63f3be8b43bf22c00687fecd2b92$__9063eb7e4f919060240160006040518083038186803b1580156200038857600080fd5b505af41580156200039d573d6000803e3d6000fd5b50505050505050505050505050505062000a10565b600080546001600160a01b038381166001600160a01b0319831681178455604051919092169283917f8be0079c531659141344cd1fd0a4f28419497f9722a3daafe3b4186f6b6457e09190a35050565b606081516001600160401b03811115620004205762000420620009fa565b6040519080825280602002602001820160405280156200044a578160200160208202803683370190505b50905060005b60028351600162000462919062000942565b6200046e91906200095d565b81101562000532576000816001855162000489919062000980565b62000495919062000980565b9050838181518110620004ac57620004ac620009e4565b6020026020010151848381518110620004c957620004c9620009e4565b6020026020010151848481518110620004e657620004e6620009e4565b60200260200101858481518110620005025762000502620009e4565b6001600160a01b03938416602091820292909201015291169052508062000529816200099a565b91505062000450565b50919050565b6000546001600160a01b03163314620005985760405162461bcd60e51b815260206004820181905260248201527f4f776e61626c653a2063616c6c6572206973206e6f7420746865206f776e657260448201526064015b60405180910390fd5b6001600160a01b038116620005ff5760405162461bcd60e51b815260206004820152602660248201527f4f776e61626c653a206e6577206f776e657220697320746865207a65726f206160448201526564647265737360d01b60648201526084016200058f565b6200060a81620003b2565b50565b82805482825590600052602060002090810192821562000665579160200282015b828111156200066557825182546001600160a01b0319166001600160a01b039091161782556020909201916001909101906200062e565b506200067392915062000677565b5090565b5b8082111562000673576000815560010162000678565b80516001600160a01b0381168114620006a657600080fd5b919050565b600082601f830112620006bd57600080fd5b815160206001600160401b0380831115620006dc57620006dc620009fa565b8260051b604051601f19603f83011681018181108482111715620007045762000704620009fa565b604052848152838101925086840182880185018910156200072457600080fd5b600092505b8583101562000752576200073d816200068e565b84529284019260019290920191840162000729565b50979650505050505050565b600060a082840312156200077157600080fd5b60405160a081016001600160401b0381118282101715620007965762000796620009fa565b604052905080620007a7836200068e565b8152620007b7602084016200068e565b6020820152620007ca604084016200068e565b6040820152620007dd606084016200068e565b6060820152620007f0608084016200068e565b60808201525092915050565b805161ffff81168114620006a657600080fd5b805162ffffff81168114620006a657600080fd5b600080600080600080600080610180898b0312156200084157600080fd5b6200084c896200080f565b97506200085c60208a01620007fc565b96506200086d8a60408b016200075e565b60e08a01519096506001600160401b03808211156200088b57600080fd5b620008998c838d01620006ab565b96506101008b0151915080821115620008b157600080fd5b620008bf8c838d01620006ab565b95506101208b0151915080821115620008d757600080fd5b620008e58c838d01620006ab565b94506101408b0151915080821115620008fd57600080fd5b6200090b8c838d01620006ab565b93506101608b01519150808211156200092357600080fd5b50620009328b828c01620006ab565b9150509295985092959890939650565b60008219821115620009585762000958620009b8565b500190565b6000826200097b57634e487b7160e01b600052601260045260246000fd5b500490565b600082821015620009955762000995620009b8565b500390565b6000600019821415620009b157620009b1620009b8565b5060010190565b634e487b7160e01b600052601160045260246000fd5b634e487b7160e01b600052602160045260246000fd5b634e487b7160e01b600052603260045260246000fd5b634e487b7160e01b600052604160045260246000fd5b612a428062000a206000396000f3fe608060405234801561001057600080fd5b50600436106101365760003560e01c8063715018a6116100b2578063c11c2e9211610081578063d389800f11610066578063d389800f1461022b578063f2fde38b14610233578063f3fef3a31461024657600080fd5b8063c11c2e9214610210578063cfad57a21461021857600080fd5b8063715018a6146101bc57806373d4a13a146101c45780638456cb59146101e05780638da5cb5b146101e857600080fd5b806342da4eb31161010957806347e7ef24116100ee57806347e7ef241461018b5780635c975abb1461019e57806365a5e30b146101b457600080fd5b806342da4eb31461017b5780634700d3051461018357600080fd5b806304c9d4901461013b5780630dfd81c4146101565780633505b09f1461016b5780633f4ba83a14610173575b600080fd5b610143610259565b6040519081526020015b60405180910390f35b6101696101643660046124af565b610321565b005b610169610477565b610169610578565b610143610603565b6101696106c2565b610143610199366004612463565b610757565b60025460ff16604051901515815260200161014d565b61016961094c565b6101696109e2565b6101cc610a6d565b60405161014d98979695949392919061272e565b610169610f65565b60005460405173ffffffffffffffffffffffffffffffffffffffff909116815260200161014d565b610169610ff0565b610169610226366004612448565b611157565b610169611221565b610169610241366004612448565b61141a565b610143610254366004612463565b611547565b6006546014546040517f93f1a40b0000000000000000000000000000000000000000000000000000000081526801000000000000000090910462ffffff166004820152306024820152600091600391839173ffffffffffffffffffffffffffffffffffffffff16906393f1a40b90604401604080518083038186803b1580156102e157600080fd5b505afa1580156102f5573d6000803e3d6000fd5b505050506040513d601f19601f82011682018060405250810190610319919061253c565b509392505050565b60095473ffffffffffffffffffffffffffffffffffffffff1633146103ad576040517f08c379a00000000000000000000000000000000000000000000000000000000081526004016103a49060208082526004908201527f21676f7600000000000000000000000000000000000000000000000000000000604082015260600190565b60405180910390fd5b6040517f1a2f4bd30000000000000000000000000000000000000000000000000000000081526008600482015261ffff8088166024830152808716604483015280861660648301528085166084830152831660a482015273ffffffffffffffffffffffffffffffffffffffff821660c482015273__$80416b63f3be8b43bf22c00687fecd2b92$__90631a2f4bd39060e40160006040518083038186803b15801561045757600080fd5b505af415801561046b573d6000803e3d6000fd5b50505050505050505050565b60095473ffffffffffffffffffffffffffffffffffffffff1633146104fa576040517f08c379a00000000000000000000000000000000000000000000000000000000081526004016103a49060208082526004908201527f21676f7600000000000000000000000000000000000000000000000000000000604082015260600190565b6040517feb7e4f910000000000000000000000000000000000000000000000000000000081526003600482015273__$80416b63f3be8b43bf22c00687fecd2b92$__9063eb7e4f919060240160006040518083038186803b15801561055e57600080fd5b505af4158015610572573d6000803e3d6000fd5b50505050565b60095473ffffffffffffffffffffffffffffffffffffffff1633146105fb576040517f08c379a00000000000000000000000000000000000000000000000000000000081526004016103a49060208082526004908201527f21676f7600000000000000000000000000000000000000000000000000000000604082015260600190565b6104fa611a7d565b6000600361060f610259565b60018201546040517f70a0823100000000000000000000000000000000000000000000000000000000815230600482015273ffffffffffffffffffffffffffffffffffffffff909116906370a082319060240160206040518083038186803b15801561067a57600080fd5b505afa15801561068e573d6000803e3d6000fd5b505050506040513d601f19601f820116820180604052508101906106b29190612523565b6106bc9190612857565b91505090565b60095473ffffffffffffffffffffffffffffffffffffffff163314610745576040517f08c379a00000000000000000000000000000000000000000000000000000000081526004016103a49060208082526004908201527f21676f7600000000000000000000000000000000000000000000000000000000604082015260600190565b61074d611b5e565b610755611c1e565b565b6000805473ffffffffffffffffffffffffffffffffffffffff1633146107d9576040517f08c379a000000000000000000000000000000000000000000000000000000000815260206004820181905260248201527f4f776e61626c653a2063616c6c6572206973206e6f7420746865206f776e657260448201526064016103a4565b60026001541415610846576040517f08c379a000000000000000000000000000000000000000000000000000000000815260206004820152601f60248201527f5265656e7472616e637947756172643a207265656e7472616e742063616c6c0060448201526064016103a4565b600260015561085760025460ff1690565b156108be576040517f08c379a000000000000000000000000000000000000000000000000000000000815260206004820152601060248201527f5061757361626c653a207061757365640000000000000000000000000000000060448201526064016103a4565b600360006108ca610603565b60018301549091506108f49073ffffffffffffffffffffffffffffffffffffffff16333087611cba565b60006108fe611d96565b601254909150156109255760125482906109189083612883565b610922919061286f565b90505b806003600f01600082825461093a9190612857565b90915550506001805595945050505050565b60095473ffffffffffffffffffffffffffffffffffffffff1633146109cf576040517f08c379a00000000000000000000000000000000000000000000000000000000081526004016103a49060208082526004908201527f21676f7600000000000000000000000000000000000000000000000000000000604082015260600190565b6109d7611a7d565b6109df611d96565b50565b60005473ffffffffffffffffffffffffffffffffffffffff163314610a63576040517f08c379a000000000000000000000000000000000000000000000000000000000815260206004820181905260248201527f4f776e61626c653a2063616c6c6572206973206e6f7420746865206f776e657260448201526064016103a4565b6107556000611e86565b6040805160a080820183526003805473ffffffffffffffffffffffffffffffffffffffff9081168452600454811660208086019190915260055482168587015260065482166060808701919091526007548316608080880191909152875160e081018952600854808616825261ffff74010000000000000000000000000000000000000000820481168387015276010000000000000000000000000000000000000000000082048116838c0152780100000000000000000000000000000000000000000000000082048116948301949094527a01000000000000000000000000000000000000000000000000000081048416928201929092527c01000000000000000000000000000000000000000000000000000000009091049091169481019490945260095490911660c08401528451600a80546101209381028301840190975261010082018781529596949593949193909284928491840182828015610c0b57602002820191906000526020600020905b815473ffffffffffffffffffffffffffffffffffffffff168152600190910190602001808311610be0575b5050505050815260200160018201805480602002602001604051908101604052809291908181526020018280548015610c7a57602002820191906000526020600020905b815473ffffffffffffffffffffffffffffffffffffffff168152600190910190602001808311610c4f575b5050505050815260200160028201805480602002602001604051908101604052809291908181526020018280548015610ce957602002820191906000526020600020905b815473ffffffffffffffffffffffffffffffffffffffff168152600190910190602001808311610cbe575b5050505050815260200160038201805480602002602001604051908101604052809291908181526020018280548015610d5857602002820191906000526020600020905b815473ffffffffffffffffffffffffffffffffffffffff168152600190910190602001808311610d2d575b5050505050815260200160048201805480602002602001604051908101604052809291908181526020018280548015610dc757602002820191906000526020600020905b815473ffffffffffffffffffffffffffffffffffffffff168152600190910190602001808311610d9c575b5050505050815260200160058201805480602002602001604051908101604052809291908181526020018280548015610e3657602002820191906000526020600020905b815473ffffffffffffffffffffffffffffffffffffffff168152600190910190602001808311610e0b575b5050505050815260200160068201805480602002602001604051908101604052809291908181526020018280548015610ea557602002820191906000526020600020905b815473ffffffffffffffffffffffffffffffffffffffff168152600190910190602001808311610e7a575b5050505050815260200160078201805480602002602001604051908101604052809291908181526020018280548015610f1457602002820191906000526020600020905b815473ffffffffffffffffffffffffffffffffffffffff168152600190910190602001808311610ee9575b50505091909252505050600f82015460108301546011909301549192909167ffffffffffffffff81169068010000000000000000810462ffffff16906b010000000000000000000000900460ff1688565b60095473ffffffffffffffffffffffffffffffffffffffff163314610fe8576040517f08c379a00000000000000000000000000000000000000000000000000000000081526004016103a49060208082526004908201527f21676f7600000000000000000000000000000000000000000000000000000000604082015260600190565b610755611b5e565b6002600154141561105d576040517f08c379a000000000000000000000000000000000000000000000000000000000815260206004820152601f60248201527f5265656e7472616e637947756172643a207265656e7472616e742063616c6c0060448201526064016103a4565b600260015561106e60025460ff1690565b156110d5576040517f08c379a000000000000000000000000000000000000000000000000000000000815260206004820152601060248201527f5061757361626c653a207061757365640000000000000000000000000000000060448201526064016103a4565b6040517fdfebf9dc0000000000000000000000000000000000000000000000000000000081526003600482015273__$80416b63f3be8b43bf22c00687fecd2b92$__9063dfebf9dc9060240160006040518083038186803b15801561113957600080fd5b505af415801561114d573d6000803e3d6000fd5b5050600180555050565b60095473ffffffffffffffffffffffffffffffffffffffff1633146111da576040517f08c379a00000000000000000000000000000000000000000000000000000000081526004016103a49060208082526004908201527f21676f7600000000000000000000000000000000000000000000000000000000604082015260600190565b600980547fffffffffffffffffffffffff00000000000000000000000000000000000000001673ffffffffffffffffffffffffffffffffffffffff92909216919091179055565b6002600154141561128e576040517f08c379a000000000000000000000000000000000000000000000000000000000815260206004820152601f60248201527f5265656e7472616e637947756172643a207265656e7472616e742063616c6c0060448201526064016103a4565b600260015561129f60025460ff1690565b15611306576040517f08c379a000000000000000000000000000000000000000000000000000000000815260206004820152601060248201527f5061757361626c653a207061757365640000000000000000000000000000000060448201526064016103a4565b60005473ffffffffffffffffffffffffffffffffffffffff163314611387576040517f08c379a000000000000000000000000000000000000000000000000000000000815260206004820181905260248201527f4f776e61626c653a2063616c6c6572206973206e6f7420746865206f776e657260448201526064016103a4565b61138f611efb565b6040517fea02a0880000000000000000000000000000000000000000000000000000000081526003600482015273__$80416b63f3be8b43bf22c00687fecd2b92$__9063ea02a0889060240160006040518083038186803b1580156113f357600080fd5b505af4158015611407573d6000803e3d6000fd5b50505050611413611d96565b5060018055565b60005473ffffffffffffffffffffffffffffffffffffffff16331461149b576040517f08c379a000000000000000000000000000000000000000000000000000000000815260206004820181905260248201527f4f776e61626c653a2063616c6c6572206973206e6f7420746865206f776e657260448201526064016103a4565b73ffffffffffffffffffffffffffffffffffffffff811661153e576040517f08c379a000000000000000000000000000000000000000000000000000000000815260206004820152602660248201527f4f776e61626c653a206e6577206f776e657220697320746865207a65726f206160448201527f646472657373000000000000000000000000000000000000000000000000000060648201526084016103a4565b6109df81611e86565b6000805473ffffffffffffffffffffffffffffffffffffffff1633146115c9576040517f08c379a000000000000000000000000000000000000000000000000000000000815260206004820181905260248201527f4f776e61626c653a2063616c6c6572206973206e6f7420746865206f776e657260448201526064016103a4565b60026001541415611636576040517f08c379a000000000000000000000000000000000000000000000000000000000815260206004820152601f60248201527f5265656e7472616e637947756172643a207265656e7472616e742063616c6c0060448201526064016103a4565b6002600155816116a2576040517f08c379a000000000000000000000000000000000000000000000000000000000815260206004820152600d60248201527f5f77616e74416d7420697320300000000000000000000000000000000000000060448201526064016103a4565b600480546040517f70a08231000000000000000000000000000000000000000000000000000000008152309281019290925260039160089160009173ffffffffffffffffffffffffffffffffffffffff909116906370a082319060240160206040518083038186803b15801561171757600080fd5b505afa15801561172b573d6000803e3d6000fd5b505050506040513d601f19601f8201168201806040525081019061174f9190612523565b9050808511156118115761176b61176682876128c0565b611f6d565b60018301546040517f70a0823100000000000000000000000000000000000000000000000000000000815230600482015273ffffffffffffffffffffffffffffffffffffffff909116906370a082319060240160206040518083038186803b1580156117d657600080fd5b505afa1580156117ea573d6000803e3d6000fd5b505050506040513d601f19601f8201168201806040525081019061180e9190612523565b90505b8085111561181d578094505b611825610603565b85111561183757611834610603565b94505b6000611857611844610603565b6012546118519089612883565b90612011565b60125490915081111561186957506012545b806003600f01600082825461187e91906128c0565b90915550508254600090612710906118b8907a010000000000000000000000000000000000000000000000000000900461ffff16826128c0565b6118c29089612883565b6118cc919061286f565b9050801561190e57600185015461190e9073ffffffffffffffffffffffffffffffffffffffff16735386881b46c37cdd30a748f7771cf95d7b2136378361204a565b61191881886128c0565b855460018701549198506119469173ffffffffffffffffffffffffffffffffffffffff90811691168961204a565b50600180559695505050505050565b6060815167ffffffffffffffff811115611971576119716129dd565b60405190808252806020026020018201604052801561199a578160200160208202803683370190505b50905060005b6002835160016119b09190612857565b6119ba919061286f565b811015611a7757600081600185516119d291906128c0565b6119dc91906128c0565b90508381815181106119f0576119f06129ae565b6020026020010151848381518110611a0a57611a0a6129ae565b6020026020010151848481518110611a2457611a246129ae565b60200260200101858481518110611a3d57611a3d6129ae565b73ffffffffffffffffffffffffffffffffffffffff9384166020918202929092010152911690525080611a6f81612903565b9150506119a0565b50919050565b60025460ff16611ae9576040517f08c379a000000000000000000000000000000000000000000000000000000000815260206004820152601460248201527f5061757361626c653a206e6f742070617573656400000000000000000000000060448201526064016103a4565b600280547fffffffffffffffffffffffffffffffffffffffffffffffffffffffffffffff001690557f5db9ee0a495bf2e6ff9c91a7834c1ba4fdd244a5e8aa4e537bd38aeae4b073aa335b60405173ffffffffffffffffffffffffffffffffffffffff909116815260200160405180910390a1565b60025460ff1615611bcb576040517f08c379a000000000000000000000000000000000000000000000000000000000815260206004820152601060248201527f5061757361626c653a207061757365640000000000000000000000000000000060448201526064016103a4565b600280547fffffffffffffffffffffffffffffffffffffffffffffffffffffffffffffff001660011790557f62e78cea01bee320cd4e420270b5ea74000d11b0c9f74754ebdbfc544b05a258611b343390565b6006546014546040517f5312ea8e0000000000000000000000000000000000000000000000000000000081526801000000000000000090910462ffffff16600482015260039173ffffffffffffffffffffffffffffffffffffffff1690635312ea8e906024015b600060405180830381600087803b158015611c9f57600080fd5b505af1158015611cb3573d6000803e3d6000fd5b5050505050565b60405173ffffffffffffffffffffffffffffffffffffffff808516602483015283166044820152606481018290526105729085907f23b872dd00000000000000000000000000000000000000000000000000000000906084015b604080517fffffffffffffffffffffffffffffffffffffffffffffffffffffffffffffffe08184030181529190526020810180517bffffffffffffffffffffffffffffffffffffffffffffffffffffffff167fffffffff00000000000000000000000000000000000000000000000000000000909316929092179091526120a5565b600480546040517f70a082310000000000000000000000000000000000000000000000000000000081523092810192909252600091600391839173ffffffffffffffffffffffffffffffffffffffff909116906370a082319060240160206040518083038186803b158015611e0a57600080fd5b505afa158015611e1e573d6000803e3d6000fd5b505050506040513d601f19601f82011682018060405250810190611e429190612523565b905080611e525760009250505090565b6000611e5c610259565b9050611e67826121b1565b6000611e71610259565b9050611e7d82826128c0565b94505050505090565b6000805473ffffffffffffffffffffffffffffffffffffffff8381167fffffffffffffffffffffffff0000000000000000000000000000000000000000831681178455604051919092169283917f8be0079c531659141344cd1fd0a4f28419497f9722a3daafe3b4186f6b6457e09190a35050565b6006546014546040517f441a3e700000000000000000000000000000000000000000000000000000000081526801000000000000000090910462ffffff1660048201526000602482015260039173ffffffffffffffffffffffffffffffffffffffff169063441a3e7090604401611c85565b6006546014546040517f441a3e700000000000000000000000000000000000000000000000000000000081526801000000000000000090910462ffffff1660048201526024810183905260039173ffffffffffffffffffffffffffffffffffffffff169063441a3e70906044015b600060405180830381600087803b158015611ff557600080fd5b505af1158015612009573d6000803e3d6000fd5b505050505050565b600061201d828461293c565b1561202957600161202c565b60005b60ff16612039838561286f565b6120439190612857565b9392505050565b60405173ffffffffffffffffffffffffffffffffffffffff83166024820152604481018290526120a09084907fa9059cbb0000000000000000000000000000000000000000000000000000000090606401611d14565b505050565b6000612107826040518060400160405280602081526020017f5361666545524332303a206c6f772d6c6576656c2063616c6c206661696c65648152508573ffffffffffffffffffffffffffffffffffffffff166122239092919063ffffffff16565b8051909150156120a05780806020019051810190612125919061248d565b6120a0576040517f08c379a000000000000000000000000000000000000000000000000000000000815260206004820152602a60248201527f5361666545524332303a204552433230206f7065726174696f6e20646964206e60448201527f6f7420737563636565640000000000000000000000000000000000000000000060648201526084016103a4565b6006546014546040517fe2bbb1580000000000000000000000000000000000000000000000000000000081526801000000000000000090910462ffffff1660048201526024810183905260039173ffffffffffffffffffffffffffffffffffffffff169063e2bbb15890604401611fdb565b6060612232848460008561223a565b949350505050565b6060824710156122cc576040517f08c379a000000000000000000000000000000000000000000000000000000000815260206004820152602660248201527f416464726573733a20696e73756666696369656e742062616c616e636520666f60448201527f722063616c6c000000000000000000000000000000000000000000000000000060648201526084016103a4565b843b612334576040517f08c379a000000000000000000000000000000000000000000000000000000000815260206004820152601d60248201527f416464726573733a2063616c6c20746f206e6f6e2d636f6e747261637400000060448201526064016103a4565b6000808673ffffffffffffffffffffffffffffffffffffffff16858760405161235d91906126c1565b60006040518083038185875af1925050503d806000811461239a576040519150601f19603f3d011682016040523d82523d6000602084013e61239f565b606091505b50915091506123af8282866123ba565b979650505050505050565b606083156123c9575081612043565b8251156123d95782518084602001fd5b816040517f08c379a00000000000000000000000000000000000000000000000000000000081526004016103a491906126dd565b803573ffffffffffffffffffffffffffffffffffffffff8116811461243157600080fd5b919050565b803561ffff8116811461243157600080fd5b60006020828403121561245a57600080fd5b6120438261240d565b6000806040838503121561247657600080fd5b61247f8361240d565b946020939093013593505050565b60006020828403121561249f57600080fd5b8151801515811461204357600080fd5b60008060008060008060c087890312156124c857600080fd5b6124d187612436565b95506124df60208801612436565b94506124ed60408801612436565b93506124fb60608801612436565b925061250960808801612436565b915061251760a0880161240d565b90509295509295509295565b60006020828403121561253557600080fd5b5051919050565b6000806040838503121561254f57600080fd5b505080516020909101519092909150565b600081518084526020808501945080840160005b838110156125a657815173ffffffffffffffffffffffffffffffffffffffff1687529582019590820190600101612574565b509495945050505050565b600481106125e8577f4e487b7100000000000000000000000000000000000000000000000000000000600052602160045260246000fd5b9052565b6000610100825181855261260282860182612560565b9150506020830151848203602086015261261c8282612560565b915050604083015184820360408601526126368282612560565b915050606083015184820360608601526126508282612560565b9150506080830151848203608086015261266a8282612560565b91505060a083015184820360a08601526126848282612560565b91505060c083015184820360c086015261269e8282612560565b91505060e083015184820360e08601526126b88282612560565b95945050505050565b600082516126d38184602087016128d7565b9190910192915050565b60208152600082518060208401526126fc8160408501602087016128d7565b601f017fffffffffffffffffffffffffffffffffffffffffffffffffffffffffffffffe0169190910160400192915050565b600061024073ffffffffffffffffffffffffffffffffffffffff808c511684528060208d01511660208501528060408d01511660408501528060608d01511660608501528060808d0151166080850152506127f560a084018b73ffffffffffffffffffffffffffffffffffffffff808251168352602082015161ffff80821660208601528060408501511660408601528060608501511660608601528060808501511660808601528060a08501511660a086015250508060c08301511660c0840152505050565b806101808401526128088184018a6125ec565b915050866101a0830152856101c08301526128306101e083018667ffffffffffffffff169052565b62ffffff841661020083015261284a6102208301846125b1565b9998505050505050505050565b6000821982111561286a5761286a612950565b500190565b60008261287e5761287e61297f565b500490565b6000817fffffffffffffffffffffffffffffffffffffffffffffffffffffffffffffffff04831182151516156128bb576128bb612950565b500290565b6000828210156128d2576128d2612950565b500390565b60005b838110156128f25781810151838201526020016128da565b838111156105725750506000910152565b60007fffffffffffffffffffffffffffffffffffffffffffffffffffffffffffffffff82141561293557612935612950565b5060010190565b60008261294b5761294b61297f565b500690565b7f4e487b7100000000000000000000000000000000000000000000000000000000600052601160045260246000fd5b7f4e487b7100000000000000000000000000000000000000000000000000000000600052601260045260246000fd5b7f4e487b7100000000000000000000000000000000000000000000000000000000600052603260045260246000fd5b7f4e487b7100000000000000000000000000000000000000000000000000000000600052604160045260246000fdfea2646970667358221220c2d7690fb6a8af0d66207a38c2370133d825a509707921b5ad93f957085b90bf64736f6c63430008070033",
			"opcodes": "PUSH1 0x80 PUSH1 0x40 MSTORE CALLVALUE DUP1 ISZERO PUSH3 0x11 JUMPI PUSH1 0x0 DUP1 REVERT JUMPDEST POP PUSH1 0x40 MLOAD PUSH3 0x3462 CODESIZE SUB DUP1 PUSH3 0x3462 DUP4 CODECOPY DUP2 ADD PUSH1 0x40 DUP2 SWAP1 MSTORE PUSH3 0x34 SWAP2 PUSH3 0x823 JUMP JUMPDEST DUP6 MLOAD PUSH1 0x60 DUP8 ADD MLOAD PUSH1 0x80 DUP9 ADD MLOAD PUSH1 0x0 PUSH1 0x1 PUSH3 0x4F CALLER PUSH3 0x3B2 JUMP JUMPDEST PUSH1 0x1 DUP1 SSTORE PUSH1 0x2 DUP1 SLOAD PUSH1 0xFF NOT AND SWAP1 SSTORE PUSH1 0x3 DUP1 SLOAD PUSH1 0x1 PUSH1 0x1 PUSH1 0xA0 SHL SUB DUP1 DUP9 AND PUSH1 0x1 PUSH1 0x1 PUSH1 0xA0 SHL SUB NOT SWAP3 DUP4 AND OR DUP4 SSTORE PUSH1 0x4 DUP1 SLOAD DUP9 DUP4 AND SWAP1 DUP5 AND OR SWAP1 SSTORE PUSH1 0x5 DUP1 SLOAD DUP8 DUP4 AND SWAP1 DUP5 AND OR SWAP1 SSTORE PUSH1 0x7 DUP1 SLOAD SWAP2 DUP7 AND SWAP2 SWAP1 SWAP3 AND OR SWAP1 SSTORE PUSH1 0x14 DUP1 SLOAD DUP4 SWAP3 PUSH1 0xFF PUSH1 0x58 SHL NOT SWAP1 SWAP2 AND SWAP1 PUSH12 0x10000000000000000000000 SWAP1 DUP5 SWAP1 DUP2 GT ISZERO PUSH3 0xD5 JUMPI PUSH3 0xD5 PUSH3 0x9CE JUMP JUMPDEST MUL OR SWAP1 SSTORE POP PUSH1 0x32 PUSH1 0x3 PUSH1 0x5 ADD PUSH1 0x0 ADD PUSH1 0x14 PUSH2 0x100 EXP DUP2 SLOAD DUP2 PUSH2 0xFFFF MUL NOT AND SWAP1 DUP4 PUSH2 0xFFFF AND MUL OR SWAP1 SSTORE POP PUSH2 0x1C2 PUSH1 0x3 PUSH1 0x5 ADD PUSH1 0x0 ADD PUSH1 0x18 PUSH2 0x100 EXP DUP2 SLOAD DUP2 PUSH2 0xFFFF MUL NOT AND SWAP1 DUP4 PUSH2 0xFFFF AND MUL OR SWAP1 SSTORE POP PUSH2 0x2706 PUSH1 0x3 PUSH1 0x5 ADD PUSH1 0x0 ADD PUSH1 0x1A PUSH2 0x100 EXP DUP2 SLOAD DUP2 PUSH2 0xFFFF MUL NOT AND SWAP1 DUP4 PUSH2 0xFFFF AND MUL OR SWAP1 SSTORE POP NUMBER PUSH1 0x3 PUSH1 0x11 ADD PUSH1 0x0 PUSH2 0x100 EXP DUP2 SLOAD DUP2 PUSH1 0x1 PUSH1 0x1 PUSH1 0x40 SHL SUB MUL NOT AND SWAP1 DUP4 PUSH1 0x1 PUSH1 0x1 PUSH1 0x40 SHL SUB AND MUL OR SWAP1 SSTORE POP POP POP POP POP POP PUSH1 0x0 PUSH1 0x3 PUSH1 0x5 ADD SWAP1 POP PUSH1 0x0 PUSH1 0x3 PUSH1 0x0 ADD SWAP1 POP PUSH1 0x0 PUSH1 0x3 PUSH1 0x7 ADD SWAP1 POP CALLER DUP4 PUSH1 0x1 ADD PUSH1 0x0 PUSH2 0x100 EXP DUP2 SLOAD DUP2 PUSH1 0x1 PUSH1 0x1 PUSH1 0xA0 SHL SUB MUL NOT AND SWAP1 DUP4 PUSH1 0x1 PUSH1 0x1 PUSH1 0xA0 SHL SUB AND MUL OR SWAP1 SSTORE POP DUP9 PUSH1 0x20 ADD MLOAD DUP3 PUSH1 0x3 ADD PUSH1 0x0 PUSH2 0x100 EXP DUP2 SLOAD DUP2 PUSH1 0x1 PUSH1 0x1 PUSH1 0xA0 SHL SUB MUL NOT AND SWAP1 DUP4 PUSH1 0x1 PUSH1 0x1 PUSH1 0xA0 SHL SUB AND MUL OR SWAP1 SSTORE POP DUP9 PUSH1 0x40 ADD MLOAD DUP4 PUSH1 0x0 ADD PUSH1 0x0 PUSH2 0x100 EXP DUP2 SLOAD DUP2 PUSH1 0x1 PUSH1 0x1 PUSH1 0xA0 SHL SUB MUL NOT AND SWAP1 DUP4 PUSH1 0x1 PUSH1 0x1 PUSH1 0xA0 SHL SUB AND MUL OR SWAP1 SSTORE POP DUP11 PUSH1 0x3 PUSH1 0x11 ADD PUSH1 0x8 PUSH2 0x100 EXP DUP2 SLOAD DUP2 PUSH3 0xFFFFFF MUL NOT AND SWAP1 DUP4 PUSH3 0xFFFFFF AND MUL OR SWAP1 SSTORE POP DUP10 DUP4 PUSH1 0x0 ADD PUSH1 0x1C PUSH2 0x100 EXP DUP2 SLOAD DUP2 PUSH2 0xFFFF MUL NOT AND SWAP1 DUP4 PUSH2 0xFFFF AND MUL OR SWAP1 SSTORE POP DUP8 DUP2 PUSH1 0x0 ADD SWAP1 DUP1 MLOAD SWAP1 PUSH1 0x20 ADD SWAP1 PUSH3 0x270 SWAP3 SWAP2 SWAP1 PUSH3 0x60D JUMP JUMPDEST POP DUP7 MLOAD PUSH3 0x288 SWAP1 PUSH1 0x1 DUP4 ADD SWAP1 PUSH1 0x20 DUP11 ADD SWAP1 PUSH3 0x60D JUMP JUMPDEST POP DUP6 MLOAD PUSH3 0x2A0 SWAP1 PUSH1 0x2 DUP4 ADD SWAP1 PUSH1 0x20 DUP10 ADD SWAP1 PUSH3 0x60D JUMP JUMPDEST POP DUP5 MLOAD PUSH3 0x2B8 SWAP1 PUSH1 0x3 DUP4 ADD SWAP1 PUSH1 0x20 DUP9 ADD SWAP1 PUSH3 0x60D JUMP JUMPDEST POP DUP4 MLOAD PUSH3 0x2D0 SWAP1 PUSH1 0x4 DUP4 ADD SWAP1 PUSH1 0x20 DUP8 ADD SWAP1 PUSH3 0x60D JUMP JUMPDEST POP PUSH3 0x2E7 DUP6 PUSH3 0x402 PUSH1 0x20 SHL PUSH3 0x1955 OR PUSH1 0x20 SHR JUMP JUMPDEST DUP1 MLOAD PUSH3 0x2FF SWAP2 PUSH1 0x5 DUP5 ADD SWAP2 PUSH1 0x20 SWAP1 SWAP2 ADD SWAP1 PUSH3 0x60D JUMP JUMPDEST POP PUSH3 0x316 DUP5 PUSH3 0x402 PUSH1 0x20 SHL PUSH3 0x1955 OR PUSH1 0x20 SHR JUMP JUMPDEST DUP1 MLOAD PUSH3 0x32E SWAP2 PUSH1 0x6 DUP5 ADD SWAP2 PUSH1 0x20 SWAP1 SWAP2 ADD SWAP1 PUSH3 0x60D JUMP JUMPDEST POP DUP9 MLOAD PUSH3 0x33C SWAP1 PUSH3 0x538 JUMP JUMPDEST PUSH1 0x40 MLOAD PUSH4 0xEB7E4F91 PUSH1 0xE0 SHL DUP2 MSTORE PUSH1 0x3 PUSH1 0x4 DUP3 ADD MSTORE PUSH20 0x0 SWAP1 PUSH4 0xEB7E4F91 SWAP1 PUSH1 0x24 ADD PUSH1 0x0 PUSH1 0x40 MLOAD DUP1 DUP4 SUB DUP2 DUP7 DUP1 EXTCODESIZE ISZERO DUP1 ISZERO PUSH3 0x388 JUMPI PUSH1 0x0 DUP1 REVERT JUMPDEST POP GAS DELEGATECALL ISZERO DUP1 ISZERO PUSH3 0x39D JUMPI RETURNDATASIZE PUSH1 0x0 DUP1 RETURNDATACOPY RETURNDATASIZE PUSH1 0x0 REVERT JUMPDEST POP POP POP POP POP POP POP POP POP POP POP POP POP POP POP PUSH3 0xA10 JUMP JUMPDEST PUSH1 0x0 DUP1 SLOAD PUSH1 0x1 PUSH1 0x1 PUSH1 0xA0 SHL SUB DUP4 DUP2 AND PUSH1 0x1 PUSH1 0x1 PUSH1 0xA0 SHL SUB NOT DUP4 AND DUP2 OR DUP5 SSTORE PUSH1 0x40 MLOAD SWAP2 SWAP1 SWAP3 AND SWAP3 DUP4 SWAP2 PUSH32 0x8BE0079C531659141344CD1FD0A4F28419497F9722A3DAAFE3B4186F6B6457E0 SWAP2 SWAP1 LOG3 POP POP JUMP JUMPDEST PUSH1 0x60 DUP2 MLOAD PUSH1 0x1 PUSH1 0x1 PUSH1 0x40 SHL SUB DUP2 GT ISZERO PUSH3 0x420 JUMPI PUSH3 0x420 PUSH3 0x9FA JUMP JUMPDEST PUSH1 0x40 MLOAD SWAP1 DUP1 DUP3 MSTORE DUP1 PUSH1 0x20 MUL PUSH1 0x20 ADD DUP3 ADD PUSH1 0x40 MSTORE DUP1 ISZERO PUSH3 0x44A JUMPI DUP2 PUSH1 0x20 ADD PUSH1 0x20 DUP3 MUL DUP1 CALLDATASIZE DUP4 CALLDATACOPY ADD SWAP1 POP JUMPDEST POP SWAP1 POP PUSH1 0x0 JUMPDEST PUSH1 0x2 DUP4 MLOAD PUSH1 0x1 PUSH3 0x462 SWAP2 SWAP1 PUSH3 0x942 JUMP JUMPDEST PUSH3 0x46E SWAP2 SWAP1 PUSH3 0x95D JUMP JUMPDEST DUP2 LT ISZERO PUSH3 0x532 JUMPI PUSH1 0x0 DUP2 PUSH1 0x1 DUP6 MLOAD PUSH3 0x489 SWAP2 SWAP1 PUSH3 0x980 JUMP JUMPDEST PUSH3 0x495 SWAP2 SWAP1 PUSH3 0x980 JUMP JUMPDEST SWAP1 POP DUP4 DUP2 DUP2 MLOAD DUP2 LT PUSH3 0x4AC JUMPI PUSH3 0x4AC PUSH3 0x9E4 JUMP JUMPDEST PUSH1 0x20 MUL PUSH1 0x20 ADD ADD MLOAD DUP5 DUP4 DUP2 MLOAD DUP2 LT PUSH3 0x4C9 JUMPI PUSH3 0x4C9 PUSH3 0x9E4 JUMP JUMPDEST PUSH1 0x20 MUL PUSH1 0x20 ADD ADD MLOAD DUP5 DUP5 DUP2 MLOAD DUP2 LT PUSH3 0x4E6 JUMPI PUSH3 0x4E6 PUSH3 0x9E4 JUMP JUMPDEST PUSH1 0x20 MUL PUSH1 0x20 ADD ADD DUP6 DUP5 DUP2 MLOAD DUP2 LT PUSH3 0x502 JUMPI PUSH3 0x502 PUSH3 0x9E4 JUMP JUMPDEST PUSH1 0x1 PUSH1 0x1 PUSH1 0xA0 SHL SUB SWAP4 DUP5 AND PUSH1 0x20 SWAP2 DUP3 MUL SWAP3 SWAP1 SWAP3 ADD ADD MSTORE SWAP2 AND SWAP1 MSTORE POP DUP1 PUSH3 0x529 DUP2 PUSH3 0x99A JUMP JUMPDEST SWAP2 POP POP PUSH3 0x450 JUMP JUMPDEST POP SWAP2 SWAP1 POP JUMP JUMPDEST PUSH1 0x0 SLOAD PUSH1 0x1 PUSH1 0x1 PUSH1 0xA0 SHL SUB AND CALLER EQ PUSH3 0x598 JUMPI PUSH1 0x40 MLOAD PUSH3 0x461BCD PUSH1 0xE5 SHL DUP2 MSTORE PUSH1 0x20 PUSH1 0x4 DUP3 ADD DUP2 SWAP1 MSTORE PUSH1 0x24 DUP3 ADD MSTORE PUSH32 0x4F776E61626C653A2063616C6C6572206973206E6F7420746865206F776E6572 PUSH1 0x44 DUP3 ADD MSTORE PUSH1 0x64 ADD JUMPDEST PUSH1 0x40 MLOAD DUP1 SWAP2 SUB SWAP1 REVERT JUMPDEST PUSH1 0x1 PUSH1 0x1 PUSH1 0xA0 SHL SUB DUP2 AND PUSH3 0x5FF JUMPI PUSH1 0x40 MLOAD PUSH3 0x461BCD PUSH1 0xE5 SHL DUP2 MSTORE PUSH1 0x20 PUSH1 0x4 DUP3 ADD MSTORE PUSH1 0x26 PUSH1 0x24 DUP3 ADD MSTORE PUSH32 0x4F776E61626C653A206E6577206F776E657220697320746865207A65726F2061 PUSH1 0x44 DUP3 ADD MSTORE PUSH6 0x646472657373 PUSH1 0xD0 SHL PUSH1 0x64 DUP3 ADD MSTORE PUSH1 0x84 ADD PUSH3 0x58F JUMP JUMPDEST PUSH3 0x60A DUP2 PUSH3 0x3B2 JUMP JUMPDEST POP JUMP JUMPDEST DUP3 DUP1 SLOAD DUP3 DUP3 SSTORE SWAP1 PUSH1 0x0 MSTORE PUSH1 0x20 PUSH1 0x0 KECCAK256 SWAP1 DUP2 ADD SWAP3 DUP3 ISZERO PUSH3 0x665 JUMPI SWAP2 PUSH1 0x20 MUL DUP3 ADD JUMPDEST DUP3 DUP2 GT ISZERO PUSH3 0x665 JUMPI DUP3 MLOAD DUP3 SLOAD PUSH1 0x1 PUSH1 0x1 PUSH1 0xA0 SHL SUB NOT AND PUSH1 0x1 PUSH1 0x1 PUSH1 0xA0 SHL SUB SWAP1 SWAP2 AND OR DUP3 SSTORE PUSH1 0x20 SWAP1 SWAP3 ADD SWAP2 PUSH1 0x1 SWAP1 SWAP2 ADD SWAP1 PUSH3 0x62E JUMP JUMPDEST POP PUSH3 0x673 SWAP3 SWAP2 POP PUSH3 0x677 JUMP JUMPDEST POP SWAP1 JUMP JUMPDEST JUMPDEST DUP1 DUP3 GT ISZERO PUSH3 0x673 JUMPI PUSH1 0x0 DUP2 SSTORE PUSH1 0x1 ADD PUSH3 0x678 JUMP JUMPDEST DUP1 MLOAD PUSH1 0x1 PUSH1 0x1 PUSH1 0xA0 SHL SUB DUP2 AND DUP2 EQ PUSH3 0x6A6 JUMPI PUSH1 0x0 DUP1 REVERT JUMPDEST SWAP2 SWAP1 POP JUMP JUMPDEST PUSH1 0x0 DUP3 PUSH1 0x1F DUP4 ADD SLT PUSH3 0x6BD JUMPI PUSH1 0x0 DUP1 REVERT JUMPDEST DUP2 MLOAD PUSH1 0x20 PUSH1 0x1 PUSH1 0x1 PUSH1 0x40 SHL SUB DUP1 DUP4 GT ISZERO PUSH3 0x6DC JUMPI PUSH3 0x6DC PUSH3 0x9FA JUMP JUMPDEST DUP3 PUSH1 0x5 SHL PUSH1 0x40 MLOAD PUSH1 0x1F NOT PUSH1 0x3F DUP4 ADD AND DUP2 ADD DUP2 DUP2 LT DUP5 DUP3 GT OR ISZERO PUSH3 0x704 JUMPI PUSH3 0x704 PUSH3 0x9FA JUMP JUMPDEST PUSH1 0x40 MSTORE DUP5 DUP2 MSTORE DUP4 DUP2 ADD SWAP3 POP DUP7 DUP5 ADD DUP3 DUP9 ADD DUP6 ADD DUP10 LT ISZERO PUSH3 0x724 JUMPI PUSH1 0x0 DUP1 REVERT JUMPDEST PUSH1 0x0 SWAP3 POP JUMPDEST DUP6 DUP4 LT ISZERO PUSH3 0x752 JUMPI PUSH3 0x73D DUP2 PUSH3 0x68E JUMP JUMPDEST DUP5 MSTORE SWAP3 DUP5 ADD SWAP3 PUSH1 0x1 SWAP3 SWAP1 SWAP3 ADD SWAP2 DUP5 ADD PUSH3 0x729 JUMP JUMPDEST POP SWAP8 SWAP7 POP POP POP POP POP POP POP JUMP JUMPDEST PUSH1 0x0 PUSH1 0xA0 DUP3 DUP5 SUB SLT ISZERO PUSH3 0x771 JUMPI PUSH1 0x0 DUP1 REVERT JUMPDEST PUSH1 0x40 MLOAD PUSH1 0xA0 DUP2 ADD PUSH1 0x1 PUSH1 0x1 PUSH1 0x40 SHL SUB DUP2 GT DUP3 DUP3 LT OR ISZERO PUSH3 0x796 JUMPI PUSH3 0x796 PUSH3 0x9FA JUMP JUMPDEST PUSH1 0x40 MSTORE SWAP1 POP DUP1 PUSH3 0x7A7 DUP4 PUSH3 0x68E JUMP JUMPDEST DUP2 MSTORE PUSH3 0x7B7 PUSH1 0x20 DUP5 ADD PUSH3 0x68E JUMP JUMPDEST PUSH1 0x20 DUP3 ADD MSTORE PUSH3 0x7CA PUSH1 0x40 DUP5 ADD PUSH3 0x68E JUMP JUMPDEST PUSH1 0x40 DUP3 ADD MSTORE PUSH3 0x7DD PUSH1 0x60 DUP5 ADD PUSH3 0x68E JUMP JUMPDEST PUSH1 0x60 DUP3 ADD MSTORE PUSH3 0x7F0 PUSH1 0x80 DUP5 ADD PUSH3 0x68E JUMP JUMPDEST PUSH1 0x80 DUP3 ADD MSTORE POP SWAP3 SWAP2 POP POP JUMP JUMPDEST DUP1 MLOAD PUSH2 0xFFFF DUP2 AND DUP2 EQ PUSH3 0x6A6 JUMPI PUSH1 0x0 DUP1 REVERT JUMPDEST DUP1 MLOAD PUSH3 0xFFFFFF DUP2 AND DUP2 EQ PUSH3 0x6A6 JUMPI PUSH1 0x0 DUP1 REVERT JUMPDEST PUSH1 0x0 DUP1 PUSH1 0x0 DUP1 PUSH1 0x0 DUP1 PUSH1 0x0 DUP1 PUSH2 0x180 DUP10 DUP12 SUB SLT ISZERO PUSH3 0x841 JUMPI PUSH1 0x0 DUP1 REVERT JUMPDEST PUSH3 0x84C DUP10 PUSH3 0x80F JUMP JUMPDEST SWAP8 POP PUSH3 0x85C PUSH1 0x20 DUP11 ADD PUSH3 0x7FC JUMP JUMPDEST SWAP7 POP PUSH3 0x86D DUP11 PUSH1 0x40 DUP12 ADD PUSH3 0x75E JUMP JUMPDEST PUSH1 0xE0 DUP11 ADD MLOAD SWAP1 SWAP7 POP PUSH1 0x1 PUSH1 0x1 PUSH1 0x40 SHL SUB DUP1 DUP3 GT ISZERO PUSH3 0x88B JUMPI PUSH1 0x0 DUP1 REVERT JUMPDEST PUSH3 0x899 DUP13 DUP4 DUP14 ADD PUSH3 0x6AB JUMP JUMPDEST SWAP7 POP PUSH2 0x100 DUP12 ADD MLOAD SWAP2 POP DUP1 DUP3 GT ISZERO PUSH3 0x8B1 JUMPI PUSH1 0x0 DUP1 REVERT JUMPDEST PUSH3 0x8BF DUP13 DUP4 DUP14 ADD PUSH3 0x6AB JUMP JUMPDEST SWAP6 POP PUSH2 0x120 DUP12 ADD MLOAD SWAP2 POP DUP1 DUP3 GT ISZERO PUSH3 0x8D7 JUMPI PUSH1 0x0 DUP1 REVERT JUMPDEST PUSH3 0x8E5 DUP13 DUP4 DUP14 ADD PUSH3 0x6AB JUMP JUMPDEST SWAP5 POP PUSH2 0x140 DUP12 ADD MLOAD SWAP2 POP DUP1 DUP3 GT ISZERO PUSH3 0x8FD JUMPI PUSH1 0x0 DUP1 REVERT JUMPDEST PUSH3 0x90B DUP13 DUP4 DUP14 ADD PUSH3 0x6AB JUMP JUMPDEST SWAP4 POP PUSH2 0x160 DUP12 ADD MLOAD SWAP2 POP DUP1 DUP3 GT ISZERO PUSH3 0x923 JUMPI PUSH1 0x0 DUP1 REVERT JUMPDEST POP PUSH3 0x932 DUP12 DUP3 DUP13 ADD PUSH3 0x6AB JUMP JUMPDEST SWAP2 POP POP SWAP3 SWAP6 SWAP9 POP SWAP3 SWAP6 SWAP9 SWAP1 SWAP4 SWAP7 POP JUMP JUMPDEST PUSH1 0x0 DUP3 NOT DUP3 GT ISZERO PUSH3 0x958 JUMPI PUSH3 0x958 PUSH3 0x9B8 JUMP JUMPDEST POP ADD SWAP1 JUMP JUMPDEST PUSH1 0x0 DUP3 PUSH3 0x97B JUMPI PUSH4 0x4E487B71 PUSH1 0xE0 SHL PUSH1 0x0 MSTORE PUSH1 0x12 PUSH1 0x4 MSTORE PUSH1 0x24 PUSH1 0x0 REVERT JUMPDEST POP DIV SWAP1 JUMP JUMPDEST PUSH1 0x0 DUP3 DUP3 LT ISZERO PUSH3 0x995 JUMPI PUSH3 0x995 PUSH3 0x9B8 JUMP JUMPDEST POP SUB SWAP1 JUMP JUMPDEST PUSH1 0x0 PUSH1 0x0 NOT DUP3 EQ ISZERO PUSH3 0x9B1 JUMPI PUSH3 0x9B1 PUSH3 0x9B8 JUMP JUMPDEST POP PUSH1 0x1 ADD SWAP1 JUMP JUMPDEST PUSH4 0x4E487B71 PUSH1 0xE0 SHL PUSH1 0x0 MSTORE PUSH1 0x11 PUSH1 0x4 MSTORE PUSH1 0x24 PUSH1 0x0 REVERT JUMPDEST PUSH4 0x4E487B71 PUSH1 0xE0 SHL PUSH1 0x0 MSTORE PUSH1 0x21 PUSH1 0x4 MSTORE PUSH1 0x24 PUSH1 0x0 REVERT JUMPDEST PUSH4 0x4E487B71 PUSH1 0xE0 SHL PUSH1 0x0 MSTORE PUSH1 0x32 PUSH1 0x4 MSTORE PUSH1 0x24 PUSH1 0x0 REVERT JUMPDEST PUSH4 0x4E487B71 PUSH1 0xE0 SHL PUSH1 0x0 MSTORE PUSH1 0x41 PUSH1 0x4 MSTORE PUSH1 0x24 PUSH1 0x0 REVERT JUMPDEST PUSH2 0x2A42 DUP1 PUSH3 0xA20 PUSH1 0x0 CODECOPY PUSH1 0x0 RETURN INVALID PUSH1 0x80 PUSH1 0x40 MSTORE CALLVALUE DUP1 ISZERO PUSH2 0x10 JUMPI PUSH1 0x0 DUP1 REVERT JUMPDEST POP PUSH1 0x4 CALLDATASIZE LT PUSH2 0x136 JUMPI PUSH1 0x0 CALLDATALOAD PUSH1 0xE0 SHR DUP1 PUSH4 0x715018A6 GT PUSH2 0xB2 JUMPI DUP1 PUSH4 0xC11C2E92 GT PUSH2 0x81 JUMPI DUP1 PUSH4 0xD389800F GT PUSH2 0x66 JUMPI DUP1 PUSH4 0xD389800F EQ PUSH2 0x22B JUMPI DUP1 PUSH4 0xF2FDE38B EQ PUSH2 0x233 JUMPI DUP1 PUSH4 0xF3FEF3A3 EQ PUSH2 0x246 JUMPI PUSH1 0x0 DUP1 REVERT JUMPDEST DUP1 PUSH4 0xC11C2E92 EQ PUSH2 0x210 JUMPI DUP1 PUSH4 0xCFAD57A2 EQ PUSH2 0x218 JUMPI PUSH1 0x0 DUP1 REVERT JUMPDEST DUP1 PUSH4 0x715018A6 EQ PUSH2 0x1BC JUMPI DUP1 PUSH4 0x73D4A13A EQ PUSH2 0x1C4 JUMPI DUP1 PUSH4 0x8456CB59 EQ PUSH2 0x1E0 JUMPI DUP1 PUSH4 0x8DA5CB5B EQ PUSH2 0x1E8 JUMPI PUSH1 0x0 DUP1 REVERT JUMPDEST DUP1 PUSH4 0x42DA4EB3 GT PUSH2 0x109 JUMPI DUP1 PUSH4 0x47E7EF24 GT PUSH2 0xEE JUMPI DUP1 PUSH4 0x47E7EF24 EQ PUSH2 0x18B JUMPI DUP1 PUSH4 0x5C975ABB EQ PUSH2 0x19E JUMPI DUP1 PUSH4 0x65A5E30B EQ PUSH2 0x1B4 JUMPI PUSH1 0x0 DUP1 REVERT JUMPDEST DUP1 PUSH4 0x42DA4EB3 EQ PUSH2 0x17B JUMPI DUP1 PUSH4 0x4700D305 EQ PUSH2 0x183 JUMPI PUSH1 0x0 DUP1 REVERT JUMPDEST DUP1 PUSH4 0x4C9D490 EQ PUSH2 0x13B JUMPI DUP1 PUSH4 0xDFD81C4 EQ PUSH2 0x156 JUMPI DUP1 PUSH4 0x3505B09F EQ PUSH2 0x16B JUMPI DUP1 PUSH4 0x3F4BA83A EQ PUSH2 0x173 JUMPI JUMPDEST PUSH1 0x0 DUP1 REVERT JUMPDEST PUSH2 0x143 PUSH2 0x259 JUMP JUMPDEST PUSH1 0x40 MLOAD SWAP1 DUP2 MSTORE PUSH1 0x20 ADD JUMPDEST PUSH1 0x40 MLOAD DUP1 SWAP2 SUB SWAP1 RETURN JUMPDEST PUSH2 0x169 PUSH2 0x164 CALLDATASIZE PUSH1 0x4 PUSH2 0x24AF JUMP JUMPDEST PUSH2 0x321 JUMP JUMPDEST STOP JUMPDEST PUSH2 0x169 PUSH2 0x477 JUMP JUMPDEST PUSH2 0x169 PUSH2 0x578 JUMP JUMPDEST PUSH2 0x143 PUSH2 0x603 JUMP JUMPDEST PUSH2 0x169 PUSH2 0x6C2 JUMP JUMPDEST PUSH2 0x143 PUSH2 0x199 CALLDATASIZE PUSH1 0x4 PUSH2 0x2463 JUMP JUMPDEST PUSH2 0x757 JUMP JUMPDEST PUSH1 0x2 SLOAD PUSH1 0xFF AND PUSH1 0x40 MLOAD SWAP1 ISZERO ISZERO DUP2 MSTORE PUSH1 0x20 ADD PUSH2 0x14D JUMP JUMPDEST PUSH2 0x169 PUSH2 0x94C JUMP JUMPDEST PUSH2 0x169 PUSH2 0x9E2 JUMP JUMPDEST PUSH2 0x1CC PUSH2 0xA6D JUMP JUMPDEST PUSH1 0x40 MLOAD PUSH2 0x14D SWAP9 SWAP8 SWAP7 SWAP6 SWAP5 SWAP4 SWAP3 SWAP2 SWAP1 PUSH2 0x272E JUMP JUMPDEST PUSH2 0x169 PUSH2 0xF65 JUMP JUMPDEST PUSH1 0x0 SLOAD PUSH1 0x40 MLOAD PUSH20 0xFFFFFFFFFFFFFFFFFFFFFFFFFFFFFFFFFFFFFFFF SWAP1 SWAP2 AND DUP2 MSTORE PUSH1 0x20 ADD PUSH2 0x14D JUMP JUMPDEST PUSH2 0x169 PUSH2 0xFF0 JUMP JUMPDEST PUSH2 0x169 PUSH2 0x226 CALLDATASIZE PUSH1 0x4 PUSH2 0x2448 JUMP JUMPDEST PUSH2 0x1157 JUMP JUMPDEST PUSH2 0x169 PUSH2 0x1221 JUMP JUMPDEST PUSH2 0x169 PUSH2 0x241 CALLDATASIZE PUSH1 0x4 PUSH2 0x2448 JUMP JUMPDEST PUSH2 0x141A JUMP JUMPDEST PUSH2 0x143 PUSH2 0x254 CALLDATASIZE PUSH1 0x4 PUSH2 0x2463 JUMP JUMPDEST PUSH2 0x1547 JUMP JUMPDEST PUSH1 0x6 SLOAD PUSH1 0x14 SLOAD PUSH1 0x40 MLOAD PUSH32 0x93F1A40B00000000000000000000000000000000000000000000000000000000 DUP2 MSTORE PUSH9 0x10000000000000000 SWAP1 SWAP2 DIV PUSH3 0xFFFFFF AND PUSH1 0x4 DUP3 ADD MSTORE ADDRESS PUSH1 0x24 DUP3 ADD MSTORE PUSH1 0x0 SWAP2 PUSH1 0x3 SWAP2 DUP4 SWAP2 PUSH20 0xFFFFFFFFFFFFFFFFFFFFFFFFFFFFFFFFFFFFFFFF AND SWAP1 PUSH4 0x93F1A40B SWAP1 PUSH1 0x44 ADD PUSH1 0x40 DUP1 MLOAD DUP1 DUP4 SUB DUP2 DUP7 DUP1 EXTCODESIZE ISZERO DUP1 ISZERO PUSH2 0x2E1 JUMPI PUSH1 0x0 DUP1 REVERT JUMPDEST POP GAS STATICCALL ISZERO DUP1 ISZERO PUSH2 0x2F5 JUMPI RETURNDATASIZE PUSH1 0x0 DUP1 RETURNDATACOPY RETURNDATASIZE PUSH1 0x0 REVERT JUMPDEST POP POP POP POP PUSH1 0x40 MLOAD RETURNDATASIZE PUSH1 0x1F NOT PUSH1 0x1F DUP3 ADD AND DUP3 ADD DUP1 PUSH1 0x40 MSTORE POP DUP2 ADD SWAP1 PUSH2 0x319 SWAP2 SWAP1 PUSH2 0x253C JUMP JUMPDEST POP SWAP4 SWAP3 POP POP POP JUMP JUMPDEST PUSH1 0x9 SLOAD PUSH20 0xFFFFFFFFFFFFFFFFFFFFFFFFFFFFFFFFFFFFFFFF AND CALLER EQ PUSH2 0x3AD JUMPI PUSH1 0x40 MLOAD PUSH32 0x8C379A000000000000000000000000000000000000000000000000000000000 DUP2 MSTORE PUSH1 0x4 ADD PUSH2 0x3A4 SWAP1 PUSH1 0x20 DUP1 DUP3 MSTORE PUSH1 0x4 SWAP1 DUP3 ADD MSTORE PUSH32 0x21676F7600000000000000000000000000000000000000000000000000000000 PUSH1 0x40 DUP3 ADD MSTORE PUSH1 0x60 ADD SWAP1 JUMP JUMPDEST PUSH1 0x40 MLOAD DUP1 SWAP2 SUB SWAP1 REVERT JUMPDEST PUSH1 0x40 MLOAD PUSH32 0x1A2F4BD300000000000000000000000000000000000000000000000000000000 DUP2 MSTORE PUSH1 0x8 PUSH1 0x4 DUP3 ADD MSTORE PUSH2 0xFFFF DUP1 DUP9 AND PUSH1 0x24 DUP4 ADD MSTORE DUP1 DUP8 AND PUSH1 0x44 DUP4 ADD MSTORE DUP1 DUP7 AND PUSH1 0x64 DUP4 ADD MSTORE DUP1 DUP6 AND PUSH1 0x84 DUP4 ADD MSTORE DUP4 AND PUSH1 0xA4 DUP3 ADD MSTORE PUSH20 0xFFFFFFFFFFFFFFFFFFFFFFFFFFFFFFFFFFFFFFFF DUP3 AND PUSH1 0xC4 DUP3 ADD MSTORE PUSH20 0x0 SWAP1 PUSH4 0x1A2F4BD3 SWAP1 PUSH1 0xE4 ADD PUSH1 0x0 PUSH1 0x40 MLOAD DUP1 DUP4 SUB DUP2 DUP7 DUP1 EXTCODESIZE ISZERO DUP1 ISZERO PUSH2 0x457 JUMPI PUSH1 0x0 DUP1 REVERT JUMPDEST POP GAS DELEGATECALL ISZERO DUP1 ISZERO PUSH2 0x46B JUMPI RETURNDATASIZE PUSH1 0x0 DUP1 RETURNDATACOPY RETURNDATASIZE PUSH1 0x0 REVERT JUMPDEST POP POP POP POP POP POP POP POP POP POP JUMP JUMPDEST PUSH1 0x9 SLOAD PUSH20 0xFFFFFFFFFFFFFFFFFFFFFFFFFFFFFFFFFFFFFFFF AND CALLER EQ PUSH2 0x4FA JUMPI PUSH1 0x40 MLOAD PUSH32 0x8C379A000000000000000000000000000000000000000000000000000000000 DUP2 MSTORE PUSH1 0x4 ADD PUSH2 0x3A4 SWAP1 PUSH1 0x20 DUP1 DUP3 MSTORE PUSH1 0x4 SWAP1 DUP3 ADD MSTORE PUSH32 0x21676F7600000000000000000000000000000000000000000000000000000000 PUSH1 0x40 DUP3 ADD MSTORE PUSH1 0x60 ADD SWAP1 JUMP JUMPDEST PUSH1 0x40 MLOAD PUSH32 0xEB7E4F9100000000000000000000000000000000000000000000000000000000 DUP2 MSTORE PUSH1 0x3 PUSH1 0x4 DUP3 ADD MSTORE PUSH20 0x0 SWAP1 PUSH4 0xEB7E4F91 SWAP1 PUSH1 0x24 ADD PUSH1 0x0 PUSH1 0x40 MLOAD DUP1 DUP4 SUB DUP2 DUP7 DUP1 EXTCODESIZE ISZERO DUP1 ISZERO PUSH2 0x55E JUMPI PUSH1 0x0 DUP1 REVERT JUMPDEST POP GAS DELEGATECALL ISZERO DUP1 ISZERO PUSH2 0x572 JUMPI RETURNDATASIZE PUSH1 0x0 DUP1 RETURNDATACOPY RETURNDATASIZE PUSH1 0x0 REVERT JUMPDEST POP POP POP POP JUMP JUMPDEST PUSH1 0x9 SLOAD PUSH20 0xFFFFFFFFFFFFFFFFFFFFFFFFFFFFFFFFFFFFFFFF AND CALLER EQ PUSH2 0x5FB JUMPI PUSH1 0x40 MLOAD PUSH32 0x8C379A000000000000000000000000000000000000000000000000000000000 DUP2 MSTORE PUSH1 0x4 ADD PUSH2 0x3A4 SWAP1 PUSH1 0x20 DUP1 DUP3 MSTORE PUSH1 0x4 SWAP1 DUP3 ADD MSTORE PUSH32 0x21676F7600000000000000000000000000000000000000000000000000000000 PUSH1 0x40 DUP3 ADD MSTORE PUSH1 0x60 ADD SWAP1 JUMP JUMPDEST PUSH2 0x4FA PUSH2 0x1A7D JUMP JUMPDEST PUSH1 0x0 PUSH1 0x3 PUSH2 0x60F PUSH2 0x259 JUMP JUMPDEST PUSH1 0x1 DUP3 ADD SLOAD PUSH1 0x40 MLOAD PUSH32 0x70A0823100000000000000000000000000000000000000000000000000000000 DUP2 MSTORE ADDRESS PUSH1 0x4 DUP3 ADD MSTORE PUSH20 0xFFFFFFFFFFFFFFFFFFFFFFFFFFFFFFFFFFFFFFFF SWAP1 SWAP2 AND SWAP1 PUSH4 0x70A08231 SWAP1 PUSH1 0x24 ADD PUSH1 0x20 PUSH1 0x40 MLOAD DUP1 DUP4 SUB DUP2 DUP7 DUP1 EXTCODESIZE ISZERO DUP1 ISZERO PUSH2 0x67A JUMPI PUSH1 0x0 DUP1 REVERT JUMPDEST POP GAS STATICCALL ISZERO DUP1 ISZERO PUSH2 0x68E JUMPI RETURNDATASIZE PUSH1 0x0 DUP1 RETURNDATACOPY RETURNDATASIZE PUSH1 0x0 REVERT JUMPDEST POP POP POP POP PUSH1 0x40 MLOAD RETURNDATASIZE PUSH1 0x1F NOT PUSH1 0x1F DUP3 ADD AND DUP3 ADD DUP1 PUSH1 0x40 MSTORE POP DUP2 ADD SWAP1 PUSH2 0x6B2 SWAP2 SWAP1 PUSH2 0x2523 JUMP JUMPDEST PUSH2 0x6BC SWAP2 SWAP1 PUSH2 0x2857 JUMP JUMPDEST SWAP2 POP POP SWAP1 JUMP JUMPDEST PUSH1 0x9 SLOAD PUSH20 0xFFFFFFFFFFFFFFFFFFFFFFFFFFFFFFFFFFFFFFFF AND CALLER EQ PUSH2 0x745 JUMPI PUSH1 0x40 MLOAD PUSH32 0x8C379A000000000000000000000000000000000000000000000000000000000 DUP2 MSTORE PUSH1 0x4 ADD PUSH2 0x3A4 SWAP1 PUSH1 0x20 DUP1 DUP3 MSTORE PUSH1 0x4 SWAP1 DUP3 ADD MSTORE PUSH32 0x21676F7600000000000000000000000000000000000000000000000000000000 PUSH1 0x40 DUP3 ADD MSTORE PUSH1 0x60 ADD SWAP1 JUMP JUMPDEST PUSH2 0x74D PUSH2 0x1B5E JUMP JUMPDEST PUSH2 0x755 PUSH2 0x1C1E JUMP JUMPDEST JUMP JUMPDEST PUSH1 0x0 DUP1 SLOAD PUSH20 0xFFFFFFFFFFFFFFFFFFFFFFFFFFFFFFFFFFFFFFFF AND CALLER EQ PUSH2 0x7D9 JUMPI PUSH1 0x40 MLOAD PUSH32 0x8C379A000000000000000000000000000000000000000000000000000000000 DUP2 MSTORE PUSH1 0x20 PUSH1 0x4 DUP3 ADD DUP2 SWAP1 MSTORE PUSH1 0x24 DUP3 ADD MSTORE PUSH32 0x4F776E61626C653A2063616C6C6572206973206E6F7420746865206F776E6572 PUSH1 0x44 DUP3 ADD MSTORE PUSH1 0x64 ADD PUSH2 0x3A4 JUMP JUMPDEST PUSH1 0x2 PUSH1 0x1 SLOAD EQ ISZERO PUSH2 0x846 JUMPI PUSH1 0x40 MLOAD PUSH32 0x8C379A000000000000000000000000000000000000000000000000000000000 DUP2 MSTORE PUSH1 0x20 PUSH1 0x4 DUP3 ADD MSTORE PUSH1 0x1F PUSH1 0x24 DUP3 ADD MSTORE PUSH32 0x5265656E7472616E637947756172643A207265656E7472616E742063616C6C00 PUSH1 0x44 DUP3 ADD MSTORE PUSH1 0x64 ADD PUSH2 0x3A4 JUMP JUMPDEST PUSH1 0x2 PUSH1 0x1 SSTORE PUSH2 0x857 PUSH1 0x2 SLOAD PUSH1 0xFF AND SWAP1 JUMP JUMPDEST ISZERO PUSH2 0x8BE JUMPI PUSH1 0x40 MLOAD PUSH32 0x8C379A000000000000000000000000000000000000000000000000000000000 DUP2 MSTORE PUSH1 0x20 PUSH1 0x4 DUP3 ADD MSTORE PUSH1 0x10 PUSH1 0x24 DUP3 ADD MSTORE PUSH32 0x5061757361626C653A2070617573656400000000000000000000000000000000 PUSH1 0x44 DUP3 ADD MSTORE PUSH1 0x64 ADD PUSH2 0x3A4 JUMP JUMPDEST PUSH1 0x3 PUSH1 0x0 PUSH2 0x8CA PUSH2 0x603 JUMP JUMPDEST PUSH1 0x1 DUP4 ADD SLOAD SWAP1 SWAP2 POP PUSH2 0x8F4 SWAP1 PUSH20 0xFFFFFFFFFFFFFFFFFFFFFFFFFFFFFFFFFFFFFFFF AND CALLER ADDRESS DUP8 PUSH2 0x1CBA JUMP JUMPDEST PUSH1 0x0 PUSH2 0x8FE PUSH2 0x1D96 JUMP JUMPDEST PUSH1 0x12 SLOAD SWAP1 SWAP2 POP ISZERO PUSH2 0x925 JUMPI PUSH1 0x12 SLOAD DUP3 SWAP1 PUSH2 0x918 SWAP1 DUP4 PUSH2 0x2883 JUMP JUMPDEST PUSH2 0x922 SWAP2 SWAP1 PUSH2 0x286F JUMP JUMPDEST SWAP1 POP JUMPDEST DUP1 PUSH1 0x3 PUSH1 0xF ADD PUSH1 0x0 DUP3 DUP3 SLOAD PUSH2 0x93A SWAP2 SWAP1 PUSH2 0x2857 JUMP JUMPDEST SWAP1 SWAP2 SSTORE POP POP PUSH1 0x1 DUP1 SSTORE SWAP6 SWAP5 POP POP POP POP POP JUMP JUMPDEST PUSH1 0x9 SLOAD PUSH20 0xFFFFFFFFFFFFFFFFFFFFFFFFFFFFFFFFFFFFFFFF AND CALLER EQ PUSH2 0x9CF JUMPI PUSH1 0x40 MLOAD PUSH32 0x8C379A000000000000000000000000000000000000000000000000000000000 DUP2 MSTORE PUSH1 0x4 ADD PUSH2 0x3A4 SWAP1 PUSH1 0x20 DUP1 DUP3 MSTORE PUSH1 0x4 SWAP1 DUP3 ADD MSTORE PUSH32 0x21676F7600000000000000000000000000000000000000000000000000000000 PUSH1 0x40 DUP3 ADD MSTORE PUSH1 0x60 ADD SWAP1 JUMP JUMPDEST PUSH2 0x9D7 PUSH2 0x1A7D JUMP JUMPDEST PUSH2 0x9DF PUSH2 0x1D96 JUMP JUMPDEST POP JUMP JUMPDEST PUSH1 0x0 SLOAD PUSH20 0xFFFFFFFFFFFFFFFFFFFFFFFFFFFFFFFFFFFFFFFF AND CALLER EQ PUSH2 0xA63 JUMPI PUSH1 0x40 MLOAD PUSH32 0x8C379A000000000000000000000000000000000000000000000000000000000 DUP2 MSTORE PUSH1 0x20 PUSH1 0x4 DUP3 ADD DUP2 SWAP1 MSTORE PUSH1 0x24 DUP3 ADD MSTORE PUSH32 0x4F776E61626C653A2063616C6C6572206973206E6F7420746865206F776E6572 PUSH1 0x44 DUP3 ADD MSTORE PUSH1 0x64 ADD PUSH2 0x3A4 JUMP JUMPDEST PUSH2 0x755 PUSH1 0x0 PUSH2 0x1E86 JUMP JUMPDEST PUSH1 0x40 DUP1 MLOAD PUSH1 0xA0 DUP1 DUP3 ADD DUP4 MSTORE PUSH1 0x3 DUP1 SLOAD PUSH20 0xFFFFFFFFFFFFFFFFFFFFFFFFFFFFFFFFFFFFFFFF SWAP1 DUP2 AND DUP5 MSTORE PUSH1 0x4 SLOAD DUP2 AND PUSH1 0x20 DUP1 DUP7 ADD SWAP2 SWAP1 SWAP2 MSTORE PUSH1 0x5 SLOAD DUP3 AND DUP6 DUP8 ADD MSTORE PUSH1 0x6 SLOAD DUP3 AND PUSH1 0x60 DUP1 DUP8 ADD SWAP2 SWAP1 SWAP2 MSTORE PUSH1 0x7 SLOAD DUP4 AND PUSH1 0x80 DUP1 DUP9 ADD SWAP2 SWAP1 SWAP2 MSTORE DUP8 MLOAD PUSH1 0xE0 DUP2 ADD DUP10 MSTORE PUSH1 0x8 SLOAD DUP1 DUP7 AND DUP3 MSTORE PUSH2 0xFFFF PUSH21 0x10000000000000000000000000000000000000000 DUP3 DIV DUP2 AND DUP4 DUP8 ADD MSTORE PUSH23 0x100000000000000000000000000000000000000000000 DUP3 DIV DUP2 AND DUP4 DUP13 ADD MSTORE PUSH25 0x1000000000000000000000000000000000000000000000000 DUP3 DIV DUP2 AND SWAP5 DUP4 ADD SWAP5 SWAP1 SWAP5 MSTORE PUSH27 0x10000000000000000000000000000000000000000000000000000 DUP2 DIV DUP5 AND SWAP3 DUP3 ADD SWAP3 SWAP1 SWAP3 MSTORE PUSH29 0x100000000000000000000000000000000000000000000000000000000 SWAP1 SWAP2 DIV SWAP1 SWAP2 AND SWAP5 DUP2 ADD SWAP5 SWAP1 SWAP5 MSTORE PUSH1 0x9 SLOAD SWAP1 SWAP2 AND PUSH1 0xC0 DUP5 ADD MSTORE DUP5 MLOAD PUSH1 0xA DUP1 SLOAD PUSH2 0x120 SWAP4 DUP2 MUL DUP4 ADD DUP5 ADD SWAP1 SWAP8 MSTORE PUSH2 0x100 DUP3 ADD DUP8 DUP2 MSTORE SWAP6 SWAP7 SWAP5 SWAP6 SWAP4 SWAP5 SWAP2 SWAP4 SWAP1 SWAP3 DUP5 SWAP3 DUP5 SWAP2 DUP5 ADD DUP3 DUP3 DUP1 ISZERO PUSH2 0xC0B JUMPI PUSH1 0x20 MUL DUP3 ADD SWAP2 SWAP1 PUSH1 0x0 MSTORE PUSH1 0x20 PUSH1 0x0 KECCAK256 SWAP1 JUMPDEST DUP2 SLOAD PUSH20 0xFFFFFFFFFFFFFFFFFFFFFFFFFFFFFFFFFFFFFFFF AND DUP2 MSTORE PUSH1 0x1 SWAP1 SWAP2 ADD SWAP1 PUSH1 0x20 ADD DUP1 DUP4 GT PUSH2 0xBE0 JUMPI JUMPDEST POP POP POP POP POP DUP2 MSTORE PUSH1 0x20 ADD PUSH1 0x1 DUP3 ADD DUP1 SLOAD DUP1 PUSH1 0x20 MUL PUSH1 0x20 ADD PUSH1 0x40 MLOAD SWAP1 DUP2 ADD PUSH1 0x40 MSTORE DUP1 SWAP3 SWAP2 SWAP1 DUP2 DUP2 MSTORE PUSH1 0x20 ADD DUP3 DUP1 SLOAD DUP1 ISZERO PUSH2 0xC7A JUMPI PUSH1 0x20 MUL DUP3 ADD SWAP2 SWAP1 PUSH1 0x0 MSTORE PUSH1 0x20 PUSH1 0x0 KECCAK256 SWAP1 JUMPDEST DUP2 SLOAD PUSH20 0xFFFFFFFFFFFFFFFFFFFFFFFFFFFFFFFFFFFFFFFF AND DUP2 MSTORE PUSH1 0x1 SWAP1 SWAP2 ADD SWAP1 PUSH1 0x20 ADD DUP1 DUP4 GT PUSH2 0xC4F JUMPI JUMPDEST POP POP POP POP POP DUP2 MSTORE PUSH1 0x20 ADD PUSH1 0x2 DUP3 ADD DUP1 SLOAD DUP1 PUSH1 0x20 MUL PUSH1 0x20 ADD PUSH1 0x40 MLOAD SWAP1 DUP2 ADD PUSH1 0x40 MSTORE DUP1 SWAP3 SWAP2 SWAP1 DUP2 DUP2 MSTORE PUSH1 0x20 ADD DUP3 DUP1 SLOAD DUP1 ISZERO PUSH2 0xCE9 JUMPI PUSH1 0x20 MUL DUP3 ADD SWAP2 SWAP1 PUSH1 0x0 MSTORE PUSH1 0x20 PUSH1 0x0 KECCAK256 SWAP1 JUMPDEST DUP2 SLOAD PUSH20 0xFFFFFFFFFFFFFFFFFFFFFFFFFFFFFFFFFFFFFFFF AND DUP2 MSTORE PUSH1 0x1 SWAP1 SWAP2 ADD SWAP1 PUSH1 0x20 ADD DUP1 DUP4 GT PUSH2 0xCBE JUMPI JUMPDEST POP POP POP POP POP DUP2 MSTORE PUSH1 0x20 ADD PUSH1 0x3 DUP3 ADD DUP1 SLOAD DUP1 PUSH1 0x20 MUL PUSH1 0x20 ADD PUSH1 0x40 MLOAD SWAP1 DUP2 ADD PUSH1 0x40 MSTORE DUP1 SWAP3 SWAP2 SWAP1 DUP2 DUP2 MSTORE PUSH1 0x20 ADD DUP3 DUP1 SLOAD DUP1 ISZERO PUSH2 0xD58 JUMPI PUSH1 0x20 MUL DUP3 ADD SWAP2 SWAP1 PUSH1 0x0 MSTORE PUSH1 0x20 PUSH1 0x0 KECCAK256 SWAP1 JUMPDEST DUP2 SLOAD PUSH20 0xFFFFFFFFFFFFFFFFFFFFFFFFFFFFFFFFFFFFFFFF AND DUP2 MSTORE PUSH1 0x1 SWAP1 SWAP2 ADD SWAP1 PUSH1 0x20 ADD DUP1 DUP4 GT PUSH2 0xD2D JUMPI JUMPDEST POP POP POP POP POP DUP2 MSTORE PUSH1 0x20 ADD PUSH1 0x4 DUP3 ADD DUP1 SLOAD DUP1 PUSH1 0x20 MUL PUSH1 0x20 ADD PUSH1 0x40 MLOAD SWAP1 DUP2 ADD PUSH1 0x40 MSTORE DUP1 SWAP3 SWAP2 SWAP1 DUP2 DUP2 MSTORE PUSH1 0x20 ADD DUP3 DUP1 SLOAD DUP1 ISZERO PUSH2 0xDC7 JUMPI PUSH1 0x20 MUL DUP3 ADD SWAP2 SWAP1 PUSH1 0x0 MSTORE PUSH1 0x20 PUSH1 0x0 KECCAK256 SWAP1 JUMPDEST DUP2 SLOAD PUSH20 0xFFFFFFFFFFFFFFFFFFFFFFFFFFFFFFFFFFFFFFFF AND DUP2 MSTORE PUSH1 0x1 SWAP1 SWAP2 ADD SWAP1 PUSH1 0x20 ADD DUP1 DUP4 GT PUSH2 0xD9C JUMPI JUMPDEST POP POP POP POP POP DUP2 MSTORE PUSH1 0x20 ADD PUSH1 0x5 DUP3 ADD DUP1 SLOAD DUP1 PUSH1 0x20 MUL PUSH1 0x20 ADD PUSH1 0x40 MLOAD SWAP1 DUP2 ADD PUSH1 0x40 MSTORE DUP1 SWAP3 SWAP2 SWAP1 DUP2 DUP2 MSTORE PUSH1 0x20 ADD DUP3 DUP1 SLOAD DUP1 ISZERO PUSH2 0xE36 JUMPI PUSH1 0x20 MUL DUP3 ADD SWAP2 SWAP1 PUSH1 0x0 MSTORE PUSH1 0x20 PUSH1 0x0 KECCAK256 SWAP1 JUMPDEST DUP2 SLOAD PUSH20 0xFFFFFFFFFFFFFFFFFFFFFFFFFFFFFFFFFFFFFFFF AND DUP2 MSTORE PUSH1 0x1 SWAP1 SWAP2 ADD SWAP1 PUSH1 0x20 ADD DUP1 DUP4 GT PUSH2 0xE0B JUMPI JUMPDEST POP POP POP POP POP DUP2 MSTORE PUSH1 0x20 ADD PUSH1 0x6 DUP3 ADD DUP1 SLOAD DUP1 PUSH1 0x20 MUL PUSH1 0x20 ADD PUSH1 0x40 MLOAD SWAP1 DUP2 ADD PUSH1 0x40 MSTORE DUP1 SWAP3 SWAP2 SWAP1 DUP2 DUP2 MSTORE PUSH1 0x20 ADD DUP3 DUP1 SLOAD DUP1 ISZERO PUSH2 0xEA5 JUMPI PUSH1 0x20 MUL DUP3 ADD SWAP2 SWAP1 PUSH1 0x0 MSTORE PUSH1 0x20 PUSH1 0x0 KECCAK256 SWAP1 JUMPDEST DUP2 SLOAD PUSH20 0xFFFFFFFFFFFFFFFFFFFFFFFFFFFFFFFFFFFFFFFF AND DUP2 MSTORE PUSH1 0x1 SWAP1 SWAP2 ADD SWAP1 PUSH1 0x20 ADD DUP1 DUP4 GT PUSH2 0xE7A JUMPI JUMPDEST POP POP POP POP POP DUP2 MSTORE PUSH1 0x20 ADD PUSH1 0x7 DUP3 ADD DUP1 SLOAD DUP1 PUSH1 0x20 MUL PUSH1 0x20 ADD PUSH1 0x40 MLOAD SWAP1 DUP2 ADD PUSH1 0x40 MSTORE DUP1 SWAP3 SWAP2 SWAP1 DUP2 DUP2 MSTORE PUSH1 0x20 ADD DUP3 DUP1 SLOAD DUP1 ISZERO PUSH2 0xF14 JUMPI PUSH1 0x20 MUL DUP3 ADD SWAP2 SWAP1 PUSH1 0x0 MSTORE PUSH1 0x20 PUSH1 0x0 KECCAK256 SWAP1 JUMPDEST DUP2 SLOAD PUSH20 0xFFFFFFFFFFFFFFFFFFFFFFFFFFFFFFFFFFFFFFFF AND DUP2 MSTORE PUSH1 0x1 SWAP1 SWAP2 ADD SWAP1 PUSH1 0x20 ADD DUP1 DUP4 GT PUSH2 0xEE9 JUMPI JUMPDEST POP POP POP SWAP2 SWAP1 SWAP3 MSTORE POP POP POP PUSH1 0xF DUP3 ADD SLOAD PUSH1 0x10 DUP4 ADD SLOAD PUSH1 0x11 SWAP1 SWAP4 ADD SLOAD SWAP2 SWAP3 SWAP1 SWAP2 PUSH8 0xFFFFFFFFFFFFFFFF DUP2 AND SWAP1 PUSH9 0x10000000000000000 DUP2 DIV PUSH3 0xFFFFFF AND SWAP1 PUSH12 0x10000000000000000000000 SWAP1 DIV PUSH1 0xFF AND DUP9 JUMP JUMPDEST PUSH1 0x9 SLOAD PUSH20 0xFFFFFFFFFFFFFFFFFFFFFFFFFFFFFFFFFFFFFFFF AND CALLER EQ PUSH2 0xFE8 JUMPI PUSH1 0x40 MLOAD PUSH32 0x8C379A000000000000000000000000000000000000000000000000000000000 DUP2 MSTORE PUSH1 0x4 ADD PUSH2 0x3A4 SWAP1 PUSH1 0x20 DUP1 DUP3 MSTORE PUSH1 0x4 SWAP1 DUP3 ADD MSTORE PUSH32 0x21676F7600000000000000000000000000000000000000000000000000000000 PUSH1 0x40 DUP3 ADD MSTORE PUSH1 0x60 ADD SWAP1 JUMP JUMPDEST PUSH2 0x755 PUSH2 0x1B5E JUMP JUMPDEST PUSH1 0x2 PUSH1 0x1 SLOAD EQ ISZERO PUSH2 0x105D JUMPI PUSH1 0x40 MLOAD PUSH32 0x8C379A000000000000000000000000000000000000000000000000000000000 DUP2 MSTORE PUSH1 0x20 PUSH1 0x4 DUP3 ADD MSTORE PUSH1 0x1F PUSH1 0x24 DUP3 ADD MSTORE PUSH32 0x5265656E7472616E637947756172643A207265656E7472616E742063616C6C00 PUSH1 0x44 DUP3 ADD MSTORE PUSH1 0x64 ADD PUSH2 0x3A4 JUMP JUMPDEST PUSH1 0x2 PUSH1 0x1 SSTORE PUSH2 0x106E PUSH1 0x2 SLOAD PUSH1 0xFF AND SWAP1 JUMP JUMPDEST ISZERO PUSH2 0x10D5 JUMPI PUSH1 0x40 MLOAD PUSH32 0x8C379A000000000000000000000000000000000000000000000000000000000 DUP2 MSTORE PUSH1 0x20 PUSH1 0x4 DUP3 ADD MSTORE PUSH1 0x10 PUSH1 0x24 DUP3 ADD MSTORE PUSH32 0x5061757361626C653A2070617573656400000000000000000000000000000000 PUSH1 0x44 DUP3 ADD MSTORE PUSH1 0x64 ADD PUSH2 0x3A4 JUMP JUMPDEST PUSH1 0x40 MLOAD PUSH32 0xDFEBF9DC00000000000000000000000000000000000000000000000000000000 DUP2 MSTORE PUSH1 0x3 PUSH1 0x4 DUP3 ADD MSTORE PUSH20 0x0 SWAP1 PUSH4 0xDFEBF9DC SWAP1 PUSH1 0x24 ADD PUSH1 0x0 PUSH1 0x40 MLOAD DUP1 DUP4 SUB DUP2 DUP7 DUP1 EXTCODESIZE ISZERO DUP1 ISZERO PUSH2 0x1139 JUMPI PUSH1 0x0 DUP1 REVERT JUMPDEST POP GAS DELEGATECALL ISZERO DUP1 ISZERO PUSH2 0x114D JUMPI RETURNDATASIZE PUSH1 0x0 DUP1 RETURNDATACOPY RETURNDATASIZE PUSH1 0x0 REVERT JUMPDEST POP POP PUSH1 0x1 DUP1 SSTORE POP POP JUMP JUMPDEST PUSH1 0x9 SLOAD PUSH20 0xFFFFFFFFFFFFFFFFFFFFFFFFFFFFFFFFFFFFFFFF AND CALLER EQ PUSH2 0x11DA JUMPI PUSH1 0x40 MLOAD PUSH32 0x8C379A000000000000000000000000000000000000000000000000000000000 DUP2 MSTORE PUSH1 0x4 ADD PUSH2 0x3A4 SWAP1 PUSH1 0x20 DUP1 DUP3 MSTORE PUSH1 0x4 SWAP1 DUP3 ADD MSTORE PUSH32 0x21676F7600000000000000000000000000000000000000000000000000000000 PUSH1 0x40 DUP3 ADD MSTORE PUSH1 0x60 ADD SWAP1 JUMP JUMPDEST PUSH1 0x9 DUP1 SLOAD PUSH32 0xFFFFFFFFFFFFFFFFFFFFFFFF0000000000000000000000000000000000000000 AND PUSH20 0xFFFFFFFFFFFFFFFFFFFFFFFFFFFFFFFFFFFFFFFF SWAP3 SWAP1 SWAP3 AND SWAP2 SWAP1 SWAP2 OR SWAP1 SSTORE JUMP JUMPDEST PUSH1 0x2 PUSH1 0x1 SLOAD EQ ISZERO PUSH2 0x128E JUMPI PUSH1 0x40 MLOAD PUSH32 0x8C379A000000000000000000000000000000000000000000000000000000000 DUP2 MSTORE PUSH1 0x20 PUSH1 0x4 DUP3 ADD MSTORE PUSH1 0x1F PUSH1 0x24 DUP3 ADD MSTORE PUSH32 0x5265656E7472616E637947756172643A207265656E7472616E742063616C6C00 PUSH1 0x44 DUP3 ADD MSTORE PUSH1 0x64 ADD PUSH2 0x3A4 JUMP JUMPDEST PUSH1 0x2 PUSH1 0x1 SSTORE PUSH2 0x129F PUSH1 0x2 SLOAD PUSH1 0xFF AND SWAP1 JUMP JUMPDEST ISZERO PUSH2 0x1306 JUMPI PUSH1 0x40 MLOAD PUSH32 0x8C379A000000000000000000000000000000000000000000000000000000000 DUP2 MSTORE PUSH1 0x20 PUSH1 0x4 DUP3 ADD MSTORE PUSH1 0x10 PUSH1 0x24 DUP3 ADD MSTORE PUSH32 0x5061757361626C653A2070617573656400000000000000000000000000000000 PUSH1 0x44 DUP3 ADD MSTORE PUSH1 0x64 ADD PUSH2 0x3A4 JUMP JUMPDEST PUSH1 0x0 SLOAD PUSH20 0xFFFFFFFFFFFFFFFFFFFFFFFFFFFFFFFFFFFFFFFF AND CALLER EQ PUSH2 0x1387 JUMPI PUSH1 0x40 MLOAD PUSH32 0x8C379A000000000000000000000000000000000000000000000000000000000 DUP2 MSTORE PUSH1 0x20 PUSH1 0x4 DUP3 ADD DUP2 SWAP1 MSTORE PUSH1 0x24 DUP3 ADD MSTORE PUSH32 0x4F776E61626C653A2063616C6C6572206973206E6F7420746865206F776E6572 PUSH1 0x44 DUP3 ADD MSTORE PUSH1 0x64 ADD PUSH2 0x3A4 JUMP JUMPDEST PUSH2 0x138F PUSH2 0x1EFB JUMP JUMPDEST PUSH1 0x40 MLOAD PUSH32 0xEA02A08800000000000000000000000000000000000000000000000000000000 DUP2 MSTORE PUSH1 0x3 PUSH1 0x4 DUP3 ADD MSTORE PUSH20 0x0 SWAP1 PUSH4 0xEA02A088 SWAP1 PUSH1 0x24 ADD PUSH1 0x0 PUSH1 0x40 MLOAD DUP1 DUP4 SUB DUP2 DUP7 DUP1 EXTCODESIZE ISZERO DUP1 ISZERO PUSH2 0x13F3 JUMPI PUSH1 0x0 DUP1 REVERT JUMPDEST POP GAS DELEGATECALL ISZERO DUP1 ISZERO PUSH2 0x1407 JUMPI RETURNDATASIZE PUSH1 0x0 DUP1 RETURNDATACOPY RETURNDATASIZE PUSH1 0x0 REVERT JUMPDEST POP POP POP POP PUSH2 0x1413 PUSH2 0x1D96 JUMP JUMPDEST POP PUSH1 0x1 DUP1 SSTORE JUMP JUMPDEST PUSH1 0x0 SLOAD PUSH20 0xFFFFFFFFFFFFFFFFFFFFFFFFFFFFFFFFFFFFFFFF AND CALLER EQ PUSH2 0x149B JUMPI PUSH1 0x40 MLOAD PUSH32 0x8C379A000000000000000000000000000000000000000000000000000000000 DUP2 MSTORE PUSH1 0x20 PUSH1 0x4 DUP3 ADD DUP2 SWAP1 MSTORE PUSH1 0x24 DUP3 ADD MSTORE PUSH32 0x4F776E61626C653A2063616C6C6572206973206E6F7420746865206F776E6572 PUSH1 0x44 DUP3 ADD MSTORE PUSH1 0x64 ADD PUSH2 0x3A4 JUMP JUMPDEST PUSH20 0xFFFFFFFFFFFFFFFFFFFFFFFFFFFFFFFFFFFFFFFF DUP2 AND PUSH2 0x153E JUMPI PUSH1 0x40 MLOAD PUSH32 0x8C379A000000000000000000000000000000000000000000000000000000000 DUP2 MSTORE PUSH1 0x20 PUSH1 0x4 DUP3 ADD MSTORE PUSH1 0x26 PUSH1 0x24 DUP3 ADD MSTORE PUSH32 0x4F776E61626C653A206E6577206F776E657220697320746865207A65726F2061 PUSH1 0x44 DUP3 ADD MSTORE PUSH32 0x6464726573730000000000000000000000000000000000000000000000000000 PUSH1 0x64 DUP3 ADD MSTORE PUSH1 0x84 ADD PUSH2 0x3A4 JUMP JUMPDEST PUSH2 0x9DF DUP2 PUSH2 0x1E86 JUMP JUMPDEST PUSH1 0x0 DUP1 SLOAD PUSH20 0xFFFFFFFFFFFFFFFFFFFFFFFFFFFFFFFFFFFFFFFF AND CALLER EQ PUSH2 0x15C9 JUMPI PUSH1 0x40 MLOAD PUSH32 0x8C379A000000000000000000000000000000000000000000000000000000000 DUP2 MSTORE PUSH1 0x20 PUSH1 0x4 DUP3 ADD DUP2 SWAP1 MSTORE PUSH1 0x24 DUP3 ADD MSTORE PUSH32 0x4F776E61626C653A2063616C6C6572206973206E6F7420746865206F776E6572 PUSH1 0x44 DUP3 ADD MSTORE PUSH1 0x64 ADD PUSH2 0x3A4 JUMP JUMPDEST PUSH1 0x2 PUSH1 0x1 SLOAD EQ ISZERO PUSH2 0x1636 JUMPI PUSH1 0x40 MLOAD PUSH32 0x8C379A000000000000000000000000000000000000000000000000000000000 DUP2 MSTORE PUSH1 0x20 PUSH1 0x4 DUP3 ADD MSTORE PUSH1 0x1F PUSH1 0x24 DUP3 ADD MSTORE PUSH32 0x5265656E7472616E637947756172643A207265656E7472616E742063616C6C00 PUSH1 0x44 DUP3 ADD MSTORE PUSH1 0x64 ADD PUSH2 0x3A4 JUMP JUMPDEST PUSH1 0x2 PUSH1 0x1 SSTORE DUP2 PUSH2 0x16A2 JUMPI PUSH1 0x40 MLOAD PUSH32 0x8C379A000000000000000000000000000000000000000000000000000000000 DUP2 MSTORE PUSH1 0x20 PUSH1 0x4 DUP3 ADD MSTORE PUSH1 0xD PUSH1 0x24 DUP3 ADD MSTORE PUSH32 0x5F77616E74416D74206973203000000000000000000000000000000000000000 PUSH1 0x44 DUP3 ADD MSTORE PUSH1 0x64 ADD PUSH2 0x3A4 JUMP JUMPDEST PUSH1 0x4 DUP1 SLOAD PUSH1 0x40 MLOAD PUSH32 0x70A0823100000000000000000000000000000000000000000000000000000000 DUP2 MSTORE ADDRESS SWAP3 DUP2 ADD SWAP3 SWAP1 SWAP3 MSTORE PUSH1 0x3 SWAP2 PUSH1 0x8 SWAP2 PUSH1 0x0 SWAP2 PUSH20 0xFFFFFFFFFFFFFFFFFFFFFFFFFFFFFFFFFFFFFFFF SWAP1 SWAP2 AND SWAP1 PUSH4 0x70A08231 SWAP1 PUSH1 0x24 ADD PUSH1 0x20 PUSH1 0x40 MLOAD DUP1 DUP4 SUB DUP2 DUP7 DUP1 EXTCODESIZE ISZERO DUP1 ISZERO PUSH2 0x1717 JUMPI PUSH1 0x0 DUP1 REVERT JUMPDEST POP GAS STATICCALL ISZERO DUP1 ISZERO PUSH2 0x172B JUMPI RETURNDATASIZE PUSH1 0x0 DUP1 RETURNDATACOPY RETURNDATASIZE PUSH1 0x0 REVERT JUMPDEST POP POP POP POP PUSH1 0x40 MLOAD RETURNDATASIZE PUSH1 0x1F NOT PUSH1 0x1F DUP3 ADD AND DUP3 ADD DUP1 PUSH1 0x40 MSTORE POP DUP2 ADD SWAP1 PUSH2 0x174F SWAP2 SWAP1 PUSH2 0x2523 JUMP JUMPDEST SWAP1 POP DUP1 DUP6 GT ISZERO PUSH2 0x1811 JUMPI PUSH2 0x176B PUSH2 0x1766 DUP3 DUP8 PUSH2 0x28C0 JUMP JUMPDEST PUSH2 0x1F6D JUMP JUMPDEST PUSH1 0x1 DUP4 ADD SLOAD PUSH1 0x40 MLOAD PUSH32 0x70A0823100000000000000000000000000000000000000000000000000000000 DUP2 MSTORE ADDRESS PUSH1 0x4 DUP3 ADD MSTORE PUSH20 0xFFFFFFFFFFFFFFFFFFFFFFFFFFFFFFFFFFFFFFFF SWAP1 SWAP2 AND SWAP1 PUSH4 0x70A08231 SWAP1 PUSH1 0x24 ADD PUSH1 0x20 PUSH1 0x40 MLOAD DUP1 DUP4 SUB DUP2 DUP7 DUP1 EXTCODESIZE ISZERO DUP1 ISZERO PUSH2 0x17D6 JUMPI PUSH1 0x0 DUP1 REVERT JUMPDEST POP GAS STATICCALL ISZERO DUP1 ISZERO PUSH2 0x17EA JUMPI RETURNDATASIZE PUSH1 0x0 DUP1 RETURNDATACOPY RETURNDATASIZE PUSH1 0x0 REVERT JUMPDEST POP POP POP POP PUSH1 0x40 MLOAD RETURNDATASIZE PUSH1 0x1F NOT PUSH1 0x1F DUP3 ADD AND DUP3 ADD DUP1 PUSH1 0x40 MSTORE POP DUP2 ADD SWAP1 PUSH2 0x180E SWAP2 SWAP1 PUSH2 0x2523 JUMP JUMPDEST SWAP1 POP JUMPDEST DUP1 DUP6 GT ISZERO PUSH2 0x181D JUMPI DUP1 SWAP5 POP JUMPDEST PUSH2 0x1825 PUSH2 0x603 JUMP JUMPDEST DUP6 GT ISZERO PUSH2 0x1837 JUMPI PUSH2 0x1834 PUSH2 0x603 JUMP JUMPDEST SWAP5 POP JUMPDEST PUSH1 0x0 PUSH2 0x1857 PUSH2 0x1844 PUSH2 0x603 JUMP JUMPDEST PUSH1 0x12 SLOAD PUSH2 0x1851 SWAP1 DUP10 PUSH2 0x2883 JUMP JUMPDEST SWAP1 PUSH2 0x2011 JUMP JUMPDEST PUSH1 0x12 SLOAD SWAP1 SWAP2 POP DUP2 GT ISZERO PUSH2 0x1869 JUMPI POP PUSH1 0x12 SLOAD JUMPDEST DUP1 PUSH1 0x3 PUSH1 0xF ADD PUSH1 0x0 DUP3 DUP3 SLOAD PUSH2 0x187E SWAP2 SWAP1 PUSH2 0x28C0 JUMP JUMPDEST SWAP1 SWAP2 SSTORE POP POP DUP3 SLOAD PUSH1 0x0 SWAP1 PUSH2 0x2710 SWAP1 PUSH2 0x18B8 SWAP1 PUSH27 0x10000000000000000000000000000000000000000000000000000 SWAP1 DIV PUSH2 0xFFFF AND DUP3 PUSH2 0x28C0 JUMP JUMPDEST PUSH2 0x18C2 SWAP1 DUP10 PUSH2 0x2883 JUMP JUMPDEST PUSH2 0x18CC SWAP2 SWAP1 PUSH2 0x286F JUMP JUMPDEST SWAP1 POP DUP1 ISZERO PUSH2 0x190E JUMPI PUSH1 0x1 DUP6 ADD SLOAD PUSH2 0x190E SWAP1 PUSH20 0xFFFFFFFFFFFFFFFFFFFFFFFFFFFFFFFFFFFFFFFF AND PUSH20 0x5386881B46C37CDD30A748F7771CF95D7B213637 DUP4 PUSH2 0x204A JUMP JUMPDEST PUSH2 0x1918 DUP2 DUP9 PUSH2 0x28C0 JUMP JUMPDEST DUP6 SLOAD PUSH1 0x1 DUP8 ADD SLOAD SWAP2 SWAP9 POP PUSH2 0x1946 SWAP2 PUSH20 0xFFFFFFFFFFFFFFFFFFFFFFFFFFFFFFFFFFFFFFFF SWAP1 DUP2 AND SWAP2 AND DUP10 PUSH2 0x204A JUMP JUMPDEST POP PUSH1 0x1 DUP1 SSTORE SWAP7 SWAP6 POP POP POP POP POP POP JUMP JUMPDEST PUSH1 0x60 DUP2 MLOAD PUSH8 0xFFFFFFFFFFFFFFFF DUP2 GT ISZERO PUSH2 0x1971 JUMPI PUSH2 0x1971 PUSH2 0x29DD JUMP JUMPDEST PUSH1 0x40 MLOAD SWAP1 DUP1 DUP3 MSTORE DUP1 PUSH1 0x20 MUL PUSH1 0x20 ADD DUP3 ADD PUSH1 0x40 MSTORE DUP1 ISZERO PUSH2 0x199A JUMPI DUP2 PUSH1 0x20 ADD PUSH1 0x20 DUP3 MUL DUP1 CALLDATASIZE DUP4 CALLDATACOPY ADD SWAP1 POP JUMPDEST POP SWAP1 POP PUSH1 0x0 JUMPDEST PUSH1 0x2 DUP4 MLOAD PUSH1 0x1 PUSH2 0x19B0 SWAP2 SWAP1 PUSH2 0x2857 JUMP JUMPDEST PUSH2 0x19BA SWAP2 SWAP1 PUSH2 0x286F JUMP JUMPDEST DUP2 LT ISZERO PUSH2 0x1A77 JUMPI PUSH1 0x0 DUP2 PUSH1 0x1 DUP6 MLOAD PUSH2 0x19D2 SWAP2 SWAP1 PUSH2 0x28C0 JUMP JUMPDEST PUSH2 0x19DC SWAP2 SWAP1 PUSH2 0x28C0 JUMP JUMPDEST SWAP1 POP DUP4 DUP2 DUP2 MLOAD DUP2 LT PUSH2 0x19F0 JUMPI PUSH2 0x19F0 PUSH2 0x29AE JUMP JUMPDEST PUSH1 0x20 MUL PUSH1 0x20 ADD ADD MLOAD DUP5 DUP4 DUP2 MLOAD DUP2 LT PUSH2 0x1A0A JUMPI PUSH2 0x1A0A PUSH2 0x29AE JUMP JUMPDEST PUSH1 0x20 MUL PUSH1 0x20 ADD ADD MLOAD DUP5 DUP5 DUP2 MLOAD DUP2 LT PUSH2 0x1A24 JUMPI PUSH2 0x1A24 PUSH2 0x29AE JUMP JUMPDEST PUSH1 0x20 MUL PUSH1 0x20 ADD ADD DUP6 DUP5 DUP2 MLOAD DUP2 LT PUSH2 0x1A3D JUMPI PUSH2 0x1A3D PUSH2 0x29AE JUMP JUMPDEST PUSH20 0xFFFFFFFFFFFFFFFFFFFFFFFFFFFFFFFFFFFFFFFF SWAP4 DUP5 AND PUSH1 0x20 SWAP2 DUP3 MUL SWAP3 SWAP1 SWAP3 ADD ADD MSTORE SWAP2 AND SWAP1 MSTORE POP DUP1 PUSH2 0x1A6F DUP2 PUSH2 0x2903 JUMP JUMPDEST SWAP2 POP POP PUSH2 0x19A0 JUMP JUMPDEST POP SWAP2 SWAP1 POP JUMP JUMPDEST PUSH1 0x2 SLOAD PUSH1 0xFF AND PUSH2 0x1AE9 JUMPI PUSH1 0x40 MLOAD PUSH32 0x8C379A000000000000000000000000000000000000000000000000000000000 DUP2 MSTORE PUSH1 0x20 PUSH1 0x4 DUP3 ADD MSTORE PUSH1 0x14 PUSH1 0x24 DUP3 ADD MSTORE PUSH32 0x5061757361626C653A206E6F7420706175736564000000000000000000000000 PUSH1 0x44 DUP3 ADD MSTORE PUSH1 0x64 ADD PUSH2 0x3A4 JUMP JUMPDEST PUSH1 0x2 DUP1 SLOAD PUSH32 0xFFFFFFFFFFFFFFFFFFFFFFFFFFFFFFFFFFFFFFFFFFFFFFFFFFFFFFFFFFFFFF00 AND SWAP1 SSTORE PUSH32 0x5DB9EE0A495BF2E6FF9C91A7834C1BA4FDD244A5E8AA4E537BD38AEAE4B073AA CALLER JUMPDEST PUSH1 0x40 MLOAD PUSH20 0xFFFFFFFFFFFFFFFFFFFFFFFFFFFFFFFFFFFFFFFF SWAP1 SWAP2 AND DUP2 MSTORE PUSH1 0x20 ADD PUSH1 0x40 MLOAD DUP1 SWAP2 SUB SWAP1 LOG1 JUMP JUMPDEST PUSH1 0x2 SLOAD PUSH1 0xFF AND ISZERO PUSH2 0x1BCB JUMPI PUSH1 0x40 MLOAD PUSH32 0x8C379A000000000000000000000000000000000000000000000000000000000 DUP2 MSTORE PUSH1 0x20 PUSH1 0x4 DUP3 ADD MSTORE PUSH1 0x10 PUSH1 0x24 DUP3 ADD MSTORE PUSH32 0x5061757361626C653A2070617573656400000000000000000000000000000000 PUSH1 0x44 DUP3 ADD MSTORE PUSH1 0x64 ADD PUSH2 0x3A4 JUMP JUMPDEST PUSH1 0x2 DUP1 SLOAD PUSH32 0xFFFFFFFFFFFFFFFFFFFFFFFFFFFFFFFFFFFFFFFFFFFFFFFFFFFFFFFFFFFFFF00 AND PUSH1 0x1 OR SWAP1 SSTORE PUSH32 0x62E78CEA01BEE320CD4E420270B5EA74000D11B0C9F74754EBDBFC544B05A258 PUSH2 0x1B34 CALLER SWAP1 JUMP JUMPDEST PUSH1 0x6 SLOAD PUSH1 0x14 SLOAD PUSH1 0x40 MLOAD PUSH32 0x5312EA8E00000000000000000000000000000000000000000000000000000000 DUP2 MSTORE PUSH9 0x10000000000000000 SWAP1 SWAP2 DIV PUSH3 0xFFFFFF AND PUSH1 0x4 DUP3 ADD MSTORE PUSH1 0x3 SWAP2 PUSH20 0xFFFFFFFFFFFFFFFFFFFFFFFFFFFFFFFFFFFFFFFF AND SWAP1 PUSH4 0x5312EA8E SWAP1 PUSH1 0x24 ADD JUMPDEST PUSH1 0x0 PUSH1 0x40 MLOAD DUP1 DUP4 SUB DUP2 PUSH1 0x0 DUP8 DUP1 EXTCODESIZE ISZERO DUP1 ISZERO PUSH2 0x1C9F JUMPI PUSH1 0x0 DUP1 REVERT JUMPDEST POP GAS CALL ISZERO DUP1 ISZERO PUSH2 0x1CB3 JUMPI RETURNDATASIZE PUSH1 0x0 DUP1 RETURNDATACOPY RETURNDATASIZE PUSH1 0x0 REVERT JUMPDEST POP POP POP POP POP JUMP JUMPDEST PUSH1 0x40 MLOAD PUSH20 0xFFFFFFFFFFFFFFFFFFFFFFFFFFFFFFFFFFFFFFFF DUP1 DUP6 AND PUSH1 0x24 DUP4 ADD MSTORE DUP4 AND PUSH1 0x44 DUP3 ADD MSTORE PUSH1 0x64 DUP2 ADD DUP3 SWAP1 MSTORE PUSH2 0x572 SWAP1 DUP6 SWAP1 PUSH32 0x23B872DD00000000000000000000000000000000000000000000000000000000 SWAP1 PUSH1 0x84 ADD JUMPDEST PUSH1 0x40 DUP1 MLOAD PUSH32 0xFFFFFFFFFFFFFFFFFFFFFFFFFFFFFFFFFFFFFFFFFFFFFFFFFFFFFFFFFFFFFFE0 DUP2 DUP5 SUB ADD DUP2 MSTORE SWAP2 SWAP1 MSTORE PUSH1 0x20 DUP2 ADD DUP1 MLOAD PUSH28 0xFFFFFFFFFFFFFFFFFFFFFFFFFFFFFFFFFFFFFFFFFFFFFFFFFFFFFFFF AND PUSH32 0xFFFFFFFF00000000000000000000000000000000000000000000000000000000 SWAP1 SWAP4 AND SWAP3 SWAP1 SWAP3 OR SWAP1 SWAP2 MSTORE PUSH2 0x20A5 JUMP JUMPDEST PUSH1 0x4 DUP1 SLOAD PUSH1 0x40 MLOAD PUSH32 0x70A0823100000000000000000000000000000000000000000000000000000000 DUP2 MSTORE ADDRESS SWAP3 DUP2 ADD SWAP3 SWAP1 SWAP3 MSTORE PUSH1 0x0 SWAP2 PUSH1 0x3 SWAP2 DUP4 SWAP2 PUSH20 0xFFFFFFFFFFFFFFFFFFFFFFFFFFFFFFFFFFFFFFFF SWAP1 SWAP2 AND SWAP1 PUSH4 0x70A08231 SWAP1 PUSH1 0x24 ADD PUSH1 0x20 PUSH1 0x40 MLOAD DUP1 DUP4 SUB DUP2 DUP7 DUP1 EXTCODESIZE ISZERO DUP1 ISZERO PUSH2 0x1E0A JUMPI PUSH1 0x0 DUP1 REVERT JUMPDEST POP GAS STATICCALL ISZERO DUP1 ISZERO PUSH2 0x1E1E JUMPI RETURNDATASIZE PUSH1 0x0 DUP1 RETURNDATACOPY RETURNDATASIZE PUSH1 0x0 REVERT JUMPDEST POP POP POP POP PUSH1 0x40 MLOAD RETURNDATASIZE PUSH1 0x1F NOT PUSH1 0x1F DUP3 ADD AND DUP3 ADD DUP1 PUSH1 0x40 MSTORE POP DUP2 ADD SWAP1 PUSH2 0x1E42 SWAP2 SWAP1 PUSH2 0x2523 JUMP JUMPDEST SWAP1 POP DUP1 PUSH2 0x1E52 JUMPI PUSH1 0x0 SWAP3 POP POP POP SWAP1 JUMP JUMPDEST PUSH1 0x0 PUSH2 0x1E5C PUSH2 0x259 JUMP JUMPDEST SWAP1 POP PUSH2 0x1E67 DUP3 PUSH2 0x21B1 JUMP JUMPDEST PUSH1 0x0 PUSH2 0x1E71 PUSH2 0x259 JUMP JUMPDEST SWAP1 POP PUSH2 0x1E7D DUP3 DUP3 PUSH2 0x28C0 JUMP JUMPDEST SWAP5 POP POP POP POP POP SWAP1 JUMP JUMPDEST PUSH1 0x0 DUP1 SLOAD PUSH20 0xFFFFFFFFFFFFFFFFFFFFFFFFFFFFFFFFFFFFFFFF DUP4 DUP2 AND PUSH32 0xFFFFFFFFFFFFFFFFFFFFFFFF0000000000000000000000000000000000000000 DUP4 AND DUP2 OR DUP5 SSTORE PUSH1 0x40 MLOAD SWAP2 SWAP1 SWAP3 AND SWAP3 DUP4 SWAP2 PUSH32 0x8BE0079C531659141344CD1FD0A4F28419497F9722A3DAAFE3B4186F6B6457E0 SWAP2 SWAP1 LOG3 POP POP JUMP JUMPDEST PUSH1 0x6 SLOAD PUSH1 0x14 SLOAD PUSH1 0x40 MLOAD PUSH32 0x441A3E7000000000000000000000000000000000000000000000000000000000 DUP2 MSTORE PUSH9 0x10000000000000000 SWAP1 SWAP2 DIV PUSH3 0xFFFFFF AND PUSH1 0x4 DUP3 ADD MSTORE PUSH1 0x0 PUSH1 0x24 DUP3 ADD MSTORE PUSH1 0x3 SWAP2 PUSH20 0xFFFFFFFFFFFFFFFFFFFFFFFFFFFFFFFFFFFFFFFF AND SWAP1 PUSH4 0x441A3E70 SWAP1 PUSH1 0x44 ADD PUSH2 0x1C85 JUMP JUMPDEST PUSH1 0x6 SLOAD PUSH1 0x14 SLOAD PUSH1 0x40 MLOAD PUSH32 0x441A3E7000000000000000000000000000000000000000000000000000000000 DUP2 MSTORE PUSH9 0x10000000000000000 SWAP1 SWAP2 DIV PUSH3 0xFFFFFF AND PUSH1 0x4 DUP3 ADD MSTORE PUSH1 0x24 DUP2 ADD DUP4 SWAP1 MSTORE PUSH1 0x3 SWAP2 PUSH20 0xFFFFFFFFFFFFFFFFFFFFFFFFFFFFFFFFFFFFFFFF AND SWAP1 PUSH4 0x441A3E70 SWAP1 PUSH1 0x44 ADD JUMPDEST PUSH1 0x0 PUSH1 0x40 MLOAD DUP1 DUP4 SUB DUP2 PUSH1 0x0 DUP8 DUP1 EXTCODESIZE ISZERO DUP1 ISZERO PUSH2 0x1FF5 JUMPI PUSH1 0x0 DUP1 REVERT JUMPDEST POP GAS CALL ISZERO DUP1 ISZERO PUSH2 0x2009 JUMPI RETURNDATASIZE PUSH1 0x0 DUP1 RETURNDATACOPY RETURNDATASIZE PUSH1 0x0 REVERT JUMPDEST POP POP POP POP POP POP JUMP JUMPDEST PUSH1 0x0 PUSH2 0x201D DUP3 DUP5 PUSH2 0x293C JUMP JUMPDEST ISZERO PUSH2 0x2029 JUMPI PUSH1 0x1 PUSH2 0x202C JUMP JUMPDEST PUSH1 0x0 JUMPDEST PUSH1 0xFF AND PUSH2 0x2039 DUP4 DUP6 PUSH2 0x286F JUMP JUMPDEST PUSH2 0x2043 SWAP2 SWAP1 PUSH2 0x2857 JUMP JUMPDEST SWAP4 SWAP3 POP POP POP JUMP JUMPDEST PUSH1 0x40 MLOAD PUSH20 0xFFFFFFFFFFFFFFFFFFFFFFFFFFFFFFFFFFFFFFFF DUP4 AND PUSH1 0x24 DUP3 ADD MSTORE PUSH1 0x44 DUP2 ADD DUP3 SWAP1 MSTORE PUSH2 0x20A0 SWAP1 DUP5 SWAP1 PUSH32 0xA9059CBB00000000000000000000000000000000000000000000000000000000 SWAP1 PUSH1 0x64 ADD PUSH2 0x1D14 JUMP JUMPDEST POP POP POP JUMP JUMPDEST PUSH1 0x0 PUSH2 0x2107 DUP3 PUSH1 0x40 MLOAD DUP1 PUSH1 0x40 ADD PUSH1 0x40 MSTORE DUP1 PUSH1 0x20 DUP2 MSTORE PUSH1 0x20 ADD PUSH32 0x5361666545524332303A206C6F772D6C6576656C2063616C6C206661696C6564 DUP2 MSTORE POP DUP6 PUSH20 0xFFFFFFFFFFFFFFFFFFFFFFFFFFFFFFFFFFFFFFFF AND PUSH2 0x2223 SWAP1 SWAP3 SWAP2 SWAP1 PUSH4 0xFFFFFFFF AND JUMP JUMPDEST DUP1 MLOAD SWAP1 SWAP2 POP ISZERO PUSH2 0x20A0 JUMPI DUP1 DUP1 PUSH1 0x20 ADD SWAP1 MLOAD DUP2 ADD SWAP1 PUSH2 0x2125 SWAP2 SWAP1 PUSH2 0x248D JUMP JUMPDEST PUSH2 0x20A0 JUMPI PUSH1 0x40 MLOAD PUSH32 0x8C379A000000000000000000000000000000000000000000000000000000000 DUP2 MSTORE PUSH1 0x20 PUSH1 0x4 DUP3 ADD MSTORE PUSH1 0x2A PUSH1 0x24 DUP3 ADD MSTORE PUSH32 0x5361666545524332303A204552433230206F7065726174696F6E20646964206E PUSH1 0x44 DUP3 ADD MSTORE PUSH32 0x6F74207375636365656400000000000000000000000000000000000000000000 PUSH1 0x64 DUP3 ADD MSTORE PUSH1 0x84 ADD PUSH2 0x3A4 JUMP JUMPDEST PUSH1 0x6 SLOAD PUSH1 0x14 SLOAD PUSH1 0x40 MLOAD PUSH32 0xE2BBB15800000000000000000000000000000000000000000000000000000000 DUP2 MSTORE PUSH9 0x10000000000000000 SWAP1 SWAP2 DIV PUSH3 0xFFFFFF AND PUSH1 0x4 DUP3 ADD MSTORE PUSH1 0x24 DUP2 ADD DUP4 SWAP1 MSTORE PUSH1 0x3 SWAP2 PUSH20 0xFFFFFFFFFFFFFFFFFFFFFFFFFFFFFFFFFFFFFFFF AND SWAP1 PUSH4 0xE2BBB158 SWAP1 PUSH1 0x44 ADD PUSH2 0x1FDB JUMP JUMPDEST PUSH1 0x60 PUSH2 0x2232 DUP5 DUP5 PUSH1 0x0 DUP6 PUSH2 0x223A JUMP JUMPDEST SWAP5 SWAP4 POP POP POP POP JUMP JUMPDEST PUSH1 0x60 DUP3 SELFBALANCE LT ISZERO PUSH2 0x22CC JUMPI PUSH1 0x40 MLOAD PUSH32 0x8C379A000000000000000000000000000000000000000000000000000000000 DUP2 MSTORE PUSH1 0x20 PUSH1 0x4 DUP3 ADD MSTORE PUSH1 0x26 PUSH1 0x24 DUP3 ADD MSTORE PUSH32 0x416464726573733A20696E73756666696369656E742062616C616E636520666F PUSH1 0x44 DUP3 ADD MSTORE PUSH32 0x722063616C6C0000000000000000000000000000000000000000000000000000 PUSH1 0x64 DUP3 ADD MSTORE PUSH1 0x84 ADD PUSH2 0x3A4 JUMP JUMPDEST DUP5 EXTCODESIZE PUSH2 0x2334 JUMPI PUSH1 0x40 MLOAD PUSH32 0x8C379A000000000000000000000000000000000000000000000000000000000 DUP2 MSTORE PUSH1 0x20 PUSH1 0x4 DUP3 ADD MSTORE PUSH1 0x1D PUSH1 0x24 DUP3 ADD MSTORE PUSH32 0x416464726573733A2063616C6C20746F206E6F6E2D636F6E7472616374000000 PUSH1 0x44 DUP3 ADD MSTORE PUSH1 0x64 ADD PUSH2 0x3A4 JUMP JUMPDEST PUSH1 0x0 DUP1 DUP7 PUSH20 0xFFFFFFFFFFFFFFFFFFFFFFFFFFFFFFFFFFFFFFFF AND DUP6 DUP8 PUSH1 0x40 MLOAD PUSH2 0x235D SWAP2 SWAP1 PUSH2 0x26C1 JUMP JUMPDEST PUSH1 0x0 PUSH1 0x40 MLOAD DUP1 DUP4 SUB DUP2 DUP6 DUP8 GAS CALL SWAP3 POP POP POP RETURNDATASIZE DUP1 PUSH1 0x0 DUP2 EQ PUSH2 0x239A JUMPI PUSH1 0x40 MLOAD SWAP2 POP PUSH1 0x1F NOT PUSH1 0x3F RETURNDATASIZE ADD AND DUP3 ADD PUSH1 0x40 MSTORE RETURNDATASIZE DUP3 MSTORE RETURNDATASIZE PUSH1 0x0 PUSH1 0x20 DUP5 ADD RETURNDATACOPY PUSH2 0x239F JUMP JUMPDEST PUSH1 0x60 SWAP2 POP JUMPDEST POP SWAP2 POP SWAP2 POP PUSH2 0x23AF DUP3 DUP3 DUP7 PUSH2 0x23BA JUMP JUMPDEST SWAP8 SWAP7 POP POP POP POP POP POP POP JUMP JUMPDEST PUSH1 0x60 DUP4 ISZERO PUSH2 0x23C9 JUMPI POP DUP2 PUSH2 0x2043 JUMP JUMPDEST DUP3 MLOAD ISZERO PUSH2 0x23D9 JUMPI DUP3 MLOAD DUP1 DUP5 PUSH1 0x20 ADD REVERT JUMPDEST DUP2 PUSH1 0x40 MLOAD PUSH32 0x8C379A000000000000000000000000000000000000000000000000000000000 DUP2 MSTORE PUSH1 0x4 ADD PUSH2 0x3A4 SWAP2 SWAP1 PUSH2 0x26DD JUMP JUMPDEST DUP1 CALLDATALOAD PUSH20 0xFFFFFFFFFFFFFFFFFFFFFFFFFFFFFFFFFFFFFFFF DUP2 AND DUP2 EQ PUSH2 0x2431 JUMPI PUSH1 0x0 DUP1 REVERT JUMPDEST SWAP2 SWAP1 POP JUMP JUMPDEST DUP1 CALLDATALOAD PUSH2 0xFFFF DUP2 AND DUP2 EQ PUSH2 0x2431 JUMPI PUSH1 0x0 DUP1 REVERT JUMPDEST PUSH1 0x0 PUSH1 0x20 DUP3 DUP5 SUB SLT ISZERO PUSH2 0x245A JUMPI PUSH1 0x0 DUP1 REVERT JUMPDEST PUSH2 0x2043 DUP3 PUSH2 0x240D JUMP JUMPDEST PUSH1 0x0 DUP1 PUSH1 0x40 DUP4 DUP6 SUB SLT ISZERO PUSH2 0x2476 JUMPI PUSH1 0x0 DUP1 REVERT JUMPDEST PUSH2 0x247F DUP4 PUSH2 0x240D JUMP JUMPDEST SWAP5 PUSH1 0x20 SWAP4 SWAP1 SWAP4 ADD CALLDATALOAD SWAP4 POP POP POP JUMP JUMPDEST PUSH1 0x0 PUSH1 0x20 DUP3 DUP5 SUB SLT ISZERO PUSH2 0x249F JUMPI PUSH1 0x0 DUP1 REVERT JUMPDEST DUP2 MLOAD DUP1 ISZERO ISZERO DUP2 EQ PUSH2 0x2043 JUMPI PUSH1 0x0 DUP1 REVERT JUMPDEST PUSH1 0x0 DUP1 PUSH1 0x0 DUP1 PUSH1 0x0 DUP1 PUSH1 0xC0 DUP8 DUP10 SUB SLT ISZERO PUSH2 0x24C8 JUMPI PUSH1 0x0 DUP1 REVERT JUMPDEST PUSH2 0x24D1 DUP8 PUSH2 0x2436 JUMP JUMPDEST SWAP6 POP PUSH2 0x24DF PUSH1 0x20 DUP9 ADD PUSH2 0x2436 JUMP JUMPDEST SWAP5 POP PUSH2 0x24ED PUSH1 0x40 DUP9 ADD PUSH2 0x2436 JUMP JUMPDEST SWAP4 POP PUSH2 0x24FB PUSH1 0x60 DUP9 ADD PUSH2 0x2436 JUMP JUMPDEST SWAP3 POP PUSH2 0x2509 PUSH1 0x80 DUP9 ADD PUSH2 0x2436 JUMP JUMPDEST SWAP2 POP PUSH2 0x2517 PUSH1 0xA0 DUP9 ADD PUSH2 0x240D JUMP JUMPDEST SWAP1 POP SWAP3 SWAP6 POP SWAP3 SWAP6 POP SWAP3 SWAP6 JUMP JUMPDEST PUSH1 0x0 PUSH1 0x20 DUP3 DUP5 SUB SLT ISZERO PUSH2 0x2535 JUMPI PUSH1 0x0 DUP1 REVERT JUMPDEST POP MLOAD SWAP2 SWAP1 POP JUMP JUMPDEST PUSH1 0x0 DUP1 PUSH1 0x40 DUP4 DUP6 SUB SLT ISZERO PUSH2 0x254F JUMPI PUSH1 0x0 DUP1 REVERT JUMPDEST POP POP DUP1 MLOAD PUSH1 0x20 SWAP1 SWAP2 ADD MLOAD SWAP1 SWAP3 SWAP1 SWAP2 POP JUMP JUMPDEST PUSH1 0x0 DUP2 MLOAD DUP1 DUP5 MSTORE PUSH1 0x20 DUP1 DUP6 ADD SWAP5 POP DUP1 DUP5 ADD PUSH1 0x0 JUMPDEST DUP4 DUP2 LT ISZERO PUSH2 0x25A6 JUMPI DUP2 MLOAD PUSH20 0xFFFFFFFFFFFFFFFFFFFFFFFFFFFFFFFFFFFFFFFF AND DUP8 MSTORE SWAP6 DUP3 ADD SWAP6 SWAP1 DUP3 ADD SWAP1 PUSH1 0x1 ADD PUSH2 0x2574 JUMP JUMPDEST POP SWAP5 SWAP6 SWAP5 POP POP POP POP POP JUMP JUMPDEST PUSH1 0x4 DUP2 LT PUSH2 0x25E8 JUMPI PUSH32 0x4E487B7100000000000000000000000000000000000000000000000000000000 PUSH1 0x0 MSTORE PUSH1 0x21 PUSH1 0x4 MSTORE PUSH1 0x24 PUSH1 0x0 REVERT JUMPDEST SWAP1 MSTORE JUMP JUMPDEST PUSH1 0x0 PUSH2 0x100 DUP3 MLOAD DUP2 DUP6 MSTORE PUSH2 0x2602 DUP3 DUP7 ADD DUP3 PUSH2 0x2560 JUMP JUMPDEST SWAP2 POP POP PUSH1 0x20 DUP4 ADD MLOAD DUP5 DUP3 SUB PUSH1 0x20 DUP7 ADD MSTORE PUSH2 0x261C DUP3 DUP3 PUSH2 0x2560 JUMP JUMPDEST SWAP2 POP POP PUSH1 0x40 DUP4 ADD MLOAD DUP5 DUP3 SUB PUSH1 0x40 DUP7 ADD MSTORE PUSH2 0x2636 DUP3 DUP3 PUSH2 0x2560 JUMP JUMPDEST SWAP2 POP POP PUSH1 0x60 DUP4 ADD MLOAD DUP5 DUP3 SUB PUSH1 0x60 DUP7 ADD MSTORE PUSH2 0x2650 DUP3 DUP3 PUSH2 0x2560 JUMP JUMPDEST SWAP2 POP POP PUSH1 0x80 DUP4 ADD MLOAD DUP5 DUP3 SUB PUSH1 0x80 DUP7 ADD MSTORE PUSH2 0x266A DUP3 DUP3 PUSH2 0x2560 JUMP JUMPDEST SWAP2 POP POP PUSH1 0xA0 DUP4 ADD MLOAD DUP5 DUP3 SUB PUSH1 0xA0 DUP7 ADD MSTORE PUSH2 0x2684 DUP3 DUP3 PUSH2 0x2560 JUMP JUMPDEST SWAP2 POP POP PUSH1 0xC0 DUP4 ADD MLOAD DUP5 DUP3 SUB PUSH1 0xC0 DUP7 ADD MSTORE PUSH2 0x269E DUP3 DUP3 PUSH2 0x2560 JUMP JUMPDEST SWAP2 POP POP PUSH1 0xE0 DUP4 ADD MLOAD DUP5 DUP3 SUB PUSH1 0xE0 DUP7 ADD MSTORE PUSH2 0x26B8 DUP3 DUP3 PUSH2 0x2560 JUMP JUMPDEST SWAP6 SWAP5 POP POP POP POP POP JUMP JUMPDEST PUSH1 0x0 DUP3 MLOAD PUSH2 0x26D3 DUP2 DUP5 PUSH1 0x20 DUP8 ADD PUSH2 0x28D7 JUMP JUMPDEST SWAP2 SWAP1 SWAP2 ADD SWAP3 SWAP2 POP POP JUMP JUMPDEST PUSH1 0x20 DUP2 MSTORE PUSH1 0x0 DUP3 MLOAD DUP1 PUSH1 0x20 DUP5 ADD MSTORE PUSH2 0x26FC DUP2 PUSH1 0x40 DUP6 ADD PUSH1 0x20 DUP8 ADD PUSH2 0x28D7 JUMP JUMPDEST PUSH1 0x1F ADD PUSH32 0xFFFFFFFFFFFFFFFFFFFFFFFFFFFFFFFFFFFFFFFFFFFFFFFFFFFFFFFFFFFFFFE0 AND SWAP2 SWAP1 SWAP2 ADD PUSH1 0x40 ADD SWAP3 SWAP2 POP POP JUMP JUMPDEST PUSH1 0x0 PUSH2 0x240 PUSH20 0xFFFFFFFFFFFFFFFFFFFFFFFFFFFFFFFFFFFFFFFF DUP1 DUP13 MLOAD AND DUP5 MSTORE DUP1 PUSH1 0x20 DUP14 ADD MLOAD AND PUSH1 0x20 DUP6 ADD MSTORE DUP1 PUSH1 0x40 DUP14 ADD MLOAD AND PUSH1 0x40 DUP6 ADD MSTORE DUP1 PUSH1 0x60 DUP14 ADD MLOAD AND PUSH1 0x60 DUP6 ADD MSTORE DUP1 PUSH1 0x80 DUP14 ADD MLOAD AND PUSH1 0x80 DUP6 ADD MSTORE POP PUSH2 0x27F5 PUSH1 0xA0 DUP5 ADD DUP12 PUSH20 0xFFFFFFFFFFFFFFFFFFFFFFFFFFFFFFFFFFFFFFFF DUP1 DUP3 MLOAD AND DUP4 MSTORE PUSH1 0x20 DUP3 ADD MLOAD PUSH2 0xFFFF DUP1 DUP3 AND PUSH1 0x20 DUP7 ADD MSTORE DUP1 PUSH1 0x40 DUP6 ADD MLOAD AND PUSH1 0x40 DUP7 ADD MSTORE DUP1 PUSH1 0x60 DUP6 ADD MLOAD AND PUSH1 0x60 DUP7 ADD MSTORE DUP1 PUSH1 0x80 DUP6 ADD MLOAD AND PUSH1 0x80 DUP7 ADD MSTORE DUP1 PUSH1 0xA0 DUP6 ADD MLOAD AND PUSH1 0xA0 DUP7 ADD MSTORE POP POP DUP1 PUSH1 0xC0 DUP4 ADD MLOAD AND PUSH1 0xC0 DUP5 ADD MSTORE POP POP POP JUMP JUMPDEST DUP1 PUSH2 0x180 DUP5 ADD MSTORE PUSH2 0x2808 DUP2 DUP5 ADD DUP11 PUSH2 0x25EC JUMP JUMPDEST SWAP2 POP POP DUP7 PUSH2 0x1A0 DUP4 ADD MSTORE DUP6 PUSH2 0x1C0 DUP4 ADD MSTORE PUSH2 0x2830 PUSH2 0x1E0 DUP4 ADD DUP7 PUSH8 0xFFFFFFFFFFFFFFFF AND SWAP1 MSTORE JUMP JUMPDEST PUSH3 0xFFFFFF DUP5 AND PUSH2 0x200 DUP4 ADD MSTORE PUSH2 0x284A PUSH2 0x220 DUP4 ADD DUP5 PUSH2 0x25B1 JUMP JUMPDEST SWAP10 SWAP9 POP POP POP POP POP POP POP POP POP JUMP JUMPDEST PUSH1 0x0 DUP3 NOT DUP3 GT ISZERO PUSH2 0x286A JUMPI PUSH2 0x286A PUSH2 0x2950 JUMP JUMPDEST POP ADD SWAP1 JUMP JUMPDEST PUSH1 0x0 DUP3 PUSH2 0x287E JUMPI PUSH2 0x287E PUSH2 0x297F JUMP JUMPDEST POP DIV SWAP1 JUMP JUMPDEST PUSH1 0x0 DUP2 PUSH32 0xFFFFFFFFFFFFFFFFFFFFFFFFFFFFFFFFFFFFFFFFFFFFFFFFFFFFFFFFFFFFFFFF DIV DUP4 GT DUP3 ISZERO ISZERO AND ISZERO PUSH2 0x28BB JUMPI PUSH2 0x28BB PUSH2 0x2950 JUMP JUMPDEST POP MUL SWAP1 JUMP JUMPDEST PUSH1 0x0 DUP3 DUP3 LT ISZERO PUSH2 0x28D2 JUMPI PUSH2 0x28D2 PUSH2 0x2950 JUMP JUMPDEST POP SUB SWAP1 JUMP JUMPDEST PUSH1 0x0 JUMPDEST DUP4 DUP2 LT ISZERO PUSH2 0x28F2 JUMPI DUP2 DUP2 ADD MLOAD DUP4 DUP3 ADD MSTORE PUSH1 0x20 ADD PUSH2 0x28DA JUMP JUMPDEST DUP4 DUP2 GT ISZERO PUSH2 0x572 JUMPI POP POP PUSH1 0x0 SWAP2 ADD MSTORE JUMP JUMPDEST PUSH1 0x0 PUSH32 0xFFFFFFFFFFFFFFFFFFFFFFFFFFFFFFFFFFFFFFFFFFFFFFFFFFFFFFFFFFFFFFFF DUP3 EQ ISZERO PUSH2 0x2935 JUMPI PUSH2 0x2935 PUSH2 0x2950 JUMP JUMPDEST POP PUSH1 0x1 ADD SWAP1 JUMP JUMPDEST PUSH1 0x0 DUP3 PUSH2 0x294B JUMPI PUSH2 0x294B PUSH2 0x297F JUMP JUMPDEST POP MOD SWAP1 JUMP JUMPDEST PUSH32 0x4E487B7100000000000000000000000000000000000000000000000000000000 PUSH1 0x0 MSTORE PUSH1 0x11 PUSH1 0x4 MSTORE PUSH1 0x24 PUSH1 0x0 REVERT JUMPDEST PUSH32 0x4E487B7100000000000000000000000000000000000000000000000000000000 PUSH1 0x0 MSTORE PUSH1 0x12 PUSH1 0x4 MSTORE PUSH1 0x24 PUSH1 0x0 REVERT JUMPDEST PUSH32 0x4E487B7100000000000000000000000000000000000000000000000000000000 PUSH1 0x0 MSTORE PUSH1 0x32 PUSH1 0x4 MSTORE PUSH1 0x24 PUSH1 0x0 REVERT JUMPDEST PUSH32 0x4E487B7100000000000000000000000000000000000000000000000000000000 PUSH1 0x0 MSTORE PUSH1 0x41 PUSH1 0x4 MSTORE PUSH1 0x24 PUSH1 0x0 REVERT INVALID LOG2 PUSH5 0x6970667358 0x22 SLT KECCAK256 0xC2 0xD7 PUSH10 0xFB6A8AF0D66207A38C2 CALLDATACOPY ADD CALLER 0xD8 0x25 0xA5 MULMOD PUSH17 0x7921B5AD93F957085B90BF64736F6C6343 STOP ADDMOD SMOD STOP CALLER "
		},
		"gasEstimates": {
			"creation": {
				"codeDepositCost": "2163600",
				"executionCost": "infinite",
				"totalCost": "infinite"
			},
			"external": {
				"convertDustToEarned()": "infinite",
				"data()": "infinite",
				"deposit(address,uint256)": "infinite",
				"earn()": "infinite",
				"owner()": "2378",
				"panic()": "infinite",
				"pause()": "29790",
				"paused()": "2359",
				"renounceOwnership()": "28098",
				"resetAllowances()": "infinite",
				"setGov(address)": "26727",
				"setSettings(uint16,uint16,uint16,uint16,uint16,address)": "infinite",
				"transferOwnership(address)": "28312",
				"unpanic()": "infinite",
				"unpause()": "infinite",
				"vaultSharesTotal()": "infinite",
				"wantLockedTotal()": "infinite",
				"withdraw(address,uint256)": "infinite"
			},
			"internal": {
				"_emergencyVaultWithdraw()": "infinite",
				"_vaultDeposit(uint256)": "infinite",
				"_vaultHarvest()": "infinite",
				"_vaultWithdraw(uint256)": "infinite"
			}
		},
		"methodIdentifiers": {
			"convertDustToEarned()": "c11c2e92",
			"data()": "73d4a13a",
			"deposit(address,uint256)": "47e7ef24",
			"earn()": "d389800f",
			"owner()": "8da5cb5b",
			"panic()": "4700d305",
			"pause()": "8456cb59",
			"paused()": "5c975abb",
			"renounceOwnership()": "715018a6",
			"resetAllowances()": "3505b09f",
			"setGov(address)": "cfad57a2",
			"setSettings(uint16,uint16,uint16,uint16,uint16,address)": "0dfd81c4",
			"transferOwnership(address)": "f2fde38b",
			"unpanic()": "65a5e30b",
			"unpause()": "3f4ba83a",
			"vaultSharesTotal()": "04c9d490",
			"wantLockedTotal()": "42da4eb3",
			"withdraw(address,uint256)": "f3fef3a3"
		}
	},
	"abi": [
		{
			"inputs": [
				{
					"internalType": "uint24",
					"name": "_pid",
					"type": "uint24"
				},
				{
					"internalType": "uint16",
					"name": "_tolerance",
					"type": "uint16"
				},
				{
					"components": [
						{
							"internalType": "address",
							"name": "vaultChef",
							"type": "address"
						},
						{
							"internalType": "address",
							"name": "masterChef",
							"type": "address"
						},
						{
							"internalType": "address",
							"name": "uniRouter",
							"type": "address"
						},
						{
							"internalType": "address",
							"name": "want",
							"type": "address"
						},
						{
							"internalType": "address",
							"name": "earned",
							"type": "address"
						}
					],
					"internalType": "struct StrategyMasterHealer.InitAddresses",
					"name": "_initAddr",
					"type": "tuple"
				},
				{
					"internalType": "address[]",
					"name": "_earnedToWmaticPath",
					"type": "address[]"
				},
				{
					"internalType": "address[]",
					"name": "_earnedToUsdcPath",
					"type": "address[]"
				},
				{
					"internalType": "address[]",
					"name": "_earnedToFishPath",
					"type": "address[]"
				},
				{
					"internalType": "address[]",
					"name": "_earnedToToken0Path",
					"type": "address[]"
				},
				{
					"internalType": "address[]",
					"name": "_earnedToToken1Path",
					"type": "address[]"
				}
			],
			"stateMutability": "nonpayable",
			"type": "constructor"
		},
		{
			"anonymous": false,
			"inputs": [
				{
					"indexed": true,
					"internalType": "address",
					"name": "previousOwner",
					"type": "address"
				},
				{
					"indexed": true,
					"internalType": "address",
					"name": "newOwner",
					"type": "address"
				}
			],
			"name": "OwnershipTransferred",
			"type": "event"
		},
		{
			"anonymous": false,
			"inputs": [
				{
					"indexed": false,
					"internalType": "address",
					"name": "account",
					"type": "address"
				}
			],
			"name": "Paused",
			"type": "event"
		},
		{
			"anonymous": false,
			"inputs": [
				{
					"indexed": false,
					"internalType": "address",
					"name": "account",
					"type": "address"
				}
			],
			"name": "Unpaused",
			"type": "event"
		},
		{
			"inputs": [],
			"name": "convertDustToEarned",
			"outputs": [],
			"stateMutability": "nonpayable",
			"type": "function"
		},
		{
			"inputs": [],
			"name": "data",
			"outputs": [
				{
					"components": [
						{
							"internalType": "address",
							"name": "vaultChef",
							"type": "address"
						},
						{
							"internalType": "address",
							"name": "want",
							"type": "address"
						},
						{
							"internalType": "address",
							"name": "earned",
							"type": "address"
						},
						{
							"internalType": "address",
							"name": "masterChef",
							"type": "address"
						},
						{
							"internalType": "address",
							"name": "maxiWant",
							"type": "address"
						}
					],
					"internalType": "struct BaseStrategyLogic.Addresses",
					"name": "addresses",
					"type": "tuple"
				},
				{
					"components": [
						{
							"internalType": "address",
							"name": "uniRouterAddress",
							"type": "address"
						},
						{
							"internalType": "uint16",
							"name": "controllerFee",
							"type": "uint16"
						},
						{
							"internalType": "uint16",
							"name": "rewardRate",
							"type": "uint16"
						},
						{
							"internalType": "uint16",
							"name": "buyBackRate",
							"type": "uint16"
						},
						{
							"internalType": "uint16",
							"name": "withdrawFeeFactor",
							"type": "uint16"
						},
						{
							"internalType": "uint16",
							"name": "tolerance",
							"type": "uint16"
						},
						{
							"internalType": "address",
							"name": "govAddress",
							"type": "address"
						}
					],
					"internalType": "struct BaseStrategyLogic.Settings",
					"name": "settings",
					"type": "tuple"
				},
				{
					"components": [
						{
							"internalType": "address[]",
							"name": "earnedToWmatic",
							"type": "address[]"
						},
						{
							"internalType": "address[]",
							"name": "earnedToUsdc",
							"type": "address[]"
						},
						{
							"internalType": "address[]",
							"name": "earnedToFish",
							"type": "address[]"
						},
						{
							"internalType": "address[]",
							"name": "earnedToToken0",
							"type": "address[]"
						},
						{
							"internalType": "address[]",
							"name": "earnedToToken1",
							"type": "address[]"
						},
						{
							"internalType": "address[]",
							"name": "token0ToEarned",
							"type": "address[]"
						},
						{
							"internalType": "address[]",
							"name": "token1ToEarned",
							"type": "address[]"
						},
						{
							"internalType": "address[]",
							"name": "earnedToMaxi",
							"type": "address[]"
						}
					],
					"internalType": "struct BaseStrategyLogic.Paths",
					"name": "paths",
					"type": "tuple"
				},
				{
					"internalType": "uint256",
					"name": "sharesTotal",
					"type": "uint256"
				},
				{
					"internalType": "uint256",
					"name": "burnedAmount",
					"type": "uint256"
				},
				{
					"internalType": "uint64",
					"name": "lastEarnBlock",
					"type": "uint64"
				},
				{
					"internalType": "uint24",
					"name": "pid",
					"type": "uint24"
				},
				{
					"internalType": "enum StratType",
					"name": "stratType",
					"type": "uint8"
				}
			],
			"stateMutability": "view",
			"type": "function"
		},
		{
			"inputs": [
				{
					"internalType": "address",
					"name": "",
					"type": "address"
				},
				{
					"internalType": "uint256",
					"name": "_wantAmt",
					"type": "uint256"
				}
			],
			"name": "deposit",
			"outputs": [
				{
					"internalType": "uint256",
					"name": "",
					"type": "uint256"
				}
			],
			"stateMutability": "nonpayable",
			"type": "function"
		},
		{
			"inputs": [],
			"name": "earn",
			"outputs": [],
			"stateMutability": "nonpayable",
			"type": "function"
		},
		{
			"inputs": [],
			"name": "owner",
			"outputs": [
				{
					"internalType": "address",
					"name": "",
					"type": "address"
				}
			],
			"stateMutability": "view",
			"type": "function"
		},
		{
			"inputs": [],
			"name": "panic",
			"outputs": [],
			"stateMutability": "nonpayable",
			"type": "function"
		},
		{
			"inputs": [],
			"name": "pause",
			"outputs": [],
			"stateMutability": "nonpayable",
			"type": "function"
		},
		{
			"inputs": [],
			"name": "paused",
			"outputs": [
				{
					"internalType": "bool",
					"name": "",
					"type": "bool"
				}
			],
			"stateMutability": "view",
			"type": "function"
		},
		{
			"inputs": [],
			"name": "renounceOwnership",
			"outputs": [],
			"stateMutability": "nonpayable",
			"type": "function"
		},
		{
			"inputs": [],
			"name": "resetAllowances",
			"outputs": [],
			"stateMutability": "nonpayable",
			"type": "function"
		},
		{
			"inputs": [
				{
					"internalType": "address",
					"name": "_govAddress",
					"type": "address"
				}
			],
			"name": "setGov",
			"outputs": [],
			"stateMutability": "nonpayable",
			"type": "function"
		},
		{
			"inputs": [
				{
					"internalType": "uint16",
					"name": "_controllerFee",
					"type": "uint16"
				},
				{
					"internalType": "uint16",
					"name": "_rewardRate",
					"type": "uint16"
				},
				{
					"internalType": "uint16",
					"name": "_buyBackRate",
					"type": "uint16"
				},
				{
					"internalType": "uint16",
					"name": "_withdrawFeeFactor",
					"type": "uint16"
				},
				{
					"internalType": "uint16",
					"name": "_tolerance",
					"type": "uint16"
				},
				{
					"internalType": "address",
					"name": "_uniRouterAddress",
					"type": "address"
				}
			],
			"name": "setSettings",
			"outputs": [],
			"stateMutability": "nonpayable",
			"type": "function"
		},
		{
			"inputs": [
				{
					"internalType": "address",
					"name": "newOwner",
					"type": "address"
				}
			],
			"name": "transferOwnership",
			"outputs": [],
			"stateMutability": "nonpayable",
			"type": "function"
		},
		{
			"inputs": [],
			"name": "unpanic",
			"outputs": [],
			"stateMutability": "nonpayable",
			"type": "function"
		},
		{
			"inputs": [],
			"name": "unpause",
			"outputs": [],
			"stateMutability": "nonpayable",
			"type": "function"
		},
		{
			"inputs": [],
			"name": "vaultSharesTotal",
			"outputs": [
				{
					"internalType": "uint256",
					"name": "",
					"type": "uint256"
				}
			],
			"stateMutability": "view",
			"type": "function"
		},
		{
			"inputs": [],
			"name": "wantLockedTotal",
			"outputs": [
				{
					"internalType": "uint256",
					"name": "",
					"type": "uint256"
				}
			],
			"stateMutability": "view",
			"type": "function"
		},
		{
			"inputs": [
				{
					"internalType": "address",
					"name": "",
					"type": "address"
				},
				{
					"internalType": "uint256",
					"name": "_wantAmt",
					"type": "uint256"
				}
			],
			"name": "withdraw",
			"outputs": [
				{
					"internalType": "uint256",
					"name": "",
					"type": "uint256"
				}
			],
			"stateMutability": "nonpayable",
			"type": "function"
		}
	]
}