{
	"data": {
		"bytecode": {
			"linkReferences": {
				"vaults-v1/contracts/libs/StrategySwapPaths.sol": {
					"StrategySwapPaths": [
						{
							"length": 20,
							"start": 8690
						}
					]
				}
			},
			"object": "60806040523480156200001157600080fd5b506200001d3362000031565b600180556002805460ff1916905562000081565b600080546001600160a01b038381166001600160a01b0319831681178455604051919092169283917f8be0079c531659141344cd1fd0a4f28419497f9722a3daafe3b4186f6b6457e09190a35050565b613d7680620000916000396000f3fe608060405234801561001057600080fd5b50600436106103205760003560e01c80637b0a47ee116101a7578063d389800f116100ee578063f106845411610097578063ff63a73611610071578063ff63a73614610660578063ffbd3b1f14610673578063ffbe9f1e1461047257600080fd5b8063f106845414610631578063f2fde38b1461063a578063f3fef3a31461064d57600080fd5b8063dce52dfa116100c8578063dce52dfa146105e1578063e7198474146105ea578063e7a036791461060a57600080fd5b8063d389800f1461059e578063d62e969d146105a6578063db4b7eee146105c657600080fd5b80638fefda0611610150578063b74cd2421161012a578063b74cd2421461057a578063c11c2e9214610583578063cfad57a21461058b57600080fd5b80638fefda0614610543578063a1a7194f1461054c578063b02381c61461056757600080fd5b8063866b201811610181578063866b2018146105015780638cf57cb91461050a5780638da5cb5b1461052557600080fd5b80637b0a47ee146104e75780638456cb59146104f057806385f02dd6146104f857600080fd5b80634700d3051161026b57806368f5416211610214578063715018a6116101ee578063715018a6146104d6578063783478ad146104de578063784def8c146103e457600080fd5b806368f541621461047b578063693a090b146104845780637115e9fa146104a457600080fd5b80635c975abb116102455780635c975abb1461045457806365a5e30b1461046a57806367057b6c1461047257600080fd5b80634700d3051461043057806347e7ef241461043857806350e15fdd1461044b57600080fd5b80633f4ba83a116102cd57806342da4eb3116102a757806342da4eb3146103ff57806344a3955e1461040757806346008a071461041057600080fd5b80633f4ba83a146103bc57806340c34b58146103c457806341275358146103e457600080fd5b8063178a8d07116102fe578063178a8d07146103895780633220d732146103925780633505b09f146103b257600080fd5b806302d454571461032557806304c9d4901461036a5780630fa4e01e14610380575b600080fd5b610340732791bca1f2de4661ed88a30c99a7a9449aa8417481565b60405173ffffffffffffffffffffffffffffffffffffffff90911681526020015b60405180910390f35b61037261067c565b604051908152602001610361565b610372600a5481565b610372600e5481565b6005546103409073ffffffffffffffffffffffffffffffffffffffff1681565b6103ba610733565b005b6103ba6107c9565b6007546103409073ffffffffffffffffffffffffffffffffffffffff1681565b610340735386881b46c37cdd30a748f7771cf95d7b21363781565b610372610854565b610372600b5481565b6006546103409073ffffffffffffffffffffffffffffffffffffffff1681565b6103ba610914565b6103726104463660046137e4565b6109a7565b61037260125481565b60025460ff166040519015158152602001610361565b6103ba610b9b565b61037261271081565b610372600f5481565b6004546103409073ffffffffffffffffffffffffffffffffffffffff1681565b6008546104c99074010000000000000000000000000000000000000000900460ff1681565b6040516103619190613ad0565b6103ba610c31565b61034061dead81565b610372600d5481565b6103ba610cbc565b610372600c5481565b6103726126ac81565b61034073917fb15e8aaa12264dcbdc15afef7cd3ce76ba3981565b60005473ffffffffffffffffffffffffffffffffffffffff16610340565b6103726103e881565b6103407376bf0c28e604cc3fe9967c83b3c3f31c213cfe6481565b6103ba610575366004613a07565b610d47565b6103726103e381565b6103ba611056565b6103ba6105993660046137c9565b61141b565b6103ba6114e5565b6008546103409073ffffffffffffffffffffffffffffffffffffffff1681565b610340730d500b1d8e8ef31e21c99d1db9a6444d3adf127081565b61037260115481565b6003546103409073ffffffffffffffffffffffffffffffffffffffff1681565b600254610340906301000000900473ffffffffffffffffffffffffffffffffffffffff1681565b61037260095481565b6103ba6106483660046137c9565b611b1b565b61037261065b3660046137e4565b611c48565b6103ba61066e366004613950565b61203a565b61037260105481565b6007546009546040517f93f1a40b0000000000000000000000000000000000000000000000000000000081526004810191909152306024820152600091829173ffffffffffffffffffffffffffffffffffffffff909116906393f1a40b90604401604080518083038186803b1580156106f457600080fd5b505afa158015610708573d6000803e3d6000fd5b505050506040513d601f19601f8201168201806040525081019061072c919061392c565b5092915050565b60065473ffffffffffffffffffffffffffffffffffffffff1633146107bf576040517f08c379a00000000000000000000000000000000000000000000000000000000081526004016107b69060208082526004908201527f21676f7600000000000000000000000000000000000000000000000000000000604082015260600190565b60405180910390fd5b6107c7612208565b565b60065473ffffffffffffffffffffffffffffffffffffffff16331461084c576040517f08c379a00000000000000000000000000000000000000000000000000000000081526004016107b69060208082526004908201527f21676f7600000000000000000000000000000000000000000000000000000000604082015260600190565b6107bf6123c5565b600061085e61067c565b6002546040517f70a08231000000000000000000000000000000000000000000000000000000008152306004820152630100000090910473ffffffffffffffffffffffffffffffffffffffff16906370a082319060240160206040518083038186803b1580156108cd57600080fd5b505afa1580156108e1573d6000803e3d6000fd5b505050506040513d601f19601f820116820180604052508101906109059190613913565b61090f9190613bc4565b905090565b60065473ffffffffffffffffffffffffffffffffffffffff163314610997576040517f08c379a00000000000000000000000000000000000000000000000000000000081526004016107b69060208082526004908201527f21676f7600000000000000000000000000000000000000000000000000000000604082015260600190565b61099f6124a6565b6107c7612566565b6000805473ffffffffffffffffffffffffffffffffffffffff163314610a29576040517f08c379a000000000000000000000000000000000000000000000000000000000815260206004820181905260248201527f4f776e61626c653a2063616c6c6572206973206e6f7420746865206f776e657260448201526064016107b6565b60026001541415610a96576040517f08c379a000000000000000000000000000000000000000000000000000000000815260206004820152601f60248201527f5265656e7472616e637947756172643a207265656e7472616e742063616c6c0060448201526064016107b6565b6002600155610aa760025460ff1690565b15610b0e576040517f08c379a000000000000000000000000000000000000000000000000000000000815260206004820152601060248201527f5061757361626c653a207061757365640000000000000000000000000000000060448201526064016107b6565b6000610b18610854565b600254909150610b47906301000000900473ffffffffffffffffffffffffffffffffffffffff163330866125f5565b6000610b516126d1565b600b5490915015610b785781600b5482610b6b9190613bf0565b610b759190613bdc565b90505b80600b6000828254610b8a9190613bc4565b909155505060018055949350505050565b60065473ffffffffffffffffffffffffffffffffffffffff163314610c1e576040517f08c379a00000000000000000000000000000000000000000000000000000000081526004016107b69060208082526004908201527f21676f7600000000000000000000000000000000000000000000000000000000604082015260600190565b610c266123c5565b610c2e6126d1565b50565b60005473ffffffffffffffffffffffffffffffffffffffff163314610cb2576040517f08c379a000000000000000000000000000000000000000000000000000000000815260206004820181905260248201527f4f776e61626c653a2063616c6c6572206973206e6f7420746865206f776e657260448201526064016107b6565b6107c760006127bf565b60065473ffffffffffffffffffffffffffffffffffffffff163314610d3f576040517f08c379a00000000000000000000000000000000000000000000000000000000081526004016107b69060208082526004908201527f21676f7600000000000000000000000000000000000000000000000000000000604082015260600190565b6107c76124a6565b60065473ffffffffffffffffffffffffffffffffffffffff163314610dca576040517f08c379a00000000000000000000000000000000000000000000000000000000081526004016107b69060208082526004908201527f21676f7600000000000000000000000000000000000000000000000000000000604082015260600190565b6103e885610dd8888a613bc4565b610de29190613bc4565b1115610e4a576040517f08c379a000000000000000000000000000000000000000000000000000000000815260206004820152600e60248201527f4d617820666565206f662031302500000000000000000000000000000000000060448201526064016107b6565b6126ac841015610eb6576040517f08c379a000000000000000000000000000000000000000000000000000000000815260206004820152601a60248201527f5f7769746864726177466565466163746f7220746f6f206c6f7700000000000060448201526064016107b6565b612710841115610f22576040517f08c379a000000000000000000000000000000000000000000000000000000000815260206004820152601b60248201527f5f7769746864726177466565466163746f7220746f6f2068696768000000000060448201526064016107b6565b6103e3831115610f8e576040517f08c379a000000000000000000000000000000000000000000000000000000000815260206004820152601860248201527f5f736c697070616765466163746f7220746f6f2068696768000000000000000060448201526064016107b6565b600c879055600d869055600e859055600f84905560108390556011829055600480547fffffffffffffffffffffffff00000000000000000000000000000000000000001673ffffffffffffffffffffffffffffffffffffffff83169081179091556040805189815260208101899052908101879052606081018690526080810185905260a0810184905260c08101919091527f813767a04e11dfab70a5ec48c4fd7c344ab48e62196586790931dc9dfaed97e99060e00160405180910390a150505050505050565b600260015414156110c3576040517f08c379a000000000000000000000000000000000000000000000000000000000815260206004820152601f60248201527f5265656e7472616e637947756172643a207265656e7472616e742063616c6c0060448201526064016107b6565b60026001556110d460025460ff1690565b1561113b576040517f08c379a000000000000000000000000000000000000000000000000000000000815260206004820152601060248201527f5061757361626c653a207061757365640000000000000000000000000000000060448201526064016107b6565b6000601360050160008154811061115457611154613ce2565b60009182526020822001546040517f70a0823100000000000000000000000000000000000000000000000000000000815230600482015273ffffffffffffffffffffffffffffffffffffffff909116925082906370a082319060240160206040518083038186803b1580156111c857600080fd5b505afa1580156111dc573d6000803e3d6000fd5b505050506040513d601f19601f820116820180604052508101906112009190613913565b905060008111801561122d575060035473ffffffffffffffffffffffffffffffffffffffff838116911614155b156112a7576112a781601360050180548060200260200160405190810160405280929190818152602001828054801561129c57602002820191906000526020600020905b815473ffffffffffffffffffffffffffffffffffffffff168152600190910190602001808311611271575b505050505030612834565b600060136006016000815481106112c0576112c0613ce2565b60009182526020822001546040517f70a0823100000000000000000000000000000000000000000000000000000000815230600482015273ffffffffffffffffffffffffffffffffffffffff909116925082906370a082319060240160206040518083038186803b15801561133457600080fd5b505afa158015611348573d6000803e3d6000fd5b505050506040513d601f19601f8201168201806040525081019061136c9190613913565b9050600081118015611399575060035473ffffffffffffffffffffffffffffffffffffffff838116911614155b156114115761141181601360060180548060200260200160405190810160405280929190818152602001828054801561129c5760200282019190600052602060002090815473ffffffffffffffffffffffffffffffffffffffff16815260019091019060200180831161127157505050505030612834565b5050600180555050565b60065473ffffffffffffffffffffffffffffffffffffffff16331461149e576040517f08c379a00000000000000000000000000000000000000000000000000000000081526004016107b69060208082526004908201527f21676f7600000000000000000000000000000000000000000000000000000000604082015260600190565b600680547fffffffffffffffffffffffff00000000000000000000000000000000000000001673ffffffffffffffffffffffffffffffffffffffff92909216919091179055565b60026001541415611552576040517f08c379a000000000000000000000000000000000000000000000000000000000815260206004820152601f60248201527f5265656e7472616e637947756172643a207265656e7472616e742063616c6c0060448201526064016107b6565b600260015561156360025460ff1690565b156115ca576040517f08c379a000000000000000000000000000000000000000000000000000000000815260206004820152601060248201527f5061757361626c653a207061757365640000000000000000000000000000000060448201526064016107b6565b60005473ffffffffffffffffffffffffffffffffffffffff16331461164b576040517f08c379a000000000000000000000000000000000000000000000000000000000815260206004820181905260248201527f4f776e61626c653a2063616c6c6572206973206e6f7420746865206f776e657260448201526064016107b6565b611653612abf565b6003546040517f70a0823100000000000000000000000000000000000000000000000000000000815230600482015260009173ffffffffffffffffffffffffffffffffffffffff16906370a082319060240160206040518083038186803b1580156116bd57600080fd5b505afa1580156116d1573d6000803e3d6000fd5b505050506040513d601f19601f820116820180604052508101906116f59190613913565b90508015611b145761170681612b21565b905061171181612be6565b905061171c81612e83565b90506000601360050160008154811061173757611737613ce2565b60009182526020909120015460035473ffffffffffffffffffffffffffffffffffffffff91821692501681146117de576117de611775600284613bdc565b601680546040805160208084028201810190925282815292919083018282801561129c5760200282019190600052602060002090815473ffffffffffffffffffffffffffffffffffffffff16815260019091019060200180831161127157505050505030612834565b600060136006016000815481106117f7576117f7613ce2565b60009182526020909120015460035473ffffffffffffffffffffffffffffffffffffffff918216925016811461189e5761189e611835600285613bdc565b601780546040805160208084028201810190925282815292919083018282801561129c5760200282019190600052602060002090815473ffffffffffffffffffffffffffffffffffffffff16815260019091019060200180831161127157505050505030612834565b6040517f70a0823100000000000000000000000000000000000000000000000000000000815230600482015260009073ffffffffffffffffffffffffffffffffffffffff8416906370a082319060240160206040518083038186803b15801561190657600080fd5b505afa15801561191a573d6000803e3d6000fd5b505050506040513d601f19601f8201168201806040525081019061193e9190613913565b6040517f70a0823100000000000000000000000000000000000000000000000000000000815230600482015290915060009073ffffffffffffffffffffffffffffffffffffffff8416906370a082319060240160206040518083038186803b1580156119a957600080fd5b505afa1580156119bd573d6000803e3d6000fd5b505050506040513d601f19601f820116820180604052508101906119e19190613913565b90506000821180156119f35750600081115b15611b025760045473ffffffffffffffffffffffffffffffffffffffff1663e8e337008585858560008030611a2a42610258613bc4565b60405160e08a901b7fffffffff0000000000000000000000000000000000000000000000000000000016815273ffffffffffffffffffffffffffffffffffffffff9889166004820152968816602488015260448701959095526064860193909352608485019190915260a484015290921660c482015260e481019190915261010401606060405180830381600087803b158015611ac657600080fd5b505af1158015611ada573d6000803e3d6000fd5b505050506040513d601f19601f82011682018060405250810190611afe91906139d9565b5050505b43600a55611b0e6126d1565b50505050505b5060018055565b60005473ffffffffffffffffffffffffffffffffffffffff163314611b9c576040517f08c379a000000000000000000000000000000000000000000000000000000000815260206004820181905260248201527f4f776e61626c653a2063616c6c6572206973206e6f7420746865206f776e657260448201526064016107b6565b73ffffffffffffffffffffffffffffffffffffffff8116611c3f576040517f08c379a000000000000000000000000000000000000000000000000000000000815260206004820152602660248201527f4f776e61626c653a206e6577206f776e657220697320746865207a65726f206160448201527f646472657373000000000000000000000000000000000000000000000000000060648201526084016107b6565b610c2e816127bf565b6000805473ffffffffffffffffffffffffffffffffffffffff163314611cca576040517f08c379a000000000000000000000000000000000000000000000000000000000815260206004820181905260248201527f4f776e61626c653a2063616c6c6572206973206e6f7420746865206f776e657260448201526064016107b6565b60026001541415611d37576040517f08c379a000000000000000000000000000000000000000000000000000000000815260206004820152601f60248201527f5265656e7472616e637947756172643a207265656e7472616e742063616c6c0060448201526064016107b6565b600260015581611da3576040517f08c379a000000000000000000000000000000000000000000000000000000000815260206004820152600d60248201527f5f77616e74416d7420697320300000000000000000000000000000000000000060448201526064016107b6565b6002546040517f70a082310000000000000000000000000000000000000000000000000000000081523060048201526000916301000000900473ffffffffffffffffffffffffffffffffffffffff16906370a082319060240160206040518083038186803b158015611e1457600080fd5b505afa158015611e28573d6000803e3d6000fd5b505050506040513d601f19601f82011682018060405250810190611e4c9190613913565b905080831115611f1257611e68611e638285613c2d565b612f24565b6002546040517f70a08231000000000000000000000000000000000000000000000000000000008152306004820152630100000090910473ffffffffffffffffffffffffffffffffffffffff16906370a082319060240160206040518083038186803b158015611ed757600080fd5b505afa158015611eeb573d6000803e3d6000fd5b505050506040513d601f19601f82011682018060405250810190611f0f9190613913565b90505b80831115611f1e578092505b611f26610854565b831115611f3857611f35610854565b92505b6000611f58611f45610854565b600b54611f529087613bf0565b90612fbb565b9050600b54811115611f695750600b545b80600b6000828254611f7b9190613c2d565b9091555050600f5460009061271090611f949082613c2d565b611f9e9087613bf0565b611fa89190613bdc565b90508015611fef57600254611fef906301000000900473ffffffffffffffffffffffffffffffffffffffff16735386881b46c37cdd30a748f7771cf95d7b21363783612ff4565b611ff98186613c2d565b60055460025491965061202d916301000000900473ffffffffffffffffffffffffffffffffffffffff908116911687612ff4565b5060018055949350505050565b61204261304f565b6006805473ffffffffffffffffffffffffffffffffffffffff8881167fffffffffffffffffffffffff00000000000000000000000000000000000000009283161790925560058054821633179055600780548884169083161790556004805487841690831617815560028054878516630100000081027fffffffffffffffffff0000000000000000000000000000000000000000ffffff909216919091179091556003805487861694168417905560098c905560118b90556040517f2fe1a4d6000000000000000000000000000000000000000000000000000000008152601392810192909252602482019290925291831660448301527376bf0c28e604cc3fe9967c83b3c3f31c213cfe6460648301526084820152600060a482015273__$c89427421f81fbbfc71ab1cf8b4489be8e$__90632fe1a4d69060c40160006040518083038186803b15801561219657600080fd5b505af41580156121aa573d6000803e3d6000fd5b505050506121b733611b1b565b6121bf612208565b5050600880547fffffffffffffffffffffff00ffffffffffffffffffffffffffffffffffffffff1674010000000000000000000000000000000000000000179055505050505050565b6007546002546122599173ffffffffffffffffffffffffffffffffffffffff6301000000909204821691167fffffffffffffffffffffffffffffffffffffffffffffffffffffffffffffffff613187565b6004546003546122a39173ffffffffffffffffffffffffffffffffffffffff91821691167fffffffffffffffffffffffffffffffffffffffffffffffffffffffffffffffff613187565b6004546018805461231f9273ffffffffffffffffffffffffffffffffffffffff16917fffffffffffffffffffffffffffffffffffffffffffffffffffffffffffffffff916000906122f6576122f6613ce2565b60009182526020909120015473ffffffffffffffffffffffffffffffffffffffff169190613187565b600454601980546123729273ffffffffffffffffffffffffffffffffffffffff16917fffffffffffffffffffffffffffffffffffffffffffffffffffffffffffffffff916000906122f6576122f6613ce2565b6107c7732791bca1f2de4661ed88a30c99a7a9449aa8417473917fb15e8aaa12264dcbdc15afef7cd3ce76ba397fffffffffffffffffffffffffffffffffffffffffffffffffffffffffffffffff613187565b60025460ff16612431576040517f08c379a000000000000000000000000000000000000000000000000000000000815260206004820152601460248201527f5061757361626c653a206e6f742070617573656400000000000000000000000060448201526064016107b6565b600280547fffffffffffffffffffffffffffffffffffffffffffffffffffffffffffffff001690557f5db9ee0a495bf2e6ff9c91a7834c1ba4fdd244a5e8aa4e537bd38aeae4b073aa335b60405173ffffffffffffffffffffffffffffffffffffffff909116815260200160405180910390a1565b60025460ff1615612513576040517f08c379a000000000000000000000000000000000000000000000000000000000815260206004820152601060248201527f5061757361626c653a207061757365640000000000000000000000000000000060448201526064016107b6565b600280547fffffffffffffffffffffffffffffffffffffffffffffffffffffffffffffff001660011790557f62e78cea01bee320cd4e420270b5ea74000d11b0c9f74754ebdbfc544b05a25861247c3390565b6007546009546040517f5312ea8e00000000000000000000000000000000000000000000000000000000815273ffffffffffffffffffffffffffffffffffffffff90921691635312ea8e916125c19160040190815260200190565b600060405180830381600087803b1580156125db57600080fd5b505af11580156125ef573d6000803e3d6000fd5b50505050565b60405173ffffffffffffffffffffffffffffffffffffffff808516602483015283166044820152606481018290526125ef9085907f23b872dd00000000000000000000000000000000000000000000000000000000906084015b604080517fffffffffffffffffffffffffffffffffffffffffffffffffffffffffffffffe08184030181529190526020810180517bffffffffffffffffffffffffffffffffffffffffffffffffffffffff167fffffffff0000000000000000000000000000000000000000000000000000000090931692909217909152613318565b6002546040517f70a082310000000000000000000000000000000000000000000000000000000081523060048201526000918291630100000090910473ffffffffffffffffffffffffffffffffffffffff16906370a082319060240160206040518083038186803b15801561274557600080fd5b505afa158015612759573d6000803e3d6000fd5b505050506040513d601f19601f8201168201806040525081019061277d9190613913565b90508061278c57600091505090565b600061279661067c565b90506127a182613424565b60006127ab61067c565b90506127b78282613c2d565b935050505090565b6000805473ffffffffffffffffffffffffffffffffffffffff8381167fffffffffffffffffffffffff0000000000000000000000000000000000000000831681178455604051919092169283917f8be0079c531659141344cd1fd0a4f28419497f9722a3daafe3b4186f6b6457e09190a35050565b600480546040517fd06ca61f00000000000000000000000000000000000000000000000000000000815260009273ffffffffffffffffffffffffffffffffffffffff9092169163d06ca61f9161288e918891889101613b62565b60006040518083038186803b1580156128a657600080fd5b505afa1580156128ba573d6000803e3d6000fd5b505050506040513d6000823e601f3d9081017fffffffffffffffffffffffffffffffffffffffffffffffffffffffffffffffe0168201604052612900919081019061380e565b9050600081600183516129139190613c2d565b8151811061292357612923613ce2565b602002602001015190507376bf0c28e604cc3fe9967c83b3c3f31c213cfe6473ffffffffffffffffffffffffffffffffffffffff1684600186516129679190613c2d565b8151811061297757612977613ce2565b602002602001015173ffffffffffffffffffffffffffffffffffffffff161480156129b9575073ffffffffffffffffffffffffffffffffffffffff831661dead145b156129d65780601260008282546129d09190613bc4565b90915550505b60045460105473ffffffffffffffffffffffffffffffffffffffff909116906338ed17399087906103e890612a0b9086613bf0565b612a159190613bdc565b8787612a2342610258613bc4565b6040518663ffffffff1660e01b8152600401612a43959493929190613b7b565b600060405180830381600087803b158015612a5d57600080fd5b505af1158015612a71573d6000803e3d6000fd5b505050506040513d6000823e601f3d9081017fffffffffffffffffffffffffffffffffffffffffffffffffffffffffffffffe0168201604052612ab7919081019061380e565b505050505050565b6007546009546040517f441a3e7000000000000000000000000000000000000000000000000000000000815260048101919091526000602482015273ffffffffffffffffffffffffffffffffffffffff9091169063441a3e70906044016125c1565b600c5460009015612be2576000612710600c5484612b3f9190613bf0565b612b499190613bdc565b9050612bd4816013600001805480602002602001604051908101604052809291908181526020018280548015612bb557602002820191906000526020600020905b815473ffffffffffffffffffffffffffffffffffffffff168152600190910190602001808311612b8a575b5050505050735386881b46c37cdd30a748f7771cf95d7b213637613486565b612bde8184613c2d565b9250505b5090565b600d5460009015612be2576000612710600d5484612c049190613bf0565b612c0e9190613bdc565b6040517f70a08231000000000000000000000000000000000000000000000000000000008152306004820152909150600090732791bca1f2de4661ed88a30c99a7a9449aa84174906370a082319060240160206040518083038186803b158015612c7757600080fd5b505afa158015612c8b573d6000803e3d6000fd5b505050506040513d601f19601f82011682018060405250810190612caf9190613913565b9050612d2482601360010180548060200260200160405190810160405280929190818152602001828054801561129c5760200282019190600052602060002090815473ffffffffffffffffffffffffffffffffffffffff16815260019091019060200180831161127157505050505030612834565b6040517f70a082310000000000000000000000000000000000000000000000000000000081523060048201526000908290732791bca1f2de4661ed88a30c99a7a9449aa84174906370a082319060240160206040518083038186803b158015612d8c57600080fd5b505afa158015612da0573d6000803e3d6000fd5b505050506040513d601f19601f82011682018060405250810190612dc49190613913565b612dce9190613c2d565b6040517f1e2720ff0000000000000000000000000000000000000000000000000000000081526004810182905290915073917fb15e8aaa12264dcbdc15afef7cd3ce76ba3990631e2720ff90602401602060405180830381600087803b158015612e3757600080fd5b505af1158015612e4b573d6000803e3d6000fd5b505050506040513d601f19601f82011682018060405250810190612e6f91906138f1565b50612e7a8386613c2d565b94505050505090565b600e5460009015612be2576000612710600e5484612ea19190613bf0565b612eab9190613bdc565b9050612bd4816013600201805480602002602001604051908101604052809291908181526020018280548015612f1757602002820191906000526020600020905b815473ffffffffffffffffffffffffffffffffffffffff168152600190910190602001808311612eec575b505050505061dead612834565b6007546009546040517f441a3e7000000000000000000000000000000000000000000000000000000000815273ffffffffffffffffffffffffffffffffffffffff9092169163441a3e7091612f86918590600401918252602082015260400190565b600060405180830381600087803b158015612fa057600080fd5b505af1158015612fb4573d6000803e3d6000fd5b5050505050565b6000612fc78284613c70565b15612fd3576001612fd6565b60005b60ff16612fe38385613bdc565b612fed9190613bc4565b9392505050565b60405173ffffffffffffffffffffffffffffffffffffffff831660248201526044810182905261304a9084907fa9059cbb000000000000000000000000000000000000000000000000000000009060640161264f565b505050565b60025462010000900460ff168061306e5750600254610100900460ff16155b6130fa576040517f08c379a000000000000000000000000000000000000000000000000000000000815260206004820152602e60248201527f496e697469616c697a61626c653a20636f6e747261637420697320616c72656160448201527f647920696e697469616c697a656400000000000000000000000000000000000060648201526084016107b6565b60025462010000900460ff1615801561313b57600280547fffffffffffffffffffffffffffffffffffffffffffffffffffffffffff0000ff16620101001790555b43600a556032600c556101c2600e55612706600f556103b66010558015610c2e57600280547fffffffffffffffffffffffffffffffffffffffffffffffffffffffffff00ffff16905550565b80158061323657506040517fdd62ed3e00000000000000000000000000000000000000000000000000000000815230600482015273ffffffffffffffffffffffffffffffffffffffff838116602483015284169063dd62ed3e9060440160206040518083038186803b1580156131fc57600080fd5b505afa158015613210573d6000803e3d6000fd5b505050506040513d601f19601f820116820180604052508101906132349190613913565b155b6132c2576040517f08c379a000000000000000000000000000000000000000000000000000000000815260206004820152603660248201527f5361666545524332303a20617070726f76652066726f6d206e6f6e2d7a65726f60448201527f20746f206e6f6e2d7a65726f20616c6c6f77616e63650000000000000000000060648201526084016107b6565b60405173ffffffffffffffffffffffffffffffffffffffff831660248201526044810182905261304a9084907f095ea7b3000000000000000000000000000000000000000000000000000000009060640161264f565b600061337a826040518060400160405280602081526020017f5361666545524332303a206c6f772d6c6576656c2063616c6c206661696c65648152508573ffffffffffffffffffffffffffffffffffffffff166135b69092919063ffffffff16565b80519091501561304a578080602001905181019061339891906138f1565b61304a576040517f08c379a000000000000000000000000000000000000000000000000000000000815260206004820152602a60248201527f5361666545524332303a204552433230206f7065726174696f6e20646964206e60448201527f6f7420737563636565640000000000000000000000000000000000000000000060648201526084016107b6565b6007546009546040517fe2bbb15800000000000000000000000000000000000000000000000000000000815273ffffffffffffffffffffffffffffffffffffffff9092169163e2bbb15891612f86918590600401918252602082015260400190565b600480546040517fd06ca61f00000000000000000000000000000000000000000000000000000000815260009273ffffffffffffffffffffffffffffffffffffffff9092169163d06ca61f916134e0918891889101613b62565b60006040518083038186803b1580156134f857600080fd5b505afa15801561350c573d6000803e3d6000fd5b505050506040513d6000823e601f3d9081017fffffffffffffffffffffffffffffffffffffffffffffffffffffffffffffffe0168201604052613552919081019061380e565b9050600081600183516135659190613c2d565b8151811061357557613575613ce2565b602090810291909101015160045460105491925073ffffffffffffffffffffffffffffffffffffffff16906318cbafe59087906103e890612a0b9086613bf0565b60606135c584846000856135cd565b949350505050565b60608247101561365f576040517f08c379a000000000000000000000000000000000000000000000000000000000815260206004820152602660248201527f416464726573733a20696e73756666696369656e742062616c616e636520666f60448201527f722063616c6c000000000000000000000000000000000000000000000000000060648201526084016107b6565b843b6136c7576040517f08c379a000000000000000000000000000000000000000000000000000000000815260206004820152601d60248201527f416464726573733a2063616c6c20746f206e6f6e2d636f6e747261637400000060448201526064016107b6565b6000808673ffffffffffffffffffffffffffffffffffffffff1685876040516136f09190613ab4565b60006040518083038185875af1925050503d806000811461372d576040519150601f19603f3d011682016040523d82523d6000602084013e613732565b606091505b509150915061374282828661374d565b979650505050505050565b6060831561375c575081612fed565b82511561376c5782518084602001fd5b816040517f08c379a00000000000000000000000000000000000000000000000000000000081526004016107b69190613b11565b803573ffffffffffffffffffffffffffffffffffffffff811681146137c457600080fd5b919050565b6000602082840312156137db57600080fd5b612fed826137a0565b600080604083850312156137f757600080fd5b613800836137a0565b946020939093013593505050565b6000602080838503121561382157600080fd5b825167ffffffffffffffff8082111561383957600080fd5b818501915085601f83011261384d57600080fd5b81518181111561385f5761385f613d11565b8060051b6040517fffffffffffffffffffffffffffffffffffffffffffffffffffffffffffffffe0603f830116810181811085821117156138a2576138a2613d11565b604052828152858101935084860182860187018a10156138c157600080fd5b600095505b838610156138e45780518552600195909501949386019386016138c6565b5098975050505050505050565b60006020828403121561390357600080fd5b81518015158114612fed57600080fd5b60006020828403121561392557600080fd5b5051919050565b6000806040838503121561393f57600080fd5b505080516020909101519092909150565b600080600080600080600080610100898b03121561396d57600080fd5b883597506020890135965061398460408a016137a0565b955061399260608a016137a0565b94506139a060808a016137a0565b93506139ae60a08a016137a0565b92506139bc60c08a016137a0565b91506139ca60e08a016137a0565b90509295985092959890939650565b6000806000606084860312156139ee57600080fd5b8351925060208401519150604084015190509250925092565b600080600080600080600060e0888a031215613a2257600080fd5b873596506020880135955060408801359450606088013593506080880135925060a08801359150613a5560c089016137a0565b905092959891949750929550565b600081518084526020808501945080840160005b83811015613aa957815173ffffffffffffffffffffffffffffffffffffffff1687529582019590820190600101613a77565b509495945050505050565b60008251613ac6818460208701613c44565b9190910192915050565b6020810160048310613b0b577f4e487b7100000000000000000000000000000000000000000000000000000000600052602160045260246000fd5b91905290565b6020815260008251806020840152613b30816040850160208701613c44565b601f017fffffffffffffffffffffffffffffffffffffffffffffffffffffffffffffffe0169190910160400192915050565b8281526040602082015260006135c56040830184613a63565b85815284602082015260a060408201526000613b9a60a0830186613a63565b73ffffffffffffffffffffffffffffffffffffffff94909416606083015250608001529392505050565b60008219821115613bd757613bd7613c84565b500190565b600082613beb57613beb613cb3565b500490565b6000817fffffffffffffffffffffffffffffffffffffffffffffffffffffffffffffffff0483118215151615613c2857613c28613c84565b500290565b600082821015613c3f57613c3f613c84565b500390565b60005b83811015613c5f578181015183820152602001613c47565b838111156125ef5750506000910152565b600082613c7f57613c7f613cb3565b500690565b7f4e487b7100000000000000000000000000000000000000000000000000000000600052601160045260246000fd5b7f4e487b7100000000000000000000000000000000000000000000000000000000600052601260045260246000fd5b7f4e487b7100000000000000000000000000000000000000000000000000000000600052603260045260246000fd5b7f4e487b7100000000000000000000000000000000000000000000000000000000600052604160045260246000fdfea264697066735822122074344541e782e946f373365faefed531bff80cf506842fc849ead5b6985de28564736f6c63430008070033",
			"opcodes": "PUSH1 0x80 PUSH1 0x40 MSTORE CALLVALUE DUP1 ISZERO PUSH3 0x11 JUMPI PUSH1 0x0 DUP1 REVERT JUMPDEST POP PUSH3 0x1D CALLER PUSH3 0x31 JUMP JUMPDEST PUSH1 0x1 DUP1 SSTORE PUSH1 0x2 DUP1 SLOAD PUSH1 0xFF NOT AND SWAP1 SSTORE PUSH3 0x81 JUMP JUMPDEST PUSH1 0x0 DUP1 SLOAD PUSH1 0x1 PUSH1 0x1 PUSH1 0xA0 SHL SUB DUP4 DUP2 AND PUSH1 0x1 PUSH1 0x1 PUSH1 0xA0 SHL SUB NOT DUP4 AND DUP2 OR DUP5 SSTORE PUSH1 0x40 MLOAD SWAP2 SWAP1 SWAP3 AND SWAP3 DUP4 SWAP2 PUSH32 0x8BE0079C531659141344CD1FD0A4F28419497F9722A3DAAFE3B4186F6B6457E0 SWAP2 SWAP1 LOG3 POP POP JUMP JUMPDEST PUSH2 0x3D76 DUP1 PUSH3 0x91 PUSH1 0x0 CODECOPY PUSH1 0x0 RETURN INVALID PUSH1 0x80 PUSH1 0x40 MSTORE CALLVALUE DUP1 ISZERO PUSH2 0x10 JUMPI PUSH1 0x0 DUP1 REVERT JUMPDEST POP PUSH1 0x4 CALLDATASIZE LT PUSH2 0x320 JUMPI PUSH1 0x0 CALLDATALOAD PUSH1 0xE0 SHR DUP1 PUSH4 0x7B0A47EE GT PUSH2 0x1A7 JUMPI DUP1 PUSH4 0xD389800F GT PUSH2 0xEE JUMPI DUP1 PUSH4 0xF1068454 GT PUSH2 0x97 JUMPI DUP1 PUSH4 0xFF63A736 GT PUSH2 0x71 JUMPI DUP1 PUSH4 0xFF63A736 EQ PUSH2 0x660 JUMPI DUP1 PUSH4 0xFFBD3B1F EQ PUSH2 0x673 JUMPI DUP1 PUSH4 0xFFBE9F1E EQ PUSH2 0x472 JUMPI PUSH1 0x0 DUP1 REVERT JUMPDEST DUP1 PUSH4 0xF1068454 EQ PUSH2 0x631 JUMPI DUP1 PUSH4 0xF2FDE38B EQ PUSH2 0x63A JUMPI DUP1 PUSH4 0xF3FEF3A3 EQ PUSH2 0x64D JUMPI PUSH1 0x0 DUP1 REVERT JUMPDEST DUP1 PUSH4 0xDCE52DFA GT PUSH2 0xC8 JUMPI DUP1 PUSH4 0xDCE52DFA EQ PUSH2 0x5E1 JUMPI DUP1 PUSH4 0xE7198474 EQ PUSH2 0x5EA JUMPI DUP1 PUSH4 0xE7A03679 EQ PUSH2 0x60A JUMPI PUSH1 0x0 DUP1 REVERT JUMPDEST DUP1 PUSH4 0xD389800F EQ PUSH2 0x59E JUMPI DUP1 PUSH4 0xD62E969D EQ PUSH2 0x5A6 JUMPI DUP1 PUSH4 0xDB4B7EEE EQ PUSH2 0x5C6 JUMPI PUSH1 0x0 DUP1 REVERT JUMPDEST DUP1 PUSH4 0x8FEFDA06 GT PUSH2 0x150 JUMPI DUP1 PUSH4 0xB74CD242 GT PUSH2 0x12A JUMPI DUP1 PUSH4 0xB74CD242 EQ PUSH2 0x57A JUMPI DUP1 PUSH4 0xC11C2E92 EQ PUSH2 0x583 JUMPI DUP1 PUSH4 0xCFAD57A2 EQ PUSH2 0x58B JUMPI PUSH1 0x0 DUP1 REVERT JUMPDEST DUP1 PUSH4 0x8FEFDA06 EQ PUSH2 0x543 JUMPI DUP1 PUSH4 0xA1A7194F EQ PUSH2 0x54C JUMPI DUP1 PUSH4 0xB02381C6 EQ PUSH2 0x567 JUMPI PUSH1 0x0 DUP1 REVERT JUMPDEST DUP1 PUSH4 0x866B2018 GT PUSH2 0x181 JUMPI DUP1 PUSH4 0x866B2018 EQ PUSH2 0x501 JUMPI DUP1 PUSH4 0x8CF57CB9 EQ PUSH2 0x50A JUMPI DUP1 PUSH4 0x8DA5CB5B EQ PUSH2 0x525 JUMPI PUSH1 0x0 DUP1 REVERT JUMPDEST DUP1 PUSH4 0x7B0A47EE EQ PUSH2 0x4E7 JUMPI DUP1 PUSH4 0x8456CB59 EQ PUSH2 0x4F0 JUMPI DUP1 PUSH4 0x85F02DD6 EQ PUSH2 0x4F8 JUMPI PUSH1 0x0 DUP1 REVERT JUMPDEST DUP1 PUSH4 0x4700D305 GT PUSH2 0x26B JUMPI DUP1 PUSH4 0x68F54162 GT PUSH2 0x214 JUMPI DUP1 PUSH4 0x715018A6 GT PUSH2 0x1EE JUMPI DUP1 PUSH4 0x715018A6 EQ PUSH2 0x4D6 JUMPI DUP1 PUSH4 0x783478AD EQ PUSH2 0x4DE JUMPI DUP1 PUSH4 0x784DEF8C EQ PUSH2 0x3E4 JUMPI PUSH1 0x0 DUP1 REVERT JUMPDEST DUP1 PUSH4 0x68F54162 EQ PUSH2 0x47B JUMPI DUP1 PUSH4 0x693A090B EQ PUSH2 0x484 JUMPI DUP1 PUSH4 0x7115E9FA EQ PUSH2 0x4A4 JUMPI PUSH1 0x0 DUP1 REVERT JUMPDEST DUP1 PUSH4 0x5C975ABB GT PUSH2 0x245 JUMPI DUP1 PUSH4 0x5C975ABB EQ PUSH2 0x454 JUMPI DUP1 PUSH4 0x65A5E30B EQ PUSH2 0x46A JUMPI DUP1 PUSH4 0x67057B6C EQ PUSH2 0x472 JUMPI PUSH1 0x0 DUP1 REVERT JUMPDEST DUP1 PUSH4 0x4700D305 EQ PUSH2 0x430 JUMPI DUP1 PUSH4 0x47E7EF24 EQ PUSH2 0x438 JUMPI DUP1 PUSH4 0x50E15FDD EQ PUSH2 0x44B JUMPI PUSH1 0x0 DUP1 REVERT JUMPDEST DUP1 PUSH4 0x3F4BA83A GT PUSH2 0x2CD JUMPI DUP1 PUSH4 0x42DA4EB3 GT PUSH2 0x2A7 JUMPI DUP1 PUSH4 0x42DA4EB3 EQ PUSH2 0x3FF JUMPI DUP1 PUSH4 0x44A3955E EQ PUSH2 0x407 JUMPI DUP1 PUSH4 0x46008A07 EQ PUSH2 0x410 JUMPI PUSH1 0x0 DUP1 REVERT JUMPDEST DUP1 PUSH4 0x3F4BA83A EQ PUSH2 0x3BC JUMPI DUP1 PUSH4 0x40C34B58 EQ PUSH2 0x3C4 JUMPI DUP1 PUSH4 0x41275358 EQ PUSH2 0x3E4 JUMPI PUSH1 0x0 DUP1 REVERT JUMPDEST DUP1 PUSH4 0x178A8D07 GT PUSH2 0x2FE JUMPI DUP1 PUSH4 0x178A8D07 EQ PUSH2 0x389 JUMPI DUP1 PUSH4 0x3220D732 EQ PUSH2 0x392 JUMPI DUP1 PUSH4 0x3505B09F EQ PUSH2 0x3B2 JUMPI PUSH1 0x0 DUP1 REVERT JUMPDEST DUP1 PUSH4 0x2D45457 EQ PUSH2 0x325 JUMPI DUP1 PUSH4 0x4C9D490 EQ PUSH2 0x36A JUMPI DUP1 PUSH4 0xFA4E01E EQ PUSH2 0x380 JUMPI JUMPDEST PUSH1 0x0 DUP1 REVERT JUMPDEST PUSH2 0x340 PUSH20 0x2791BCA1F2DE4661ED88A30C99A7A9449AA84174 DUP2 JUMP JUMPDEST PUSH1 0x40 MLOAD PUSH20 0xFFFFFFFFFFFFFFFFFFFFFFFFFFFFFFFFFFFFFFFF SWAP1 SWAP2 AND DUP2 MSTORE PUSH1 0x20 ADD JUMPDEST PUSH1 0x40 MLOAD DUP1 SWAP2 SUB SWAP1 RETURN JUMPDEST PUSH2 0x372 PUSH2 0x67C JUMP JUMPDEST PUSH1 0x40 MLOAD SWAP1 DUP2 MSTORE PUSH1 0x20 ADD PUSH2 0x361 JUMP JUMPDEST PUSH2 0x372 PUSH1 0xA SLOAD DUP2 JUMP JUMPDEST PUSH2 0x372 PUSH1 0xE SLOAD DUP2 JUMP JUMPDEST PUSH1 0x5 SLOAD PUSH2 0x340 SWAP1 PUSH20 0xFFFFFFFFFFFFFFFFFFFFFFFFFFFFFFFFFFFFFFFF AND DUP2 JUMP JUMPDEST PUSH2 0x3BA PUSH2 0x733 JUMP JUMPDEST STOP JUMPDEST PUSH2 0x3BA PUSH2 0x7C9 JUMP JUMPDEST PUSH1 0x7 SLOAD PUSH2 0x340 SWAP1 PUSH20 0xFFFFFFFFFFFFFFFFFFFFFFFFFFFFFFFFFFFFFFFF AND DUP2 JUMP JUMPDEST PUSH2 0x340 PUSH20 0x5386881B46C37CDD30A748F7771CF95D7B213637 DUP2 JUMP JUMPDEST PUSH2 0x372 PUSH2 0x854 JUMP JUMPDEST PUSH2 0x372 PUSH1 0xB SLOAD DUP2 JUMP JUMPDEST PUSH1 0x6 SLOAD PUSH2 0x340 SWAP1 PUSH20 0xFFFFFFFFFFFFFFFFFFFFFFFFFFFFFFFFFFFFFFFF AND DUP2 JUMP JUMPDEST PUSH2 0x3BA PUSH2 0x914 JUMP JUMPDEST PUSH2 0x372 PUSH2 0x446 CALLDATASIZE PUSH1 0x4 PUSH2 0x37E4 JUMP JUMPDEST PUSH2 0x9A7 JUMP JUMPDEST PUSH2 0x372 PUSH1 0x12 SLOAD DUP2 JUMP JUMPDEST PUSH1 0x2 SLOAD PUSH1 0xFF AND PUSH1 0x40 MLOAD SWAP1 ISZERO ISZERO DUP2 MSTORE PUSH1 0x20 ADD PUSH2 0x361 JUMP JUMPDEST PUSH2 0x3BA PUSH2 0xB9B JUMP JUMPDEST PUSH2 0x372 PUSH2 0x2710 DUP2 JUMP JUMPDEST PUSH2 0x372 PUSH1 0xF SLOAD DUP2 JUMP JUMPDEST PUSH1 0x4 SLOAD PUSH2 0x340 SWAP1 PUSH20 0xFFFFFFFFFFFFFFFFFFFFFFFFFFFFFFFFFFFFFFFF AND DUP2 JUMP JUMPDEST PUSH1 0x8 SLOAD PUSH2 0x4C9 SWAP1 PUSH21 0x10000000000000000000000000000000000000000 SWAP1 DIV PUSH1 0xFF AND DUP2 JUMP JUMPDEST PUSH1 0x40 MLOAD PUSH2 0x361 SWAP2 SWAP1 PUSH2 0x3AD0 JUMP JUMPDEST PUSH2 0x3BA PUSH2 0xC31 JUMP JUMPDEST PUSH2 0x340 PUSH2 0xDEAD DUP2 JUMP JUMPDEST PUSH2 0x372 PUSH1 0xD SLOAD DUP2 JUMP JUMPDEST PUSH2 0x3BA PUSH2 0xCBC JUMP JUMPDEST PUSH2 0x372 PUSH1 0xC SLOAD DUP2 JUMP JUMPDEST PUSH2 0x372 PUSH2 0x26AC DUP2 JUMP JUMPDEST PUSH2 0x340 PUSH20 0x917FB15E8AAA12264DCBDC15AFEF7CD3CE76BA39 DUP2 JUMP JUMPDEST PUSH1 0x0 SLOAD PUSH20 0xFFFFFFFFFFFFFFFFFFFFFFFFFFFFFFFFFFFFFFFF AND PUSH2 0x340 JUMP JUMPDEST PUSH2 0x372 PUSH2 0x3E8 DUP2 JUMP JUMPDEST PUSH2 0x340 PUSH20 0x76BF0C28E604CC3FE9967C83B3C3F31C213CFE64 DUP2 JUMP JUMPDEST PUSH2 0x3BA PUSH2 0x575 CALLDATASIZE PUSH1 0x4 PUSH2 0x3A07 JUMP JUMPDEST PUSH2 0xD47 JUMP JUMPDEST PUSH2 0x372 PUSH2 0x3E3 DUP2 JUMP JUMPDEST PUSH2 0x3BA PUSH2 0x1056 JUMP JUMPDEST PUSH2 0x3BA PUSH2 0x599 CALLDATASIZE PUSH1 0x4 PUSH2 0x37C9 JUMP JUMPDEST PUSH2 0x141B JUMP JUMPDEST PUSH2 0x3BA PUSH2 0x14E5 JUMP JUMPDEST PUSH1 0x8 SLOAD PUSH2 0x340 SWAP1 PUSH20 0xFFFFFFFFFFFFFFFFFFFFFFFFFFFFFFFFFFFFFFFF AND DUP2 JUMP JUMPDEST PUSH2 0x340 PUSH20 0xD500B1D8E8EF31E21C99D1DB9A6444D3ADF1270 DUP2 JUMP JUMPDEST PUSH2 0x372 PUSH1 0x11 SLOAD DUP2 JUMP JUMPDEST PUSH1 0x3 SLOAD PUSH2 0x340 SWAP1 PUSH20 0xFFFFFFFFFFFFFFFFFFFFFFFFFFFFFFFFFFFFFFFF AND DUP2 JUMP JUMPDEST PUSH1 0x2 SLOAD PUSH2 0x340 SWAP1 PUSH4 0x1000000 SWAP1 DIV PUSH20 0xFFFFFFFFFFFFFFFFFFFFFFFFFFFFFFFFFFFFFFFF AND DUP2 JUMP JUMPDEST PUSH2 0x372 PUSH1 0x9 SLOAD DUP2 JUMP JUMPDEST PUSH2 0x3BA PUSH2 0x648 CALLDATASIZE PUSH1 0x4 PUSH2 0x37C9 JUMP JUMPDEST PUSH2 0x1B1B JUMP JUMPDEST PUSH2 0x372 PUSH2 0x65B CALLDATASIZE PUSH1 0x4 PUSH2 0x37E4 JUMP JUMPDEST PUSH2 0x1C48 JUMP JUMPDEST PUSH2 0x3BA PUSH2 0x66E CALLDATASIZE PUSH1 0x4 PUSH2 0x3950 JUMP JUMPDEST PUSH2 0x203A JUMP JUMPDEST PUSH2 0x372 PUSH1 0x10 SLOAD DUP2 JUMP JUMPDEST PUSH1 0x7 SLOAD PUSH1 0x9 SLOAD PUSH1 0x40 MLOAD PUSH32 0x93F1A40B00000000000000000000000000000000000000000000000000000000 DUP2 MSTORE PUSH1 0x4 DUP2 ADD SWAP2 SWAP1 SWAP2 MSTORE ADDRESS PUSH1 0x24 DUP3 ADD MSTORE PUSH1 0x0 SWAP2 DUP3 SWAP2 PUSH20 0xFFFFFFFFFFFFFFFFFFFFFFFFFFFFFFFFFFFFFFFF SWAP1 SWAP2 AND SWAP1 PUSH4 0x93F1A40B SWAP1 PUSH1 0x44 ADD PUSH1 0x40 DUP1 MLOAD DUP1 DUP4 SUB DUP2 DUP7 DUP1 EXTCODESIZE ISZERO DUP1 ISZERO PUSH2 0x6F4 JUMPI PUSH1 0x0 DUP1 REVERT JUMPDEST POP GAS STATICCALL ISZERO DUP1 ISZERO PUSH2 0x708 JUMPI RETURNDATASIZE PUSH1 0x0 DUP1 RETURNDATACOPY RETURNDATASIZE PUSH1 0x0 REVERT JUMPDEST POP POP POP POP PUSH1 0x40 MLOAD RETURNDATASIZE PUSH1 0x1F NOT PUSH1 0x1F DUP3 ADD AND DUP3 ADD DUP1 PUSH1 0x40 MSTORE POP DUP2 ADD SWAP1 PUSH2 0x72C SWAP2 SWAP1 PUSH2 0x392C JUMP JUMPDEST POP SWAP3 SWAP2 POP POP JUMP JUMPDEST PUSH1 0x6 SLOAD PUSH20 0xFFFFFFFFFFFFFFFFFFFFFFFFFFFFFFFFFFFFFFFF AND CALLER EQ PUSH2 0x7BF JUMPI PUSH1 0x40 MLOAD PUSH32 0x8C379A000000000000000000000000000000000000000000000000000000000 DUP2 MSTORE PUSH1 0x4 ADD PUSH2 0x7B6 SWAP1 PUSH1 0x20 DUP1 DUP3 MSTORE PUSH1 0x4 SWAP1 DUP3 ADD MSTORE PUSH32 0x21676F7600000000000000000000000000000000000000000000000000000000 PUSH1 0x40 DUP3 ADD MSTORE PUSH1 0x60 ADD SWAP1 JUMP JUMPDEST PUSH1 0x40 MLOAD DUP1 SWAP2 SUB SWAP1 REVERT JUMPDEST PUSH2 0x7C7 PUSH2 0x2208 JUMP JUMPDEST JUMP JUMPDEST PUSH1 0x6 SLOAD PUSH20 0xFFFFFFFFFFFFFFFFFFFFFFFFFFFFFFFFFFFFFFFF AND CALLER EQ PUSH2 0x84C JUMPI PUSH1 0x40 MLOAD PUSH32 0x8C379A000000000000000000000000000000000000000000000000000000000 DUP2 MSTORE PUSH1 0x4 ADD PUSH2 0x7B6 SWAP1 PUSH1 0x20 DUP1 DUP3 MSTORE PUSH1 0x4 SWAP1 DUP3 ADD MSTORE PUSH32 0x21676F7600000000000000000000000000000000000000000000000000000000 PUSH1 0x40 DUP3 ADD MSTORE PUSH1 0x60 ADD SWAP1 JUMP JUMPDEST PUSH2 0x7BF PUSH2 0x23C5 JUMP JUMPDEST PUSH1 0x0 PUSH2 0x85E PUSH2 0x67C JUMP JUMPDEST PUSH1 0x2 SLOAD PUSH1 0x40 MLOAD PUSH32 0x70A0823100000000000000000000000000000000000000000000000000000000 DUP2 MSTORE ADDRESS PUSH1 0x4 DUP3 ADD MSTORE PUSH4 0x1000000 SWAP1 SWAP2 DIV PUSH20 0xFFFFFFFFFFFFFFFFFFFFFFFFFFFFFFFFFFFFFFFF AND SWAP1 PUSH4 0x70A08231 SWAP1 PUSH1 0x24 ADD PUSH1 0x20 PUSH1 0x40 MLOAD DUP1 DUP4 SUB DUP2 DUP7 DUP1 EXTCODESIZE ISZERO DUP1 ISZERO PUSH2 0x8CD JUMPI PUSH1 0x0 DUP1 REVERT JUMPDEST POP GAS STATICCALL ISZERO DUP1 ISZERO PUSH2 0x8E1 JUMPI RETURNDATASIZE PUSH1 0x0 DUP1 RETURNDATACOPY RETURNDATASIZE PUSH1 0x0 REVERT JUMPDEST POP POP POP POP PUSH1 0x40 MLOAD RETURNDATASIZE PUSH1 0x1F NOT PUSH1 0x1F DUP3 ADD AND DUP3 ADD DUP1 PUSH1 0x40 MSTORE POP DUP2 ADD SWAP1 PUSH2 0x905 SWAP2 SWAP1 PUSH2 0x3913 JUMP JUMPDEST PUSH2 0x90F SWAP2 SWAP1 PUSH2 0x3BC4 JUMP JUMPDEST SWAP1 POP SWAP1 JUMP JUMPDEST PUSH1 0x6 SLOAD PUSH20 0xFFFFFFFFFFFFFFFFFFFFFFFFFFFFFFFFFFFFFFFF AND CALLER EQ PUSH2 0x997 JUMPI PUSH1 0x40 MLOAD PUSH32 0x8C379A000000000000000000000000000000000000000000000000000000000 DUP2 MSTORE PUSH1 0x4 ADD PUSH2 0x7B6 SWAP1 PUSH1 0x20 DUP1 DUP3 MSTORE PUSH1 0x4 SWAP1 DUP3 ADD MSTORE PUSH32 0x21676F7600000000000000000000000000000000000000000000000000000000 PUSH1 0x40 DUP3 ADD MSTORE PUSH1 0x60 ADD SWAP1 JUMP JUMPDEST PUSH2 0x99F PUSH2 0x24A6 JUMP JUMPDEST PUSH2 0x7C7 PUSH2 0x2566 JUMP JUMPDEST PUSH1 0x0 DUP1 SLOAD PUSH20 0xFFFFFFFFFFFFFFFFFFFFFFFFFFFFFFFFFFFFFFFF AND CALLER EQ PUSH2 0xA29 JUMPI PUSH1 0x40 MLOAD PUSH32 0x8C379A000000000000000000000000000000000000000000000000000000000 DUP2 MSTORE PUSH1 0x20 PUSH1 0x4 DUP3 ADD DUP2 SWAP1 MSTORE PUSH1 0x24 DUP3 ADD MSTORE PUSH32 0x4F776E61626C653A2063616C6C6572206973206E6F7420746865206F776E6572 PUSH1 0x44 DUP3 ADD MSTORE PUSH1 0x64 ADD PUSH2 0x7B6 JUMP JUMPDEST PUSH1 0x2 PUSH1 0x1 SLOAD EQ ISZERO PUSH2 0xA96 JUMPI PUSH1 0x40 MLOAD PUSH32 0x8C379A000000000000000000000000000000000000000000000000000000000 DUP2 MSTORE PUSH1 0x20 PUSH1 0x4 DUP3 ADD MSTORE PUSH1 0x1F PUSH1 0x24 DUP3 ADD MSTORE PUSH32 0x5265656E7472616E637947756172643A207265656E7472616E742063616C6C00 PUSH1 0x44 DUP3 ADD MSTORE PUSH1 0x64 ADD PUSH2 0x7B6 JUMP JUMPDEST PUSH1 0x2 PUSH1 0x1 SSTORE PUSH2 0xAA7 PUSH1 0x2 SLOAD PUSH1 0xFF AND SWAP1 JUMP JUMPDEST ISZERO PUSH2 0xB0E JUMPI PUSH1 0x40 MLOAD PUSH32 0x8C379A000000000000000000000000000000000000000000000000000000000 DUP2 MSTORE PUSH1 0x20 PUSH1 0x4 DUP3 ADD MSTORE PUSH1 0x10 PUSH1 0x24 DUP3 ADD MSTORE PUSH32 0x5061757361626C653A2070617573656400000000000000000000000000000000 PUSH1 0x44 DUP3 ADD MSTORE PUSH1 0x64 ADD PUSH2 0x7B6 JUMP JUMPDEST PUSH1 0x0 PUSH2 0xB18 PUSH2 0x854 JUMP JUMPDEST PUSH1 0x2 SLOAD SWAP1 SWAP2 POP PUSH2 0xB47 SWAP1 PUSH4 0x1000000 SWAP1 DIV PUSH20 0xFFFFFFFFFFFFFFFFFFFFFFFFFFFFFFFFFFFFFFFF AND CALLER ADDRESS DUP7 PUSH2 0x25F5 JUMP JUMPDEST PUSH1 0x0 PUSH2 0xB51 PUSH2 0x26D1 JUMP JUMPDEST PUSH1 0xB SLOAD SWAP1 SWAP2 POP ISZERO PUSH2 0xB78 JUMPI DUP2 PUSH1 0xB SLOAD DUP3 PUSH2 0xB6B SWAP2 SWAP1 PUSH2 0x3BF0 JUMP JUMPDEST PUSH2 0xB75 SWAP2 SWAP1 PUSH2 0x3BDC JUMP JUMPDEST SWAP1 POP JUMPDEST DUP1 PUSH1 0xB PUSH1 0x0 DUP3 DUP3 SLOAD PUSH2 0xB8A SWAP2 SWAP1 PUSH2 0x3BC4 JUMP JUMPDEST SWAP1 SWAP2 SSTORE POP POP PUSH1 0x1 DUP1 SSTORE SWAP5 SWAP4 POP POP POP POP JUMP JUMPDEST PUSH1 0x6 SLOAD PUSH20 0xFFFFFFFFFFFFFFFFFFFFFFFFFFFFFFFFFFFFFFFF AND CALLER EQ PUSH2 0xC1E JUMPI PUSH1 0x40 MLOAD PUSH32 0x8C379A000000000000000000000000000000000000000000000000000000000 DUP2 MSTORE PUSH1 0x4 ADD PUSH2 0x7B6 SWAP1 PUSH1 0x20 DUP1 DUP3 MSTORE PUSH1 0x4 SWAP1 DUP3 ADD MSTORE PUSH32 0x21676F7600000000000000000000000000000000000000000000000000000000 PUSH1 0x40 DUP3 ADD MSTORE PUSH1 0x60 ADD SWAP1 JUMP JUMPDEST PUSH2 0xC26 PUSH2 0x23C5 JUMP JUMPDEST PUSH2 0xC2E PUSH2 0x26D1 JUMP JUMPDEST POP JUMP JUMPDEST PUSH1 0x0 SLOAD PUSH20 0xFFFFFFFFFFFFFFFFFFFFFFFFFFFFFFFFFFFFFFFF AND CALLER EQ PUSH2 0xCB2 JUMPI PUSH1 0x40 MLOAD PUSH32 0x8C379A000000000000000000000000000000000000000000000000000000000 DUP2 MSTORE PUSH1 0x20 PUSH1 0x4 DUP3 ADD DUP2 SWAP1 MSTORE PUSH1 0x24 DUP3 ADD MSTORE PUSH32 0x4F776E61626C653A2063616C6C6572206973206E6F7420746865206F776E6572 PUSH1 0x44 DUP3 ADD MSTORE PUSH1 0x64 ADD PUSH2 0x7B6 JUMP JUMPDEST PUSH2 0x7C7 PUSH1 0x0 PUSH2 0x27BF JUMP JUMPDEST PUSH1 0x6 SLOAD PUSH20 0xFFFFFFFFFFFFFFFFFFFFFFFFFFFFFFFFFFFFFFFF AND CALLER EQ PUSH2 0xD3F JUMPI PUSH1 0x40 MLOAD PUSH32 0x8C379A000000000000000000000000000000000000000000000000000000000 DUP2 MSTORE PUSH1 0x4 ADD PUSH2 0x7B6 SWAP1 PUSH1 0x20 DUP1 DUP3 MSTORE PUSH1 0x4 SWAP1 DUP3 ADD MSTORE PUSH32 0x21676F7600000000000000000000000000000000000000000000000000000000 PUSH1 0x40 DUP3 ADD MSTORE PUSH1 0x60 ADD SWAP1 JUMP JUMPDEST PUSH2 0x7C7 PUSH2 0x24A6 JUMP JUMPDEST PUSH1 0x6 SLOAD PUSH20 0xFFFFFFFFFFFFFFFFFFFFFFFFFFFFFFFFFFFFFFFF AND CALLER EQ PUSH2 0xDCA JUMPI PUSH1 0x40 MLOAD PUSH32 0x8C379A000000000000000000000000000000000000000000000000000000000 DUP2 MSTORE PUSH1 0x4 ADD PUSH2 0x7B6 SWAP1 PUSH1 0x20 DUP1 DUP3 MSTORE PUSH1 0x4 SWAP1 DUP3 ADD MSTORE PUSH32 0x21676F7600000000000000000000000000000000000000000000000000000000 PUSH1 0x40 DUP3 ADD MSTORE PUSH1 0x60 ADD SWAP1 JUMP JUMPDEST PUSH2 0x3E8 DUP6 PUSH2 0xDD8 DUP9 DUP11 PUSH2 0x3BC4 JUMP JUMPDEST PUSH2 0xDE2 SWAP2 SWAP1 PUSH2 0x3BC4 JUMP JUMPDEST GT ISZERO PUSH2 0xE4A JUMPI PUSH1 0x40 MLOAD PUSH32 0x8C379A000000000000000000000000000000000000000000000000000000000 DUP2 MSTORE PUSH1 0x20 PUSH1 0x4 DUP3 ADD MSTORE PUSH1 0xE PUSH1 0x24 DUP3 ADD MSTORE PUSH32 0x4D617820666565206F6620313025000000000000000000000000000000000000 PUSH1 0x44 DUP3 ADD MSTORE PUSH1 0x64 ADD PUSH2 0x7B6 JUMP JUMPDEST PUSH2 0x26AC DUP5 LT ISZERO PUSH2 0xEB6 JUMPI PUSH1 0x40 MLOAD PUSH32 0x8C379A000000000000000000000000000000000000000000000000000000000 DUP2 MSTORE PUSH1 0x20 PUSH1 0x4 DUP3 ADD MSTORE PUSH1 0x1A PUSH1 0x24 DUP3 ADD MSTORE PUSH32 0x5F7769746864726177466565466163746F7220746F6F206C6F77000000000000 PUSH1 0x44 DUP3 ADD MSTORE PUSH1 0x64 ADD PUSH2 0x7B6 JUMP JUMPDEST PUSH2 0x2710 DUP5 GT ISZERO PUSH2 0xF22 JUMPI PUSH1 0x40 MLOAD PUSH32 0x8C379A000000000000000000000000000000000000000000000000000000000 DUP2 MSTORE PUSH1 0x20 PUSH1 0x4 DUP3 ADD MSTORE PUSH1 0x1B PUSH1 0x24 DUP3 ADD MSTORE PUSH32 0x5F7769746864726177466565466163746F7220746F6F20686967680000000000 PUSH1 0x44 DUP3 ADD MSTORE PUSH1 0x64 ADD PUSH2 0x7B6 JUMP JUMPDEST PUSH2 0x3E3 DUP4 GT ISZERO PUSH2 0xF8E JUMPI PUSH1 0x40 MLOAD PUSH32 0x8C379A000000000000000000000000000000000000000000000000000000000 DUP2 MSTORE PUSH1 0x20 PUSH1 0x4 DUP3 ADD MSTORE PUSH1 0x18 PUSH1 0x24 DUP3 ADD MSTORE PUSH32 0x5F736C697070616765466163746F7220746F6F20686967680000000000000000 PUSH1 0x44 DUP3 ADD MSTORE PUSH1 0x64 ADD PUSH2 0x7B6 JUMP JUMPDEST PUSH1 0xC DUP8 SWAP1 SSTORE PUSH1 0xD DUP7 SWAP1 SSTORE PUSH1 0xE DUP6 SWAP1 SSTORE PUSH1 0xF DUP5 SWAP1 SSTORE PUSH1 0x10 DUP4 SWAP1 SSTORE PUSH1 0x11 DUP3 SWAP1 SSTORE PUSH1 0x4 DUP1 SLOAD PUSH32 0xFFFFFFFFFFFFFFFFFFFFFFFF0000000000000000000000000000000000000000 AND PUSH20 0xFFFFFFFFFFFFFFFFFFFFFFFFFFFFFFFFFFFFFFFF DUP4 AND SWAP1 DUP2 OR SWAP1 SWAP2 SSTORE PUSH1 0x40 DUP1 MLOAD DUP10 DUP2 MSTORE PUSH1 0x20 DUP2 ADD DUP10 SWAP1 MSTORE SWAP1 DUP2 ADD DUP8 SWAP1 MSTORE PUSH1 0x60 DUP2 ADD DUP7 SWAP1 MSTORE PUSH1 0x80 DUP2 ADD DUP6 SWAP1 MSTORE PUSH1 0xA0 DUP2 ADD DUP5 SWAP1 MSTORE PUSH1 0xC0 DUP2 ADD SWAP2 SWAP1 SWAP2 MSTORE PUSH32 0x813767A04E11DFAB70A5EC48C4FD7C344AB48E62196586790931DC9DFAED97E9 SWAP1 PUSH1 0xE0 ADD PUSH1 0x40 MLOAD DUP1 SWAP2 SUB SWAP1 LOG1 POP POP POP POP POP POP POP JUMP JUMPDEST PUSH1 0x2 PUSH1 0x1 SLOAD EQ ISZERO PUSH2 0x10C3 JUMPI PUSH1 0x40 MLOAD PUSH32 0x8C379A000000000000000000000000000000000000000000000000000000000 DUP2 MSTORE PUSH1 0x20 PUSH1 0x4 DUP3 ADD MSTORE PUSH1 0x1F PUSH1 0x24 DUP3 ADD MSTORE PUSH32 0x5265656E7472616E637947756172643A207265656E7472616E742063616C6C00 PUSH1 0x44 DUP3 ADD MSTORE PUSH1 0x64 ADD PUSH2 0x7B6 JUMP JUMPDEST PUSH1 0x2 PUSH1 0x1 SSTORE PUSH2 0x10D4 PUSH1 0x2 SLOAD PUSH1 0xFF AND SWAP1 JUMP JUMPDEST ISZERO PUSH2 0x113B JUMPI PUSH1 0x40 MLOAD PUSH32 0x8C379A000000000000000000000000000000000000000000000000000000000 DUP2 MSTORE PUSH1 0x20 PUSH1 0x4 DUP3 ADD MSTORE PUSH1 0x10 PUSH1 0x24 DUP3 ADD MSTORE PUSH32 0x5061757361626C653A2070617573656400000000000000000000000000000000 PUSH1 0x44 DUP3 ADD MSTORE PUSH1 0x64 ADD PUSH2 0x7B6 JUMP JUMPDEST PUSH1 0x0 PUSH1 0x13 PUSH1 0x5 ADD PUSH1 0x0 DUP2 SLOAD DUP2 LT PUSH2 0x1154 JUMPI PUSH2 0x1154 PUSH2 0x3CE2 JUMP JUMPDEST PUSH1 0x0 SWAP2 DUP3 MSTORE PUSH1 0x20 DUP3 KECCAK256 ADD SLOAD PUSH1 0x40 MLOAD PUSH32 0x70A0823100000000000000000000000000000000000000000000000000000000 DUP2 MSTORE ADDRESS PUSH1 0x4 DUP3 ADD MSTORE PUSH20 0xFFFFFFFFFFFFFFFFFFFFFFFFFFFFFFFFFFFFFFFF SWAP1 SWAP2 AND SWAP3 POP DUP3 SWAP1 PUSH4 0x70A08231 SWAP1 PUSH1 0x24 ADD PUSH1 0x20 PUSH1 0x40 MLOAD DUP1 DUP4 SUB DUP2 DUP7 DUP1 EXTCODESIZE ISZERO DUP1 ISZERO PUSH2 0x11C8 JUMPI PUSH1 0x0 DUP1 REVERT JUMPDEST POP GAS STATICCALL ISZERO DUP1 ISZERO PUSH2 0x11DC JUMPI RETURNDATASIZE PUSH1 0x0 DUP1 RETURNDATACOPY RETURNDATASIZE PUSH1 0x0 REVERT JUMPDEST POP POP POP POP PUSH1 0x40 MLOAD RETURNDATASIZE PUSH1 0x1F NOT PUSH1 0x1F DUP3 ADD AND DUP3 ADD DUP1 PUSH1 0x40 MSTORE POP DUP2 ADD SWAP1 PUSH2 0x1200 SWAP2 SWAP1 PUSH2 0x3913 JUMP JUMPDEST SWAP1 POP PUSH1 0x0 DUP2 GT DUP1 ISZERO PUSH2 0x122D JUMPI POP PUSH1 0x3 SLOAD PUSH20 0xFFFFFFFFFFFFFFFFFFFFFFFFFFFFFFFFFFFFFFFF DUP4 DUP2 AND SWAP2 AND EQ ISZERO JUMPDEST ISZERO PUSH2 0x12A7 JUMPI PUSH2 0x12A7 DUP2 PUSH1 0x13 PUSH1 0x5 ADD DUP1 SLOAD DUP1 PUSH1 0x20 MUL PUSH1 0x20 ADD PUSH1 0x40 MLOAD SWAP1 DUP2 ADD PUSH1 0x40 MSTORE DUP1 SWAP3 SWAP2 SWAP1 DUP2 DUP2 MSTORE PUSH1 0x20 ADD DUP3 DUP1 SLOAD DUP1 ISZERO PUSH2 0x129C JUMPI PUSH1 0x20 MUL DUP3 ADD SWAP2 SWAP1 PUSH1 0x0 MSTORE PUSH1 0x20 PUSH1 0x0 KECCAK256 SWAP1 JUMPDEST DUP2 SLOAD PUSH20 0xFFFFFFFFFFFFFFFFFFFFFFFFFFFFFFFFFFFFFFFF AND DUP2 MSTORE PUSH1 0x1 SWAP1 SWAP2 ADD SWAP1 PUSH1 0x20 ADD DUP1 DUP4 GT PUSH2 0x1271 JUMPI JUMPDEST POP POP POP POP POP ADDRESS PUSH2 0x2834 JUMP JUMPDEST PUSH1 0x0 PUSH1 0x13 PUSH1 0x6 ADD PUSH1 0x0 DUP2 SLOAD DUP2 LT PUSH2 0x12C0 JUMPI PUSH2 0x12C0 PUSH2 0x3CE2 JUMP JUMPDEST PUSH1 0x0 SWAP2 DUP3 MSTORE PUSH1 0x20 DUP3 KECCAK256 ADD SLOAD PUSH1 0x40 MLOAD PUSH32 0x70A0823100000000000000000000000000000000000000000000000000000000 DUP2 MSTORE ADDRESS PUSH1 0x4 DUP3 ADD MSTORE PUSH20 0xFFFFFFFFFFFFFFFFFFFFFFFFFFFFFFFFFFFFFFFF SWAP1 SWAP2 AND SWAP3 POP DUP3 SWAP1 PUSH4 0x70A08231 SWAP1 PUSH1 0x24 ADD PUSH1 0x20 PUSH1 0x40 MLOAD DUP1 DUP4 SUB DUP2 DUP7 DUP1 EXTCODESIZE ISZERO DUP1 ISZERO PUSH2 0x1334 JUMPI PUSH1 0x0 DUP1 REVERT JUMPDEST POP GAS STATICCALL ISZERO DUP1 ISZERO PUSH2 0x1348 JUMPI RETURNDATASIZE PUSH1 0x0 DUP1 RETURNDATACOPY RETURNDATASIZE PUSH1 0x0 REVERT JUMPDEST POP POP POP POP PUSH1 0x40 MLOAD RETURNDATASIZE PUSH1 0x1F NOT PUSH1 0x1F DUP3 ADD AND DUP3 ADD DUP1 PUSH1 0x40 MSTORE POP DUP2 ADD SWAP1 PUSH2 0x136C SWAP2 SWAP1 PUSH2 0x3913 JUMP JUMPDEST SWAP1 POP PUSH1 0x0 DUP2 GT DUP1 ISZERO PUSH2 0x1399 JUMPI POP PUSH1 0x3 SLOAD PUSH20 0xFFFFFFFFFFFFFFFFFFFFFFFFFFFFFFFFFFFFFFFF DUP4 DUP2 AND SWAP2 AND EQ ISZERO JUMPDEST ISZERO PUSH2 0x1411 JUMPI PUSH2 0x1411 DUP2 PUSH1 0x13 PUSH1 0x6 ADD DUP1 SLOAD DUP1 PUSH1 0x20 MUL PUSH1 0x20 ADD PUSH1 0x40 MLOAD SWAP1 DUP2 ADD PUSH1 0x40 MSTORE DUP1 SWAP3 SWAP2 SWAP1 DUP2 DUP2 MSTORE PUSH1 0x20 ADD DUP3 DUP1 SLOAD DUP1 ISZERO PUSH2 0x129C JUMPI PUSH1 0x20 MUL DUP3 ADD SWAP2 SWAP1 PUSH1 0x0 MSTORE PUSH1 0x20 PUSH1 0x0 KECCAK256 SWAP1 DUP2 SLOAD PUSH20 0xFFFFFFFFFFFFFFFFFFFFFFFFFFFFFFFFFFFFFFFF AND DUP2 MSTORE PUSH1 0x1 SWAP1 SWAP2 ADD SWAP1 PUSH1 0x20 ADD DUP1 DUP4 GT PUSH2 0x1271 JUMPI POP POP POP POP POP ADDRESS PUSH2 0x2834 JUMP JUMPDEST POP POP PUSH1 0x1 DUP1 SSTORE POP POP JUMP JUMPDEST PUSH1 0x6 SLOAD PUSH20 0xFFFFFFFFFFFFFFFFFFFFFFFFFFFFFFFFFFFFFFFF AND CALLER EQ PUSH2 0x149E JUMPI PUSH1 0x40 MLOAD PUSH32 0x8C379A000000000000000000000000000000000000000000000000000000000 DUP2 MSTORE PUSH1 0x4 ADD PUSH2 0x7B6 SWAP1 PUSH1 0x20 DUP1 DUP3 MSTORE PUSH1 0x4 SWAP1 DUP3 ADD MSTORE PUSH32 0x21676F7600000000000000000000000000000000000000000000000000000000 PUSH1 0x40 DUP3 ADD MSTORE PUSH1 0x60 ADD SWAP1 JUMP JUMPDEST PUSH1 0x6 DUP1 SLOAD PUSH32 0xFFFFFFFFFFFFFFFFFFFFFFFF0000000000000000000000000000000000000000 AND PUSH20 0xFFFFFFFFFFFFFFFFFFFFFFFFFFFFFFFFFFFFFFFF SWAP3 SWAP1 SWAP3 AND SWAP2 SWAP1 SWAP2 OR SWAP1 SSTORE JUMP JUMPDEST PUSH1 0x2 PUSH1 0x1 SLOAD EQ ISZERO PUSH2 0x1552 JUMPI PUSH1 0x40 MLOAD PUSH32 0x8C379A000000000000000000000000000000000000000000000000000000000 DUP2 MSTORE PUSH1 0x20 PUSH1 0x4 DUP3 ADD MSTORE PUSH1 0x1F PUSH1 0x24 DUP3 ADD MSTORE PUSH32 0x5265656E7472616E637947756172643A207265656E7472616E742063616C6C00 PUSH1 0x44 DUP3 ADD MSTORE PUSH1 0x64 ADD PUSH2 0x7B6 JUMP JUMPDEST PUSH1 0x2 PUSH1 0x1 SSTORE PUSH2 0x1563 PUSH1 0x2 SLOAD PUSH1 0xFF AND SWAP1 JUMP JUMPDEST ISZERO PUSH2 0x15CA JUMPI PUSH1 0x40 MLOAD PUSH32 0x8C379A000000000000000000000000000000000000000000000000000000000 DUP2 MSTORE PUSH1 0x20 PUSH1 0x4 DUP3 ADD MSTORE PUSH1 0x10 PUSH1 0x24 DUP3 ADD MSTORE PUSH32 0x5061757361626C653A2070617573656400000000000000000000000000000000 PUSH1 0x44 DUP3 ADD MSTORE PUSH1 0x64 ADD PUSH2 0x7B6 JUMP JUMPDEST PUSH1 0x0 SLOAD PUSH20 0xFFFFFFFFFFFFFFFFFFFFFFFFFFFFFFFFFFFFFFFF AND CALLER EQ PUSH2 0x164B JUMPI PUSH1 0x40 MLOAD PUSH32 0x8C379A000000000000000000000000000000000000000000000000000000000 DUP2 MSTORE PUSH1 0x20 PUSH1 0x4 DUP3 ADD DUP2 SWAP1 MSTORE PUSH1 0x24 DUP3 ADD MSTORE PUSH32 0x4F776E61626C653A2063616C6C6572206973206E6F7420746865206F776E6572 PUSH1 0x44 DUP3 ADD MSTORE PUSH1 0x64 ADD PUSH2 0x7B6 JUMP JUMPDEST PUSH2 0x1653 PUSH2 0x2ABF JUMP JUMPDEST PUSH1 0x3 SLOAD PUSH1 0x40 MLOAD PUSH32 0x70A0823100000000000000000000000000000000000000000000000000000000 DUP2 MSTORE ADDRESS PUSH1 0x4 DUP3 ADD MSTORE PUSH1 0x0 SWAP2 PUSH20 0xFFFFFFFFFFFFFFFFFFFFFFFFFFFFFFFFFFFFFFFF AND SWAP1 PUSH4 0x70A08231 SWAP1 PUSH1 0x24 ADD PUSH1 0x20 PUSH1 0x40 MLOAD DUP1 DUP4 SUB DUP2 DUP7 DUP1 EXTCODESIZE ISZERO DUP1 ISZERO PUSH2 0x16BD JUMPI PUSH1 0x0 DUP1 REVERT JUMPDEST POP GAS STATICCALL ISZERO DUP1 ISZERO PUSH2 0x16D1 JUMPI RETURNDATASIZE PUSH1 0x0 DUP1 RETURNDATACOPY RETURNDATASIZE PUSH1 0x0 REVERT JUMPDEST POP POP POP POP PUSH1 0x40 MLOAD RETURNDATASIZE PUSH1 0x1F NOT PUSH1 0x1F DUP3 ADD AND DUP3 ADD DUP1 PUSH1 0x40 MSTORE POP DUP2 ADD SWAP1 PUSH2 0x16F5 SWAP2 SWAP1 PUSH2 0x3913 JUMP JUMPDEST SWAP1 POP DUP1 ISZERO PUSH2 0x1B14 JUMPI PUSH2 0x1706 DUP2 PUSH2 0x2B21 JUMP JUMPDEST SWAP1 POP PUSH2 0x1711 DUP2 PUSH2 0x2BE6 JUMP JUMPDEST SWAP1 POP PUSH2 0x171C DUP2 PUSH2 0x2E83 JUMP JUMPDEST SWAP1 POP PUSH1 0x0 PUSH1 0x13 PUSH1 0x5 ADD PUSH1 0x0 DUP2 SLOAD DUP2 LT PUSH2 0x1737 JUMPI PUSH2 0x1737 PUSH2 0x3CE2 JUMP JUMPDEST PUSH1 0x0 SWAP2 DUP3 MSTORE PUSH1 0x20 SWAP1 SWAP2 KECCAK256 ADD SLOAD PUSH1 0x3 SLOAD PUSH20 0xFFFFFFFFFFFFFFFFFFFFFFFFFFFFFFFFFFFFFFFF SWAP2 DUP3 AND SWAP3 POP AND DUP2 EQ PUSH2 0x17DE JUMPI PUSH2 0x17DE PUSH2 0x1775 PUSH1 0x2 DUP5 PUSH2 0x3BDC JUMP JUMPDEST PUSH1 0x16 DUP1 SLOAD PUSH1 0x40 DUP1 MLOAD PUSH1 0x20 DUP1 DUP5 MUL DUP3 ADD DUP2 ADD SWAP1 SWAP3 MSTORE DUP3 DUP2 MSTORE SWAP3 SWAP2 SWAP1 DUP4 ADD DUP3 DUP3 DUP1 ISZERO PUSH2 0x129C JUMPI PUSH1 0x20 MUL DUP3 ADD SWAP2 SWAP1 PUSH1 0x0 MSTORE PUSH1 0x20 PUSH1 0x0 KECCAK256 SWAP1 DUP2 SLOAD PUSH20 0xFFFFFFFFFFFFFFFFFFFFFFFFFFFFFFFFFFFFFFFF AND DUP2 MSTORE PUSH1 0x1 SWAP1 SWAP2 ADD SWAP1 PUSH1 0x20 ADD DUP1 DUP4 GT PUSH2 0x1271 JUMPI POP POP POP POP POP ADDRESS PUSH2 0x2834 JUMP JUMPDEST PUSH1 0x0 PUSH1 0x13 PUSH1 0x6 ADD PUSH1 0x0 DUP2 SLOAD DUP2 LT PUSH2 0x17F7 JUMPI PUSH2 0x17F7 PUSH2 0x3CE2 JUMP JUMPDEST PUSH1 0x0 SWAP2 DUP3 MSTORE PUSH1 0x20 SWAP1 SWAP2 KECCAK256 ADD SLOAD PUSH1 0x3 SLOAD PUSH20 0xFFFFFFFFFFFFFFFFFFFFFFFFFFFFFFFFFFFFFFFF SWAP2 DUP3 AND SWAP3 POP AND DUP2 EQ PUSH2 0x189E JUMPI PUSH2 0x189E PUSH2 0x1835 PUSH1 0x2 DUP6 PUSH2 0x3BDC JUMP JUMPDEST PUSH1 0x17 DUP1 SLOAD PUSH1 0x40 DUP1 MLOAD PUSH1 0x20 DUP1 DUP5 MUL DUP3 ADD DUP2 ADD SWAP1 SWAP3 MSTORE DUP3 DUP2 MSTORE SWAP3 SWAP2 SWAP1 DUP4 ADD DUP3 DUP3 DUP1 ISZERO PUSH2 0x129C JUMPI PUSH1 0x20 MUL DUP3 ADD SWAP2 SWAP1 PUSH1 0x0 MSTORE PUSH1 0x20 PUSH1 0x0 KECCAK256 SWAP1 DUP2 SLOAD PUSH20 0xFFFFFFFFFFFFFFFFFFFFFFFFFFFFFFFFFFFFFFFF AND DUP2 MSTORE PUSH1 0x1 SWAP1 SWAP2 ADD SWAP1 PUSH1 0x20 ADD DUP1 DUP4 GT PUSH2 0x1271 JUMPI POP POP POP POP POP ADDRESS PUSH2 0x2834 JUMP JUMPDEST PUSH1 0x40 MLOAD PUSH32 0x70A0823100000000000000000000000000000000000000000000000000000000 DUP2 MSTORE ADDRESS PUSH1 0x4 DUP3 ADD MSTORE PUSH1 0x0 SWAP1 PUSH20 0xFFFFFFFFFFFFFFFFFFFFFFFFFFFFFFFFFFFFFFFF DUP5 AND SWAP1 PUSH4 0x70A08231 SWAP1 PUSH1 0x24 ADD PUSH1 0x20 PUSH1 0x40 MLOAD DUP1 DUP4 SUB DUP2 DUP7 DUP1 EXTCODESIZE ISZERO DUP1 ISZERO PUSH2 0x1906 JUMPI PUSH1 0x0 DUP1 REVERT JUMPDEST POP GAS STATICCALL ISZERO DUP1 ISZERO PUSH2 0x191A JUMPI RETURNDATASIZE PUSH1 0x0 DUP1 RETURNDATACOPY RETURNDATASIZE PUSH1 0x0 REVERT JUMPDEST POP POP POP POP PUSH1 0x40 MLOAD RETURNDATASIZE PUSH1 0x1F NOT PUSH1 0x1F DUP3 ADD AND DUP3 ADD DUP1 PUSH1 0x40 MSTORE POP DUP2 ADD SWAP1 PUSH2 0x193E SWAP2 SWAP1 PUSH2 0x3913 JUMP JUMPDEST PUSH1 0x40 MLOAD PUSH32 0x70A0823100000000000000000000000000000000000000000000000000000000 DUP2 MSTORE ADDRESS PUSH1 0x4 DUP3 ADD MSTORE SWAP1 SWAP2 POP PUSH1 0x0 SWAP1 PUSH20 0xFFFFFFFFFFFFFFFFFFFFFFFFFFFFFFFFFFFFFFFF DUP5 AND SWAP1 PUSH4 0x70A08231 SWAP1 PUSH1 0x24 ADD PUSH1 0x20 PUSH1 0x40 MLOAD DUP1 DUP4 SUB DUP2 DUP7 DUP1 EXTCODESIZE ISZERO DUP1 ISZERO PUSH2 0x19A9 JUMPI PUSH1 0x0 DUP1 REVERT JUMPDEST POP GAS STATICCALL ISZERO DUP1 ISZERO PUSH2 0x19BD JUMPI RETURNDATASIZE PUSH1 0x0 DUP1 RETURNDATACOPY RETURNDATASIZE PUSH1 0x0 REVERT JUMPDEST POP POP POP POP PUSH1 0x40 MLOAD RETURNDATASIZE PUSH1 0x1F NOT PUSH1 0x1F DUP3 ADD AND DUP3 ADD DUP1 PUSH1 0x40 MSTORE POP DUP2 ADD SWAP1 PUSH2 0x19E1 SWAP2 SWAP1 PUSH2 0x3913 JUMP JUMPDEST SWAP1 POP PUSH1 0x0 DUP3 GT DUP1 ISZERO PUSH2 0x19F3 JUMPI POP PUSH1 0x0 DUP2 GT JUMPDEST ISZERO PUSH2 0x1B02 JUMPI PUSH1 0x4 SLOAD PUSH20 0xFFFFFFFFFFFFFFFFFFFFFFFFFFFFFFFFFFFFFFFF AND PUSH4 0xE8E33700 DUP6 DUP6 DUP6 DUP6 PUSH1 0x0 DUP1 ADDRESS PUSH2 0x1A2A TIMESTAMP PUSH2 0x258 PUSH2 0x3BC4 JUMP JUMPDEST PUSH1 0x40 MLOAD PUSH1 0xE0 DUP11 SWAP1 SHL PUSH32 0xFFFFFFFF00000000000000000000000000000000000000000000000000000000 AND DUP2 MSTORE PUSH20 0xFFFFFFFFFFFFFFFFFFFFFFFFFFFFFFFFFFFFFFFF SWAP9 DUP10 AND PUSH1 0x4 DUP3 ADD MSTORE SWAP7 DUP9 AND PUSH1 0x24 DUP9 ADD MSTORE PUSH1 0x44 DUP8 ADD SWAP6 SWAP1 SWAP6 MSTORE PUSH1 0x64 DUP7 ADD SWAP4 SWAP1 SWAP4 MSTORE PUSH1 0x84 DUP6 ADD SWAP2 SWAP1 SWAP2 MSTORE PUSH1 0xA4 DUP5 ADD MSTORE SWAP1 SWAP3 AND PUSH1 0xC4 DUP3 ADD MSTORE PUSH1 0xE4 DUP2 ADD SWAP2 SWAP1 SWAP2 MSTORE PUSH2 0x104 ADD PUSH1 0x60 PUSH1 0x40 MLOAD DUP1 DUP4 SUB DUP2 PUSH1 0x0 DUP8 DUP1 EXTCODESIZE ISZERO DUP1 ISZERO PUSH2 0x1AC6 JUMPI PUSH1 0x0 DUP1 REVERT JUMPDEST POP GAS CALL ISZERO DUP1 ISZERO PUSH2 0x1ADA JUMPI RETURNDATASIZE PUSH1 0x0 DUP1 RETURNDATACOPY RETURNDATASIZE PUSH1 0x0 REVERT JUMPDEST POP POP POP POP PUSH1 0x40 MLOAD RETURNDATASIZE PUSH1 0x1F NOT PUSH1 0x1F DUP3 ADD AND DUP3 ADD DUP1 PUSH1 0x40 MSTORE POP DUP2 ADD SWAP1 PUSH2 0x1AFE SWAP2 SWAP1 PUSH2 0x39D9 JUMP JUMPDEST POP POP POP JUMPDEST NUMBER PUSH1 0xA SSTORE PUSH2 0x1B0E PUSH2 0x26D1 JUMP JUMPDEST POP POP POP POP POP JUMPDEST POP PUSH1 0x1 DUP1 SSTORE JUMP JUMPDEST PUSH1 0x0 SLOAD PUSH20 0xFFFFFFFFFFFFFFFFFFFFFFFFFFFFFFFFFFFFFFFF AND CALLER EQ PUSH2 0x1B9C JUMPI PUSH1 0x40 MLOAD PUSH32 0x8C379A000000000000000000000000000000000000000000000000000000000 DUP2 MSTORE PUSH1 0x20 PUSH1 0x4 DUP3 ADD DUP2 SWAP1 MSTORE PUSH1 0x24 DUP3 ADD MSTORE PUSH32 0x4F776E61626C653A2063616C6C6572206973206E6F7420746865206F776E6572 PUSH1 0x44 DUP3 ADD MSTORE PUSH1 0x64 ADD PUSH2 0x7B6 JUMP JUMPDEST PUSH20 0xFFFFFFFFFFFFFFFFFFFFFFFFFFFFFFFFFFFFFFFF DUP2 AND PUSH2 0x1C3F JUMPI PUSH1 0x40 MLOAD PUSH32 0x8C379A000000000000000000000000000000000000000000000000000000000 DUP2 MSTORE PUSH1 0x20 PUSH1 0x4 DUP3 ADD MSTORE PUSH1 0x26 PUSH1 0x24 DUP3 ADD MSTORE PUSH32 0x4F776E61626C653A206E6577206F776E657220697320746865207A65726F2061 PUSH1 0x44 DUP3 ADD MSTORE PUSH32 0x6464726573730000000000000000000000000000000000000000000000000000 PUSH1 0x64 DUP3 ADD MSTORE PUSH1 0x84 ADD PUSH2 0x7B6 JUMP JUMPDEST PUSH2 0xC2E DUP2 PUSH2 0x27BF JUMP JUMPDEST PUSH1 0x0 DUP1 SLOAD PUSH20 0xFFFFFFFFFFFFFFFFFFFFFFFFFFFFFFFFFFFFFFFF AND CALLER EQ PUSH2 0x1CCA JUMPI PUSH1 0x40 MLOAD PUSH32 0x8C379A000000000000000000000000000000000000000000000000000000000 DUP2 MSTORE PUSH1 0x20 PUSH1 0x4 DUP3 ADD DUP2 SWAP1 MSTORE PUSH1 0x24 DUP3 ADD MSTORE PUSH32 0x4F776E61626C653A2063616C6C6572206973206E6F7420746865206F776E6572 PUSH1 0x44 DUP3 ADD MSTORE PUSH1 0x64 ADD PUSH2 0x7B6 JUMP JUMPDEST PUSH1 0x2 PUSH1 0x1 SLOAD EQ ISZERO PUSH2 0x1D37 JUMPI PUSH1 0x40 MLOAD PUSH32 0x8C379A000000000000000000000000000000000000000000000000000000000 DUP2 MSTORE PUSH1 0x20 PUSH1 0x4 DUP3 ADD MSTORE PUSH1 0x1F PUSH1 0x24 DUP3 ADD MSTORE PUSH32 0x5265656E7472616E637947756172643A207265656E7472616E742063616C6C00 PUSH1 0x44 DUP3 ADD MSTORE PUSH1 0x64 ADD PUSH2 0x7B6 JUMP JUMPDEST PUSH1 0x2 PUSH1 0x1 SSTORE DUP2 PUSH2 0x1DA3 JUMPI PUSH1 0x40 MLOAD PUSH32 0x8C379A000000000000000000000000000000000000000000000000000000000 DUP2 MSTORE PUSH1 0x20 PUSH1 0x4 DUP3 ADD MSTORE PUSH1 0xD PUSH1 0x24 DUP3 ADD MSTORE PUSH32 0x5F77616E74416D74206973203000000000000000000000000000000000000000 PUSH1 0x44 DUP3 ADD MSTORE PUSH1 0x64 ADD PUSH2 0x7B6 JUMP JUMPDEST PUSH1 0x2 SLOAD PUSH1 0x40 MLOAD PUSH32 0x70A0823100000000000000000000000000000000000000000000000000000000 DUP2 MSTORE ADDRESS PUSH1 0x4 DUP3 ADD MSTORE PUSH1 0x0 SWAP2 PUSH4 0x1000000 SWAP1 DIV PUSH20 0xFFFFFFFFFFFFFFFFFFFFFFFFFFFFFFFFFFFFFFFF AND SWAP1 PUSH4 0x70A08231 SWAP1 PUSH1 0x24 ADD PUSH1 0x20 PUSH1 0x40 MLOAD DUP1 DUP4 SUB DUP2 DUP7 DUP1 EXTCODESIZE ISZERO DUP1 ISZERO PUSH2 0x1E14 JUMPI PUSH1 0x0 DUP1 REVERT JUMPDEST POP GAS STATICCALL ISZERO DUP1 ISZERO PUSH2 0x1E28 JUMPI RETURNDATASIZE PUSH1 0x0 DUP1 RETURNDATACOPY RETURNDATASIZE PUSH1 0x0 REVERT JUMPDEST POP POP POP POP PUSH1 0x40 MLOAD RETURNDATASIZE PUSH1 0x1F NOT PUSH1 0x1F DUP3 ADD AND DUP3 ADD DUP1 PUSH1 0x40 MSTORE POP DUP2 ADD SWAP1 PUSH2 0x1E4C SWAP2 SWAP1 PUSH2 0x3913 JUMP JUMPDEST SWAP1 POP DUP1 DUP4 GT ISZERO PUSH2 0x1F12 JUMPI PUSH2 0x1E68 PUSH2 0x1E63 DUP3 DUP6 PUSH2 0x3C2D JUMP JUMPDEST PUSH2 0x2F24 JUMP JUMPDEST PUSH1 0x2 SLOAD PUSH1 0x40 MLOAD PUSH32 0x70A0823100000000000000000000000000000000000000000000000000000000 DUP2 MSTORE ADDRESS PUSH1 0x4 DUP3 ADD MSTORE PUSH4 0x1000000 SWAP1 SWAP2 DIV PUSH20 0xFFFFFFFFFFFFFFFFFFFFFFFFFFFFFFFFFFFFFFFF AND SWAP1 PUSH4 0x70A08231 SWAP1 PUSH1 0x24 ADD PUSH1 0x20 PUSH1 0x40 MLOAD DUP1 DUP4 SUB DUP2 DUP7 DUP1 EXTCODESIZE ISZERO DUP1 ISZERO PUSH2 0x1ED7 JUMPI PUSH1 0x0 DUP1 REVERT JUMPDEST POP GAS STATICCALL ISZERO DUP1 ISZERO PUSH2 0x1EEB JUMPI RETURNDATASIZE PUSH1 0x0 DUP1 RETURNDATACOPY RETURNDATASIZE PUSH1 0x0 REVERT JUMPDEST POP POP POP POP PUSH1 0x40 MLOAD RETURNDATASIZE PUSH1 0x1F NOT PUSH1 0x1F DUP3 ADD AND DUP3 ADD DUP1 PUSH1 0x40 MSTORE POP DUP2 ADD SWAP1 PUSH2 0x1F0F SWAP2 SWAP1 PUSH2 0x3913 JUMP JUMPDEST SWAP1 POP JUMPDEST DUP1 DUP4 GT ISZERO PUSH2 0x1F1E JUMPI DUP1 SWAP3 POP JUMPDEST PUSH2 0x1F26 PUSH2 0x854 JUMP JUMPDEST DUP4 GT ISZERO PUSH2 0x1F38 JUMPI PUSH2 0x1F35 PUSH2 0x854 JUMP JUMPDEST SWAP3 POP JUMPDEST PUSH1 0x0 PUSH2 0x1F58 PUSH2 0x1F45 PUSH2 0x854 JUMP JUMPDEST PUSH1 0xB SLOAD PUSH2 0x1F52 SWAP1 DUP8 PUSH2 0x3BF0 JUMP JUMPDEST SWAP1 PUSH2 0x2FBB JUMP JUMPDEST SWAP1 POP PUSH1 0xB SLOAD DUP2 GT ISZERO PUSH2 0x1F69 JUMPI POP PUSH1 0xB SLOAD JUMPDEST DUP1 PUSH1 0xB PUSH1 0x0 DUP3 DUP3 SLOAD PUSH2 0x1F7B SWAP2 SWAP1 PUSH2 0x3C2D JUMP JUMPDEST SWAP1 SWAP2 SSTORE POP POP PUSH1 0xF SLOAD PUSH1 0x0 SWAP1 PUSH2 0x2710 SWAP1 PUSH2 0x1F94 SWAP1 DUP3 PUSH2 0x3C2D JUMP JUMPDEST PUSH2 0x1F9E SWAP1 DUP8 PUSH2 0x3BF0 JUMP JUMPDEST PUSH2 0x1FA8 SWAP2 SWAP1 PUSH2 0x3BDC JUMP JUMPDEST SWAP1 POP DUP1 ISZERO PUSH2 0x1FEF JUMPI PUSH1 0x2 SLOAD PUSH2 0x1FEF SWAP1 PUSH4 0x1000000 SWAP1 DIV PUSH20 0xFFFFFFFFFFFFFFFFFFFFFFFFFFFFFFFFFFFFFFFF AND PUSH20 0x5386881B46C37CDD30A748F7771CF95D7B213637 DUP4 PUSH2 0x2FF4 JUMP JUMPDEST PUSH2 0x1FF9 DUP2 DUP7 PUSH2 0x3C2D JUMP JUMPDEST PUSH1 0x5 SLOAD PUSH1 0x2 SLOAD SWAP2 SWAP7 POP PUSH2 0x202D SWAP2 PUSH4 0x1000000 SWAP1 DIV PUSH20 0xFFFFFFFFFFFFFFFFFFFFFFFFFFFFFFFFFFFFFFFF SWAP1 DUP2 AND SWAP2 AND DUP8 PUSH2 0x2FF4 JUMP JUMPDEST POP PUSH1 0x1 DUP1 SSTORE SWAP5 SWAP4 POP POP POP POP JUMP JUMPDEST PUSH2 0x2042 PUSH2 0x304F JUMP JUMPDEST PUSH1 0x6 DUP1 SLOAD PUSH20 0xFFFFFFFFFFFFFFFFFFFFFFFFFFFFFFFFFFFFFFFF DUP9 DUP2 AND PUSH32 0xFFFFFFFFFFFFFFFFFFFFFFFF0000000000000000000000000000000000000000 SWAP3 DUP4 AND OR SWAP1 SWAP3 SSTORE PUSH1 0x5 DUP1 SLOAD DUP3 AND CALLER OR SWAP1 SSTORE PUSH1 0x7 DUP1 SLOAD DUP9 DUP5 AND SWAP1 DUP4 AND OR SWAP1 SSTORE PUSH1 0x4 DUP1 SLOAD DUP8 DUP5 AND SWAP1 DUP4 AND OR DUP2 SSTORE PUSH1 0x2 DUP1 SLOAD DUP8 DUP6 AND PUSH4 0x1000000 DUP2 MUL PUSH32 0xFFFFFFFFFFFFFFFFFF0000000000000000000000000000000000000000FFFFFF SWAP1 SWAP3 AND SWAP2 SWAP1 SWAP2 OR SWAP1 SWAP2 SSTORE PUSH1 0x3 DUP1 SLOAD DUP8 DUP7 AND SWAP5 AND DUP5 OR SWAP1 SSTORE PUSH1 0x9 DUP13 SWAP1 SSTORE PUSH1 0x11 DUP12 SWAP1 SSTORE PUSH1 0x40 MLOAD PUSH32 0x2FE1A4D600000000000000000000000000000000000000000000000000000000 DUP2 MSTORE PUSH1 0x13 SWAP3 DUP2 ADD SWAP3 SWAP1 SWAP3 MSTORE PUSH1 0x24 DUP3 ADD SWAP3 SWAP1 SWAP3 MSTORE SWAP2 DUP4 AND PUSH1 0x44 DUP4 ADD MSTORE PUSH20 0x76BF0C28E604CC3FE9967C83B3C3F31C213CFE64 PUSH1 0x64 DUP4 ADD MSTORE PUSH1 0x84 DUP3 ADD MSTORE PUSH1 0x0 PUSH1 0xA4 DUP3 ADD MSTORE PUSH20 0x0 SWAP1 PUSH4 0x2FE1A4D6 SWAP1 PUSH1 0xC4 ADD PUSH1 0x0 PUSH1 0x40 MLOAD DUP1 DUP4 SUB DUP2 DUP7 DUP1 EXTCODESIZE ISZERO DUP1 ISZERO PUSH2 0x2196 JUMPI PUSH1 0x0 DUP1 REVERT JUMPDEST POP GAS DELEGATECALL ISZERO DUP1 ISZERO PUSH2 0x21AA JUMPI RETURNDATASIZE PUSH1 0x0 DUP1 RETURNDATACOPY RETURNDATASIZE PUSH1 0x0 REVERT JUMPDEST POP POP POP POP PUSH2 0x21B7 CALLER PUSH2 0x1B1B JUMP JUMPDEST PUSH2 0x21BF PUSH2 0x2208 JUMP JUMPDEST POP POP PUSH1 0x8 DUP1 SLOAD PUSH32 0xFFFFFFFFFFFFFFFFFFFFFF00FFFFFFFFFFFFFFFFFFFFFFFFFFFFFFFFFFFFFFFF AND PUSH21 0x10000000000000000000000000000000000000000 OR SWAP1 SSTORE POP POP POP POP POP POP JUMP JUMPDEST PUSH1 0x7 SLOAD PUSH1 0x2 SLOAD PUSH2 0x2259 SWAP2 PUSH20 0xFFFFFFFFFFFFFFFFFFFFFFFFFFFFFFFFFFFFFFFF PUSH4 0x1000000 SWAP1 SWAP3 DIV DUP3 AND SWAP2 AND PUSH32 0xFFFFFFFFFFFFFFFFFFFFFFFFFFFFFFFFFFFFFFFFFFFFFFFFFFFFFFFFFFFFFFFF PUSH2 0x3187 JUMP JUMPDEST PUSH1 0x4 SLOAD PUSH1 0x3 SLOAD PUSH2 0x22A3 SWAP2 PUSH20 0xFFFFFFFFFFFFFFFFFFFFFFFFFFFFFFFFFFFFFFFF SWAP2 DUP3 AND SWAP2 AND PUSH32 0xFFFFFFFFFFFFFFFFFFFFFFFFFFFFFFFFFFFFFFFFFFFFFFFFFFFFFFFFFFFFFFFF PUSH2 0x3187 JUMP JUMPDEST PUSH1 0x4 SLOAD PUSH1 0x18 DUP1 SLOAD PUSH2 0x231F SWAP3 PUSH20 0xFFFFFFFFFFFFFFFFFFFFFFFFFFFFFFFFFFFFFFFF AND SWAP2 PUSH32 0xFFFFFFFFFFFFFFFFFFFFFFFFFFFFFFFFFFFFFFFFFFFFFFFFFFFFFFFFFFFFFFFF SWAP2 PUSH1 0x0 SWAP1 PUSH2 0x22F6 JUMPI PUSH2 0x22F6 PUSH2 0x3CE2 JUMP JUMPDEST PUSH1 0x0 SWAP2 DUP3 MSTORE PUSH1 0x20 SWAP1 SWAP2 KECCAK256 ADD SLOAD PUSH20 0xFFFFFFFFFFFFFFFFFFFFFFFFFFFFFFFFFFFFFFFF AND SWAP2 SWAP1 PUSH2 0x3187 JUMP JUMPDEST PUSH1 0x4 SLOAD PUSH1 0x19 DUP1 SLOAD PUSH2 0x2372 SWAP3 PUSH20 0xFFFFFFFFFFFFFFFFFFFFFFFFFFFFFFFFFFFFFFFF AND SWAP2 PUSH32 0xFFFFFFFFFFFFFFFFFFFFFFFFFFFFFFFFFFFFFFFFFFFFFFFFFFFFFFFFFFFFFFFF SWAP2 PUSH1 0x0 SWAP1 PUSH2 0x22F6 JUMPI PUSH2 0x22F6 PUSH2 0x3CE2 JUMP JUMPDEST PUSH2 0x7C7 PUSH20 0x2791BCA1F2DE4661ED88A30C99A7A9449AA84174 PUSH20 0x917FB15E8AAA12264DCBDC15AFEF7CD3CE76BA39 PUSH32 0xFFFFFFFFFFFFFFFFFFFFFFFFFFFFFFFFFFFFFFFFFFFFFFFFFFFFFFFFFFFFFFFF PUSH2 0x3187 JUMP JUMPDEST PUSH1 0x2 SLOAD PUSH1 0xFF AND PUSH2 0x2431 JUMPI PUSH1 0x40 MLOAD PUSH32 0x8C379A000000000000000000000000000000000000000000000000000000000 DUP2 MSTORE PUSH1 0x20 PUSH1 0x4 DUP3 ADD MSTORE PUSH1 0x14 PUSH1 0x24 DUP3 ADD MSTORE PUSH32 0x5061757361626C653A206E6F7420706175736564000000000000000000000000 PUSH1 0x44 DUP3 ADD MSTORE PUSH1 0x64 ADD PUSH2 0x7B6 JUMP JUMPDEST PUSH1 0x2 DUP1 SLOAD PUSH32 0xFFFFFFFFFFFFFFFFFFFFFFFFFFFFFFFFFFFFFFFFFFFFFFFFFFFFFFFFFFFFFF00 AND SWAP1 SSTORE PUSH32 0x5DB9EE0A495BF2E6FF9C91A7834C1BA4FDD244A5E8AA4E537BD38AEAE4B073AA CALLER JUMPDEST PUSH1 0x40 MLOAD PUSH20 0xFFFFFFFFFFFFFFFFFFFFFFFFFFFFFFFFFFFFFFFF SWAP1 SWAP2 AND DUP2 MSTORE PUSH1 0x20 ADD PUSH1 0x40 MLOAD DUP1 SWAP2 SUB SWAP1 LOG1 JUMP JUMPDEST PUSH1 0x2 SLOAD PUSH1 0xFF AND ISZERO PUSH2 0x2513 JUMPI PUSH1 0x40 MLOAD PUSH32 0x8C379A000000000000000000000000000000000000000000000000000000000 DUP2 MSTORE PUSH1 0x20 PUSH1 0x4 DUP3 ADD MSTORE PUSH1 0x10 PUSH1 0x24 DUP3 ADD MSTORE PUSH32 0x5061757361626C653A2070617573656400000000000000000000000000000000 PUSH1 0x44 DUP3 ADD MSTORE PUSH1 0x64 ADD PUSH2 0x7B6 JUMP JUMPDEST PUSH1 0x2 DUP1 SLOAD PUSH32 0xFFFFFFFFFFFFFFFFFFFFFFFFFFFFFFFFFFFFFFFFFFFFFFFFFFFFFFFFFFFFFF00 AND PUSH1 0x1 OR SWAP1 SSTORE PUSH32 0x62E78CEA01BEE320CD4E420270B5EA74000D11B0C9F74754EBDBFC544B05A258 PUSH2 0x247C CALLER SWAP1 JUMP JUMPDEST PUSH1 0x7 SLOAD PUSH1 0x9 SLOAD PUSH1 0x40 MLOAD PUSH32 0x5312EA8E00000000000000000000000000000000000000000000000000000000 DUP2 MSTORE PUSH20 0xFFFFFFFFFFFFFFFFFFFFFFFFFFFFFFFFFFFFFFFF SWAP1 SWAP3 AND SWAP2 PUSH4 0x5312EA8E SWAP2 PUSH2 0x25C1 SWAP2 PUSH1 0x4 ADD SWAP1 DUP2 MSTORE PUSH1 0x20 ADD SWAP1 JUMP JUMPDEST PUSH1 0x0 PUSH1 0x40 MLOAD DUP1 DUP4 SUB DUP2 PUSH1 0x0 DUP8 DUP1 EXTCODESIZE ISZERO DUP1 ISZERO PUSH2 0x25DB JUMPI PUSH1 0x0 DUP1 REVERT JUMPDEST POP GAS CALL ISZERO DUP1 ISZERO PUSH2 0x25EF JUMPI RETURNDATASIZE PUSH1 0x0 DUP1 RETURNDATACOPY RETURNDATASIZE PUSH1 0x0 REVERT JUMPDEST POP POP POP POP JUMP JUMPDEST PUSH1 0x40 MLOAD PUSH20 0xFFFFFFFFFFFFFFFFFFFFFFFFFFFFFFFFFFFFFFFF DUP1 DUP6 AND PUSH1 0x24 DUP4 ADD MSTORE DUP4 AND PUSH1 0x44 DUP3 ADD MSTORE PUSH1 0x64 DUP2 ADD DUP3 SWAP1 MSTORE PUSH2 0x25EF SWAP1 DUP6 SWAP1 PUSH32 0x23B872DD00000000000000000000000000000000000000000000000000000000 SWAP1 PUSH1 0x84 ADD JUMPDEST PUSH1 0x40 DUP1 MLOAD PUSH32 0xFFFFFFFFFFFFFFFFFFFFFFFFFFFFFFFFFFFFFFFFFFFFFFFFFFFFFFFFFFFFFFE0 DUP2 DUP5 SUB ADD DUP2 MSTORE SWAP2 SWAP1 MSTORE PUSH1 0x20 DUP2 ADD DUP1 MLOAD PUSH28 0xFFFFFFFFFFFFFFFFFFFFFFFFFFFFFFFFFFFFFFFFFFFFFFFFFFFFFFFF AND PUSH32 0xFFFFFFFF00000000000000000000000000000000000000000000000000000000 SWAP1 SWAP4 AND SWAP3 SWAP1 SWAP3 OR SWAP1 SWAP2 MSTORE PUSH2 0x3318 JUMP JUMPDEST PUSH1 0x2 SLOAD PUSH1 0x40 MLOAD PUSH32 0x70A0823100000000000000000000000000000000000000000000000000000000 DUP2 MSTORE ADDRESS PUSH1 0x4 DUP3 ADD MSTORE PUSH1 0x0 SWAP2 DUP3 SWAP2 PUSH4 0x1000000 SWAP1 SWAP2 DIV PUSH20 0xFFFFFFFFFFFFFFFFFFFFFFFFFFFFFFFFFFFFFFFF AND SWAP1 PUSH4 0x70A08231 SWAP1 PUSH1 0x24 ADD PUSH1 0x20 PUSH1 0x40 MLOAD DUP1 DUP4 SUB DUP2 DUP7 DUP1 EXTCODESIZE ISZERO DUP1 ISZERO PUSH2 0x2745 JUMPI PUSH1 0x0 DUP1 REVERT JUMPDEST POP GAS STATICCALL ISZERO DUP1 ISZERO PUSH2 0x2759 JUMPI RETURNDATASIZE PUSH1 0x0 DUP1 RETURNDATACOPY RETURNDATASIZE PUSH1 0x0 REVERT JUMPDEST POP POP POP POP PUSH1 0x40 MLOAD RETURNDATASIZE PUSH1 0x1F NOT PUSH1 0x1F DUP3 ADD AND DUP3 ADD DUP1 PUSH1 0x40 MSTORE POP DUP2 ADD SWAP1 PUSH2 0x277D SWAP2 SWAP1 PUSH2 0x3913 JUMP JUMPDEST SWAP1 POP DUP1 PUSH2 0x278C JUMPI PUSH1 0x0 SWAP2 POP POP SWAP1 JUMP JUMPDEST PUSH1 0x0 PUSH2 0x2796 PUSH2 0x67C JUMP JUMPDEST SWAP1 POP PUSH2 0x27A1 DUP3 PUSH2 0x3424 JUMP JUMPDEST PUSH1 0x0 PUSH2 0x27AB PUSH2 0x67C JUMP JUMPDEST SWAP1 POP PUSH2 0x27B7 DUP3 DUP3 PUSH2 0x3C2D JUMP JUMPDEST SWAP4 POP POP POP POP SWAP1 JUMP JUMPDEST PUSH1 0x0 DUP1 SLOAD PUSH20 0xFFFFFFFFFFFFFFFFFFFFFFFFFFFFFFFFFFFFFFFF DUP4 DUP2 AND PUSH32 0xFFFFFFFFFFFFFFFFFFFFFFFF0000000000000000000000000000000000000000 DUP4 AND DUP2 OR DUP5 SSTORE PUSH1 0x40 MLOAD SWAP2 SWAP1 SWAP3 AND SWAP3 DUP4 SWAP2 PUSH32 0x8BE0079C531659141344CD1FD0A4F28419497F9722A3DAAFE3B4186F6B6457E0 SWAP2 SWAP1 LOG3 POP POP JUMP JUMPDEST PUSH1 0x4 DUP1 SLOAD PUSH1 0x40 MLOAD PUSH32 0xD06CA61F00000000000000000000000000000000000000000000000000000000 DUP2 MSTORE PUSH1 0x0 SWAP3 PUSH20 0xFFFFFFFFFFFFFFFFFFFFFFFFFFFFFFFFFFFFFFFF SWAP1 SWAP3 AND SWAP2 PUSH4 0xD06CA61F SWAP2 PUSH2 0x288E SWAP2 DUP9 SWAP2 DUP9 SWAP2 ADD PUSH2 0x3B62 JUMP JUMPDEST PUSH1 0x0 PUSH1 0x40 MLOAD DUP1 DUP4 SUB DUP2 DUP7 DUP1 EXTCODESIZE ISZERO DUP1 ISZERO PUSH2 0x28A6 JUMPI PUSH1 0x0 DUP1 REVERT JUMPDEST POP GAS STATICCALL ISZERO DUP1 ISZERO PUSH2 0x28BA JUMPI RETURNDATASIZE PUSH1 0x0 DUP1 RETURNDATACOPY RETURNDATASIZE PUSH1 0x0 REVERT JUMPDEST POP POP POP POP PUSH1 0x40 MLOAD RETURNDATASIZE PUSH1 0x0 DUP3 RETURNDATACOPY PUSH1 0x1F RETURNDATASIZE SWAP1 DUP2 ADD PUSH32 0xFFFFFFFFFFFFFFFFFFFFFFFFFFFFFFFFFFFFFFFFFFFFFFFFFFFFFFFFFFFFFFE0 AND DUP3 ADD PUSH1 0x40 MSTORE PUSH2 0x2900 SWAP2 SWAP1 DUP2 ADD SWAP1 PUSH2 0x380E JUMP JUMPDEST SWAP1 POP PUSH1 0x0 DUP2 PUSH1 0x1 DUP4 MLOAD PUSH2 0x2913 SWAP2 SWAP1 PUSH2 0x3C2D JUMP JUMPDEST DUP2 MLOAD DUP2 LT PUSH2 0x2923 JUMPI PUSH2 0x2923 PUSH2 0x3CE2 JUMP JUMPDEST PUSH1 0x20 MUL PUSH1 0x20 ADD ADD MLOAD SWAP1 POP PUSH20 0x76BF0C28E604CC3FE9967C83B3C3F31C213CFE64 PUSH20 0xFFFFFFFFFFFFFFFFFFFFFFFFFFFFFFFFFFFFFFFF AND DUP5 PUSH1 0x1 DUP7 MLOAD PUSH2 0x2967 SWAP2 SWAP1 PUSH2 0x3C2D JUMP JUMPDEST DUP2 MLOAD DUP2 LT PUSH2 0x2977 JUMPI PUSH2 0x2977 PUSH2 0x3CE2 JUMP JUMPDEST PUSH1 0x20 MUL PUSH1 0x20 ADD ADD MLOAD PUSH20 0xFFFFFFFFFFFFFFFFFFFFFFFFFFFFFFFFFFFFFFFF AND EQ DUP1 ISZERO PUSH2 0x29B9 JUMPI POP PUSH20 0xFFFFFFFFFFFFFFFFFFFFFFFFFFFFFFFFFFFFFFFF DUP4 AND PUSH2 0xDEAD EQ JUMPDEST ISZERO PUSH2 0x29D6 JUMPI DUP1 PUSH1 0x12 PUSH1 0x0 DUP3 DUP3 SLOAD PUSH2 0x29D0 SWAP2 SWAP1 PUSH2 0x3BC4 JUMP JUMPDEST SWAP1 SWAP2 SSTORE POP POP JUMPDEST PUSH1 0x4 SLOAD PUSH1 0x10 SLOAD PUSH20 0xFFFFFFFFFFFFFFFFFFFFFFFFFFFFFFFFFFFFFFFF SWAP1 SWAP2 AND SWAP1 PUSH4 0x38ED1739 SWAP1 DUP8 SWAP1 PUSH2 0x3E8 SWAP1 PUSH2 0x2A0B SWAP1 DUP7 PUSH2 0x3BF0 JUMP JUMPDEST PUSH2 0x2A15 SWAP2 SWAP1 PUSH2 0x3BDC JUMP JUMPDEST DUP8 DUP8 PUSH2 0x2A23 TIMESTAMP PUSH2 0x258 PUSH2 0x3BC4 JUMP JUMPDEST PUSH1 0x40 MLOAD DUP7 PUSH4 0xFFFFFFFF AND PUSH1 0xE0 SHL DUP2 MSTORE PUSH1 0x4 ADD PUSH2 0x2A43 SWAP6 SWAP5 SWAP4 SWAP3 SWAP2 SWAP1 PUSH2 0x3B7B JUMP JUMPDEST PUSH1 0x0 PUSH1 0x40 MLOAD DUP1 DUP4 SUB DUP2 PUSH1 0x0 DUP8 DUP1 EXTCODESIZE ISZERO DUP1 ISZERO PUSH2 0x2A5D JUMPI PUSH1 0x0 DUP1 REVERT JUMPDEST POP GAS CALL ISZERO DUP1 ISZERO PUSH2 0x2A71 JUMPI RETURNDATASIZE PUSH1 0x0 DUP1 RETURNDATACOPY RETURNDATASIZE PUSH1 0x0 REVERT JUMPDEST POP POP POP POP PUSH1 0x40 MLOAD RETURNDATASIZE PUSH1 0x0 DUP3 RETURNDATACOPY PUSH1 0x1F RETURNDATASIZE SWAP1 DUP2 ADD PUSH32 0xFFFFFFFFFFFFFFFFFFFFFFFFFFFFFFFFFFFFFFFFFFFFFFFFFFFFFFFFFFFFFFE0 AND DUP3 ADD PUSH1 0x40 MSTORE PUSH2 0x2AB7 SWAP2 SWAP1 DUP2 ADD SWAP1 PUSH2 0x380E JUMP JUMPDEST POP POP POP POP POP POP JUMP JUMPDEST PUSH1 0x7 SLOAD PUSH1 0x9 SLOAD PUSH1 0x40 MLOAD PUSH32 0x441A3E7000000000000000000000000000000000000000000000000000000000 DUP2 MSTORE PUSH1 0x4 DUP2 ADD SWAP2 SWAP1 SWAP2 MSTORE PUSH1 0x0 PUSH1 0x24 DUP3 ADD MSTORE PUSH20 0xFFFFFFFFFFFFFFFFFFFFFFFFFFFFFFFFFFFFFFFF SWAP1 SWAP2 AND SWAP1 PUSH4 0x441A3E70 SWAP1 PUSH1 0x44 ADD PUSH2 0x25C1 JUMP JUMPDEST PUSH1 0xC SLOAD PUSH1 0x0 SWAP1 ISZERO PUSH2 0x2BE2 JUMPI PUSH1 0x0 PUSH2 0x2710 PUSH1 0xC SLOAD DUP5 PUSH2 0x2B3F SWAP2 SWAP1 PUSH2 0x3BF0 JUMP JUMPDEST PUSH2 0x2B49 SWAP2 SWAP1 PUSH2 0x3BDC JUMP JUMPDEST SWAP1 POP PUSH2 0x2BD4 DUP2 PUSH1 0x13 PUSH1 0x0 ADD DUP1 SLOAD DUP1 PUSH1 0x20 MUL PUSH1 0x20 ADD PUSH1 0x40 MLOAD SWAP1 DUP2 ADD PUSH1 0x40 MSTORE DUP1 SWAP3 SWAP2 SWAP1 DUP2 DUP2 MSTORE PUSH1 0x20 ADD DUP3 DUP1 SLOAD DUP1 ISZERO PUSH2 0x2BB5 JUMPI PUSH1 0x20 MUL DUP3 ADD SWAP2 SWAP1 PUSH1 0x0 MSTORE PUSH1 0x20 PUSH1 0x0 KECCAK256 SWAP1 JUMPDEST DUP2 SLOAD PUSH20 0xFFFFFFFFFFFFFFFFFFFFFFFFFFFFFFFFFFFFFFFF AND DUP2 MSTORE PUSH1 0x1 SWAP1 SWAP2 ADD SWAP1 PUSH1 0x20 ADD DUP1 DUP4 GT PUSH2 0x2B8A JUMPI JUMPDEST POP POP POP POP POP PUSH20 0x5386881B46C37CDD30A748F7771CF95D7B213637 PUSH2 0x3486 JUMP JUMPDEST PUSH2 0x2BDE DUP2 DUP5 PUSH2 0x3C2D JUMP JUMPDEST SWAP3 POP POP JUMPDEST POP SWAP1 JUMP JUMPDEST PUSH1 0xD SLOAD PUSH1 0x0 SWAP1 ISZERO PUSH2 0x2BE2 JUMPI PUSH1 0x0 PUSH2 0x2710 PUSH1 0xD SLOAD DUP5 PUSH2 0x2C04 SWAP2 SWAP1 PUSH2 0x3BF0 JUMP JUMPDEST PUSH2 0x2C0E SWAP2 SWAP1 PUSH2 0x3BDC JUMP JUMPDEST PUSH1 0x40 MLOAD PUSH32 0x70A0823100000000000000000000000000000000000000000000000000000000 DUP2 MSTORE ADDRESS PUSH1 0x4 DUP3 ADD MSTORE SWAP1 SWAP2 POP PUSH1 0x0 SWAP1 PUSH20 0x2791BCA1F2DE4661ED88A30C99A7A9449AA84174 SWAP1 PUSH4 0x70A08231 SWAP1 PUSH1 0x24 ADD PUSH1 0x20 PUSH1 0x40 MLOAD DUP1 DUP4 SUB DUP2 DUP7 DUP1 EXTCODESIZE ISZERO DUP1 ISZERO PUSH2 0x2C77 JUMPI PUSH1 0x0 DUP1 REVERT JUMPDEST POP GAS STATICCALL ISZERO DUP1 ISZERO PUSH2 0x2C8B JUMPI RETURNDATASIZE PUSH1 0x0 DUP1 RETURNDATACOPY RETURNDATASIZE PUSH1 0x0 REVERT JUMPDEST POP POP POP POP PUSH1 0x40 MLOAD RETURNDATASIZE PUSH1 0x1F NOT PUSH1 0x1F DUP3 ADD AND DUP3 ADD DUP1 PUSH1 0x40 MSTORE POP DUP2 ADD SWAP1 PUSH2 0x2CAF SWAP2 SWAP1 PUSH2 0x3913 JUMP JUMPDEST SWAP1 POP PUSH2 0x2D24 DUP3 PUSH1 0x13 PUSH1 0x1 ADD DUP1 SLOAD DUP1 PUSH1 0x20 MUL PUSH1 0x20 ADD PUSH1 0x40 MLOAD SWAP1 DUP2 ADD PUSH1 0x40 MSTORE DUP1 SWAP3 SWAP2 SWAP1 DUP2 DUP2 MSTORE PUSH1 0x20 ADD DUP3 DUP1 SLOAD DUP1 ISZERO PUSH2 0x129C JUMPI PUSH1 0x20 MUL DUP3 ADD SWAP2 SWAP1 PUSH1 0x0 MSTORE PUSH1 0x20 PUSH1 0x0 KECCAK256 SWAP1 DUP2 SLOAD PUSH20 0xFFFFFFFFFFFFFFFFFFFFFFFFFFFFFFFFFFFFFFFF AND DUP2 MSTORE PUSH1 0x1 SWAP1 SWAP2 ADD SWAP1 PUSH1 0x20 ADD DUP1 DUP4 GT PUSH2 0x1271 JUMPI POP POP POP POP POP ADDRESS PUSH2 0x2834 JUMP JUMPDEST PUSH1 0x40 MLOAD PUSH32 0x70A0823100000000000000000000000000000000000000000000000000000000 DUP2 MSTORE ADDRESS PUSH1 0x4 DUP3 ADD MSTORE PUSH1 0x0 SWAP1 DUP3 SWAP1 PUSH20 0x2791BCA1F2DE4661ED88A30C99A7A9449AA84174 SWAP1 PUSH4 0x70A08231 SWAP1 PUSH1 0x24 ADD PUSH1 0x20 PUSH1 0x40 MLOAD DUP1 DUP4 SUB DUP2 DUP7 DUP1 EXTCODESIZE ISZERO DUP1 ISZERO PUSH2 0x2D8C JUMPI PUSH1 0x0 DUP1 REVERT JUMPDEST POP GAS STATICCALL ISZERO DUP1 ISZERO PUSH2 0x2DA0 JUMPI RETURNDATASIZE PUSH1 0x0 DUP1 RETURNDATACOPY RETURNDATASIZE PUSH1 0x0 REVERT JUMPDEST POP POP POP POP PUSH1 0x40 MLOAD RETURNDATASIZE PUSH1 0x1F NOT PUSH1 0x1F DUP3 ADD AND DUP3 ADD DUP1 PUSH1 0x40 MSTORE POP DUP2 ADD SWAP1 PUSH2 0x2DC4 SWAP2 SWAP1 PUSH2 0x3913 JUMP JUMPDEST PUSH2 0x2DCE SWAP2 SWAP1 PUSH2 0x3C2D JUMP JUMPDEST PUSH1 0x40 MLOAD PUSH32 0x1E2720FF00000000000000000000000000000000000000000000000000000000 DUP2 MSTORE PUSH1 0x4 DUP2 ADD DUP3 SWAP1 MSTORE SWAP1 SWAP2 POP PUSH20 0x917FB15E8AAA12264DCBDC15AFEF7CD3CE76BA39 SWAP1 PUSH4 0x1E2720FF SWAP1 PUSH1 0x24 ADD PUSH1 0x20 PUSH1 0x40 MLOAD DUP1 DUP4 SUB DUP2 PUSH1 0x0 DUP8 DUP1 EXTCODESIZE ISZERO DUP1 ISZERO PUSH2 0x2E37 JUMPI PUSH1 0x0 DUP1 REVERT JUMPDEST POP GAS CALL ISZERO DUP1 ISZERO PUSH2 0x2E4B JUMPI RETURNDATASIZE PUSH1 0x0 DUP1 RETURNDATACOPY RETURNDATASIZE PUSH1 0x0 REVERT JUMPDEST POP POP POP POP PUSH1 0x40 MLOAD RETURNDATASIZE PUSH1 0x1F NOT PUSH1 0x1F DUP3 ADD AND DUP3 ADD DUP1 PUSH1 0x40 MSTORE POP DUP2 ADD SWAP1 PUSH2 0x2E6F SWAP2 SWAP1 PUSH2 0x38F1 JUMP JUMPDEST POP PUSH2 0x2E7A DUP4 DUP7 PUSH2 0x3C2D JUMP JUMPDEST SWAP5 POP POP POP POP POP SWAP1 JUMP JUMPDEST PUSH1 0xE SLOAD PUSH1 0x0 SWAP1 ISZERO PUSH2 0x2BE2 JUMPI PUSH1 0x0 PUSH2 0x2710 PUSH1 0xE SLOAD DUP5 PUSH2 0x2EA1 SWAP2 SWAP1 PUSH2 0x3BF0 JUMP JUMPDEST PUSH2 0x2EAB SWAP2 SWAP1 PUSH2 0x3BDC JUMP JUMPDEST SWAP1 POP PUSH2 0x2BD4 DUP2 PUSH1 0x13 PUSH1 0x2 ADD DUP1 SLOAD DUP1 PUSH1 0x20 MUL PUSH1 0x20 ADD PUSH1 0x40 MLOAD SWAP1 DUP2 ADD PUSH1 0x40 MSTORE DUP1 SWAP3 SWAP2 SWAP1 DUP2 DUP2 MSTORE PUSH1 0x20 ADD DUP3 DUP1 SLOAD DUP1 ISZERO PUSH2 0x2F17 JUMPI PUSH1 0x20 MUL DUP3 ADD SWAP2 SWAP1 PUSH1 0x0 MSTORE PUSH1 0x20 PUSH1 0x0 KECCAK256 SWAP1 JUMPDEST DUP2 SLOAD PUSH20 0xFFFFFFFFFFFFFFFFFFFFFFFFFFFFFFFFFFFFFFFF AND DUP2 MSTORE PUSH1 0x1 SWAP1 SWAP2 ADD SWAP1 PUSH1 0x20 ADD DUP1 DUP4 GT PUSH2 0x2EEC JUMPI JUMPDEST POP POP POP POP POP PUSH2 0xDEAD PUSH2 0x2834 JUMP JUMPDEST PUSH1 0x7 SLOAD PUSH1 0x9 SLOAD PUSH1 0x40 MLOAD PUSH32 0x441A3E7000000000000000000000000000000000000000000000000000000000 DUP2 MSTORE PUSH20 0xFFFFFFFFFFFFFFFFFFFFFFFFFFFFFFFFFFFFFFFF SWAP1 SWAP3 AND SWAP2 PUSH4 0x441A3E70 SWAP2 PUSH2 0x2F86 SWAP2 DUP6 SWAP1 PUSH1 0x4 ADD SWAP2 DUP3 MSTORE PUSH1 0x20 DUP3 ADD MSTORE PUSH1 0x40 ADD SWAP1 JUMP JUMPDEST PUSH1 0x0 PUSH1 0x40 MLOAD DUP1 DUP4 SUB DUP2 PUSH1 0x0 DUP8 DUP1 EXTCODESIZE ISZERO DUP1 ISZERO PUSH2 0x2FA0 JUMPI PUSH1 0x0 DUP1 REVERT JUMPDEST POP GAS CALL ISZERO DUP1 ISZERO PUSH2 0x2FB4 JUMPI RETURNDATASIZE PUSH1 0x0 DUP1 RETURNDATACOPY RETURNDATASIZE PUSH1 0x0 REVERT JUMPDEST POP POP POP POP POP JUMP JUMPDEST PUSH1 0x0 PUSH2 0x2FC7 DUP3 DUP5 PUSH2 0x3C70 JUMP JUMPDEST ISZERO PUSH2 0x2FD3 JUMPI PUSH1 0x1 PUSH2 0x2FD6 JUMP JUMPDEST PUSH1 0x0 JUMPDEST PUSH1 0xFF AND PUSH2 0x2FE3 DUP4 DUP6 PUSH2 0x3BDC JUMP JUMPDEST PUSH2 0x2FED SWAP2 SWAP1 PUSH2 0x3BC4 JUMP JUMPDEST SWAP4 SWAP3 POP POP POP JUMP JUMPDEST PUSH1 0x40 MLOAD PUSH20 0xFFFFFFFFFFFFFFFFFFFFFFFFFFFFFFFFFFFFFFFF DUP4 AND PUSH1 0x24 DUP3 ADD MSTORE PUSH1 0x44 DUP2 ADD DUP3 SWAP1 MSTORE PUSH2 0x304A SWAP1 DUP5 SWAP1 PUSH32 0xA9059CBB00000000000000000000000000000000000000000000000000000000 SWAP1 PUSH1 0x64 ADD PUSH2 0x264F JUMP JUMPDEST POP POP POP JUMP JUMPDEST PUSH1 0x2 SLOAD PUSH3 0x10000 SWAP1 DIV PUSH1 0xFF AND DUP1 PUSH2 0x306E JUMPI POP PUSH1 0x2 SLOAD PUSH2 0x100 SWAP1 DIV PUSH1 0xFF AND ISZERO JUMPDEST PUSH2 0x30FA JUMPI PUSH1 0x40 MLOAD PUSH32 0x8C379A000000000000000000000000000000000000000000000000000000000 DUP2 MSTORE PUSH1 0x20 PUSH1 0x4 DUP3 ADD MSTORE PUSH1 0x2E PUSH1 0x24 DUP3 ADD MSTORE PUSH32 0x496E697469616C697A61626C653A20636F6E747261637420697320616C726561 PUSH1 0x44 DUP3 ADD MSTORE PUSH32 0x647920696E697469616C697A6564000000000000000000000000000000000000 PUSH1 0x64 DUP3 ADD MSTORE PUSH1 0x84 ADD PUSH2 0x7B6 JUMP JUMPDEST PUSH1 0x2 SLOAD PUSH3 0x10000 SWAP1 DIV PUSH1 0xFF AND ISZERO DUP1 ISZERO PUSH2 0x313B JUMPI PUSH1 0x2 DUP1 SLOAD PUSH32 0xFFFFFFFFFFFFFFFFFFFFFFFFFFFFFFFFFFFFFFFFFFFFFFFFFFFFFFFFFF0000FF AND PUSH3 0x10100 OR SWAP1 SSTORE JUMPDEST NUMBER PUSH1 0xA SSTORE PUSH1 0x32 PUSH1 0xC SSTORE PUSH2 0x1C2 PUSH1 0xE SSTORE PUSH2 0x2706 PUSH1 0xF SSTORE PUSH2 0x3B6 PUSH1 0x10 SSTORE DUP1 ISZERO PUSH2 0xC2E JUMPI PUSH1 0x2 DUP1 SLOAD PUSH32 0xFFFFFFFFFFFFFFFFFFFFFFFFFFFFFFFFFFFFFFFFFFFFFFFFFFFFFFFFFF00FFFF AND SWAP1 SSTORE POP JUMP JUMPDEST DUP1 ISZERO DUP1 PUSH2 0x3236 JUMPI POP PUSH1 0x40 MLOAD PUSH32 0xDD62ED3E00000000000000000000000000000000000000000000000000000000 DUP2 MSTORE ADDRESS PUSH1 0x4 DUP3 ADD MSTORE PUSH20 0xFFFFFFFFFFFFFFFFFFFFFFFFFFFFFFFFFFFFFFFF DUP4 DUP2 AND PUSH1 0x24 DUP4 ADD MSTORE DUP5 AND SWAP1 PUSH4 0xDD62ED3E SWAP1 PUSH1 0x44 ADD PUSH1 0x20 PUSH1 0x40 MLOAD DUP1 DUP4 SUB DUP2 DUP7 DUP1 EXTCODESIZE ISZERO DUP1 ISZERO PUSH2 0x31FC JUMPI PUSH1 0x0 DUP1 REVERT JUMPDEST POP GAS STATICCALL ISZERO DUP1 ISZERO PUSH2 0x3210 JUMPI RETURNDATASIZE PUSH1 0x0 DUP1 RETURNDATACOPY RETURNDATASIZE PUSH1 0x0 REVERT JUMPDEST POP POP POP POP PUSH1 0x40 MLOAD RETURNDATASIZE PUSH1 0x1F NOT PUSH1 0x1F DUP3 ADD AND DUP3 ADD DUP1 PUSH1 0x40 MSTORE POP DUP2 ADD SWAP1 PUSH2 0x3234 SWAP2 SWAP1 PUSH2 0x3913 JUMP JUMPDEST ISZERO JUMPDEST PUSH2 0x32C2 JUMPI PUSH1 0x40 MLOAD PUSH32 0x8C379A000000000000000000000000000000000000000000000000000000000 DUP2 MSTORE PUSH1 0x20 PUSH1 0x4 DUP3 ADD MSTORE PUSH1 0x36 PUSH1 0x24 DUP3 ADD MSTORE PUSH32 0x5361666545524332303A20617070726F76652066726F6D206E6F6E2D7A65726F PUSH1 0x44 DUP3 ADD MSTORE PUSH32 0x20746F206E6F6E2D7A65726F20616C6C6F77616E636500000000000000000000 PUSH1 0x64 DUP3 ADD MSTORE PUSH1 0x84 ADD PUSH2 0x7B6 JUMP JUMPDEST PUSH1 0x40 MLOAD PUSH20 0xFFFFFFFFFFFFFFFFFFFFFFFFFFFFFFFFFFFFFFFF DUP4 AND PUSH1 0x24 DUP3 ADD MSTORE PUSH1 0x44 DUP2 ADD DUP3 SWAP1 MSTORE PUSH2 0x304A SWAP1 DUP5 SWAP1 PUSH32 0x95EA7B300000000000000000000000000000000000000000000000000000000 SWAP1 PUSH1 0x64 ADD PUSH2 0x264F JUMP JUMPDEST PUSH1 0x0 PUSH2 0x337A DUP3 PUSH1 0x40 MLOAD DUP1 PUSH1 0x40 ADD PUSH1 0x40 MSTORE DUP1 PUSH1 0x20 DUP2 MSTORE PUSH1 0x20 ADD PUSH32 0x5361666545524332303A206C6F772D6C6576656C2063616C6C206661696C6564 DUP2 MSTORE POP DUP6 PUSH20 0xFFFFFFFFFFFFFFFFFFFFFFFFFFFFFFFFFFFFFFFF AND PUSH2 0x35B6 SWAP1 SWAP3 SWAP2 SWAP1 PUSH4 0xFFFFFFFF AND JUMP JUMPDEST DUP1 MLOAD SWAP1 SWAP2 POP ISZERO PUSH2 0x304A JUMPI DUP1 DUP1 PUSH1 0x20 ADD SWAP1 MLOAD DUP2 ADD SWAP1 PUSH2 0x3398 SWAP2 SWAP1 PUSH2 0x38F1 JUMP JUMPDEST PUSH2 0x304A JUMPI PUSH1 0x40 MLOAD PUSH32 0x8C379A000000000000000000000000000000000000000000000000000000000 DUP2 MSTORE PUSH1 0x20 PUSH1 0x4 DUP3 ADD MSTORE PUSH1 0x2A PUSH1 0x24 DUP3 ADD MSTORE PUSH32 0x5361666545524332303A204552433230206F7065726174696F6E20646964206E PUSH1 0x44 DUP3 ADD MSTORE PUSH32 0x6F74207375636365656400000000000000000000000000000000000000000000 PUSH1 0x64 DUP3 ADD MSTORE PUSH1 0x84 ADD PUSH2 0x7B6 JUMP JUMPDEST PUSH1 0x7 SLOAD PUSH1 0x9 SLOAD PUSH1 0x40 MLOAD PUSH32 0xE2BBB15800000000000000000000000000000000000000000000000000000000 DUP2 MSTORE PUSH20 0xFFFFFFFFFFFFFFFFFFFFFFFFFFFFFFFFFFFFFFFF SWAP1 SWAP3 AND SWAP2 PUSH4 0xE2BBB158 SWAP2 PUSH2 0x2F86 SWAP2 DUP6 SWAP1 PUSH1 0x4 ADD SWAP2 DUP3 MSTORE PUSH1 0x20 DUP3 ADD MSTORE PUSH1 0x40 ADD SWAP1 JUMP JUMPDEST PUSH1 0x4 DUP1 SLOAD PUSH1 0x40 MLOAD PUSH32 0xD06CA61F00000000000000000000000000000000000000000000000000000000 DUP2 MSTORE PUSH1 0x0 SWAP3 PUSH20 0xFFFFFFFFFFFFFFFFFFFFFFFFFFFFFFFFFFFFFFFF SWAP1 SWAP3 AND SWAP2 PUSH4 0xD06CA61F SWAP2 PUSH2 0x34E0 SWAP2 DUP9 SWAP2 DUP9 SWAP2 ADD PUSH2 0x3B62 JUMP JUMPDEST PUSH1 0x0 PUSH1 0x40 MLOAD DUP1 DUP4 SUB DUP2 DUP7 DUP1 EXTCODESIZE ISZERO DUP1 ISZERO PUSH2 0x34F8 JUMPI PUSH1 0x0 DUP1 REVERT JUMPDEST POP GAS STATICCALL ISZERO DUP1 ISZERO PUSH2 0x350C JUMPI RETURNDATASIZE PUSH1 0x0 DUP1 RETURNDATACOPY RETURNDATASIZE PUSH1 0x0 REVERT JUMPDEST POP POP POP POP PUSH1 0x40 MLOAD RETURNDATASIZE PUSH1 0x0 DUP3 RETURNDATACOPY PUSH1 0x1F RETURNDATASIZE SWAP1 DUP2 ADD PUSH32 0xFFFFFFFFFFFFFFFFFFFFFFFFFFFFFFFFFFFFFFFFFFFFFFFFFFFFFFFFFFFFFFE0 AND DUP3 ADD PUSH1 0x40 MSTORE PUSH2 0x3552 SWAP2 SWAP1 DUP2 ADD SWAP1 PUSH2 0x380E JUMP JUMPDEST SWAP1 POP PUSH1 0x0 DUP2 PUSH1 0x1 DUP4 MLOAD PUSH2 0x3565 SWAP2 SWAP1 PUSH2 0x3C2D JUMP JUMPDEST DUP2 MLOAD DUP2 LT PUSH2 0x3575 JUMPI PUSH2 0x3575 PUSH2 0x3CE2 JUMP JUMPDEST PUSH1 0x20 SWAP1 DUP2 MUL SWAP2 SWAP1 SWAP2 ADD ADD MLOAD PUSH1 0x4 SLOAD PUSH1 0x10 SLOAD SWAP2 SWAP3 POP PUSH20 0xFFFFFFFFFFFFFFFFFFFFFFFFFFFFFFFFFFFFFFFF AND SWAP1 PUSH4 0x18CBAFE5 SWAP1 DUP8 SWAP1 PUSH2 0x3E8 SWAP1 PUSH2 0x2A0B SWAP1 DUP7 PUSH2 0x3BF0 JUMP JUMPDEST PUSH1 0x60 PUSH2 0x35C5 DUP5 DUP5 PUSH1 0x0 DUP6 PUSH2 0x35CD JUMP JUMPDEST SWAP5 SWAP4 POP POP POP POP JUMP JUMPDEST PUSH1 0x60 DUP3 SELFBALANCE LT ISZERO PUSH2 0x365F JUMPI PUSH1 0x40 MLOAD PUSH32 0x8C379A000000000000000000000000000000000000000000000000000000000 DUP2 MSTORE PUSH1 0x20 PUSH1 0x4 DUP3 ADD MSTORE PUSH1 0x26 PUSH1 0x24 DUP3 ADD MSTORE PUSH32 0x416464726573733A20696E73756666696369656E742062616C616E636520666F PUSH1 0x44 DUP3 ADD MSTORE PUSH32 0x722063616C6C0000000000000000000000000000000000000000000000000000 PUSH1 0x64 DUP3 ADD MSTORE PUSH1 0x84 ADD PUSH2 0x7B6 JUMP JUMPDEST DUP5 EXTCODESIZE PUSH2 0x36C7 JUMPI PUSH1 0x40 MLOAD PUSH32 0x8C379A000000000000000000000000000000000000000000000000000000000 DUP2 MSTORE PUSH1 0x20 PUSH1 0x4 DUP3 ADD MSTORE PUSH1 0x1D PUSH1 0x24 DUP3 ADD MSTORE PUSH32 0x416464726573733A2063616C6C20746F206E6F6E2D636F6E7472616374000000 PUSH1 0x44 DUP3 ADD MSTORE PUSH1 0x64 ADD PUSH2 0x7B6 JUMP JUMPDEST PUSH1 0x0 DUP1 DUP7 PUSH20 0xFFFFFFFFFFFFFFFFFFFFFFFFFFFFFFFFFFFFFFFF AND DUP6 DUP8 PUSH1 0x40 MLOAD PUSH2 0x36F0 SWAP2 SWAP1 PUSH2 0x3AB4 JUMP JUMPDEST PUSH1 0x0 PUSH1 0x40 MLOAD DUP1 DUP4 SUB DUP2 DUP6 DUP8 GAS CALL SWAP3 POP POP POP RETURNDATASIZE DUP1 PUSH1 0x0 DUP2 EQ PUSH2 0x372D JUMPI PUSH1 0x40 MLOAD SWAP2 POP PUSH1 0x1F NOT PUSH1 0x3F RETURNDATASIZE ADD AND DUP3 ADD PUSH1 0x40 MSTORE RETURNDATASIZE DUP3 MSTORE RETURNDATASIZE PUSH1 0x0 PUSH1 0x20 DUP5 ADD RETURNDATACOPY PUSH2 0x3732 JUMP JUMPDEST PUSH1 0x60 SWAP2 POP JUMPDEST POP SWAP2 POP SWAP2 POP PUSH2 0x3742 DUP3 DUP3 DUP7 PUSH2 0x374D JUMP JUMPDEST SWAP8 SWAP7 POP POP POP POP POP POP POP JUMP JUMPDEST PUSH1 0x60 DUP4 ISZERO PUSH2 0x375C JUMPI POP DUP2 PUSH2 0x2FED JUMP JUMPDEST DUP3 MLOAD ISZERO PUSH2 0x376C JUMPI DUP3 MLOAD DUP1 DUP5 PUSH1 0x20 ADD REVERT JUMPDEST DUP2 PUSH1 0x40 MLOAD PUSH32 0x8C379A000000000000000000000000000000000000000000000000000000000 DUP2 MSTORE PUSH1 0x4 ADD PUSH2 0x7B6 SWAP2 SWAP1 PUSH2 0x3B11 JUMP JUMPDEST DUP1 CALLDATALOAD PUSH20 0xFFFFFFFFFFFFFFFFFFFFFFFFFFFFFFFFFFFFFFFF DUP2 AND DUP2 EQ PUSH2 0x37C4 JUMPI PUSH1 0x0 DUP1 REVERT JUMPDEST SWAP2 SWAP1 POP JUMP JUMPDEST PUSH1 0x0 PUSH1 0x20 DUP3 DUP5 SUB SLT ISZERO PUSH2 0x37DB JUMPI PUSH1 0x0 DUP1 REVERT JUMPDEST PUSH2 0x2FED DUP3 PUSH2 0x37A0 JUMP JUMPDEST PUSH1 0x0 DUP1 PUSH1 0x40 DUP4 DUP6 SUB SLT ISZERO PUSH2 0x37F7 JUMPI PUSH1 0x0 DUP1 REVERT JUMPDEST PUSH2 0x3800 DUP4 PUSH2 0x37A0 JUMP JUMPDEST SWAP5 PUSH1 0x20 SWAP4 SWAP1 SWAP4 ADD CALLDATALOAD SWAP4 POP POP POP JUMP JUMPDEST PUSH1 0x0 PUSH1 0x20 DUP1 DUP4 DUP6 SUB SLT ISZERO PUSH2 0x3821 JUMPI PUSH1 0x0 DUP1 REVERT JUMPDEST DUP3 MLOAD PUSH8 0xFFFFFFFFFFFFFFFF DUP1 DUP3 GT ISZERO PUSH2 0x3839 JUMPI PUSH1 0x0 DUP1 REVERT JUMPDEST DUP2 DUP6 ADD SWAP2 POP DUP6 PUSH1 0x1F DUP4 ADD SLT PUSH2 0x384D JUMPI PUSH1 0x0 DUP1 REVERT JUMPDEST DUP2 MLOAD DUP2 DUP2 GT ISZERO PUSH2 0x385F JUMPI PUSH2 0x385F PUSH2 0x3D11 JUMP JUMPDEST DUP1 PUSH1 0x5 SHL PUSH1 0x40 MLOAD PUSH32 0xFFFFFFFFFFFFFFFFFFFFFFFFFFFFFFFFFFFFFFFFFFFFFFFFFFFFFFFFFFFFFFE0 PUSH1 0x3F DUP4 ADD AND DUP2 ADD DUP2 DUP2 LT DUP6 DUP3 GT OR ISZERO PUSH2 0x38A2 JUMPI PUSH2 0x38A2 PUSH2 0x3D11 JUMP JUMPDEST PUSH1 0x40 MSTORE DUP3 DUP2 MSTORE DUP6 DUP2 ADD SWAP4 POP DUP5 DUP7 ADD DUP3 DUP7 ADD DUP8 ADD DUP11 LT ISZERO PUSH2 0x38C1 JUMPI PUSH1 0x0 DUP1 REVERT JUMPDEST PUSH1 0x0 SWAP6 POP JUMPDEST DUP4 DUP7 LT ISZERO PUSH2 0x38E4 JUMPI DUP1 MLOAD DUP6 MSTORE PUSH1 0x1 SWAP6 SWAP1 SWAP6 ADD SWAP5 SWAP4 DUP7 ADD SWAP4 DUP7 ADD PUSH2 0x38C6 JUMP JUMPDEST POP SWAP9 SWAP8 POP POP POP POP POP POP POP POP JUMP JUMPDEST PUSH1 0x0 PUSH1 0x20 DUP3 DUP5 SUB SLT ISZERO PUSH2 0x3903 JUMPI PUSH1 0x0 DUP1 REVERT JUMPDEST DUP2 MLOAD DUP1 ISZERO ISZERO DUP2 EQ PUSH2 0x2FED JUMPI PUSH1 0x0 DUP1 REVERT JUMPDEST PUSH1 0x0 PUSH1 0x20 DUP3 DUP5 SUB SLT ISZERO PUSH2 0x3925 JUMPI PUSH1 0x0 DUP1 REVERT JUMPDEST POP MLOAD SWAP2 SWAP1 POP JUMP JUMPDEST PUSH1 0x0 DUP1 PUSH1 0x40 DUP4 DUP6 SUB SLT ISZERO PUSH2 0x393F JUMPI PUSH1 0x0 DUP1 REVERT JUMPDEST POP POP DUP1 MLOAD PUSH1 0x20 SWAP1 SWAP2 ADD MLOAD SWAP1 SWAP3 SWAP1 SWAP2 POP JUMP JUMPDEST PUSH1 0x0 DUP1 PUSH1 0x0 DUP1 PUSH1 0x0 DUP1 PUSH1 0x0 DUP1 PUSH2 0x100 DUP10 DUP12 SUB SLT ISZERO PUSH2 0x396D JUMPI PUSH1 0x0 DUP1 REVERT JUMPDEST DUP9 CALLDATALOAD SWAP8 POP PUSH1 0x20 DUP10 ADD CALLDATALOAD SWAP7 POP PUSH2 0x3984 PUSH1 0x40 DUP11 ADD PUSH2 0x37A0 JUMP JUMPDEST SWAP6 POP PUSH2 0x3992 PUSH1 0x60 DUP11 ADD PUSH2 0x37A0 JUMP JUMPDEST SWAP5 POP PUSH2 0x39A0 PUSH1 0x80 DUP11 ADD PUSH2 0x37A0 JUMP JUMPDEST SWAP4 POP PUSH2 0x39AE PUSH1 0xA0 DUP11 ADD PUSH2 0x37A0 JUMP JUMPDEST SWAP3 POP PUSH2 0x39BC PUSH1 0xC0 DUP11 ADD PUSH2 0x37A0 JUMP JUMPDEST SWAP2 POP PUSH2 0x39CA PUSH1 0xE0 DUP11 ADD PUSH2 0x37A0 JUMP JUMPDEST SWAP1 POP SWAP3 SWAP6 SWAP9 POP SWAP3 SWAP6 SWAP9 SWAP1 SWAP4 SWAP7 POP JUMP JUMPDEST PUSH1 0x0 DUP1 PUSH1 0x0 PUSH1 0x60 DUP5 DUP7 SUB SLT ISZERO PUSH2 0x39EE JUMPI PUSH1 0x0 DUP1 REVERT JUMPDEST DUP4 MLOAD SWAP3 POP PUSH1 0x20 DUP5 ADD MLOAD SWAP2 POP PUSH1 0x40 DUP5 ADD MLOAD SWAP1 POP SWAP3 POP SWAP3 POP SWAP3 JUMP JUMPDEST PUSH1 0x0 DUP1 PUSH1 0x0 DUP1 PUSH1 0x0 DUP1 PUSH1 0x0 PUSH1 0xE0 DUP9 DUP11 SUB SLT ISZERO PUSH2 0x3A22 JUMPI PUSH1 0x0 DUP1 REVERT JUMPDEST DUP8 CALLDATALOAD SWAP7 POP PUSH1 0x20 DUP9 ADD CALLDATALOAD SWAP6 POP PUSH1 0x40 DUP9 ADD CALLDATALOAD SWAP5 POP PUSH1 0x60 DUP9 ADD CALLDATALOAD SWAP4 POP PUSH1 0x80 DUP9 ADD CALLDATALOAD SWAP3 POP PUSH1 0xA0 DUP9 ADD CALLDATALOAD SWAP2 POP PUSH2 0x3A55 PUSH1 0xC0 DUP10 ADD PUSH2 0x37A0 JUMP JUMPDEST SWAP1 POP SWAP3 SWAP6 SWAP9 SWAP2 SWAP5 SWAP8 POP SWAP3 SWAP6 POP JUMP JUMPDEST PUSH1 0x0 DUP2 MLOAD DUP1 DUP5 MSTORE PUSH1 0x20 DUP1 DUP6 ADD SWAP5 POP DUP1 DUP5 ADD PUSH1 0x0 JUMPDEST DUP4 DUP2 LT ISZERO PUSH2 0x3AA9 JUMPI DUP2 MLOAD PUSH20 0xFFFFFFFFFFFFFFFFFFFFFFFFFFFFFFFFFFFFFFFF AND DUP8 MSTORE SWAP6 DUP3 ADD SWAP6 SWAP1 DUP3 ADD SWAP1 PUSH1 0x1 ADD PUSH2 0x3A77 JUMP JUMPDEST POP SWAP5 SWAP6 SWAP5 POP POP POP POP POP JUMP JUMPDEST PUSH1 0x0 DUP3 MLOAD PUSH2 0x3AC6 DUP2 DUP5 PUSH1 0x20 DUP8 ADD PUSH2 0x3C44 JUMP JUMPDEST SWAP2 SWAP1 SWAP2 ADD SWAP3 SWAP2 POP POP JUMP JUMPDEST PUSH1 0x20 DUP2 ADD PUSH1 0x4 DUP4 LT PUSH2 0x3B0B JUMPI PUSH32 0x4E487B7100000000000000000000000000000000000000000000000000000000 PUSH1 0x0 MSTORE PUSH1 0x21 PUSH1 0x4 MSTORE PUSH1 0x24 PUSH1 0x0 REVERT JUMPDEST SWAP2 SWAP1 MSTORE SWAP1 JUMP JUMPDEST PUSH1 0x20 DUP2 MSTORE PUSH1 0x0 DUP3 MLOAD DUP1 PUSH1 0x20 DUP5 ADD MSTORE PUSH2 0x3B30 DUP2 PUSH1 0x40 DUP6 ADD PUSH1 0x20 DUP8 ADD PUSH2 0x3C44 JUMP JUMPDEST PUSH1 0x1F ADD PUSH32 0xFFFFFFFFFFFFFFFFFFFFFFFFFFFFFFFFFFFFFFFFFFFFFFFFFFFFFFFFFFFFFFE0 AND SWAP2 SWAP1 SWAP2 ADD PUSH1 0x40 ADD SWAP3 SWAP2 POP POP JUMP JUMPDEST DUP3 DUP2 MSTORE PUSH1 0x40 PUSH1 0x20 DUP3 ADD MSTORE PUSH1 0x0 PUSH2 0x35C5 PUSH1 0x40 DUP4 ADD DUP5 PUSH2 0x3A63 JUMP JUMPDEST DUP6 DUP2 MSTORE DUP5 PUSH1 0x20 DUP3 ADD MSTORE PUSH1 0xA0 PUSH1 0x40 DUP3 ADD MSTORE PUSH1 0x0 PUSH2 0x3B9A PUSH1 0xA0 DUP4 ADD DUP7 PUSH2 0x3A63 JUMP JUMPDEST PUSH20 0xFFFFFFFFFFFFFFFFFFFFFFFFFFFFFFFFFFFFFFFF SWAP5 SWAP1 SWAP5 AND PUSH1 0x60 DUP4 ADD MSTORE POP PUSH1 0x80 ADD MSTORE SWAP4 SWAP3 POP POP POP JUMP JUMPDEST PUSH1 0x0 DUP3 NOT DUP3 GT ISZERO PUSH2 0x3BD7 JUMPI PUSH2 0x3BD7 PUSH2 0x3C84 JUMP JUMPDEST POP ADD SWAP1 JUMP JUMPDEST PUSH1 0x0 DUP3 PUSH2 0x3BEB JUMPI PUSH2 0x3BEB PUSH2 0x3CB3 JUMP JUMPDEST POP DIV SWAP1 JUMP JUMPDEST PUSH1 0x0 DUP2 PUSH32 0xFFFFFFFFFFFFFFFFFFFFFFFFFFFFFFFFFFFFFFFFFFFFFFFFFFFFFFFFFFFFFFFF DIV DUP4 GT DUP3 ISZERO ISZERO AND ISZERO PUSH2 0x3C28 JUMPI PUSH2 0x3C28 PUSH2 0x3C84 JUMP JUMPDEST POP MUL SWAP1 JUMP JUMPDEST PUSH1 0x0 DUP3 DUP3 LT ISZERO PUSH2 0x3C3F JUMPI PUSH2 0x3C3F PUSH2 0x3C84 JUMP JUMPDEST POP SUB SWAP1 JUMP JUMPDEST PUSH1 0x0 JUMPDEST DUP4 DUP2 LT ISZERO PUSH2 0x3C5F JUMPI DUP2 DUP2 ADD MLOAD DUP4 DUP3 ADD MSTORE PUSH1 0x20 ADD PUSH2 0x3C47 JUMP JUMPDEST DUP4 DUP2 GT ISZERO PUSH2 0x25EF JUMPI POP POP PUSH1 0x0 SWAP2 ADD MSTORE JUMP JUMPDEST PUSH1 0x0 DUP3 PUSH2 0x3C7F JUMPI PUSH2 0x3C7F PUSH2 0x3CB3 JUMP JUMPDEST POP MOD SWAP1 JUMP JUMPDEST PUSH32 0x4E487B7100000000000000000000000000000000000000000000000000000000 PUSH1 0x0 MSTORE PUSH1 0x11 PUSH1 0x4 MSTORE PUSH1 0x24 PUSH1 0x0 REVERT JUMPDEST PUSH32 0x4E487B7100000000000000000000000000000000000000000000000000000000 PUSH1 0x0 MSTORE PUSH1 0x12 PUSH1 0x4 MSTORE PUSH1 0x24 PUSH1 0x0 REVERT JUMPDEST PUSH32 0x4E487B7100000000000000000000000000000000000000000000000000000000 PUSH1 0x0 MSTORE PUSH1 0x32 PUSH1 0x4 MSTORE PUSH1 0x24 PUSH1 0x0 REVERT JUMPDEST PUSH32 0x4E487B7100000000000000000000000000000000000000000000000000000000 PUSH1 0x0 MSTORE PUSH1 0x41 PUSH1 0x4 MSTORE PUSH1 0x24 PUSH1 0x0 REVERT INVALID LOG2 PUSH5 0x6970667358 0x22 SLT KECCAK256 PUSH21 0x344541E782E946F373365FAEFED531BFF80CF50684 0x2F 0xC8 0x49 0xEA 0xD5 0xB6 SWAP9 0x5D 0xE2 DUP6 PUSH5 0x736F6C6343 STOP ADDMOD SMOD STOP CALLER "
		},
		"gasEstimates": {
			"creation": {
				"codeDepositCost": "3146800",
				"executionCost": "75640",
				"totalCost": "3222440"
			},
			"external": {
				"burnedAmount()": "2408",
				"buyBackAddress()": "282",
				"buyBackRate()": "2364",
				"controllerFee()": "2408",
				"convertDustToEarned()": "infinite",
				"crystlAddress()": "283",
				"deposit(address,uint256)": "infinite",
				"earn()": "infinite",
				"earnedAddress()": "2391",
				"feeAddress()": "306",
				"feeMax()": "305",
				"feeMaxTotal()": "263",
				"govAddress()": "2414",
				"initialize(uint256,uint256,address,address,address,address,address,address)": "infinite",
				"lastEarnBlock()": "2409",
				"masterchefAddress()": "2393",
				"maxiAddress()": "2392",
				"owner()": "2408",
				"panic()": "infinite",
				"pause()": "29814",
				"paused()": "2360",
				"pid()": "2362",
				"renounceOwnership()": "28142",
				"resetAllowances()": "infinite",
				"rewardAddress()": "283",
				"rewardRate()": "2364",
				"setGov(address)": "26771",
				"setSettings(uint256,uint256,uint256,uint256,uint256,uint256,address)": "infinite",
				"sharesTotal()": "2385",
				"slippageFactor()": "2383",
				"slippageFactorUL()": "262",
				"stratType()": "2474",
				"tolerance()": "2362",
				"transferOwnership(address)": "28335",
				"uniRouterAddress()": "2392",
				"unpanic()": "infinite",
				"unpause()": "infinite",
				"usdcAddress()": "263",
				"vaultChefAddress()": "2393",
				"vaultSharesTotal()": "infinite",
				"wantAddress()": "2424",
				"wantLockedTotal()": "infinite",
				"withdraw(address,uint256)": "infinite",
				"withdrawFeeAddress()": "304",
				"withdrawFeeFactor()": "2363",
				"withdrawFeeFactorLL()": "263",
				"withdrawFeeFactorMax()": "307",
				"wmaticAddress()": "305"
			},
			"internal": {
				"_emergencyVaultWithdraw()": "infinite",
				"_resetAllowances()": "infinite",
				"_vaultDeposit(uint256)": "infinite",
				"_vaultHarvest()": "infinite",
				"_vaultWithdraw(uint256)": "infinite"
			}
		},
		"methodIdentifiers": {
			"burnedAmount()": "50e15fdd",
			"buyBackAddress()": "783478ad",
			"buyBackRate()": "178a8d07",
			"controllerFee()": "85f02dd6",
			"convertDustToEarned()": "c11c2e92",
			"crystlAddress()": "a1a7194f",
			"deposit(address,uint256)": "47e7ef24",
			"earn()": "d389800f",
			"earnedAddress()": "e7198474",
			"feeAddress()": "41275358",
			"feeMax()": "ffbe9f1e",
			"feeMaxTotal()": "8fefda06",
			"govAddress()": "46008a07",
			"initialize(uint256,uint256,address,address,address,address,address,address)": "ff63a736",
			"lastEarnBlock()": "0fa4e01e",
			"masterchefAddress()": "40c34b58",
			"maxiAddress()": "d62e969d",
			"owner()": "8da5cb5b",
			"panic()": "4700d305",
			"pause()": "8456cb59",
			"paused()": "5c975abb",
			"pid()": "f1068454",
			"renounceOwnership()": "715018a6",
			"resetAllowances()": "3505b09f",
			"rewardAddress()": "8cf57cb9",
			"rewardRate()": "7b0a47ee",
			"setGov(address)": "cfad57a2",
			"setSettings(uint256,uint256,uint256,uint256,uint256,uint256,address)": "b02381c6",
			"sharesTotal()": "44a3955e",
			"slippageFactor()": "ffbd3b1f",
			"slippageFactorUL()": "b74cd242",
			"stratType()": "7115e9fa",
			"tolerance()": "dce52dfa",
			"transferOwnership(address)": "f2fde38b",
			"uniRouterAddress()": "693a090b",
			"unpanic()": "65a5e30b",
			"unpause()": "3f4ba83a",
			"usdcAddress()": "02d45457",
			"vaultChefAddress()": "3220d732",
			"vaultSharesTotal()": "04c9d490",
			"wantAddress()": "e7a03679",
			"wantLockedTotal()": "42da4eb3",
			"withdraw(address,uint256)": "f3fef3a3",
			"withdrawFeeAddress()": "784def8c",
			"withdrawFeeFactor()": "68f54162",
			"withdrawFeeFactorLL()": "866b2018",
			"withdrawFeeFactorMax()": "67057b6c",
			"wmaticAddress()": "db4b7eee"
		}
	},
	"abi": [
		{
			"anonymous": false,
			"inputs": [
				{
					"indexed": true,
					"internalType": "address",
					"name": "previousOwner",
					"type": "address"
				},
				{
					"indexed": true,
					"internalType": "address",
					"name": "newOwner",
					"type": "address"
				}
			],
			"name": "OwnershipTransferred",
			"type": "event"
		},
		{
			"anonymous": false,
			"inputs": [
				{
					"indexed": false,
					"internalType": "address",
					"name": "account",
					"type": "address"
				}
			],
			"name": "Paused",
			"type": "event"
		},
		{
			"anonymous": false,
			"inputs": [
				{
					"indexed": false,
					"internalType": "uint256",
					"name": "_controllerFee",
					"type": "uint256"
				},
				{
					"indexed": false,
					"internalType": "uint256",
					"name": "_rewardRate",
					"type": "uint256"
				},
				{
					"indexed": false,
					"internalType": "uint256",
					"name": "_buyBackRate",
					"type": "uint256"
				},
				{
					"indexed": false,
					"internalType": "uint256",
					"name": "_withdrawFeeFactor",
					"type": "uint256"
				},
				{
					"indexed": false,
					"internalType": "uint256",
					"name": "_slippageFactor",
					"type": "uint256"
				},
				{
					"indexed": false,
					"internalType": "uint256",
					"name": "_tolerance",
					"type": "uint256"
				},
				{
					"indexed": false,
					"internalType": "address",
					"name": "_uniRouterAddress",
					"type": "address"
				}
			],
			"name": "SetSettings",
			"type": "event"
		},
		{
			"anonymous": false,
			"inputs": [
				{
					"indexed": false,
					"internalType": "address",
					"name": "account",
					"type": "address"
				}
			],
			"name": "Unpaused",
			"type": "event"
		},
		{
			"inputs": [],
			"name": "burnedAmount",
			"outputs": [
				{
					"internalType": "uint256",
					"name": "",
					"type": "uint256"
				}
			],
			"stateMutability": "view",
			"type": "function"
		},
		{
			"inputs": [],
			"name": "buyBackAddress",
			"outputs": [
				{
					"internalType": "address",
					"name": "",
					"type": "address"
				}
			],
			"stateMutability": "view",
			"type": "function"
		},
		{
			"inputs": [],
			"name": "buyBackRate",
			"outputs": [
				{
					"internalType": "uint256",
					"name": "",
					"type": "uint256"
				}
			],
			"stateMutability": "view",
			"type": "function"
		},
		{
			"inputs": [],
			"name": "controllerFee",
			"outputs": [
				{
					"internalType": "uint256",
					"name": "",
					"type": "uint256"
				}
			],
			"stateMutability": "view",
			"type": "function"
		},
		{
			"inputs": [],
			"name": "convertDustToEarned",
			"outputs": [],
			"stateMutability": "nonpayable",
			"type": "function"
		},
		{
			"inputs": [],
			"name": "crystlAddress",
			"outputs": [
				{
					"internalType": "address",
					"name": "",
					"type": "address"
				}
			],
			"stateMutability": "view",
			"type": "function"
		},
		{
			"inputs": [
				{
					"internalType": "address",
					"name": "",
					"type": "address"
				},
				{
					"internalType": "uint256",
					"name": "_wantAmt",
					"type": "uint256"
				}
			],
			"name": "deposit",
			"outputs": [
				{
					"internalType": "uint256",
					"name": "",
					"type": "uint256"
				}
			],
			"stateMutability": "nonpayable",
			"type": "function"
		},
		{
			"inputs": [],
			"name": "earn",
			"outputs": [],
			"stateMutability": "nonpayable",
			"type": "function"
		},
		{
			"inputs": [],
			"name": "earnedAddress",
			"outputs": [
				{
					"internalType": "address",
					"name": "",
					"type": "address"
				}
			],
			"stateMutability": "view",
			"type": "function"
		},
		{
			"inputs": [],
			"name": "feeAddress",
			"outputs": [
				{
					"internalType": "address",
					"name": "",
					"type": "address"
				}
			],
			"stateMutability": "view",
			"type": "function"
		},
		{
			"inputs": [],
			"name": "feeMax",
			"outputs": [
				{
					"internalType": "uint256",
					"name": "",
					"type": "uint256"
				}
			],
			"stateMutability": "view",
			"type": "function"
		},
		{
			"inputs": [],
			"name": "feeMaxTotal",
			"outputs": [
				{
					"internalType": "uint256",
					"name": "",
					"type": "uint256"
				}
			],
			"stateMutability": "view",
			"type": "function"
		},
		{
			"inputs": [],
			"name": "govAddress",
			"outputs": [
				{
					"internalType": "address",
					"name": "",
					"type": "address"
				}
			],
			"stateMutability": "view",
			"type": "function"
		},
		{
			"inputs": [
				{
					"internalType": "uint256",
					"name": "_pid",
					"type": "uint256"
				},
				{
					"internalType": "uint256",
					"name": "_tolerance",
					"type": "uint256"
				},
				{
					"internalType": "address",
					"name": "_govAddress",
					"type": "address"
				},
				{
					"internalType": "address",
					"name": "_masterChef",
					"type": "address"
				},
				{
					"internalType": "address",
					"name": "_uniRouter",
					"type": "address"
				},
				{
					"internalType": "address",
					"name": "_wantAddress",
					"type": "address"
				},
				{
					"internalType": "address",
					"name": "_earnedAddress",
					"type": "address"
				},
				{
					"internalType": "address",
					"name": "_earnedToWmaticStep",
					"type": "address"
				}
			],
			"name": "initialize",
			"outputs": [],
			"stateMutability": "nonpayable",
			"type": "function"
		},
		{
			"inputs": [],
			"name": "lastEarnBlock",
			"outputs": [
				{
					"internalType": "uint256",
					"name": "",
					"type": "uint256"
				}
			],
			"stateMutability": "view",
			"type": "function"
		},
		{
			"inputs": [],
			"name": "masterchefAddress",
			"outputs": [
				{
					"internalType": "address",
					"name": "",
					"type": "address"
				}
			],
			"stateMutability": "view",
			"type": "function"
		},
		{
			"inputs": [],
			"name": "maxiAddress",
			"outputs": [
				{
					"internalType": "address",
					"name": "",
					"type": "address"
				}
			],
			"stateMutability": "view",
			"type": "function"
		},
		{
			"inputs": [],
			"name": "owner",
			"outputs": [
				{
					"internalType": "address",
					"name": "",
					"type": "address"
				}
			],
			"stateMutability": "view",
			"type": "function"
		},
		{
			"inputs": [],
			"name": "panic",
			"outputs": [],
			"stateMutability": "nonpayable",
			"type": "function"
		},
		{
			"inputs": [],
			"name": "pause",
			"outputs": [],
			"stateMutability": "nonpayable",
			"type": "function"
		},
		{
			"inputs": [],
			"name": "paused",
			"outputs": [
				{
					"internalType": "bool",
					"name": "",
					"type": "bool"
				}
			],
			"stateMutability": "view",
			"type": "function"
		},
		{
			"inputs": [],
			"name": "pid",
			"outputs": [
				{
					"internalType": "uint256",
					"name": "",
					"type": "uint256"
				}
			],
			"stateMutability": "view",
			"type": "function"
		},
		{
			"inputs": [],
			"name": "renounceOwnership",
			"outputs": [],
			"stateMutability": "nonpayable",
			"type": "function"
		},
		{
			"inputs": [],
			"name": "resetAllowances",
			"outputs": [],
			"stateMutability": "nonpayable",
			"type": "function"
		},
		{
			"inputs": [],
			"name": "rewardAddress",
			"outputs": [
				{
					"internalType": "address",
					"name": "",
					"type": "address"
				}
			],
			"stateMutability": "view",
			"type": "function"
		},
		{
			"inputs": [],
			"name": "rewardRate",
			"outputs": [
				{
					"internalType": "uint256",
					"name": "",
					"type": "uint256"
				}
			],
			"stateMutability": "view",
			"type": "function"
		},
		{
			"inputs": [
				{
					"internalType": "address",
					"name": "_govAddress",
					"type": "address"
				}
			],
			"name": "setGov",
			"outputs": [],
			"stateMutability": "nonpayable",
			"type": "function"
		},
		{
			"inputs": [
				{
					"internalType": "uint256",
					"name": "_controllerFee",
					"type": "uint256"
				},
				{
					"internalType": "uint256",
					"name": "_rewardRate",
					"type": "uint256"
				},
				{
					"internalType": "uint256",
					"name": "_buyBackRate",
					"type": "uint256"
				},
				{
					"internalType": "uint256",
					"name": "_withdrawFeeFactor",
					"type": "uint256"
				},
				{
					"internalType": "uint256",
					"name": "_slippageFactor",
					"type": "uint256"
				},
				{
					"internalType": "uint256",
					"name": "_tolerance",
					"type": "uint256"
				},
				{
					"internalType": "address",
					"name": "_uniRouterAddress",
					"type": "address"
				}
			],
			"name": "setSettings",
			"outputs": [],
			"stateMutability": "nonpayable",
			"type": "function"
		},
		{
			"inputs": [],
			"name": "sharesTotal",
			"outputs": [
				{
					"internalType": "uint256",
					"name": "",
					"type": "uint256"
				}
			],
			"stateMutability": "view",
			"type": "function"
		},
		{
			"inputs": [],
			"name": "slippageFactor",
			"outputs": [
				{
					"internalType": "uint256",
					"name": "",
					"type": "uint256"
				}
			],
			"stateMutability": "view",
			"type": "function"
		},
		{
			"inputs": [],
			"name": "slippageFactorUL",
			"outputs": [
				{
					"internalType": "uint256",
					"name": "",
					"type": "uint256"
				}
			],
			"stateMutability": "view",
			"type": "function"
		},
		{
			"inputs": [],
			"name": "stratType",
			"outputs": [
				{
					"internalType": "enum StratType",
					"name": "",
					"type": "uint8"
				}
			],
			"stateMutability": "view",
			"type": "function"
		},
		{
			"inputs": [],
			"name": "tolerance",
			"outputs": [
				{
					"internalType": "uint256",
					"name": "",
					"type": "uint256"
				}
			],
			"stateMutability": "view",
			"type": "function"
		},
		{
			"inputs": [
				{
					"internalType": "address",
					"name": "newOwner",
					"type": "address"
				}
			],
			"name": "transferOwnership",
			"outputs": [],
			"stateMutability": "nonpayable",
			"type": "function"
		},
		{
			"inputs": [],
			"name": "uniRouterAddress",
			"outputs": [
				{
					"internalType": "address",
					"name": "",
					"type": "address"
				}
			],
			"stateMutability": "view",
			"type": "function"
		},
		{
			"inputs": [],
			"name": "unpanic",
			"outputs": [],
			"stateMutability": "nonpayable",
			"type": "function"
		},
		{
			"inputs": [],
			"name": "unpause",
			"outputs": [],
			"stateMutability": "nonpayable",
			"type": "function"
		},
		{
			"inputs": [],
			"name": "usdcAddress",
			"outputs": [
				{
					"internalType": "address",
					"name": "",
					"type": "address"
				}
			],
			"stateMutability": "view",
			"type": "function"
		},
		{
			"inputs": [],
			"name": "vaultChefAddress",
			"outputs": [
				{
					"internalType": "address",
					"name": "",
					"type": "address"
				}
			],
			"stateMutability": "view",
			"type": "function"
		},
		{
			"inputs": [],
			"name": "vaultSharesTotal",
			"outputs": [
				{
					"internalType": "uint256",
					"name": "",
					"type": "uint256"
				}
			],
			"stateMutability": "view",
			"type": "function"
		},
		{
			"inputs": [],
			"name": "wantAddress",
			"outputs": [
				{
					"internalType": "address",
					"name": "",
					"type": "address"
				}
			],
			"stateMutability": "view",
			"type": "function"
		},
		{
			"inputs": [],
			"name": "wantLockedTotal",
			"outputs": [
				{
					"internalType": "uint256",
					"name": "",
					"type": "uint256"
				}
			],
			"stateMutability": "view",
			"type": "function"
		},
		{
			"inputs": [
				{
					"internalType": "address",
					"name": "",
					"type": "address"
				},
				{
					"internalType": "uint256",
					"name": "_wantAmt",
					"type": "uint256"
				}
			],
			"name": "withdraw",
			"outputs": [
				{
					"internalType": "uint256",
					"name": "",
					"type": "uint256"
				}
			],
			"stateMutability": "nonpayable",
			"type": "function"
		},
		{
			"inputs": [],
			"name": "withdrawFeeAddress",
			"outputs": [
				{
					"internalType": "address",
					"name": "",
					"type": "address"
				}
			],
			"stateMutability": "view",
			"type": "function"
		},
		{
			"inputs": [],
			"name": "withdrawFeeFactor",
			"outputs": [
				{
					"internalType": "uint256",
					"name": "",
					"type": "uint256"
				}
			],
			"stateMutability": "view",
			"type": "function"
		},
		{
			"inputs": [],
			"name": "withdrawFeeFactorLL",
			"outputs": [
				{
					"internalType": "uint256",
					"name": "",
					"type": "uint256"
				}
			],
			"stateMutability": "view",
			"type": "function"
		},
		{
			"inputs": [],
			"name": "withdrawFeeFactorMax",
			"outputs": [
				{
					"internalType": "uint256",
					"name": "",
					"type": "uint256"
				}
			],
			"stateMutability": "view",
			"type": "function"
		},
		{
			"inputs": [],
			"name": "wmaticAddress",
			"outputs": [
				{
					"internalType": "address",
					"name": "",
					"type": "address"
				}
			],
			"stateMutability": "view",
			"type": "function"
		}
	]
}