{
	"data": {
		"bytecode": {
			"linkReferences": {},
			"object": "6080604052436009556000600a556032600b556000600c556101c2600d55612706600e556103b6600f553480156200003657600080fd5b50604051620042363803806200423683398181016040526101608110156200005d57600080fd5b815160208301516040808501516060860151608087015160a088015160c089015160e08a0180519651989a979995989497939692959194939182019284640100000000821115620000ad57600080fd5b908301906020820185811115620000c357600080fd5b8251866020820283011164010000000082111715620000e157600080fd5b82525081516020918201928201910280838360005b8381101562000110578181015183820152602001620000f6565b50505050905001604052602001805160405193929190846401000000008211156200013a57600080fd5b9083019060208201858111156200015057600080fd5b82518660208202830111640100000000821117156200016e57600080fd5b82525081516020918201928201910280838360005b838110156200019d57818101518382015260200162000183565b5050505090500160405260200180516040519392919084640100000000821115620001c757600080fd5b908301906020820185811115620001dd57600080fd5b8251866020820283011164010000000082111715620001fb57600080fd5b82525081516020918201928201910280838360005b838110156200022a57818101518382015260200162000210565b50505050905001604052602001805160405193929190846401000000008211156200025457600080fd5b9083019060208201858111156200026a57600080fd5b82518660208202830111640100000000821117156200028857600080fd5b82525081516020918201928201910280838360005b83811015620002b75781810151838201526020016200029d565b505050509050016040525050506000620002d6620005ea60201b60201c565b600080546001600160a01b0319166001600160a01b038316908117825560405192935091600080516020620041b6833981519152908290a350600180819055506000600260006101000a81548160ff02191690831515021790555033600860006101000a8154816001600160a01b0302191690836001600160a01b031602179055508a600760006101000a8154816001600160a01b0302191690836001600160a01b0316021790555089601b60006101000a8154816001600160a01b0302191690836001600160a01b0316021790555088600660006101000a8154816001600160a01b0302191690836001600160a01b0316021790555086600260016101000a8154816001600160a01b0302191690836001600160a01b03160217905550600260019054906101000a90046001600160a01b03166001600160a01b0316630dfe16816040518163ffffffff1660e01b815260040160206040518083038186803b1580156200044357600080fd5b505afa9250505080156200046a57506040513d60208110156200046557600080fd5b505160015b620004755762000527565b600380546001600160a01b0319166001600160a01b03838116919091179091556002546040805163d21220a760e01b815290516101009092049092169163d21220a7916004808301926020929190829003018186803b158015620004d857600080fd5b505afa158015620004ed573d6000803e3d6000fd5b505050506040513d60208110156200050457600080fd5b5051600480546001600160a01b0319166001600160a01b03909216919091179055505b601c889055600580546001600160a01b0319166001600160a01b038816179055601085905583516200056190601290602087019062000e78565b5082516200057790601390602086019062000e78565b5081516200058d90601490602085019062000e78565b508051620005a390601990602084019062000e78565b50600754620005bb906001600160a01b0316620005ee565b620005c5620006f8565b5050601a805460ff60a01b1916600160a01b1790555062000f03975050505050505050565b3390565b620005f8620005ea565b6001600160a01b03166200060b620008ed565b6001600160a01b03161462000667576040805162461bcd60e51b815260206004820181905260248201527f4f776e61626c653a2063616c6c6572206973206e6f7420746865206f776e6572604482015290519081900360640190fd5b6001600160a01b038116620006ae5760405162461bcd60e51b81526004018080602001828103825260268152602001806200416a6026913960400191505060405180910390fd5b600080546040516001600160a01b0380851693921691600080516020620041b683398151915291a3600080546001600160a01b0319166001600160a01b0392909216919091179055565b601b5460025462000729916001600160a01b03610100909204821691166000620008fc602090811b62001bf017901c565b601b546002546200075b916001600160a01b036101009092048216911660001962000a20602090811b62001d0817901c565b60065460055462000787916001600160a01b0391821691166000620008fc602090811b62001bf017901c565b600654600554620007b4916001600160a01b03918216911660001962000a20602090811b62001d0817901c565b600654600354620007e0916001600160a01b0391821691166000620008fc602090811b62001bf017901c565b6006546003546200080d916001600160a01b03918216911660001962000a20602090811b62001d0817901c565b60065460045462000839916001600160a01b0391821691166000620008fc602090811b62001bf017901c565b60065460045462000866916001600160a01b03918216911660001962000a20602090811b62001d0817901c565b620008a8732791bca1f2de4661ed88a30c99a7a9449aa8417473917fb15e8aaa12264dcbdc15afef7cd3ce76ba396000620008fc602090811b62001bf017901c565b620008eb732791bca1f2de4661ed88a30c99a7a9449aa8417473917fb15e8aaa12264dcbdc15afef7cd3ce76ba3960001962000a20602090811b62001d0817901c565b565b6000546001600160a01b031690565b80158062000986575060408051636eb1769f60e11b81523060048201526001600160a01b03848116602483015291519185169163dd62ed3e91604480820192602092909190829003018186803b1580156200095657600080fd5b505afa1580156200096b573d6000803e3d6000fd5b505050506040513d60208110156200098257600080fd5b5051155b620009c35760405162461bcd60e51b8152600401808060200182810382526036815260200180620042006036913960400191505060405180910390fd5b604080516001600160a01b038416602482015260448082018490528251808303909101815260649091019091526020810180516001600160e01b0390811663095ea7b360e01b1790915262000a1b91859162000b2916565b505050565b600062000ac782856001600160a01b031663dd62ed3e30876040518363ffffffff1660e01b815260040180836001600160a01b03168152602001826001600160a01b031681526020019250505060206040518083038186803b15801562000a8657600080fd5b505afa15801562000a9b573d6000803e3d6000fd5b505050506040513d602081101562000ab257600080fd5b50519062000be5602090811b62001dc717901c565b604080516001600160a01b038616602482015260448082018490528251808303909101815260649091019091526020810180516001600160e01b0390811663095ea7b360e01b1790915291925062000b239186919062000b2916565b50505050565b606062000b85826040518060400160405280602081526020017f5361666545524332303a206c6f772d6c6576656c2063616c6c206661696c6564815250856001600160a01b031662000c4760201b62001e2a179092919060201c565b80519091501562000a1b5780806020019051602081101562000ba657600080fd5b505162000a1b5760405162461bcd60e51b815260040180806020018281038252602a815260200180620041d6602a913960400191505060405180910390fd5b60008282018381101562000c40576040805162461bcd60e51b815260206004820152601b60248201527f536166654d6174683a206164646974696f6e206f766572666c6f770000000000604482015290519081900360640190fd5b9392505050565b606062000c58848460008562000c60565b949350505050565b60608247101562000ca35760405162461bcd60e51b8152600401808060200182810382526026815260200180620041906026913960400191505060405180910390fd5b62000cae8562000dc8565b62000d00576040805162461bcd60e51b815260206004820152601d60248201527f416464726573733a2063616c6c20746f206e6f6e2d636f6e7472616374000000604482015290519081900360640190fd5b60006060866001600160a01b031685876040518082805190602001908083835b6020831062000d415780518252601f19909201916020918201910162000d20565b6001836020036101000a03801982511681845116808217855250505050505090500191505060006040518083038185875af1925050503d806000811462000da5576040519150601f19603f3d011682016040523d82523d6000602084013e62000daa565b606091505b50909250905062000dbd82828662000dce565b979650505050505050565b3b151590565b6060831562000ddf57508162000c40565b82511562000df05782518084602001fd5b8160405162461bcd60e51b81526004018080602001828103825283818151815260200191508051906020019080838360005b8381101562000e3c57818101518382015260200162000e22565b50505050905090810190601f16801562000e6a5780820380516001836020036101000a031916815260200191505b509250505060405180910390fd5b82805482825590600052602060002090810192821562000ed0579160200282015b8281111562000ed057825182546001600160a01b0319166001600160a01b0390911617825560209092019160019091019062000e99565b5062000ede92915062000ee2565b5090565b5b8082111562000ede5780546001600160a01b031916815560010162000ee3565b6132578062000f136000396000f3fe608060405234801561001057600080fd5b50600436106103775760003560e01c80637b0a47ee116101d3578063c11c2e9211610104578063e7198474116100a2578063f2fde38b1161007c578063f2fde38b146106a5578063f3fef3a3146106cb578063ffbd3b1f146106f7578063ffbe9f1e146104e057610377565b8063e71984741461068d578063e7a0367914610695578063f10684541461069d57610377565b8063d389800f116100de578063d389800f1461066d578063d62e969d14610675578063d7cb416f1461067d578063dce52dfa1461068557610377565b8063c11c2e9214610622578063c8e3d18b1461062a578063cfad57a21461064757610377565b80638da5cb5b116101715780639872317f1161014b5780639872317f146105ab578063b02381c6146105b3578063b74cd242146105fd578063b77050e71461060557610377565b80638da5cb5b1461057e5780638fefda061461058657806396e9aff81461058e57610377565b806385f02dd6116101ad57806385f02dd614610549578063866b2018146105515780638811dad0146105595780638cf57cb91461057657610377565b80637b0a47ee146105315780637ff36fbe146105395780638456cb591461054157610377565b806346008a07116102ad57806367057b6c1161024b5780637115e9fa116102255780637115e9fa146104f8578063715018a614610521578063783478ad14610529578063784def8c1461044357610377565b806367057b6c146104e057806368f54162146104e8578063693a090b146104f057610377565b80634928168311610287578063492816831461049757806350e15fdd146104b45780635c975abb146104bc57806365a5e30b146104d857610377565b806346008a071461045b5780634700d3051461046357806347e7ef241461046b57610377565b80633220d7321161031a57806340c34b58116102f457806340c34b581461043b578063412753581461044357806342da4eb31461044b57806344a3955e1461045357610377565b80633220d732146104215780633505b09f146104295780633f4ba83a1461043357610377565b80630fa4e01e116103565780630fa4e01e146103d7578063178a8d07146103df578063260ab48c146103e757806330f6cf631461040457610377565b80627a2ae31461037c57806302d45457146103b557806304c9d490146103bd575b600080fd5b6103996004803603602081101561039257600080fd5b50356106ff565b604080516001600160a01b039092168252519081900360200190f35b610399610726565b6103c561073e565b60408051918252519081900360200190f35b6103c56107c6565b6103c56107cc565b610399600480360360208110156103fd57600080fd5b50356107d2565b6103996004803603602081101561041a57600080fd5b50356107df565b6103996107ec565b6104316107fb565b005b61043161084d565b61039961089d565b6103996108ac565b6103c56108c4565b6103c5610957565b61039961095d565b61043161096c565b6103c56004803603604081101561048157600080fd5b506001600160a01b0381351690602001356109c4565b610399600480360360208110156104ad57600080fd5b5035610b3d565b6103c5610b4a565b6104c4610b50565b604080519115158252519081900360200190f35b610431610b59565b6103c5610bb4565b6103c5610bba565b610399610bc0565b610500610bcf565b6040518082600381111561051057fe5b815260200191505060405180910390f35b610431610bdf565b610399610c8b565b6103c5610c91565b610399610c97565b610431610ca6565b6103c5610cf6565b6103c5610cfc565b6103996004803603602081101561056f57600080fd5b5035610d02565b610399610d0f565b610399610d27565b6103c5610d36565b610399600480360360208110156105a457600080fd5b5035610d3c565b610399610d49565b610431600480360360e08110156105c957600080fd5b5080359060208101359060408101359060608101359060808101359060a08101359060c001356001600160a01b0316610d61565b6103c5610fab565b6103996004803603602081101561061b57600080fd5b5035610fb1565b610431610fbe565b6103996004803603602081101561064057600080fd5b5035611266565b6104316004803603602081101561065d57600080fd5b50356001600160a01b0316611273565b6104316112dd565b61039961178c565b61039961179b565b6103c56117aa565b6103996117b0565b6103996117bf565b6103c56117d3565b610431600480360360208110156106bb57600080fd5b50356001600160a01b03166117d9565b6103c5600480360360408110156106e157600080fd5b506001600160a01b0381351690602001356118db565b6103c5611bea565b6018818154811061070c57fe5b6000918252602090912001546001600160a01b0316905081565b732791bca1f2de4661ed88a30c99a7a9449aa8417481565b601b54601c54604080516393f1a40b60e01b81526004810192909252306024830152805160009384936001600160a01b03909116926393f1a40b92604480840193829003018186803b15801561079357600080fd5b505afa1580156107a7573d6000803e3d6000fd5b505050506040513d60408110156107bd57600080fd5b50519150505b90565b60095481565b600d5481565b6012818154811061070c57fe5b6019818154811061070c57fe5b6007546001600160a01b031681565b6008546001600160a01b03163314610843576040805162461bcd60e51b8152602060048083019190915260248201526310b3b7bb60e11b604482015290519081900360640190fd5b61084b611e43565b565b6008546001600160a01b03163314610895576040805162461bcd60e51b8152602060048083019190915260248201526310b3b7bb60e11b604482015290519081900360640190fd5b610843611faa565b601b546001600160a01b031681565b735386881b46c37cdd30a748f7771cf95d7b21363781565b60006109526108d161073e565b600254604080516370a0823160e01b815230600482015290516101009092046001600160a01b0316916370a0823191602480820192602092909190829003018186803b15801561092057600080fd5b505afa158015610934573d6000803e3d6000fd5b505050506040513d602081101561094a57600080fd5b505190611dc7565b905090565b600a5481565b6008546001600160a01b031681565b6008546001600160a01b031633146109b4576040805162461bcd60e51b8152602060048083019190915260248201526310b3b7bb60e11b604482015290519081900360640190fd5b6109bc61204a565b61084b6120cd565b60006109ce612131565b6001600160a01b03166109df610d27565b6001600160a01b031614610a28576040805162461bcd60e51b815260206004820181905260248201526000805160206131a2833981519152604482015290519081900360640190fd5b60026001541415610a6e576040805162461bcd60e51b815260206004820152601f6024820152600080516020613115833981519152604482015290519081900360640190fd5b6002600155610a7b610b50565b15610ac0576040805162461bcd60e51b815260206004820152601060248201526f14185d5cd8589b194e881c185d5cd95960821b604482015290519081900360640190fd5b6000610aca6108c4565b600254909150610aea9061010090046001600160a01b0316333086612135565b6000610af461218f565b600a5490915015610b2157610b1e82610b18600a548461226490919063ffffffff16565b906122bd565b90505b600a54610b2e9082611dc7565b600a5560018055949350505050565b6013818154811061070c57fe5b60115481565b60025460ff1690565b6008546001600160a01b03163314610ba1576040805162461bcd60e51b8152602060048083019190915260248201526310b3b7bb60e11b604482015290519081900360640190fd5b610ba9611faa565b610bb161218f565b50565b61271081565b600e5481565b6006546001600160a01b031681565b601a54600160a01b900460ff1681565b610be7612131565b6001600160a01b0316610bf8610d27565b6001600160a01b031614610c41576040805162461bcd60e51b815260206004820181905260248201526000805160206131a2833981519152604482015290519081900360640190fd5b600080546040516001600160a01b03909116907f8be0079c531659141344cd1fd0a4f28419497f9722a3daafe3b4186f6b6457e0908390a3600080546001600160a01b0319169055565b61dead81565b600c5481565b6003546001600160a01b031681565b6008546001600160a01b03163314610cee576040805162461bcd60e51b8152602060048083019190915260248201526310b3b7bb60e11b604482015290519081900360640190fd5b61084b61204a565b600b5481565b6126ac81565b6014818154811061070c57fe5b73917fb15e8aaa12264dcbdc15afef7cd3ce76ba3981565b6000546001600160a01b031690565b6103e881565b6016818154811061070c57fe5b7376bf0c28e604cc3fe9967c83b3c3f31c213cfe6481565b6008546001600160a01b03163314610da9576040805162461bcd60e51b8152602060048083019190915260248201526310b3b7bb60e11b604482015290519081900360640190fd5b6103e8610dc086610dba8a8a611dc7565b90611dc7565b1115610e04576040805162461bcd60e51b815260206004820152600e60248201526d4d617820666565206f662031302560901b604482015290519081900360640190fd5b6126ac841015610e5b576040805162461bcd60e51b815260206004820152601a60248201527f5f7769746864726177466565466163746f7220746f6f206c6f77000000000000604482015290519081900360640190fd5b612710841115610eb2576040805162461bcd60e51b815260206004820152601b60248201527f5f7769746864726177466565466163746f7220746f6f20686967680000000000604482015290519081900360640190fd5b6103e3831115610f09576040805162461bcd60e51b815260206004820152601860248201527f5f736c697070616765466163746f7220746f6f20686967680000000000000000604482015290519081900360640190fd5b600b879055600c869055600d859055600e849055600f8390556010829055600680546001600160a01b0383166001600160a01b031990911681179091556040805189815260208101899052808201889052606081018790526080810186905260a0810185905260c0810192909252517f813767a04e11dfab70a5ec48c4fd7c344ab48e62196586790931dc9dfaed97e99181900360e00190a150505050505050565b6103e381565b6017818154811061070c57fe5b60026001541415611004576040805162461bcd60e51b815260206004820152601f6024820152600080516020613115833981519152604482015290519081900360640190fd5b6002600155611011610b50565b15611056576040805162461bcd60e51b815260206004820152601060248201526f14185d5cd8589b194e881c185d5cd95960821b604482015290519081900360640190fd5b600354604080516370a0823160e01b815230600482015290516000926001600160a01b0316916370a08231916024808301926020929190829003018186803b1580156110a157600080fd5b505afa1580156110b5573d6000803e3d6000fd5b505050506040513d60208110156110cb57600080fd5b5051905080158015906110ef57506005546003546001600160a01b03908116911614155b156111595761115981601780548060200260200160405190810160405280929190818152602001828054801561114e57602002820191906000526020600020905b81546001600160a01b03168152600190910190602001808311611130575b505050505030612324565b60048054604080516370a0823160e01b81523093810193909352516000926001600160a01b03909216916370a08231916024808301926020929190829003018186803b1580156111a857600080fd5b505afa1580156111bc573d6000803e3d6000fd5b505050506040513d60208110156111d257600080fd5b5051905080158015906111f657506005546004546001600160a01b03908116911614155b1561125e5761125e81601880548060200260200160405190810160405280929190818152602001828054801561114e576020028201919060005260206000209081546001600160a01b0316815260019091019060200180831161113057505050505030612324565b505060018055565b6015818154811061070c57fe5b6008546001600160a01b031633146112bb576040805162461bcd60e51b8152602060048083019190915260248201526310b3b7bb60e11b604482015290519081900360640190fd5b600880546001600160a01b0319166001600160a01b0392909216919091179055565b60026001541415611323576040805162461bcd60e51b815260206004820152601f6024820152600080516020613115833981519152604482015290519081900360640190fd5b6002600155611330610b50565b15611375576040805162461bcd60e51b815260206004820152601060248201526f14185d5cd8589b194e881c185d5cd95960821b604482015290519081900360640190fd5b61137d612131565b6001600160a01b031661138e610d27565b6001600160a01b0316146113d7576040805162461bcd60e51b815260206004820181905260248201526000805160206131a2833981519152604482015290519081900360640190fd5b6113df6126cb565b600554604080516370a0823160e01b815230600482015290516000926001600160a01b0316916370a08231916024808301926020929190829003018186803b15801561142a57600080fd5b505afa15801561143e573d6000803e3d6000fd5b505050506040513d602081101561145457600080fd5b5051905080156117855761146781612721565b9050611472816127d6565b905061147d81612a1c565b6003546005549192506001600160a01b03918216911614611505576115056114a68260026122bd565b601580548060200260200160405190810160405280929190818152602001828054801561114e576020028201919060005260206000209081546001600160a01b0316815260019091019060200180831161113057505050505030612324565b6004546005546001600160a01b0390811691161461158a5761158a61152b8260026122bd565b601680548060200260200160405190810160405280929190818152602001828054801561114e576020028201919060005260206000209081546001600160a01b0316815260019091019060200180831161113057505050505030612324565b600354604080516370a0823160e01b815230600482015290516000926001600160a01b0316916370a08231916024808301926020929190829003018186803b1580156115d557600080fd5b505afa1580156115e9573d6000803e3d6000fd5b505050506040513d60208110156115ff57600080fd5b505160048054604080516370a0823160e01b81523093810193909352519293506000926001600160a01b03909116916370a08231916024808301926020929190829003018186803b15801561165357600080fd5b505afa158015611667573d6000803e3d6000fd5b505050506040513d602081101561167d57600080fd5b5051905081158015906116905750600081115b15611775576006546003546004546001600160a01b039283169263e8e3370092811691168585600080306116c642610258611dc7565b6040518963ffffffff1660e01b815260040180896001600160a01b03168152602001886001600160a01b03168152602001878152602001868152602001858152602001848152602001836001600160a01b0316815260200182815260200198505050505050505050606060405180830381600087803b15801561174857600080fd5b505af115801561175c573d6000803e3d6000fd5b505050506040513d606081101561177257600080fd5b50505b4360095561178161218f565b5050505b5060018055565b601a546001600160a01b031681565b6004546001600160a01b031681565b60105481565b6005546001600160a01b031681565b60025461010090046001600160a01b031681565b601c5481565b6117e1612131565b6001600160a01b03166117f2610d27565b6001600160a01b03161461183b576040805162461bcd60e51b815260206004820181905260248201526000805160206131a2833981519152604482015290519081900360640190fd5b6001600160a01b0381166118805760405162461bcd60e51b81526004018080602001828103825260268152602001806131356026913960400191505060405180910390fd5b600080546040516001600160a01b03808516939216917f8be0079c531659141344cd1fd0a4f28419497f9722a3daafe3b4186f6b6457e091a3600080546001600160a01b0319166001600160a01b0392909216919091179055565b60006118e5612131565b6001600160a01b03166118f6610d27565b6001600160a01b03161461193f576040805162461bcd60e51b815260206004820181905260248201526000805160206131a2833981519152604482015290519081900360640190fd5b60026001541415611985576040805162461bcd60e51b815260206004820152601f6024820152600080516020613115833981519152604482015290519081900360640190fd5b6002600155816119cc576040805162461bcd60e51b815260206004820152600d60248201526c05f77616e74416d74206973203609c1b604482015290519081900360640190fd5b600254604080516370a0823160e01b8152306004820152905160009261010090046001600160a01b0316916370a08231916024808301926020929190829003018186803b158015611a1c57600080fd5b505afa158015611a30573d6000803e3d6000fd5b505050506040513d6020811015611a4657600080fd5b5051905080831115611ae257611a64611a5f8483612aad565b612b0a565b600254604080516370a0823160e01b815230600482015290516101009092046001600160a01b0316916370a0823191602480820192602092909190829003018186803b158015611ab357600080fd5b505afa158015611ac7573d6000803e3d6000fd5b505050506040513d6020811015611add57600080fd5b505190505b80831115611aee578092505b611af66108c4565b831115611b0857611b056108c4565b92505b6000611b29611b156108c4565b600a54611b23908790612264565b90612b7c565b9050600a54811115611b3a5750600a545b600a54611b479082612aad565b600a819055506000611b76612710610b18611b6f600e54612710612aad90919063ffffffff16565b8890612264565b90508015611bae57600254611bae9061010090046001600160a01b0316735386881b46c37cdd30a748f7771cf95d7b21363783612bf2565b611bb88582612aad565b600754600254919650611bdd9161010090046001600160a01b03908116911687612bf2565b5060018055949350505050565b600f5481565b801580611c76575060408051636eb1769f60e11b81523060048201526001600160a01b03848116602483015291519185169163dd62ed3e91604480820192602092909190829003018186803b158015611c4857600080fd5b505afa158015611c5c573d6000803e3d6000fd5b505050506040513d6020811015611c7257600080fd5b5051155b611cb15760405162461bcd60e51b81526004018080602001828103825260368152602001806131ec6036913960400191505060405180910390fd5b604080516001600160a01b038416602482015260448082018490528251808303909101815260649091019091526020810180516001600160e01b031663095ea7b360e01b179052611d03908490612c40565b505050565b6000611d6c82856001600160a01b031663dd62ed3e30876040518363ffffffff1660e01b815260040180836001600160a01b03168152602001826001600160a01b031681526020019250505060206040518083038186803b15801561092057600080fd5b604080516001600160a01b038616602482015260448082018490528251808303909101815260649091019091526020810180516001600160e01b031663095ea7b360e01b179052909150611dc1908590612c40565b50505050565b600082820183811015611e21576040805162461bcd60e51b815260206004820152601b60248201527f536166654d6174683a206164646974696f6e206f766572666c6f770000000000604482015290519081900360640190fd5b90505b92915050565b6060611e398484600085612cf1565b90505b9392505050565b601b54600254611e66916001600160a01b03610100909204821691166000611bf0565b601b54600254611e8a916001600160a01b0361010090920482169116600019611d08565b600654600554611ea8916001600160a01b0391821691166000611bf0565b600654600554611ec7916001600160a01b039182169116600019611d08565b600654600354611ee5916001600160a01b0391821691166000611bf0565b600654600354611f04916001600160a01b039182169116600019611d08565b600654600454611f22916001600160a01b0391821691166000611bf0565b600654600454611f41916001600160a01b039182169116600019611d08565b611f75732791bca1f2de4661ed88a30c99a7a9449aa8417473917fb15e8aaa12264dcbdc15afef7cd3ce76ba396000611bf0565b61084b732791bca1f2de4661ed88a30c99a7a9449aa8417473917fb15e8aaa12264dcbdc15afef7cd3ce76ba39600019611d08565b611fb2610b50565b611ffa576040805162461bcd60e51b815260206004820152601460248201527314185d5cd8589b194e881b9bdd081c185d5cd95960621b604482015290519081900360640190fd5b6002805460ff191690557f5db9ee0a495bf2e6ff9c91a7834c1ba4fdd244a5e8aa4e537bd38aeae4b073aa61202d612131565b604080516001600160a01b039092168252519081900360200190a1565b612052610b50565b15612097576040805162461bcd60e51b815260206004820152601060248201526f14185d5cd8589b194e881c185d5cd95960821b604482015290519081900360640190fd5b6002805460ff191660011790557f62e78cea01bee320cd4e420270b5ea74000d11b0c9f74754ebdbfc544b05a25861202d612131565b601b54601c5460408051632989754760e11b81526004810192909252516001600160a01b0390921691635312ea8e9160248082019260009290919082900301818387803b15801561211d57600080fd5b505af1158015611dc1573d6000803e3d6000fd5b3390565b604080516001600160a01b0380861660248301528416604482015260648082018490528251808303909101815260849091019091526020810180516001600160e01b03166323b872dd60e01b179052611dc1908590612c40565b600080600260019054906101000a90046001600160a01b03166001600160a01b03166370a08231306040518263ffffffff1660e01b815260040180826001600160a01b0316815260200191505060206040518083038186803b1580156121f457600080fd5b505afa158015612208573d6000803e3d6000fd5b505050506040513d602081101561221e57600080fd5b50519050806122315760009150506107c3565b600061223b61073e565b905061224682612e4d565b600061225061073e565b905061225c8183612aad565b935050505090565b60008261227357506000611e24565b8282028284828161228057fe5b0414611e215760405162461bcd60e51b81526004018080602001828103825260218152602001806131816021913960400191505060405180910390fd5b6000808211612313576040805162461bcd60e51b815260206004820152601a60248201527f536166654d6174683a206469766973696f6e206279207a65726f000000000000604482015290519081900360640190fd5b81838161231c57fe5b049392505050565b6006546040805163d06ca61f60e01b815260048101868152602482019283528551604483015285516060946001600160a01b03169363d06ca61f9389938993909291606401906020808601910280838360005b8381101561238f578181015183820152602001612377565b50505050905001935050505060006040518083038186803b1580156123b357600080fd5b505afa1580156123c7573d6000803e3d6000fd5b505050506040513d6000823e601f3d908101601f1916820160405260208110156123f057600080fd5b810190808051604051939291908464010000000082111561241057600080fd5b90830190602082018581111561242557600080fd5b825186602082028301116401000000008211171561244257600080fd5b82525081516020918201928201910280838360005b8381101561246f578181015183820152602001612457565b50505050905001604052505050905060008161249660018451612aad90919063ffffffff16565b815181106124a057fe5b602002602001015190507376bf0c28e604cc3fe9967c83b3c3f31c213cfe646001600160a01b0316846124de60018751612aad90919063ffffffff16565b815181106124e857fe5b60200260200101516001600160a01b031614801561251057506001600160a01b03831661dead145b15612526576011546125229082611dc7565b6011555b600654600f546001600160a01b03909116906338ed1739908790612553906103e890610b18908790612264565b878761256142610258611dc7565b6040518663ffffffff1660e01b81526004018086815260200185815260200180602001846001600160a01b03168152602001838152602001828103825285818151815260200191508051906020019060200280838360005b838110156125d15781810151838201526020016125b9565b505050509050019650505050505050600060405180830381600087803b1580156125fa57600080fd5b505af115801561260e573d6000803e3d6000fd5b505050506040513d6000823e601f3d908101601f19168201604052602081101561263757600080fd5b810190808051604051939291908464010000000082111561265757600080fd5b90830190602082018581111561266c57600080fd5b825186602082028301116401000000008211171561268957600080fd5b82525081516020918201928201910280838360005b838110156126b657818101518382015260200161269e565b50505050905001604052505050505050505050565b601b54601c5460408051630441a3e760e41b8152600481019290925260006024830181905290516001600160a01b039093169263441a3e7092604480820193929182900301818387803b15801561211d57600080fd5b600b54600090156127d2576000612749612710610b18600b548661226490919063ffffffff16565b90506127c48160128054806020026020016040519081016040528092919081815260200182805480156127a557602002820191906000526020600020905b81546001600160a01b03168152600190910190602001808311612787575b5050505050735386881b46c37cdd30a748f7771cf95d7b213637612ea4565b6127ce8382612aad565b9250505b5090565b600c54600090156127d25760006127fe612710610b18600c548661226490919063ffffffff16565b604080516370a0823160e01b81523060048201529051919250600091732791bca1f2de4661ed88a30c99a7a9449aa84174916370a08231916024808301926020929190829003018186803b15801561285557600080fd5b505afa158015612869573d6000803e3d6000fd5b505050506040513d602081101561287f57600080fd5b505160138054604080516020838102820181019092528281529394506128e79386939092909183018282801561114e576020028201919060005260206000209081546001600160a01b0316815260019091019060200180831161113057505050505030612324565b600061298082732791bca1f2de4661ed88a30c99a7a9449aa841746001600160a01b03166370a08231306040518263ffffffff1660e01b815260040180826001600160a01b0316815260200191505060206040518083038186803b15801561294e57600080fd5b505afa158015612962573d6000803e3d6000fd5b505050506040513d602081101561297857600080fd5b505190612aad565b905073917fb15e8aaa12264dcbdc15afef7cd3ce76ba396001600160a01b0316631e2720ff826040518263ffffffff1660e01b815260040180828152602001915050602060405180830381600087803b1580156129dc57600080fd5b505af11580156129f0573d6000803e3d6000fd5b505050506040513d6020811015612a0657600080fd5b50612a1390508584612aad565b95945050505050565b600d54600090156127d2576000612a44612710610b18600d548661226490919063ffffffff16565b90506127c4816014805480602002602001604051908101604052809291908181526020018280548015612aa057602002820191906000526020600020905b81546001600160a01b03168152600190910190602001808311612a82575b505050505061dead612324565b600082821115612b04576040805162461bcd60e51b815260206004820152601e60248201527f536166654d6174683a207375627472616374696f6e206f766572666c6f770000604482015290519081900360640190fd5b50900390565b601b54601c5460408051630441a3e760e41b8152600481019290925260248201849052516001600160a01b039092169163441a3e709160448082019260009290919082900301818387803b158015612b6157600080fd5b505af1158015612b75573d6000803e3d6000fd5b5050505050565b6000808211612bc4576040805162461bcd60e51b815260206004820152600f60248201526e6365696c446976206279207a65726f60881b604482015290519081900360640190fd5b818381612bcd57fe5b0615612bda576001612bdd565b60005b60ff16828481612be957fe5b04019392505050565b604080516001600160a01b038416602482015260448082018490528251808303909101815260649091019091526020810180516001600160e01b031663a9059cbb60e01b179052611d039084905b6060612c95826040518060400160405280602081526020017f5361666545524332303a206c6f772d6c6576656c2063616c6c206661696c6564815250856001600160a01b0316611e2a9092919063ffffffff16565b805190915015611d0357808060200190516020811015612cb457600080fd5b5051611d035760405162461bcd60e51b815260040180806020018281038252602a8152602001806131c2602a913960400191505060405180910390fd5b606082471015612d325760405162461bcd60e51b815260040180806020018281038252602681526020018061315b6026913960400191505060405180910390fd5b612d3b8561306a565b612d8c576040805162461bcd60e51b815260206004820152601d60248201527f416464726573733a2063616c6c20746f206e6f6e2d636f6e7472616374000000604482015290519081900360640190fd5b60006060866001600160a01b031685876040518082805190602001908083835b60208310612dcb5780518252601f199092019160209182019101612dac565b6001836020036101000a03801982511681845116808217855250505050505090500191505060006040518083038185875af1925050503d8060008114612e2d576040519150601f19603f3d011682016040523d82523d6000602084013e612e32565b606091505b5091509150612e42828286613070565b979650505050505050565b601b54601c5460408051631c57762b60e31b8152600481019290925260248201849052516001600160a01b039092169163e2bbb1589160448082019260009290919082900301818387803b158015612b6157600080fd5b6006546040805163d06ca61f60e01b815260048101868152602482019283528551604483015285516060946001600160a01b03169363d06ca61f9389938993909291606401906020808601910280838360005b83811015612f0f578181015183820152602001612ef7565b50505050905001935050505060006040518083038186803b158015612f3357600080fd5b505afa158015612f47573d6000803e3d6000fd5b505050506040513d6000823e601f3d908101601f191682016040526020811015612f7057600080fd5b8101908080516040519392919084640100000000821115612f9057600080fd5b908301906020820185811115612fa557600080fd5b8251866020820283011164010000000082111715612fc257600080fd5b82525081516020918201928201910280838360005b83811015612fef578181015183820152602001612fd7565b50505050905001604052505050905060008161301660018451612aad90919063ffffffff16565b8151811061302057fe5b60200260200101519050600660009054906101000a90046001600160a01b03166001600160a01b03166318cbafe5866125536103e8610b18600f548761226490919063ffffffff16565b3b151590565b6060831561307f575081611e3c565b82511561308f5782518084602001fd5b8160405162461bcd60e51b81526004018080602001828103825283818151815260200191508051906020019080838360005b838110156130d95781810151838201526020016130c1565b50505050905090810190601f1680156131065780820380516001836020036101000a031916815260200191505b509250505060405180910390fdfe5265656e7472616e637947756172643a207265656e7472616e742063616c6c004f776e61626c653a206e6577206f776e657220697320746865207a65726f2061646472657373416464726573733a20696e73756666696369656e742062616c616e636520666f722063616c6c536166654d6174683a206d756c7469706c69636174696f6e206f766572666c6f774f776e61626c653a2063616c6c6572206973206e6f7420746865206f776e65725361666545524332303a204552433230206f7065726174696f6e20646964206e6f7420737563636565645361666545524332303a20617070726f76652066726f6d206e6f6e2d7a65726f20746f206e6f6e2d7a65726f20616c6c6f77616e6365a264697066735822122019ffa4de2bcd86796b2fdbb24b5f3323d92b1eaf05fce414e7450e423cb2961464736f6c634300060c00334f776e61626c653a206e6577206f776e657220697320746865207a65726f2061646472657373416464726573733a20696e73756666696369656e742062616c616e636520666f722063616c6c8be0079c531659141344cd1fd0a4f28419497f9722a3daafe3b4186f6b6457e05361666545524332303a204552433230206f7065726174696f6e20646964206e6f7420737563636565645361666545524332303a20617070726f76652066726f6d206e6f6e2d7a65726f20746f206e6f6e2d7a65726f20616c6c6f77616e6365",
			"opcodes": "PUSH1 0x80 PUSH1 0x40 MSTORE NUMBER PUSH1 0x9 SSTORE PUSH1 0x0 PUSH1 0xA SSTORE PUSH1 0x32 PUSH1 0xB SSTORE PUSH1 0x0 PUSH1 0xC SSTORE PUSH2 0x1C2 PUSH1 0xD SSTORE PUSH2 0x2706 PUSH1 0xE SSTORE PUSH2 0x3B6 PUSH1 0xF SSTORE CALLVALUE DUP1 ISZERO PUSH3 0x36 JUMPI PUSH1 0x0 DUP1 REVERT JUMPDEST POP PUSH1 0x40 MLOAD PUSH3 0x4236 CODESIZE SUB DUP1 PUSH3 0x4236 DUP4 CODECOPY DUP2 DUP2 ADD PUSH1 0x40 MSTORE PUSH2 0x160 DUP2 LT ISZERO PUSH3 0x5D JUMPI PUSH1 0x0 DUP1 REVERT JUMPDEST DUP2 MLOAD PUSH1 0x20 DUP4 ADD MLOAD PUSH1 0x40 DUP1 DUP6 ADD MLOAD PUSH1 0x60 DUP7 ADD MLOAD PUSH1 0x80 DUP8 ADD MLOAD PUSH1 0xA0 DUP9 ADD MLOAD PUSH1 0xC0 DUP10 ADD MLOAD PUSH1 0xE0 DUP11 ADD DUP1 MLOAD SWAP7 MLOAD SWAP9 SWAP11 SWAP8 SWAP10 SWAP6 SWAP9 SWAP5 SWAP8 SWAP4 SWAP7 SWAP3 SWAP6 SWAP2 SWAP5 SWAP4 SWAP2 DUP3 ADD SWAP3 DUP5 PUSH5 0x100000000 DUP3 GT ISZERO PUSH3 0xAD JUMPI PUSH1 0x0 DUP1 REVERT JUMPDEST SWAP1 DUP4 ADD SWAP1 PUSH1 0x20 DUP3 ADD DUP6 DUP2 GT ISZERO PUSH3 0xC3 JUMPI PUSH1 0x0 DUP1 REVERT JUMPDEST DUP3 MLOAD DUP7 PUSH1 0x20 DUP3 MUL DUP4 ADD GT PUSH5 0x100000000 DUP3 GT OR ISZERO PUSH3 0xE1 JUMPI PUSH1 0x0 DUP1 REVERT JUMPDEST DUP3 MSTORE POP DUP2 MLOAD PUSH1 0x20 SWAP2 DUP3 ADD SWAP3 DUP3 ADD SWAP2 MUL DUP1 DUP4 DUP4 PUSH1 0x0 JUMPDEST DUP4 DUP2 LT ISZERO PUSH3 0x110 JUMPI DUP2 DUP2 ADD MLOAD DUP4 DUP3 ADD MSTORE PUSH1 0x20 ADD PUSH3 0xF6 JUMP JUMPDEST POP POP POP POP SWAP1 POP ADD PUSH1 0x40 MSTORE PUSH1 0x20 ADD DUP1 MLOAD PUSH1 0x40 MLOAD SWAP4 SWAP3 SWAP2 SWAP1 DUP5 PUSH5 0x100000000 DUP3 GT ISZERO PUSH3 0x13A JUMPI PUSH1 0x0 DUP1 REVERT JUMPDEST SWAP1 DUP4 ADD SWAP1 PUSH1 0x20 DUP3 ADD DUP6 DUP2 GT ISZERO PUSH3 0x150 JUMPI PUSH1 0x0 DUP1 REVERT JUMPDEST DUP3 MLOAD DUP7 PUSH1 0x20 DUP3 MUL DUP4 ADD GT PUSH5 0x100000000 DUP3 GT OR ISZERO PUSH3 0x16E JUMPI PUSH1 0x0 DUP1 REVERT JUMPDEST DUP3 MSTORE POP DUP2 MLOAD PUSH1 0x20 SWAP2 DUP3 ADD SWAP3 DUP3 ADD SWAP2 MUL DUP1 DUP4 DUP4 PUSH1 0x0 JUMPDEST DUP4 DUP2 LT ISZERO PUSH3 0x19D JUMPI DUP2 DUP2 ADD MLOAD DUP4 DUP3 ADD MSTORE PUSH1 0x20 ADD PUSH3 0x183 JUMP JUMPDEST POP POP POP POP SWAP1 POP ADD PUSH1 0x40 MSTORE PUSH1 0x20 ADD DUP1 MLOAD PUSH1 0x40 MLOAD SWAP4 SWAP3 SWAP2 SWAP1 DUP5 PUSH5 0x100000000 DUP3 GT ISZERO PUSH3 0x1C7 JUMPI PUSH1 0x0 DUP1 REVERT JUMPDEST SWAP1 DUP4 ADD SWAP1 PUSH1 0x20 DUP3 ADD DUP6 DUP2 GT ISZERO PUSH3 0x1DD JUMPI PUSH1 0x0 DUP1 REVERT JUMPDEST DUP3 MLOAD DUP7 PUSH1 0x20 DUP3 MUL DUP4 ADD GT PUSH5 0x100000000 DUP3 GT OR ISZERO PUSH3 0x1FB JUMPI PUSH1 0x0 DUP1 REVERT JUMPDEST DUP3 MSTORE POP DUP2 MLOAD PUSH1 0x20 SWAP2 DUP3 ADD SWAP3 DUP3 ADD SWAP2 MUL DUP1 DUP4 DUP4 PUSH1 0x0 JUMPDEST DUP4 DUP2 LT ISZERO PUSH3 0x22A JUMPI DUP2 DUP2 ADD MLOAD DUP4 DUP3 ADD MSTORE PUSH1 0x20 ADD PUSH3 0x210 JUMP JUMPDEST POP POP POP POP SWAP1 POP ADD PUSH1 0x40 MSTORE PUSH1 0x20 ADD DUP1 MLOAD PUSH1 0x40 MLOAD SWAP4 SWAP3 SWAP2 SWAP1 DUP5 PUSH5 0x100000000 DUP3 GT ISZERO PUSH3 0x254 JUMPI PUSH1 0x0 DUP1 REVERT JUMPDEST SWAP1 DUP4 ADD SWAP1 PUSH1 0x20 DUP3 ADD DUP6 DUP2 GT ISZERO PUSH3 0x26A JUMPI PUSH1 0x0 DUP1 REVERT JUMPDEST DUP3 MLOAD DUP7 PUSH1 0x20 DUP3 MUL DUP4 ADD GT PUSH5 0x100000000 DUP3 GT OR ISZERO PUSH3 0x288 JUMPI PUSH1 0x0 DUP1 REVERT JUMPDEST DUP3 MSTORE POP DUP2 MLOAD PUSH1 0x20 SWAP2 DUP3 ADD SWAP3 DUP3 ADD SWAP2 MUL DUP1 DUP4 DUP4 PUSH1 0x0 JUMPDEST DUP4 DUP2 LT ISZERO PUSH3 0x2B7 JUMPI DUP2 DUP2 ADD MLOAD DUP4 DUP3 ADD MSTORE PUSH1 0x20 ADD PUSH3 0x29D JUMP JUMPDEST POP POP POP POP SWAP1 POP ADD PUSH1 0x40 MSTORE POP POP POP PUSH1 0x0 PUSH3 0x2D6 PUSH3 0x5EA PUSH1 0x20 SHL PUSH1 0x20 SHR JUMP JUMPDEST PUSH1 0x0 DUP1 SLOAD PUSH1 0x1 PUSH1 0x1 PUSH1 0xA0 SHL SUB NOT AND PUSH1 0x1 PUSH1 0x1 PUSH1 0xA0 SHL SUB DUP4 AND SWAP1 DUP2 OR DUP3 SSTORE PUSH1 0x40 MLOAD SWAP3 SWAP4 POP SWAP2 PUSH1 0x0 DUP1 MLOAD PUSH1 0x20 PUSH3 0x41B6 DUP4 CODECOPY DUP2 MLOAD SWAP2 MSTORE SWAP1 DUP3 SWAP1 LOG3 POP PUSH1 0x1 DUP1 DUP2 SWAP1 SSTORE POP PUSH1 0x0 PUSH1 0x2 PUSH1 0x0 PUSH2 0x100 EXP DUP2 SLOAD DUP2 PUSH1 0xFF MUL NOT AND SWAP1 DUP4 ISZERO ISZERO MUL OR SWAP1 SSTORE POP CALLER PUSH1 0x8 PUSH1 0x0 PUSH2 0x100 EXP DUP2 SLOAD DUP2 PUSH1 0x1 PUSH1 0x1 PUSH1 0xA0 SHL SUB MUL NOT AND SWAP1 DUP4 PUSH1 0x1 PUSH1 0x1 PUSH1 0xA0 SHL SUB AND MUL OR SWAP1 SSTORE POP DUP11 PUSH1 0x7 PUSH1 0x0 PUSH2 0x100 EXP DUP2 SLOAD DUP2 PUSH1 0x1 PUSH1 0x1 PUSH1 0xA0 SHL SUB MUL NOT AND SWAP1 DUP4 PUSH1 0x1 PUSH1 0x1 PUSH1 0xA0 SHL SUB AND MUL OR SWAP1 SSTORE POP DUP10 PUSH1 0x1B PUSH1 0x0 PUSH2 0x100 EXP DUP2 SLOAD DUP2 PUSH1 0x1 PUSH1 0x1 PUSH1 0xA0 SHL SUB MUL NOT AND SWAP1 DUP4 PUSH1 0x1 PUSH1 0x1 PUSH1 0xA0 SHL SUB AND MUL OR SWAP1 SSTORE POP DUP9 PUSH1 0x6 PUSH1 0x0 PUSH2 0x100 EXP DUP2 SLOAD DUP2 PUSH1 0x1 PUSH1 0x1 PUSH1 0xA0 SHL SUB MUL NOT AND SWAP1 DUP4 PUSH1 0x1 PUSH1 0x1 PUSH1 0xA0 SHL SUB AND MUL OR SWAP1 SSTORE POP DUP7 PUSH1 0x2 PUSH1 0x1 PUSH2 0x100 EXP DUP2 SLOAD DUP2 PUSH1 0x1 PUSH1 0x1 PUSH1 0xA0 SHL SUB MUL NOT AND SWAP1 DUP4 PUSH1 0x1 PUSH1 0x1 PUSH1 0xA0 SHL SUB AND MUL OR SWAP1 SSTORE POP PUSH1 0x2 PUSH1 0x1 SWAP1 SLOAD SWAP1 PUSH2 0x100 EXP SWAP1 DIV PUSH1 0x1 PUSH1 0x1 PUSH1 0xA0 SHL SUB AND PUSH1 0x1 PUSH1 0x1 PUSH1 0xA0 SHL SUB AND PUSH4 0xDFE1681 PUSH1 0x40 MLOAD DUP2 PUSH4 0xFFFFFFFF AND PUSH1 0xE0 SHL DUP2 MSTORE PUSH1 0x4 ADD PUSH1 0x20 PUSH1 0x40 MLOAD DUP1 DUP4 SUB DUP2 DUP7 DUP1 EXTCODESIZE ISZERO DUP1 ISZERO PUSH3 0x443 JUMPI PUSH1 0x0 DUP1 REVERT JUMPDEST POP GAS STATICCALL SWAP3 POP POP POP DUP1 ISZERO PUSH3 0x46A JUMPI POP PUSH1 0x40 MLOAD RETURNDATASIZE PUSH1 0x20 DUP2 LT ISZERO PUSH3 0x465 JUMPI PUSH1 0x0 DUP1 REVERT JUMPDEST POP MLOAD PUSH1 0x1 JUMPDEST PUSH3 0x475 JUMPI PUSH3 0x527 JUMP JUMPDEST PUSH1 0x3 DUP1 SLOAD PUSH1 0x1 PUSH1 0x1 PUSH1 0xA0 SHL SUB NOT AND PUSH1 0x1 PUSH1 0x1 PUSH1 0xA0 SHL SUB DUP4 DUP2 AND SWAP2 SWAP1 SWAP2 OR SWAP1 SWAP2 SSTORE PUSH1 0x2 SLOAD PUSH1 0x40 DUP1 MLOAD PUSH4 0xD21220A7 PUSH1 0xE0 SHL DUP2 MSTORE SWAP1 MLOAD PUSH2 0x100 SWAP1 SWAP3 DIV SWAP1 SWAP3 AND SWAP2 PUSH4 0xD21220A7 SWAP2 PUSH1 0x4 DUP1 DUP4 ADD SWAP3 PUSH1 0x20 SWAP3 SWAP2 SWAP1 DUP3 SWAP1 SUB ADD DUP2 DUP7 DUP1 EXTCODESIZE ISZERO DUP1 ISZERO PUSH3 0x4D8 JUMPI PUSH1 0x0 DUP1 REVERT JUMPDEST POP GAS STATICCALL ISZERO DUP1 ISZERO PUSH3 0x4ED JUMPI RETURNDATASIZE PUSH1 0x0 DUP1 RETURNDATACOPY RETURNDATASIZE PUSH1 0x0 REVERT JUMPDEST POP POP POP POP PUSH1 0x40 MLOAD RETURNDATASIZE PUSH1 0x20 DUP2 LT ISZERO PUSH3 0x504 JUMPI PUSH1 0x0 DUP1 REVERT JUMPDEST POP MLOAD PUSH1 0x4 DUP1 SLOAD PUSH1 0x1 PUSH1 0x1 PUSH1 0xA0 SHL SUB NOT AND PUSH1 0x1 PUSH1 0x1 PUSH1 0xA0 SHL SUB SWAP1 SWAP3 AND SWAP2 SWAP1 SWAP2 OR SWAP1 SSTORE POP JUMPDEST PUSH1 0x1C DUP9 SWAP1 SSTORE PUSH1 0x5 DUP1 SLOAD PUSH1 0x1 PUSH1 0x1 PUSH1 0xA0 SHL SUB NOT AND PUSH1 0x1 PUSH1 0x1 PUSH1 0xA0 SHL SUB DUP9 AND OR SWAP1 SSTORE PUSH1 0x10 DUP6 SWAP1 SSTORE DUP4 MLOAD PUSH3 0x561 SWAP1 PUSH1 0x12 SWAP1 PUSH1 0x20 DUP8 ADD SWAP1 PUSH3 0xE78 JUMP JUMPDEST POP DUP3 MLOAD PUSH3 0x577 SWAP1 PUSH1 0x13 SWAP1 PUSH1 0x20 DUP7 ADD SWAP1 PUSH3 0xE78 JUMP JUMPDEST POP DUP2 MLOAD PUSH3 0x58D SWAP1 PUSH1 0x14 SWAP1 PUSH1 0x20 DUP6 ADD SWAP1 PUSH3 0xE78 JUMP JUMPDEST POP DUP1 MLOAD PUSH3 0x5A3 SWAP1 PUSH1 0x19 SWAP1 PUSH1 0x20 DUP5 ADD SWAP1 PUSH3 0xE78 JUMP JUMPDEST POP PUSH1 0x7 SLOAD PUSH3 0x5BB SWAP1 PUSH1 0x1 PUSH1 0x1 PUSH1 0xA0 SHL SUB AND PUSH3 0x5EE JUMP JUMPDEST PUSH3 0x5C5 PUSH3 0x6F8 JUMP JUMPDEST POP POP PUSH1 0x1A DUP1 SLOAD PUSH1 0xFF PUSH1 0xA0 SHL NOT AND PUSH1 0x1 PUSH1 0xA0 SHL OR SWAP1 SSTORE POP PUSH3 0xF03 SWAP8 POP POP POP POP POP POP POP POP JUMP JUMPDEST CALLER SWAP1 JUMP JUMPDEST PUSH3 0x5F8 PUSH3 0x5EA JUMP JUMPDEST PUSH1 0x1 PUSH1 0x1 PUSH1 0xA0 SHL SUB AND PUSH3 0x60B PUSH3 0x8ED JUMP JUMPDEST PUSH1 0x1 PUSH1 0x1 PUSH1 0xA0 SHL SUB AND EQ PUSH3 0x667 JUMPI PUSH1 0x40 DUP1 MLOAD PUSH3 0x461BCD PUSH1 0xE5 SHL DUP2 MSTORE PUSH1 0x20 PUSH1 0x4 DUP3 ADD DUP2 SWAP1 MSTORE PUSH1 0x24 DUP3 ADD MSTORE PUSH32 0x4F776E61626C653A2063616C6C6572206973206E6F7420746865206F776E6572 PUSH1 0x44 DUP3 ADD MSTORE SWAP1 MLOAD SWAP1 DUP2 SWAP1 SUB PUSH1 0x64 ADD SWAP1 REVERT JUMPDEST PUSH1 0x1 PUSH1 0x1 PUSH1 0xA0 SHL SUB DUP2 AND PUSH3 0x6AE JUMPI PUSH1 0x40 MLOAD PUSH3 0x461BCD PUSH1 0xE5 SHL DUP2 MSTORE PUSH1 0x4 ADD DUP1 DUP1 PUSH1 0x20 ADD DUP3 DUP2 SUB DUP3 MSTORE PUSH1 0x26 DUP2 MSTORE PUSH1 0x20 ADD DUP1 PUSH3 0x416A PUSH1 0x26 SWAP2 CODECOPY PUSH1 0x40 ADD SWAP2 POP POP PUSH1 0x40 MLOAD DUP1 SWAP2 SUB SWAP1 REVERT JUMPDEST PUSH1 0x0 DUP1 SLOAD PUSH1 0x40 MLOAD PUSH1 0x1 PUSH1 0x1 PUSH1 0xA0 SHL SUB DUP1 DUP6 AND SWAP4 SWAP3 AND SWAP2 PUSH1 0x0 DUP1 MLOAD PUSH1 0x20 PUSH3 0x41B6 DUP4 CODECOPY DUP2 MLOAD SWAP2 MSTORE SWAP2 LOG3 PUSH1 0x0 DUP1 SLOAD PUSH1 0x1 PUSH1 0x1 PUSH1 0xA0 SHL SUB NOT AND PUSH1 0x1 PUSH1 0x1 PUSH1 0xA0 SHL SUB SWAP3 SWAP1 SWAP3 AND SWAP2 SWAP1 SWAP2 OR SWAP1 SSTORE JUMP JUMPDEST PUSH1 0x1B SLOAD PUSH1 0x2 SLOAD PUSH3 0x729 SWAP2 PUSH1 0x1 PUSH1 0x1 PUSH1 0xA0 SHL SUB PUSH2 0x100 SWAP1 SWAP3 DIV DUP3 AND SWAP2 AND PUSH1 0x0 PUSH3 0x8FC PUSH1 0x20 SWAP1 DUP2 SHL PUSH3 0x1BF0 OR SWAP1 SHR JUMP JUMPDEST PUSH1 0x1B SLOAD PUSH1 0x2 SLOAD PUSH3 0x75B SWAP2 PUSH1 0x1 PUSH1 0x1 PUSH1 0xA0 SHL SUB PUSH2 0x100 SWAP1 SWAP3 DIV DUP3 AND SWAP2 AND PUSH1 0x0 NOT PUSH3 0xA20 PUSH1 0x20 SWAP1 DUP2 SHL PUSH3 0x1D08 OR SWAP1 SHR JUMP JUMPDEST PUSH1 0x6 SLOAD PUSH1 0x5 SLOAD PUSH3 0x787 SWAP2 PUSH1 0x1 PUSH1 0x1 PUSH1 0xA0 SHL SUB SWAP2 DUP3 AND SWAP2 AND PUSH1 0x0 PUSH3 0x8FC PUSH1 0x20 SWAP1 DUP2 SHL PUSH3 0x1BF0 OR SWAP1 SHR JUMP JUMPDEST PUSH1 0x6 SLOAD PUSH1 0x5 SLOAD PUSH3 0x7B4 SWAP2 PUSH1 0x1 PUSH1 0x1 PUSH1 0xA0 SHL SUB SWAP2 DUP3 AND SWAP2 AND PUSH1 0x0 NOT PUSH3 0xA20 PUSH1 0x20 SWAP1 DUP2 SHL PUSH3 0x1D08 OR SWAP1 SHR JUMP JUMPDEST PUSH1 0x6 SLOAD PUSH1 0x3 SLOAD PUSH3 0x7E0 SWAP2 PUSH1 0x1 PUSH1 0x1 PUSH1 0xA0 SHL SUB SWAP2 DUP3 AND SWAP2 AND PUSH1 0x0 PUSH3 0x8FC PUSH1 0x20 SWAP1 DUP2 SHL PUSH3 0x1BF0 OR SWAP1 SHR JUMP JUMPDEST PUSH1 0x6 SLOAD PUSH1 0x3 SLOAD PUSH3 0x80D SWAP2 PUSH1 0x1 PUSH1 0x1 PUSH1 0xA0 SHL SUB SWAP2 DUP3 AND SWAP2 AND PUSH1 0x0 NOT PUSH3 0xA20 PUSH1 0x20 SWAP1 DUP2 SHL PUSH3 0x1D08 OR SWAP1 SHR JUMP JUMPDEST PUSH1 0x6 SLOAD PUSH1 0x4 SLOAD PUSH3 0x839 SWAP2 PUSH1 0x1 PUSH1 0x1 PUSH1 0xA0 SHL SUB SWAP2 DUP3 AND SWAP2 AND PUSH1 0x0 PUSH3 0x8FC PUSH1 0x20 SWAP1 DUP2 SHL PUSH3 0x1BF0 OR SWAP1 SHR JUMP JUMPDEST PUSH1 0x6 SLOAD PUSH1 0x4 SLOAD PUSH3 0x866 SWAP2 PUSH1 0x1 PUSH1 0x1 PUSH1 0xA0 SHL SUB SWAP2 DUP3 AND SWAP2 AND PUSH1 0x0 NOT PUSH3 0xA20 PUSH1 0x20 SWAP1 DUP2 SHL PUSH3 0x1D08 OR SWAP1 SHR JUMP JUMPDEST PUSH3 0x8A8 PUSH20 0x2791BCA1F2DE4661ED88A30C99A7A9449AA84174 PUSH20 0x917FB15E8AAA12264DCBDC15AFEF7CD3CE76BA39 PUSH1 0x0 PUSH3 0x8FC PUSH1 0x20 SWAP1 DUP2 SHL PUSH3 0x1BF0 OR SWAP1 SHR JUMP JUMPDEST PUSH3 0x8EB PUSH20 0x2791BCA1F2DE4661ED88A30C99A7A9449AA84174 PUSH20 0x917FB15E8AAA12264DCBDC15AFEF7CD3CE76BA39 PUSH1 0x0 NOT PUSH3 0xA20 PUSH1 0x20 SWAP1 DUP2 SHL PUSH3 0x1D08 OR SWAP1 SHR JUMP JUMPDEST JUMP JUMPDEST PUSH1 0x0 SLOAD PUSH1 0x1 PUSH1 0x1 PUSH1 0xA0 SHL SUB AND SWAP1 JUMP JUMPDEST DUP1 ISZERO DUP1 PUSH3 0x986 JUMPI POP PUSH1 0x40 DUP1 MLOAD PUSH4 0x6EB1769F PUSH1 0xE1 SHL DUP2 MSTORE ADDRESS PUSH1 0x4 DUP3 ADD MSTORE PUSH1 0x1 PUSH1 0x1 PUSH1 0xA0 SHL SUB DUP5 DUP2 AND PUSH1 0x24 DUP4 ADD MSTORE SWAP2 MLOAD SWAP2 DUP6 AND SWAP2 PUSH4 0xDD62ED3E SWAP2 PUSH1 0x44 DUP1 DUP3 ADD SWAP3 PUSH1 0x20 SWAP3 SWAP1 SWAP2 SWAP1 DUP3 SWAP1 SUB ADD DUP2 DUP7 DUP1 EXTCODESIZE ISZERO DUP1 ISZERO PUSH3 0x956 JUMPI PUSH1 0x0 DUP1 REVERT JUMPDEST POP GAS STATICCALL ISZERO DUP1 ISZERO PUSH3 0x96B JUMPI RETURNDATASIZE PUSH1 0x0 DUP1 RETURNDATACOPY RETURNDATASIZE PUSH1 0x0 REVERT JUMPDEST POP POP POP POP PUSH1 0x40 MLOAD RETURNDATASIZE PUSH1 0x20 DUP2 LT ISZERO PUSH3 0x982 JUMPI PUSH1 0x0 DUP1 REVERT JUMPDEST POP MLOAD ISZERO JUMPDEST PUSH3 0x9C3 JUMPI PUSH1 0x40 MLOAD PUSH3 0x461BCD PUSH1 0xE5 SHL DUP2 MSTORE PUSH1 0x4 ADD DUP1 DUP1 PUSH1 0x20 ADD DUP3 DUP2 SUB DUP3 MSTORE PUSH1 0x36 DUP2 MSTORE PUSH1 0x20 ADD DUP1 PUSH3 0x4200 PUSH1 0x36 SWAP2 CODECOPY PUSH1 0x40 ADD SWAP2 POP POP PUSH1 0x40 MLOAD DUP1 SWAP2 SUB SWAP1 REVERT JUMPDEST PUSH1 0x40 DUP1 MLOAD PUSH1 0x1 PUSH1 0x1 PUSH1 0xA0 SHL SUB DUP5 AND PUSH1 0x24 DUP3 ADD MSTORE PUSH1 0x44 DUP1 DUP3 ADD DUP5 SWAP1 MSTORE DUP3 MLOAD DUP1 DUP4 SUB SWAP1 SWAP2 ADD DUP2 MSTORE PUSH1 0x64 SWAP1 SWAP2 ADD SWAP1 SWAP2 MSTORE PUSH1 0x20 DUP2 ADD DUP1 MLOAD PUSH1 0x1 PUSH1 0x1 PUSH1 0xE0 SHL SUB SWAP1 DUP2 AND PUSH4 0x95EA7B3 PUSH1 0xE0 SHL OR SWAP1 SWAP2 MSTORE PUSH3 0xA1B SWAP2 DUP6 SWAP2 PUSH3 0xB29 AND JUMP JUMPDEST POP POP POP JUMP JUMPDEST PUSH1 0x0 PUSH3 0xAC7 DUP3 DUP6 PUSH1 0x1 PUSH1 0x1 PUSH1 0xA0 SHL SUB AND PUSH4 0xDD62ED3E ADDRESS DUP8 PUSH1 0x40 MLOAD DUP4 PUSH4 0xFFFFFFFF AND PUSH1 0xE0 SHL DUP2 MSTORE PUSH1 0x4 ADD DUP1 DUP4 PUSH1 0x1 PUSH1 0x1 PUSH1 0xA0 SHL SUB AND DUP2 MSTORE PUSH1 0x20 ADD DUP3 PUSH1 0x1 PUSH1 0x1 PUSH1 0xA0 SHL SUB AND DUP2 MSTORE PUSH1 0x20 ADD SWAP3 POP POP POP PUSH1 0x20 PUSH1 0x40 MLOAD DUP1 DUP4 SUB DUP2 DUP7 DUP1 EXTCODESIZE ISZERO DUP1 ISZERO PUSH3 0xA86 JUMPI PUSH1 0x0 DUP1 REVERT JUMPDEST POP GAS STATICCALL ISZERO DUP1 ISZERO PUSH3 0xA9B JUMPI RETURNDATASIZE PUSH1 0x0 DUP1 RETURNDATACOPY RETURNDATASIZE PUSH1 0x0 REVERT JUMPDEST POP POP POP POP PUSH1 0x40 MLOAD RETURNDATASIZE PUSH1 0x20 DUP2 LT ISZERO PUSH3 0xAB2 JUMPI PUSH1 0x0 DUP1 REVERT JUMPDEST POP MLOAD SWAP1 PUSH3 0xBE5 PUSH1 0x20 SWAP1 DUP2 SHL PUSH3 0x1DC7 OR SWAP1 SHR JUMP JUMPDEST PUSH1 0x40 DUP1 MLOAD PUSH1 0x1 PUSH1 0x1 PUSH1 0xA0 SHL SUB DUP7 AND PUSH1 0x24 DUP3 ADD MSTORE PUSH1 0x44 DUP1 DUP3 ADD DUP5 SWAP1 MSTORE DUP3 MLOAD DUP1 DUP4 SUB SWAP1 SWAP2 ADD DUP2 MSTORE PUSH1 0x64 SWAP1 SWAP2 ADD SWAP1 SWAP2 MSTORE PUSH1 0x20 DUP2 ADD DUP1 MLOAD PUSH1 0x1 PUSH1 0x1 PUSH1 0xE0 SHL SUB SWAP1 DUP2 AND PUSH4 0x95EA7B3 PUSH1 0xE0 SHL OR SWAP1 SWAP2 MSTORE SWAP2 SWAP3 POP PUSH3 0xB23 SWAP2 DUP7 SWAP2 SWAP1 PUSH3 0xB29 AND JUMP JUMPDEST POP POP POP POP JUMP JUMPDEST PUSH1 0x60 PUSH3 0xB85 DUP3 PUSH1 0x40 MLOAD DUP1 PUSH1 0x40 ADD PUSH1 0x40 MSTORE DUP1 PUSH1 0x20 DUP2 MSTORE PUSH1 0x20 ADD PUSH32 0x5361666545524332303A206C6F772D6C6576656C2063616C6C206661696C6564 DUP2 MSTORE POP DUP6 PUSH1 0x1 PUSH1 0x1 PUSH1 0xA0 SHL SUB AND PUSH3 0xC47 PUSH1 0x20 SHL PUSH3 0x1E2A OR SWAP1 SWAP3 SWAP2 SWAP1 PUSH1 0x20 SHR JUMP JUMPDEST DUP1 MLOAD SWAP1 SWAP2 POP ISZERO PUSH3 0xA1B JUMPI DUP1 DUP1 PUSH1 0x20 ADD SWAP1 MLOAD PUSH1 0x20 DUP2 LT ISZERO PUSH3 0xBA6 JUMPI PUSH1 0x0 DUP1 REVERT JUMPDEST POP MLOAD PUSH3 0xA1B JUMPI PUSH1 0x40 MLOAD PUSH3 0x461BCD PUSH1 0xE5 SHL DUP2 MSTORE PUSH1 0x4 ADD DUP1 DUP1 PUSH1 0x20 ADD DUP3 DUP2 SUB DUP3 MSTORE PUSH1 0x2A DUP2 MSTORE PUSH1 0x20 ADD DUP1 PUSH3 0x41D6 PUSH1 0x2A SWAP2 CODECOPY PUSH1 0x40 ADD SWAP2 POP POP PUSH1 0x40 MLOAD DUP1 SWAP2 SUB SWAP1 REVERT JUMPDEST PUSH1 0x0 DUP3 DUP3 ADD DUP4 DUP2 LT ISZERO PUSH3 0xC40 JUMPI PUSH1 0x40 DUP1 MLOAD PUSH3 0x461BCD PUSH1 0xE5 SHL DUP2 MSTORE PUSH1 0x20 PUSH1 0x4 DUP3 ADD MSTORE PUSH1 0x1B PUSH1 0x24 DUP3 ADD MSTORE PUSH32 0x536166654D6174683A206164646974696F6E206F766572666C6F770000000000 PUSH1 0x44 DUP3 ADD MSTORE SWAP1 MLOAD SWAP1 DUP2 SWAP1 SUB PUSH1 0x64 ADD SWAP1 REVERT JUMPDEST SWAP4 SWAP3 POP POP POP JUMP JUMPDEST PUSH1 0x60 PUSH3 0xC58 DUP5 DUP5 PUSH1 0x0 DUP6 PUSH3 0xC60 JUMP JUMPDEST SWAP5 SWAP4 POP POP POP POP JUMP JUMPDEST PUSH1 0x60 DUP3 SELFBALANCE LT ISZERO PUSH3 0xCA3 JUMPI PUSH1 0x40 MLOAD PUSH3 0x461BCD PUSH1 0xE5 SHL DUP2 MSTORE PUSH1 0x4 ADD DUP1 DUP1 PUSH1 0x20 ADD DUP3 DUP2 SUB DUP3 MSTORE PUSH1 0x26 DUP2 MSTORE PUSH1 0x20 ADD DUP1 PUSH3 0x4190 PUSH1 0x26 SWAP2 CODECOPY PUSH1 0x40 ADD SWAP2 POP POP PUSH1 0x40 MLOAD DUP1 SWAP2 SUB SWAP1 REVERT JUMPDEST PUSH3 0xCAE DUP6 PUSH3 0xDC8 JUMP JUMPDEST PUSH3 0xD00 JUMPI PUSH1 0x40 DUP1 MLOAD PUSH3 0x461BCD PUSH1 0xE5 SHL DUP2 MSTORE PUSH1 0x20 PUSH1 0x4 DUP3 ADD MSTORE PUSH1 0x1D PUSH1 0x24 DUP3 ADD MSTORE PUSH32 0x416464726573733A2063616C6C20746F206E6F6E2D636F6E7472616374000000 PUSH1 0x44 DUP3 ADD MSTORE SWAP1 MLOAD SWAP1 DUP2 SWAP1 SUB PUSH1 0x64 ADD SWAP1 REVERT JUMPDEST PUSH1 0x0 PUSH1 0x60 DUP7 PUSH1 0x1 PUSH1 0x1 PUSH1 0xA0 SHL SUB AND DUP6 DUP8 PUSH1 0x40 MLOAD DUP1 DUP3 DUP1 MLOAD SWAP1 PUSH1 0x20 ADD SWAP1 DUP1 DUP4 DUP4 JUMPDEST PUSH1 0x20 DUP4 LT PUSH3 0xD41 JUMPI DUP1 MLOAD DUP3 MSTORE PUSH1 0x1F NOT SWAP1 SWAP3 ADD SWAP2 PUSH1 0x20 SWAP2 DUP3 ADD SWAP2 ADD PUSH3 0xD20 JUMP JUMPDEST PUSH1 0x1 DUP4 PUSH1 0x20 SUB PUSH2 0x100 EXP SUB DUP1 NOT DUP3 MLOAD AND DUP2 DUP5 MLOAD AND DUP1 DUP3 OR DUP6 MSTORE POP POP POP POP POP POP SWAP1 POP ADD SWAP2 POP POP PUSH1 0x0 PUSH1 0x40 MLOAD DUP1 DUP4 SUB DUP2 DUP6 DUP8 GAS CALL SWAP3 POP POP POP RETURNDATASIZE DUP1 PUSH1 0x0 DUP2 EQ PUSH3 0xDA5 JUMPI PUSH1 0x40 MLOAD SWAP2 POP PUSH1 0x1F NOT PUSH1 0x3F RETURNDATASIZE ADD AND DUP3 ADD PUSH1 0x40 MSTORE RETURNDATASIZE DUP3 MSTORE RETURNDATASIZE PUSH1 0x0 PUSH1 0x20 DUP5 ADD RETURNDATACOPY PUSH3 0xDAA JUMP JUMPDEST PUSH1 0x60 SWAP2 POP JUMPDEST POP SWAP1 SWAP3 POP SWAP1 POP PUSH3 0xDBD DUP3 DUP3 DUP7 PUSH3 0xDCE JUMP JUMPDEST SWAP8 SWAP7 POP POP POP POP POP POP POP JUMP JUMPDEST EXTCODESIZE ISZERO ISZERO SWAP1 JUMP JUMPDEST PUSH1 0x60 DUP4 ISZERO PUSH3 0xDDF JUMPI POP DUP2 PUSH3 0xC40 JUMP JUMPDEST DUP3 MLOAD ISZERO PUSH3 0xDF0 JUMPI DUP3 MLOAD DUP1 DUP5 PUSH1 0x20 ADD REVERT JUMPDEST DUP2 PUSH1 0x40 MLOAD PUSH3 0x461BCD PUSH1 0xE5 SHL DUP2 MSTORE PUSH1 0x4 ADD DUP1 DUP1 PUSH1 0x20 ADD DUP3 DUP2 SUB DUP3 MSTORE DUP4 DUP2 DUP2 MLOAD DUP2 MSTORE PUSH1 0x20 ADD SWAP2 POP DUP1 MLOAD SWAP1 PUSH1 0x20 ADD SWAP1 DUP1 DUP4 DUP4 PUSH1 0x0 JUMPDEST DUP4 DUP2 LT ISZERO PUSH3 0xE3C JUMPI DUP2 DUP2 ADD MLOAD DUP4 DUP3 ADD MSTORE PUSH1 0x20 ADD PUSH3 0xE22 JUMP JUMPDEST POP POP POP POP SWAP1 POP SWAP1 DUP2 ADD SWAP1 PUSH1 0x1F AND DUP1 ISZERO PUSH3 0xE6A JUMPI DUP1 DUP3 SUB DUP1 MLOAD PUSH1 0x1 DUP4 PUSH1 0x20 SUB PUSH2 0x100 EXP SUB NOT AND DUP2 MSTORE PUSH1 0x20 ADD SWAP2 POP JUMPDEST POP SWAP3 POP POP POP PUSH1 0x40 MLOAD DUP1 SWAP2 SUB SWAP1 REVERT JUMPDEST DUP3 DUP1 SLOAD DUP3 DUP3 SSTORE SWAP1 PUSH1 0x0 MSTORE PUSH1 0x20 PUSH1 0x0 KECCAK256 SWAP1 DUP2 ADD SWAP3 DUP3 ISZERO PUSH3 0xED0 JUMPI SWAP2 PUSH1 0x20 MUL DUP3 ADD JUMPDEST DUP3 DUP2 GT ISZERO PUSH3 0xED0 JUMPI DUP3 MLOAD DUP3 SLOAD PUSH1 0x1 PUSH1 0x1 PUSH1 0xA0 SHL SUB NOT AND PUSH1 0x1 PUSH1 0x1 PUSH1 0xA0 SHL SUB SWAP1 SWAP2 AND OR DUP3 SSTORE PUSH1 0x20 SWAP1 SWAP3 ADD SWAP2 PUSH1 0x1 SWAP1 SWAP2 ADD SWAP1 PUSH3 0xE99 JUMP JUMPDEST POP PUSH3 0xEDE SWAP3 SWAP2 POP PUSH3 0xEE2 JUMP JUMPDEST POP SWAP1 JUMP JUMPDEST JUMPDEST DUP1 DUP3 GT ISZERO PUSH3 0xEDE JUMPI DUP1 SLOAD PUSH1 0x1 PUSH1 0x1 PUSH1 0xA0 SHL SUB NOT AND DUP2 SSTORE PUSH1 0x1 ADD PUSH3 0xEE3 JUMP JUMPDEST PUSH2 0x3257 DUP1 PUSH3 0xF13 PUSH1 0x0 CODECOPY PUSH1 0x0 RETURN INVALID PUSH1 0x80 PUSH1 0x40 MSTORE CALLVALUE DUP1 ISZERO PUSH2 0x10 JUMPI PUSH1 0x0 DUP1 REVERT JUMPDEST POP PUSH1 0x4 CALLDATASIZE LT PUSH2 0x377 JUMPI PUSH1 0x0 CALLDATALOAD PUSH1 0xE0 SHR DUP1 PUSH4 0x7B0A47EE GT PUSH2 0x1D3 JUMPI DUP1 PUSH4 0xC11C2E92 GT PUSH2 0x104 JUMPI DUP1 PUSH4 0xE7198474 GT PUSH2 0xA2 JUMPI DUP1 PUSH4 0xF2FDE38B GT PUSH2 0x7C JUMPI DUP1 PUSH4 0xF2FDE38B EQ PUSH2 0x6A5 JUMPI DUP1 PUSH4 0xF3FEF3A3 EQ PUSH2 0x6CB JUMPI DUP1 PUSH4 0xFFBD3B1F EQ PUSH2 0x6F7 JUMPI DUP1 PUSH4 0xFFBE9F1E EQ PUSH2 0x4E0 JUMPI PUSH2 0x377 JUMP JUMPDEST DUP1 PUSH4 0xE7198474 EQ PUSH2 0x68D JUMPI DUP1 PUSH4 0xE7A03679 EQ PUSH2 0x695 JUMPI DUP1 PUSH4 0xF1068454 EQ PUSH2 0x69D JUMPI PUSH2 0x377 JUMP JUMPDEST DUP1 PUSH4 0xD389800F GT PUSH2 0xDE JUMPI DUP1 PUSH4 0xD389800F EQ PUSH2 0x66D JUMPI DUP1 PUSH4 0xD62E969D EQ PUSH2 0x675 JUMPI DUP1 PUSH4 0xD7CB416F EQ PUSH2 0x67D JUMPI DUP1 PUSH4 0xDCE52DFA EQ PUSH2 0x685 JUMPI PUSH2 0x377 JUMP JUMPDEST DUP1 PUSH4 0xC11C2E92 EQ PUSH2 0x622 JUMPI DUP1 PUSH4 0xC8E3D18B EQ PUSH2 0x62A JUMPI DUP1 PUSH4 0xCFAD57A2 EQ PUSH2 0x647 JUMPI PUSH2 0x377 JUMP JUMPDEST DUP1 PUSH4 0x8DA5CB5B GT PUSH2 0x171 JUMPI DUP1 PUSH4 0x9872317F GT PUSH2 0x14B JUMPI DUP1 PUSH4 0x9872317F EQ PUSH2 0x5AB JUMPI DUP1 PUSH4 0xB02381C6 EQ PUSH2 0x5B3 JUMPI DUP1 PUSH4 0xB74CD242 EQ PUSH2 0x5FD JUMPI DUP1 PUSH4 0xB77050E7 EQ PUSH2 0x605 JUMPI PUSH2 0x377 JUMP JUMPDEST DUP1 PUSH4 0x8DA5CB5B EQ PUSH2 0x57E JUMPI DUP1 PUSH4 0x8FEFDA06 EQ PUSH2 0x586 JUMPI DUP1 PUSH4 0x96E9AFF8 EQ PUSH2 0x58E JUMPI PUSH2 0x377 JUMP JUMPDEST DUP1 PUSH4 0x85F02DD6 GT PUSH2 0x1AD JUMPI DUP1 PUSH4 0x85F02DD6 EQ PUSH2 0x549 JUMPI DUP1 PUSH4 0x866B2018 EQ PUSH2 0x551 JUMPI DUP1 PUSH4 0x8811DAD0 EQ PUSH2 0x559 JUMPI DUP1 PUSH4 0x8CF57CB9 EQ PUSH2 0x576 JUMPI PUSH2 0x377 JUMP JUMPDEST DUP1 PUSH4 0x7B0A47EE EQ PUSH2 0x531 JUMPI DUP1 PUSH4 0x7FF36FBE EQ PUSH2 0x539 JUMPI DUP1 PUSH4 0x8456CB59 EQ PUSH2 0x541 JUMPI PUSH2 0x377 JUMP JUMPDEST DUP1 PUSH4 0x46008A07 GT PUSH2 0x2AD JUMPI DUP1 PUSH4 0x67057B6C GT PUSH2 0x24B JUMPI DUP1 PUSH4 0x7115E9FA GT PUSH2 0x225 JUMPI DUP1 PUSH4 0x7115E9FA EQ PUSH2 0x4F8 JUMPI DUP1 PUSH4 0x715018A6 EQ PUSH2 0x521 JUMPI DUP1 PUSH4 0x783478AD EQ PUSH2 0x529 JUMPI DUP1 PUSH4 0x784DEF8C EQ PUSH2 0x443 JUMPI PUSH2 0x377 JUMP JUMPDEST DUP1 PUSH4 0x67057B6C EQ PUSH2 0x4E0 JUMPI DUP1 PUSH4 0x68F54162 EQ PUSH2 0x4E8 JUMPI DUP1 PUSH4 0x693A090B EQ PUSH2 0x4F0 JUMPI PUSH2 0x377 JUMP JUMPDEST DUP1 PUSH4 0x49281683 GT PUSH2 0x287 JUMPI DUP1 PUSH4 0x49281683 EQ PUSH2 0x497 JUMPI DUP1 PUSH4 0x50E15FDD EQ PUSH2 0x4B4 JUMPI DUP1 PUSH4 0x5C975ABB EQ PUSH2 0x4BC JUMPI DUP1 PUSH4 0x65A5E30B EQ PUSH2 0x4D8 JUMPI PUSH2 0x377 JUMP JUMPDEST DUP1 PUSH4 0x46008A07 EQ PUSH2 0x45B JUMPI DUP1 PUSH4 0x4700D305 EQ PUSH2 0x463 JUMPI DUP1 PUSH4 0x47E7EF24 EQ PUSH2 0x46B JUMPI PUSH2 0x377 JUMP JUMPDEST DUP1 PUSH4 0x3220D732 GT PUSH2 0x31A JUMPI DUP1 PUSH4 0x40C34B58 GT PUSH2 0x2F4 JUMPI DUP1 PUSH4 0x40C34B58 EQ PUSH2 0x43B JUMPI DUP1 PUSH4 0x41275358 EQ PUSH2 0x443 JUMPI DUP1 PUSH4 0x42DA4EB3 EQ PUSH2 0x44B JUMPI DUP1 PUSH4 0x44A3955E EQ PUSH2 0x453 JUMPI PUSH2 0x377 JUMP JUMPDEST DUP1 PUSH4 0x3220D732 EQ PUSH2 0x421 JUMPI DUP1 PUSH4 0x3505B09F EQ PUSH2 0x429 JUMPI DUP1 PUSH4 0x3F4BA83A EQ PUSH2 0x433 JUMPI PUSH2 0x377 JUMP JUMPDEST DUP1 PUSH4 0xFA4E01E GT PUSH2 0x356 JUMPI DUP1 PUSH4 0xFA4E01E EQ PUSH2 0x3D7 JUMPI DUP1 PUSH4 0x178A8D07 EQ PUSH2 0x3DF JUMPI DUP1 PUSH4 0x260AB48C EQ PUSH2 0x3E7 JUMPI DUP1 PUSH4 0x30F6CF63 EQ PUSH2 0x404 JUMPI PUSH2 0x377 JUMP JUMPDEST DUP1 PUSH3 0x7A2AE3 EQ PUSH2 0x37C JUMPI DUP1 PUSH4 0x2D45457 EQ PUSH2 0x3B5 JUMPI DUP1 PUSH4 0x4C9D490 EQ PUSH2 0x3BD JUMPI JUMPDEST PUSH1 0x0 DUP1 REVERT JUMPDEST PUSH2 0x399 PUSH1 0x4 DUP1 CALLDATASIZE SUB PUSH1 0x20 DUP2 LT ISZERO PUSH2 0x392 JUMPI PUSH1 0x0 DUP1 REVERT JUMPDEST POP CALLDATALOAD PUSH2 0x6FF JUMP JUMPDEST PUSH1 0x40 DUP1 MLOAD PUSH1 0x1 PUSH1 0x1 PUSH1 0xA0 SHL SUB SWAP1 SWAP3 AND DUP3 MSTORE MLOAD SWAP1 DUP2 SWAP1 SUB PUSH1 0x20 ADD SWAP1 RETURN JUMPDEST PUSH2 0x399 PUSH2 0x726 JUMP JUMPDEST PUSH2 0x3C5 PUSH2 0x73E JUMP JUMPDEST PUSH1 0x40 DUP1 MLOAD SWAP2 DUP3 MSTORE MLOAD SWAP1 DUP2 SWAP1 SUB PUSH1 0x20 ADD SWAP1 RETURN JUMPDEST PUSH2 0x3C5 PUSH2 0x7C6 JUMP JUMPDEST PUSH2 0x3C5 PUSH2 0x7CC JUMP JUMPDEST PUSH2 0x399 PUSH1 0x4 DUP1 CALLDATASIZE SUB PUSH1 0x20 DUP2 LT ISZERO PUSH2 0x3FD JUMPI PUSH1 0x0 DUP1 REVERT JUMPDEST POP CALLDATALOAD PUSH2 0x7D2 JUMP JUMPDEST PUSH2 0x399 PUSH1 0x4 DUP1 CALLDATASIZE SUB PUSH1 0x20 DUP2 LT ISZERO PUSH2 0x41A JUMPI PUSH1 0x0 DUP1 REVERT JUMPDEST POP CALLDATALOAD PUSH2 0x7DF JUMP JUMPDEST PUSH2 0x399 PUSH2 0x7EC JUMP JUMPDEST PUSH2 0x431 PUSH2 0x7FB JUMP JUMPDEST STOP JUMPDEST PUSH2 0x431 PUSH2 0x84D JUMP JUMPDEST PUSH2 0x399 PUSH2 0x89D JUMP JUMPDEST PUSH2 0x399 PUSH2 0x8AC JUMP JUMPDEST PUSH2 0x3C5 PUSH2 0x8C4 JUMP JUMPDEST PUSH2 0x3C5 PUSH2 0x957 JUMP JUMPDEST PUSH2 0x399 PUSH2 0x95D JUMP JUMPDEST PUSH2 0x431 PUSH2 0x96C JUMP JUMPDEST PUSH2 0x3C5 PUSH1 0x4 DUP1 CALLDATASIZE SUB PUSH1 0x40 DUP2 LT ISZERO PUSH2 0x481 JUMPI PUSH1 0x0 DUP1 REVERT JUMPDEST POP PUSH1 0x1 PUSH1 0x1 PUSH1 0xA0 SHL SUB DUP2 CALLDATALOAD AND SWAP1 PUSH1 0x20 ADD CALLDATALOAD PUSH2 0x9C4 JUMP JUMPDEST PUSH2 0x399 PUSH1 0x4 DUP1 CALLDATASIZE SUB PUSH1 0x20 DUP2 LT ISZERO PUSH2 0x4AD JUMPI PUSH1 0x0 DUP1 REVERT JUMPDEST POP CALLDATALOAD PUSH2 0xB3D JUMP JUMPDEST PUSH2 0x3C5 PUSH2 0xB4A JUMP JUMPDEST PUSH2 0x4C4 PUSH2 0xB50 JUMP JUMPDEST PUSH1 0x40 DUP1 MLOAD SWAP2 ISZERO ISZERO DUP3 MSTORE MLOAD SWAP1 DUP2 SWAP1 SUB PUSH1 0x20 ADD SWAP1 RETURN JUMPDEST PUSH2 0x431 PUSH2 0xB59 JUMP JUMPDEST PUSH2 0x3C5 PUSH2 0xBB4 JUMP JUMPDEST PUSH2 0x3C5 PUSH2 0xBBA JUMP JUMPDEST PUSH2 0x399 PUSH2 0xBC0 JUMP JUMPDEST PUSH2 0x500 PUSH2 0xBCF JUMP JUMPDEST PUSH1 0x40 MLOAD DUP1 DUP3 PUSH1 0x3 DUP2 GT ISZERO PUSH2 0x510 JUMPI INVALID JUMPDEST DUP2 MSTORE PUSH1 0x20 ADD SWAP2 POP POP PUSH1 0x40 MLOAD DUP1 SWAP2 SUB SWAP1 RETURN JUMPDEST PUSH2 0x431 PUSH2 0xBDF JUMP JUMPDEST PUSH2 0x399 PUSH2 0xC8B JUMP JUMPDEST PUSH2 0x3C5 PUSH2 0xC91 JUMP JUMPDEST PUSH2 0x399 PUSH2 0xC97 JUMP JUMPDEST PUSH2 0x431 PUSH2 0xCA6 JUMP JUMPDEST PUSH2 0x3C5 PUSH2 0xCF6 JUMP JUMPDEST PUSH2 0x3C5 PUSH2 0xCFC JUMP JUMPDEST PUSH2 0x399 PUSH1 0x4 DUP1 CALLDATASIZE SUB PUSH1 0x20 DUP2 LT ISZERO PUSH2 0x56F JUMPI PUSH1 0x0 DUP1 REVERT JUMPDEST POP CALLDATALOAD PUSH2 0xD02 JUMP JUMPDEST PUSH2 0x399 PUSH2 0xD0F JUMP JUMPDEST PUSH2 0x399 PUSH2 0xD27 JUMP JUMPDEST PUSH2 0x3C5 PUSH2 0xD36 JUMP JUMPDEST PUSH2 0x399 PUSH1 0x4 DUP1 CALLDATASIZE SUB PUSH1 0x20 DUP2 LT ISZERO PUSH2 0x5A4 JUMPI PUSH1 0x0 DUP1 REVERT JUMPDEST POP CALLDATALOAD PUSH2 0xD3C JUMP JUMPDEST PUSH2 0x399 PUSH2 0xD49 JUMP JUMPDEST PUSH2 0x431 PUSH1 0x4 DUP1 CALLDATASIZE SUB PUSH1 0xE0 DUP2 LT ISZERO PUSH2 0x5C9 JUMPI PUSH1 0x0 DUP1 REVERT JUMPDEST POP DUP1 CALLDATALOAD SWAP1 PUSH1 0x20 DUP2 ADD CALLDATALOAD SWAP1 PUSH1 0x40 DUP2 ADD CALLDATALOAD SWAP1 PUSH1 0x60 DUP2 ADD CALLDATALOAD SWAP1 PUSH1 0x80 DUP2 ADD CALLDATALOAD SWAP1 PUSH1 0xA0 DUP2 ADD CALLDATALOAD SWAP1 PUSH1 0xC0 ADD CALLDATALOAD PUSH1 0x1 PUSH1 0x1 PUSH1 0xA0 SHL SUB AND PUSH2 0xD61 JUMP JUMPDEST PUSH2 0x3C5 PUSH2 0xFAB JUMP JUMPDEST PUSH2 0x399 PUSH1 0x4 DUP1 CALLDATASIZE SUB PUSH1 0x20 DUP2 LT ISZERO PUSH2 0x61B JUMPI PUSH1 0x0 DUP1 REVERT JUMPDEST POP CALLDATALOAD PUSH2 0xFB1 JUMP JUMPDEST PUSH2 0x431 PUSH2 0xFBE JUMP JUMPDEST PUSH2 0x399 PUSH1 0x4 DUP1 CALLDATASIZE SUB PUSH1 0x20 DUP2 LT ISZERO PUSH2 0x640 JUMPI PUSH1 0x0 DUP1 REVERT JUMPDEST POP CALLDATALOAD PUSH2 0x1266 JUMP JUMPDEST PUSH2 0x431 PUSH1 0x4 DUP1 CALLDATASIZE SUB PUSH1 0x20 DUP2 LT ISZERO PUSH2 0x65D JUMPI PUSH1 0x0 DUP1 REVERT JUMPDEST POP CALLDATALOAD PUSH1 0x1 PUSH1 0x1 PUSH1 0xA0 SHL SUB AND PUSH2 0x1273 JUMP JUMPDEST PUSH2 0x431 PUSH2 0x12DD JUMP JUMPDEST PUSH2 0x399 PUSH2 0x178C JUMP JUMPDEST PUSH2 0x399 PUSH2 0x179B JUMP JUMPDEST PUSH2 0x3C5 PUSH2 0x17AA JUMP JUMPDEST PUSH2 0x399 PUSH2 0x17B0 JUMP JUMPDEST PUSH2 0x399 PUSH2 0x17BF JUMP JUMPDEST PUSH2 0x3C5 PUSH2 0x17D3 JUMP JUMPDEST PUSH2 0x431 PUSH1 0x4 DUP1 CALLDATASIZE SUB PUSH1 0x20 DUP2 LT ISZERO PUSH2 0x6BB JUMPI PUSH1 0x0 DUP1 REVERT JUMPDEST POP CALLDATALOAD PUSH1 0x1 PUSH1 0x1 PUSH1 0xA0 SHL SUB AND PUSH2 0x17D9 JUMP JUMPDEST PUSH2 0x3C5 PUSH1 0x4 DUP1 CALLDATASIZE SUB PUSH1 0x40 DUP2 LT ISZERO PUSH2 0x6E1 JUMPI PUSH1 0x0 DUP1 REVERT JUMPDEST POP PUSH1 0x1 PUSH1 0x1 PUSH1 0xA0 SHL SUB DUP2 CALLDATALOAD AND SWAP1 PUSH1 0x20 ADD CALLDATALOAD PUSH2 0x18DB JUMP JUMPDEST PUSH2 0x3C5 PUSH2 0x1BEA JUMP JUMPDEST PUSH1 0x18 DUP2 DUP2 SLOAD DUP2 LT PUSH2 0x70C JUMPI INVALID JUMPDEST PUSH1 0x0 SWAP2 DUP3 MSTORE PUSH1 0x20 SWAP1 SWAP2 KECCAK256 ADD SLOAD PUSH1 0x1 PUSH1 0x1 PUSH1 0xA0 SHL SUB AND SWAP1 POP DUP2 JUMP JUMPDEST PUSH20 0x2791BCA1F2DE4661ED88A30C99A7A9449AA84174 DUP2 JUMP JUMPDEST PUSH1 0x1B SLOAD PUSH1 0x1C SLOAD PUSH1 0x40 DUP1 MLOAD PUSH4 0x93F1A40B PUSH1 0xE0 SHL DUP2 MSTORE PUSH1 0x4 DUP2 ADD SWAP3 SWAP1 SWAP3 MSTORE ADDRESS PUSH1 0x24 DUP4 ADD MSTORE DUP1 MLOAD PUSH1 0x0 SWAP4 DUP5 SWAP4 PUSH1 0x1 PUSH1 0x1 PUSH1 0xA0 SHL SUB SWAP1 SWAP2 AND SWAP3 PUSH4 0x93F1A40B SWAP3 PUSH1 0x44 DUP1 DUP5 ADD SWAP4 DUP3 SWAP1 SUB ADD DUP2 DUP7 DUP1 EXTCODESIZE ISZERO DUP1 ISZERO PUSH2 0x793 JUMPI PUSH1 0x0 DUP1 REVERT JUMPDEST POP GAS STATICCALL ISZERO DUP1 ISZERO PUSH2 0x7A7 JUMPI RETURNDATASIZE PUSH1 0x0 DUP1 RETURNDATACOPY RETURNDATASIZE PUSH1 0x0 REVERT JUMPDEST POP POP POP POP PUSH1 0x40 MLOAD RETURNDATASIZE PUSH1 0x40 DUP2 LT ISZERO PUSH2 0x7BD JUMPI PUSH1 0x0 DUP1 REVERT JUMPDEST POP MLOAD SWAP2 POP POP JUMPDEST SWAP1 JUMP JUMPDEST PUSH1 0x9 SLOAD DUP2 JUMP JUMPDEST PUSH1 0xD SLOAD DUP2 JUMP JUMPDEST PUSH1 0x12 DUP2 DUP2 SLOAD DUP2 LT PUSH2 0x70C JUMPI INVALID JUMPDEST PUSH1 0x19 DUP2 DUP2 SLOAD DUP2 LT PUSH2 0x70C JUMPI INVALID JUMPDEST PUSH1 0x7 SLOAD PUSH1 0x1 PUSH1 0x1 PUSH1 0xA0 SHL SUB AND DUP2 JUMP JUMPDEST PUSH1 0x8 SLOAD PUSH1 0x1 PUSH1 0x1 PUSH1 0xA0 SHL SUB AND CALLER EQ PUSH2 0x843 JUMPI PUSH1 0x40 DUP1 MLOAD PUSH3 0x461BCD PUSH1 0xE5 SHL DUP2 MSTORE PUSH1 0x20 PUSH1 0x4 DUP1 DUP4 ADD SWAP2 SWAP1 SWAP2 MSTORE PUSH1 0x24 DUP3 ADD MSTORE PUSH4 0x10B3B7BB PUSH1 0xE1 SHL PUSH1 0x44 DUP3 ADD MSTORE SWAP1 MLOAD SWAP1 DUP2 SWAP1 SUB PUSH1 0x64 ADD SWAP1 REVERT JUMPDEST PUSH2 0x84B PUSH2 0x1E43 JUMP JUMPDEST JUMP JUMPDEST PUSH1 0x8 SLOAD PUSH1 0x1 PUSH1 0x1 PUSH1 0xA0 SHL SUB AND CALLER EQ PUSH2 0x895 JUMPI PUSH1 0x40 DUP1 MLOAD PUSH3 0x461BCD PUSH1 0xE5 SHL DUP2 MSTORE PUSH1 0x20 PUSH1 0x4 DUP1 DUP4 ADD SWAP2 SWAP1 SWAP2 MSTORE PUSH1 0x24 DUP3 ADD MSTORE PUSH4 0x10B3B7BB PUSH1 0xE1 SHL PUSH1 0x44 DUP3 ADD MSTORE SWAP1 MLOAD SWAP1 DUP2 SWAP1 SUB PUSH1 0x64 ADD SWAP1 REVERT JUMPDEST PUSH2 0x843 PUSH2 0x1FAA JUMP JUMPDEST PUSH1 0x1B SLOAD PUSH1 0x1 PUSH1 0x1 PUSH1 0xA0 SHL SUB AND DUP2 JUMP JUMPDEST PUSH20 0x5386881B46C37CDD30A748F7771CF95D7B213637 DUP2 JUMP JUMPDEST PUSH1 0x0 PUSH2 0x952 PUSH2 0x8D1 PUSH2 0x73E JUMP JUMPDEST PUSH1 0x2 SLOAD PUSH1 0x40 DUP1 MLOAD PUSH4 0x70A08231 PUSH1 0xE0 SHL DUP2 MSTORE ADDRESS PUSH1 0x4 DUP3 ADD MSTORE SWAP1 MLOAD PUSH2 0x100 SWAP1 SWAP3 DIV PUSH1 0x1 PUSH1 0x1 PUSH1 0xA0 SHL SUB AND SWAP2 PUSH4 0x70A08231 SWAP2 PUSH1 0x24 DUP1 DUP3 ADD SWAP3 PUSH1 0x20 SWAP3 SWAP1 SWAP2 SWAP1 DUP3 SWAP1 SUB ADD DUP2 DUP7 DUP1 EXTCODESIZE ISZERO DUP1 ISZERO PUSH2 0x920 JUMPI PUSH1 0x0 DUP1 REVERT JUMPDEST POP GAS STATICCALL ISZERO DUP1 ISZERO PUSH2 0x934 JUMPI RETURNDATASIZE PUSH1 0x0 DUP1 RETURNDATACOPY RETURNDATASIZE PUSH1 0x0 REVERT JUMPDEST POP POP POP POP PUSH1 0x40 MLOAD RETURNDATASIZE PUSH1 0x20 DUP2 LT ISZERO PUSH2 0x94A JUMPI PUSH1 0x0 DUP1 REVERT JUMPDEST POP MLOAD SWAP1 PUSH2 0x1DC7 JUMP JUMPDEST SWAP1 POP SWAP1 JUMP JUMPDEST PUSH1 0xA SLOAD DUP2 JUMP JUMPDEST PUSH1 0x8 SLOAD PUSH1 0x1 PUSH1 0x1 PUSH1 0xA0 SHL SUB AND DUP2 JUMP JUMPDEST PUSH1 0x8 SLOAD PUSH1 0x1 PUSH1 0x1 PUSH1 0xA0 SHL SUB AND CALLER EQ PUSH2 0x9B4 JUMPI PUSH1 0x40 DUP1 MLOAD PUSH3 0x461BCD PUSH1 0xE5 SHL DUP2 MSTORE PUSH1 0x20 PUSH1 0x4 DUP1 DUP4 ADD SWAP2 SWAP1 SWAP2 MSTORE PUSH1 0x24 DUP3 ADD MSTORE PUSH4 0x10B3B7BB PUSH1 0xE1 SHL PUSH1 0x44 DUP3 ADD MSTORE SWAP1 MLOAD SWAP1 DUP2 SWAP1 SUB PUSH1 0x64 ADD SWAP1 REVERT JUMPDEST PUSH2 0x9BC PUSH2 0x204A JUMP JUMPDEST PUSH2 0x84B PUSH2 0x20CD JUMP JUMPDEST PUSH1 0x0 PUSH2 0x9CE PUSH2 0x2131 JUMP JUMPDEST PUSH1 0x1 PUSH1 0x1 PUSH1 0xA0 SHL SUB AND PUSH2 0x9DF PUSH2 0xD27 JUMP JUMPDEST PUSH1 0x1 PUSH1 0x1 PUSH1 0xA0 SHL SUB AND EQ PUSH2 0xA28 JUMPI PUSH1 0x40 DUP1 MLOAD PUSH3 0x461BCD PUSH1 0xE5 SHL DUP2 MSTORE PUSH1 0x20 PUSH1 0x4 DUP3 ADD DUP2 SWAP1 MSTORE PUSH1 0x24 DUP3 ADD MSTORE PUSH1 0x0 DUP1 MLOAD PUSH1 0x20 PUSH2 0x31A2 DUP4 CODECOPY DUP2 MLOAD SWAP2 MSTORE PUSH1 0x44 DUP3 ADD MSTORE SWAP1 MLOAD SWAP1 DUP2 SWAP1 SUB PUSH1 0x64 ADD SWAP1 REVERT JUMPDEST PUSH1 0x2 PUSH1 0x1 SLOAD EQ ISZERO PUSH2 0xA6E JUMPI PUSH1 0x40 DUP1 MLOAD PUSH3 0x461BCD PUSH1 0xE5 SHL DUP2 MSTORE PUSH1 0x20 PUSH1 0x4 DUP3 ADD MSTORE PUSH1 0x1F PUSH1 0x24 DUP3 ADD MSTORE PUSH1 0x0 DUP1 MLOAD PUSH1 0x20 PUSH2 0x3115 DUP4 CODECOPY DUP2 MLOAD SWAP2 MSTORE PUSH1 0x44 DUP3 ADD MSTORE SWAP1 MLOAD SWAP1 DUP2 SWAP1 SUB PUSH1 0x64 ADD SWAP1 REVERT JUMPDEST PUSH1 0x2 PUSH1 0x1 SSTORE PUSH2 0xA7B PUSH2 0xB50 JUMP JUMPDEST ISZERO PUSH2 0xAC0 JUMPI PUSH1 0x40 DUP1 MLOAD PUSH3 0x461BCD PUSH1 0xE5 SHL DUP2 MSTORE PUSH1 0x20 PUSH1 0x4 DUP3 ADD MSTORE PUSH1 0x10 PUSH1 0x24 DUP3 ADD MSTORE PUSH16 0x14185D5CD8589B194E881C185D5CD959 PUSH1 0x82 SHL PUSH1 0x44 DUP3 ADD MSTORE SWAP1 MLOAD SWAP1 DUP2 SWAP1 SUB PUSH1 0x64 ADD SWAP1 REVERT JUMPDEST PUSH1 0x0 PUSH2 0xACA PUSH2 0x8C4 JUMP JUMPDEST PUSH1 0x2 SLOAD SWAP1 SWAP2 POP PUSH2 0xAEA SWAP1 PUSH2 0x100 SWAP1 DIV PUSH1 0x1 PUSH1 0x1 PUSH1 0xA0 SHL SUB AND CALLER ADDRESS DUP7 PUSH2 0x2135 JUMP JUMPDEST PUSH1 0x0 PUSH2 0xAF4 PUSH2 0x218F JUMP JUMPDEST PUSH1 0xA SLOAD SWAP1 SWAP2 POP ISZERO PUSH2 0xB21 JUMPI PUSH2 0xB1E DUP3 PUSH2 0xB18 PUSH1 0xA SLOAD DUP5 PUSH2 0x2264 SWAP1 SWAP2 SWAP1 PUSH4 0xFFFFFFFF AND JUMP JUMPDEST SWAP1 PUSH2 0x22BD JUMP JUMPDEST SWAP1 POP JUMPDEST PUSH1 0xA SLOAD PUSH2 0xB2E SWAP1 DUP3 PUSH2 0x1DC7 JUMP JUMPDEST PUSH1 0xA SSTORE PUSH1 0x1 DUP1 SSTORE SWAP5 SWAP4 POP POP POP POP JUMP JUMPDEST PUSH1 0x13 DUP2 DUP2 SLOAD DUP2 LT PUSH2 0x70C JUMPI INVALID JUMPDEST PUSH1 0x11 SLOAD DUP2 JUMP JUMPDEST PUSH1 0x2 SLOAD PUSH1 0xFF AND SWAP1 JUMP JUMPDEST PUSH1 0x8 SLOAD PUSH1 0x1 PUSH1 0x1 PUSH1 0xA0 SHL SUB AND CALLER EQ PUSH2 0xBA1 JUMPI PUSH1 0x40 DUP1 MLOAD PUSH3 0x461BCD PUSH1 0xE5 SHL DUP2 MSTORE PUSH1 0x20 PUSH1 0x4 DUP1 DUP4 ADD SWAP2 SWAP1 SWAP2 MSTORE PUSH1 0x24 DUP3 ADD MSTORE PUSH4 0x10B3B7BB PUSH1 0xE1 SHL PUSH1 0x44 DUP3 ADD MSTORE SWAP1 MLOAD SWAP1 DUP2 SWAP1 SUB PUSH1 0x64 ADD SWAP1 REVERT JUMPDEST PUSH2 0xBA9 PUSH2 0x1FAA JUMP JUMPDEST PUSH2 0xBB1 PUSH2 0x218F JUMP JUMPDEST POP JUMP JUMPDEST PUSH2 0x2710 DUP2 JUMP JUMPDEST PUSH1 0xE SLOAD DUP2 JUMP JUMPDEST PUSH1 0x6 SLOAD PUSH1 0x1 PUSH1 0x1 PUSH1 0xA0 SHL SUB AND DUP2 JUMP JUMPDEST PUSH1 0x1A SLOAD PUSH1 0x1 PUSH1 0xA0 SHL SWAP1 DIV PUSH1 0xFF AND DUP2 JUMP JUMPDEST PUSH2 0xBE7 PUSH2 0x2131 JUMP JUMPDEST PUSH1 0x1 PUSH1 0x1 PUSH1 0xA0 SHL SUB AND PUSH2 0xBF8 PUSH2 0xD27 JUMP JUMPDEST PUSH1 0x1 PUSH1 0x1 PUSH1 0xA0 SHL SUB AND EQ PUSH2 0xC41 JUMPI PUSH1 0x40 DUP1 MLOAD PUSH3 0x461BCD PUSH1 0xE5 SHL DUP2 MSTORE PUSH1 0x20 PUSH1 0x4 DUP3 ADD DUP2 SWAP1 MSTORE PUSH1 0x24 DUP3 ADD MSTORE PUSH1 0x0 DUP1 MLOAD PUSH1 0x20 PUSH2 0x31A2 DUP4 CODECOPY DUP2 MLOAD SWAP2 MSTORE PUSH1 0x44 DUP3 ADD MSTORE SWAP1 MLOAD SWAP1 DUP2 SWAP1 SUB PUSH1 0x64 ADD SWAP1 REVERT JUMPDEST PUSH1 0x0 DUP1 SLOAD PUSH1 0x40 MLOAD PUSH1 0x1 PUSH1 0x1 PUSH1 0xA0 SHL SUB SWAP1 SWAP2 AND SWAP1 PUSH32 0x8BE0079C531659141344CD1FD0A4F28419497F9722A3DAAFE3B4186F6B6457E0 SWAP1 DUP4 SWAP1 LOG3 PUSH1 0x0 DUP1 SLOAD PUSH1 0x1 PUSH1 0x1 PUSH1 0xA0 SHL SUB NOT AND SWAP1 SSTORE JUMP JUMPDEST PUSH2 0xDEAD DUP2 JUMP JUMPDEST PUSH1 0xC SLOAD DUP2 JUMP JUMPDEST PUSH1 0x3 SLOAD PUSH1 0x1 PUSH1 0x1 PUSH1 0xA0 SHL SUB AND DUP2 JUMP JUMPDEST PUSH1 0x8 SLOAD PUSH1 0x1 PUSH1 0x1 PUSH1 0xA0 SHL SUB AND CALLER EQ PUSH2 0xCEE JUMPI PUSH1 0x40 DUP1 MLOAD PUSH3 0x461BCD PUSH1 0xE5 SHL DUP2 MSTORE PUSH1 0x20 PUSH1 0x4 DUP1 DUP4 ADD SWAP2 SWAP1 SWAP2 MSTORE PUSH1 0x24 DUP3 ADD MSTORE PUSH4 0x10B3B7BB PUSH1 0xE1 SHL PUSH1 0x44 DUP3 ADD MSTORE SWAP1 MLOAD SWAP1 DUP2 SWAP1 SUB PUSH1 0x64 ADD SWAP1 REVERT JUMPDEST PUSH2 0x84B PUSH2 0x204A JUMP JUMPDEST PUSH1 0xB SLOAD DUP2 JUMP JUMPDEST PUSH2 0x26AC DUP2 JUMP JUMPDEST PUSH1 0x14 DUP2 DUP2 SLOAD DUP2 LT PUSH2 0x70C JUMPI INVALID JUMPDEST PUSH20 0x917FB15E8AAA12264DCBDC15AFEF7CD3CE76BA39 DUP2 JUMP JUMPDEST PUSH1 0x0 SLOAD PUSH1 0x1 PUSH1 0x1 PUSH1 0xA0 SHL SUB AND SWAP1 JUMP JUMPDEST PUSH2 0x3E8 DUP2 JUMP JUMPDEST PUSH1 0x16 DUP2 DUP2 SLOAD DUP2 LT PUSH2 0x70C JUMPI INVALID JUMPDEST PUSH20 0x76BF0C28E604CC3FE9967C83B3C3F31C213CFE64 DUP2 JUMP JUMPDEST PUSH1 0x8 SLOAD PUSH1 0x1 PUSH1 0x1 PUSH1 0xA0 SHL SUB AND CALLER EQ PUSH2 0xDA9 JUMPI PUSH1 0x40 DUP1 MLOAD PUSH3 0x461BCD PUSH1 0xE5 SHL DUP2 MSTORE PUSH1 0x20 PUSH1 0x4 DUP1 DUP4 ADD SWAP2 SWAP1 SWAP2 MSTORE PUSH1 0x24 DUP3 ADD MSTORE PUSH4 0x10B3B7BB PUSH1 0xE1 SHL PUSH1 0x44 DUP3 ADD MSTORE SWAP1 MLOAD SWAP1 DUP2 SWAP1 SUB PUSH1 0x64 ADD SWAP1 REVERT JUMPDEST PUSH2 0x3E8 PUSH2 0xDC0 DUP7 PUSH2 0xDBA DUP11 DUP11 PUSH2 0x1DC7 JUMP JUMPDEST SWAP1 PUSH2 0x1DC7 JUMP JUMPDEST GT ISZERO PUSH2 0xE04 JUMPI PUSH1 0x40 DUP1 MLOAD PUSH3 0x461BCD PUSH1 0xE5 SHL DUP2 MSTORE PUSH1 0x20 PUSH1 0x4 DUP3 ADD MSTORE PUSH1 0xE PUSH1 0x24 DUP3 ADD MSTORE PUSH14 0x4D617820666565206F6620313025 PUSH1 0x90 SHL PUSH1 0x44 DUP3 ADD MSTORE SWAP1 MLOAD SWAP1 DUP2 SWAP1 SUB PUSH1 0x64 ADD SWAP1 REVERT JUMPDEST PUSH2 0x26AC DUP5 LT ISZERO PUSH2 0xE5B JUMPI PUSH1 0x40 DUP1 MLOAD PUSH3 0x461BCD PUSH1 0xE5 SHL DUP2 MSTORE PUSH1 0x20 PUSH1 0x4 DUP3 ADD MSTORE PUSH1 0x1A PUSH1 0x24 DUP3 ADD MSTORE PUSH32 0x5F7769746864726177466565466163746F7220746F6F206C6F77000000000000 PUSH1 0x44 DUP3 ADD MSTORE SWAP1 MLOAD SWAP1 DUP2 SWAP1 SUB PUSH1 0x64 ADD SWAP1 REVERT JUMPDEST PUSH2 0x2710 DUP5 GT ISZERO PUSH2 0xEB2 JUMPI PUSH1 0x40 DUP1 MLOAD PUSH3 0x461BCD PUSH1 0xE5 SHL DUP2 MSTORE PUSH1 0x20 PUSH1 0x4 DUP3 ADD MSTORE PUSH1 0x1B PUSH1 0x24 DUP3 ADD MSTORE PUSH32 0x5F7769746864726177466565466163746F7220746F6F20686967680000000000 PUSH1 0x44 DUP3 ADD MSTORE SWAP1 MLOAD SWAP1 DUP2 SWAP1 SUB PUSH1 0x64 ADD SWAP1 REVERT JUMPDEST PUSH2 0x3E3 DUP4 GT ISZERO PUSH2 0xF09 JUMPI PUSH1 0x40 DUP1 MLOAD PUSH3 0x461BCD PUSH1 0xE5 SHL DUP2 MSTORE PUSH1 0x20 PUSH1 0x4 DUP3 ADD MSTORE PUSH1 0x18 PUSH1 0x24 DUP3 ADD MSTORE PUSH32 0x5F736C697070616765466163746F7220746F6F20686967680000000000000000 PUSH1 0x44 DUP3 ADD MSTORE SWAP1 MLOAD SWAP1 DUP2 SWAP1 SUB PUSH1 0x64 ADD SWAP1 REVERT JUMPDEST PUSH1 0xB DUP8 SWAP1 SSTORE PUSH1 0xC DUP7 SWAP1 SSTORE PUSH1 0xD DUP6 SWAP1 SSTORE PUSH1 0xE DUP5 SWAP1 SSTORE PUSH1 0xF DUP4 SWAP1 SSTORE PUSH1 0x10 DUP3 SWAP1 SSTORE PUSH1 0x6 DUP1 SLOAD PUSH1 0x1 PUSH1 0x1 PUSH1 0xA0 SHL SUB DUP4 AND PUSH1 0x1 PUSH1 0x1 PUSH1 0xA0 SHL SUB NOT SWAP1 SWAP2 AND DUP2 OR SWAP1 SWAP2 SSTORE PUSH1 0x40 DUP1 MLOAD DUP10 DUP2 MSTORE PUSH1 0x20 DUP2 ADD DUP10 SWAP1 MSTORE DUP1 DUP3 ADD DUP9 SWAP1 MSTORE PUSH1 0x60 DUP2 ADD DUP8 SWAP1 MSTORE PUSH1 0x80 DUP2 ADD DUP7 SWAP1 MSTORE PUSH1 0xA0 DUP2 ADD DUP6 SWAP1 MSTORE PUSH1 0xC0 DUP2 ADD SWAP3 SWAP1 SWAP3 MSTORE MLOAD PUSH32 0x813767A04E11DFAB70A5EC48C4FD7C344AB48E62196586790931DC9DFAED97E9 SWAP2 DUP2 SWAP1 SUB PUSH1 0xE0 ADD SWAP1 LOG1 POP POP POP POP POP POP POP JUMP JUMPDEST PUSH2 0x3E3 DUP2 JUMP JUMPDEST PUSH1 0x17 DUP2 DUP2 SLOAD DUP2 LT PUSH2 0x70C JUMPI INVALID JUMPDEST PUSH1 0x2 PUSH1 0x1 SLOAD EQ ISZERO PUSH2 0x1004 JUMPI PUSH1 0x40 DUP1 MLOAD PUSH3 0x461BCD PUSH1 0xE5 SHL DUP2 MSTORE PUSH1 0x20 PUSH1 0x4 DUP3 ADD MSTORE PUSH1 0x1F PUSH1 0x24 DUP3 ADD MSTORE PUSH1 0x0 DUP1 MLOAD PUSH1 0x20 PUSH2 0x3115 DUP4 CODECOPY DUP2 MLOAD SWAP2 MSTORE PUSH1 0x44 DUP3 ADD MSTORE SWAP1 MLOAD SWAP1 DUP2 SWAP1 SUB PUSH1 0x64 ADD SWAP1 REVERT JUMPDEST PUSH1 0x2 PUSH1 0x1 SSTORE PUSH2 0x1011 PUSH2 0xB50 JUMP JUMPDEST ISZERO PUSH2 0x1056 JUMPI PUSH1 0x40 DUP1 MLOAD PUSH3 0x461BCD PUSH1 0xE5 SHL DUP2 MSTORE PUSH1 0x20 PUSH1 0x4 DUP3 ADD MSTORE PUSH1 0x10 PUSH1 0x24 DUP3 ADD MSTORE PUSH16 0x14185D5CD8589B194E881C185D5CD959 PUSH1 0x82 SHL PUSH1 0x44 DUP3 ADD MSTORE SWAP1 MLOAD SWAP1 DUP2 SWAP1 SUB PUSH1 0x64 ADD SWAP1 REVERT JUMPDEST PUSH1 0x3 SLOAD PUSH1 0x40 DUP1 MLOAD PUSH4 0x70A08231 PUSH1 0xE0 SHL DUP2 MSTORE ADDRESS PUSH1 0x4 DUP3 ADD MSTORE SWAP1 MLOAD PUSH1 0x0 SWAP3 PUSH1 0x1 PUSH1 0x1 PUSH1 0xA0 SHL SUB AND SWAP2 PUSH4 0x70A08231 SWAP2 PUSH1 0x24 DUP1 DUP4 ADD SWAP3 PUSH1 0x20 SWAP3 SWAP2 SWAP1 DUP3 SWAP1 SUB ADD DUP2 DUP7 DUP1 EXTCODESIZE ISZERO DUP1 ISZERO PUSH2 0x10A1 JUMPI PUSH1 0x0 DUP1 REVERT JUMPDEST POP GAS STATICCALL ISZERO DUP1 ISZERO PUSH2 0x10B5 JUMPI RETURNDATASIZE PUSH1 0x0 DUP1 RETURNDATACOPY RETURNDATASIZE PUSH1 0x0 REVERT JUMPDEST POP POP POP POP PUSH1 0x40 MLOAD RETURNDATASIZE PUSH1 0x20 DUP2 LT ISZERO PUSH2 0x10CB JUMPI PUSH1 0x0 DUP1 REVERT JUMPDEST POP MLOAD SWAP1 POP DUP1 ISZERO DUP1 ISZERO SWAP1 PUSH2 0x10EF JUMPI POP PUSH1 0x5 SLOAD PUSH1 0x3 SLOAD PUSH1 0x1 PUSH1 0x1 PUSH1 0xA0 SHL SUB SWAP1 DUP2 AND SWAP2 AND EQ ISZERO JUMPDEST ISZERO PUSH2 0x1159 JUMPI PUSH2 0x1159 DUP2 PUSH1 0x17 DUP1 SLOAD DUP1 PUSH1 0x20 MUL PUSH1 0x20 ADD PUSH1 0x40 MLOAD SWAP1 DUP2 ADD PUSH1 0x40 MSTORE DUP1 SWAP3 SWAP2 SWAP1 DUP2 DUP2 MSTORE PUSH1 0x20 ADD DUP3 DUP1 SLOAD DUP1 ISZERO PUSH2 0x114E JUMPI PUSH1 0x20 MUL DUP3 ADD SWAP2 SWAP1 PUSH1 0x0 MSTORE PUSH1 0x20 PUSH1 0x0 KECCAK256 SWAP1 JUMPDEST DUP2 SLOAD PUSH1 0x1 PUSH1 0x1 PUSH1 0xA0 SHL SUB AND DUP2 MSTORE PUSH1 0x1 SWAP1 SWAP2 ADD SWAP1 PUSH1 0x20 ADD DUP1 DUP4 GT PUSH2 0x1130 JUMPI JUMPDEST POP POP POP POP POP ADDRESS PUSH2 0x2324 JUMP JUMPDEST PUSH1 0x4 DUP1 SLOAD PUSH1 0x40 DUP1 MLOAD PUSH4 0x70A08231 PUSH1 0xE0 SHL DUP2 MSTORE ADDRESS SWAP4 DUP2 ADD SWAP4 SWAP1 SWAP4 MSTORE MLOAD PUSH1 0x0 SWAP3 PUSH1 0x1 PUSH1 0x1 PUSH1 0xA0 SHL SUB SWAP1 SWAP3 AND SWAP2 PUSH4 0x70A08231 SWAP2 PUSH1 0x24 DUP1 DUP4 ADD SWAP3 PUSH1 0x20 SWAP3 SWAP2 SWAP1 DUP3 SWAP1 SUB ADD DUP2 DUP7 DUP1 EXTCODESIZE ISZERO DUP1 ISZERO PUSH2 0x11A8 JUMPI PUSH1 0x0 DUP1 REVERT JUMPDEST POP GAS STATICCALL ISZERO DUP1 ISZERO PUSH2 0x11BC JUMPI RETURNDATASIZE PUSH1 0x0 DUP1 RETURNDATACOPY RETURNDATASIZE PUSH1 0x0 REVERT JUMPDEST POP POP POP POP PUSH1 0x40 MLOAD RETURNDATASIZE PUSH1 0x20 DUP2 LT ISZERO PUSH2 0x11D2 JUMPI PUSH1 0x0 DUP1 REVERT JUMPDEST POP MLOAD SWAP1 POP DUP1 ISZERO DUP1 ISZERO SWAP1 PUSH2 0x11F6 JUMPI POP PUSH1 0x5 SLOAD PUSH1 0x4 SLOAD PUSH1 0x1 PUSH1 0x1 PUSH1 0xA0 SHL SUB SWAP1 DUP2 AND SWAP2 AND EQ ISZERO JUMPDEST ISZERO PUSH2 0x125E JUMPI PUSH2 0x125E DUP2 PUSH1 0x18 DUP1 SLOAD DUP1 PUSH1 0x20 MUL PUSH1 0x20 ADD PUSH1 0x40 MLOAD SWAP1 DUP2 ADD PUSH1 0x40 MSTORE DUP1 SWAP3 SWAP2 SWAP1 DUP2 DUP2 MSTORE PUSH1 0x20 ADD DUP3 DUP1 SLOAD DUP1 ISZERO PUSH2 0x114E JUMPI PUSH1 0x20 MUL DUP3 ADD SWAP2 SWAP1 PUSH1 0x0 MSTORE PUSH1 0x20 PUSH1 0x0 KECCAK256 SWAP1 DUP2 SLOAD PUSH1 0x1 PUSH1 0x1 PUSH1 0xA0 SHL SUB AND DUP2 MSTORE PUSH1 0x1 SWAP1 SWAP2 ADD SWAP1 PUSH1 0x20 ADD DUP1 DUP4 GT PUSH2 0x1130 JUMPI POP POP POP POP POP ADDRESS PUSH2 0x2324 JUMP JUMPDEST POP POP PUSH1 0x1 DUP1 SSTORE JUMP JUMPDEST PUSH1 0x15 DUP2 DUP2 SLOAD DUP2 LT PUSH2 0x70C JUMPI INVALID JUMPDEST PUSH1 0x8 SLOAD PUSH1 0x1 PUSH1 0x1 PUSH1 0xA0 SHL SUB AND CALLER EQ PUSH2 0x12BB JUMPI PUSH1 0x40 DUP1 MLOAD PUSH3 0x461BCD PUSH1 0xE5 SHL DUP2 MSTORE PUSH1 0x20 PUSH1 0x4 DUP1 DUP4 ADD SWAP2 SWAP1 SWAP2 MSTORE PUSH1 0x24 DUP3 ADD MSTORE PUSH4 0x10B3B7BB PUSH1 0xE1 SHL PUSH1 0x44 DUP3 ADD MSTORE SWAP1 MLOAD SWAP1 DUP2 SWAP1 SUB PUSH1 0x64 ADD SWAP1 REVERT JUMPDEST PUSH1 0x8 DUP1 SLOAD PUSH1 0x1 PUSH1 0x1 PUSH1 0xA0 SHL SUB NOT AND PUSH1 0x1 PUSH1 0x1 PUSH1 0xA0 SHL SUB SWAP3 SWAP1 SWAP3 AND SWAP2 SWAP1 SWAP2 OR SWAP1 SSTORE JUMP JUMPDEST PUSH1 0x2 PUSH1 0x1 SLOAD EQ ISZERO PUSH2 0x1323 JUMPI PUSH1 0x40 DUP1 MLOAD PUSH3 0x461BCD PUSH1 0xE5 SHL DUP2 MSTORE PUSH1 0x20 PUSH1 0x4 DUP3 ADD MSTORE PUSH1 0x1F PUSH1 0x24 DUP3 ADD MSTORE PUSH1 0x0 DUP1 MLOAD PUSH1 0x20 PUSH2 0x3115 DUP4 CODECOPY DUP2 MLOAD SWAP2 MSTORE PUSH1 0x44 DUP3 ADD MSTORE SWAP1 MLOAD SWAP1 DUP2 SWAP1 SUB PUSH1 0x64 ADD SWAP1 REVERT JUMPDEST PUSH1 0x2 PUSH1 0x1 SSTORE PUSH2 0x1330 PUSH2 0xB50 JUMP JUMPDEST ISZERO PUSH2 0x1375 JUMPI PUSH1 0x40 DUP1 MLOAD PUSH3 0x461BCD PUSH1 0xE5 SHL DUP2 MSTORE PUSH1 0x20 PUSH1 0x4 DUP3 ADD MSTORE PUSH1 0x10 PUSH1 0x24 DUP3 ADD MSTORE PUSH16 0x14185D5CD8589B194E881C185D5CD959 PUSH1 0x82 SHL PUSH1 0x44 DUP3 ADD MSTORE SWAP1 MLOAD SWAP1 DUP2 SWAP1 SUB PUSH1 0x64 ADD SWAP1 REVERT JUMPDEST PUSH2 0x137D PUSH2 0x2131 JUMP JUMPDEST PUSH1 0x1 PUSH1 0x1 PUSH1 0xA0 SHL SUB AND PUSH2 0x138E PUSH2 0xD27 JUMP JUMPDEST PUSH1 0x1 PUSH1 0x1 PUSH1 0xA0 SHL SUB AND EQ PUSH2 0x13D7 JUMPI PUSH1 0x40 DUP1 MLOAD PUSH3 0x461BCD PUSH1 0xE5 SHL DUP2 MSTORE PUSH1 0x20 PUSH1 0x4 DUP3 ADD DUP2 SWAP1 MSTORE PUSH1 0x24 DUP3 ADD MSTORE PUSH1 0x0 DUP1 MLOAD PUSH1 0x20 PUSH2 0x31A2 DUP4 CODECOPY DUP2 MLOAD SWAP2 MSTORE PUSH1 0x44 DUP3 ADD MSTORE SWAP1 MLOAD SWAP1 DUP2 SWAP1 SUB PUSH1 0x64 ADD SWAP1 REVERT JUMPDEST PUSH2 0x13DF PUSH2 0x26CB JUMP JUMPDEST PUSH1 0x5 SLOAD PUSH1 0x40 DUP1 MLOAD PUSH4 0x70A08231 PUSH1 0xE0 SHL DUP2 MSTORE ADDRESS PUSH1 0x4 DUP3 ADD MSTORE SWAP1 MLOAD PUSH1 0x0 SWAP3 PUSH1 0x1 PUSH1 0x1 PUSH1 0xA0 SHL SUB AND SWAP2 PUSH4 0x70A08231 SWAP2 PUSH1 0x24 DUP1 DUP4 ADD SWAP3 PUSH1 0x20 SWAP3 SWAP2 SWAP1 DUP3 SWAP1 SUB ADD DUP2 DUP7 DUP1 EXTCODESIZE ISZERO DUP1 ISZERO PUSH2 0x142A JUMPI PUSH1 0x0 DUP1 REVERT JUMPDEST POP GAS STATICCALL ISZERO DUP1 ISZERO PUSH2 0x143E JUMPI RETURNDATASIZE PUSH1 0x0 DUP1 RETURNDATACOPY RETURNDATASIZE PUSH1 0x0 REVERT JUMPDEST POP POP POP POP PUSH1 0x40 MLOAD RETURNDATASIZE PUSH1 0x20 DUP2 LT ISZERO PUSH2 0x1454 JUMPI PUSH1 0x0 DUP1 REVERT JUMPDEST POP MLOAD SWAP1 POP DUP1 ISZERO PUSH2 0x1785 JUMPI PUSH2 0x1467 DUP2 PUSH2 0x2721 JUMP JUMPDEST SWAP1 POP PUSH2 0x1472 DUP2 PUSH2 0x27D6 JUMP JUMPDEST SWAP1 POP PUSH2 0x147D DUP2 PUSH2 0x2A1C JUMP JUMPDEST PUSH1 0x3 SLOAD PUSH1 0x5 SLOAD SWAP2 SWAP3 POP PUSH1 0x1 PUSH1 0x1 PUSH1 0xA0 SHL SUB SWAP2 DUP3 AND SWAP2 AND EQ PUSH2 0x1505 JUMPI PUSH2 0x1505 PUSH2 0x14A6 DUP3 PUSH1 0x2 PUSH2 0x22BD JUMP JUMPDEST PUSH1 0x15 DUP1 SLOAD DUP1 PUSH1 0x20 MUL PUSH1 0x20 ADD PUSH1 0x40 MLOAD SWAP1 DUP2 ADD PUSH1 0x40 MSTORE DUP1 SWAP3 SWAP2 SWAP1 DUP2 DUP2 MSTORE PUSH1 0x20 ADD DUP3 DUP1 SLOAD DUP1 ISZERO PUSH2 0x114E JUMPI PUSH1 0x20 MUL DUP3 ADD SWAP2 SWAP1 PUSH1 0x0 MSTORE PUSH1 0x20 PUSH1 0x0 KECCAK256 SWAP1 DUP2 SLOAD PUSH1 0x1 PUSH1 0x1 PUSH1 0xA0 SHL SUB AND DUP2 MSTORE PUSH1 0x1 SWAP1 SWAP2 ADD SWAP1 PUSH1 0x20 ADD DUP1 DUP4 GT PUSH2 0x1130 JUMPI POP POP POP POP POP ADDRESS PUSH2 0x2324 JUMP JUMPDEST PUSH1 0x4 SLOAD PUSH1 0x5 SLOAD PUSH1 0x1 PUSH1 0x1 PUSH1 0xA0 SHL SUB SWAP1 DUP2 AND SWAP2 AND EQ PUSH2 0x158A JUMPI PUSH2 0x158A PUSH2 0x152B DUP3 PUSH1 0x2 PUSH2 0x22BD JUMP JUMPDEST PUSH1 0x16 DUP1 SLOAD DUP1 PUSH1 0x20 MUL PUSH1 0x20 ADD PUSH1 0x40 MLOAD SWAP1 DUP2 ADD PUSH1 0x40 MSTORE DUP1 SWAP3 SWAP2 SWAP1 DUP2 DUP2 MSTORE PUSH1 0x20 ADD DUP3 DUP1 SLOAD DUP1 ISZERO PUSH2 0x114E JUMPI PUSH1 0x20 MUL DUP3 ADD SWAP2 SWAP1 PUSH1 0x0 MSTORE PUSH1 0x20 PUSH1 0x0 KECCAK256 SWAP1 DUP2 SLOAD PUSH1 0x1 PUSH1 0x1 PUSH1 0xA0 SHL SUB AND DUP2 MSTORE PUSH1 0x1 SWAP1 SWAP2 ADD SWAP1 PUSH1 0x20 ADD DUP1 DUP4 GT PUSH2 0x1130 JUMPI POP POP POP POP POP ADDRESS PUSH2 0x2324 JUMP JUMPDEST PUSH1 0x3 SLOAD PUSH1 0x40 DUP1 MLOAD PUSH4 0x70A08231 PUSH1 0xE0 SHL DUP2 MSTORE ADDRESS PUSH1 0x4 DUP3 ADD MSTORE SWAP1 MLOAD PUSH1 0x0 SWAP3 PUSH1 0x1 PUSH1 0x1 PUSH1 0xA0 SHL SUB AND SWAP2 PUSH4 0x70A08231 SWAP2 PUSH1 0x24 DUP1 DUP4 ADD SWAP3 PUSH1 0x20 SWAP3 SWAP2 SWAP1 DUP3 SWAP1 SUB ADD DUP2 DUP7 DUP1 EXTCODESIZE ISZERO DUP1 ISZERO PUSH2 0x15D5 JUMPI PUSH1 0x0 DUP1 REVERT JUMPDEST POP GAS STATICCALL ISZERO DUP1 ISZERO PUSH2 0x15E9 JUMPI RETURNDATASIZE PUSH1 0x0 DUP1 RETURNDATACOPY RETURNDATASIZE PUSH1 0x0 REVERT JUMPDEST POP POP POP POP PUSH1 0x40 MLOAD RETURNDATASIZE PUSH1 0x20 DUP2 LT ISZERO PUSH2 0x15FF JUMPI PUSH1 0x0 DUP1 REVERT JUMPDEST POP MLOAD PUSH1 0x4 DUP1 SLOAD PUSH1 0x40 DUP1 MLOAD PUSH4 0x70A08231 PUSH1 0xE0 SHL DUP2 MSTORE ADDRESS SWAP4 DUP2 ADD SWAP4 SWAP1 SWAP4 MSTORE MLOAD SWAP3 SWAP4 POP PUSH1 0x0 SWAP3 PUSH1 0x1 PUSH1 0x1 PUSH1 0xA0 SHL SUB SWAP1 SWAP2 AND SWAP2 PUSH4 0x70A08231 SWAP2 PUSH1 0x24 DUP1 DUP4 ADD SWAP3 PUSH1 0x20 SWAP3 SWAP2 SWAP1 DUP3 SWAP1 SUB ADD DUP2 DUP7 DUP1 EXTCODESIZE ISZERO DUP1 ISZERO PUSH2 0x1653 JUMPI PUSH1 0x0 DUP1 REVERT JUMPDEST POP GAS STATICCALL ISZERO DUP1 ISZERO PUSH2 0x1667 JUMPI RETURNDATASIZE PUSH1 0x0 DUP1 RETURNDATACOPY RETURNDATASIZE PUSH1 0x0 REVERT JUMPDEST POP POP POP POP PUSH1 0x40 MLOAD RETURNDATASIZE PUSH1 0x20 DUP2 LT ISZERO PUSH2 0x167D JUMPI PUSH1 0x0 DUP1 REVERT JUMPDEST POP MLOAD SWAP1 POP DUP2 ISZERO DUP1 ISZERO SWAP1 PUSH2 0x1690 JUMPI POP PUSH1 0x0 DUP2 GT JUMPDEST ISZERO PUSH2 0x1775 JUMPI PUSH1 0x6 SLOAD PUSH1 0x3 SLOAD PUSH1 0x4 SLOAD PUSH1 0x1 PUSH1 0x1 PUSH1 0xA0 SHL SUB SWAP3 DUP4 AND SWAP3 PUSH4 0xE8E33700 SWAP3 DUP2 AND SWAP2 AND DUP6 DUP6 PUSH1 0x0 DUP1 ADDRESS PUSH2 0x16C6 TIMESTAMP PUSH2 0x258 PUSH2 0x1DC7 JUMP JUMPDEST PUSH1 0x40 MLOAD DUP10 PUSH4 0xFFFFFFFF AND PUSH1 0xE0 SHL DUP2 MSTORE PUSH1 0x4 ADD DUP1 DUP10 PUSH1 0x1 PUSH1 0x1 PUSH1 0xA0 SHL SUB AND DUP2 MSTORE PUSH1 0x20 ADD DUP9 PUSH1 0x1 PUSH1 0x1 PUSH1 0xA0 SHL SUB AND DUP2 MSTORE PUSH1 0x20 ADD DUP8 DUP2 MSTORE PUSH1 0x20 ADD DUP7 DUP2 MSTORE PUSH1 0x20 ADD DUP6 DUP2 MSTORE PUSH1 0x20 ADD DUP5 DUP2 MSTORE PUSH1 0x20 ADD DUP4 PUSH1 0x1 PUSH1 0x1 PUSH1 0xA0 SHL SUB AND DUP2 MSTORE PUSH1 0x20 ADD DUP3 DUP2 MSTORE PUSH1 0x20 ADD SWAP9 POP POP POP POP POP POP POP POP POP PUSH1 0x60 PUSH1 0x40 MLOAD DUP1 DUP4 SUB DUP2 PUSH1 0x0 DUP8 DUP1 EXTCODESIZE ISZERO DUP1 ISZERO PUSH2 0x1748 JUMPI PUSH1 0x0 DUP1 REVERT JUMPDEST POP GAS CALL ISZERO DUP1 ISZERO PUSH2 0x175C JUMPI RETURNDATASIZE PUSH1 0x0 DUP1 RETURNDATACOPY RETURNDATASIZE PUSH1 0x0 REVERT JUMPDEST POP POP POP POP PUSH1 0x40 MLOAD RETURNDATASIZE PUSH1 0x60 DUP2 LT ISZERO PUSH2 0x1772 JUMPI PUSH1 0x0 DUP1 REVERT JUMPDEST POP POP JUMPDEST NUMBER PUSH1 0x9 SSTORE PUSH2 0x1781 PUSH2 0x218F JUMP JUMPDEST POP POP POP JUMPDEST POP PUSH1 0x1 DUP1 SSTORE JUMP JUMPDEST PUSH1 0x1A SLOAD PUSH1 0x1 PUSH1 0x1 PUSH1 0xA0 SHL SUB AND DUP2 JUMP JUMPDEST PUSH1 0x4 SLOAD PUSH1 0x1 PUSH1 0x1 PUSH1 0xA0 SHL SUB AND DUP2 JUMP JUMPDEST PUSH1 0x10 SLOAD DUP2 JUMP JUMPDEST PUSH1 0x5 SLOAD PUSH1 0x1 PUSH1 0x1 PUSH1 0xA0 SHL SUB AND DUP2 JUMP JUMPDEST PUSH1 0x2 SLOAD PUSH2 0x100 SWAP1 DIV PUSH1 0x1 PUSH1 0x1 PUSH1 0xA0 SHL SUB AND DUP2 JUMP JUMPDEST PUSH1 0x1C SLOAD DUP2 JUMP JUMPDEST PUSH2 0x17E1 PUSH2 0x2131 JUMP JUMPDEST PUSH1 0x1 PUSH1 0x1 PUSH1 0xA0 SHL SUB AND PUSH2 0x17F2 PUSH2 0xD27 JUMP JUMPDEST PUSH1 0x1 PUSH1 0x1 PUSH1 0xA0 SHL SUB AND EQ PUSH2 0x183B JUMPI PUSH1 0x40 DUP1 MLOAD PUSH3 0x461BCD PUSH1 0xE5 SHL DUP2 MSTORE PUSH1 0x20 PUSH1 0x4 DUP3 ADD DUP2 SWAP1 MSTORE PUSH1 0x24 DUP3 ADD MSTORE PUSH1 0x0 DUP1 MLOAD PUSH1 0x20 PUSH2 0x31A2 DUP4 CODECOPY DUP2 MLOAD SWAP2 MSTORE PUSH1 0x44 DUP3 ADD MSTORE SWAP1 MLOAD SWAP1 DUP2 SWAP1 SUB PUSH1 0x64 ADD SWAP1 REVERT JUMPDEST PUSH1 0x1 PUSH1 0x1 PUSH1 0xA0 SHL SUB DUP2 AND PUSH2 0x1880 JUMPI PUSH1 0x40 MLOAD PUSH3 0x461BCD PUSH1 0xE5 SHL DUP2 MSTORE PUSH1 0x4 ADD DUP1 DUP1 PUSH1 0x20 ADD DUP3 DUP2 SUB DUP3 MSTORE PUSH1 0x26 DUP2 MSTORE PUSH1 0x20 ADD DUP1 PUSH2 0x3135 PUSH1 0x26 SWAP2 CODECOPY PUSH1 0x40 ADD SWAP2 POP POP PUSH1 0x40 MLOAD DUP1 SWAP2 SUB SWAP1 REVERT JUMPDEST PUSH1 0x0 DUP1 SLOAD PUSH1 0x40 MLOAD PUSH1 0x1 PUSH1 0x1 PUSH1 0xA0 SHL SUB DUP1 DUP6 AND SWAP4 SWAP3 AND SWAP2 PUSH32 0x8BE0079C531659141344CD1FD0A4F28419497F9722A3DAAFE3B4186F6B6457E0 SWAP2 LOG3 PUSH1 0x0 DUP1 SLOAD PUSH1 0x1 PUSH1 0x1 PUSH1 0xA0 SHL SUB NOT AND PUSH1 0x1 PUSH1 0x1 PUSH1 0xA0 SHL SUB SWAP3 SWAP1 SWAP3 AND SWAP2 SWAP1 SWAP2 OR SWAP1 SSTORE JUMP JUMPDEST PUSH1 0x0 PUSH2 0x18E5 PUSH2 0x2131 JUMP JUMPDEST PUSH1 0x1 PUSH1 0x1 PUSH1 0xA0 SHL SUB AND PUSH2 0x18F6 PUSH2 0xD27 JUMP JUMPDEST PUSH1 0x1 PUSH1 0x1 PUSH1 0xA0 SHL SUB AND EQ PUSH2 0x193F JUMPI PUSH1 0x40 DUP1 MLOAD PUSH3 0x461BCD PUSH1 0xE5 SHL DUP2 MSTORE PUSH1 0x20 PUSH1 0x4 DUP3 ADD DUP2 SWAP1 MSTORE PUSH1 0x24 DUP3 ADD MSTORE PUSH1 0x0 DUP1 MLOAD PUSH1 0x20 PUSH2 0x31A2 DUP4 CODECOPY DUP2 MLOAD SWAP2 MSTORE PUSH1 0x44 DUP3 ADD MSTORE SWAP1 MLOAD SWAP1 DUP2 SWAP1 SUB PUSH1 0x64 ADD SWAP1 REVERT JUMPDEST PUSH1 0x2 PUSH1 0x1 SLOAD EQ ISZERO PUSH2 0x1985 JUMPI PUSH1 0x40 DUP1 MLOAD PUSH3 0x461BCD PUSH1 0xE5 SHL DUP2 MSTORE PUSH1 0x20 PUSH1 0x4 DUP3 ADD MSTORE PUSH1 0x1F PUSH1 0x24 DUP3 ADD MSTORE PUSH1 0x0 DUP1 MLOAD PUSH1 0x20 PUSH2 0x3115 DUP4 CODECOPY DUP2 MLOAD SWAP2 MSTORE PUSH1 0x44 DUP3 ADD MSTORE SWAP1 MLOAD SWAP1 DUP2 SWAP1 SUB PUSH1 0x64 ADD SWAP1 REVERT JUMPDEST PUSH1 0x2 PUSH1 0x1 SSTORE DUP2 PUSH2 0x19CC JUMPI PUSH1 0x40 DUP1 MLOAD PUSH3 0x461BCD PUSH1 0xE5 SHL DUP2 MSTORE PUSH1 0x20 PUSH1 0x4 DUP3 ADD MSTORE PUSH1 0xD PUSH1 0x24 DUP3 ADD MSTORE PUSH13 0x5F77616E74416D74206973203 PUSH1 0x9C SHL PUSH1 0x44 DUP3 ADD MSTORE SWAP1 MLOAD SWAP1 DUP2 SWAP1 SUB PUSH1 0x64 ADD SWAP1 REVERT JUMPDEST PUSH1 0x2 SLOAD PUSH1 0x40 DUP1 MLOAD PUSH4 0x70A08231 PUSH1 0xE0 SHL DUP2 MSTORE ADDRESS PUSH1 0x4 DUP3 ADD MSTORE SWAP1 MLOAD PUSH1 0x0 SWAP3 PUSH2 0x100 SWAP1 DIV PUSH1 0x1 PUSH1 0x1 PUSH1 0xA0 SHL SUB AND SWAP2 PUSH4 0x70A08231 SWAP2 PUSH1 0x24 DUP1 DUP4 ADD SWAP3 PUSH1 0x20 SWAP3 SWAP2 SWAP1 DUP3 SWAP1 SUB ADD DUP2 DUP7 DUP1 EXTCODESIZE ISZERO DUP1 ISZERO PUSH2 0x1A1C JUMPI PUSH1 0x0 DUP1 REVERT JUMPDEST POP GAS STATICCALL ISZERO DUP1 ISZERO PUSH2 0x1A30 JUMPI RETURNDATASIZE PUSH1 0x0 DUP1 RETURNDATACOPY RETURNDATASIZE PUSH1 0x0 REVERT JUMPDEST POP POP POP POP PUSH1 0x40 MLOAD RETURNDATASIZE PUSH1 0x20 DUP2 LT ISZERO PUSH2 0x1A46 JUMPI PUSH1 0x0 DUP1 REVERT JUMPDEST POP MLOAD SWAP1 POP DUP1 DUP4 GT ISZERO PUSH2 0x1AE2 JUMPI PUSH2 0x1A64 PUSH2 0x1A5F DUP5 DUP4 PUSH2 0x2AAD JUMP JUMPDEST PUSH2 0x2B0A JUMP JUMPDEST PUSH1 0x2 SLOAD PUSH1 0x40 DUP1 MLOAD PUSH4 0x70A08231 PUSH1 0xE0 SHL DUP2 MSTORE ADDRESS PUSH1 0x4 DUP3 ADD MSTORE SWAP1 MLOAD PUSH2 0x100 SWAP1 SWAP3 DIV PUSH1 0x1 PUSH1 0x1 PUSH1 0xA0 SHL SUB AND SWAP2 PUSH4 0x70A08231 SWAP2 PUSH1 0x24 DUP1 DUP3 ADD SWAP3 PUSH1 0x20 SWAP3 SWAP1 SWAP2 SWAP1 DUP3 SWAP1 SUB ADD DUP2 DUP7 DUP1 EXTCODESIZE ISZERO DUP1 ISZERO PUSH2 0x1AB3 JUMPI PUSH1 0x0 DUP1 REVERT JUMPDEST POP GAS STATICCALL ISZERO DUP1 ISZERO PUSH2 0x1AC7 JUMPI RETURNDATASIZE PUSH1 0x0 DUP1 RETURNDATACOPY RETURNDATASIZE PUSH1 0x0 REVERT JUMPDEST POP POP POP POP PUSH1 0x40 MLOAD RETURNDATASIZE PUSH1 0x20 DUP2 LT ISZERO PUSH2 0x1ADD JUMPI PUSH1 0x0 DUP1 REVERT JUMPDEST POP MLOAD SWAP1 POP JUMPDEST DUP1 DUP4 GT ISZERO PUSH2 0x1AEE JUMPI DUP1 SWAP3 POP JUMPDEST PUSH2 0x1AF6 PUSH2 0x8C4 JUMP JUMPDEST DUP4 GT ISZERO PUSH2 0x1B08 JUMPI PUSH2 0x1B05 PUSH2 0x8C4 JUMP JUMPDEST SWAP3 POP JUMPDEST PUSH1 0x0 PUSH2 0x1B29 PUSH2 0x1B15 PUSH2 0x8C4 JUMP JUMPDEST PUSH1 0xA SLOAD PUSH2 0x1B23 SWAP1 DUP8 SWAP1 PUSH2 0x2264 JUMP JUMPDEST SWAP1 PUSH2 0x2B7C JUMP JUMPDEST SWAP1 POP PUSH1 0xA SLOAD DUP2 GT ISZERO PUSH2 0x1B3A JUMPI POP PUSH1 0xA SLOAD JUMPDEST PUSH1 0xA SLOAD PUSH2 0x1B47 SWAP1 DUP3 PUSH2 0x2AAD JUMP JUMPDEST PUSH1 0xA DUP2 SWAP1 SSTORE POP PUSH1 0x0 PUSH2 0x1B76 PUSH2 0x2710 PUSH2 0xB18 PUSH2 0x1B6F PUSH1 0xE SLOAD PUSH2 0x2710 PUSH2 0x2AAD SWAP1 SWAP2 SWAP1 PUSH4 0xFFFFFFFF AND JUMP JUMPDEST DUP9 SWAP1 PUSH2 0x2264 JUMP JUMPDEST SWAP1 POP DUP1 ISZERO PUSH2 0x1BAE JUMPI PUSH1 0x2 SLOAD PUSH2 0x1BAE SWAP1 PUSH2 0x100 SWAP1 DIV PUSH1 0x1 PUSH1 0x1 PUSH1 0xA0 SHL SUB AND PUSH20 0x5386881B46C37CDD30A748F7771CF95D7B213637 DUP4 PUSH2 0x2BF2 JUMP JUMPDEST PUSH2 0x1BB8 DUP6 DUP3 PUSH2 0x2AAD JUMP JUMPDEST PUSH1 0x7 SLOAD PUSH1 0x2 SLOAD SWAP2 SWAP7 POP PUSH2 0x1BDD SWAP2 PUSH2 0x100 SWAP1 DIV PUSH1 0x1 PUSH1 0x1 PUSH1 0xA0 SHL SUB SWAP1 DUP2 AND SWAP2 AND DUP8 PUSH2 0x2BF2 JUMP JUMPDEST POP PUSH1 0x1 DUP1 SSTORE SWAP5 SWAP4 POP POP POP POP JUMP JUMPDEST PUSH1 0xF SLOAD DUP2 JUMP JUMPDEST DUP1 ISZERO DUP1 PUSH2 0x1C76 JUMPI POP PUSH1 0x40 DUP1 MLOAD PUSH4 0x6EB1769F PUSH1 0xE1 SHL DUP2 MSTORE ADDRESS PUSH1 0x4 DUP3 ADD MSTORE PUSH1 0x1 PUSH1 0x1 PUSH1 0xA0 SHL SUB DUP5 DUP2 AND PUSH1 0x24 DUP4 ADD MSTORE SWAP2 MLOAD SWAP2 DUP6 AND SWAP2 PUSH4 0xDD62ED3E SWAP2 PUSH1 0x44 DUP1 DUP3 ADD SWAP3 PUSH1 0x20 SWAP3 SWAP1 SWAP2 SWAP1 DUP3 SWAP1 SUB ADD DUP2 DUP7 DUP1 EXTCODESIZE ISZERO DUP1 ISZERO PUSH2 0x1C48 JUMPI PUSH1 0x0 DUP1 REVERT JUMPDEST POP GAS STATICCALL ISZERO DUP1 ISZERO PUSH2 0x1C5C JUMPI RETURNDATASIZE PUSH1 0x0 DUP1 RETURNDATACOPY RETURNDATASIZE PUSH1 0x0 REVERT JUMPDEST POP POP POP POP PUSH1 0x40 MLOAD RETURNDATASIZE PUSH1 0x20 DUP2 LT ISZERO PUSH2 0x1C72 JUMPI PUSH1 0x0 DUP1 REVERT JUMPDEST POP MLOAD ISZERO JUMPDEST PUSH2 0x1CB1 JUMPI PUSH1 0x40 MLOAD PUSH3 0x461BCD PUSH1 0xE5 SHL DUP2 MSTORE PUSH1 0x4 ADD DUP1 DUP1 PUSH1 0x20 ADD DUP3 DUP2 SUB DUP3 MSTORE PUSH1 0x36 DUP2 MSTORE PUSH1 0x20 ADD DUP1 PUSH2 0x31EC PUSH1 0x36 SWAP2 CODECOPY PUSH1 0x40 ADD SWAP2 POP POP PUSH1 0x40 MLOAD DUP1 SWAP2 SUB SWAP1 REVERT JUMPDEST PUSH1 0x40 DUP1 MLOAD PUSH1 0x1 PUSH1 0x1 PUSH1 0xA0 SHL SUB DUP5 AND PUSH1 0x24 DUP3 ADD MSTORE PUSH1 0x44 DUP1 DUP3 ADD DUP5 SWAP1 MSTORE DUP3 MLOAD DUP1 DUP4 SUB SWAP1 SWAP2 ADD DUP2 MSTORE PUSH1 0x64 SWAP1 SWAP2 ADD SWAP1 SWAP2 MSTORE PUSH1 0x20 DUP2 ADD DUP1 MLOAD PUSH1 0x1 PUSH1 0x1 PUSH1 0xE0 SHL SUB AND PUSH4 0x95EA7B3 PUSH1 0xE0 SHL OR SWAP1 MSTORE PUSH2 0x1D03 SWAP1 DUP5 SWAP1 PUSH2 0x2C40 JUMP JUMPDEST POP POP POP JUMP JUMPDEST PUSH1 0x0 PUSH2 0x1D6C DUP3 DUP6 PUSH1 0x1 PUSH1 0x1 PUSH1 0xA0 SHL SUB AND PUSH4 0xDD62ED3E ADDRESS DUP8 PUSH1 0x40 MLOAD DUP4 PUSH4 0xFFFFFFFF AND PUSH1 0xE0 SHL DUP2 MSTORE PUSH1 0x4 ADD DUP1 DUP4 PUSH1 0x1 PUSH1 0x1 PUSH1 0xA0 SHL SUB AND DUP2 MSTORE PUSH1 0x20 ADD DUP3 PUSH1 0x1 PUSH1 0x1 PUSH1 0xA0 SHL SUB AND DUP2 MSTORE PUSH1 0x20 ADD SWAP3 POP POP POP PUSH1 0x20 PUSH1 0x40 MLOAD DUP1 DUP4 SUB DUP2 DUP7 DUP1 EXTCODESIZE ISZERO DUP1 ISZERO PUSH2 0x920 JUMPI PUSH1 0x0 DUP1 REVERT JUMPDEST PUSH1 0x40 DUP1 MLOAD PUSH1 0x1 PUSH1 0x1 PUSH1 0xA0 SHL SUB DUP7 AND PUSH1 0x24 DUP3 ADD MSTORE PUSH1 0x44 DUP1 DUP3 ADD DUP5 SWAP1 MSTORE DUP3 MLOAD DUP1 DUP4 SUB SWAP1 SWAP2 ADD DUP2 MSTORE PUSH1 0x64 SWAP1 SWAP2 ADD SWAP1 SWAP2 MSTORE PUSH1 0x20 DUP2 ADD DUP1 MLOAD PUSH1 0x1 PUSH1 0x1 PUSH1 0xE0 SHL SUB AND PUSH4 0x95EA7B3 PUSH1 0xE0 SHL OR SWAP1 MSTORE SWAP1 SWAP2 POP PUSH2 0x1DC1 SWAP1 DUP6 SWAP1 PUSH2 0x2C40 JUMP JUMPDEST POP POP POP POP JUMP JUMPDEST PUSH1 0x0 DUP3 DUP3 ADD DUP4 DUP2 LT ISZERO PUSH2 0x1E21 JUMPI PUSH1 0x40 DUP1 MLOAD PUSH3 0x461BCD PUSH1 0xE5 SHL DUP2 MSTORE PUSH1 0x20 PUSH1 0x4 DUP3 ADD MSTORE PUSH1 0x1B PUSH1 0x24 DUP3 ADD MSTORE PUSH32 0x536166654D6174683A206164646974696F6E206F766572666C6F770000000000 PUSH1 0x44 DUP3 ADD MSTORE SWAP1 MLOAD SWAP1 DUP2 SWAP1 SUB PUSH1 0x64 ADD SWAP1 REVERT JUMPDEST SWAP1 POP JUMPDEST SWAP3 SWAP2 POP POP JUMP JUMPDEST PUSH1 0x60 PUSH2 0x1E39 DUP5 DUP5 PUSH1 0x0 DUP6 PUSH2 0x2CF1 JUMP JUMPDEST SWAP1 POP JUMPDEST SWAP4 SWAP3 POP POP POP JUMP JUMPDEST PUSH1 0x1B SLOAD PUSH1 0x2 SLOAD PUSH2 0x1E66 SWAP2 PUSH1 0x1 PUSH1 0x1 PUSH1 0xA0 SHL SUB PUSH2 0x100 SWAP1 SWAP3 DIV DUP3 AND SWAP2 AND PUSH1 0x0 PUSH2 0x1BF0 JUMP JUMPDEST PUSH1 0x1B SLOAD PUSH1 0x2 SLOAD PUSH2 0x1E8A SWAP2 PUSH1 0x1 PUSH1 0x1 PUSH1 0xA0 SHL SUB PUSH2 0x100 SWAP1 SWAP3 DIV DUP3 AND SWAP2 AND PUSH1 0x0 NOT PUSH2 0x1D08 JUMP JUMPDEST PUSH1 0x6 SLOAD PUSH1 0x5 SLOAD PUSH2 0x1EA8 SWAP2 PUSH1 0x1 PUSH1 0x1 PUSH1 0xA0 SHL SUB SWAP2 DUP3 AND SWAP2 AND PUSH1 0x0 PUSH2 0x1BF0 JUMP JUMPDEST PUSH1 0x6 SLOAD PUSH1 0x5 SLOAD PUSH2 0x1EC7 SWAP2 PUSH1 0x1 PUSH1 0x1 PUSH1 0xA0 SHL SUB SWAP2 DUP3 AND SWAP2 AND PUSH1 0x0 NOT PUSH2 0x1D08 JUMP JUMPDEST PUSH1 0x6 SLOAD PUSH1 0x3 SLOAD PUSH2 0x1EE5 SWAP2 PUSH1 0x1 PUSH1 0x1 PUSH1 0xA0 SHL SUB SWAP2 DUP3 AND SWAP2 AND PUSH1 0x0 PUSH2 0x1BF0 JUMP JUMPDEST PUSH1 0x6 SLOAD PUSH1 0x3 SLOAD PUSH2 0x1F04 SWAP2 PUSH1 0x1 PUSH1 0x1 PUSH1 0xA0 SHL SUB SWAP2 DUP3 AND SWAP2 AND PUSH1 0x0 NOT PUSH2 0x1D08 JUMP JUMPDEST PUSH1 0x6 SLOAD PUSH1 0x4 SLOAD PUSH2 0x1F22 SWAP2 PUSH1 0x1 PUSH1 0x1 PUSH1 0xA0 SHL SUB SWAP2 DUP3 AND SWAP2 AND PUSH1 0x0 PUSH2 0x1BF0 JUMP JUMPDEST PUSH1 0x6 SLOAD PUSH1 0x4 SLOAD PUSH2 0x1F41 SWAP2 PUSH1 0x1 PUSH1 0x1 PUSH1 0xA0 SHL SUB SWAP2 DUP3 AND SWAP2 AND PUSH1 0x0 NOT PUSH2 0x1D08 JUMP JUMPDEST PUSH2 0x1F75 PUSH20 0x2791BCA1F2DE4661ED88A30C99A7A9449AA84174 PUSH20 0x917FB15E8AAA12264DCBDC15AFEF7CD3CE76BA39 PUSH1 0x0 PUSH2 0x1BF0 JUMP JUMPDEST PUSH2 0x84B PUSH20 0x2791BCA1F2DE4661ED88A30C99A7A9449AA84174 PUSH20 0x917FB15E8AAA12264DCBDC15AFEF7CD3CE76BA39 PUSH1 0x0 NOT PUSH2 0x1D08 JUMP JUMPDEST PUSH2 0x1FB2 PUSH2 0xB50 JUMP JUMPDEST PUSH2 0x1FFA JUMPI PUSH1 0x40 DUP1 MLOAD PUSH3 0x461BCD PUSH1 0xE5 SHL DUP2 MSTORE PUSH1 0x20 PUSH1 0x4 DUP3 ADD MSTORE PUSH1 0x14 PUSH1 0x24 DUP3 ADD MSTORE PUSH20 0x14185D5CD8589B194E881B9BDD081C185D5CD959 PUSH1 0x62 SHL PUSH1 0x44 DUP3 ADD MSTORE SWAP1 MLOAD SWAP1 DUP2 SWAP1 SUB PUSH1 0x64 ADD SWAP1 REVERT JUMPDEST PUSH1 0x2 DUP1 SLOAD PUSH1 0xFF NOT AND SWAP1 SSTORE PUSH32 0x5DB9EE0A495BF2E6FF9C91A7834C1BA4FDD244A5E8AA4E537BD38AEAE4B073AA PUSH2 0x202D PUSH2 0x2131 JUMP JUMPDEST PUSH1 0x40 DUP1 MLOAD PUSH1 0x1 PUSH1 0x1 PUSH1 0xA0 SHL SUB SWAP1 SWAP3 AND DUP3 MSTORE MLOAD SWAP1 DUP2 SWAP1 SUB PUSH1 0x20 ADD SWAP1 LOG1 JUMP JUMPDEST PUSH2 0x2052 PUSH2 0xB50 JUMP JUMPDEST ISZERO PUSH2 0x2097 JUMPI PUSH1 0x40 DUP1 MLOAD PUSH3 0x461BCD PUSH1 0xE5 SHL DUP2 MSTORE PUSH1 0x20 PUSH1 0x4 DUP3 ADD MSTORE PUSH1 0x10 PUSH1 0x24 DUP3 ADD MSTORE PUSH16 0x14185D5CD8589B194E881C185D5CD959 PUSH1 0x82 SHL PUSH1 0x44 DUP3 ADD MSTORE SWAP1 MLOAD SWAP1 DUP2 SWAP1 SUB PUSH1 0x64 ADD SWAP1 REVERT JUMPDEST PUSH1 0x2 DUP1 SLOAD PUSH1 0xFF NOT AND PUSH1 0x1 OR SWAP1 SSTORE PUSH32 0x62E78CEA01BEE320CD4E420270B5EA74000D11B0C9F74754EBDBFC544B05A258 PUSH2 0x202D PUSH2 0x2131 JUMP JUMPDEST PUSH1 0x1B SLOAD PUSH1 0x1C SLOAD PUSH1 0x40 DUP1 MLOAD PUSH4 0x29897547 PUSH1 0xE1 SHL DUP2 MSTORE PUSH1 0x4 DUP2 ADD SWAP3 SWAP1 SWAP3 MSTORE MLOAD PUSH1 0x1 PUSH1 0x1 PUSH1 0xA0 SHL SUB SWAP1 SWAP3 AND SWAP2 PUSH4 0x5312EA8E SWAP2 PUSH1 0x24 DUP1 DUP3 ADD SWAP3 PUSH1 0x0 SWAP3 SWAP1 SWAP2 SWAP1 DUP3 SWAP1 SUB ADD DUP2 DUP4 DUP8 DUP1 EXTCODESIZE ISZERO DUP1 ISZERO PUSH2 0x211D JUMPI PUSH1 0x0 DUP1 REVERT JUMPDEST POP GAS CALL ISZERO DUP1 ISZERO PUSH2 0x1DC1 JUMPI RETURNDATASIZE PUSH1 0x0 DUP1 RETURNDATACOPY RETURNDATASIZE PUSH1 0x0 REVERT JUMPDEST CALLER SWAP1 JUMP JUMPDEST PUSH1 0x40 DUP1 MLOAD PUSH1 0x1 PUSH1 0x1 PUSH1 0xA0 SHL SUB DUP1 DUP7 AND PUSH1 0x24 DUP4 ADD MSTORE DUP5 AND PUSH1 0x44 DUP3 ADD MSTORE PUSH1 0x64 DUP1 DUP3 ADD DUP5 SWAP1 MSTORE DUP3 MLOAD DUP1 DUP4 SUB SWAP1 SWAP2 ADD DUP2 MSTORE PUSH1 0x84 SWAP1 SWAP2 ADD SWAP1 SWAP2 MSTORE PUSH1 0x20 DUP2 ADD DUP1 MLOAD PUSH1 0x1 PUSH1 0x1 PUSH1 0xE0 SHL SUB AND PUSH4 0x23B872DD PUSH1 0xE0 SHL OR SWAP1 MSTORE PUSH2 0x1DC1 SWAP1 DUP6 SWAP1 PUSH2 0x2C40 JUMP JUMPDEST PUSH1 0x0 DUP1 PUSH1 0x2 PUSH1 0x1 SWAP1 SLOAD SWAP1 PUSH2 0x100 EXP SWAP1 DIV PUSH1 0x1 PUSH1 0x1 PUSH1 0xA0 SHL SUB AND PUSH1 0x1 PUSH1 0x1 PUSH1 0xA0 SHL SUB AND PUSH4 0x70A08231 ADDRESS PUSH1 0x40 MLOAD DUP3 PUSH4 0xFFFFFFFF AND PUSH1 0xE0 SHL DUP2 MSTORE PUSH1 0x4 ADD DUP1 DUP3 PUSH1 0x1 PUSH1 0x1 PUSH1 0xA0 SHL SUB AND DUP2 MSTORE PUSH1 0x20 ADD SWAP2 POP POP PUSH1 0x20 PUSH1 0x40 MLOAD DUP1 DUP4 SUB DUP2 DUP7 DUP1 EXTCODESIZE ISZERO DUP1 ISZERO PUSH2 0x21F4 JUMPI PUSH1 0x0 DUP1 REVERT JUMPDEST POP GAS STATICCALL ISZERO DUP1 ISZERO PUSH2 0x2208 JUMPI RETURNDATASIZE PUSH1 0x0 DUP1 RETURNDATACOPY RETURNDATASIZE PUSH1 0x0 REVERT JUMPDEST POP POP POP POP PUSH1 0x40 MLOAD RETURNDATASIZE PUSH1 0x20 DUP2 LT ISZERO PUSH2 0x221E JUMPI PUSH1 0x0 DUP1 REVERT JUMPDEST POP MLOAD SWAP1 POP DUP1 PUSH2 0x2231 JUMPI PUSH1 0x0 SWAP2 POP POP PUSH2 0x7C3 JUMP JUMPDEST PUSH1 0x0 PUSH2 0x223B PUSH2 0x73E JUMP JUMPDEST SWAP1 POP PUSH2 0x2246 DUP3 PUSH2 0x2E4D JUMP JUMPDEST PUSH1 0x0 PUSH2 0x2250 PUSH2 0x73E JUMP JUMPDEST SWAP1 POP PUSH2 0x225C DUP2 DUP4 PUSH2 0x2AAD JUMP JUMPDEST SWAP4 POP POP POP POP SWAP1 JUMP JUMPDEST PUSH1 0x0 DUP3 PUSH2 0x2273 JUMPI POP PUSH1 0x0 PUSH2 0x1E24 JUMP JUMPDEST DUP3 DUP3 MUL DUP3 DUP5 DUP3 DUP2 PUSH2 0x2280 JUMPI INVALID JUMPDEST DIV EQ PUSH2 0x1E21 JUMPI PUSH1 0x40 MLOAD PUSH3 0x461BCD PUSH1 0xE5 SHL DUP2 MSTORE PUSH1 0x4 ADD DUP1 DUP1 PUSH1 0x20 ADD DUP3 DUP2 SUB DUP3 MSTORE PUSH1 0x21 DUP2 MSTORE PUSH1 0x20 ADD DUP1 PUSH2 0x3181 PUSH1 0x21 SWAP2 CODECOPY PUSH1 0x40 ADD SWAP2 POP POP PUSH1 0x40 MLOAD DUP1 SWAP2 SUB SWAP1 REVERT JUMPDEST PUSH1 0x0 DUP1 DUP3 GT PUSH2 0x2313 JUMPI PUSH1 0x40 DUP1 MLOAD PUSH3 0x461BCD PUSH1 0xE5 SHL DUP2 MSTORE PUSH1 0x20 PUSH1 0x4 DUP3 ADD MSTORE PUSH1 0x1A PUSH1 0x24 DUP3 ADD MSTORE PUSH32 0x536166654D6174683A206469766973696F6E206279207A65726F000000000000 PUSH1 0x44 DUP3 ADD MSTORE SWAP1 MLOAD SWAP1 DUP2 SWAP1 SUB PUSH1 0x64 ADD SWAP1 REVERT JUMPDEST DUP2 DUP4 DUP2 PUSH2 0x231C JUMPI INVALID JUMPDEST DIV SWAP4 SWAP3 POP POP POP JUMP JUMPDEST PUSH1 0x6 SLOAD PUSH1 0x40 DUP1 MLOAD PUSH4 0xD06CA61F PUSH1 0xE0 SHL DUP2 MSTORE PUSH1 0x4 DUP2 ADD DUP7 DUP2 MSTORE PUSH1 0x24 DUP3 ADD SWAP3 DUP4 MSTORE DUP6 MLOAD PUSH1 0x44 DUP4 ADD MSTORE DUP6 MLOAD PUSH1 0x60 SWAP5 PUSH1 0x1 PUSH1 0x1 PUSH1 0xA0 SHL SUB AND SWAP4 PUSH4 0xD06CA61F SWAP4 DUP10 SWAP4 DUP10 SWAP4 SWAP1 SWAP3 SWAP2 PUSH1 0x64 ADD SWAP1 PUSH1 0x20 DUP1 DUP7 ADD SWAP2 MUL DUP1 DUP4 DUP4 PUSH1 0x0 JUMPDEST DUP4 DUP2 LT ISZERO PUSH2 0x238F JUMPI DUP2 DUP2 ADD MLOAD DUP4 DUP3 ADD MSTORE PUSH1 0x20 ADD PUSH2 0x2377 JUMP JUMPDEST POP POP POP POP SWAP1 POP ADD SWAP4 POP POP POP POP PUSH1 0x0 PUSH1 0x40 MLOAD DUP1 DUP4 SUB DUP2 DUP7 DUP1 EXTCODESIZE ISZERO DUP1 ISZERO PUSH2 0x23B3 JUMPI PUSH1 0x0 DUP1 REVERT JUMPDEST POP GAS STATICCALL ISZERO DUP1 ISZERO PUSH2 0x23C7 JUMPI RETURNDATASIZE PUSH1 0x0 DUP1 RETURNDATACOPY RETURNDATASIZE PUSH1 0x0 REVERT JUMPDEST POP POP POP POP PUSH1 0x40 MLOAD RETURNDATASIZE PUSH1 0x0 DUP3 RETURNDATACOPY PUSH1 0x1F RETURNDATASIZE SWAP1 DUP2 ADD PUSH1 0x1F NOT AND DUP3 ADD PUSH1 0x40 MSTORE PUSH1 0x20 DUP2 LT ISZERO PUSH2 0x23F0 JUMPI PUSH1 0x0 DUP1 REVERT JUMPDEST DUP2 ADD SWAP1 DUP1 DUP1 MLOAD PUSH1 0x40 MLOAD SWAP4 SWAP3 SWAP2 SWAP1 DUP5 PUSH5 0x100000000 DUP3 GT ISZERO PUSH2 0x2410 JUMPI PUSH1 0x0 DUP1 REVERT JUMPDEST SWAP1 DUP4 ADD SWAP1 PUSH1 0x20 DUP3 ADD DUP6 DUP2 GT ISZERO PUSH2 0x2425 JUMPI PUSH1 0x0 DUP1 REVERT JUMPDEST DUP3 MLOAD DUP7 PUSH1 0x20 DUP3 MUL DUP4 ADD GT PUSH5 0x100000000 DUP3 GT OR ISZERO PUSH2 0x2442 JUMPI PUSH1 0x0 DUP1 REVERT JUMPDEST DUP3 MSTORE POP DUP2 MLOAD PUSH1 0x20 SWAP2 DUP3 ADD SWAP3 DUP3 ADD SWAP2 MUL DUP1 DUP4 DUP4 PUSH1 0x0 JUMPDEST DUP4 DUP2 LT ISZERO PUSH2 0x246F JUMPI DUP2 DUP2 ADD MLOAD DUP4 DUP3 ADD MSTORE PUSH1 0x20 ADD PUSH2 0x2457 JUMP JUMPDEST POP POP POP POP SWAP1 POP ADD PUSH1 0x40 MSTORE POP POP POP SWAP1 POP PUSH1 0x0 DUP2 PUSH2 0x2496 PUSH1 0x1 DUP5 MLOAD PUSH2 0x2AAD SWAP1 SWAP2 SWAP1 PUSH4 0xFFFFFFFF AND JUMP JUMPDEST DUP2 MLOAD DUP2 LT PUSH2 0x24A0 JUMPI INVALID JUMPDEST PUSH1 0x20 MUL PUSH1 0x20 ADD ADD MLOAD SWAP1 POP PUSH20 0x76BF0C28E604CC3FE9967C83B3C3F31C213CFE64 PUSH1 0x1 PUSH1 0x1 PUSH1 0xA0 SHL SUB AND DUP5 PUSH2 0x24DE PUSH1 0x1 DUP8 MLOAD PUSH2 0x2AAD SWAP1 SWAP2 SWAP1 PUSH4 0xFFFFFFFF AND JUMP JUMPDEST DUP2 MLOAD DUP2 LT PUSH2 0x24E8 JUMPI INVALID JUMPDEST PUSH1 0x20 MUL PUSH1 0x20 ADD ADD MLOAD PUSH1 0x1 PUSH1 0x1 PUSH1 0xA0 SHL SUB AND EQ DUP1 ISZERO PUSH2 0x2510 JUMPI POP PUSH1 0x1 PUSH1 0x1 PUSH1 0xA0 SHL SUB DUP4 AND PUSH2 0xDEAD EQ JUMPDEST ISZERO PUSH2 0x2526 JUMPI PUSH1 0x11 SLOAD PUSH2 0x2522 SWAP1 DUP3 PUSH2 0x1DC7 JUMP JUMPDEST PUSH1 0x11 SSTORE JUMPDEST PUSH1 0x6 SLOAD PUSH1 0xF SLOAD PUSH1 0x1 PUSH1 0x1 PUSH1 0xA0 SHL SUB SWAP1 SWAP2 AND SWAP1 PUSH4 0x38ED1739 SWAP1 DUP8 SWAP1 PUSH2 0x2553 SWAP1 PUSH2 0x3E8 SWAP1 PUSH2 0xB18 SWAP1 DUP8 SWAP1 PUSH2 0x2264 JUMP JUMPDEST DUP8 DUP8 PUSH2 0x2561 TIMESTAMP PUSH2 0x258 PUSH2 0x1DC7 JUMP JUMPDEST PUSH1 0x40 MLOAD DUP7 PUSH4 0xFFFFFFFF AND PUSH1 0xE0 SHL DUP2 MSTORE PUSH1 0x4 ADD DUP1 DUP7 DUP2 MSTORE PUSH1 0x20 ADD DUP6 DUP2 MSTORE PUSH1 0x20 ADD DUP1 PUSH1 0x20 ADD DUP5 PUSH1 0x1 PUSH1 0x1 PUSH1 0xA0 SHL SUB AND DUP2 MSTORE PUSH1 0x20 ADD DUP4 DUP2 MSTORE PUSH1 0x20 ADD DUP3 DUP2 SUB DUP3 MSTORE DUP6 DUP2 DUP2 MLOAD DUP2 MSTORE PUSH1 0x20 ADD SWAP2 POP DUP1 MLOAD SWAP1 PUSH1 0x20 ADD SWAP1 PUSH1 0x20 MUL DUP1 DUP4 DUP4 PUSH1 0x0 JUMPDEST DUP4 DUP2 LT ISZERO PUSH2 0x25D1 JUMPI DUP2 DUP2 ADD MLOAD DUP4 DUP3 ADD MSTORE PUSH1 0x20 ADD PUSH2 0x25B9 JUMP JUMPDEST POP POP POP POP SWAP1 POP ADD SWAP7 POP POP POP POP POP POP POP PUSH1 0x0 PUSH1 0x40 MLOAD DUP1 DUP4 SUB DUP2 PUSH1 0x0 DUP8 DUP1 EXTCODESIZE ISZERO DUP1 ISZERO PUSH2 0x25FA JUMPI PUSH1 0x0 DUP1 REVERT JUMPDEST POP GAS CALL ISZERO DUP1 ISZERO PUSH2 0x260E JUMPI RETURNDATASIZE PUSH1 0x0 DUP1 RETURNDATACOPY RETURNDATASIZE PUSH1 0x0 REVERT JUMPDEST POP POP POP POP PUSH1 0x40 MLOAD RETURNDATASIZE PUSH1 0x0 DUP3 RETURNDATACOPY PUSH1 0x1F RETURNDATASIZE SWAP1 DUP2 ADD PUSH1 0x1F NOT AND DUP3 ADD PUSH1 0x40 MSTORE PUSH1 0x20 DUP2 LT ISZERO PUSH2 0x2637 JUMPI PUSH1 0x0 DUP1 REVERT JUMPDEST DUP2 ADD SWAP1 DUP1 DUP1 MLOAD PUSH1 0x40 MLOAD SWAP4 SWAP3 SWAP2 SWAP1 DUP5 PUSH5 0x100000000 DUP3 GT ISZERO PUSH2 0x2657 JUMPI PUSH1 0x0 DUP1 REVERT JUMPDEST SWAP1 DUP4 ADD SWAP1 PUSH1 0x20 DUP3 ADD DUP6 DUP2 GT ISZERO PUSH2 0x266C JUMPI PUSH1 0x0 DUP1 REVERT JUMPDEST DUP3 MLOAD DUP7 PUSH1 0x20 DUP3 MUL DUP4 ADD GT PUSH5 0x100000000 DUP3 GT OR ISZERO PUSH2 0x2689 JUMPI PUSH1 0x0 DUP1 REVERT JUMPDEST DUP3 MSTORE POP DUP2 MLOAD PUSH1 0x20 SWAP2 DUP3 ADD SWAP3 DUP3 ADD SWAP2 MUL DUP1 DUP4 DUP4 PUSH1 0x0 JUMPDEST DUP4 DUP2 LT ISZERO PUSH2 0x26B6 JUMPI DUP2 DUP2 ADD MLOAD DUP4 DUP3 ADD MSTORE PUSH1 0x20 ADD PUSH2 0x269E JUMP JUMPDEST POP POP POP POP SWAP1 POP ADD PUSH1 0x40 MSTORE POP POP POP POP POP POP POP POP POP JUMP JUMPDEST PUSH1 0x1B SLOAD PUSH1 0x1C SLOAD PUSH1 0x40 DUP1 MLOAD PUSH4 0x441A3E7 PUSH1 0xE4 SHL DUP2 MSTORE PUSH1 0x4 DUP2 ADD SWAP3 SWAP1 SWAP3 MSTORE PUSH1 0x0 PUSH1 0x24 DUP4 ADD DUP2 SWAP1 MSTORE SWAP1 MLOAD PUSH1 0x1 PUSH1 0x1 PUSH1 0xA0 SHL SUB SWAP1 SWAP4 AND SWAP3 PUSH4 0x441A3E70 SWAP3 PUSH1 0x44 DUP1 DUP3 ADD SWAP4 SWAP3 SWAP2 DUP3 SWAP1 SUB ADD DUP2 DUP4 DUP8 DUP1 EXTCODESIZE ISZERO DUP1 ISZERO PUSH2 0x211D JUMPI PUSH1 0x0 DUP1 REVERT JUMPDEST PUSH1 0xB SLOAD PUSH1 0x0 SWAP1 ISZERO PUSH2 0x27D2 JUMPI PUSH1 0x0 PUSH2 0x2749 PUSH2 0x2710 PUSH2 0xB18 PUSH1 0xB SLOAD DUP7 PUSH2 0x2264 SWAP1 SWAP2 SWAP1 PUSH4 0xFFFFFFFF AND JUMP JUMPDEST SWAP1 POP PUSH2 0x27C4 DUP2 PUSH1 0x12 DUP1 SLOAD DUP1 PUSH1 0x20 MUL PUSH1 0x20 ADD PUSH1 0x40 MLOAD SWAP1 DUP2 ADD PUSH1 0x40 MSTORE DUP1 SWAP3 SWAP2 SWAP1 DUP2 DUP2 MSTORE PUSH1 0x20 ADD DUP3 DUP1 SLOAD DUP1 ISZERO PUSH2 0x27A5 JUMPI PUSH1 0x20 MUL DUP3 ADD SWAP2 SWAP1 PUSH1 0x0 MSTORE PUSH1 0x20 PUSH1 0x0 KECCAK256 SWAP1 JUMPDEST DUP2 SLOAD PUSH1 0x1 PUSH1 0x1 PUSH1 0xA0 SHL SUB AND DUP2 MSTORE PUSH1 0x1 SWAP1 SWAP2 ADD SWAP1 PUSH1 0x20 ADD DUP1 DUP4 GT PUSH2 0x2787 JUMPI JUMPDEST POP POP POP POP POP PUSH20 0x5386881B46C37CDD30A748F7771CF95D7B213637 PUSH2 0x2EA4 JUMP JUMPDEST PUSH2 0x27CE DUP4 DUP3 PUSH2 0x2AAD JUMP JUMPDEST SWAP3 POP POP JUMPDEST POP SWAP1 JUMP JUMPDEST PUSH1 0xC SLOAD PUSH1 0x0 SWAP1 ISZERO PUSH2 0x27D2 JUMPI PUSH1 0x0 PUSH2 0x27FE PUSH2 0x2710 PUSH2 0xB18 PUSH1 0xC SLOAD DUP7 PUSH2 0x2264 SWAP1 SWAP2 SWAP1 PUSH4 0xFFFFFFFF AND JUMP JUMPDEST PUSH1 0x40 DUP1 MLOAD PUSH4 0x70A08231 PUSH1 0xE0 SHL DUP2 MSTORE ADDRESS PUSH1 0x4 DUP3 ADD MSTORE SWAP1 MLOAD SWAP2 SWAP3 POP PUSH1 0x0 SWAP2 PUSH20 0x2791BCA1F2DE4661ED88A30C99A7A9449AA84174 SWAP2 PUSH4 0x70A08231 SWAP2 PUSH1 0x24 DUP1 DUP4 ADD SWAP3 PUSH1 0x20 SWAP3 SWAP2 SWAP1 DUP3 SWAP1 SUB ADD DUP2 DUP7 DUP1 EXTCODESIZE ISZERO DUP1 ISZERO PUSH2 0x2855 JUMPI PUSH1 0x0 DUP1 REVERT JUMPDEST POP GAS STATICCALL ISZERO DUP1 ISZERO PUSH2 0x2869 JUMPI RETURNDATASIZE PUSH1 0x0 DUP1 RETURNDATACOPY RETURNDATASIZE PUSH1 0x0 REVERT JUMPDEST POP POP POP POP PUSH1 0x40 MLOAD RETURNDATASIZE PUSH1 0x20 DUP2 LT ISZERO PUSH2 0x287F JUMPI PUSH1 0x0 DUP1 REVERT JUMPDEST POP MLOAD PUSH1 0x13 DUP1 SLOAD PUSH1 0x40 DUP1 MLOAD PUSH1 0x20 DUP4 DUP2 MUL DUP3 ADD DUP2 ADD SWAP1 SWAP3 MSTORE DUP3 DUP2 MSTORE SWAP4 SWAP5 POP PUSH2 0x28E7 SWAP4 DUP7 SWAP4 SWAP1 SWAP3 SWAP1 SWAP2 DUP4 ADD DUP3 DUP3 DUP1 ISZERO PUSH2 0x114E JUMPI PUSH1 0x20 MUL DUP3 ADD SWAP2 SWAP1 PUSH1 0x0 MSTORE PUSH1 0x20 PUSH1 0x0 KECCAK256 SWAP1 DUP2 SLOAD PUSH1 0x1 PUSH1 0x1 PUSH1 0xA0 SHL SUB AND DUP2 MSTORE PUSH1 0x1 SWAP1 SWAP2 ADD SWAP1 PUSH1 0x20 ADD DUP1 DUP4 GT PUSH2 0x1130 JUMPI POP POP POP POP POP ADDRESS PUSH2 0x2324 JUMP JUMPDEST PUSH1 0x0 PUSH2 0x2980 DUP3 PUSH20 0x2791BCA1F2DE4661ED88A30C99A7A9449AA84174 PUSH1 0x1 PUSH1 0x1 PUSH1 0xA0 SHL SUB AND PUSH4 0x70A08231 ADDRESS PUSH1 0x40 MLOAD DUP3 PUSH4 0xFFFFFFFF AND PUSH1 0xE0 SHL DUP2 MSTORE PUSH1 0x4 ADD DUP1 DUP3 PUSH1 0x1 PUSH1 0x1 PUSH1 0xA0 SHL SUB AND DUP2 MSTORE PUSH1 0x20 ADD SWAP2 POP POP PUSH1 0x20 PUSH1 0x40 MLOAD DUP1 DUP4 SUB DUP2 DUP7 DUP1 EXTCODESIZE ISZERO DUP1 ISZERO PUSH2 0x294E JUMPI PUSH1 0x0 DUP1 REVERT JUMPDEST POP GAS STATICCALL ISZERO DUP1 ISZERO PUSH2 0x2962 JUMPI RETURNDATASIZE PUSH1 0x0 DUP1 RETURNDATACOPY RETURNDATASIZE PUSH1 0x0 REVERT JUMPDEST POP POP POP POP PUSH1 0x40 MLOAD RETURNDATASIZE PUSH1 0x20 DUP2 LT ISZERO PUSH2 0x2978 JUMPI PUSH1 0x0 DUP1 REVERT JUMPDEST POP MLOAD SWAP1 PUSH2 0x2AAD JUMP JUMPDEST SWAP1 POP PUSH20 0x917FB15E8AAA12264DCBDC15AFEF7CD3CE76BA39 PUSH1 0x1 PUSH1 0x1 PUSH1 0xA0 SHL SUB AND PUSH4 0x1E2720FF DUP3 PUSH1 0x40 MLOAD DUP3 PUSH4 0xFFFFFFFF AND PUSH1 0xE0 SHL DUP2 MSTORE PUSH1 0x4 ADD DUP1 DUP3 DUP2 MSTORE PUSH1 0x20 ADD SWAP2 POP POP PUSH1 0x20 PUSH1 0x40 MLOAD DUP1 DUP4 SUB DUP2 PUSH1 0x0 DUP8 DUP1 EXTCODESIZE ISZERO DUP1 ISZERO PUSH2 0x29DC JUMPI PUSH1 0x0 DUP1 REVERT JUMPDEST POP GAS CALL ISZERO DUP1 ISZERO PUSH2 0x29F0 JUMPI RETURNDATASIZE PUSH1 0x0 DUP1 RETURNDATACOPY RETURNDATASIZE PUSH1 0x0 REVERT JUMPDEST POP POP POP POP PUSH1 0x40 MLOAD RETURNDATASIZE PUSH1 0x20 DUP2 LT ISZERO PUSH2 0x2A06 JUMPI PUSH1 0x0 DUP1 REVERT JUMPDEST POP PUSH2 0x2A13 SWAP1 POP DUP6 DUP5 PUSH2 0x2AAD JUMP JUMPDEST SWAP6 SWAP5 POP POP POP POP POP JUMP JUMPDEST PUSH1 0xD SLOAD PUSH1 0x0 SWAP1 ISZERO PUSH2 0x27D2 JUMPI PUSH1 0x0 PUSH2 0x2A44 PUSH2 0x2710 PUSH2 0xB18 PUSH1 0xD SLOAD DUP7 PUSH2 0x2264 SWAP1 SWAP2 SWAP1 PUSH4 0xFFFFFFFF AND JUMP JUMPDEST SWAP1 POP PUSH2 0x27C4 DUP2 PUSH1 0x14 DUP1 SLOAD DUP1 PUSH1 0x20 MUL PUSH1 0x20 ADD PUSH1 0x40 MLOAD SWAP1 DUP2 ADD PUSH1 0x40 MSTORE DUP1 SWAP3 SWAP2 SWAP1 DUP2 DUP2 MSTORE PUSH1 0x20 ADD DUP3 DUP1 SLOAD DUP1 ISZERO PUSH2 0x2AA0 JUMPI PUSH1 0x20 MUL DUP3 ADD SWAP2 SWAP1 PUSH1 0x0 MSTORE PUSH1 0x20 PUSH1 0x0 KECCAK256 SWAP1 JUMPDEST DUP2 SLOAD PUSH1 0x1 PUSH1 0x1 PUSH1 0xA0 SHL SUB AND DUP2 MSTORE PUSH1 0x1 SWAP1 SWAP2 ADD SWAP1 PUSH1 0x20 ADD DUP1 DUP4 GT PUSH2 0x2A82 JUMPI JUMPDEST POP POP POP POP POP PUSH2 0xDEAD PUSH2 0x2324 JUMP JUMPDEST PUSH1 0x0 DUP3 DUP3 GT ISZERO PUSH2 0x2B04 JUMPI PUSH1 0x40 DUP1 MLOAD PUSH3 0x461BCD PUSH1 0xE5 SHL DUP2 MSTORE PUSH1 0x20 PUSH1 0x4 DUP3 ADD MSTORE PUSH1 0x1E PUSH1 0x24 DUP3 ADD MSTORE PUSH32 0x536166654D6174683A207375627472616374696F6E206F766572666C6F770000 PUSH1 0x44 DUP3 ADD MSTORE SWAP1 MLOAD SWAP1 DUP2 SWAP1 SUB PUSH1 0x64 ADD SWAP1 REVERT JUMPDEST POP SWAP1 SUB SWAP1 JUMP JUMPDEST PUSH1 0x1B SLOAD PUSH1 0x1C SLOAD PUSH1 0x40 DUP1 MLOAD PUSH4 0x441A3E7 PUSH1 0xE4 SHL DUP2 MSTORE PUSH1 0x4 DUP2 ADD SWAP3 SWAP1 SWAP3 MSTORE PUSH1 0x24 DUP3 ADD DUP5 SWAP1 MSTORE MLOAD PUSH1 0x1 PUSH1 0x1 PUSH1 0xA0 SHL SUB SWAP1 SWAP3 AND SWAP2 PUSH4 0x441A3E70 SWAP2 PUSH1 0x44 DUP1 DUP3 ADD SWAP3 PUSH1 0x0 SWAP3 SWAP1 SWAP2 SWAP1 DUP3 SWAP1 SUB ADD DUP2 DUP4 DUP8 DUP1 EXTCODESIZE ISZERO DUP1 ISZERO PUSH2 0x2B61 JUMPI PUSH1 0x0 DUP1 REVERT JUMPDEST POP GAS CALL ISZERO DUP1 ISZERO PUSH2 0x2B75 JUMPI RETURNDATASIZE PUSH1 0x0 DUP1 RETURNDATACOPY RETURNDATASIZE PUSH1 0x0 REVERT JUMPDEST POP POP POP POP POP JUMP JUMPDEST PUSH1 0x0 DUP1 DUP3 GT PUSH2 0x2BC4 JUMPI PUSH1 0x40 DUP1 MLOAD PUSH3 0x461BCD PUSH1 0xE5 SHL DUP2 MSTORE PUSH1 0x20 PUSH1 0x4 DUP3 ADD MSTORE PUSH1 0xF PUSH1 0x24 DUP3 ADD MSTORE PUSH15 0x6365696C446976206279207A65726F PUSH1 0x88 SHL PUSH1 0x44 DUP3 ADD MSTORE SWAP1 MLOAD SWAP1 DUP2 SWAP1 SUB PUSH1 0x64 ADD SWAP1 REVERT JUMPDEST DUP2 DUP4 DUP2 PUSH2 0x2BCD JUMPI INVALID JUMPDEST MOD ISZERO PUSH2 0x2BDA JUMPI PUSH1 0x1 PUSH2 0x2BDD JUMP JUMPDEST PUSH1 0x0 JUMPDEST PUSH1 0xFF AND DUP3 DUP5 DUP2 PUSH2 0x2BE9 JUMPI INVALID JUMPDEST DIV ADD SWAP4 SWAP3 POP POP POP JUMP JUMPDEST PUSH1 0x40 DUP1 MLOAD PUSH1 0x1 PUSH1 0x1 PUSH1 0xA0 SHL SUB DUP5 AND PUSH1 0x24 DUP3 ADD MSTORE PUSH1 0x44 DUP1 DUP3 ADD DUP5 SWAP1 MSTORE DUP3 MLOAD DUP1 DUP4 SUB SWAP1 SWAP2 ADD DUP2 MSTORE PUSH1 0x64 SWAP1 SWAP2 ADD SWAP1 SWAP2 MSTORE PUSH1 0x20 DUP2 ADD DUP1 MLOAD PUSH1 0x1 PUSH1 0x1 PUSH1 0xE0 SHL SUB AND PUSH4 0xA9059CBB PUSH1 0xE0 SHL OR SWAP1 MSTORE PUSH2 0x1D03 SWAP1 DUP5 SWAP1 JUMPDEST PUSH1 0x60 PUSH2 0x2C95 DUP3 PUSH1 0x40 MLOAD DUP1 PUSH1 0x40 ADD PUSH1 0x40 MSTORE DUP1 PUSH1 0x20 DUP2 MSTORE PUSH1 0x20 ADD PUSH32 0x5361666545524332303A206C6F772D6C6576656C2063616C6C206661696C6564 DUP2 MSTORE POP DUP6 PUSH1 0x1 PUSH1 0x1 PUSH1 0xA0 SHL SUB AND PUSH2 0x1E2A SWAP1 SWAP3 SWAP2 SWAP1 PUSH4 0xFFFFFFFF AND JUMP JUMPDEST DUP1 MLOAD SWAP1 SWAP2 POP ISZERO PUSH2 0x1D03 JUMPI DUP1 DUP1 PUSH1 0x20 ADD SWAP1 MLOAD PUSH1 0x20 DUP2 LT ISZERO PUSH2 0x2CB4 JUMPI PUSH1 0x0 DUP1 REVERT JUMPDEST POP MLOAD PUSH2 0x1D03 JUMPI PUSH1 0x40 MLOAD PUSH3 0x461BCD PUSH1 0xE5 SHL DUP2 MSTORE PUSH1 0x4 ADD DUP1 DUP1 PUSH1 0x20 ADD DUP3 DUP2 SUB DUP3 MSTORE PUSH1 0x2A DUP2 MSTORE PUSH1 0x20 ADD DUP1 PUSH2 0x31C2 PUSH1 0x2A SWAP2 CODECOPY PUSH1 0x40 ADD SWAP2 POP POP PUSH1 0x40 MLOAD DUP1 SWAP2 SUB SWAP1 REVERT JUMPDEST PUSH1 0x60 DUP3 SELFBALANCE LT ISZERO PUSH2 0x2D32 JUMPI PUSH1 0x40 MLOAD PUSH3 0x461BCD PUSH1 0xE5 SHL DUP2 MSTORE PUSH1 0x4 ADD DUP1 DUP1 PUSH1 0x20 ADD DUP3 DUP2 SUB DUP3 MSTORE PUSH1 0x26 DUP2 MSTORE PUSH1 0x20 ADD DUP1 PUSH2 0x315B PUSH1 0x26 SWAP2 CODECOPY PUSH1 0x40 ADD SWAP2 POP POP PUSH1 0x40 MLOAD DUP1 SWAP2 SUB SWAP1 REVERT JUMPDEST PUSH2 0x2D3B DUP6 PUSH2 0x306A JUMP JUMPDEST PUSH2 0x2D8C JUMPI PUSH1 0x40 DUP1 MLOAD PUSH3 0x461BCD PUSH1 0xE5 SHL DUP2 MSTORE PUSH1 0x20 PUSH1 0x4 DUP3 ADD MSTORE PUSH1 0x1D PUSH1 0x24 DUP3 ADD MSTORE PUSH32 0x416464726573733A2063616C6C20746F206E6F6E2D636F6E7472616374000000 PUSH1 0x44 DUP3 ADD MSTORE SWAP1 MLOAD SWAP1 DUP2 SWAP1 SUB PUSH1 0x64 ADD SWAP1 REVERT JUMPDEST PUSH1 0x0 PUSH1 0x60 DUP7 PUSH1 0x1 PUSH1 0x1 PUSH1 0xA0 SHL SUB AND DUP6 DUP8 PUSH1 0x40 MLOAD DUP1 DUP3 DUP1 MLOAD SWAP1 PUSH1 0x20 ADD SWAP1 DUP1 DUP4 DUP4 JUMPDEST PUSH1 0x20 DUP4 LT PUSH2 0x2DCB JUMPI DUP1 MLOAD DUP3 MSTORE PUSH1 0x1F NOT SWAP1 SWAP3 ADD SWAP2 PUSH1 0x20 SWAP2 DUP3 ADD SWAP2 ADD PUSH2 0x2DAC JUMP JUMPDEST PUSH1 0x1 DUP4 PUSH1 0x20 SUB PUSH2 0x100 EXP SUB DUP1 NOT DUP3 MLOAD AND DUP2 DUP5 MLOAD AND DUP1 DUP3 OR DUP6 MSTORE POP POP POP POP POP POP SWAP1 POP ADD SWAP2 POP POP PUSH1 0x0 PUSH1 0x40 MLOAD DUP1 DUP4 SUB DUP2 DUP6 DUP8 GAS CALL SWAP3 POP POP POP RETURNDATASIZE DUP1 PUSH1 0x0 DUP2 EQ PUSH2 0x2E2D JUMPI PUSH1 0x40 MLOAD SWAP2 POP PUSH1 0x1F NOT PUSH1 0x3F RETURNDATASIZE ADD AND DUP3 ADD PUSH1 0x40 MSTORE RETURNDATASIZE DUP3 MSTORE RETURNDATASIZE PUSH1 0x0 PUSH1 0x20 DUP5 ADD RETURNDATACOPY PUSH2 0x2E32 JUMP JUMPDEST PUSH1 0x60 SWAP2 POP JUMPDEST POP SWAP2 POP SWAP2 POP PUSH2 0x2E42 DUP3 DUP3 DUP7 PUSH2 0x3070 JUMP JUMPDEST SWAP8 SWAP7 POP POP POP POP POP POP POP JUMP JUMPDEST PUSH1 0x1B SLOAD PUSH1 0x1C SLOAD PUSH1 0x40 DUP1 MLOAD PUSH4 0x1C57762B PUSH1 0xE3 SHL DUP2 MSTORE PUSH1 0x4 DUP2 ADD SWAP3 SWAP1 SWAP3 MSTORE PUSH1 0x24 DUP3 ADD DUP5 SWAP1 MSTORE MLOAD PUSH1 0x1 PUSH1 0x1 PUSH1 0xA0 SHL SUB SWAP1 SWAP3 AND SWAP2 PUSH4 0xE2BBB158 SWAP2 PUSH1 0x44 DUP1 DUP3 ADD SWAP3 PUSH1 0x0 SWAP3 SWAP1 SWAP2 SWAP1 DUP3 SWAP1 SUB ADD DUP2 DUP4 DUP8 DUP1 EXTCODESIZE ISZERO DUP1 ISZERO PUSH2 0x2B61 JUMPI PUSH1 0x0 DUP1 REVERT JUMPDEST PUSH1 0x6 SLOAD PUSH1 0x40 DUP1 MLOAD PUSH4 0xD06CA61F PUSH1 0xE0 SHL DUP2 MSTORE PUSH1 0x4 DUP2 ADD DUP7 DUP2 MSTORE PUSH1 0x24 DUP3 ADD SWAP3 DUP4 MSTORE DUP6 MLOAD PUSH1 0x44 DUP4 ADD MSTORE DUP6 MLOAD PUSH1 0x60 SWAP5 PUSH1 0x1 PUSH1 0x1 PUSH1 0xA0 SHL SUB AND SWAP4 PUSH4 0xD06CA61F SWAP4 DUP10 SWAP4 DUP10 SWAP4 SWAP1 SWAP3 SWAP2 PUSH1 0x64 ADD SWAP1 PUSH1 0x20 DUP1 DUP7 ADD SWAP2 MUL DUP1 DUP4 DUP4 PUSH1 0x0 JUMPDEST DUP4 DUP2 LT ISZERO PUSH2 0x2F0F JUMPI DUP2 DUP2 ADD MLOAD DUP4 DUP3 ADD MSTORE PUSH1 0x20 ADD PUSH2 0x2EF7 JUMP JUMPDEST POP POP POP POP SWAP1 POP ADD SWAP4 POP POP POP POP PUSH1 0x0 PUSH1 0x40 MLOAD DUP1 DUP4 SUB DUP2 DUP7 DUP1 EXTCODESIZE ISZERO DUP1 ISZERO PUSH2 0x2F33 JUMPI PUSH1 0x0 DUP1 REVERT JUMPDEST POP GAS STATICCALL ISZERO DUP1 ISZERO PUSH2 0x2F47 JUMPI RETURNDATASIZE PUSH1 0x0 DUP1 RETURNDATACOPY RETURNDATASIZE PUSH1 0x0 REVERT JUMPDEST POP POP POP POP PUSH1 0x40 MLOAD RETURNDATASIZE PUSH1 0x0 DUP3 RETURNDATACOPY PUSH1 0x1F RETURNDATASIZE SWAP1 DUP2 ADD PUSH1 0x1F NOT AND DUP3 ADD PUSH1 0x40 MSTORE PUSH1 0x20 DUP2 LT ISZERO PUSH2 0x2F70 JUMPI PUSH1 0x0 DUP1 REVERT JUMPDEST DUP2 ADD SWAP1 DUP1 DUP1 MLOAD PUSH1 0x40 MLOAD SWAP4 SWAP3 SWAP2 SWAP1 DUP5 PUSH5 0x100000000 DUP3 GT ISZERO PUSH2 0x2F90 JUMPI PUSH1 0x0 DUP1 REVERT JUMPDEST SWAP1 DUP4 ADD SWAP1 PUSH1 0x20 DUP3 ADD DUP6 DUP2 GT ISZERO PUSH2 0x2FA5 JUMPI PUSH1 0x0 DUP1 REVERT JUMPDEST DUP3 MLOAD DUP7 PUSH1 0x20 DUP3 MUL DUP4 ADD GT PUSH5 0x100000000 DUP3 GT OR ISZERO PUSH2 0x2FC2 JUMPI PUSH1 0x0 DUP1 REVERT JUMPDEST DUP3 MSTORE POP DUP2 MLOAD PUSH1 0x20 SWAP2 DUP3 ADD SWAP3 DUP3 ADD SWAP2 MUL DUP1 DUP4 DUP4 PUSH1 0x0 JUMPDEST DUP4 DUP2 LT ISZERO PUSH2 0x2FEF JUMPI DUP2 DUP2 ADD MLOAD DUP4 DUP3 ADD MSTORE PUSH1 0x20 ADD PUSH2 0x2FD7 JUMP JUMPDEST POP POP POP POP SWAP1 POP ADD PUSH1 0x40 MSTORE POP POP POP SWAP1 POP PUSH1 0x0 DUP2 PUSH2 0x3016 PUSH1 0x1 DUP5 MLOAD PUSH2 0x2AAD SWAP1 SWAP2 SWAP1 PUSH4 0xFFFFFFFF AND JUMP JUMPDEST DUP2 MLOAD DUP2 LT PUSH2 0x3020 JUMPI INVALID JUMPDEST PUSH1 0x20 MUL PUSH1 0x20 ADD ADD MLOAD SWAP1 POP PUSH1 0x6 PUSH1 0x0 SWAP1 SLOAD SWAP1 PUSH2 0x100 EXP SWAP1 DIV PUSH1 0x1 PUSH1 0x1 PUSH1 0xA0 SHL SUB AND PUSH1 0x1 PUSH1 0x1 PUSH1 0xA0 SHL SUB AND PUSH4 0x18CBAFE5 DUP7 PUSH2 0x2553 PUSH2 0x3E8 PUSH2 0xB18 PUSH1 0xF SLOAD DUP8 PUSH2 0x2264 SWAP1 SWAP2 SWAP1 PUSH4 0xFFFFFFFF AND JUMP JUMPDEST EXTCODESIZE ISZERO ISZERO SWAP1 JUMP JUMPDEST PUSH1 0x60 DUP4 ISZERO PUSH2 0x307F JUMPI POP DUP2 PUSH2 0x1E3C JUMP JUMPDEST DUP3 MLOAD ISZERO PUSH2 0x308F JUMPI DUP3 MLOAD DUP1 DUP5 PUSH1 0x20 ADD REVERT JUMPDEST DUP2 PUSH1 0x40 MLOAD PUSH3 0x461BCD PUSH1 0xE5 SHL DUP2 MSTORE PUSH1 0x4 ADD DUP1 DUP1 PUSH1 0x20 ADD DUP3 DUP2 SUB DUP3 MSTORE DUP4 DUP2 DUP2 MLOAD DUP2 MSTORE PUSH1 0x20 ADD SWAP2 POP DUP1 MLOAD SWAP1 PUSH1 0x20 ADD SWAP1 DUP1 DUP4 DUP4 PUSH1 0x0 JUMPDEST DUP4 DUP2 LT ISZERO PUSH2 0x30D9 JUMPI DUP2 DUP2 ADD MLOAD DUP4 DUP3 ADD MSTORE PUSH1 0x20 ADD PUSH2 0x30C1 JUMP JUMPDEST POP POP POP POP SWAP1 POP SWAP1 DUP2 ADD SWAP1 PUSH1 0x1F AND DUP1 ISZERO PUSH2 0x3106 JUMPI DUP1 DUP3 SUB DUP1 MLOAD PUSH1 0x1 DUP4 PUSH1 0x20 SUB PUSH2 0x100 EXP SUB NOT AND DUP2 MSTORE PUSH1 0x20 ADD SWAP2 POP JUMPDEST POP SWAP3 POP POP POP PUSH1 0x40 MLOAD DUP1 SWAP2 SUB SWAP1 REVERT INVALID MSTORE PUSH6 0x656E7472616E PUSH4 0x79477561 PUSH19 0x643A207265656E7472616E742063616C6C004F PUSH24 0x6E61626C653A206E6577206F776E65722069732074686520 PUSH27 0x65726F2061646472657373416464726573733A20696E7375666669 PUSH4 0x69656E74 KECCAK256 PUSH3 0x616C61 PUSH15 0x636520666F722063616C6C53616665 0x4D PUSH2 0x7468 GASPRICE KECCAK256 PUSH14 0x756C7469706C69636174696F6E20 PUSH16 0x766572666C6F774F776E61626C653A20 PUSH4 0x616C6C65 PUSH19 0x206973206E6F7420746865206F776E65725361 PUSH7 0x6545524332303A KECCAK256 GASLIMIT MSTORE NUMBER ORIGIN ADDRESS KECCAK256 PUSH16 0x7065726174696F6E20646964206E6F74 KECCAK256 PUSH20 0x7563636565645361666545524332303A20617070 PUSH19 0x6F76652066726F6D206E6F6E2D7A65726F2074 PUSH16 0x206E6F6E2D7A65726F20616C6C6F7761 PUSH15 0x6365A264697066735822122019FFA4 0xDE 0x2B 0xCD DUP7 PUSH26 0x6B2FDBB24B5F3323D92B1EAF05FCE414E7450E423CB296146473 PUSH16 0x6C634300060C00334F776E61626C653A KECCAK256 PUSH15 0x6577206F776E657220697320746865 KECCAK256 PUSH27 0x65726F2061646472657373416464726573733A20696E7375666669 PUSH4 0x69656E74 KECCAK256 PUSH3 0x616C61 PUSH15 0x636520666F722063616C6C8BE0079C MSTORE8 AND MSIZE EQ SGT DIFFICULTY 0xCD 0x1F 0xD0 LOG4 CALLCODE DUP5 NOT 0x49 PUSH32 0x9722A3DAAFE3B4186F6B6457E05361666545524332303A204552433230206F70 PUSH6 0x726174696F6E KECCAK256 PUSH5 0x6964206E6F PUSH21 0x20737563636565645361666545524332303A206170 PUSH17 0x726F76652066726F6D206E6F6E2D7A6572 PUSH16 0x20746F206E6F6E2D7A65726F20616C6C PUSH16 0x77616E63650000000000000000000000 "
		},
		"gasEstimates": {
			"creation": {
				"codeDepositCost": "2577400",
				"executionCost": "infinite",
				"totalCost": "infinite"
			},
			"external": {
				"burnedAmount()": "1088",
				"buyBackAddress()": "330",
				"buyBackRate()": "1089",
				"controllerFee()": "1066",
				"convertDustToEarned()": "infinite",
				"deposit(address,uint256)": "infinite",
				"earn()": "infinite",
				"earnedAddress()": "1104",
				"earnedToFishPath(uint256)": "2082",
				"earnedToMaxiPath(uint256)": "2105",
				"earnedToToken0Path(uint256)": "2060",
				"earnedToToken1Path(uint256)": "2082",
				"earnedToUsdcPath(uint256)": "2038",
				"earnedToWmaticPath(uint256)": "2083",
				"feeAddress()": "309",
				"feeMax()": "330",
				"feeMaxTotal()": "288",
				"fishAddress()": "286",
				"govAddress()": "1106",
				"lastEarnBlock()": "1067",
				"masterchefAddress()": "1105",
				"maxiAddress()": "1126",
				"owner()": "1105",
				"panic()": "infinite",
				"pause()": "23905",
				"paused()": "1122",
				"pid()": "1109",
				"renounceOwnership()": "infinite",
				"resetAllowances()": "infinite",
				"rewardAddress()": "353",
				"rewardRate()": "1067",
				"setGov(address)": "22025",
				"setSettings(uint256,uint256,uint256,uint256,uint256,uint256,address)": "infinite",
				"sharesTotal()": "1132",
				"slippageFactor()": "1108",
				"slippageFactorUL()": "309",
				"stratType()": "1121",
				"token0Address()": "1128",
				"token0ToEarnedPath(uint256)": "2103",
				"token1Address()": "1148",
				"token1ToEarnedPath(uint256)": "2040",
				"tolerance()": "1131",
				"transferOwnership(address)": "infinite",
				"uniRouterAddress()": "1149",
				"unpanic()": "infinite",
				"unpause()": "infinite",
				"usdcAddress()": "311",
				"vaultChefAddress()": "1106",
				"vaultSharesTotal()": "infinite",
				"wantAddress()": "1137",
				"wantLockedTotal()": "infinite",
				"withdraw(address,uint256)": "infinite",
				"withdrawFeeAddress()": "352",
				"withdrawFeeFactor()": "1088",
				"withdrawFeeFactorLL()": "288",
				"withdrawFeeFactorMax()": "266"
			},
			"internal": {
				"_emergencyVaultWithdraw()": "infinite",
				"_resetAllowances()": "infinite",
				"_vaultDeposit(uint256)": "infinite",
				"_vaultHarvest()": "infinite",
				"_vaultWithdraw(uint256)": "infinite"
			}
		},
		"methodIdentifiers": {
			"burnedAmount()": "50e15fdd",
			"buyBackAddress()": "783478ad",
			"buyBackRate()": "178a8d07",
			"controllerFee()": "85f02dd6",
			"convertDustToEarned()": "c11c2e92",
			"deposit(address,uint256)": "47e7ef24",
			"earn()": "d389800f",
			"earnedAddress()": "e7198474",
			"earnedToFishPath(uint256)": "8811dad0",
			"earnedToMaxiPath(uint256)": "30f6cf63",
			"earnedToToken0Path(uint256)": "c8e3d18b",
			"earnedToToken1Path(uint256)": "96e9aff8",
			"earnedToUsdcPath(uint256)": "49281683",
			"earnedToWmaticPath(uint256)": "260ab48c",
			"feeAddress()": "41275358",
			"feeMax()": "ffbe9f1e",
			"feeMaxTotal()": "8fefda06",
			"fishAddress()": "9872317f",
			"govAddress()": "46008a07",
			"lastEarnBlock()": "0fa4e01e",
			"masterchefAddress()": "40c34b58",
			"maxiAddress()": "d62e969d",
			"owner()": "8da5cb5b",
			"panic()": "4700d305",
			"pause()": "8456cb59",
			"paused()": "5c975abb",
			"pid()": "f1068454",
			"renounceOwnership()": "715018a6",
			"resetAllowances()": "3505b09f",
			"rewardAddress()": "8cf57cb9",
			"rewardRate()": "7b0a47ee",
			"setGov(address)": "cfad57a2",
			"setSettings(uint256,uint256,uint256,uint256,uint256,uint256,address)": "b02381c6",
			"sharesTotal()": "44a3955e",
			"slippageFactor()": "ffbd3b1f",
			"slippageFactorUL()": "b74cd242",
			"stratType()": "7115e9fa",
			"token0Address()": "7ff36fbe",
			"token0ToEarnedPath(uint256)": "b77050e7",
			"token1Address()": "d7cb416f",
			"token1ToEarnedPath(uint256)": "007a2ae3",
			"tolerance()": "dce52dfa",
			"transferOwnership(address)": "f2fde38b",
			"uniRouterAddress()": "693a090b",
			"unpanic()": "65a5e30b",
			"unpause()": "3f4ba83a",
			"usdcAddress()": "02d45457",
			"vaultChefAddress()": "3220d732",
			"vaultSharesTotal()": "04c9d490",
			"wantAddress()": "e7a03679",
			"wantLockedTotal()": "42da4eb3",
			"withdraw(address,uint256)": "f3fef3a3",
			"withdrawFeeAddress()": "784def8c",
			"withdrawFeeFactor()": "68f54162",
			"withdrawFeeFactorLL()": "866b2018",
			"withdrawFeeFactorMax()": "67057b6c"
		}
	},
	"abi": [
		{
			"inputs": [
				{
					"internalType": "address",
					"name": "_vaultChefAddress",
					"type": "address"
				},
				{
					"internalType": "address",
					"name": "_masterchefAddress",
					"type": "address"
				},
				{
					"internalType": "address",
					"name": "_uniRouterAddress",
					"type": "address"
				},
				{
					"internalType": "uint256",
					"name": "_pid",
					"type": "uint256"
				},
				{
					"internalType": "address",
					"name": "_wantAddress",
					"type": "address"
				},
				{
					"internalType": "address",
					"name": "_earnedAddress",
					"type": "address"
				},
				{
					"internalType": "uint256",
					"name": "_tolerance",
					"type": "uint256"
				},
				{
					"internalType": "address[]",
					"name": "_earnedToWmaticPath",
					"type": "address[]"
				},
				{
					"internalType": "address[]",
					"name": "_earnedToUsdcPath",
					"type": "address[]"
				},
				{
					"internalType": "address[]",
					"name": "_earnedToFishPath",
					"type": "address[]"
				},
				{
					"internalType": "address[]",
					"name": "_earnedToMaxiPath",
					"type": "address[]"
				}
			],
			"stateMutability": "nonpayable",
			"type": "constructor"
		},
		{
			"anonymous": false,
			"inputs": [
				{
					"indexed": true,
					"internalType": "address",
					"name": "previousOwner",
					"type": "address"
				},
				{
					"indexed": true,
					"internalType": "address",
					"name": "newOwner",
					"type": "address"
				}
			],
			"name": "OwnershipTransferred",
			"type": "event"
		},
		{
			"anonymous": false,
			"inputs": [
				{
					"indexed": false,
					"internalType": "address",
					"name": "account",
					"type": "address"
				}
			],
			"name": "Paused",
			"type": "event"
		},
		{
			"anonymous": false,
			"inputs": [
				{
					"indexed": false,
					"internalType": "uint256",
					"name": "_controllerFee",
					"type": "uint256"
				},
				{
					"indexed": false,
					"internalType": "uint256",
					"name": "_rewardRate",
					"type": "uint256"
				},
				{
					"indexed": false,
					"internalType": "uint256",
					"name": "_buyBackRate",
					"type": "uint256"
				},
				{
					"indexed": false,
					"internalType": "uint256",
					"name": "_withdrawFeeFactor",
					"type": "uint256"
				},
				{
					"indexed": false,
					"internalType": "uint256",
					"name": "_slippageFactor",
					"type": "uint256"
				},
				{
					"indexed": false,
					"internalType": "uint256",
					"name": "_tolerance",
					"type": "uint256"
				},
				{
					"indexed": false,
					"internalType": "address",
					"name": "_uniRouterAddress",
					"type": "address"
				}
			],
			"name": "SetSettings",
			"type": "event"
		},
		{
			"anonymous": false,
			"inputs": [
				{
					"indexed": false,
					"internalType": "address",
					"name": "account",
					"type": "address"
				}
			],
			"name": "Unpaused",
			"type": "event"
		},
		{
			"inputs": [],
			"name": "burnedAmount",
			"outputs": [
				{
					"internalType": "uint256",
					"name": "",
					"type": "uint256"
				}
			],
			"stateMutability": "view",
			"type": "function"
		},
		{
			"inputs": [],
			"name": "buyBackAddress",
			"outputs": [
				{
					"internalType": "address",
					"name": "",
					"type": "address"
				}
			],
			"stateMutability": "view",
			"type": "function"
		},
		{
			"inputs": [],
			"name": "buyBackRate",
			"outputs": [
				{
					"internalType": "uint256",
					"name": "",
					"type": "uint256"
				}
			],
			"stateMutability": "view",
			"type": "function"
		},
		{
			"inputs": [],
			"name": "controllerFee",
			"outputs": [
				{
					"internalType": "uint256",
					"name": "",
					"type": "uint256"
				}
			],
			"stateMutability": "view",
			"type": "function"
		},
		{
			"inputs": [],
			"name": "convertDustToEarned",
			"outputs": [],
			"stateMutability": "nonpayable",
			"type": "function"
		},
		{
			"inputs": [
				{
					"internalType": "address",
					"name": "_userAddress",
					"type": "address"
				},
				{
					"internalType": "uint256",
					"name": "_wantAmt",
					"type": "uint256"
				}
			],
			"name": "deposit",
			"outputs": [
				{
					"internalType": "uint256",
					"name": "",
					"type": "uint256"
				}
			],
			"stateMutability": "nonpayable",
			"type": "function"
		},
		{
			"inputs": [],
			"name": "earn",
			"outputs": [],
			"stateMutability": "nonpayable",
			"type": "function"
		},
		{
			"inputs": [],
			"name": "earnedAddress",
			"outputs": [
				{
					"internalType": "address",
					"name": "",
					"type": "address"
				}
			],
			"stateMutability": "view",
			"type": "function"
		},
		{
			"inputs": [
				{
					"internalType": "uint256",
					"name": "",
					"type": "uint256"
				}
			],
			"name": "earnedToFishPath",
			"outputs": [
				{
					"internalType": "address",
					"name": "",
					"type": "address"
				}
			],
			"stateMutability": "view",
			"type": "function"
		},
		{
			"inputs": [
				{
					"internalType": "uint256",
					"name": "",
					"type": "uint256"
				}
			],
			"name": "earnedToMaxiPath",
			"outputs": [
				{
					"internalType": "address",
					"name": "",
					"type": "address"
				}
			],
			"stateMutability": "view",
			"type": "function"
		},
		{
			"inputs": [
				{
					"internalType": "uint256",
					"name": "",
					"type": "uint256"
				}
			],
			"name": "earnedToToken0Path",
			"outputs": [
				{
					"internalType": "address",
					"name": "",
					"type": "address"
				}
			],
			"stateMutability": "view",
			"type": "function"
		},
		{
			"inputs": [
				{
					"internalType": "uint256",
					"name": "",
					"type": "uint256"
				}
			],
			"name": "earnedToToken1Path",
			"outputs": [
				{
					"internalType": "address",
					"name": "",
					"type": "address"
				}
			],
			"stateMutability": "view",
			"type": "function"
		},
		{
			"inputs": [
				{
					"internalType": "uint256",
					"name": "",
					"type": "uint256"
				}
			],
			"name": "earnedToUsdcPath",
			"outputs": [
				{
					"internalType": "address",
					"name": "",
					"type": "address"
				}
			],
			"stateMutability": "view",
			"type": "function"
		},
		{
			"inputs": [
				{
					"internalType": "uint256",
					"name": "",
					"type": "uint256"
				}
			],
			"name": "earnedToWmaticPath",
			"outputs": [
				{
					"internalType": "address",
					"name": "",
					"type": "address"
				}
			],
			"stateMutability": "view",
			"type": "function"
		},
		{
			"inputs": [],
			"name": "feeAddress",
			"outputs": [
				{
					"internalType": "address",
					"name": "",
					"type": "address"
				}
			],
			"stateMutability": "view",
			"type": "function"
		},
		{
			"inputs": [],
			"name": "feeMax",
			"outputs": [
				{
					"internalType": "uint256",
					"name": "",
					"type": "uint256"
				}
			],
			"stateMutability": "view",
			"type": "function"
		},
		{
			"inputs": [],
			"name": "feeMaxTotal",
			"outputs": [
				{
					"internalType": "uint256",
					"name": "",
					"type": "uint256"
				}
			],
			"stateMutability": "view",
			"type": "function"
		},
		{
			"inputs": [],
			"name": "fishAddress",
			"outputs": [
				{
					"internalType": "address",
					"name": "",
					"type": "address"
				}
			],
			"stateMutability": "view",
			"type": "function"
		},
		{
			"inputs": [],
			"name": "govAddress",
			"outputs": [
				{
					"internalType": "address",
					"name": "",
					"type": "address"
				}
			],
			"stateMutability": "view",
			"type": "function"
		},
		{
			"inputs": [],
			"name": "lastEarnBlock",
			"outputs": [
				{
					"internalType": "uint256",
					"name": "",
					"type": "uint256"
				}
			],
			"stateMutability": "view",
			"type": "function"
		},
		{
			"inputs": [],
			"name": "masterchefAddress",
			"outputs": [
				{
					"internalType": "address",
					"name": "",
					"type": "address"
				}
			],
			"stateMutability": "view",
			"type": "function"
		},
		{
			"inputs": [],
			"name": "maxiAddress",
			"outputs": [
				{
					"internalType": "address",
					"name": "",
					"type": "address"
				}
			],
			"stateMutability": "view",
			"type": "function"
		},
		{
			"inputs": [],
			"name": "owner",
			"outputs": [
				{
					"internalType": "address",
					"name": "",
					"type": "address"
				}
			],
			"stateMutability": "view",
			"type": "function"
		},
		{
			"inputs": [],
			"name": "panic",
			"outputs": [],
			"stateMutability": "nonpayable",
			"type": "function"
		},
		{
			"inputs": [],
			"name": "pause",
			"outputs": [],
			"stateMutability": "nonpayable",
			"type": "function"
		},
		{
			"inputs": [],
			"name": "paused",
			"outputs": [
				{
					"internalType": "bool",
					"name": "",
					"type": "bool"
				}
			],
			"stateMutability": "view",
			"type": "function"
		},
		{
			"inputs": [],
			"name": "pid",
			"outputs": [
				{
					"internalType": "uint256",
					"name": "",
					"type": "uint256"
				}
			],
			"stateMutability": "view",
			"type": "function"
		},
		{
			"inputs": [],
			"name": "renounceOwnership",
			"outputs": [],
			"stateMutability": "nonpayable",
			"type": "function"
		},
		{
			"inputs": [],
			"name": "resetAllowances",
			"outputs": [],
			"stateMutability": "nonpayable",
			"type": "function"
		},
		{
			"inputs": [],
			"name": "rewardAddress",
			"outputs": [
				{
					"internalType": "address",
					"name": "",
					"type": "address"
				}
			],
			"stateMutability": "view",
			"type": "function"
		},
		{
			"inputs": [],
			"name": "rewardRate",
			"outputs": [
				{
					"internalType": "uint256",
					"name": "",
					"type": "uint256"
				}
			],
			"stateMutability": "view",
			"type": "function"
		},
		{
			"inputs": [
				{
					"internalType": "address",
					"name": "_govAddress",
					"type": "address"
				}
			],
			"name": "setGov",
			"outputs": [],
			"stateMutability": "nonpayable",
			"type": "function"
		},
		{
			"inputs": [
				{
					"internalType": "uint256",
					"name": "_controllerFee",
					"type": "uint256"
				},
				{
					"internalType": "uint256",
					"name": "_rewardRate",
					"type": "uint256"
				},
				{
					"internalType": "uint256",
					"name": "_buyBackRate",
					"type": "uint256"
				},
				{
					"internalType": "uint256",
					"name": "_withdrawFeeFactor",
					"type": "uint256"
				},
				{
					"internalType": "uint256",
					"name": "_slippageFactor",
					"type": "uint256"
				},
				{
					"internalType": "uint256",
					"name": "_tolerance",
					"type": "uint256"
				},
				{
					"internalType": "address",
					"name": "_uniRouterAddress",
					"type": "address"
				}
			],
			"name": "setSettings",
			"outputs": [],
			"stateMutability": "nonpayable",
			"type": "function"
		},
		{
			"inputs": [],
			"name": "sharesTotal",
			"outputs": [
				{
					"internalType": "uint256",
					"name": "",
					"type": "uint256"
				}
			],
			"stateMutability": "view",
			"type": "function"
		},
		{
			"inputs": [],
			"name": "slippageFactor",
			"outputs": [
				{
					"internalType": "uint256",
					"name": "",
					"type": "uint256"
				}
			],
			"stateMutability": "view",
			"type": "function"
		},
		{
			"inputs": [],
			"name": "slippageFactorUL",
			"outputs": [
				{
					"internalType": "uint256",
					"name": "",
					"type": "uint256"
				}
			],
			"stateMutability": "view",
			"type": "function"
		},
		{
			"inputs": [],
			"name": "stratType",
			"outputs": [
				{
					"internalType": "enum BaseStrategy.StratType",
					"name": "",
					"type": "uint8"
				}
			],
			"stateMutability": "view",
			"type": "function"
		},
		{
			"inputs": [],
			"name": "token0Address",
			"outputs": [
				{
					"internalType": "address",
					"name": "",
					"type": "address"
				}
			],
			"stateMutability": "view",
			"type": "function"
		},
		{
			"inputs": [
				{
					"internalType": "uint256",
					"name": "",
					"type": "uint256"
				}
			],
			"name": "token0ToEarnedPath",
			"outputs": [
				{
					"internalType": "address",
					"name": "",
					"type": "address"
				}
			],
			"stateMutability": "view",
			"type": "function"
		},
		{
			"inputs": [],
			"name": "token1Address",
			"outputs": [
				{
					"internalType": "address",
					"name": "",
					"type": "address"
				}
			],
			"stateMutability": "view",
			"type": "function"
		},
		{
			"inputs": [
				{
					"internalType": "uint256",
					"name": "",
					"type": "uint256"
				}
			],
			"name": "token1ToEarnedPath",
			"outputs": [
				{
					"internalType": "address",
					"name": "",
					"type": "address"
				}
			],
			"stateMutability": "view",
			"type": "function"
		},
		{
			"inputs": [],
			"name": "tolerance",
			"outputs": [
				{
					"internalType": "uint256",
					"name": "",
					"type": "uint256"
				}
			],
			"stateMutability": "view",
			"type": "function"
		},
		{
			"inputs": [
				{
					"internalType": "address",
					"name": "newOwner",
					"type": "address"
				}
			],
			"name": "transferOwnership",
			"outputs": [],
			"stateMutability": "nonpayable",
			"type": "function"
		},
		{
			"inputs": [],
			"name": "uniRouterAddress",
			"outputs": [
				{
					"internalType": "address",
					"name": "",
					"type": "address"
				}
			],
			"stateMutability": "view",
			"type": "function"
		},
		{
			"inputs": [],
			"name": "unpanic",
			"outputs": [],
			"stateMutability": "nonpayable",
			"type": "function"
		},
		{
			"inputs": [],
			"name": "unpause",
			"outputs": [],
			"stateMutability": "nonpayable",
			"type": "function"
		},
		{
			"inputs": [],
			"name": "usdcAddress",
			"outputs": [
				{
					"internalType": "address",
					"name": "",
					"type": "address"
				}
			],
			"stateMutability": "view",
			"type": "function"
		},
		{
			"inputs": [],
			"name": "vaultChefAddress",
			"outputs": [
				{
					"internalType": "address",
					"name": "",
					"type": "address"
				}
			],
			"stateMutability": "view",
			"type": "function"
		},
		{
			"inputs": [],
			"name": "vaultSharesTotal",
			"outputs": [
				{
					"internalType": "uint256",
					"name": "",
					"type": "uint256"
				}
			],
			"stateMutability": "view",
			"type": "function"
		},
		{
			"inputs": [],
			"name": "wantAddress",
			"outputs": [
				{
					"internalType": "address",
					"name": "",
					"type": "address"
				}
			],
			"stateMutability": "view",
			"type": "function"
		},
		{
			"inputs": [],
			"name": "wantLockedTotal",
			"outputs": [
				{
					"internalType": "uint256",
					"name": "",
					"type": "uint256"
				}
			],
			"stateMutability": "view",
			"type": "function"
		},
		{
			"inputs": [
				{
					"internalType": "address",
					"name": "_userAddress",
					"type": "address"
				},
				{
					"internalType": "uint256",
					"name": "_wantAmt",
					"type": "uint256"
				}
			],
			"name": "withdraw",
			"outputs": [
				{
					"internalType": "uint256",
					"name": "",
					"type": "uint256"
				}
			],
			"stateMutability": "nonpayable",
			"type": "function"
		},
		{
			"inputs": [],
			"name": "withdrawFeeAddress",
			"outputs": [
				{
					"internalType": "address",
					"name": "",
					"type": "address"
				}
			],
			"stateMutability": "view",
			"type": "function"
		},
		{
			"inputs": [],
			"name": "withdrawFeeFactor",
			"outputs": [
				{
					"internalType": "uint256",
					"name": "",
					"type": "uint256"
				}
			],
			"stateMutability": "view",
			"type": "function"
		},
		{
			"inputs": [],
			"name": "withdrawFeeFactorLL",
			"outputs": [
				{
					"internalType": "uint256",
					"name": "",
					"type": "uint256"
				}
			],
			"stateMutability": "view",
			"type": "function"
		},
		{
			"inputs": [],
			"name": "withdrawFeeFactorMax",
			"outputs": [
				{
					"internalType": "uint256",
					"name": "",
					"type": "uint256"
				}
			],
			"stateMutability": "view",
			"type": "function"
		}
	]
}