{
	"data": {
		"bytecode": {
			"linkReferences": {},
			"object": "6080604052600160068190556007805460ff1916909117905534801561002457600080fd5b50600160005561003333610038565b61008a565b600180546001600160a01b038381166001600160a01b0319831681179093556040519116919082907f8be0079c531659141344cd1fd0a4f28419497f9722a3daafe3b4186f6b6457e090600090a35050565b61296f806100996000396000f3fe608060405234801561001057600080fd5b50600436106101825760003560e01c80637b84daec116100d85780639b05ddb31161008c578063e2ff2f4711610066578063e2ff2f471461030f578063e718d1291461031c578063f2fde38b1461033f57600080fd5b80639b05ddb3146102e1578063d914cd4b146102e9578063e2bbb158146102fc57600080fd5b80638dbdbe6d116100bd5780638dbdbe6d146102a857806393f1a40b146102bb578063958e2d31146102ce57600080fd5b80637b84daec1461026d5780638da5cb5b1461028057600080fd5b80633505b09f1161013a5780635d142d07116101145780635d142d07146102495780636d44a3b214610252578063715018a61461026557600080fd5b80633505b09f1461021b5780633d4fc8d114610223578063441a3e701461023657600080fd5b806313e7c9d81161016b57806313e7c9d8146101b35780631526fe27146101e657806323e1ad7d1461020857600080fd5b8063081e3eda146101875780630ad58d2f1461019e575b600080fd5b6003545b6040519081526020015b60405180910390f35b6101b16101ac36600461263b565b610352565b005b6101d66101c13660046124ec565b60026020526000908152604090205460ff1681565b6040519015158152602001610195565b6101f96101f436600461259d565b61047e565b604051610195939291906126da565b6101b161021636600461259d565b6104e2565b6101b1610607565b6101b16102313660046125f4565b61074b565b6101b1610244366004612619565b61083e565b61018b60065481565b6101b1610260366004612526565b610915565b6101b1610a15565b61018b61027b3660046125cf565b610aa2565b60015460405173ffffffffffffffffffffffffffffffffffffffff9091168152602001610195565b6101b16102b636600461263b565b610c98565b61018b6102c93660046125cf565b610db3565b6101b16102dc36600461259d565b610deb565b6101b1610e6a565b6101b16102f73660046124ec565b610f0d565b6101b161030a366004612619565b61135c565b6007546101d69060ff1681565b6101d661032a3660046124ec565b60056020526000908152604090205460ff1681565b6101b161034d3660046124ec565b611432565b600260005414156103c4576040517f08c379a000000000000000000000000000000000000000000000000000000000815260206004820152601f60248201527f5265656e7472616e637947756172643a207265656e7472616e742063616c6c0060448201526064015b60405180910390fd5b60026000818155338152602091909152604090205460ff16610467576040517f08c379a0000000000000000000000000000000000000000000000000000000008152602060048201526024808201527f4f70657261746f723a2063616c6c6572206973206e6f7420746865206f70657260448201527f61746f720000000000000000000000000000000000000000000000000000000060648201526084016103bb565b61047283838361155f565b50506001600055505050565b6003818154811061048e57600080fd5b60009182526020909120600290910201805460019091015473ffffffffffffffffffffffffffffffffffffffff91821692509081169074010000000000000000000000000000000000000000900460ff1683565b60015473ffffffffffffffffffffffffffffffffffffffff163314610563576040517f08c379a000000000000000000000000000000000000000000000000000000000815260206004820181905260248201527f4f776e61626c653a2063616c6c6572206973206e6f7420746865206f776e657260448201526064016103bb565b600060038281548110610578576105786128da565b60009182526020822060016002909202019081015481549193506105b89273ffffffffffffffffffffffffffffffffffffffff9283169290911690611a37565b600181015481546106039173ffffffffffffffffffffffffffffffffffffffff91821691167fffffffffffffffffffffffffffffffffffffffffffffffffffffffffffffffff611c46565b5050565b60015473ffffffffffffffffffffffffffffffffffffffff163314610688576040517f08c379a000000000000000000000000000000000000000000000000000000000815260206004820181905260248201527f4f776e61626c653a2063616c6c6572206973206e6f7420746865206f776e657260448201526064016103bb565b60005b600354811015610748576000600382815481106106aa576106aa6128da565b60009182526020822060016002909202019081015481549193506106ea9273ffffffffffffffffffffffffffffffffffffffff9283169290911690611a37565b600181015481546107359173ffffffffffffffffffffffffffffffffffffffff91821691167fffffffffffffffffffffffffffffffffffffffffffffffffffffffffffffffff611c46565b508061074081612843565b91505061068b565b50565b60015473ffffffffffffffffffffffffffffffffffffffff1633146107cc576040517f08c379a000000000000000000000000000000000000000000000000000000000815260206004820181905260248201527f4f776e61626c653a2063616c6c6572206973206e6f7420746865206f776e657260448201526064016103bb565b6006829055600780547fffffffffffffffffffffffffffffffffffffffffffffffffffffffffffffff00168215159081179091556040805184815260208101929092527feba593b5bd3e604f0314995a4d3b960cc02497e58addcb6f2f5b03b3308500f4910160405180910390a15050565b600260005414156108ab576040517f08c379a000000000000000000000000000000000000000000000000000000000815260206004820152601f60248201527f5265656e7472616e637947756172643a207265656e7472616e742063616c6c0060448201526064016103bb565b600260005560075460ff1680156108f2575060065415806108db57503360009081526002602052604090205460ff165b806108f2575060065460011480156108f257503332145b156108ff576108ff611d59565b61090a82823361155f565b505060016000555050565b60015473ffffffffffffffffffffffffffffffffffffffff163314610996576040517f08c379a000000000000000000000000000000000000000000000000000000000815260206004820181905260248201527f4f776e61626c653a2063616c6c6572206973206e6f7420746865206f776e657260448201526064016103bb565b73ffffffffffffffffffffffffffffffffffffffff821660008181526002602052604080822080547fffffffffffffffffffffffffffffffffffffffffffffffffffffffffffffff001685151590811790915590519092917f966c160e1c4dbc7df8d69af4ace01e9297c3cf016397b7914971f2fbfa32672d91a35050565b60015473ffffffffffffffffffffffffffffffffffffffff163314610a96576040517f08c379a000000000000000000000000000000000000000000000000000000000815260206004820181905260248201527f4f776e61626c653a2063616c6c6572206973206e6f7420746865206f776e657260448201526064016103bb565b610aa06000611e82565b565b60008060038481548110610ab857610ab86128da565b9060005260206000209060020201905060008160010160009054906101000a900473ffffffffffffffffffffffffffffffffffffffff1673ffffffffffffffffffffffffffffffffffffffff166344a3955e6040518163ffffffff1660e01b815260040160206040518083038186803b158015610b3457600080fd5b505afa158015610b48573d6000803e3d6000fd5b505050506040513d601f19601f82011682018060405250810190610b6c91906125b6565b9050600060038681548110610b8357610b836128da565b600091825260209182902060016002909202010154604080517f42da4eb3000000000000000000000000000000000000000000000000000000008152905173ffffffffffffffffffffffffffffffffffffffff909216926342da4eb392600480840193829003018186803b158015610bfa57600080fd5b505afa158015610c0e573d6000803e3d6000fd5b505050506040513d601f19601f82011682018060405250810190610c3291906125b6565b905081610c455760009350505050610c92565b600086815260046020908152604080832073ffffffffffffffffffffffffffffffffffffffff891684529091529020548290610c829083906127c3565b610c8c9190612788565b93505050505b92915050565b60026000541415610d05576040517f08c379a000000000000000000000000000000000000000000000000000000000815260206004820152601f60248201527f5265656e7472616e637947756172643a207265656e7472616e742063616c6c0060448201526064016103bb565b60026000818155338152602091909152604090205460ff16610da8576040517f08c379a0000000000000000000000000000000000000000000000000000000008152602060048201526024808201527f4f70657261746f723a2063616c6c6572206973206e6f7420746865206f70657260448201527f61746f720000000000000000000000000000000000000000000000000000000060648201526084016103bb565b61090a838383611ef9565b600082815260046020908152604080832073ffffffffffffffffffffffffffffffffffffffff851684529091528120545b9392505050565b60075460ff168015610e2d57506006541580610e1657503360009081526002602052604090205460ff165b80610e2d57506006546001148015610e2d57503332145b15610e3a57610e3a611d59565b610e65817fffffffffffffffffffffffffffffffffffffffffffffffffffffffffffffffff3361155f565b505050565b6006541580610e8857503360009081526002602052604090205460ff165b80610e9f57506006546001148015610e9f57503332145b610f05576040517f08c379a000000000000000000000000000000000000000000000000000000000815260206004820152601960248201527f436f6d706f756e64696e6720697320726573747269637465640000000000000060448201526064016103bb565b610aa0611d59565b60015473ffffffffffffffffffffffffffffffffffffffff163314610f8e576040517f08c379a000000000000000000000000000000000000000000000000000000000815260206004820181905260248201527f4f776e61626c653a2063616c6c6572206973206e6f7420746865206f776e657260448201526064016103bb565b60026000541415610ffb576040517f08c379a000000000000000000000000000000000000000000000000000000000815260206004820152601f60248201527f5265656e7472616e637947756172643a207265656e7472616e742063616c6c0060448201526064016103bb565b6002600090815573ffffffffffffffffffffffffffffffffffffffff821681526005602052604090205460ff161561108f576040517f08c379a000000000000000000000000000000000000000000000000000000000815260206004820152601160248201527f4578697374696e6720737472617465677900000000000000000000000000000060448201526064016103bb565b600360405180606001604052808373ffffffffffffffffffffffffffffffffffffffff1663e7a036796040518163ffffffff1660e01b815260040160206040518083038186803b1580156110e257600080fd5b505afa1580156110f6573d6000803e3d6000fd5b505050506040513d601f19601f8201168201806040525081019061111a9190612509565b73ffffffffffffffffffffffffffffffffffffffff1681526020018373ffffffffffffffffffffffffffffffffffffffff1681526020018373ffffffffffffffffffffffffffffffffffffffff16637115e9fa6040518163ffffffff1660e01b8152600401602060405180830381600087803b15801561119957600080fd5b505af11580156111ad573d6000803e3d6000fd5b505050506040513d601f19601f820116820180604052508101906111d1919061257c565b60038111156111e2576111e26128ab565b905281546001818101845560009384526020938490208351600290930201805473ffffffffffffffffffffffffffffffffffffffff9384167fffffffffffffffffffffffff0000000000000000000000000000000000000000918216178255948401519181018054929093169482168517835560408401519394909392917fffffffffffffffffffffff0000000000000000000000000000000000000000001617740100000000000000000000000000000000000000008360038111156112ab576112ab6128ab565b0217905550505073ffffffffffffffffffffffffffffffffffffffff8116600090815260056020526040902080547fffffffffffffffffffffffffffffffffffffffffffffffffffffffffffffff001660019081179091556003546113139161021691612800565b60405173ffffffffffffffffffffffffffffffffffffffff8216907f8c82d670bc9247c2cfb6964089bc9cff0255f9caade6fbc74a13368083e5546690600090a2506001600055565b600260005414156113c9576040517f08c379a000000000000000000000000000000000000000000000000000000000815260206004820152601f60248201527f5265656e7472616e637947756172643a207265656e7472616e742063616c6c0060448201526064016103bb565b600260005560075460ff168015611410575060065415806113f957503360009081526002602052604090205460ff165b806114105750600654600114801561141057503332145b1561141d5761141d611d59565b611428828233611ef9565b5050600160005550565b60015473ffffffffffffffffffffffffffffffffffffffff1633146114b3576040517f08c379a000000000000000000000000000000000000000000000000000000000815260206004820181905260248201527f4f776e61626c653a2063616c6c6572206973206e6f7420746865206f776e657260448201526064016103bb565b73ffffffffffffffffffffffffffffffffffffffff8116611556576040517f08c379a000000000000000000000000000000000000000000000000000000000815260206004820152602660248201527f4f776e61626c653a206e6577206f776e657220697320746865207a65726f206160448201527f646472657373000000000000000000000000000000000000000000000000000060648201526084016103bb565b61074881611e82565b600080600060038681548110611577576115776128da565b6000918252602080832089845260048252604080852033865290925290832054600290920201925090506000600388815481106115b6576115b66128da565b600091825260209182902060016002909202010154604080517f42da4eb3000000000000000000000000000000000000000000000000000000008152905173ffffffffffffffffffffffffffffffffffffffff909216926342da4eb392600480840193829003018186803b15801561162d57600080fd5b505afa158015611641573d6000803e3d6000fd5b505050506040513d601f19601f8201168201806040525081019061166591906125b6565b90506003888154811061167a5761167a6128da565b600091825260209182902060016002909202010154604080517f44a3955e000000000000000000000000000000000000000000000000000000008152905173ffffffffffffffffffffffffffffffffffffffff909216926344a3955e92600480840193829003018186803b1580156116f157600080fd5b505afa158015611705573d6000803e3d6000fd5b505050506040513d601f19601f8201168201806040525081019061172991906125b6565b945060008211611795576040517f08c379a000000000000000000000000000000000000000000000000000000000815260206004820152600f60248201527f757365725368617265732069732030000000000000000000000000000000000060448201526064016103bb565b600085116117ff576040517f08c379a000000000000000000000000000000000000000000000000000000000815260206004820152601060248201527f736861726573546f74616c20697320300000000000000000000000000000000060448201526064016103bb565b60008561180c83856127c3565b6118169190612788565b905080881115611824578097505b87156119f4576003898154811061183d5761183d6128da565b60009182526020909120600290910201600101546040517ff3fef3a3000000000000000000000000000000000000000000000000000000008152336004820152602481018a905273ffffffffffffffffffffffffffffffffffffffff9091169063f3fef3a390604401602060405180830381600087803b1580156118c057600080fd5b505af11580156118d4573d6000803e3d6000fd5b505050506040513d601f19601f820116820180604052508101906118f891906125b6565b9450828511156119135761190d893385612084565b50611920565b61191e893387612084565b505b83546040517f70a0823100000000000000000000000000000000000000000000000000000000815230600482015260009173ffffffffffffffffffffffffffffffffffffffff16906370a082319060240160206040518083038186803b15801561198957600080fd5b505afa15801561199d573d6000803e3d6000fd5b505050506040513d601f19601f820116820180604052508101906119c191906125b6565b9050888110156119cf578098505b84546119f29073ffffffffffffffffffffffffffffffffffffffff16898b612101565b505b604051888152899033907ff279e6a1f5e320cca91135676d9cb6e44ca8a08c0b88342bcdb1144f6511b5689060200160405180910390a350505050935093915050565b801580611ae657506040517fdd62ed3e00000000000000000000000000000000000000000000000000000000815230600482015273ffffffffffffffffffffffffffffffffffffffff838116602483015284169063dd62ed3e9060440160206040518083038186803b158015611aac57600080fd5b505afa158015611ac0573d6000803e3d6000fd5b505050506040513d601f19601f82011682018060405250810190611ae491906125b6565b155b611b72576040517f08c379a000000000000000000000000000000000000000000000000000000000815260206004820152603660248201527f5361666545524332303a20617070726f76652066726f6d206e6f6e2d7a65726f60448201527f20746f206e6f6e2d7a65726f20616c6c6f77616e63650000000000000000000060648201526084016103bb565b60405173ffffffffffffffffffffffffffffffffffffffff8316602482015260448101829052610e659084907f095ea7b300000000000000000000000000000000000000000000000000000000906064015b604080517fffffffffffffffffffffffffffffffffffffffffffffffffffffffffffffffe08184030181529190526020810180517bffffffffffffffffffffffffffffffffffffffffffffffffffffffff167fffffffff0000000000000000000000000000000000000000000000000000000090931692909217909152612157565b6040517fdd62ed3e00000000000000000000000000000000000000000000000000000000815230600482015273ffffffffffffffffffffffffffffffffffffffff8381166024830152600091839186169063dd62ed3e9060440160206040518083038186803b158015611cb857600080fd5b505afa158015611ccc573d6000803e3d6000fd5b505050506040513d601f19601f82011682018060405250810190611cf091906125b6565b611cfa9190612770565b60405173ffffffffffffffffffffffffffffffffffffffff8516602482015260448101829052909150611d539085907f095ea7b30000000000000000000000000000000000000000000000000000000090606401611bc4565b50505050565b60035460005b818110156106035760038181548110611d7a57611d7a6128da565b60009182526020822060016002909202010154604080517fd389800f000000000000000000000000000000000000000000000000000000008152905173ffffffffffffffffffffffffffffffffffffffff9092169263d389800f9260048084019382900301818387803b158015611df057600080fd5b505af1925050508015611e01575060015b611e70573d808015611e2f576040519150601f19603f3d011682016040523d82523d6000602084013e611e34565b606091505b507fae452807c2b0698ea0d198e28dab35283cbb33b5ffd82a4dc799e21279d0a6308282604051611e66929190612757565b60405180910390a1505b80611e7a81612843565b915050611d5f565b6001805473ffffffffffffffffffffffffffffffffffffffff8381167fffffffffffffffffffffffff0000000000000000000000000000000000000000831681179093556040519116919082907f8be0079c531659141344cd1fd0a4f28419497f9722a3daafe3b4186f6b6457e090600090a35050565b60008060038581548110611f0f57611f0f6128da565b90600052602060002090600202019050600084111561202b578054611f4c9073ffffffffffffffffffffffffffffffffffffffff16333087612263565b60038581548110611f5f57611f5f6128da565b60009182526020909120600290910201600101546040517f47e7ef2400000000000000000000000000000000000000000000000000000000815273ffffffffffffffffffffffffffffffffffffffff858116600483015260248201879052909116906347e7ef2490604401602060405180830381600087803b158015611fe457600080fd5b505af1158015611ff8573d6000803e3d6000fd5b505050506040513d601f19601f8201168201806040525081019061201c91906125b6565b91506120298584846122c1565b505b848373ffffffffffffffffffffffffffffffffffffffff167f90890809c654f11d6e72a28fa60149770a0d11ec6c92319d6ceb2bb0a4ea1a158660405161207491815260200190565b60405180910390a3509392505050565b600083815260046020908152604080832073ffffffffffffffffffffffffffffffffffffffff861684529091528120805483919083906120c5908490612800565b90915550505060009283525060046020908152604080842073ffffffffffffffffffffffffffffffffffffffff93909316845291905290205490565b60405173ffffffffffffffffffffffffffffffffffffffff8316602482015260448101829052610e659084907fa9059cbb0000000000000000000000000000000000000000000000000000000090606401611bc4565b60006121b9826040518060400160405280602081526020017f5361666545524332303a206c6f772d6c6576656c2063616c6c206661696c65648152508573ffffffffffffffffffffffffffffffffffffffff166123029092919063ffffffff16565b805190915015610e6557808060200190518101906121d7919061255f565b610e65576040517f08c379a000000000000000000000000000000000000000000000000000000000815260206004820152602a60248201527f5361666545524332303a204552433230206f7065726174696f6e20646964206e60448201527f6f7420737563636565640000000000000000000000000000000000000000000060648201526084016103bb565b60405173ffffffffffffffffffffffffffffffffffffffff80851660248301528316604482015260648101829052611d539085907f23b872dd0000000000000000000000000000000000000000000000000000000090608401611bc4565b600083815260046020908152604080832073ffffffffffffffffffffffffffffffffffffffff861684529091528120805483919083906120c5908490612770565b60606123118484600085612319565b949350505050565b6060824710156123ab576040517f08c379a000000000000000000000000000000000000000000000000000000000815260206004820152602660248201527f416464726573733a20696e73756666696369656e742062616c616e636520666f60448201527f722063616c6c000000000000000000000000000000000000000000000000000060648201526084016103bb565b843b612413576040517f08c379a000000000000000000000000000000000000000000000000000000000815260206004820152601d60248201527f416464726573733a2063616c6c20746f206e6f6e2d636f6e747261637400000060448201526064016103bb565b6000808673ffffffffffffffffffffffffffffffffffffffff16858760405161243c91906126be565b60006040518083038185875af1925050503d8060008114612479576040519150601f19603f3d011682016040523d82523d6000602084013e61247e565b606091505b509150915061248e828286612499565b979650505050505050565b606083156124a8575081610de4565b8251156124b85782518084602001fd5b816040517f08c379a00000000000000000000000000000000000000000000000000000000081526004016103bb9190612744565b6000602082840312156124fe57600080fd5b8135610de481612909565b60006020828403121561251b57600080fd5b8151610de481612909565b6000806040838503121561253957600080fd5b823561254481612909565b915060208301356125548161292b565b809150509250929050565b60006020828403121561257157600080fd5b8151610de48161292b565b60006020828403121561258e57600080fd5b815160048110610de457600080fd5b6000602082840312156125af57600080fd5b5035919050565b6000602082840312156125c857600080fd5b5051919050565b600080604083850312156125e257600080fd5b82359150602083013561255481612909565b6000806040838503121561260757600080fd5b8235915060208301356125548161292b565b6000806040838503121561262c57600080fd5b50508035926020909101359150565b60008060006060848603121561265057600080fd5b8335925060208401359150604084013561266981612909565b809150509250925092565b6000815180845261268c816020860160208601612817565b601f017fffffffffffffffffffffffffffffffffffffffffffffffffffffffffffffffe0169290920160200192915050565b600082516126d0818460208701612817565b9190910192915050565b73ffffffffffffffffffffffffffffffffffffffff8481168252831660208201526060810160048310612736577f4e487b7100000000000000000000000000000000000000000000000000000000600052602160045260246000fd5b826040830152949350505050565b602081526000610de46020830184612674565b8281526040602082015260006123116040830184612674565b600082198211156127835761278361287c565b500190565b6000826127be577f4e487b7100000000000000000000000000000000000000000000000000000000600052601260045260246000fd5b500490565b6000817fffffffffffffffffffffffffffffffffffffffffffffffffffffffffffffffff04831182151516156127fb576127fb61287c565b500290565b6000828210156128125761281261287c565b500390565b60005b8381101561283257818101518382015260200161281a565b83811115611d535750506000910152565b60007fffffffffffffffffffffffffffffffffffffffffffffffffffffffffffffffff8214156128755761287561287c565b5060010190565b7f4e487b7100000000000000000000000000000000000000000000000000000000600052601160045260246000fd5b7f4e487b7100000000000000000000000000000000000000000000000000000000600052602160045260246000fd5b7f4e487b7100000000000000000000000000000000000000000000000000000000600052603260045260246000fd5b73ffffffffffffffffffffffffffffffffffffffff8116811461074857600080fd5b801515811461074857600080fdfea2646970667358221220bcfac15feaccf6c8c7d19ca18e9d96211ce85dc4a1d831152defbff978132a2364736f6c63430008070033",
			"opcodes": "PUSH1 0x80 PUSH1 0x40 MSTORE PUSH1 0x1 PUSH1 0x6 DUP2 SWAP1 SSTORE PUSH1 0x7 DUP1 SLOAD PUSH1 0xFF NOT AND SWAP1 SWAP2 OR SWAP1 SSTORE CALLVALUE DUP1 ISZERO PUSH2 0x24 JUMPI PUSH1 0x0 DUP1 REVERT JUMPDEST POP PUSH1 0x1 PUSH1 0x0 SSTORE PUSH2 0x33 CALLER PUSH2 0x38 JUMP JUMPDEST PUSH2 0x8A JUMP JUMPDEST PUSH1 0x1 DUP1 SLOAD PUSH1 0x1 PUSH1 0x1 PUSH1 0xA0 SHL SUB DUP4 DUP2 AND PUSH1 0x1 PUSH1 0x1 PUSH1 0xA0 SHL SUB NOT DUP4 AND DUP2 OR SWAP1 SWAP4 SSTORE PUSH1 0x40 MLOAD SWAP2 AND SWAP2 SWAP1 DUP3 SWAP1 PUSH32 0x8BE0079C531659141344CD1FD0A4F28419497F9722A3DAAFE3B4186F6B6457E0 SWAP1 PUSH1 0x0 SWAP1 LOG3 POP POP JUMP JUMPDEST PUSH2 0x296F DUP1 PUSH2 0x99 PUSH1 0x0 CODECOPY PUSH1 0x0 RETURN INVALID PUSH1 0x80 PUSH1 0x40 MSTORE CALLVALUE DUP1 ISZERO PUSH2 0x10 JUMPI PUSH1 0x0 DUP1 REVERT JUMPDEST POP PUSH1 0x4 CALLDATASIZE LT PUSH2 0x182 JUMPI PUSH1 0x0 CALLDATALOAD PUSH1 0xE0 SHR DUP1 PUSH4 0x7B84DAEC GT PUSH2 0xD8 JUMPI DUP1 PUSH4 0x9B05DDB3 GT PUSH2 0x8C JUMPI DUP1 PUSH4 0xE2FF2F47 GT PUSH2 0x66 JUMPI DUP1 PUSH4 0xE2FF2F47 EQ PUSH2 0x30F JUMPI DUP1 PUSH4 0xE718D129 EQ PUSH2 0x31C JUMPI DUP1 PUSH4 0xF2FDE38B EQ PUSH2 0x33F JUMPI PUSH1 0x0 DUP1 REVERT JUMPDEST DUP1 PUSH4 0x9B05DDB3 EQ PUSH2 0x2E1 JUMPI DUP1 PUSH4 0xD914CD4B EQ PUSH2 0x2E9 JUMPI DUP1 PUSH4 0xE2BBB158 EQ PUSH2 0x2FC JUMPI PUSH1 0x0 DUP1 REVERT JUMPDEST DUP1 PUSH4 0x8DBDBE6D GT PUSH2 0xBD JUMPI DUP1 PUSH4 0x8DBDBE6D EQ PUSH2 0x2A8 JUMPI DUP1 PUSH4 0x93F1A40B EQ PUSH2 0x2BB JUMPI DUP1 PUSH4 0x958E2D31 EQ PUSH2 0x2CE JUMPI PUSH1 0x0 DUP1 REVERT JUMPDEST DUP1 PUSH4 0x7B84DAEC EQ PUSH2 0x26D JUMPI DUP1 PUSH4 0x8DA5CB5B EQ PUSH2 0x280 JUMPI PUSH1 0x0 DUP1 REVERT JUMPDEST DUP1 PUSH4 0x3505B09F GT PUSH2 0x13A JUMPI DUP1 PUSH4 0x5D142D07 GT PUSH2 0x114 JUMPI DUP1 PUSH4 0x5D142D07 EQ PUSH2 0x249 JUMPI DUP1 PUSH4 0x6D44A3B2 EQ PUSH2 0x252 JUMPI DUP1 PUSH4 0x715018A6 EQ PUSH2 0x265 JUMPI PUSH1 0x0 DUP1 REVERT JUMPDEST DUP1 PUSH4 0x3505B09F EQ PUSH2 0x21B JUMPI DUP1 PUSH4 0x3D4FC8D1 EQ PUSH2 0x223 JUMPI DUP1 PUSH4 0x441A3E70 EQ PUSH2 0x236 JUMPI PUSH1 0x0 DUP1 REVERT JUMPDEST DUP1 PUSH4 0x13E7C9D8 GT PUSH2 0x16B JUMPI DUP1 PUSH4 0x13E7C9D8 EQ PUSH2 0x1B3 JUMPI DUP1 PUSH4 0x1526FE27 EQ PUSH2 0x1E6 JUMPI DUP1 PUSH4 0x23E1AD7D EQ PUSH2 0x208 JUMPI PUSH1 0x0 DUP1 REVERT JUMPDEST DUP1 PUSH4 0x81E3EDA EQ PUSH2 0x187 JUMPI DUP1 PUSH4 0xAD58D2F EQ PUSH2 0x19E JUMPI JUMPDEST PUSH1 0x0 DUP1 REVERT JUMPDEST PUSH1 0x3 SLOAD JUMPDEST PUSH1 0x40 MLOAD SWAP1 DUP2 MSTORE PUSH1 0x20 ADD JUMPDEST PUSH1 0x40 MLOAD DUP1 SWAP2 SUB SWAP1 RETURN JUMPDEST PUSH2 0x1B1 PUSH2 0x1AC CALLDATASIZE PUSH1 0x4 PUSH2 0x263B JUMP JUMPDEST PUSH2 0x352 JUMP JUMPDEST STOP JUMPDEST PUSH2 0x1D6 PUSH2 0x1C1 CALLDATASIZE PUSH1 0x4 PUSH2 0x24EC JUMP JUMPDEST PUSH1 0x2 PUSH1 0x20 MSTORE PUSH1 0x0 SWAP1 DUP2 MSTORE PUSH1 0x40 SWAP1 KECCAK256 SLOAD PUSH1 0xFF AND DUP2 JUMP JUMPDEST PUSH1 0x40 MLOAD SWAP1 ISZERO ISZERO DUP2 MSTORE PUSH1 0x20 ADD PUSH2 0x195 JUMP JUMPDEST PUSH2 0x1F9 PUSH2 0x1F4 CALLDATASIZE PUSH1 0x4 PUSH2 0x259D JUMP JUMPDEST PUSH2 0x47E JUMP JUMPDEST PUSH1 0x40 MLOAD PUSH2 0x195 SWAP4 SWAP3 SWAP2 SWAP1 PUSH2 0x26DA JUMP JUMPDEST PUSH2 0x1B1 PUSH2 0x216 CALLDATASIZE PUSH1 0x4 PUSH2 0x259D JUMP JUMPDEST PUSH2 0x4E2 JUMP JUMPDEST PUSH2 0x1B1 PUSH2 0x607 JUMP JUMPDEST PUSH2 0x1B1 PUSH2 0x231 CALLDATASIZE PUSH1 0x4 PUSH2 0x25F4 JUMP JUMPDEST PUSH2 0x74B JUMP JUMPDEST PUSH2 0x1B1 PUSH2 0x244 CALLDATASIZE PUSH1 0x4 PUSH2 0x2619 JUMP JUMPDEST PUSH2 0x83E JUMP JUMPDEST PUSH2 0x18B PUSH1 0x6 SLOAD DUP2 JUMP JUMPDEST PUSH2 0x1B1 PUSH2 0x260 CALLDATASIZE PUSH1 0x4 PUSH2 0x2526 JUMP JUMPDEST PUSH2 0x915 JUMP JUMPDEST PUSH2 0x1B1 PUSH2 0xA15 JUMP JUMPDEST PUSH2 0x18B PUSH2 0x27B CALLDATASIZE PUSH1 0x4 PUSH2 0x25CF JUMP JUMPDEST PUSH2 0xAA2 JUMP JUMPDEST PUSH1 0x1 SLOAD PUSH1 0x40 MLOAD PUSH20 0xFFFFFFFFFFFFFFFFFFFFFFFFFFFFFFFFFFFFFFFF SWAP1 SWAP2 AND DUP2 MSTORE PUSH1 0x20 ADD PUSH2 0x195 JUMP JUMPDEST PUSH2 0x1B1 PUSH2 0x2B6 CALLDATASIZE PUSH1 0x4 PUSH2 0x263B JUMP JUMPDEST PUSH2 0xC98 JUMP JUMPDEST PUSH2 0x18B PUSH2 0x2C9 CALLDATASIZE PUSH1 0x4 PUSH2 0x25CF JUMP JUMPDEST PUSH2 0xDB3 JUMP JUMPDEST PUSH2 0x1B1 PUSH2 0x2DC CALLDATASIZE PUSH1 0x4 PUSH2 0x259D JUMP JUMPDEST PUSH2 0xDEB JUMP JUMPDEST PUSH2 0x1B1 PUSH2 0xE6A JUMP JUMPDEST PUSH2 0x1B1 PUSH2 0x2F7 CALLDATASIZE PUSH1 0x4 PUSH2 0x24EC JUMP JUMPDEST PUSH2 0xF0D JUMP JUMPDEST PUSH2 0x1B1 PUSH2 0x30A CALLDATASIZE PUSH1 0x4 PUSH2 0x2619 JUMP JUMPDEST PUSH2 0x135C JUMP JUMPDEST PUSH1 0x7 SLOAD PUSH2 0x1D6 SWAP1 PUSH1 0xFF AND DUP2 JUMP JUMPDEST PUSH2 0x1D6 PUSH2 0x32A CALLDATASIZE PUSH1 0x4 PUSH2 0x24EC JUMP JUMPDEST PUSH1 0x5 PUSH1 0x20 MSTORE PUSH1 0x0 SWAP1 DUP2 MSTORE PUSH1 0x40 SWAP1 KECCAK256 SLOAD PUSH1 0xFF AND DUP2 JUMP JUMPDEST PUSH2 0x1B1 PUSH2 0x34D CALLDATASIZE PUSH1 0x4 PUSH2 0x24EC JUMP JUMPDEST PUSH2 0x1432 JUMP JUMPDEST PUSH1 0x2 PUSH1 0x0 SLOAD EQ ISZERO PUSH2 0x3C4 JUMPI PUSH1 0x40 MLOAD PUSH32 0x8C379A000000000000000000000000000000000000000000000000000000000 DUP2 MSTORE PUSH1 0x20 PUSH1 0x4 DUP3 ADD MSTORE PUSH1 0x1F PUSH1 0x24 DUP3 ADD MSTORE PUSH32 0x5265656E7472616E637947756172643A207265656E7472616E742063616C6C00 PUSH1 0x44 DUP3 ADD MSTORE PUSH1 0x64 ADD JUMPDEST PUSH1 0x40 MLOAD DUP1 SWAP2 SUB SWAP1 REVERT JUMPDEST PUSH1 0x2 PUSH1 0x0 DUP2 DUP2 SSTORE CALLER DUP2 MSTORE PUSH1 0x20 SWAP2 SWAP1 SWAP2 MSTORE PUSH1 0x40 SWAP1 KECCAK256 SLOAD PUSH1 0xFF AND PUSH2 0x467 JUMPI PUSH1 0x40 MLOAD PUSH32 0x8C379A000000000000000000000000000000000000000000000000000000000 DUP2 MSTORE PUSH1 0x20 PUSH1 0x4 DUP3 ADD MSTORE PUSH1 0x24 DUP1 DUP3 ADD MSTORE PUSH32 0x4F70657261746F723A2063616C6C6572206973206E6F7420746865206F706572 PUSH1 0x44 DUP3 ADD MSTORE PUSH32 0x61746F7200000000000000000000000000000000000000000000000000000000 PUSH1 0x64 DUP3 ADD MSTORE PUSH1 0x84 ADD PUSH2 0x3BB JUMP JUMPDEST PUSH2 0x472 DUP4 DUP4 DUP4 PUSH2 0x155F JUMP JUMPDEST POP POP PUSH1 0x1 PUSH1 0x0 SSTORE POP POP POP JUMP JUMPDEST PUSH1 0x3 DUP2 DUP2 SLOAD DUP2 LT PUSH2 0x48E JUMPI PUSH1 0x0 DUP1 REVERT JUMPDEST PUSH1 0x0 SWAP2 DUP3 MSTORE PUSH1 0x20 SWAP1 SWAP2 KECCAK256 PUSH1 0x2 SWAP1 SWAP2 MUL ADD DUP1 SLOAD PUSH1 0x1 SWAP1 SWAP2 ADD SLOAD PUSH20 0xFFFFFFFFFFFFFFFFFFFFFFFFFFFFFFFFFFFFFFFF SWAP2 DUP3 AND SWAP3 POP SWAP1 DUP2 AND SWAP1 PUSH21 0x10000000000000000000000000000000000000000 SWAP1 DIV PUSH1 0xFF AND DUP4 JUMP JUMPDEST PUSH1 0x1 SLOAD PUSH20 0xFFFFFFFFFFFFFFFFFFFFFFFFFFFFFFFFFFFFFFFF AND CALLER EQ PUSH2 0x563 JUMPI PUSH1 0x40 MLOAD PUSH32 0x8C379A000000000000000000000000000000000000000000000000000000000 DUP2 MSTORE PUSH1 0x20 PUSH1 0x4 DUP3 ADD DUP2 SWAP1 MSTORE PUSH1 0x24 DUP3 ADD MSTORE PUSH32 0x4F776E61626C653A2063616C6C6572206973206E6F7420746865206F776E6572 PUSH1 0x44 DUP3 ADD MSTORE PUSH1 0x64 ADD PUSH2 0x3BB JUMP JUMPDEST PUSH1 0x0 PUSH1 0x3 DUP3 DUP2 SLOAD DUP2 LT PUSH2 0x578 JUMPI PUSH2 0x578 PUSH2 0x28DA JUMP JUMPDEST PUSH1 0x0 SWAP2 DUP3 MSTORE PUSH1 0x20 DUP3 KECCAK256 PUSH1 0x1 PUSH1 0x2 SWAP1 SWAP3 MUL ADD SWAP1 DUP2 ADD SLOAD DUP2 SLOAD SWAP2 SWAP4 POP PUSH2 0x5B8 SWAP3 PUSH20 0xFFFFFFFFFFFFFFFFFFFFFFFFFFFFFFFFFFFFFFFF SWAP3 DUP4 AND SWAP3 SWAP1 SWAP2 AND SWAP1 PUSH2 0x1A37 JUMP JUMPDEST PUSH1 0x1 DUP2 ADD SLOAD DUP2 SLOAD PUSH2 0x603 SWAP2 PUSH20 0xFFFFFFFFFFFFFFFFFFFFFFFFFFFFFFFFFFFFFFFF SWAP2 DUP3 AND SWAP2 AND PUSH32 0xFFFFFFFFFFFFFFFFFFFFFFFFFFFFFFFFFFFFFFFFFFFFFFFFFFFFFFFFFFFFFFFF PUSH2 0x1C46 JUMP JUMPDEST POP POP JUMP JUMPDEST PUSH1 0x1 SLOAD PUSH20 0xFFFFFFFFFFFFFFFFFFFFFFFFFFFFFFFFFFFFFFFF AND CALLER EQ PUSH2 0x688 JUMPI PUSH1 0x40 MLOAD PUSH32 0x8C379A000000000000000000000000000000000000000000000000000000000 DUP2 MSTORE PUSH1 0x20 PUSH1 0x4 DUP3 ADD DUP2 SWAP1 MSTORE PUSH1 0x24 DUP3 ADD MSTORE PUSH32 0x4F776E61626C653A2063616C6C6572206973206E6F7420746865206F776E6572 PUSH1 0x44 DUP3 ADD MSTORE PUSH1 0x64 ADD PUSH2 0x3BB JUMP JUMPDEST PUSH1 0x0 JUMPDEST PUSH1 0x3 SLOAD DUP2 LT ISZERO PUSH2 0x748 JUMPI PUSH1 0x0 PUSH1 0x3 DUP3 DUP2 SLOAD DUP2 LT PUSH2 0x6AA JUMPI PUSH2 0x6AA PUSH2 0x28DA JUMP JUMPDEST PUSH1 0x0 SWAP2 DUP3 MSTORE PUSH1 0x20 DUP3 KECCAK256 PUSH1 0x1 PUSH1 0x2 SWAP1 SWAP3 MUL ADD SWAP1 DUP2 ADD SLOAD DUP2 SLOAD SWAP2 SWAP4 POP PUSH2 0x6EA SWAP3 PUSH20 0xFFFFFFFFFFFFFFFFFFFFFFFFFFFFFFFFFFFFFFFF SWAP3 DUP4 AND SWAP3 SWAP1 SWAP2 AND SWAP1 PUSH2 0x1A37 JUMP JUMPDEST PUSH1 0x1 DUP2 ADD SLOAD DUP2 SLOAD PUSH2 0x735 SWAP2 PUSH20 0xFFFFFFFFFFFFFFFFFFFFFFFFFFFFFFFFFFFFFFFF SWAP2 DUP3 AND SWAP2 AND PUSH32 0xFFFFFFFFFFFFFFFFFFFFFFFFFFFFFFFFFFFFFFFFFFFFFFFFFFFFFFFFFFFFFFFF PUSH2 0x1C46 JUMP JUMPDEST POP DUP1 PUSH2 0x740 DUP2 PUSH2 0x2843 JUMP JUMPDEST SWAP2 POP POP PUSH2 0x68B JUMP JUMPDEST POP JUMP JUMPDEST PUSH1 0x1 SLOAD PUSH20 0xFFFFFFFFFFFFFFFFFFFFFFFFFFFFFFFFFFFFFFFF AND CALLER EQ PUSH2 0x7CC JUMPI PUSH1 0x40 MLOAD PUSH32 0x8C379A000000000000000000000000000000000000000000000000000000000 DUP2 MSTORE PUSH1 0x20 PUSH1 0x4 DUP3 ADD DUP2 SWAP1 MSTORE PUSH1 0x24 DUP3 ADD MSTORE PUSH32 0x4F776E61626C653A2063616C6C6572206973206E6F7420746865206F776E6572 PUSH1 0x44 DUP3 ADD MSTORE PUSH1 0x64 ADD PUSH2 0x3BB JUMP JUMPDEST PUSH1 0x6 DUP3 SWAP1 SSTORE PUSH1 0x7 DUP1 SLOAD PUSH32 0xFFFFFFFFFFFFFFFFFFFFFFFFFFFFFFFFFFFFFFFFFFFFFFFFFFFFFFFFFFFFFF00 AND DUP3 ISZERO ISZERO SWAP1 DUP2 OR SWAP1 SWAP2 SSTORE PUSH1 0x40 DUP1 MLOAD DUP5 DUP2 MSTORE PUSH1 0x20 DUP2 ADD SWAP3 SWAP1 SWAP3 MSTORE PUSH32 0xEBA593B5BD3E604F0314995A4D3B960CC02497E58ADDCB6F2F5B03B3308500F4 SWAP2 ADD PUSH1 0x40 MLOAD DUP1 SWAP2 SUB SWAP1 LOG1 POP POP JUMP JUMPDEST PUSH1 0x2 PUSH1 0x0 SLOAD EQ ISZERO PUSH2 0x8AB JUMPI PUSH1 0x40 MLOAD PUSH32 0x8C379A000000000000000000000000000000000000000000000000000000000 DUP2 MSTORE PUSH1 0x20 PUSH1 0x4 DUP3 ADD MSTORE PUSH1 0x1F PUSH1 0x24 DUP3 ADD MSTORE PUSH32 0x5265656E7472616E637947756172643A207265656E7472616E742063616C6C00 PUSH1 0x44 DUP3 ADD MSTORE PUSH1 0x64 ADD PUSH2 0x3BB JUMP JUMPDEST PUSH1 0x2 PUSH1 0x0 SSTORE PUSH1 0x7 SLOAD PUSH1 0xFF AND DUP1 ISZERO PUSH2 0x8F2 JUMPI POP PUSH1 0x6 SLOAD ISZERO DUP1 PUSH2 0x8DB JUMPI POP CALLER PUSH1 0x0 SWAP1 DUP2 MSTORE PUSH1 0x2 PUSH1 0x20 MSTORE PUSH1 0x40 SWAP1 KECCAK256 SLOAD PUSH1 0xFF AND JUMPDEST DUP1 PUSH2 0x8F2 JUMPI POP PUSH1 0x6 SLOAD PUSH1 0x1 EQ DUP1 ISZERO PUSH2 0x8F2 JUMPI POP CALLER ORIGIN EQ JUMPDEST ISZERO PUSH2 0x8FF JUMPI PUSH2 0x8FF PUSH2 0x1D59 JUMP JUMPDEST PUSH2 0x90A DUP3 DUP3 CALLER PUSH2 0x155F JUMP JUMPDEST POP POP PUSH1 0x1 PUSH1 0x0 SSTORE POP POP JUMP JUMPDEST PUSH1 0x1 SLOAD PUSH20 0xFFFFFFFFFFFFFFFFFFFFFFFFFFFFFFFFFFFFFFFF AND CALLER EQ PUSH2 0x996 JUMPI PUSH1 0x40 MLOAD PUSH32 0x8C379A000000000000000000000000000000000000000000000000000000000 DUP2 MSTORE PUSH1 0x20 PUSH1 0x4 DUP3 ADD DUP2 SWAP1 MSTORE PUSH1 0x24 DUP3 ADD MSTORE PUSH32 0x4F776E61626C653A2063616C6C6572206973206E6F7420746865206F776E6572 PUSH1 0x44 DUP3 ADD MSTORE PUSH1 0x64 ADD PUSH2 0x3BB JUMP JUMPDEST PUSH20 0xFFFFFFFFFFFFFFFFFFFFFFFFFFFFFFFFFFFFFFFF DUP3 AND PUSH1 0x0 DUP2 DUP2 MSTORE PUSH1 0x2 PUSH1 0x20 MSTORE PUSH1 0x40 DUP1 DUP3 KECCAK256 DUP1 SLOAD PUSH32 0xFFFFFFFFFFFFFFFFFFFFFFFFFFFFFFFFFFFFFFFFFFFFFFFFFFFFFFFFFFFFFF00 AND DUP6 ISZERO ISZERO SWAP1 DUP2 OR SWAP1 SWAP2 SSTORE SWAP1 MLOAD SWAP1 SWAP3 SWAP2 PUSH32 0x966C160E1C4DBC7DF8D69AF4ACE01E9297C3CF016397B7914971F2FBFA32672D SWAP2 LOG3 POP POP JUMP JUMPDEST PUSH1 0x1 SLOAD PUSH20 0xFFFFFFFFFFFFFFFFFFFFFFFFFFFFFFFFFFFFFFFF AND CALLER EQ PUSH2 0xA96 JUMPI PUSH1 0x40 MLOAD PUSH32 0x8C379A000000000000000000000000000000000000000000000000000000000 DUP2 MSTORE PUSH1 0x20 PUSH1 0x4 DUP3 ADD DUP2 SWAP1 MSTORE PUSH1 0x24 DUP3 ADD MSTORE PUSH32 0x4F776E61626C653A2063616C6C6572206973206E6F7420746865206F776E6572 PUSH1 0x44 DUP3 ADD MSTORE PUSH1 0x64 ADD PUSH2 0x3BB JUMP JUMPDEST PUSH2 0xAA0 PUSH1 0x0 PUSH2 0x1E82 JUMP JUMPDEST JUMP JUMPDEST PUSH1 0x0 DUP1 PUSH1 0x3 DUP5 DUP2 SLOAD DUP2 LT PUSH2 0xAB8 JUMPI PUSH2 0xAB8 PUSH2 0x28DA JUMP JUMPDEST SWAP1 PUSH1 0x0 MSTORE PUSH1 0x20 PUSH1 0x0 KECCAK256 SWAP1 PUSH1 0x2 MUL ADD SWAP1 POP PUSH1 0x0 DUP2 PUSH1 0x1 ADD PUSH1 0x0 SWAP1 SLOAD SWAP1 PUSH2 0x100 EXP SWAP1 DIV PUSH20 0xFFFFFFFFFFFFFFFFFFFFFFFFFFFFFFFFFFFFFFFF AND PUSH20 0xFFFFFFFFFFFFFFFFFFFFFFFFFFFFFFFFFFFFFFFF AND PUSH4 0x44A3955E PUSH1 0x40 MLOAD DUP2 PUSH4 0xFFFFFFFF AND PUSH1 0xE0 SHL DUP2 MSTORE PUSH1 0x4 ADD PUSH1 0x20 PUSH1 0x40 MLOAD DUP1 DUP4 SUB DUP2 DUP7 DUP1 EXTCODESIZE ISZERO DUP1 ISZERO PUSH2 0xB34 JUMPI PUSH1 0x0 DUP1 REVERT JUMPDEST POP GAS STATICCALL ISZERO DUP1 ISZERO PUSH2 0xB48 JUMPI RETURNDATASIZE PUSH1 0x0 DUP1 RETURNDATACOPY RETURNDATASIZE PUSH1 0x0 REVERT JUMPDEST POP POP POP POP PUSH1 0x40 MLOAD RETURNDATASIZE PUSH1 0x1F NOT PUSH1 0x1F DUP3 ADD AND DUP3 ADD DUP1 PUSH1 0x40 MSTORE POP DUP2 ADD SWAP1 PUSH2 0xB6C SWAP2 SWAP1 PUSH2 0x25B6 JUMP JUMPDEST SWAP1 POP PUSH1 0x0 PUSH1 0x3 DUP7 DUP2 SLOAD DUP2 LT PUSH2 0xB83 JUMPI PUSH2 0xB83 PUSH2 0x28DA JUMP JUMPDEST PUSH1 0x0 SWAP2 DUP3 MSTORE PUSH1 0x20 SWAP2 DUP3 SWAP1 KECCAK256 PUSH1 0x1 PUSH1 0x2 SWAP1 SWAP3 MUL ADD ADD SLOAD PUSH1 0x40 DUP1 MLOAD PUSH32 0x42DA4EB300000000000000000000000000000000000000000000000000000000 DUP2 MSTORE SWAP1 MLOAD PUSH20 0xFFFFFFFFFFFFFFFFFFFFFFFFFFFFFFFFFFFFFFFF SWAP1 SWAP3 AND SWAP3 PUSH4 0x42DA4EB3 SWAP3 PUSH1 0x4 DUP1 DUP5 ADD SWAP4 DUP3 SWAP1 SUB ADD DUP2 DUP7 DUP1 EXTCODESIZE ISZERO DUP1 ISZERO PUSH2 0xBFA JUMPI PUSH1 0x0 DUP1 REVERT JUMPDEST POP GAS STATICCALL ISZERO DUP1 ISZERO PUSH2 0xC0E JUMPI RETURNDATASIZE PUSH1 0x0 DUP1 RETURNDATACOPY RETURNDATASIZE PUSH1 0x0 REVERT JUMPDEST POP POP POP POP PUSH1 0x40 MLOAD RETURNDATASIZE PUSH1 0x1F NOT PUSH1 0x1F DUP3 ADD AND DUP3 ADD DUP1 PUSH1 0x40 MSTORE POP DUP2 ADD SWAP1 PUSH2 0xC32 SWAP2 SWAP1 PUSH2 0x25B6 JUMP JUMPDEST SWAP1 POP DUP2 PUSH2 0xC45 JUMPI PUSH1 0x0 SWAP4 POP POP POP POP PUSH2 0xC92 JUMP JUMPDEST PUSH1 0x0 DUP7 DUP2 MSTORE PUSH1 0x4 PUSH1 0x20 SWAP1 DUP2 MSTORE PUSH1 0x40 DUP1 DUP4 KECCAK256 PUSH20 0xFFFFFFFFFFFFFFFFFFFFFFFFFFFFFFFFFFFFFFFF DUP10 AND DUP5 MSTORE SWAP1 SWAP2 MSTORE SWAP1 KECCAK256 SLOAD DUP3 SWAP1 PUSH2 0xC82 SWAP1 DUP4 SWAP1 PUSH2 0x27C3 JUMP JUMPDEST PUSH2 0xC8C SWAP2 SWAP1 PUSH2 0x2788 JUMP JUMPDEST SWAP4 POP POP POP POP JUMPDEST SWAP3 SWAP2 POP POP JUMP JUMPDEST PUSH1 0x2 PUSH1 0x0 SLOAD EQ ISZERO PUSH2 0xD05 JUMPI PUSH1 0x40 MLOAD PUSH32 0x8C379A000000000000000000000000000000000000000000000000000000000 DUP2 MSTORE PUSH1 0x20 PUSH1 0x4 DUP3 ADD MSTORE PUSH1 0x1F PUSH1 0x24 DUP3 ADD MSTORE PUSH32 0x5265656E7472616E637947756172643A207265656E7472616E742063616C6C00 PUSH1 0x44 DUP3 ADD MSTORE PUSH1 0x64 ADD PUSH2 0x3BB JUMP JUMPDEST PUSH1 0x2 PUSH1 0x0 DUP2 DUP2 SSTORE CALLER DUP2 MSTORE PUSH1 0x20 SWAP2 SWAP1 SWAP2 MSTORE PUSH1 0x40 SWAP1 KECCAK256 SLOAD PUSH1 0xFF AND PUSH2 0xDA8 JUMPI PUSH1 0x40 MLOAD PUSH32 0x8C379A000000000000000000000000000000000000000000000000000000000 DUP2 MSTORE PUSH1 0x20 PUSH1 0x4 DUP3 ADD MSTORE PUSH1 0x24 DUP1 DUP3 ADD MSTORE PUSH32 0x4F70657261746F723A2063616C6C6572206973206E6F7420746865206F706572 PUSH1 0x44 DUP3 ADD MSTORE PUSH32 0x61746F7200000000000000000000000000000000000000000000000000000000 PUSH1 0x64 DUP3 ADD MSTORE PUSH1 0x84 ADD PUSH2 0x3BB JUMP JUMPDEST PUSH2 0x90A DUP4 DUP4 DUP4 PUSH2 0x1EF9 JUMP JUMPDEST PUSH1 0x0 DUP3 DUP2 MSTORE PUSH1 0x4 PUSH1 0x20 SWAP1 DUP2 MSTORE PUSH1 0x40 DUP1 DUP4 KECCAK256 PUSH20 0xFFFFFFFFFFFFFFFFFFFFFFFFFFFFFFFFFFFFFFFF DUP6 AND DUP5 MSTORE SWAP1 SWAP2 MSTORE DUP2 KECCAK256 SLOAD JUMPDEST SWAP4 SWAP3 POP POP POP JUMP JUMPDEST PUSH1 0x7 SLOAD PUSH1 0xFF AND DUP1 ISZERO PUSH2 0xE2D JUMPI POP PUSH1 0x6 SLOAD ISZERO DUP1 PUSH2 0xE16 JUMPI POP CALLER PUSH1 0x0 SWAP1 DUP2 MSTORE PUSH1 0x2 PUSH1 0x20 MSTORE PUSH1 0x40 SWAP1 KECCAK256 SLOAD PUSH1 0xFF AND JUMPDEST DUP1 PUSH2 0xE2D JUMPI POP PUSH1 0x6 SLOAD PUSH1 0x1 EQ DUP1 ISZERO PUSH2 0xE2D JUMPI POP CALLER ORIGIN EQ JUMPDEST ISZERO PUSH2 0xE3A JUMPI PUSH2 0xE3A PUSH2 0x1D59 JUMP JUMPDEST PUSH2 0xE65 DUP2 PUSH32 0xFFFFFFFFFFFFFFFFFFFFFFFFFFFFFFFFFFFFFFFFFFFFFFFFFFFFFFFFFFFFFFFF CALLER PUSH2 0x155F JUMP JUMPDEST POP POP POP JUMP JUMPDEST PUSH1 0x6 SLOAD ISZERO DUP1 PUSH2 0xE88 JUMPI POP CALLER PUSH1 0x0 SWAP1 DUP2 MSTORE PUSH1 0x2 PUSH1 0x20 MSTORE PUSH1 0x40 SWAP1 KECCAK256 SLOAD PUSH1 0xFF AND JUMPDEST DUP1 PUSH2 0xE9F JUMPI POP PUSH1 0x6 SLOAD PUSH1 0x1 EQ DUP1 ISZERO PUSH2 0xE9F JUMPI POP CALLER ORIGIN EQ JUMPDEST PUSH2 0xF05 JUMPI PUSH1 0x40 MLOAD PUSH32 0x8C379A000000000000000000000000000000000000000000000000000000000 DUP2 MSTORE PUSH1 0x20 PUSH1 0x4 DUP3 ADD MSTORE PUSH1 0x19 PUSH1 0x24 DUP3 ADD MSTORE PUSH32 0x436F6D706F756E64696E67206973207265737472696374656400000000000000 PUSH1 0x44 DUP3 ADD MSTORE PUSH1 0x64 ADD PUSH2 0x3BB JUMP JUMPDEST PUSH2 0xAA0 PUSH2 0x1D59 JUMP JUMPDEST PUSH1 0x1 SLOAD PUSH20 0xFFFFFFFFFFFFFFFFFFFFFFFFFFFFFFFFFFFFFFFF AND CALLER EQ PUSH2 0xF8E JUMPI PUSH1 0x40 MLOAD PUSH32 0x8C379A000000000000000000000000000000000000000000000000000000000 DUP2 MSTORE PUSH1 0x20 PUSH1 0x4 DUP3 ADD DUP2 SWAP1 MSTORE PUSH1 0x24 DUP3 ADD MSTORE PUSH32 0x4F776E61626C653A2063616C6C6572206973206E6F7420746865206F776E6572 PUSH1 0x44 DUP3 ADD MSTORE PUSH1 0x64 ADD PUSH2 0x3BB JUMP JUMPDEST PUSH1 0x2 PUSH1 0x0 SLOAD EQ ISZERO PUSH2 0xFFB JUMPI PUSH1 0x40 MLOAD PUSH32 0x8C379A000000000000000000000000000000000000000000000000000000000 DUP2 MSTORE PUSH1 0x20 PUSH1 0x4 DUP3 ADD MSTORE PUSH1 0x1F PUSH1 0x24 DUP3 ADD MSTORE PUSH32 0x5265656E7472616E637947756172643A207265656E7472616E742063616C6C00 PUSH1 0x44 DUP3 ADD MSTORE PUSH1 0x64 ADD PUSH2 0x3BB JUMP JUMPDEST PUSH1 0x2 PUSH1 0x0 SWAP1 DUP2 SSTORE PUSH20 0xFFFFFFFFFFFFFFFFFFFFFFFFFFFFFFFFFFFFFFFF DUP3 AND DUP2 MSTORE PUSH1 0x5 PUSH1 0x20 MSTORE PUSH1 0x40 SWAP1 KECCAK256 SLOAD PUSH1 0xFF AND ISZERO PUSH2 0x108F JUMPI PUSH1 0x40 MLOAD PUSH32 0x8C379A000000000000000000000000000000000000000000000000000000000 DUP2 MSTORE PUSH1 0x20 PUSH1 0x4 DUP3 ADD MSTORE PUSH1 0x11 PUSH1 0x24 DUP3 ADD MSTORE PUSH32 0x4578697374696E67207374726174656779000000000000000000000000000000 PUSH1 0x44 DUP3 ADD MSTORE PUSH1 0x64 ADD PUSH2 0x3BB JUMP JUMPDEST PUSH1 0x3 PUSH1 0x40 MLOAD DUP1 PUSH1 0x60 ADD PUSH1 0x40 MSTORE DUP1 DUP4 PUSH20 0xFFFFFFFFFFFFFFFFFFFFFFFFFFFFFFFFFFFFFFFF AND PUSH4 0xE7A03679 PUSH1 0x40 MLOAD DUP2 PUSH4 0xFFFFFFFF AND PUSH1 0xE0 SHL DUP2 MSTORE PUSH1 0x4 ADD PUSH1 0x20 PUSH1 0x40 MLOAD DUP1 DUP4 SUB DUP2 DUP7 DUP1 EXTCODESIZE ISZERO DUP1 ISZERO PUSH2 0x10E2 JUMPI PUSH1 0x0 DUP1 REVERT JUMPDEST POP GAS STATICCALL ISZERO DUP1 ISZERO PUSH2 0x10F6 JUMPI RETURNDATASIZE PUSH1 0x0 DUP1 RETURNDATACOPY RETURNDATASIZE PUSH1 0x0 REVERT JUMPDEST POP POP POP POP PUSH1 0x40 MLOAD RETURNDATASIZE PUSH1 0x1F NOT PUSH1 0x1F DUP3 ADD AND DUP3 ADD DUP1 PUSH1 0x40 MSTORE POP DUP2 ADD SWAP1 PUSH2 0x111A SWAP2 SWAP1 PUSH2 0x2509 JUMP JUMPDEST PUSH20 0xFFFFFFFFFFFFFFFFFFFFFFFFFFFFFFFFFFFFFFFF AND DUP2 MSTORE PUSH1 0x20 ADD DUP4 PUSH20 0xFFFFFFFFFFFFFFFFFFFFFFFFFFFFFFFFFFFFFFFF AND DUP2 MSTORE PUSH1 0x20 ADD DUP4 PUSH20 0xFFFFFFFFFFFFFFFFFFFFFFFFFFFFFFFFFFFFFFFF AND PUSH4 0x7115E9FA PUSH1 0x40 MLOAD DUP2 PUSH4 0xFFFFFFFF AND PUSH1 0xE0 SHL DUP2 MSTORE PUSH1 0x4 ADD PUSH1 0x20 PUSH1 0x40 MLOAD DUP1 DUP4 SUB DUP2 PUSH1 0x0 DUP8 DUP1 EXTCODESIZE ISZERO DUP1 ISZERO PUSH2 0x1199 JUMPI PUSH1 0x0 DUP1 REVERT JUMPDEST POP GAS CALL ISZERO DUP1 ISZERO PUSH2 0x11AD JUMPI RETURNDATASIZE PUSH1 0x0 DUP1 RETURNDATACOPY RETURNDATASIZE PUSH1 0x0 REVERT JUMPDEST POP POP POP POP PUSH1 0x40 MLOAD RETURNDATASIZE PUSH1 0x1F NOT PUSH1 0x1F DUP3 ADD AND DUP3 ADD DUP1 PUSH1 0x40 MSTORE POP DUP2 ADD SWAP1 PUSH2 0x11D1 SWAP2 SWAP1 PUSH2 0x257C JUMP JUMPDEST PUSH1 0x3 DUP2 GT ISZERO PUSH2 0x11E2 JUMPI PUSH2 0x11E2 PUSH2 0x28AB JUMP JUMPDEST SWAP1 MSTORE DUP2 SLOAD PUSH1 0x1 DUP2 DUP2 ADD DUP5 SSTORE PUSH1 0x0 SWAP4 DUP5 MSTORE PUSH1 0x20 SWAP4 DUP5 SWAP1 KECCAK256 DUP4 MLOAD PUSH1 0x2 SWAP1 SWAP4 MUL ADD DUP1 SLOAD PUSH20 0xFFFFFFFFFFFFFFFFFFFFFFFFFFFFFFFFFFFFFFFF SWAP4 DUP5 AND PUSH32 0xFFFFFFFFFFFFFFFFFFFFFFFF0000000000000000000000000000000000000000 SWAP2 DUP3 AND OR DUP3 SSTORE SWAP5 DUP5 ADD MLOAD SWAP2 DUP2 ADD DUP1 SLOAD SWAP3 SWAP1 SWAP4 AND SWAP5 DUP3 AND DUP6 OR DUP4 SSTORE PUSH1 0x40 DUP5 ADD MLOAD SWAP4 SWAP5 SWAP1 SWAP4 SWAP3 SWAP2 PUSH32 0xFFFFFFFFFFFFFFFFFFFFFF000000000000000000000000000000000000000000 AND OR PUSH21 0x10000000000000000000000000000000000000000 DUP4 PUSH1 0x3 DUP2 GT ISZERO PUSH2 0x12AB JUMPI PUSH2 0x12AB PUSH2 0x28AB JUMP JUMPDEST MUL OR SWAP1 SSTORE POP POP POP PUSH20 0xFFFFFFFFFFFFFFFFFFFFFFFFFFFFFFFFFFFFFFFF DUP2 AND PUSH1 0x0 SWAP1 DUP2 MSTORE PUSH1 0x5 PUSH1 0x20 MSTORE PUSH1 0x40 SWAP1 KECCAK256 DUP1 SLOAD PUSH32 0xFFFFFFFFFFFFFFFFFFFFFFFFFFFFFFFFFFFFFFFFFFFFFFFFFFFFFFFFFFFFFF00 AND PUSH1 0x1 SWAP1 DUP2 OR SWAP1 SWAP2 SSTORE PUSH1 0x3 SLOAD PUSH2 0x1313 SWAP2 PUSH2 0x216 SWAP2 PUSH2 0x2800 JUMP JUMPDEST PUSH1 0x40 MLOAD PUSH20 0xFFFFFFFFFFFFFFFFFFFFFFFFFFFFFFFFFFFFFFFF DUP3 AND SWAP1 PUSH32 0x8C82D670BC9247C2CFB6964089BC9CFF0255F9CAADE6FBC74A13368083E55466 SWAP1 PUSH1 0x0 SWAP1 LOG2 POP PUSH1 0x1 PUSH1 0x0 SSTORE JUMP JUMPDEST PUSH1 0x2 PUSH1 0x0 SLOAD EQ ISZERO PUSH2 0x13C9 JUMPI PUSH1 0x40 MLOAD PUSH32 0x8C379A000000000000000000000000000000000000000000000000000000000 DUP2 MSTORE PUSH1 0x20 PUSH1 0x4 DUP3 ADD MSTORE PUSH1 0x1F PUSH1 0x24 DUP3 ADD MSTORE PUSH32 0x5265656E7472616E637947756172643A207265656E7472616E742063616C6C00 PUSH1 0x44 DUP3 ADD MSTORE PUSH1 0x64 ADD PUSH2 0x3BB JUMP JUMPDEST PUSH1 0x2 PUSH1 0x0 SSTORE PUSH1 0x7 SLOAD PUSH1 0xFF AND DUP1 ISZERO PUSH2 0x1410 JUMPI POP PUSH1 0x6 SLOAD ISZERO DUP1 PUSH2 0x13F9 JUMPI POP CALLER PUSH1 0x0 SWAP1 DUP2 MSTORE PUSH1 0x2 PUSH1 0x20 MSTORE PUSH1 0x40 SWAP1 KECCAK256 SLOAD PUSH1 0xFF AND JUMPDEST DUP1 PUSH2 0x1410 JUMPI POP PUSH1 0x6 SLOAD PUSH1 0x1 EQ DUP1 ISZERO PUSH2 0x1410 JUMPI POP CALLER ORIGIN EQ JUMPDEST ISZERO PUSH2 0x141D JUMPI PUSH2 0x141D PUSH2 0x1D59 JUMP JUMPDEST PUSH2 0x1428 DUP3 DUP3 CALLER PUSH2 0x1EF9 JUMP JUMPDEST POP POP PUSH1 0x1 PUSH1 0x0 SSTORE POP JUMP JUMPDEST PUSH1 0x1 SLOAD PUSH20 0xFFFFFFFFFFFFFFFFFFFFFFFFFFFFFFFFFFFFFFFF AND CALLER EQ PUSH2 0x14B3 JUMPI PUSH1 0x40 MLOAD PUSH32 0x8C379A000000000000000000000000000000000000000000000000000000000 DUP2 MSTORE PUSH1 0x20 PUSH1 0x4 DUP3 ADD DUP2 SWAP1 MSTORE PUSH1 0x24 DUP3 ADD MSTORE PUSH32 0x4F776E61626C653A2063616C6C6572206973206E6F7420746865206F776E6572 PUSH1 0x44 DUP3 ADD MSTORE PUSH1 0x64 ADD PUSH2 0x3BB JUMP JUMPDEST PUSH20 0xFFFFFFFFFFFFFFFFFFFFFFFFFFFFFFFFFFFFFFFF DUP2 AND PUSH2 0x1556 JUMPI PUSH1 0x40 MLOAD PUSH32 0x8C379A000000000000000000000000000000000000000000000000000000000 DUP2 MSTORE PUSH1 0x20 PUSH1 0x4 DUP3 ADD MSTORE PUSH1 0x26 PUSH1 0x24 DUP3 ADD MSTORE PUSH32 0x4F776E61626C653A206E6577206F776E657220697320746865207A65726F2061 PUSH1 0x44 DUP3 ADD MSTORE PUSH32 0x6464726573730000000000000000000000000000000000000000000000000000 PUSH1 0x64 DUP3 ADD MSTORE PUSH1 0x84 ADD PUSH2 0x3BB JUMP JUMPDEST PUSH2 0x748 DUP2 PUSH2 0x1E82 JUMP JUMPDEST PUSH1 0x0 DUP1 PUSH1 0x0 PUSH1 0x3 DUP7 DUP2 SLOAD DUP2 LT PUSH2 0x1577 JUMPI PUSH2 0x1577 PUSH2 0x28DA JUMP JUMPDEST PUSH1 0x0 SWAP2 DUP3 MSTORE PUSH1 0x20 DUP1 DUP4 KECCAK256 DUP10 DUP5 MSTORE PUSH1 0x4 DUP3 MSTORE PUSH1 0x40 DUP1 DUP6 KECCAK256 CALLER DUP7 MSTORE SWAP1 SWAP3 MSTORE SWAP1 DUP4 KECCAK256 SLOAD PUSH1 0x2 SWAP1 SWAP3 MUL ADD SWAP3 POP SWAP1 POP PUSH1 0x0 PUSH1 0x3 DUP9 DUP2 SLOAD DUP2 LT PUSH2 0x15B6 JUMPI PUSH2 0x15B6 PUSH2 0x28DA JUMP JUMPDEST PUSH1 0x0 SWAP2 DUP3 MSTORE PUSH1 0x20 SWAP2 DUP3 SWAP1 KECCAK256 PUSH1 0x1 PUSH1 0x2 SWAP1 SWAP3 MUL ADD ADD SLOAD PUSH1 0x40 DUP1 MLOAD PUSH32 0x42DA4EB300000000000000000000000000000000000000000000000000000000 DUP2 MSTORE SWAP1 MLOAD PUSH20 0xFFFFFFFFFFFFFFFFFFFFFFFFFFFFFFFFFFFFFFFF SWAP1 SWAP3 AND SWAP3 PUSH4 0x42DA4EB3 SWAP3 PUSH1 0x4 DUP1 DUP5 ADD SWAP4 DUP3 SWAP1 SUB ADD DUP2 DUP7 DUP1 EXTCODESIZE ISZERO DUP1 ISZERO PUSH2 0x162D JUMPI PUSH1 0x0 DUP1 REVERT JUMPDEST POP GAS STATICCALL ISZERO DUP1 ISZERO PUSH2 0x1641 JUMPI RETURNDATASIZE PUSH1 0x0 DUP1 RETURNDATACOPY RETURNDATASIZE PUSH1 0x0 REVERT JUMPDEST POP POP POP POP PUSH1 0x40 MLOAD RETURNDATASIZE PUSH1 0x1F NOT PUSH1 0x1F DUP3 ADD AND DUP3 ADD DUP1 PUSH1 0x40 MSTORE POP DUP2 ADD SWAP1 PUSH2 0x1665 SWAP2 SWAP1 PUSH2 0x25B6 JUMP JUMPDEST SWAP1 POP PUSH1 0x3 DUP9 DUP2 SLOAD DUP2 LT PUSH2 0x167A JUMPI PUSH2 0x167A PUSH2 0x28DA JUMP JUMPDEST PUSH1 0x0 SWAP2 DUP3 MSTORE PUSH1 0x20 SWAP2 DUP3 SWAP1 KECCAK256 PUSH1 0x1 PUSH1 0x2 SWAP1 SWAP3 MUL ADD ADD SLOAD PUSH1 0x40 DUP1 MLOAD PUSH32 0x44A3955E00000000000000000000000000000000000000000000000000000000 DUP2 MSTORE SWAP1 MLOAD PUSH20 0xFFFFFFFFFFFFFFFFFFFFFFFFFFFFFFFFFFFFFFFF SWAP1 SWAP3 AND SWAP3 PUSH4 0x44A3955E SWAP3 PUSH1 0x4 DUP1 DUP5 ADD SWAP4 DUP3 SWAP1 SUB ADD DUP2 DUP7 DUP1 EXTCODESIZE ISZERO DUP1 ISZERO PUSH2 0x16F1 JUMPI PUSH1 0x0 DUP1 REVERT JUMPDEST POP GAS STATICCALL ISZERO DUP1 ISZERO PUSH2 0x1705 JUMPI RETURNDATASIZE PUSH1 0x0 DUP1 RETURNDATACOPY RETURNDATASIZE PUSH1 0x0 REVERT JUMPDEST POP POP POP POP PUSH1 0x40 MLOAD RETURNDATASIZE PUSH1 0x1F NOT PUSH1 0x1F DUP3 ADD AND DUP3 ADD DUP1 PUSH1 0x40 MSTORE POP DUP2 ADD SWAP1 PUSH2 0x1729 SWAP2 SWAP1 PUSH2 0x25B6 JUMP JUMPDEST SWAP5 POP PUSH1 0x0 DUP3 GT PUSH2 0x1795 JUMPI PUSH1 0x40 MLOAD PUSH32 0x8C379A000000000000000000000000000000000000000000000000000000000 DUP2 MSTORE PUSH1 0x20 PUSH1 0x4 DUP3 ADD MSTORE PUSH1 0xF PUSH1 0x24 DUP3 ADD MSTORE PUSH32 0x7573657253686172657320697320300000000000000000000000000000000000 PUSH1 0x44 DUP3 ADD MSTORE PUSH1 0x64 ADD PUSH2 0x3BB JUMP JUMPDEST PUSH1 0x0 DUP6 GT PUSH2 0x17FF JUMPI PUSH1 0x40 MLOAD PUSH32 0x8C379A000000000000000000000000000000000000000000000000000000000 DUP2 MSTORE PUSH1 0x20 PUSH1 0x4 DUP3 ADD MSTORE PUSH1 0x10 PUSH1 0x24 DUP3 ADD MSTORE PUSH32 0x736861726573546F74616C206973203000000000000000000000000000000000 PUSH1 0x44 DUP3 ADD MSTORE PUSH1 0x64 ADD PUSH2 0x3BB JUMP JUMPDEST PUSH1 0x0 DUP6 PUSH2 0x180C DUP4 DUP6 PUSH2 0x27C3 JUMP JUMPDEST PUSH2 0x1816 SWAP2 SWAP1 PUSH2 0x2788 JUMP JUMPDEST SWAP1 POP DUP1 DUP9 GT ISZERO PUSH2 0x1824 JUMPI DUP1 SWAP8 POP JUMPDEST DUP8 ISZERO PUSH2 0x19F4 JUMPI PUSH1 0x3 DUP10 DUP2 SLOAD DUP2 LT PUSH2 0x183D JUMPI PUSH2 0x183D PUSH2 0x28DA JUMP JUMPDEST PUSH1 0x0 SWAP2 DUP3 MSTORE PUSH1 0x20 SWAP1 SWAP2 KECCAK256 PUSH1 0x2 SWAP1 SWAP2 MUL ADD PUSH1 0x1 ADD SLOAD PUSH1 0x40 MLOAD PUSH32 0xF3FEF3A300000000000000000000000000000000000000000000000000000000 DUP2 MSTORE CALLER PUSH1 0x4 DUP3 ADD MSTORE PUSH1 0x24 DUP2 ADD DUP11 SWAP1 MSTORE PUSH20 0xFFFFFFFFFFFFFFFFFFFFFFFFFFFFFFFFFFFFFFFF SWAP1 SWAP2 AND SWAP1 PUSH4 0xF3FEF3A3 SWAP1 PUSH1 0x44 ADD PUSH1 0x20 PUSH1 0x40 MLOAD DUP1 DUP4 SUB DUP2 PUSH1 0x0 DUP8 DUP1 EXTCODESIZE ISZERO DUP1 ISZERO PUSH2 0x18C0 JUMPI PUSH1 0x0 DUP1 REVERT JUMPDEST POP GAS CALL ISZERO DUP1 ISZERO PUSH2 0x18D4 JUMPI RETURNDATASIZE PUSH1 0x0 DUP1 RETURNDATACOPY RETURNDATASIZE PUSH1 0x0 REVERT JUMPDEST POP POP POP POP PUSH1 0x40 MLOAD RETURNDATASIZE PUSH1 0x1F NOT PUSH1 0x1F DUP3 ADD AND DUP3 ADD DUP1 PUSH1 0x40 MSTORE POP DUP2 ADD SWAP1 PUSH2 0x18F8 SWAP2 SWAP1 PUSH2 0x25B6 JUMP JUMPDEST SWAP5 POP DUP3 DUP6 GT ISZERO PUSH2 0x1913 JUMPI PUSH2 0x190D DUP10 CALLER DUP6 PUSH2 0x2084 JUMP JUMPDEST POP PUSH2 0x1920 JUMP JUMPDEST PUSH2 0x191E DUP10 CALLER DUP8 PUSH2 0x2084 JUMP JUMPDEST POP JUMPDEST DUP4 SLOAD PUSH1 0x40 MLOAD PUSH32 0x70A0823100000000000000000000000000000000000000000000000000000000 DUP2 MSTORE ADDRESS PUSH1 0x4 DUP3 ADD MSTORE PUSH1 0x0 SWAP2 PUSH20 0xFFFFFFFFFFFFFFFFFFFFFFFFFFFFFFFFFFFFFFFF AND SWAP1 PUSH4 0x70A08231 SWAP1 PUSH1 0x24 ADD PUSH1 0x20 PUSH1 0x40 MLOAD DUP1 DUP4 SUB DUP2 DUP7 DUP1 EXTCODESIZE ISZERO DUP1 ISZERO PUSH2 0x1989 JUMPI PUSH1 0x0 DUP1 REVERT JUMPDEST POP GAS STATICCALL ISZERO DUP1 ISZERO PUSH2 0x199D JUMPI RETURNDATASIZE PUSH1 0x0 DUP1 RETURNDATACOPY RETURNDATASIZE PUSH1 0x0 REVERT JUMPDEST POP POP POP POP PUSH1 0x40 MLOAD RETURNDATASIZE PUSH1 0x1F NOT PUSH1 0x1F DUP3 ADD AND DUP3 ADD DUP1 PUSH1 0x40 MSTORE POP DUP2 ADD SWAP1 PUSH2 0x19C1 SWAP2 SWAP1 PUSH2 0x25B6 JUMP JUMPDEST SWAP1 POP DUP9 DUP2 LT ISZERO PUSH2 0x19CF JUMPI DUP1 SWAP9 POP JUMPDEST DUP5 SLOAD PUSH2 0x19F2 SWAP1 PUSH20 0xFFFFFFFFFFFFFFFFFFFFFFFFFFFFFFFFFFFFFFFF AND DUP10 DUP12 PUSH2 0x2101 JUMP JUMPDEST POP JUMPDEST PUSH1 0x40 MLOAD DUP9 DUP2 MSTORE DUP10 SWAP1 CALLER SWAP1 PUSH32 0xF279E6A1F5E320CCA91135676D9CB6E44CA8A08C0B88342BCDB1144F6511B568 SWAP1 PUSH1 0x20 ADD PUSH1 0x40 MLOAD DUP1 SWAP2 SUB SWAP1 LOG3 POP POP POP POP SWAP4 POP SWAP4 SWAP2 POP POP JUMP JUMPDEST DUP1 ISZERO DUP1 PUSH2 0x1AE6 JUMPI POP PUSH1 0x40 MLOAD PUSH32 0xDD62ED3E00000000000000000000000000000000000000000000000000000000 DUP2 MSTORE ADDRESS PUSH1 0x4 DUP3 ADD MSTORE PUSH20 0xFFFFFFFFFFFFFFFFFFFFFFFFFFFFFFFFFFFFFFFF DUP4 DUP2 AND PUSH1 0x24 DUP4 ADD MSTORE DUP5 AND SWAP1 PUSH4 0xDD62ED3E SWAP1 PUSH1 0x44 ADD PUSH1 0x20 PUSH1 0x40 MLOAD DUP1 DUP4 SUB DUP2 DUP7 DUP1 EXTCODESIZE ISZERO DUP1 ISZERO PUSH2 0x1AAC JUMPI PUSH1 0x0 DUP1 REVERT JUMPDEST POP GAS STATICCALL ISZERO DUP1 ISZERO PUSH2 0x1AC0 JUMPI RETURNDATASIZE PUSH1 0x0 DUP1 RETURNDATACOPY RETURNDATASIZE PUSH1 0x0 REVERT JUMPDEST POP POP POP POP PUSH1 0x40 MLOAD RETURNDATASIZE PUSH1 0x1F NOT PUSH1 0x1F DUP3 ADD AND DUP3 ADD DUP1 PUSH1 0x40 MSTORE POP DUP2 ADD SWAP1 PUSH2 0x1AE4 SWAP2 SWAP1 PUSH2 0x25B6 JUMP JUMPDEST ISZERO JUMPDEST PUSH2 0x1B72 JUMPI PUSH1 0x40 MLOAD PUSH32 0x8C379A000000000000000000000000000000000000000000000000000000000 DUP2 MSTORE PUSH1 0x20 PUSH1 0x4 DUP3 ADD MSTORE PUSH1 0x36 PUSH1 0x24 DUP3 ADD MSTORE PUSH32 0x5361666545524332303A20617070726F76652066726F6D206E6F6E2D7A65726F PUSH1 0x44 DUP3 ADD MSTORE PUSH32 0x20746F206E6F6E2D7A65726F20616C6C6F77616E636500000000000000000000 PUSH1 0x64 DUP3 ADD MSTORE PUSH1 0x84 ADD PUSH2 0x3BB JUMP JUMPDEST PUSH1 0x40 MLOAD PUSH20 0xFFFFFFFFFFFFFFFFFFFFFFFFFFFFFFFFFFFFFFFF DUP4 AND PUSH1 0x24 DUP3 ADD MSTORE PUSH1 0x44 DUP2 ADD DUP3 SWAP1 MSTORE PUSH2 0xE65 SWAP1 DUP5 SWAP1 PUSH32 0x95EA7B300000000000000000000000000000000000000000000000000000000 SWAP1 PUSH1 0x64 ADD JUMPDEST PUSH1 0x40 DUP1 MLOAD PUSH32 0xFFFFFFFFFFFFFFFFFFFFFFFFFFFFFFFFFFFFFFFFFFFFFFFFFFFFFFFFFFFFFFE0 DUP2 DUP5 SUB ADD DUP2 MSTORE SWAP2 SWAP1 MSTORE PUSH1 0x20 DUP2 ADD DUP1 MLOAD PUSH28 0xFFFFFFFFFFFFFFFFFFFFFFFFFFFFFFFFFFFFFFFFFFFFFFFFFFFFFFFF AND PUSH32 0xFFFFFFFF00000000000000000000000000000000000000000000000000000000 SWAP1 SWAP4 AND SWAP3 SWAP1 SWAP3 OR SWAP1 SWAP2 MSTORE PUSH2 0x2157 JUMP JUMPDEST PUSH1 0x40 MLOAD PUSH32 0xDD62ED3E00000000000000000000000000000000000000000000000000000000 DUP2 MSTORE ADDRESS PUSH1 0x4 DUP3 ADD MSTORE PUSH20 0xFFFFFFFFFFFFFFFFFFFFFFFFFFFFFFFFFFFFFFFF DUP4 DUP2 AND PUSH1 0x24 DUP4 ADD MSTORE PUSH1 0x0 SWAP2 DUP4 SWAP2 DUP7 AND SWAP1 PUSH4 0xDD62ED3E SWAP1 PUSH1 0x44 ADD PUSH1 0x20 PUSH1 0x40 MLOAD DUP1 DUP4 SUB DUP2 DUP7 DUP1 EXTCODESIZE ISZERO DUP1 ISZERO PUSH2 0x1CB8 JUMPI PUSH1 0x0 DUP1 REVERT JUMPDEST POP GAS STATICCALL ISZERO DUP1 ISZERO PUSH2 0x1CCC JUMPI RETURNDATASIZE PUSH1 0x0 DUP1 RETURNDATACOPY RETURNDATASIZE PUSH1 0x0 REVERT JUMPDEST POP POP POP POP PUSH1 0x40 MLOAD RETURNDATASIZE PUSH1 0x1F NOT PUSH1 0x1F DUP3 ADD AND DUP3 ADD DUP1 PUSH1 0x40 MSTORE POP DUP2 ADD SWAP1 PUSH2 0x1CF0 SWAP2 SWAP1 PUSH2 0x25B6 JUMP JUMPDEST PUSH2 0x1CFA SWAP2 SWAP1 PUSH2 0x2770 JUMP JUMPDEST PUSH1 0x40 MLOAD PUSH20 0xFFFFFFFFFFFFFFFFFFFFFFFFFFFFFFFFFFFFFFFF DUP6 AND PUSH1 0x24 DUP3 ADD MSTORE PUSH1 0x44 DUP2 ADD DUP3 SWAP1 MSTORE SWAP1 SWAP2 POP PUSH2 0x1D53 SWAP1 DUP6 SWAP1 PUSH32 0x95EA7B300000000000000000000000000000000000000000000000000000000 SWAP1 PUSH1 0x64 ADD PUSH2 0x1BC4 JUMP JUMPDEST POP POP POP POP JUMP JUMPDEST PUSH1 0x3 SLOAD PUSH1 0x0 JUMPDEST DUP2 DUP2 LT ISZERO PUSH2 0x603 JUMPI PUSH1 0x3 DUP2 DUP2 SLOAD DUP2 LT PUSH2 0x1D7A JUMPI PUSH2 0x1D7A PUSH2 0x28DA JUMP JUMPDEST PUSH1 0x0 SWAP2 DUP3 MSTORE PUSH1 0x20 DUP3 KECCAK256 PUSH1 0x1 PUSH1 0x2 SWAP1 SWAP3 MUL ADD ADD SLOAD PUSH1 0x40 DUP1 MLOAD PUSH32 0xD389800F00000000000000000000000000000000000000000000000000000000 DUP2 MSTORE SWAP1 MLOAD PUSH20 0xFFFFFFFFFFFFFFFFFFFFFFFFFFFFFFFFFFFFFFFF SWAP1 SWAP3 AND SWAP3 PUSH4 0xD389800F SWAP3 PUSH1 0x4 DUP1 DUP5 ADD SWAP4 DUP3 SWAP1 SUB ADD DUP2 DUP4 DUP8 DUP1 EXTCODESIZE ISZERO DUP1 ISZERO PUSH2 0x1DF0 JUMPI PUSH1 0x0 DUP1 REVERT JUMPDEST POP GAS CALL SWAP3 POP POP POP DUP1 ISZERO PUSH2 0x1E01 JUMPI POP PUSH1 0x1 JUMPDEST PUSH2 0x1E70 JUMPI RETURNDATASIZE DUP1 DUP1 ISZERO PUSH2 0x1E2F JUMPI PUSH1 0x40 MLOAD SWAP2 POP PUSH1 0x1F NOT PUSH1 0x3F RETURNDATASIZE ADD AND DUP3 ADD PUSH1 0x40 MSTORE RETURNDATASIZE DUP3 MSTORE RETURNDATASIZE PUSH1 0x0 PUSH1 0x20 DUP5 ADD RETURNDATACOPY PUSH2 0x1E34 JUMP JUMPDEST PUSH1 0x60 SWAP2 POP JUMPDEST POP PUSH32 0xAE452807C2B0698EA0D198E28DAB35283CBB33B5FFD82A4DC799E21279D0A630 DUP3 DUP3 PUSH1 0x40 MLOAD PUSH2 0x1E66 SWAP3 SWAP2 SWAP1 PUSH2 0x2757 JUMP JUMPDEST PUSH1 0x40 MLOAD DUP1 SWAP2 SUB SWAP1 LOG1 POP JUMPDEST DUP1 PUSH2 0x1E7A DUP2 PUSH2 0x2843 JUMP JUMPDEST SWAP2 POP POP PUSH2 0x1D5F JUMP JUMPDEST PUSH1 0x1 DUP1 SLOAD PUSH20 0xFFFFFFFFFFFFFFFFFFFFFFFFFFFFFFFFFFFFFFFF DUP4 DUP2 AND PUSH32 0xFFFFFFFFFFFFFFFFFFFFFFFF0000000000000000000000000000000000000000 DUP4 AND DUP2 OR SWAP1 SWAP4 SSTORE PUSH1 0x40 MLOAD SWAP2 AND SWAP2 SWAP1 DUP3 SWAP1 PUSH32 0x8BE0079C531659141344CD1FD0A4F28419497F9722A3DAAFE3B4186F6B6457E0 SWAP1 PUSH1 0x0 SWAP1 LOG3 POP POP JUMP JUMPDEST PUSH1 0x0 DUP1 PUSH1 0x3 DUP6 DUP2 SLOAD DUP2 LT PUSH2 0x1F0F JUMPI PUSH2 0x1F0F PUSH2 0x28DA JUMP JUMPDEST SWAP1 PUSH1 0x0 MSTORE PUSH1 0x20 PUSH1 0x0 KECCAK256 SWAP1 PUSH1 0x2 MUL ADD SWAP1 POP PUSH1 0x0 DUP5 GT ISZERO PUSH2 0x202B JUMPI DUP1 SLOAD PUSH2 0x1F4C SWAP1 PUSH20 0xFFFFFFFFFFFFFFFFFFFFFFFFFFFFFFFFFFFFFFFF AND CALLER ADDRESS DUP8 PUSH2 0x2263 JUMP JUMPDEST PUSH1 0x3 DUP6 DUP2 SLOAD DUP2 LT PUSH2 0x1F5F JUMPI PUSH2 0x1F5F PUSH2 0x28DA JUMP JUMPDEST PUSH1 0x0 SWAP2 DUP3 MSTORE PUSH1 0x20 SWAP1 SWAP2 KECCAK256 PUSH1 0x2 SWAP1 SWAP2 MUL ADD PUSH1 0x1 ADD SLOAD PUSH1 0x40 MLOAD PUSH32 0x47E7EF2400000000000000000000000000000000000000000000000000000000 DUP2 MSTORE PUSH20 0xFFFFFFFFFFFFFFFFFFFFFFFFFFFFFFFFFFFFFFFF DUP6 DUP2 AND PUSH1 0x4 DUP4 ADD MSTORE PUSH1 0x24 DUP3 ADD DUP8 SWAP1 MSTORE SWAP1 SWAP2 AND SWAP1 PUSH4 0x47E7EF24 SWAP1 PUSH1 0x44 ADD PUSH1 0x20 PUSH1 0x40 MLOAD DUP1 DUP4 SUB DUP2 PUSH1 0x0 DUP8 DUP1 EXTCODESIZE ISZERO DUP1 ISZERO PUSH2 0x1FE4 JUMPI PUSH1 0x0 DUP1 REVERT JUMPDEST POP GAS CALL ISZERO DUP1 ISZERO PUSH2 0x1FF8 JUMPI RETURNDATASIZE PUSH1 0x0 DUP1 RETURNDATACOPY RETURNDATASIZE PUSH1 0x0 REVERT JUMPDEST POP POP POP POP PUSH1 0x40 MLOAD RETURNDATASIZE PUSH1 0x1F NOT PUSH1 0x1F DUP3 ADD AND DUP3 ADD DUP1 PUSH1 0x40 MSTORE POP DUP2 ADD SWAP1 PUSH2 0x201C SWAP2 SWAP1 PUSH2 0x25B6 JUMP JUMPDEST SWAP2 POP PUSH2 0x2029 DUP6 DUP5 DUP5 PUSH2 0x22C1 JUMP JUMPDEST POP JUMPDEST DUP5 DUP4 PUSH20 0xFFFFFFFFFFFFFFFFFFFFFFFFFFFFFFFFFFFFFFFF AND PUSH32 0x90890809C654F11D6E72A28FA60149770A0D11EC6C92319D6CEB2BB0A4EA1A15 DUP7 PUSH1 0x40 MLOAD PUSH2 0x2074 SWAP2 DUP2 MSTORE PUSH1 0x20 ADD SWAP1 JUMP JUMPDEST PUSH1 0x40 MLOAD DUP1 SWAP2 SUB SWAP1 LOG3 POP SWAP4 SWAP3 POP POP POP JUMP JUMPDEST PUSH1 0x0 DUP4 DUP2 MSTORE PUSH1 0x4 PUSH1 0x20 SWAP1 DUP2 MSTORE PUSH1 0x40 DUP1 DUP4 KECCAK256 PUSH20 0xFFFFFFFFFFFFFFFFFFFFFFFFFFFFFFFFFFFFFFFF DUP7 AND DUP5 MSTORE SWAP1 SWAP2 MSTORE DUP2 KECCAK256 DUP1 SLOAD DUP4 SWAP2 SWAP1 DUP4 SWAP1 PUSH2 0x20C5 SWAP1 DUP5 SWAP1 PUSH2 0x2800 JUMP JUMPDEST SWAP1 SWAP2 SSTORE POP POP POP PUSH1 0x0 SWAP3 DUP4 MSTORE POP PUSH1 0x4 PUSH1 0x20 SWAP1 DUP2 MSTORE PUSH1 0x40 DUP1 DUP5 KECCAK256 PUSH20 0xFFFFFFFFFFFFFFFFFFFFFFFFFFFFFFFFFFFFFFFF SWAP4 SWAP1 SWAP4 AND DUP5 MSTORE SWAP2 SWAP1 MSTORE SWAP1 KECCAK256 SLOAD SWAP1 JUMP JUMPDEST PUSH1 0x40 MLOAD PUSH20 0xFFFFFFFFFFFFFFFFFFFFFFFFFFFFFFFFFFFFFFFF DUP4 AND PUSH1 0x24 DUP3 ADD MSTORE PUSH1 0x44 DUP2 ADD DUP3 SWAP1 MSTORE PUSH2 0xE65 SWAP1 DUP5 SWAP1 PUSH32 0xA9059CBB00000000000000000000000000000000000000000000000000000000 SWAP1 PUSH1 0x64 ADD PUSH2 0x1BC4 JUMP JUMPDEST PUSH1 0x0 PUSH2 0x21B9 DUP3 PUSH1 0x40 MLOAD DUP1 PUSH1 0x40 ADD PUSH1 0x40 MSTORE DUP1 PUSH1 0x20 DUP2 MSTORE PUSH1 0x20 ADD PUSH32 0x5361666545524332303A206C6F772D6C6576656C2063616C6C206661696C6564 DUP2 MSTORE POP DUP6 PUSH20 0xFFFFFFFFFFFFFFFFFFFFFFFFFFFFFFFFFFFFFFFF AND PUSH2 0x2302 SWAP1 SWAP3 SWAP2 SWAP1 PUSH4 0xFFFFFFFF AND JUMP JUMPDEST DUP1 MLOAD SWAP1 SWAP2 POP ISZERO PUSH2 0xE65 JUMPI DUP1 DUP1 PUSH1 0x20 ADD SWAP1 MLOAD DUP2 ADD SWAP1 PUSH2 0x21D7 SWAP2 SWAP1 PUSH2 0x255F JUMP JUMPDEST PUSH2 0xE65 JUMPI PUSH1 0x40 MLOAD PUSH32 0x8C379A000000000000000000000000000000000000000000000000000000000 DUP2 MSTORE PUSH1 0x20 PUSH1 0x4 DUP3 ADD MSTORE PUSH1 0x2A PUSH1 0x24 DUP3 ADD MSTORE PUSH32 0x5361666545524332303A204552433230206F7065726174696F6E20646964206E PUSH1 0x44 DUP3 ADD MSTORE PUSH32 0x6F74207375636365656400000000000000000000000000000000000000000000 PUSH1 0x64 DUP3 ADD MSTORE PUSH1 0x84 ADD PUSH2 0x3BB JUMP JUMPDEST PUSH1 0x40 MLOAD PUSH20 0xFFFFFFFFFFFFFFFFFFFFFFFFFFFFFFFFFFFFFFFF DUP1 DUP6 AND PUSH1 0x24 DUP4 ADD MSTORE DUP4 AND PUSH1 0x44 DUP3 ADD MSTORE PUSH1 0x64 DUP2 ADD DUP3 SWAP1 MSTORE PUSH2 0x1D53 SWAP1 DUP6 SWAP1 PUSH32 0x23B872DD00000000000000000000000000000000000000000000000000000000 SWAP1 PUSH1 0x84 ADD PUSH2 0x1BC4 JUMP JUMPDEST PUSH1 0x0 DUP4 DUP2 MSTORE PUSH1 0x4 PUSH1 0x20 SWAP1 DUP2 MSTORE PUSH1 0x40 DUP1 DUP4 KECCAK256 PUSH20 0xFFFFFFFFFFFFFFFFFFFFFFFFFFFFFFFFFFFFFFFF DUP7 AND DUP5 MSTORE SWAP1 SWAP2 MSTORE DUP2 KECCAK256 DUP1 SLOAD DUP4 SWAP2 SWAP1 DUP4 SWAP1 PUSH2 0x20C5 SWAP1 DUP5 SWAP1 PUSH2 0x2770 JUMP JUMPDEST PUSH1 0x60 PUSH2 0x2311 DUP5 DUP5 PUSH1 0x0 DUP6 PUSH2 0x2319 JUMP JUMPDEST SWAP5 SWAP4 POP POP POP POP JUMP JUMPDEST PUSH1 0x60 DUP3 SELFBALANCE LT ISZERO PUSH2 0x23AB JUMPI PUSH1 0x40 MLOAD PUSH32 0x8C379A000000000000000000000000000000000000000000000000000000000 DUP2 MSTORE PUSH1 0x20 PUSH1 0x4 DUP3 ADD MSTORE PUSH1 0x26 PUSH1 0x24 DUP3 ADD MSTORE PUSH32 0x416464726573733A20696E73756666696369656E742062616C616E636520666F PUSH1 0x44 DUP3 ADD MSTORE PUSH32 0x722063616C6C0000000000000000000000000000000000000000000000000000 PUSH1 0x64 DUP3 ADD MSTORE PUSH1 0x84 ADD PUSH2 0x3BB JUMP JUMPDEST DUP5 EXTCODESIZE PUSH2 0x2413 JUMPI PUSH1 0x40 MLOAD PUSH32 0x8C379A000000000000000000000000000000000000000000000000000000000 DUP2 MSTORE PUSH1 0x20 PUSH1 0x4 DUP3 ADD MSTORE PUSH1 0x1D PUSH1 0x24 DUP3 ADD MSTORE PUSH32 0x416464726573733A2063616C6C20746F206E6F6E2D636F6E7472616374000000 PUSH1 0x44 DUP3 ADD MSTORE PUSH1 0x64 ADD PUSH2 0x3BB JUMP JUMPDEST PUSH1 0x0 DUP1 DUP7 PUSH20 0xFFFFFFFFFFFFFFFFFFFFFFFFFFFFFFFFFFFFFFFF AND DUP6 DUP8 PUSH1 0x40 MLOAD PUSH2 0x243C SWAP2 SWAP1 PUSH2 0x26BE JUMP JUMPDEST PUSH1 0x0 PUSH1 0x40 MLOAD DUP1 DUP4 SUB DUP2 DUP6 DUP8 GAS CALL SWAP3 POP POP POP RETURNDATASIZE DUP1 PUSH1 0x0 DUP2 EQ PUSH2 0x2479 JUMPI PUSH1 0x40 MLOAD SWAP2 POP PUSH1 0x1F NOT PUSH1 0x3F RETURNDATASIZE ADD AND DUP3 ADD PUSH1 0x40 MSTORE RETURNDATASIZE DUP3 MSTORE RETURNDATASIZE PUSH1 0x0 PUSH1 0x20 DUP5 ADD RETURNDATACOPY PUSH2 0x247E JUMP JUMPDEST PUSH1 0x60 SWAP2 POP JUMPDEST POP SWAP2 POP SWAP2 POP PUSH2 0x248E DUP3 DUP3 DUP7 PUSH2 0x2499 JUMP JUMPDEST SWAP8 SWAP7 POP POP POP POP POP POP POP JUMP JUMPDEST PUSH1 0x60 DUP4 ISZERO PUSH2 0x24A8 JUMPI POP DUP2 PUSH2 0xDE4 JUMP JUMPDEST DUP3 MLOAD ISZERO PUSH2 0x24B8 JUMPI DUP3 MLOAD DUP1 DUP5 PUSH1 0x20 ADD REVERT JUMPDEST DUP2 PUSH1 0x40 MLOAD PUSH32 0x8C379A000000000000000000000000000000000000000000000000000000000 DUP2 MSTORE PUSH1 0x4 ADD PUSH2 0x3BB SWAP2 SWAP1 PUSH2 0x2744 JUMP JUMPDEST PUSH1 0x0 PUSH1 0x20 DUP3 DUP5 SUB SLT ISZERO PUSH2 0x24FE JUMPI PUSH1 0x0 DUP1 REVERT JUMPDEST DUP2 CALLDATALOAD PUSH2 0xDE4 DUP2 PUSH2 0x2909 JUMP JUMPDEST PUSH1 0x0 PUSH1 0x20 DUP3 DUP5 SUB SLT ISZERO PUSH2 0x251B JUMPI PUSH1 0x0 DUP1 REVERT JUMPDEST DUP2 MLOAD PUSH2 0xDE4 DUP2 PUSH2 0x2909 JUMP JUMPDEST PUSH1 0x0 DUP1 PUSH1 0x40 DUP4 DUP6 SUB SLT ISZERO PUSH2 0x2539 JUMPI PUSH1 0x0 DUP1 REVERT JUMPDEST DUP3 CALLDATALOAD PUSH2 0x2544 DUP2 PUSH2 0x2909 JUMP JUMPDEST SWAP2 POP PUSH1 0x20 DUP4 ADD CALLDATALOAD PUSH2 0x2554 DUP2 PUSH2 0x292B JUMP JUMPDEST DUP1 SWAP2 POP POP SWAP3 POP SWAP3 SWAP1 POP JUMP JUMPDEST PUSH1 0x0 PUSH1 0x20 DUP3 DUP5 SUB SLT ISZERO PUSH2 0x2571 JUMPI PUSH1 0x0 DUP1 REVERT JUMPDEST DUP2 MLOAD PUSH2 0xDE4 DUP2 PUSH2 0x292B JUMP JUMPDEST PUSH1 0x0 PUSH1 0x20 DUP3 DUP5 SUB SLT ISZERO PUSH2 0x258E JUMPI PUSH1 0x0 DUP1 REVERT JUMPDEST DUP2 MLOAD PUSH1 0x4 DUP2 LT PUSH2 0xDE4 JUMPI PUSH1 0x0 DUP1 REVERT JUMPDEST PUSH1 0x0 PUSH1 0x20 DUP3 DUP5 SUB SLT ISZERO PUSH2 0x25AF JUMPI PUSH1 0x0 DUP1 REVERT JUMPDEST POP CALLDATALOAD SWAP2 SWAP1 POP JUMP JUMPDEST PUSH1 0x0 PUSH1 0x20 DUP3 DUP5 SUB SLT ISZERO PUSH2 0x25C8 JUMPI PUSH1 0x0 DUP1 REVERT JUMPDEST POP MLOAD SWAP2 SWAP1 POP JUMP JUMPDEST PUSH1 0x0 DUP1 PUSH1 0x40 DUP4 DUP6 SUB SLT ISZERO PUSH2 0x25E2 JUMPI PUSH1 0x0 DUP1 REVERT JUMPDEST DUP3 CALLDATALOAD SWAP2 POP PUSH1 0x20 DUP4 ADD CALLDATALOAD PUSH2 0x2554 DUP2 PUSH2 0x2909 JUMP JUMPDEST PUSH1 0x0 DUP1 PUSH1 0x40 DUP4 DUP6 SUB SLT ISZERO PUSH2 0x2607 JUMPI PUSH1 0x0 DUP1 REVERT JUMPDEST DUP3 CALLDATALOAD SWAP2 POP PUSH1 0x20 DUP4 ADD CALLDATALOAD PUSH2 0x2554 DUP2 PUSH2 0x292B JUMP JUMPDEST PUSH1 0x0 DUP1 PUSH1 0x40 DUP4 DUP6 SUB SLT ISZERO PUSH2 0x262C JUMPI PUSH1 0x0 DUP1 REVERT JUMPDEST POP POP DUP1 CALLDATALOAD SWAP3 PUSH1 0x20 SWAP1 SWAP2 ADD CALLDATALOAD SWAP2 POP JUMP JUMPDEST PUSH1 0x0 DUP1 PUSH1 0x0 PUSH1 0x60 DUP5 DUP7 SUB SLT ISZERO PUSH2 0x2650 JUMPI PUSH1 0x0 DUP1 REVERT JUMPDEST DUP4 CALLDATALOAD SWAP3 POP PUSH1 0x20 DUP5 ADD CALLDATALOAD SWAP2 POP PUSH1 0x40 DUP5 ADD CALLDATALOAD PUSH2 0x2669 DUP2 PUSH2 0x2909 JUMP JUMPDEST DUP1 SWAP2 POP POP SWAP3 POP SWAP3 POP SWAP3 JUMP JUMPDEST PUSH1 0x0 DUP2 MLOAD DUP1 DUP5 MSTORE PUSH2 0x268C DUP2 PUSH1 0x20 DUP7 ADD PUSH1 0x20 DUP7 ADD PUSH2 0x2817 JUMP JUMPDEST PUSH1 0x1F ADD PUSH32 0xFFFFFFFFFFFFFFFFFFFFFFFFFFFFFFFFFFFFFFFFFFFFFFFFFFFFFFFFFFFFFFE0 AND SWAP3 SWAP1 SWAP3 ADD PUSH1 0x20 ADD SWAP3 SWAP2 POP POP JUMP JUMPDEST PUSH1 0x0 DUP3 MLOAD PUSH2 0x26D0 DUP2 DUP5 PUSH1 0x20 DUP8 ADD PUSH2 0x2817 JUMP JUMPDEST SWAP2 SWAP1 SWAP2 ADD SWAP3 SWAP2 POP POP JUMP JUMPDEST PUSH20 0xFFFFFFFFFFFFFFFFFFFFFFFFFFFFFFFFFFFFFFFF DUP5 DUP2 AND DUP3 MSTORE DUP4 AND PUSH1 0x20 DUP3 ADD MSTORE PUSH1 0x60 DUP2 ADD PUSH1 0x4 DUP4 LT PUSH2 0x2736 JUMPI PUSH32 0x4E487B7100000000000000000000000000000000000000000000000000000000 PUSH1 0x0 MSTORE PUSH1 0x21 PUSH1 0x4 MSTORE PUSH1 0x24 PUSH1 0x0 REVERT JUMPDEST DUP3 PUSH1 0x40 DUP4 ADD MSTORE SWAP5 SWAP4 POP POP POP POP JUMP JUMPDEST PUSH1 0x20 DUP2 MSTORE PUSH1 0x0 PUSH2 0xDE4 PUSH1 0x20 DUP4 ADD DUP5 PUSH2 0x2674 JUMP JUMPDEST DUP3 DUP2 MSTORE PUSH1 0x40 PUSH1 0x20 DUP3 ADD MSTORE PUSH1 0x0 PUSH2 0x2311 PUSH1 0x40 DUP4 ADD DUP5 PUSH2 0x2674 JUMP JUMPDEST PUSH1 0x0 DUP3 NOT DUP3 GT ISZERO PUSH2 0x2783 JUMPI PUSH2 0x2783 PUSH2 0x287C JUMP JUMPDEST POP ADD SWAP1 JUMP JUMPDEST PUSH1 0x0 DUP3 PUSH2 0x27BE JUMPI PUSH32 0x4E487B7100000000000000000000000000000000000000000000000000000000 PUSH1 0x0 MSTORE PUSH1 0x12 PUSH1 0x4 MSTORE PUSH1 0x24 PUSH1 0x0 REVERT JUMPDEST POP DIV SWAP1 JUMP JUMPDEST PUSH1 0x0 DUP2 PUSH32 0xFFFFFFFFFFFFFFFFFFFFFFFFFFFFFFFFFFFFFFFFFFFFFFFFFFFFFFFFFFFFFFFF DIV DUP4 GT DUP3 ISZERO ISZERO AND ISZERO PUSH2 0x27FB JUMPI PUSH2 0x27FB PUSH2 0x287C JUMP JUMPDEST POP MUL SWAP1 JUMP JUMPDEST PUSH1 0x0 DUP3 DUP3 LT ISZERO PUSH2 0x2812 JUMPI PUSH2 0x2812 PUSH2 0x287C JUMP JUMPDEST POP SUB SWAP1 JUMP JUMPDEST PUSH1 0x0 JUMPDEST DUP4 DUP2 LT ISZERO PUSH2 0x2832 JUMPI DUP2 DUP2 ADD MLOAD DUP4 DUP3 ADD MSTORE PUSH1 0x20 ADD PUSH2 0x281A JUMP JUMPDEST DUP4 DUP2 GT ISZERO PUSH2 0x1D53 JUMPI POP POP PUSH1 0x0 SWAP2 ADD MSTORE JUMP JUMPDEST PUSH1 0x0 PUSH32 0xFFFFFFFFFFFFFFFFFFFFFFFFFFFFFFFFFFFFFFFFFFFFFFFFFFFFFFFFFFFFFFFF DUP3 EQ ISZERO PUSH2 0x2875 JUMPI PUSH2 0x2875 PUSH2 0x287C JUMP JUMPDEST POP PUSH1 0x1 ADD SWAP1 JUMP JUMPDEST PUSH32 0x4E487B7100000000000000000000000000000000000000000000000000000000 PUSH1 0x0 MSTORE PUSH1 0x11 PUSH1 0x4 MSTORE PUSH1 0x24 PUSH1 0x0 REVERT JUMPDEST PUSH32 0x4E487B7100000000000000000000000000000000000000000000000000000000 PUSH1 0x0 MSTORE PUSH1 0x21 PUSH1 0x4 MSTORE PUSH1 0x24 PUSH1 0x0 REVERT JUMPDEST PUSH32 0x4E487B7100000000000000000000000000000000000000000000000000000000 PUSH1 0x0 MSTORE PUSH1 0x32 PUSH1 0x4 MSTORE PUSH1 0x24 PUSH1 0x0 REVERT JUMPDEST PUSH20 0xFFFFFFFFFFFFFFFFFFFFFFFFFFFFFFFFFFFFFFFF DUP2 AND DUP2 EQ PUSH2 0x748 JUMPI PUSH1 0x0 DUP1 REVERT JUMPDEST DUP1 ISZERO ISZERO DUP2 EQ PUSH2 0x748 JUMPI PUSH1 0x0 DUP1 REVERT INVALID LOG2 PUSH5 0x6970667358 0x22 SLT KECCAK256 0xBC STATICCALL 0xC1 0x5F 0xEA 0xCC 0xF6 0xC8 0xC7 0xD1 SWAP13 LOG1 DUP15 SWAP14 SWAP7 0x21 SHR 0xE8 0x5D 0xC4 LOG1 0xD8 BALANCE ISZERO 0x2D 0xEF 0xBF 0xF9 PUSH25 0x132A2364736F6C634300080700330000000000000000000000 "
		},
		"gasEstimates": {
			"creation": {
				"codeDepositCost": "2121400",
				"executionCost": "96547",
				"totalCost": "2217947"
			},
			"external": {
				"addPool(address)": "infinite",
				"autocompoundOn()": "2354",
				"compoundAll()": "infinite",
				"compoundMode()": "2329",
				"deposit(uint256,uint256)": "infinite",
				"deposit(uint256,uint256,address)": "infinite",
				"operators(address)": "2559",
				"owner()": "2357",
				"poolInfo(uint256)": "6925",
				"poolLength()": "2317",
				"renounceOwnership()": "28167",
				"resetAllowances()": "infinite",
				"resetSingleAllowance(uint256)": "infinite",
				"setCompoundMode(uint256,bool)": "50197",
				"stakedWantTokens(uint256,address)": "infinite",
				"strats(address)": "2579",
				"transferOwnership(address)": "infinite",
				"updateOperator(address,bool)": "infinite",
				"userInfo(uint256,address)": "2688",
				"withdraw(uint256,uint256)": "infinite",
				"withdraw(uint256,uint256,address)": "infinite",
				"withdrawAll(uint256)": "infinite"
			},
			"internal": {
				"_compoundAll()": "infinite",
				"_deposit(uint256,uint256,address)": "infinite",
				"_withdraw(uint256,uint256,address)": "infinite",
				"addUserShares(uint256,address,uint256)": "26723",
				"getUserShares(uint256,address)": "infinite",
				"removeUserShares(uint256,address,uint256)": "26720"
			}
		},
		"methodIdentifiers": {
			"addPool(address)": "d914cd4b",
			"autocompoundOn()": "e2ff2f47",
			"compoundAll()": "9b05ddb3",
			"compoundMode()": "5d142d07",
			"deposit(uint256,uint256)": "e2bbb158",
			"deposit(uint256,uint256,address)": "8dbdbe6d",
			"operators(address)": "13e7c9d8",
			"owner()": "8da5cb5b",
			"poolInfo(uint256)": "1526fe27",
			"poolLength()": "081e3eda",
			"renounceOwnership()": "715018a6",
			"resetAllowances()": "3505b09f",
			"resetSingleAllowance(uint256)": "23e1ad7d",
			"setCompoundMode(uint256,bool)": "3d4fc8d1",
			"stakedWantTokens(uint256,address)": "7b84daec",
			"strats(address)": "e718d129",
			"transferOwnership(address)": "f2fde38b",
			"updateOperator(address,bool)": "6d44a3b2",
			"userInfo(uint256,address)": "93f1a40b",
			"withdraw(uint256,uint256)": "441a3e70",
			"withdraw(uint256,uint256,address)": "0ad58d2f",
			"withdrawAll(uint256)": "958e2d31"
		}
	},
	"abi": [
		{
			"anonymous": false,
			"inputs": [
				{
					"indexed": true,
					"internalType": "address",
					"name": "strat",
					"type": "address"
				}
			],
			"name": "AddPool",
			"type": "event"
		},
		{
			"anonymous": false,
			"inputs": [
				{
					"indexed": false,
					"internalType": "uint256",
					"name": "pid",
					"type": "uint256"
				},
				{
					"indexed": false,
					"internalType": "bytes",
					"name": "reason",
					"type": "bytes"
				}
			],
			"name": "CompoundError",
			"type": "event"
		},
		{
			"anonymous": false,
			"inputs": [
				{
					"indexed": true,
					"internalType": "address",
					"name": "user",
					"type": "address"
				},
				{
					"indexed": true,
					"internalType": "uint256",
					"name": "pid",
					"type": "uint256"
				},
				{
					"indexed": false,
					"internalType": "uint256",
					"name": "amount",
					"type": "uint256"
				}
			],
			"name": "Deposit",
			"type": "event"
		},
		{
			"anonymous": false,
			"inputs": [
				{
					"indexed": true,
					"internalType": "address",
					"name": "user",
					"type": "address"
				},
				{
					"indexed": true,
					"internalType": "uint256",
					"name": "pid",
					"type": "uint256"
				},
				{
					"indexed": false,
					"internalType": "uint256",
					"name": "amount",
					"type": "uint256"
				}
			],
			"name": "EmergencyWithdraw",
			"type": "event"
		},
		{
			"anonymous": false,
			"inputs": [
				{
					"indexed": true,
					"internalType": "address",
					"name": "operator",
					"type": "address"
				},
				{
					"indexed": true,
					"internalType": "bool",
					"name": "status",
					"type": "bool"
				}
			],
			"name": "OperatorUpdated",
			"type": "event"
		},
		{
			"anonymous": false,
			"inputs": [
				{
					"indexed": true,
					"internalType": "address",
					"name": "previousOwner",
					"type": "address"
				},
				{
					"indexed": true,
					"internalType": "address",
					"name": "newOwner",
					"type": "address"
				}
			],
			"name": "OwnershipTransferred",
			"type": "event"
		},
		{
			"anonymous": false,
			"inputs": [
				{
					"indexed": false,
					"internalType": "uint256",
					"name": "locked",
					"type": "uint256"
				},
				{
					"indexed": false,
					"internalType": "bool",
					"name": "automatic",
					"type": "bool"
				}
			],
			"name": "SetCompoundMode",
			"type": "event"
		},
		{
			"anonymous": false,
			"inputs": [
				{
					"indexed": true,
					"internalType": "address",
					"name": "user",
					"type": "address"
				},
				{
					"indexed": true,
					"internalType": "uint256",
					"name": "pid",
					"type": "uint256"
				},
				{
					"indexed": false,
					"internalType": "uint256",
					"name": "amount",
					"type": "uint256"
				}
			],
			"name": "Withdraw",
			"type": "event"
		},
		{
			"inputs": [
				{
					"internalType": "address",
					"name": "_strat",
					"type": "address"
				}
			],
			"name": "addPool",
			"outputs": [],
			"stateMutability": "nonpayable",
			"type": "function"
		},
		{
			"inputs": [],
			"name": "autocompoundOn",
			"outputs": [
				{
					"internalType": "bool",
					"name": "",
					"type": "bool"
				}
			],
			"stateMutability": "view",
			"type": "function"
		},
		{
			"inputs": [],
			"name": "compoundAll",
			"outputs": [],
			"stateMutability": "nonpayable",
			"type": "function"
		},
		{
			"inputs": [],
			"name": "compoundMode",
			"outputs": [
				{
					"internalType": "uint256",
					"name": "",
					"type": "uint256"
				}
			],
			"stateMutability": "view",
			"type": "function"
		},
		{
			"inputs": [
				{
					"internalType": "uint256",
					"name": "_pid",
					"type": "uint256"
				},
				{
					"internalType": "uint256",
					"name": "_wantAmt",
					"type": "uint256"
				},
				{
					"internalType": "address",
					"name": "_to",
					"type": "address"
				}
			],
			"name": "deposit",
			"outputs": [],
			"stateMutability": "nonpayable",
			"type": "function"
		},
		{
			"inputs": [
				{
					"internalType": "uint256",
					"name": "_pid",
					"type": "uint256"
				},
				{
					"internalType": "uint256",
					"name": "_wantAmt",
					"type": "uint256"
				}
			],
			"name": "deposit",
			"outputs": [],
			"stateMutability": "nonpayable",
			"type": "function"
		},
		{
			"inputs": [
				{
					"internalType": "address",
					"name": "",
					"type": "address"
				}
			],
			"name": "operators",
			"outputs": [
				{
					"internalType": "bool",
					"name": "",
					"type": "bool"
				}
			],
			"stateMutability": "view",
			"type": "function"
		},
		{
			"inputs": [],
			"name": "owner",
			"outputs": [
				{
					"internalType": "address",
					"name": "",
					"type": "address"
				}
			],
			"stateMutability": "view",
			"type": "function"
		},
		{
			"inputs": [
				{
					"internalType": "uint256",
					"name": "",
					"type": "uint256"
				}
			],
			"name": "poolInfo",
			"outputs": [
				{
					"internalType": "contract IERC20",
					"name": "want",
					"type": "address"
				},
				{
					"internalType": "contract IStrategy",
					"name": "strat",
					"type": "address"
				},
				{
					"internalType": "enum StratType",
					"name": "stratType",
					"type": "uint8"
				}
			],
			"stateMutability": "view",
			"type": "function"
		},
		{
			"inputs": [],
			"name": "poolLength",
			"outputs": [
				{
					"internalType": "uint256",
					"name": "",
					"type": "uint256"
				}
			],
			"stateMutability": "view",
			"type": "function"
		},
		{
			"inputs": [],
			"name": "renounceOwnership",
			"outputs": [],
			"stateMutability": "nonpayable",
			"type": "function"
		},
		{
			"inputs": [],
			"name": "resetAllowances",
			"outputs": [],
			"stateMutability": "nonpayable",
			"type": "function"
		},
		{
			"inputs": [
				{
					"internalType": "uint256",
					"name": "_pid",
					"type": "uint256"
				}
			],
			"name": "resetSingleAllowance",
			"outputs": [],
			"stateMutability": "nonpayable",
			"type": "function"
		},
		{
			"inputs": [
				{
					"internalType": "uint256",
					"name": "mode",
					"type": "uint256"
				},
				{
					"internalType": "bool",
					"name": "autoC",
					"type": "bool"
				}
			],
			"name": "setCompoundMode",
			"outputs": [],
			"stateMutability": "nonpayable",
			"type": "function"
		},
		{
			"inputs": [
				{
					"internalType": "uint256",
					"name": "_pid",
					"type": "uint256"
				},
				{
					"internalType": "address",
					"name": "_user",
					"type": "address"
				}
			],
			"name": "stakedWantTokens",
			"outputs": [
				{
					"internalType": "uint256",
					"name": "",
					"type": "uint256"
				}
			],
			"stateMutability": "view",
			"type": "function"
		},
		{
			"inputs": [
				{
					"internalType": "address",
					"name": "",
					"type": "address"
				}
			],
			"name": "strats",
			"outputs": [
				{
					"internalType": "bool",
					"name": "",
					"type": "bool"
				}
			],
			"stateMutability": "view",
			"type": "function"
		},
		{
			"inputs": [
				{
					"internalType": "address",
					"name": "newOwner",
					"type": "address"
				}
			],
			"name": "transferOwnership",
			"outputs": [],
			"stateMutability": "nonpayable",
			"type": "function"
		},
		{
			"inputs": [
				{
					"internalType": "address",
					"name": "_operator",
					"type": "address"
				},
				{
					"internalType": "bool",
					"name": "_status",
					"type": "bool"
				}
			],
			"name": "updateOperator",
			"outputs": [],
			"stateMutability": "nonpayable",
			"type": "function"
		},
		{
			"inputs": [
				{
					"internalType": "uint256",
					"name": "_pid",
					"type": "uint256"
				},
				{
					"internalType": "address",
					"name": "_user",
					"type": "address"
				}
			],
			"name": "userInfo",
			"outputs": [
				{
					"internalType": "uint256",
					"name": "",
					"type": "uint256"
				}
			],
			"stateMutability": "view",
			"type": "function"
		},
		{
			"inputs": [
				{
					"internalType": "uint256",
					"name": "_pid",
					"type": "uint256"
				},
				{
					"internalType": "uint256",
					"name": "_wantAmt",
					"type": "uint256"
				},
				{
					"internalType": "address",
					"name": "_to",
					"type": "address"
				}
			],
			"name": "withdraw",
			"outputs": [],
			"stateMutability": "nonpayable",
			"type": "function"
		},
		{
			"inputs": [
				{
					"internalType": "uint256",
					"name": "_pid",
					"type": "uint256"
				},
				{
					"internalType": "uint256",
					"name": "_wantAmt",
					"type": "uint256"
				}
			],
			"name": "withdraw",
			"outputs": [],
			"stateMutability": "nonpayable",
			"type": "function"
		},
		{
			"inputs": [
				{
					"internalType": "uint256",
					"name": "_pid",
					"type": "uint256"
				}
			],
			"name": "withdrawAll",
			"outputs": [],
			"stateMutability": "nonpayable",
			"type": "function"
		}
	]
}