{
	"data": {
		"bytecode": {
			"linkReferences": {},
			"object": "608060405234801561001057600080fd5b506185f1806100206000396000f3fe60806040523480156200001157600080fd5b50600436106200003a5760003560e01c8063286d1fe3146200003f57806397b28f681462000072575b600080fd5b6200005662000050366004620001e7565b62000089565b6040516001600160a01b03909116815260200160405180910390f35b620000566200008336600462000290565b62000125565b6000808a338b8b8b8b8b8b8b8b604051620000a490620001ae565b6001600160a01b039a8b168152988a1660208a015296891660408901529488166060880152928716608087015290861660a0860152851660c085015260e084015261010083015290911661012082015261014001604051809103906000f08015801562000115573d6000803e3d6000fd5b509b9a5050505050505050505050565b60008088338989898989896040516200013e90620001bc565b6001600160a01b0398891681529688166020880152948716604087015292861660608601526080850191909152841660a084015260c083015290911660e082015261010001604051809103906000f080158015620001a0573d6000803e3d6000fd5b509998505050505050505050565b6142cc806200031483390190565b613fdc80620045e083390190565b80356001600160a01b0381168114620001e257600080fd5b919050565b60008060008060008060008060006101208a8c0312156200020757600080fd5b620002128a620001ca565b98506200022260208b01620001ca565b97506200023260408b01620001ca565b96506200024260608b01620001ca565b95506200025260808b01620001ca565b94506200026260a08b01620001ca565b935060c08a0135925060e08a01359150620002816101008b01620001ca565b90509295985092959850929598565b600080600080600080600060e0888a031215620002ac57600080fd5b620002b788620001ca565b9650620002c760208901620001ca565b9550620002d760408901620001ca565b945060608801359350620002ee60808901620001ca565b925060a088013591506200030560c08901620001ca565b90509295989194975092955056fe610160604052436006556000600755603260085560006009556101c2600a55612706600b556103b6600c553480156200003757600080fd5b50604051620042cc380380620042cc8339810160408190526200005a9162001083565b8886868660026200006b33620004aa565b600180556002805460ff191690556001600160601b0319606086811b821660c05285811b821660805284811b821660a05283901b1660e052806003811115620000b857620000b86200124f565b610100816003811115620000d057620000d06200124f565b60f81b81525050505050505089600560006101000a8154816001600160a01b0302191690836001600160a01b03160217905550876001600160a01b0316610120816001600160a01b031660601b8152505086600460006101000a8154816001600160a01b0302191690836001600160a01b0316021790555082610140818152505081600d81905550856001600160a01b0316630dfe16816040518163ffffffff1660e01b815260040160206040518083038186803b1580156200019257600080fd5b505afa925050508015620001c5575060408051601f3d908101601f19168201909252620001c29181019062001065565b60015b620001d0576200028e565b80600260016101000a8154816001600160a01b0302191690836001600160a01b03160217905550866001600160a01b031663d21220a76040518163ffffffff1660e01b815260040160206040518083038186803b1580156200023157600080fd5b505afa15801562000246573d6000803e3d6000fd5b505050506040513d601f19601f820116820180604052508101906200026c919062001065565b600380546001600160a01b0319166001600160a01b0392909216919091179055505b620002a58582620004fa60201b6200154d1760201c565b8051620002bb91600f9160209091019062000fc7565b5062000343600f8054806020026020016040519081016040528092919081815260200182805480156200031857602002820191906000526020600020905b81546001600160a01b03168152600190910190602001808311620002f9575b5050505050732791bca1f2de4661ed88a30c99a7a9449aa841746200070560201b620017431760201c565b8051620003599160109160209091019062000fc7565b50620003e1600f805480602002602001604051908101604052809291908181526020018280548015620003b657602002820191906000526020600020905b81546001600160a01b0316815260019091019060200180831162000397575b50505050507376bf0c28e604cc3fe9967c83b3c3f31c213cfe646200070560201b620017431760201c565b8051620003f79160119160209091019062000fc7565b506200046b600f8054806020026020016040519081016040528092919081815260200182805480156200045457602002820191906000526020600020905b81546001600160a01b0316815260019091019060200180831162000435575b5050505050856200070560201b620017431760201c565b8051620004819160169160209091019062000fc7565b506200048d8962000927565b6200049a86868a620009fc565b5050505050505050505062001291565b600080546001600160a01b038381166001600160a01b0319831681178455604051919092169283917f8be0079c531659141344cd1fd0a4f28419497f9722a3daafe3b4186f6b6457e09190a35050565b60606001600160a01b038316730d500b1d8e8ef31e21c99d1db9a6444d3adf1270141562000593576040805160018082528183019092529060208083019080368337019050509050730d500b1d8e8ef31e21c99d1db9a6444d3adf1270816000815181106200056d576200056d62001265565b60200260200101906001600160a01b031690816001600160a01b031681525050620006ff565b6001600160a01b038216620006245760408051600280825260608201835290916020830190803683370190505090508281600081518110620005d957620005d962001265565b60200260200101906001600160a01b031690816001600160a01b031681525050730d500b1d8e8ef31e21c99d1db9a6444d3adf1270816001815181106200056d576200056d62001265565b60408051600380825260808201909252906020820160608036833701905050905082816000815181106200065c576200065c62001265565b60200260200101906001600160a01b031690816001600160a01b031681525050818160018151811062000693576200069362001265565b60200260200101906001600160a01b031690816001600160a01b031681525050730d500b1d8e8ef31e21c99d1db9a6444d3adf127081600281518110620006de57620006de62001265565b60200260200101906001600160a01b031690816001600160a01b0316815250505b92915050565b6060816001600160a01b03168360008151811062000727576200072762001265565b60200260200101516001600160a01b031614156200077657604080516001808252818301909252906020808301908036833701905050905081816000815181106200056d576200056d62001265565b732791bca1f2de4661ed88a30c99a7a9449aa841746001600160a01b031683600181518110620007aa57620007aa62001265565b60200260200101516001600160a01b031614156200084d57604080516002808252606082018352909160208301908036833701905050905082600081518110620007f857620007f862001265565b60200260200101518160008151811062000816576200081662001265565b60200260200101906001600160a01b031690816001600160a01b03168152505081816001815181106200056d576200056d62001265565b82516200085c906001620011d1565b6001600160401b038111156200087657620008766200127b565b604051908082528060200260200182016040528015620008a0578160200160208202803683370190505b50905060005b83518110156200090f57838181518110620008c557620008c562001265565b6020026020010151828281518110620008e257620008e262001265565b6001600160a01b03909216602092830291909101909101528062000906816200121b565b915050620008a6565b508181845181518110620006de57620006de62001265565b6000546001600160a01b03163314620009875760405162461bcd60e51b815260206004820181905260248201527f4f776e61626c653a2063616c6c6572206973206e6f7420746865206f776e657260448201526064015b60405180910390fd5b6001600160a01b038116620009ee5760405162461bcd60e51b815260206004820152602660248201527f4f776e61626c653a206e6577206f776e657220697320746865207a65726f206160448201526564647265737360d01b60648201526084016200097e565b620009f981620004aa565b50565b62000a22816000856001600160a01b031662000b2660201b6200193f179092919060201c565b62000a4981600019856001600160a01b031662000c8e60201b62001a9b179092919060201c565b60045462000a72906001600160a01b038481169116600062000b26602090811b6200193f17901c565b60045462000a9c906001600160a01b03848116911660001962000c8e602090811b62001a9b17901c565b62000ade732791bca1f2de4661ed88a30c99a7a9449aa8417473917fb15e8aaa12264dcbdc15afef7cd3ce76ba39600062000b26602090811b6200193f17901c565b62000b21732791bca1f2de4661ed88a30c99a7a9449aa8417473917fb15e8aaa12264dcbdc15afef7cd3ce76ba3960001962000c8e602090811b62001a9b17901c565b505050565b80158062000bb45750604051636eb1769f60e11b81523060048201526001600160a01b03838116602483015284169063dd62ed3e9060440160206040518083038186803b15801562000b7757600080fd5b505afa15801562000b8c573d6000803e3d6000fd5b505050506040513d601f19601f8201168201806040525081019062000bb2919062001164565b155b62000c285760405162461bcd60e51b815260206004820152603660248201527f5361666545524332303a20617070726f76652066726f6d206e6f6e2d7a65726f60448201527f20746f206e6f6e2d7a65726f20616c6c6f77616e63650000000000000000000060648201526084016200097e565b6040516001600160a01b03831660248201526044810182905262000b2190849063095ea7b360e01b906064015b60408051808303601f190181529190526020810180516001600160e01b0319939093166001600160e01b039384161790529062000d5d16565b604051636eb1769f60e11b81523060048201526001600160a01b038381166024830152600091839186169063dd62ed3e9060440160206040518083038186803b15801562000cdb57600080fd5b505afa15801562000cf0573d6000803e3d6000fd5b505050506040513d601f19601f8201168201806040525081019062000d16919062001164565b62000d229190620011d1565b6040516001600160a01b03851660248201526044810182905290915062000d5790859063095ea7b360e01b9060640162000c55565b50505050565b600062000db9826040518060400160405280602081526020017f5361666545524332303a206c6f772d6c6576656c2063616c6c206661696c6564815250856001600160a01b031662000e3b60201b62001b62179092919060201c565b80519091501562000b21578080602001905181019062000dda919062001140565b62000b215760405162461bcd60e51b815260206004820152602a60248201527f5361666545524332303a204552433230206f7065726174696f6e20646964206e6044820152691bdd081cdd58d8d9595960b21b60648201526084016200097e565b606062000e4c848460008562000e56565b90505b9392505050565b60608247101562000eb95760405162461bcd60e51b815260206004820152602660248201527f416464726573733a20696e73756666696369656e742062616c616e636520666f6044820152651c8818d85b1b60d21b60648201526084016200097e565b843b62000f095760405162461bcd60e51b815260206004820152601d60248201527f416464726573733a2063616c6c20746f206e6f6e2d636f6e747261637400000060448201526064016200097e565b600080866001600160a01b0316858760405162000f2791906200117e565b60006040518083038185875af1925050503d806000811462000f66576040519150601f19603f3d011682016040523d82523d6000602084013e62000f6b565b606091505b50909250905062000f7e82828662000f89565b979650505050505050565b6060831562000f9a57508162000e4f565b82511562000fab5782518084602001fd5b8160405162461bcd60e51b81526004016200097e91906200119c565b8280548282559060005260206000209081019282156200101f579160200282015b828111156200101f57825182546001600160a01b0319166001600160a01b0390911617825560209092019160019091019062000fe8565b506200102d92915062001031565b5090565b5b808211156200102d576000815560010162001032565b80516001600160a01b03811681146200106057600080fd5b919050565b6000602082840312156200107857600080fd5b62000e4f8262001048565b6000806000806000806000806000806101408b8d031215620010a457600080fd5b620010af8b62001048565b9950620010bf60208c0162001048565b9850620010cf60408c0162001048565b9750620010df60608c0162001048565b9650620010ef60808c0162001048565b9550620010ff60a08c0162001048565b94506200110f60c08c0162001048565b935060e08b015192506101008b015191506200112f6101208c0162001048565b90509295989b9194979a5092959850565b6000602082840312156200115357600080fd5b8151801515811462000e4f57600080fd5b6000602082840312156200117757600080fd5b5051919050565b6000825162001192818460208701620011ec565b9190910192915050565b6020815260008251806020840152620011bd816040850160208701620011ec565b601f01601f19169190910160400192915050565b60008219821115620011e757620011e762001239565b500190565b60005b8381101562001209578181015183820152602001620011ef565b8381111562000d575750506000910152565b600060001982141562001232576200123262001239565b5060010190565b634e487b7160e01b600052601160045260246000fd5b634e487b7160e01b600052602160045260246000fd5b634e487b7160e01b600052603260045260246000fd5b634e487b7160e01b600052604160045260246000fd5b60805160601c60a05160601c60c05160601c60e05160601c6101005160f81c6101205160601c61014051612f18620013b460003960008181610732015281816107bc01528181611ce001528181611edc015281816124c80152612893015260008181610453015281816107f501528181611bc201528181611d0601528181611f09015281816124f501526128c00152600061053301526000818161068601528181610fa001526110a701526000818161041a0152818161107d015261151b0152600081816106e401528181610ef301528181610fca0152611ba101526000818161070b0152818161092301528181610a83015281816112c201528181611375015281816114a5015281816114f901528181611b800152611dc10152612f186000f3fe608060405234801561001057600080fd5b50600436106103775760003560e01c80637b0a47ee116101d3578063c8e3d18b11610104578063e7198474116100a2578063f2fde38b1161007c578063f2fde38b14610754578063f3fef3a314610767578063ffbd3b1f1461077a578063ffbe9f1e1461050957600080fd5b8063e7198474146106df578063e7a0367914610706578063f10684541461072d57600080fd5b8063d62e969d116100de578063d62e969d14610681578063d7cb416f146106a8578063db4b7eee146106bb578063dce52dfa146106d657600080fd5b8063c8e3d18b14610653578063cfad57a214610666578063d389800f1461067957600080fd5b80638da5cb5b116101715780639872317f1161014b5780639872317f14610609578063b02381c614610624578063b74cd24214610637578063b77050e71461064057600080fd5b80638da5cb5b146105dc5780638fefda06146105ed57806396e9aff8146105f657600080fd5b806385f02dd6116101ad57806385f02dd61461059c578063866b2018146105a55780638811dad0146105ae5780638cf57cb9146105c157600080fd5b80637b0a47ee146105735780637ff36fbe1461057c5780638456cb591461059457600080fd5b806346008a07116102ad57806367057b6c1161024b5780637115e9fa116102255780637115e9fa1461052e578063715018a614610562578063783478ad1461056a578063784def8c1461047557600080fd5b806367057b6c1461050957806368f5416214610512578063693a090b1461051b57600080fd5b8063492816831161028757806349281683146104cf57806350e15fdd146104e25780635c975abb146104eb57806365a5e30b1461050157600080fd5b806346008a07146104a15780634700d305146104b457806347e7ef24146104bc57600080fd5b80633220d7321161031a57806340c34b58116102f457806340c34b581461044e578063412753581461047557806342da4eb31461049057806344a3955e1461049857600080fd5b80633220d732146104155780633505b09f1461043c5780633f4ba83a1461044657600080fd5b80630fa4e01e116103565780630fa4e01e146103dd578063178a8d07146103e6578063260ab48c146103ef57806330f6cf631461040257600080fd5b80627a2ae31461037c57806302d45457146103ac57806304c9d490146103c7575b600080fd5b61038f61038a366004612b57565b610783565b6040516001600160a01b0390911681526020015b60405180910390f35b61038f732791bca1f2de4661ed88a30c99a7a9449aa8417481565b6103cf6107ad565b6040519081526020016103a3565b6103cf60065481565b6103cf600a5481565b61038f6103fd366004612b57565b610875565b61038f610410366004612b57565b610885565b61038f7f000000000000000000000000000000000000000000000000000000000000000081565b610444610895565b005b6104446108d2565b61038f7f000000000000000000000000000000000000000000000000000000000000000081565b61038f735386881b46c37cdd30a748f7771cf95d7b21363781565b6103cf610904565b6103cf60075481565b60055461038f906001600160a01b031681565b6104446109b4565b6103cf6104ca366004612a46565b6109ee565b61038f6104dd366004612b57565b610aff565b6103cf600e5481565b60025460ff1660405190151581526020016103a3565b610444610b0f565b6103cf61271081565b6103cf600b5481565b60045461038f906001600160a01b031681565b6105557f000000000000000000000000000000000000000000000000000000000000000081565b6040516103a39190612c69565b610444610b4c565b61038f61dead81565b6103cf60095481565b60025461038f9061010090046001600160a01b031681565b610444610b80565b6103cf60085481565b6103cf6126ac81565b61038f6105bc366004612b57565b610bb2565b61038f73917fb15e8aaa12264dcbdc15afef7cd3ce76ba3981565b6000546001600160a01b031661038f565b6103cf6103e881565b61038f610604366004612b57565b610bc2565b61038f7376bf0c28e604cc3fe9967c83b3c3f31c213cfe6481565b610444610632366004612bad565b610bd2565b6103cf6103e381565b61038f61064e366004612b57565b610dec565b61038f610661366004612b57565b610dfc565b610444610674366004612a2b565b610e0c565b610444610e58565b61038f7f000000000000000000000000000000000000000000000000000000000000000081565b60035461038f906001600160a01b031681565b61038f730d500b1d8e8ef31e21c99d1db9a6444d3adf127081565b6103cf600d5481565b61038f7f000000000000000000000000000000000000000000000000000000000000000081565b61038f7f000000000000000000000000000000000000000000000000000000000000000081565b6103cf7f000000000000000000000000000000000000000000000000000000000000000081565b610444610762366004612a2b565b611182565b6103cf610775366004612a46565b61121a565b6103cf600c5481565b6015818154811061079357600080fd5b6000918252602090912001546001600160a01b0316905081565b6040516393f1a40b60e01b81527f0000000000000000000000000000000000000000000000000000000000000000600482015230602482015260009081906001600160a01b037f000000000000000000000000000000000000000000000000000000000000000016906393f1a40b90604401604080518083038186803b15801561083657600080fd5b505afa15801561084a573d6000803e3d6000fd5b505050506040513d601f19601f8201168201806040525081019061086e9190612b89565b5092915050565b600f818154811061079357600080fd5b6016818154811061079357600080fd5b6005546001600160a01b031633146108c85760405162461bcd60e51b81526004016108bf90612cc4565b60405180910390fd5b6108d0611b7b565b565b6005546001600160a01b031633146108fc5760405162461bcd60e51b81526004016108bf90612cc4565b6108c8611be6565b600061090e6107ad565b6040516370a0823160e01b81523060048201527f00000000000000000000000000000000000000000000000000000000000000006001600160a01b0316906370a082319060240160206040518083038186803b15801561096d57600080fd5b505afa158015610981573d6000803e3d6000fd5b505050506040513d601f19601f820116820180604052508101906109a59190612b70565b6109af9190612dcd565b905090565b6005546001600160a01b031633146109de5760405162461bcd60e51b81526004016108bf90612cc4565b6109e6611c79565b6108d0611cd1565b600080546001600160a01b03163314610a195760405162461bcd60e51b81526004016108bf90612d0c565b60026001541415610a3c5760405162461bcd60e51b81526004016108bf90612d41565b6002600155610a4d60025460ff1690565b15610a6a5760405162461bcd60e51b81526004016108bf90612ce2565b6000610a74610904565b9050610aab6001600160a01b037f000000000000000000000000000000000000000000000000000000000000000016333086611d67565b6000610ab5611d9f565b60075490915015610adc578160075482610acf9190612df9565b610ad99190612de5565b90505b8060076000828254610aee9190612dcd565b909155505060018055949350505050565b6010818154811061079357600080fd5b6005546001600160a01b03163314610b395760405162461bcd60e51b81526004016108bf90612cc4565b610b41611be6565b610b49611d9f565b50565b6000546001600160a01b03163314610b765760405162461bcd60e51b81526004016108bf90612d0c565b6108d06000611e7d565b6005546001600160a01b03163314610baa5760405162461bcd60e51b81526004016108bf90612cc4565b6108d0611c79565b6011818154811061079357600080fd5b6013818154811061079357600080fd5b6005546001600160a01b03163314610bfc5760405162461bcd60e51b81526004016108bf90612cc4565b6103e885610c0a888a612dcd565b610c149190612dcd565b1115610c535760405162461bcd60e51b815260206004820152600e60248201526d4d617820666565206f662031302560901b60448201526064016108bf565b6126ac841015610ca55760405162461bcd60e51b815260206004820152601a60248201527f5f7769746864726177466565466163746f7220746f6f206c6f7700000000000060448201526064016108bf565b612710841115610cf75760405162461bcd60e51b815260206004820152601b60248201527f5f7769746864726177466565466163746f7220746f6f2068696768000000000060448201526064016108bf565b6103e3831115610d495760405162461bcd60e51b815260206004820152601860248201527f5f736c697070616765466163746f7220746f6f2068696768000000000000000060448201526064016108bf565b60088790556009869055600a859055600b849055600c839055600d829055600480546001600160a01b0319166001600160a01b0383169081179091556040805189815260208101899052908101879052606081018690526080810185905260a0810184905260c08101919091527f813767a04e11dfab70a5ec48c4fd7c344ab48e62196586790931dc9dfaed97e99060e00160405180910390a150505050505050565b6014818154811061079357600080fd5b6012818154811061079357600080fd5b6005546001600160a01b03163314610e365760405162461bcd60e51b81526004016108bf90612cc4565b600580546001600160a01b0319166001600160a01b0392909216919091179055565b60026001541415610e7b5760405162461bcd60e51b81526004016108bf90612d41565b6002600155610e8c60025460ff1690565b15610ea95760405162461bcd60e51b81526004016108bf90612ce2565b6000546001600160a01b03163314610ed35760405162461bcd60e51b81526004016108bf90612d0c565b610edb611ecd565b6040516370a0823160e01b81523060048201526000907f00000000000000000000000000000000000000000000000000000000000000006001600160a01b0316906370a082319060240160206040518083038186803b158015610f3d57600080fd5b505afa158015610f51573d6000803e3d6000fd5b505050506040513d601f19601f82011682018060405250810190610f759190612b70565b9050801561117b57610f8681611f40565b9050610f9181611ff5565b9050610f9c81612237565b90507f00000000000000000000000000000000000000000000000000000000000000006001600160a01b03167f00000000000000000000000000000000000000000000000000000000000000006001600160a01b03161461105c5761105c81601680548060200260200160405190810160405280929190818152602001828054801561105157602002820191906000526020600020905b81546001600160a01b03168152600190910190602001808311611033575b5050505050306122c4565b436006556040516370a0823160e01b81523060048201526001600160a01b037f000000000000000000000000000000000000000000000000000000000000000081169163fc77c9db917f000000000000000000000000000000000000000000000000000000000000000016906370a082319060240160206040518083038186803b1580156110e957600080fd5b505afa1580156110fd573d6000803e3d6000fd5b505050506040513d601f19601f820116820180604052508101906111219190612b70565b6040518263ffffffff1660e01b815260040161113f91815260200190565b600060405180830381600087803b15801561115957600080fd5b505af115801561116d573d6000803e3d6000fd5b50505050611179611d9f565b505b5060018055565b6000546001600160a01b031633146111ac5760405162461bcd60e51b81526004016108bf90612d0c565b6001600160a01b0381166112115760405162461bcd60e51b815260206004820152602660248201527f4f776e61626c653a206e6577206f776e657220697320746865207a65726f206160448201526564647265737360d01b60648201526084016108bf565b610b4981611e7d565b600080546001600160a01b031633146112455760405162461bcd60e51b81526004016108bf90612d0c565b600260015414156112685760405162461bcd60e51b81526004016108bf90612d41565b6002600155816112aa5760405162461bcd60e51b815260206004820152600d60248201526c05f77616e74416d74206973203609c1b60448201526064016108bf565b6040516370a0823160e01b81523060048201526000907f00000000000000000000000000000000000000000000000000000000000000006001600160a01b0316906370a082319060240160206040518083038186803b15801561130c57600080fd5b505afa158015611320573d6000803e3d6000fd5b505050506040513d601f19601f820116820180604052508101906113449190612b70565b9050808311156113fa5761136061135b8285612e18565b6124b9565b6040516370a0823160e01b81523060048201527f00000000000000000000000000000000000000000000000000000000000000006001600160a01b0316906370a082319060240160206040518083038186803b1580156113bf57600080fd5b505afa1580156113d3573d6000803e3d6000fd5b505050506040513d601f19601f820116820180604052508101906113f79190612b70565b90505b80831115611406578092505b61140e610904565b8311156114205761141d610904565b92505b600061144061142d610904565b60075461143a9087612df9565b9061255d565b905060075481111561145157506007545b80600760008282546114639190612e18565b9091555050600b546000906127109061147c9082612e18565b6114869087612df9565b6114909190612de5565b905080156114e0576114e06001600160a01b037f000000000000000000000000000000000000000000000000000000000000000016735386881b46c37cdd30a748f7771cf95d7b2136378361258f565b6114ea8186612e18565b94506115406001600160a01b037f0000000000000000000000000000000000000000000000000000000000000000167f00000000000000000000000000000000000000000000000000000000000000008761258f565b5060018055949350505050565b60606001600160a01b038316730d500b1d8e8ef31e21c99d1db9a6444d3adf127014156115e1576040805160018082528183019092529060208083019080368337019050509050730d500b1d8e8ef31e21c99d1db9a6444d3adf1270816000815181106115bc576115bc612eb6565b60200260200101906001600160a01b031690816001600160a01b03168152505061173d565b6001600160a01b03821661166b576040805160028082526060820183529091602083019080368337019050509050828160008151811061162357611623612eb6565b60200260200101906001600160a01b031690816001600160a01b031681525050730d500b1d8e8ef31e21c99d1db9a6444d3adf1270816001815181106115bc576115bc612eb6565b60408051600380825260808201909252906020820160608036833701905050905082816000815181106116a0576116a0612eb6565b60200260200101906001600160a01b031690816001600160a01b03168152505081816001815181106116d4576116d4612eb6565b60200260200101906001600160a01b031690816001600160a01b031681525050730d500b1d8e8ef31e21c99d1db9a6444d3adf12708160028151811061171c5761171c612eb6565b60200260200101906001600160a01b031690816001600160a01b0316815250505b92915050565b6060816001600160a01b03168360008151811061176257611762612eb6565b60200260200101516001600160a01b031614156117ad57604080516001808252818301909252906020808301908036833701905050905081816000815181106115bc576115bc612eb6565b732791bca1f2de4661ed88a30c99a7a9449aa841746001600160a01b0316836001815181106117de576117de612eb6565b60200260200101516001600160a01b031614156118775760408051600280825260608201835290916020830190803683370190505090508260008151811061182857611828612eb6565b60200260200101518160008151811061184357611843612eb6565b60200260200101906001600160a01b031690816001600160a01b03168152505081816001815181106115bc576115bc612eb6565b8251611884906001612dcd565b67ffffffffffffffff81111561189c5761189c612ecc565b6040519080825280602002602001820160405280156118c5578160200160208202803683370190505b50905060005b835181101561192a578381815181106118e6576118e6612eb6565b602002602001015182828151811061190057611900612eb6565b6001600160a01b03909216602092830291909101909101528061192281612e5b565b9150506118cb565b50818184518151811061171c5761171c612eb6565b8015806119c85750604051636eb1769f60e11b81523060048201526001600160a01b03838116602483015284169063dd62ed3e9060440160206040518083038186803b15801561198e57600080fd5b505afa1580156119a2573d6000803e3d6000fd5b505050506040513d601f19601f820116820180604052508101906119c69190612b70565b155b611a335760405162461bcd60e51b815260206004820152603660248201527f5361666545524332303a20617070726f76652066726f6d206e6f6e2d7a65726f60448201527520746f206e6f6e2d7a65726f20616c6c6f77616e636560501b60648201526084016108bf565b6040516001600160a01b038316602482015260448101829052611a9690849063095ea7b360e01b906064015b60408051601f198184030181529190526020810180516001600160e01b03166001600160e01b0319909316929092179091526125bf565b505050565b604051636eb1769f60e11b81523060048201526001600160a01b038381166024830152600091839186169063dd62ed3e9060440160206040518083038186803b158015611ae757600080fd5b505afa158015611afb573d6000803e3d6000fd5b505050506040513d601f19601f82011682018060405250810190611b1f9190612b70565b611b299190612dcd565b6040516001600160a01b038516602482015260448101829052909150611b5c90859063095ea7b360e01b90606401611a5f565b50505050565b6060611b718484600085612691565b90505b9392505050565b6108d07f00000000000000000000000000000000000000000000000000000000000000007f00000000000000000000000000000000000000000000000000000000000000007f00000000000000000000000000000000000000000000000000000000000000006127b9565b60025460ff16611c2f5760405162461bcd60e51b815260206004820152601460248201527314185d5cd8589b194e881b9bdd081c185d5cd95960621b60448201526064016108bf565b6002805460ff191690557f5db9ee0a495bf2e6ff9c91a7834c1ba4fdd244a5e8aa4e537bd38aeae4b073aa335b6040516001600160a01b03909116815260200160405180910390a1565b60025460ff1615611c9c5760405162461bcd60e51b81526004016108bf90612ce2565b6002805460ff191660011790557f62e78cea01bee320cd4e420270b5ea74000d11b0c9f74754ebdbfc544b05a258611c5c3390565b604051632989754760e11b81527f000000000000000000000000000000000000000000000000000000000000000060048201527f00000000000000000000000000000000000000000000000000000000000000006001600160a01b031690635312ea8e906024015b600060405180830381600087803b158015611d5357600080fd5b505af1158015611b5c573d6000803e3d6000fd5b6040516001600160a01b0380851660248301528316604482015260648101829052611b5c9085906323b872dd60e01b90608401611a5f565b6040516370a0823160e01b815230600482015260009081906001600160a01b037f000000000000000000000000000000000000000000000000000000000000000016906370a082319060240160206040518083038186803b158015611e0357600080fd5b505afa158015611e17573d6000803e3d6000fd5b505050506040513d601f19601f82011682018060405250810190611e3b9190612b70565b905080611e4a57600091505090565b6000611e546107ad565b9050611e5f82612884565b6000611e696107ad565b9050611e758282612e18565b935050505090565b600080546001600160a01b038381166001600160a01b0319831681178455604051919092169283917f8be0079c531659141344cd1fd0a4f28419497f9722a3daafe3b4186f6b6457e09190a35050565b604051630441a3e760e41b81527f00000000000000000000000000000000000000000000000000000000000000006004820152600060248201527f00000000000000000000000000000000000000000000000000000000000000006001600160a01b03169063441a3e7090604401611d39565b60085460009015611ff157600061271060085484611f5e9190612df9565b611f689190612de5565b9050611fe381600f805480602002602001604051908101604052809291908181526020018280548015611fc457602002820191906000526020600020905b81546001600160a01b03168152600190910190602001808311611fa6575b5050505050735386881b46c37cdd30a748f7771cf95d7b2136376128f7565b611fed8184612e18565b9250505b5090565b60095460009015611ff1576000612710600954846120139190612df9565b61201d9190612de5565b6040516370a0823160e01b8152306004820152909150600090732791bca1f2de4661ed88a30c99a7a9449aa84174906370a082319060240160206040518083038186803b15801561206d57600080fd5b505afa158015612081573d6000803e3d6000fd5b505050506040513d601f19601f820116820180604052508101906120a59190612b70565b905061210a826010805480602002602001604051908101604052809291908181526020018280548015611051576020028201919060005260206000209081546001600160a01b03168152600190910190602001808311611033575050505050306122c4565b6040516370a0823160e01b81523060048201526000908290732791bca1f2de4661ed88a30c99a7a9449aa84174906370a082319060240160206040518083038186803b15801561215957600080fd5b505afa15801561216d573d6000803e3d6000fd5b505050506040513d601f19601f820116820180604052508101906121919190612b70565b61219b9190612e18565b604051631e2720ff60e01b81526004810182905290915073917fb15e8aaa12264dcbdc15afef7cd3ce76ba3990631e2720ff90602401602060405180830381600087803b1580156121eb57600080fd5b505af11580156121ff573d6000803e3d6000fd5b505050506040513d601f19601f820116820180604052508101906122239190612b35565b5061222e8386612e18565b94505050505090565b600a5460009015611ff1576000612710600a54846122559190612df9565b61225f9190612de5565b9050611fe38160118054806020026020016040519081016040528092919081815260200182805480156122bb57602002820191906000526020600020905b81546001600160a01b0316815260019091019060200180831161229d575b505050505061dead5b6004805460405163d06ca61f60e01b81526000926001600160a01b039092169163d06ca61f916122f8918891889101612d78565b60006040518083038186803b15801561231057600080fd5b505afa158015612324573d6000803e3d6000fd5b505050506040513d6000823e601f3d908101601f1916820160405261234c9190810190612a70565b90506000816001835161235f9190612e18565b8151811061236f5761236f612eb6565b602002602001015190507376bf0c28e604cc3fe9967c83b3c3f31c213cfe646001600160a01b031684600186516123a69190612e18565b815181106123b6576123b6612eb6565b60200260200101516001600160a01b03161480156123de57506001600160a01b03831661dead145b156123fb5780600e60008282546123f59190612dcd565b90915550505b600454600c546001600160a01b03909116906338ed17399087906103e8906124239086612df9565b61242d9190612de5565b878761243b42610258612dcd565b6040518663ffffffff1660e01b815260040161245b959493929190612d91565b600060405180830381600087803b15801561247557600080fd5b505af1158015612489573d6000803e3d6000fd5b505050506040513d6000823e601f3d908101601f191682016040526124b19190810190612a70565b505050505050565b604051630441a3e760e41b81527f00000000000000000000000000000000000000000000000000000000000000006004820152602481018290527f00000000000000000000000000000000000000000000000000000000000000006001600160a01b03169063441a3e70906044015b600060405180830381600087803b15801561254257600080fd5b505af1158015612556573d6000803e3d6000fd5b5050505050565b60006125698284612e76565b15612575576001612578565b60005b60ff166125858385612de5565b611b749190612dcd565b6040516001600160a01b038316602482015260448101829052611a9690849063a9059cbb60e01b90606401611a5f565b6000612614826040518060400160405280602081526020017f5361666545524332303a206c6f772d6c6576656c2063616c6c206661696c6564815250856001600160a01b0316611b629092919063ffffffff16565b805190915015611a9657808060200190518101906126329190612b35565b611a965760405162461bcd60e51b815260206004820152602a60248201527f5361666545524332303a204552433230206f7065726174696f6e20646964206e6044820152691bdd081cdd58d8d9595960b21b60648201526084016108bf565b6060824710156126f25760405162461bcd60e51b815260206004820152602660248201527f416464726573733a20696e73756666696369656e742062616c616e636520666f6044820152651c8818d85b1b60d21b60648201526084016108bf565b843b6127405760405162461bcd60e51b815260206004820152601d60248201527f416464726573733a2063616c6c20746f206e6f6e2d636f6e747261637400000060448201526064016108bf565b600080866001600160a01b0316858760405161275c9190612c4d565b60006040518083038185875af1925050503d8060008114612799576040519150601f19603f3d011682016040523d82523d6000602084013e61279e565b606091505b50915091506127ae8282866129d6565b979650505050505050565b6127ce6001600160a01b03841682600061193f565b6127e46001600160a01b03841682600019611a9b565b6004546127ff906001600160a01b038481169116600061193f565b60045461281b906001600160a01b038481169116600019611a9b565b61284f732791bca1f2de4661ed88a30c99a7a9449aa8417473917fb15e8aaa12264dcbdc15afef7cd3ce76ba39600061193f565b611a96732791bca1f2de4661ed88a30c99a7a9449aa8417473917fb15e8aaa12264dcbdc15afef7cd3ce76ba39600019611a9b565b604051631c57762b60e31b81527f00000000000000000000000000000000000000000000000000000000000000006004820152602481018290527f00000000000000000000000000000000000000000000000000000000000000006001600160a01b03169063e2bbb15890604401612528565b6004805460405163d06ca61f60e01b81526000926001600160a01b039092169163d06ca61f9161292b918891889101612d78565b60006040518083038186803b15801561294357600080fd5b505afa158015612957573d6000803e3d6000fd5b505050506040513d6000823e601f3d908101601f1916820160405261297f9190810190612a70565b9050600081600183516129929190612e18565b815181106129a2576129a2612eb6565b6020908102919091010151600454600c549192506001600160a01b0316906318cbafe59087906103e8906124239086612df9565b606083156129e5575081611b74565b8251156129f55782518084602001fd5b8160405162461bcd60e51b81526004016108bf9190612c91565b80356001600160a01b0381168114612a2657600080fd5b919050565b600060208284031215612a3d57600080fd5b611b7482612a0f565b60008060408385031215612a5957600080fd5b612a6283612a0f565b946020939093013593505050565b60006020808385031215612a8357600080fd5b825167ffffffffffffffff80821115612a9b57600080fd5b818501915085601f830112612aaf57600080fd5b815181811115612ac157612ac1612ecc565b8060051b604051601f19603f83011681018181108582111715612ae657612ae6612ecc565b604052828152858101935084860182860187018a1015612b0557600080fd5b600095505b83861015612b28578051855260019590950194938601938601612b0a565b5098975050505050505050565b600060208284031215612b4757600080fd5b81518015158114611b7457600080fd5b600060208284031215612b6957600080fd5b5035919050565b600060208284031215612b8257600080fd5b5051919050565b60008060408385031215612b9c57600080fd5b505080516020909101519092909150565b600080600080600080600060e0888a031215612bc857600080fd5b873596506020880135955060408801359450606088013593506080880135925060a08801359150612bfb60c08901612a0f565b905092959891949750929550565b600081518084526020808501945080840160005b83811015612c425781516001600160a01b031687529582019590820190600101612c1d565b509495945050505050565b60008251612c5f818460208701612e2f565b9190910192915050565b6020810160048310612c8b57634e487b7160e01b600052602160045260246000fd5b91905290565b6020815260008251806020840152612cb0816040850160208701612e2f565b601f01601f19169190910160400192915050565b60208082526004908201526310b3b7bb60e11b604082015260600190565b60208082526010908201526f14185d5cd8589b194e881c185d5cd95960821b604082015260600190565b6020808252818101527f4f776e61626c653a2063616c6c6572206973206e6f7420746865206f776e6572604082015260600190565b6020808252601f908201527f5265656e7472616e637947756172643a207265656e7472616e742063616c6c00604082015260600190565b828152604060208201526000611b716040830184612c09565b85815284602082015260a060408201526000612db060a0830186612c09565b6001600160a01b0394909416606083015250608001529392505050565b60008219821115612de057612de0612e8a565b500190565b600082612df457612df4612ea0565b500490565b6000816000190483118215151615612e1357612e13612e8a565b500290565b600082821015612e2a57612e2a612e8a565b500390565b60005b83811015612e4a578181015183820152602001612e32565b83811115611b5c5750506000910152565b6000600019821415612e6f57612e6f612e8a565b5060010190565b600082612e8557612e85612ea0565b500690565b634e487b7160e01b600052601160045260246000fd5b634e487b7160e01b600052601260045260246000fd5b634e487b7160e01b600052603260045260246000fd5b634e487b7160e01b600052604160045260246000fdfea264697066735822122096d343f6e6b7be48b48700f51ab75bfa87d352e783d0c960a6915de008f9c11e64736f6c63430008070033610160604052436006556000600755603260085560006009556101c2600a55612706600b556103b6600c553480156200003757600080fd5b5060405162003fdc38038062003fdc8339810160408190526200005a9162000ec4565b8683808060036200006b33620002bc565b600180556002805460ff191690556001600160601b0319606086811b821660c05285811b821660805284811b821660a05283901b1660e052806003811115620000b857620000b862001069565b610100816003811115620000d057620000d062001069565b60f81b90525050600580546001600160a01b03199081166001600160a01b038f81169190911790925560608c901b6001600160601b0319166101205260048054909116918b1691909117905550505061014085905250600d8290556200014383826200030c602090811b6200142717901c565b80516200015991600f9160209091019062000e26565b50620001e1600f805480602002602001604051908101604052809291908181526020018280548015620001b657602002820191906000526020600020905b81546001600160a01b0316815260019091019060200180831162000197575b5050505050732791bca1f2de4661ed88a30c99a7a9449aa841746200051760201b6200161d1760201c565b8051620001f79160109160209091019062000e26565b506200027f600f8054806020026020016040519081016040528092919081815260200182805480156200025457602002820191906000526020600020905b81546001600160a01b0316815260019091019060200180831162000235575b50505050507376bf0c28e604cc3fe9967c83b3c3f31c213cfe646200051760201b6200161d1760201c565b8051620002959160119160209091019062000e26565b50620002a18762000739565b620002ae8387896200080e565b5050505050505050620010ab565b600080546001600160a01b038381166001600160a01b0319831681178455604051919092169283917f8be0079c531659141344cd1fd0a4f28419497f9722a3daafe3b4186f6b6457e09190a35050565b60606001600160a01b038316730d500b1d8e8ef31e21c99d1db9a6444d3adf12701415620003a5576040805160018082528183019092529060208083019080368337019050509050730d500b1d8e8ef31e21c99d1db9a6444d3adf1270816000815181106200037f576200037f6200107f565b60200260200101906001600160a01b031690816001600160a01b03168152505062000511565b6001600160a01b038216620004365760408051600280825260608201835290916020830190803683370190505090508281600081518110620003eb57620003eb6200107f565b60200260200101906001600160a01b031690816001600160a01b031681525050730d500b1d8e8ef31e21c99d1db9a6444d3adf1270816001815181106200037f576200037f6200107f565b60408051600380825260808201909252906020820160608036833701905050905082816000815181106200046e576200046e6200107f565b60200260200101906001600160a01b031690816001600160a01b0316815250508181600181518110620004a557620004a56200107f565b60200260200101906001600160a01b031690816001600160a01b031681525050730d500b1d8e8ef31e21c99d1db9a6444d3adf127081600281518110620004f057620004f06200107f565b60200260200101906001600160a01b031690816001600160a01b0316815250505b92915050565b6060816001600160a01b0316836000815181106200053957620005396200107f565b60200260200101516001600160a01b031614156200058857604080516001808252818301909252906020808301908036833701905050905081816000815181106200037f576200037f6200107f565b732791bca1f2de4661ed88a30c99a7a9449aa841746001600160a01b031683600181518110620005bc57620005bc6200107f565b60200260200101516001600160a01b031614156200065f576040805160028082526060820183529091602083019080368337019050509050826000815181106200060a576200060a6200107f565b6020026020010151816000815181106200062857620006286200107f565b60200260200101906001600160a01b031690816001600160a01b03168152505081816001815181106200037f576200037f6200107f565b82516200066e90600162000feb565b6001600160401b0381111562000688576200068862001095565b604051908082528060200260200182016040528015620006b2578160200160208202803683370190505b50905060005b83518110156200072157838181518110620006d757620006d76200107f565b6020026020010151828281518110620006f457620006f46200107f565b6001600160a01b039092166020928302919091019091015280620007188162001035565b915050620006b8565b508181845181518110620004f057620004f06200107f565b6000546001600160a01b03163314620007995760405162461bcd60e51b815260206004820181905260248201527f4f776e61626c653a2063616c6c6572206973206e6f7420746865206f776e657260448201526064015b60405180910390fd5b6001600160a01b038116620008005760405162461bcd60e51b815260206004820152602660248201527f4f776e61626c653a206e6577206f776e657220697320746865207a65726f206160448201526564647265737360d01b606482015260840162000790565b6200080b81620002bc565b50565b62000834826000856001600160a01b03166200098560201b62001819179092919060201c565b6200085b82600019856001600160a01b031662000aed60201b62001975179092919060201c565b60045462000884906001600160a01b038581169116600062000985602090811b6200181917901c565b600454620008ae906001600160a01b03858116911660001962000aed602090811b6200197517901c565b620008f0732791bca1f2de4661ed88a30c99a7a9449aa8417473917fb15e8aaa12264dcbdc15afef7cd3ce76ba39600062000985602090811b6200181917901c565b62000933732791bca1f2de4661ed88a30c99a7a9449aa8417473917fb15e8aaa12264dcbdc15afef7cd3ce76ba3960001962000aed602090811b6200197517901c565b62000959816000856001600160a01b03166200098560201b62001819179092919060201c565b6200098081600019856001600160a01b031662000aed60201b62001975179092919060201c565b505050565b80158062000a135750604051636eb1769f60e11b81523060048201526001600160a01b03838116602483015284169063dd62ed3e9060440160206040518083038186803b158015620009d657600080fd5b505afa158015620009eb573d6000803e3d6000fd5b505050506040513d601f19601f8201168201806040525081019062000a11919062000f7e565b155b62000a875760405162461bcd60e51b815260206004820152603660248201527f5361666545524332303a20617070726f76652066726f6d206e6f6e2d7a65726f60448201527f20746f206e6f6e2d7a65726f20616c6c6f77616e636500000000000000000000606482015260840162000790565b6040516001600160a01b0383166024820152604481018290526200098090849063095ea7b360e01b906064015b60408051808303601f190181529190526020810180516001600160e01b0319939093166001600160e01b039384161790529062000bbc16565b604051636eb1769f60e11b81523060048201526001600160a01b038381166024830152600091839186169063dd62ed3e9060440160206040518083038186803b15801562000b3a57600080fd5b505afa15801562000b4f573d6000803e3d6000fd5b505050506040513d601f19601f8201168201806040525081019062000b75919062000f7e565b62000b81919062000feb565b6040516001600160a01b03851660248201526044810182905290915062000bb690859063095ea7b360e01b9060640162000ab4565b50505050565b600062000c18826040518060400160405280602081526020017f5361666545524332303a206c6f772d6c6576656c2063616c6c206661696c6564815250856001600160a01b031662000c9a60201b62001a3c179092919060201c565b80519091501562000980578080602001905181019062000c39919062000f5a565b620009805760405162461bcd60e51b815260206004820152602a60248201527f5361666545524332303a204552433230206f7065726174696f6e20646964206e6044820152691bdd081cdd58d8d9595960b21b606482015260840162000790565b606062000cab848460008562000cb5565b90505b9392505050565b60608247101562000d185760405162461bcd60e51b815260206004820152602660248201527f416464726573733a20696e73756666696369656e742062616c616e636520666f6044820152651c8818d85b1b60d21b606482015260840162000790565b843b62000d685760405162461bcd60e51b815260206004820152601d60248201527f416464726573733a2063616c6c20746f206e6f6e2d636f6e7472616374000000604482015260640162000790565b600080866001600160a01b0316858760405162000d86919062000f98565b60006040518083038185875af1925050503d806000811462000dc5576040519150601f19603f3d011682016040523d82523d6000602084013e62000dca565b606091505b50909250905062000ddd82828662000de8565b979650505050505050565b6060831562000df957508162000cae565b82511562000e0a5782518084602001fd5b8160405162461bcd60e51b815260040162000790919062000fb6565b82805482825590600052602060002090810192821562000e7e579160200282015b8281111562000e7e57825182546001600160a01b0319166001600160a01b0390911617825560209092019160019091019062000e47565b5062000e8c92915062000e90565b5090565b5b8082111562000e8c576000815560010162000e91565b80516001600160a01b038116811462000ebf57600080fd5b919050565b600080600080600080600080610100898b03121562000ee257600080fd5b62000eed8962000ea7565b975062000efd60208a0162000ea7565b965062000f0d60408a0162000ea7565b955062000f1d60608a0162000ea7565b94506080890151935062000f3460a08a0162000ea7565b925060c0890151915062000f4b60e08a0162000ea7565b90509295985092959890939650565b60006020828403121562000f6d57600080fd5b8151801515811462000cae57600080fd5b60006020828403121562000f9157600080fd5b5051919050565b6000825162000fac81846020870162001006565b9190910192915050565b602081526000825180602084015262000fd781604085016020870162001006565b601f01601f19169190910160400192915050565b6000821982111562001001576200100162001053565b500190565b60005b838110156200102357818101518382015260200162001009565b8381111562000bb65750506000910152565b60006000198214156200104c576200104c62001053565b5060010190565b634e487b7160e01b600052601160045260246000fd5b634e487b7160e01b600052602160045260246000fd5b634e487b7160e01b600052603260045260246000fd5b634e487b7160e01b600052604160045260246000fd5b60805160601c60a05160601c60c05160601c60e05160601c6101005160f81c6101205160601c61014051612e23620011b960003960008181610732015281816107bc01528181611bba01528181611db6015281816121b301526125a9015260008181610453015281816107f501528181611a7b01528181611be001528181611de3015281816121e001526125d6015260006105330152600061068601526000818161041a015281816113f50152611a9c0152600081816106e401528181610eeb0152610f9901526000818161070b0152818161092301528181610a830152818161119c0152818161124f0152818161137f015281816113d301528181611a5a0152611c9b0152612e236000f3fe608060405234801561001057600080fd5b50600436106103775760003560e01c80637b0a47ee116101d3578063c8e3d18b11610104578063e7198474116100a2578063f2fde38b1161007c578063f2fde38b14610754578063f3fef3a314610767578063ffbd3b1f1461077a578063ffbe9f1e1461050957600080fd5b8063e7198474146106df578063e7a0367914610706578063f10684541461072d57600080fd5b8063d62e969d116100de578063d62e969d14610681578063d7cb416f146106a8578063db4b7eee146106bb578063dce52dfa146106d657600080fd5b8063c8e3d18b14610653578063cfad57a214610666578063d389800f1461067957600080fd5b80638da5cb5b116101715780639872317f1161014b5780639872317f14610609578063b02381c614610624578063b74cd24214610637578063b77050e71461064057600080fd5b80638da5cb5b146105dc5780638fefda06146105ed57806396e9aff8146105f657600080fd5b806385f02dd6116101ad57806385f02dd61461059c578063866b2018146105a55780638811dad0146105ae5780638cf57cb9146105c157600080fd5b80637b0a47ee146105735780637ff36fbe1461057c5780638456cb591461059457600080fd5b806346008a07116102ad57806367057b6c1161024b5780637115e9fa116102255780637115e9fa1461052e578063715018a614610562578063783478ad1461056a578063784def8c1461047557600080fd5b806367057b6c1461050957806368f5416214610512578063693a090b1461051b57600080fd5b8063492816831161028757806349281683146104cf57806350e15fdd146104e25780635c975abb146104eb57806365a5e30b1461050157600080fd5b806346008a07146104a15780634700d305146104b457806347e7ef24146104bc57600080fd5b80633220d7321161031a57806340c34b58116102f457806340c34b581461044e578063412753581461047557806342da4eb31461049057806344a3955e1461049857600080fd5b80633220d732146104155780633505b09f1461043c5780633f4ba83a1461044657600080fd5b80630fa4e01e116103565780630fa4e01e146103dd578063178a8d07146103e6578063260ab48c146103ef57806330f6cf631461040257600080fd5b80627a2ae31461037c57806302d45457146103ac57806304c9d490146103c7575b600080fd5b61038f61038a366004612a62565b610783565b6040516001600160a01b0390911681526020015b60405180910390f35b61038f732791bca1f2de4661ed88a30c99a7a9449aa8417481565b6103cf6107ad565b6040519081526020016103a3565b6103cf60065481565b6103cf600a5481565b61038f6103fd366004612a62565b610875565b61038f610410366004612a62565b610885565b61038f7f000000000000000000000000000000000000000000000000000000000000000081565b610444610895565b005b6104446108d2565b61038f7f000000000000000000000000000000000000000000000000000000000000000081565b61038f735386881b46c37cdd30a748f7771cf95d7b21363781565b6103cf610904565b6103cf60075481565b60055461038f906001600160a01b031681565b6104446109b4565b6103cf6104ca366004612951565b6109ee565b61038f6104dd366004612a62565b610aff565b6103cf600e5481565b60025460ff1660405190151581526020016103a3565b610444610b0f565b6103cf61271081565b6103cf600b5481565b60045461038f906001600160a01b031681565b6105557f000000000000000000000000000000000000000000000000000000000000000081565b6040516103a39190612b74565b610444610b4c565b61038f61dead81565b6103cf60095481565b60025461038f9061010090046001600160a01b031681565b610444610b80565b6103cf60085481565b6103cf6126ac81565b61038f6105bc366004612a62565b610bb2565b61038f73917fb15e8aaa12264dcbdc15afef7cd3ce76ba3981565b6000546001600160a01b031661038f565b6103cf6103e881565b61038f610604366004612a62565b610bc2565b61038f7376bf0c28e604cc3fe9967c83b3c3f31c213cfe6481565b610444610632366004612ab8565b610bd2565b6103cf6103e381565b61038f61064e366004612a62565b610dec565b61038f610661366004612a62565b610dfc565b610444610674366004612936565b610e0c565b610444610e58565b61038f7f000000000000000000000000000000000000000000000000000000000000000081565b60035461038f906001600160a01b031681565b61038f730d500b1d8e8ef31e21c99d1db9a6444d3adf127081565b6103cf600d5481565b61038f7f000000000000000000000000000000000000000000000000000000000000000081565b61038f7f000000000000000000000000000000000000000000000000000000000000000081565b6103cf7f000000000000000000000000000000000000000000000000000000000000000081565b610444610762366004612936565b61105c565b6103cf610775366004612951565b6110f4565b6103cf600c5481565b6015818154811061079357600080fd5b6000918252602090912001546001600160a01b0316905081565b6040516393f1a40b60e01b81527f0000000000000000000000000000000000000000000000000000000000000000600482015230602482015260009081906001600160a01b037f000000000000000000000000000000000000000000000000000000000000000016906393f1a40b90604401604080518083038186803b15801561083657600080fd5b505afa15801561084a573d6000803e3d6000fd5b505050506040513d601f19601f8201168201806040525081019061086e9190612a94565b5092915050565b600f818154811061079357600080fd5b6016818154811061079357600080fd5b6005546001600160a01b031633146108c85760405162461bcd60e51b81526004016108bf90612bcf565b60405180910390fd5b6108d0611a55565b565b6005546001600160a01b031633146108fc5760405162461bcd60e51b81526004016108bf90612bcf565b6108c8611ac0565b600061090e6107ad565b6040516370a0823160e01b81523060048201527f00000000000000000000000000000000000000000000000000000000000000006001600160a01b0316906370a082319060240160206040518083038186803b15801561096d57600080fd5b505afa158015610981573d6000803e3d6000fd5b505050506040513d601f19601f820116820180604052508101906109a59190612a7b565b6109af9190612cd8565b905090565b6005546001600160a01b031633146109de5760405162461bcd60e51b81526004016108bf90612bcf565b6109e6611b53565b6108d0611bab565b600080546001600160a01b03163314610a195760405162461bcd60e51b81526004016108bf90612c17565b60026001541415610a3c5760405162461bcd60e51b81526004016108bf90612c4c565b6002600155610a4d60025460ff1690565b15610a6a5760405162461bcd60e51b81526004016108bf90612bed565b6000610a74610904565b9050610aab6001600160a01b037f000000000000000000000000000000000000000000000000000000000000000016333086611c41565b6000610ab5611c79565b60075490915015610adc578160075482610acf9190612d04565b610ad99190612cf0565b90505b8060076000828254610aee9190612cd8565b909155505060018055949350505050565b6010818154811061079357600080fd5b6005546001600160a01b03163314610b395760405162461bcd60e51b81526004016108bf90612bcf565b610b41611ac0565b610b49611c79565b50565b6000546001600160a01b03163314610b765760405162461bcd60e51b81526004016108bf90612c17565b6108d06000611d57565b6005546001600160a01b03163314610baa5760405162461bcd60e51b81526004016108bf90612bcf565b6108d0611b53565b6011818154811061079357600080fd5b6013818154811061079357600080fd5b6005546001600160a01b03163314610bfc5760405162461bcd60e51b81526004016108bf90612bcf565b6103e885610c0a888a612cd8565b610c149190612cd8565b1115610c535760405162461bcd60e51b815260206004820152600e60248201526d4d617820666565206f662031302560901b60448201526064016108bf565b6126ac841015610ca55760405162461bcd60e51b815260206004820152601a60248201527f5f7769746864726177466565466163746f7220746f6f206c6f7700000000000060448201526064016108bf565b612710841115610cf75760405162461bcd60e51b815260206004820152601b60248201527f5f7769746864726177466565466163746f7220746f6f2068696768000000000060448201526064016108bf565b6103e3831115610d495760405162461bcd60e51b815260206004820152601860248201527f5f736c697070616765466163746f7220746f6f2068696768000000000000000060448201526064016108bf565b60088790556009869055600a859055600b849055600c839055600d829055600480546001600160a01b0319166001600160a01b0383169081179091556040805189815260208101899052908101879052606081018690526080810185905260a0810184905260c08101919091527f813767a04e11dfab70a5ec48c4fd7c344ab48e62196586790931dc9dfaed97e99060e00160405180910390a150505050505050565b6014818154811061079357600080fd5b6012818154811061079357600080fd5b6005546001600160a01b03163314610e365760405162461bcd60e51b81526004016108bf90612bcf565b600580546001600160a01b0319166001600160a01b0392909216919091179055565b60026001541415610e7b5760405162461bcd60e51b81526004016108bf90612c4c565b6002600155610e8c60025460ff1690565b15610ea95760405162461bcd60e51b81526004016108bf90612bed565b6000546001600160a01b03163314610ed35760405162461bcd60e51b81526004016108bf90612c17565b6040516370a0823160e01b81523060048201526000907f00000000000000000000000000000000000000000000000000000000000000006001600160a01b0316906370a082319060240160206040518083038186803b158015610f3557600080fd5b505afa158015610f49573d6000803e3d6000fd5b505050506040513d601f19601f82011682018060405250810190610f6d9190612a7b565b9050610f77611da7565b6040516370a0823160e01b815230600482015260009082906001600160a01b037f000000000000000000000000000000000000000000000000000000000000000016906370a082319060240160206040518083038186803b158015610fdb57600080fd5b505afa158015610fef573d6000803e3d6000fd5b505050506040513d601f19601f820116820180604052508101906110139190612a7b565b61101d9190612d23565b905080156110545761102e81611e1a565b905061103981611ecf565b905061104481612113565b436006559050611052611c79565b505b505060018055565b6000546001600160a01b031633146110865760405162461bcd60e51b81526004016108bf90612c17565b6001600160a01b0381166110eb5760405162461bcd60e51b815260206004820152602660248201527f4f776e61626c653a206e6577206f776e657220697320746865207a65726f206160448201526564647265737360d01b60648201526084016108bf565b610b4981611d57565b600080546001600160a01b0316331461111f5760405162461bcd60e51b81526004016108bf90612c17565b600260015414156111425760405162461bcd60e51b81526004016108bf90612c4c565b6002600155816111845760405162461bcd60e51b815260206004820152600d60248201526c05f77616e74416d74206973203609c1b60448201526064016108bf565b6040516370a0823160e01b81523060048201526000907f00000000000000000000000000000000000000000000000000000000000000006001600160a01b0316906370a082319060240160206040518083038186803b1580156111e657600080fd5b505afa1580156111fa573d6000803e3d6000fd5b505050506040513d601f19601f8201168201806040525081019061121e9190612a7b565b9050808311156112d45761123a6112358285612d23565b6121a4565b6040516370a0823160e01b81523060048201527f00000000000000000000000000000000000000000000000000000000000000006001600160a01b0316906370a082319060240160206040518083038186803b15801561129957600080fd5b505afa1580156112ad573d6000803e3d6000fd5b505050506040513d601f19601f820116820180604052508101906112d19190612a7b565b90505b808311156112e0578092505b6112e8610904565b8311156112fa576112f7610904565b92505b600061131a611307610904565b6007546113149087612d04565b90612248565b905060075481111561132b57506007545b806007600082825461133d9190612d23565b9091555050600b54600090612710906113569082612d23565b6113609087612d04565b61136a9190612cf0565b905080156113ba576113ba6001600160a01b037f000000000000000000000000000000000000000000000000000000000000000016735386881b46c37cdd30a748f7771cf95d7b2136378361227a565b6113c48186612d23565b945061141a6001600160a01b037f0000000000000000000000000000000000000000000000000000000000000000167f00000000000000000000000000000000000000000000000000000000000000008761227a565b5060018055949350505050565b60606001600160a01b038316730d500b1d8e8ef31e21c99d1db9a6444d3adf127014156114bb576040805160018082528183019092529060208083019080368337019050509050730d500b1d8e8ef31e21c99d1db9a6444d3adf12708160008151811061149657611496612dc1565b60200260200101906001600160a01b031690816001600160a01b031681525050611617565b6001600160a01b03821661154557604080516002808252606082018352909160208301908036833701905050905082816000815181106114fd576114fd612dc1565b60200260200101906001600160a01b031690816001600160a01b031681525050730d500b1d8e8ef31e21c99d1db9a6444d3adf12708160018151811061149657611496612dc1565b604080516003808252608082019092529060208201606080368337019050509050828160008151811061157a5761157a612dc1565b60200260200101906001600160a01b031690816001600160a01b03168152505081816001815181106115ae576115ae612dc1565b60200260200101906001600160a01b031690816001600160a01b031681525050730d500b1d8e8ef31e21c99d1db9a6444d3adf1270816002815181106115f6576115f6612dc1565b60200260200101906001600160a01b031690816001600160a01b0316815250505b92915050565b6060816001600160a01b03168360008151811061163c5761163c612dc1565b60200260200101516001600160a01b03161415611687576040805160018082528183019092529060208083019080368337019050509050818160008151811061149657611496612dc1565b732791bca1f2de4661ed88a30c99a7a9449aa841746001600160a01b0316836001815181106116b8576116b8612dc1565b60200260200101516001600160a01b031614156117515760408051600280825260608201835290916020830190803683370190505090508260008151811061170257611702612dc1565b60200260200101518160008151811061171d5761171d612dc1565b60200260200101906001600160a01b031690816001600160a01b031681525050818160018151811061149657611496612dc1565b825161175e906001612cd8565b67ffffffffffffffff81111561177657611776612dd7565b60405190808252806020026020018201604052801561179f578160200160208202803683370190505b50905060005b8351811015611804578381815181106117c0576117c0612dc1565b60200260200101518282815181106117da576117da612dc1565b6001600160a01b0390921660209283029190910190910152806117fc81612d66565b9150506117a5565b5081818451815181106115f6576115f6612dc1565b8015806118a25750604051636eb1769f60e11b81523060048201526001600160a01b03838116602483015284169063dd62ed3e9060440160206040518083038186803b15801561186857600080fd5b505afa15801561187c573d6000803e3d6000fd5b505050506040513d601f19601f820116820180604052508101906118a09190612a7b565b155b61190d5760405162461bcd60e51b815260206004820152603660248201527f5361666545524332303a20617070726f76652066726f6d206e6f6e2d7a65726f60448201527520746f206e6f6e2d7a65726f20616c6c6f77616e636560501b60648201526084016108bf565b6040516001600160a01b03831660248201526044810182905261197090849063095ea7b360e01b906064015b60408051601f198184030181529190526020810180516001600160e01b03166001600160e01b0319909316929092179091526122aa565b505050565b604051636eb1769f60e11b81523060048201526001600160a01b038381166024830152600091839186169063dd62ed3e9060440160206040518083038186803b1580156119c157600080fd5b505afa1580156119d5573d6000803e3d6000fd5b505050506040513d601f19601f820116820180604052508101906119f99190612a7b565b611a039190612cd8565b6040516001600160a01b038516602482015260448101829052909150611a3690859063095ea7b360e01b90606401611939565b50505050565b6060611a4b848460008561237c565b90505b9392505050565b6108d07f00000000000000000000000000000000000000000000000000000000000000007f00000000000000000000000000000000000000000000000000000000000000007f00000000000000000000000000000000000000000000000000000000000000006124a4565b60025460ff16611b095760405162461bcd60e51b815260206004820152601460248201527314185d5cd8589b194e881b9bdd081c185d5cd95960621b60448201526064016108bf565b6002805460ff191690557f5db9ee0a495bf2e6ff9c91a7834c1ba4fdd244a5e8aa4e537bd38aeae4b073aa335b6040516001600160a01b03909116815260200160405180910390a1565b60025460ff1615611b765760405162461bcd60e51b81526004016108bf90612bed565b6002805460ff191660011790557f62e78cea01bee320cd4e420270b5ea74000d11b0c9f74754ebdbfc544b05a258611b363390565b604051632989754760e11b81527f000000000000000000000000000000000000000000000000000000000000000060048201527f00000000000000000000000000000000000000000000000000000000000000006001600160a01b031690635312ea8e906024015b600060405180830381600087803b158015611c2d57600080fd5b505af1158015611a36573d6000803e3d6000fd5b6040516001600160a01b0380851660248301528316604482015260648101829052611a369085906323b872dd60e01b90608401611939565b6040516370a0823160e01b815230600482015260009081906001600160a01b037f000000000000000000000000000000000000000000000000000000000000000016906370a082319060240160206040518083038186803b158015611cdd57600080fd5b505afa158015611cf1573d6000803e3d6000fd5b505050506040513d601f19601f82011682018060405250810190611d159190612a7b565b905080611d2457600091505090565b6000611d2e6107ad565b9050611d398261259a565b6000611d436107ad565b9050611d4f8282612d23565b935050505090565b600080546001600160a01b038381166001600160a01b0319831681178455604051919092169283917f8be0079c531659141344cd1fd0a4f28419497f9722a3daafe3b4186f6b6457e09190a35050565b604051630441a3e760e41b81527f00000000000000000000000000000000000000000000000000000000000000006004820152600060248201527f00000000000000000000000000000000000000000000000000000000000000006001600160a01b03169063441a3e7090604401611c13565b60085460009015611ecb57600061271060085484611e389190612d04565b611e429190612cf0565b9050611ebd81600f805480602002602001604051908101604052809291908181526020018280548015611e9e57602002820191906000526020600020905b81546001600160a01b03168152600190910190602001808311611e80575b5050505050735386881b46c37cdd30a748f7771cf95d7b21363761260d565b611ec78184612d23565b9250505b5090565b60095460009015611ecb57600061271060095484611eed9190612d04565b611ef79190612cf0565b6040516370a0823160e01b8152306004820152909150600090732791bca1f2de4661ed88a30c99a7a9449aa84174906370a082319060240160206040518083038186803b158015611f4757600080fd5b505afa158015611f5b573d6000803e3d6000fd5b505050506040513d601f19601f82011682018060405250810190611f7f9190612a7b565b9050611fe6826010805480602002602001604051908101604052809291908181526020018280548015611fdb57602002820191906000526020600020905b81546001600160a01b03168152600190910190602001808311611fbd575b505050505030612782565b6040516370a0823160e01b81523060048201526000908290732791bca1f2de4661ed88a30c99a7a9449aa84174906370a082319060240160206040518083038186803b15801561203557600080fd5b505afa158015612049573d6000803e3d6000fd5b505050506040513d601f19601f8201168201806040525081019061206d9190612a7b565b6120779190612d23565b604051631e2720ff60e01b81526004810182905290915073917fb15e8aaa12264dcbdc15afef7cd3ce76ba3990631e2720ff90602401602060405180830381600087803b1580156120c757600080fd5b505af11580156120db573d6000803e3d6000fd5b505050506040513d601f19601f820116820180604052508101906120ff9190612a40565b5061210a8386612d23565b94505050505090565b600a5460009015611ecb576000612710600a54846121319190612d04565b61213b9190612cf0565b9050611ebd81601180548060200260200160405190810160405280929190818152602001828054801561219757602002820191906000526020600020905b81546001600160a01b03168152600190910190602001808311612179575b505050505061dead612782565b604051630441a3e760e41b81527f00000000000000000000000000000000000000000000000000000000000000006004820152602481018290527f00000000000000000000000000000000000000000000000000000000000000006001600160a01b03169063441a3e70906044015b600060405180830381600087803b15801561222d57600080fd5b505af1158015612241573d6000803e3d6000fd5b5050505050565b60006122548284612d81565b15612260576001612263565b60005b60ff166122708385612cf0565b611a4e9190612cd8565b6040516001600160a01b03831660248201526044810182905261197090849063a9059cbb60e01b90606401611939565b60006122ff826040518060400160405280602081526020017f5361666545524332303a206c6f772d6c6576656c2063616c6c206661696c6564815250856001600160a01b0316611a3c9092919063ffffffff16565b805190915015611970578080602001905181019061231d9190612a40565b6119705760405162461bcd60e51b815260206004820152602a60248201527f5361666545524332303a204552433230206f7065726174696f6e20646964206e6044820152691bdd081cdd58d8d9595960b21b60648201526084016108bf565b6060824710156123dd5760405162461bcd60e51b815260206004820152602660248201527f416464726573733a20696e73756666696369656e742062616c616e636520666f6044820152651c8818d85b1b60d21b60648201526084016108bf565b843b61242b5760405162461bcd60e51b815260206004820152601d60248201527f416464726573733a2063616c6c20746f206e6f6e2d636f6e747261637400000060448201526064016108bf565b600080866001600160a01b031685876040516124479190612b58565b60006040518083038185875af1925050503d8060008114612484576040519150601f19603f3d011682016040523d82523d6000602084013e612489565b606091505b50915091506124998282866128e1565b979650505050505050565b6124b96001600160a01b038416836000611819565b6124cf6001600160a01b03841683600019611975565b6004546124ea906001600160a01b0385811691166000611819565b600454612506906001600160a01b038581169116600019611975565b61253a732791bca1f2de4661ed88a30c99a7a9449aa8417473917fb15e8aaa12264dcbdc15afef7cd3ce76ba396000611819565b61256f732791bca1f2de4661ed88a30c99a7a9449aa8417473917fb15e8aaa12264dcbdc15afef7cd3ce76ba39600019611975565b6125846001600160a01b038416826000611819565b6119706001600160a01b03841682600019611975565b604051631c57762b60e31b81527f00000000000000000000000000000000000000000000000000000000000000006004820152602481018290527f00000000000000000000000000000000000000000000000000000000000000006001600160a01b03169063e2bbb15890604401612213565b6004805460405163d06ca61f60e01b81526000926001600160a01b039092169163d06ca61f91612641918891889101612c83565b60006040518083038186803b15801561265957600080fd5b505afa15801561266d573d6000803e3d6000fd5b505050506040513d6000823e601f3d908101601f19168201604052612695919081019061297b565b9050600081600183516126a89190612d23565b815181106126b8576126b8612dc1565b6020908102919091010151600454600c549192506001600160a01b0316906318cbafe59087906103e8906126ec9086612d04565b6126f69190612cf0565b878761270442610258612cd8565b6040518663ffffffff1660e01b8152600401612724959493929190612c9c565b600060405180830381600087803b15801561273e57600080fd5b505af1158015612752573d6000803e3d6000fd5b505050506040513d6000823e601f3d908101601f1916820160405261277a919081019061297b565b505050505050565b6004805460405163d06ca61f60e01b81526000926001600160a01b039092169163d06ca61f916127b6918891889101612c83565b60006040518083038186803b1580156127ce57600080fd5b505afa1580156127e2573d6000803e3d6000fd5b505050506040513d6000823e601f3d908101601f1916820160405261280a919081019061297b565b90506000816001835161281d9190612d23565b8151811061282d5761282d612dc1565b602002602001015190507376bf0c28e604cc3fe9967c83b3c3f31c213cfe646001600160a01b031684600186516128649190612d23565b8151811061287457612874612dc1565b60200260200101516001600160a01b031614801561289c57506001600160a01b03831661dead145b156128b95780600e60008282546128b39190612cd8565b90915550505b600454600c546001600160a01b03909116906338ed17399087906103e8906126ec9086612d04565b606083156128f0575081611a4e565b8251156129005782518084602001fd5b8160405162461bcd60e51b81526004016108bf9190612b9c565b80356001600160a01b038116811461293157600080fd5b919050565b60006020828403121561294857600080fd5b611a4e8261291a565b6000806040838503121561296457600080fd5b61296d8361291a565b946020939093013593505050565b6000602080838503121561298e57600080fd5b825167ffffffffffffffff808211156129a657600080fd5b818501915085601f8301126129ba57600080fd5b8151818111156129cc576129cc612dd7565b8060051b604051601f19603f830116810181811085821117156129f1576129f1612dd7565b604052828152858101935084860182860187018a1015612a1057600080fd5b600095505b83861015612a33578051855260019590950194938601938601612a15565b5098975050505050505050565b600060208284031215612a5257600080fd5b81518015158114611a4e57600080fd5b600060208284031215612a7457600080fd5b5035919050565b600060208284031215612a8d57600080fd5b5051919050565b60008060408385031215612aa757600080fd5b505080516020909101519092909150565b600080600080600080600060e0888a031215612ad357600080fd5b873596506020880135955060408801359450606088013593506080880135925060a08801359150612b0660c0890161291a565b905092959891949750929550565b600081518084526020808501945080840160005b83811015612b4d5781516001600160a01b031687529582019590820190600101612b28565b509495945050505050565b60008251612b6a818460208701612d3a565b9190910192915050565b6020810160048310612b9657634e487b7160e01b600052602160045260246000fd5b91905290565b6020815260008251806020840152612bbb816040850160208701612d3a565b601f01601f19169190910160400192915050565b60208082526004908201526310b3b7bb60e11b604082015260600190565b60208082526010908201526f14185d5cd8589b194e881c185d5cd95960821b604082015260600190565b6020808252818101527f4f776e61626c653a2063616c6c6572206973206e6f7420746865206f776e6572604082015260600190565b6020808252601f908201527f5265656e7472616e637947756172643a207265656e7472616e742063616c6c00604082015260600190565b828152604060208201526000611a4b6040830184612b14565b85815284602082015260a060408201526000612cbb60a0830186612b14565b6001600160a01b0394909416606083015250608001529392505050565b60008219821115612ceb57612ceb612d95565b500190565b600082612cff57612cff612dab565b500490565b6000816000190483118215151615612d1e57612d1e612d95565b500290565b600082821015612d3557612d35612d95565b500390565b60005b83811015612d55578181015183820152602001612d3d565b83811115611a365750506000910152565b6000600019821415612d7a57612d7a612d95565b5060010190565b600082612d9057612d90612dab565b500690565b634e487b7160e01b600052601160045260246000fd5b634e487b7160e01b600052601260045260246000fd5b634e487b7160e01b600052603260045260246000fd5b634e487b7160e01b600052604160045260246000fdfea2646970667358221220469a89c694ee8c1005532049c3be762ce1aaeece157433771a3ab688ed4e702b64736f6c63430008070033a2646970667358221220610bd1f9185e62848885a90e8be26621cb917bd37123972c917d9df6bf06107e64736f6c63430008070033",
			"opcodes": "PUSH1 0x80 PUSH1 0x40 MSTORE CALLVALUE DUP1 ISZERO PUSH2 0x10 JUMPI PUSH1 0x0 DUP1 REVERT JUMPDEST POP PUSH2 0x85F1 DUP1 PUSH2 0x20 PUSH1 0x0 CODECOPY PUSH1 0x0 RETURN INVALID PUSH1 0x80 PUSH1 0x40 MSTORE CALLVALUE DUP1 ISZERO PUSH3 0x11 JUMPI PUSH1 0x0 DUP1 REVERT JUMPDEST POP PUSH1 0x4 CALLDATASIZE LT PUSH3 0x3A JUMPI PUSH1 0x0 CALLDATALOAD PUSH1 0xE0 SHR DUP1 PUSH4 0x286D1FE3 EQ PUSH3 0x3F JUMPI DUP1 PUSH4 0x97B28F68 EQ PUSH3 0x72 JUMPI JUMPDEST PUSH1 0x0 DUP1 REVERT JUMPDEST PUSH3 0x56 PUSH3 0x50 CALLDATASIZE PUSH1 0x4 PUSH3 0x1E7 JUMP JUMPDEST PUSH3 0x89 JUMP JUMPDEST PUSH1 0x40 MLOAD PUSH1 0x1 PUSH1 0x1 PUSH1 0xA0 SHL SUB SWAP1 SWAP2 AND DUP2 MSTORE PUSH1 0x20 ADD PUSH1 0x40 MLOAD DUP1 SWAP2 SUB SWAP1 RETURN JUMPDEST PUSH3 0x56 PUSH3 0x83 CALLDATASIZE PUSH1 0x4 PUSH3 0x290 JUMP JUMPDEST PUSH3 0x125 JUMP JUMPDEST PUSH1 0x0 DUP1 DUP11 CALLER DUP12 DUP12 DUP12 DUP12 DUP12 DUP12 DUP12 DUP12 PUSH1 0x40 MLOAD PUSH3 0xA4 SWAP1 PUSH3 0x1AE JUMP JUMPDEST PUSH1 0x1 PUSH1 0x1 PUSH1 0xA0 SHL SUB SWAP11 DUP12 AND DUP2 MSTORE SWAP9 DUP11 AND PUSH1 0x20 DUP11 ADD MSTORE SWAP7 DUP10 AND PUSH1 0x40 DUP10 ADD MSTORE SWAP5 DUP9 AND PUSH1 0x60 DUP9 ADD MSTORE SWAP3 DUP8 AND PUSH1 0x80 DUP8 ADD MSTORE SWAP1 DUP7 AND PUSH1 0xA0 DUP7 ADD MSTORE DUP6 AND PUSH1 0xC0 DUP6 ADD MSTORE PUSH1 0xE0 DUP5 ADD MSTORE PUSH2 0x100 DUP4 ADD MSTORE SWAP1 SWAP2 AND PUSH2 0x120 DUP3 ADD MSTORE PUSH2 0x140 ADD PUSH1 0x40 MLOAD DUP1 SWAP2 SUB SWAP1 PUSH1 0x0 CREATE DUP1 ISZERO DUP1 ISZERO PUSH3 0x115 JUMPI RETURNDATASIZE PUSH1 0x0 DUP1 RETURNDATACOPY RETURNDATASIZE PUSH1 0x0 REVERT JUMPDEST POP SWAP12 SWAP11 POP POP POP POP POP POP POP POP POP POP POP JUMP JUMPDEST PUSH1 0x0 DUP1 DUP9 CALLER DUP10 DUP10 DUP10 DUP10 DUP10 DUP10 PUSH1 0x40 MLOAD PUSH3 0x13E SWAP1 PUSH3 0x1BC JUMP JUMPDEST PUSH1 0x1 PUSH1 0x1 PUSH1 0xA0 SHL SUB SWAP9 DUP10 AND DUP2 MSTORE SWAP7 DUP9 AND PUSH1 0x20 DUP9 ADD MSTORE SWAP5 DUP8 AND PUSH1 0x40 DUP8 ADD MSTORE SWAP3 DUP7 AND PUSH1 0x60 DUP7 ADD MSTORE PUSH1 0x80 DUP6 ADD SWAP2 SWAP1 SWAP2 MSTORE DUP5 AND PUSH1 0xA0 DUP5 ADD MSTORE PUSH1 0xC0 DUP4 ADD MSTORE SWAP1 SWAP2 AND PUSH1 0xE0 DUP3 ADD MSTORE PUSH2 0x100 ADD PUSH1 0x40 MLOAD DUP1 SWAP2 SUB SWAP1 PUSH1 0x0 CREATE DUP1 ISZERO DUP1 ISZERO PUSH3 0x1A0 JUMPI RETURNDATASIZE PUSH1 0x0 DUP1 RETURNDATACOPY RETURNDATASIZE PUSH1 0x0 REVERT JUMPDEST POP SWAP10 SWAP9 POP POP POP POP POP POP POP POP POP JUMP JUMPDEST PUSH2 0x42CC DUP1 PUSH3 0x314 DUP4 CODECOPY ADD SWAP1 JUMP JUMPDEST PUSH2 0x3FDC DUP1 PUSH3 0x45E0 DUP4 CODECOPY ADD SWAP1 JUMP JUMPDEST DUP1 CALLDATALOAD PUSH1 0x1 PUSH1 0x1 PUSH1 0xA0 SHL SUB DUP2 AND DUP2 EQ PUSH3 0x1E2 JUMPI PUSH1 0x0 DUP1 REVERT JUMPDEST SWAP2 SWAP1 POP JUMP JUMPDEST PUSH1 0x0 DUP1 PUSH1 0x0 DUP1 PUSH1 0x0 DUP1 PUSH1 0x0 DUP1 PUSH1 0x0 PUSH2 0x120 DUP11 DUP13 SUB SLT ISZERO PUSH3 0x207 JUMPI PUSH1 0x0 DUP1 REVERT JUMPDEST PUSH3 0x212 DUP11 PUSH3 0x1CA JUMP JUMPDEST SWAP9 POP PUSH3 0x222 PUSH1 0x20 DUP12 ADD PUSH3 0x1CA JUMP JUMPDEST SWAP8 POP PUSH3 0x232 PUSH1 0x40 DUP12 ADD PUSH3 0x1CA JUMP JUMPDEST SWAP7 POP PUSH3 0x242 PUSH1 0x60 DUP12 ADD PUSH3 0x1CA JUMP JUMPDEST SWAP6 POP PUSH3 0x252 PUSH1 0x80 DUP12 ADD PUSH3 0x1CA JUMP JUMPDEST SWAP5 POP PUSH3 0x262 PUSH1 0xA0 DUP12 ADD PUSH3 0x1CA JUMP JUMPDEST SWAP4 POP PUSH1 0xC0 DUP11 ADD CALLDATALOAD SWAP3 POP PUSH1 0xE0 DUP11 ADD CALLDATALOAD SWAP2 POP PUSH3 0x281 PUSH2 0x100 DUP12 ADD PUSH3 0x1CA JUMP JUMPDEST SWAP1 POP SWAP3 SWAP6 SWAP9 POP SWAP3 SWAP6 SWAP9 POP SWAP3 SWAP6 SWAP9 JUMP JUMPDEST PUSH1 0x0 DUP1 PUSH1 0x0 DUP1 PUSH1 0x0 DUP1 PUSH1 0x0 PUSH1 0xE0 DUP9 DUP11 SUB SLT ISZERO PUSH3 0x2AC JUMPI PUSH1 0x0 DUP1 REVERT JUMPDEST PUSH3 0x2B7 DUP9 PUSH3 0x1CA JUMP JUMPDEST SWAP7 POP PUSH3 0x2C7 PUSH1 0x20 DUP10 ADD PUSH3 0x1CA JUMP JUMPDEST SWAP6 POP PUSH3 0x2D7 PUSH1 0x40 DUP10 ADD PUSH3 0x1CA JUMP JUMPDEST SWAP5 POP PUSH1 0x60 DUP9 ADD CALLDATALOAD SWAP4 POP PUSH3 0x2EE PUSH1 0x80 DUP10 ADD PUSH3 0x1CA JUMP JUMPDEST SWAP3 POP PUSH1 0xA0 DUP9 ADD CALLDATALOAD SWAP2 POP PUSH3 0x305 PUSH1 0xC0 DUP10 ADD PUSH3 0x1CA JUMP JUMPDEST SWAP1 POP SWAP3 SWAP6 SWAP9 SWAP2 SWAP5 SWAP8 POP SWAP3 SWAP6 POP JUMP INVALID PUSH2 0x160 PUSH1 0x40 MSTORE NUMBER PUSH1 0x6 SSTORE PUSH1 0x0 PUSH1 0x7 SSTORE PUSH1 0x32 PUSH1 0x8 SSTORE PUSH1 0x0 PUSH1 0x9 SSTORE PUSH2 0x1C2 PUSH1 0xA SSTORE PUSH2 0x2706 PUSH1 0xB SSTORE PUSH2 0x3B6 PUSH1 0xC SSTORE CALLVALUE DUP1 ISZERO PUSH3 0x37 JUMPI PUSH1 0x0 DUP1 REVERT JUMPDEST POP PUSH1 0x40 MLOAD PUSH3 0x42CC CODESIZE SUB DUP1 PUSH3 0x42CC DUP4 CODECOPY DUP2 ADD PUSH1 0x40 DUP2 SWAP1 MSTORE PUSH3 0x5A SWAP2 PUSH3 0x1083 JUMP JUMPDEST DUP9 DUP7 DUP7 DUP7 PUSH1 0x2 PUSH3 0x6B CALLER PUSH3 0x4AA JUMP JUMPDEST PUSH1 0x1 DUP1 SSTORE PUSH1 0x2 DUP1 SLOAD PUSH1 0xFF NOT AND SWAP1 SSTORE PUSH1 0x1 PUSH1 0x1 PUSH1 0x60 SHL SUB NOT PUSH1 0x60 DUP7 DUP2 SHL DUP3 AND PUSH1 0xC0 MSTORE DUP6 DUP2 SHL DUP3 AND PUSH1 0x80 MSTORE DUP5 DUP2 SHL DUP3 AND PUSH1 0xA0 MSTORE DUP4 SWAP1 SHL AND PUSH1 0xE0 MSTORE DUP1 PUSH1 0x3 DUP2 GT ISZERO PUSH3 0xB8 JUMPI PUSH3 0xB8 PUSH3 0x124F JUMP JUMPDEST PUSH2 0x100 DUP2 PUSH1 0x3 DUP2 GT ISZERO PUSH3 0xD0 JUMPI PUSH3 0xD0 PUSH3 0x124F JUMP JUMPDEST PUSH1 0xF8 SHL DUP2 MSTORE POP POP POP POP POP POP POP DUP10 PUSH1 0x5 PUSH1 0x0 PUSH2 0x100 EXP DUP2 SLOAD DUP2 PUSH1 0x1 PUSH1 0x1 PUSH1 0xA0 SHL SUB MUL NOT AND SWAP1 DUP4 PUSH1 0x1 PUSH1 0x1 PUSH1 0xA0 SHL SUB AND MUL OR SWAP1 SSTORE POP DUP8 PUSH1 0x1 PUSH1 0x1 PUSH1 0xA0 SHL SUB AND PUSH2 0x120 DUP2 PUSH1 0x1 PUSH1 0x1 PUSH1 0xA0 SHL SUB AND PUSH1 0x60 SHL DUP2 MSTORE POP POP DUP7 PUSH1 0x4 PUSH1 0x0 PUSH2 0x100 EXP DUP2 SLOAD DUP2 PUSH1 0x1 PUSH1 0x1 PUSH1 0xA0 SHL SUB MUL NOT AND SWAP1 DUP4 PUSH1 0x1 PUSH1 0x1 PUSH1 0xA0 SHL SUB AND MUL OR SWAP1 SSTORE POP DUP3 PUSH2 0x140 DUP2 DUP2 MSTORE POP POP DUP2 PUSH1 0xD DUP2 SWAP1 SSTORE POP DUP6 PUSH1 0x1 PUSH1 0x1 PUSH1 0xA0 SHL SUB AND PUSH4 0xDFE1681 PUSH1 0x40 MLOAD DUP2 PUSH4 0xFFFFFFFF AND PUSH1 0xE0 SHL DUP2 MSTORE PUSH1 0x4 ADD PUSH1 0x20 PUSH1 0x40 MLOAD DUP1 DUP4 SUB DUP2 DUP7 DUP1 EXTCODESIZE ISZERO DUP1 ISZERO PUSH3 0x192 JUMPI PUSH1 0x0 DUP1 REVERT JUMPDEST POP GAS STATICCALL SWAP3 POP POP POP DUP1 ISZERO PUSH3 0x1C5 JUMPI POP PUSH1 0x40 DUP1 MLOAD PUSH1 0x1F RETURNDATASIZE SWAP1 DUP2 ADD PUSH1 0x1F NOT AND DUP3 ADD SWAP1 SWAP3 MSTORE PUSH3 0x1C2 SWAP2 DUP2 ADD SWAP1 PUSH3 0x1065 JUMP JUMPDEST PUSH1 0x1 JUMPDEST PUSH3 0x1D0 JUMPI PUSH3 0x28E JUMP JUMPDEST DUP1 PUSH1 0x2 PUSH1 0x1 PUSH2 0x100 EXP DUP2 SLOAD DUP2 PUSH1 0x1 PUSH1 0x1 PUSH1 0xA0 SHL SUB MUL NOT AND SWAP1 DUP4 PUSH1 0x1 PUSH1 0x1 PUSH1 0xA0 SHL SUB AND MUL OR SWAP1 SSTORE POP DUP7 PUSH1 0x1 PUSH1 0x1 PUSH1 0xA0 SHL SUB AND PUSH4 0xD21220A7 PUSH1 0x40 MLOAD DUP2 PUSH4 0xFFFFFFFF AND PUSH1 0xE0 SHL DUP2 MSTORE PUSH1 0x4 ADD PUSH1 0x20 PUSH1 0x40 MLOAD DUP1 DUP4 SUB DUP2 DUP7 DUP1 EXTCODESIZE ISZERO DUP1 ISZERO PUSH3 0x231 JUMPI PUSH1 0x0 DUP1 REVERT JUMPDEST POP GAS STATICCALL ISZERO DUP1 ISZERO PUSH3 0x246 JUMPI RETURNDATASIZE PUSH1 0x0 DUP1 RETURNDATACOPY RETURNDATASIZE PUSH1 0x0 REVERT JUMPDEST POP POP POP POP PUSH1 0x40 MLOAD RETURNDATASIZE PUSH1 0x1F NOT PUSH1 0x1F DUP3 ADD AND DUP3 ADD DUP1 PUSH1 0x40 MSTORE POP DUP2 ADD SWAP1 PUSH3 0x26C SWAP2 SWAP1 PUSH3 0x1065 JUMP JUMPDEST PUSH1 0x3 DUP1 SLOAD PUSH1 0x1 PUSH1 0x1 PUSH1 0xA0 SHL SUB NOT AND PUSH1 0x1 PUSH1 0x1 PUSH1 0xA0 SHL SUB SWAP3 SWAP1 SWAP3 AND SWAP2 SWAP1 SWAP2 OR SWAP1 SSTORE POP JUMPDEST PUSH3 0x2A5 DUP6 DUP3 PUSH3 0x4FA PUSH1 0x20 SHL PUSH3 0x154D OR PUSH1 0x20 SHR JUMP JUMPDEST DUP1 MLOAD PUSH3 0x2BB SWAP2 PUSH1 0xF SWAP2 PUSH1 0x20 SWAP1 SWAP2 ADD SWAP1 PUSH3 0xFC7 JUMP JUMPDEST POP PUSH3 0x343 PUSH1 0xF DUP1 SLOAD DUP1 PUSH1 0x20 MUL PUSH1 0x20 ADD PUSH1 0x40 MLOAD SWAP1 DUP2 ADD PUSH1 0x40 MSTORE DUP1 SWAP3 SWAP2 SWAP1 DUP2 DUP2 MSTORE PUSH1 0x20 ADD DUP3 DUP1 SLOAD DUP1 ISZERO PUSH3 0x318 JUMPI PUSH1 0x20 MUL DUP3 ADD SWAP2 SWAP1 PUSH1 0x0 MSTORE PUSH1 0x20 PUSH1 0x0 KECCAK256 SWAP1 JUMPDEST DUP2 SLOAD PUSH1 0x1 PUSH1 0x1 PUSH1 0xA0 SHL SUB AND DUP2 MSTORE PUSH1 0x1 SWAP1 SWAP2 ADD SWAP1 PUSH1 0x20 ADD DUP1 DUP4 GT PUSH3 0x2F9 JUMPI JUMPDEST POP POP POP POP POP PUSH20 0x2791BCA1F2DE4661ED88A30C99A7A9449AA84174 PUSH3 0x705 PUSH1 0x20 SHL PUSH3 0x1743 OR PUSH1 0x20 SHR JUMP JUMPDEST DUP1 MLOAD PUSH3 0x359 SWAP2 PUSH1 0x10 SWAP2 PUSH1 0x20 SWAP1 SWAP2 ADD SWAP1 PUSH3 0xFC7 JUMP JUMPDEST POP PUSH3 0x3E1 PUSH1 0xF DUP1 SLOAD DUP1 PUSH1 0x20 MUL PUSH1 0x20 ADD PUSH1 0x40 MLOAD SWAP1 DUP2 ADD PUSH1 0x40 MSTORE DUP1 SWAP3 SWAP2 SWAP1 DUP2 DUP2 MSTORE PUSH1 0x20 ADD DUP3 DUP1 SLOAD DUP1 ISZERO PUSH3 0x3B6 JUMPI PUSH1 0x20 MUL DUP3 ADD SWAP2 SWAP1 PUSH1 0x0 MSTORE PUSH1 0x20 PUSH1 0x0 KECCAK256 SWAP1 JUMPDEST DUP2 SLOAD PUSH1 0x1 PUSH1 0x1 PUSH1 0xA0 SHL SUB AND DUP2 MSTORE PUSH1 0x1 SWAP1 SWAP2 ADD SWAP1 PUSH1 0x20 ADD DUP1 DUP4 GT PUSH3 0x397 JUMPI JUMPDEST POP POP POP POP POP PUSH20 0x76BF0C28E604CC3FE9967C83B3C3F31C213CFE64 PUSH3 0x705 PUSH1 0x20 SHL PUSH3 0x1743 OR PUSH1 0x20 SHR JUMP JUMPDEST DUP1 MLOAD PUSH3 0x3F7 SWAP2 PUSH1 0x11 SWAP2 PUSH1 0x20 SWAP1 SWAP2 ADD SWAP1 PUSH3 0xFC7 JUMP JUMPDEST POP PUSH3 0x46B PUSH1 0xF DUP1 SLOAD DUP1 PUSH1 0x20 MUL PUSH1 0x20 ADD PUSH1 0x40 MLOAD SWAP1 DUP2 ADD PUSH1 0x40 MSTORE DUP1 SWAP3 SWAP2 SWAP1 DUP2 DUP2 MSTORE PUSH1 0x20 ADD DUP3 DUP1 SLOAD DUP1 ISZERO PUSH3 0x454 JUMPI PUSH1 0x20 MUL DUP3 ADD SWAP2 SWAP1 PUSH1 0x0 MSTORE PUSH1 0x20 PUSH1 0x0 KECCAK256 SWAP1 JUMPDEST DUP2 SLOAD PUSH1 0x1 PUSH1 0x1 PUSH1 0xA0 SHL SUB AND DUP2 MSTORE PUSH1 0x1 SWAP1 SWAP2 ADD SWAP1 PUSH1 0x20 ADD DUP1 DUP4 GT PUSH3 0x435 JUMPI JUMPDEST POP POP POP POP POP DUP6 PUSH3 0x705 PUSH1 0x20 SHL PUSH3 0x1743 OR PUSH1 0x20 SHR JUMP JUMPDEST DUP1 MLOAD PUSH3 0x481 SWAP2 PUSH1 0x16 SWAP2 PUSH1 0x20 SWAP1 SWAP2 ADD SWAP1 PUSH3 0xFC7 JUMP JUMPDEST POP PUSH3 0x48D DUP10 PUSH3 0x927 JUMP JUMPDEST PUSH3 0x49A DUP7 DUP7 DUP11 PUSH3 0x9FC JUMP JUMPDEST POP POP POP POP POP POP POP POP POP POP PUSH3 0x1291 JUMP JUMPDEST PUSH1 0x0 DUP1 SLOAD PUSH1 0x1 PUSH1 0x1 PUSH1 0xA0 SHL SUB DUP4 DUP2 AND PUSH1 0x1 PUSH1 0x1 PUSH1 0xA0 SHL SUB NOT DUP4 AND DUP2 OR DUP5 SSTORE PUSH1 0x40 MLOAD SWAP2 SWAP1 SWAP3 AND SWAP3 DUP4 SWAP2 PUSH32 0x8BE0079C531659141344CD1FD0A4F28419497F9722A3DAAFE3B4186F6B6457E0 SWAP2 SWAP1 LOG3 POP POP JUMP JUMPDEST PUSH1 0x60 PUSH1 0x1 PUSH1 0x1 PUSH1 0xA0 SHL SUB DUP4 AND PUSH20 0xD500B1D8E8EF31E21C99D1DB9A6444D3ADF1270 EQ ISZERO PUSH3 0x593 JUMPI PUSH1 0x40 DUP1 MLOAD PUSH1 0x1 DUP1 DUP3 MSTORE DUP2 DUP4 ADD SWAP1 SWAP3 MSTORE SWAP1 PUSH1 0x20 DUP1 DUP4 ADD SWAP1 DUP1 CALLDATASIZE DUP4 CALLDATACOPY ADD SWAP1 POP POP SWAP1 POP PUSH20 0xD500B1D8E8EF31E21C99D1DB9A6444D3ADF1270 DUP2 PUSH1 0x0 DUP2 MLOAD DUP2 LT PUSH3 0x56D JUMPI PUSH3 0x56D PUSH3 0x1265 JUMP JUMPDEST PUSH1 0x20 MUL PUSH1 0x20 ADD ADD SWAP1 PUSH1 0x1 PUSH1 0x1 PUSH1 0xA0 SHL SUB AND SWAP1 DUP2 PUSH1 0x1 PUSH1 0x1 PUSH1 0xA0 SHL SUB AND DUP2 MSTORE POP POP PUSH3 0x6FF JUMP JUMPDEST PUSH1 0x1 PUSH1 0x1 PUSH1 0xA0 SHL SUB DUP3 AND PUSH3 0x624 JUMPI PUSH1 0x40 DUP1 MLOAD PUSH1 0x2 DUP1 DUP3 MSTORE PUSH1 0x60 DUP3 ADD DUP4 MSTORE SWAP1 SWAP2 PUSH1 0x20 DUP4 ADD SWAP1 DUP1 CALLDATASIZE DUP4 CALLDATACOPY ADD SWAP1 POP POP SWAP1 POP DUP3 DUP2 PUSH1 0x0 DUP2 MLOAD DUP2 LT PUSH3 0x5D9 JUMPI PUSH3 0x5D9 PUSH3 0x1265 JUMP JUMPDEST PUSH1 0x20 MUL PUSH1 0x20 ADD ADD SWAP1 PUSH1 0x1 PUSH1 0x1 PUSH1 0xA0 SHL SUB AND SWAP1 DUP2 PUSH1 0x1 PUSH1 0x1 PUSH1 0xA0 SHL SUB AND DUP2 MSTORE POP POP PUSH20 0xD500B1D8E8EF31E21C99D1DB9A6444D3ADF1270 DUP2 PUSH1 0x1 DUP2 MLOAD DUP2 LT PUSH3 0x56D JUMPI PUSH3 0x56D PUSH3 0x1265 JUMP JUMPDEST PUSH1 0x40 DUP1 MLOAD PUSH1 0x3 DUP1 DUP3 MSTORE PUSH1 0x80 DUP3 ADD SWAP1 SWAP3 MSTORE SWAP1 PUSH1 0x20 DUP3 ADD PUSH1 0x60 DUP1 CALLDATASIZE DUP4 CALLDATACOPY ADD SWAP1 POP POP SWAP1 POP DUP3 DUP2 PUSH1 0x0 DUP2 MLOAD DUP2 LT PUSH3 0x65C JUMPI PUSH3 0x65C PUSH3 0x1265 JUMP JUMPDEST PUSH1 0x20 MUL PUSH1 0x20 ADD ADD SWAP1 PUSH1 0x1 PUSH1 0x1 PUSH1 0xA0 SHL SUB AND SWAP1 DUP2 PUSH1 0x1 PUSH1 0x1 PUSH1 0xA0 SHL SUB AND DUP2 MSTORE POP POP DUP2 DUP2 PUSH1 0x1 DUP2 MLOAD DUP2 LT PUSH3 0x693 JUMPI PUSH3 0x693 PUSH3 0x1265 JUMP JUMPDEST PUSH1 0x20 MUL PUSH1 0x20 ADD ADD SWAP1 PUSH1 0x1 PUSH1 0x1 PUSH1 0xA0 SHL SUB AND SWAP1 DUP2 PUSH1 0x1 PUSH1 0x1 PUSH1 0xA0 SHL SUB AND DUP2 MSTORE POP POP PUSH20 0xD500B1D8E8EF31E21C99D1DB9A6444D3ADF1270 DUP2 PUSH1 0x2 DUP2 MLOAD DUP2 LT PUSH3 0x6DE JUMPI PUSH3 0x6DE PUSH3 0x1265 JUMP JUMPDEST PUSH1 0x20 MUL PUSH1 0x20 ADD ADD SWAP1 PUSH1 0x1 PUSH1 0x1 PUSH1 0xA0 SHL SUB AND SWAP1 DUP2 PUSH1 0x1 PUSH1 0x1 PUSH1 0xA0 SHL SUB AND DUP2 MSTORE POP POP JUMPDEST SWAP3 SWAP2 POP POP JUMP JUMPDEST PUSH1 0x60 DUP2 PUSH1 0x1 PUSH1 0x1 PUSH1 0xA0 SHL SUB AND DUP4 PUSH1 0x0 DUP2 MLOAD DUP2 LT PUSH3 0x727 JUMPI PUSH3 0x727 PUSH3 0x1265 JUMP JUMPDEST PUSH1 0x20 MUL PUSH1 0x20 ADD ADD MLOAD PUSH1 0x1 PUSH1 0x1 PUSH1 0xA0 SHL SUB AND EQ ISZERO PUSH3 0x776 JUMPI PUSH1 0x40 DUP1 MLOAD PUSH1 0x1 DUP1 DUP3 MSTORE DUP2 DUP4 ADD SWAP1 SWAP3 MSTORE SWAP1 PUSH1 0x20 DUP1 DUP4 ADD SWAP1 DUP1 CALLDATASIZE DUP4 CALLDATACOPY ADD SWAP1 POP POP SWAP1 POP DUP2 DUP2 PUSH1 0x0 DUP2 MLOAD DUP2 LT PUSH3 0x56D JUMPI PUSH3 0x56D PUSH3 0x1265 JUMP JUMPDEST PUSH20 0x2791BCA1F2DE4661ED88A30C99A7A9449AA84174 PUSH1 0x1 PUSH1 0x1 PUSH1 0xA0 SHL SUB AND DUP4 PUSH1 0x1 DUP2 MLOAD DUP2 LT PUSH3 0x7AA JUMPI PUSH3 0x7AA PUSH3 0x1265 JUMP JUMPDEST PUSH1 0x20 MUL PUSH1 0x20 ADD ADD MLOAD PUSH1 0x1 PUSH1 0x1 PUSH1 0xA0 SHL SUB AND EQ ISZERO PUSH3 0x84D JUMPI PUSH1 0x40 DUP1 MLOAD PUSH1 0x2 DUP1 DUP3 MSTORE PUSH1 0x60 DUP3 ADD DUP4 MSTORE SWAP1 SWAP2 PUSH1 0x20 DUP4 ADD SWAP1 DUP1 CALLDATASIZE DUP4 CALLDATACOPY ADD SWAP1 POP POP SWAP1 POP DUP3 PUSH1 0x0 DUP2 MLOAD DUP2 LT PUSH3 0x7F8 JUMPI PUSH3 0x7F8 PUSH3 0x1265 JUMP JUMPDEST PUSH1 0x20 MUL PUSH1 0x20 ADD ADD MLOAD DUP2 PUSH1 0x0 DUP2 MLOAD DUP2 LT PUSH3 0x816 JUMPI PUSH3 0x816 PUSH3 0x1265 JUMP JUMPDEST PUSH1 0x20 MUL PUSH1 0x20 ADD ADD SWAP1 PUSH1 0x1 PUSH1 0x1 PUSH1 0xA0 SHL SUB AND SWAP1 DUP2 PUSH1 0x1 PUSH1 0x1 PUSH1 0xA0 SHL SUB AND DUP2 MSTORE POP POP DUP2 DUP2 PUSH1 0x1 DUP2 MLOAD DUP2 LT PUSH3 0x56D JUMPI PUSH3 0x56D PUSH3 0x1265 JUMP JUMPDEST DUP3 MLOAD PUSH3 0x85C SWAP1 PUSH1 0x1 PUSH3 0x11D1 JUMP JUMPDEST PUSH1 0x1 PUSH1 0x1 PUSH1 0x40 SHL SUB DUP2 GT ISZERO PUSH3 0x876 JUMPI PUSH3 0x876 PUSH3 0x127B JUMP JUMPDEST PUSH1 0x40 MLOAD SWAP1 DUP1 DUP3 MSTORE DUP1 PUSH1 0x20 MUL PUSH1 0x20 ADD DUP3 ADD PUSH1 0x40 MSTORE DUP1 ISZERO PUSH3 0x8A0 JUMPI DUP2 PUSH1 0x20 ADD PUSH1 0x20 DUP3 MUL DUP1 CALLDATASIZE DUP4 CALLDATACOPY ADD SWAP1 POP JUMPDEST POP SWAP1 POP PUSH1 0x0 JUMPDEST DUP4 MLOAD DUP2 LT ISZERO PUSH3 0x90F JUMPI DUP4 DUP2 DUP2 MLOAD DUP2 LT PUSH3 0x8C5 JUMPI PUSH3 0x8C5 PUSH3 0x1265 JUMP JUMPDEST PUSH1 0x20 MUL PUSH1 0x20 ADD ADD MLOAD DUP3 DUP3 DUP2 MLOAD DUP2 LT PUSH3 0x8E2 JUMPI PUSH3 0x8E2 PUSH3 0x1265 JUMP JUMPDEST PUSH1 0x1 PUSH1 0x1 PUSH1 0xA0 SHL SUB SWAP1 SWAP3 AND PUSH1 0x20 SWAP3 DUP4 MUL SWAP2 SWAP1 SWAP2 ADD SWAP1 SWAP2 ADD MSTORE DUP1 PUSH3 0x906 DUP2 PUSH3 0x121B JUMP JUMPDEST SWAP2 POP POP PUSH3 0x8A6 JUMP JUMPDEST POP DUP2 DUP2 DUP5 MLOAD DUP2 MLOAD DUP2 LT PUSH3 0x6DE JUMPI PUSH3 0x6DE PUSH3 0x1265 JUMP JUMPDEST PUSH1 0x0 SLOAD PUSH1 0x1 PUSH1 0x1 PUSH1 0xA0 SHL SUB AND CALLER EQ PUSH3 0x987 JUMPI PUSH1 0x40 MLOAD PUSH3 0x461BCD PUSH1 0xE5 SHL DUP2 MSTORE PUSH1 0x20 PUSH1 0x4 DUP3 ADD DUP2 SWAP1 MSTORE PUSH1 0x24 DUP3 ADD MSTORE PUSH32 0x4F776E61626C653A2063616C6C6572206973206E6F7420746865206F776E6572 PUSH1 0x44 DUP3 ADD MSTORE PUSH1 0x64 ADD JUMPDEST PUSH1 0x40 MLOAD DUP1 SWAP2 SUB SWAP1 REVERT JUMPDEST PUSH1 0x1 PUSH1 0x1 PUSH1 0xA0 SHL SUB DUP2 AND PUSH3 0x9EE JUMPI PUSH1 0x40 MLOAD PUSH3 0x461BCD PUSH1 0xE5 SHL DUP2 MSTORE PUSH1 0x20 PUSH1 0x4 DUP3 ADD MSTORE PUSH1 0x26 PUSH1 0x24 DUP3 ADD MSTORE PUSH32 0x4F776E61626C653A206E6577206F776E657220697320746865207A65726F2061 PUSH1 0x44 DUP3 ADD MSTORE PUSH6 0x646472657373 PUSH1 0xD0 SHL PUSH1 0x64 DUP3 ADD MSTORE PUSH1 0x84 ADD PUSH3 0x97E JUMP JUMPDEST PUSH3 0x9F9 DUP2 PUSH3 0x4AA JUMP JUMPDEST POP JUMP JUMPDEST PUSH3 0xA22 DUP2 PUSH1 0x0 DUP6 PUSH1 0x1 PUSH1 0x1 PUSH1 0xA0 SHL SUB AND PUSH3 0xB26 PUSH1 0x20 SHL PUSH3 0x193F OR SWAP1 SWAP3 SWAP2 SWAP1 PUSH1 0x20 SHR JUMP JUMPDEST PUSH3 0xA49 DUP2 PUSH1 0x0 NOT DUP6 PUSH1 0x1 PUSH1 0x1 PUSH1 0xA0 SHL SUB AND PUSH3 0xC8E PUSH1 0x20 SHL PUSH3 0x1A9B OR SWAP1 SWAP3 SWAP2 SWAP1 PUSH1 0x20 SHR JUMP JUMPDEST PUSH1 0x4 SLOAD PUSH3 0xA72 SWAP1 PUSH1 0x1 PUSH1 0x1 PUSH1 0xA0 SHL SUB DUP5 DUP2 AND SWAP2 AND PUSH1 0x0 PUSH3 0xB26 PUSH1 0x20 SWAP1 DUP2 SHL PUSH3 0x193F OR SWAP1 SHR JUMP JUMPDEST PUSH1 0x4 SLOAD PUSH3 0xA9C SWAP1 PUSH1 0x1 PUSH1 0x1 PUSH1 0xA0 SHL SUB DUP5 DUP2 AND SWAP2 AND PUSH1 0x0 NOT PUSH3 0xC8E PUSH1 0x20 SWAP1 DUP2 SHL PUSH3 0x1A9B OR SWAP1 SHR JUMP JUMPDEST PUSH3 0xADE PUSH20 0x2791BCA1F2DE4661ED88A30C99A7A9449AA84174 PUSH20 0x917FB15E8AAA12264DCBDC15AFEF7CD3CE76BA39 PUSH1 0x0 PUSH3 0xB26 PUSH1 0x20 SWAP1 DUP2 SHL PUSH3 0x193F OR SWAP1 SHR JUMP JUMPDEST PUSH3 0xB21 PUSH20 0x2791BCA1F2DE4661ED88A30C99A7A9449AA84174 PUSH20 0x917FB15E8AAA12264DCBDC15AFEF7CD3CE76BA39 PUSH1 0x0 NOT PUSH3 0xC8E PUSH1 0x20 SWAP1 DUP2 SHL PUSH3 0x1A9B OR SWAP1 SHR JUMP JUMPDEST POP POP POP JUMP JUMPDEST DUP1 ISZERO DUP1 PUSH3 0xBB4 JUMPI POP PUSH1 0x40 MLOAD PUSH4 0x6EB1769F PUSH1 0xE1 SHL DUP2 MSTORE ADDRESS PUSH1 0x4 DUP3 ADD MSTORE PUSH1 0x1 PUSH1 0x1 PUSH1 0xA0 SHL SUB DUP4 DUP2 AND PUSH1 0x24 DUP4 ADD MSTORE DUP5 AND SWAP1 PUSH4 0xDD62ED3E SWAP1 PUSH1 0x44 ADD PUSH1 0x20 PUSH1 0x40 MLOAD DUP1 DUP4 SUB DUP2 DUP7 DUP1 EXTCODESIZE ISZERO DUP1 ISZERO PUSH3 0xB77 JUMPI PUSH1 0x0 DUP1 REVERT JUMPDEST POP GAS STATICCALL ISZERO DUP1 ISZERO PUSH3 0xB8C JUMPI RETURNDATASIZE PUSH1 0x0 DUP1 RETURNDATACOPY RETURNDATASIZE PUSH1 0x0 REVERT JUMPDEST POP POP POP POP PUSH1 0x40 MLOAD RETURNDATASIZE PUSH1 0x1F NOT PUSH1 0x1F DUP3 ADD AND DUP3 ADD DUP1 PUSH1 0x40 MSTORE POP DUP2 ADD SWAP1 PUSH3 0xBB2 SWAP2 SWAP1 PUSH3 0x1164 JUMP JUMPDEST ISZERO JUMPDEST PUSH3 0xC28 JUMPI PUSH1 0x40 MLOAD PUSH3 0x461BCD PUSH1 0xE5 SHL DUP2 MSTORE PUSH1 0x20 PUSH1 0x4 DUP3 ADD MSTORE PUSH1 0x36 PUSH1 0x24 DUP3 ADD MSTORE PUSH32 0x5361666545524332303A20617070726F76652066726F6D206E6F6E2D7A65726F PUSH1 0x44 DUP3 ADD MSTORE PUSH32 0x20746F206E6F6E2D7A65726F20616C6C6F77616E636500000000000000000000 PUSH1 0x64 DUP3 ADD MSTORE PUSH1 0x84 ADD PUSH3 0x97E JUMP JUMPDEST PUSH1 0x40 MLOAD PUSH1 0x1 PUSH1 0x1 PUSH1 0xA0 SHL SUB DUP4 AND PUSH1 0x24 DUP3 ADD MSTORE PUSH1 0x44 DUP2 ADD DUP3 SWAP1 MSTORE PUSH3 0xB21 SWAP1 DUP5 SWAP1 PUSH4 0x95EA7B3 PUSH1 0xE0 SHL SWAP1 PUSH1 0x64 ADD JUMPDEST PUSH1 0x40 DUP1 MLOAD DUP1 DUP4 SUB PUSH1 0x1F NOT ADD DUP2 MSTORE SWAP2 SWAP1 MSTORE PUSH1 0x20 DUP2 ADD DUP1 MLOAD PUSH1 0x1 PUSH1 0x1 PUSH1 0xE0 SHL SUB NOT SWAP4 SWAP1 SWAP4 AND PUSH1 0x1 PUSH1 0x1 PUSH1 0xE0 SHL SUB SWAP4 DUP5 AND OR SWAP1 MSTORE SWAP1 PUSH3 0xD5D AND JUMP JUMPDEST PUSH1 0x40 MLOAD PUSH4 0x6EB1769F PUSH1 0xE1 SHL DUP2 MSTORE ADDRESS PUSH1 0x4 DUP3 ADD MSTORE PUSH1 0x1 PUSH1 0x1 PUSH1 0xA0 SHL SUB DUP4 DUP2 AND PUSH1 0x24 DUP4 ADD MSTORE PUSH1 0x0 SWAP2 DUP4 SWAP2 DUP7 AND SWAP1 PUSH4 0xDD62ED3E SWAP1 PUSH1 0x44 ADD PUSH1 0x20 PUSH1 0x40 MLOAD DUP1 DUP4 SUB DUP2 DUP7 DUP1 EXTCODESIZE ISZERO DUP1 ISZERO PUSH3 0xCDB JUMPI PUSH1 0x0 DUP1 REVERT JUMPDEST POP GAS STATICCALL ISZERO DUP1 ISZERO PUSH3 0xCF0 JUMPI RETURNDATASIZE PUSH1 0x0 DUP1 RETURNDATACOPY RETURNDATASIZE PUSH1 0x0 REVERT JUMPDEST POP POP POP POP PUSH1 0x40 MLOAD RETURNDATASIZE PUSH1 0x1F NOT PUSH1 0x1F DUP3 ADD AND DUP3 ADD DUP1 PUSH1 0x40 MSTORE POP DUP2 ADD SWAP1 PUSH3 0xD16 SWAP2 SWAP1 PUSH3 0x1164 JUMP JUMPDEST PUSH3 0xD22 SWAP2 SWAP1 PUSH3 0x11D1 JUMP JUMPDEST PUSH1 0x40 MLOAD PUSH1 0x1 PUSH1 0x1 PUSH1 0xA0 SHL SUB DUP6 AND PUSH1 0x24 DUP3 ADD MSTORE PUSH1 0x44 DUP2 ADD DUP3 SWAP1 MSTORE SWAP1 SWAP2 POP PUSH3 0xD57 SWAP1 DUP6 SWAP1 PUSH4 0x95EA7B3 PUSH1 0xE0 SHL SWAP1 PUSH1 0x64 ADD PUSH3 0xC55 JUMP JUMPDEST POP POP POP POP JUMP JUMPDEST PUSH1 0x0 PUSH3 0xDB9 DUP3 PUSH1 0x40 MLOAD DUP1 PUSH1 0x40 ADD PUSH1 0x40 MSTORE DUP1 PUSH1 0x20 DUP2 MSTORE PUSH1 0x20 ADD PUSH32 0x5361666545524332303A206C6F772D6C6576656C2063616C6C206661696C6564 DUP2 MSTORE POP DUP6 PUSH1 0x1 PUSH1 0x1 PUSH1 0xA0 SHL SUB AND PUSH3 0xE3B PUSH1 0x20 SHL PUSH3 0x1B62 OR SWAP1 SWAP3 SWAP2 SWAP1 PUSH1 0x20 SHR JUMP JUMPDEST DUP1 MLOAD SWAP1 SWAP2 POP ISZERO PUSH3 0xB21 JUMPI DUP1 DUP1 PUSH1 0x20 ADD SWAP1 MLOAD DUP2 ADD SWAP1 PUSH3 0xDDA SWAP2 SWAP1 PUSH3 0x1140 JUMP JUMPDEST PUSH3 0xB21 JUMPI PUSH1 0x40 MLOAD PUSH3 0x461BCD PUSH1 0xE5 SHL DUP2 MSTORE PUSH1 0x20 PUSH1 0x4 DUP3 ADD MSTORE PUSH1 0x2A PUSH1 0x24 DUP3 ADD MSTORE PUSH32 0x5361666545524332303A204552433230206F7065726174696F6E20646964206E PUSH1 0x44 DUP3 ADD MSTORE PUSH10 0x1BDD081CDD58D8D95959 PUSH1 0xB2 SHL PUSH1 0x64 DUP3 ADD MSTORE PUSH1 0x84 ADD PUSH3 0x97E JUMP JUMPDEST PUSH1 0x60 PUSH3 0xE4C DUP5 DUP5 PUSH1 0x0 DUP6 PUSH3 0xE56 JUMP JUMPDEST SWAP1 POP JUMPDEST SWAP4 SWAP3 POP POP POP JUMP JUMPDEST PUSH1 0x60 DUP3 SELFBALANCE LT ISZERO PUSH3 0xEB9 JUMPI PUSH1 0x40 MLOAD PUSH3 0x461BCD PUSH1 0xE5 SHL DUP2 MSTORE PUSH1 0x20 PUSH1 0x4 DUP3 ADD MSTORE PUSH1 0x26 PUSH1 0x24 DUP3 ADD MSTORE PUSH32 0x416464726573733A20696E73756666696369656E742062616C616E636520666F PUSH1 0x44 DUP3 ADD MSTORE PUSH6 0x1C8818D85B1B PUSH1 0xD2 SHL PUSH1 0x64 DUP3 ADD MSTORE PUSH1 0x84 ADD PUSH3 0x97E JUMP JUMPDEST DUP5 EXTCODESIZE PUSH3 0xF09 JUMPI PUSH1 0x40 MLOAD PUSH3 0x461BCD PUSH1 0xE5 SHL DUP2 MSTORE PUSH1 0x20 PUSH1 0x4 DUP3 ADD MSTORE PUSH1 0x1D PUSH1 0x24 DUP3 ADD MSTORE PUSH32 0x416464726573733A2063616C6C20746F206E6F6E2D636F6E7472616374000000 PUSH1 0x44 DUP3 ADD MSTORE PUSH1 0x64 ADD PUSH3 0x97E JUMP JUMPDEST PUSH1 0x0 DUP1 DUP7 PUSH1 0x1 PUSH1 0x1 PUSH1 0xA0 SHL SUB AND DUP6 DUP8 PUSH1 0x40 MLOAD PUSH3 0xF27 SWAP2 SWAP1 PUSH3 0x117E JUMP JUMPDEST PUSH1 0x0 PUSH1 0x40 MLOAD DUP1 DUP4 SUB DUP2 DUP6 DUP8 GAS CALL SWAP3 POP POP POP RETURNDATASIZE DUP1 PUSH1 0x0 DUP2 EQ PUSH3 0xF66 JUMPI PUSH1 0x40 MLOAD SWAP2 POP PUSH1 0x1F NOT PUSH1 0x3F RETURNDATASIZE ADD AND DUP3 ADD PUSH1 0x40 MSTORE RETURNDATASIZE DUP3 MSTORE RETURNDATASIZE PUSH1 0x0 PUSH1 0x20 DUP5 ADD RETURNDATACOPY PUSH3 0xF6B JUMP JUMPDEST PUSH1 0x60 SWAP2 POP JUMPDEST POP SWAP1 SWAP3 POP SWAP1 POP PUSH3 0xF7E DUP3 DUP3 DUP7 PUSH3 0xF89 JUMP JUMPDEST SWAP8 SWAP7 POP POP POP POP POP POP POP JUMP JUMPDEST PUSH1 0x60 DUP4 ISZERO PUSH3 0xF9A JUMPI POP DUP2 PUSH3 0xE4F JUMP JUMPDEST DUP3 MLOAD ISZERO PUSH3 0xFAB JUMPI DUP3 MLOAD DUP1 DUP5 PUSH1 0x20 ADD REVERT JUMPDEST DUP2 PUSH1 0x40 MLOAD PUSH3 0x461BCD PUSH1 0xE5 SHL DUP2 MSTORE PUSH1 0x4 ADD PUSH3 0x97E SWAP2 SWAP1 PUSH3 0x119C JUMP JUMPDEST DUP3 DUP1 SLOAD DUP3 DUP3 SSTORE SWAP1 PUSH1 0x0 MSTORE PUSH1 0x20 PUSH1 0x0 KECCAK256 SWAP1 DUP2 ADD SWAP3 DUP3 ISZERO PUSH3 0x101F JUMPI SWAP2 PUSH1 0x20 MUL DUP3 ADD JUMPDEST DUP3 DUP2 GT ISZERO PUSH3 0x101F JUMPI DUP3 MLOAD DUP3 SLOAD PUSH1 0x1 PUSH1 0x1 PUSH1 0xA0 SHL SUB NOT AND PUSH1 0x1 PUSH1 0x1 PUSH1 0xA0 SHL SUB SWAP1 SWAP2 AND OR DUP3 SSTORE PUSH1 0x20 SWAP1 SWAP3 ADD SWAP2 PUSH1 0x1 SWAP1 SWAP2 ADD SWAP1 PUSH3 0xFE8 JUMP JUMPDEST POP PUSH3 0x102D SWAP3 SWAP2 POP PUSH3 0x1031 JUMP JUMPDEST POP SWAP1 JUMP JUMPDEST JUMPDEST DUP1 DUP3 GT ISZERO PUSH3 0x102D JUMPI PUSH1 0x0 DUP2 SSTORE PUSH1 0x1 ADD PUSH3 0x1032 JUMP JUMPDEST DUP1 MLOAD PUSH1 0x1 PUSH1 0x1 PUSH1 0xA0 SHL SUB DUP2 AND DUP2 EQ PUSH3 0x1060 JUMPI PUSH1 0x0 DUP1 REVERT JUMPDEST SWAP2 SWAP1 POP JUMP JUMPDEST PUSH1 0x0 PUSH1 0x20 DUP3 DUP5 SUB SLT ISZERO PUSH3 0x1078 JUMPI PUSH1 0x0 DUP1 REVERT JUMPDEST PUSH3 0xE4F DUP3 PUSH3 0x1048 JUMP JUMPDEST PUSH1 0x0 DUP1 PUSH1 0x0 DUP1 PUSH1 0x0 DUP1 PUSH1 0x0 DUP1 PUSH1 0x0 DUP1 PUSH2 0x140 DUP12 DUP14 SUB SLT ISZERO PUSH3 0x10A4 JUMPI PUSH1 0x0 DUP1 REVERT JUMPDEST PUSH3 0x10AF DUP12 PUSH3 0x1048 JUMP JUMPDEST SWAP10 POP PUSH3 0x10BF PUSH1 0x20 DUP13 ADD PUSH3 0x1048 JUMP JUMPDEST SWAP9 POP PUSH3 0x10CF PUSH1 0x40 DUP13 ADD PUSH3 0x1048 JUMP JUMPDEST SWAP8 POP PUSH3 0x10DF PUSH1 0x60 DUP13 ADD PUSH3 0x1048 JUMP JUMPDEST SWAP7 POP PUSH3 0x10EF PUSH1 0x80 DUP13 ADD PUSH3 0x1048 JUMP JUMPDEST SWAP6 POP PUSH3 0x10FF PUSH1 0xA0 DUP13 ADD PUSH3 0x1048 JUMP JUMPDEST SWAP5 POP PUSH3 0x110F PUSH1 0xC0 DUP13 ADD PUSH3 0x1048 JUMP JUMPDEST SWAP4 POP PUSH1 0xE0 DUP12 ADD MLOAD SWAP3 POP PUSH2 0x100 DUP12 ADD MLOAD SWAP2 POP PUSH3 0x112F PUSH2 0x120 DUP13 ADD PUSH3 0x1048 JUMP JUMPDEST SWAP1 POP SWAP3 SWAP6 SWAP9 SWAP12 SWAP2 SWAP5 SWAP8 SWAP11 POP SWAP3 SWAP6 SWAP9 POP JUMP JUMPDEST PUSH1 0x0 PUSH1 0x20 DUP3 DUP5 SUB SLT ISZERO PUSH3 0x1153 JUMPI PUSH1 0x0 DUP1 REVERT JUMPDEST DUP2 MLOAD DUP1 ISZERO ISZERO DUP2 EQ PUSH3 0xE4F JUMPI PUSH1 0x0 DUP1 REVERT JUMPDEST PUSH1 0x0 PUSH1 0x20 DUP3 DUP5 SUB SLT ISZERO PUSH3 0x1177 JUMPI PUSH1 0x0 DUP1 REVERT JUMPDEST POP MLOAD SWAP2 SWAP1 POP JUMP JUMPDEST PUSH1 0x0 DUP3 MLOAD PUSH3 0x1192 DUP2 DUP5 PUSH1 0x20 DUP8 ADD PUSH3 0x11EC JUMP JUMPDEST SWAP2 SWAP1 SWAP2 ADD SWAP3 SWAP2 POP POP JUMP JUMPDEST PUSH1 0x20 DUP2 MSTORE PUSH1 0x0 DUP3 MLOAD DUP1 PUSH1 0x20 DUP5 ADD MSTORE PUSH3 0x11BD DUP2 PUSH1 0x40 DUP6 ADD PUSH1 0x20 DUP8 ADD PUSH3 0x11EC JUMP JUMPDEST PUSH1 0x1F ADD PUSH1 0x1F NOT AND SWAP2 SWAP1 SWAP2 ADD PUSH1 0x40 ADD SWAP3 SWAP2 POP POP JUMP JUMPDEST PUSH1 0x0 DUP3 NOT DUP3 GT ISZERO PUSH3 0x11E7 JUMPI PUSH3 0x11E7 PUSH3 0x1239 JUMP JUMPDEST POP ADD SWAP1 JUMP JUMPDEST PUSH1 0x0 JUMPDEST DUP4 DUP2 LT ISZERO PUSH3 0x1209 JUMPI DUP2 DUP2 ADD MLOAD DUP4 DUP3 ADD MSTORE PUSH1 0x20 ADD PUSH3 0x11EF JUMP JUMPDEST DUP4 DUP2 GT ISZERO PUSH3 0xD57 JUMPI POP POP PUSH1 0x0 SWAP2 ADD MSTORE JUMP JUMPDEST PUSH1 0x0 PUSH1 0x0 NOT DUP3 EQ ISZERO PUSH3 0x1232 JUMPI PUSH3 0x1232 PUSH3 0x1239 JUMP JUMPDEST POP PUSH1 0x1 ADD SWAP1 JUMP JUMPDEST PUSH4 0x4E487B71 PUSH1 0xE0 SHL PUSH1 0x0 MSTORE PUSH1 0x11 PUSH1 0x4 MSTORE PUSH1 0x24 PUSH1 0x0 REVERT JUMPDEST PUSH4 0x4E487B71 PUSH1 0xE0 SHL PUSH1 0x0 MSTORE PUSH1 0x21 PUSH1 0x4 MSTORE PUSH1 0x24 PUSH1 0x0 REVERT JUMPDEST PUSH4 0x4E487B71 PUSH1 0xE0 SHL PUSH1 0x0 MSTORE PUSH1 0x32 PUSH1 0x4 MSTORE PUSH1 0x24 PUSH1 0x0 REVERT JUMPDEST PUSH4 0x4E487B71 PUSH1 0xE0 SHL PUSH1 0x0 MSTORE PUSH1 0x41 PUSH1 0x4 MSTORE PUSH1 0x24 PUSH1 0x0 REVERT JUMPDEST PUSH1 0x80 MLOAD PUSH1 0x60 SHR PUSH1 0xA0 MLOAD PUSH1 0x60 SHR PUSH1 0xC0 MLOAD PUSH1 0x60 SHR PUSH1 0xE0 MLOAD PUSH1 0x60 SHR PUSH2 0x100 MLOAD PUSH1 0xF8 SHR PUSH2 0x120 MLOAD PUSH1 0x60 SHR PUSH2 0x140 MLOAD PUSH2 0x2F18 PUSH3 0x13B4 PUSH1 0x0 CODECOPY PUSH1 0x0 DUP2 DUP2 PUSH2 0x732 ADD MSTORE DUP2 DUP2 PUSH2 0x7BC ADD MSTORE DUP2 DUP2 PUSH2 0x1CE0 ADD MSTORE DUP2 DUP2 PUSH2 0x1EDC ADD MSTORE DUP2 DUP2 PUSH2 0x24C8 ADD MSTORE PUSH2 0x2893 ADD MSTORE PUSH1 0x0 DUP2 DUP2 PUSH2 0x453 ADD MSTORE DUP2 DUP2 PUSH2 0x7F5 ADD MSTORE DUP2 DUP2 PUSH2 0x1BC2 ADD MSTORE DUP2 DUP2 PUSH2 0x1D06 ADD MSTORE DUP2 DUP2 PUSH2 0x1F09 ADD MSTORE DUP2 DUP2 PUSH2 0x24F5 ADD MSTORE PUSH2 0x28C0 ADD MSTORE PUSH1 0x0 PUSH2 0x533 ADD MSTORE PUSH1 0x0 DUP2 DUP2 PUSH2 0x686 ADD MSTORE DUP2 DUP2 PUSH2 0xFA0 ADD MSTORE PUSH2 0x10A7 ADD MSTORE PUSH1 0x0 DUP2 DUP2 PUSH2 0x41A ADD MSTORE DUP2 DUP2 PUSH2 0x107D ADD MSTORE PUSH2 0x151B ADD MSTORE PUSH1 0x0 DUP2 DUP2 PUSH2 0x6E4 ADD MSTORE DUP2 DUP2 PUSH2 0xEF3 ADD MSTORE DUP2 DUP2 PUSH2 0xFCA ADD MSTORE PUSH2 0x1BA1 ADD MSTORE PUSH1 0x0 DUP2 DUP2 PUSH2 0x70B ADD MSTORE DUP2 DUP2 PUSH2 0x923 ADD MSTORE DUP2 DUP2 PUSH2 0xA83 ADD MSTORE DUP2 DUP2 PUSH2 0x12C2 ADD MSTORE DUP2 DUP2 PUSH2 0x1375 ADD MSTORE DUP2 DUP2 PUSH2 0x14A5 ADD MSTORE DUP2 DUP2 PUSH2 0x14F9 ADD MSTORE DUP2 DUP2 PUSH2 0x1B80 ADD MSTORE PUSH2 0x1DC1 ADD MSTORE PUSH2 0x2F18 PUSH1 0x0 RETURN INVALID PUSH1 0x80 PUSH1 0x40 MSTORE CALLVALUE DUP1 ISZERO PUSH2 0x10 JUMPI PUSH1 0x0 DUP1 REVERT JUMPDEST POP PUSH1 0x4 CALLDATASIZE LT PUSH2 0x377 JUMPI PUSH1 0x0 CALLDATALOAD PUSH1 0xE0 SHR DUP1 PUSH4 0x7B0A47EE GT PUSH2 0x1D3 JUMPI DUP1 PUSH4 0xC8E3D18B GT PUSH2 0x104 JUMPI DUP1 PUSH4 0xE7198474 GT PUSH2 0xA2 JUMPI DUP1 PUSH4 0xF2FDE38B GT PUSH2 0x7C JUMPI DUP1 PUSH4 0xF2FDE38B EQ PUSH2 0x754 JUMPI DUP1 PUSH4 0xF3FEF3A3 EQ PUSH2 0x767 JUMPI DUP1 PUSH4 0xFFBD3B1F EQ PUSH2 0x77A JUMPI DUP1 PUSH4 0xFFBE9F1E EQ PUSH2 0x509 JUMPI PUSH1 0x0 DUP1 REVERT JUMPDEST DUP1 PUSH4 0xE7198474 EQ PUSH2 0x6DF JUMPI DUP1 PUSH4 0xE7A03679 EQ PUSH2 0x706 JUMPI DUP1 PUSH4 0xF1068454 EQ PUSH2 0x72D JUMPI PUSH1 0x0 DUP1 REVERT JUMPDEST DUP1 PUSH4 0xD62E969D GT PUSH2 0xDE JUMPI DUP1 PUSH4 0xD62E969D EQ PUSH2 0x681 JUMPI DUP1 PUSH4 0xD7CB416F EQ PUSH2 0x6A8 JUMPI DUP1 PUSH4 0xDB4B7EEE EQ PUSH2 0x6BB JUMPI DUP1 PUSH4 0xDCE52DFA EQ PUSH2 0x6D6 JUMPI PUSH1 0x0 DUP1 REVERT JUMPDEST DUP1 PUSH4 0xC8E3D18B EQ PUSH2 0x653 JUMPI DUP1 PUSH4 0xCFAD57A2 EQ PUSH2 0x666 JUMPI DUP1 PUSH4 0xD389800F EQ PUSH2 0x679 JUMPI PUSH1 0x0 DUP1 REVERT JUMPDEST DUP1 PUSH4 0x8DA5CB5B GT PUSH2 0x171 JUMPI DUP1 PUSH4 0x9872317F GT PUSH2 0x14B JUMPI DUP1 PUSH4 0x9872317F EQ PUSH2 0x609 JUMPI DUP1 PUSH4 0xB02381C6 EQ PUSH2 0x624 JUMPI DUP1 PUSH4 0xB74CD242 EQ PUSH2 0x637 JUMPI DUP1 PUSH4 0xB77050E7 EQ PUSH2 0x640 JUMPI PUSH1 0x0 DUP1 REVERT JUMPDEST DUP1 PUSH4 0x8DA5CB5B EQ PUSH2 0x5DC JUMPI DUP1 PUSH4 0x8FEFDA06 EQ PUSH2 0x5ED JUMPI DUP1 PUSH4 0x96E9AFF8 EQ PUSH2 0x5F6 JUMPI PUSH1 0x0 DUP1 REVERT JUMPDEST DUP1 PUSH4 0x85F02DD6 GT PUSH2 0x1AD JUMPI DUP1 PUSH4 0x85F02DD6 EQ PUSH2 0x59C JUMPI DUP1 PUSH4 0x866B2018 EQ PUSH2 0x5A5 JUMPI DUP1 PUSH4 0x8811DAD0 EQ PUSH2 0x5AE JUMPI DUP1 PUSH4 0x8CF57CB9 EQ PUSH2 0x5C1 JUMPI PUSH1 0x0 DUP1 REVERT JUMPDEST DUP1 PUSH4 0x7B0A47EE EQ PUSH2 0x573 JUMPI DUP1 PUSH4 0x7FF36FBE EQ PUSH2 0x57C JUMPI DUP1 PUSH4 0x8456CB59 EQ PUSH2 0x594 JUMPI PUSH1 0x0 DUP1 REVERT JUMPDEST DUP1 PUSH4 0x46008A07 GT PUSH2 0x2AD JUMPI DUP1 PUSH4 0x67057B6C GT PUSH2 0x24B JUMPI DUP1 PUSH4 0x7115E9FA GT PUSH2 0x225 JUMPI DUP1 PUSH4 0x7115E9FA EQ PUSH2 0x52E JUMPI DUP1 PUSH4 0x715018A6 EQ PUSH2 0x562 JUMPI DUP1 PUSH4 0x783478AD EQ PUSH2 0x56A JUMPI DUP1 PUSH4 0x784DEF8C EQ PUSH2 0x475 JUMPI PUSH1 0x0 DUP1 REVERT JUMPDEST DUP1 PUSH4 0x67057B6C EQ PUSH2 0x509 JUMPI DUP1 PUSH4 0x68F54162 EQ PUSH2 0x512 JUMPI DUP1 PUSH4 0x693A090B EQ PUSH2 0x51B JUMPI PUSH1 0x0 DUP1 REVERT JUMPDEST DUP1 PUSH4 0x49281683 GT PUSH2 0x287 JUMPI DUP1 PUSH4 0x49281683 EQ PUSH2 0x4CF JUMPI DUP1 PUSH4 0x50E15FDD EQ PUSH2 0x4E2 JUMPI DUP1 PUSH4 0x5C975ABB EQ PUSH2 0x4EB JUMPI DUP1 PUSH4 0x65A5E30B EQ PUSH2 0x501 JUMPI PUSH1 0x0 DUP1 REVERT JUMPDEST DUP1 PUSH4 0x46008A07 EQ PUSH2 0x4A1 JUMPI DUP1 PUSH4 0x4700D305 EQ PUSH2 0x4B4 JUMPI DUP1 PUSH4 0x47E7EF24 EQ PUSH2 0x4BC JUMPI PUSH1 0x0 DUP1 REVERT JUMPDEST DUP1 PUSH4 0x3220D732 GT PUSH2 0x31A JUMPI DUP1 PUSH4 0x40C34B58 GT PUSH2 0x2F4 JUMPI DUP1 PUSH4 0x40C34B58 EQ PUSH2 0x44E JUMPI DUP1 PUSH4 0x41275358 EQ PUSH2 0x475 JUMPI DUP1 PUSH4 0x42DA4EB3 EQ PUSH2 0x490 JUMPI DUP1 PUSH4 0x44A3955E EQ PUSH2 0x498 JUMPI PUSH1 0x0 DUP1 REVERT JUMPDEST DUP1 PUSH4 0x3220D732 EQ PUSH2 0x415 JUMPI DUP1 PUSH4 0x3505B09F EQ PUSH2 0x43C JUMPI DUP1 PUSH4 0x3F4BA83A EQ PUSH2 0x446 JUMPI PUSH1 0x0 DUP1 REVERT JUMPDEST DUP1 PUSH4 0xFA4E01E GT PUSH2 0x356 JUMPI DUP1 PUSH4 0xFA4E01E EQ PUSH2 0x3DD JUMPI DUP1 PUSH4 0x178A8D07 EQ PUSH2 0x3E6 JUMPI DUP1 PUSH4 0x260AB48C EQ PUSH2 0x3EF JUMPI DUP1 PUSH4 0x30F6CF63 EQ PUSH2 0x402 JUMPI PUSH1 0x0 DUP1 REVERT JUMPDEST DUP1 PUSH3 0x7A2AE3 EQ PUSH2 0x37C JUMPI DUP1 PUSH4 0x2D45457 EQ PUSH2 0x3AC JUMPI DUP1 PUSH4 0x4C9D490 EQ PUSH2 0x3C7 JUMPI JUMPDEST PUSH1 0x0 DUP1 REVERT JUMPDEST PUSH2 0x38F PUSH2 0x38A CALLDATASIZE PUSH1 0x4 PUSH2 0x2B57 JUMP JUMPDEST PUSH2 0x783 JUMP JUMPDEST PUSH1 0x40 MLOAD PUSH1 0x1 PUSH1 0x1 PUSH1 0xA0 SHL SUB SWAP1 SWAP2 AND DUP2 MSTORE PUSH1 0x20 ADD JUMPDEST PUSH1 0x40 MLOAD DUP1 SWAP2 SUB SWAP1 RETURN JUMPDEST PUSH2 0x38F PUSH20 0x2791BCA1F2DE4661ED88A30C99A7A9449AA84174 DUP2 JUMP JUMPDEST PUSH2 0x3CF PUSH2 0x7AD JUMP JUMPDEST PUSH1 0x40 MLOAD SWAP1 DUP2 MSTORE PUSH1 0x20 ADD PUSH2 0x3A3 JUMP JUMPDEST PUSH2 0x3CF PUSH1 0x6 SLOAD DUP2 JUMP JUMPDEST PUSH2 0x3CF PUSH1 0xA SLOAD DUP2 JUMP JUMPDEST PUSH2 0x38F PUSH2 0x3FD CALLDATASIZE PUSH1 0x4 PUSH2 0x2B57 JUMP JUMPDEST PUSH2 0x875 JUMP JUMPDEST PUSH2 0x38F PUSH2 0x410 CALLDATASIZE PUSH1 0x4 PUSH2 0x2B57 JUMP JUMPDEST PUSH2 0x885 JUMP JUMPDEST PUSH2 0x38F PUSH32 0x0 DUP2 JUMP JUMPDEST PUSH2 0x444 PUSH2 0x895 JUMP JUMPDEST STOP JUMPDEST PUSH2 0x444 PUSH2 0x8D2 JUMP JUMPDEST PUSH2 0x38F PUSH32 0x0 DUP2 JUMP JUMPDEST PUSH2 0x38F PUSH20 0x5386881B46C37CDD30A748F7771CF95D7B213637 DUP2 JUMP JUMPDEST PUSH2 0x3CF PUSH2 0x904 JUMP JUMPDEST PUSH2 0x3CF PUSH1 0x7 SLOAD DUP2 JUMP JUMPDEST PUSH1 0x5 SLOAD PUSH2 0x38F SWAP1 PUSH1 0x1 PUSH1 0x1 PUSH1 0xA0 SHL SUB AND DUP2 JUMP JUMPDEST PUSH2 0x444 PUSH2 0x9B4 JUMP JUMPDEST PUSH2 0x3CF PUSH2 0x4CA CALLDATASIZE PUSH1 0x4 PUSH2 0x2A46 JUMP JUMPDEST PUSH2 0x9EE JUMP JUMPDEST PUSH2 0x38F PUSH2 0x4DD CALLDATASIZE PUSH1 0x4 PUSH2 0x2B57 JUMP JUMPDEST PUSH2 0xAFF JUMP JUMPDEST PUSH2 0x3CF PUSH1 0xE SLOAD DUP2 JUMP JUMPDEST PUSH1 0x2 SLOAD PUSH1 0xFF AND PUSH1 0x40 MLOAD SWAP1 ISZERO ISZERO DUP2 MSTORE PUSH1 0x20 ADD PUSH2 0x3A3 JUMP JUMPDEST PUSH2 0x444 PUSH2 0xB0F JUMP JUMPDEST PUSH2 0x3CF PUSH2 0x2710 DUP2 JUMP JUMPDEST PUSH2 0x3CF PUSH1 0xB SLOAD DUP2 JUMP JUMPDEST PUSH1 0x4 SLOAD PUSH2 0x38F SWAP1 PUSH1 0x1 PUSH1 0x1 PUSH1 0xA0 SHL SUB AND DUP2 JUMP JUMPDEST PUSH2 0x555 PUSH32 0x0 DUP2 JUMP JUMPDEST PUSH1 0x40 MLOAD PUSH2 0x3A3 SWAP2 SWAP1 PUSH2 0x2C69 JUMP JUMPDEST PUSH2 0x444 PUSH2 0xB4C JUMP JUMPDEST PUSH2 0x38F PUSH2 0xDEAD DUP2 JUMP JUMPDEST PUSH2 0x3CF PUSH1 0x9 SLOAD DUP2 JUMP JUMPDEST PUSH1 0x2 SLOAD PUSH2 0x38F SWAP1 PUSH2 0x100 SWAP1 DIV PUSH1 0x1 PUSH1 0x1 PUSH1 0xA0 SHL SUB AND DUP2 JUMP JUMPDEST PUSH2 0x444 PUSH2 0xB80 JUMP JUMPDEST PUSH2 0x3CF PUSH1 0x8 SLOAD DUP2 JUMP JUMPDEST PUSH2 0x3CF PUSH2 0x26AC DUP2 JUMP JUMPDEST PUSH2 0x38F PUSH2 0x5BC CALLDATASIZE PUSH1 0x4 PUSH2 0x2B57 JUMP JUMPDEST PUSH2 0xBB2 JUMP JUMPDEST PUSH2 0x38F PUSH20 0x917FB15E8AAA12264DCBDC15AFEF7CD3CE76BA39 DUP2 JUMP JUMPDEST PUSH1 0x0 SLOAD PUSH1 0x1 PUSH1 0x1 PUSH1 0xA0 SHL SUB AND PUSH2 0x38F JUMP JUMPDEST PUSH2 0x3CF PUSH2 0x3E8 DUP2 JUMP JUMPDEST PUSH2 0x38F PUSH2 0x604 CALLDATASIZE PUSH1 0x4 PUSH2 0x2B57 JUMP JUMPDEST PUSH2 0xBC2 JUMP JUMPDEST PUSH2 0x38F PUSH20 0x76BF0C28E604CC3FE9967C83B3C3F31C213CFE64 DUP2 JUMP JUMPDEST PUSH2 0x444 PUSH2 0x632 CALLDATASIZE PUSH1 0x4 PUSH2 0x2BAD JUMP JUMPDEST PUSH2 0xBD2 JUMP JUMPDEST PUSH2 0x3CF PUSH2 0x3E3 DUP2 JUMP JUMPDEST PUSH2 0x38F PUSH2 0x64E CALLDATASIZE PUSH1 0x4 PUSH2 0x2B57 JUMP JUMPDEST PUSH2 0xDEC JUMP JUMPDEST PUSH2 0x38F PUSH2 0x661 CALLDATASIZE PUSH1 0x4 PUSH2 0x2B57 JUMP JUMPDEST PUSH2 0xDFC JUMP JUMPDEST PUSH2 0x444 PUSH2 0x674 CALLDATASIZE PUSH1 0x4 PUSH2 0x2A2B JUMP JUMPDEST PUSH2 0xE0C JUMP JUMPDEST PUSH2 0x444 PUSH2 0xE58 JUMP JUMPDEST PUSH2 0x38F PUSH32 0x0 DUP2 JUMP JUMPDEST PUSH1 0x3 SLOAD PUSH2 0x38F SWAP1 PUSH1 0x1 PUSH1 0x1 PUSH1 0xA0 SHL SUB AND DUP2 JUMP JUMPDEST PUSH2 0x38F PUSH20 0xD500B1D8E8EF31E21C99D1DB9A6444D3ADF1270 DUP2 JUMP JUMPDEST PUSH2 0x3CF PUSH1 0xD SLOAD DUP2 JUMP JUMPDEST PUSH2 0x38F PUSH32 0x0 DUP2 JUMP JUMPDEST PUSH2 0x38F PUSH32 0x0 DUP2 JUMP JUMPDEST PUSH2 0x3CF PUSH32 0x0 DUP2 JUMP JUMPDEST PUSH2 0x444 PUSH2 0x762 CALLDATASIZE PUSH1 0x4 PUSH2 0x2A2B JUMP JUMPDEST PUSH2 0x1182 JUMP JUMPDEST PUSH2 0x3CF PUSH2 0x775 CALLDATASIZE PUSH1 0x4 PUSH2 0x2A46 JUMP JUMPDEST PUSH2 0x121A JUMP JUMPDEST PUSH2 0x3CF PUSH1 0xC SLOAD DUP2 JUMP JUMPDEST PUSH1 0x15 DUP2 DUP2 SLOAD DUP2 LT PUSH2 0x793 JUMPI PUSH1 0x0 DUP1 REVERT JUMPDEST PUSH1 0x0 SWAP2 DUP3 MSTORE PUSH1 0x20 SWAP1 SWAP2 KECCAK256 ADD SLOAD PUSH1 0x1 PUSH1 0x1 PUSH1 0xA0 SHL SUB AND SWAP1 POP DUP2 JUMP JUMPDEST PUSH1 0x40 MLOAD PUSH4 0x93F1A40B PUSH1 0xE0 SHL DUP2 MSTORE PUSH32 0x0 PUSH1 0x4 DUP3 ADD MSTORE ADDRESS PUSH1 0x24 DUP3 ADD MSTORE PUSH1 0x0 SWAP1 DUP2 SWAP1 PUSH1 0x1 PUSH1 0x1 PUSH1 0xA0 SHL SUB PUSH32 0x0 AND SWAP1 PUSH4 0x93F1A40B SWAP1 PUSH1 0x44 ADD PUSH1 0x40 DUP1 MLOAD DUP1 DUP4 SUB DUP2 DUP7 DUP1 EXTCODESIZE ISZERO DUP1 ISZERO PUSH2 0x836 JUMPI PUSH1 0x0 DUP1 REVERT JUMPDEST POP GAS STATICCALL ISZERO DUP1 ISZERO PUSH2 0x84A JUMPI RETURNDATASIZE PUSH1 0x0 DUP1 RETURNDATACOPY RETURNDATASIZE PUSH1 0x0 REVERT JUMPDEST POP POP POP POP PUSH1 0x40 MLOAD RETURNDATASIZE PUSH1 0x1F NOT PUSH1 0x1F DUP3 ADD AND DUP3 ADD DUP1 PUSH1 0x40 MSTORE POP DUP2 ADD SWAP1 PUSH2 0x86E SWAP2 SWAP1 PUSH2 0x2B89 JUMP JUMPDEST POP SWAP3 SWAP2 POP POP JUMP JUMPDEST PUSH1 0xF DUP2 DUP2 SLOAD DUP2 LT PUSH2 0x793 JUMPI PUSH1 0x0 DUP1 REVERT JUMPDEST PUSH1 0x16 DUP2 DUP2 SLOAD DUP2 LT PUSH2 0x793 JUMPI PUSH1 0x0 DUP1 REVERT JUMPDEST PUSH1 0x5 SLOAD PUSH1 0x1 PUSH1 0x1 PUSH1 0xA0 SHL SUB AND CALLER EQ PUSH2 0x8C8 JUMPI PUSH1 0x40 MLOAD PUSH3 0x461BCD PUSH1 0xE5 SHL DUP2 MSTORE PUSH1 0x4 ADD PUSH2 0x8BF SWAP1 PUSH2 0x2CC4 JUMP JUMPDEST PUSH1 0x40 MLOAD DUP1 SWAP2 SUB SWAP1 REVERT JUMPDEST PUSH2 0x8D0 PUSH2 0x1B7B JUMP JUMPDEST JUMP JUMPDEST PUSH1 0x5 SLOAD PUSH1 0x1 PUSH1 0x1 PUSH1 0xA0 SHL SUB AND CALLER EQ PUSH2 0x8FC JUMPI PUSH1 0x40 MLOAD PUSH3 0x461BCD PUSH1 0xE5 SHL DUP2 MSTORE PUSH1 0x4 ADD PUSH2 0x8BF SWAP1 PUSH2 0x2CC4 JUMP JUMPDEST PUSH2 0x8C8 PUSH2 0x1BE6 JUMP JUMPDEST PUSH1 0x0 PUSH2 0x90E PUSH2 0x7AD JUMP JUMPDEST PUSH1 0x40 MLOAD PUSH4 0x70A08231 PUSH1 0xE0 SHL DUP2 MSTORE ADDRESS PUSH1 0x4 DUP3 ADD MSTORE PUSH32 0x0 PUSH1 0x1 PUSH1 0x1 PUSH1 0xA0 SHL SUB AND SWAP1 PUSH4 0x70A08231 SWAP1 PUSH1 0x24 ADD PUSH1 0x20 PUSH1 0x40 MLOAD DUP1 DUP4 SUB DUP2 DUP7 DUP1 EXTCODESIZE ISZERO DUP1 ISZERO PUSH2 0x96D JUMPI PUSH1 0x0 DUP1 REVERT JUMPDEST POP GAS STATICCALL ISZERO DUP1 ISZERO PUSH2 0x981 JUMPI RETURNDATASIZE PUSH1 0x0 DUP1 RETURNDATACOPY RETURNDATASIZE PUSH1 0x0 REVERT JUMPDEST POP POP POP POP PUSH1 0x40 MLOAD RETURNDATASIZE PUSH1 0x1F NOT PUSH1 0x1F DUP3 ADD AND DUP3 ADD DUP1 PUSH1 0x40 MSTORE POP DUP2 ADD SWAP1 PUSH2 0x9A5 SWAP2 SWAP1 PUSH2 0x2B70 JUMP JUMPDEST PUSH2 0x9AF SWAP2 SWAP1 PUSH2 0x2DCD JUMP JUMPDEST SWAP1 POP SWAP1 JUMP JUMPDEST PUSH1 0x5 SLOAD PUSH1 0x1 PUSH1 0x1 PUSH1 0xA0 SHL SUB AND CALLER EQ PUSH2 0x9DE JUMPI PUSH1 0x40 MLOAD PUSH3 0x461BCD PUSH1 0xE5 SHL DUP2 MSTORE PUSH1 0x4 ADD PUSH2 0x8BF SWAP1 PUSH2 0x2CC4 JUMP JUMPDEST PUSH2 0x9E6 PUSH2 0x1C79 JUMP JUMPDEST PUSH2 0x8D0 PUSH2 0x1CD1 JUMP JUMPDEST PUSH1 0x0 DUP1 SLOAD PUSH1 0x1 PUSH1 0x1 PUSH1 0xA0 SHL SUB AND CALLER EQ PUSH2 0xA19 JUMPI PUSH1 0x40 MLOAD PUSH3 0x461BCD PUSH1 0xE5 SHL DUP2 MSTORE PUSH1 0x4 ADD PUSH2 0x8BF SWAP1 PUSH2 0x2D0C JUMP JUMPDEST PUSH1 0x2 PUSH1 0x1 SLOAD EQ ISZERO PUSH2 0xA3C JUMPI PUSH1 0x40 MLOAD PUSH3 0x461BCD PUSH1 0xE5 SHL DUP2 MSTORE PUSH1 0x4 ADD PUSH2 0x8BF SWAP1 PUSH2 0x2D41 JUMP JUMPDEST PUSH1 0x2 PUSH1 0x1 SSTORE PUSH2 0xA4D PUSH1 0x2 SLOAD PUSH1 0xFF AND SWAP1 JUMP JUMPDEST ISZERO PUSH2 0xA6A JUMPI PUSH1 0x40 MLOAD PUSH3 0x461BCD PUSH1 0xE5 SHL DUP2 MSTORE PUSH1 0x4 ADD PUSH2 0x8BF SWAP1 PUSH2 0x2CE2 JUMP JUMPDEST PUSH1 0x0 PUSH2 0xA74 PUSH2 0x904 JUMP JUMPDEST SWAP1 POP PUSH2 0xAAB PUSH1 0x1 PUSH1 0x1 PUSH1 0xA0 SHL SUB PUSH32 0x0 AND CALLER ADDRESS DUP7 PUSH2 0x1D67 JUMP JUMPDEST PUSH1 0x0 PUSH2 0xAB5 PUSH2 0x1D9F JUMP JUMPDEST PUSH1 0x7 SLOAD SWAP1 SWAP2 POP ISZERO PUSH2 0xADC JUMPI DUP2 PUSH1 0x7 SLOAD DUP3 PUSH2 0xACF SWAP2 SWAP1 PUSH2 0x2DF9 JUMP JUMPDEST PUSH2 0xAD9 SWAP2 SWAP1 PUSH2 0x2DE5 JUMP JUMPDEST SWAP1 POP JUMPDEST DUP1 PUSH1 0x7 PUSH1 0x0 DUP3 DUP3 SLOAD PUSH2 0xAEE SWAP2 SWAP1 PUSH2 0x2DCD JUMP JUMPDEST SWAP1 SWAP2 SSTORE POP POP PUSH1 0x1 DUP1 SSTORE SWAP5 SWAP4 POP POP POP POP JUMP JUMPDEST PUSH1 0x10 DUP2 DUP2 SLOAD DUP2 LT PUSH2 0x793 JUMPI PUSH1 0x0 DUP1 REVERT JUMPDEST PUSH1 0x5 SLOAD PUSH1 0x1 PUSH1 0x1 PUSH1 0xA0 SHL SUB AND CALLER EQ PUSH2 0xB39 JUMPI PUSH1 0x40 MLOAD PUSH3 0x461BCD PUSH1 0xE5 SHL DUP2 MSTORE PUSH1 0x4 ADD PUSH2 0x8BF SWAP1 PUSH2 0x2CC4 JUMP JUMPDEST PUSH2 0xB41 PUSH2 0x1BE6 JUMP JUMPDEST PUSH2 0xB49 PUSH2 0x1D9F JUMP JUMPDEST POP JUMP JUMPDEST PUSH1 0x0 SLOAD PUSH1 0x1 PUSH1 0x1 PUSH1 0xA0 SHL SUB AND CALLER EQ PUSH2 0xB76 JUMPI PUSH1 0x40 MLOAD PUSH3 0x461BCD PUSH1 0xE5 SHL DUP2 MSTORE PUSH1 0x4 ADD PUSH2 0x8BF SWAP1 PUSH2 0x2D0C JUMP JUMPDEST PUSH2 0x8D0 PUSH1 0x0 PUSH2 0x1E7D JUMP JUMPDEST PUSH1 0x5 SLOAD PUSH1 0x1 PUSH1 0x1 PUSH1 0xA0 SHL SUB AND CALLER EQ PUSH2 0xBAA JUMPI PUSH1 0x40 MLOAD PUSH3 0x461BCD PUSH1 0xE5 SHL DUP2 MSTORE PUSH1 0x4 ADD PUSH2 0x8BF SWAP1 PUSH2 0x2CC4 JUMP JUMPDEST PUSH2 0x8D0 PUSH2 0x1C79 JUMP JUMPDEST PUSH1 0x11 DUP2 DUP2 SLOAD DUP2 LT PUSH2 0x793 JUMPI PUSH1 0x0 DUP1 REVERT JUMPDEST PUSH1 0x13 DUP2 DUP2 SLOAD DUP2 LT PUSH2 0x793 JUMPI PUSH1 0x0 DUP1 REVERT JUMPDEST PUSH1 0x5 SLOAD PUSH1 0x1 PUSH1 0x1 PUSH1 0xA0 SHL SUB AND CALLER EQ PUSH2 0xBFC JUMPI PUSH1 0x40 MLOAD PUSH3 0x461BCD PUSH1 0xE5 SHL DUP2 MSTORE PUSH1 0x4 ADD PUSH2 0x8BF SWAP1 PUSH2 0x2CC4 JUMP JUMPDEST PUSH2 0x3E8 DUP6 PUSH2 0xC0A DUP9 DUP11 PUSH2 0x2DCD JUMP JUMPDEST PUSH2 0xC14 SWAP2 SWAP1 PUSH2 0x2DCD JUMP JUMPDEST GT ISZERO PUSH2 0xC53 JUMPI PUSH1 0x40 MLOAD PUSH3 0x461BCD PUSH1 0xE5 SHL DUP2 MSTORE PUSH1 0x20 PUSH1 0x4 DUP3 ADD MSTORE PUSH1 0xE PUSH1 0x24 DUP3 ADD MSTORE PUSH14 0x4D617820666565206F6620313025 PUSH1 0x90 SHL PUSH1 0x44 DUP3 ADD MSTORE PUSH1 0x64 ADD PUSH2 0x8BF JUMP JUMPDEST PUSH2 0x26AC DUP5 LT ISZERO PUSH2 0xCA5 JUMPI PUSH1 0x40 MLOAD PUSH3 0x461BCD PUSH1 0xE5 SHL DUP2 MSTORE PUSH1 0x20 PUSH1 0x4 DUP3 ADD MSTORE PUSH1 0x1A PUSH1 0x24 DUP3 ADD MSTORE PUSH32 0x5F7769746864726177466565466163746F7220746F6F206C6F77000000000000 PUSH1 0x44 DUP3 ADD MSTORE PUSH1 0x64 ADD PUSH2 0x8BF JUMP JUMPDEST PUSH2 0x2710 DUP5 GT ISZERO PUSH2 0xCF7 JUMPI PUSH1 0x40 MLOAD PUSH3 0x461BCD PUSH1 0xE5 SHL DUP2 MSTORE PUSH1 0x20 PUSH1 0x4 DUP3 ADD MSTORE PUSH1 0x1B PUSH1 0x24 DUP3 ADD MSTORE PUSH32 0x5F7769746864726177466565466163746F7220746F6F20686967680000000000 PUSH1 0x44 DUP3 ADD MSTORE PUSH1 0x64 ADD PUSH2 0x8BF JUMP JUMPDEST PUSH2 0x3E3 DUP4 GT ISZERO PUSH2 0xD49 JUMPI PUSH1 0x40 MLOAD PUSH3 0x461BCD PUSH1 0xE5 SHL DUP2 MSTORE PUSH1 0x20 PUSH1 0x4 DUP3 ADD MSTORE PUSH1 0x18 PUSH1 0x24 DUP3 ADD MSTORE PUSH32 0x5F736C697070616765466163746F7220746F6F20686967680000000000000000 PUSH1 0x44 DUP3 ADD MSTORE PUSH1 0x64 ADD PUSH2 0x8BF JUMP JUMPDEST PUSH1 0x8 DUP8 SWAP1 SSTORE PUSH1 0x9 DUP7 SWAP1 SSTORE PUSH1 0xA DUP6 SWAP1 SSTORE PUSH1 0xB DUP5 SWAP1 SSTORE PUSH1 0xC DUP4 SWAP1 SSTORE PUSH1 0xD DUP3 SWAP1 SSTORE PUSH1 0x4 DUP1 SLOAD PUSH1 0x1 PUSH1 0x1 PUSH1 0xA0 SHL SUB NOT AND PUSH1 0x1 PUSH1 0x1 PUSH1 0xA0 SHL SUB DUP4 AND SWAP1 DUP2 OR SWAP1 SWAP2 SSTORE PUSH1 0x40 DUP1 MLOAD DUP10 DUP2 MSTORE PUSH1 0x20 DUP2 ADD DUP10 SWAP1 MSTORE SWAP1 DUP2 ADD DUP8 SWAP1 MSTORE PUSH1 0x60 DUP2 ADD DUP7 SWAP1 MSTORE PUSH1 0x80 DUP2 ADD DUP6 SWAP1 MSTORE PUSH1 0xA0 DUP2 ADD DUP5 SWAP1 MSTORE PUSH1 0xC0 DUP2 ADD SWAP2 SWAP1 SWAP2 MSTORE PUSH32 0x813767A04E11DFAB70A5EC48C4FD7C344AB48E62196586790931DC9DFAED97E9 SWAP1 PUSH1 0xE0 ADD PUSH1 0x40 MLOAD DUP1 SWAP2 SUB SWAP1 LOG1 POP POP POP POP POP POP POP JUMP JUMPDEST PUSH1 0x14 DUP2 DUP2 SLOAD DUP2 LT PUSH2 0x793 JUMPI PUSH1 0x0 DUP1 REVERT JUMPDEST PUSH1 0x12 DUP2 DUP2 SLOAD DUP2 LT PUSH2 0x793 JUMPI PUSH1 0x0 DUP1 REVERT JUMPDEST PUSH1 0x5 SLOAD PUSH1 0x1 PUSH1 0x1 PUSH1 0xA0 SHL SUB AND CALLER EQ PUSH2 0xE36 JUMPI PUSH1 0x40 MLOAD PUSH3 0x461BCD PUSH1 0xE5 SHL DUP2 MSTORE PUSH1 0x4 ADD PUSH2 0x8BF SWAP1 PUSH2 0x2CC4 JUMP JUMPDEST PUSH1 0x5 DUP1 SLOAD PUSH1 0x1 PUSH1 0x1 PUSH1 0xA0 SHL SUB NOT AND PUSH1 0x1 PUSH1 0x1 PUSH1 0xA0 SHL SUB SWAP3 SWAP1 SWAP3 AND SWAP2 SWAP1 SWAP2 OR SWAP1 SSTORE JUMP JUMPDEST PUSH1 0x2 PUSH1 0x1 SLOAD EQ ISZERO PUSH2 0xE7B JUMPI PUSH1 0x40 MLOAD PUSH3 0x461BCD PUSH1 0xE5 SHL DUP2 MSTORE PUSH1 0x4 ADD PUSH2 0x8BF SWAP1 PUSH2 0x2D41 JUMP JUMPDEST PUSH1 0x2 PUSH1 0x1 SSTORE PUSH2 0xE8C PUSH1 0x2 SLOAD PUSH1 0xFF AND SWAP1 JUMP JUMPDEST ISZERO PUSH2 0xEA9 JUMPI PUSH1 0x40 MLOAD PUSH3 0x461BCD PUSH1 0xE5 SHL DUP2 MSTORE PUSH1 0x4 ADD PUSH2 0x8BF SWAP1 PUSH2 0x2CE2 JUMP JUMPDEST PUSH1 0x0 SLOAD PUSH1 0x1 PUSH1 0x1 PUSH1 0xA0 SHL SUB AND CALLER EQ PUSH2 0xED3 JUMPI PUSH1 0x40 MLOAD PUSH3 0x461BCD PUSH1 0xE5 SHL DUP2 MSTORE PUSH1 0x4 ADD PUSH2 0x8BF SWAP1 PUSH2 0x2D0C JUMP JUMPDEST PUSH2 0xEDB PUSH2 0x1ECD JUMP JUMPDEST PUSH1 0x40 MLOAD PUSH4 0x70A08231 PUSH1 0xE0 SHL DUP2 MSTORE ADDRESS PUSH1 0x4 DUP3 ADD MSTORE PUSH1 0x0 SWAP1 PUSH32 0x0 PUSH1 0x1 PUSH1 0x1 PUSH1 0xA0 SHL SUB AND SWAP1 PUSH4 0x70A08231 SWAP1 PUSH1 0x24 ADD PUSH1 0x20 PUSH1 0x40 MLOAD DUP1 DUP4 SUB DUP2 DUP7 DUP1 EXTCODESIZE ISZERO DUP1 ISZERO PUSH2 0xF3D JUMPI PUSH1 0x0 DUP1 REVERT JUMPDEST POP GAS STATICCALL ISZERO DUP1 ISZERO PUSH2 0xF51 JUMPI RETURNDATASIZE PUSH1 0x0 DUP1 RETURNDATACOPY RETURNDATASIZE PUSH1 0x0 REVERT JUMPDEST POP POP POP POP PUSH1 0x40 MLOAD RETURNDATASIZE PUSH1 0x1F NOT PUSH1 0x1F DUP3 ADD AND DUP3 ADD DUP1 PUSH1 0x40 MSTORE POP DUP2 ADD SWAP1 PUSH2 0xF75 SWAP2 SWAP1 PUSH2 0x2B70 JUMP JUMPDEST SWAP1 POP DUP1 ISZERO PUSH2 0x117B JUMPI PUSH2 0xF86 DUP2 PUSH2 0x1F40 JUMP JUMPDEST SWAP1 POP PUSH2 0xF91 DUP2 PUSH2 0x1FF5 JUMP JUMPDEST SWAP1 POP PUSH2 0xF9C DUP2 PUSH2 0x2237 JUMP JUMPDEST SWAP1 POP PUSH32 0x0 PUSH1 0x1 PUSH1 0x1 PUSH1 0xA0 SHL SUB AND PUSH32 0x0 PUSH1 0x1 PUSH1 0x1 PUSH1 0xA0 SHL SUB AND EQ PUSH2 0x105C JUMPI PUSH2 0x105C DUP2 PUSH1 0x16 DUP1 SLOAD DUP1 PUSH1 0x20 MUL PUSH1 0x20 ADD PUSH1 0x40 MLOAD SWAP1 DUP2 ADD PUSH1 0x40 MSTORE DUP1 SWAP3 SWAP2 SWAP1 DUP2 DUP2 MSTORE PUSH1 0x20 ADD DUP3 DUP1 SLOAD DUP1 ISZERO PUSH2 0x1051 JUMPI PUSH1 0x20 MUL DUP3 ADD SWAP2 SWAP1 PUSH1 0x0 MSTORE PUSH1 0x20 PUSH1 0x0 KECCAK256 SWAP1 JUMPDEST DUP2 SLOAD PUSH1 0x1 PUSH1 0x1 PUSH1 0xA0 SHL SUB AND DUP2 MSTORE PUSH1 0x1 SWAP1 SWAP2 ADD SWAP1 PUSH1 0x20 ADD DUP1 DUP4 GT PUSH2 0x1033 JUMPI JUMPDEST POP POP POP POP POP ADDRESS PUSH2 0x22C4 JUMP JUMPDEST NUMBER PUSH1 0x6 SSTORE PUSH1 0x40 MLOAD PUSH4 0x70A08231 PUSH1 0xE0 SHL DUP2 MSTORE ADDRESS PUSH1 0x4 DUP3 ADD MSTORE PUSH1 0x1 PUSH1 0x1 PUSH1 0xA0 SHL SUB PUSH32 0x0 DUP2 AND SWAP2 PUSH4 0xFC77C9DB SWAP2 PUSH32 0x0 AND SWAP1 PUSH4 0x70A08231 SWAP1 PUSH1 0x24 ADD PUSH1 0x20 PUSH1 0x40 MLOAD DUP1 DUP4 SUB DUP2 DUP7 DUP1 EXTCODESIZE ISZERO DUP1 ISZERO PUSH2 0x10E9 JUMPI PUSH1 0x0 DUP1 REVERT JUMPDEST POP GAS STATICCALL ISZERO DUP1 ISZERO PUSH2 0x10FD JUMPI RETURNDATASIZE PUSH1 0x0 DUP1 RETURNDATACOPY RETURNDATASIZE PUSH1 0x0 REVERT JUMPDEST POP POP POP POP PUSH1 0x40 MLOAD RETURNDATASIZE PUSH1 0x1F NOT PUSH1 0x1F DUP3 ADD AND DUP3 ADD DUP1 PUSH1 0x40 MSTORE POP DUP2 ADD SWAP1 PUSH2 0x1121 SWAP2 SWAP1 PUSH2 0x2B70 JUMP JUMPDEST PUSH1 0x40 MLOAD DUP3 PUSH4 0xFFFFFFFF AND PUSH1 0xE0 SHL DUP2 MSTORE PUSH1 0x4 ADD PUSH2 0x113F SWAP2 DUP2 MSTORE PUSH1 0x20 ADD SWAP1 JUMP JUMPDEST PUSH1 0x0 PUSH1 0x40 MLOAD DUP1 DUP4 SUB DUP2 PUSH1 0x0 DUP8 DUP1 EXTCODESIZE ISZERO DUP1 ISZERO PUSH2 0x1159 JUMPI PUSH1 0x0 DUP1 REVERT JUMPDEST POP GAS CALL ISZERO DUP1 ISZERO PUSH2 0x116D JUMPI RETURNDATASIZE PUSH1 0x0 DUP1 RETURNDATACOPY RETURNDATASIZE PUSH1 0x0 REVERT JUMPDEST POP POP POP POP PUSH2 0x1179 PUSH2 0x1D9F JUMP JUMPDEST POP JUMPDEST POP PUSH1 0x1 DUP1 SSTORE JUMP JUMPDEST PUSH1 0x0 SLOAD PUSH1 0x1 PUSH1 0x1 PUSH1 0xA0 SHL SUB AND CALLER EQ PUSH2 0x11AC JUMPI PUSH1 0x40 MLOAD PUSH3 0x461BCD PUSH1 0xE5 SHL DUP2 MSTORE PUSH1 0x4 ADD PUSH2 0x8BF SWAP1 PUSH2 0x2D0C JUMP JUMPDEST PUSH1 0x1 PUSH1 0x1 PUSH1 0xA0 SHL SUB DUP2 AND PUSH2 0x1211 JUMPI PUSH1 0x40 MLOAD PUSH3 0x461BCD PUSH1 0xE5 SHL DUP2 MSTORE PUSH1 0x20 PUSH1 0x4 DUP3 ADD MSTORE PUSH1 0x26 PUSH1 0x24 DUP3 ADD MSTORE PUSH32 0x4F776E61626C653A206E6577206F776E657220697320746865207A65726F2061 PUSH1 0x44 DUP3 ADD MSTORE PUSH6 0x646472657373 PUSH1 0xD0 SHL PUSH1 0x64 DUP3 ADD MSTORE PUSH1 0x84 ADD PUSH2 0x8BF JUMP JUMPDEST PUSH2 0xB49 DUP2 PUSH2 0x1E7D JUMP JUMPDEST PUSH1 0x0 DUP1 SLOAD PUSH1 0x1 PUSH1 0x1 PUSH1 0xA0 SHL SUB AND CALLER EQ PUSH2 0x1245 JUMPI PUSH1 0x40 MLOAD PUSH3 0x461BCD PUSH1 0xE5 SHL DUP2 MSTORE PUSH1 0x4 ADD PUSH2 0x8BF SWAP1 PUSH2 0x2D0C JUMP JUMPDEST PUSH1 0x2 PUSH1 0x1 SLOAD EQ ISZERO PUSH2 0x1268 JUMPI PUSH1 0x40 MLOAD PUSH3 0x461BCD PUSH1 0xE5 SHL DUP2 MSTORE PUSH1 0x4 ADD PUSH2 0x8BF SWAP1 PUSH2 0x2D41 JUMP JUMPDEST PUSH1 0x2 PUSH1 0x1 SSTORE DUP2 PUSH2 0x12AA JUMPI PUSH1 0x40 MLOAD PUSH3 0x461BCD PUSH1 0xE5 SHL DUP2 MSTORE PUSH1 0x20 PUSH1 0x4 DUP3 ADD MSTORE PUSH1 0xD PUSH1 0x24 DUP3 ADD MSTORE PUSH13 0x5F77616E74416D74206973203 PUSH1 0x9C SHL PUSH1 0x44 DUP3 ADD MSTORE PUSH1 0x64 ADD PUSH2 0x8BF JUMP JUMPDEST PUSH1 0x40 MLOAD PUSH4 0x70A08231 PUSH1 0xE0 SHL DUP2 MSTORE ADDRESS PUSH1 0x4 DUP3 ADD MSTORE PUSH1 0x0 SWAP1 PUSH32 0x0 PUSH1 0x1 PUSH1 0x1 PUSH1 0xA0 SHL SUB AND SWAP1 PUSH4 0x70A08231 SWAP1 PUSH1 0x24 ADD PUSH1 0x20 PUSH1 0x40 MLOAD DUP1 DUP4 SUB DUP2 DUP7 DUP1 EXTCODESIZE ISZERO DUP1 ISZERO PUSH2 0x130C JUMPI PUSH1 0x0 DUP1 REVERT JUMPDEST POP GAS STATICCALL ISZERO DUP1 ISZERO PUSH2 0x1320 JUMPI RETURNDATASIZE PUSH1 0x0 DUP1 RETURNDATACOPY RETURNDATASIZE PUSH1 0x0 REVERT JUMPDEST POP POP POP POP PUSH1 0x40 MLOAD RETURNDATASIZE PUSH1 0x1F NOT PUSH1 0x1F DUP3 ADD AND DUP3 ADD DUP1 PUSH1 0x40 MSTORE POP DUP2 ADD SWAP1 PUSH2 0x1344 SWAP2 SWAP1 PUSH2 0x2B70 JUMP JUMPDEST SWAP1 POP DUP1 DUP4 GT ISZERO PUSH2 0x13FA JUMPI PUSH2 0x1360 PUSH2 0x135B DUP3 DUP6 PUSH2 0x2E18 JUMP JUMPDEST PUSH2 0x24B9 JUMP JUMPDEST PUSH1 0x40 MLOAD PUSH4 0x70A08231 PUSH1 0xE0 SHL DUP2 MSTORE ADDRESS PUSH1 0x4 DUP3 ADD MSTORE PUSH32 0x0 PUSH1 0x1 PUSH1 0x1 PUSH1 0xA0 SHL SUB AND SWAP1 PUSH4 0x70A08231 SWAP1 PUSH1 0x24 ADD PUSH1 0x20 PUSH1 0x40 MLOAD DUP1 DUP4 SUB DUP2 DUP7 DUP1 EXTCODESIZE ISZERO DUP1 ISZERO PUSH2 0x13BF JUMPI PUSH1 0x0 DUP1 REVERT JUMPDEST POP GAS STATICCALL ISZERO DUP1 ISZERO PUSH2 0x13D3 JUMPI RETURNDATASIZE PUSH1 0x0 DUP1 RETURNDATACOPY RETURNDATASIZE PUSH1 0x0 REVERT JUMPDEST POP POP POP POP PUSH1 0x40 MLOAD RETURNDATASIZE PUSH1 0x1F NOT PUSH1 0x1F DUP3 ADD AND DUP3 ADD DUP1 PUSH1 0x40 MSTORE POP DUP2 ADD SWAP1 PUSH2 0x13F7 SWAP2 SWAP1 PUSH2 0x2B70 JUMP JUMPDEST SWAP1 POP JUMPDEST DUP1 DUP4 GT ISZERO PUSH2 0x1406 JUMPI DUP1 SWAP3 POP JUMPDEST PUSH2 0x140E PUSH2 0x904 JUMP JUMPDEST DUP4 GT ISZERO PUSH2 0x1420 JUMPI PUSH2 0x141D PUSH2 0x904 JUMP JUMPDEST SWAP3 POP JUMPDEST PUSH1 0x0 PUSH2 0x1440 PUSH2 0x142D PUSH2 0x904 JUMP JUMPDEST PUSH1 0x7 SLOAD PUSH2 0x143A SWAP1 DUP8 PUSH2 0x2DF9 JUMP JUMPDEST SWAP1 PUSH2 0x255D JUMP JUMPDEST SWAP1 POP PUSH1 0x7 SLOAD DUP2 GT ISZERO PUSH2 0x1451 JUMPI POP PUSH1 0x7 SLOAD JUMPDEST DUP1 PUSH1 0x7 PUSH1 0x0 DUP3 DUP3 SLOAD PUSH2 0x1463 SWAP2 SWAP1 PUSH2 0x2E18 JUMP JUMPDEST SWAP1 SWAP2 SSTORE POP POP PUSH1 0xB SLOAD PUSH1 0x0 SWAP1 PUSH2 0x2710 SWAP1 PUSH2 0x147C SWAP1 DUP3 PUSH2 0x2E18 JUMP JUMPDEST PUSH2 0x1486 SWAP1 DUP8 PUSH2 0x2DF9 JUMP JUMPDEST PUSH2 0x1490 SWAP2 SWAP1 PUSH2 0x2DE5 JUMP JUMPDEST SWAP1 POP DUP1 ISZERO PUSH2 0x14E0 JUMPI PUSH2 0x14E0 PUSH1 0x1 PUSH1 0x1 PUSH1 0xA0 SHL SUB PUSH32 0x0 AND PUSH20 0x5386881B46C37CDD30A748F7771CF95D7B213637 DUP4 PUSH2 0x258F JUMP JUMPDEST PUSH2 0x14EA DUP2 DUP7 PUSH2 0x2E18 JUMP JUMPDEST SWAP5 POP PUSH2 0x1540 PUSH1 0x1 PUSH1 0x1 PUSH1 0xA0 SHL SUB PUSH32 0x0 AND PUSH32 0x0 DUP8 PUSH2 0x258F JUMP JUMPDEST POP PUSH1 0x1 DUP1 SSTORE SWAP5 SWAP4 POP POP POP POP JUMP JUMPDEST PUSH1 0x60 PUSH1 0x1 PUSH1 0x1 PUSH1 0xA0 SHL SUB DUP4 AND PUSH20 0xD500B1D8E8EF31E21C99D1DB9A6444D3ADF1270 EQ ISZERO PUSH2 0x15E1 JUMPI PUSH1 0x40 DUP1 MLOAD PUSH1 0x1 DUP1 DUP3 MSTORE DUP2 DUP4 ADD SWAP1 SWAP3 MSTORE SWAP1 PUSH1 0x20 DUP1 DUP4 ADD SWAP1 DUP1 CALLDATASIZE DUP4 CALLDATACOPY ADD SWAP1 POP POP SWAP1 POP PUSH20 0xD500B1D8E8EF31E21C99D1DB9A6444D3ADF1270 DUP2 PUSH1 0x0 DUP2 MLOAD DUP2 LT PUSH2 0x15BC JUMPI PUSH2 0x15BC PUSH2 0x2EB6 JUMP JUMPDEST PUSH1 0x20 MUL PUSH1 0x20 ADD ADD SWAP1 PUSH1 0x1 PUSH1 0x1 PUSH1 0xA0 SHL SUB AND SWAP1 DUP2 PUSH1 0x1 PUSH1 0x1 PUSH1 0xA0 SHL SUB AND DUP2 MSTORE POP POP PUSH2 0x173D JUMP JUMPDEST PUSH1 0x1 PUSH1 0x1 PUSH1 0xA0 SHL SUB DUP3 AND PUSH2 0x166B JUMPI PUSH1 0x40 DUP1 MLOAD PUSH1 0x2 DUP1 DUP3 MSTORE PUSH1 0x60 DUP3 ADD DUP4 MSTORE SWAP1 SWAP2 PUSH1 0x20 DUP4 ADD SWAP1 DUP1 CALLDATASIZE DUP4 CALLDATACOPY ADD SWAP1 POP POP SWAP1 POP DUP3 DUP2 PUSH1 0x0 DUP2 MLOAD DUP2 LT PUSH2 0x1623 JUMPI PUSH2 0x1623 PUSH2 0x2EB6 JUMP JUMPDEST PUSH1 0x20 MUL PUSH1 0x20 ADD ADD SWAP1 PUSH1 0x1 PUSH1 0x1 PUSH1 0xA0 SHL SUB AND SWAP1 DUP2 PUSH1 0x1 PUSH1 0x1 PUSH1 0xA0 SHL SUB AND DUP2 MSTORE POP POP PUSH20 0xD500B1D8E8EF31E21C99D1DB9A6444D3ADF1270 DUP2 PUSH1 0x1 DUP2 MLOAD DUP2 LT PUSH2 0x15BC JUMPI PUSH2 0x15BC PUSH2 0x2EB6 JUMP JUMPDEST PUSH1 0x40 DUP1 MLOAD PUSH1 0x3 DUP1 DUP3 MSTORE PUSH1 0x80 DUP3 ADD SWAP1 SWAP3 MSTORE SWAP1 PUSH1 0x20 DUP3 ADD PUSH1 0x60 DUP1 CALLDATASIZE DUP4 CALLDATACOPY ADD SWAP1 POP POP SWAP1 POP DUP3 DUP2 PUSH1 0x0 DUP2 MLOAD DUP2 LT PUSH2 0x16A0 JUMPI PUSH2 0x16A0 PUSH2 0x2EB6 JUMP JUMPDEST PUSH1 0x20 MUL PUSH1 0x20 ADD ADD SWAP1 PUSH1 0x1 PUSH1 0x1 PUSH1 0xA0 SHL SUB AND SWAP1 DUP2 PUSH1 0x1 PUSH1 0x1 PUSH1 0xA0 SHL SUB AND DUP2 MSTORE POP POP DUP2 DUP2 PUSH1 0x1 DUP2 MLOAD DUP2 LT PUSH2 0x16D4 JUMPI PUSH2 0x16D4 PUSH2 0x2EB6 JUMP JUMPDEST PUSH1 0x20 MUL PUSH1 0x20 ADD ADD SWAP1 PUSH1 0x1 PUSH1 0x1 PUSH1 0xA0 SHL SUB AND SWAP1 DUP2 PUSH1 0x1 PUSH1 0x1 PUSH1 0xA0 SHL SUB AND DUP2 MSTORE POP POP PUSH20 0xD500B1D8E8EF31E21C99D1DB9A6444D3ADF1270 DUP2 PUSH1 0x2 DUP2 MLOAD DUP2 LT PUSH2 0x171C JUMPI PUSH2 0x171C PUSH2 0x2EB6 JUMP JUMPDEST PUSH1 0x20 MUL PUSH1 0x20 ADD ADD SWAP1 PUSH1 0x1 PUSH1 0x1 PUSH1 0xA0 SHL SUB AND SWAP1 DUP2 PUSH1 0x1 PUSH1 0x1 PUSH1 0xA0 SHL SUB AND DUP2 MSTORE POP POP JUMPDEST SWAP3 SWAP2 POP POP JUMP JUMPDEST PUSH1 0x60 DUP2 PUSH1 0x1 PUSH1 0x1 PUSH1 0xA0 SHL SUB AND DUP4 PUSH1 0x0 DUP2 MLOAD DUP2 LT PUSH2 0x1762 JUMPI PUSH2 0x1762 PUSH2 0x2EB6 JUMP JUMPDEST PUSH1 0x20 MUL PUSH1 0x20 ADD ADD MLOAD PUSH1 0x1 PUSH1 0x1 PUSH1 0xA0 SHL SUB AND EQ ISZERO PUSH2 0x17AD JUMPI PUSH1 0x40 DUP1 MLOAD PUSH1 0x1 DUP1 DUP3 MSTORE DUP2 DUP4 ADD SWAP1 SWAP3 MSTORE SWAP1 PUSH1 0x20 DUP1 DUP4 ADD SWAP1 DUP1 CALLDATASIZE DUP4 CALLDATACOPY ADD SWAP1 POP POP SWAP1 POP DUP2 DUP2 PUSH1 0x0 DUP2 MLOAD DUP2 LT PUSH2 0x15BC JUMPI PUSH2 0x15BC PUSH2 0x2EB6 JUMP JUMPDEST PUSH20 0x2791BCA1F2DE4661ED88A30C99A7A9449AA84174 PUSH1 0x1 PUSH1 0x1 PUSH1 0xA0 SHL SUB AND DUP4 PUSH1 0x1 DUP2 MLOAD DUP2 LT PUSH2 0x17DE JUMPI PUSH2 0x17DE PUSH2 0x2EB6 JUMP JUMPDEST PUSH1 0x20 MUL PUSH1 0x20 ADD ADD MLOAD PUSH1 0x1 PUSH1 0x1 PUSH1 0xA0 SHL SUB AND EQ ISZERO PUSH2 0x1877 JUMPI PUSH1 0x40 DUP1 MLOAD PUSH1 0x2 DUP1 DUP3 MSTORE PUSH1 0x60 DUP3 ADD DUP4 MSTORE SWAP1 SWAP2 PUSH1 0x20 DUP4 ADD SWAP1 DUP1 CALLDATASIZE DUP4 CALLDATACOPY ADD SWAP1 POP POP SWAP1 POP DUP3 PUSH1 0x0 DUP2 MLOAD DUP2 LT PUSH2 0x1828 JUMPI PUSH2 0x1828 PUSH2 0x2EB6 JUMP JUMPDEST PUSH1 0x20 MUL PUSH1 0x20 ADD ADD MLOAD DUP2 PUSH1 0x0 DUP2 MLOAD DUP2 LT PUSH2 0x1843 JUMPI PUSH2 0x1843 PUSH2 0x2EB6 JUMP JUMPDEST PUSH1 0x20 MUL PUSH1 0x20 ADD ADD SWAP1 PUSH1 0x1 PUSH1 0x1 PUSH1 0xA0 SHL SUB AND SWAP1 DUP2 PUSH1 0x1 PUSH1 0x1 PUSH1 0xA0 SHL SUB AND DUP2 MSTORE POP POP DUP2 DUP2 PUSH1 0x1 DUP2 MLOAD DUP2 LT PUSH2 0x15BC JUMPI PUSH2 0x15BC PUSH2 0x2EB6 JUMP JUMPDEST DUP3 MLOAD PUSH2 0x1884 SWAP1 PUSH1 0x1 PUSH2 0x2DCD JUMP JUMPDEST PUSH8 0xFFFFFFFFFFFFFFFF DUP2 GT ISZERO PUSH2 0x189C JUMPI PUSH2 0x189C PUSH2 0x2ECC JUMP JUMPDEST PUSH1 0x40 MLOAD SWAP1 DUP1 DUP3 MSTORE DUP1 PUSH1 0x20 MUL PUSH1 0x20 ADD DUP3 ADD PUSH1 0x40 MSTORE DUP1 ISZERO PUSH2 0x18C5 JUMPI DUP2 PUSH1 0x20 ADD PUSH1 0x20 DUP3 MUL DUP1 CALLDATASIZE DUP4 CALLDATACOPY ADD SWAP1 POP JUMPDEST POP SWAP1 POP PUSH1 0x0 JUMPDEST DUP4 MLOAD DUP2 LT ISZERO PUSH2 0x192A JUMPI DUP4 DUP2 DUP2 MLOAD DUP2 LT PUSH2 0x18E6 JUMPI PUSH2 0x18E6 PUSH2 0x2EB6 JUMP JUMPDEST PUSH1 0x20 MUL PUSH1 0x20 ADD ADD MLOAD DUP3 DUP3 DUP2 MLOAD DUP2 LT PUSH2 0x1900 JUMPI PUSH2 0x1900 PUSH2 0x2EB6 JUMP JUMPDEST PUSH1 0x1 PUSH1 0x1 PUSH1 0xA0 SHL SUB SWAP1 SWAP3 AND PUSH1 0x20 SWAP3 DUP4 MUL SWAP2 SWAP1 SWAP2 ADD SWAP1 SWAP2 ADD MSTORE DUP1 PUSH2 0x1922 DUP2 PUSH2 0x2E5B JUMP JUMPDEST SWAP2 POP POP PUSH2 0x18CB JUMP JUMPDEST POP DUP2 DUP2 DUP5 MLOAD DUP2 MLOAD DUP2 LT PUSH2 0x171C JUMPI PUSH2 0x171C PUSH2 0x2EB6 JUMP JUMPDEST DUP1 ISZERO DUP1 PUSH2 0x19C8 JUMPI POP PUSH1 0x40 MLOAD PUSH4 0x6EB1769F PUSH1 0xE1 SHL DUP2 MSTORE ADDRESS PUSH1 0x4 DUP3 ADD MSTORE PUSH1 0x1 PUSH1 0x1 PUSH1 0xA0 SHL SUB DUP4 DUP2 AND PUSH1 0x24 DUP4 ADD MSTORE DUP5 AND SWAP1 PUSH4 0xDD62ED3E SWAP1 PUSH1 0x44 ADD PUSH1 0x20 PUSH1 0x40 MLOAD DUP1 DUP4 SUB DUP2 DUP7 DUP1 EXTCODESIZE ISZERO DUP1 ISZERO PUSH2 0x198E JUMPI PUSH1 0x0 DUP1 REVERT JUMPDEST POP GAS STATICCALL ISZERO DUP1 ISZERO PUSH2 0x19A2 JUMPI RETURNDATASIZE PUSH1 0x0 DUP1 RETURNDATACOPY RETURNDATASIZE PUSH1 0x0 REVERT JUMPDEST POP POP POP POP PUSH1 0x40 MLOAD RETURNDATASIZE PUSH1 0x1F NOT PUSH1 0x1F DUP3 ADD AND DUP3 ADD DUP1 PUSH1 0x40 MSTORE POP DUP2 ADD SWAP1 PUSH2 0x19C6 SWAP2 SWAP1 PUSH2 0x2B70 JUMP JUMPDEST ISZERO JUMPDEST PUSH2 0x1A33 JUMPI PUSH1 0x40 MLOAD PUSH3 0x461BCD PUSH1 0xE5 SHL DUP2 MSTORE PUSH1 0x20 PUSH1 0x4 DUP3 ADD MSTORE PUSH1 0x36 PUSH1 0x24 DUP3 ADD MSTORE PUSH32 0x5361666545524332303A20617070726F76652066726F6D206E6F6E2D7A65726F PUSH1 0x44 DUP3 ADD MSTORE PUSH22 0x20746F206E6F6E2D7A65726F20616C6C6F77616E6365 PUSH1 0x50 SHL PUSH1 0x64 DUP3 ADD MSTORE PUSH1 0x84 ADD PUSH2 0x8BF JUMP JUMPDEST PUSH1 0x40 MLOAD PUSH1 0x1 PUSH1 0x1 PUSH1 0xA0 SHL SUB DUP4 AND PUSH1 0x24 DUP3 ADD MSTORE PUSH1 0x44 DUP2 ADD DUP3 SWAP1 MSTORE PUSH2 0x1A96 SWAP1 DUP5 SWAP1 PUSH4 0x95EA7B3 PUSH1 0xE0 SHL SWAP1 PUSH1 0x64 ADD JUMPDEST PUSH1 0x40 DUP1 MLOAD PUSH1 0x1F NOT DUP2 DUP5 SUB ADD DUP2 MSTORE SWAP2 SWAP1 MSTORE PUSH1 0x20 DUP2 ADD DUP1 MLOAD PUSH1 0x1 PUSH1 0x1 PUSH1 0xE0 SHL SUB AND PUSH1 0x1 PUSH1 0x1 PUSH1 0xE0 SHL SUB NOT SWAP1 SWAP4 AND SWAP3 SWAP1 SWAP3 OR SWAP1 SWAP2 MSTORE PUSH2 0x25BF JUMP JUMPDEST POP POP POP JUMP JUMPDEST PUSH1 0x40 MLOAD PUSH4 0x6EB1769F PUSH1 0xE1 SHL DUP2 MSTORE ADDRESS PUSH1 0x4 DUP3 ADD MSTORE PUSH1 0x1 PUSH1 0x1 PUSH1 0xA0 SHL SUB DUP4 DUP2 AND PUSH1 0x24 DUP4 ADD MSTORE PUSH1 0x0 SWAP2 DUP4 SWAP2 DUP7 AND SWAP1 PUSH4 0xDD62ED3E SWAP1 PUSH1 0x44 ADD PUSH1 0x20 PUSH1 0x40 MLOAD DUP1 DUP4 SUB DUP2 DUP7 DUP1 EXTCODESIZE ISZERO DUP1 ISZERO PUSH2 0x1AE7 JUMPI PUSH1 0x0 DUP1 REVERT JUMPDEST POP GAS STATICCALL ISZERO DUP1 ISZERO PUSH2 0x1AFB JUMPI RETURNDATASIZE PUSH1 0x0 DUP1 RETURNDATACOPY RETURNDATASIZE PUSH1 0x0 REVERT JUMPDEST POP POP POP POP PUSH1 0x40 MLOAD RETURNDATASIZE PUSH1 0x1F NOT PUSH1 0x1F DUP3 ADD AND DUP3 ADD DUP1 PUSH1 0x40 MSTORE POP DUP2 ADD SWAP1 PUSH2 0x1B1F SWAP2 SWAP1 PUSH2 0x2B70 JUMP JUMPDEST PUSH2 0x1B29 SWAP2 SWAP1 PUSH2 0x2DCD JUMP JUMPDEST PUSH1 0x40 MLOAD PUSH1 0x1 PUSH1 0x1 PUSH1 0xA0 SHL SUB DUP6 AND PUSH1 0x24 DUP3 ADD MSTORE PUSH1 0x44 DUP2 ADD DUP3 SWAP1 MSTORE SWAP1 SWAP2 POP PUSH2 0x1B5C SWAP1 DUP6 SWAP1 PUSH4 0x95EA7B3 PUSH1 0xE0 SHL SWAP1 PUSH1 0x64 ADD PUSH2 0x1A5F JUMP JUMPDEST POP POP POP POP JUMP JUMPDEST PUSH1 0x60 PUSH2 0x1B71 DUP5 DUP5 PUSH1 0x0 DUP6 PUSH2 0x2691 JUMP JUMPDEST SWAP1 POP JUMPDEST SWAP4 SWAP3 POP POP POP JUMP JUMPDEST PUSH2 0x8D0 PUSH32 0x0 PUSH32 0x0 PUSH32 0x0 PUSH2 0x27B9 JUMP JUMPDEST PUSH1 0x2 SLOAD PUSH1 0xFF AND PUSH2 0x1C2F JUMPI PUSH1 0x40 MLOAD PUSH3 0x461BCD PUSH1 0xE5 SHL DUP2 MSTORE PUSH1 0x20 PUSH1 0x4 DUP3 ADD MSTORE PUSH1 0x14 PUSH1 0x24 DUP3 ADD MSTORE PUSH20 0x14185D5CD8589B194E881B9BDD081C185D5CD959 PUSH1 0x62 SHL PUSH1 0x44 DUP3 ADD MSTORE PUSH1 0x64 ADD PUSH2 0x8BF JUMP JUMPDEST PUSH1 0x2 DUP1 SLOAD PUSH1 0xFF NOT AND SWAP1 SSTORE PUSH32 0x5DB9EE0A495BF2E6FF9C91A7834C1BA4FDD244A5E8AA4E537BD38AEAE4B073AA CALLER JUMPDEST PUSH1 0x40 MLOAD PUSH1 0x1 PUSH1 0x1 PUSH1 0xA0 SHL SUB SWAP1 SWAP2 AND DUP2 MSTORE PUSH1 0x20 ADD PUSH1 0x40 MLOAD DUP1 SWAP2 SUB SWAP1 LOG1 JUMP JUMPDEST PUSH1 0x2 SLOAD PUSH1 0xFF AND ISZERO PUSH2 0x1C9C JUMPI PUSH1 0x40 MLOAD PUSH3 0x461BCD PUSH1 0xE5 SHL DUP2 MSTORE PUSH1 0x4 ADD PUSH2 0x8BF SWAP1 PUSH2 0x2CE2 JUMP JUMPDEST PUSH1 0x2 DUP1 SLOAD PUSH1 0xFF NOT AND PUSH1 0x1 OR SWAP1 SSTORE PUSH32 0x62E78CEA01BEE320CD4E420270B5EA74000D11B0C9F74754EBDBFC544B05A258 PUSH2 0x1C5C CALLER SWAP1 JUMP JUMPDEST PUSH1 0x40 MLOAD PUSH4 0x29897547 PUSH1 0xE1 SHL DUP2 MSTORE PUSH32 0x0 PUSH1 0x4 DUP3 ADD MSTORE PUSH32 0x0 PUSH1 0x1 PUSH1 0x1 PUSH1 0xA0 SHL SUB AND SWAP1 PUSH4 0x5312EA8E SWAP1 PUSH1 0x24 ADD JUMPDEST PUSH1 0x0 PUSH1 0x40 MLOAD DUP1 DUP4 SUB DUP2 PUSH1 0x0 DUP8 DUP1 EXTCODESIZE ISZERO DUP1 ISZERO PUSH2 0x1D53 JUMPI PUSH1 0x0 DUP1 REVERT JUMPDEST POP GAS CALL ISZERO DUP1 ISZERO PUSH2 0x1B5C JUMPI RETURNDATASIZE PUSH1 0x0 DUP1 RETURNDATACOPY RETURNDATASIZE PUSH1 0x0 REVERT JUMPDEST PUSH1 0x40 MLOAD PUSH1 0x1 PUSH1 0x1 PUSH1 0xA0 SHL SUB DUP1 DUP6 AND PUSH1 0x24 DUP4 ADD MSTORE DUP4 AND PUSH1 0x44 DUP3 ADD MSTORE PUSH1 0x64 DUP2 ADD DUP3 SWAP1 MSTORE PUSH2 0x1B5C SWAP1 DUP6 SWAP1 PUSH4 0x23B872DD PUSH1 0xE0 SHL SWAP1 PUSH1 0x84 ADD PUSH2 0x1A5F JUMP JUMPDEST PUSH1 0x40 MLOAD PUSH4 0x70A08231 PUSH1 0xE0 SHL DUP2 MSTORE ADDRESS PUSH1 0x4 DUP3 ADD MSTORE PUSH1 0x0 SWAP1 DUP2 SWAP1 PUSH1 0x1 PUSH1 0x1 PUSH1 0xA0 SHL SUB PUSH32 0x0 AND SWAP1 PUSH4 0x70A08231 SWAP1 PUSH1 0x24 ADD PUSH1 0x20 PUSH1 0x40 MLOAD DUP1 DUP4 SUB DUP2 DUP7 DUP1 EXTCODESIZE ISZERO DUP1 ISZERO PUSH2 0x1E03 JUMPI PUSH1 0x0 DUP1 REVERT JUMPDEST POP GAS STATICCALL ISZERO DUP1 ISZERO PUSH2 0x1E17 JUMPI RETURNDATASIZE PUSH1 0x0 DUP1 RETURNDATACOPY RETURNDATASIZE PUSH1 0x0 REVERT JUMPDEST POP POP POP POP PUSH1 0x40 MLOAD RETURNDATASIZE PUSH1 0x1F NOT PUSH1 0x1F DUP3 ADD AND DUP3 ADD DUP1 PUSH1 0x40 MSTORE POP DUP2 ADD SWAP1 PUSH2 0x1E3B SWAP2 SWAP1 PUSH2 0x2B70 JUMP JUMPDEST SWAP1 POP DUP1 PUSH2 0x1E4A JUMPI PUSH1 0x0 SWAP2 POP POP SWAP1 JUMP JUMPDEST PUSH1 0x0 PUSH2 0x1E54 PUSH2 0x7AD JUMP JUMPDEST SWAP1 POP PUSH2 0x1E5F DUP3 PUSH2 0x2884 JUMP JUMPDEST PUSH1 0x0 PUSH2 0x1E69 PUSH2 0x7AD JUMP JUMPDEST SWAP1 POP PUSH2 0x1E75 DUP3 DUP3 PUSH2 0x2E18 JUMP JUMPDEST SWAP4 POP POP POP POP SWAP1 JUMP JUMPDEST PUSH1 0x0 DUP1 SLOAD PUSH1 0x1 PUSH1 0x1 PUSH1 0xA0 SHL SUB DUP4 DUP2 AND PUSH1 0x1 PUSH1 0x1 PUSH1 0xA0 SHL SUB NOT DUP4 AND DUP2 OR DUP5 SSTORE PUSH1 0x40 MLOAD SWAP2 SWAP1 SWAP3 AND SWAP3 DUP4 SWAP2 PUSH32 0x8BE0079C531659141344CD1FD0A4F28419497F9722A3DAAFE3B4186F6B6457E0 SWAP2 SWAP1 LOG3 POP POP JUMP JUMPDEST PUSH1 0x40 MLOAD PUSH4 0x441A3E7 PUSH1 0xE4 SHL DUP2 MSTORE PUSH32 0x0 PUSH1 0x4 DUP3 ADD MSTORE PUSH1 0x0 PUSH1 0x24 DUP3 ADD MSTORE PUSH32 0x0 PUSH1 0x1 PUSH1 0x1 PUSH1 0xA0 SHL SUB AND SWAP1 PUSH4 0x441A3E70 SWAP1 PUSH1 0x44 ADD PUSH2 0x1D39 JUMP JUMPDEST PUSH1 0x8 SLOAD PUSH1 0x0 SWAP1 ISZERO PUSH2 0x1FF1 JUMPI PUSH1 0x0 PUSH2 0x2710 PUSH1 0x8 SLOAD DUP5 PUSH2 0x1F5E SWAP2 SWAP1 PUSH2 0x2DF9 JUMP JUMPDEST PUSH2 0x1F68 SWAP2 SWAP1 PUSH2 0x2DE5 JUMP JUMPDEST SWAP1 POP PUSH2 0x1FE3 DUP2 PUSH1 0xF DUP1 SLOAD DUP1 PUSH1 0x20 MUL PUSH1 0x20 ADD PUSH1 0x40 MLOAD SWAP1 DUP2 ADD PUSH1 0x40 MSTORE DUP1 SWAP3 SWAP2 SWAP1 DUP2 DUP2 MSTORE PUSH1 0x20 ADD DUP3 DUP1 SLOAD DUP1 ISZERO PUSH2 0x1FC4 JUMPI PUSH1 0x20 MUL DUP3 ADD SWAP2 SWAP1 PUSH1 0x0 MSTORE PUSH1 0x20 PUSH1 0x0 KECCAK256 SWAP1 JUMPDEST DUP2 SLOAD PUSH1 0x1 PUSH1 0x1 PUSH1 0xA0 SHL SUB AND DUP2 MSTORE PUSH1 0x1 SWAP1 SWAP2 ADD SWAP1 PUSH1 0x20 ADD DUP1 DUP4 GT PUSH2 0x1FA6 JUMPI JUMPDEST POP POP POP POP POP PUSH20 0x5386881B46C37CDD30A748F7771CF95D7B213637 PUSH2 0x28F7 JUMP JUMPDEST PUSH2 0x1FED DUP2 DUP5 PUSH2 0x2E18 JUMP JUMPDEST SWAP3 POP POP JUMPDEST POP SWAP1 JUMP JUMPDEST PUSH1 0x9 SLOAD PUSH1 0x0 SWAP1 ISZERO PUSH2 0x1FF1 JUMPI PUSH1 0x0 PUSH2 0x2710 PUSH1 0x9 SLOAD DUP5 PUSH2 0x2013 SWAP2 SWAP1 PUSH2 0x2DF9 JUMP JUMPDEST PUSH2 0x201D SWAP2 SWAP1 PUSH2 0x2DE5 JUMP JUMPDEST PUSH1 0x40 MLOAD PUSH4 0x70A08231 PUSH1 0xE0 SHL DUP2 MSTORE ADDRESS PUSH1 0x4 DUP3 ADD MSTORE SWAP1 SWAP2 POP PUSH1 0x0 SWAP1 PUSH20 0x2791BCA1F2DE4661ED88A30C99A7A9449AA84174 SWAP1 PUSH4 0x70A08231 SWAP1 PUSH1 0x24 ADD PUSH1 0x20 PUSH1 0x40 MLOAD DUP1 DUP4 SUB DUP2 DUP7 DUP1 EXTCODESIZE ISZERO DUP1 ISZERO PUSH2 0x206D JUMPI PUSH1 0x0 DUP1 REVERT JUMPDEST POP GAS STATICCALL ISZERO DUP1 ISZERO PUSH2 0x2081 JUMPI RETURNDATASIZE PUSH1 0x0 DUP1 RETURNDATACOPY RETURNDATASIZE PUSH1 0x0 REVERT JUMPDEST POP POP POP POP PUSH1 0x40 MLOAD RETURNDATASIZE PUSH1 0x1F NOT PUSH1 0x1F DUP3 ADD AND DUP3 ADD DUP1 PUSH1 0x40 MSTORE POP DUP2 ADD SWAP1 PUSH2 0x20A5 SWAP2 SWAP1 PUSH2 0x2B70 JUMP JUMPDEST SWAP1 POP PUSH2 0x210A DUP3 PUSH1 0x10 DUP1 SLOAD DUP1 PUSH1 0x20 MUL PUSH1 0x20 ADD PUSH1 0x40 MLOAD SWAP1 DUP2 ADD PUSH1 0x40 MSTORE DUP1 SWAP3 SWAP2 SWAP1 DUP2 DUP2 MSTORE PUSH1 0x20 ADD DUP3 DUP1 SLOAD DUP1 ISZERO PUSH2 0x1051 JUMPI PUSH1 0x20 MUL DUP3 ADD SWAP2 SWAP1 PUSH1 0x0 MSTORE PUSH1 0x20 PUSH1 0x0 KECCAK256 SWAP1 DUP2 SLOAD PUSH1 0x1 PUSH1 0x1 PUSH1 0xA0 SHL SUB AND DUP2 MSTORE PUSH1 0x1 SWAP1 SWAP2 ADD SWAP1 PUSH1 0x20 ADD DUP1 DUP4 GT PUSH2 0x1033 JUMPI POP POP POP POP POP ADDRESS PUSH2 0x22C4 JUMP JUMPDEST PUSH1 0x40 MLOAD PUSH4 0x70A08231 PUSH1 0xE0 SHL DUP2 MSTORE ADDRESS PUSH1 0x4 DUP3 ADD MSTORE PUSH1 0x0 SWAP1 DUP3 SWAP1 PUSH20 0x2791BCA1F2DE4661ED88A30C99A7A9449AA84174 SWAP1 PUSH4 0x70A08231 SWAP1 PUSH1 0x24 ADD PUSH1 0x20 PUSH1 0x40 MLOAD DUP1 DUP4 SUB DUP2 DUP7 DUP1 EXTCODESIZE ISZERO DUP1 ISZERO PUSH2 0x2159 JUMPI PUSH1 0x0 DUP1 REVERT JUMPDEST POP GAS STATICCALL ISZERO DUP1 ISZERO PUSH2 0x216D JUMPI RETURNDATASIZE PUSH1 0x0 DUP1 RETURNDATACOPY RETURNDATASIZE PUSH1 0x0 REVERT JUMPDEST POP POP POP POP PUSH1 0x40 MLOAD RETURNDATASIZE PUSH1 0x1F NOT PUSH1 0x1F DUP3 ADD AND DUP3 ADD DUP1 PUSH1 0x40 MSTORE POP DUP2 ADD SWAP1 PUSH2 0x2191 SWAP2 SWAP1 PUSH2 0x2B70 JUMP JUMPDEST PUSH2 0x219B SWAP2 SWAP1 PUSH2 0x2E18 JUMP JUMPDEST PUSH1 0x40 MLOAD PUSH4 0x1E2720FF PUSH1 0xE0 SHL DUP2 MSTORE PUSH1 0x4 DUP2 ADD DUP3 SWAP1 MSTORE SWAP1 SWAP2 POP PUSH20 0x917FB15E8AAA12264DCBDC15AFEF7CD3CE76BA39 SWAP1 PUSH4 0x1E2720FF SWAP1 PUSH1 0x24 ADD PUSH1 0x20 PUSH1 0x40 MLOAD DUP1 DUP4 SUB DUP2 PUSH1 0x0 DUP8 DUP1 EXTCODESIZE ISZERO DUP1 ISZERO PUSH2 0x21EB JUMPI PUSH1 0x0 DUP1 REVERT JUMPDEST POP GAS CALL ISZERO DUP1 ISZERO PUSH2 0x21FF JUMPI RETURNDATASIZE PUSH1 0x0 DUP1 RETURNDATACOPY RETURNDATASIZE PUSH1 0x0 REVERT JUMPDEST POP POP POP POP PUSH1 0x40 MLOAD RETURNDATASIZE PUSH1 0x1F NOT PUSH1 0x1F DUP3 ADD AND DUP3 ADD DUP1 PUSH1 0x40 MSTORE POP DUP2 ADD SWAP1 PUSH2 0x2223 SWAP2 SWAP1 PUSH2 0x2B35 JUMP JUMPDEST POP PUSH2 0x222E DUP4 DUP7 PUSH2 0x2E18 JUMP JUMPDEST SWAP5 POP POP POP POP POP SWAP1 JUMP JUMPDEST PUSH1 0xA SLOAD PUSH1 0x0 SWAP1 ISZERO PUSH2 0x1FF1 JUMPI PUSH1 0x0 PUSH2 0x2710 PUSH1 0xA SLOAD DUP5 PUSH2 0x2255 SWAP2 SWAP1 PUSH2 0x2DF9 JUMP JUMPDEST PUSH2 0x225F SWAP2 SWAP1 PUSH2 0x2DE5 JUMP JUMPDEST SWAP1 POP PUSH2 0x1FE3 DUP2 PUSH1 0x11 DUP1 SLOAD DUP1 PUSH1 0x20 MUL PUSH1 0x20 ADD PUSH1 0x40 MLOAD SWAP1 DUP2 ADD PUSH1 0x40 MSTORE DUP1 SWAP3 SWAP2 SWAP1 DUP2 DUP2 MSTORE PUSH1 0x20 ADD DUP3 DUP1 SLOAD DUP1 ISZERO PUSH2 0x22BB JUMPI PUSH1 0x20 MUL DUP3 ADD SWAP2 SWAP1 PUSH1 0x0 MSTORE PUSH1 0x20 PUSH1 0x0 KECCAK256 SWAP1 JUMPDEST DUP2 SLOAD PUSH1 0x1 PUSH1 0x1 PUSH1 0xA0 SHL SUB AND DUP2 MSTORE PUSH1 0x1 SWAP1 SWAP2 ADD SWAP1 PUSH1 0x20 ADD DUP1 DUP4 GT PUSH2 0x229D JUMPI JUMPDEST POP POP POP POP POP PUSH2 0xDEAD JUMPDEST PUSH1 0x4 DUP1 SLOAD PUSH1 0x40 MLOAD PUSH4 0xD06CA61F PUSH1 0xE0 SHL DUP2 MSTORE PUSH1 0x0 SWAP3 PUSH1 0x1 PUSH1 0x1 PUSH1 0xA0 SHL SUB SWAP1 SWAP3 AND SWAP2 PUSH4 0xD06CA61F SWAP2 PUSH2 0x22F8 SWAP2 DUP9 SWAP2 DUP9 SWAP2 ADD PUSH2 0x2D78 JUMP JUMPDEST PUSH1 0x0 PUSH1 0x40 MLOAD DUP1 DUP4 SUB DUP2 DUP7 DUP1 EXTCODESIZE ISZERO DUP1 ISZERO PUSH2 0x2310 JUMPI PUSH1 0x0 DUP1 REVERT JUMPDEST POP GAS STATICCALL ISZERO DUP1 ISZERO PUSH2 0x2324 JUMPI RETURNDATASIZE PUSH1 0x0 DUP1 RETURNDATACOPY RETURNDATASIZE PUSH1 0x0 REVERT JUMPDEST POP POP POP POP PUSH1 0x40 MLOAD RETURNDATASIZE PUSH1 0x0 DUP3 RETURNDATACOPY PUSH1 0x1F RETURNDATASIZE SWAP1 DUP2 ADD PUSH1 0x1F NOT AND DUP3 ADD PUSH1 0x40 MSTORE PUSH2 0x234C SWAP2 SWAP1 DUP2 ADD SWAP1 PUSH2 0x2A70 JUMP JUMPDEST SWAP1 POP PUSH1 0x0 DUP2 PUSH1 0x1 DUP4 MLOAD PUSH2 0x235F SWAP2 SWAP1 PUSH2 0x2E18 JUMP JUMPDEST DUP2 MLOAD DUP2 LT PUSH2 0x236F JUMPI PUSH2 0x236F PUSH2 0x2EB6 JUMP JUMPDEST PUSH1 0x20 MUL PUSH1 0x20 ADD ADD MLOAD SWAP1 POP PUSH20 0x76BF0C28E604CC3FE9967C83B3C3F31C213CFE64 PUSH1 0x1 PUSH1 0x1 PUSH1 0xA0 SHL SUB AND DUP5 PUSH1 0x1 DUP7 MLOAD PUSH2 0x23A6 SWAP2 SWAP1 PUSH2 0x2E18 JUMP JUMPDEST DUP2 MLOAD DUP2 LT PUSH2 0x23B6 JUMPI PUSH2 0x23B6 PUSH2 0x2EB6 JUMP JUMPDEST PUSH1 0x20 MUL PUSH1 0x20 ADD ADD MLOAD PUSH1 0x1 PUSH1 0x1 PUSH1 0xA0 SHL SUB AND EQ DUP1 ISZERO PUSH2 0x23DE JUMPI POP PUSH1 0x1 PUSH1 0x1 PUSH1 0xA0 SHL SUB DUP4 AND PUSH2 0xDEAD EQ JUMPDEST ISZERO PUSH2 0x23FB JUMPI DUP1 PUSH1 0xE PUSH1 0x0 DUP3 DUP3 SLOAD PUSH2 0x23F5 SWAP2 SWAP1 PUSH2 0x2DCD JUMP JUMPDEST SWAP1 SWAP2 SSTORE POP POP JUMPDEST PUSH1 0x4 SLOAD PUSH1 0xC SLOAD PUSH1 0x1 PUSH1 0x1 PUSH1 0xA0 SHL SUB SWAP1 SWAP2 AND SWAP1 PUSH4 0x38ED1739 SWAP1 DUP8 SWAP1 PUSH2 0x3E8 SWAP1 PUSH2 0x2423 SWAP1 DUP7 PUSH2 0x2DF9 JUMP JUMPDEST PUSH2 0x242D SWAP2 SWAP1 PUSH2 0x2DE5 JUMP JUMPDEST DUP8 DUP8 PUSH2 0x243B TIMESTAMP PUSH2 0x258 PUSH2 0x2DCD JUMP JUMPDEST PUSH1 0x40 MLOAD DUP7 PUSH4 0xFFFFFFFF AND PUSH1 0xE0 SHL DUP2 MSTORE PUSH1 0x4 ADD PUSH2 0x245B SWAP6 SWAP5 SWAP4 SWAP3 SWAP2 SWAP1 PUSH2 0x2D91 JUMP JUMPDEST PUSH1 0x0 PUSH1 0x40 MLOAD DUP1 DUP4 SUB DUP2 PUSH1 0x0 DUP8 DUP1 EXTCODESIZE ISZERO DUP1 ISZERO PUSH2 0x2475 JUMPI PUSH1 0x0 DUP1 REVERT JUMPDEST POP GAS CALL ISZERO DUP1 ISZERO PUSH2 0x2489 JUMPI RETURNDATASIZE PUSH1 0x0 DUP1 RETURNDATACOPY RETURNDATASIZE PUSH1 0x0 REVERT JUMPDEST POP POP POP POP PUSH1 0x40 MLOAD RETURNDATASIZE PUSH1 0x0 DUP3 RETURNDATACOPY PUSH1 0x1F RETURNDATASIZE SWAP1 DUP2 ADD PUSH1 0x1F NOT AND DUP3 ADD PUSH1 0x40 MSTORE PUSH2 0x24B1 SWAP2 SWAP1 DUP2 ADD SWAP1 PUSH2 0x2A70 JUMP JUMPDEST POP POP POP POP POP POP JUMP JUMPDEST PUSH1 0x40 MLOAD PUSH4 0x441A3E7 PUSH1 0xE4 SHL DUP2 MSTORE PUSH32 0x0 PUSH1 0x4 DUP3 ADD MSTORE PUSH1 0x24 DUP2 ADD DUP3 SWAP1 MSTORE PUSH32 0x0 PUSH1 0x1 PUSH1 0x1 PUSH1 0xA0 SHL SUB AND SWAP1 PUSH4 0x441A3E70 SWAP1 PUSH1 0x44 ADD JUMPDEST PUSH1 0x0 PUSH1 0x40 MLOAD DUP1 DUP4 SUB DUP2 PUSH1 0x0 DUP8 DUP1 EXTCODESIZE ISZERO DUP1 ISZERO PUSH2 0x2542 JUMPI PUSH1 0x0 DUP1 REVERT JUMPDEST POP GAS CALL ISZERO DUP1 ISZERO PUSH2 0x2556 JUMPI RETURNDATASIZE PUSH1 0x0 DUP1 RETURNDATACOPY RETURNDATASIZE PUSH1 0x0 REVERT JUMPDEST POP POP POP POP POP JUMP JUMPDEST PUSH1 0x0 PUSH2 0x2569 DUP3 DUP5 PUSH2 0x2E76 JUMP JUMPDEST ISZERO PUSH2 0x2575 JUMPI PUSH1 0x1 PUSH2 0x2578 JUMP JUMPDEST PUSH1 0x0 JUMPDEST PUSH1 0xFF AND PUSH2 0x2585 DUP4 DUP6 PUSH2 0x2DE5 JUMP JUMPDEST PUSH2 0x1B74 SWAP2 SWAP1 PUSH2 0x2DCD JUMP JUMPDEST PUSH1 0x40 MLOAD PUSH1 0x1 PUSH1 0x1 PUSH1 0xA0 SHL SUB DUP4 AND PUSH1 0x24 DUP3 ADD MSTORE PUSH1 0x44 DUP2 ADD DUP3 SWAP1 MSTORE PUSH2 0x1A96 SWAP1 DUP5 SWAP1 PUSH4 0xA9059CBB PUSH1 0xE0 SHL SWAP1 PUSH1 0x64 ADD PUSH2 0x1A5F JUMP JUMPDEST PUSH1 0x0 PUSH2 0x2614 DUP3 PUSH1 0x40 MLOAD DUP1 PUSH1 0x40 ADD PUSH1 0x40 MSTORE DUP1 PUSH1 0x20 DUP2 MSTORE PUSH1 0x20 ADD PUSH32 0x5361666545524332303A206C6F772D6C6576656C2063616C6C206661696C6564 DUP2 MSTORE POP DUP6 PUSH1 0x1 PUSH1 0x1 PUSH1 0xA0 SHL SUB AND PUSH2 0x1B62 SWAP1 SWAP3 SWAP2 SWAP1 PUSH4 0xFFFFFFFF AND JUMP JUMPDEST DUP1 MLOAD SWAP1 SWAP2 POP ISZERO PUSH2 0x1A96 JUMPI DUP1 DUP1 PUSH1 0x20 ADD SWAP1 MLOAD DUP2 ADD SWAP1 PUSH2 0x2632 SWAP2 SWAP1 PUSH2 0x2B35 JUMP JUMPDEST PUSH2 0x1A96 JUMPI PUSH1 0x40 MLOAD PUSH3 0x461BCD PUSH1 0xE5 SHL DUP2 MSTORE PUSH1 0x20 PUSH1 0x4 DUP3 ADD MSTORE PUSH1 0x2A PUSH1 0x24 DUP3 ADD MSTORE PUSH32 0x5361666545524332303A204552433230206F7065726174696F6E20646964206E PUSH1 0x44 DUP3 ADD MSTORE PUSH10 0x1BDD081CDD58D8D95959 PUSH1 0xB2 SHL PUSH1 0x64 DUP3 ADD MSTORE PUSH1 0x84 ADD PUSH2 0x8BF JUMP JUMPDEST PUSH1 0x60 DUP3 SELFBALANCE LT ISZERO PUSH2 0x26F2 JUMPI PUSH1 0x40 MLOAD PUSH3 0x461BCD PUSH1 0xE5 SHL DUP2 MSTORE PUSH1 0x20 PUSH1 0x4 DUP3 ADD MSTORE PUSH1 0x26 PUSH1 0x24 DUP3 ADD MSTORE PUSH32 0x416464726573733A20696E73756666696369656E742062616C616E636520666F PUSH1 0x44 DUP3 ADD MSTORE PUSH6 0x1C8818D85B1B PUSH1 0xD2 SHL PUSH1 0x64 DUP3 ADD MSTORE PUSH1 0x84 ADD PUSH2 0x8BF JUMP JUMPDEST DUP5 EXTCODESIZE PUSH2 0x2740 JUMPI PUSH1 0x40 MLOAD PUSH3 0x461BCD PUSH1 0xE5 SHL DUP2 MSTORE PUSH1 0x20 PUSH1 0x4 DUP3 ADD MSTORE PUSH1 0x1D PUSH1 0x24 DUP3 ADD MSTORE PUSH32 0x416464726573733A2063616C6C20746F206E6F6E2D636F6E7472616374000000 PUSH1 0x44 DUP3 ADD MSTORE PUSH1 0x64 ADD PUSH2 0x8BF JUMP JUMPDEST PUSH1 0x0 DUP1 DUP7 PUSH1 0x1 PUSH1 0x1 PUSH1 0xA0 SHL SUB AND DUP6 DUP8 PUSH1 0x40 MLOAD PUSH2 0x275C SWAP2 SWAP1 PUSH2 0x2C4D JUMP JUMPDEST PUSH1 0x0 PUSH1 0x40 MLOAD DUP1 DUP4 SUB DUP2 DUP6 DUP8 GAS CALL SWAP3 POP POP POP RETURNDATASIZE DUP1 PUSH1 0x0 DUP2 EQ PUSH2 0x2799 JUMPI PUSH1 0x40 MLOAD SWAP2 POP PUSH1 0x1F NOT PUSH1 0x3F RETURNDATASIZE ADD AND DUP3 ADD PUSH1 0x40 MSTORE RETURNDATASIZE DUP3 MSTORE RETURNDATASIZE PUSH1 0x0 PUSH1 0x20 DUP5 ADD RETURNDATACOPY PUSH2 0x279E JUMP JUMPDEST PUSH1 0x60 SWAP2 POP JUMPDEST POP SWAP2 POP SWAP2 POP PUSH2 0x27AE DUP3 DUP3 DUP7 PUSH2 0x29D6 JUMP JUMPDEST SWAP8 SWAP7 POP POP POP POP POP POP POP JUMP JUMPDEST PUSH2 0x27CE PUSH1 0x1 PUSH1 0x1 PUSH1 0xA0 SHL SUB DUP5 AND DUP3 PUSH1 0x0 PUSH2 0x193F JUMP JUMPDEST PUSH2 0x27E4 PUSH1 0x1 PUSH1 0x1 PUSH1 0xA0 SHL SUB DUP5 AND DUP3 PUSH1 0x0 NOT PUSH2 0x1A9B JUMP JUMPDEST PUSH1 0x4 SLOAD PUSH2 0x27FF SWAP1 PUSH1 0x1 PUSH1 0x1 PUSH1 0xA0 SHL SUB DUP5 DUP2 AND SWAP2 AND PUSH1 0x0 PUSH2 0x193F JUMP JUMPDEST PUSH1 0x4 SLOAD PUSH2 0x281B SWAP1 PUSH1 0x1 PUSH1 0x1 PUSH1 0xA0 SHL SUB DUP5 DUP2 AND SWAP2 AND PUSH1 0x0 NOT PUSH2 0x1A9B JUMP JUMPDEST PUSH2 0x284F PUSH20 0x2791BCA1F2DE4661ED88A30C99A7A9449AA84174 PUSH20 0x917FB15E8AAA12264DCBDC15AFEF7CD3CE76BA39 PUSH1 0x0 PUSH2 0x193F JUMP JUMPDEST PUSH2 0x1A96 PUSH20 0x2791BCA1F2DE4661ED88A30C99A7A9449AA84174 PUSH20 0x917FB15E8AAA12264DCBDC15AFEF7CD3CE76BA39 PUSH1 0x0 NOT PUSH2 0x1A9B JUMP JUMPDEST PUSH1 0x40 MLOAD PUSH4 0x1C57762B PUSH1 0xE3 SHL DUP2 MSTORE PUSH32 0x0 PUSH1 0x4 DUP3 ADD MSTORE PUSH1 0x24 DUP2 ADD DUP3 SWAP1 MSTORE PUSH32 0x0 PUSH1 0x1 PUSH1 0x1 PUSH1 0xA0 SHL SUB AND SWAP1 PUSH4 0xE2BBB158 SWAP1 PUSH1 0x44 ADD PUSH2 0x2528 JUMP JUMPDEST PUSH1 0x4 DUP1 SLOAD PUSH1 0x40 MLOAD PUSH4 0xD06CA61F PUSH1 0xE0 SHL DUP2 MSTORE PUSH1 0x0 SWAP3 PUSH1 0x1 PUSH1 0x1 PUSH1 0xA0 SHL SUB SWAP1 SWAP3 AND SWAP2 PUSH4 0xD06CA61F SWAP2 PUSH2 0x292B SWAP2 DUP9 SWAP2 DUP9 SWAP2 ADD PUSH2 0x2D78 JUMP JUMPDEST PUSH1 0x0 PUSH1 0x40 MLOAD DUP1 DUP4 SUB DUP2 DUP7 DUP1 EXTCODESIZE ISZERO DUP1 ISZERO PUSH2 0x2943 JUMPI PUSH1 0x0 DUP1 REVERT JUMPDEST POP GAS STATICCALL ISZERO DUP1 ISZERO PUSH2 0x2957 JUMPI RETURNDATASIZE PUSH1 0x0 DUP1 RETURNDATACOPY RETURNDATASIZE PUSH1 0x0 REVERT JUMPDEST POP POP POP POP PUSH1 0x40 MLOAD RETURNDATASIZE PUSH1 0x0 DUP3 RETURNDATACOPY PUSH1 0x1F RETURNDATASIZE SWAP1 DUP2 ADD PUSH1 0x1F NOT AND DUP3 ADD PUSH1 0x40 MSTORE PUSH2 0x297F SWAP2 SWAP1 DUP2 ADD SWAP1 PUSH2 0x2A70 JUMP JUMPDEST SWAP1 POP PUSH1 0x0 DUP2 PUSH1 0x1 DUP4 MLOAD PUSH2 0x2992 SWAP2 SWAP1 PUSH2 0x2E18 JUMP JUMPDEST DUP2 MLOAD DUP2 LT PUSH2 0x29A2 JUMPI PUSH2 0x29A2 PUSH2 0x2EB6 JUMP JUMPDEST PUSH1 0x20 SWAP1 DUP2 MUL SWAP2 SWAP1 SWAP2 ADD ADD MLOAD PUSH1 0x4 SLOAD PUSH1 0xC SLOAD SWAP2 SWAP3 POP PUSH1 0x1 PUSH1 0x1 PUSH1 0xA0 SHL SUB AND SWAP1 PUSH4 0x18CBAFE5 SWAP1 DUP8 SWAP1 PUSH2 0x3E8 SWAP1 PUSH2 0x2423 SWAP1 DUP7 PUSH2 0x2DF9 JUMP JUMPDEST PUSH1 0x60 DUP4 ISZERO PUSH2 0x29E5 JUMPI POP DUP2 PUSH2 0x1B74 JUMP JUMPDEST DUP3 MLOAD ISZERO PUSH2 0x29F5 JUMPI DUP3 MLOAD DUP1 DUP5 PUSH1 0x20 ADD REVERT JUMPDEST DUP2 PUSH1 0x40 MLOAD PUSH3 0x461BCD PUSH1 0xE5 SHL DUP2 MSTORE PUSH1 0x4 ADD PUSH2 0x8BF SWAP2 SWAP1 PUSH2 0x2C91 JUMP JUMPDEST DUP1 CALLDATALOAD PUSH1 0x1 PUSH1 0x1 PUSH1 0xA0 SHL SUB DUP2 AND DUP2 EQ PUSH2 0x2A26 JUMPI PUSH1 0x0 DUP1 REVERT JUMPDEST SWAP2 SWAP1 POP JUMP JUMPDEST PUSH1 0x0 PUSH1 0x20 DUP3 DUP5 SUB SLT ISZERO PUSH2 0x2A3D JUMPI PUSH1 0x0 DUP1 REVERT JUMPDEST PUSH2 0x1B74 DUP3 PUSH2 0x2A0F JUMP JUMPDEST PUSH1 0x0 DUP1 PUSH1 0x40 DUP4 DUP6 SUB SLT ISZERO PUSH2 0x2A59 JUMPI PUSH1 0x0 DUP1 REVERT JUMPDEST PUSH2 0x2A62 DUP4 PUSH2 0x2A0F JUMP JUMPDEST SWAP5 PUSH1 0x20 SWAP4 SWAP1 SWAP4 ADD CALLDATALOAD SWAP4 POP POP POP JUMP JUMPDEST PUSH1 0x0 PUSH1 0x20 DUP1 DUP4 DUP6 SUB SLT ISZERO PUSH2 0x2A83 JUMPI PUSH1 0x0 DUP1 REVERT JUMPDEST DUP3 MLOAD PUSH8 0xFFFFFFFFFFFFFFFF DUP1 DUP3 GT ISZERO PUSH2 0x2A9B JUMPI PUSH1 0x0 DUP1 REVERT JUMPDEST DUP2 DUP6 ADD SWAP2 POP DUP6 PUSH1 0x1F DUP4 ADD SLT PUSH2 0x2AAF JUMPI PUSH1 0x0 DUP1 REVERT JUMPDEST DUP2 MLOAD DUP2 DUP2 GT ISZERO PUSH2 0x2AC1 JUMPI PUSH2 0x2AC1 PUSH2 0x2ECC JUMP JUMPDEST DUP1 PUSH1 0x5 SHL PUSH1 0x40 MLOAD PUSH1 0x1F NOT PUSH1 0x3F DUP4 ADD AND DUP2 ADD DUP2 DUP2 LT DUP6 DUP3 GT OR ISZERO PUSH2 0x2AE6 JUMPI PUSH2 0x2AE6 PUSH2 0x2ECC JUMP JUMPDEST PUSH1 0x40 MSTORE DUP3 DUP2 MSTORE DUP6 DUP2 ADD SWAP4 POP DUP5 DUP7 ADD DUP3 DUP7 ADD DUP8 ADD DUP11 LT ISZERO PUSH2 0x2B05 JUMPI PUSH1 0x0 DUP1 REVERT JUMPDEST PUSH1 0x0 SWAP6 POP JUMPDEST DUP4 DUP7 LT ISZERO PUSH2 0x2B28 JUMPI DUP1 MLOAD DUP6 MSTORE PUSH1 0x1 SWAP6 SWAP1 SWAP6 ADD SWAP5 SWAP4 DUP7 ADD SWAP4 DUP7 ADD PUSH2 0x2B0A JUMP JUMPDEST POP SWAP9 SWAP8 POP POP POP POP POP POP POP POP JUMP JUMPDEST PUSH1 0x0 PUSH1 0x20 DUP3 DUP5 SUB SLT ISZERO PUSH2 0x2B47 JUMPI PUSH1 0x0 DUP1 REVERT JUMPDEST DUP2 MLOAD DUP1 ISZERO ISZERO DUP2 EQ PUSH2 0x1B74 JUMPI PUSH1 0x0 DUP1 REVERT JUMPDEST PUSH1 0x0 PUSH1 0x20 DUP3 DUP5 SUB SLT ISZERO PUSH2 0x2B69 JUMPI PUSH1 0x0 DUP1 REVERT JUMPDEST POP CALLDATALOAD SWAP2 SWAP1 POP JUMP JUMPDEST PUSH1 0x0 PUSH1 0x20 DUP3 DUP5 SUB SLT ISZERO PUSH2 0x2B82 JUMPI PUSH1 0x0 DUP1 REVERT JUMPDEST POP MLOAD SWAP2 SWAP1 POP JUMP JUMPDEST PUSH1 0x0 DUP1 PUSH1 0x40 DUP4 DUP6 SUB SLT ISZERO PUSH2 0x2B9C JUMPI PUSH1 0x0 DUP1 REVERT JUMPDEST POP POP DUP1 MLOAD PUSH1 0x20 SWAP1 SWAP2 ADD MLOAD SWAP1 SWAP3 SWAP1 SWAP2 POP JUMP JUMPDEST PUSH1 0x0 DUP1 PUSH1 0x0 DUP1 PUSH1 0x0 DUP1 PUSH1 0x0 PUSH1 0xE0 DUP9 DUP11 SUB SLT ISZERO PUSH2 0x2BC8 JUMPI PUSH1 0x0 DUP1 REVERT JUMPDEST DUP8 CALLDATALOAD SWAP7 POP PUSH1 0x20 DUP9 ADD CALLDATALOAD SWAP6 POP PUSH1 0x40 DUP9 ADD CALLDATALOAD SWAP5 POP PUSH1 0x60 DUP9 ADD CALLDATALOAD SWAP4 POP PUSH1 0x80 DUP9 ADD CALLDATALOAD SWAP3 POP PUSH1 0xA0 DUP9 ADD CALLDATALOAD SWAP2 POP PUSH2 0x2BFB PUSH1 0xC0 DUP10 ADD PUSH2 0x2A0F JUMP JUMPDEST SWAP1 POP SWAP3 SWAP6 SWAP9 SWAP2 SWAP5 SWAP8 POP SWAP3 SWAP6 POP JUMP JUMPDEST PUSH1 0x0 DUP2 MLOAD DUP1 DUP5 MSTORE PUSH1 0x20 DUP1 DUP6 ADD SWAP5 POP DUP1 DUP5 ADD PUSH1 0x0 JUMPDEST DUP4 DUP2 LT ISZERO PUSH2 0x2C42 JUMPI DUP2 MLOAD PUSH1 0x1 PUSH1 0x1 PUSH1 0xA0 SHL SUB AND DUP8 MSTORE SWAP6 DUP3 ADD SWAP6 SWAP1 DUP3 ADD SWAP1 PUSH1 0x1 ADD PUSH2 0x2C1D JUMP JUMPDEST POP SWAP5 SWAP6 SWAP5 POP POP POP POP POP JUMP JUMPDEST PUSH1 0x0 DUP3 MLOAD PUSH2 0x2C5F DUP2 DUP5 PUSH1 0x20 DUP8 ADD PUSH2 0x2E2F JUMP JUMPDEST SWAP2 SWAP1 SWAP2 ADD SWAP3 SWAP2 POP POP JUMP JUMPDEST PUSH1 0x20 DUP2 ADD PUSH1 0x4 DUP4 LT PUSH2 0x2C8B JUMPI PUSH4 0x4E487B71 PUSH1 0xE0 SHL PUSH1 0x0 MSTORE PUSH1 0x21 PUSH1 0x4 MSTORE PUSH1 0x24 PUSH1 0x0 REVERT JUMPDEST SWAP2 SWAP1 MSTORE SWAP1 JUMP JUMPDEST PUSH1 0x20 DUP2 MSTORE PUSH1 0x0 DUP3 MLOAD DUP1 PUSH1 0x20 DUP5 ADD MSTORE PUSH2 0x2CB0 DUP2 PUSH1 0x40 DUP6 ADD PUSH1 0x20 DUP8 ADD PUSH2 0x2E2F JUMP JUMPDEST PUSH1 0x1F ADD PUSH1 0x1F NOT AND SWAP2 SWAP1 SWAP2 ADD PUSH1 0x40 ADD SWAP3 SWAP2 POP POP JUMP JUMPDEST PUSH1 0x20 DUP1 DUP3 MSTORE PUSH1 0x4 SWAP1 DUP3 ADD MSTORE PUSH4 0x10B3B7BB PUSH1 0xE1 SHL PUSH1 0x40 DUP3 ADD MSTORE PUSH1 0x60 ADD SWAP1 JUMP JUMPDEST PUSH1 0x20 DUP1 DUP3 MSTORE PUSH1 0x10 SWAP1 DUP3 ADD MSTORE PUSH16 0x14185D5CD8589B194E881C185D5CD959 PUSH1 0x82 SHL PUSH1 0x40 DUP3 ADD MSTORE PUSH1 0x60 ADD SWAP1 JUMP JUMPDEST PUSH1 0x20 DUP1 DUP3 MSTORE DUP2 DUP2 ADD MSTORE PUSH32 0x4F776E61626C653A2063616C6C6572206973206E6F7420746865206F776E6572 PUSH1 0x40 DUP3 ADD MSTORE PUSH1 0x60 ADD SWAP1 JUMP JUMPDEST PUSH1 0x20 DUP1 DUP3 MSTORE PUSH1 0x1F SWAP1 DUP3 ADD MSTORE PUSH32 0x5265656E7472616E637947756172643A207265656E7472616E742063616C6C00 PUSH1 0x40 DUP3 ADD MSTORE PUSH1 0x60 ADD SWAP1 JUMP JUMPDEST DUP3 DUP2 MSTORE PUSH1 0x40 PUSH1 0x20 DUP3 ADD MSTORE PUSH1 0x0 PUSH2 0x1B71 PUSH1 0x40 DUP4 ADD DUP5 PUSH2 0x2C09 JUMP JUMPDEST DUP6 DUP2 MSTORE DUP5 PUSH1 0x20 DUP3 ADD MSTORE PUSH1 0xA0 PUSH1 0x40 DUP3 ADD MSTORE PUSH1 0x0 PUSH2 0x2DB0 PUSH1 0xA0 DUP4 ADD DUP7 PUSH2 0x2C09 JUMP JUMPDEST PUSH1 0x1 PUSH1 0x1 PUSH1 0xA0 SHL SUB SWAP5 SWAP1 SWAP5 AND PUSH1 0x60 DUP4 ADD MSTORE POP PUSH1 0x80 ADD MSTORE SWAP4 SWAP3 POP POP POP JUMP JUMPDEST PUSH1 0x0 DUP3 NOT DUP3 GT ISZERO PUSH2 0x2DE0 JUMPI PUSH2 0x2DE0 PUSH2 0x2E8A JUMP JUMPDEST POP ADD SWAP1 JUMP JUMPDEST PUSH1 0x0 DUP3 PUSH2 0x2DF4 JUMPI PUSH2 0x2DF4 PUSH2 0x2EA0 JUMP JUMPDEST POP DIV SWAP1 JUMP JUMPDEST PUSH1 0x0 DUP2 PUSH1 0x0 NOT DIV DUP4 GT DUP3 ISZERO ISZERO AND ISZERO PUSH2 0x2E13 JUMPI PUSH2 0x2E13 PUSH2 0x2E8A JUMP JUMPDEST POP MUL SWAP1 JUMP JUMPDEST PUSH1 0x0 DUP3 DUP3 LT ISZERO PUSH2 0x2E2A JUMPI PUSH2 0x2E2A PUSH2 0x2E8A JUMP JUMPDEST POP SUB SWAP1 JUMP JUMPDEST PUSH1 0x0 JUMPDEST DUP4 DUP2 LT ISZERO PUSH2 0x2E4A JUMPI DUP2 DUP2 ADD MLOAD DUP4 DUP3 ADD MSTORE PUSH1 0x20 ADD PUSH2 0x2E32 JUMP JUMPDEST DUP4 DUP2 GT ISZERO PUSH2 0x1B5C JUMPI POP POP PUSH1 0x0 SWAP2 ADD MSTORE JUMP JUMPDEST PUSH1 0x0 PUSH1 0x0 NOT DUP3 EQ ISZERO PUSH2 0x2E6F JUMPI PUSH2 0x2E6F PUSH2 0x2E8A JUMP JUMPDEST POP PUSH1 0x1 ADD SWAP1 JUMP JUMPDEST PUSH1 0x0 DUP3 PUSH2 0x2E85 JUMPI PUSH2 0x2E85 PUSH2 0x2EA0 JUMP JUMPDEST POP MOD SWAP1 JUMP JUMPDEST PUSH4 0x4E487B71 PUSH1 0xE0 SHL PUSH1 0x0 MSTORE PUSH1 0x11 PUSH1 0x4 MSTORE PUSH1 0x24 PUSH1 0x0 REVERT JUMPDEST PUSH4 0x4E487B71 PUSH1 0xE0 SHL PUSH1 0x0 MSTORE PUSH1 0x12 PUSH1 0x4 MSTORE PUSH1 0x24 PUSH1 0x0 REVERT JUMPDEST PUSH4 0x4E487B71 PUSH1 0xE0 SHL PUSH1 0x0 MSTORE PUSH1 0x32 PUSH1 0x4 MSTORE PUSH1 0x24 PUSH1 0x0 REVERT JUMPDEST PUSH4 0x4E487B71 PUSH1 0xE0 SHL PUSH1 0x0 MSTORE PUSH1 0x41 PUSH1 0x4 MSTORE PUSH1 0x24 PUSH1 0x0 REVERT INVALID LOG2 PUSH5 0x6970667358 0x22 SLT KECCAK256 SWAP7 0xD3 NUMBER 0xF6 0xE6 0xB7 0xBE BASEFEE 0xB4 DUP8 STOP CREATE2 BYTE 0xB7 JUMPDEST STATICCALL DUP8 0xD3 MSTORE 0xE7 DUP4 0xD0 0xC9 PUSH1 0xA6 SWAP2 0x5D 0xE0 ADDMOD 0xF9 0xC1 0x1E PUSH5 0x736F6C6343 STOP ADDMOD SMOD STOP CALLER PUSH2 0x160 PUSH1 0x40 MSTORE NUMBER PUSH1 0x6 SSTORE PUSH1 0x0 PUSH1 0x7 SSTORE PUSH1 0x32 PUSH1 0x8 SSTORE PUSH1 0x0 PUSH1 0x9 SSTORE PUSH2 0x1C2 PUSH1 0xA SSTORE PUSH2 0x2706 PUSH1 0xB SSTORE PUSH2 0x3B6 PUSH1 0xC SSTORE CALLVALUE DUP1 ISZERO PUSH3 0x37 JUMPI PUSH1 0x0 DUP1 REVERT JUMPDEST POP PUSH1 0x40 MLOAD PUSH3 0x3FDC CODESIZE SUB DUP1 PUSH3 0x3FDC DUP4 CODECOPY DUP2 ADD PUSH1 0x40 DUP2 SWAP1 MSTORE PUSH3 0x5A SWAP2 PUSH3 0xEC4 JUMP JUMPDEST DUP7 DUP4 DUP1 DUP1 PUSH1 0x3 PUSH3 0x6B CALLER PUSH3 0x2BC JUMP JUMPDEST PUSH1 0x1 DUP1 SSTORE PUSH1 0x2 DUP1 SLOAD PUSH1 0xFF NOT AND SWAP1 SSTORE PUSH1 0x1 PUSH1 0x1 PUSH1 0x60 SHL SUB NOT PUSH1 0x60 DUP7 DUP2 SHL DUP3 AND PUSH1 0xC0 MSTORE DUP6 DUP2 SHL DUP3 AND PUSH1 0x80 MSTORE DUP5 DUP2 SHL DUP3 AND PUSH1 0xA0 MSTORE DUP4 SWAP1 SHL AND PUSH1 0xE0 MSTORE DUP1 PUSH1 0x3 DUP2 GT ISZERO PUSH3 0xB8 JUMPI PUSH3 0xB8 PUSH3 0x1069 JUMP JUMPDEST PUSH2 0x100 DUP2 PUSH1 0x3 DUP2 GT ISZERO PUSH3 0xD0 JUMPI PUSH3 0xD0 PUSH3 0x1069 JUMP JUMPDEST PUSH1 0xF8 SHL SWAP1 MSTORE POP POP PUSH1 0x5 DUP1 SLOAD PUSH1 0x1 PUSH1 0x1 PUSH1 0xA0 SHL SUB NOT SWAP1 DUP2 AND PUSH1 0x1 PUSH1 0x1 PUSH1 0xA0 SHL SUB DUP16 DUP2 AND SWAP2 SWAP1 SWAP2 OR SWAP1 SWAP3 SSTORE PUSH1 0x60 DUP13 SWAP1 SHL PUSH1 0x1 PUSH1 0x1 PUSH1 0x60 SHL SUB NOT AND PUSH2 0x120 MSTORE PUSH1 0x4 DUP1 SLOAD SWAP1 SWAP2 AND SWAP2 DUP12 AND SWAP2 SWAP1 SWAP2 OR SWAP1 SSTORE POP POP POP PUSH2 0x140 DUP6 SWAP1 MSTORE POP PUSH1 0xD DUP3 SWAP1 SSTORE PUSH3 0x143 DUP4 DUP3 PUSH3 0x30C PUSH1 0x20 SWAP1 DUP2 SHL PUSH3 0x1427 OR SWAP1 SHR JUMP JUMPDEST DUP1 MLOAD PUSH3 0x159 SWAP2 PUSH1 0xF SWAP2 PUSH1 0x20 SWAP1 SWAP2 ADD SWAP1 PUSH3 0xE26 JUMP JUMPDEST POP PUSH3 0x1E1 PUSH1 0xF DUP1 SLOAD DUP1 PUSH1 0x20 MUL PUSH1 0x20 ADD PUSH1 0x40 MLOAD SWAP1 DUP2 ADD PUSH1 0x40 MSTORE DUP1 SWAP3 SWAP2 SWAP1 DUP2 DUP2 MSTORE PUSH1 0x20 ADD DUP3 DUP1 SLOAD DUP1 ISZERO PUSH3 0x1B6 JUMPI PUSH1 0x20 MUL DUP3 ADD SWAP2 SWAP1 PUSH1 0x0 MSTORE PUSH1 0x20 PUSH1 0x0 KECCAK256 SWAP1 JUMPDEST DUP2 SLOAD PUSH1 0x1 PUSH1 0x1 PUSH1 0xA0 SHL SUB AND DUP2 MSTORE PUSH1 0x1 SWAP1 SWAP2 ADD SWAP1 PUSH1 0x20 ADD DUP1 DUP4 GT PUSH3 0x197 JUMPI JUMPDEST POP POP POP POP POP PUSH20 0x2791BCA1F2DE4661ED88A30C99A7A9449AA84174 PUSH3 0x517 PUSH1 0x20 SHL PUSH3 0x161D OR PUSH1 0x20 SHR JUMP JUMPDEST DUP1 MLOAD PUSH3 0x1F7 SWAP2 PUSH1 0x10 SWAP2 PUSH1 0x20 SWAP1 SWAP2 ADD SWAP1 PUSH3 0xE26 JUMP JUMPDEST POP PUSH3 0x27F PUSH1 0xF DUP1 SLOAD DUP1 PUSH1 0x20 MUL PUSH1 0x20 ADD PUSH1 0x40 MLOAD SWAP1 DUP2 ADD PUSH1 0x40 MSTORE DUP1 SWAP3 SWAP2 SWAP1 DUP2 DUP2 MSTORE PUSH1 0x20 ADD DUP3 DUP1 SLOAD DUP1 ISZERO PUSH3 0x254 JUMPI PUSH1 0x20 MUL DUP3 ADD SWAP2 SWAP1 PUSH1 0x0 MSTORE PUSH1 0x20 PUSH1 0x0 KECCAK256 SWAP1 JUMPDEST DUP2 SLOAD PUSH1 0x1 PUSH1 0x1 PUSH1 0xA0 SHL SUB AND DUP2 MSTORE PUSH1 0x1 SWAP1 SWAP2 ADD SWAP1 PUSH1 0x20 ADD DUP1 DUP4 GT PUSH3 0x235 JUMPI JUMPDEST POP POP POP POP POP PUSH20 0x76BF0C28E604CC3FE9967C83B3C3F31C213CFE64 PUSH3 0x517 PUSH1 0x20 SHL PUSH3 0x161D OR PUSH1 0x20 SHR JUMP JUMPDEST DUP1 MLOAD PUSH3 0x295 SWAP2 PUSH1 0x11 SWAP2 PUSH1 0x20 SWAP1 SWAP2 ADD SWAP1 PUSH3 0xE26 JUMP JUMPDEST POP PUSH3 0x2A1 DUP8 PUSH3 0x739 JUMP JUMPDEST PUSH3 0x2AE DUP4 DUP8 DUP10 PUSH3 0x80E JUMP JUMPDEST POP POP POP POP POP POP POP POP PUSH3 0x10AB JUMP JUMPDEST PUSH1 0x0 DUP1 SLOAD PUSH1 0x1 PUSH1 0x1 PUSH1 0xA0 SHL SUB DUP4 DUP2 AND PUSH1 0x1 PUSH1 0x1 PUSH1 0xA0 SHL SUB NOT DUP4 AND DUP2 OR DUP5 SSTORE PUSH1 0x40 MLOAD SWAP2 SWAP1 SWAP3 AND SWAP3 DUP4 SWAP2 PUSH32 0x8BE0079C531659141344CD1FD0A4F28419497F9722A3DAAFE3B4186F6B6457E0 SWAP2 SWAP1 LOG3 POP POP JUMP JUMPDEST PUSH1 0x60 PUSH1 0x1 PUSH1 0x1 PUSH1 0xA0 SHL SUB DUP4 AND PUSH20 0xD500B1D8E8EF31E21C99D1DB9A6444D3ADF1270 EQ ISZERO PUSH3 0x3A5 JUMPI PUSH1 0x40 DUP1 MLOAD PUSH1 0x1 DUP1 DUP3 MSTORE DUP2 DUP4 ADD SWAP1 SWAP3 MSTORE SWAP1 PUSH1 0x20 DUP1 DUP4 ADD SWAP1 DUP1 CALLDATASIZE DUP4 CALLDATACOPY ADD SWAP1 POP POP SWAP1 POP PUSH20 0xD500B1D8E8EF31E21C99D1DB9A6444D3ADF1270 DUP2 PUSH1 0x0 DUP2 MLOAD DUP2 LT PUSH3 0x37F JUMPI PUSH3 0x37F PUSH3 0x107F JUMP JUMPDEST PUSH1 0x20 MUL PUSH1 0x20 ADD ADD SWAP1 PUSH1 0x1 PUSH1 0x1 PUSH1 0xA0 SHL SUB AND SWAP1 DUP2 PUSH1 0x1 PUSH1 0x1 PUSH1 0xA0 SHL SUB AND DUP2 MSTORE POP POP PUSH3 0x511 JUMP JUMPDEST PUSH1 0x1 PUSH1 0x1 PUSH1 0xA0 SHL SUB DUP3 AND PUSH3 0x436 JUMPI PUSH1 0x40 DUP1 MLOAD PUSH1 0x2 DUP1 DUP3 MSTORE PUSH1 0x60 DUP3 ADD DUP4 MSTORE SWAP1 SWAP2 PUSH1 0x20 DUP4 ADD SWAP1 DUP1 CALLDATASIZE DUP4 CALLDATACOPY ADD SWAP1 POP POP SWAP1 POP DUP3 DUP2 PUSH1 0x0 DUP2 MLOAD DUP2 LT PUSH3 0x3EB JUMPI PUSH3 0x3EB PUSH3 0x107F JUMP JUMPDEST PUSH1 0x20 MUL PUSH1 0x20 ADD ADD SWAP1 PUSH1 0x1 PUSH1 0x1 PUSH1 0xA0 SHL SUB AND SWAP1 DUP2 PUSH1 0x1 PUSH1 0x1 PUSH1 0xA0 SHL SUB AND DUP2 MSTORE POP POP PUSH20 0xD500B1D8E8EF31E21C99D1DB9A6444D3ADF1270 DUP2 PUSH1 0x1 DUP2 MLOAD DUP2 LT PUSH3 0x37F JUMPI PUSH3 0x37F PUSH3 0x107F JUMP JUMPDEST PUSH1 0x40 DUP1 MLOAD PUSH1 0x3 DUP1 DUP3 MSTORE PUSH1 0x80 DUP3 ADD SWAP1 SWAP3 MSTORE SWAP1 PUSH1 0x20 DUP3 ADD PUSH1 0x60 DUP1 CALLDATASIZE DUP4 CALLDATACOPY ADD SWAP1 POP POP SWAP1 POP DUP3 DUP2 PUSH1 0x0 DUP2 MLOAD DUP2 LT PUSH3 0x46E JUMPI PUSH3 0x46E PUSH3 0x107F JUMP JUMPDEST PUSH1 0x20 MUL PUSH1 0x20 ADD ADD SWAP1 PUSH1 0x1 PUSH1 0x1 PUSH1 0xA0 SHL SUB AND SWAP1 DUP2 PUSH1 0x1 PUSH1 0x1 PUSH1 0xA0 SHL SUB AND DUP2 MSTORE POP POP DUP2 DUP2 PUSH1 0x1 DUP2 MLOAD DUP2 LT PUSH3 0x4A5 JUMPI PUSH3 0x4A5 PUSH3 0x107F JUMP JUMPDEST PUSH1 0x20 MUL PUSH1 0x20 ADD ADD SWAP1 PUSH1 0x1 PUSH1 0x1 PUSH1 0xA0 SHL SUB AND SWAP1 DUP2 PUSH1 0x1 PUSH1 0x1 PUSH1 0xA0 SHL SUB AND DUP2 MSTORE POP POP PUSH20 0xD500B1D8E8EF31E21C99D1DB9A6444D3ADF1270 DUP2 PUSH1 0x2 DUP2 MLOAD DUP2 LT PUSH3 0x4F0 JUMPI PUSH3 0x4F0 PUSH3 0x107F JUMP JUMPDEST PUSH1 0x20 MUL PUSH1 0x20 ADD ADD SWAP1 PUSH1 0x1 PUSH1 0x1 PUSH1 0xA0 SHL SUB AND SWAP1 DUP2 PUSH1 0x1 PUSH1 0x1 PUSH1 0xA0 SHL SUB AND DUP2 MSTORE POP POP JUMPDEST SWAP3 SWAP2 POP POP JUMP JUMPDEST PUSH1 0x60 DUP2 PUSH1 0x1 PUSH1 0x1 PUSH1 0xA0 SHL SUB AND DUP4 PUSH1 0x0 DUP2 MLOAD DUP2 LT PUSH3 0x539 JUMPI PUSH3 0x539 PUSH3 0x107F JUMP JUMPDEST PUSH1 0x20 MUL PUSH1 0x20 ADD ADD MLOAD PUSH1 0x1 PUSH1 0x1 PUSH1 0xA0 SHL SUB AND EQ ISZERO PUSH3 0x588 JUMPI PUSH1 0x40 DUP1 MLOAD PUSH1 0x1 DUP1 DUP3 MSTORE DUP2 DUP4 ADD SWAP1 SWAP3 MSTORE SWAP1 PUSH1 0x20 DUP1 DUP4 ADD SWAP1 DUP1 CALLDATASIZE DUP4 CALLDATACOPY ADD SWAP1 POP POP SWAP1 POP DUP2 DUP2 PUSH1 0x0 DUP2 MLOAD DUP2 LT PUSH3 0x37F JUMPI PUSH3 0x37F PUSH3 0x107F JUMP JUMPDEST PUSH20 0x2791BCA1F2DE4661ED88A30C99A7A9449AA84174 PUSH1 0x1 PUSH1 0x1 PUSH1 0xA0 SHL SUB AND DUP4 PUSH1 0x1 DUP2 MLOAD DUP2 LT PUSH3 0x5BC JUMPI PUSH3 0x5BC PUSH3 0x107F JUMP JUMPDEST PUSH1 0x20 MUL PUSH1 0x20 ADD ADD MLOAD PUSH1 0x1 PUSH1 0x1 PUSH1 0xA0 SHL SUB AND EQ ISZERO PUSH3 0x65F JUMPI PUSH1 0x40 DUP1 MLOAD PUSH1 0x2 DUP1 DUP3 MSTORE PUSH1 0x60 DUP3 ADD DUP4 MSTORE SWAP1 SWAP2 PUSH1 0x20 DUP4 ADD SWAP1 DUP1 CALLDATASIZE DUP4 CALLDATACOPY ADD SWAP1 POP POP SWAP1 POP DUP3 PUSH1 0x0 DUP2 MLOAD DUP2 LT PUSH3 0x60A JUMPI PUSH3 0x60A PUSH3 0x107F JUMP JUMPDEST PUSH1 0x20 MUL PUSH1 0x20 ADD ADD MLOAD DUP2 PUSH1 0x0 DUP2 MLOAD DUP2 LT PUSH3 0x628 JUMPI PUSH3 0x628 PUSH3 0x107F JUMP JUMPDEST PUSH1 0x20 MUL PUSH1 0x20 ADD ADD SWAP1 PUSH1 0x1 PUSH1 0x1 PUSH1 0xA0 SHL SUB AND SWAP1 DUP2 PUSH1 0x1 PUSH1 0x1 PUSH1 0xA0 SHL SUB AND DUP2 MSTORE POP POP DUP2 DUP2 PUSH1 0x1 DUP2 MLOAD DUP2 LT PUSH3 0x37F JUMPI PUSH3 0x37F PUSH3 0x107F JUMP JUMPDEST DUP3 MLOAD PUSH3 0x66E SWAP1 PUSH1 0x1 PUSH3 0xFEB JUMP JUMPDEST PUSH1 0x1 PUSH1 0x1 PUSH1 0x40 SHL SUB DUP2 GT ISZERO PUSH3 0x688 JUMPI PUSH3 0x688 PUSH3 0x1095 JUMP JUMPDEST PUSH1 0x40 MLOAD SWAP1 DUP1 DUP3 MSTORE DUP1 PUSH1 0x20 MUL PUSH1 0x20 ADD DUP3 ADD PUSH1 0x40 MSTORE DUP1 ISZERO PUSH3 0x6B2 JUMPI DUP2 PUSH1 0x20 ADD PUSH1 0x20 DUP3 MUL DUP1 CALLDATASIZE DUP4 CALLDATACOPY ADD SWAP1 POP JUMPDEST POP SWAP1 POP PUSH1 0x0 JUMPDEST DUP4 MLOAD DUP2 LT ISZERO PUSH3 0x721 JUMPI DUP4 DUP2 DUP2 MLOAD DUP2 LT PUSH3 0x6D7 JUMPI PUSH3 0x6D7 PUSH3 0x107F JUMP JUMPDEST PUSH1 0x20 MUL PUSH1 0x20 ADD ADD MLOAD DUP3 DUP3 DUP2 MLOAD DUP2 LT PUSH3 0x6F4 JUMPI PUSH3 0x6F4 PUSH3 0x107F JUMP JUMPDEST PUSH1 0x1 PUSH1 0x1 PUSH1 0xA0 SHL SUB SWAP1 SWAP3 AND PUSH1 0x20 SWAP3 DUP4 MUL SWAP2 SWAP1 SWAP2 ADD SWAP1 SWAP2 ADD MSTORE DUP1 PUSH3 0x718 DUP2 PUSH3 0x1035 JUMP JUMPDEST SWAP2 POP POP PUSH3 0x6B8 JUMP JUMPDEST POP DUP2 DUP2 DUP5 MLOAD DUP2 MLOAD DUP2 LT PUSH3 0x4F0 JUMPI PUSH3 0x4F0 PUSH3 0x107F JUMP JUMPDEST PUSH1 0x0 SLOAD PUSH1 0x1 PUSH1 0x1 PUSH1 0xA0 SHL SUB AND CALLER EQ PUSH3 0x799 JUMPI PUSH1 0x40 MLOAD PUSH3 0x461BCD PUSH1 0xE5 SHL DUP2 MSTORE PUSH1 0x20 PUSH1 0x4 DUP3 ADD DUP2 SWAP1 MSTORE PUSH1 0x24 DUP3 ADD MSTORE PUSH32 0x4F776E61626C653A2063616C6C6572206973206E6F7420746865206F776E6572 PUSH1 0x44 DUP3 ADD MSTORE PUSH1 0x64 ADD JUMPDEST PUSH1 0x40 MLOAD DUP1 SWAP2 SUB SWAP1 REVERT JUMPDEST PUSH1 0x1 PUSH1 0x1 PUSH1 0xA0 SHL SUB DUP2 AND PUSH3 0x800 JUMPI PUSH1 0x40 MLOAD PUSH3 0x461BCD PUSH1 0xE5 SHL DUP2 MSTORE PUSH1 0x20 PUSH1 0x4 DUP3 ADD MSTORE PUSH1 0x26 PUSH1 0x24 DUP3 ADD MSTORE PUSH32 0x4F776E61626C653A206E6577206F776E657220697320746865207A65726F2061 PUSH1 0x44 DUP3 ADD MSTORE PUSH6 0x646472657373 PUSH1 0xD0 SHL PUSH1 0x64 DUP3 ADD MSTORE PUSH1 0x84 ADD PUSH3 0x790 JUMP JUMPDEST PUSH3 0x80B DUP2 PUSH3 0x2BC JUMP JUMPDEST POP JUMP JUMPDEST PUSH3 0x834 DUP3 PUSH1 0x0 DUP6 PUSH1 0x1 PUSH1 0x1 PUSH1 0xA0 SHL SUB AND PUSH3 0x985 PUSH1 0x20 SHL PUSH3 0x1819 OR SWAP1 SWAP3 SWAP2 SWAP1 PUSH1 0x20 SHR JUMP JUMPDEST PUSH3 0x85B DUP3 PUSH1 0x0 NOT DUP6 PUSH1 0x1 PUSH1 0x1 PUSH1 0xA0 SHL SUB AND PUSH3 0xAED PUSH1 0x20 SHL PUSH3 0x1975 OR SWAP1 SWAP3 SWAP2 SWAP1 PUSH1 0x20 SHR JUMP JUMPDEST PUSH1 0x4 SLOAD PUSH3 0x884 SWAP1 PUSH1 0x1 PUSH1 0x1 PUSH1 0xA0 SHL SUB DUP6 DUP2 AND SWAP2 AND PUSH1 0x0 PUSH3 0x985 PUSH1 0x20 SWAP1 DUP2 SHL PUSH3 0x1819 OR SWAP1 SHR JUMP JUMPDEST PUSH1 0x4 SLOAD PUSH3 0x8AE SWAP1 PUSH1 0x1 PUSH1 0x1 PUSH1 0xA0 SHL SUB DUP6 DUP2 AND SWAP2 AND PUSH1 0x0 NOT PUSH3 0xAED PUSH1 0x20 SWAP1 DUP2 SHL PUSH3 0x1975 OR SWAP1 SHR JUMP JUMPDEST PUSH3 0x8F0 PUSH20 0x2791BCA1F2DE4661ED88A30C99A7A9449AA84174 PUSH20 0x917FB15E8AAA12264DCBDC15AFEF7CD3CE76BA39 PUSH1 0x0 PUSH3 0x985 PUSH1 0x20 SWAP1 DUP2 SHL PUSH3 0x1819 OR SWAP1 SHR JUMP JUMPDEST PUSH3 0x933 PUSH20 0x2791BCA1F2DE4661ED88A30C99A7A9449AA84174 PUSH20 0x917FB15E8AAA12264DCBDC15AFEF7CD3CE76BA39 PUSH1 0x0 NOT PUSH3 0xAED PUSH1 0x20 SWAP1 DUP2 SHL PUSH3 0x1975 OR SWAP1 SHR JUMP JUMPDEST PUSH3 0x959 DUP2 PUSH1 0x0 DUP6 PUSH1 0x1 PUSH1 0x1 PUSH1 0xA0 SHL SUB AND PUSH3 0x985 PUSH1 0x20 SHL PUSH3 0x1819 OR SWAP1 SWAP3 SWAP2 SWAP1 PUSH1 0x20 SHR JUMP JUMPDEST PUSH3 0x980 DUP2 PUSH1 0x0 NOT DUP6 PUSH1 0x1 PUSH1 0x1 PUSH1 0xA0 SHL SUB AND PUSH3 0xAED PUSH1 0x20 SHL PUSH3 0x1975 OR SWAP1 SWAP3 SWAP2 SWAP1 PUSH1 0x20 SHR JUMP JUMPDEST POP POP POP JUMP JUMPDEST DUP1 ISZERO DUP1 PUSH3 0xA13 JUMPI POP PUSH1 0x40 MLOAD PUSH4 0x6EB1769F PUSH1 0xE1 SHL DUP2 MSTORE ADDRESS PUSH1 0x4 DUP3 ADD MSTORE PUSH1 0x1 PUSH1 0x1 PUSH1 0xA0 SHL SUB DUP4 DUP2 AND PUSH1 0x24 DUP4 ADD MSTORE DUP5 AND SWAP1 PUSH4 0xDD62ED3E SWAP1 PUSH1 0x44 ADD PUSH1 0x20 PUSH1 0x40 MLOAD DUP1 DUP4 SUB DUP2 DUP7 DUP1 EXTCODESIZE ISZERO DUP1 ISZERO PUSH3 0x9D6 JUMPI PUSH1 0x0 DUP1 REVERT JUMPDEST POP GAS STATICCALL ISZERO DUP1 ISZERO PUSH3 0x9EB JUMPI RETURNDATASIZE PUSH1 0x0 DUP1 RETURNDATACOPY RETURNDATASIZE PUSH1 0x0 REVERT JUMPDEST POP POP POP POP PUSH1 0x40 MLOAD RETURNDATASIZE PUSH1 0x1F NOT PUSH1 0x1F DUP3 ADD AND DUP3 ADD DUP1 PUSH1 0x40 MSTORE POP DUP2 ADD SWAP1 PUSH3 0xA11 SWAP2 SWAP1 PUSH3 0xF7E JUMP JUMPDEST ISZERO JUMPDEST PUSH3 0xA87 JUMPI PUSH1 0x40 MLOAD PUSH3 0x461BCD PUSH1 0xE5 SHL DUP2 MSTORE PUSH1 0x20 PUSH1 0x4 DUP3 ADD MSTORE PUSH1 0x36 PUSH1 0x24 DUP3 ADD MSTORE PUSH32 0x5361666545524332303A20617070726F76652066726F6D206E6F6E2D7A65726F PUSH1 0x44 DUP3 ADD MSTORE PUSH32 0x20746F206E6F6E2D7A65726F20616C6C6F77616E636500000000000000000000 PUSH1 0x64 DUP3 ADD MSTORE PUSH1 0x84 ADD PUSH3 0x790 JUMP JUMPDEST PUSH1 0x40 MLOAD PUSH1 0x1 PUSH1 0x1 PUSH1 0xA0 SHL SUB DUP4 AND PUSH1 0x24 DUP3 ADD MSTORE PUSH1 0x44 DUP2 ADD DUP3 SWAP1 MSTORE PUSH3 0x980 SWAP1 DUP5 SWAP1 PUSH4 0x95EA7B3 PUSH1 0xE0 SHL SWAP1 PUSH1 0x64 ADD JUMPDEST PUSH1 0x40 DUP1 MLOAD DUP1 DUP4 SUB PUSH1 0x1F NOT ADD DUP2 MSTORE SWAP2 SWAP1 MSTORE PUSH1 0x20 DUP2 ADD DUP1 MLOAD PUSH1 0x1 PUSH1 0x1 PUSH1 0xE0 SHL SUB NOT SWAP4 SWAP1 SWAP4 AND PUSH1 0x1 PUSH1 0x1 PUSH1 0xE0 SHL SUB SWAP4 DUP5 AND OR SWAP1 MSTORE SWAP1 PUSH3 0xBBC AND JUMP JUMPDEST PUSH1 0x40 MLOAD PUSH4 0x6EB1769F PUSH1 0xE1 SHL DUP2 MSTORE ADDRESS PUSH1 0x4 DUP3 ADD MSTORE PUSH1 0x1 PUSH1 0x1 PUSH1 0xA0 SHL SUB DUP4 DUP2 AND PUSH1 0x24 DUP4 ADD MSTORE PUSH1 0x0 SWAP2 DUP4 SWAP2 DUP7 AND SWAP1 PUSH4 0xDD62ED3E SWAP1 PUSH1 0x44 ADD PUSH1 0x20 PUSH1 0x40 MLOAD DUP1 DUP4 SUB DUP2 DUP7 DUP1 EXTCODESIZE ISZERO DUP1 ISZERO PUSH3 0xB3A JUMPI PUSH1 0x0 DUP1 REVERT JUMPDEST POP GAS STATICCALL ISZERO DUP1 ISZERO PUSH3 0xB4F JUMPI RETURNDATASIZE PUSH1 0x0 DUP1 RETURNDATACOPY RETURNDATASIZE PUSH1 0x0 REVERT JUMPDEST POP POP POP POP PUSH1 0x40 MLOAD RETURNDATASIZE PUSH1 0x1F NOT PUSH1 0x1F DUP3 ADD AND DUP3 ADD DUP1 PUSH1 0x40 MSTORE POP DUP2 ADD SWAP1 PUSH3 0xB75 SWAP2 SWAP1 PUSH3 0xF7E JUMP JUMPDEST PUSH3 0xB81 SWAP2 SWAP1 PUSH3 0xFEB JUMP JUMPDEST PUSH1 0x40 MLOAD PUSH1 0x1 PUSH1 0x1 PUSH1 0xA0 SHL SUB DUP6 AND PUSH1 0x24 DUP3 ADD MSTORE PUSH1 0x44 DUP2 ADD DUP3 SWAP1 MSTORE SWAP1 SWAP2 POP PUSH3 0xBB6 SWAP1 DUP6 SWAP1 PUSH4 0x95EA7B3 PUSH1 0xE0 SHL SWAP1 PUSH1 0x64 ADD PUSH3 0xAB4 JUMP JUMPDEST POP POP POP POP JUMP JUMPDEST PUSH1 0x0 PUSH3 0xC18 DUP3 PUSH1 0x40 MLOAD DUP1 PUSH1 0x40 ADD PUSH1 0x40 MSTORE DUP1 PUSH1 0x20 DUP2 MSTORE PUSH1 0x20 ADD PUSH32 0x5361666545524332303A206C6F772D6C6576656C2063616C6C206661696C6564 DUP2 MSTORE POP DUP6 PUSH1 0x1 PUSH1 0x1 PUSH1 0xA0 SHL SUB AND PUSH3 0xC9A PUSH1 0x20 SHL PUSH3 0x1A3C OR SWAP1 SWAP3 SWAP2 SWAP1 PUSH1 0x20 SHR JUMP JUMPDEST DUP1 MLOAD SWAP1 SWAP2 POP ISZERO PUSH3 0x980 JUMPI DUP1 DUP1 PUSH1 0x20 ADD SWAP1 MLOAD DUP2 ADD SWAP1 PUSH3 0xC39 SWAP2 SWAP1 PUSH3 0xF5A JUMP JUMPDEST PUSH3 0x980 JUMPI PUSH1 0x40 MLOAD PUSH3 0x461BCD PUSH1 0xE5 SHL DUP2 MSTORE PUSH1 0x20 PUSH1 0x4 DUP3 ADD MSTORE PUSH1 0x2A PUSH1 0x24 DUP3 ADD MSTORE PUSH32 0x5361666545524332303A204552433230206F7065726174696F6E20646964206E PUSH1 0x44 DUP3 ADD MSTORE PUSH10 0x1BDD081CDD58D8D95959 PUSH1 0xB2 SHL PUSH1 0x64 DUP3 ADD MSTORE PUSH1 0x84 ADD PUSH3 0x790 JUMP JUMPDEST PUSH1 0x60 PUSH3 0xCAB DUP5 DUP5 PUSH1 0x0 DUP6 PUSH3 0xCB5 JUMP JUMPDEST SWAP1 POP JUMPDEST SWAP4 SWAP3 POP POP POP JUMP JUMPDEST PUSH1 0x60 DUP3 SELFBALANCE LT ISZERO PUSH3 0xD18 JUMPI PUSH1 0x40 MLOAD PUSH3 0x461BCD PUSH1 0xE5 SHL DUP2 MSTORE PUSH1 0x20 PUSH1 0x4 DUP3 ADD MSTORE PUSH1 0x26 PUSH1 0x24 DUP3 ADD MSTORE PUSH32 0x416464726573733A20696E73756666696369656E742062616C616E636520666F PUSH1 0x44 DUP3 ADD MSTORE PUSH6 0x1C8818D85B1B PUSH1 0xD2 SHL PUSH1 0x64 DUP3 ADD MSTORE PUSH1 0x84 ADD PUSH3 0x790 JUMP JUMPDEST DUP5 EXTCODESIZE PUSH3 0xD68 JUMPI PUSH1 0x40 MLOAD PUSH3 0x461BCD PUSH1 0xE5 SHL DUP2 MSTORE PUSH1 0x20 PUSH1 0x4 DUP3 ADD MSTORE PUSH1 0x1D PUSH1 0x24 DUP3 ADD MSTORE PUSH32 0x416464726573733A2063616C6C20746F206E6F6E2D636F6E7472616374000000 PUSH1 0x44 DUP3 ADD MSTORE PUSH1 0x64 ADD PUSH3 0x790 JUMP JUMPDEST PUSH1 0x0 DUP1 DUP7 PUSH1 0x1 PUSH1 0x1 PUSH1 0xA0 SHL SUB AND DUP6 DUP8 PUSH1 0x40 MLOAD PUSH3 0xD86 SWAP2 SWAP1 PUSH3 0xF98 JUMP JUMPDEST PUSH1 0x0 PUSH1 0x40 MLOAD DUP1 DUP4 SUB DUP2 DUP6 DUP8 GAS CALL SWAP3 POP POP POP RETURNDATASIZE DUP1 PUSH1 0x0 DUP2 EQ PUSH3 0xDC5 JUMPI PUSH1 0x40 MLOAD SWAP2 POP PUSH1 0x1F NOT PUSH1 0x3F RETURNDATASIZE ADD AND DUP3 ADD PUSH1 0x40 MSTORE RETURNDATASIZE DUP3 MSTORE RETURNDATASIZE PUSH1 0x0 PUSH1 0x20 DUP5 ADD RETURNDATACOPY PUSH3 0xDCA JUMP JUMPDEST PUSH1 0x60 SWAP2 POP JUMPDEST POP SWAP1 SWAP3 POP SWAP1 POP PUSH3 0xDDD DUP3 DUP3 DUP7 PUSH3 0xDE8 JUMP JUMPDEST SWAP8 SWAP7 POP POP POP POP POP POP POP JUMP JUMPDEST PUSH1 0x60 DUP4 ISZERO PUSH3 0xDF9 JUMPI POP DUP2 PUSH3 0xCAE JUMP JUMPDEST DUP3 MLOAD ISZERO PUSH3 0xE0A JUMPI DUP3 MLOAD DUP1 DUP5 PUSH1 0x20 ADD REVERT JUMPDEST DUP2 PUSH1 0x40 MLOAD PUSH3 0x461BCD PUSH1 0xE5 SHL DUP2 MSTORE PUSH1 0x4 ADD PUSH3 0x790 SWAP2 SWAP1 PUSH3 0xFB6 JUMP JUMPDEST DUP3 DUP1 SLOAD DUP3 DUP3 SSTORE SWAP1 PUSH1 0x0 MSTORE PUSH1 0x20 PUSH1 0x0 KECCAK256 SWAP1 DUP2 ADD SWAP3 DUP3 ISZERO PUSH3 0xE7E JUMPI SWAP2 PUSH1 0x20 MUL DUP3 ADD JUMPDEST DUP3 DUP2 GT ISZERO PUSH3 0xE7E JUMPI DUP3 MLOAD DUP3 SLOAD PUSH1 0x1 PUSH1 0x1 PUSH1 0xA0 SHL SUB NOT AND PUSH1 0x1 PUSH1 0x1 PUSH1 0xA0 SHL SUB SWAP1 SWAP2 AND OR DUP3 SSTORE PUSH1 0x20 SWAP1 SWAP3 ADD SWAP2 PUSH1 0x1 SWAP1 SWAP2 ADD SWAP1 PUSH3 0xE47 JUMP JUMPDEST POP PUSH3 0xE8C SWAP3 SWAP2 POP PUSH3 0xE90 JUMP JUMPDEST POP SWAP1 JUMP JUMPDEST JUMPDEST DUP1 DUP3 GT ISZERO PUSH3 0xE8C JUMPI PUSH1 0x0 DUP2 SSTORE PUSH1 0x1 ADD PUSH3 0xE91 JUMP JUMPDEST DUP1 MLOAD PUSH1 0x1 PUSH1 0x1 PUSH1 0xA0 SHL SUB DUP2 AND DUP2 EQ PUSH3 0xEBF JUMPI PUSH1 0x0 DUP1 REVERT JUMPDEST SWAP2 SWAP1 POP JUMP JUMPDEST PUSH1 0x0 DUP1 PUSH1 0x0 DUP1 PUSH1 0x0 DUP1 PUSH1 0x0 DUP1 PUSH2 0x100 DUP10 DUP12 SUB SLT ISZERO PUSH3 0xEE2 JUMPI PUSH1 0x0 DUP1 REVERT JUMPDEST PUSH3 0xEED DUP10 PUSH3 0xEA7 JUMP JUMPDEST SWAP8 POP PUSH3 0xEFD PUSH1 0x20 DUP11 ADD PUSH3 0xEA7 JUMP JUMPDEST SWAP7 POP PUSH3 0xF0D PUSH1 0x40 DUP11 ADD PUSH3 0xEA7 JUMP JUMPDEST SWAP6 POP PUSH3 0xF1D PUSH1 0x60 DUP11 ADD PUSH3 0xEA7 JUMP JUMPDEST SWAP5 POP PUSH1 0x80 DUP10 ADD MLOAD SWAP4 POP PUSH3 0xF34 PUSH1 0xA0 DUP11 ADD PUSH3 0xEA7 JUMP JUMPDEST SWAP3 POP PUSH1 0xC0 DUP10 ADD MLOAD SWAP2 POP PUSH3 0xF4B PUSH1 0xE0 DUP11 ADD PUSH3 0xEA7 JUMP JUMPDEST SWAP1 POP SWAP3 SWAP6 SWAP9 POP SWAP3 SWAP6 SWAP9 SWAP1 SWAP4 SWAP7 POP JUMP JUMPDEST PUSH1 0x0 PUSH1 0x20 DUP3 DUP5 SUB SLT ISZERO PUSH3 0xF6D JUMPI PUSH1 0x0 DUP1 REVERT JUMPDEST DUP2 MLOAD DUP1 ISZERO ISZERO DUP2 EQ PUSH3 0xCAE JUMPI PUSH1 0x0 DUP1 REVERT JUMPDEST PUSH1 0x0 PUSH1 0x20 DUP3 DUP5 SUB SLT ISZERO PUSH3 0xF91 JUMPI PUSH1 0x0 DUP1 REVERT JUMPDEST POP MLOAD SWAP2 SWAP1 POP JUMP JUMPDEST PUSH1 0x0 DUP3 MLOAD PUSH3 0xFAC DUP2 DUP5 PUSH1 0x20 DUP8 ADD PUSH3 0x1006 JUMP JUMPDEST SWAP2 SWAP1 SWAP2 ADD SWAP3 SWAP2 POP POP JUMP JUMPDEST PUSH1 0x20 DUP2 MSTORE PUSH1 0x0 DUP3 MLOAD DUP1 PUSH1 0x20 DUP5 ADD MSTORE PUSH3 0xFD7 DUP2 PUSH1 0x40 DUP6 ADD PUSH1 0x20 DUP8 ADD PUSH3 0x1006 JUMP JUMPDEST PUSH1 0x1F ADD PUSH1 0x1F NOT AND SWAP2 SWAP1 SWAP2 ADD PUSH1 0x40 ADD SWAP3 SWAP2 POP POP JUMP JUMPDEST PUSH1 0x0 DUP3 NOT DUP3 GT ISZERO PUSH3 0x1001 JUMPI PUSH3 0x1001 PUSH3 0x1053 JUMP JUMPDEST POP ADD SWAP1 JUMP JUMPDEST PUSH1 0x0 JUMPDEST DUP4 DUP2 LT ISZERO PUSH3 0x1023 JUMPI DUP2 DUP2 ADD MLOAD DUP4 DUP3 ADD MSTORE PUSH1 0x20 ADD PUSH3 0x1009 JUMP JUMPDEST DUP4 DUP2 GT ISZERO PUSH3 0xBB6 JUMPI POP POP PUSH1 0x0 SWAP2 ADD MSTORE JUMP JUMPDEST PUSH1 0x0 PUSH1 0x0 NOT DUP3 EQ ISZERO PUSH3 0x104C JUMPI PUSH3 0x104C PUSH3 0x1053 JUMP JUMPDEST POP PUSH1 0x1 ADD SWAP1 JUMP JUMPDEST PUSH4 0x4E487B71 PUSH1 0xE0 SHL PUSH1 0x0 MSTORE PUSH1 0x11 PUSH1 0x4 MSTORE PUSH1 0x24 PUSH1 0x0 REVERT JUMPDEST PUSH4 0x4E487B71 PUSH1 0xE0 SHL PUSH1 0x0 MSTORE PUSH1 0x21 PUSH1 0x4 MSTORE PUSH1 0x24 PUSH1 0x0 REVERT JUMPDEST PUSH4 0x4E487B71 PUSH1 0xE0 SHL PUSH1 0x0 MSTORE PUSH1 0x32 PUSH1 0x4 MSTORE PUSH1 0x24 PUSH1 0x0 REVERT JUMPDEST PUSH4 0x4E487B71 PUSH1 0xE0 SHL PUSH1 0x0 MSTORE PUSH1 0x41 PUSH1 0x4 MSTORE PUSH1 0x24 PUSH1 0x0 REVERT JUMPDEST PUSH1 0x80 MLOAD PUSH1 0x60 SHR PUSH1 0xA0 MLOAD PUSH1 0x60 SHR PUSH1 0xC0 MLOAD PUSH1 0x60 SHR PUSH1 0xE0 MLOAD PUSH1 0x60 SHR PUSH2 0x100 MLOAD PUSH1 0xF8 SHR PUSH2 0x120 MLOAD PUSH1 0x60 SHR PUSH2 0x140 MLOAD PUSH2 0x2E23 PUSH3 0x11B9 PUSH1 0x0 CODECOPY PUSH1 0x0 DUP2 DUP2 PUSH2 0x732 ADD MSTORE DUP2 DUP2 PUSH2 0x7BC ADD MSTORE DUP2 DUP2 PUSH2 0x1BBA ADD MSTORE DUP2 DUP2 PUSH2 0x1DB6 ADD MSTORE DUP2 DUP2 PUSH2 0x21B3 ADD MSTORE PUSH2 0x25A9 ADD MSTORE PUSH1 0x0 DUP2 DUP2 PUSH2 0x453 ADD MSTORE DUP2 DUP2 PUSH2 0x7F5 ADD MSTORE DUP2 DUP2 PUSH2 0x1A7B ADD MSTORE DUP2 DUP2 PUSH2 0x1BE0 ADD MSTORE DUP2 DUP2 PUSH2 0x1DE3 ADD MSTORE DUP2 DUP2 PUSH2 0x21E0 ADD MSTORE PUSH2 0x25D6 ADD MSTORE PUSH1 0x0 PUSH2 0x533 ADD MSTORE PUSH1 0x0 PUSH2 0x686 ADD MSTORE PUSH1 0x0 DUP2 DUP2 PUSH2 0x41A ADD MSTORE DUP2 DUP2 PUSH2 0x13F5 ADD MSTORE PUSH2 0x1A9C ADD MSTORE PUSH1 0x0 DUP2 DUP2 PUSH2 0x6E4 ADD MSTORE DUP2 DUP2 PUSH2 0xEEB ADD MSTORE PUSH2 0xF99 ADD MSTORE PUSH1 0x0 DUP2 DUP2 PUSH2 0x70B ADD MSTORE DUP2 DUP2 PUSH2 0x923 ADD MSTORE DUP2 DUP2 PUSH2 0xA83 ADD MSTORE DUP2 DUP2 PUSH2 0x119C ADD MSTORE DUP2 DUP2 PUSH2 0x124F ADD MSTORE DUP2 DUP2 PUSH2 0x137F ADD MSTORE DUP2 DUP2 PUSH2 0x13D3 ADD MSTORE DUP2 DUP2 PUSH2 0x1A5A ADD MSTORE PUSH2 0x1C9B ADD MSTORE PUSH2 0x2E23 PUSH1 0x0 RETURN INVALID PUSH1 0x80 PUSH1 0x40 MSTORE CALLVALUE DUP1 ISZERO PUSH2 0x10 JUMPI PUSH1 0x0 DUP1 REVERT JUMPDEST POP PUSH1 0x4 CALLDATASIZE LT PUSH2 0x377 JUMPI PUSH1 0x0 CALLDATALOAD PUSH1 0xE0 SHR DUP1 PUSH4 0x7B0A47EE GT PUSH2 0x1D3 JUMPI DUP1 PUSH4 0xC8E3D18B GT PUSH2 0x104 JUMPI DUP1 PUSH4 0xE7198474 GT PUSH2 0xA2 JUMPI DUP1 PUSH4 0xF2FDE38B GT PUSH2 0x7C JUMPI DUP1 PUSH4 0xF2FDE38B EQ PUSH2 0x754 JUMPI DUP1 PUSH4 0xF3FEF3A3 EQ PUSH2 0x767 JUMPI DUP1 PUSH4 0xFFBD3B1F EQ PUSH2 0x77A JUMPI DUP1 PUSH4 0xFFBE9F1E EQ PUSH2 0x509 JUMPI PUSH1 0x0 DUP1 REVERT JUMPDEST DUP1 PUSH4 0xE7198474 EQ PUSH2 0x6DF JUMPI DUP1 PUSH4 0xE7A03679 EQ PUSH2 0x706 JUMPI DUP1 PUSH4 0xF1068454 EQ PUSH2 0x72D JUMPI PUSH1 0x0 DUP1 REVERT JUMPDEST DUP1 PUSH4 0xD62E969D GT PUSH2 0xDE JUMPI DUP1 PUSH4 0xD62E969D EQ PUSH2 0x681 JUMPI DUP1 PUSH4 0xD7CB416F EQ PUSH2 0x6A8 JUMPI DUP1 PUSH4 0xDB4B7EEE EQ PUSH2 0x6BB JUMPI DUP1 PUSH4 0xDCE52DFA EQ PUSH2 0x6D6 JUMPI PUSH1 0x0 DUP1 REVERT JUMPDEST DUP1 PUSH4 0xC8E3D18B EQ PUSH2 0x653 JUMPI DUP1 PUSH4 0xCFAD57A2 EQ PUSH2 0x666 JUMPI DUP1 PUSH4 0xD389800F EQ PUSH2 0x679 JUMPI PUSH1 0x0 DUP1 REVERT JUMPDEST DUP1 PUSH4 0x8DA5CB5B GT PUSH2 0x171 JUMPI DUP1 PUSH4 0x9872317F GT PUSH2 0x14B JUMPI DUP1 PUSH4 0x9872317F EQ PUSH2 0x609 JUMPI DUP1 PUSH4 0xB02381C6 EQ PUSH2 0x624 JUMPI DUP1 PUSH4 0xB74CD242 EQ PUSH2 0x637 JUMPI DUP1 PUSH4 0xB77050E7 EQ PUSH2 0x640 JUMPI PUSH1 0x0 DUP1 REVERT JUMPDEST DUP1 PUSH4 0x8DA5CB5B EQ PUSH2 0x5DC JUMPI DUP1 PUSH4 0x8FEFDA06 EQ PUSH2 0x5ED JUMPI DUP1 PUSH4 0x96E9AFF8 EQ PUSH2 0x5F6 JUMPI PUSH1 0x0 DUP1 REVERT JUMPDEST DUP1 PUSH4 0x85F02DD6 GT PUSH2 0x1AD JUMPI DUP1 PUSH4 0x85F02DD6 EQ PUSH2 0x59C JUMPI DUP1 PUSH4 0x866B2018 EQ PUSH2 0x5A5 JUMPI DUP1 PUSH4 0x8811DAD0 EQ PUSH2 0x5AE JUMPI DUP1 PUSH4 0x8CF57CB9 EQ PUSH2 0x5C1 JUMPI PUSH1 0x0 DUP1 REVERT JUMPDEST DUP1 PUSH4 0x7B0A47EE EQ PUSH2 0x573 JUMPI DUP1 PUSH4 0x7FF36FBE EQ PUSH2 0x57C JUMPI DUP1 PUSH4 0x8456CB59 EQ PUSH2 0x594 JUMPI PUSH1 0x0 DUP1 REVERT JUMPDEST DUP1 PUSH4 0x46008A07 GT PUSH2 0x2AD JUMPI DUP1 PUSH4 0x67057B6C GT PUSH2 0x24B JUMPI DUP1 PUSH4 0x7115E9FA GT PUSH2 0x225 JUMPI DUP1 PUSH4 0x7115E9FA EQ PUSH2 0x52E JUMPI DUP1 PUSH4 0x715018A6 EQ PUSH2 0x562 JUMPI DUP1 PUSH4 0x783478AD EQ PUSH2 0x56A JUMPI DUP1 PUSH4 0x784DEF8C EQ PUSH2 0x475 JUMPI PUSH1 0x0 DUP1 REVERT JUMPDEST DUP1 PUSH4 0x67057B6C EQ PUSH2 0x509 JUMPI DUP1 PUSH4 0x68F54162 EQ PUSH2 0x512 JUMPI DUP1 PUSH4 0x693A090B EQ PUSH2 0x51B JUMPI PUSH1 0x0 DUP1 REVERT JUMPDEST DUP1 PUSH4 0x49281683 GT PUSH2 0x287 JUMPI DUP1 PUSH4 0x49281683 EQ PUSH2 0x4CF JUMPI DUP1 PUSH4 0x50E15FDD EQ PUSH2 0x4E2 JUMPI DUP1 PUSH4 0x5C975ABB EQ PUSH2 0x4EB JUMPI DUP1 PUSH4 0x65A5E30B EQ PUSH2 0x501 JUMPI PUSH1 0x0 DUP1 REVERT JUMPDEST DUP1 PUSH4 0x46008A07 EQ PUSH2 0x4A1 JUMPI DUP1 PUSH4 0x4700D305 EQ PUSH2 0x4B4 JUMPI DUP1 PUSH4 0x47E7EF24 EQ PUSH2 0x4BC JUMPI PUSH1 0x0 DUP1 REVERT JUMPDEST DUP1 PUSH4 0x3220D732 GT PUSH2 0x31A JUMPI DUP1 PUSH4 0x40C34B58 GT PUSH2 0x2F4 JUMPI DUP1 PUSH4 0x40C34B58 EQ PUSH2 0x44E JUMPI DUP1 PUSH4 0x41275358 EQ PUSH2 0x475 JUMPI DUP1 PUSH4 0x42DA4EB3 EQ PUSH2 0x490 JUMPI DUP1 PUSH4 0x44A3955E EQ PUSH2 0x498 JUMPI PUSH1 0x0 DUP1 REVERT JUMPDEST DUP1 PUSH4 0x3220D732 EQ PUSH2 0x415 JUMPI DUP1 PUSH4 0x3505B09F EQ PUSH2 0x43C JUMPI DUP1 PUSH4 0x3F4BA83A EQ PUSH2 0x446 JUMPI PUSH1 0x0 DUP1 REVERT JUMPDEST DUP1 PUSH4 0xFA4E01E GT PUSH2 0x356 JUMPI DUP1 PUSH4 0xFA4E01E EQ PUSH2 0x3DD JUMPI DUP1 PUSH4 0x178A8D07 EQ PUSH2 0x3E6 JUMPI DUP1 PUSH4 0x260AB48C EQ PUSH2 0x3EF JUMPI DUP1 PUSH4 0x30F6CF63 EQ PUSH2 0x402 JUMPI PUSH1 0x0 DUP1 REVERT JUMPDEST DUP1 PUSH3 0x7A2AE3 EQ PUSH2 0x37C JUMPI DUP1 PUSH4 0x2D45457 EQ PUSH2 0x3AC JUMPI DUP1 PUSH4 0x4C9D490 EQ PUSH2 0x3C7 JUMPI JUMPDEST PUSH1 0x0 DUP1 REVERT JUMPDEST PUSH2 0x38F PUSH2 0x38A CALLDATASIZE PUSH1 0x4 PUSH2 0x2A62 JUMP JUMPDEST PUSH2 0x783 JUMP JUMPDEST PUSH1 0x40 MLOAD PUSH1 0x1 PUSH1 0x1 PUSH1 0xA0 SHL SUB SWAP1 SWAP2 AND DUP2 MSTORE PUSH1 0x20 ADD JUMPDEST PUSH1 0x40 MLOAD DUP1 SWAP2 SUB SWAP1 RETURN JUMPDEST PUSH2 0x38F PUSH20 0x2791BCA1F2DE4661ED88A30C99A7A9449AA84174 DUP2 JUMP JUMPDEST PUSH2 0x3CF PUSH2 0x7AD JUMP JUMPDEST PUSH1 0x40 MLOAD SWAP1 DUP2 MSTORE PUSH1 0x20 ADD PUSH2 0x3A3 JUMP JUMPDEST PUSH2 0x3CF PUSH1 0x6 SLOAD DUP2 JUMP JUMPDEST PUSH2 0x3CF PUSH1 0xA SLOAD DUP2 JUMP JUMPDEST PUSH2 0x38F PUSH2 0x3FD CALLDATASIZE PUSH1 0x4 PUSH2 0x2A62 JUMP JUMPDEST PUSH2 0x875 JUMP JUMPDEST PUSH2 0x38F PUSH2 0x410 CALLDATASIZE PUSH1 0x4 PUSH2 0x2A62 JUMP JUMPDEST PUSH2 0x885 JUMP JUMPDEST PUSH2 0x38F PUSH32 0x0 DUP2 JUMP JUMPDEST PUSH2 0x444 PUSH2 0x895 JUMP JUMPDEST STOP JUMPDEST PUSH2 0x444 PUSH2 0x8D2 JUMP JUMPDEST PUSH2 0x38F PUSH32 0x0 DUP2 JUMP JUMPDEST PUSH2 0x38F PUSH20 0x5386881B46C37CDD30A748F7771CF95D7B213637 DUP2 JUMP JUMPDEST PUSH2 0x3CF PUSH2 0x904 JUMP JUMPDEST PUSH2 0x3CF PUSH1 0x7 SLOAD DUP2 JUMP JUMPDEST PUSH1 0x5 SLOAD PUSH2 0x38F SWAP1 PUSH1 0x1 PUSH1 0x1 PUSH1 0xA0 SHL SUB AND DUP2 JUMP JUMPDEST PUSH2 0x444 PUSH2 0x9B4 JUMP JUMPDEST PUSH2 0x3CF PUSH2 0x4CA CALLDATASIZE PUSH1 0x4 PUSH2 0x2951 JUMP JUMPDEST PUSH2 0x9EE JUMP JUMPDEST PUSH2 0x38F PUSH2 0x4DD CALLDATASIZE PUSH1 0x4 PUSH2 0x2A62 JUMP JUMPDEST PUSH2 0xAFF JUMP JUMPDEST PUSH2 0x3CF PUSH1 0xE SLOAD DUP2 JUMP JUMPDEST PUSH1 0x2 SLOAD PUSH1 0xFF AND PUSH1 0x40 MLOAD SWAP1 ISZERO ISZERO DUP2 MSTORE PUSH1 0x20 ADD PUSH2 0x3A3 JUMP JUMPDEST PUSH2 0x444 PUSH2 0xB0F JUMP JUMPDEST PUSH2 0x3CF PUSH2 0x2710 DUP2 JUMP JUMPDEST PUSH2 0x3CF PUSH1 0xB SLOAD DUP2 JUMP JUMPDEST PUSH1 0x4 SLOAD PUSH2 0x38F SWAP1 PUSH1 0x1 PUSH1 0x1 PUSH1 0xA0 SHL SUB AND DUP2 JUMP JUMPDEST PUSH2 0x555 PUSH32 0x0 DUP2 JUMP JUMPDEST PUSH1 0x40 MLOAD PUSH2 0x3A3 SWAP2 SWAP1 PUSH2 0x2B74 JUMP JUMPDEST PUSH2 0x444 PUSH2 0xB4C JUMP JUMPDEST PUSH2 0x38F PUSH2 0xDEAD DUP2 JUMP JUMPDEST PUSH2 0x3CF PUSH1 0x9 SLOAD DUP2 JUMP JUMPDEST PUSH1 0x2 SLOAD PUSH2 0x38F SWAP1 PUSH2 0x100 SWAP1 DIV PUSH1 0x1 PUSH1 0x1 PUSH1 0xA0 SHL SUB AND DUP2 JUMP JUMPDEST PUSH2 0x444 PUSH2 0xB80 JUMP JUMPDEST PUSH2 0x3CF PUSH1 0x8 SLOAD DUP2 JUMP JUMPDEST PUSH2 0x3CF PUSH2 0x26AC DUP2 JUMP JUMPDEST PUSH2 0x38F PUSH2 0x5BC CALLDATASIZE PUSH1 0x4 PUSH2 0x2A62 JUMP JUMPDEST PUSH2 0xBB2 JUMP JUMPDEST PUSH2 0x38F PUSH20 0x917FB15E8AAA12264DCBDC15AFEF7CD3CE76BA39 DUP2 JUMP JUMPDEST PUSH1 0x0 SLOAD PUSH1 0x1 PUSH1 0x1 PUSH1 0xA0 SHL SUB AND PUSH2 0x38F JUMP JUMPDEST PUSH2 0x3CF PUSH2 0x3E8 DUP2 JUMP JUMPDEST PUSH2 0x38F PUSH2 0x604 CALLDATASIZE PUSH1 0x4 PUSH2 0x2A62 JUMP JUMPDEST PUSH2 0xBC2 JUMP JUMPDEST PUSH2 0x38F PUSH20 0x76BF0C28E604CC3FE9967C83B3C3F31C213CFE64 DUP2 JUMP JUMPDEST PUSH2 0x444 PUSH2 0x632 CALLDATASIZE PUSH1 0x4 PUSH2 0x2AB8 JUMP JUMPDEST PUSH2 0xBD2 JUMP JUMPDEST PUSH2 0x3CF PUSH2 0x3E3 DUP2 JUMP JUMPDEST PUSH2 0x38F PUSH2 0x64E CALLDATASIZE PUSH1 0x4 PUSH2 0x2A62 JUMP JUMPDEST PUSH2 0xDEC JUMP JUMPDEST PUSH2 0x38F PUSH2 0x661 CALLDATASIZE PUSH1 0x4 PUSH2 0x2A62 JUMP JUMPDEST PUSH2 0xDFC JUMP JUMPDEST PUSH2 0x444 PUSH2 0x674 CALLDATASIZE PUSH1 0x4 PUSH2 0x2936 JUMP JUMPDEST PUSH2 0xE0C JUMP JUMPDEST PUSH2 0x444 PUSH2 0xE58 JUMP JUMPDEST PUSH2 0x38F PUSH32 0x0 DUP2 JUMP JUMPDEST PUSH1 0x3 SLOAD PUSH2 0x38F SWAP1 PUSH1 0x1 PUSH1 0x1 PUSH1 0xA0 SHL SUB AND DUP2 JUMP JUMPDEST PUSH2 0x38F PUSH20 0xD500B1D8E8EF31E21C99D1DB9A6444D3ADF1270 DUP2 JUMP JUMPDEST PUSH2 0x3CF PUSH1 0xD SLOAD DUP2 JUMP JUMPDEST PUSH2 0x38F PUSH32 0x0 DUP2 JUMP JUMPDEST PUSH2 0x38F PUSH32 0x0 DUP2 JUMP JUMPDEST PUSH2 0x3CF PUSH32 0x0 DUP2 JUMP JUMPDEST PUSH2 0x444 PUSH2 0x762 CALLDATASIZE PUSH1 0x4 PUSH2 0x2936 JUMP JUMPDEST PUSH2 0x105C JUMP JUMPDEST PUSH2 0x3CF PUSH2 0x775 CALLDATASIZE PUSH1 0x4 PUSH2 0x2951 JUMP JUMPDEST PUSH2 0x10F4 JUMP JUMPDEST PUSH2 0x3CF PUSH1 0xC SLOAD DUP2 JUMP JUMPDEST PUSH1 0x15 DUP2 DUP2 SLOAD DUP2 LT PUSH2 0x793 JUMPI PUSH1 0x0 DUP1 REVERT JUMPDEST PUSH1 0x0 SWAP2 DUP3 MSTORE PUSH1 0x20 SWAP1 SWAP2 KECCAK256 ADD SLOAD PUSH1 0x1 PUSH1 0x1 PUSH1 0xA0 SHL SUB AND SWAP1 POP DUP2 JUMP JUMPDEST PUSH1 0x40 MLOAD PUSH4 0x93F1A40B PUSH1 0xE0 SHL DUP2 MSTORE PUSH32 0x0 PUSH1 0x4 DUP3 ADD MSTORE ADDRESS PUSH1 0x24 DUP3 ADD MSTORE PUSH1 0x0 SWAP1 DUP2 SWAP1 PUSH1 0x1 PUSH1 0x1 PUSH1 0xA0 SHL SUB PUSH32 0x0 AND SWAP1 PUSH4 0x93F1A40B SWAP1 PUSH1 0x44 ADD PUSH1 0x40 DUP1 MLOAD DUP1 DUP4 SUB DUP2 DUP7 DUP1 EXTCODESIZE ISZERO DUP1 ISZERO PUSH2 0x836 JUMPI PUSH1 0x0 DUP1 REVERT JUMPDEST POP GAS STATICCALL ISZERO DUP1 ISZERO PUSH2 0x84A JUMPI RETURNDATASIZE PUSH1 0x0 DUP1 RETURNDATACOPY RETURNDATASIZE PUSH1 0x0 REVERT JUMPDEST POP POP POP POP PUSH1 0x40 MLOAD RETURNDATASIZE PUSH1 0x1F NOT PUSH1 0x1F DUP3 ADD AND DUP3 ADD DUP1 PUSH1 0x40 MSTORE POP DUP2 ADD SWAP1 PUSH2 0x86E SWAP2 SWAP1 PUSH2 0x2A94 JUMP JUMPDEST POP SWAP3 SWAP2 POP POP JUMP JUMPDEST PUSH1 0xF DUP2 DUP2 SLOAD DUP2 LT PUSH2 0x793 JUMPI PUSH1 0x0 DUP1 REVERT JUMPDEST PUSH1 0x16 DUP2 DUP2 SLOAD DUP2 LT PUSH2 0x793 JUMPI PUSH1 0x0 DUP1 REVERT JUMPDEST PUSH1 0x5 SLOAD PUSH1 0x1 PUSH1 0x1 PUSH1 0xA0 SHL SUB AND CALLER EQ PUSH2 0x8C8 JUMPI PUSH1 0x40 MLOAD PUSH3 0x461BCD PUSH1 0xE5 SHL DUP2 MSTORE PUSH1 0x4 ADD PUSH2 0x8BF SWAP1 PUSH2 0x2BCF JUMP JUMPDEST PUSH1 0x40 MLOAD DUP1 SWAP2 SUB SWAP1 REVERT JUMPDEST PUSH2 0x8D0 PUSH2 0x1A55 JUMP JUMPDEST JUMP JUMPDEST PUSH1 0x5 SLOAD PUSH1 0x1 PUSH1 0x1 PUSH1 0xA0 SHL SUB AND CALLER EQ PUSH2 0x8FC JUMPI PUSH1 0x40 MLOAD PUSH3 0x461BCD PUSH1 0xE5 SHL DUP2 MSTORE PUSH1 0x4 ADD PUSH2 0x8BF SWAP1 PUSH2 0x2BCF JUMP JUMPDEST PUSH2 0x8C8 PUSH2 0x1AC0 JUMP JUMPDEST PUSH1 0x0 PUSH2 0x90E PUSH2 0x7AD JUMP JUMPDEST PUSH1 0x40 MLOAD PUSH4 0x70A08231 PUSH1 0xE0 SHL DUP2 MSTORE ADDRESS PUSH1 0x4 DUP3 ADD MSTORE PUSH32 0x0 PUSH1 0x1 PUSH1 0x1 PUSH1 0xA0 SHL SUB AND SWAP1 PUSH4 0x70A08231 SWAP1 PUSH1 0x24 ADD PUSH1 0x20 PUSH1 0x40 MLOAD DUP1 DUP4 SUB DUP2 DUP7 DUP1 EXTCODESIZE ISZERO DUP1 ISZERO PUSH2 0x96D JUMPI PUSH1 0x0 DUP1 REVERT JUMPDEST POP GAS STATICCALL ISZERO DUP1 ISZERO PUSH2 0x981 JUMPI RETURNDATASIZE PUSH1 0x0 DUP1 RETURNDATACOPY RETURNDATASIZE PUSH1 0x0 REVERT JUMPDEST POP POP POP POP PUSH1 0x40 MLOAD RETURNDATASIZE PUSH1 0x1F NOT PUSH1 0x1F DUP3 ADD AND DUP3 ADD DUP1 PUSH1 0x40 MSTORE POP DUP2 ADD SWAP1 PUSH2 0x9A5 SWAP2 SWAP1 PUSH2 0x2A7B JUMP JUMPDEST PUSH2 0x9AF SWAP2 SWAP1 PUSH2 0x2CD8 JUMP JUMPDEST SWAP1 POP SWAP1 JUMP JUMPDEST PUSH1 0x5 SLOAD PUSH1 0x1 PUSH1 0x1 PUSH1 0xA0 SHL SUB AND CALLER EQ PUSH2 0x9DE JUMPI PUSH1 0x40 MLOAD PUSH3 0x461BCD PUSH1 0xE5 SHL DUP2 MSTORE PUSH1 0x4 ADD PUSH2 0x8BF SWAP1 PUSH2 0x2BCF JUMP JUMPDEST PUSH2 0x9E6 PUSH2 0x1B53 JUMP JUMPDEST PUSH2 0x8D0 PUSH2 0x1BAB JUMP JUMPDEST PUSH1 0x0 DUP1 SLOAD PUSH1 0x1 PUSH1 0x1 PUSH1 0xA0 SHL SUB AND CALLER EQ PUSH2 0xA19 JUMPI PUSH1 0x40 MLOAD PUSH3 0x461BCD PUSH1 0xE5 SHL DUP2 MSTORE PUSH1 0x4 ADD PUSH2 0x8BF SWAP1 PUSH2 0x2C17 JUMP JUMPDEST PUSH1 0x2 PUSH1 0x1 SLOAD EQ ISZERO PUSH2 0xA3C JUMPI PUSH1 0x40 MLOAD PUSH3 0x461BCD PUSH1 0xE5 SHL DUP2 MSTORE PUSH1 0x4 ADD PUSH2 0x8BF SWAP1 PUSH2 0x2C4C JUMP JUMPDEST PUSH1 0x2 PUSH1 0x1 SSTORE PUSH2 0xA4D PUSH1 0x2 SLOAD PUSH1 0xFF AND SWAP1 JUMP JUMPDEST ISZERO PUSH2 0xA6A JUMPI PUSH1 0x40 MLOAD PUSH3 0x461BCD PUSH1 0xE5 SHL DUP2 MSTORE PUSH1 0x4 ADD PUSH2 0x8BF SWAP1 PUSH2 0x2BED JUMP JUMPDEST PUSH1 0x0 PUSH2 0xA74 PUSH2 0x904 JUMP JUMPDEST SWAP1 POP PUSH2 0xAAB PUSH1 0x1 PUSH1 0x1 PUSH1 0xA0 SHL SUB PUSH32 0x0 AND CALLER ADDRESS DUP7 PUSH2 0x1C41 JUMP JUMPDEST PUSH1 0x0 PUSH2 0xAB5 PUSH2 0x1C79 JUMP JUMPDEST PUSH1 0x7 SLOAD SWAP1 SWAP2 POP ISZERO PUSH2 0xADC JUMPI DUP2 PUSH1 0x7 SLOAD DUP3 PUSH2 0xACF SWAP2 SWAP1 PUSH2 0x2D04 JUMP JUMPDEST PUSH2 0xAD9 SWAP2 SWAP1 PUSH2 0x2CF0 JUMP JUMPDEST SWAP1 POP JUMPDEST DUP1 PUSH1 0x7 PUSH1 0x0 DUP3 DUP3 SLOAD PUSH2 0xAEE SWAP2 SWAP1 PUSH2 0x2CD8 JUMP JUMPDEST SWAP1 SWAP2 SSTORE POP POP PUSH1 0x1 DUP1 SSTORE SWAP5 SWAP4 POP POP POP POP JUMP JUMPDEST PUSH1 0x10 DUP2 DUP2 SLOAD DUP2 LT PUSH2 0x793 JUMPI PUSH1 0x0 DUP1 REVERT JUMPDEST PUSH1 0x5 SLOAD PUSH1 0x1 PUSH1 0x1 PUSH1 0xA0 SHL SUB AND CALLER EQ PUSH2 0xB39 JUMPI PUSH1 0x40 MLOAD PUSH3 0x461BCD PUSH1 0xE5 SHL DUP2 MSTORE PUSH1 0x4 ADD PUSH2 0x8BF SWAP1 PUSH2 0x2BCF JUMP JUMPDEST PUSH2 0xB41 PUSH2 0x1AC0 JUMP JUMPDEST PUSH2 0xB49 PUSH2 0x1C79 JUMP JUMPDEST POP JUMP JUMPDEST PUSH1 0x0 SLOAD PUSH1 0x1 PUSH1 0x1 PUSH1 0xA0 SHL SUB AND CALLER EQ PUSH2 0xB76 JUMPI PUSH1 0x40 MLOAD PUSH3 0x461BCD PUSH1 0xE5 SHL DUP2 MSTORE PUSH1 0x4 ADD PUSH2 0x8BF SWAP1 PUSH2 0x2C17 JUMP JUMPDEST PUSH2 0x8D0 PUSH1 0x0 PUSH2 0x1D57 JUMP JUMPDEST PUSH1 0x5 SLOAD PUSH1 0x1 PUSH1 0x1 PUSH1 0xA0 SHL SUB AND CALLER EQ PUSH2 0xBAA JUMPI PUSH1 0x40 MLOAD PUSH3 0x461BCD PUSH1 0xE5 SHL DUP2 MSTORE PUSH1 0x4 ADD PUSH2 0x8BF SWAP1 PUSH2 0x2BCF JUMP JUMPDEST PUSH2 0x8D0 PUSH2 0x1B53 JUMP JUMPDEST PUSH1 0x11 DUP2 DUP2 SLOAD DUP2 LT PUSH2 0x793 JUMPI PUSH1 0x0 DUP1 REVERT JUMPDEST PUSH1 0x13 DUP2 DUP2 SLOAD DUP2 LT PUSH2 0x793 JUMPI PUSH1 0x0 DUP1 REVERT JUMPDEST PUSH1 0x5 SLOAD PUSH1 0x1 PUSH1 0x1 PUSH1 0xA0 SHL SUB AND CALLER EQ PUSH2 0xBFC JUMPI PUSH1 0x40 MLOAD PUSH3 0x461BCD PUSH1 0xE5 SHL DUP2 MSTORE PUSH1 0x4 ADD PUSH2 0x8BF SWAP1 PUSH2 0x2BCF JUMP JUMPDEST PUSH2 0x3E8 DUP6 PUSH2 0xC0A DUP9 DUP11 PUSH2 0x2CD8 JUMP JUMPDEST PUSH2 0xC14 SWAP2 SWAP1 PUSH2 0x2CD8 JUMP JUMPDEST GT ISZERO PUSH2 0xC53 JUMPI PUSH1 0x40 MLOAD PUSH3 0x461BCD PUSH1 0xE5 SHL DUP2 MSTORE PUSH1 0x20 PUSH1 0x4 DUP3 ADD MSTORE PUSH1 0xE PUSH1 0x24 DUP3 ADD MSTORE PUSH14 0x4D617820666565206F6620313025 PUSH1 0x90 SHL PUSH1 0x44 DUP3 ADD MSTORE PUSH1 0x64 ADD PUSH2 0x8BF JUMP JUMPDEST PUSH2 0x26AC DUP5 LT ISZERO PUSH2 0xCA5 JUMPI PUSH1 0x40 MLOAD PUSH3 0x461BCD PUSH1 0xE5 SHL DUP2 MSTORE PUSH1 0x20 PUSH1 0x4 DUP3 ADD MSTORE PUSH1 0x1A PUSH1 0x24 DUP3 ADD MSTORE PUSH32 0x5F7769746864726177466565466163746F7220746F6F206C6F77000000000000 PUSH1 0x44 DUP3 ADD MSTORE PUSH1 0x64 ADD PUSH2 0x8BF JUMP JUMPDEST PUSH2 0x2710 DUP5 GT ISZERO PUSH2 0xCF7 JUMPI PUSH1 0x40 MLOAD PUSH3 0x461BCD PUSH1 0xE5 SHL DUP2 MSTORE PUSH1 0x20 PUSH1 0x4 DUP3 ADD MSTORE PUSH1 0x1B PUSH1 0x24 DUP3 ADD MSTORE PUSH32 0x5F7769746864726177466565466163746F7220746F6F20686967680000000000 PUSH1 0x44 DUP3 ADD MSTORE PUSH1 0x64 ADD PUSH2 0x8BF JUMP JUMPDEST PUSH2 0x3E3 DUP4 GT ISZERO PUSH2 0xD49 JUMPI PUSH1 0x40 MLOAD PUSH3 0x461BCD PUSH1 0xE5 SHL DUP2 MSTORE PUSH1 0x20 PUSH1 0x4 DUP3 ADD MSTORE PUSH1 0x18 PUSH1 0x24 DUP3 ADD MSTORE PUSH32 0x5F736C697070616765466163746F7220746F6F20686967680000000000000000 PUSH1 0x44 DUP3 ADD MSTORE PUSH1 0x64 ADD PUSH2 0x8BF JUMP JUMPDEST PUSH1 0x8 DUP8 SWAP1 SSTORE PUSH1 0x9 DUP7 SWAP1 SSTORE PUSH1 0xA DUP6 SWAP1 SSTORE PUSH1 0xB DUP5 SWAP1 SSTORE PUSH1 0xC DUP4 SWAP1 SSTORE PUSH1 0xD DUP3 SWAP1 SSTORE PUSH1 0x4 DUP1 SLOAD PUSH1 0x1 PUSH1 0x1 PUSH1 0xA0 SHL SUB NOT AND PUSH1 0x1 PUSH1 0x1 PUSH1 0xA0 SHL SUB DUP4 AND SWAP1 DUP2 OR SWAP1 SWAP2 SSTORE PUSH1 0x40 DUP1 MLOAD DUP10 DUP2 MSTORE PUSH1 0x20 DUP2 ADD DUP10 SWAP1 MSTORE SWAP1 DUP2 ADD DUP8 SWAP1 MSTORE PUSH1 0x60 DUP2 ADD DUP7 SWAP1 MSTORE PUSH1 0x80 DUP2 ADD DUP6 SWAP1 MSTORE PUSH1 0xA0 DUP2 ADD DUP5 SWAP1 MSTORE PUSH1 0xC0 DUP2 ADD SWAP2 SWAP1 SWAP2 MSTORE PUSH32 0x813767A04E11DFAB70A5EC48C4FD7C344AB48E62196586790931DC9DFAED97E9 SWAP1 PUSH1 0xE0 ADD PUSH1 0x40 MLOAD DUP1 SWAP2 SUB SWAP1 LOG1 POP POP POP POP POP POP POP JUMP JUMPDEST PUSH1 0x14 DUP2 DUP2 SLOAD DUP2 LT PUSH2 0x793 JUMPI PUSH1 0x0 DUP1 REVERT JUMPDEST PUSH1 0x12 DUP2 DUP2 SLOAD DUP2 LT PUSH2 0x793 JUMPI PUSH1 0x0 DUP1 REVERT JUMPDEST PUSH1 0x5 SLOAD PUSH1 0x1 PUSH1 0x1 PUSH1 0xA0 SHL SUB AND CALLER EQ PUSH2 0xE36 JUMPI PUSH1 0x40 MLOAD PUSH3 0x461BCD PUSH1 0xE5 SHL DUP2 MSTORE PUSH1 0x4 ADD PUSH2 0x8BF SWAP1 PUSH2 0x2BCF JUMP JUMPDEST PUSH1 0x5 DUP1 SLOAD PUSH1 0x1 PUSH1 0x1 PUSH1 0xA0 SHL SUB NOT AND PUSH1 0x1 PUSH1 0x1 PUSH1 0xA0 SHL SUB SWAP3 SWAP1 SWAP3 AND SWAP2 SWAP1 SWAP2 OR SWAP1 SSTORE JUMP JUMPDEST PUSH1 0x2 PUSH1 0x1 SLOAD EQ ISZERO PUSH2 0xE7B JUMPI PUSH1 0x40 MLOAD PUSH3 0x461BCD PUSH1 0xE5 SHL DUP2 MSTORE PUSH1 0x4 ADD PUSH2 0x8BF SWAP1 PUSH2 0x2C4C JUMP JUMPDEST PUSH1 0x2 PUSH1 0x1 SSTORE PUSH2 0xE8C PUSH1 0x2 SLOAD PUSH1 0xFF AND SWAP1 JUMP JUMPDEST ISZERO PUSH2 0xEA9 JUMPI PUSH1 0x40 MLOAD PUSH3 0x461BCD PUSH1 0xE5 SHL DUP2 MSTORE PUSH1 0x4 ADD PUSH2 0x8BF SWAP1 PUSH2 0x2BED JUMP JUMPDEST PUSH1 0x0 SLOAD PUSH1 0x1 PUSH1 0x1 PUSH1 0xA0 SHL SUB AND CALLER EQ PUSH2 0xED3 JUMPI PUSH1 0x40 MLOAD PUSH3 0x461BCD PUSH1 0xE5 SHL DUP2 MSTORE PUSH1 0x4 ADD PUSH2 0x8BF SWAP1 PUSH2 0x2C17 JUMP JUMPDEST PUSH1 0x40 MLOAD PUSH4 0x70A08231 PUSH1 0xE0 SHL DUP2 MSTORE ADDRESS PUSH1 0x4 DUP3 ADD MSTORE PUSH1 0x0 SWAP1 PUSH32 0x0 PUSH1 0x1 PUSH1 0x1 PUSH1 0xA0 SHL SUB AND SWAP1 PUSH4 0x70A08231 SWAP1 PUSH1 0x24 ADD PUSH1 0x20 PUSH1 0x40 MLOAD DUP1 DUP4 SUB DUP2 DUP7 DUP1 EXTCODESIZE ISZERO DUP1 ISZERO PUSH2 0xF35 JUMPI PUSH1 0x0 DUP1 REVERT JUMPDEST POP GAS STATICCALL ISZERO DUP1 ISZERO PUSH2 0xF49 JUMPI RETURNDATASIZE PUSH1 0x0 DUP1 RETURNDATACOPY RETURNDATASIZE PUSH1 0x0 REVERT JUMPDEST POP POP POP POP PUSH1 0x40 MLOAD RETURNDATASIZE PUSH1 0x1F NOT PUSH1 0x1F DUP3 ADD AND DUP3 ADD DUP1 PUSH1 0x40 MSTORE POP DUP2 ADD SWAP1 PUSH2 0xF6D SWAP2 SWAP1 PUSH2 0x2A7B JUMP JUMPDEST SWAP1 POP PUSH2 0xF77 PUSH2 0x1DA7 JUMP JUMPDEST PUSH1 0x40 MLOAD PUSH4 0x70A08231 PUSH1 0xE0 SHL DUP2 MSTORE ADDRESS PUSH1 0x4 DUP3 ADD MSTORE PUSH1 0x0 SWAP1 DUP3 SWAP1 PUSH1 0x1 PUSH1 0x1 PUSH1 0xA0 SHL SUB PUSH32 0x0 AND SWAP1 PUSH4 0x70A08231 SWAP1 PUSH1 0x24 ADD PUSH1 0x20 PUSH1 0x40 MLOAD DUP1 DUP4 SUB DUP2 DUP7 DUP1 EXTCODESIZE ISZERO DUP1 ISZERO PUSH2 0xFDB JUMPI PUSH1 0x0 DUP1 REVERT JUMPDEST POP GAS STATICCALL ISZERO DUP1 ISZERO PUSH2 0xFEF JUMPI RETURNDATASIZE PUSH1 0x0 DUP1 RETURNDATACOPY RETURNDATASIZE PUSH1 0x0 REVERT JUMPDEST POP POP POP POP PUSH1 0x40 MLOAD RETURNDATASIZE PUSH1 0x1F NOT PUSH1 0x1F DUP3 ADD AND DUP3 ADD DUP1 PUSH1 0x40 MSTORE POP DUP2 ADD SWAP1 PUSH2 0x1013 SWAP2 SWAP1 PUSH2 0x2A7B JUMP JUMPDEST PUSH2 0x101D SWAP2 SWAP1 PUSH2 0x2D23 JUMP JUMPDEST SWAP1 POP DUP1 ISZERO PUSH2 0x1054 JUMPI PUSH2 0x102E DUP2 PUSH2 0x1E1A JUMP JUMPDEST SWAP1 POP PUSH2 0x1039 DUP2 PUSH2 0x1ECF JUMP JUMPDEST SWAP1 POP PUSH2 0x1044 DUP2 PUSH2 0x2113 JUMP JUMPDEST NUMBER PUSH1 0x6 SSTORE SWAP1 POP PUSH2 0x1052 PUSH2 0x1C79 JUMP JUMPDEST POP JUMPDEST POP POP PUSH1 0x1 DUP1 SSTORE JUMP JUMPDEST PUSH1 0x0 SLOAD PUSH1 0x1 PUSH1 0x1 PUSH1 0xA0 SHL SUB AND CALLER EQ PUSH2 0x1086 JUMPI PUSH1 0x40 MLOAD PUSH3 0x461BCD PUSH1 0xE5 SHL DUP2 MSTORE PUSH1 0x4 ADD PUSH2 0x8BF SWAP1 PUSH2 0x2C17 JUMP JUMPDEST PUSH1 0x1 PUSH1 0x1 PUSH1 0xA0 SHL SUB DUP2 AND PUSH2 0x10EB JUMPI PUSH1 0x40 MLOAD PUSH3 0x461BCD PUSH1 0xE5 SHL DUP2 MSTORE PUSH1 0x20 PUSH1 0x4 DUP3 ADD MSTORE PUSH1 0x26 PUSH1 0x24 DUP3 ADD MSTORE PUSH32 0x4F776E61626C653A206E6577206F776E657220697320746865207A65726F2061 PUSH1 0x44 DUP3 ADD MSTORE PUSH6 0x646472657373 PUSH1 0xD0 SHL PUSH1 0x64 DUP3 ADD MSTORE PUSH1 0x84 ADD PUSH2 0x8BF JUMP JUMPDEST PUSH2 0xB49 DUP2 PUSH2 0x1D57 JUMP JUMPDEST PUSH1 0x0 DUP1 SLOAD PUSH1 0x1 PUSH1 0x1 PUSH1 0xA0 SHL SUB AND CALLER EQ PUSH2 0x111F JUMPI PUSH1 0x40 MLOAD PUSH3 0x461BCD PUSH1 0xE5 SHL DUP2 MSTORE PUSH1 0x4 ADD PUSH2 0x8BF SWAP1 PUSH2 0x2C17 JUMP JUMPDEST PUSH1 0x2 PUSH1 0x1 SLOAD EQ ISZERO PUSH2 0x1142 JUMPI PUSH1 0x40 MLOAD PUSH3 0x461BCD PUSH1 0xE5 SHL DUP2 MSTORE PUSH1 0x4 ADD PUSH2 0x8BF SWAP1 PUSH2 0x2C4C JUMP JUMPDEST PUSH1 0x2 PUSH1 0x1 SSTORE DUP2 PUSH2 0x1184 JUMPI PUSH1 0x40 MLOAD PUSH3 0x461BCD PUSH1 0xE5 SHL DUP2 MSTORE PUSH1 0x20 PUSH1 0x4 DUP3 ADD MSTORE PUSH1 0xD PUSH1 0x24 DUP3 ADD MSTORE PUSH13 0x5F77616E74416D74206973203 PUSH1 0x9C SHL PUSH1 0x44 DUP3 ADD MSTORE PUSH1 0x64 ADD PUSH2 0x8BF JUMP JUMPDEST PUSH1 0x40 MLOAD PUSH4 0x70A08231 PUSH1 0xE0 SHL DUP2 MSTORE ADDRESS PUSH1 0x4 DUP3 ADD MSTORE PUSH1 0x0 SWAP1 PUSH32 0x0 PUSH1 0x1 PUSH1 0x1 PUSH1 0xA0 SHL SUB AND SWAP1 PUSH4 0x70A08231 SWAP1 PUSH1 0x24 ADD PUSH1 0x20 PUSH1 0x40 MLOAD DUP1 DUP4 SUB DUP2 DUP7 DUP1 EXTCODESIZE ISZERO DUP1 ISZERO PUSH2 0x11E6 JUMPI PUSH1 0x0 DUP1 REVERT JUMPDEST POP GAS STATICCALL ISZERO DUP1 ISZERO PUSH2 0x11FA JUMPI RETURNDATASIZE PUSH1 0x0 DUP1 RETURNDATACOPY RETURNDATASIZE PUSH1 0x0 REVERT JUMPDEST POP POP POP POP PUSH1 0x40 MLOAD RETURNDATASIZE PUSH1 0x1F NOT PUSH1 0x1F DUP3 ADD AND DUP3 ADD DUP1 PUSH1 0x40 MSTORE POP DUP2 ADD SWAP1 PUSH2 0x121E SWAP2 SWAP1 PUSH2 0x2A7B JUMP JUMPDEST SWAP1 POP DUP1 DUP4 GT ISZERO PUSH2 0x12D4 JUMPI PUSH2 0x123A PUSH2 0x1235 DUP3 DUP6 PUSH2 0x2D23 JUMP JUMPDEST PUSH2 0x21A4 JUMP JUMPDEST PUSH1 0x40 MLOAD PUSH4 0x70A08231 PUSH1 0xE0 SHL DUP2 MSTORE ADDRESS PUSH1 0x4 DUP3 ADD MSTORE PUSH32 0x0 PUSH1 0x1 PUSH1 0x1 PUSH1 0xA0 SHL SUB AND SWAP1 PUSH4 0x70A08231 SWAP1 PUSH1 0x24 ADD PUSH1 0x20 PUSH1 0x40 MLOAD DUP1 DUP4 SUB DUP2 DUP7 DUP1 EXTCODESIZE ISZERO DUP1 ISZERO PUSH2 0x1299 JUMPI PUSH1 0x0 DUP1 REVERT JUMPDEST POP GAS STATICCALL ISZERO DUP1 ISZERO PUSH2 0x12AD JUMPI RETURNDATASIZE PUSH1 0x0 DUP1 RETURNDATACOPY RETURNDATASIZE PUSH1 0x0 REVERT JUMPDEST POP POP POP POP PUSH1 0x40 MLOAD RETURNDATASIZE PUSH1 0x1F NOT PUSH1 0x1F DUP3 ADD AND DUP3 ADD DUP1 PUSH1 0x40 MSTORE POP DUP2 ADD SWAP1 PUSH2 0x12D1 SWAP2 SWAP1 PUSH2 0x2A7B JUMP JUMPDEST SWAP1 POP JUMPDEST DUP1 DUP4 GT ISZERO PUSH2 0x12E0 JUMPI DUP1 SWAP3 POP JUMPDEST PUSH2 0x12E8 PUSH2 0x904 JUMP JUMPDEST DUP4 GT ISZERO PUSH2 0x12FA JUMPI PUSH2 0x12F7 PUSH2 0x904 JUMP JUMPDEST SWAP3 POP JUMPDEST PUSH1 0x0 PUSH2 0x131A PUSH2 0x1307 PUSH2 0x904 JUMP JUMPDEST PUSH1 0x7 SLOAD PUSH2 0x1314 SWAP1 DUP8 PUSH2 0x2D04 JUMP JUMPDEST SWAP1 PUSH2 0x2248 JUMP JUMPDEST SWAP1 POP PUSH1 0x7 SLOAD DUP2 GT ISZERO PUSH2 0x132B JUMPI POP PUSH1 0x7 SLOAD JUMPDEST DUP1 PUSH1 0x7 PUSH1 0x0 DUP3 DUP3 SLOAD PUSH2 0x133D SWAP2 SWAP1 PUSH2 0x2D23 JUMP JUMPDEST SWAP1 SWAP2 SSTORE POP POP PUSH1 0xB SLOAD PUSH1 0x0 SWAP1 PUSH2 0x2710 SWAP1 PUSH2 0x1356 SWAP1 DUP3 PUSH2 0x2D23 JUMP JUMPDEST PUSH2 0x1360 SWAP1 DUP8 PUSH2 0x2D04 JUMP JUMPDEST PUSH2 0x136A SWAP2 SWAP1 PUSH2 0x2CF0 JUMP JUMPDEST SWAP1 POP DUP1 ISZERO PUSH2 0x13BA JUMPI PUSH2 0x13BA PUSH1 0x1 PUSH1 0x1 PUSH1 0xA0 SHL SUB PUSH32 0x0 AND PUSH20 0x5386881B46C37CDD30A748F7771CF95D7B213637 DUP4 PUSH2 0x227A JUMP JUMPDEST PUSH2 0x13C4 DUP2 DUP7 PUSH2 0x2D23 JUMP JUMPDEST SWAP5 POP PUSH2 0x141A PUSH1 0x1 PUSH1 0x1 PUSH1 0xA0 SHL SUB PUSH32 0x0 AND PUSH32 0x0 DUP8 PUSH2 0x227A JUMP JUMPDEST POP PUSH1 0x1 DUP1 SSTORE SWAP5 SWAP4 POP POP POP POP JUMP JUMPDEST PUSH1 0x60 PUSH1 0x1 PUSH1 0x1 PUSH1 0xA0 SHL SUB DUP4 AND PUSH20 0xD500B1D8E8EF31E21C99D1DB9A6444D3ADF1270 EQ ISZERO PUSH2 0x14BB JUMPI PUSH1 0x40 DUP1 MLOAD PUSH1 0x1 DUP1 DUP3 MSTORE DUP2 DUP4 ADD SWAP1 SWAP3 MSTORE SWAP1 PUSH1 0x20 DUP1 DUP4 ADD SWAP1 DUP1 CALLDATASIZE DUP4 CALLDATACOPY ADD SWAP1 POP POP SWAP1 POP PUSH20 0xD500B1D8E8EF31E21C99D1DB9A6444D3ADF1270 DUP2 PUSH1 0x0 DUP2 MLOAD DUP2 LT PUSH2 0x1496 JUMPI PUSH2 0x1496 PUSH2 0x2DC1 JUMP JUMPDEST PUSH1 0x20 MUL PUSH1 0x20 ADD ADD SWAP1 PUSH1 0x1 PUSH1 0x1 PUSH1 0xA0 SHL SUB AND SWAP1 DUP2 PUSH1 0x1 PUSH1 0x1 PUSH1 0xA0 SHL SUB AND DUP2 MSTORE POP POP PUSH2 0x1617 JUMP JUMPDEST PUSH1 0x1 PUSH1 0x1 PUSH1 0xA0 SHL SUB DUP3 AND PUSH2 0x1545 JUMPI PUSH1 0x40 DUP1 MLOAD PUSH1 0x2 DUP1 DUP3 MSTORE PUSH1 0x60 DUP3 ADD DUP4 MSTORE SWAP1 SWAP2 PUSH1 0x20 DUP4 ADD SWAP1 DUP1 CALLDATASIZE DUP4 CALLDATACOPY ADD SWAP1 POP POP SWAP1 POP DUP3 DUP2 PUSH1 0x0 DUP2 MLOAD DUP2 LT PUSH2 0x14FD JUMPI PUSH2 0x14FD PUSH2 0x2DC1 JUMP JUMPDEST PUSH1 0x20 MUL PUSH1 0x20 ADD ADD SWAP1 PUSH1 0x1 PUSH1 0x1 PUSH1 0xA0 SHL SUB AND SWAP1 DUP2 PUSH1 0x1 PUSH1 0x1 PUSH1 0xA0 SHL SUB AND DUP2 MSTORE POP POP PUSH20 0xD500B1D8E8EF31E21C99D1DB9A6444D3ADF1270 DUP2 PUSH1 0x1 DUP2 MLOAD DUP2 LT PUSH2 0x1496 JUMPI PUSH2 0x1496 PUSH2 0x2DC1 JUMP JUMPDEST PUSH1 0x40 DUP1 MLOAD PUSH1 0x3 DUP1 DUP3 MSTORE PUSH1 0x80 DUP3 ADD SWAP1 SWAP3 MSTORE SWAP1 PUSH1 0x20 DUP3 ADD PUSH1 0x60 DUP1 CALLDATASIZE DUP4 CALLDATACOPY ADD SWAP1 POP POP SWAP1 POP DUP3 DUP2 PUSH1 0x0 DUP2 MLOAD DUP2 LT PUSH2 0x157A JUMPI PUSH2 0x157A PUSH2 0x2DC1 JUMP JUMPDEST PUSH1 0x20 MUL PUSH1 0x20 ADD ADD SWAP1 PUSH1 0x1 PUSH1 0x1 PUSH1 0xA0 SHL SUB AND SWAP1 DUP2 PUSH1 0x1 PUSH1 0x1 PUSH1 0xA0 SHL SUB AND DUP2 MSTORE POP POP DUP2 DUP2 PUSH1 0x1 DUP2 MLOAD DUP2 LT PUSH2 0x15AE JUMPI PUSH2 0x15AE PUSH2 0x2DC1 JUMP JUMPDEST PUSH1 0x20 MUL PUSH1 0x20 ADD ADD SWAP1 PUSH1 0x1 PUSH1 0x1 PUSH1 0xA0 SHL SUB AND SWAP1 DUP2 PUSH1 0x1 PUSH1 0x1 PUSH1 0xA0 SHL SUB AND DUP2 MSTORE POP POP PUSH20 0xD500B1D8E8EF31E21C99D1DB9A6444D3ADF1270 DUP2 PUSH1 0x2 DUP2 MLOAD DUP2 LT PUSH2 0x15F6 JUMPI PUSH2 0x15F6 PUSH2 0x2DC1 JUMP JUMPDEST PUSH1 0x20 MUL PUSH1 0x20 ADD ADD SWAP1 PUSH1 0x1 PUSH1 0x1 PUSH1 0xA0 SHL SUB AND SWAP1 DUP2 PUSH1 0x1 PUSH1 0x1 PUSH1 0xA0 SHL SUB AND DUP2 MSTORE POP POP JUMPDEST SWAP3 SWAP2 POP POP JUMP JUMPDEST PUSH1 0x60 DUP2 PUSH1 0x1 PUSH1 0x1 PUSH1 0xA0 SHL SUB AND DUP4 PUSH1 0x0 DUP2 MLOAD DUP2 LT PUSH2 0x163C JUMPI PUSH2 0x163C PUSH2 0x2DC1 JUMP JUMPDEST PUSH1 0x20 MUL PUSH1 0x20 ADD ADD MLOAD PUSH1 0x1 PUSH1 0x1 PUSH1 0xA0 SHL SUB AND EQ ISZERO PUSH2 0x1687 JUMPI PUSH1 0x40 DUP1 MLOAD PUSH1 0x1 DUP1 DUP3 MSTORE DUP2 DUP4 ADD SWAP1 SWAP3 MSTORE SWAP1 PUSH1 0x20 DUP1 DUP4 ADD SWAP1 DUP1 CALLDATASIZE DUP4 CALLDATACOPY ADD SWAP1 POP POP SWAP1 POP DUP2 DUP2 PUSH1 0x0 DUP2 MLOAD DUP2 LT PUSH2 0x1496 JUMPI PUSH2 0x1496 PUSH2 0x2DC1 JUMP JUMPDEST PUSH20 0x2791BCA1F2DE4661ED88A30C99A7A9449AA84174 PUSH1 0x1 PUSH1 0x1 PUSH1 0xA0 SHL SUB AND DUP4 PUSH1 0x1 DUP2 MLOAD DUP2 LT PUSH2 0x16B8 JUMPI PUSH2 0x16B8 PUSH2 0x2DC1 JUMP JUMPDEST PUSH1 0x20 MUL PUSH1 0x20 ADD ADD MLOAD PUSH1 0x1 PUSH1 0x1 PUSH1 0xA0 SHL SUB AND EQ ISZERO PUSH2 0x1751 JUMPI PUSH1 0x40 DUP1 MLOAD PUSH1 0x2 DUP1 DUP3 MSTORE PUSH1 0x60 DUP3 ADD DUP4 MSTORE SWAP1 SWAP2 PUSH1 0x20 DUP4 ADD SWAP1 DUP1 CALLDATASIZE DUP4 CALLDATACOPY ADD SWAP1 POP POP SWAP1 POP DUP3 PUSH1 0x0 DUP2 MLOAD DUP2 LT PUSH2 0x1702 JUMPI PUSH2 0x1702 PUSH2 0x2DC1 JUMP JUMPDEST PUSH1 0x20 MUL PUSH1 0x20 ADD ADD MLOAD DUP2 PUSH1 0x0 DUP2 MLOAD DUP2 LT PUSH2 0x171D JUMPI PUSH2 0x171D PUSH2 0x2DC1 JUMP JUMPDEST PUSH1 0x20 MUL PUSH1 0x20 ADD ADD SWAP1 PUSH1 0x1 PUSH1 0x1 PUSH1 0xA0 SHL SUB AND SWAP1 DUP2 PUSH1 0x1 PUSH1 0x1 PUSH1 0xA0 SHL SUB AND DUP2 MSTORE POP POP DUP2 DUP2 PUSH1 0x1 DUP2 MLOAD DUP2 LT PUSH2 0x1496 JUMPI PUSH2 0x1496 PUSH2 0x2DC1 JUMP JUMPDEST DUP3 MLOAD PUSH2 0x175E SWAP1 PUSH1 0x1 PUSH2 0x2CD8 JUMP JUMPDEST PUSH8 0xFFFFFFFFFFFFFFFF DUP2 GT ISZERO PUSH2 0x1776 JUMPI PUSH2 0x1776 PUSH2 0x2DD7 JUMP JUMPDEST PUSH1 0x40 MLOAD SWAP1 DUP1 DUP3 MSTORE DUP1 PUSH1 0x20 MUL PUSH1 0x20 ADD DUP3 ADD PUSH1 0x40 MSTORE DUP1 ISZERO PUSH2 0x179F JUMPI DUP2 PUSH1 0x20 ADD PUSH1 0x20 DUP3 MUL DUP1 CALLDATASIZE DUP4 CALLDATACOPY ADD SWAP1 POP JUMPDEST POP SWAP1 POP PUSH1 0x0 JUMPDEST DUP4 MLOAD DUP2 LT ISZERO PUSH2 0x1804 JUMPI DUP4 DUP2 DUP2 MLOAD DUP2 LT PUSH2 0x17C0 JUMPI PUSH2 0x17C0 PUSH2 0x2DC1 JUMP JUMPDEST PUSH1 0x20 MUL PUSH1 0x20 ADD ADD MLOAD DUP3 DUP3 DUP2 MLOAD DUP2 LT PUSH2 0x17DA JUMPI PUSH2 0x17DA PUSH2 0x2DC1 JUMP JUMPDEST PUSH1 0x1 PUSH1 0x1 PUSH1 0xA0 SHL SUB SWAP1 SWAP3 AND PUSH1 0x20 SWAP3 DUP4 MUL SWAP2 SWAP1 SWAP2 ADD SWAP1 SWAP2 ADD MSTORE DUP1 PUSH2 0x17FC DUP2 PUSH2 0x2D66 JUMP JUMPDEST SWAP2 POP POP PUSH2 0x17A5 JUMP JUMPDEST POP DUP2 DUP2 DUP5 MLOAD DUP2 MLOAD DUP2 LT PUSH2 0x15F6 JUMPI PUSH2 0x15F6 PUSH2 0x2DC1 JUMP JUMPDEST DUP1 ISZERO DUP1 PUSH2 0x18A2 JUMPI POP PUSH1 0x40 MLOAD PUSH4 0x6EB1769F PUSH1 0xE1 SHL DUP2 MSTORE ADDRESS PUSH1 0x4 DUP3 ADD MSTORE PUSH1 0x1 PUSH1 0x1 PUSH1 0xA0 SHL SUB DUP4 DUP2 AND PUSH1 0x24 DUP4 ADD MSTORE DUP5 AND SWAP1 PUSH4 0xDD62ED3E SWAP1 PUSH1 0x44 ADD PUSH1 0x20 PUSH1 0x40 MLOAD DUP1 DUP4 SUB DUP2 DUP7 DUP1 EXTCODESIZE ISZERO DUP1 ISZERO PUSH2 0x1868 JUMPI PUSH1 0x0 DUP1 REVERT JUMPDEST POP GAS STATICCALL ISZERO DUP1 ISZERO PUSH2 0x187C JUMPI RETURNDATASIZE PUSH1 0x0 DUP1 RETURNDATACOPY RETURNDATASIZE PUSH1 0x0 REVERT JUMPDEST POP POP POP POP PUSH1 0x40 MLOAD RETURNDATASIZE PUSH1 0x1F NOT PUSH1 0x1F DUP3 ADD AND DUP3 ADD DUP1 PUSH1 0x40 MSTORE POP DUP2 ADD SWAP1 PUSH2 0x18A0 SWAP2 SWAP1 PUSH2 0x2A7B JUMP JUMPDEST ISZERO JUMPDEST PUSH2 0x190D JUMPI PUSH1 0x40 MLOAD PUSH3 0x461BCD PUSH1 0xE5 SHL DUP2 MSTORE PUSH1 0x20 PUSH1 0x4 DUP3 ADD MSTORE PUSH1 0x36 PUSH1 0x24 DUP3 ADD MSTORE PUSH32 0x5361666545524332303A20617070726F76652066726F6D206E6F6E2D7A65726F PUSH1 0x44 DUP3 ADD MSTORE PUSH22 0x20746F206E6F6E2D7A65726F20616C6C6F77616E6365 PUSH1 0x50 SHL PUSH1 0x64 DUP3 ADD MSTORE PUSH1 0x84 ADD PUSH2 0x8BF JUMP JUMPDEST PUSH1 0x40 MLOAD PUSH1 0x1 PUSH1 0x1 PUSH1 0xA0 SHL SUB DUP4 AND PUSH1 0x24 DUP3 ADD MSTORE PUSH1 0x44 DUP2 ADD DUP3 SWAP1 MSTORE PUSH2 0x1970 SWAP1 DUP5 SWAP1 PUSH4 0x95EA7B3 PUSH1 0xE0 SHL SWAP1 PUSH1 0x64 ADD JUMPDEST PUSH1 0x40 DUP1 MLOAD PUSH1 0x1F NOT DUP2 DUP5 SUB ADD DUP2 MSTORE SWAP2 SWAP1 MSTORE PUSH1 0x20 DUP2 ADD DUP1 MLOAD PUSH1 0x1 PUSH1 0x1 PUSH1 0xE0 SHL SUB AND PUSH1 0x1 PUSH1 0x1 PUSH1 0xE0 SHL SUB NOT SWAP1 SWAP4 AND SWAP3 SWAP1 SWAP3 OR SWAP1 SWAP2 MSTORE PUSH2 0x22AA JUMP JUMPDEST POP POP POP JUMP JUMPDEST PUSH1 0x40 MLOAD PUSH4 0x6EB1769F PUSH1 0xE1 SHL DUP2 MSTORE ADDRESS PUSH1 0x4 DUP3 ADD MSTORE PUSH1 0x1 PUSH1 0x1 PUSH1 0xA0 SHL SUB DUP4 DUP2 AND PUSH1 0x24 DUP4 ADD MSTORE PUSH1 0x0 SWAP2 DUP4 SWAP2 DUP7 AND SWAP1 PUSH4 0xDD62ED3E SWAP1 PUSH1 0x44 ADD PUSH1 0x20 PUSH1 0x40 MLOAD DUP1 DUP4 SUB DUP2 DUP7 DUP1 EXTCODESIZE ISZERO DUP1 ISZERO PUSH2 0x19C1 JUMPI PUSH1 0x0 DUP1 REVERT JUMPDEST POP GAS STATICCALL ISZERO DUP1 ISZERO PUSH2 0x19D5 JUMPI RETURNDATASIZE PUSH1 0x0 DUP1 RETURNDATACOPY RETURNDATASIZE PUSH1 0x0 REVERT JUMPDEST POP POP POP POP PUSH1 0x40 MLOAD RETURNDATASIZE PUSH1 0x1F NOT PUSH1 0x1F DUP3 ADD AND DUP3 ADD DUP1 PUSH1 0x40 MSTORE POP DUP2 ADD SWAP1 PUSH2 0x19F9 SWAP2 SWAP1 PUSH2 0x2A7B JUMP JUMPDEST PUSH2 0x1A03 SWAP2 SWAP1 PUSH2 0x2CD8 JUMP JUMPDEST PUSH1 0x40 MLOAD PUSH1 0x1 PUSH1 0x1 PUSH1 0xA0 SHL SUB DUP6 AND PUSH1 0x24 DUP3 ADD MSTORE PUSH1 0x44 DUP2 ADD DUP3 SWAP1 MSTORE SWAP1 SWAP2 POP PUSH2 0x1A36 SWAP1 DUP6 SWAP1 PUSH4 0x95EA7B3 PUSH1 0xE0 SHL SWAP1 PUSH1 0x64 ADD PUSH2 0x1939 JUMP JUMPDEST POP POP POP POP JUMP JUMPDEST PUSH1 0x60 PUSH2 0x1A4B DUP5 DUP5 PUSH1 0x0 DUP6 PUSH2 0x237C JUMP JUMPDEST SWAP1 POP JUMPDEST SWAP4 SWAP3 POP POP POP JUMP JUMPDEST PUSH2 0x8D0 PUSH32 0x0 PUSH32 0x0 PUSH32 0x0 PUSH2 0x24A4 JUMP JUMPDEST PUSH1 0x2 SLOAD PUSH1 0xFF AND PUSH2 0x1B09 JUMPI PUSH1 0x40 MLOAD PUSH3 0x461BCD PUSH1 0xE5 SHL DUP2 MSTORE PUSH1 0x20 PUSH1 0x4 DUP3 ADD MSTORE PUSH1 0x14 PUSH1 0x24 DUP3 ADD MSTORE PUSH20 0x14185D5CD8589B194E881B9BDD081C185D5CD959 PUSH1 0x62 SHL PUSH1 0x44 DUP3 ADD MSTORE PUSH1 0x64 ADD PUSH2 0x8BF JUMP JUMPDEST PUSH1 0x2 DUP1 SLOAD PUSH1 0xFF NOT AND SWAP1 SSTORE PUSH32 0x5DB9EE0A495BF2E6FF9C91A7834C1BA4FDD244A5E8AA4E537BD38AEAE4B073AA CALLER JUMPDEST PUSH1 0x40 MLOAD PUSH1 0x1 PUSH1 0x1 PUSH1 0xA0 SHL SUB SWAP1 SWAP2 AND DUP2 MSTORE PUSH1 0x20 ADD PUSH1 0x40 MLOAD DUP1 SWAP2 SUB SWAP1 LOG1 JUMP JUMPDEST PUSH1 0x2 SLOAD PUSH1 0xFF AND ISZERO PUSH2 0x1B76 JUMPI PUSH1 0x40 MLOAD PUSH3 0x461BCD PUSH1 0xE5 SHL DUP2 MSTORE PUSH1 0x4 ADD PUSH2 0x8BF SWAP1 PUSH2 0x2BED JUMP JUMPDEST PUSH1 0x2 DUP1 SLOAD PUSH1 0xFF NOT AND PUSH1 0x1 OR SWAP1 SSTORE PUSH32 0x62E78CEA01BEE320CD4E420270B5EA74000D11B0C9F74754EBDBFC544B05A258 PUSH2 0x1B36 CALLER SWAP1 JUMP JUMPDEST PUSH1 0x40 MLOAD PUSH4 0x29897547 PUSH1 0xE1 SHL DUP2 MSTORE PUSH32 0x0 PUSH1 0x4 DUP3 ADD MSTORE PUSH32 0x0 PUSH1 0x1 PUSH1 0x1 PUSH1 0xA0 SHL SUB AND SWAP1 PUSH4 0x5312EA8E SWAP1 PUSH1 0x24 ADD JUMPDEST PUSH1 0x0 PUSH1 0x40 MLOAD DUP1 DUP4 SUB DUP2 PUSH1 0x0 DUP8 DUP1 EXTCODESIZE ISZERO DUP1 ISZERO PUSH2 0x1C2D JUMPI PUSH1 0x0 DUP1 REVERT JUMPDEST POP GAS CALL ISZERO DUP1 ISZERO PUSH2 0x1A36 JUMPI RETURNDATASIZE PUSH1 0x0 DUP1 RETURNDATACOPY RETURNDATASIZE PUSH1 0x0 REVERT JUMPDEST PUSH1 0x40 MLOAD PUSH1 0x1 PUSH1 0x1 PUSH1 0xA0 SHL SUB DUP1 DUP6 AND PUSH1 0x24 DUP4 ADD MSTORE DUP4 AND PUSH1 0x44 DUP3 ADD MSTORE PUSH1 0x64 DUP2 ADD DUP3 SWAP1 MSTORE PUSH2 0x1A36 SWAP1 DUP6 SWAP1 PUSH4 0x23B872DD PUSH1 0xE0 SHL SWAP1 PUSH1 0x84 ADD PUSH2 0x1939 JUMP JUMPDEST PUSH1 0x40 MLOAD PUSH4 0x70A08231 PUSH1 0xE0 SHL DUP2 MSTORE ADDRESS PUSH1 0x4 DUP3 ADD MSTORE PUSH1 0x0 SWAP1 DUP2 SWAP1 PUSH1 0x1 PUSH1 0x1 PUSH1 0xA0 SHL SUB PUSH32 0x0 AND SWAP1 PUSH4 0x70A08231 SWAP1 PUSH1 0x24 ADD PUSH1 0x20 PUSH1 0x40 MLOAD DUP1 DUP4 SUB DUP2 DUP7 DUP1 EXTCODESIZE ISZERO DUP1 ISZERO PUSH2 0x1CDD JUMPI PUSH1 0x0 DUP1 REVERT JUMPDEST POP GAS STATICCALL ISZERO DUP1 ISZERO PUSH2 0x1CF1 JUMPI RETURNDATASIZE PUSH1 0x0 DUP1 RETURNDATACOPY RETURNDATASIZE PUSH1 0x0 REVERT JUMPDEST POP POP POP POP PUSH1 0x40 MLOAD RETURNDATASIZE PUSH1 0x1F NOT PUSH1 0x1F DUP3 ADD AND DUP3 ADD DUP1 PUSH1 0x40 MSTORE POP DUP2 ADD SWAP1 PUSH2 0x1D15 SWAP2 SWAP1 PUSH2 0x2A7B JUMP JUMPDEST SWAP1 POP DUP1 PUSH2 0x1D24 JUMPI PUSH1 0x0 SWAP2 POP POP SWAP1 JUMP JUMPDEST PUSH1 0x0 PUSH2 0x1D2E PUSH2 0x7AD JUMP JUMPDEST SWAP1 POP PUSH2 0x1D39 DUP3 PUSH2 0x259A JUMP JUMPDEST PUSH1 0x0 PUSH2 0x1D43 PUSH2 0x7AD JUMP JUMPDEST SWAP1 POP PUSH2 0x1D4F DUP3 DUP3 PUSH2 0x2D23 JUMP JUMPDEST SWAP4 POP POP POP POP SWAP1 JUMP JUMPDEST PUSH1 0x0 DUP1 SLOAD PUSH1 0x1 PUSH1 0x1 PUSH1 0xA0 SHL SUB DUP4 DUP2 AND PUSH1 0x1 PUSH1 0x1 PUSH1 0xA0 SHL SUB NOT DUP4 AND DUP2 OR DUP5 SSTORE PUSH1 0x40 MLOAD SWAP2 SWAP1 SWAP3 AND SWAP3 DUP4 SWAP2 PUSH32 0x8BE0079C531659141344CD1FD0A4F28419497F9722A3DAAFE3B4186F6B6457E0 SWAP2 SWAP1 LOG3 POP POP JUMP JUMPDEST PUSH1 0x40 MLOAD PUSH4 0x441A3E7 PUSH1 0xE4 SHL DUP2 MSTORE PUSH32 0x0 PUSH1 0x4 DUP3 ADD MSTORE PUSH1 0x0 PUSH1 0x24 DUP3 ADD MSTORE PUSH32 0x0 PUSH1 0x1 PUSH1 0x1 PUSH1 0xA0 SHL SUB AND SWAP1 PUSH4 0x441A3E70 SWAP1 PUSH1 0x44 ADD PUSH2 0x1C13 JUMP JUMPDEST PUSH1 0x8 SLOAD PUSH1 0x0 SWAP1 ISZERO PUSH2 0x1ECB JUMPI PUSH1 0x0 PUSH2 0x2710 PUSH1 0x8 SLOAD DUP5 PUSH2 0x1E38 SWAP2 SWAP1 PUSH2 0x2D04 JUMP JUMPDEST PUSH2 0x1E42 SWAP2 SWAP1 PUSH2 0x2CF0 JUMP JUMPDEST SWAP1 POP PUSH2 0x1EBD DUP2 PUSH1 0xF DUP1 SLOAD DUP1 PUSH1 0x20 MUL PUSH1 0x20 ADD PUSH1 0x40 MLOAD SWAP1 DUP2 ADD PUSH1 0x40 MSTORE DUP1 SWAP3 SWAP2 SWAP1 DUP2 DUP2 MSTORE PUSH1 0x20 ADD DUP3 DUP1 SLOAD DUP1 ISZERO PUSH2 0x1E9E JUMPI PUSH1 0x20 MUL DUP3 ADD SWAP2 SWAP1 PUSH1 0x0 MSTORE PUSH1 0x20 PUSH1 0x0 KECCAK256 SWAP1 JUMPDEST DUP2 SLOAD PUSH1 0x1 PUSH1 0x1 PUSH1 0xA0 SHL SUB AND DUP2 MSTORE PUSH1 0x1 SWAP1 SWAP2 ADD SWAP1 PUSH1 0x20 ADD DUP1 DUP4 GT PUSH2 0x1E80 JUMPI JUMPDEST POP POP POP POP POP PUSH20 0x5386881B46C37CDD30A748F7771CF95D7B213637 PUSH2 0x260D JUMP JUMPDEST PUSH2 0x1EC7 DUP2 DUP5 PUSH2 0x2D23 JUMP JUMPDEST SWAP3 POP POP JUMPDEST POP SWAP1 JUMP JUMPDEST PUSH1 0x9 SLOAD PUSH1 0x0 SWAP1 ISZERO PUSH2 0x1ECB JUMPI PUSH1 0x0 PUSH2 0x2710 PUSH1 0x9 SLOAD DUP5 PUSH2 0x1EED SWAP2 SWAP1 PUSH2 0x2D04 JUMP JUMPDEST PUSH2 0x1EF7 SWAP2 SWAP1 PUSH2 0x2CF0 JUMP JUMPDEST PUSH1 0x40 MLOAD PUSH4 0x70A08231 PUSH1 0xE0 SHL DUP2 MSTORE ADDRESS PUSH1 0x4 DUP3 ADD MSTORE SWAP1 SWAP2 POP PUSH1 0x0 SWAP1 PUSH20 0x2791BCA1F2DE4661ED88A30C99A7A9449AA84174 SWAP1 PUSH4 0x70A08231 SWAP1 PUSH1 0x24 ADD PUSH1 0x20 PUSH1 0x40 MLOAD DUP1 DUP4 SUB DUP2 DUP7 DUP1 EXTCODESIZE ISZERO DUP1 ISZERO PUSH2 0x1F47 JUMPI PUSH1 0x0 DUP1 REVERT JUMPDEST POP GAS STATICCALL ISZERO DUP1 ISZERO PUSH2 0x1F5B JUMPI RETURNDATASIZE PUSH1 0x0 DUP1 RETURNDATACOPY RETURNDATASIZE PUSH1 0x0 REVERT JUMPDEST POP POP POP POP PUSH1 0x40 MLOAD RETURNDATASIZE PUSH1 0x1F NOT PUSH1 0x1F DUP3 ADD AND DUP3 ADD DUP1 PUSH1 0x40 MSTORE POP DUP2 ADD SWAP1 PUSH2 0x1F7F SWAP2 SWAP1 PUSH2 0x2A7B JUMP JUMPDEST SWAP1 POP PUSH2 0x1FE6 DUP3 PUSH1 0x10 DUP1 SLOAD DUP1 PUSH1 0x20 MUL PUSH1 0x20 ADD PUSH1 0x40 MLOAD SWAP1 DUP2 ADD PUSH1 0x40 MSTORE DUP1 SWAP3 SWAP2 SWAP1 DUP2 DUP2 MSTORE PUSH1 0x20 ADD DUP3 DUP1 SLOAD DUP1 ISZERO PUSH2 0x1FDB JUMPI PUSH1 0x20 MUL DUP3 ADD SWAP2 SWAP1 PUSH1 0x0 MSTORE PUSH1 0x20 PUSH1 0x0 KECCAK256 SWAP1 JUMPDEST DUP2 SLOAD PUSH1 0x1 PUSH1 0x1 PUSH1 0xA0 SHL SUB AND DUP2 MSTORE PUSH1 0x1 SWAP1 SWAP2 ADD SWAP1 PUSH1 0x20 ADD DUP1 DUP4 GT PUSH2 0x1FBD JUMPI JUMPDEST POP POP POP POP POP ADDRESS PUSH2 0x2782 JUMP JUMPDEST PUSH1 0x40 MLOAD PUSH4 0x70A08231 PUSH1 0xE0 SHL DUP2 MSTORE ADDRESS PUSH1 0x4 DUP3 ADD MSTORE PUSH1 0x0 SWAP1 DUP3 SWAP1 PUSH20 0x2791BCA1F2DE4661ED88A30C99A7A9449AA84174 SWAP1 PUSH4 0x70A08231 SWAP1 PUSH1 0x24 ADD PUSH1 0x20 PUSH1 0x40 MLOAD DUP1 DUP4 SUB DUP2 DUP7 DUP1 EXTCODESIZE ISZERO DUP1 ISZERO PUSH2 0x2035 JUMPI PUSH1 0x0 DUP1 REVERT JUMPDEST POP GAS STATICCALL ISZERO DUP1 ISZERO PUSH2 0x2049 JUMPI RETURNDATASIZE PUSH1 0x0 DUP1 RETURNDATACOPY RETURNDATASIZE PUSH1 0x0 REVERT JUMPDEST POP POP POP POP PUSH1 0x40 MLOAD RETURNDATASIZE PUSH1 0x1F NOT PUSH1 0x1F DUP3 ADD AND DUP3 ADD DUP1 PUSH1 0x40 MSTORE POP DUP2 ADD SWAP1 PUSH2 0x206D SWAP2 SWAP1 PUSH2 0x2A7B JUMP JUMPDEST PUSH2 0x2077 SWAP2 SWAP1 PUSH2 0x2D23 JUMP JUMPDEST PUSH1 0x40 MLOAD PUSH4 0x1E2720FF PUSH1 0xE0 SHL DUP2 MSTORE PUSH1 0x4 DUP2 ADD DUP3 SWAP1 MSTORE SWAP1 SWAP2 POP PUSH20 0x917FB15E8AAA12264DCBDC15AFEF7CD3CE76BA39 SWAP1 PUSH4 0x1E2720FF SWAP1 PUSH1 0x24 ADD PUSH1 0x20 PUSH1 0x40 MLOAD DUP1 DUP4 SUB DUP2 PUSH1 0x0 DUP8 DUP1 EXTCODESIZE ISZERO DUP1 ISZERO PUSH2 0x20C7 JUMPI PUSH1 0x0 DUP1 REVERT JUMPDEST POP GAS CALL ISZERO DUP1 ISZERO PUSH2 0x20DB JUMPI RETURNDATASIZE PUSH1 0x0 DUP1 RETURNDATACOPY RETURNDATASIZE PUSH1 0x0 REVERT JUMPDEST POP POP POP POP PUSH1 0x40 MLOAD RETURNDATASIZE PUSH1 0x1F NOT PUSH1 0x1F DUP3 ADD AND DUP3 ADD DUP1 PUSH1 0x40 MSTORE POP DUP2 ADD SWAP1 PUSH2 0x20FF SWAP2 SWAP1 PUSH2 0x2A40 JUMP JUMPDEST POP PUSH2 0x210A DUP4 DUP7 PUSH2 0x2D23 JUMP JUMPDEST SWAP5 POP POP POP POP POP SWAP1 JUMP JUMPDEST PUSH1 0xA SLOAD PUSH1 0x0 SWAP1 ISZERO PUSH2 0x1ECB JUMPI PUSH1 0x0 PUSH2 0x2710 PUSH1 0xA SLOAD DUP5 PUSH2 0x2131 SWAP2 SWAP1 PUSH2 0x2D04 JUMP JUMPDEST PUSH2 0x213B SWAP2 SWAP1 PUSH2 0x2CF0 JUMP JUMPDEST SWAP1 POP PUSH2 0x1EBD DUP2 PUSH1 0x11 DUP1 SLOAD DUP1 PUSH1 0x20 MUL PUSH1 0x20 ADD PUSH1 0x40 MLOAD SWAP1 DUP2 ADD PUSH1 0x40 MSTORE DUP1 SWAP3 SWAP2 SWAP1 DUP2 DUP2 MSTORE PUSH1 0x20 ADD DUP3 DUP1 SLOAD DUP1 ISZERO PUSH2 0x2197 JUMPI PUSH1 0x20 MUL DUP3 ADD SWAP2 SWAP1 PUSH1 0x0 MSTORE PUSH1 0x20 PUSH1 0x0 KECCAK256 SWAP1 JUMPDEST DUP2 SLOAD PUSH1 0x1 PUSH1 0x1 PUSH1 0xA0 SHL SUB AND DUP2 MSTORE PUSH1 0x1 SWAP1 SWAP2 ADD SWAP1 PUSH1 0x20 ADD DUP1 DUP4 GT PUSH2 0x2179 JUMPI JUMPDEST POP POP POP POP POP PUSH2 0xDEAD PUSH2 0x2782 JUMP JUMPDEST PUSH1 0x40 MLOAD PUSH4 0x441A3E7 PUSH1 0xE4 SHL DUP2 MSTORE PUSH32 0x0 PUSH1 0x4 DUP3 ADD MSTORE PUSH1 0x24 DUP2 ADD DUP3 SWAP1 MSTORE PUSH32 0x0 PUSH1 0x1 PUSH1 0x1 PUSH1 0xA0 SHL SUB AND SWAP1 PUSH4 0x441A3E70 SWAP1 PUSH1 0x44 ADD JUMPDEST PUSH1 0x0 PUSH1 0x40 MLOAD DUP1 DUP4 SUB DUP2 PUSH1 0x0 DUP8 DUP1 EXTCODESIZE ISZERO DUP1 ISZERO PUSH2 0x222D JUMPI PUSH1 0x0 DUP1 REVERT JUMPDEST POP GAS CALL ISZERO DUP1 ISZERO PUSH2 0x2241 JUMPI RETURNDATASIZE PUSH1 0x0 DUP1 RETURNDATACOPY RETURNDATASIZE PUSH1 0x0 REVERT JUMPDEST POP POP POP POP POP JUMP JUMPDEST PUSH1 0x0 PUSH2 0x2254 DUP3 DUP5 PUSH2 0x2D81 JUMP JUMPDEST ISZERO PUSH2 0x2260 JUMPI PUSH1 0x1 PUSH2 0x2263 JUMP JUMPDEST PUSH1 0x0 JUMPDEST PUSH1 0xFF AND PUSH2 0x2270 DUP4 DUP6 PUSH2 0x2CF0 JUMP JUMPDEST PUSH2 0x1A4E SWAP2 SWAP1 PUSH2 0x2CD8 JUMP JUMPDEST PUSH1 0x40 MLOAD PUSH1 0x1 PUSH1 0x1 PUSH1 0xA0 SHL SUB DUP4 AND PUSH1 0x24 DUP3 ADD MSTORE PUSH1 0x44 DUP2 ADD DUP3 SWAP1 MSTORE PUSH2 0x1970 SWAP1 DUP5 SWAP1 PUSH4 0xA9059CBB PUSH1 0xE0 SHL SWAP1 PUSH1 0x64 ADD PUSH2 0x1939 JUMP JUMPDEST PUSH1 0x0 PUSH2 0x22FF DUP3 PUSH1 0x40 MLOAD DUP1 PUSH1 0x40 ADD PUSH1 0x40 MSTORE DUP1 PUSH1 0x20 DUP2 MSTORE PUSH1 0x20 ADD PUSH32 0x5361666545524332303A206C6F772D6C6576656C2063616C6C206661696C6564 DUP2 MSTORE POP DUP6 PUSH1 0x1 PUSH1 0x1 PUSH1 0xA0 SHL SUB AND PUSH2 0x1A3C SWAP1 SWAP3 SWAP2 SWAP1 PUSH4 0xFFFFFFFF AND JUMP JUMPDEST DUP1 MLOAD SWAP1 SWAP2 POP ISZERO PUSH2 0x1970 JUMPI DUP1 DUP1 PUSH1 0x20 ADD SWAP1 MLOAD DUP2 ADD SWAP1 PUSH2 0x231D SWAP2 SWAP1 PUSH2 0x2A40 JUMP JUMPDEST PUSH2 0x1970 JUMPI PUSH1 0x40 MLOAD PUSH3 0x461BCD PUSH1 0xE5 SHL DUP2 MSTORE PUSH1 0x20 PUSH1 0x4 DUP3 ADD MSTORE PUSH1 0x2A PUSH1 0x24 DUP3 ADD MSTORE PUSH32 0x5361666545524332303A204552433230206F7065726174696F6E20646964206E PUSH1 0x44 DUP3 ADD MSTORE PUSH10 0x1BDD081CDD58D8D95959 PUSH1 0xB2 SHL PUSH1 0x64 DUP3 ADD MSTORE PUSH1 0x84 ADD PUSH2 0x8BF JUMP JUMPDEST PUSH1 0x60 DUP3 SELFBALANCE LT ISZERO PUSH2 0x23DD JUMPI PUSH1 0x40 MLOAD PUSH3 0x461BCD PUSH1 0xE5 SHL DUP2 MSTORE PUSH1 0x20 PUSH1 0x4 DUP3 ADD MSTORE PUSH1 0x26 PUSH1 0x24 DUP3 ADD MSTORE PUSH32 0x416464726573733A20696E73756666696369656E742062616C616E636520666F PUSH1 0x44 DUP3 ADD MSTORE PUSH6 0x1C8818D85B1B PUSH1 0xD2 SHL PUSH1 0x64 DUP3 ADD MSTORE PUSH1 0x84 ADD PUSH2 0x8BF JUMP JUMPDEST DUP5 EXTCODESIZE PUSH2 0x242B JUMPI PUSH1 0x40 MLOAD PUSH3 0x461BCD PUSH1 0xE5 SHL DUP2 MSTORE PUSH1 0x20 PUSH1 0x4 DUP3 ADD MSTORE PUSH1 0x1D PUSH1 0x24 DUP3 ADD MSTORE PUSH32 0x416464726573733A2063616C6C20746F206E6F6E2D636F6E7472616374000000 PUSH1 0x44 DUP3 ADD MSTORE PUSH1 0x64 ADD PUSH2 0x8BF JUMP JUMPDEST PUSH1 0x0 DUP1 DUP7 PUSH1 0x1 PUSH1 0x1 PUSH1 0xA0 SHL SUB AND DUP6 DUP8 PUSH1 0x40 MLOAD PUSH2 0x2447 SWAP2 SWAP1 PUSH2 0x2B58 JUMP JUMPDEST PUSH1 0x0 PUSH1 0x40 MLOAD DUP1 DUP4 SUB DUP2 DUP6 DUP8 GAS CALL SWAP3 POP POP POP RETURNDATASIZE DUP1 PUSH1 0x0 DUP2 EQ PUSH2 0x2484 JUMPI PUSH1 0x40 MLOAD SWAP2 POP PUSH1 0x1F NOT PUSH1 0x3F RETURNDATASIZE ADD AND DUP3 ADD PUSH1 0x40 MSTORE RETURNDATASIZE DUP3 MSTORE RETURNDATASIZE PUSH1 0x0 PUSH1 0x20 DUP5 ADD RETURNDATACOPY PUSH2 0x2489 JUMP JUMPDEST PUSH1 0x60 SWAP2 POP JUMPDEST POP SWAP2 POP SWAP2 POP PUSH2 0x2499 DUP3 DUP3 DUP7 PUSH2 0x28E1 JUMP JUMPDEST SWAP8 SWAP7 POP POP POP POP POP POP POP JUMP JUMPDEST PUSH2 0x24B9 PUSH1 0x1 PUSH1 0x1 PUSH1 0xA0 SHL SUB DUP5 AND DUP4 PUSH1 0x0 PUSH2 0x1819 JUMP JUMPDEST PUSH2 0x24CF PUSH1 0x1 PUSH1 0x1 PUSH1 0xA0 SHL SUB DUP5 AND DUP4 PUSH1 0x0 NOT PUSH2 0x1975 JUMP JUMPDEST PUSH1 0x4 SLOAD PUSH2 0x24EA SWAP1 PUSH1 0x1 PUSH1 0x1 PUSH1 0xA0 SHL SUB DUP6 DUP2 AND SWAP2 AND PUSH1 0x0 PUSH2 0x1819 JUMP JUMPDEST PUSH1 0x4 SLOAD PUSH2 0x2506 SWAP1 PUSH1 0x1 PUSH1 0x1 PUSH1 0xA0 SHL SUB DUP6 DUP2 AND SWAP2 AND PUSH1 0x0 NOT PUSH2 0x1975 JUMP JUMPDEST PUSH2 0x253A PUSH20 0x2791BCA1F2DE4661ED88A30C99A7A9449AA84174 PUSH20 0x917FB15E8AAA12264DCBDC15AFEF7CD3CE76BA39 PUSH1 0x0 PUSH2 0x1819 JUMP JUMPDEST PUSH2 0x256F PUSH20 0x2791BCA1F2DE4661ED88A30C99A7A9449AA84174 PUSH20 0x917FB15E8AAA12264DCBDC15AFEF7CD3CE76BA39 PUSH1 0x0 NOT PUSH2 0x1975 JUMP JUMPDEST PUSH2 0x2584 PUSH1 0x1 PUSH1 0x1 PUSH1 0xA0 SHL SUB DUP5 AND DUP3 PUSH1 0x0 PUSH2 0x1819 JUMP JUMPDEST PUSH2 0x1970 PUSH1 0x1 PUSH1 0x1 PUSH1 0xA0 SHL SUB DUP5 AND DUP3 PUSH1 0x0 NOT PUSH2 0x1975 JUMP JUMPDEST PUSH1 0x40 MLOAD PUSH4 0x1C57762B PUSH1 0xE3 SHL DUP2 MSTORE PUSH32 0x0 PUSH1 0x4 DUP3 ADD MSTORE PUSH1 0x24 DUP2 ADD DUP3 SWAP1 MSTORE PUSH32 0x0 PUSH1 0x1 PUSH1 0x1 PUSH1 0xA0 SHL SUB AND SWAP1 PUSH4 0xE2BBB158 SWAP1 PUSH1 0x44 ADD PUSH2 0x2213 JUMP JUMPDEST PUSH1 0x4 DUP1 SLOAD PUSH1 0x40 MLOAD PUSH4 0xD06CA61F PUSH1 0xE0 SHL DUP2 MSTORE PUSH1 0x0 SWAP3 PUSH1 0x1 PUSH1 0x1 PUSH1 0xA0 SHL SUB SWAP1 SWAP3 AND SWAP2 PUSH4 0xD06CA61F SWAP2 PUSH2 0x2641 SWAP2 DUP9 SWAP2 DUP9 SWAP2 ADD PUSH2 0x2C83 JUMP JUMPDEST PUSH1 0x0 PUSH1 0x40 MLOAD DUP1 DUP4 SUB DUP2 DUP7 DUP1 EXTCODESIZE ISZERO DUP1 ISZERO PUSH2 0x2659 JUMPI PUSH1 0x0 DUP1 REVERT JUMPDEST POP GAS STATICCALL ISZERO DUP1 ISZERO PUSH2 0x266D JUMPI RETURNDATASIZE PUSH1 0x0 DUP1 RETURNDATACOPY RETURNDATASIZE PUSH1 0x0 REVERT JUMPDEST POP POP POP POP PUSH1 0x40 MLOAD RETURNDATASIZE PUSH1 0x0 DUP3 RETURNDATACOPY PUSH1 0x1F RETURNDATASIZE SWAP1 DUP2 ADD PUSH1 0x1F NOT AND DUP3 ADD PUSH1 0x40 MSTORE PUSH2 0x2695 SWAP2 SWAP1 DUP2 ADD SWAP1 PUSH2 0x297B JUMP JUMPDEST SWAP1 POP PUSH1 0x0 DUP2 PUSH1 0x1 DUP4 MLOAD PUSH2 0x26A8 SWAP2 SWAP1 PUSH2 0x2D23 JUMP JUMPDEST DUP2 MLOAD DUP2 LT PUSH2 0x26B8 JUMPI PUSH2 0x26B8 PUSH2 0x2DC1 JUMP JUMPDEST PUSH1 0x20 SWAP1 DUP2 MUL SWAP2 SWAP1 SWAP2 ADD ADD MLOAD PUSH1 0x4 SLOAD PUSH1 0xC SLOAD SWAP2 SWAP3 POP PUSH1 0x1 PUSH1 0x1 PUSH1 0xA0 SHL SUB AND SWAP1 PUSH4 0x18CBAFE5 SWAP1 DUP8 SWAP1 PUSH2 0x3E8 SWAP1 PUSH2 0x26EC SWAP1 DUP7 PUSH2 0x2D04 JUMP JUMPDEST PUSH2 0x26F6 SWAP2 SWAP1 PUSH2 0x2CF0 JUMP JUMPDEST DUP8 DUP8 PUSH2 0x2704 TIMESTAMP PUSH2 0x258 PUSH2 0x2CD8 JUMP JUMPDEST PUSH1 0x40 MLOAD DUP7 PUSH4 0xFFFFFFFF AND PUSH1 0xE0 SHL DUP2 MSTORE PUSH1 0x4 ADD PUSH2 0x2724 SWAP6 SWAP5 SWAP4 SWAP3 SWAP2 SWAP1 PUSH2 0x2C9C JUMP JUMPDEST PUSH1 0x0 PUSH1 0x40 MLOAD DUP1 DUP4 SUB DUP2 PUSH1 0x0 DUP8 DUP1 EXTCODESIZE ISZERO DUP1 ISZERO PUSH2 0x273E JUMPI PUSH1 0x0 DUP1 REVERT JUMPDEST POP GAS CALL ISZERO DUP1 ISZERO PUSH2 0x2752 JUMPI RETURNDATASIZE PUSH1 0x0 DUP1 RETURNDATACOPY RETURNDATASIZE PUSH1 0x0 REVERT JUMPDEST POP POP POP POP PUSH1 0x40 MLOAD RETURNDATASIZE PUSH1 0x0 DUP3 RETURNDATACOPY PUSH1 0x1F RETURNDATASIZE SWAP1 DUP2 ADD PUSH1 0x1F NOT AND DUP3 ADD PUSH1 0x40 MSTORE PUSH2 0x277A SWAP2 SWAP1 DUP2 ADD SWAP1 PUSH2 0x297B JUMP JUMPDEST POP POP POP POP POP POP JUMP JUMPDEST PUSH1 0x4 DUP1 SLOAD PUSH1 0x40 MLOAD PUSH4 0xD06CA61F PUSH1 0xE0 SHL DUP2 MSTORE PUSH1 0x0 SWAP3 PUSH1 0x1 PUSH1 0x1 PUSH1 0xA0 SHL SUB SWAP1 SWAP3 AND SWAP2 PUSH4 0xD06CA61F SWAP2 PUSH2 0x27B6 SWAP2 DUP9 SWAP2 DUP9 SWAP2 ADD PUSH2 0x2C83 JUMP JUMPDEST PUSH1 0x0 PUSH1 0x40 MLOAD DUP1 DUP4 SUB DUP2 DUP7 DUP1 EXTCODESIZE ISZERO DUP1 ISZERO PUSH2 0x27CE JUMPI PUSH1 0x0 DUP1 REVERT JUMPDEST POP GAS STATICCALL ISZERO DUP1 ISZERO PUSH2 0x27E2 JUMPI RETURNDATASIZE PUSH1 0x0 DUP1 RETURNDATACOPY RETURNDATASIZE PUSH1 0x0 REVERT JUMPDEST POP POP POP POP PUSH1 0x40 MLOAD RETURNDATASIZE PUSH1 0x0 DUP3 RETURNDATACOPY PUSH1 0x1F RETURNDATASIZE SWAP1 DUP2 ADD PUSH1 0x1F NOT AND DUP3 ADD PUSH1 0x40 MSTORE PUSH2 0x280A SWAP2 SWAP1 DUP2 ADD SWAP1 PUSH2 0x297B JUMP JUMPDEST SWAP1 POP PUSH1 0x0 DUP2 PUSH1 0x1 DUP4 MLOAD PUSH2 0x281D SWAP2 SWAP1 PUSH2 0x2D23 JUMP JUMPDEST DUP2 MLOAD DUP2 LT PUSH2 0x282D JUMPI PUSH2 0x282D PUSH2 0x2DC1 JUMP JUMPDEST PUSH1 0x20 MUL PUSH1 0x20 ADD ADD MLOAD SWAP1 POP PUSH20 0x76BF0C28E604CC3FE9967C83B3C3F31C213CFE64 PUSH1 0x1 PUSH1 0x1 PUSH1 0xA0 SHL SUB AND DUP5 PUSH1 0x1 DUP7 MLOAD PUSH2 0x2864 SWAP2 SWAP1 PUSH2 0x2D23 JUMP JUMPDEST DUP2 MLOAD DUP2 LT PUSH2 0x2874 JUMPI PUSH2 0x2874 PUSH2 0x2DC1 JUMP JUMPDEST PUSH1 0x20 MUL PUSH1 0x20 ADD ADD MLOAD PUSH1 0x1 PUSH1 0x1 PUSH1 0xA0 SHL SUB AND EQ DUP1 ISZERO PUSH2 0x289C JUMPI POP PUSH1 0x1 PUSH1 0x1 PUSH1 0xA0 SHL SUB DUP4 AND PUSH2 0xDEAD EQ JUMPDEST ISZERO PUSH2 0x28B9 JUMPI DUP1 PUSH1 0xE PUSH1 0x0 DUP3 DUP3 SLOAD PUSH2 0x28B3 SWAP2 SWAP1 PUSH2 0x2CD8 JUMP JUMPDEST SWAP1 SWAP2 SSTORE POP POP JUMPDEST PUSH1 0x4 SLOAD PUSH1 0xC SLOAD PUSH1 0x1 PUSH1 0x1 PUSH1 0xA0 SHL SUB SWAP1 SWAP2 AND SWAP1 PUSH4 0x38ED1739 SWAP1 DUP8 SWAP1 PUSH2 0x3E8 SWAP1 PUSH2 0x26EC SWAP1 DUP7 PUSH2 0x2D04 JUMP JUMPDEST PUSH1 0x60 DUP4 ISZERO PUSH2 0x28F0 JUMPI POP DUP2 PUSH2 0x1A4E JUMP JUMPDEST DUP3 MLOAD ISZERO PUSH2 0x2900 JUMPI DUP3 MLOAD DUP1 DUP5 PUSH1 0x20 ADD REVERT JUMPDEST DUP2 PUSH1 0x40 MLOAD PUSH3 0x461BCD PUSH1 0xE5 SHL DUP2 MSTORE PUSH1 0x4 ADD PUSH2 0x8BF SWAP2 SWAP1 PUSH2 0x2B9C JUMP JUMPDEST DUP1 CALLDATALOAD PUSH1 0x1 PUSH1 0x1 PUSH1 0xA0 SHL SUB DUP2 AND DUP2 EQ PUSH2 0x2931 JUMPI PUSH1 0x0 DUP1 REVERT JUMPDEST SWAP2 SWAP1 POP JUMP JUMPDEST PUSH1 0x0 PUSH1 0x20 DUP3 DUP5 SUB SLT ISZERO PUSH2 0x2948 JUMPI PUSH1 0x0 DUP1 REVERT JUMPDEST PUSH2 0x1A4E DUP3 PUSH2 0x291A JUMP JUMPDEST PUSH1 0x0 DUP1 PUSH1 0x40 DUP4 DUP6 SUB SLT ISZERO PUSH2 0x2964 JUMPI PUSH1 0x0 DUP1 REVERT JUMPDEST PUSH2 0x296D DUP4 PUSH2 0x291A JUMP JUMPDEST SWAP5 PUSH1 0x20 SWAP4 SWAP1 SWAP4 ADD CALLDATALOAD SWAP4 POP POP POP JUMP JUMPDEST PUSH1 0x0 PUSH1 0x20 DUP1 DUP4 DUP6 SUB SLT ISZERO PUSH2 0x298E JUMPI PUSH1 0x0 DUP1 REVERT JUMPDEST DUP3 MLOAD PUSH8 0xFFFFFFFFFFFFFFFF DUP1 DUP3 GT ISZERO PUSH2 0x29A6 JUMPI PUSH1 0x0 DUP1 REVERT JUMPDEST DUP2 DUP6 ADD SWAP2 POP DUP6 PUSH1 0x1F DUP4 ADD SLT PUSH2 0x29BA JUMPI PUSH1 0x0 DUP1 REVERT JUMPDEST DUP2 MLOAD DUP2 DUP2 GT ISZERO PUSH2 0x29CC JUMPI PUSH2 0x29CC PUSH2 0x2DD7 JUMP JUMPDEST DUP1 PUSH1 0x5 SHL PUSH1 0x40 MLOAD PUSH1 0x1F NOT PUSH1 0x3F DUP4 ADD AND DUP2 ADD DUP2 DUP2 LT DUP6 DUP3 GT OR ISZERO PUSH2 0x29F1 JUMPI PUSH2 0x29F1 PUSH2 0x2DD7 JUMP JUMPDEST PUSH1 0x40 MSTORE DUP3 DUP2 MSTORE DUP6 DUP2 ADD SWAP4 POP DUP5 DUP7 ADD DUP3 DUP7 ADD DUP8 ADD DUP11 LT ISZERO PUSH2 0x2A10 JUMPI PUSH1 0x0 DUP1 REVERT JUMPDEST PUSH1 0x0 SWAP6 POP JUMPDEST DUP4 DUP7 LT ISZERO PUSH2 0x2A33 JUMPI DUP1 MLOAD DUP6 MSTORE PUSH1 0x1 SWAP6 SWAP1 SWAP6 ADD SWAP5 SWAP4 DUP7 ADD SWAP4 DUP7 ADD PUSH2 0x2A15 JUMP JUMPDEST POP SWAP9 SWAP8 POP POP POP POP POP POP POP POP JUMP JUMPDEST PUSH1 0x0 PUSH1 0x20 DUP3 DUP5 SUB SLT ISZERO PUSH2 0x2A52 JUMPI PUSH1 0x0 DUP1 REVERT JUMPDEST DUP2 MLOAD DUP1 ISZERO ISZERO DUP2 EQ PUSH2 0x1A4E JUMPI PUSH1 0x0 DUP1 REVERT JUMPDEST PUSH1 0x0 PUSH1 0x20 DUP3 DUP5 SUB SLT ISZERO PUSH2 0x2A74 JUMPI PUSH1 0x0 DUP1 REVERT JUMPDEST POP CALLDATALOAD SWAP2 SWAP1 POP JUMP JUMPDEST PUSH1 0x0 PUSH1 0x20 DUP3 DUP5 SUB SLT ISZERO PUSH2 0x2A8D JUMPI PUSH1 0x0 DUP1 REVERT JUMPDEST POP MLOAD SWAP2 SWAP1 POP JUMP JUMPDEST PUSH1 0x0 DUP1 PUSH1 0x40 DUP4 DUP6 SUB SLT ISZERO PUSH2 0x2AA7 JUMPI PUSH1 0x0 DUP1 REVERT JUMPDEST POP POP DUP1 MLOAD PUSH1 0x20 SWAP1 SWAP2 ADD MLOAD SWAP1 SWAP3 SWAP1 SWAP2 POP JUMP JUMPDEST PUSH1 0x0 DUP1 PUSH1 0x0 DUP1 PUSH1 0x0 DUP1 PUSH1 0x0 PUSH1 0xE0 DUP9 DUP11 SUB SLT ISZERO PUSH2 0x2AD3 JUMPI PUSH1 0x0 DUP1 REVERT JUMPDEST DUP8 CALLDATALOAD SWAP7 POP PUSH1 0x20 DUP9 ADD CALLDATALOAD SWAP6 POP PUSH1 0x40 DUP9 ADD CALLDATALOAD SWAP5 POP PUSH1 0x60 DUP9 ADD CALLDATALOAD SWAP4 POP PUSH1 0x80 DUP9 ADD CALLDATALOAD SWAP3 POP PUSH1 0xA0 DUP9 ADD CALLDATALOAD SWAP2 POP PUSH2 0x2B06 PUSH1 0xC0 DUP10 ADD PUSH2 0x291A JUMP JUMPDEST SWAP1 POP SWAP3 SWAP6 SWAP9 SWAP2 SWAP5 SWAP8 POP SWAP3 SWAP6 POP JUMP JUMPDEST PUSH1 0x0 DUP2 MLOAD DUP1 DUP5 MSTORE PUSH1 0x20 DUP1 DUP6 ADD SWAP5 POP DUP1 DUP5 ADD PUSH1 0x0 JUMPDEST DUP4 DUP2 LT ISZERO PUSH2 0x2B4D JUMPI DUP2 MLOAD PUSH1 0x1 PUSH1 0x1 PUSH1 0xA0 SHL SUB AND DUP8 MSTORE SWAP6 DUP3 ADD SWAP6 SWAP1 DUP3 ADD SWAP1 PUSH1 0x1 ADD PUSH2 0x2B28 JUMP JUMPDEST POP SWAP5 SWAP6 SWAP5 POP POP POP POP POP JUMP JUMPDEST PUSH1 0x0 DUP3 MLOAD PUSH2 0x2B6A DUP2 DUP5 PUSH1 0x20 DUP8 ADD PUSH2 0x2D3A JUMP JUMPDEST SWAP2 SWAP1 SWAP2 ADD SWAP3 SWAP2 POP POP JUMP JUMPDEST PUSH1 0x20 DUP2 ADD PUSH1 0x4 DUP4 LT PUSH2 0x2B96 JUMPI PUSH4 0x4E487B71 PUSH1 0xE0 SHL PUSH1 0x0 MSTORE PUSH1 0x21 PUSH1 0x4 MSTORE PUSH1 0x24 PUSH1 0x0 REVERT JUMPDEST SWAP2 SWAP1 MSTORE SWAP1 JUMP JUMPDEST PUSH1 0x20 DUP2 MSTORE PUSH1 0x0 DUP3 MLOAD DUP1 PUSH1 0x20 DUP5 ADD MSTORE PUSH2 0x2BBB DUP2 PUSH1 0x40 DUP6 ADD PUSH1 0x20 DUP8 ADD PUSH2 0x2D3A JUMP JUMPDEST PUSH1 0x1F ADD PUSH1 0x1F NOT AND SWAP2 SWAP1 SWAP2 ADD PUSH1 0x40 ADD SWAP3 SWAP2 POP POP JUMP JUMPDEST PUSH1 0x20 DUP1 DUP3 MSTORE PUSH1 0x4 SWAP1 DUP3 ADD MSTORE PUSH4 0x10B3B7BB PUSH1 0xE1 SHL PUSH1 0x40 DUP3 ADD MSTORE PUSH1 0x60 ADD SWAP1 JUMP JUMPDEST PUSH1 0x20 DUP1 DUP3 MSTORE PUSH1 0x10 SWAP1 DUP3 ADD MSTORE PUSH16 0x14185D5CD8589B194E881C185D5CD959 PUSH1 0x82 SHL PUSH1 0x40 DUP3 ADD MSTORE PUSH1 0x60 ADD SWAP1 JUMP JUMPDEST PUSH1 0x20 DUP1 DUP3 MSTORE DUP2 DUP2 ADD MSTORE PUSH32 0x4F776E61626C653A2063616C6C6572206973206E6F7420746865206F776E6572 PUSH1 0x40 DUP3 ADD MSTORE PUSH1 0x60 ADD SWAP1 JUMP JUMPDEST PUSH1 0x20 DUP1 DUP3 MSTORE PUSH1 0x1F SWAP1 DUP3 ADD MSTORE PUSH32 0x5265656E7472616E637947756172643A207265656E7472616E742063616C6C00 PUSH1 0x40 DUP3 ADD MSTORE PUSH1 0x60 ADD SWAP1 JUMP JUMPDEST DUP3 DUP2 MSTORE PUSH1 0x40 PUSH1 0x20 DUP3 ADD MSTORE PUSH1 0x0 PUSH2 0x1A4B PUSH1 0x40 DUP4 ADD DUP5 PUSH2 0x2B14 JUMP JUMPDEST DUP6 DUP2 MSTORE DUP5 PUSH1 0x20 DUP3 ADD MSTORE PUSH1 0xA0 PUSH1 0x40 DUP3 ADD MSTORE PUSH1 0x0 PUSH2 0x2CBB PUSH1 0xA0 DUP4 ADD DUP7 PUSH2 0x2B14 JUMP JUMPDEST PUSH1 0x1 PUSH1 0x1 PUSH1 0xA0 SHL SUB SWAP5 SWAP1 SWAP5 AND PUSH1 0x60 DUP4 ADD MSTORE POP PUSH1 0x80 ADD MSTORE SWAP4 SWAP3 POP POP POP JUMP JUMPDEST PUSH1 0x0 DUP3 NOT DUP3 GT ISZERO PUSH2 0x2CEB JUMPI PUSH2 0x2CEB PUSH2 0x2D95 JUMP JUMPDEST POP ADD SWAP1 JUMP JUMPDEST PUSH1 0x0 DUP3 PUSH2 0x2CFF JUMPI PUSH2 0x2CFF PUSH2 0x2DAB JUMP JUMPDEST POP DIV SWAP1 JUMP JUMPDEST PUSH1 0x0 DUP2 PUSH1 0x0 NOT DIV DUP4 GT DUP3 ISZERO ISZERO AND ISZERO PUSH2 0x2D1E JUMPI PUSH2 0x2D1E PUSH2 0x2D95 JUMP JUMPDEST POP MUL SWAP1 JUMP JUMPDEST PUSH1 0x0 DUP3 DUP3 LT ISZERO PUSH2 0x2D35 JUMPI PUSH2 0x2D35 PUSH2 0x2D95 JUMP JUMPDEST POP SUB SWAP1 JUMP JUMPDEST PUSH1 0x0 JUMPDEST DUP4 DUP2 LT ISZERO PUSH2 0x2D55 JUMPI DUP2 DUP2 ADD MLOAD DUP4 DUP3 ADD MSTORE PUSH1 0x20 ADD PUSH2 0x2D3D JUMP JUMPDEST DUP4 DUP2 GT ISZERO PUSH2 0x1A36 JUMPI POP POP PUSH1 0x0 SWAP2 ADD MSTORE JUMP JUMPDEST PUSH1 0x0 PUSH1 0x0 NOT DUP3 EQ ISZERO PUSH2 0x2D7A JUMPI PUSH2 0x2D7A PUSH2 0x2D95 JUMP JUMPDEST POP PUSH1 0x1 ADD SWAP1 JUMP JUMPDEST PUSH1 0x0 DUP3 PUSH2 0x2D90 JUMPI PUSH2 0x2D90 PUSH2 0x2DAB JUMP JUMPDEST POP MOD SWAP1 JUMP JUMPDEST PUSH4 0x4E487B71 PUSH1 0xE0 SHL PUSH1 0x0 MSTORE PUSH1 0x11 PUSH1 0x4 MSTORE PUSH1 0x24 PUSH1 0x0 REVERT JUMPDEST PUSH4 0x4E487B71 PUSH1 0xE0 SHL PUSH1 0x0 MSTORE PUSH1 0x12 PUSH1 0x4 MSTORE PUSH1 0x24 PUSH1 0x0 REVERT JUMPDEST PUSH4 0x4E487B71 PUSH1 0xE0 SHL PUSH1 0x0 MSTORE PUSH1 0x32 PUSH1 0x4 MSTORE PUSH1 0x24 PUSH1 0x0 REVERT JUMPDEST PUSH4 0x4E487B71 PUSH1 0xE0 SHL PUSH1 0x0 MSTORE PUSH1 0x41 PUSH1 0x4 MSTORE PUSH1 0x24 PUSH1 0x0 REVERT INVALID LOG2 PUSH5 0x6970667358 0x22 SLT KECCAK256 CHAINID SWAP11 DUP10 0xC6 SWAP5 0xEE DUP13 LT SDIV MSTORE8 KECCAK256 0x49 0xC3 0xBE PUSH23 0x2CE1AAEECE157433771A3AB688ED4E702B64736F6C6343 STOP ADDMOD SMOD STOP CALLER LOG2 PUSH5 0x6970667358 0x22 SLT KECCAK256 PUSH2 0xBD1 0xF9 XOR 0x5E PUSH3 0x848885 0xA9 0xE DUP12 0xE2 PUSH7 0x21CB917BD37123 SWAP8 0x2C SWAP2 PUSH30 0x9DF6BF06107E64736F6C6343000807003300000000000000000000000000 "
		},
		"gasEstimates": {
			"creation": {
				"codeDepositCost": "6857800",
				"executionCost": "8727",
				"totalCost": "6866527"
			},
			"external": {
				"deployMaxiCore(address,address,address,uint256,address,uint256,address)": "infinite",
				"deployMaxiMasterHealer(address,address,address,address,address,address,uint256,uint256,address)": "infinite"
			}
		},
		"methodIdentifiers": {
			"deployMaxiCore(address,address,address,uint256,address,uint256,address)": "97b28f68",
			"deployMaxiMasterHealer(address,address,address,address,address,address,uint256,uint256,address)": "286d1fe3"
		}
	},
	"abi": [
		{
			"inputs": [
				{
					"internalType": "address",
					"name": "_govAddress",
					"type": "address"
				},
				{
					"internalType": "address",
					"name": "_masterchefAddress",
					"type": "address"
				},
				{
					"internalType": "address",
					"name": "_uniRouterAddress",
					"type": "address"
				},
				{
					"internalType": "uint256",
					"name": "_pid",
					"type": "uint256"
				},
				{
					"internalType": "address",
					"name": "_wantAddress",
					"type": "address"
				},
				{
					"internalType": "uint256",
					"name": "_tolerance",
					"type": "uint256"
				},
				{
					"internalType": "address",
					"name": "_earnedToWmaticStep",
					"type": "address"
				}
			],
			"name": "deployMaxiCore",
			"outputs": [
				{
					"internalType": "address",
					"name": "newCoreAddr",
					"type": "address"
				}
			],
			"stateMutability": "nonpayable",
			"type": "function"
		},
		{
			"inputs": [
				{
					"internalType": "address",
					"name": "_govAddress",
					"type": "address"
				},
				{
					"internalType": "address",
					"name": "_masterChef",
					"type": "address"
				},
				{
					"internalType": "address",
					"name": "_uniRouter",
					"type": "address"
				},
				{
					"internalType": "address",
					"name": "_want",
					"type": "address"
				},
				{
					"internalType": "address",
					"name": "_earned",
					"type": "address"
				},
				{
					"internalType": "address",
					"name": "_maxi",
					"type": "address"
				},
				{
					"internalType": "uint256",
					"name": "_pid",
					"type": "uint256"
				},
				{
					"internalType": "uint256",
					"name": "_tolerance",
					"type": "uint256"
				},
				{
					"internalType": "address",
					"name": "_earnedToWmaticStep",
					"type": "address"
				}
			],
			"name": "deployMaxiMasterHealer",
			"outputs": [
				{
					"internalType": "address",
					"name": "newMaxiAddr",
					"type": "address"
				}
			],
			"stateMutability": "nonpayable",
			"type": "function"
		}
	]
}