{
	"data": {
		"bytecode": {
			"linkReferences": {},
			"object": "6080604052600160068190556007805460ff1916909117905534801561002457600080fd5b50600160005561003333610038565b61008a565b600180546001600160a01b038381166001600160a01b0319831681179093556040519116919082907f8be0079c531659141344cd1fd0a4f28419497f9722a3daafe3b4186f6b6457e090600090a35050565b611cb4806100996000396000f3fe608060405234801561001057600080fd5b50600436106101425760003560e01c8063715018a6116100b8578063958e2d311161007c578063958e2d31146102d05780639b05ddb3146102e3578063d914cd4b146102eb578063e2bbb158146102fe578063e2ff2f4714610311578063f2fde38b1461031e57600080fd5b8063715018a6146102665780637b84daec1461026e5780638da5cb5b146102815780638dbdbe6d1461029257806393f1a40b146102a557600080fd5b80632449447a1161010a5780632449447a146101ec5780633505b09f1461021c5780633d4fc8d114610224578063441a3e70146102375780635d142d071461024a5780636d44a3b21461025357600080fd5b8063081e3eda146101475780630ad58d2f1461015e57806313e7c9d8146101735780631526fe27146101a657806323e1ad7d146101d9575b600080fd5b6003545b6040519081526020015b60405180910390f35b61017161016c366004611a1b565b610331565b005b6101966101813660046118ed565b60026020526000908152604090205460ff1681565b6040519015158152602001610155565b6101b96101b436600461197d565b6103a8565b604080516001600160a01b03938416815292909116602083015201610155565b6101716101e736600461197d565b6103e1565b6007546102049061010090046001600160a01b031681565b6040516001600160a01b039091168152602001610155565b610171610477565b6101716102323660046119d4565b61052c565b6101716102453660046119f9565b6105aa565b61014b60065481565b610171610261366004611927565b610637565b6101716106b5565b61014b61027c3660046119af565b6106eb565b6001546001600160a01b0316610204565b6101716102a0366004611a1b565b610885565b61014b6102b33660046119af565b600460209081526000928352604080842090915290825290205481565b6101716102de36600461197d565b6108e7565b610171610948565b6101716102f93660046118ed565b6109d1565b61017161030c3660046119f9565b610bbb565b6007546101969060ff1681565b61017161032c3660046118ed565b610c47565b6002600054141561035d5760405162461bcd60e51b815260040161035490611ae4565b60405180910390fd5b60026000818155338152602091909152604090205460ff166103915760405162461bcd60e51b815260040161035490611b1b565b61039c838383610cdf565b50506001600055505050565b600381815481106103b857600080fd5b6000918252602090912060029091020180546001909101546001600160a01b0391821692501682565b6001546001600160a01b0316331461040b5760405162461bcd60e51b815260040161035490611aaf565b60006003828154811061042057610420611c45565b6000918252602082206001600290920201908101548154919350610453926001600160a01b0392831692909116906110c3565b60018101548154610473916001600160a01b03918216911660001961121a565b5050565b6001546001600160a01b031633146104a15760405162461bcd60e51b815260040161035490611aaf565b60005b600354811015610529576000600382815481106104c3576104c3611c45565b60009182526020822060016002909202019081015481549193506104f6926001600160a01b0392831692909116906110c3565b60018101548154610516916001600160a01b03918216911660001961121a565b508061052181611c14565b9150506104a4565b50565b6001546001600160a01b031633146105565760405162461bcd60e51b815260040161035490611aaf565b60068290556007805460ff19168215159081179091556040805184815260208101929092527feba593b5bd3e604f0314995a4d3b960cc02497e58addcb6f2f5b03b3308500f4910160405180910390a15050565b600260005414156105cd5760405162461bcd60e51b815260040161035490611ae4565b600260005560075460ff168015610614575060065415806105fd57503360009081526002602052604090205460ff165b806106145750600654600114801561061457503332145b15610621576106216112e1565b61062c828233610cdf565b505060016000555050565b6001546001600160a01b031633146106615760405162461bcd60e51b815260040161035490611aaf565b6001600160a01b038216600081815260026020526040808220805460ff191685151590811790915590519092917f966c160e1c4dbc7df8d69af4ace01e9297c3cf016397b7914971f2fbfa32672d91a35050565b6001546001600160a01b031633146106df5760405162461bcd60e51b815260040161035490611aaf565b6106e960006113e4565b565b6000806003848154811061070157610701611c45565b60009182526020808320878452600480835260408086206001600160a01b03808b16885290855281872060016002909702909401958601548251632251caaf60e11b815292519698509396959316936344a3955e93828401939192909190829003018186803b15801561077357600080fd5b505afa158015610787573d6000803e3d6000fd5b505050506040513d601f19601f820116820180604052508101906107ab9190611996565b90506000600387815481106107c2576107c2611c45565b600091825260209182902060016002909202010154604080516342da4eb360e01b815290516001600160a01b03909216926342da4eb392600480840193829003018186803b15801561081357600080fd5b505afa158015610827573d6000803e3d6000fd5b505050506040513d601f19601f8201168201806040525081019061084b9190611996565b90508161085f57600094505050505061087f565b8254829061086e908390611bb2565b6108789190611b90565b9450505050505b92915050565b600260005414156108a85760405162461bcd60e51b815260040161035490611ae4565b60026000818155338152602091909152604090205460ff166108dc5760405162461bcd60e51b815260040161035490611b1b565b61062c838383611436565b60075460ff1680156109295750600654158061091257503360009081526002602052604090205460ff165b806109295750600654600114801561092957503332145b15610936576109366112e1565b6109438160001933610cdf565b505050565b600654158061096657503360009081526002602052604090205460ff165b8061097d5750600654600114801561097d57503332145b6109c95760405162461bcd60e51b815260206004820152601960248201527f436f6d706f756e64696e672069732072657374726963746564000000000000006044820152606401610354565b6106e96112e1565b6001546001600160a01b031633146109fb5760405162461bcd60e51b815260040161035490611aaf565b60026000541415610a1e5760405162461bcd60e51b815260040161035490611ae4565b600260009081556001600160a01b03821681526005602052604090205460ff1615610a7f5760405162461bcd60e51b81526020600482015260116024820152704578697374696e6720737472617465677960781b6044820152606401610354565b60036040518060400160405280836001600160a01b031663e7a036796040518163ffffffff1660e01b815260040160206040518083038186803b158015610ac557600080fd5b505afa158015610ad9573d6000803e3d6000fd5b505050506040513d601f19601f82011682018060405250810190610afd919061190a565b6001600160a01b03908116825284811660209283018190528454600181810187556000968752848720865160029093020180549285166001600160a01b03199384161781559585015195810180549690941695909116949094179091558352600590526040909120805460ff191682179055600354610b7f916101e791611bd1565b6040516001600160a01b038216907f8c82d670bc9247c2cfb6964089bc9cff0255f9caade6fbc74a13368083e5546690600090a2506001600055565b60026000541415610bde5760405162461bcd60e51b815260040161035490611ae4565b600260005560075460ff168015610c2557506006541580610c0e57503360009081526002602052604090205460ff165b80610c2557506006546001148015610c2557503332145b15610c3257610c326112e1565b610c3d828233611436565b5050600160005550565b6001546001600160a01b03163314610c715760405162461bcd60e51b815260040161035490611aaf565b6001600160a01b038116610cd65760405162461bcd60e51b815260206004820152602660248201527f4f776e61626c653a206e6577206f776e657220697320746865207a65726f206160448201526564647265737360d01b6064820152608401610354565b610529816113e4565b600080600060038681548110610cf757610cf7611c45565b600091825260208083208984526004825260408085203386529092529083205460029092020192509050600060038881548110610d3657610d36611c45565b600091825260209182902060016002909202010154604080516342da4eb360e01b815290516001600160a01b03909216926342da4eb392600480840193829003018186803b158015610d8757600080fd5b505afa158015610d9b573d6000803e3d6000fd5b505050506040513d601f19601f82011682018060405250810190610dbf9190611996565b905060038881548110610dd457610dd4611c45565b60009182526020918290206001600290920201015460408051632251caaf60e11b815290516001600160a01b03909216926344a3955e92600480840193829003018186803b158015610e2557600080fd5b505afa158015610e39573d6000803e3d6000fd5b505050506040513d601f19601f82011682018060405250810190610e5d9190611996565b945060008211610ea15760405162461bcd60e51b815260206004820152600f60248201526e075736572536861726573206973203608c1b6044820152606401610354565b60008511610ee45760405162461bcd60e51b815260206004820152601060248201526f0736861726573546f74616c20697320360841b6044820152606401610354565b600085610ef18385611bb2565b610efb9190611b90565b905080881115610f09578097505b87156110805760038981548110610f2257610f22611c45565b600091825260209091206002909102016001015460405163f3fef3a360e01b8152336004820152602481018a90526001600160a01b039091169063f3fef3a390604401602060405180830381600087803b158015610f7f57600080fd5b505af1158015610f93573d6000803e3d6000fd5b505050506040513d601f19601f82011682018060405250810190610fb79190611996565b945082851115610fd257610fcc8933856115a2565b50610fdf565b610fdd8933876115a2565b505b83546040516370a0823160e01b81523060048201526000916001600160a01b0316906370a082319060240160206040518083038186803b15801561102257600080fd5b505afa158015611036573d6000803e3d6000fd5b505050506040513d601f19601f8201168201806040525081019061105a9190611996565b905088811015611068578098505b845461107e906001600160a01b0316898b611607565b505b604051888152899033907ff279e6a1f5e320cca91135676d9cb6e44ca8a08c0b88342bcdb1144f6511b5689060200160405180910390a350505050935093915050565b80158061114c5750604051636eb1769f60e11b81523060048201526001600160a01b03838116602483015284169063dd62ed3e9060440160206040518083038186803b15801561111257600080fd5b505afa158015611126573d6000803e3d6000fd5b505050506040513d601f19601f8201168201806040525081019061114a9190611996565b155b6111b75760405162461bcd60e51b815260206004820152603660248201527f5361666545524332303a20617070726f76652066726f6d206e6f6e2d7a65726f60448201527520746f206e6f6e2d7a65726f20616c6c6f77616e636560501b6064820152608401610354565b6040516001600160a01b03831660248201526044810182905261094390849063095ea7b360e01b906064015b60408051601f198184030181529190526020810180516001600160e01b03166001600160e01b031990931692909217909152611637565b604051636eb1769f60e11b81523060048201526001600160a01b038381166024830152600091839186169063dd62ed3e9060440160206040518083038186803b15801561126657600080fd5b505afa15801561127a573d6000803e3d6000fd5b505050506040513d601f19601f8201168201806040525081019061129e9190611996565b6112a89190611b78565b6040516001600160a01b0385166024820152604481018290529091506112db90859063095ea7b360e01b906064016111e3565b50505050565b60035460005b81811015610473576003818154811061130257611302611c45565b600091825260208220600160029092020101546040805163d389800f60e01b815290516001600160a01b039092169263d389800f9260048084019382900301818387803b15801561135257600080fd5b505af1925050508015611363575060015b6113d2573d808015611391576040519150601f19603f3d011682016040523d82523d6000602084013e611396565b606091505b507fae452807c2b0698ea0d198e28dab35283cbb33b5ffd82a4dc799e21279d0a63082826040516113c8929190611b5f565b60405180910390a1505b806113dc81611c14565b9150506112e7565b600180546001600160a01b038381166001600160a01b0319831681179093556040519116919082907f8be0079c531659141344cd1fd0a4f28419497f9722a3daafe3b4186f6b6457e090600090a35050565b6000806003858154811061144c5761144c611c45565b600091825260208083208884526004825260408085206001600160a01b03891686529092529083205460029092020192509050841561155557815461149c906001600160a01b0316333088611709565b600386815481106114af576114af611c45565b60009182526020909120600290910201600101546040516311f9fbc960e21b81526001600160a01b03868116600483015260248201889052909116906347e7ef2490604401602060405180830381600087803b15801561150e57600080fd5b505af1158015611522573d6000803e3d6000fd5b505050506040513d601f19601f820116820180604052508101906115469190611996565b9250611553868585611741565b505b85846001600160a01b03167f90890809c654f11d6e72a28fa60149770a0d11ec6c92319d6ceb2bb0a4ea1a158760405161159191815260200190565b60405180910390a350509392505050565b60008381526004602090815260408083206001600160a01b03861684529091528120805483919083906115d6908490611bd1565b90915550505060008381526004602090815260408083206001600160a01b03861684529091529020545b9392505050565b6040516001600160a01b03831660248201526044810182905261094390849063a9059cbb60e01b906064016111e3565b600061168c826040518060400160405280602081526020017f5361666545524332303a206c6f772d6c6576656c2063616c6c206661696c6564815250856001600160a01b03166117759092919063ffffffff16565b80519091501561094357808060200190518101906116aa9190611960565b6109435760405162461bcd60e51b815260206004820152602a60248201527f5361666545524332303a204552433230206f7065726174696f6e20646964206e6044820152691bdd081cdd58d8d9595960b21b6064820152608401610354565b6040516001600160a01b03808516602483015283166044820152606481018290526112db9085906323b872dd60e01b906084016111e3565b60008381526004602090815260408083206001600160a01b03861684529091528120805483919083906115d6908490611b78565b6060611784848460008561178c565b949350505050565b6060824710156117ed5760405162461bcd60e51b815260206004820152602660248201527f416464726573733a20696e73756666696369656e742062616c616e636520666f6044820152651c8818d85b1b60d21b6064820152608401610354565b843b61183b5760405162461bcd60e51b815260206004820152601d60248201527f416464726573733a2063616c6c20746f206e6f6e2d636f6e74726163740000006044820152606401610354565b600080866001600160a01b031685876040516118579190611a80565b60006040518083038185875af1925050503d8060008114611894576040519150601f19603f3d011682016040523d82523d6000602084013e611899565b606091505b50915091506118a98282866118b4565b979650505050505050565b606083156118c3575081611600565b8251156118d35782518084602001fd5b8160405162461bcd60e51b81526004016103549190611a9c565b6000602082840312156118ff57600080fd5b813561160081611c5b565b60006020828403121561191c57600080fd5b815161160081611c5b565b6000806040838503121561193a57600080fd5b823561194581611c5b565b9150602083013561195581611c70565b809150509250929050565b60006020828403121561197257600080fd5b815161160081611c70565b60006020828403121561198f57600080fd5b5035919050565b6000602082840312156119a857600080fd5b5051919050565b600080604083850312156119c257600080fd5b82359150602083013561195581611c5b565b600080604083850312156119e757600080fd5b82359150602083013561195581611c70565b60008060408385031215611a0c57600080fd5b50508035926020909101359150565b600080600060608486031215611a3057600080fd5b83359250602084013591506040840135611a4981611c5b565b809150509250925092565b60008151808452611a6c816020860160208601611be8565b601f01601f19169290920160200192915050565b60008251611a92818460208701611be8565b9190910192915050565b6020815260006116006020830184611a54565b6020808252818101527f4f776e61626c653a2063616c6c6572206973206e6f7420746865206f776e6572604082015260600190565b6020808252601f908201527f5265656e7472616e637947756172643a207265656e7472616e742063616c6c00604082015260600190565b60208082526024908201527f4f70657261746f723a2063616c6c6572206973206e6f7420746865206f70657260408201526330ba37b960e11b606082015260800190565b8281526040602082015260006117846040830184611a54565b60008219821115611b8b57611b8b611c2f565b500190565b600082611bad57634e487b7160e01b600052601260045260246000fd5b500490565b6000816000190483118215151615611bcc57611bcc611c2f565b500290565b600082821015611be357611be3611c2f565b500390565b60005b83811015611c03578181015183820152602001611beb565b838111156112db5750506000910152565b6000600019821415611c2857611c28611c2f565b5060010190565b634e487b7160e01b600052601160045260246000fd5b634e487b7160e01b600052603260045260246000fd5b6001600160a01b038116811461052957600080fd5b801515811461052957600080fdfea264697066735822122057e56ac0a1019369a0c027f3f9427c2567c1f954a813cf0ead190a4fcdbb4c3564736f6c63430008070033",
			"opcodes": "PUSH1 0x80 PUSH1 0x40 MSTORE PUSH1 0x1 PUSH1 0x6 DUP2 SWAP1 SSTORE PUSH1 0x7 DUP1 SLOAD PUSH1 0xFF NOT AND SWAP1 SWAP2 OR SWAP1 SSTORE CALLVALUE DUP1 ISZERO PUSH2 0x24 JUMPI PUSH1 0x0 DUP1 REVERT JUMPDEST POP PUSH1 0x1 PUSH1 0x0 SSTORE PUSH2 0x33 CALLER PUSH2 0x38 JUMP JUMPDEST PUSH2 0x8A JUMP JUMPDEST PUSH1 0x1 DUP1 SLOAD PUSH1 0x1 PUSH1 0x1 PUSH1 0xA0 SHL SUB DUP4 DUP2 AND PUSH1 0x1 PUSH1 0x1 PUSH1 0xA0 SHL SUB NOT DUP4 AND DUP2 OR SWAP1 SWAP4 SSTORE PUSH1 0x40 MLOAD SWAP2 AND SWAP2 SWAP1 DUP3 SWAP1 PUSH32 0x8BE0079C531659141344CD1FD0A4F28419497F9722A3DAAFE3B4186F6B6457E0 SWAP1 PUSH1 0x0 SWAP1 LOG3 POP POP JUMP JUMPDEST PUSH2 0x1CB4 DUP1 PUSH2 0x99 PUSH1 0x0 CODECOPY PUSH1 0x0 RETURN INVALID PUSH1 0x80 PUSH1 0x40 MSTORE CALLVALUE DUP1 ISZERO PUSH2 0x10 JUMPI PUSH1 0x0 DUP1 REVERT JUMPDEST POP PUSH1 0x4 CALLDATASIZE LT PUSH2 0x142 JUMPI PUSH1 0x0 CALLDATALOAD PUSH1 0xE0 SHR DUP1 PUSH4 0x715018A6 GT PUSH2 0xB8 JUMPI DUP1 PUSH4 0x958E2D31 GT PUSH2 0x7C JUMPI DUP1 PUSH4 0x958E2D31 EQ PUSH2 0x2D0 JUMPI DUP1 PUSH4 0x9B05DDB3 EQ PUSH2 0x2E3 JUMPI DUP1 PUSH4 0xD914CD4B EQ PUSH2 0x2EB JUMPI DUP1 PUSH4 0xE2BBB158 EQ PUSH2 0x2FE JUMPI DUP1 PUSH4 0xE2FF2F47 EQ PUSH2 0x311 JUMPI DUP1 PUSH4 0xF2FDE38B EQ PUSH2 0x31E JUMPI PUSH1 0x0 DUP1 REVERT JUMPDEST DUP1 PUSH4 0x715018A6 EQ PUSH2 0x266 JUMPI DUP1 PUSH4 0x7B84DAEC EQ PUSH2 0x26E JUMPI DUP1 PUSH4 0x8DA5CB5B EQ PUSH2 0x281 JUMPI DUP1 PUSH4 0x8DBDBE6D EQ PUSH2 0x292 JUMPI DUP1 PUSH4 0x93F1A40B EQ PUSH2 0x2A5 JUMPI PUSH1 0x0 DUP1 REVERT JUMPDEST DUP1 PUSH4 0x2449447A GT PUSH2 0x10A JUMPI DUP1 PUSH4 0x2449447A EQ PUSH2 0x1EC JUMPI DUP1 PUSH4 0x3505B09F EQ PUSH2 0x21C JUMPI DUP1 PUSH4 0x3D4FC8D1 EQ PUSH2 0x224 JUMPI DUP1 PUSH4 0x441A3E70 EQ PUSH2 0x237 JUMPI DUP1 PUSH4 0x5D142D07 EQ PUSH2 0x24A JUMPI DUP1 PUSH4 0x6D44A3B2 EQ PUSH2 0x253 JUMPI PUSH1 0x0 DUP1 REVERT JUMPDEST DUP1 PUSH4 0x81E3EDA EQ PUSH2 0x147 JUMPI DUP1 PUSH4 0xAD58D2F EQ PUSH2 0x15E JUMPI DUP1 PUSH4 0x13E7C9D8 EQ PUSH2 0x173 JUMPI DUP1 PUSH4 0x1526FE27 EQ PUSH2 0x1A6 JUMPI DUP1 PUSH4 0x23E1AD7D EQ PUSH2 0x1D9 JUMPI JUMPDEST PUSH1 0x0 DUP1 REVERT JUMPDEST PUSH1 0x3 SLOAD JUMPDEST PUSH1 0x40 MLOAD SWAP1 DUP2 MSTORE PUSH1 0x20 ADD JUMPDEST PUSH1 0x40 MLOAD DUP1 SWAP2 SUB SWAP1 RETURN JUMPDEST PUSH2 0x171 PUSH2 0x16C CALLDATASIZE PUSH1 0x4 PUSH2 0x1A1B JUMP JUMPDEST PUSH2 0x331 JUMP JUMPDEST STOP JUMPDEST PUSH2 0x196 PUSH2 0x181 CALLDATASIZE PUSH1 0x4 PUSH2 0x18ED JUMP JUMPDEST PUSH1 0x2 PUSH1 0x20 MSTORE PUSH1 0x0 SWAP1 DUP2 MSTORE PUSH1 0x40 SWAP1 KECCAK256 SLOAD PUSH1 0xFF AND DUP2 JUMP JUMPDEST PUSH1 0x40 MLOAD SWAP1 ISZERO ISZERO DUP2 MSTORE PUSH1 0x20 ADD PUSH2 0x155 JUMP JUMPDEST PUSH2 0x1B9 PUSH2 0x1B4 CALLDATASIZE PUSH1 0x4 PUSH2 0x197D JUMP JUMPDEST PUSH2 0x3A8 JUMP JUMPDEST PUSH1 0x40 DUP1 MLOAD PUSH1 0x1 PUSH1 0x1 PUSH1 0xA0 SHL SUB SWAP4 DUP5 AND DUP2 MSTORE SWAP3 SWAP1 SWAP2 AND PUSH1 0x20 DUP4 ADD MSTORE ADD PUSH2 0x155 JUMP JUMPDEST PUSH2 0x171 PUSH2 0x1E7 CALLDATASIZE PUSH1 0x4 PUSH2 0x197D JUMP JUMPDEST PUSH2 0x3E1 JUMP JUMPDEST PUSH1 0x7 SLOAD PUSH2 0x204 SWAP1 PUSH2 0x100 SWAP1 DIV PUSH1 0x1 PUSH1 0x1 PUSH1 0xA0 SHL SUB AND DUP2 JUMP JUMPDEST PUSH1 0x40 MLOAD PUSH1 0x1 PUSH1 0x1 PUSH1 0xA0 SHL SUB SWAP1 SWAP2 AND DUP2 MSTORE PUSH1 0x20 ADD PUSH2 0x155 JUMP JUMPDEST PUSH2 0x171 PUSH2 0x477 JUMP JUMPDEST PUSH2 0x171 PUSH2 0x232 CALLDATASIZE PUSH1 0x4 PUSH2 0x19D4 JUMP JUMPDEST PUSH2 0x52C JUMP JUMPDEST PUSH2 0x171 PUSH2 0x245 CALLDATASIZE PUSH1 0x4 PUSH2 0x19F9 JUMP JUMPDEST PUSH2 0x5AA JUMP JUMPDEST PUSH2 0x14B PUSH1 0x6 SLOAD DUP2 JUMP JUMPDEST PUSH2 0x171 PUSH2 0x261 CALLDATASIZE PUSH1 0x4 PUSH2 0x1927 JUMP JUMPDEST PUSH2 0x637 JUMP JUMPDEST PUSH2 0x171 PUSH2 0x6B5 JUMP JUMPDEST PUSH2 0x14B PUSH2 0x27C CALLDATASIZE PUSH1 0x4 PUSH2 0x19AF JUMP JUMPDEST PUSH2 0x6EB JUMP JUMPDEST PUSH1 0x1 SLOAD PUSH1 0x1 PUSH1 0x1 PUSH1 0xA0 SHL SUB AND PUSH2 0x204 JUMP JUMPDEST PUSH2 0x171 PUSH2 0x2A0 CALLDATASIZE PUSH1 0x4 PUSH2 0x1A1B JUMP JUMPDEST PUSH2 0x885 JUMP JUMPDEST PUSH2 0x14B PUSH2 0x2B3 CALLDATASIZE PUSH1 0x4 PUSH2 0x19AF JUMP JUMPDEST PUSH1 0x4 PUSH1 0x20 SWAP1 DUP2 MSTORE PUSH1 0x0 SWAP3 DUP4 MSTORE PUSH1 0x40 DUP1 DUP5 KECCAK256 SWAP1 SWAP2 MSTORE SWAP1 DUP3 MSTORE SWAP1 KECCAK256 SLOAD DUP2 JUMP JUMPDEST PUSH2 0x171 PUSH2 0x2DE CALLDATASIZE PUSH1 0x4 PUSH2 0x197D JUMP JUMPDEST PUSH2 0x8E7 JUMP JUMPDEST PUSH2 0x171 PUSH2 0x948 JUMP JUMPDEST PUSH2 0x171 PUSH2 0x2F9 CALLDATASIZE PUSH1 0x4 PUSH2 0x18ED JUMP JUMPDEST PUSH2 0x9D1 JUMP JUMPDEST PUSH2 0x171 PUSH2 0x30C CALLDATASIZE PUSH1 0x4 PUSH2 0x19F9 JUMP JUMPDEST PUSH2 0xBBB JUMP JUMPDEST PUSH1 0x7 SLOAD PUSH2 0x196 SWAP1 PUSH1 0xFF AND DUP2 JUMP JUMPDEST PUSH2 0x171 PUSH2 0x32C CALLDATASIZE PUSH1 0x4 PUSH2 0x18ED JUMP JUMPDEST PUSH2 0xC47 JUMP JUMPDEST PUSH1 0x2 PUSH1 0x0 SLOAD EQ ISZERO PUSH2 0x35D JUMPI PUSH1 0x40 MLOAD PUSH3 0x461BCD PUSH1 0xE5 SHL DUP2 MSTORE PUSH1 0x4 ADD PUSH2 0x354 SWAP1 PUSH2 0x1AE4 JUMP JUMPDEST PUSH1 0x40 MLOAD DUP1 SWAP2 SUB SWAP1 REVERT JUMPDEST PUSH1 0x2 PUSH1 0x0 DUP2 DUP2 SSTORE CALLER DUP2 MSTORE PUSH1 0x20 SWAP2 SWAP1 SWAP2 MSTORE PUSH1 0x40 SWAP1 KECCAK256 SLOAD PUSH1 0xFF AND PUSH2 0x391 JUMPI PUSH1 0x40 MLOAD PUSH3 0x461BCD PUSH1 0xE5 SHL DUP2 MSTORE PUSH1 0x4 ADD PUSH2 0x354 SWAP1 PUSH2 0x1B1B JUMP JUMPDEST PUSH2 0x39C DUP4 DUP4 DUP4 PUSH2 0xCDF JUMP JUMPDEST POP POP PUSH1 0x1 PUSH1 0x0 SSTORE POP POP POP JUMP JUMPDEST PUSH1 0x3 DUP2 DUP2 SLOAD DUP2 LT PUSH2 0x3B8 JUMPI PUSH1 0x0 DUP1 REVERT JUMPDEST PUSH1 0x0 SWAP2 DUP3 MSTORE PUSH1 0x20 SWAP1 SWAP2 KECCAK256 PUSH1 0x2 SWAP1 SWAP2 MUL ADD DUP1 SLOAD PUSH1 0x1 SWAP1 SWAP2 ADD SLOAD PUSH1 0x1 PUSH1 0x1 PUSH1 0xA0 SHL SUB SWAP2 DUP3 AND SWAP3 POP AND DUP3 JUMP JUMPDEST PUSH1 0x1 SLOAD PUSH1 0x1 PUSH1 0x1 PUSH1 0xA0 SHL SUB AND CALLER EQ PUSH2 0x40B JUMPI PUSH1 0x40 MLOAD PUSH3 0x461BCD PUSH1 0xE5 SHL DUP2 MSTORE PUSH1 0x4 ADD PUSH2 0x354 SWAP1 PUSH2 0x1AAF JUMP JUMPDEST PUSH1 0x0 PUSH1 0x3 DUP3 DUP2 SLOAD DUP2 LT PUSH2 0x420 JUMPI PUSH2 0x420 PUSH2 0x1C45 JUMP JUMPDEST PUSH1 0x0 SWAP2 DUP3 MSTORE PUSH1 0x20 DUP3 KECCAK256 PUSH1 0x1 PUSH1 0x2 SWAP1 SWAP3 MUL ADD SWAP1 DUP2 ADD SLOAD DUP2 SLOAD SWAP2 SWAP4 POP PUSH2 0x453 SWAP3 PUSH1 0x1 PUSH1 0x1 PUSH1 0xA0 SHL SUB SWAP3 DUP4 AND SWAP3 SWAP1 SWAP2 AND SWAP1 PUSH2 0x10C3 JUMP JUMPDEST PUSH1 0x1 DUP2 ADD SLOAD DUP2 SLOAD PUSH2 0x473 SWAP2 PUSH1 0x1 PUSH1 0x1 PUSH1 0xA0 SHL SUB SWAP2 DUP3 AND SWAP2 AND PUSH1 0x0 NOT PUSH2 0x121A JUMP JUMPDEST POP POP JUMP JUMPDEST PUSH1 0x1 SLOAD PUSH1 0x1 PUSH1 0x1 PUSH1 0xA0 SHL SUB AND CALLER EQ PUSH2 0x4A1 JUMPI PUSH1 0x40 MLOAD PUSH3 0x461BCD PUSH1 0xE5 SHL DUP2 MSTORE PUSH1 0x4 ADD PUSH2 0x354 SWAP1 PUSH2 0x1AAF JUMP JUMPDEST PUSH1 0x0 JUMPDEST PUSH1 0x3 SLOAD DUP2 LT ISZERO PUSH2 0x529 JUMPI PUSH1 0x0 PUSH1 0x3 DUP3 DUP2 SLOAD DUP2 LT PUSH2 0x4C3 JUMPI PUSH2 0x4C3 PUSH2 0x1C45 JUMP JUMPDEST PUSH1 0x0 SWAP2 DUP3 MSTORE PUSH1 0x20 DUP3 KECCAK256 PUSH1 0x1 PUSH1 0x2 SWAP1 SWAP3 MUL ADD SWAP1 DUP2 ADD SLOAD DUP2 SLOAD SWAP2 SWAP4 POP PUSH2 0x4F6 SWAP3 PUSH1 0x1 PUSH1 0x1 PUSH1 0xA0 SHL SUB SWAP3 DUP4 AND SWAP3 SWAP1 SWAP2 AND SWAP1 PUSH2 0x10C3 JUMP JUMPDEST PUSH1 0x1 DUP2 ADD SLOAD DUP2 SLOAD PUSH2 0x516 SWAP2 PUSH1 0x1 PUSH1 0x1 PUSH1 0xA0 SHL SUB SWAP2 DUP3 AND SWAP2 AND PUSH1 0x0 NOT PUSH2 0x121A JUMP JUMPDEST POP DUP1 PUSH2 0x521 DUP2 PUSH2 0x1C14 JUMP JUMPDEST SWAP2 POP POP PUSH2 0x4A4 JUMP JUMPDEST POP JUMP JUMPDEST PUSH1 0x1 SLOAD PUSH1 0x1 PUSH1 0x1 PUSH1 0xA0 SHL SUB AND CALLER EQ PUSH2 0x556 JUMPI PUSH1 0x40 MLOAD PUSH3 0x461BCD PUSH1 0xE5 SHL DUP2 MSTORE PUSH1 0x4 ADD PUSH2 0x354 SWAP1 PUSH2 0x1AAF JUMP JUMPDEST PUSH1 0x6 DUP3 SWAP1 SSTORE PUSH1 0x7 DUP1 SLOAD PUSH1 0xFF NOT AND DUP3 ISZERO ISZERO SWAP1 DUP2 OR SWAP1 SWAP2 SSTORE PUSH1 0x40 DUP1 MLOAD DUP5 DUP2 MSTORE PUSH1 0x20 DUP2 ADD SWAP3 SWAP1 SWAP3 MSTORE PUSH32 0xEBA593B5BD3E604F0314995A4D3B960CC02497E58ADDCB6F2F5B03B3308500F4 SWAP2 ADD PUSH1 0x40 MLOAD DUP1 SWAP2 SUB SWAP1 LOG1 POP POP JUMP JUMPDEST PUSH1 0x2 PUSH1 0x0 SLOAD EQ ISZERO PUSH2 0x5CD JUMPI PUSH1 0x40 MLOAD PUSH3 0x461BCD PUSH1 0xE5 SHL DUP2 MSTORE PUSH1 0x4 ADD PUSH2 0x354 SWAP1 PUSH2 0x1AE4 JUMP JUMPDEST PUSH1 0x2 PUSH1 0x0 SSTORE PUSH1 0x7 SLOAD PUSH1 0xFF AND DUP1 ISZERO PUSH2 0x614 JUMPI POP PUSH1 0x6 SLOAD ISZERO DUP1 PUSH2 0x5FD JUMPI POP CALLER PUSH1 0x0 SWAP1 DUP2 MSTORE PUSH1 0x2 PUSH1 0x20 MSTORE PUSH1 0x40 SWAP1 KECCAK256 SLOAD PUSH1 0xFF AND JUMPDEST DUP1 PUSH2 0x614 JUMPI POP PUSH1 0x6 SLOAD PUSH1 0x1 EQ DUP1 ISZERO PUSH2 0x614 JUMPI POP CALLER ORIGIN EQ JUMPDEST ISZERO PUSH2 0x621 JUMPI PUSH2 0x621 PUSH2 0x12E1 JUMP JUMPDEST PUSH2 0x62C DUP3 DUP3 CALLER PUSH2 0xCDF JUMP JUMPDEST POP POP PUSH1 0x1 PUSH1 0x0 SSTORE POP POP JUMP JUMPDEST PUSH1 0x1 SLOAD PUSH1 0x1 PUSH1 0x1 PUSH1 0xA0 SHL SUB AND CALLER EQ PUSH2 0x661 JUMPI PUSH1 0x40 MLOAD PUSH3 0x461BCD PUSH1 0xE5 SHL DUP2 MSTORE PUSH1 0x4 ADD PUSH2 0x354 SWAP1 PUSH2 0x1AAF JUMP JUMPDEST PUSH1 0x1 PUSH1 0x1 PUSH1 0xA0 SHL SUB DUP3 AND PUSH1 0x0 DUP2 DUP2 MSTORE PUSH1 0x2 PUSH1 0x20 MSTORE PUSH1 0x40 DUP1 DUP3 KECCAK256 DUP1 SLOAD PUSH1 0xFF NOT AND DUP6 ISZERO ISZERO SWAP1 DUP2 OR SWAP1 SWAP2 SSTORE SWAP1 MLOAD SWAP1 SWAP3 SWAP2 PUSH32 0x966C160E1C4DBC7DF8D69AF4ACE01E9297C3CF016397B7914971F2FBFA32672D SWAP2 LOG3 POP POP JUMP JUMPDEST PUSH1 0x1 SLOAD PUSH1 0x1 PUSH1 0x1 PUSH1 0xA0 SHL SUB AND CALLER EQ PUSH2 0x6DF JUMPI PUSH1 0x40 MLOAD PUSH3 0x461BCD PUSH1 0xE5 SHL DUP2 MSTORE PUSH1 0x4 ADD PUSH2 0x354 SWAP1 PUSH2 0x1AAF JUMP JUMPDEST PUSH2 0x6E9 PUSH1 0x0 PUSH2 0x13E4 JUMP JUMPDEST JUMP JUMPDEST PUSH1 0x0 DUP1 PUSH1 0x3 DUP5 DUP2 SLOAD DUP2 LT PUSH2 0x701 JUMPI PUSH2 0x701 PUSH2 0x1C45 JUMP JUMPDEST PUSH1 0x0 SWAP2 DUP3 MSTORE PUSH1 0x20 DUP1 DUP4 KECCAK256 DUP8 DUP5 MSTORE PUSH1 0x4 DUP1 DUP4 MSTORE PUSH1 0x40 DUP1 DUP7 KECCAK256 PUSH1 0x1 PUSH1 0x1 PUSH1 0xA0 SHL SUB DUP1 DUP12 AND DUP9 MSTORE SWAP1 DUP6 MSTORE DUP2 DUP8 KECCAK256 PUSH1 0x1 PUSH1 0x2 SWAP1 SWAP8 MUL SWAP1 SWAP5 ADD SWAP6 DUP7 ADD SLOAD DUP3 MLOAD PUSH4 0x2251CAAF PUSH1 0xE1 SHL DUP2 MSTORE SWAP3 MLOAD SWAP7 SWAP9 POP SWAP4 SWAP7 SWAP6 SWAP4 AND SWAP4 PUSH4 0x44A3955E SWAP4 DUP3 DUP5 ADD SWAP4 SWAP2 SWAP3 SWAP1 SWAP2 SWAP1 DUP3 SWAP1 SUB ADD DUP2 DUP7 DUP1 EXTCODESIZE ISZERO DUP1 ISZERO PUSH2 0x773 JUMPI PUSH1 0x0 DUP1 REVERT JUMPDEST POP GAS STATICCALL ISZERO DUP1 ISZERO PUSH2 0x787 JUMPI RETURNDATASIZE PUSH1 0x0 DUP1 RETURNDATACOPY RETURNDATASIZE PUSH1 0x0 REVERT JUMPDEST POP POP POP POP PUSH1 0x40 MLOAD RETURNDATASIZE PUSH1 0x1F NOT PUSH1 0x1F DUP3 ADD AND DUP3 ADD DUP1 PUSH1 0x40 MSTORE POP DUP2 ADD SWAP1 PUSH2 0x7AB SWAP2 SWAP1 PUSH2 0x1996 JUMP JUMPDEST SWAP1 POP PUSH1 0x0 PUSH1 0x3 DUP8 DUP2 SLOAD DUP2 LT PUSH2 0x7C2 JUMPI PUSH2 0x7C2 PUSH2 0x1C45 JUMP JUMPDEST PUSH1 0x0 SWAP2 DUP3 MSTORE PUSH1 0x20 SWAP2 DUP3 SWAP1 KECCAK256 PUSH1 0x1 PUSH1 0x2 SWAP1 SWAP3 MUL ADD ADD SLOAD PUSH1 0x40 DUP1 MLOAD PUSH4 0x42DA4EB3 PUSH1 0xE0 SHL DUP2 MSTORE SWAP1 MLOAD PUSH1 0x1 PUSH1 0x1 PUSH1 0xA0 SHL SUB SWAP1 SWAP3 AND SWAP3 PUSH4 0x42DA4EB3 SWAP3 PUSH1 0x4 DUP1 DUP5 ADD SWAP4 DUP3 SWAP1 SUB ADD DUP2 DUP7 DUP1 EXTCODESIZE ISZERO DUP1 ISZERO PUSH2 0x813 JUMPI PUSH1 0x0 DUP1 REVERT JUMPDEST POP GAS STATICCALL ISZERO DUP1 ISZERO PUSH2 0x827 JUMPI RETURNDATASIZE PUSH1 0x0 DUP1 RETURNDATACOPY RETURNDATASIZE PUSH1 0x0 REVERT JUMPDEST POP POP POP POP PUSH1 0x40 MLOAD RETURNDATASIZE PUSH1 0x1F NOT PUSH1 0x1F DUP3 ADD AND DUP3 ADD DUP1 PUSH1 0x40 MSTORE POP DUP2 ADD SWAP1 PUSH2 0x84B SWAP2 SWAP1 PUSH2 0x1996 JUMP JUMPDEST SWAP1 POP DUP2 PUSH2 0x85F JUMPI PUSH1 0x0 SWAP5 POP POP POP POP POP PUSH2 0x87F JUMP JUMPDEST DUP3 SLOAD DUP3 SWAP1 PUSH2 0x86E SWAP1 DUP4 SWAP1 PUSH2 0x1BB2 JUMP JUMPDEST PUSH2 0x878 SWAP2 SWAP1 PUSH2 0x1B90 JUMP JUMPDEST SWAP5 POP POP POP POP POP JUMPDEST SWAP3 SWAP2 POP POP JUMP JUMPDEST PUSH1 0x2 PUSH1 0x0 SLOAD EQ ISZERO PUSH2 0x8A8 JUMPI PUSH1 0x40 MLOAD PUSH3 0x461BCD PUSH1 0xE5 SHL DUP2 MSTORE PUSH1 0x4 ADD PUSH2 0x354 SWAP1 PUSH2 0x1AE4 JUMP JUMPDEST PUSH1 0x2 PUSH1 0x0 DUP2 DUP2 SSTORE CALLER DUP2 MSTORE PUSH1 0x20 SWAP2 SWAP1 SWAP2 MSTORE PUSH1 0x40 SWAP1 KECCAK256 SLOAD PUSH1 0xFF AND PUSH2 0x8DC JUMPI PUSH1 0x40 MLOAD PUSH3 0x461BCD PUSH1 0xE5 SHL DUP2 MSTORE PUSH1 0x4 ADD PUSH2 0x354 SWAP1 PUSH2 0x1B1B JUMP JUMPDEST PUSH2 0x62C DUP4 DUP4 DUP4 PUSH2 0x1436 JUMP JUMPDEST PUSH1 0x7 SLOAD PUSH1 0xFF AND DUP1 ISZERO PUSH2 0x929 JUMPI POP PUSH1 0x6 SLOAD ISZERO DUP1 PUSH2 0x912 JUMPI POP CALLER PUSH1 0x0 SWAP1 DUP2 MSTORE PUSH1 0x2 PUSH1 0x20 MSTORE PUSH1 0x40 SWAP1 KECCAK256 SLOAD PUSH1 0xFF AND JUMPDEST DUP1 PUSH2 0x929 JUMPI POP PUSH1 0x6 SLOAD PUSH1 0x1 EQ DUP1 ISZERO PUSH2 0x929 JUMPI POP CALLER ORIGIN EQ JUMPDEST ISZERO PUSH2 0x936 JUMPI PUSH2 0x936 PUSH2 0x12E1 JUMP JUMPDEST PUSH2 0x943 DUP2 PUSH1 0x0 NOT CALLER PUSH2 0xCDF JUMP JUMPDEST POP POP POP JUMP JUMPDEST PUSH1 0x6 SLOAD ISZERO DUP1 PUSH2 0x966 JUMPI POP CALLER PUSH1 0x0 SWAP1 DUP2 MSTORE PUSH1 0x2 PUSH1 0x20 MSTORE PUSH1 0x40 SWAP1 KECCAK256 SLOAD PUSH1 0xFF AND JUMPDEST DUP1 PUSH2 0x97D JUMPI POP PUSH1 0x6 SLOAD PUSH1 0x1 EQ DUP1 ISZERO PUSH2 0x97D JUMPI POP CALLER ORIGIN EQ JUMPDEST PUSH2 0x9C9 JUMPI PUSH1 0x40 MLOAD PUSH3 0x461BCD PUSH1 0xE5 SHL DUP2 MSTORE PUSH1 0x20 PUSH1 0x4 DUP3 ADD MSTORE PUSH1 0x19 PUSH1 0x24 DUP3 ADD MSTORE PUSH32 0x436F6D706F756E64696E67206973207265737472696374656400000000000000 PUSH1 0x44 DUP3 ADD MSTORE PUSH1 0x64 ADD PUSH2 0x354 JUMP JUMPDEST PUSH2 0x6E9 PUSH2 0x12E1 JUMP JUMPDEST PUSH1 0x1 SLOAD PUSH1 0x1 PUSH1 0x1 PUSH1 0xA0 SHL SUB AND CALLER EQ PUSH2 0x9FB JUMPI PUSH1 0x40 MLOAD PUSH3 0x461BCD PUSH1 0xE5 SHL DUP2 MSTORE PUSH1 0x4 ADD PUSH2 0x354 SWAP1 PUSH2 0x1AAF JUMP JUMPDEST PUSH1 0x2 PUSH1 0x0 SLOAD EQ ISZERO PUSH2 0xA1E JUMPI PUSH1 0x40 MLOAD PUSH3 0x461BCD PUSH1 0xE5 SHL DUP2 MSTORE PUSH1 0x4 ADD PUSH2 0x354 SWAP1 PUSH2 0x1AE4 JUMP JUMPDEST PUSH1 0x2 PUSH1 0x0 SWAP1 DUP2 SSTORE PUSH1 0x1 PUSH1 0x1 PUSH1 0xA0 SHL SUB DUP3 AND DUP2 MSTORE PUSH1 0x5 PUSH1 0x20 MSTORE PUSH1 0x40 SWAP1 KECCAK256 SLOAD PUSH1 0xFF AND ISZERO PUSH2 0xA7F JUMPI PUSH1 0x40 MLOAD PUSH3 0x461BCD PUSH1 0xE5 SHL DUP2 MSTORE PUSH1 0x20 PUSH1 0x4 DUP3 ADD MSTORE PUSH1 0x11 PUSH1 0x24 DUP3 ADD MSTORE PUSH17 0x4578697374696E67207374726174656779 PUSH1 0x78 SHL PUSH1 0x44 DUP3 ADD MSTORE PUSH1 0x64 ADD PUSH2 0x354 JUMP JUMPDEST PUSH1 0x3 PUSH1 0x40 MLOAD DUP1 PUSH1 0x40 ADD PUSH1 0x40 MSTORE DUP1 DUP4 PUSH1 0x1 PUSH1 0x1 PUSH1 0xA0 SHL SUB AND PUSH4 0xE7A03679 PUSH1 0x40 MLOAD DUP2 PUSH4 0xFFFFFFFF AND PUSH1 0xE0 SHL DUP2 MSTORE PUSH1 0x4 ADD PUSH1 0x20 PUSH1 0x40 MLOAD DUP1 DUP4 SUB DUP2 DUP7 DUP1 EXTCODESIZE ISZERO DUP1 ISZERO PUSH2 0xAC5 JUMPI PUSH1 0x0 DUP1 REVERT JUMPDEST POP GAS STATICCALL ISZERO DUP1 ISZERO PUSH2 0xAD9 JUMPI RETURNDATASIZE PUSH1 0x0 DUP1 RETURNDATACOPY RETURNDATASIZE PUSH1 0x0 REVERT JUMPDEST POP POP POP POP PUSH1 0x40 MLOAD RETURNDATASIZE PUSH1 0x1F NOT PUSH1 0x1F DUP3 ADD AND DUP3 ADD DUP1 PUSH1 0x40 MSTORE POP DUP2 ADD SWAP1 PUSH2 0xAFD SWAP2 SWAP1 PUSH2 0x190A JUMP JUMPDEST PUSH1 0x1 PUSH1 0x1 PUSH1 0xA0 SHL SUB SWAP1 DUP2 AND DUP3 MSTORE DUP5 DUP2 AND PUSH1 0x20 SWAP3 DUP4 ADD DUP2 SWAP1 MSTORE DUP5 SLOAD PUSH1 0x1 DUP2 DUP2 ADD DUP8 SSTORE PUSH1 0x0 SWAP7 DUP8 MSTORE DUP5 DUP8 KECCAK256 DUP7 MLOAD PUSH1 0x2 SWAP1 SWAP4 MUL ADD DUP1 SLOAD SWAP3 DUP6 AND PUSH1 0x1 PUSH1 0x1 PUSH1 0xA0 SHL SUB NOT SWAP4 DUP5 AND OR DUP2 SSTORE SWAP6 DUP6 ADD MLOAD SWAP6 DUP2 ADD DUP1 SLOAD SWAP7 SWAP1 SWAP5 AND SWAP6 SWAP1 SWAP2 AND SWAP5 SWAP1 SWAP5 OR SWAP1 SWAP2 SSTORE DUP4 MSTORE PUSH1 0x5 SWAP1 MSTORE PUSH1 0x40 SWAP1 SWAP2 KECCAK256 DUP1 SLOAD PUSH1 0xFF NOT AND DUP3 OR SWAP1 SSTORE PUSH1 0x3 SLOAD PUSH2 0xB7F SWAP2 PUSH2 0x1E7 SWAP2 PUSH2 0x1BD1 JUMP JUMPDEST PUSH1 0x40 MLOAD PUSH1 0x1 PUSH1 0x1 PUSH1 0xA0 SHL SUB DUP3 AND SWAP1 PUSH32 0x8C82D670BC9247C2CFB6964089BC9CFF0255F9CAADE6FBC74A13368083E55466 SWAP1 PUSH1 0x0 SWAP1 LOG2 POP PUSH1 0x1 PUSH1 0x0 SSTORE JUMP JUMPDEST PUSH1 0x2 PUSH1 0x0 SLOAD EQ ISZERO PUSH2 0xBDE JUMPI PUSH1 0x40 MLOAD PUSH3 0x461BCD PUSH1 0xE5 SHL DUP2 MSTORE PUSH1 0x4 ADD PUSH2 0x354 SWAP1 PUSH2 0x1AE4 JUMP JUMPDEST PUSH1 0x2 PUSH1 0x0 SSTORE PUSH1 0x7 SLOAD PUSH1 0xFF AND DUP1 ISZERO PUSH2 0xC25 JUMPI POP PUSH1 0x6 SLOAD ISZERO DUP1 PUSH2 0xC0E JUMPI POP CALLER PUSH1 0x0 SWAP1 DUP2 MSTORE PUSH1 0x2 PUSH1 0x20 MSTORE PUSH1 0x40 SWAP1 KECCAK256 SLOAD PUSH1 0xFF AND JUMPDEST DUP1 PUSH2 0xC25 JUMPI POP PUSH1 0x6 SLOAD PUSH1 0x1 EQ DUP1 ISZERO PUSH2 0xC25 JUMPI POP CALLER ORIGIN EQ JUMPDEST ISZERO PUSH2 0xC32 JUMPI PUSH2 0xC32 PUSH2 0x12E1 JUMP JUMPDEST PUSH2 0xC3D DUP3 DUP3 CALLER PUSH2 0x1436 JUMP JUMPDEST POP POP PUSH1 0x1 PUSH1 0x0 SSTORE POP JUMP JUMPDEST PUSH1 0x1 SLOAD PUSH1 0x1 PUSH1 0x1 PUSH1 0xA0 SHL SUB AND CALLER EQ PUSH2 0xC71 JUMPI PUSH1 0x40 MLOAD PUSH3 0x461BCD PUSH1 0xE5 SHL DUP2 MSTORE PUSH1 0x4 ADD PUSH2 0x354 SWAP1 PUSH2 0x1AAF JUMP JUMPDEST PUSH1 0x1 PUSH1 0x1 PUSH1 0xA0 SHL SUB DUP2 AND PUSH2 0xCD6 JUMPI PUSH1 0x40 MLOAD PUSH3 0x461BCD PUSH1 0xE5 SHL DUP2 MSTORE PUSH1 0x20 PUSH1 0x4 DUP3 ADD MSTORE PUSH1 0x26 PUSH1 0x24 DUP3 ADD MSTORE PUSH32 0x4F776E61626C653A206E6577206F776E657220697320746865207A65726F2061 PUSH1 0x44 DUP3 ADD MSTORE PUSH6 0x646472657373 PUSH1 0xD0 SHL PUSH1 0x64 DUP3 ADD MSTORE PUSH1 0x84 ADD PUSH2 0x354 JUMP JUMPDEST PUSH2 0x529 DUP2 PUSH2 0x13E4 JUMP JUMPDEST PUSH1 0x0 DUP1 PUSH1 0x0 PUSH1 0x3 DUP7 DUP2 SLOAD DUP2 LT PUSH2 0xCF7 JUMPI PUSH2 0xCF7 PUSH2 0x1C45 JUMP JUMPDEST PUSH1 0x0 SWAP2 DUP3 MSTORE PUSH1 0x20 DUP1 DUP4 KECCAK256 DUP10 DUP5 MSTORE PUSH1 0x4 DUP3 MSTORE PUSH1 0x40 DUP1 DUP6 KECCAK256 CALLER DUP7 MSTORE SWAP1 SWAP3 MSTORE SWAP1 DUP4 KECCAK256 SLOAD PUSH1 0x2 SWAP1 SWAP3 MUL ADD SWAP3 POP SWAP1 POP PUSH1 0x0 PUSH1 0x3 DUP9 DUP2 SLOAD DUP2 LT PUSH2 0xD36 JUMPI PUSH2 0xD36 PUSH2 0x1C45 JUMP JUMPDEST PUSH1 0x0 SWAP2 DUP3 MSTORE PUSH1 0x20 SWAP2 DUP3 SWAP1 KECCAK256 PUSH1 0x1 PUSH1 0x2 SWAP1 SWAP3 MUL ADD ADD SLOAD PUSH1 0x40 DUP1 MLOAD PUSH4 0x42DA4EB3 PUSH1 0xE0 SHL DUP2 MSTORE SWAP1 MLOAD PUSH1 0x1 PUSH1 0x1 PUSH1 0xA0 SHL SUB SWAP1 SWAP3 AND SWAP3 PUSH4 0x42DA4EB3 SWAP3 PUSH1 0x4 DUP1 DUP5 ADD SWAP4 DUP3 SWAP1 SUB ADD DUP2 DUP7 DUP1 EXTCODESIZE ISZERO DUP1 ISZERO PUSH2 0xD87 JUMPI PUSH1 0x0 DUP1 REVERT JUMPDEST POP GAS STATICCALL ISZERO DUP1 ISZERO PUSH2 0xD9B JUMPI RETURNDATASIZE PUSH1 0x0 DUP1 RETURNDATACOPY RETURNDATASIZE PUSH1 0x0 REVERT JUMPDEST POP POP POP POP PUSH1 0x40 MLOAD RETURNDATASIZE PUSH1 0x1F NOT PUSH1 0x1F DUP3 ADD AND DUP3 ADD DUP1 PUSH1 0x40 MSTORE POP DUP2 ADD SWAP1 PUSH2 0xDBF SWAP2 SWAP1 PUSH2 0x1996 JUMP JUMPDEST SWAP1 POP PUSH1 0x3 DUP9 DUP2 SLOAD DUP2 LT PUSH2 0xDD4 JUMPI PUSH2 0xDD4 PUSH2 0x1C45 JUMP JUMPDEST PUSH1 0x0 SWAP2 DUP3 MSTORE PUSH1 0x20 SWAP2 DUP3 SWAP1 KECCAK256 PUSH1 0x1 PUSH1 0x2 SWAP1 SWAP3 MUL ADD ADD SLOAD PUSH1 0x40 DUP1 MLOAD PUSH4 0x2251CAAF PUSH1 0xE1 SHL DUP2 MSTORE SWAP1 MLOAD PUSH1 0x1 PUSH1 0x1 PUSH1 0xA0 SHL SUB SWAP1 SWAP3 AND SWAP3 PUSH4 0x44A3955E SWAP3 PUSH1 0x4 DUP1 DUP5 ADD SWAP4 DUP3 SWAP1 SUB ADD DUP2 DUP7 DUP1 EXTCODESIZE ISZERO DUP1 ISZERO PUSH2 0xE25 JUMPI PUSH1 0x0 DUP1 REVERT JUMPDEST POP GAS STATICCALL ISZERO DUP1 ISZERO PUSH2 0xE39 JUMPI RETURNDATASIZE PUSH1 0x0 DUP1 RETURNDATACOPY RETURNDATASIZE PUSH1 0x0 REVERT JUMPDEST POP POP POP POP PUSH1 0x40 MLOAD RETURNDATASIZE PUSH1 0x1F NOT PUSH1 0x1F DUP3 ADD AND DUP3 ADD DUP1 PUSH1 0x40 MSTORE POP DUP2 ADD SWAP1 PUSH2 0xE5D SWAP2 SWAP1 PUSH2 0x1996 JUMP JUMPDEST SWAP5 POP PUSH1 0x0 DUP3 GT PUSH2 0xEA1 JUMPI PUSH1 0x40 MLOAD PUSH3 0x461BCD PUSH1 0xE5 SHL DUP2 MSTORE PUSH1 0x20 PUSH1 0x4 DUP3 ADD MSTORE PUSH1 0xF PUSH1 0x24 DUP3 ADD MSTORE PUSH15 0x75736572536861726573206973203 PUSH1 0x8C SHL PUSH1 0x44 DUP3 ADD MSTORE PUSH1 0x64 ADD PUSH2 0x354 JUMP JUMPDEST PUSH1 0x0 DUP6 GT PUSH2 0xEE4 JUMPI PUSH1 0x40 MLOAD PUSH3 0x461BCD PUSH1 0xE5 SHL DUP2 MSTORE PUSH1 0x20 PUSH1 0x4 DUP3 ADD MSTORE PUSH1 0x10 PUSH1 0x24 DUP3 ADD MSTORE PUSH16 0x736861726573546F74616C206973203 PUSH1 0x84 SHL PUSH1 0x44 DUP3 ADD MSTORE PUSH1 0x64 ADD PUSH2 0x354 JUMP JUMPDEST PUSH1 0x0 DUP6 PUSH2 0xEF1 DUP4 DUP6 PUSH2 0x1BB2 JUMP JUMPDEST PUSH2 0xEFB SWAP2 SWAP1 PUSH2 0x1B90 JUMP JUMPDEST SWAP1 POP DUP1 DUP9 GT ISZERO PUSH2 0xF09 JUMPI DUP1 SWAP8 POP JUMPDEST DUP8 ISZERO PUSH2 0x1080 JUMPI PUSH1 0x3 DUP10 DUP2 SLOAD DUP2 LT PUSH2 0xF22 JUMPI PUSH2 0xF22 PUSH2 0x1C45 JUMP JUMPDEST PUSH1 0x0 SWAP2 DUP3 MSTORE PUSH1 0x20 SWAP1 SWAP2 KECCAK256 PUSH1 0x2 SWAP1 SWAP2 MUL ADD PUSH1 0x1 ADD SLOAD PUSH1 0x40 MLOAD PUSH4 0xF3FEF3A3 PUSH1 0xE0 SHL DUP2 MSTORE CALLER PUSH1 0x4 DUP3 ADD MSTORE PUSH1 0x24 DUP2 ADD DUP11 SWAP1 MSTORE PUSH1 0x1 PUSH1 0x1 PUSH1 0xA0 SHL SUB SWAP1 SWAP2 AND SWAP1 PUSH4 0xF3FEF3A3 SWAP1 PUSH1 0x44 ADD PUSH1 0x20 PUSH1 0x40 MLOAD DUP1 DUP4 SUB DUP2 PUSH1 0x0 DUP8 DUP1 EXTCODESIZE ISZERO DUP1 ISZERO PUSH2 0xF7F JUMPI PUSH1 0x0 DUP1 REVERT JUMPDEST POP GAS CALL ISZERO DUP1 ISZERO PUSH2 0xF93 JUMPI RETURNDATASIZE PUSH1 0x0 DUP1 RETURNDATACOPY RETURNDATASIZE PUSH1 0x0 REVERT JUMPDEST POP POP POP POP PUSH1 0x40 MLOAD RETURNDATASIZE PUSH1 0x1F NOT PUSH1 0x1F DUP3 ADD AND DUP3 ADD DUP1 PUSH1 0x40 MSTORE POP DUP2 ADD SWAP1 PUSH2 0xFB7 SWAP2 SWAP1 PUSH2 0x1996 JUMP JUMPDEST SWAP5 POP DUP3 DUP6 GT ISZERO PUSH2 0xFD2 JUMPI PUSH2 0xFCC DUP10 CALLER DUP6 PUSH2 0x15A2 JUMP JUMPDEST POP PUSH2 0xFDF JUMP JUMPDEST PUSH2 0xFDD DUP10 CALLER DUP8 PUSH2 0x15A2 JUMP JUMPDEST POP JUMPDEST DUP4 SLOAD PUSH1 0x40 MLOAD PUSH4 0x70A08231 PUSH1 0xE0 SHL DUP2 MSTORE ADDRESS PUSH1 0x4 DUP3 ADD MSTORE PUSH1 0x0 SWAP2 PUSH1 0x1 PUSH1 0x1 PUSH1 0xA0 SHL SUB AND SWAP1 PUSH4 0x70A08231 SWAP1 PUSH1 0x24 ADD PUSH1 0x20 PUSH1 0x40 MLOAD DUP1 DUP4 SUB DUP2 DUP7 DUP1 EXTCODESIZE ISZERO DUP1 ISZERO PUSH2 0x1022 JUMPI PUSH1 0x0 DUP1 REVERT JUMPDEST POP GAS STATICCALL ISZERO DUP1 ISZERO PUSH2 0x1036 JUMPI RETURNDATASIZE PUSH1 0x0 DUP1 RETURNDATACOPY RETURNDATASIZE PUSH1 0x0 REVERT JUMPDEST POP POP POP POP PUSH1 0x40 MLOAD RETURNDATASIZE PUSH1 0x1F NOT PUSH1 0x1F DUP3 ADD AND DUP3 ADD DUP1 PUSH1 0x40 MSTORE POP DUP2 ADD SWAP1 PUSH2 0x105A SWAP2 SWAP1 PUSH2 0x1996 JUMP JUMPDEST SWAP1 POP DUP9 DUP2 LT ISZERO PUSH2 0x1068 JUMPI DUP1 SWAP9 POP JUMPDEST DUP5 SLOAD PUSH2 0x107E SWAP1 PUSH1 0x1 PUSH1 0x1 PUSH1 0xA0 SHL SUB AND DUP10 DUP12 PUSH2 0x1607 JUMP JUMPDEST POP JUMPDEST PUSH1 0x40 MLOAD DUP9 DUP2 MSTORE DUP10 SWAP1 CALLER SWAP1 PUSH32 0xF279E6A1F5E320CCA91135676D9CB6E44CA8A08C0B88342BCDB1144F6511B568 SWAP1 PUSH1 0x20 ADD PUSH1 0x40 MLOAD DUP1 SWAP2 SUB SWAP1 LOG3 POP POP POP POP SWAP4 POP SWAP4 SWAP2 POP POP JUMP JUMPDEST DUP1 ISZERO DUP1 PUSH2 0x114C JUMPI POP PUSH1 0x40 MLOAD PUSH4 0x6EB1769F PUSH1 0xE1 SHL DUP2 MSTORE ADDRESS PUSH1 0x4 DUP3 ADD MSTORE PUSH1 0x1 PUSH1 0x1 PUSH1 0xA0 SHL SUB DUP4 DUP2 AND PUSH1 0x24 DUP4 ADD MSTORE DUP5 AND SWAP1 PUSH4 0xDD62ED3E SWAP1 PUSH1 0x44 ADD PUSH1 0x20 PUSH1 0x40 MLOAD DUP1 DUP4 SUB DUP2 DUP7 DUP1 EXTCODESIZE ISZERO DUP1 ISZERO PUSH2 0x1112 JUMPI PUSH1 0x0 DUP1 REVERT JUMPDEST POP GAS STATICCALL ISZERO DUP1 ISZERO PUSH2 0x1126 JUMPI RETURNDATASIZE PUSH1 0x0 DUP1 RETURNDATACOPY RETURNDATASIZE PUSH1 0x0 REVERT JUMPDEST POP POP POP POP PUSH1 0x40 MLOAD RETURNDATASIZE PUSH1 0x1F NOT PUSH1 0x1F DUP3 ADD AND DUP3 ADD DUP1 PUSH1 0x40 MSTORE POP DUP2 ADD SWAP1 PUSH2 0x114A SWAP2 SWAP1 PUSH2 0x1996 JUMP JUMPDEST ISZERO JUMPDEST PUSH2 0x11B7 JUMPI PUSH1 0x40 MLOAD PUSH3 0x461BCD PUSH1 0xE5 SHL DUP2 MSTORE PUSH1 0x20 PUSH1 0x4 DUP3 ADD MSTORE PUSH1 0x36 PUSH1 0x24 DUP3 ADD MSTORE PUSH32 0x5361666545524332303A20617070726F76652066726F6D206E6F6E2D7A65726F PUSH1 0x44 DUP3 ADD MSTORE PUSH22 0x20746F206E6F6E2D7A65726F20616C6C6F77616E6365 PUSH1 0x50 SHL PUSH1 0x64 DUP3 ADD MSTORE PUSH1 0x84 ADD PUSH2 0x354 JUMP JUMPDEST PUSH1 0x40 MLOAD PUSH1 0x1 PUSH1 0x1 PUSH1 0xA0 SHL SUB DUP4 AND PUSH1 0x24 DUP3 ADD MSTORE PUSH1 0x44 DUP2 ADD DUP3 SWAP1 MSTORE PUSH2 0x943 SWAP1 DUP5 SWAP1 PUSH4 0x95EA7B3 PUSH1 0xE0 SHL SWAP1 PUSH1 0x64 ADD JUMPDEST PUSH1 0x40 DUP1 MLOAD PUSH1 0x1F NOT DUP2 DUP5 SUB ADD DUP2 MSTORE SWAP2 SWAP1 MSTORE PUSH1 0x20 DUP2 ADD DUP1 MLOAD PUSH1 0x1 PUSH1 0x1 PUSH1 0xE0 SHL SUB AND PUSH1 0x1 PUSH1 0x1 PUSH1 0xE0 SHL SUB NOT SWAP1 SWAP4 AND SWAP3 SWAP1 SWAP3 OR SWAP1 SWAP2 MSTORE PUSH2 0x1637 JUMP JUMPDEST PUSH1 0x40 MLOAD PUSH4 0x6EB1769F PUSH1 0xE1 SHL DUP2 MSTORE ADDRESS PUSH1 0x4 DUP3 ADD MSTORE PUSH1 0x1 PUSH1 0x1 PUSH1 0xA0 SHL SUB DUP4 DUP2 AND PUSH1 0x24 DUP4 ADD MSTORE PUSH1 0x0 SWAP2 DUP4 SWAP2 DUP7 AND SWAP1 PUSH4 0xDD62ED3E SWAP1 PUSH1 0x44 ADD PUSH1 0x20 PUSH1 0x40 MLOAD DUP1 DUP4 SUB DUP2 DUP7 DUP1 EXTCODESIZE ISZERO DUP1 ISZERO PUSH2 0x1266 JUMPI PUSH1 0x0 DUP1 REVERT JUMPDEST POP GAS STATICCALL ISZERO DUP1 ISZERO PUSH2 0x127A JUMPI RETURNDATASIZE PUSH1 0x0 DUP1 RETURNDATACOPY RETURNDATASIZE PUSH1 0x0 REVERT JUMPDEST POP POP POP POP PUSH1 0x40 MLOAD RETURNDATASIZE PUSH1 0x1F NOT PUSH1 0x1F DUP3 ADD AND DUP3 ADD DUP1 PUSH1 0x40 MSTORE POP DUP2 ADD SWAP1 PUSH2 0x129E SWAP2 SWAP1 PUSH2 0x1996 JUMP JUMPDEST PUSH2 0x12A8 SWAP2 SWAP1 PUSH2 0x1B78 JUMP JUMPDEST PUSH1 0x40 MLOAD PUSH1 0x1 PUSH1 0x1 PUSH1 0xA0 SHL SUB DUP6 AND PUSH1 0x24 DUP3 ADD MSTORE PUSH1 0x44 DUP2 ADD DUP3 SWAP1 MSTORE SWAP1 SWAP2 POP PUSH2 0x12DB SWAP1 DUP6 SWAP1 PUSH4 0x95EA7B3 PUSH1 0xE0 SHL SWAP1 PUSH1 0x64 ADD PUSH2 0x11E3 JUMP JUMPDEST POP POP POP POP JUMP JUMPDEST PUSH1 0x3 SLOAD PUSH1 0x0 JUMPDEST DUP2 DUP2 LT ISZERO PUSH2 0x473 JUMPI PUSH1 0x3 DUP2 DUP2 SLOAD DUP2 LT PUSH2 0x1302 JUMPI PUSH2 0x1302 PUSH2 0x1C45 JUMP JUMPDEST PUSH1 0x0 SWAP2 DUP3 MSTORE PUSH1 0x20 DUP3 KECCAK256 PUSH1 0x1 PUSH1 0x2 SWAP1 SWAP3 MUL ADD ADD SLOAD PUSH1 0x40 DUP1 MLOAD PUSH4 0xD389800F PUSH1 0xE0 SHL DUP2 MSTORE SWAP1 MLOAD PUSH1 0x1 PUSH1 0x1 PUSH1 0xA0 SHL SUB SWAP1 SWAP3 AND SWAP3 PUSH4 0xD389800F SWAP3 PUSH1 0x4 DUP1 DUP5 ADD SWAP4 DUP3 SWAP1 SUB ADD DUP2 DUP4 DUP8 DUP1 EXTCODESIZE ISZERO DUP1 ISZERO PUSH2 0x1352 JUMPI PUSH1 0x0 DUP1 REVERT JUMPDEST POP GAS CALL SWAP3 POP POP POP DUP1 ISZERO PUSH2 0x1363 JUMPI POP PUSH1 0x1 JUMPDEST PUSH2 0x13D2 JUMPI RETURNDATASIZE DUP1 DUP1 ISZERO PUSH2 0x1391 JUMPI PUSH1 0x40 MLOAD SWAP2 POP PUSH1 0x1F NOT PUSH1 0x3F RETURNDATASIZE ADD AND DUP3 ADD PUSH1 0x40 MSTORE RETURNDATASIZE DUP3 MSTORE RETURNDATASIZE PUSH1 0x0 PUSH1 0x20 DUP5 ADD RETURNDATACOPY PUSH2 0x1396 JUMP JUMPDEST PUSH1 0x60 SWAP2 POP JUMPDEST POP PUSH32 0xAE452807C2B0698EA0D198E28DAB35283CBB33B5FFD82A4DC799E21279D0A630 DUP3 DUP3 PUSH1 0x40 MLOAD PUSH2 0x13C8 SWAP3 SWAP2 SWAP1 PUSH2 0x1B5F JUMP JUMPDEST PUSH1 0x40 MLOAD DUP1 SWAP2 SUB SWAP1 LOG1 POP JUMPDEST DUP1 PUSH2 0x13DC DUP2 PUSH2 0x1C14 JUMP JUMPDEST SWAP2 POP POP PUSH2 0x12E7 JUMP JUMPDEST PUSH1 0x1 DUP1 SLOAD PUSH1 0x1 PUSH1 0x1 PUSH1 0xA0 SHL SUB DUP4 DUP2 AND PUSH1 0x1 PUSH1 0x1 PUSH1 0xA0 SHL SUB NOT DUP4 AND DUP2 OR SWAP1 SWAP4 SSTORE PUSH1 0x40 MLOAD SWAP2 AND SWAP2 SWAP1 DUP3 SWAP1 PUSH32 0x8BE0079C531659141344CD1FD0A4F28419497F9722A3DAAFE3B4186F6B6457E0 SWAP1 PUSH1 0x0 SWAP1 LOG3 POP POP JUMP JUMPDEST PUSH1 0x0 DUP1 PUSH1 0x3 DUP6 DUP2 SLOAD DUP2 LT PUSH2 0x144C JUMPI PUSH2 0x144C PUSH2 0x1C45 JUMP JUMPDEST PUSH1 0x0 SWAP2 DUP3 MSTORE PUSH1 0x20 DUP1 DUP4 KECCAK256 DUP9 DUP5 MSTORE PUSH1 0x4 DUP3 MSTORE PUSH1 0x40 DUP1 DUP6 KECCAK256 PUSH1 0x1 PUSH1 0x1 PUSH1 0xA0 SHL SUB DUP10 AND DUP7 MSTORE SWAP1 SWAP3 MSTORE SWAP1 DUP4 KECCAK256 SLOAD PUSH1 0x2 SWAP1 SWAP3 MUL ADD SWAP3 POP SWAP1 POP DUP5 ISZERO PUSH2 0x1555 JUMPI DUP2 SLOAD PUSH2 0x149C SWAP1 PUSH1 0x1 PUSH1 0x1 PUSH1 0xA0 SHL SUB AND CALLER ADDRESS DUP9 PUSH2 0x1709 JUMP JUMPDEST PUSH1 0x3 DUP7 DUP2 SLOAD DUP2 LT PUSH2 0x14AF JUMPI PUSH2 0x14AF PUSH2 0x1C45 JUMP JUMPDEST PUSH1 0x0 SWAP2 DUP3 MSTORE PUSH1 0x20 SWAP1 SWAP2 KECCAK256 PUSH1 0x2 SWAP1 SWAP2 MUL ADD PUSH1 0x1 ADD SLOAD PUSH1 0x40 MLOAD PUSH4 0x11F9FBC9 PUSH1 0xE2 SHL DUP2 MSTORE PUSH1 0x1 PUSH1 0x1 PUSH1 0xA0 SHL SUB DUP7 DUP2 AND PUSH1 0x4 DUP4 ADD MSTORE PUSH1 0x24 DUP3 ADD DUP9 SWAP1 MSTORE SWAP1 SWAP2 AND SWAP1 PUSH4 0x47E7EF24 SWAP1 PUSH1 0x44 ADD PUSH1 0x20 PUSH1 0x40 MLOAD DUP1 DUP4 SUB DUP2 PUSH1 0x0 DUP8 DUP1 EXTCODESIZE ISZERO DUP1 ISZERO PUSH2 0x150E JUMPI PUSH1 0x0 DUP1 REVERT JUMPDEST POP GAS CALL ISZERO DUP1 ISZERO PUSH2 0x1522 JUMPI RETURNDATASIZE PUSH1 0x0 DUP1 RETURNDATACOPY RETURNDATASIZE PUSH1 0x0 REVERT JUMPDEST POP POP POP POP PUSH1 0x40 MLOAD RETURNDATASIZE PUSH1 0x1F NOT PUSH1 0x1F DUP3 ADD AND DUP3 ADD DUP1 PUSH1 0x40 MSTORE POP DUP2 ADD SWAP1 PUSH2 0x1546 SWAP2 SWAP1 PUSH2 0x1996 JUMP JUMPDEST SWAP3 POP PUSH2 0x1553 DUP7 DUP6 DUP6 PUSH2 0x1741 JUMP JUMPDEST POP JUMPDEST DUP6 DUP5 PUSH1 0x1 PUSH1 0x1 PUSH1 0xA0 SHL SUB AND PUSH32 0x90890809C654F11D6E72A28FA60149770A0D11EC6C92319D6CEB2BB0A4EA1A15 DUP8 PUSH1 0x40 MLOAD PUSH2 0x1591 SWAP2 DUP2 MSTORE PUSH1 0x20 ADD SWAP1 JUMP JUMPDEST PUSH1 0x40 MLOAD DUP1 SWAP2 SUB SWAP1 LOG3 POP POP SWAP4 SWAP3 POP POP POP JUMP JUMPDEST PUSH1 0x0 DUP4 DUP2 MSTORE PUSH1 0x4 PUSH1 0x20 SWAP1 DUP2 MSTORE PUSH1 0x40 DUP1 DUP4 KECCAK256 PUSH1 0x1 PUSH1 0x1 PUSH1 0xA0 SHL SUB DUP7 AND DUP5 MSTORE SWAP1 SWAP2 MSTORE DUP2 KECCAK256 DUP1 SLOAD DUP4 SWAP2 SWAP1 DUP4 SWAP1 PUSH2 0x15D6 SWAP1 DUP5 SWAP1 PUSH2 0x1BD1 JUMP JUMPDEST SWAP1 SWAP2 SSTORE POP POP POP PUSH1 0x0 DUP4 DUP2 MSTORE PUSH1 0x4 PUSH1 0x20 SWAP1 DUP2 MSTORE PUSH1 0x40 DUP1 DUP4 KECCAK256 PUSH1 0x1 PUSH1 0x1 PUSH1 0xA0 SHL SUB DUP7 AND DUP5 MSTORE SWAP1 SWAP2 MSTORE SWAP1 KECCAK256 SLOAD JUMPDEST SWAP4 SWAP3 POP POP POP JUMP JUMPDEST PUSH1 0x40 MLOAD PUSH1 0x1 PUSH1 0x1 PUSH1 0xA0 SHL SUB DUP4 AND PUSH1 0x24 DUP3 ADD MSTORE PUSH1 0x44 DUP2 ADD DUP3 SWAP1 MSTORE PUSH2 0x943 SWAP1 DUP5 SWAP1 PUSH4 0xA9059CBB PUSH1 0xE0 SHL SWAP1 PUSH1 0x64 ADD PUSH2 0x11E3 JUMP JUMPDEST PUSH1 0x0 PUSH2 0x168C DUP3 PUSH1 0x40 MLOAD DUP1 PUSH1 0x40 ADD PUSH1 0x40 MSTORE DUP1 PUSH1 0x20 DUP2 MSTORE PUSH1 0x20 ADD PUSH32 0x5361666545524332303A206C6F772D6C6576656C2063616C6C206661696C6564 DUP2 MSTORE POP DUP6 PUSH1 0x1 PUSH1 0x1 PUSH1 0xA0 SHL SUB AND PUSH2 0x1775 SWAP1 SWAP3 SWAP2 SWAP1 PUSH4 0xFFFFFFFF AND JUMP JUMPDEST DUP1 MLOAD SWAP1 SWAP2 POP ISZERO PUSH2 0x943 JUMPI DUP1 DUP1 PUSH1 0x20 ADD SWAP1 MLOAD DUP2 ADD SWAP1 PUSH2 0x16AA SWAP2 SWAP1 PUSH2 0x1960 JUMP JUMPDEST PUSH2 0x943 JUMPI PUSH1 0x40 MLOAD PUSH3 0x461BCD PUSH1 0xE5 SHL DUP2 MSTORE PUSH1 0x20 PUSH1 0x4 DUP3 ADD MSTORE PUSH1 0x2A PUSH1 0x24 DUP3 ADD MSTORE PUSH32 0x5361666545524332303A204552433230206F7065726174696F6E20646964206E PUSH1 0x44 DUP3 ADD MSTORE PUSH10 0x1BDD081CDD58D8D95959 PUSH1 0xB2 SHL PUSH1 0x64 DUP3 ADD MSTORE PUSH1 0x84 ADD PUSH2 0x354 JUMP JUMPDEST PUSH1 0x40 MLOAD PUSH1 0x1 PUSH1 0x1 PUSH1 0xA0 SHL SUB DUP1 DUP6 AND PUSH1 0x24 DUP4 ADD MSTORE DUP4 AND PUSH1 0x44 DUP3 ADD MSTORE PUSH1 0x64 DUP2 ADD DUP3 SWAP1 MSTORE PUSH2 0x12DB SWAP1 DUP6 SWAP1 PUSH4 0x23B872DD PUSH1 0xE0 SHL SWAP1 PUSH1 0x84 ADD PUSH2 0x11E3 JUMP JUMPDEST PUSH1 0x0 DUP4 DUP2 MSTORE PUSH1 0x4 PUSH1 0x20 SWAP1 DUP2 MSTORE PUSH1 0x40 DUP1 DUP4 KECCAK256 PUSH1 0x1 PUSH1 0x1 PUSH1 0xA0 SHL SUB DUP7 AND DUP5 MSTORE SWAP1 SWAP2 MSTORE DUP2 KECCAK256 DUP1 SLOAD DUP4 SWAP2 SWAP1 DUP4 SWAP1 PUSH2 0x15D6 SWAP1 DUP5 SWAP1 PUSH2 0x1B78 JUMP JUMPDEST PUSH1 0x60 PUSH2 0x1784 DUP5 DUP5 PUSH1 0x0 DUP6 PUSH2 0x178C JUMP JUMPDEST SWAP5 SWAP4 POP POP POP POP JUMP JUMPDEST PUSH1 0x60 DUP3 SELFBALANCE LT ISZERO PUSH2 0x17ED JUMPI PUSH1 0x40 MLOAD PUSH3 0x461BCD PUSH1 0xE5 SHL DUP2 MSTORE PUSH1 0x20 PUSH1 0x4 DUP3 ADD MSTORE PUSH1 0x26 PUSH1 0x24 DUP3 ADD MSTORE PUSH32 0x416464726573733A20696E73756666696369656E742062616C616E636520666F PUSH1 0x44 DUP3 ADD MSTORE PUSH6 0x1C8818D85B1B PUSH1 0xD2 SHL PUSH1 0x64 DUP3 ADD MSTORE PUSH1 0x84 ADD PUSH2 0x354 JUMP JUMPDEST DUP5 EXTCODESIZE PUSH2 0x183B JUMPI PUSH1 0x40 MLOAD PUSH3 0x461BCD PUSH1 0xE5 SHL DUP2 MSTORE PUSH1 0x20 PUSH1 0x4 DUP3 ADD MSTORE PUSH1 0x1D PUSH1 0x24 DUP3 ADD MSTORE PUSH32 0x416464726573733A2063616C6C20746F206E6F6E2D636F6E7472616374000000 PUSH1 0x44 DUP3 ADD MSTORE PUSH1 0x64 ADD PUSH2 0x354 JUMP JUMPDEST PUSH1 0x0 DUP1 DUP7 PUSH1 0x1 PUSH1 0x1 PUSH1 0xA0 SHL SUB AND DUP6 DUP8 PUSH1 0x40 MLOAD PUSH2 0x1857 SWAP2 SWAP1 PUSH2 0x1A80 JUMP JUMPDEST PUSH1 0x0 PUSH1 0x40 MLOAD DUP1 DUP4 SUB DUP2 DUP6 DUP8 GAS CALL SWAP3 POP POP POP RETURNDATASIZE DUP1 PUSH1 0x0 DUP2 EQ PUSH2 0x1894 JUMPI PUSH1 0x40 MLOAD SWAP2 POP PUSH1 0x1F NOT PUSH1 0x3F RETURNDATASIZE ADD AND DUP3 ADD PUSH1 0x40 MSTORE RETURNDATASIZE DUP3 MSTORE RETURNDATASIZE PUSH1 0x0 PUSH1 0x20 DUP5 ADD RETURNDATACOPY PUSH2 0x1899 JUMP JUMPDEST PUSH1 0x60 SWAP2 POP JUMPDEST POP SWAP2 POP SWAP2 POP PUSH2 0x18A9 DUP3 DUP3 DUP7 PUSH2 0x18B4 JUMP JUMPDEST SWAP8 SWAP7 POP POP POP POP POP POP POP JUMP JUMPDEST PUSH1 0x60 DUP4 ISZERO PUSH2 0x18C3 JUMPI POP DUP2 PUSH2 0x1600 JUMP JUMPDEST DUP3 MLOAD ISZERO PUSH2 0x18D3 JUMPI DUP3 MLOAD DUP1 DUP5 PUSH1 0x20 ADD REVERT JUMPDEST DUP2 PUSH1 0x40 MLOAD PUSH3 0x461BCD PUSH1 0xE5 SHL DUP2 MSTORE PUSH1 0x4 ADD PUSH2 0x354 SWAP2 SWAP1 PUSH2 0x1A9C JUMP JUMPDEST PUSH1 0x0 PUSH1 0x20 DUP3 DUP5 SUB SLT ISZERO PUSH2 0x18FF JUMPI PUSH1 0x0 DUP1 REVERT JUMPDEST DUP2 CALLDATALOAD PUSH2 0x1600 DUP2 PUSH2 0x1C5B JUMP JUMPDEST PUSH1 0x0 PUSH1 0x20 DUP3 DUP5 SUB SLT ISZERO PUSH2 0x191C JUMPI PUSH1 0x0 DUP1 REVERT JUMPDEST DUP2 MLOAD PUSH2 0x1600 DUP2 PUSH2 0x1C5B JUMP JUMPDEST PUSH1 0x0 DUP1 PUSH1 0x40 DUP4 DUP6 SUB SLT ISZERO PUSH2 0x193A JUMPI PUSH1 0x0 DUP1 REVERT JUMPDEST DUP3 CALLDATALOAD PUSH2 0x1945 DUP2 PUSH2 0x1C5B JUMP JUMPDEST SWAP2 POP PUSH1 0x20 DUP4 ADD CALLDATALOAD PUSH2 0x1955 DUP2 PUSH2 0x1C70 JUMP JUMPDEST DUP1 SWAP2 POP POP SWAP3 POP SWAP3 SWAP1 POP JUMP JUMPDEST PUSH1 0x0 PUSH1 0x20 DUP3 DUP5 SUB SLT ISZERO PUSH2 0x1972 JUMPI PUSH1 0x0 DUP1 REVERT JUMPDEST DUP2 MLOAD PUSH2 0x1600 DUP2 PUSH2 0x1C70 JUMP JUMPDEST PUSH1 0x0 PUSH1 0x20 DUP3 DUP5 SUB SLT ISZERO PUSH2 0x198F JUMPI PUSH1 0x0 DUP1 REVERT JUMPDEST POP CALLDATALOAD SWAP2 SWAP1 POP JUMP JUMPDEST PUSH1 0x0 PUSH1 0x20 DUP3 DUP5 SUB SLT ISZERO PUSH2 0x19A8 JUMPI PUSH1 0x0 DUP1 REVERT JUMPDEST POP MLOAD SWAP2 SWAP1 POP JUMP JUMPDEST PUSH1 0x0 DUP1 PUSH1 0x40 DUP4 DUP6 SUB SLT ISZERO PUSH2 0x19C2 JUMPI PUSH1 0x0 DUP1 REVERT JUMPDEST DUP3 CALLDATALOAD SWAP2 POP PUSH1 0x20 DUP4 ADD CALLDATALOAD PUSH2 0x1955 DUP2 PUSH2 0x1C5B JUMP JUMPDEST PUSH1 0x0 DUP1 PUSH1 0x40 DUP4 DUP6 SUB SLT ISZERO PUSH2 0x19E7 JUMPI PUSH1 0x0 DUP1 REVERT JUMPDEST DUP3 CALLDATALOAD SWAP2 POP PUSH1 0x20 DUP4 ADD CALLDATALOAD PUSH2 0x1955 DUP2 PUSH2 0x1C70 JUMP JUMPDEST PUSH1 0x0 DUP1 PUSH1 0x40 DUP4 DUP6 SUB SLT ISZERO PUSH2 0x1A0C JUMPI PUSH1 0x0 DUP1 REVERT JUMPDEST POP POP DUP1 CALLDATALOAD SWAP3 PUSH1 0x20 SWAP1 SWAP2 ADD CALLDATALOAD SWAP2 POP JUMP JUMPDEST PUSH1 0x0 DUP1 PUSH1 0x0 PUSH1 0x60 DUP5 DUP7 SUB SLT ISZERO PUSH2 0x1A30 JUMPI PUSH1 0x0 DUP1 REVERT JUMPDEST DUP4 CALLDATALOAD SWAP3 POP PUSH1 0x20 DUP5 ADD CALLDATALOAD SWAP2 POP PUSH1 0x40 DUP5 ADD CALLDATALOAD PUSH2 0x1A49 DUP2 PUSH2 0x1C5B JUMP JUMPDEST DUP1 SWAP2 POP POP SWAP3 POP SWAP3 POP SWAP3 JUMP JUMPDEST PUSH1 0x0 DUP2 MLOAD DUP1 DUP5 MSTORE PUSH2 0x1A6C DUP2 PUSH1 0x20 DUP7 ADD PUSH1 0x20 DUP7 ADD PUSH2 0x1BE8 JUMP JUMPDEST PUSH1 0x1F ADD PUSH1 0x1F NOT AND SWAP3 SWAP1 SWAP3 ADD PUSH1 0x20 ADD SWAP3 SWAP2 POP POP JUMP JUMPDEST PUSH1 0x0 DUP3 MLOAD PUSH2 0x1A92 DUP2 DUP5 PUSH1 0x20 DUP8 ADD PUSH2 0x1BE8 JUMP JUMPDEST SWAP2 SWAP1 SWAP2 ADD SWAP3 SWAP2 POP POP JUMP JUMPDEST PUSH1 0x20 DUP2 MSTORE PUSH1 0x0 PUSH2 0x1600 PUSH1 0x20 DUP4 ADD DUP5 PUSH2 0x1A54 JUMP JUMPDEST PUSH1 0x20 DUP1 DUP3 MSTORE DUP2 DUP2 ADD MSTORE PUSH32 0x4F776E61626C653A2063616C6C6572206973206E6F7420746865206F776E6572 PUSH1 0x40 DUP3 ADD MSTORE PUSH1 0x60 ADD SWAP1 JUMP JUMPDEST PUSH1 0x20 DUP1 DUP3 MSTORE PUSH1 0x1F SWAP1 DUP3 ADD MSTORE PUSH32 0x5265656E7472616E637947756172643A207265656E7472616E742063616C6C00 PUSH1 0x40 DUP3 ADD MSTORE PUSH1 0x60 ADD SWAP1 JUMP JUMPDEST PUSH1 0x20 DUP1 DUP3 MSTORE PUSH1 0x24 SWAP1 DUP3 ADD MSTORE PUSH32 0x4F70657261746F723A2063616C6C6572206973206E6F7420746865206F706572 PUSH1 0x40 DUP3 ADD MSTORE PUSH4 0x30BA37B9 PUSH1 0xE1 SHL PUSH1 0x60 DUP3 ADD MSTORE PUSH1 0x80 ADD SWAP1 JUMP JUMPDEST DUP3 DUP2 MSTORE PUSH1 0x40 PUSH1 0x20 DUP3 ADD MSTORE PUSH1 0x0 PUSH2 0x1784 PUSH1 0x40 DUP4 ADD DUP5 PUSH2 0x1A54 JUMP JUMPDEST PUSH1 0x0 DUP3 NOT DUP3 GT ISZERO PUSH2 0x1B8B JUMPI PUSH2 0x1B8B PUSH2 0x1C2F JUMP JUMPDEST POP ADD SWAP1 JUMP JUMPDEST PUSH1 0x0 DUP3 PUSH2 0x1BAD JUMPI PUSH4 0x4E487B71 PUSH1 0xE0 SHL PUSH1 0x0 MSTORE PUSH1 0x12 PUSH1 0x4 MSTORE PUSH1 0x24 PUSH1 0x0 REVERT JUMPDEST POP DIV SWAP1 JUMP JUMPDEST PUSH1 0x0 DUP2 PUSH1 0x0 NOT DIV DUP4 GT DUP3 ISZERO ISZERO AND ISZERO PUSH2 0x1BCC JUMPI PUSH2 0x1BCC PUSH2 0x1C2F JUMP JUMPDEST POP MUL SWAP1 JUMP JUMPDEST PUSH1 0x0 DUP3 DUP3 LT ISZERO PUSH2 0x1BE3 JUMPI PUSH2 0x1BE3 PUSH2 0x1C2F JUMP JUMPDEST POP SUB SWAP1 JUMP JUMPDEST PUSH1 0x0 JUMPDEST DUP4 DUP2 LT ISZERO PUSH2 0x1C03 JUMPI DUP2 DUP2 ADD MLOAD DUP4 DUP3 ADD MSTORE PUSH1 0x20 ADD PUSH2 0x1BEB JUMP JUMPDEST DUP4 DUP2 GT ISZERO PUSH2 0x12DB JUMPI POP POP PUSH1 0x0 SWAP2 ADD MSTORE JUMP JUMPDEST PUSH1 0x0 PUSH1 0x0 NOT DUP3 EQ ISZERO PUSH2 0x1C28 JUMPI PUSH2 0x1C28 PUSH2 0x1C2F JUMP JUMPDEST POP PUSH1 0x1 ADD SWAP1 JUMP JUMPDEST PUSH4 0x4E487B71 PUSH1 0xE0 SHL PUSH1 0x0 MSTORE PUSH1 0x11 PUSH1 0x4 MSTORE PUSH1 0x24 PUSH1 0x0 REVERT JUMPDEST PUSH4 0x4E487B71 PUSH1 0xE0 SHL PUSH1 0x0 MSTORE PUSH1 0x32 PUSH1 0x4 MSTORE PUSH1 0x24 PUSH1 0x0 REVERT JUMPDEST PUSH1 0x1 PUSH1 0x1 PUSH1 0xA0 SHL SUB DUP2 AND DUP2 EQ PUSH2 0x529 JUMPI PUSH1 0x0 DUP1 REVERT JUMPDEST DUP1 ISZERO ISZERO DUP2 EQ PUSH2 0x529 JUMPI PUSH1 0x0 DUP1 REVERT INVALID LOG2 PUSH5 0x6970667358 0x22 SLT KECCAK256 JUMPI 0xE5 PUSH11 0xC0A1019369A0C027F3F942 PUSH29 0x2567C1F954A813CF0EAD190A4FCDBB4C3564736F6C6343000807003300 "
		},
		"gasEstimates": {
			"creation": {
				"codeDepositCost": "1469600",
				"executionCost": "95823",
				"totalCost": "1565423"
			},
			"external": {
				"addPool(address)": "infinite",
				"autocompoundOn()": "2420",
				"compoundAll()": "infinite",
				"compoundMode()": "2395",
				"deposit(uint256,uint256)": "infinite",
				"deposit(uint256,uint256,address)": "infinite",
				"maxiToken()": "2371",
				"operators(address)": "2593",
				"owner()": "2398",
				"poolInfo(uint256)": "6869",
				"poolLength()": "2294",
				"renounceOwnership()": "28140",
				"resetAllowances()": "infinite",
				"resetSingleAllowance(uint256)": "infinite",
				"setCompoundMode(uint256,bool)": "50211",
				"stakedWantTokens(uint256,address)": "infinite",
				"transferOwnership(address)": "infinite",
				"updateOperator(address,bool)": "infinite",
				"userInfo(uint256,address)": "2716",
				"withdraw(uint256,uint256)": "infinite",
				"withdraw(uint256,uint256,address)": "infinite",
				"withdrawAll(uint256)": "infinite"
			},
			"internal": {
				"_compoundAll()": "infinite",
				"_deposit(uint256,uint256,address)": "infinite",
				"_withdraw(uint256,uint256,address)": "infinite",
				"addUserShares(uint256,address,uint256)": "26749",
				"getUserShares(uint256,address)": "infinite",
				"removeUserShares(uint256,address,uint256)": "26746"
			}
		},
		"methodIdentifiers": {
			"addPool(address)": "d914cd4b",
			"autocompoundOn()": "e2ff2f47",
			"compoundAll()": "9b05ddb3",
			"compoundMode()": "5d142d07",
			"deposit(uint256,uint256)": "e2bbb158",
			"deposit(uint256,uint256,address)": "8dbdbe6d",
			"maxiToken()": "2449447a",
			"operators(address)": "13e7c9d8",
			"owner()": "8da5cb5b",
			"poolInfo(uint256)": "1526fe27",
			"poolLength()": "081e3eda",
			"renounceOwnership()": "715018a6",
			"resetAllowances()": "3505b09f",
			"resetSingleAllowance(uint256)": "23e1ad7d",
			"setCompoundMode(uint256,bool)": "3d4fc8d1",
			"stakedWantTokens(uint256,address)": "7b84daec",
			"transferOwnership(address)": "f2fde38b",
			"updateOperator(address,bool)": "6d44a3b2",
			"userInfo(uint256,address)": "93f1a40b",
			"withdraw(uint256,uint256)": "441a3e70",
			"withdraw(uint256,uint256,address)": "0ad58d2f",
			"withdrawAll(uint256)": "958e2d31"
		}
	},
	"abi": [
		{
			"anonymous": false,
			"inputs": [
				{
					"indexed": true,
					"internalType": "address",
					"name": "strat",
					"type": "address"
				}
			],
			"name": "AddPool",
			"type": "event"
		},
		{
			"anonymous": false,
			"inputs": [
				{
					"indexed": false,
					"internalType": "uint256",
					"name": "pid",
					"type": "uint256"
				},
				{
					"indexed": false,
					"internalType": "bytes",
					"name": "reason",
					"type": "bytes"
				}
			],
			"name": "CompoundError",
			"type": "event"
		},
		{
			"anonymous": false,
			"inputs": [
				{
					"indexed": true,
					"internalType": "address",
					"name": "user",
					"type": "address"
				},
				{
					"indexed": true,
					"internalType": "uint256",
					"name": "pid",
					"type": "uint256"
				},
				{
					"indexed": false,
					"internalType": "uint256",
					"name": "amount",
					"type": "uint256"
				}
			],
			"name": "Deposit",
			"type": "event"
		},
		{
			"anonymous": false,
			"inputs": [
				{
					"indexed": true,
					"internalType": "address",
					"name": "user",
					"type": "address"
				},
				{
					"indexed": true,
					"internalType": "uint256",
					"name": "pid",
					"type": "uint256"
				},
				{
					"indexed": false,
					"internalType": "uint256",
					"name": "amount",
					"type": "uint256"
				}
			],
			"name": "EmergencyWithdraw",
			"type": "event"
		},
		{
			"anonymous": false,
			"inputs": [
				{
					"indexed": true,
					"internalType": "address",
					"name": "operator",
					"type": "address"
				},
				{
					"indexed": true,
					"internalType": "bool",
					"name": "status",
					"type": "bool"
				}
			],
			"name": "OperatorUpdated",
			"type": "event"
		},
		{
			"anonymous": false,
			"inputs": [
				{
					"indexed": true,
					"internalType": "address",
					"name": "previousOwner",
					"type": "address"
				},
				{
					"indexed": true,
					"internalType": "address",
					"name": "newOwner",
					"type": "address"
				}
			],
			"name": "OwnershipTransferred",
			"type": "event"
		},
		{
			"anonymous": false,
			"inputs": [
				{
					"indexed": false,
					"internalType": "uint256",
					"name": "locked",
					"type": "uint256"
				},
				{
					"indexed": false,
					"internalType": "bool",
					"name": "automatic",
					"type": "bool"
				}
			],
			"name": "SetCompoundMode",
			"type": "event"
		},
		{
			"anonymous": false,
			"inputs": [
				{
					"indexed": true,
					"internalType": "address",
					"name": "user",
					"type": "address"
				},
				{
					"indexed": true,
					"internalType": "uint256",
					"name": "pid",
					"type": "uint256"
				},
				{
					"indexed": false,
					"internalType": "uint256",
					"name": "amount",
					"type": "uint256"
				}
			],
			"name": "Withdraw",
			"type": "event"
		},
		{
			"inputs": [
				{
					"internalType": "address",
					"name": "_strat",
					"type": "address"
				}
			],
			"name": "addPool",
			"outputs": [],
			"stateMutability": "nonpayable",
			"type": "function"
		},
		{
			"inputs": [],
			"name": "autocompoundOn",
			"outputs": [
				{
					"internalType": "bool",
					"name": "",
					"type": "bool"
				}
			],
			"stateMutability": "view",
			"type": "function"
		},
		{
			"inputs": [],
			"name": "compoundAll",
			"outputs": [],
			"stateMutability": "nonpayable",
			"type": "function"
		},
		{
			"inputs": [],
			"name": "compoundMode",
			"outputs": [
				{
					"internalType": "uint256",
					"name": "",
					"type": "uint256"
				}
			],
			"stateMutability": "view",
			"type": "function"
		},
		{
			"inputs": [
				{
					"internalType": "uint256",
					"name": "_pid",
					"type": "uint256"
				},
				{
					"internalType": "uint256",
					"name": "_wantAmt",
					"type": "uint256"
				},
				{
					"internalType": "address",
					"name": "_to",
					"type": "address"
				}
			],
			"name": "deposit",
			"outputs": [],
			"stateMutability": "nonpayable",
			"type": "function"
		},
		{
			"inputs": [
				{
					"internalType": "uint256",
					"name": "_pid",
					"type": "uint256"
				},
				{
					"internalType": "uint256",
					"name": "_wantAmt",
					"type": "uint256"
				}
			],
			"name": "deposit",
			"outputs": [],
			"stateMutability": "nonpayable",
			"type": "function"
		},
		{
			"inputs": [],
			"name": "maxiToken",
			"outputs": [
				{
					"internalType": "address",
					"name": "",
					"type": "address"
				}
			],
			"stateMutability": "view",
			"type": "function"
		},
		{
			"inputs": [
				{
					"internalType": "address",
					"name": "",
					"type": "address"
				}
			],
			"name": "operators",
			"outputs": [
				{
					"internalType": "bool",
					"name": "",
					"type": "bool"
				}
			],
			"stateMutability": "view",
			"type": "function"
		},
		{
			"inputs": [],
			"name": "owner",
			"outputs": [
				{
					"internalType": "address",
					"name": "",
					"type": "address"
				}
			],
			"stateMutability": "view",
			"type": "function"
		},
		{
			"inputs": [
				{
					"internalType": "uint256",
					"name": "",
					"type": "uint256"
				}
			],
			"name": "poolInfo",
			"outputs": [
				{
					"internalType": "contract IERC20",
					"name": "want",
					"type": "address"
				},
				{
					"internalType": "address",
					"name": "strat",
					"type": "address"
				}
			],
			"stateMutability": "view",
			"type": "function"
		},
		{
			"inputs": [],
			"name": "poolLength",
			"outputs": [
				{
					"internalType": "uint256",
					"name": "",
					"type": "uint256"
				}
			],
			"stateMutability": "view",
			"type": "function"
		},
		{
			"inputs": [],
			"name": "renounceOwnership",
			"outputs": [],
			"stateMutability": "nonpayable",
			"type": "function"
		},
		{
			"inputs": [],
			"name": "resetAllowances",
			"outputs": [],
			"stateMutability": "nonpayable",
			"type": "function"
		},
		{
			"inputs": [
				{
					"internalType": "uint256",
					"name": "_pid",
					"type": "uint256"
				}
			],
			"name": "resetSingleAllowance",
			"outputs": [],
			"stateMutability": "nonpayable",
			"type": "function"
		},
		{
			"inputs": [
				{
					"internalType": "uint256",
					"name": "mode",
					"type": "uint256"
				},
				{
					"internalType": "bool",
					"name": "autoC",
					"type": "bool"
				}
			],
			"name": "setCompoundMode",
			"outputs": [],
			"stateMutability": "nonpayable",
			"type": "function"
		},
		{
			"inputs": [
				{
					"internalType": "uint256",
					"name": "_pid",
					"type": "uint256"
				},
				{
					"internalType": "address",
					"name": "_user",
					"type": "address"
				}
			],
			"name": "stakedWantTokens",
			"outputs": [
				{
					"internalType": "uint256",
					"name": "",
					"type": "uint256"
				}
			],
			"stateMutability": "view",
			"type": "function"
		},
		{
			"inputs": [
				{
					"internalType": "address",
					"name": "newOwner",
					"type": "address"
				}
			],
			"name": "transferOwnership",
			"outputs": [],
			"stateMutability": "nonpayable",
			"type": "function"
		},
		{
			"inputs": [
				{
					"internalType": "address",
					"name": "_operator",
					"type": "address"
				},
				{
					"internalType": "bool",
					"name": "_status",
					"type": "bool"
				}
			],
			"name": "updateOperator",
			"outputs": [],
			"stateMutability": "nonpayable",
			"type": "function"
		},
		{
			"inputs": [
				{
					"internalType": "uint256",
					"name": "",
					"type": "uint256"
				},
				{
					"internalType": "address",
					"name": "",
					"type": "address"
				}
			],
			"name": "userInfo",
			"outputs": [
				{
					"internalType": "uint256",
					"name": "shares",
					"type": "uint256"
				}
			],
			"stateMutability": "view",
			"type": "function"
		},
		{
			"inputs": [
				{
					"internalType": "uint256",
					"name": "_pid",
					"type": "uint256"
				},
				{
					"internalType": "uint256",
					"name": "_wantAmt",
					"type": "uint256"
				},
				{
					"internalType": "address",
					"name": "_to",
					"type": "address"
				}
			],
			"name": "withdraw",
			"outputs": [],
			"stateMutability": "nonpayable",
			"type": "function"
		},
		{
			"inputs": [
				{
					"internalType": "uint256",
					"name": "_pid",
					"type": "uint256"
				},
				{
					"internalType": "uint256",
					"name": "_wantAmt",
					"type": "uint256"
				}
			],
			"name": "withdraw",
			"outputs": [],
			"stateMutability": "nonpayable",
			"type": "function"
		},
		{
			"inputs": [
				{
					"internalType": "uint256",
					"name": "_pid",
					"type": "uint256"
				}
			],
			"name": "withdrawAll",
			"outputs": [],
			"stateMutability": "nonpayable",
			"type": "function"
		}
	]
}