{
	"data": {
		"bytecode": {
			"linkReferences": {},
			"object": "6080604052600160068190556007805460ff1916909117905534801561002457600080fd5b50600160005561003333610038565b61008a565b600180546001600160a01b038381166001600160a01b0319831681179093556040519116919082907f8be0079c531659141344cd1fd0a4f28419497f9722a3daafe3b4186f6b6457e090600090a35050565b613109806200009a6000396000f3fe608060405234801561001057600080fd5b50600436106101da5760003560e01c8063715018a611610104578063d914cd4b116100a2578063e2ff2f4711610071578063e2ff2f4714610401578063e718d1291461040e578063f2fde38b14610431578063fc77c9db1461044457600080fd5b8063d914cd4b146103ae578063d9b40aef146103c1578063de1c6ff0146103d4578063e2bbb158146103ee57600080fd5b80638dbdbe6d116100de5780638dbdbe6d1461036d57806393f1a40b14610380578063958e2d31146103935780639b05ddb3146103a657600080fd5b8063715018a6146103415780637b84daec146103495780638da5cb5b1461035c57600080fd5b80633505b09f1161017c5780634c2077ab1161014b5780634c2077ab146102f25780635d142d071461030557806369b5525d1461030e5780636d44a3b21461032e57600080fd5b80633505b09f146102b15780633d4fc8d1146102b9578063441a3e70146102cc57806348b3b036146102df57600080fd5b806313e7c9d8116101b857806313e7c9d81461021e5780631526fe271461025157806323e1ad7d14610273578063244e017c1461028657600080fd5b8063081e3eda146101df5780630ad58d2f146101f657806310e51e141461020b575b600080fd5b6003545b6040519081526020015b60405180910390f35b610209610204366004612843565b610457565b005b61020961021936600461287c565b6104ce565b61024161022c3660046126f4565b60026020526000908152604090205460ff1681565b60405190151581526020016101ed565b61026461025f3660046127a5565b6106fd565b6040516101ed939291906129da565b6102096102813660046127a5565b610743565b600854610299906001600160a01b031681565b6040516001600160a01b0390911681526020016101ed565b6102096107d9565b6102096102c73660046127fc565b61088e565b6102096102da366004612821565b61090c565b600954610299906001600160a01b031681565b6102096103003660046128ec565b610999565b6101e360065481565b6101e361031c3660046126f4565b600a6020526000908152604090205481565b61020961033c36600461272e565b610bf7565b610209610c75565b6101e36103573660046127d7565b610cab565b6001546001600160a01b0316610299565b61020961037b366004612843565b610e3a565b6101e361038e3660046127d7565b610e9c565b6102096103a13660046127a5565b610eaf565b610209610f10565b6102096103bc3660046126f4565b610f99565b6102096103cf3660046128ec565b61125a565b60075461029990630100000090046001600160a01b031681565b6102096103fc366004612821565b611397565b6007546102419060ff1681565b61024161041c3660046126f4565b60056020526000908152604090205460ff1681565b61020961043f3660046126f4565b611423565b6102096104523660046127a5565b6114bb565b600260005414156104835760405162461bcd60e51b815260040161047a90612a55565b60405180910390fd5b60026000818155338152602091909152604090205460ff166104b75760405162461bcd60e51b815260040161047a90612a8c565b6104c2838383611526565b50506001600055505050565b60075462010000900460ff16806104ed5750600754610100900460ff16155b6105505760405162461bcd60e51b815260206004820152602e60248201527f496e697469616c697a61626c653a20636f6e747261637420697320616c72656160448201526d191e481a5b9a5d1a585b1a5e995960921b606482015260840161047a565b60075462010000900460ff16158015610575576007805462ffff001916620101001790555b6001546001600160a01b0316331461059f5760405162461bcd60e51b815260040161047a90612a20565b60006040516105ad906126e7565b604051809103906000f0801580156105c9573d6000803e3d6000fd5b50604051630fe1cda960e31b81529091506001600160a01b03821690637f0e6d48906105fa906002906004016129ff565b600060405180830381600087803b15801561061457600080fd5b505af1158015610628573d6000803e3d6000fd5b50505050806001600160a01b0316631268a28f898961064f6001546001600160a01b031690565b6040516001600160e01b031960e086901b168152600481019390935260248301919091526001600160a01b039081166044830152808a166064830152808916608483015280881660a4830152861660c482015260e401600060405180830381600087803b1580156106bf57600080fd5b505af11580156106d3573d6000803e3d6000fd5b505050506106e081610f99565b5080156106f4576007805462ff0000191690555b50505050505050565b6003818154811061070d57600080fd5b6000918252602090912060029091020180546001909101546001600160a01b03918216925090811690600160a01b900460ff1683565b6001546001600160a01b0316331461076d5760405162461bcd60e51b815260040161047a90612a20565b60006003828154811061078257610782612c2e565b60009182526020822060016002909202019081015481549193506107b5926001600160a01b03928316929091169061162c565b600181015481546107d5916001600160a01b039182169116600019611783565b5050565b6001546001600160a01b031633146108035760405162461bcd60e51b815260040161047a90612a20565b60005b60035481101561088b5760006003828154811061082557610825612c2e565b6000918252602082206001600290920201908101548154919350610858926001600160a01b03928316929091169061162c565b60018101548154610878916001600160a01b039182169116600019611783565b508061088381612bbd565b915050610806565b50565b6001546001600160a01b031633146108b85760405162461bcd60e51b815260040161047a90612a20565b60068290556007805460ff19168215159081179091556040805184815260208101929092527feba593b5bd3e604f0314995a4d3b960cc02497e58addcb6f2f5b03b3308500f4910160405180910390a15050565b6002600054141561092f5760405162461bcd60e51b815260040161047a90612a55565b600260005560075460ff1680156109765750600654158061095f57503360009081526002602052604090205460ff165b806109765750600654600114801561097657503332145b156109835761098361184a565b61098e828233611526565b505060016000555050565b6001546001600160a01b031633146109c35760405162461bcd60e51b815260040161047a90612a20565b60006040516109d1906126e7565b604051809103906000f0801580156109ed573d6000803e3d6000fd5b50604051630fe1cda960e31b81529091506001600160a01b03821690637f0e6d4890610a1e906003906004016129ff565b600060405180830381600087803b158015610a3857600080fd5b505af1158015610a4c573d6000803e3d6000fd5b50505050806001600160a01b031663ff63a7368989610a736001546001600160a01b031690565b8a8a8a8a8a6040518963ffffffff1660e01b8152600401610a9b989796959493929190612ae9565b600060405180830381600087803b158015610ab557600080fd5b505af1158015610ac9573d6000803e3d6000fd5b50505050610ad681610f99565b6003600081548110610aea57610aea612c2e565b906000526020600020906002020160000160009054906101000a90046001600160a01b03166001600160a01b0316816001600160a01b031663d62e969d6040518163ffffffff1660e01b8152600401602060405180830381600087803b158015610b5357600080fd5b505af1158015610b67573d6000803e3d6000fd5b505050506040513d601f19601f82011682018060405250810190610b8b9190612711565b6001600160a01b031614610bed5760405162461bcd60e51b8152602060048201526024808201527f6d6178696d697a6572206d6178696d697a6573207468652077726f6e6720746f6044820152636b656e2160e01b606482015260840161047a565b5050505050505050565b6001546001600160a01b03163314610c215760405162461bcd60e51b815260040161047a90612a20565b6001600160a01b038216600081815260026020526040808220805460ff191685151590811790915590519092917f966c160e1c4dbc7df8d69af4ace01e9297c3cf016397b7914971f2fbfa32672d91a35050565b6001546001600160a01b03163314610c9f5760405162461bcd60e51b815260040161047a90612a20565b610ca9600061194d565b565b60008060038481548110610cc157610cc1612c2e565b9060005260206000209060020201905060008160010160009054906101000a90046001600160a01b03166001600160a01b03166344a3955e6040518163ffffffff1660e01b815260040160206040518083038186803b158015610d2357600080fd5b505afa158015610d37573d6000803e3d6000fd5b505050506040513d601f19601f82011682018060405250810190610d5b91906127be565b9050600060038681548110610d7257610d72612c2e565b600091825260209182902060016002909202010154604080516342da4eb360e01b815290516001600160a01b03909216926342da4eb392600480840193829003018186803b158015610dc357600080fd5b505afa158015610dd7573d6000803e3d6000fd5b505050506040513d601f19601f82011682018060405250810190610dfb91906127be565b905081610e0e5760009350505050610e34565b8181610e1a888861199f565b610e249190612b5b565b610e2e9190612b47565b93505050505b92915050565b60026000541415610e5d5760405162461bcd60e51b815260040161047a90612a55565b60026000818155338152602091909152604090205460ff16610e915760405162461bcd60e51b815260040161047a90612a8c565b61098e838383611a5c565b6000610ea8838361199f565b9392505050565b60075460ff168015610ef157506006541580610eda57503360009081526002602052604090205460ff165b80610ef157506006546001148015610ef157503332145b15610efe57610efe61184a565b610f0b8160001933611526565b505050565b6006541580610f2e57503360009081526002602052604090205460ff165b80610f4557506006546001148015610f4557503332145b610f915760405162461bcd60e51b815260206004820152601960248201527f436f6d706f756e64696e67206973207265737472696374656400000000000000604482015260640161047a565b610ca961184a565b6001546001600160a01b03163314610fc35760405162461bcd60e51b815260040161047a90612a20565b60026000541415610fe65760405162461bcd60e51b815260040161047a90612a55565b600260009081556001600160a01b03821681526005602052604090205460ff16156110475760405162461bcd60e51b81526020600482015260116024820152704578697374696e6720737472617465677960781b604482015260640161047a565b60036040518060600160405280836001600160a01b031663e7a036796040518163ffffffff1660e01b815260040160206040518083038186803b15801561108d57600080fd5b505afa1580156110a1573d6000803e3d6000fd5b505050506040513d601f19601f820116820180604052508101906110c59190612711565b6001600160a01b03168152602001836001600160a01b03168152602001836001600160a01b0316637115e9fa6040518163ffffffff1660e01b8152600401602060405180830381600087803b15801561111d57600080fd5b505af1158015611131573d6000803e3d6000fd5b505050506040513d601f19601f820116820180604052508101906111559190612784565b600381111561116657611166612c18565b90528154600181810184556000938452602093849020835160029093020180546001600160a01b039384166001600160a01b0319918216178255948401519181018054929093169482168517835560408401519394909392916001600160a81b03191617600160a01b8360038111156111e1576111e1612c18565b021790555050506001600160a01b0381166000908152600560205260409020805460ff1916600190811790915560035461121e9161028191612b7a565b6040516001600160a01b038216907f8c82d670bc9247c2cfb6964089bc9cff0255f9caade6fbc74a13368083e5546690600090a2506001600055565b6001546001600160a01b031633146112845760405162461bcd60e51b815260040161047a90612a20565b6000604051611292906126e7565b604051809103906000f0801580156112ae573d6000803e3d6000fd5b50604051630fe1cda960e31b81529091506001600160a01b03821690637f0e6d48906112df906001906004016129ff565b600060405180830381600087803b1580156112f957600080fd5b505af115801561130d573d6000803e3d6000fd5b50505050806001600160a01b031663ff63a73689896113346001546001600160a01b031690565b8a8a8a8a8a6040518963ffffffff1660e01b815260040161135c989796959493929190612ae9565b600060405180830381600087803b15801561137657600080fd5b505af115801561138a573d6000803e3d6000fd5b50505050610bed81610f99565b600260005414156113ba5760405162461bcd60e51b815260040161047a90612a55565b600260005560075460ff168015611401575060065415806113ea57503360009081526002602052604090205460ff165b806114015750600654600114801561140157503332145b1561140e5761140e61184a565b611419828233611a5c565b5050600160005550565b6001546001600160a01b0316331461144d5760405162461bcd60e51b815260040161047a90612a20565b6001600160a01b0381166114b25760405162461bcd60e51b815260206004820152602660248201527f4f776e61626c653a206e6577206f776e657220697320746865207a65726f206160448201526564647265737360d01b606482015260840161047a565b61088b8161194d565b3360009081526005602052604090205460ff1661151a5760405162461bcd60e51b815260206004820152601b60248201527f6f6e6c792063616c6c61626c6520627920737472617465676965730000000000604482015260640161047a565b6107d560008233611bd9565b600080611534858585611d24565b909250905084158015906115485750600082115b80156115955750600380868154811061156357611563612c2e565b906000526020600020906002020160010160149054906101000a900460ff16600381111561159357611593612c18565b145b15611624576000600386815481106115af576115af612c2e565b600091825260208220600160029092020101546001600160a01b031691506115d7818361199f565b905060006115fa85836115ea8783612b7a565b6115f49190612b5b565b906120fc565b6116049083612b7a565b90506116126000848361212e565b5061161f600087836121e8565b505050505b935093915050565b8015806116b55750604051636eb1769f60e11b81523060048201526001600160a01b03838116602483015284169063dd62ed3e9060440160206040518083038186803b15801561167b57600080fd5b505afa15801561168f573d6000803e3d6000fd5b505050506040513d601f19601f820116820180604052508101906116b391906127be565b155b6117205760405162461bcd60e51b815260206004820152603660248201527f5361666545524332303a20617070726f76652066726f6d206e6f6e2d7a65726f60448201527520746f206e6f6e2d7a65726f20616c6c6f77616e636560501b606482015260840161047a565b6040516001600160a01b038316602482015260448101829052610f0b90849063095ea7b360e01b906064015b60408051601f198184030181529190526020810180516001600160e01b03166001600160e01b03199093169290921790915261224b565b604051636eb1769f60e11b81523060048201526001600160a01b038381166024830152600091839186169063dd62ed3e9060440160206040518083038186803b1580156117cf57600080fd5b505afa1580156117e3573d6000803e3d6000fd5b505050506040513d601f19601f8201168201806040525081019061180791906127be565b6118119190612b2f565b6040516001600160a01b03851660248201526044810182905290915061184490859063095ea7b360e01b9060640161174c565b50505050565b60035460005b818110156107d5576003818154811061186b5761186b612c2e565b600091825260208220600160029092020101546040805163d389800f60e01b815290516001600160a01b039092169263d389800f9260048084019382900301818387803b1580156118bb57600080fd5b505af19250505080156118cc575060015b61193b573d8080156118fa576040519150601f19603f3d011682016040523d82523d6000602084013e6118ff565b606091505b507fae452807c2b0698ea0d198e28dab35283cbb33b5ffd82a4dc799e21279d0a6308282604051611931929190612ad0565b60405180910390a1505b8061194581612bbd565b915050611850565b600180546001600160a01b038381166001600160a01b0319831681179093556040519116919082907f8be0079c531659141344cd1fd0a4f28419497f9722a3daafe3b4186f6b6457e090600090a35050565b6001600160a01b03811660009081527f17ef568e3e12ab5b9c7254a8d58478811de00f9e6eb34345acd53bf8fd09d3ec6020526040902054821580156119fe57506001600160a01b03821660009081526005602052604090205460ff16155b15610e345760015b600354811015611a3857611a1a818461231d565b611a249083612b2f565b915080611a3081612bbd565b915050611a06565b506001600160a01b0382166000908152600a6020526040902054610ea89082612b7a565b60008060038581548110611a7257611a72612c2e565b906000526020600020906002020160010160009054906101000a90046001600160a01b031690506000816001600160a01b03166344a3955e6040518163ffffffff1660e01b815260040160206040518083038186803b158015611ad457600080fd5b505afa158015611ae8573d6000803e3d6000fd5b505050506040513d601f19601f82011682018060405250810190611b0c91906127be565b9050611b19868686611bd9565b9250600086118015611b2b5750600081115b8015611b7857506003808781548110611b4657611b46612c2e565b906000526020600020906002020160010160149054906101000a900460ff166003811115611b7657611b76612c18565b145b15611bd0576000611b8a60008461199f565b9050600081611ba784611b9d8882612b2f565b6115f49086612b5b565b611bb19190612b7a565b9050611bbf600085836121e8565b50611bcc6000878361212e565b5050505b50509392505050565b60008060038581548110611bef57611bef612c2e565b906000526020600020906002020190506000841115611cd8578054611c1f906001600160a01b03163330876124e3565b60038581548110611c3257611c32612c2e565b60009182526020909120600290910201600101546040516311f9fbc960e21b81526001600160a01b03858116600483015260248201879052909116906347e7ef2490604401602060405180830381600087803b158015611c9157600080fd5b505af1158015611ca5573d6000803e3d6000fd5b505050506040513d601f19601f82011682018060405250810190611cc991906127be565b9150611cd68584846121e8565b505b84836001600160a01b03167f90890809c654f11d6e72a28fa60149770a0d11ec6c92319d6ceb2bb0a4ea1a1586604051611d1491815260200190565b60405180910390a3509392505050565b600080600060038681548110611d3c57611d3c612c2e565b906000526020600020906002020190506000611d58873361199f565b9050600060038881548110611d6f57611d6f612c2e565b600091825260209182902060016002909202010154604080516342da4eb360e01b815290516001600160a01b03909216926342da4eb392600480840193829003018186803b158015611dc057600080fd5b505afa158015611dd4573d6000803e3d6000fd5b505050506040513d601f19601f82011682018060405250810190611df891906127be565b905060038881548110611e0d57611e0d612c2e565b60009182526020918290206001600290920201015460408051632251caaf60e11b815290516001600160a01b03909216926344a3955e92600480840193829003018186803b158015611e5e57600080fd5b505afa158015611e72573d6000803e3d6000fd5b505050506040513d601f19601f82011682018060405250810190611e9691906127be565b945060008211611eda5760405162461bcd60e51b815260206004820152600f60248201526e075736572536861726573206973203608c1b604482015260640161047a565b60008511611f1d5760405162461bcd60e51b815260206004820152601060248201526f0736861726573546f74616c20697320360841b604482015260640161047a565b600085611f2a8385612b5b565b611f349190612b47565b905080881115611f42578097505b87156120b95760038981548110611f5b57611f5b612c2e565b600091825260209091206002909102016001015460405163f3fef3a360e01b8152336004820152602481018a90526001600160a01b039091169063f3fef3a390604401602060405180830381600087803b158015611fb857600080fd5b505af1158015611fcc573d6000803e3d6000fd5b505050506040513d601f19601f82011682018060405250810190611ff091906127be565b94508285111561200b5761200589338561212e565b50612018565b61201689338761212e565b505b83546040516370a0823160e01b81523060048201526000916001600160a01b0316906370a082319060240160206040518083038186803b15801561205b57600080fd5b505afa15801561206f573d6000803e3d6000fd5b505050506040513d601f19601f8201168201806040525081019061209391906127be565b9050888110156120a1578098505b84546120b7906001600160a01b0316898b61251b565b505b604051888152899033907ff279e6a1f5e320cca91135676d9cb6e44ca8a08c0b88342bcdb1144f6511b5689060200160405180910390a350505050935093915050565b60006121088284612bd8565b15612114576001612117565b60005b60ff166121248385612b47565b610ea89190612b2f565b60008315801561215757506001600160a01b03831660009081526005602052604090205460ff16155b801561219957506001600160a01b03831660009081527f17ef568e3e12ab5b9c7254a8d58478811de00f9e6eb34345acd53bf8fd09d3ec602052604090205482115b156121dd576001600160a01b0383166000908152600a6020526040812080548492906121c6908490612b2f565b909155506121d69050848461199f565b9050610ea8565b6121d684848461254b565b60008381526004602090815260408083206001600160a01b038616845290915281208054839190839061221c908490612b2f565b9091555050506000928352506004602090815260408084206001600160a01b0393909316845291905290205490565b60006122a0826040518060400160405280602081526020017f5361666545524332303a206c6f772d6c6576656c2063616c6c206661696c6564815250856001600160a01b031661257f9092919063ffffffff16565b805190915015610f0b57808060200190518101906122be9190612767565b610f0b5760405162461bcd60e51b815260206004820152602a60248201527f5361666545524332303a204552433230206f7065726174696f6e20646964206e6044820152691bdd081cdd58d8d9595960b21b606482015260840161047a565b6000808311801561232f575060035483105b6123945760405162461bcd60e51b815260206004820152603060248201527f5661756c744865616c65724d6178693a20636f726553686172657346726f6d4d60448201526f185e1a5b5a5e995c88189859081c1a5960821b606482015260840161047a565b60038084815481106123a8576123a8612c2e565b906000526020600020906002020160010160149054906101000a900460ff1660038111156123d8576123d8612c18565b146123e557506000610e34565b60006123f1848461199f565b905060006003858154811061240857612408612c2e565b906000526020600020906002020160010160009054906101000a90046001600160a01b031690506000816001600160a01b03166344a3955e6040518163ffffffff1660e01b815260040160206040518083038186803b15801561246a57600080fd5b505afa15801561247e573d6000803e3d6000fd5b505050506040513d601f19601f820116820180604052508101906124a291906127be565b9050806124b55760009350505050610e34565b60006124c1878461199f565b9050816124ce8286612b5b565b6124d89190612b47565b979650505050505050565b6040516001600160a01b03808516602483015283166044820152606481018290526118449085906323b872dd60e01b9060840161174c565b6040516001600160a01b038316602482015260448101829052610f0b90849063a9059cbb60e01b9060640161174c565b60008381526004602090815260408083206001600160a01b038616845290915281208054839190839061221c908490612b7a565b606061258e8484600085612596565b949350505050565b6060824710156125f75760405162461bcd60e51b815260206004820152602660248201527f416464726573733a20696e73756666696369656e742062616c616e636520666f6044820152651c8818d85b1b60d21b606482015260840161047a565b843b6126455760405162461bcd60e51b815260206004820152601d60248201527f416464726573733a2063616c6c20746f206e6f6e2d636f6e7472616374000000604482015260640161047a565b600080866001600160a01b0316858760405161266191906129be565b60006040518083038185875af1925050503d806000811461269e576040519150601f19603f3d011682016040523d82523d6000602084013e6126a3565b606091505b50915091506124d8828286606083156126bd575081610ea8565b8251156126cd5782518084602001fd5b8160405162461bcd60e51b815260040161047a9190612a0d565b61046c80612c6883390190565b60006020828403121561270657600080fd5b8135610ea881612c44565b60006020828403121561272357600080fd5b8151610ea881612c44565b6000806040838503121561274157600080fd5b823561274c81612c44565b9150602083013561275c81612c59565b809150509250929050565b60006020828403121561277957600080fd5b8151610ea881612c59565b60006020828403121561279657600080fd5b815160048110610ea857600080fd5b6000602082840312156127b757600080fd5b5035919050565b6000602082840312156127d057600080fd5b5051919050565b600080604083850312156127ea57600080fd5b82359150602083013561275c81612c44565b6000806040838503121561280f57600080fd5b82359150602083013561275c81612c59565b6000806040838503121561283457600080fd5b50508035926020909101359150565b60008060006060848603121561285857600080fd5b8335925060208401359150604084013561287181612c44565b809150509250925092565b60008060008060008060c0878903121561289557600080fd5b863595506020870135945060408701356128ae81612c44565b935060608701356128be81612c44565b925060808701356128ce81612c44565b915060a08701356128de81612c44565b809150509295509295509295565b600080600080600080600060e0888a03121561290757600080fd5b8735965060208801359550604088013561292081612c44565b9450606088013561293081612c44565b9350608088013561294081612c44565b925060a088013561295081612c44565b915060c088013561296081612c44565b8091505092959891949750929550565b60008151808452612988816020860160208601612b91565b601f01601f19169290920160200192915050565b600481106129ba57634e487b7160e01b600052602160045260246000fd5b9052565b600082516129d0818460208701612b91565b9190910192915050565b6001600160a01b038481168252831660208201526060810161258e604083018461299c565b60208101610e34828461299c565b602081526000610ea86020830184612970565b6020808252818101527f4f776e61626c653a2063616c6c6572206973206e6f7420746865206f776e6572604082015260600190565b6020808252601f908201527f5265656e7472616e637947756172643a207265656e7472616e742063616c6c00604082015260600190565b60208082526024908201527f4f70657261746f723a2063616c6c6572206973206e6f7420746865206f70657260408201526330ba37b960e11b606082015260800190565b82815260406020820152600061258e6040830184612970565b97885260208801969096526001600160a01b03948516604088015292841660608701529083166080860152821660a0850152811660c08401521660e08201526101000190565b60008219821115612b4257612b42612bec565b500190565b600082612b5657612b56612c02565b500490565b6000816000190483118215151615612b7557612b75612bec565b500290565b600082821015612b8c57612b8c612bec565b500390565b60005b83811015612bac578181015183820152602001612b94565b838111156118445750506000910152565b6000600019821415612bd157612bd1612bec565b5060010190565b600082612be757612be7612c02565b500690565b634e487b7160e01b600052601160045260246000fd5b634e487b7160e01b600052601260045260246000fd5b634e487b7160e01b600052602160045260246000fd5b634e487b7160e01b600052603260045260246000fd5b6001600160a01b038116811461088b57600080fd5b801515811461088b57600080fdfe608060405234801561001057600080fd5b5061044c806100206000396000f3fe6080604052600436106100225760003560e01c80637f0e6d481461003957610031565b366100315761002f610059565b005b61002f610059565b34801561004557600080fd5b5061002f6100543660046103df565b61006b565b6100696100646101b4565b61038b565b565b600054610100900460ff1680610084575060005460ff16155b6100ec5760405162461bcd60e51b815260206004820152602e60248201527f496e697469616c697a61626c653a20636f6e747261637420697320616c72656160448201526d191e481a5b9a5d1a585b1a5e995960921b60648201526084015b60405180910390fd5b600054610100900460ff1615801561010e576000805461ffff19166101011790555b600082600381111561012257610122610400565b141561015b5760405162461bcd60e51b8152602060048201526008602482015267594120424153494360c01b60448201526064016100e3565b6000805483919060ff60b01b1916600160b01b83600381111561018057610180610400565b02179055506000805462010000600160b01b03191633620100000217905580156101b0576000805461ff00191690555b5050565b60006001600054600160b01b900460ff1660038111156101d6576101d6610400565b141561026757600060029054906101000a90046001600160a01b03166001600160a01b031663244e017c6040518163ffffffff1660e01b815260040160206040518083038186803b15801561022a57600080fd5b505afa15801561023e573d6000803e3d6000fd5b505050506040513d601f19601f8201168201806040525081019061026291906103af565b905090565b6002600054600160b01b900460ff16600381111561028757610287610400565b14156102db57600060029054906101000a90046001600160a01b03166001600160a01b031663de1c6ff06040518163ffffffff1660e01b815260040160206040518083038186803b15801561022a57600080fd5b6003600054600160b01b900460ff1660038111156102fb576102fb610400565b141561034f57600060029054906101000a90046001600160a01b03166001600160a01b03166348b3b0366040518163ffffffff1660e01b815260040160206040518083038186803b15801561022a57600080fd5b60405162461bcd60e51b815260206004820152601160248201527027379034b6b83632b6b2b73a30ba34b7b760791b60448201526064016100e3565b3660008037600080366000845af43d6000803e8080156103aa573d6000f35b3d6000fd5b6000602082840312156103c157600080fd5b81516001600160a01b03811681146103d857600080fd5b9392505050565b6000602082840312156103f157600080fd5b8135600481106103d857600080fd5b634e487b7160e01b600052602160045260246000fdfea26469706673582212202740df80e20edb41c39d3b942af869897004b704d248703689f1e6cf89ea109664736f6c63430008070033a2646970667358221220ec8ec82d5d5038de3984157e0bb196ec70f122863789673bf1e10c5e2ea344f464736f6c63430008070033",
			"opcodes": "PUSH1 0x80 PUSH1 0x40 MSTORE PUSH1 0x1 PUSH1 0x6 DUP2 SWAP1 SSTORE PUSH1 0x7 DUP1 SLOAD PUSH1 0xFF NOT AND SWAP1 SWAP2 OR SWAP1 SSTORE CALLVALUE DUP1 ISZERO PUSH2 0x24 JUMPI PUSH1 0x0 DUP1 REVERT JUMPDEST POP PUSH1 0x1 PUSH1 0x0 SSTORE PUSH2 0x33 CALLER PUSH2 0x38 JUMP JUMPDEST PUSH2 0x8A JUMP JUMPDEST PUSH1 0x1 DUP1 SLOAD PUSH1 0x1 PUSH1 0x1 PUSH1 0xA0 SHL SUB DUP4 DUP2 AND PUSH1 0x1 PUSH1 0x1 PUSH1 0xA0 SHL SUB NOT DUP4 AND DUP2 OR SWAP1 SWAP4 SSTORE PUSH1 0x40 MLOAD SWAP2 AND SWAP2 SWAP1 DUP3 SWAP1 PUSH32 0x8BE0079C531659141344CD1FD0A4F28419497F9722A3DAAFE3B4186F6B6457E0 SWAP1 PUSH1 0x0 SWAP1 LOG3 POP POP JUMP JUMPDEST PUSH2 0x3109 DUP1 PUSH3 0x9A PUSH1 0x0 CODECOPY PUSH1 0x0 RETURN INVALID PUSH1 0x80 PUSH1 0x40 MSTORE CALLVALUE DUP1 ISZERO PUSH2 0x10 JUMPI PUSH1 0x0 DUP1 REVERT JUMPDEST POP PUSH1 0x4 CALLDATASIZE LT PUSH2 0x1DA JUMPI PUSH1 0x0 CALLDATALOAD PUSH1 0xE0 SHR DUP1 PUSH4 0x715018A6 GT PUSH2 0x104 JUMPI DUP1 PUSH4 0xD914CD4B GT PUSH2 0xA2 JUMPI DUP1 PUSH4 0xE2FF2F47 GT PUSH2 0x71 JUMPI DUP1 PUSH4 0xE2FF2F47 EQ PUSH2 0x401 JUMPI DUP1 PUSH4 0xE718D129 EQ PUSH2 0x40E JUMPI DUP1 PUSH4 0xF2FDE38B EQ PUSH2 0x431 JUMPI DUP1 PUSH4 0xFC77C9DB EQ PUSH2 0x444 JUMPI PUSH1 0x0 DUP1 REVERT JUMPDEST DUP1 PUSH4 0xD914CD4B EQ PUSH2 0x3AE JUMPI DUP1 PUSH4 0xD9B40AEF EQ PUSH2 0x3C1 JUMPI DUP1 PUSH4 0xDE1C6FF0 EQ PUSH2 0x3D4 JUMPI DUP1 PUSH4 0xE2BBB158 EQ PUSH2 0x3EE JUMPI PUSH1 0x0 DUP1 REVERT JUMPDEST DUP1 PUSH4 0x8DBDBE6D GT PUSH2 0xDE JUMPI DUP1 PUSH4 0x8DBDBE6D EQ PUSH2 0x36D JUMPI DUP1 PUSH4 0x93F1A40B EQ PUSH2 0x380 JUMPI DUP1 PUSH4 0x958E2D31 EQ PUSH2 0x393 JUMPI DUP1 PUSH4 0x9B05DDB3 EQ PUSH2 0x3A6 JUMPI PUSH1 0x0 DUP1 REVERT JUMPDEST DUP1 PUSH4 0x715018A6 EQ PUSH2 0x341 JUMPI DUP1 PUSH4 0x7B84DAEC EQ PUSH2 0x349 JUMPI DUP1 PUSH4 0x8DA5CB5B EQ PUSH2 0x35C JUMPI PUSH1 0x0 DUP1 REVERT JUMPDEST DUP1 PUSH4 0x3505B09F GT PUSH2 0x17C JUMPI DUP1 PUSH4 0x4C2077AB GT PUSH2 0x14B JUMPI DUP1 PUSH4 0x4C2077AB EQ PUSH2 0x2F2 JUMPI DUP1 PUSH4 0x5D142D07 EQ PUSH2 0x305 JUMPI DUP1 PUSH4 0x69B5525D EQ PUSH2 0x30E JUMPI DUP1 PUSH4 0x6D44A3B2 EQ PUSH2 0x32E JUMPI PUSH1 0x0 DUP1 REVERT JUMPDEST DUP1 PUSH4 0x3505B09F EQ PUSH2 0x2B1 JUMPI DUP1 PUSH4 0x3D4FC8D1 EQ PUSH2 0x2B9 JUMPI DUP1 PUSH4 0x441A3E70 EQ PUSH2 0x2CC JUMPI DUP1 PUSH4 0x48B3B036 EQ PUSH2 0x2DF JUMPI PUSH1 0x0 DUP1 REVERT JUMPDEST DUP1 PUSH4 0x13E7C9D8 GT PUSH2 0x1B8 JUMPI DUP1 PUSH4 0x13E7C9D8 EQ PUSH2 0x21E JUMPI DUP1 PUSH4 0x1526FE27 EQ PUSH2 0x251 JUMPI DUP1 PUSH4 0x23E1AD7D EQ PUSH2 0x273 JUMPI DUP1 PUSH4 0x244E017C EQ PUSH2 0x286 JUMPI PUSH1 0x0 DUP1 REVERT JUMPDEST DUP1 PUSH4 0x81E3EDA EQ PUSH2 0x1DF JUMPI DUP1 PUSH4 0xAD58D2F EQ PUSH2 0x1F6 JUMPI DUP1 PUSH4 0x10E51E14 EQ PUSH2 0x20B JUMPI JUMPDEST PUSH1 0x0 DUP1 REVERT JUMPDEST PUSH1 0x3 SLOAD JUMPDEST PUSH1 0x40 MLOAD SWAP1 DUP2 MSTORE PUSH1 0x20 ADD JUMPDEST PUSH1 0x40 MLOAD DUP1 SWAP2 SUB SWAP1 RETURN JUMPDEST PUSH2 0x209 PUSH2 0x204 CALLDATASIZE PUSH1 0x4 PUSH2 0x2843 JUMP JUMPDEST PUSH2 0x457 JUMP JUMPDEST STOP JUMPDEST PUSH2 0x209 PUSH2 0x219 CALLDATASIZE PUSH1 0x4 PUSH2 0x287C JUMP JUMPDEST PUSH2 0x4CE JUMP JUMPDEST PUSH2 0x241 PUSH2 0x22C CALLDATASIZE PUSH1 0x4 PUSH2 0x26F4 JUMP JUMPDEST PUSH1 0x2 PUSH1 0x20 MSTORE PUSH1 0x0 SWAP1 DUP2 MSTORE PUSH1 0x40 SWAP1 KECCAK256 SLOAD PUSH1 0xFF AND DUP2 JUMP JUMPDEST PUSH1 0x40 MLOAD SWAP1 ISZERO ISZERO DUP2 MSTORE PUSH1 0x20 ADD PUSH2 0x1ED JUMP JUMPDEST PUSH2 0x264 PUSH2 0x25F CALLDATASIZE PUSH1 0x4 PUSH2 0x27A5 JUMP JUMPDEST PUSH2 0x6FD JUMP JUMPDEST PUSH1 0x40 MLOAD PUSH2 0x1ED SWAP4 SWAP3 SWAP2 SWAP1 PUSH2 0x29DA JUMP JUMPDEST PUSH2 0x209 PUSH2 0x281 CALLDATASIZE PUSH1 0x4 PUSH2 0x27A5 JUMP JUMPDEST PUSH2 0x743 JUMP JUMPDEST PUSH1 0x8 SLOAD PUSH2 0x299 SWAP1 PUSH1 0x1 PUSH1 0x1 PUSH1 0xA0 SHL SUB AND DUP2 JUMP JUMPDEST PUSH1 0x40 MLOAD PUSH1 0x1 PUSH1 0x1 PUSH1 0xA0 SHL SUB SWAP1 SWAP2 AND DUP2 MSTORE PUSH1 0x20 ADD PUSH2 0x1ED JUMP JUMPDEST PUSH2 0x209 PUSH2 0x7D9 JUMP JUMPDEST PUSH2 0x209 PUSH2 0x2C7 CALLDATASIZE PUSH1 0x4 PUSH2 0x27FC JUMP JUMPDEST PUSH2 0x88E JUMP JUMPDEST PUSH2 0x209 PUSH2 0x2DA CALLDATASIZE PUSH1 0x4 PUSH2 0x2821 JUMP JUMPDEST PUSH2 0x90C JUMP JUMPDEST PUSH1 0x9 SLOAD PUSH2 0x299 SWAP1 PUSH1 0x1 PUSH1 0x1 PUSH1 0xA0 SHL SUB AND DUP2 JUMP JUMPDEST PUSH2 0x209 PUSH2 0x300 CALLDATASIZE PUSH1 0x4 PUSH2 0x28EC JUMP JUMPDEST PUSH2 0x999 JUMP JUMPDEST PUSH2 0x1E3 PUSH1 0x6 SLOAD DUP2 JUMP JUMPDEST PUSH2 0x1E3 PUSH2 0x31C CALLDATASIZE PUSH1 0x4 PUSH2 0x26F4 JUMP JUMPDEST PUSH1 0xA PUSH1 0x20 MSTORE PUSH1 0x0 SWAP1 DUP2 MSTORE PUSH1 0x40 SWAP1 KECCAK256 SLOAD DUP2 JUMP JUMPDEST PUSH2 0x209 PUSH2 0x33C CALLDATASIZE PUSH1 0x4 PUSH2 0x272E JUMP JUMPDEST PUSH2 0xBF7 JUMP JUMPDEST PUSH2 0x209 PUSH2 0xC75 JUMP JUMPDEST PUSH2 0x1E3 PUSH2 0x357 CALLDATASIZE PUSH1 0x4 PUSH2 0x27D7 JUMP JUMPDEST PUSH2 0xCAB JUMP JUMPDEST PUSH1 0x1 SLOAD PUSH1 0x1 PUSH1 0x1 PUSH1 0xA0 SHL SUB AND PUSH2 0x299 JUMP JUMPDEST PUSH2 0x209 PUSH2 0x37B CALLDATASIZE PUSH1 0x4 PUSH2 0x2843 JUMP JUMPDEST PUSH2 0xE3A JUMP JUMPDEST PUSH2 0x1E3 PUSH2 0x38E CALLDATASIZE PUSH1 0x4 PUSH2 0x27D7 JUMP JUMPDEST PUSH2 0xE9C JUMP JUMPDEST PUSH2 0x209 PUSH2 0x3A1 CALLDATASIZE PUSH1 0x4 PUSH2 0x27A5 JUMP JUMPDEST PUSH2 0xEAF JUMP JUMPDEST PUSH2 0x209 PUSH2 0xF10 JUMP JUMPDEST PUSH2 0x209 PUSH2 0x3BC CALLDATASIZE PUSH1 0x4 PUSH2 0x26F4 JUMP JUMPDEST PUSH2 0xF99 JUMP JUMPDEST PUSH2 0x209 PUSH2 0x3CF CALLDATASIZE PUSH1 0x4 PUSH2 0x28EC JUMP JUMPDEST PUSH2 0x125A JUMP JUMPDEST PUSH1 0x7 SLOAD PUSH2 0x299 SWAP1 PUSH4 0x1000000 SWAP1 DIV PUSH1 0x1 PUSH1 0x1 PUSH1 0xA0 SHL SUB AND DUP2 JUMP JUMPDEST PUSH2 0x209 PUSH2 0x3FC CALLDATASIZE PUSH1 0x4 PUSH2 0x2821 JUMP JUMPDEST PUSH2 0x1397 JUMP JUMPDEST PUSH1 0x7 SLOAD PUSH2 0x241 SWAP1 PUSH1 0xFF AND DUP2 JUMP JUMPDEST PUSH2 0x241 PUSH2 0x41C CALLDATASIZE PUSH1 0x4 PUSH2 0x26F4 JUMP JUMPDEST PUSH1 0x5 PUSH1 0x20 MSTORE PUSH1 0x0 SWAP1 DUP2 MSTORE PUSH1 0x40 SWAP1 KECCAK256 SLOAD PUSH1 0xFF AND DUP2 JUMP JUMPDEST PUSH2 0x209 PUSH2 0x43F CALLDATASIZE PUSH1 0x4 PUSH2 0x26F4 JUMP JUMPDEST PUSH2 0x1423 JUMP JUMPDEST PUSH2 0x209 PUSH2 0x452 CALLDATASIZE PUSH1 0x4 PUSH2 0x27A5 JUMP JUMPDEST PUSH2 0x14BB JUMP JUMPDEST PUSH1 0x2 PUSH1 0x0 SLOAD EQ ISZERO PUSH2 0x483 JUMPI PUSH1 0x40 MLOAD PUSH3 0x461BCD PUSH1 0xE5 SHL DUP2 MSTORE PUSH1 0x4 ADD PUSH2 0x47A SWAP1 PUSH2 0x2A55 JUMP JUMPDEST PUSH1 0x40 MLOAD DUP1 SWAP2 SUB SWAP1 REVERT JUMPDEST PUSH1 0x2 PUSH1 0x0 DUP2 DUP2 SSTORE CALLER DUP2 MSTORE PUSH1 0x20 SWAP2 SWAP1 SWAP2 MSTORE PUSH1 0x40 SWAP1 KECCAK256 SLOAD PUSH1 0xFF AND PUSH2 0x4B7 JUMPI PUSH1 0x40 MLOAD PUSH3 0x461BCD PUSH1 0xE5 SHL DUP2 MSTORE PUSH1 0x4 ADD PUSH2 0x47A SWAP1 PUSH2 0x2A8C JUMP JUMPDEST PUSH2 0x4C2 DUP4 DUP4 DUP4 PUSH2 0x1526 JUMP JUMPDEST POP POP PUSH1 0x1 PUSH1 0x0 SSTORE POP POP POP JUMP JUMPDEST PUSH1 0x7 SLOAD PUSH3 0x10000 SWAP1 DIV PUSH1 0xFF AND DUP1 PUSH2 0x4ED JUMPI POP PUSH1 0x7 SLOAD PUSH2 0x100 SWAP1 DIV PUSH1 0xFF AND ISZERO JUMPDEST PUSH2 0x550 JUMPI PUSH1 0x40 MLOAD PUSH3 0x461BCD PUSH1 0xE5 SHL DUP2 MSTORE PUSH1 0x20 PUSH1 0x4 DUP3 ADD MSTORE PUSH1 0x2E PUSH1 0x24 DUP3 ADD MSTORE PUSH32 0x496E697469616C697A61626C653A20636F6E747261637420697320616C726561 PUSH1 0x44 DUP3 ADD MSTORE PUSH14 0x191E481A5B9A5D1A585B1A5E9959 PUSH1 0x92 SHL PUSH1 0x64 DUP3 ADD MSTORE PUSH1 0x84 ADD PUSH2 0x47A JUMP JUMPDEST PUSH1 0x7 SLOAD PUSH3 0x10000 SWAP1 DIV PUSH1 0xFF AND ISZERO DUP1 ISZERO PUSH2 0x575 JUMPI PUSH1 0x7 DUP1 SLOAD PUSH3 0xFFFF00 NOT AND PUSH3 0x10100 OR SWAP1 SSTORE JUMPDEST PUSH1 0x1 SLOAD PUSH1 0x1 PUSH1 0x1 PUSH1 0xA0 SHL SUB AND CALLER EQ PUSH2 0x59F JUMPI PUSH1 0x40 MLOAD PUSH3 0x461BCD PUSH1 0xE5 SHL DUP2 MSTORE PUSH1 0x4 ADD PUSH2 0x47A SWAP1 PUSH2 0x2A20 JUMP JUMPDEST PUSH1 0x0 PUSH1 0x40 MLOAD PUSH2 0x5AD SWAP1 PUSH2 0x26E7 JUMP JUMPDEST PUSH1 0x40 MLOAD DUP1 SWAP2 SUB SWAP1 PUSH1 0x0 CREATE DUP1 ISZERO DUP1 ISZERO PUSH2 0x5C9 JUMPI RETURNDATASIZE PUSH1 0x0 DUP1 RETURNDATACOPY RETURNDATASIZE PUSH1 0x0 REVERT JUMPDEST POP PUSH1 0x40 MLOAD PUSH4 0xFE1CDA9 PUSH1 0xE3 SHL DUP2 MSTORE SWAP1 SWAP2 POP PUSH1 0x1 PUSH1 0x1 PUSH1 0xA0 SHL SUB DUP3 AND SWAP1 PUSH4 0x7F0E6D48 SWAP1 PUSH2 0x5FA SWAP1 PUSH1 0x2 SWAP1 PUSH1 0x4 ADD PUSH2 0x29FF JUMP JUMPDEST PUSH1 0x0 PUSH1 0x40 MLOAD DUP1 DUP4 SUB DUP2 PUSH1 0x0 DUP8 DUP1 EXTCODESIZE ISZERO DUP1 ISZERO PUSH2 0x614 JUMPI PUSH1 0x0 DUP1 REVERT JUMPDEST POP GAS CALL ISZERO DUP1 ISZERO PUSH2 0x628 JUMPI RETURNDATASIZE PUSH1 0x0 DUP1 RETURNDATACOPY RETURNDATASIZE PUSH1 0x0 REVERT JUMPDEST POP POP POP POP DUP1 PUSH1 0x1 PUSH1 0x1 PUSH1 0xA0 SHL SUB AND PUSH4 0x1268A28F DUP10 DUP10 PUSH2 0x64F PUSH1 0x1 SLOAD PUSH1 0x1 PUSH1 0x1 PUSH1 0xA0 SHL SUB AND SWAP1 JUMP JUMPDEST PUSH1 0x40 MLOAD PUSH1 0x1 PUSH1 0x1 PUSH1 0xE0 SHL SUB NOT PUSH1 0xE0 DUP7 SWAP1 SHL AND DUP2 MSTORE PUSH1 0x4 DUP2 ADD SWAP4 SWAP1 SWAP4 MSTORE PUSH1 0x24 DUP4 ADD SWAP2 SWAP1 SWAP2 MSTORE PUSH1 0x1 PUSH1 0x1 PUSH1 0xA0 SHL SUB SWAP1 DUP2 AND PUSH1 0x44 DUP4 ADD MSTORE DUP1 DUP11 AND PUSH1 0x64 DUP4 ADD MSTORE DUP1 DUP10 AND PUSH1 0x84 DUP4 ADD MSTORE DUP1 DUP9 AND PUSH1 0xA4 DUP4 ADD MSTORE DUP7 AND PUSH1 0xC4 DUP3 ADD MSTORE PUSH1 0xE4 ADD PUSH1 0x0 PUSH1 0x40 MLOAD DUP1 DUP4 SUB DUP2 PUSH1 0x0 DUP8 DUP1 EXTCODESIZE ISZERO DUP1 ISZERO PUSH2 0x6BF JUMPI PUSH1 0x0 DUP1 REVERT JUMPDEST POP GAS CALL ISZERO DUP1 ISZERO PUSH2 0x6D3 JUMPI RETURNDATASIZE PUSH1 0x0 DUP1 RETURNDATACOPY RETURNDATASIZE PUSH1 0x0 REVERT JUMPDEST POP POP POP POP PUSH2 0x6E0 DUP2 PUSH2 0xF99 JUMP JUMPDEST POP DUP1 ISZERO PUSH2 0x6F4 JUMPI PUSH1 0x7 DUP1 SLOAD PUSH3 0xFF0000 NOT AND SWAP1 SSTORE JUMPDEST POP POP POP POP POP POP POP JUMP JUMPDEST PUSH1 0x3 DUP2 DUP2 SLOAD DUP2 LT PUSH2 0x70D JUMPI PUSH1 0x0 DUP1 REVERT JUMPDEST PUSH1 0x0 SWAP2 DUP3 MSTORE PUSH1 0x20 SWAP1 SWAP2 KECCAK256 PUSH1 0x2 SWAP1 SWAP2 MUL ADD DUP1 SLOAD PUSH1 0x1 SWAP1 SWAP2 ADD SLOAD PUSH1 0x1 PUSH1 0x1 PUSH1 0xA0 SHL SUB SWAP2 DUP3 AND SWAP3 POP SWAP1 DUP2 AND SWAP1 PUSH1 0x1 PUSH1 0xA0 SHL SWAP1 DIV PUSH1 0xFF AND DUP4 JUMP JUMPDEST PUSH1 0x1 SLOAD PUSH1 0x1 PUSH1 0x1 PUSH1 0xA0 SHL SUB AND CALLER EQ PUSH2 0x76D JUMPI PUSH1 0x40 MLOAD PUSH3 0x461BCD PUSH1 0xE5 SHL DUP2 MSTORE PUSH1 0x4 ADD PUSH2 0x47A SWAP1 PUSH2 0x2A20 JUMP JUMPDEST PUSH1 0x0 PUSH1 0x3 DUP3 DUP2 SLOAD DUP2 LT PUSH2 0x782 JUMPI PUSH2 0x782 PUSH2 0x2C2E JUMP JUMPDEST PUSH1 0x0 SWAP2 DUP3 MSTORE PUSH1 0x20 DUP3 KECCAK256 PUSH1 0x1 PUSH1 0x2 SWAP1 SWAP3 MUL ADD SWAP1 DUP2 ADD SLOAD DUP2 SLOAD SWAP2 SWAP4 POP PUSH2 0x7B5 SWAP3 PUSH1 0x1 PUSH1 0x1 PUSH1 0xA0 SHL SUB SWAP3 DUP4 AND SWAP3 SWAP1 SWAP2 AND SWAP1 PUSH2 0x162C JUMP JUMPDEST PUSH1 0x1 DUP2 ADD SLOAD DUP2 SLOAD PUSH2 0x7D5 SWAP2 PUSH1 0x1 PUSH1 0x1 PUSH1 0xA0 SHL SUB SWAP2 DUP3 AND SWAP2 AND PUSH1 0x0 NOT PUSH2 0x1783 JUMP JUMPDEST POP POP JUMP JUMPDEST PUSH1 0x1 SLOAD PUSH1 0x1 PUSH1 0x1 PUSH1 0xA0 SHL SUB AND CALLER EQ PUSH2 0x803 JUMPI PUSH1 0x40 MLOAD PUSH3 0x461BCD PUSH1 0xE5 SHL DUP2 MSTORE PUSH1 0x4 ADD PUSH2 0x47A SWAP1 PUSH2 0x2A20 JUMP JUMPDEST PUSH1 0x0 JUMPDEST PUSH1 0x3 SLOAD DUP2 LT ISZERO PUSH2 0x88B JUMPI PUSH1 0x0 PUSH1 0x3 DUP3 DUP2 SLOAD DUP2 LT PUSH2 0x825 JUMPI PUSH2 0x825 PUSH2 0x2C2E JUMP JUMPDEST PUSH1 0x0 SWAP2 DUP3 MSTORE PUSH1 0x20 DUP3 KECCAK256 PUSH1 0x1 PUSH1 0x2 SWAP1 SWAP3 MUL ADD SWAP1 DUP2 ADD SLOAD DUP2 SLOAD SWAP2 SWAP4 POP PUSH2 0x858 SWAP3 PUSH1 0x1 PUSH1 0x1 PUSH1 0xA0 SHL SUB SWAP3 DUP4 AND SWAP3 SWAP1 SWAP2 AND SWAP1 PUSH2 0x162C JUMP JUMPDEST PUSH1 0x1 DUP2 ADD SLOAD DUP2 SLOAD PUSH2 0x878 SWAP2 PUSH1 0x1 PUSH1 0x1 PUSH1 0xA0 SHL SUB SWAP2 DUP3 AND SWAP2 AND PUSH1 0x0 NOT PUSH2 0x1783 JUMP JUMPDEST POP DUP1 PUSH2 0x883 DUP2 PUSH2 0x2BBD JUMP JUMPDEST SWAP2 POP POP PUSH2 0x806 JUMP JUMPDEST POP JUMP JUMPDEST PUSH1 0x1 SLOAD PUSH1 0x1 PUSH1 0x1 PUSH1 0xA0 SHL SUB AND CALLER EQ PUSH2 0x8B8 JUMPI PUSH1 0x40 MLOAD PUSH3 0x461BCD PUSH1 0xE5 SHL DUP2 MSTORE PUSH1 0x4 ADD PUSH2 0x47A SWAP1 PUSH2 0x2A20 JUMP JUMPDEST PUSH1 0x6 DUP3 SWAP1 SSTORE PUSH1 0x7 DUP1 SLOAD PUSH1 0xFF NOT AND DUP3 ISZERO ISZERO SWAP1 DUP2 OR SWAP1 SWAP2 SSTORE PUSH1 0x40 DUP1 MLOAD DUP5 DUP2 MSTORE PUSH1 0x20 DUP2 ADD SWAP3 SWAP1 SWAP3 MSTORE PUSH32 0xEBA593B5BD3E604F0314995A4D3B960CC02497E58ADDCB6F2F5B03B3308500F4 SWAP2 ADD PUSH1 0x40 MLOAD DUP1 SWAP2 SUB SWAP1 LOG1 POP POP JUMP JUMPDEST PUSH1 0x2 PUSH1 0x0 SLOAD EQ ISZERO PUSH2 0x92F JUMPI PUSH1 0x40 MLOAD PUSH3 0x461BCD PUSH1 0xE5 SHL DUP2 MSTORE PUSH1 0x4 ADD PUSH2 0x47A SWAP1 PUSH2 0x2A55 JUMP JUMPDEST PUSH1 0x2 PUSH1 0x0 SSTORE PUSH1 0x7 SLOAD PUSH1 0xFF AND DUP1 ISZERO PUSH2 0x976 JUMPI POP PUSH1 0x6 SLOAD ISZERO DUP1 PUSH2 0x95F JUMPI POP CALLER PUSH1 0x0 SWAP1 DUP2 MSTORE PUSH1 0x2 PUSH1 0x20 MSTORE PUSH1 0x40 SWAP1 KECCAK256 SLOAD PUSH1 0xFF AND JUMPDEST DUP1 PUSH2 0x976 JUMPI POP PUSH1 0x6 SLOAD PUSH1 0x1 EQ DUP1 ISZERO PUSH2 0x976 JUMPI POP CALLER ORIGIN EQ JUMPDEST ISZERO PUSH2 0x983 JUMPI PUSH2 0x983 PUSH2 0x184A JUMP JUMPDEST PUSH2 0x98E DUP3 DUP3 CALLER PUSH2 0x1526 JUMP JUMPDEST POP POP PUSH1 0x1 PUSH1 0x0 SSTORE POP POP JUMP JUMPDEST PUSH1 0x1 SLOAD PUSH1 0x1 PUSH1 0x1 PUSH1 0xA0 SHL SUB AND CALLER EQ PUSH2 0x9C3 JUMPI PUSH1 0x40 MLOAD PUSH3 0x461BCD PUSH1 0xE5 SHL DUP2 MSTORE PUSH1 0x4 ADD PUSH2 0x47A SWAP1 PUSH2 0x2A20 JUMP JUMPDEST PUSH1 0x0 PUSH1 0x40 MLOAD PUSH2 0x9D1 SWAP1 PUSH2 0x26E7 JUMP JUMPDEST PUSH1 0x40 MLOAD DUP1 SWAP2 SUB SWAP1 PUSH1 0x0 CREATE DUP1 ISZERO DUP1 ISZERO PUSH2 0x9ED JUMPI RETURNDATASIZE PUSH1 0x0 DUP1 RETURNDATACOPY RETURNDATASIZE PUSH1 0x0 REVERT JUMPDEST POP PUSH1 0x40 MLOAD PUSH4 0xFE1CDA9 PUSH1 0xE3 SHL DUP2 MSTORE SWAP1 SWAP2 POP PUSH1 0x1 PUSH1 0x1 PUSH1 0xA0 SHL SUB DUP3 AND SWAP1 PUSH4 0x7F0E6D48 SWAP1 PUSH2 0xA1E SWAP1 PUSH1 0x3 SWAP1 PUSH1 0x4 ADD PUSH2 0x29FF JUMP JUMPDEST PUSH1 0x0 PUSH1 0x40 MLOAD DUP1 DUP4 SUB DUP2 PUSH1 0x0 DUP8 DUP1 EXTCODESIZE ISZERO DUP1 ISZERO PUSH2 0xA38 JUMPI PUSH1 0x0 DUP1 REVERT JUMPDEST POP GAS CALL ISZERO DUP1 ISZERO PUSH2 0xA4C JUMPI RETURNDATASIZE PUSH1 0x0 DUP1 RETURNDATACOPY RETURNDATASIZE PUSH1 0x0 REVERT JUMPDEST POP POP POP POP DUP1 PUSH1 0x1 PUSH1 0x1 PUSH1 0xA0 SHL SUB AND PUSH4 0xFF63A736 DUP10 DUP10 PUSH2 0xA73 PUSH1 0x1 SLOAD PUSH1 0x1 PUSH1 0x1 PUSH1 0xA0 SHL SUB AND SWAP1 JUMP JUMPDEST DUP11 DUP11 DUP11 DUP11 DUP11 PUSH1 0x40 MLOAD DUP10 PUSH4 0xFFFFFFFF AND PUSH1 0xE0 SHL DUP2 MSTORE PUSH1 0x4 ADD PUSH2 0xA9B SWAP9 SWAP8 SWAP7 SWAP6 SWAP5 SWAP4 SWAP3 SWAP2 SWAP1 PUSH2 0x2AE9 JUMP JUMPDEST PUSH1 0x0 PUSH1 0x40 MLOAD DUP1 DUP4 SUB DUP2 PUSH1 0x0 DUP8 DUP1 EXTCODESIZE ISZERO DUP1 ISZERO PUSH2 0xAB5 JUMPI PUSH1 0x0 DUP1 REVERT JUMPDEST POP GAS CALL ISZERO DUP1 ISZERO PUSH2 0xAC9 JUMPI RETURNDATASIZE PUSH1 0x0 DUP1 RETURNDATACOPY RETURNDATASIZE PUSH1 0x0 REVERT JUMPDEST POP POP POP POP PUSH2 0xAD6 DUP2 PUSH2 0xF99 JUMP JUMPDEST PUSH1 0x3 PUSH1 0x0 DUP2 SLOAD DUP2 LT PUSH2 0xAEA JUMPI PUSH2 0xAEA PUSH2 0x2C2E JUMP JUMPDEST SWAP1 PUSH1 0x0 MSTORE PUSH1 0x20 PUSH1 0x0 KECCAK256 SWAP1 PUSH1 0x2 MUL ADD PUSH1 0x0 ADD PUSH1 0x0 SWAP1 SLOAD SWAP1 PUSH2 0x100 EXP SWAP1 DIV PUSH1 0x1 PUSH1 0x1 PUSH1 0xA0 SHL SUB AND PUSH1 0x1 PUSH1 0x1 PUSH1 0xA0 SHL SUB AND DUP2 PUSH1 0x1 PUSH1 0x1 PUSH1 0xA0 SHL SUB AND PUSH4 0xD62E969D PUSH1 0x40 MLOAD DUP2 PUSH4 0xFFFFFFFF AND PUSH1 0xE0 SHL DUP2 MSTORE PUSH1 0x4 ADD PUSH1 0x20 PUSH1 0x40 MLOAD DUP1 DUP4 SUB DUP2 PUSH1 0x0 DUP8 DUP1 EXTCODESIZE ISZERO DUP1 ISZERO PUSH2 0xB53 JUMPI PUSH1 0x0 DUP1 REVERT JUMPDEST POP GAS CALL ISZERO DUP1 ISZERO PUSH2 0xB67 JUMPI RETURNDATASIZE PUSH1 0x0 DUP1 RETURNDATACOPY RETURNDATASIZE PUSH1 0x0 REVERT JUMPDEST POP POP POP POP PUSH1 0x40 MLOAD RETURNDATASIZE PUSH1 0x1F NOT PUSH1 0x1F DUP3 ADD AND DUP3 ADD DUP1 PUSH1 0x40 MSTORE POP DUP2 ADD SWAP1 PUSH2 0xB8B SWAP2 SWAP1 PUSH2 0x2711 JUMP JUMPDEST PUSH1 0x1 PUSH1 0x1 PUSH1 0xA0 SHL SUB AND EQ PUSH2 0xBED JUMPI PUSH1 0x40 MLOAD PUSH3 0x461BCD PUSH1 0xE5 SHL DUP2 MSTORE PUSH1 0x20 PUSH1 0x4 DUP3 ADD MSTORE PUSH1 0x24 DUP1 DUP3 ADD MSTORE PUSH32 0x6D6178696D697A6572206D6178696D697A6573207468652077726F6E6720746F PUSH1 0x44 DUP3 ADD MSTORE PUSH4 0x6B656E21 PUSH1 0xE0 SHL PUSH1 0x64 DUP3 ADD MSTORE PUSH1 0x84 ADD PUSH2 0x47A JUMP JUMPDEST POP POP POP POP POP POP POP POP JUMP JUMPDEST PUSH1 0x1 SLOAD PUSH1 0x1 PUSH1 0x1 PUSH1 0xA0 SHL SUB AND CALLER EQ PUSH2 0xC21 JUMPI PUSH1 0x40 MLOAD PUSH3 0x461BCD PUSH1 0xE5 SHL DUP2 MSTORE PUSH1 0x4 ADD PUSH2 0x47A SWAP1 PUSH2 0x2A20 JUMP JUMPDEST PUSH1 0x1 PUSH1 0x1 PUSH1 0xA0 SHL SUB DUP3 AND PUSH1 0x0 DUP2 DUP2 MSTORE PUSH1 0x2 PUSH1 0x20 MSTORE PUSH1 0x40 DUP1 DUP3 KECCAK256 DUP1 SLOAD PUSH1 0xFF NOT AND DUP6 ISZERO ISZERO SWAP1 DUP2 OR SWAP1 SWAP2 SSTORE SWAP1 MLOAD SWAP1 SWAP3 SWAP2 PUSH32 0x966C160E1C4DBC7DF8D69AF4ACE01E9297C3CF016397B7914971F2FBFA32672D SWAP2 LOG3 POP POP JUMP JUMPDEST PUSH1 0x1 SLOAD PUSH1 0x1 PUSH1 0x1 PUSH1 0xA0 SHL SUB AND CALLER EQ PUSH2 0xC9F JUMPI PUSH1 0x40 MLOAD PUSH3 0x461BCD PUSH1 0xE5 SHL DUP2 MSTORE PUSH1 0x4 ADD PUSH2 0x47A SWAP1 PUSH2 0x2A20 JUMP JUMPDEST PUSH2 0xCA9 PUSH1 0x0 PUSH2 0x194D JUMP JUMPDEST JUMP JUMPDEST PUSH1 0x0 DUP1 PUSH1 0x3 DUP5 DUP2 SLOAD DUP2 LT PUSH2 0xCC1 JUMPI PUSH2 0xCC1 PUSH2 0x2C2E JUMP JUMPDEST SWAP1 PUSH1 0x0 MSTORE PUSH1 0x20 PUSH1 0x0 KECCAK256 SWAP1 PUSH1 0x2 MUL ADD SWAP1 POP PUSH1 0x0 DUP2 PUSH1 0x1 ADD PUSH1 0x0 SWAP1 SLOAD SWAP1 PUSH2 0x100 EXP SWAP1 DIV PUSH1 0x1 PUSH1 0x1 PUSH1 0xA0 SHL SUB AND PUSH1 0x1 PUSH1 0x1 PUSH1 0xA0 SHL SUB AND PUSH4 0x44A3955E PUSH1 0x40 MLOAD DUP2 PUSH4 0xFFFFFFFF AND PUSH1 0xE0 SHL DUP2 MSTORE PUSH1 0x4 ADD PUSH1 0x20 PUSH1 0x40 MLOAD DUP1 DUP4 SUB DUP2 DUP7 DUP1 EXTCODESIZE ISZERO DUP1 ISZERO PUSH2 0xD23 JUMPI PUSH1 0x0 DUP1 REVERT JUMPDEST POP GAS STATICCALL ISZERO DUP1 ISZERO PUSH2 0xD37 JUMPI RETURNDATASIZE PUSH1 0x0 DUP1 RETURNDATACOPY RETURNDATASIZE PUSH1 0x0 REVERT JUMPDEST POP POP POP POP PUSH1 0x40 MLOAD RETURNDATASIZE PUSH1 0x1F NOT PUSH1 0x1F DUP3 ADD AND DUP3 ADD DUP1 PUSH1 0x40 MSTORE POP DUP2 ADD SWAP1 PUSH2 0xD5B SWAP2 SWAP1 PUSH2 0x27BE JUMP JUMPDEST SWAP1 POP PUSH1 0x0 PUSH1 0x3 DUP7 DUP2 SLOAD DUP2 LT PUSH2 0xD72 JUMPI PUSH2 0xD72 PUSH2 0x2C2E JUMP JUMPDEST PUSH1 0x0 SWAP2 DUP3 MSTORE PUSH1 0x20 SWAP2 DUP3 SWAP1 KECCAK256 PUSH1 0x1 PUSH1 0x2 SWAP1 SWAP3 MUL ADD ADD SLOAD PUSH1 0x40 DUP1 MLOAD PUSH4 0x42DA4EB3 PUSH1 0xE0 SHL DUP2 MSTORE SWAP1 MLOAD PUSH1 0x1 PUSH1 0x1 PUSH1 0xA0 SHL SUB SWAP1 SWAP3 AND SWAP3 PUSH4 0x42DA4EB3 SWAP3 PUSH1 0x4 DUP1 DUP5 ADD SWAP4 DUP3 SWAP1 SUB ADD DUP2 DUP7 DUP1 EXTCODESIZE ISZERO DUP1 ISZERO PUSH2 0xDC3 JUMPI PUSH1 0x0 DUP1 REVERT JUMPDEST POP GAS STATICCALL ISZERO DUP1 ISZERO PUSH2 0xDD7 JUMPI RETURNDATASIZE PUSH1 0x0 DUP1 RETURNDATACOPY RETURNDATASIZE PUSH1 0x0 REVERT JUMPDEST POP POP POP POP PUSH1 0x40 MLOAD RETURNDATASIZE PUSH1 0x1F NOT PUSH1 0x1F DUP3 ADD AND DUP3 ADD DUP1 PUSH1 0x40 MSTORE POP DUP2 ADD SWAP1 PUSH2 0xDFB SWAP2 SWAP1 PUSH2 0x27BE JUMP JUMPDEST SWAP1 POP DUP2 PUSH2 0xE0E JUMPI PUSH1 0x0 SWAP4 POP POP POP POP PUSH2 0xE34 JUMP JUMPDEST DUP2 DUP2 PUSH2 0xE1A DUP9 DUP9 PUSH2 0x199F JUMP JUMPDEST PUSH2 0xE24 SWAP2 SWAP1 PUSH2 0x2B5B JUMP JUMPDEST PUSH2 0xE2E SWAP2 SWAP1 PUSH2 0x2B47 JUMP JUMPDEST SWAP4 POP POP POP POP JUMPDEST SWAP3 SWAP2 POP POP JUMP JUMPDEST PUSH1 0x2 PUSH1 0x0 SLOAD EQ ISZERO PUSH2 0xE5D JUMPI PUSH1 0x40 MLOAD PUSH3 0x461BCD PUSH1 0xE5 SHL DUP2 MSTORE PUSH1 0x4 ADD PUSH2 0x47A SWAP1 PUSH2 0x2A55 JUMP JUMPDEST PUSH1 0x2 PUSH1 0x0 DUP2 DUP2 SSTORE CALLER DUP2 MSTORE PUSH1 0x20 SWAP2 SWAP1 SWAP2 MSTORE PUSH1 0x40 SWAP1 KECCAK256 SLOAD PUSH1 0xFF AND PUSH2 0xE91 JUMPI PUSH1 0x40 MLOAD PUSH3 0x461BCD PUSH1 0xE5 SHL DUP2 MSTORE PUSH1 0x4 ADD PUSH2 0x47A SWAP1 PUSH2 0x2A8C JUMP JUMPDEST PUSH2 0x98E DUP4 DUP4 DUP4 PUSH2 0x1A5C JUMP JUMPDEST PUSH1 0x0 PUSH2 0xEA8 DUP4 DUP4 PUSH2 0x199F JUMP JUMPDEST SWAP4 SWAP3 POP POP POP JUMP JUMPDEST PUSH1 0x7 SLOAD PUSH1 0xFF AND DUP1 ISZERO PUSH2 0xEF1 JUMPI POP PUSH1 0x6 SLOAD ISZERO DUP1 PUSH2 0xEDA JUMPI POP CALLER PUSH1 0x0 SWAP1 DUP2 MSTORE PUSH1 0x2 PUSH1 0x20 MSTORE PUSH1 0x40 SWAP1 KECCAK256 SLOAD PUSH1 0xFF AND JUMPDEST DUP1 PUSH2 0xEF1 JUMPI POP PUSH1 0x6 SLOAD PUSH1 0x1 EQ DUP1 ISZERO PUSH2 0xEF1 JUMPI POP CALLER ORIGIN EQ JUMPDEST ISZERO PUSH2 0xEFE JUMPI PUSH2 0xEFE PUSH2 0x184A JUMP JUMPDEST PUSH2 0xF0B DUP2 PUSH1 0x0 NOT CALLER PUSH2 0x1526 JUMP JUMPDEST POP POP POP JUMP JUMPDEST PUSH1 0x6 SLOAD ISZERO DUP1 PUSH2 0xF2E JUMPI POP CALLER PUSH1 0x0 SWAP1 DUP2 MSTORE PUSH1 0x2 PUSH1 0x20 MSTORE PUSH1 0x40 SWAP1 KECCAK256 SLOAD PUSH1 0xFF AND JUMPDEST DUP1 PUSH2 0xF45 JUMPI POP PUSH1 0x6 SLOAD PUSH1 0x1 EQ DUP1 ISZERO PUSH2 0xF45 JUMPI POP CALLER ORIGIN EQ JUMPDEST PUSH2 0xF91 JUMPI PUSH1 0x40 MLOAD PUSH3 0x461BCD PUSH1 0xE5 SHL DUP2 MSTORE PUSH1 0x20 PUSH1 0x4 DUP3 ADD MSTORE PUSH1 0x19 PUSH1 0x24 DUP3 ADD MSTORE PUSH32 0x436F6D706F756E64696E67206973207265737472696374656400000000000000 PUSH1 0x44 DUP3 ADD MSTORE PUSH1 0x64 ADD PUSH2 0x47A JUMP JUMPDEST PUSH2 0xCA9 PUSH2 0x184A JUMP JUMPDEST PUSH1 0x1 SLOAD PUSH1 0x1 PUSH1 0x1 PUSH1 0xA0 SHL SUB AND CALLER EQ PUSH2 0xFC3 JUMPI PUSH1 0x40 MLOAD PUSH3 0x461BCD PUSH1 0xE5 SHL DUP2 MSTORE PUSH1 0x4 ADD PUSH2 0x47A SWAP1 PUSH2 0x2A20 JUMP JUMPDEST PUSH1 0x2 PUSH1 0x0 SLOAD EQ ISZERO PUSH2 0xFE6 JUMPI PUSH1 0x40 MLOAD PUSH3 0x461BCD PUSH1 0xE5 SHL DUP2 MSTORE PUSH1 0x4 ADD PUSH2 0x47A SWAP1 PUSH2 0x2A55 JUMP JUMPDEST PUSH1 0x2 PUSH1 0x0 SWAP1 DUP2 SSTORE PUSH1 0x1 PUSH1 0x1 PUSH1 0xA0 SHL SUB DUP3 AND DUP2 MSTORE PUSH1 0x5 PUSH1 0x20 MSTORE PUSH1 0x40 SWAP1 KECCAK256 SLOAD PUSH1 0xFF AND ISZERO PUSH2 0x1047 JUMPI PUSH1 0x40 MLOAD PUSH3 0x461BCD PUSH1 0xE5 SHL DUP2 MSTORE PUSH1 0x20 PUSH1 0x4 DUP3 ADD MSTORE PUSH1 0x11 PUSH1 0x24 DUP3 ADD MSTORE PUSH17 0x4578697374696E67207374726174656779 PUSH1 0x78 SHL PUSH1 0x44 DUP3 ADD MSTORE PUSH1 0x64 ADD PUSH2 0x47A JUMP JUMPDEST PUSH1 0x3 PUSH1 0x40 MLOAD DUP1 PUSH1 0x60 ADD PUSH1 0x40 MSTORE DUP1 DUP4 PUSH1 0x1 PUSH1 0x1 PUSH1 0xA0 SHL SUB AND PUSH4 0xE7A03679 PUSH1 0x40 MLOAD DUP2 PUSH4 0xFFFFFFFF AND PUSH1 0xE0 SHL DUP2 MSTORE PUSH1 0x4 ADD PUSH1 0x20 PUSH1 0x40 MLOAD DUP1 DUP4 SUB DUP2 DUP7 DUP1 EXTCODESIZE ISZERO DUP1 ISZERO PUSH2 0x108D JUMPI PUSH1 0x0 DUP1 REVERT JUMPDEST POP GAS STATICCALL ISZERO DUP1 ISZERO PUSH2 0x10A1 JUMPI RETURNDATASIZE PUSH1 0x0 DUP1 RETURNDATACOPY RETURNDATASIZE PUSH1 0x0 REVERT JUMPDEST POP POP POP POP PUSH1 0x40 MLOAD RETURNDATASIZE PUSH1 0x1F NOT PUSH1 0x1F DUP3 ADD AND DUP3 ADD DUP1 PUSH1 0x40 MSTORE POP DUP2 ADD SWAP1 PUSH2 0x10C5 SWAP2 SWAP1 PUSH2 0x2711 JUMP JUMPDEST PUSH1 0x1 PUSH1 0x1 PUSH1 0xA0 SHL SUB AND DUP2 MSTORE PUSH1 0x20 ADD DUP4 PUSH1 0x1 PUSH1 0x1 PUSH1 0xA0 SHL SUB AND DUP2 MSTORE PUSH1 0x20 ADD DUP4 PUSH1 0x1 PUSH1 0x1 PUSH1 0xA0 SHL SUB AND PUSH4 0x7115E9FA PUSH1 0x40 MLOAD DUP2 PUSH4 0xFFFFFFFF AND PUSH1 0xE0 SHL DUP2 MSTORE PUSH1 0x4 ADD PUSH1 0x20 PUSH1 0x40 MLOAD DUP1 DUP4 SUB DUP2 PUSH1 0x0 DUP8 DUP1 EXTCODESIZE ISZERO DUP1 ISZERO PUSH2 0x111D JUMPI PUSH1 0x0 DUP1 REVERT JUMPDEST POP GAS CALL ISZERO DUP1 ISZERO PUSH2 0x1131 JUMPI RETURNDATASIZE PUSH1 0x0 DUP1 RETURNDATACOPY RETURNDATASIZE PUSH1 0x0 REVERT JUMPDEST POP POP POP POP PUSH1 0x40 MLOAD RETURNDATASIZE PUSH1 0x1F NOT PUSH1 0x1F DUP3 ADD AND DUP3 ADD DUP1 PUSH1 0x40 MSTORE POP DUP2 ADD SWAP1 PUSH2 0x1155 SWAP2 SWAP1 PUSH2 0x2784 JUMP JUMPDEST PUSH1 0x3 DUP2 GT ISZERO PUSH2 0x1166 JUMPI PUSH2 0x1166 PUSH2 0x2C18 JUMP JUMPDEST SWAP1 MSTORE DUP2 SLOAD PUSH1 0x1 DUP2 DUP2 ADD DUP5 SSTORE PUSH1 0x0 SWAP4 DUP5 MSTORE PUSH1 0x20 SWAP4 DUP5 SWAP1 KECCAK256 DUP4 MLOAD PUSH1 0x2 SWAP1 SWAP4 MUL ADD DUP1 SLOAD PUSH1 0x1 PUSH1 0x1 PUSH1 0xA0 SHL SUB SWAP4 DUP5 AND PUSH1 0x1 PUSH1 0x1 PUSH1 0xA0 SHL SUB NOT SWAP2 DUP3 AND OR DUP3 SSTORE SWAP5 DUP5 ADD MLOAD SWAP2 DUP2 ADD DUP1 SLOAD SWAP3 SWAP1 SWAP4 AND SWAP5 DUP3 AND DUP6 OR DUP4 SSTORE PUSH1 0x40 DUP5 ADD MLOAD SWAP4 SWAP5 SWAP1 SWAP4 SWAP3 SWAP2 PUSH1 0x1 PUSH1 0x1 PUSH1 0xA8 SHL SUB NOT AND OR PUSH1 0x1 PUSH1 0xA0 SHL DUP4 PUSH1 0x3 DUP2 GT ISZERO PUSH2 0x11E1 JUMPI PUSH2 0x11E1 PUSH2 0x2C18 JUMP JUMPDEST MUL OR SWAP1 SSTORE POP POP POP PUSH1 0x1 PUSH1 0x1 PUSH1 0xA0 SHL SUB DUP2 AND PUSH1 0x0 SWAP1 DUP2 MSTORE PUSH1 0x5 PUSH1 0x20 MSTORE PUSH1 0x40 SWAP1 KECCAK256 DUP1 SLOAD PUSH1 0xFF NOT AND PUSH1 0x1 SWAP1 DUP2 OR SWAP1 SWAP2 SSTORE PUSH1 0x3 SLOAD PUSH2 0x121E SWAP2 PUSH2 0x281 SWAP2 PUSH2 0x2B7A JUMP JUMPDEST PUSH1 0x40 MLOAD PUSH1 0x1 PUSH1 0x1 PUSH1 0xA0 SHL SUB DUP3 AND SWAP1 PUSH32 0x8C82D670BC9247C2CFB6964089BC9CFF0255F9CAADE6FBC74A13368083E55466 SWAP1 PUSH1 0x0 SWAP1 LOG2 POP PUSH1 0x1 PUSH1 0x0 SSTORE JUMP JUMPDEST PUSH1 0x1 SLOAD PUSH1 0x1 PUSH1 0x1 PUSH1 0xA0 SHL SUB AND CALLER EQ PUSH2 0x1284 JUMPI PUSH1 0x40 MLOAD PUSH3 0x461BCD PUSH1 0xE5 SHL DUP2 MSTORE PUSH1 0x4 ADD PUSH2 0x47A SWAP1 PUSH2 0x2A20 JUMP JUMPDEST PUSH1 0x0 PUSH1 0x40 MLOAD PUSH2 0x1292 SWAP1 PUSH2 0x26E7 JUMP JUMPDEST PUSH1 0x40 MLOAD DUP1 SWAP2 SUB SWAP1 PUSH1 0x0 CREATE DUP1 ISZERO DUP1 ISZERO PUSH2 0x12AE JUMPI RETURNDATASIZE PUSH1 0x0 DUP1 RETURNDATACOPY RETURNDATASIZE PUSH1 0x0 REVERT JUMPDEST POP PUSH1 0x40 MLOAD PUSH4 0xFE1CDA9 PUSH1 0xE3 SHL DUP2 MSTORE SWAP1 SWAP2 POP PUSH1 0x1 PUSH1 0x1 PUSH1 0xA0 SHL SUB DUP3 AND SWAP1 PUSH4 0x7F0E6D48 SWAP1 PUSH2 0x12DF SWAP1 PUSH1 0x1 SWAP1 PUSH1 0x4 ADD PUSH2 0x29FF JUMP JUMPDEST PUSH1 0x0 PUSH1 0x40 MLOAD DUP1 DUP4 SUB DUP2 PUSH1 0x0 DUP8 DUP1 EXTCODESIZE ISZERO DUP1 ISZERO PUSH2 0x12F9 JUMPI PUSH1 0x0 DUP1 REVERT JUMPDEST POP GAS CALL ISZERO DUP1 ISZERO PUSH2 0x130D JUMPI RETURNDATASIZE PUSH1 0x0 DUP1 RETURNDATACOPY RETURNDATASIZE PUSH1 0x0 REVERT JUMPDEST POP POP POP POP DUP1 PUSH1 0x1 PUSH1 0x1 PUSH1 0xA0 SHL SUB AND PUSH4 0xFF63A736 DUP10 DUP10 PUSH2 0x1334 PUSH1 0x1 SLOAD PUSH1 0x1 PUSH1 0x1 PUSH1 0xA0 SHL SUB AND SWAP1 JUMP JUMPDEST DUP11 DUP11 DUP11 DUP11 DUP11 PUSH1 0x40 MLOAD DUP10 PUSH4 0xFFFFFFFF AND PUSH1 0xE0 SHL DUP2 MSTORE PUSH1 0x4 ADD PUSH2 0x135C SWAP9 SWAP8 SWAP7 SWAP6 SWAP5 SWAP4 SWAP3 SWAP2 SWAP1 PUSH2 0x2AE9 JUMP JUMPDEST PUSH1 0x0 PUSH1 0x40 MLOAD DUP1 DUP4 SUB DUP2 PUSH1 0x0 DUP8 DUP1 EXTCODESIZE ISZERO DUP1 ISZERO PUSH2 0x1376 JUMPI PUSH1 0x0 DUP1 REVERT JUMPDEST POP GAS CALL ISZERO DUP1 ISZERO PUSH2 0x138A JUMPI RETURNDATASIZE PUSH1 0x0 DUP1 RETURNDATACOPY RETURNDATASIZE PUSH1 0x0 REVERT JUMPDEST POP POP POP POP PUSH2 0xBED DUP2 PUSH2 0xF99 JUMP JUMPDEST PUSH1 0x2 PUSH1 0x0 SLOAD EQ ISZERO PUSH2 0x13BA JUMPI PUSH1 0x40 MLOAD PUSH3 0x461BCD PUSH1 0xE5 SHL DUP2 MSTORE PUSH1 0x4 ADD PUSH2 0x47A SWAP1 PUSH2 0x2A55 JUMP JUMPDEST PUSH1 0x2 PUSH1 0x0 SSTORE PUSH1 0x7 SLOAD PUSH1 0xFF AND DUP1 ISZERO PUSH2 0x1401 JUMPI POP PUSH1 0x6 SLOAD ISZERO DUP1 PUSH2 0x13EA JUMPI POP CALLER PUSH1 0x0 SWAP1 DUP2 MSTORE PUSH1 0x2 PUSH1 0x20 MSTORE PUSH1 0x40 SWAP1 KECCAK256 SLOAD PUSH1 0xFF AND JUMPDEST DUP1 PUSH2 0x1401 JUMPI POP PUSH1 0x6 SLOAD PUSH1 0x1 EQ DUP1 ISZERO PUSH2 0x1401 JUMPI POP CALLER ORIGIN EQ JUMPDEST ISZERO PUSH2 0x140E JUMPI PUSH2 0x140E PUSH2 0x184A JUMP JUMPDEST PUSH2 0x1419 DUP3 DUP3 CALLER PUSH2 0x1A5C JUMP JUMPDEST POP POP PUSH1 0x1 PUSH1 0x0 SSTORE POP JUMP JUMPDEST PUSH1 0x1 SLOAD PUSH1 0x1 PUSH1 0x1 PUSH1 0xA0 SHL SUB AND CALLER EQ PUSH2 0x144D JUMPI PUSH1 0x40 MLOAD PUSH3 0x461BCD PUSH1 0xE5 SHL DUP2 MSTORE PUSH1 0x4 ADD PUSH2 0x47A SWAP1 PUSH2 0x2A20 JUMP JUMPDEST PUSH1 0x1 PUSH1 0x1 PUSH1 0xA0 SHL SUB DUP2 AND PUSH2 0x14B2 JUMPI PUSH1 0x40 MLOAD PUSH3 0x461BCD PUSH1 0xE5 SHL DUP2 MSTORE PUSH1 0x20 PUSH1 0x4 DUP3 ADD MSTORE PUSH1 0x26 PUSH1 0x24 DUP3 ADD MSTORE PUSH32 0x4F776E61626C653A206E6577206F776E657220697320746865207A65726F2061 PUSH1 0x44 DUP3 ADD MSTORE PUSH6 0x646472657373 PUSH1 0xD0 SHL PUSH1 0x64 DUP3 ADD MSTORE PUSH1 0x84 ADD PUSH2 0x47A JUMP JUMPDEST PUSH2 0x88B DUP2 PUSH2 0x194D JUMP JUMPDEST CALLER PUSH1 0x0 SWAP1 DUP2 MSTORE PUSH1 0x5 PUSH1 0x20 MSTORE PUSH1 0x40 SWAP1 KECCAK256 SLOAD PUSH1 0xFF AND PUSH2 0x151A JUMPI PUSH1 0x40 MLOAD PUSH3 0x461BCD PUSH1 0xE5 SHL DUP2 MSTORE PUSH1 0x20 PUSH1 0x4 DUP3 ADD MSTORE PUSH1 0x1B PUSH1 0x24 DUP3 ADD MSTORE PUSH32 0x6F6E6C792063616C6C61626C6520627920737472617465676965730000000000 PUSH1 0x44 DUP3 ADD MSTORE PUSH1 0x64 ADD PUSH2 0x47A JUMP JUMPDEST PUSH2 0x7D5 PUSH1 0x0 DUP3 CALLER PUSH2 0x1BD9 JUMP JUMPDEST PUSH1 0x0 DUP1 PUSH2 0x1534 DUP6 DUP6 DUP6 PUSH2 0x1D24 JUMP JUMPDEST SWAP1 SWAP3 POP SWAP1 POP DUP5 ISZERO DUP1 ISZERO SWAP1 PUSH2 0x1548 JUMPI POP PUSH1 0x0 DUP3 GT JUMPDEST DUP1 ISZERO PUSH2 0x1595 JUMPI POP PUSH1 0x3 DUP1 DUP7 DUP2 SLOAD DUP2 LT PUSH2 0x1563 JUMPI PUSH2 0x1563 PUSH2 0x2C2E JUMP JUMPDEST SWAP1 PUSH1 0x0 MSTORE PUSH1 0x20 PUSH1 0x0 KECCAK256 SWAP1 PUSH1 0x2 MUL ADD PUSH1 0x1 ADD PUSH1 0x14 SWAP1 SLOAD SWAP1 PUSH2 0x100 EXP SWAP1 DIV PUSH1 0xFF AND PUSH1 0x3 DUP2 GT ISZERO PUSH2 0x1593 JUMPI PUSH2 0x1593 PUSH2 0x2C18 JUMP JUMPDEST EQ JUMPDEST ISZERO PUSH2 0x1624 JUMPI PUSH1 0x0 PUSH1 0x3 DUP7 DUP2 SLOAD DUP2 LT PUSH2 0x15AF JUMPI PUSH2 0x15AF PUSH2 0x2C2E JUMP JUMPDEST PUSH1 0x0 SWAP2 DUP3 MSTORE PUSH1 0x20 DUP3 KECCAK256 PUSH1 0x1 PUSH1 0x2 SWAP1 SWAP3 MUL ADD ADD SLOAD PUSH1 0x1 PUSH1 0x1 PUSH1 0xA0 SHL SUB AND SWAP2 POP PUSH2 0x15D7 DUP2 DUP4 PUSH2 0x199F JUMP JUMPDEST SWAP1 POP PUSH1 0x0 PUSH2 0x15FA DUP6 DUP4 PUSH2 0x15EA DUP8 DUP4 PUSH2 0x2B7A JUMP JUMPDEST PUSH2 0x15F4 SWAP2 SWAP1 PUSH2 0x2B5B JUMP JUMPDEST SWAP1 PUSH2 0x20FC JUMP JUMPDEST PUSH2 0x1604 SWAP1 DUP4 PUSH2 0x2B7A JUMP JUMPDEST SWAP1 POP PUSH2 0x1612 PUSH1 0x0 DUP5 DUP4 PUSH2 0x212E JUMP JUMPDEST POP PUSH2 0x161F PUSH1 0x0 DUP8 DUP4 PUSH2 0x21E8 JUMP JUMPDEST POP POP POP POP JUMPDEST SWAP4 POP SWAP4 SWAP2 POP POP JUMP JUMPDEST DUP1 ISZERO DUP1 PUSH2 0x16B5 JUMPI POP PUSH1 0x40 MLOAD PUSH4 0x6EB1769F PUSH1 0xE1 SHL DUP2 MSTORE ADDRESS PUSH1 0x4 DUP3 ADD MSTORE PUSH1 0x1 PUSH1 0x1 PUSH1 0xA0 SHL SUB DUP4 DUP2 AND PUSH1 0x24 DUP4 ADD MSTORE DUP5 AND SWAP1 PUSH4 0xDD62ED3E SWAP1 PUSH1 0x44 ADD PUSH1 0x20 PUSH1 0x40 MLOAD DUP1 DUP4 SUB DUP2 DUP7 DUP1 EXTCODESIZE ISZERO DUP1 ISZERO PUSH2 0x167B JUMPI PUSH1 0x0 DUP1 REVERT JUMPDEST POP GAS STATICCALL ISZERO DUP1 ISZERO PUSH2 0x168F JUMPI RETURNDATASIZE PUSH1 0x0 DUP1 RETURNDATACOPY RETURNDATASIZE PUSH1 0x0 REVERT JUMPDEST POP POP POP POP PUSH1 0x40 MLOAD RETURNDATASIZE PUSH1 0x1F NOT PUSH1 0x1F DUP3 ADD AND DUP3 ADD DUP1 PUSH1 0x40 MSTORE POP DUP2 ADD SWAP1 PUSH2 0x16B3 SWAP2 SWAP1 PUSH2 0x27BE JUMP JUMPDEST ISZERO JUMPDEST PUSH2 0x1720 JUMPI PUSH1 0x40 MLOAD PUSH3 0x461BCD PUSH1 0xE5 SHL DUP2 MSTORE PUSH1 0x20 PUSH1 0x4 DUP3 ADD MSTORE PUSH1 0x36 PUSH1 0x24 DUP3 ADD MSTORE PUSH32 0x5361666545524332303A20617070726F76652066726F6D206E6F6E2D7A65726F PUSH1 0x44 DUP3 ADD MSTORE PUSH22 0x20746F206E6F6E2D7A65726F20616C6C6F77616E6365 PUSH1 0x50 SHL PUSH1 0x64 DUP3 ADD MSTORE PUSH1 0x84 ADD PUSH2 0x47A JUMP JUMPDEST PUSH1 0x40 MLOAD PUSH1 0x1 PUSH1 0x1 PUSH1 0xA0 SHL SUB DUP4 AND PUSH1 0x24 DUP3 ADD MSTORE PUSH1 0x44 DUP2 ADD DUP3 SWAP1 MSTORE PUSH2 0xF0B SWAP1 DUP5 SWAP1 PUSH4 0x95EA7B3 PUSH1 0xE0 SHL SWAP1 PUSH1 0x64 ADD JUMPDEST PUSH1 0x40 DUP1 MLOAD PUSH1 0x1F NOT DUP2 DUP5 SUB ADD DUP2 MSTORE SWAP2 SWAP1 MSTORE PUSH1 0x20 DUP2 ADD DUP1 MLOAD PUSH1 0x1 PUSH1 0x1 PUSH1 0xE0 SHL SUB AND PUSH1 0x1 PUSH1 0x1 PUSH1 0xE0 SHL SUB NOT SWAP1 SWAP4 AND SWAP3 SWAP1 SWAP3 OR SWAP1 SWAP2 MSTORE PUSH2 0x224B JUMP JUMPDEST PUSH1 0x40 MLOAD PUSH4 0x6EB1769F PUSH1 0xE1 SHL DUP2 MSTORE ADDRESS PUSH1 0x4 DUP3 ADD MSTORE PUSH1 0x1 PUSH1 0x1 PUSH1 0xA0 SHL SUB DUP4 DUP2 AND PUSH1 0x24 DUP4 ADD MSTORE PUSH1 0x0 SWAP2 DUP4 SWAP2 DUP7 AND SWAP1 PUSH4 0xDD62ED3E SWAP1 PUSH1 0x44 ADD PUSH1 0x20 PUSH1 0x40 MLOAD DUP1 DUP4 SUB DUP2 DUP7 DUP1 EXTCODESIZE ISZERO DUP1 ISZERO PUSH2 0x17CF JUMPI PUSH1 0x0 DUP1 REVERT JUMPDEST POP GAS STATICCALL ISZERO DUP1 ISZERO PUSH2 0x17E3 JUMPI RETURNDATASIZE PUSH1 0x0 DUP1 RETURNDATACOPY RETURNDATASIZE PUSH1 0x0 REVERT JUMPDEST POP POP POP POP PUSH1 0x40 MLOAD RETURNDATASIZE PUSH1 0x1F NOT PUSH1 0x1F DUP3 ADD AND DUP3 ADD DUP1 PUSH1 0x40 MSTORE POP DUP2 ADD SWAP1 PUSH2 0x1807 SWAP2 SWAP1 PUSH2 0x27BE JUMP JUMPDEST PUSH2 0x1811 SWAP2 SWAP1 PUSH2 0x2B2F JUMP JUMPDEST PUSH1 0x40 MLOAD PUSH1 0x1 PUSH1 0x1 PUSH1 0xA0 SHL SUB DUP6 AND PUSH1 0x24 DUP3 ADD MSTORE PUSH1 0x44 DUP2 ADD DUP3 SWAP1 MSTORE SWAP1 SWAP2 POP PUSH2 0x1844 SWAP1 DUP6 SWAP1 PUSH4 0x95EA7B3 PUSH1 0xE0 SHL SWAP1 PUSH1 0x64 ADD PUSH2 0x174C JUMP JUMPDEST POP POP POP POP JUMP JUMPDEST PUSH1 0x3 SLOAD PUSH1 0x0 JUMPDEST DUP2 DUP2 LT ISZERO PUSH2 0x7D5 JUMPI PUSH1 0x3 DUP2 DUP2 SLOAD DUP2 LT PUSH2 0x186B JUMPI PUSH2 0x186B PUSH2 0x2C2E JUMP JUMPDEST PUSH1 0x0 SWAP2 DUP3 MSTORE PUSH1 0x20 DUP3 KECCAK256 PUSH1 0x1 PUSH1 0x2 SWAP1 SWAP3 MUL ADD ADD SLOAD PUSH1 0x40 DUP1 MLOAD PUSH4 0xD389800F PUSH1 0xE0 SHL DUP2 MSTORE SWAP1 MLOAD PUSH1 0x1 PUSH1 0x1 PUSH1 0xA0 SHL SUB SWAP1 SWAP3 AND SWAP3 PUSH4 0xD389800F SWAP3 PUSH1 0x4 DUP1 DUP5 ADD SWAP4 DUP3 SWAP1 SUB ADD DUP2 DUP4 DUP8 DUP1 EXTCODESIZE ISZERO DUP1 ISZERO PUSH2 0x18BB JUMPI PUSH1 0x0 DUP1 REVERT JUMPDEST POP GAS CALL SWAP3 POP POP POP DUP1 ISZERO PUSH2 0x18CC JUMPI POP PUSH1 0x1 JUMPDEST PUSH2 0x193B JUMPI RETURNDATASIZE DUP1 DUP1 ISZERO PUSH2 0x18FA JUMPI PUSH1 0x40 MLOAD SWAP2 POP PUSH1 0x1F NOT PUSH1 0x3F RETURNDATASIZE ADD AND DUP3 ADD PUSH1 0x40 MSTORE RETURNDATASIZE DUP3 MSTORE RETURNDATASIZE PUSH1 0x0 PUSH1 0x20 DUP5 ADD RETURNDATACOPY PUSH2 0x18FF JUMP JUMPDEST PUSH1 0x60 SWAP2 POP JUMPDEST POP PUSH32 0xAE452807C2B0698EA0D198E28DAB35283CBB33B5FFD82A4DC799E21279D0A630 DUP3 DUP3 PUSH1 0x40 MLOAD PUSH2 0x1931 SWAP3 SWAP2 SWAP1 PUSH2 0x2AD0 JUMP JUMPDEST PUSH1 0x40 MLOAD DUP1 SWAP2 SUB SWAP1 LOG1 POP JUMPDEST DUP1 PUSH2 0x1945 DUP2 PUSH2 0x2BBD JUMP JUMPDEST SWAP2 POP POP PUSH2 0x1850 JUMP JUMPDEST PUSH1 0x1 DUP1 SLOAD PUSH1 0x1 PUSH1 0x1 PUSH1 0xA0 SHL SUB DUP4 DUP2 AND PUSH1 0x1 PUSH1 0x1 PUSH1 0xA0 SHL SUB NOT DUP4 AND DUP2 OR SWAP1 SWAP4 SSTORE PUSH1 0x40 MLOAD SWAP2 AND SWAP2 SWAP1 DUP3 SWAP1 PUSH32 0x8BE0079C531659141344CD1FD0A4F28419497F9722A3DAAFE3B4186F6B6457E0 SWAP1 PUSH1 0x0 SWAP1 LOG3 POP POP JUMP JUMPDEST PUSH1 0x1 PUSH1 0x1 PUSH1 0xA0 SHL SUB DUP2 AND PUSH1 0x0 SWAP1 DUP2 MSTORE PUSH32 0x17EF568E3E12AB5B9C7254A8D58478811DE00F9E6EB34345ACD53BF8FD09D3EC PUSH1 0x20 MSTORE PUSH1 0x40 SWAP1 KECCAK256 SLOAD DUP3 ISZERO DUP1 ISZERO PUSH2 0x19FE JUMPI POP PUSH1 0x1 PUSH1 0x1 PUSH1 0xA0 SHL SUB DUP3 AND PUSH1 0x0 SWAP1 DUP2 MSTORE PUSH1 0x5 PUSH1 0x20 MSTORE PUSH1 0x40 SWAP1 KECCAK256 SLOAD PUSH1 0xFF AND ISZERO JUMPDEST ISZERO PUSH2 0xE34 JUMPI PUSH1 0x1 JUMPDEST PUSH1 0x3 SLOAD DUP2 LT ISZERO PUSH2 0x1A38 JUMPI PUSH2 0x1A1A DUP2 DUP5 PUSH2 0x231D JUMP JUMPDEST PUSH2 0x1A24 SWAP1 DUP4 PUSH2 0x2B2F JUMP JUMPDEST SWAP2 POP DUP1 PUSH2 0x1A30 DUP2 PUSH2 0x2BBD JUMP JUMPDEST SWAP2 POP POP PUSH2 0x1A06 JUMP JUMPDEST POP PUSH1 0x1 PUSH1 0x1 PUSH1 0xA0 SHL SUB DUP3 AND PUSH1 0x0 SWAP1 DUP2 MSTORE PUSH1 0xA PUSH1 0x20 MSTORE PUSH1 0x40 SWAP1 KECCAK256 SLOAD PUSH2 0xEA8 SWAP1 DUP3 PUSH2 0x2B7A JUMP JUMPDEST PUSH1 0x0 DUP1 PUSH1 0x3 DUP6 DUP2 SLOAD DUP2 LT PUSH2 0x1A72 JUMPI PUSH2 0x1A72 PUSH2 0x2C2E JUMP JUMPDEST SWAP1 PUSH1 0x0 MSTORE PUSH1 0x20 PUSH1 0x0 KECCAK256 SWAP1 PUSH1 0x2 MUL ADD PUSH1 0x1 ADD PUSH1 0x0 SWAP1 SLOAD SWAP1 PUSH2 0x100 EXP SWAP1 DIV PUSH1 0x1 PUSH1 0x1 PUSH1 0xA0 SHL SUB AND SWAP1 POP PUSH1 0x0 DUP2 PUSH1 0x1 PUSH1 0x1 PUSH1 0xA0 SHL SUB AND PUSH4 0x44A3955E PUSH1 0x40 MLOAD DUP2 PUSH4 0xFFFFFFFF AND PUSH1 0xE0 SHL DUP2 MSTORE PUSH1 0x4 ADD PUSH1 0x20 PUSH1 0x40 MLOAD DUP1 DUP4 SUB DUP2 DUP7 DUP1 EXTCODESIZE ISZERO DUP1 ISZERO PUSH2 0x1AD4 JUMPI PUSH1 0x0 DUP1 REVERT JUMPDEST POP GAS STATICCALL ISZERO DUP1 ISZERO PUSH2 0x1AE8 JUMPI RETURNDATASIZE PUSH1 0x0 DUP1 RETURNDATACOPY RETURNDATASIZE PUSH1 0x0 REVERT JUMPDEST POP POP POP POP PUSH1 0x40 MLOAD RETURNDATASIZE PUSH1 0x1F NOT PUSH1 0x1F DUP3 ADD AND DUP3 ADD DUP1 PUSH1 0x40 MSTORE POP DUP2 ADD SWAP1 PUSH2 0x1B0C SWAP2 SWAP1 PUSH2 0x27BE JUMP JUMPDEST SWAP1 POP PUSH2 0x1B19 DUP7 DUP7 DUP7 PUSH2 0x1BD9 JUMP JUMPDEST SWAP3 POP PUSH1 0x0 DUP7 GT DUP1 ISZERO PUSH2 0x1B2B JUMPI POP PUSH1 0x0 DUP2 GT JUMPDEST DUP1 ISZERO PUSH2 0x1B78 JUMPI POP PUSH1 0x3 DUP1 DUP8 DUP2 SLOAD DUP2 LT PUSH2 0x1B46 JUMPI PUSH2 0x1B46 PUSH2 0x2C2E JUMP JUMPDEST SWAP1 PUSH1 0x0 MSTORE PUSH1 0x20 PUSH1 0x0 KECCAK256 SWAP1 PUSH1 0x2 MUL ADD PUSH1 0x1 ADD PUSH1 0x14 SWAP1 SLOAD SWAP1 PUSH2 0x100 EXP SWAP1 DIV PUSH1 0xFF AND PUSH1 0x3 DUP2 GT ISZERO PUSH2 0x1B76 JUMPI PUSH2 0x1B76 PUSH2 0x2C18 JUMP JUMPDEST EQ JUMPDEST ISZERO PUSH2 0x1BD0 JUMPI PUSH1 0x0 PUSH2 0x1B8A PUSH1 0x0 DUP5 PUSH2 0x199F JUMP JUMPDEST SWAP1 POP PUSH1 0x0 DUP2 PUSH2 0x1BA7 DUP5 PUSH2 0x1B9D DUP9 DUP3 PUSH2 0x2B2F JUMP JUMPDEST PUSH2 0x15F4 SWAP1 DUP7 PUSH2 0x2B5B JUMP JUMPDEST PUSH2 0x1BB1 SWAP2 SWAP1 PUSH2 0x2B7A JUMP JUMPDEST SWAP1 POP PUSH2 0x1BBF PUSH1 0x0 DUP6 DUP4 PUSH2 0x21E8 JUMP JUMPDEST POP PUSH2 0x1BCC PUSH1 0x0 DUP8 DUP4 PUSH2 0x212E JUMP JUMPDEST POP POP POP JUMPDEST POP POP SWAP4 SWAP3 POP POP POP JUMP JUMPDEST PUSH1 0x0 DUP1 PUSH1 0x3 DUP6 DUP2 SLOAD DUP2 LT PUSH2 0x1BEF JUMPI PUSH2 0x1BEF PUSH2 0x2C2E JUMP JUMPDEST SWAP1 PUSH1 0x0 MSTORE PUSH1 0x20 PUSH1 0x0 KECCAK256 SWAP1 PUSH1 0x2 MUL ADD SWAP1 POP PUSH1 0x0 DUP5 GT ISZERO PUSH2 0x1CD8 JUMPI DUP1 SLOAD PUSH2 0x1C1F SWAP1 PUSH1 0x1 PUSH1 0x1 PUSH1 0xA0 SHL SUB AND CALLER ADDRESS DUP8 PUSH2 0x24E3 JUMP JUMPDEST PUSH1 0x3 DUP6 DUP2 SLOAD DUP2 LT PUSH2 0x1C32 JUMPI PUSH2 0x1C32 PUSH2 0x2C2E JUMP JUMPDEST PUSH1 0x0 SWAP2 DUP3 MSTORE PUSH1 0x20 SWAP1 SWAP2 KECCAK256 PUSH1 0x2 SWAP1 SWAP2 MUL ADD PUSH1 0x1 ADD SLOAD PUSH1 0x40 MLOAD PUSH4 0x11F9FBC9 PUSH1 0xE2 SHL DUP2 MSTORE PUSH1 0x1 PUSH1 0x1 PUSH1 0xA0 SHL SUB DUP6 DUP2 AND PUSH1 0x4 DUP4 ADD MSTORE PUSH1 0x24 DUP3 ADD DUP8 SWAP1 MSTORE SWAP1 SWAP2 AND SWAP1 PUSH4 0x47E7EF24 SWAP1 PUSH1 0x44 ADD PUSH1 0x20 PUSH1 0x40 MLOAD DUP1 DUP4 SUB DUP2 PUSH1 0x0 DUP8 DUP1 EXTCODESIZE ISZERO DUP1 ISZERO PUSH2 0x1C91 JUMPI PUSH1 0x0 DUP1 REVERT JUMPDEST POP GAS CALL ISZERO DUP1 ISZERO PUSH2 0x1CA5 JUMPI RETURNDATASIZE PUSH1 0x0 DUP1 RETURNDATACOPY RETURNDATASIZE PUSH1 0x0 REVERT JUMPDEST POP POP POP POP PUSH1 0x40 MLOAD RETURNDATASIZE PUSH1 0x1F NOT PUSH1 0x1F DUP3 ADD AND DUP3 ADD DUP1 PUSH1 0x40 MSTORE POP DUP2 ADD SWAP1 PUSH2 0x1CC9 SWAP2 SWAP1 PUSH2 0x27BE JUMP JUMPDEST SWAP2 POP PUSH2 0x1CD6 DUP6 DUP5 DUP5 PUSH2 0x21E8 JUMP JUMPDEST POP JUMPDEST DUP5 DUP4 PUSH1 0x1 PUSH1 0x1 PUSH1 0xA0 SHL SUB AND PUSH32 0x90890809C654F11D6E72A28FA60149770A0D11EC6C92319D6CEB2BB0A4EA1A15 DUP7 PUSH1 0x40 MLOAD PUSH2 0x1D14 SWAP2 DUP2 MSTORE PUSH1 0x20 ADD SWAP1 JUMP JUMPDEST PUSH1 0x40 MLOAD DUP1 SWAP2 SUB SWAP1 LOG3 POP SWAP4 SWAP3 POP POP POP JUMP JUMPDEST PUSH1 0x0 DUP1 PUSH1 0x0 PUSH1 0x3 DUP7 DUP2 SLOAD DUP2 LT PUSH2 0x1D3C JUMPI PUSH2 0x1D3C PUSH2 0x2C2E JUMP JUMPDEST SWAP1 PUSH1 0x0 MSTORE PUSH1 0x20 PUSH1 0x0 KECCAK256 SWAP1 PUSH1 0x2 MUL ADD SWAP1 POP PUSH1 0x0 PUSH2 0x1D58 DUP8 CALLER PUSH2 0x199F JUMP JUMPDEST SWAP1 POP PUSH1 0x0 PUSH1 0x3 DUP9 DUP2 SLOAD DUP2 LT PUSH2 0x1D6F JUMPI PUSH2 0x1D6F PUSH2 0x2C2E JUMP JUMPDEST PUSH1 0x0 SWAP2 DUP3 MSTORE PUSH1 0x20 SWAP2 DUP3 SWAP1 KECCAK256 PUSH1 0x1 PUSH1 0x2 SWAP1 SWAP3 MUL ADD ADD SLOAD PUSH1 0x40 DUP1 MLOAD PUSH4 0x42DA4EB3 PUSH1 0xE0 SHL DUP2 MSTORE SWAP1 MLOAD PUSH1 0x1 PUSH1 0x1 PUSH1 0xA0 SHL SUB SWAP1 SWAP3 AND SWAP3 PUSH4 0x42DA4EB3 SWAP3 PUSH1 0x4 DUP1 DUP5 ADD SWAP4 DUP3 SWAP1 SUB ADD DUP2 DUP7 DUP1 EXTCODESIZE ISZERO DUP1 ISZERO PUSH2 0x1DC0 JUMPI PUSH1 0x0 DUP1 REVERT JUMPDEST POP GAS STATICCALL ISZERO DUP1 ISZERO PUSH2 0x1DD4 JUMPI RETURNDATASIZE PUSH1 0x0 DUP1 RETURNDATACOPY RETURNDATASIZE PUSH1 0x0 REVERT JUMPDEST POP POP POP POP PUSH1 0x40 MLOAD RETURNDATASIZE PUSH1 0x1F NOT PUSH1 0x1F DUP3 ADD AND DUP3 ADD DUP1 PUSH1 0x40 MSTORE POP DUP2 ADD SWAP1 PUSH2 0x1DF8 SWAP2 SWAP1 PUSH2 0x27BE JUMP JUMPDEST SWAP1 POP PUSH1 0x3 DUP9 DUP2 SLOAD DUP2 LT PUSH2 0x1E0D JUMPI PUSH2 0x1E0D PUSH2 0x2C2E JUMP JUMPDEST PUSH1 0x0 SWAP2 DUP3 MSTORE PUSH1 0x20 SWAP2 DUP3 SWAP1 KECCAK256 PUSH1 0x1 PUSH1 0x2 SWAP1 SWAP3 MUL ADD ADD SLOAD PUSH1 0x40 DUP1 MLOAD PUSH4 0x2251CAAF PUSH1 0xE1 SHL DUP2 MSTORE SWAP1 MLOAD PUSH1 0x1 PUSH1 0x1 PUSH1 0xA0 SHL SUB SWAP1 SWAP3 AND SWAP3 PUSH4 0x44A3955E SWAP3 PUSH1 0x4 DUP1 DUP5 ADD SWAP4 DUP3 SWAP1 SUB ADD DUP2 DUP7 DUP1 EXTCODESIZE ISZERO DUP1 ISZERO PUSH2 0x1E5E JUMPI PUSH1 0x0 DUP1 REVERT JUMPDEST POP GAS STATICCALL ISZERO DUP1 ISZERO PUSH2 0x1E72 JUMPI RETURNDATASIZE PUSH1 0x0 DUP1 RETURNDATACOPY RETURNDATASIZE PUSH1 0x0 REVERT JUMPDEST POP POP POP POP PUSH1 0x40 MLOAD RETURNDATASIZE PUSH1 0x1F NOT PUSH1 0x1F DUP3 ADD AND DUP3 ADD DUP1 PUSH1 0x40 MSTORE POP DUP2 ADD SWAP1 PUSH2 0x1E96 SWAP2 SWAP1 PUSH2 0x27BE JUMP JUMPDEST SWAP5 POP PUSH1 0x0 DUP3 GT PUSH2 0x1EDA JUMPI PUSH1 0x40 MLOAD PUSH3 0x461BCD PUSH1 0xE5 SHL DUP2 MSTORE PUSH1 0x20 PUSH1 0x4 DUP3 ADD MSTORE PUSH1 0xF PUSH1 0x24 DUP3 ADD MSTORE PUSH15 0x75736572536861726573206973203 PUSH1 0x8C SHL PUSH1 0x44 DUP3 ADD MSTORE PUSH1 0x64 ADD PUSH2 0x47A JUMP JUMPDEST PUSH1 0x0 DUP6 GT PUSH2 0x1F1D JUMPI PUSH1 0x40 MLOAD PUSH3 0x461BCD PUSH1 0xE5 SHL DUP2 MSTORE PUSH1 0x20 PUSH1 0x4 DUP3 ADD MSTORE PUSH1 0x10 PUSH1 0x24 DUP3 ADD MSTORE PUSH16 0x736861726573546F74616C206973203 PUSH1 0x84 SHL PUSH1 0x44 DUP3 ADD MSTORE PUSH1 0x64 ADD PUSH2 0x47A JUMP JUMPDEST PUSH1 0x0 DUP6 PUSH2 0x1F2A DUP4 DUP6 PUSH2 0x2B5B JUMP JUMPDEST PUSH2 0x1F34 SWAP2 SWAP1 PUSH2 0x2B47 JUMP JUMPDEST SWAP1 POP DUP1 DUP9 GT ISZERO PUSH2 0x1F42 JUMPI DUP1 SWAP8 POP JUMPDEST DUP8 ISZERO PUSH2 0x20B9 JUMPI PUSH1 0x3 DUP10 DUP2 SLOAD DUP2 LT PUSH2 0x1F5B JUMPI PUSH2 0x1F5B PUSH2 0x2C2E JUMP JUMPDEST PUSH1 0x0 SWAP2 DUP3 MSTORE PUSH1 0x20 SWAP1 SWAP2 KECCAK256 PUSH1 0x2 SWAP1 SWAP2 MUL ADD PUSH1 0x1 ADD SLOAD PUSH1 0x40 MLOAD PUSH4 0xF3FEF3A3 PUSH1 0xE0 SHL DUP2 MSTORE CALLER PUSH1 0x4 DUP3 ADD MSTORE PUSH1 0x24 DUP2 ADD DUP11 SWAP1 MSTORE PUSH1 0x1 PUSH1 0x1 PUSH1 0xA0 SHL SUB SWAP1 SWAP2 AND SWAP1 PUSH4 0xF3FEF3A3 SWAP1 PUSH1 0x44 ADD PUSH1 0x20 PUSH1 0x40 MLOAD DUP1 DUP4 SUB DUP2 PUSH1 0x0 DUP8 DUP1 EXTCODESIZE ISZERO DUP1 ISZERO PUSH2 0x1FB8 JUMPI PUSH1 0x0 DUP1 REVERT JUMPDEST POP GAS CALL ISZERO DUP1 ISZERO PUSH2 0x1FCC JUMPI RETURNDATASIZE PUSH1 0x0 DUP1 RETURNDATACOPY RETURNDATASIZE PUSH1 0x0 REVERT JUMPDEST POP POP POP POP PUSH1 0x40 MLOAD RETURNDATASIZE PUSH1 0x1F NOT PUSH1 0x1F DUP3 ADD AND DUP3 ADD DUP1 PUSH1 0x40 MSTORE POP DUP2 ADD SWAP1 PUSH2 0x1FF0 SWAP2 SWAP1 PUSH2 0x27BE JUMP JUMPDEST SWAP5 POP DUP3 DUP6 GT ISZERO PUSH2 0x200B JUMPI PUSH2 0x2005 DUP10 CALLER DUP6 PUSH2 0x212E JUMP JUMPDEST POP PUSH2 0x2018 JUMP JUMPDEST PUSH2 0x2016 DUP10 CALLER DUP8 PUSH2 0x212E JUMP JUMPDEST POP JUMPDEST DUP4 SLOAD PUSH1 0x40 MLOAD PUSH4 0x70A08231 PUSH1 0xE0 SHL DUP2 MSTORE ADDRESS PUSH1 0x4 DUP3 ADD MSTORE PUSH1 0x0 SWAP2 PUSH1 0x1 PUSH1 0x1 PUSH1 0xA0 SHL SUB AND SWAP1 PUSH4 0x70A08231 SWAP1 PUSH1 0x24 ADD PUSH1 0x20 PUSH1 0x40 MLOAD DUP1 DUP4 SUB DUP2 DUP7 DUP1 EXTCODESIZE ISZERO DUP1 ISZERO PUSH2 0x205B JUMPI PUSH1 0x0 DUP1 REVERT JUMPDEST POP GAS STATICCALL ISZERO DUP1 ISZERO PUSH2 0x206F JUMPI RETURNDATASIZE PUSH1 0x0 DUP1 RETURNDATACOPY RETURNDATASIZE PUSH1 0x0 REVERT JUMPDEST POP POP POP POP PUSH1 0x40 MLOAD RETURNDATASIZE PUSH1 0x1F NOT PUSH1 0x1F DUP3 ADD AND DUP3 ADD DUP1 PUSH1 0x40 MSTORE POP DUP2 ADD SWAP1 PUSH2 0x2093 SWAP2 SWAP1 PUSH2 0x27BE JUMP JUMPDEST SWAP1 POP DUP9 DUP2 LT ISZERO PUSH2 0x20A1 JUMPI DUP1 SWAP9 POP JUMPDEST DUP5 SLOAD PUSH2 0x20B7 SWAP1 PUSH1 0x1 PUSH1 0x1 PUSH1 0xA0 SHL SUB AND DUP10 DUP12 PUSH2 0x251B JUMP JUMPDEST POP JUMPDEST PUSH1 0x40 MLOAD DUP9 DUP2 MSTORE DUP10 SWAP1 CALLER SWAP1 PUSH32 0xF279E6A1F5E320CCA91135676D9CB6E44CA8A08C0B88342BCDB1144F6511B568 SWAP1 PUSH1 0x20 ADD PUSH1 0x40 MLOAD DUP1 SWAP2 SUB SWAP1 LOG3 POP POP POP POP SWAP4 POP SWAP4 SWAP2 POP POP JUMP JUMPDEST PUSH1 0x0 PUSH2 0x2108 DUP3 DUP5 PUSH2 0x2BD8 JUMP JUMPDEST ISZERO PUSH2 0x2114 JUMPI PUSH1 0x1 PUSH2 0x2117 JUMP JUMPDEST PUSH1 0x0 JUMPDEST PUSH1 0xFF AND PUSH2 0x2124 DUP4 DUP6 PUSH2 0x2B47 JUMP JUMPDEST PUSH2 0xEA8 SWAP2 SWAP1 PUSH2 0x2B2F JUMP JUMPDEST PUSH1 0x0 DUP4 ISZERO DUP1 ISZERO PUSH2 0x2157 JUMPI POP PUSH1 0x1 PUSH1 0x1 PUSH1 0xA0 SHL SUB DUP4 AND PUSH1 0x0 SWAP1 DUP2 MSTORE PUSH1 0x5 PUSH1 0x20 MSTORE PUSH1 0x40 SWAP1 KECCAK256 SLOAD PUSH1 0xFF AND ISZERO JUMPDEST DUP1 ISZERO PUSH2 0x2199 JUMPI POP PUSH1 0x1 PUSH1 0x1 PUSH1 0xA0 SHL SUB DUP4 AND PUSH1 0x0 SWAP1 DUP2 MSTORE PUSH32 0x17EF568E3E12AB5B9C7254A8D58478811DE00F9E6EB34345ACD53BF8FD09D3EC PUSH1 0x20 MSTORE PUSH1 0x40 SWAP1 KECCAK256 SLOAD DUP3 GT JUMPDEST ISZERO PUSH2 0x21DD JUMPI PUSH1 0x1 PUSH1 0x1 PUSH1 0xA0 SHL SUB DUP4 AND PUSH1 0x0 SWAP1 DUP2 MSTORE PUSH1 0xA PUSH1 0x20 MSTORE PUSH1 0x40 DUP2 KECCAK256 DUP1 SLOAD DUP5 SWAP3 SWAP1 PUSH2 0x21C6 SWAP1 DUP5 SWAP1 PUSH2 0x2B2F JUMP JUMPDEST SWAP1 SWAP2 SSTORE POP PUSH2 0x21D6 SWAP1 POP DUP5 DUP5 PUSH2 0x199F JUMP JUMPDEST SWAP1 POP PUSH2 0xEA8 JUMP JUMPDEST PUSH2 0x21D6 DUP5 DUP5 DUP5 PUSH2 0x254B JUMP JUMPDEST PUSH1 0x0 DUP4 DUP2 MSTORE PUSH1 0x4 PUSH1 0x20 SWAP1 DUP2 MSTORE PUSH1 0x40 DUP1 DUP4 KECCAK256 PUSH1 0x1 PUSH1 0x1 PUSH1 0xA0 SHL SUB DUP7 AND DUP5 MSTORE SWAP1 SWAP2 MSTORE DUP2 KECCAK256 DUP1 SLOAD DUP4 SWAP2 SWAP1 DUP4 SWAP1 PUSH2 0x221C SWAP1 DUP5 SWAP1 PUSH2 0x2B2F JUMP JUMPDEST SWAP1 SWAP2 SSTORE POP POP POP PUSH1 0x0 SWAP3 DUP4 MSTORE POP PUSH1 0x4 PUSH1 0x20 SWAP1 DUP2 MSTORE PUSH1 0x40 DUP1 DUP5 KECCAK256 PUSH1 0x1 PUSH1 0x1 PUSH1 0xA0 SHL SUB SWAP4 SWAP1 SWAP4 AND DUP5 MSTORE SWAP2 SWAP1 MSTORE SWAP1 KECCAK256 SLOAD SWAP1 JUMP JUMPDEST PUSH1 0x0 PUSH2 0x22A0 DUP3 PUSH1 0x40 MLOAD DUP1 PUSH1 0x40 ADD PUSH1 0x40 MSTORE DUP1 PUSH1 0x20 DUP2 MSTORE PUSH1 0x20 ADD PUSH32 0x5361666545524332303A206C6F772D6C6576656C2063616C6C206661696C6564 DUP2 MSTORE POP DUP6 PUSH1 0x1 PUSH1 0x1 PUSH1 0xA0 SHL SUB AND PUSH2 0x257F SWAP1 SWAP3 SWAP2 SWAP1 PUSH4 0xFFFFFFFF AND JUMP JUMPDEST DUP1 MLOAD SWAP1 SWAP2 POP ISZERO PUSH2 0xF0B JUMPI DUP1 DUP1 PUSH1 0x20 ADD SWAP1 MLOAD DUP2 ADD SWAP1 PUSH2 0x22BE SWAP2 SWAP1 PUSH2 0x2767 JUMP JUMPDEST PUSH2 0xF0B JUMPI PUSH1 0x40 MLOAD PUSH3 0x461BCD PUSH1 0xE5 SHL DUP2 MSTORE PUSH1 0x20 PUSH1 0x4 DUP3 ADD MSTORE PUSH1 0x2A PUSH1 0x24 DUP3 ADD MSTORE PUSH32 0x5361666545524332303A204552433230206F7065726174696F6E20646964206E PUSH1 0x44 DUP3 ADD MSTORE PUSH10 0x1BDD081CDD58D8D95959 PUSH1 0xB2 SHL PUSH1 0x64 DUP3 ADD MSTORE PUSH1 0x84 ADD PUSH2 0x47A JUMP JUMPDEST PUSH1 0x0 DUP1 DUP4 GT DUP1 ISZERO PUSH2 0x232F JUMPI POP PUSH1 0x3 SLOAD DUP4 LT JUMPDEST PUSH2 0x2394 JUMPI PUSH1 0x40 MLOAD PUSH3 0x461BCD PUSH1 0xE5 SHL DUP2 MSTORE PUSH1 0x20 PUSH1 0x4 DUP3 ADD MSTORE PUSH1 0x30 PUSH1 0x24 DUP3 ADD MSTORE PUSH32 0x5661756C744865616C65724D6178693A20636F726553686172657346726F6D4D PUSH1 0x44 DUP3 ADD MSTORE PUSH16 0x185E1A5B5A5E995C88189859081C1A59 PUSH1 0x82 SHL PUSH1 0x64 DUP3 ADD MSTORE PUSH1 0x84 ADD PUSH2 0x47A JUMP JUMPDEST PUSH1 0x3 DUP1 DUP5 DUP2 SLOAD DUP2 LT PUSH2 0x23A8 JUMPI PUSH2 0x23A8 PUSH2 0x2C2E JUMP JUMPDEST SWAP1 PUSH1 0x0 MSTORE PUSH1 0x20 PUSH1 0x0 KECCAK256 SWAP1 PUSH1 0x2 MUL ADD PUSH1 0x1 ADD PUSH1 0x14 SWAP1 SLOAD SWAP1 PUSH2 0x100 EXP SWAP1 DIV PUSH1 0xFF AND PUSH1 0x3 DUP2 GT ISZERO PUSH2 0x23D8 JUMPI PUSH2 0x23D8 PUSH2 0x2C18 JUMP JUMPDEST EQ PUSH2 0x23E5 JUMPI POP PUSH1 0x0 PUSH2 0xE34 JUMP JUMPDEST PUSH1 0x0 PUSH2 0x23F1 DUP5 DUP5 PUSH2 0x199F JUMP JUMPDEST SWAP1 POP PUSH1 0x0 PUSH1 0x3 DUP6 DUP2 SLOAD DUP2 LT PUSH2 0x2408 JUMPI PUSH2 0x2408 PUSH2 0x2C2E JUMP JUMPDEST SWAP1 PUSH1 0x0 MSTORE PUSH1 0x20 PUSH1 0x0 KECCAK256 SWAP1 PUSH1 0x2 MUL ADD PUSH1 0x1 ADD PUSH1 0x0 SWAP1 SLOAD SWAP1 PUSH2 0x100 EXP SWAP1 DIV PUSH1 0x1 PUSH1 0x1 PUSH1 0xA0 SHL SUB AND SWAP1 POP PUSH1 0x0 DUP2 PUSH1 0x1 PUSH1 0x1 PUSH1 0xA0 SHL SUB AND PUSH4 0x44A3955E PUSH1 0x40 MLOAD DUP2 PUSH4 0xFFFFFFFF AND PUSH1 0xE0 SHL DUP2 MSTORE PUSH1 0x4 ADD PUSH1 0x20 PUSH1 0x40 MLOAD DUP1 DUP4 SUB DUP2 DUP7 DUP1 EXTCODESIZE ISZERO DUP1 ISZERO PUSH2 0x246A JUMPI PUSH1 0x0 DUP1 REVERT JUMPDEST POP GAS STATICCALL ISZERO DUP1 ISZERO PUSH2 0x247E JUMPI RETURNDATASIZE PUSH1 0x0 DUP1 RETURNDATACOPY RETURNDATASIZE PUSH1 0x0 REVERT JUMPDEST POP POP POP POP PUSH1 0x40 MLOAD RETURNDATASIZE PUSH1 0x1F NOT PUSH1 0x1F DUP3 ADD AND DUP3 ADD DUP1 PUSH1 0x40 MSTORE POP DUP2 ADD SWAP1 PUSH2 0x24A2 SWAP2 SWAP1 PUSH2 0x27BE JUMP JUMPDEST SWAP1 POP DUP1 PUSH2 0x24B5 JUMPI PUSH1 0x0 SWAP4 POP POP POP POP PUSH2 0xE34 JUMP JUMPDEST PUSH1 0x0 PUSH2 0x24C1 DUP8 DUP5 PUSH2 0x199F JUMP JUMPDEST SWAP1 POP DUP2 PUSH2 0x24CE DUP3 DUP7 PUSH2 0x2B5B JUMP JUMPDEST PUSH2 0x24D8 SWAP2 SWAP1 PUSH2 0x2B47 JUMP JUMPDEST SWAP8 SWAP7 POP POP POP POP POP POP POP JUMP JUMPDEST PUSH1 0x40 MLOAD PUSH1 0x1 PUSH1 0x1 PUSH1 0xA0 SHL SUB DUP1 DUP6 AND PUSH1 0x24 DUP4 ADD MSTORE DUP4 AND PUSH1 0x44 DUP3 ADD MSTORE PUSH1 0x64 DUP2 ADD DUP3 SWAP1 MSTORE PUSH2 0x1844 SWAP1 DUP6 SWAP1 PUSH4 0x23B872DD PUSH1 0xE0 SHL SWAP1 PUSH1 0x84 ADD PUSH2 0x174C JUMP JUMPDEST PUSH1 0x40 MLOAD PUSH1 0x1 PUSH1 0x1 PUSH1 0xA0 SHL SUB DUP4 AND PUSH1 0x24 DUP3 ADD MSTORE PUSH1 0x44 DUP2 ADD DUP3 SWAP1 MSTORE PUSH2 0xF0B SWAP1 DUP5 SWAP1 PUSH4 0xA9059CBB PUSH1 0xE0 SHL SWAP1 PUSH1 0x64 ADD PUSH2 0x174C JUMP JUMPDEST PUSH1 0x0 DUP4 DUP2 MSTORE PUSH1 0x4 PUSH1 0x20 SWAP1 DUP2 MSTORE PUSH1 0x40 DUP1 DUP4 KECCAK256 PUSH1 0x1 PUSH1 0x1 PUSH1 0xA0 SHL SUB DUP7 AND DUP5 MSTORE SWAP1 SWAP2 MSTORE DUP2 KECCAK256 DUP1 SLOAD DUP4 SWAP2 SWAP1 DUP4 SWAP1 PUSH2 0x221C SWAP1 DUP5 SWAP1 PUSH2 0x2B7A JUMP JUMPDEST PUSH1 0x60 PUSH2 0x258E DUP5 DUP5 PUSH1 0x0 DUP6 PUSH2 0x2596 JUMP JUMPDEST SWAP5 SWAP4 POP POP POP POP JUMP JUMPDEST PUSH1 0x60 DUP3 SELFBALANCE LT ISZERO PUSH2 0x25F7 JUMPI PUSH1 0x40 MLOAD PUSH3 0x461BCD PUSH1 0xE5 SHL DUP2 MSTORE PUSH1 0x20 PUSH1 0x4 DUP3 ADD MSTORE PUSH1 0x26 PUSH1 0x24 DUP3 ADD MSTORE PUSH32 0x416464726573733A20696E73756666696369656E742062616C616E636520666F PUSH1 0x44 DUP3 ADD MSTORE PUSH6 0x1C8818D85B1B PUSH1 0xD2 SHL PUSH1 0x64 DUP3 ADD MSTORE PUSH1 0x84 ADD PUSH2 0x47A JUMP JUMPDEST DUP5 EXTCODESIZE PUSH2 0x2645 JUMPI PUSH1 0x40 MLOAD PUSH3 0x461BCD PUSH1 0xE5 SHL DUP2 MSTORE PUSH1 0x20 PUSH1 0x4 DUP3 ADD MSTORE PUSH1 0x1D PUSH1 0x24 DUP3 ADD MSTORE PUSH32 0x416464726573733A2063616C6C20746F206E6F6E2D636F6E7472616374000000 PUSH1 0x44 DUP3 ADD MSTORE PUSH1 0x64 ADD PUSH2 0x47A JUMP JUMPDEST PUSH1 0x0 DUP1 DUP7 PUSH1 0x1 PUSH1 0x1 PUSH1 0xA0 SHL SUB AND DUP6 DUP8 PUSH1 0x40 MLOAD PUSH2 0x2661 SWAP2 SWAP1 PUSH2 0x29BE JUMP JUMPDEST PUSH1 0x0 PUSH1 0x40 MLOAD DUP1 DUP4 SUB DUP2 DUP6 DUP8 GAS CALL SWAP3 POP POP POP RETURNDATASIZE DUP1 PUSH1 0x0 DUP2 EQ PUSH2 0x269E JUMPI PUSH1 0x40 MLOAD SWAP2 POP PUSH1 0x1F NOT PUSH1 0x3F RETURNDATASIZE ADD AND DUP3 ADD PUSH1 0x40 MSTORE RETURNDATASIZE DUP3 MSTORE RETURNDATASIZE PUSH1 0x0 PUSH1 0x20 DUP5 ADD RETURNDATACOPY PUSH2 0x26A3 JUMP JUMPDEST PUSH1 0x60 SWAP2 POP JUMPDEST POP SWAP2 POP SWAP2 POP PUSH2 0x24D8 DUP3 DUP3 DUP7 PUSH1 0x60 DUP4 ISZERO PUSH2 0x26BD JUMPI POP DUP2 PUSH2 0xEA8 JUMP JUMPDEST DUP3 MLOAD ISZERO PUSH2 0x26CD JUMPI DUP3 MLOAD DUP1 DUP5 PUSH1 0x20 ADD REVERT JUMPDEST DUP2 PUSH1 0x40 MLOAD PUSH3 0x461BCD PUSH1 0xE5 SHL DUP2 MSTORE PUSH1 0x4 ADD PUSH2 0x47A SWAP2 SWAP1 PUSH2 0x2A0D JUMP JUMPDEST PUSH2 0x46C DUP1 PUSH2 0x2C68 DUP4 CODECOPY ADD SWAP1 JUMP JUMPDEST PUSH1 0x0 PUSH1 0x20 DUP3 DUP5 SUB SLT ISZERO PUSH2 0x2706 JUMPI PUSH1 0x0 DUP1 REVERT JUMPDEST DUP2 CALLDATALOAD PUSH2 0xEA8 DUP2 PUSH2 0x2C44 JUMP JUMPDEST PUSH1 0x0 PUSH1 0x20 DUP3 DUP5 SUB SLT ISZERO PUSH2 0x2723 JUMPI PUSH1 0x0 DUP1 REVERT JUMPDEST DUP2 MLOAD PUSH2 0xEA8 DUP2 PUSH2 0x2C44 JUMP JUMPDEST PUSH1 0x0 DUP1 PUSH1 0x40 DUP4 DUP6 SUB SLT ISZERO PUSH2 0x2741 JUMPI PUSH1 0x0 DUP1 REVERT JUMPDEST DUP3 CALLDATALOAD PUSH2 0x274C DUP2 PUSH2 0x2C44 JUMP JUMPDEST SWAP2 POP PUSH1 0x20 DUP4 ADD CALLDATALOAD PUSH2 0x275C DUP2 PUSH2 0x2C59 JUMP JUMPDEST DUP1 SWAP2 POP POP SWAP3 POP SWAP3 SWAP1 POP JUMP JUMPDEST PUSH1 0x0 PUSH1 0x20 DUP3 DUP5 SUB SLT ISZERO PUSH2 0x2779 JUMPI PUSH1 0x0 DUP1 REVERT JUMPDEST DUP2 MLOAD PUSH2 0xEA8 DUP2 PUSH2 0x2C59 JUMP JUMPDEST PUSH1 0x0 PUSH1 0x20 DUP3 DUP5 SUB SLT ISZERO PUSH2 0x2796 JUMPI PUSH1 0x0 DUP1 REVERT JUMPDEST DUP2 MLOAD PUSH1 0x4 DUP2 LT PUSH2 0xEA8 JUMPI PUSH1 0x0 DUP1 REVERT JUMPDEST PUSH1 0x0 PUSH1 0x20 DUP3 DUP5 SUB SLT ISZERO PUSH2 0x27B7 JUMPI PUSH1 0x0 DUP1 REVERT JUMPDEST POP CALLDATALOAD SWAP2 SWAP1 POP JUMP JUMPDEST PUSH1 0x0 PUSH1 0x20 DUP3 DUP5 SUB SLT ISZERO PUSH2 0x27D0 JUMPI PUSH1 0x0 DUP1 REVERT JUMPDEST POP MLOAD SWAP2 SWAP1 POP JUMP JUMPDEST PUSH1 0x0 DUP1 PUSH1 0x40 DUP4 DUP6 SUB SLT ISZERO PUSH2 0x27EA JUMPI PUSH1 0x0 DUP1 REVERT JUMPDEST DUP3 CALLDATALOAD SWAP2 POP PUSH1 0x20 DUP4 ADD CALLDATALOAD PUSH2 0x275C DUP2 PUSH2 0x2C44 JUMP JUMPDEST PUSH1 0x0 DUP1 PUSH1 0x40 DUP4 DUP6 SUB SLT ISZERO PUSH2 0x280F JUMPI PUSH1 0x0 DUP1 REVERT JUMPDEST DUP3 CALLDATALOAD SWAP2 POP PUSH1 0x20 DUP4 ADD CALLDATALOAD PUSH2 0x275C DUP2 PUSH2 0x2C59 JUMP JUMPDEST PUSH1 0x0 DUP1 PUSH1 0x40 DUP4 DUP6 SUB SLT ISZERO PUSH2 0x2834 JUMPI PUSH1 0x0 DUP1 REVERT JUMPDEST POP POP DUP1 CALLDATALOAD SWAP3 PUSH1 0x20 SWAP1 SWAP2 ADD CALLDATALOAD SWAP2 POP JUMP JUMPDEST PUSH1 0x0 DUP1 PUSH1 0x0 PUSH1 0x60 DUP5 DUP7 SUB SLT ISZERO PUSH2 0x2858 JUMPI PUSH1 0x0 DUP1 REVERT JUMPDEST DUP4 CALLDATALOAD SWAP3 POP PUSH1 0x20 DUP5 ADD CALLDATALOAD SWAP2 POP PUSH1 0x40 DUP5 ADD CALLDATALOAD PUSH2 0x2871 DUP2 PUSH2 0x2C44 JUMP JUMPDEST DUP1 SWAP2 POP POP SWAP3 POP SWAP3 POP SWAP3 JUMP JUMPDEST PUSH1 0x0 DUP1 PUSH1 0x0 DUP1 PUSH1 0x0 DUP1 PUSH1 0xC0 DUP8 DUP10 SUB SLT ISZERO PUSH2 0x2895 JUMPI PUSH1 0x0 DUP1 REVERT JUMPDEST DUP7 CALLDATALOAD SWAP6 POP PUSH1 0x20 DUP8 ADD CALLDATALOAD SWAP5 POP PUSH1 0x40 DUP8 ADD CALLDATALOAD PUSH2 0x28AE DUP2 PUSH2 0x2C44 JUMP JUMPDEST SWAP4 POP PUSH1 0x60 DUP8 ADD CALLDATALOAD PUSH2 0x28BE DUP2 PUSH2 0x2C44 JUMP JUMPDEST SWAP3 POP PUSH1 0x80 DUP8 ADD CALLDATALOAD PUSH2 0x28CE DUP2 PUSH2 0x2C44 JUMP JUMPDEST SWAP2 POP PUSH1 0xA0 DUP8 ADD CALLDATALOAD PUSH2 0x28DE DUP2 PUSH2 0x2C44 JUMP JUMPDEST DUP1 SWAP2 POP POP SWAP3 SWAP6 POP SWAP3 SWAP6 POP SWAP3 SWAP6 JUMP JUMPDEST PUSH1 0x0 DUP1 PUSH1 0x0 DUP1 PUSH1 0x0 DUP1 PUSH1 0x0 PUSH1 0xE0 DUP9 DUP11 SUB SLT ISZERO PUSH2 0x2907 JUMPI PUSH1 0x0 DUP1 REVERT JUMPDEST DUP8 CALLDATALOAD SWAP7 POP PUSH1 0x20 DUP9 ADD CALLDATALOAD SWAP6 POP PUSH1 0x40 DUP9 ADD CALLDATALOAD PUSH2 0x2920 DUP2 PUSH2 0x2C44 JUMP JUMPDEST SWAP5 POP PUSH1 0x60 DUP9 ADD CALLDATALOAD PUSH2 0x2930 DUP2 PUSH2 0x2C44 JUMP JUMPDEST SWAP4 POP PUSH1 0x80 DUP9 ADD CALLDATALOAD PUSH2 0x2940 DUP2 PUSH2 0x2C44 JUMP JUMPDEST SWAP3 POP PUSH1 0xA0 DUP9 ADD CALLDATALOAD PUSH2 0x2950 DUP2 PUSH2 0x2C44 JUMP JUMPDEST SWAP2 POP PUSH1 0xC0 DUP9 ADD CALLDATALOAD PUSH2 0x2960 DUP2 PUSH2 0x2C44 JUMP JUMPDEST DUP1 SWAP2 POP POP SWAP3 SWAP6 SWAP9 SWAP2 SWAP5 SWAP8 POP SWAP3 SWAP6 POP JUMP JUMPDEST PUSH1 0x0 DUP2 MLOAD DUP1 DUP5 MSTORE PUSH2 0x2988 DUP2 PUSH1 0x20 DUP7 ADD PUSH1 0x20 DUP7 ADD PUSH2 0x2B91 JUMP JUMPDEST PUSH1 0x1F ADD PUSH1 0x1F NOT AND SWAP3 SWAP1 SWAP3 ADD PUSH1 0x20 ADD SWAP3 SWAP2 POP POP JUMP JUMPDEST PUSH1 0x4 DUP2 LT PUSH2 0x29BA JUMPI PUSH4 0x4E487B71 PUSH1 0xE0 SHL PUSH1 0x0 MSTORE PUSH1 0x21 PUSH1 0x4 MSTORE PUSH1 0x24 PUSH1 0x0 REVERT JUMPDEST SWAP1 MSTORE JUMP JUMPDEST PUSH1 0x0 DUP3 MLOAD PUSH2 0x29D0 DUP2 DUP5 PUSH1 0x20 DUP8 ADD PUSH2 0x2B91 JUMP JUMPDEST SWAP2 SWAP1 SWAP2 ADD SWAP3 SWAP2 POP POP JUMP JUMPDEST PUSH1 0x1 PUSH1 0x1 PUSH1 0xA0 SHL SUB DUP5 DUP2 AND DUP3 MSTORE DUP4 AND PUSH1 0x20 DUP3 ADD MSTORE PUSH1 0x60 DUP2 ADD PUSH2 0x258E PUSH1 0x40 DUP4 ADD DUP5 PUSH2 0x299C JUMP JUMPDEST PUSH1 0x20 DUP2 ADD PUSH2 0xE34 DUP3 DUP5 PUSH2 0x299C JUMP JUMPDEST PUSH1 0x20 DUP2 MSTORE PUSH1 0x0 PUSH2 0xEA8 PUSH1 0x20 DUP4 ADD DUP5 PUSH2 0x2970 JUMP JUMPDEST PUSH1 0x20 DUP1 DUP3 MSTORE DUP2 DUP2 ADD MSTORE PUSH32 0x4F776E61626C653A2063616C6C6572206973206E6F7420746865206F776E6572 PUSH1 0x40 DUP3 ADD MSTORE PUSH1 0x60 ADD SWAP1 JUMP JUMPDEST PUSH1 0x20 DUP1 DUP3 MSTORE PUSH1 0x1F SWAP1 DUP3 ADD MSTORE PUSH32 0x5265656E7472616E637947756172643A207265656E7472616E742063616C6C00 PUSH1 0x40 DUP3 ADD MSTORE PUSH1 0x60 ADD SWAP1 JUMP JUMPDEST PUSH1 0x20 DUP1 DUP3 MSTORE PUSH1 0x24 SWAP1 DUP3 ADD MSTORE PUSH32 0x4F70657261746F723A2063616C6C6572206973206E6F7420746865206F706572 PUSH1 0x40 DUP3 ADD MSTORE PUSH4 0x30BA37B9 PUSH1 0xE1 SHL PUSH1 0x60 DUP3 ADD MSTORE PUSH1 0x80 ADD SWAP1 JUMP JUMPDEST DUP3 DUP2 MSTORE PUSH1 0x40 PUSH1 0x20 DUP3 ADD MSTORE PUSH1 0x0 PUSH2 0x258E PUSH1 0x40 DUP4 ADD DUP5 PUSH2 0x2970 JUMP JUMPDEST SWAP8 DUP9 MSTORE PUSH1 0x20 DUP9 ADD SWAP7 SWAP1 SWAP7 MSTORE PUSH1 0x1 PUSH1 0x1 PUSH1 0xA0 SHL SUB SWAP5 DUP6 AND PUSH1 0x40 DUP9 ADD MSTORE SWAP3 DUP5 AND PUSH1 0x60 DUP8 ADD MSTORE SWAP1 DUP4 AND PUSH1 0x80 DUP7 ADD MSTORE DUP3 AND PUSH1 0xA0 DUP6 ADD MSTORE DUP2 AND PUSH1 0xC0 DUP5 ADD MSTORE AND PUSH1 0xE0 DUP3 ADD MSTORE PUSH2 0x100 ADD SWAP1 JUMP JUMPDEST PUSH1 0x0 DUP3 NOT DUP3 GT ISZERO PUSH2 0x2B42 JUMPI PUSH2 0x2B42 PUSH2 0x2BEC JUMP JUMPDEST POP ADD SWAP1 JUMP JUMPDEST PUSH1 0x0 DUP3 PUSH2 0x2B56 JUMPI PUSH2 0x2B56 PUSH2 0x2C02 JUMP JUMPDEST POP DIV SWAP1 JUMP JUMPDEST PUSH1 0x0 DUP2 PUSH1 0x0 NOT DIV DUP4 GT DUP3 ISZERO ISZERO AND ISZERO PUSH2 0x2B75 JUMPI PUSH2 0x2B75 PUSH2 0x2BEC JUMP JUMPDEST POP MUL SWAP1 JUMP JUMPDEST PUSH1 0x0 DUP3 DUP3 LT ISZERO PUSH2 0x2B8C JUMPI PUSH2 0x2B8C PUSH2 0x2BEC JUMP JUMPDEST POP SUB SWAP1 JUMP JUMPDEST PUSH1 0x0 JUMPDEST DUP4 DUP2 LT ISZERO PUSH2 0x2BAC JUMPI DUP2 DUP2 ADD MLOAD DUP4 DUP3 ADD MSTORE PUSH1 0x20 ADD PUSH2 0x2B94 JUMP JUMPDEST DUP4 DUP2 GT ISZERO PUSH2 0x1844 JUMPI POP POP PUSH1 0x0 SWAP2 ADD MSTORE JUMP JUMPDEST PUSH1 0x0 PUSH1 0x0 NOT DUP3 EQ ISZERO PUSH2 0x2BD1 JUMPI PUSH2 0x2BD1 PUSH2 0x2BEC JUMP JUMPDEST POP PUSH1 0x1 ADD SWAP1 JUMP JUMPDEST PUSH1 0x0 DUP3 PUSH2 0x2BE7 JUMPI PUSH2 0x2BE7 PUSH2 0x2C02 JUMP JUMPDEST POP MOD SWAP1 JUMP JUMPDEST PUSH4 0x4E487B71 PUSH1 0xE0 SHL PUSH1 0x0 MSTORE PUSH1 0x11 PUSH1 0x4 MSTORE PUSH1 0x24 PUSH1 0x0 REVERT JUMPDEST PUSH4 0x4E487B71 PUSH1 0xE0 SHL PUSH1 0x0 MSTORE PUSH1 0x12 PUSH1 0x4 MSTORE PUSH1 0x24 PUSH1 0x0 REVERT JUMPDEST PUSH4 0x4E487B71 PUSH1 0xE0 SHL PUSH1 0x0 MSTORE PUSH1 0x21 PUSH1 0x4 MSTORE PUSH1 0x24 PUSH1 0x0 REVERT JUMPDEST PUSH4 0x4E487B71 PUSH1 0xE0 SHL PUSH1 0x0 MSTORE PUSH1 0x32 PUSH1 0x4 MSTORE PUSH1 0x24 PUSH1 0x0 REVERT JUMPDEST PUSH1 0x1 PUSH1 0x1 PUSH1 0xA0 SHL SUB DUP2 AND DUP2 EQ PUSH2 0x88B JUMPI PUSH1 0x0 DUP1 REVERT JUMPDEST DUP1 ISZERO ISZERO DUP2 EQ PUSH2 0x88B JUMPI PUSH1 0x0 DUP1 REVERT INVALID PUSH1 0x80 PUSH1 0x40 MSTORE CALLVALUE DUP1 ISZERO PUSH2 0x10 JUMPI PUSH1 0x0 DUP1 REVERT JUMPDEST POP PUSH2 0x44C DUP1 PUSH2 0x20 PUSH1 0x0 CODECOPY PUSH1 0x0 RETURN INVALID PUSH1 0x80 PUSH1 0x40 MSTORE PUSH1 0x4 CALLDATASIZE LT PUSH2 0x22 JUMPI PUSH1 0x0 CALLDATALOAD PUSH1 0xE0 SHR DUP1 PUSH4 0x7F0E6D48 EQ PUSH2 0x39 JUMPI PUSH2 0x31 JUMP JUMPDEST CALLDATASIZE PUSH2 0x31 JUMPI PUSH2 0x2F PUSH2 0x59 JUMP JUMPDEST STOP JUMPDEST PUSH2 0x2F PUSH2 0x59 JUMP JUMPDEST CALLVALUE DUP1 ISZERO PUSH2 0x45 JUMPI PUSH1 0x0 DUP1 REVERT JUMPDEST POP PUSH2 0x2F PUSH2 0x54 CALLDATASIZE PUSH1 0x4 PUSH2 0x3DF JUMP JUMPDEST PUSH2 0x6B JUMP JUMPDEST PUSH2 0x69 PUSH2 0x64 PUSH2 0x1B4 JUMP JUMPDEST PUSH2 0x38B JUMP JUMPDEST JUMP JUMPDEST PUSH1 0x0 SLOAD PUSH2 0x100 SWAP1 DIV PUSH1 0xFF AND DUP1 PUSH2 0x84 JUMPI POP PUSH1 0x0 SLOAD PUSH1 0xFF AND ISZERO JUMPDEST PUSH2 0xEC JUMPI PUSH1 0x40 MLOAD PUSH3 0x461BCD PUSH1 0xE5 SHL DUP2 MSTORE PUSH1 0x20 PUSH1 0x4 DUP3 ADD MSTORE PUSH1 0x2E PUSH1 0x24 DUP3 ADD MSTORE PUSH32 0x496E697469616C697A61626C653A20636F6E747261637420697320616C726561 PUSH1 0x44 DUP3 ADD MSTORE PUSH14 0x191E481A5B9A5D1A585B1A5E9959 PUSH1 0x92 SHL PUSH1 0x64 DUP3 ADD MSTORE PUSH1 0x84 ADD JUMPDEST PUSH1 0x40 MLOAD DUP1 SWAP2 SUB SWAP1 REVERT JUMPDEST PUSH1 0x0 SLOAD PUSH2 0x100 SWAP1 DIV PUSH1 0xFF AND ISZERO DUP1 ISZERO PUSH2 0x10E JUMPI PUSH1 0x0 DUP1 SLOAD PUSH2 0xFFFF NOT AND PUSH2 0x101 OR SWAP1 SSTORE JUMPDEST PUSH1 0x0 DUP3 PUSH1 0x3 DUP2 GT ISZERO PUSH2 0x122 JUMPI PUSH2 0x122 PUSH2 0x400 JUMP JUMPDEST EQ ISZERO PUSH2 0x15B JUMPI PUSH1 0x40 MLOAD PUSH3 0x461BCD PUSH1 0xE5 SHL DUP2 MSTORE PUSH1 0x20 PUSH1 0x4 DUP3 ADD MSTORE PUSH1 0x8 PUSH1 0x24 DUP3 ADD MSTORE PUSH8 0x5941204241534943 PUSH1 0xC0 SHL PUSH1 0x44 DUP3 ADD MSTORE PUSH1 0x64 ADD PUSH2 0xE3 JUMP JUMPDEST PUSH1 0x0 DUP1 SLOAD DUP4 SWAP2 SWAP1 PUSH1 0xFF PUSH1 0xB0 SHL NOT AND PUSH1 0x1 PUSH1 0xB0 SHL DUP4 PUSH1 0x3 DUP2 GT ISZERO PUSH2 0x180 JUMPI PUSH2 0x180 PUSH2 0x400 JUMP JUMPDEST MUL OR SWAP1 SSTORE POP PUSH1 0x0 DUP1 SLOAD PUSH3 0x10000 PUSH1 0x1 PUSH1 0xB0 SHL SUB NOT AND CALLER PUSH3 0x10000 MUL OR SWAP1 SSTORE DUP1 ISZERO PUSH2 0x1B0 JUMPI PUSH1 0x0 DUP1 SLOAD PUSH2 0xFF00 NOT AND SWAP1 SSTORE JUMPDEST POP POP JUMP JUMPDEST PUSH1 0x0 PUSH1 0x1 PUSH1 0x0 SLOAD PUSH1 0x1 PUSH1 0xB0 SHL SWAP1 DIV PUSH1 0xFF AND PUSH1 0x3 DUP2 GT ISZERO PUSH2 0x1D6 JUMPI PUSH2 0x1D6 PUSH2 0x400 JUMP JUMPDEST EQ ISZERO PUSH2 0x267 JUMPI PUSH1 0x0 PUSH1 0x2 SWAP1 SLOAD SWAP1 PUSH2 0x100 EXP SWAP1 DIV PUSH1 0x1 PUSH1 0x1 PUSH1 0xA0 SHL SUB AND PUSH1 0x1 PUSH1 0x1 PUSH1 0xA0 SHL SUB AND PUSH4 0x244E017C PUSH1 0x40 MLOAD DUP2 PUSH4 0xFFFFFFFF AND PUSH1 0xE0 SHL DUP2 MSTORE PUSH1 0x4 ADD PUSH1 0x20 PUSH1 0x40 MLOAD DUP1 DUP4 SUB DUP2 DUP7 DUP1 EXTCODESIZE ISZERO DUP1 ISZERO PUSH2 0x22A JUMPI PUSH1 0x0 DUP1 REVERT JUMPDEST POP GAS STATICCALL ISZERO DUP1 ISZERO PUSH2 0x23E JUMPI RETURNDATASIZE PUSH1 0x0 DUP1 RETURNDATACOPY RETURNDATASIZE PUSH1 0x0 REVERT JUMPDEST POP POP POP POP PUSH1 0x40 MLOAD RETURNDATASIZE PUSH1 0x1F NOT PUSH1 0x1F DUP3 ADD AND DUP3 ADD DUP1 PUSH1 0x40 MSTORE POP DUP2 ADD SWAP1 PUSH2 0x262 SWAP2 SWAP1 PUSH2 0x3AF JUMP JUMPDEST SWAP1 POP SWAP1 JUMP JUMPDEST PUSH1 0x2 PUSH1 0x0 SLOAD PUSH1 0x1 PUSH1 0xB0 SHL SWAP1 DIV PUSH1 0xFF AND PUSH1 0x3 DUP2 GT ISZERO PUSH2 0x287 JUMPI PUSH2 0x287 PUSH2 0x400 JUMP JUMPDEST EQ ISZERO PUSH2 0x2DB JUMPI PUSH1 0x0 PUSH1 0x2 SWAP1 SLOAD SWAP1 PUSH2 0x100 EXP SWAP1 DIV PUSH1 0x1 PUSH1 0x1 PUSH1 0xA0 SHL SUB AND PUSH1 0x1 PUSH1 0x1 PUSH1 0xA0 SHL SUB AND PUSH4 0xDE1C6FF0 PUSH1 0x40 MLOAD DUP2 PUSH4 0xFFFFFFFF AND PUSH1 0xE0 SHL DUP2 MSTORE PUSH1 0x4 ADD PUSH1 0x20 PUSH1 0x40 MLOAD DUP1 DUP4 SUB DUP2 DUP7 DUP1 EXTCODESIZE ISZERO DUP1 ISZERO PUSH2 0x22A JUMPI PUSH1 0x0 DUP1 REVERT JUMPDEST PUSH1 0x3 PUSH1 0x0 SLOAD PUSH1 0x1 PUSH1 0xB0 SHL SWAP1 DIV PUSH1 0xFF AND PUSH1 0x3 DUP2 GT ISZERO PUSH2 0x2FB JUMPI PUSH2 0x2FB PUSH2 0x400 JUMP JUMPDEST EQ ISZERO PUSH2 0x34F JUMPI PUSH1 0x0 PUSH1 0x2 SWAP1 SLOAD SWAP1 PUSH2 0x100 EXP SWAP1 DIV PUSH1 0x1 PUSH1 0x1 PUSH1 0xA0 SHL SUB AND PUSH1 0x1 PUSH1 0x1 PUSH1 0xA0 SHL SUB AND PUSH4 0x48B3B036 PUSH1 0x40 MLOAD DUP2 PUSH4 0xFFFFFFFF AND PUSH1 0xE0 SHL DUP2 MSTORE PUSH1 0x4 ADD PUSH1 0x20 PUSH1 0x40 MLOAD DUP1 DUP4 SUB DUP2 DUP7 DUP1 EXTCODESIZE ISZERO DUP1 ISZERO PUSH2 0x22A JUMPI PUSH1 0x0 DUP1 REVERT JUMPDEST PUSH1 0x40 MLOAD PUSH3 0x461BCD PUSH1 0xE5 SHL DUP2 MSTORE PUSH1 0x20 PUSH1 0x4 DUP3 ADD MSTORE PUSH1 0x11 PUSH1 0x24 DUP3 ADD MSTORE PUSH17 0x27379034B6B83632B6B2B73A30BA34B7B7 PUSH1 0x79 SHL PUSH1 0x44 DUP3 ADD MSTORE PUSH1 0x64 ADD PUSH2 0xE3 JUMP JUMPDEST CALLDATASIZE PUSH1 0x0 DUP1 CALLDATACOPY PUSH1 0x0 DUP1 CALLDATASIZE PUSH1 0x0 DUP5 GAS DELEGATECALL RETURNDATASIZE PUSH1 0x0 DUP1 RETURNDATACOPY DUP1 DUP1 ISZERO PUSH2 0x3AA JUMPI RETURNDATASIZE PUSH1 0x0 RETURN JUMPDEST RETURNDATASIZE PUSH1 0x0 REVERT JUMPDEST PUSH1 0x0 PUSH1 0x20 DUP3 DUP5 SUB SLT ISZERO PUSH2 0x3C1 JUMPI PUSH1 0x0 DUP1 REVERT JUMPDEST DUP2 MLOAD PUSH1 0x1 PUSH1 0x1 PUSH1 0xA0 SHL SUB DUP2 AND DUP2 EQ PUSH2 0x3D8 JUMPI PUSH1 0x0 DUP1 REVERT JUMPDEST SWAP4 SWAP3 POP POP POP JUMP JUMPDEST PUSH1 0x0 PUSH1 0x20 DUP3 DUP5 SUB SLT ISZERO PUSH2 0x3F1 JUMPI PUSH1 0x0 DUP1 REVERT JUMPDEST DUP2 CALLDATALOAD PUSH1 0x4 DUP2 LT PUSH2 0x3D8 JUMPI PUSH1 0x0 DUP1 REVERT JUMPDEST PUSH4 0x4E487B71 PUSH1 0xE0 SHL PUSH1 0x0 MSTORE PUSH1 0x21 PUSH1 0x4 MSTORE PUSH1 0x24 PUSH1 0x0 REVERT INVALID LOG2 PUSH5 0x6970667358 0x22 SLT KECCAK256 0x27 BLOCKHASH 0xDF DUP1 0xE2 0xE 0xDB COINBASE 0xC3 SWAP14 EXTCODESIZE SWAP5 0x2A 0xF8 PUSH10 0x897004B704D248703689 CALL 0xE6 0xCF DUP10 0xEA LT SWAP7 PUSH5 0x736F6C6343 STOP ADDMOD SMOD STOP CALLER LOG2 PUSH5 0x6970667358 0x22 SLT KECCAK256 0xEC DUP15 0xC8 0x2D 0x5D POP CODESIZE 0xDE CODECOPY DUP5 ISZERO PUSH31 0xBB196EC70F122863789673BF1E10C5E2EA344F464736F6C63430008070033 "
		},
		"gasEstimates": {
			"creation": {
				"codeDepositCost": "2510600",
				"executionCost": "96999",
				"totalCost": "2607599"
			},
			"external": {
				"addMHMaximizerStrategy(uint256,uint256,address,address,address,address,address)": "infinite",
				"addMHStandardStrategy(uint256,uint256,address,address,address,address,address)": "infinite",
				"addPool(address)": "infinite",
				"autocompoundOn()": "2354",
				"compoundAll()": "infinite",
				"compoundMode()": "2351",
				"deposit(uint256,uint256)": "infinite",
				"deposit(uint256,uint256,address)": "infinite",
				"initialize(uint256,uint256,address,address,address,address)": "infinite",
				"maxiDebt(address)": "2591",
				"maximizerDeposit(uint256)": "infinite",
				"operators(address)": "2571",
				"owner()": "2421",
				"poolInfo(uint256)": "6982",
				"poolLength()": "2317",
				"renounceOwnership()": "28163",
				"resetAllowances()": "infinite",
				"resetSingleAllowance(uint256)": "infinite",
				"setCompoundMode(uint256,bool)": "50212",
				"stakedWantTokens(uint256,address)": "infinite",
				"strategyMasterHealer()": "2449",
				"strategyMaxiCore()": "2437",
				"strategyMaxiMasterHealer()": "2449",
				"strats(address)": "2591",
				"transferOwnership(address)": "infinite",
				"updateOperator(address,bool)": "infinite",
				"userInfo(uint256,address)": "infinite",
				"withdraw(uint256,uint256)": "infinite",
				"withdraw(uint256,uint256,address)": "infinite",
				"withdrawAll(uint256)": "infinite"
			},
			"internal": {
				"_deposit(uint256,uint256,address)": "infinite",
				"_withdraw(uint256,uint256,address)": "infinite",
				"coreSharesFromMaximizer(uint256,address)": "infinite",
				"getUserShares(uint256,address)": "infinite",
				"removeUserShares(uint256,address,uint256)": "infinite"
			}
		},
		"methodIdentifiers": {
			"addMHMaximizerStrategy(uint256,uint256,address,address,address,address,address)": "4c2077ab",
			"addMHStandardStrategy(uint256,uint256,address,address,address,address,address)": "d9b40aef",
			"addPool(address)": "d914cd4b",
			"autocompoundOn()": "e2ff2f47",
			"compoundAll()": "9b05ddb3",
			"compoundMode()": "5d142d07",
			"deposit(uint256,uint256)": "e2bbb158",
			"deposit(uint256,uint256,address)": "8dbdbe6d",
			"initialize(uint256,uint256,address,address,address,address)": "10e51e14",
			"maxiDebt(address)": "69b5525d",
			"maximizerDeposit(uint256)": "fc77c9db",
			"operators(address)": "13e7c9d8",
			"owner()": "8da5cb5b",
			"poolInfo(uint256)": "1526fe27",
			"poolLength()": "081e3eda",
			"renounceOwnership()": "715018a6",
			"resetAllowances()": "3505b09f",
			"resetSingleAllowance(uint256)": "23e1ad7d",
			"setCompoundMode(uint256,bool)": "3d4fc8d1",
			"stakedWantTokens(uint256,address)": "7b84daec",
			"strategyMasterHealer()": "244e017c",
			"strategyMaxiCore()": "de1c6ff0",
			"strategyMaxiMasterHealer()": "48b3b036",
			"strats(address)": "e718d129",
			"transferOwnership(address)": "f2fde38b",
			"updateOperator(address,bool)": "6d44a3b2",
			"userInfo(uint256,address)": "93f1a40b",
			"withdraw(uint256,uint256)": "441a3e70",
			"withdraw(uint256,uint256,address)": "0ad58d2f",
			"withdrawAll(uint256)": "958e2d31"
		}
	},
	"abi": [
		{
			"anonymous": false,
			"inputs": [
				{
					"indexed": true,
					"internalType": "address",
					"name": "strat",
					"type": "address"
				}
			],
			"name": "AddPool",
			"type": "event"
		},
		{
			"anonymous": false,
			"inputs": [
				{
					"indexed": false,
					"internalType": "uint256",
					"name": "pid",
					"type": "uint256"
				},
				{
					"indexed": false,
					"internalType": "bytes",
					"name": "reason",
					"type": "bytes"
				}
			],
			"name": "CompoundError",
			"type": "event"
		},
		{
			"anonymous": false,
			"inputs": [
				{
					"indexed": true,
					"internalType": "address",
					"name": "user",
					"type": "address"
				},
				{
					"indexed": true,
					"internalType": "uint256",
					"name": "pid",
					"type": "uint256"
				},
				{
					"indexed": false,
					"internalType": "uint256",
					"name": "amount",
					"type": "uint256"
				}
			],
			"name": "Deposit",
			"type": "event"
		},
		{
			"anonymous": false,
			"inputs": [
				{
					"indexed": true,
					"internalType": "address",
					"name": "user",
					"type": "address"
				},
				{
					"indexed": true,
					"internalType": "uint256",
					"name": "pid",
					"type": "uint256"
				},
				{
					"indexed": false,
					"internalType": "uint256",
					"name": "amount",
					"type": "uint256"
				}
			],
			"name": "EmergencyWithdraw",
			"type": "event"
		},
		{
			"anonymous": false,
			"inputs": [
				{
					"indexed": true,
					"internalType": "address",
					"name": "operator",
					"type": "address"
				},
				{
					"indexed": true,
					"internalType": "bool",
					"name": "status",
					"type": "bool"
				}
			],
			"name": "OperatorUpdated",
			"type": "event"
		},
		{
			"anonymous": false,
			"inputs": [
				{
					"indexed": true,
					"internalType": "address",
					"name": "previousOwner",
					"type": "address"
				},
				{
					"indexed": true,
					"internalType": "address",
					"name": "newOwner",
					"type": "address"
				}
			],
			"name": "OwnershipTransferred",
			"type": "event"
		},
		{
			"anonymous": false,
			"inputs": [
				{
					"indexed": false,
					"internalType": "uint256",
					"name": "locked",
					"type": "uint256"
				},
				{
					"indexed": false,
					"internalType": "bool",
					"name": "automatic",
					"type": "bool"
				}
			],
			"name": "SetCompoundMode",
			"type": "event"
		},
		{
			"anonymous": false,
			"inputs": [
				{
					"indexed": true,
					"internalType": "address",
					"name": "user",
					"type": "address"
				},
				{
					"indexed": true,
					"internalType": "uint256",
					"name": "pid",
					"type": "uint256"
				},
				{
					"indexed": false,
					"internalType": "uint256",
					"name": "amount",
					"type": "uint256"
				}
			],
			"name": "Withdraw",
			"type": "event"
		},
		{
			"inputs": [
				{
					"internalType": "uint256",
					"name": "_pid",
					"type": "uint256"
				},
				{
					"internalType": "uint256",
					"name": "_tolerance",
					"type": "uint256"
				},
				{
					"internalType": "address",
					"name": "_masterChef",
					"type": "address"
				},
				{
					"internalType": "address",
					"name": "_uniRouter",
					"type": "address"
				},
				{
					"internalType": "address",
					"name": "_wantAddress",
					"type": "address"
				},
				{
					"internalType": "address",
					"name": "_earnedAddress",
					"type": "address"
				},
				{
					"internalType": "address",
					"name": "_earnedToWmaticStep",
					"type": "address"
				}
			],
			"name": "addMHMaximizerStrategy",
			"outputs": [],
			"stateMutability": "nonpayable",
			"type": "function"
		},
		{
			"inputs": [
				{
					"internalType": "uint256",
					"name": "_pid",
					"type": "uint256"
				},
				{
					"internalType": "uint256",
					"name": "_tolerance",
					"type": "uint256"
				},
				{
					"internalType": "address",
					"name": "_masterChef",
					"type": "address"
				},
				{
					"internalType": "address",
					"name": "_uniRouter",
					"type": "address"
				},
				{
					"internalType": "address",
					"name": "_wantAddress",
					"type": "address"
				},
				{
					"internalType": "address",
					"name": "_earnedAddress",
					"type": "address"
				},
				{
					"internalType": "address",
					"name": "_earnedToWmaticStep",
					"type": "address"
				}
			],
			"name": "addMHStandardStrategy",
			"outputs": [],
			"stateMutability": "nonpayable",
			"type": "function"
		},
		{
			"inputs": [
				{
					"internalType": "address",
					"name": "_strat",
					"type": "address"
				}
			],
			"name": "addPool",
			"outputs": [],
			"stateMutability": "nonpayable",
			"type": "function"
		},
		{
			"inputs": [],
			"name": "autocompoundOn",
			"outputs": [
				{
					"internalType": "bool",
					"name": "",
					"type": "bool"
				}
			],
			"stateMutability": "view",
			"type": "function"
		},
		{
			"inputs": [],
			"name": "compoundAll",
			"outputs": [],
			"stateMutability": "nonpayable",
			"type": "function"
		},
		{
			"inputs": [],
			"name": "compoundMode",
			"outputs": [
				{
					"internalType": "uint256",
					"name": "",
					"type": "uint256"
				}
			],
			"stateMutability": "view",
			"type": "function"
		},
		{
			"inputs": [
				{
					"internalType": "uint256",
					"name": "_pid",
					"type": "uint256"
				},
				{
					"internalType": "uint256",
					"name": "_wantAmt",
					"type": "uint256"
				},
				{
					"internalType": "address",
					"name": "_to",
					"type": "address"
				}
			],
			"name": "deposit",
			"outputs": [],
			"stateMutability": "nonpayable",
			"type": "function"
		},
		{
			"inputs": [
				{
					"internalType": "uint256",
					"name": "_pid",
					"type": "uint256"
				},
				{
					"internalType": "uint256",
					"name": "_wantAmt",
					"type": "uint256"
				}
			],
			"name": "deposit",
			"outputs": [],
			"stateMutability": "nonpayable",
			"type": "function"
		},
		{
			"inputs": [
				{
					"internalType": "uint256",
					"name": "_pid",
					"type": "uint256"
				},
				{
					"internalType": "uint256",
					"name": "_tolerance",
					"type": "uint256"
				},
				{
					"internalType": "address",
					"name": "_masterChef",
					"type": "address"
				},
				{
					"internalType": "address",
					"name": "_uniRouter",
					"type": "address"
				},
				{
					"internalType": "address",
					"name": "_wantAddress",
					"type": "address"
				},
				{
					"internalType": "address",
					"name": "_earnedToWmaticStep",
					"type": "address"
				}
			],
			"name": "initialize",
			"outputs": [],
			"stateMutability": "nonpayable",
			"type": "function"
		},
		{
			"inputs": [
				{
					"internalType": "address",
					"name": "",
					"type": "address"
				}
			],
			"name": "maxiDebt",
			"outputs": [
				{
					"internalType": "uint256",
					"name": "",
					"type": "uint256"
				}
			],
			"stateMutability": "view",
			"type": "function"
		},
		{
			"inputs": [
				{
					"internalType": "uint256",
					"name": "_wantAmt",
					"type": "uint256"
				}
			],
			"name": "maximizerDeposit",
			"outputs": [],
			"stateMutability": "nonpayable",
			"type": "function"
		},
		{
			"inputs": [
				{
					"internalType": "address",
					"name": "",
					"type": "address"
				}
			],
			"name": "operators",
			"outputs": [
				{
					"internalType": "bool",
					"name": "",
					"type": "bool"
				}
			],
			"stateMutability": "view",
			"type": "function"
		},
		{
			"inputs": [],
			"name": "owner",
			"outputs": [
				{
					"internalType": "address",
					"name": "",
					"type": "address"
				}
			],
			"stateMutability": "view",
			"type": "function"
		},
		{
			"inputs": [
				{
					"internalType": "uint256",
					"name": "",
					"type": "uint256"
				}
			],
			"name": "poolInfo",
			"outputs": [
				{
					"internalType": "contract IERC20",
					"name": "want",
					"type": "address"
				},
				{
					"internalType": "contract IStrategy",
					"name": "strat",
					"type": "address"
				},
				{
					"internalType": "enum StratType",
					"name": "stratType",
					"type": "uint8"
				}
			],
			"stateMutability": "view",
			"type": "function"
		},
		{
			"inputs": [],
			"name": "poolLength",
			"outputs": [
				{
					"internalType": "uint256",
					"name": "",
					"type": "uint256"
				}
			],
			"stateMutability": "view",
			"type": "function"
		},
		{
			"inputs": [],
			"name": "renounceOwnership",
			"outputs": [],
			"stateMutability": "nonpayable",
			"type": "function"
		},
		{
			"inputs": [],
			"name": "resetAllowances",
			"outputs": [],
			"stateMutability": "nonpayable",
			"type": "function"
		},
		{
			"inputs": [
				{
					"internalType": "uint256",
					"name": "_pid",
					"type": "uint256"
				}
			],
			"name": "resetSingleAllowance",
			"outputs": [],
			"stateMutability": "nonpayable",
			"type": "function"
		},
		{
			"inputs": [
				{
					"internalType": "uint256",
					"name": "mode",
					"type": "uint256"
				},
				{
					"internalType": "bool",
					"name": "autoC",
					"type": "bool"
				}
			],
			"name": "setCompoundMode",
			"outputs": [],
			"stateMutability": "nonpayable",
			"type": "function"
		},
		{
			"inputs": [
				{
					"internalType": "uint256",
					"name": "_pid",
					"type": "uint256"
				},
				{
					"internalType": "address",
					"name": "_user",
					"type": "address"
				}
			],
			"name": "stakedWantTokens",
			"outputs": [
				{
					"internalType": "uint256",
					"name": "",
					"type": "uint256"
				}
			],
			"stateMutability": "view",
			"type": "function"
		},
		{
			"inputs": [],
			"name": "strategyMasterHealer",
			"outputs": [
				{
					"internalType": "address",
					"name": "",
					"type": "address"
				}
			],
			"stateMutability": "view",
			"type": "function"
		},
		{
			"inputs": [],
			"name": "strategyMaxiCore",
			"outputs": [
				{
					"internalType": "address",
					"name": "",
					"type": "address"
				}
			],
			"stateMutability": "view",
			"type": "function"
		},
		{
			"inputs": [],
			"name": "strategyMaxiMasterHealer",
			"outputs": [
				{
					"internalType": "address",
					"name": "",
					"type": "address"
				}
			],
			"stateMutability": "view",
			"type": "function"
		},
		{
			"inputs": [
				{
					"internalType": "address",
					"name": "",
					"type": "address"
				}
			],
			"name": "strats",
			"outputs": [
				{
					"internalType": "bool",
					"name": "",
					"type": "bool"
				}
			],
			"stateMutability": "view",
			"type": "function"
		},
		{
			"inputs": [
				{
					"internalType": "address",
					"name": "newOwner",
					"type": "address"
				}
			],
			"name": "transferOwnership",
			"outputs": [],
			"stateMutability": "nonpayable",
			"type": "function"
		},
		{
			"inputs": [
				{
					"internalType": "address",
					"name": "_operator",
					"type": "address"
				},
				{
					"internalType": "bool",
					"name": "_status",
					"type": "bool"
				}
			],
			"name": "updateOperator",
			"outputs": [],
			"stateMutability": "nonpayable",
			"type": "function"
		},
		{
			"inputs": [
				{
					"internalType": "uint256",
					"name": "_pid",
					"type": "uint256"
				},
				{
					"internalType": "address",
					"name": "_user",
					"type": "address"
				}
			],
			"name": "userInfo",
			"outputs": [
				{
					"internalType": "uint256",
					"name": "",
					"type": "uint256"
				}
			],
			"stateMutability": "view",
			"type": "function"
		},
		{
			"inputs": [
				{
					"internalType": "uint256",
					"name": "_pid",
					"type": "uint256"
				},
				{
					"internalType": "uint256",
					"name": "_wantAmt",
					"type": "uint256"
				},
				{
					"internalType": "address",
					"name": "_to",
					"type": "address"
				}
			],
			"name": "withdraw",
			"outputs": [],
			"stateMutability": "nonpayable",
			"type": "function"
		},
		{
			"inputs": [
				{
					"internalType": "uint256",
					"name": "_pid",
					"type": "uint256"
				},
				{
					"internalType": "uint256",
					"name": "_wantAmt",
					"type": "uint256"
				}
			],
			"name": "withdraw",
			"outputs": [],
			"stateMutability": "nonpayable",
			"type": "function"
		},
		{
			"inputs": [
				{
					"internalType": "uint256",
					"name": "_pid",
					"type": "uint256"
				}
			],
			"name": "withdrawAll",
			"outputs": [],
			"stateMutability": "nonpayable",
			"type": "function"
		}
	]
}