{
	"data": {
		"bytecode": {
			"linkReferences": {},
			"object": "60806040526001600d819055600e805460ff1916909117905534801561002457600080fd5b5061002e33610037565b60018055610087565b600080546001600160a01b038381166001600160a01b0319831681178455604051919092169283917f8be0079c531659141344cd1fd0a4f28419497f9722a3daafe3b4186f6b6457e09190a35050565b612bad80620000976000396000f3fe608060405234801561001057600080fd5b50600436106101975760003560e01c80637b84daec116100e3578063d331bef71161008c578063e2ff2f4711610066578063e2ff2f4714610397578063f2fde38b146103a4578063fad3cc4b146103b757600080fd5b8063d331bef71461035e578063d914cd4b14610371578063e2bbb1581461038457600080fd5b8063958e2d31116100bd578063958e2d31146103305780639b05ddb314610343578063a41fe49f1461034b57600080fd5b80637b84daec146102e25780638da5cb5b146102f55780638dbdbe6d1461031d57600080fd5b80633505b09f116101455780635d142d071161011f5780635d142d07146102be5780636d44a3b2146102c7578063715018a6146102da57600080fd5b80633505b09f146102905780633d4fc8d114610298578063441a3e70146102ab57600080fd5b806313e7c9d81161017657806313e7c9d8146101db5780631526fe271461020e57806323e1ad7d1461027d57600080fd5b8062aeef8a1461019c578063081e3eda146101b15780630ad58d2f146101c8575b600080fd5b6101af6101aa366004612809565b6103ca565b005b600b545b6040519081526020015b60405180910390f35b6101af6101d63660046127d0565b6104a5565b6101fe6101e936600461267e565b60026020526000908152604090205460ff1681565b60405190151581526020016101bf565b61025061021c36600461270e565b6000908152600a60205260409020805460019091015473ffffffffffffffffffffffffffffffffffffffff91821692911690565b6040805173ffffffffffffffffffffffffffffffffffffffff9384168152929091166020830152016101bf565b6101af61028b36600461270e565b6105e4565b6101af610668565b6101af6102a6366004612765565b6106eb565b6101af6102b936600461278a565b6107de565b6101b5600d5481565b6101af6102d53660046126b8565b6108d3565b6101af6109d3565b6101b56102f0366004612740565b610a5e565b60005460405173ffffffffffffffffffffffffffffffffffffffff90911681526020016101bf565b6101af61032b3660046127d0565b610a86565b6101af61033e36600461270e565b610bc5565b6101af610c40565b6101af610359366004612809565b610ce3565b6101af61036c366004612835565b610db0565b6101af61037f36600461267e565b610ed9565b6101af61039236600461278a565b6111e6565b600e546101fe9060ff1681565b6101af6103b236600461267e565b6112d3565b6101af6103c5366004612835565b611400565b6002600154141561043c576040517f08c379a000000000000000000000000000000000000000000000000000000000815260206004820152601f60248201527f5265656e7472616e637947756172643a207265656e7472616e742063616c6c0060448201526064015b60405180910390fd5b6002600155600e5460ff1680156104835750600d54158061046c57503360009081526002602052604090205460ff165b806104835750600d54600114801561048357503332145b156104905761049061151f565b61049c8383833361164e565b50506001805550565b60026001541415610512576040517f08c379a000000000000000000000000000000000000000000000000000000000815260206004820152601f60248201527f5265656e7472616e637947756172643a207265656e7472616e742063616c6c006044820152606401610433565b60026001819055336000908152602091909152604090205460ff166105b8576040517f08c379a0000000000000000000000000000000000000000000000000000000008152602060048201526024808201527f4f70657261746f723a2063616c6c6572206973206e6f7420746865206f70657260448201527f61746f72000000000000000000000000000000000000000000000000000000006064820152608401610433565b61049c83837fffffffffffffffffffffffffffffffffffffffffffffffffffffffffffffffff84611a16565b60005473ffffffffffffffffffffffffffffffffffffffff163314610665576040517f08c379a000000000000000000000000000000000000000000000000000000000815260206004820181905260248201527f4f776e61626c653a2063616c6c6572206973206e6f7420746865206f776e65726044820152606401610433565b50565b60005473ffffffffffffffffffffffffffffffffffffffff1633146106e9576040517f08c379a000000000000000000000000000000000000000000000000000000000815260206004820181905260248201527f4f776e61626c653a2063616c6c6572206973206e6f7420746865206f776e65726044820152606401610433565b565b60005473ffffffffffffffffffffffffffffffffffffffff16331461076c576040517f08c379a000000000000000000000000000000000000000000000000000000000815260206004820181905260248201527f4f776e61626c653a2063616c6c6572206973206e6f7420746865206f776e65726044820152606401610433565b600d829055600e80547fffffffffffffffffffffffffffffffffffffffffffffffffffffffffffffff00168215159081179091556040805184815260208101929092527feba593b5bd3e604f0314995a4d3b960cc02497e58addcb6f2f5b03b3308500f4910160405180910390a15050565b6002600154141561084b576040517f08c379a000000000000000000000000000000000000000000000000000000000815260206004820152601f60248201527f5265656e7472616e637947756172643a207265656e7472616e742063616c6c006044820152606401610433565b6002600155600e5460ff1680156108925750600d54158061087b57503360009081526002602052604090205460ff165b806108925750600d54600114801561089257503332145b1561089f5761089f61151f565b6108cb82827fffffffffffffffffffffffffffffffffffffffffffffffffffffffffffffffff33611a16565b505060018055565b60005473ffffffffffffffffffffffffffffffffffffffff163314610954576040517f08c379a000000000000000000000000000000000000000000000000000000000815260206004820181905260248201527f4f776e61626c653a2063616c6c6572206973206e6f7420746865206f776e65726044820152606401610433565b73ffffffffffffffffffffffffffffffffffffffff821660008181526002602052604080822080547fffffffffffffffffffffffffffffffffffffffffffffffffffffffffffffff001685151590811790915590519092917f966c160e1c4dbc7df8d69af4ace01e9297c3cf016397b7914971f2fbfa32672d91a35050565b60005473ffffffffffffffffffffffffffffffffffffffff163314610a54576040517f08c379a000000000000000000000000000000000000000000000000000000000815260206004820181905260248201527f4f776e61626c653a2063616c6c6572206973206e6f7420746865206f776e65726044820152606401610433565b6106e96000611c70565b60008080610a6e60038686611ce5565b9092509050610a7d818361297c565b95945050505050565b60026001541415610af3576040517f08c379a000000000000000000000000000000000000000000000000000000000815260206004820152601f60248201527f5265656e7472616e637947756172643a207265656e7472616e742063616c6c006044820152606401610433565b60026001819055336000908152602091909152604090205460ff16610b99576040517f08c379a0000000000000000000000000000000000000000000000000000000008152602060048201526024808201527f4f70657261746f723a2063616c6c6572206973206e6f7420746865206f70657260448201527f61746f72000000000000000000000000000000000000000000000000000000006064820152608401610433565b61049c83837fffffffffffffffffffffffffffffffffffffffffffffffffffffffffffffffff8461164e565b600e5460ff168015610c075750600d541580610bf057503360009081526002602052604090205460ff165b80610c075750600d546001148015610c0757503332145b15610c1457610c1461151f565b610665817fffffffffffffffffffffffffffffffffffffffffffffffffffffffffffffffff8033611a16565b600d541580610c5e57503360009081526002602052604090205460ff165b80610c755750600d546001148015610c7557503332145b610cdb576040517f08c379a000000000000000000000000000000000000000000000000000000000815260206004820152601960248201527f436f6d706f756e64696e672069732072657374726963746564000000000000006044820152606401610433565b6106e961151f565b60026001541415610d50576040517f08c379a000000000000000000000000000000000000000000000000000000000815260206004820152601f60248201527f5265656e7472616e637947756172643a207265656e7472616e742063616c6c006044820152606401610433565b6002600155600e5460ff168015610d975750600d541580610d8057503360009081526002602052604090205460ff165b80610d975750600d546001148015610d9757503332145b15610da457610da461151f565b61049c83838333611a16565b60026001541415610e1d576040517f08c379a000000000000000000000000000000000000000000000000000000000815260206004820152601f60248201527f5265656e7472616e637947756172643a207265656e7472616e742063616c6c006044820152606401610433565b60026001819055336000908152602091909152604090205460ff16610ec3576040517f08c379a0000000000000000000000000000000000000000000000000000000008152602060048201526024808201527f4f70657261746f723a2063616c6c6572206973206e6f7420746865206f70657260448201527f61746f72000000000000000000000000000000000000000000000000000000006064820152608401610433565b610ecf84848484611a16565b5050600180555050565b60005473ffffffffffffffffffffffffffffffffffffffff163314610f5a576040517f08c379a000000000000000000000000000000000000000000000000000000000815260206004820181905260248201527f4f776e61626c653a2063616c6c6572206973206e6f7420746865206f776e65726044820152606401610433565b60026001541415610fc7576040517f08c379a000000000000000000000000000000000000000000000000000000000815260206004820152601f60248201527f5265656e7472616e637947756172643a207265656e7472616e742063616c6c006044820152606401610433565b600260015573ffffffffffffffffffffffffffffffffffffffff81166000908152600c602052604090205460ff161561105c576040517f08c379a000000000000000000000000000000000000000000000000000000000815260206004820152601160248201527f4578697374696e672073747261746567790000000000000000000000000000006044820152606401610433565b8073ffffffffffffffffffffffffffffffffffffffff1663e7a036796040518163ffffffff1660e01b815260040160206040518083038186803b1580156110a257600080fd5b505afa1580156110b6573d6000803e3d6000fd5b505050506040513d601f19601f820116820180604052508101906110da919061269b565b600b80546000908152600a60209081526040808320805473ffffffffffffffffffffffffffffffffffffffff9687167fffffffffffffffffffffffff0000000000000000000000000000000000000000918216179091558454845281842060019081018054978916979092168717909155948352600c909152902080547fffffffffffffffffffffffffffffffffffffffffffffffffffffffffffffff001690921790915554611189906105e4565b600b805490600061119983612a9c565b909155505060405173ffffffffffffffffffffffffffffffffffffffff8216907f8c82d670bc9247c2cfb6964089bc9cff0255f9caade6fbc74a13368083e5546690600090a25060018055565b60026001541415611253576040517f08c379a000000000000000000000000000000000000000000000000000000000815260206004820152601f60248201527f5265656e7472616e637947756172643a207265656e7472616e742063616c6c006044820152606401610433565b6002600155600e5460ff16801561129a5750600d54158061128357503360009081526002602052604090205460ff165b8061129a5750600d54600114801561129a57503332145b156112a7576112a761151f565b6108cb82827fffffffffffffffffffffffffffffffffffffffffffffffffffffffffffffffff3361164e565b60005473ffffffffffffffffffffffffffffffffffffffff163314611354576040517f08c379a000000000000000000000000000000000000000000000000000000000815260206004820181905260248201527f4f776e61626c653a2063616c6c6572206973206e6f7420746865206f776e65726044820152606401610433565b73ffffffffffffffffffffffffffffffffffffffff81166113f7576040517f08c379a000000000000000000000000000000000000000000000000000000000815260206004820152602660248201527f4f776e61626c653a206e6577206f776e657220697320746865207a65726f206160448201527f64647265737300000000000000000000000000000000000000000000000000006064820152608401610433565b61066581611c70565b6002600154141561146d576040517f08c379a000000000000000000000000000000000000000000000000000000000815260206004820152601f60248201527f5265656e7472616e637947756172643a207265656e7472616e742063616c6c006044820152606401610433565b60026001819055336000908152602091909152604090205460ff16611513576040517f08c379a0000000000000000000000000000000000000000000000000000000008152602060048201526024808201527f4f70657261746f723a2063616c6c6572206973206e6f7420746865206f70657260448201527f61746f72000000000000000000000000000000000000000000000000000000006064820152608401610433565b610ecf8484848461164e565b600b54600a9060005b818110156116495760008181526020849052604090819020600181015460049182015492517fe65a011700000000000000000000000000000000000000000000000000000000815273ffffffffffffffffffffffffffffffffffffffff9091169263e65a01179261159d920190815260200190565b600060405180830381600087803b1580156115b757600080fd5b505af19250505080156115c8575060015b611637573d8080156115f6576040519150601f19603f3d011682016040523d82523d6000602084013e6115fb565b606091505b507fae452807c2b0698ea0d198e28dab35283cbb33b5ffd82a4dc799e21279d0a630828260405161162d9291906128ef565b60405180910390a1505b8061164181612a9c565b915050611528565b505050565b6000848152600a6020908152604091829020600181015483517f42da4eb30000000000000000000000000000000000000000000000000000000081529351919373ffffffffffffffffffffffffffffffffffffffff909116926342da4eb392600480840193829003018186803b1580156116c757600080fd5b505afa1580156116db573d6000803e3d6000fd5b505050506040513d601f19601f820116820180604052508101906116ff9190612727565b600282015583156119be576000806117178333611d0d565b90925090506000611728828461297c565b600185015485549192506117589173ffffffffffffffffffffffffffffffffffffffff908116913391168a611d99565b600184015460028501546040517fe2bbb15800000000000000000000000000000000000000000000000000000000815260048101919091526024810189905260009173ffffffffffffffffffffffffffffffffffffffff169063e2bbb15890604401602060405180830381600087803b1580156117d457600080fd5b505af11580156117e8573d6000803e3d6000fd5b505050506040513d601f19601f8201168201806040525081019061180c9190612727565b905084600201548560010160009054906101000a900473ffffffffffffffffffffffffffffffffffffffff1673ffffffffffffffffffffffffffffffffffffffff166342da4eb36040518163ffffffff1660e01b815260040160206040518083038186803b15801561187d57600080fd5b505afa158015611891573d6000803e3d6000fd5b505050506040513d601f19601f820116820180604052508101906118b59190612727565b6118bf9190612a59565b8114611927576040517f08c379a000000000000000000000000000000000000000000000000000000000815260206004820152601360248201527f6173736572743a206465706f73697420627567000000000000000000000000006044820152606401610433565b600073ffffffffffffffffffffffffffffffffffffffff87163314801561196e57507fffffffffffffffffffffffffffffffffffffffffffffffffffffffffffffffff8814155b90507fffffffffffffffffffffffffffffffffffffffffffffffffffffffffffffffff88141561199d57600097505b6119b88a886119ac858761297c565b60039291908c86611e34565b50505050505b848273ffffffffffffffffffffffffffffffffffffffff167f90890809c654f11d6e72a28fa60149770a0d11ec6c92319d6ceb2bb0a4ea1a1586604051611a0791815260200190565b60405180910390a35050505050565b6000848152600a6020908152604091829020600181015483517f42da4eb30000000000000000000000000000000000000000000000000000000081529351919373ffffffffffffffffffffffffffffffffffffffff909116926342da4eb392600480840193829003018186803b158015611a8f57600080fd5b505afa158015611aa3573d6000803e3d6000fd5b505050506040513d601f19601f82011682018060405250810190611ac79190612727565b6002820155600080611ad98333611d0d565b90925090506000611aea828461297c565b9050861580611af7575080155b15611b1157611b0c60038933848a6001611e34565b611c2f565b80871115611b1d578096505b8615611c2f57600184015460028501546040517f441a3e70000000000000000000000000000000000000000000000000000000008152600092839273ffffffffffffffffffffffffffffffffffffffff9091169163441a3e7091611b8e918d90600401918252602082015260400190565b6040805180830381600087803b158015611ba757600080fd5b505af1158015611bbb573d6000803e3d6000fd5b505050506040513d601f19601f82011682018060405250810190611bdf91906127ac565b9092509050611c008a33611bf38587612a59565b60039291908c6001611e34565b60018601548654611c2c9173ffffffffffffffffffffffffffffffffffffffff91821691168984611d99565b50505b604051878152889033907ff279e6a1f5e320cca91135676d9cb6e44ca8a08c0b88342bcdb1144f6511b5689060200160405180910390a35050505050505050565b6000805473ffffffffffffffffffffffffffffffffffffffff8381167fffffffffffffffffffffffff0000000000000000000000000000000000000000831681178455604051919092169283917f8be0079c531659141344cd1fd0a4f28419497f9722a3daafe3b4186f6b6457e09190a35050565b600082815260078401602052604081208190611d019084611d0d565b91509150935093915050565b600080600084600301541115611d6657600384015473ffffffffffffffffffffffffffffffffffffffff841660009081526005860160205260409020546002860154611d5991906129a8565b611d639190612994565b91505b5073ffffffffffffffffffffffffffffffffffffffff909116600090815260059092016020526040909120600101549091565b6040805173ffffffffffffffffffffffffffffffffffffffff85811660248301528416604482015260648082018490528251808303909101815260849091019091526020810180517bffffffffffffffffffffffffffffffffffffffffffffffffffffffff167f23b872dd00000000000000000000000000000000000000000000000000000000179052611e2e90859061234f565b50505050565b6000858152600787016020908152604080832073ffffffffffffffffffffffffffffffffffffffff88168452600581019092529091207fffffffffffffffffffffffffffffffffffffffffffffffffffffffffffffffff841415611ea457600281015467ffffffffffffffff1693505b670de0b6b3a7640000841115611f16576040517f08c379a000000000000000000000000000000000000000000000000000000000815260206004820152600f60248201527f31653138203d206d61782f3130302500000000000000000000000000000000006044820152606401610433565b600281015468010000000000000000900467ffffffffffffffff164211611f99576040517f08c379a000000000000000000000000000000000000000000000000000000000815260206004820152601e60248201527f6f6e6520616374696f6e20706572207661756c742070657220626c6f636b00006044820152606401610433565b8215611fe9576002810180544267ffffffffffffffff90811668010000000000000000027fffffffffffffffffffffffffffffffff00000000000000000000000000000000909216908716171790555b600482015460038301546000901561204657600384015473ffffffffffffffffffffffffffffffffffffffff89166000908152600586016020526040902054600286015461203791906129a8565b6120419190612994565b612049565b60005b73ffffffffffffffffffffffffffffffffffffffff89166000908152600586016020526040812060010154919250612081828461297c565b9050868061208f5750808910155b6120f5576040517f08c379a000000000000000000000000000000000000000000000000000000000815260206004820152601d60248201527f7769746864726177616c206d75737420626520617574686f72697a65640000006044820152606401610433565b60006121018a8a6129a8565b9050600061210f828c612a59565b90508815801561211e57508481105b1561216957828b8860010154612134919061297c565b61213e9190612a59565b600188015560048801548390612155908d9061297c565b61215f9190612a59565b60048901556122a0565b8815801561217657508382105b156121fb576000612187848d612a59565b60038a0154909150156121c0578689600201546121a49190612a59565b60038a01546121b390836129a8565b6121bd9190612994565b90505b808860000160008282546121d4919061297c565b92505081905550808960030160008282546121ef919061297c565b909155506122a0915050565b600187018290556004880154849061221490849061297c565b61221e9190612a59565b60048901558481106122365760006121878683612a59565b600061226a878a6002015461224b9190612a59565b60038b015461225a858a612a59565b61226491906129a8565b9061245b565b9050808960030160008282546122809190612a59565b9091555050875481908990600090612299908490612a59565b9091555050505b6000861180156122b4575087600401548614155b1561233f57600688015460048901546122d49088906122649084906129a8565b60068a018190556122e590826129e5565b8f60000160040160008f73ffffffffffffffffffffffffffffffffffffffff1673ffffffffffffffffffffffffffffffffffffffff16815260200190815260200160002060008282546123389190612908565b9091555050505b5050505050505050505050505050565b60006123b1826040518060400160405280602081526020017f5361666545524332303a206c6f772d6c6576656c2063616c6c206661696c65648152508573ffffffffffffffffffffffffffffffffffffffff166124949092919063ffffffff16565b80519091501561164957808060200190518101906123cf91906126f1565b611649576040517f08c379a000000000000000000000000000000000000000000000000000000000815260206004820152602a60248201527f5361666545524332303a204552433230206f7065726174696f6e20646964206e60448201527f6f742073756363656564000000000000000000000000000000000000000000006064820152608401610433565b60006124678284612ad5565b15612473576001612476565b60005b60ff166124838385612994565b61248d919061297c565b9392505050565b60606124a384846000856124ab565b949350505050565b60608247101561253d576040517f08c379a000000000000000000000000000000000000000000000000000000000815260206004820152602660248201527f416464726573733a20696e73756666696369656e742062616c616e636520666f60448201527f722063616c6c00000000000000000000000000000000000000000000000000006064820152608401610433565b843b6125a5576040517f08c379a000000000000000000000000000000000000000000000000000000000815260206004820152601d60248201527f416464726573733a2063616c6c20746f206e6f6e2d636f6e74726163740000006044820152606401610433565b6000808673ffffffffffffffffffffffffffffffffffffffff1685876040516125ce91906128c0565b60006040518083038185875af1925050503d806000811461260b576040519150601f19603f3d011682016040523d82523d6000602084013e612610565b606091505b509150915061262082828661262b565b979650505050505050565b6060831561263a57508161248d565b82511561264a5782518084602001fd5b816040517f08c379a000000000000000000000000000000000000000000000000000000000815260040161043391906128dc565b60006020828403121561269057600080fd5b813561248d81612b47565b6000602082840312156126ad57600080fd5b815161248d81612b47565b600080604083850312156126cb57600080fd5b82356126d681612b47565b915060208301356126e681612b69565b809150509250929050565b60006020828403121561270357600080fd5b815161248d81612b69565b60006020828403121561272057600080fd5b5035919050565b60006020828403121561273957600080fd5b5051919050565b6000806040838503121561275357600080fd5b8235915060208301356126e681612b47565b6000806040838503121561277857600080fd5b8235915060208301356126e681612b69565b6000806040838503121561279d57600080fd5b50508035926020909101359150565b600080604083850312156127bf57600080fd5b505080516020909101519092909150565b6000806000606084860312156127e557600080fd5b833592506020840135915060408401356127fe81612b47565b809150509250925092565b60008060006060848603121561281e57600080fd5b505081359360208301359350604090920135919050565b6000806000806080858703121561284b57600080fd5b843593506020850135925060408501359150606085013561286b81612b47565b939692955090935050565b6000815180845261288e816020860160208601612a70565b601f017fffffffffffffffffffffffffffffffffffffffffffffffffffffffffffffffe0169290920160200192915050565b600082516128d2818460208701612a70565b9190910192915050565b60208152600061248d6020830184612876565b8281526040602082015260006124a36040830184612876565b6000808212827f7fffffffffffffffffffffffffffffffffffffffffffffffffffffffffffffff0384138115161561294257612942612ae9565b827f800000000000000000000000000000000000000000000000000000000000000003841281161561297657612976612ae9565b50500190565b6000821982111561298f5761298f612ae9565b500190565b6000826129a3576129a3612b18565b500490565b6000817fffffffffffffffffffffffffffffffffffffffffffffffffffffffffffffffff04831182151516156129e0576129e0612ae9565b500290565b6000808312837f800000000000000000000000000000000000000000000000000000000000000001831281151615612a1f57612a1f612ae9565b837f7fffffffffffffffffffffffffffffffffffffffffffffffffffffffffffffff018313811615612a5357612a53612ae9565b50500390565b600082821015612a6b57612a6b612ae9565b500390565b60005b83811015612a8b578181015183820152602001612a73565b83811115611e2e5750506000910152565b60007fffffffffffffffffffffffffffffffffffffffffffffffffffffffffffffffff821415612ace57612ace612ae9565b5060010190565b600082612ae457612ae4612b18565b500690565b7f4e487b7100000000000000000000000000000000000000000000000000000000600052601160045260246000fd5b7f4e487b7100000000000000000000000000000000000000000000000000000000600052601260045260246000fd5b73ffffffffffffffffffffffffffffffffffffffff8116811461066557600080fd5b801515811461066557600080fdfea26469706673582212204762301876cb0d29e3db7a65be3b4405b093838ac5964cdbf46f5b2808d4dee764736f6c63430008070033",
			"opcodes": "PUSH1 0x80 PUSH1 0x40 MSTORE PUSH1 0x1 PUSH1 0xD DUP2 SWAP1 SSTORE PUSH1 0xE DUP1 SLOAD PUSH1 0xFF NOT AND SWAP1 SWAP2 OR SWAP1 SSTORE CALLVALUE DUP1 ISZERO PUSH2 0x24 JUMPI PUSH1 0x0 DUP1 REVERT JUMPDEST POP PUSH2 0x2E CALLER PUSH2 0x37 JUMP JUMPDEST PUSH1 0x1 DUP1 SSTORE PUSH2 0x87 JUMP JUMPDEST PUSH1 0x0 DUP1 SLOAD PUSH1 0x1 PUSH1 0x1 PUSH1 0xA0 SHL SUB DUP4 DUP2 AND PUSH1 0x1 PUSH1 0x1 PUSH1 0xA0 SHL SUB NOT DUP4 AND DUP2 OR DUP5 SSTORE PUSH1 0x40 MLOAD SWAP2 SWAP1 SWAP3 AND SWAP3 DUP4 SWAP2 PUSH32 0x8BE0079C531659141344CD1FD0A4F28419497F9722A3DAAFE3B4186F6B6457E0 SWAP2 SWAP1 LOG3 POP POP JUMP JUMPDEST PUSH2 0x2BAD DUP1 PUSH3 0x97 PUSH1 0x0 CODECOPY PUSH1 0x0 RETURN INVALID PUSH1 0x80 PUSH1 0x40 MSTORE CALLVALUE DUP1 ISZERO PUSH2 0x10 JUMPI PUSH1 0x0 DUP1 REVERT JUMPDEST POP PUSH1 0x4 CALLDATASIZE LT PUSH2 0x197 JUMPI PUSH1 0x0 CALLDATALOAD PUSH1 0xE0 SHR DUP1 PUSH4 0x7B84DAEC GT PUSH2 0xE3 JUMPI DUP1 PUSH4 0xD331BEF7 GT PUSH2 0x8C JUMPI DUP1 PUSH4 0xE2FF2F47 GT PUSH2 0x66 JUMPI DUP1 PUSH4 0xE2FF2F47 EQ PUSH2 0x397 JUMPI DUP1 PUSH4 0xF2FDE38B EQ PUSH2 0x3A4 JUMPI DUP1 PUSH4 0xFAD3CC4B EQ PUSH2 0x3B7 JUMPI PUSH1 0x0 DUP1 REVERT JUMPDEST DUP1 PUSH4 0xD331BEF7 EQ PUSH2 0x35E JUMPI DUP1 PUSH4 0xD914CD4B EQ PUSH2 0x371 JUMPI DUP1 PUSH4 0xE2BBB158 EQ PUSH2 0x384 JUMPI PUSH1 0x0 DUP1 REVERT JUMPDEST DUP1 PUSH4 0x958E2D31 GT PUSH2 0xBD JUMPI DUP1 PUSH4 0x958E2D31 EQ PUSH2 0x330 JUMPI DUP1 PUSH4 0x9B05DDB3 EQ PUSH2 0x343 JUMPI DUP1 PUSH4 0xA41FE49F EQ PUSH2 0x34B JUMPI PUSH1 0x0 DUP1 REVERT JUMPDEST DUP1 PUSH4 0x7B84DAEC EQ PUSH2 0x2E2 JUMPI DUP1 PUSH4 0x8DA5CB5B EQ PUSH2 0x2F5 JUMPI DUP1 PUSH4 0x8DBDBE6D EQ PUSH2 0x31D JUMPI PUSH1 0x0 DUP1 REVERT JUMPDEST DUP1 PUSH4 0x3505B09F GT PUSH2 0x145 JUMPI DUP1 PUSH4 0x5D142D07 GT PUSH2 0x11F JUMPI DUP1 PUSH4 0x5D142D07 EQ PUSH2 0x2BE JUMPI DUP1 PUSH4 0x6D44A3B2 EQ PUSH2 0x2C7 JUMPI DUP1 PUSH4 0x715018A6 EQ PUSH2 0x2DA JUMPI PUSH1 0x0 DUP1 REVERT JUMPDEST DUP1 PUSH4 0x3505B09F EQ PUSH2 0x290 JUMPI DUP1 PUSH4 0x3D4FC8D1 EQ PUSH2 0x298 JUMPI DUP1 PUSH4 0x441A3E70 EQ PUSH2 0x2AB JUMPI PUSH1 0x0 DUP1 REVERT JUMPDEST DUP1 PUSH4 0x13E7C9D8 GT PUSH2 0x176 JUMPI DUP1 PUSH4 0x13E7C9D8 EQ PUSH2 0x1DB JUMPI DUP1 PUSH4 0x1526FE27 EQ PUSH2 0x20E JUMPI DUP1 PUSH4 0x23E1AD7D EQ PUSH2 0x27D JUMPI PUSH1 0x0 DUP1 REVERT JUMPDEST DUP1 PUSH3 0xAEEF8A EQ PUSH2 0x19C JUMPI DUP1 PUSH4 0x81E3EDA EQ PUSH2 0x1B1 JUMPI DUP1 PUSH4 0xAD58D2F EQ PUSH2 0x1C8 JUMPI JUMPDEST PUSH1 0x0 DUP1 REVERT JUMPDEST PUSH2 0x1AF PUSH2 0x1AA CALLDATASIZE PUSH1 0x4 PUSH2 0x2809 JUMP JUMPDEST PUSH2 0x3CA JUMP JUMPDEST STOP JUMPDEST PUSH1 0xB SLOAD JUMPDEST PUSH1 0x40 MLOAD SWAP1 DUP2 MSTORE PUSH1 0x20 ADD JUMPDEST PUSH1 0x40 MLOAD DUP1 SWAP2 SUB SWAP1 RETURN JUMPDEST PUSH2 0x1AF PUSH2 0x1D6 CALLDATASIZE PUSH1 0x4 PUSH2 0x27D0 JUMP JUMPDEST PUSH2 0x4A5 JUMP JUMPDEST PUSH2 0x1FE PUSH2 0x1E9 CALLDATASIZE PUSH1 0x4 PUSH2 0x267E JUMP JUMPDEST PUSH1 0x2 PUSH1 0x20 MSTORE PUSH1 0x0 SWAP1 DUP2 MSTORE PUSH1 0x40 SWAP1 KECCAK256 SLOAD PUSH1 0xFF AND DUP2 JUMP JUMPDEST PUSH1 0x40 MLOAD SWAP1 ISZERO ISZERO DUP2 MSTORE PUSH1 0x20 ADD PUSH2 0x1BF JUMP JUMPDEST PUSH2 0x250 PUSH2 0x21C CALLDATASIZE PUSH1 0x4 PUSH2 0x270E JUMP JUMPDEST PUSH1 0x0 SWAP1 DUP2 MSTORE PUSH1 0xA PUSH1 0x20 MSTORE PUSH1 0x40 SWAP1 KECCAK256 DUP1 SLOAD PUSH1 0x1 SWAP1 SWAP2 ADD SLOAD PUSH20 0xFFFFFFFFFFFFFFFFFFFFFFFFFFFFFFFFFFFFFFFF SWAP2 DUP3 AND SWAP3 SWAP2 AND SWAP1 JUMP JUMPDEST PUSH1 0x40 DUP1 MLOAD PUSH20 0xFFFFFFFFFFFFFFFFFFFFFFFFFFFFFFFFFFFFFFFF SWAP4 DUP5 AND DUP2 MSTORE SWAP3 SWAP1 SWAP2 AND PUSH1 0x20 DUP4 ADD MSTORE ADD PUSH2 0x1BF JUMP JUMPDEST PUSH2 0x1AF PUSH2 0x28B CALLDATASIZE PUSH1 0x4 PUSH2 0x270E JUMP JUMPDEST PUSH2 0x5E4 JUMP JUMPDEST PUSH2 0x1AF PUSH2 0x668 JUMP JUMPDEST PUSH2 0x1AF PUSH2 0x2A6 CALLDATASIZE PUSH1 0x4 PUSH2 0x2765 JUMP JUMPDEST PUSH2 0x6EB JUMP JUMPDEST PUSH2 0x1AF PUSH2 0x2B9 CALLDATASIZE PUSH1 0x4 PUSH2 0x278A JUMP JUMPDEST PUSH2 0x7DE JUMP JUMPDEST PUSH2 0x1B5 PUSH1 0xD SLOAD DUP2 JUMP JUMPDEST PUSH2 0x1AF PUSH2 0x2D5 CALLDATASIZE PUSH1 0x4 PUSH2 0x26B8 JUMP JUMPDEST PUSH2 0x8D3 JUMP JUMPDEST PUSH2 0x1AF PUSH2 0x9D3 JUMP JUMPDEST PUSH2 0x1B5 PUSH2 0x2F0 CALLDATASIZE PUSH1 0x4 PUSH2 0x2740 JUMP JUMPDEST PUSH2 0xA5E JUMP JUMPDEST PUSH1 0x0 SLOAD PUSH1 0x40 MLOAD PUSH20 0xFFFFFFFFFFFFFFFFFFFFFFFFFFFFFFFFFFFFFFFF SWAP1 SWAP2 AND DUP2 MSTORE PUSH1 0x20 ADD PUSH2 0x1BF JUMP JUMPDEST PUSH2 0x1AF PUSH2 0x32B CALLDATASIZE PUSH1 0x4 PUSH2 0x27D0 JUMP JUMPDEST PUSH2 0xA86 JUMP JUMPDEST PUSH2 0x1AF PUSH2 0x33E CALLDATASIZE PUSH1 0x4 PUSH2 0x270E JUMP JUMPDEST PUSH2 0xBC5 JUMP JUMPDEST PUSH2 0x1AF PUSH2 0xC40 JUMP JUMPDEST PUSH2 0x1AF PUSH2 0x359 CALLDATASIZE PUSH1 0x4 PUSH2 0x2809 JUMP JUMPDEST PUSH2 0xCE3 JUMP JUMPDEST PUSH2 0x1AF PUSH2 0x36C CALLDATASIZE PUSH1 0x4 PUSH2 0x2835 JUMP JUMPDEST PUSH2 0xDB0 JUMP JUMPDEST PUSH2 0x1AF PUSH2 0x37F CALLDATASIZE PUSH1 0x4 PUSH2 0x267E JUMP JUMPDEST PUSH2 0xED9 JUMP JUMPDEST PUSH2 0x1AF PUSH2 0x392 CALLDATASIZE PUSH1 0x4 PUSH2 0x278A JUMP JUMPDEST PUSH2 0x11E6 JUMP JUMPDEST PUSH1 0xE SLOAD PUSH2 0x1FE SWAP1 PUSH1 0xFF AND DUP2 JUMP JUMPDEST PUSH2 0x1AF PUSH2 0x3B2 CALLDATASIZE PUSH1 0x4 PUSH2 0x267E JUMP JUMPDEST PUSH2 0x12D3 JUMP JUMPDEST PUSH2 0x1AF PUSH2 0x3C5 CALLDATASIZE PUSH1 0x4 PUSH2 0x2835 JUMP JUMPDEST PUSH2 0x1400 JUMP JUMPDEST PUSH1 0x2 PUSH1 0x1 SLOAD EQ ISZERO PUSH2 0x43C JUMPI PUSH1 0x40 MLOAD PUSH32 0x8C379A000000000000000000000000000000000000000000000000000000000 DUP2 MSTORE PUSH1 0x20 PUSH1 0x4 DUP3 ADD MSTORE PUSH1 0x1F PUSH1 0x24 DUP3 ADD MSTORE PUSH32 0x5265656E7472616E637947756172643A207265656E7472616E742063616C6C00 PUSH1 0x44 DUP3 ADD MSTORE PUSH1 0x64 ADD JUMPDEST PUSH1 0x40 MLOAD DUP1 SWAP2 SUB SWAP1 REVERT JUMPDEST PUSH1 0x2 PUSH1 0x1 SSTORE PUSH1 0xE SLOAD PUSH1 0xFF AND DUP1 ISZERO PUSH2 0x483 JUMPI POP PUSH1 0xD SLOAD ISZERO DUP1 PUSH2 0x46C JUMPI POP CALLER PUSH1 0x0 SWAP1 DUP2 MSTORE PUSH1 0x2 PUSH1 0x20 MSTORE PUSH1 0x40 SWAP1 KECCAK256 SLOAD PUSH1 0xFF AND JUMPDEST DUP1 PUSH2 0x483 JUMPI POP PUSH1 0xD SLOAD PUSH1 0x1 EQ DUP1 ISZERO PUSH2 0x483 JUMPI POP CALLER ORIGIN EQ JUMPDEST ISZERO PUSH2 0x490 JUMPI PUSH2 0x490 PUSH2 0x151F JUMP JUMPDEST PUSH2 0x49C DUP4 DUP4 DUP4 CALLER PUSH2 0x164E JUMP JUMPDEST POP POP PUSH1 0x1 DUP1 SSTORE POP JUMP JUMPDEST PUSH1 0x2 PUSH1 0x1 SLOAD EQ ISZERO PUSH2 0x512 JUMPI PUSH1 0x40 MLOAD PUSH32 0x8C379A000000000000000000000000000000000000000000000000000000000 DUP2 MSTORE PUSH1 0x20 PUSH1 0x4 DUP3 ADD MSTORE PUSH1 0x1F PUSH1 0x24 DUP3 ADD MSTORE PUSH32 0x5265656E7472616E637947756172643A207265656E7472616E742063616C6C00 PUSH1 0x44 DUP3 ADD MSTORE PUSH1 0x64 ADD PUSH2 0x433 JUMP JUMPDEST PUSH1 0x2 PUSH1 0x1 DUP2 SWAP1 SSTORE CALLER PUSH1 0x0 SWAP1 DUP2 MSTORE PUSH1 0x20 SWAP2 SWAP1 SWAP2 MSTORE PUSH1 0x40 SWAP1 KECCAK256 SLOAD PUSH1 0xFF AND PUSH2 0x5B8 JUMPI PUSH1 0x40 MLOAD PUSH32 0x8C379A000000000000000000000000000000000000000000000000000000000 DUP2 MSTORE PUSH1 0x20 PUSH1 0x4 DUP3 ADD MSTORE PUSH1 0x24 DUP1 DUP3 ADD MSTORE PUSH32 0x4F70657261746F723A2063616C6C6572206973206E6F7420746865206F706572 PUSH1 0x44 DUP3 ADD MSTORE PUSH32 0x61746F7200000000000000000000000000000000000000000000000000000000 PUSH1 0x64 DUP3 ADD MSTORE PUSH1 0x84 ADD PUSH2 0x433 JUMP JUMPDEST PUSH2 0x49C DUP4 DUP4 PUSH32 0xFFFFFFFFFFFFFFFFFFFFFFFFFFFFFFFFFFFFFFFFFFFFFFFFFFFFFFFFFFFFFFFF DUP5 PUSH2 0x1A16 JUMP JUMPDEST PUSH1 0x0 SLOAD PUSH20 0xFFFFFFFFFFFFFFFFFFFFFFFFFFFFFFFFFFFFFFFF AND CALLER EQ PUSH2 0x665 JUMPI PUSH1 0x40 MLOAD PUSH32 0x8C379A000000000000000000000000000000000000000000000000000000000 DUP2 MSTORE PUSH1 0x20 PUSH1 0x4 DUP3 ADD DUP2 SWAP1 MSTORE PUSH1 0x24 DUP3 ADD MSTORE PUSH32 0x4F776E61626C653A2063616C6C6572206973206E6F7420746865206F776E6572 PUSH1 0x44 DUP3 ADD MSTORE PUSH1 0x64 ADD PUSH2 0x433 JUMP JUMPDEST POP JUMP JUMPDEST PUSH1 0x0 SLOAD PUSH20 0xFFFFFFFFFFFFFFFFFFFFFFFFFFFFFFFFFFFFFFFF AND CALLER EQ PUSH2 0x6E9 JUMPI PUSH1 0x40 MLOAD PUSH32 0x8C379A000000000000000000000000000000000000000000000000000000000 DUP2 MSTORE PUSH1 0x20 PUSH1 0x4 DUP3 ADD DUP2 SWAP1 MSTORE PUSH1 0x24 DUP3 ADD MSTORE PUSH32 0x4F776E61626C653A2063616C6C6572206973206E6F7420746865206F776E6572 PUSH1 0x44 DUP3 ADD MSTORE PUSH1 0x64 ADD PUSH2 0x433 JUMP JUMPDEST JUMP JUMPDEST PUSH1 0x0 SLOAD PUSH20 0xFFFFFFFFFFFFFFFFFFFFFFFFFFFFFFFFFFFFFFFF AND CALLER EQ PUSH2 0x76C JUMPI PUSH1 0x40 MLOAD PUSH32 0x8C379A000000000000000000000000000000000000000000000000000000000 DUP2 MSTORE PUSH1 0x20 PUSH1 0x4 DUP3 ADD DUP2 SWAP1 MSTORE PUSH1 0x24 DUP3 ADD MSTORE PUSH32 0x4F776E61626C653A2063616C6C6572206973206E6F7420746865206F776E6572 PUSH1 0x44 DUP3 ADD MSTORE PUSH1 0x64 ADD PUSH2 0x433 JUMP JUMPDEST PUSH1 0xD DUP3 SWAP1 SSTORE PUSH1 0xE DUP1 SLOAD PUSH32 0xFFFFFFFFFFFFFFFFFFFFFFFFFFFFFFFFFFFFFFFFFFFFFFFFFFFFFFFFFFFFFF00 AND DUP3 ISZERO ISZERO SWAP1 DUP2 OR SWAP1 SWAP2 SSTORE PUSH1 0x40 DUP1 MLOAD DUP5 DUP2 MSTORE PUSH1 0x20 DUP2 ADD SWAP3 SWAP1 SWAP3 MSTORE PUSH32 0xEBA593B5BD3E604F0314995A4D3B960CC02497E58ADDCB6F2F5B03B3308500F4 SWAP2 ADD PUSH1 0x40 MLOAD DUP1 SWAP2 SUB SWAP1 LOG1 POP POP JUMP JUMPDEST PUSH1 0x2 PUSH1 0x1 SLOAD EQ ISZERO PUSH2 0x84B JUMPI PUSH1 0x40 MLOAD PUSH32 0x8C379A000000000000000000000000000000000000000000000000000000000 DUP2 MSTORE PUSH1 0x20 PUSH1 0x4 DUP3 ADD MSTORE PUSH1 0x1F PUSH1 0x24 DUP3 ADD MSTORE PUSH32 0x5265656E7472616E637947756172643A207265656E7472616E742063616C6C00 PUSH1 0x44 DUP3 ADD MSTORE PUSH1 0x64 ADD PUSH2 0x433 JUMP JUMPDEST PUSH1 0x2 PUSH1 0x1 SSTORE PUSH1 0xE SLOAD PUSH1 0xFF AND DUP1 ISZERO PUSH2 0x892 JUMPI POP PUSH1 0xD SLOAD ISZERO DUP1 PUSH2 0x87B JUMPI POP CALLER PUSH1 0x0 SWAP1 DUP2 MSTORE PUSH1 0x2 PUSH1 0x20 MSTORE PUSH1 0x40 SWAP1 KECCAK256 SLOAD PUSH1 0xFF AND JUMPDEST DUP1 PUSH2 0x892 JUMPI POP PUSH1 0xD SLOAD PUSH1 0x1 EQ DUP1 ISZERO PUSH2 0x892 JUMPI POP CALLER ORIGIN EQ JUMPDEST ISZERO PUSH2 0x89F JUMPI PUSH2 0x89F PUSH2 0x151F JUMP JUMPDEST PUSH2 0x8CB DUP3 DUP3 PUSH32 0xFFFFFFFFFFFFFFFFFFFFFFFFFFFFFFFFFFFFFFFFFFFFFFFFFFFFFFFFFFFFFFFF CALLER PUSH2 0x1A16 JUMP JUMPDEST POP POP PUSH1 0x1 DUP1 SSTORE JUMP JUMPDEST PUSH1 0x0 SLOAD PUSH20 0xFFFFFFFFFFFFFFFFFFFFFFFFFFFFFFFFFFFFFFFF AND CALLER EQ PUSH2 0x954 JUMPI PUSH1 0x40 MLOAD PUSH32 0x8C379A000000000000000000000000000000000000000000000000000000000 DUP2 MSTORE PUSH1 0x20 PUSH1 0x4 DUP3 ADD DUP2 SWAP1 MSTORE PUSH1 0x24 DUP3 ADD MSTORE PUSH32 0x4F776E61626C653A2063616C6C6572206973206E6F7420746865206F776E6572 PUSH1 0x44 DUP3 ADD MSTORE PUSH1 0x64 ADD PUSH2 0x433 JUMP JUMPDEST PUSH20 0xFFFFFFFFFFFFFFFFFFFFFFFFFFFFFFFFFFFFFFFF DUP3 AND PUSH1 0x0 DUP2 DUP2 MSTORE PUSH1 0x2 PUSH1 0x20 MSTORE PUSH1 0x40 DUP1 DUP3 KECCAK256 DUP1 SLOAD PUSH32 0xFFFFFFFFFFFFFFFFFFFFFFFFFFFFFFFFFFFFFFFFFFFFFFFFFFFFFFFFFFFFFF00 AND DUP6 ISZERO ISZERO SWAP1 DUP2 OR SWAP1 SWAP2 SSTORE SWAP1 MLOAD SWAP1 SWAP3 SWAP2 PUSH32 0x966C160E1C4DBC7DF8D69AF4ACE01E9297C3CF016397B7914971F2FBFA32672D SWAP2 LOG3 POP POP JUMP JUMPDEST PUSH1 0x0 SLOAD PUSH20 0xFFFFFFFFFFFFFFFFFFFFFFFFFFFFFFFFFFFFFFFF AND CALLER EQ PUSH2 0xA54 JUMPI PUSH1 0x40 MLOAD PUSH32 0x8C379A000000000000000000000000000000000000000000000000000000000 DUP2 MSTORE PUSH1 0x20 PUSH1 0x4 DUP3 ADD DUP2 SWAP1 MSTORE PUSH1 0x24 DUP3 ADD MSTORE PUSH32 0x4F776E61626C653A2063616C6C6572206973206E6F7420746865206F776E6572 PUSH1 0x44 DUP3 ADD MSTORE PUSH1 0x64 ADD PUSH2 0x433 JUMP JUMPDEST PUSH2 0x6E9 PUSH1 0x0 PUSH2 0x1C70 JUMP JUMPDEST PUSH1 0x0 DUP1 DUP1 PUSH2 0xA6E PUSH1 0x3 DUP7 DUP7 PUSH2 0x1CE5 JUMP JUMPDEST SWAP1 SWAP3 POP SWAP1 POP PUSH2 0xA7D DUP2 DUP4 PUSH2 0x297C JUMP JUMPDEST SWAP6 SWAP5 POP POP POP POP POP JUMP JUMPDEST PUSH1 0x2 PUSH1 0x1 SLOAD EQ ISZERO PUSH2 0xAF3 JUMPI PUSH1 0x40 MLOAD PUSH32 0x8C379A000000000000000000000000000000000000000000000000000000000 DUP2 MSTORE PUSH1 0x20 PUSH1 0x4 DUP3 ADD MSTORE PUSH1 0x1F PUSH1 0x24 DUP3 ADD MSTORE PUSH32 0x5265656E7472616E637947756172643A207265656E7472616E742063616C6C00 PUSH1 0x44 DUP3 ADD MSTORE PUSH1 0x64 ADD PUSH2 0x433 JUMP JUMPDEST PUSH1 0x2 PUSH1 0x1 DUP2 SWAP1 SSTORE CALLER PUSH1 0x0 SWAP1 DUP2 MSTORE PUSH1 0x20 SWAP2 SWAP1 SWAP2 MSTORE PUSH1 0x40 SWAP1 KECCAK256 SLOAD PUSH1 0xFF AND PUSH2 0xB99 JUMPI PUSH1 0x40 MLOAD PUSH32 0x8C379A000000000000000000000000000000000000000000000000000000000 DUP2 MSTORE PUSH1 0x20 PUSH1 0x4 DUP3 ADD MSTORE PUSH1 0x24 DUP1 DUP3 ADD MSTORE PUSH32 0x4F70657261746F723A2063616C6C6572206973206E6F7420746865206F706572 PUSH1 0x44 DUP3 ADD MSTORE PUSH32 0x61746F7200000000000000000000000000000000000000000000000000000000 PUSH1 0x64 DUP3 ADD MSTORE PUSH1 0x84 ADD PUSH2 0x433 JUMP JUMPDEST PUSH2 0x49C DUP4 DUP4 PUSH32 0xFFFFFFFFFFFFFFFFFFFFFFFFFFFFFFFFFFFFFFFFFFFFFFFFFFFFFFFFFFFFFFFF DUP5 PUSH2 0x164E JUMP JUMPDEST PUSH1 0xE SLOAD PUSH1 0xFF AND DUP1 ISZERO PUSH2 0xC07 JUMPI POP PUSH1 0xD SLOAD ISZERO DUP1 PUSH2 0xBF0 JUMPI POP CALLER PUSH1 0x0 SWAP1 DUP2 MSTORE PUSH1 0x2 PUSH1 0x20 MSTORE PUSH1 0x40 SWAP1 KECCAK256 SLOAD PUSH1 0xFF AND JUMPDEST DUP1 PUSH2 0xC07 JUMPI POP PUSH1 0xD SLOAD PUSH1 0x1 EQ DUP1 ISZERO PUSH2 0xC07 JUMPI POP CALLER ORIGIN EQ JUMPDEST ISZERO PUSH2 0xC14 JUMPI PUSH2 0xC14 PUSH2 0x151F JUMP JUMPDEST PUSH2 0x665 DUP2 PUSH32 0xFFFFFFFFFFFFFFFFFFFFFFFFFFFFFFFFFFFFFFFFFFFFFFFFFFFFFFFFFFFFFFFF DUP1 CALLER PUSH2 0x1A16 JUMP JUMPDEST PUSH1 0xD SLOAD ISZERO DUP1 PUSH2 0xC5E JUMPI POP CALLER PUSH1 0x0 SWAP1 DUP2 MSTORE PUSH1 0x2 PUSH1 0x20 MSTORE PUSH1 0x40 SWAP1 KECCAK256 SLOAD PUSH1 0xFF AND JUMPDEST DUP1 PUSH2 0xC75 JUMPI POP PUSH1 0xD SLOAD PUSH1 0x1 EQ DUP1 ISZERO PUSH2 0xC75 JUMPI POP CALLER ORIGIN EQ JUMPDEST PUSH2 0xCDB JUMPI PUSH1 0x40 MLOAD PUSH32 0x8C379A000000000000000000000000000000000000000000000000000000000 DUP2 MSTORE PUSH1 0x20 PUSH1 0x4 DUP3 ADD MSTORE PUSH1 0x19 PUSH1 0x24 DUP3 ADD MSTORE PUSH32 0x436F6D706F756E64696E67206973207265737472696374656400000000000000 PUSH1 0x44 DUP3 ADD MSTORE PUSH1 0x64 ADD PUSH2 0x433 JUMP JUMPDEST PUSH2 0x6E9 PUSH2 0x151F JUMP JUMPDEST PUSH1 0x2 PUSH1 0x1 SLOAD EQ ISZERO PUSH2 0xD50 JUMPI PUSH1 0x40 MLOAD PUSH32 0x8C379A000000000000000000000000000000000000000000000000000000000 DUP2 MSTORE PUSH1 0x20 PUSH1 0x4 DUP3 ADD MSTORE PUSH1 0x1F PUSH1 0x24 DUP3 ADD MSTORE PUSH32 0x5265656E7472616E637947756172643A207265656E7472616E742063616C6C00 PUSH1 0x44 DUP3 ADD MSTORE PUSH1 0x64 ADD PUSH2 0x433 JUMP JUMPDEST PUSH1 0x2 PUSH1 0x1 SSTORE PUSH1 0xE SLOAD PUSH1 0xFF AND DUP1 ISZERO PUSH2 0xD97 JUMPI POP PUSH1 0xD SLOAD ISZERO DUP1 PUSH2 0xD80 JUMPI POP CALLER PUSH1 0x0 SWAP1 DUP2 MSTORE PUSH1 0x2 PUSH1 0x20 MSTORE PUSH1 0x40 SWAP1 KECCAK256 SLOAD PUSH1 0xFF AND JUMPDEST DUP1 PUSH2 0xD97 JUMPI POP PUSH1 0xD SLOAD PUSH1 0x1 EQ DUP1 ISZERO PUSH2 0xD97 JUMPI POP CALLER ORIGIN EQ JUMPDEST ISZERO PUSH2 0xDA4 JUMPI PUSH2 0xDA4 PUSH2 0x151F JUMP JUMPDEST PUSH2 0x49C DUP4 DUP4 DUP4 CALLER PUSH2 0x1A16 JUMP JUMPDEST PUSH1 0x2 PUSH1 0x1 SLOAD EQ ISZERO PUSH2 0xE1D JUMPI PUSH1 0x40 MLOAD PUSH32 0x8C379A000000000000000000000000000000000000000000000000000000000 DUP2 MSTORE PUSH1 0x20 PUSH1 0x4 DUP3 ADD MSTORE PUSH1 0x1F PUSH1 0x24 DUP3 ADD MSTORE PUSH32 0x5265656E7472616E637947756172643A207265656E7472616E742063616C6C00 PUSH1 0x44 DUP3 ADD MSTORE PUSH1 0x64 ADD PUSH2 0x433 JUMP JUMPDEST PUSH1 0x2 PUSH1 0x1 DUP2 SWAP1 SSTORE CALLER PUSH1 0x0 SWAP1 DUP2 MSTORE PUSH1 0x20 SWAP2 SWAP1 SWAP2 MSTORE PUSH1 0x40 SWAP1 KECCAK256 SLOAD PUSH1 0xFF AND PUSH2 0xEC3 JUMPI PUSH1 0x40 MLOAD PUSH32 0x8C379A000000000000000000000000000000000000000000000000000000000 DUP2 MSTORE PUSH1 0x20 PUSH1 0x4 DUP3 ADD MSTORE PUSH1 0x24 DUP1 DUP3 ADD MSTORE PUSH32 0x4F70657261746F723A2063616C6C6572206973206E6F7420746865206F706572 PUSH1 0x44 DUP3 ADD MSTORE PUSH32 0x61746F7200000000000000000000000000000000000000000000000000000000 PUSH1 0x64 DUP3 ADD MSTORE PUSH1 0x84 ADD PUSH2 0x433 JUMP JUMPDEST PUSH2 0xECF DUP5 DUP5 DUP5 DUP5 PUSH2 0x1A16 JUMP JUMPDEST POP POP PUSH1 0x1 DUP1 SSTORE POP POP JUMP JUMPDEST PUSH1 0x0 SLOAD PUSH20 0xFFFFFFFFFFFFFFFFFFFFFFFFFFFFFFFFFFFFFFFF AND CALLER EQ PUSH2 0xF5A JUMPI PUSH1 0x40 MLOAD PUSH32 0x8C379A000000000000000000000000000000000000000000000000000000000 DUP2 MSTORE PUSH1 0x20 PUSH1 0x4 DUP3 ADD DUP2 SWAP1 MSTORE PUSH1 0x24 DUP3 ADD MSTORE PUSH32 0x4F776E61626C653A2063616C6C6572206973206E6F7420746865206F776E6572 PUSH1 0x44 DUP3 ADD MSTORE PUSH1 0x64 ADD PUSH2 0x433 JUMP JUMPDEST PUSH1 0x2 PUSH1 0x1 SLOAD EQ ISZERO PUSH2 0xFC7 JUMPI PUSH1 0x40 MLOAD PUSH32 0x8C379A000000000000000000000000000000000000000000000000000000000 DUP2 MSTORE PUSH1 0x20 PUSH1 0x4 DUP3 ADD MSTORE PUSH1 0x1F PUSH1 0x24 DUP3 ADD MSTORE PUSH32 0x5265656E7472616E637947756172643A207265656E7472616E742063616C6C00 PUSH1 0x44 DUP3 ADD MSTORE PUSH1 0x64 ADD PUSH2 0x433 JUMP JUMPDEST PUSH1 0x2 PUSH1 0x1 SSTORE PUSH20 0xFFFFFFFFFFFFFFFFFFFFFFFFFFFFFFFFFFFFFFFF DUP2 AND PUSH1 0x0 SWAP1 DUP2 MSTORE PUSH1 0xC PUSH1 0x20 MSTORE PUSH1 0x40 SWAP1 KECCAK256 SLOAD PUSH1 0xFF AND ISZERO PUSH2 0x105C JUMPI PUSH1 0x40 MLOAD PUSH32 0x8C379A000000000000000000000000000000000000000000000000000000000 DUP2 MSTORE PUSH1 0x20 PUSH1 0x4 DUP3 ADD MSTORE PUSH1 0x11 PUSH1 0x24 DUP3 ADD MSTORE PUSH32 0x4578697374696E67207374726174656779000000000000000000000000000000 PUSH1 0x44 DUP3 ADD MSTORE PUSH1 0x64 ADD PUSH2 0x433 JUMP JUMPDEST DUP1 PUSH20 0xFFFFFFFFFFFFFFFFFFFFFFFFFFFFFFFFFFFFFFFF AND PUSH4 0xE7A03679 PUSH1 0x40 MLOAD DUP2 PUSH4 0xFFFFFFFF AND PUSH1 0xE0 SHL DUP2 MSTORE PUSH1 0x4 ADD PUSH1 0x20 PUSH1 0x40 MLOAD DUP1 DUP4 SUB DUP2 DUP7 DUP1 EXTCODESIZE ISZERO DUP1 ISZERO PUSH2 0x10A2 JUMPI PUSH1 0x0 DUP1 REVERT JUMPDEST POP GAS STATICCALL ISZERO DUP1 ISZERO PUSH2 0x10B6 JUMPI RETURNDATASIZE PUSH1 0x0 DUP1 RETURNDATACOPY RETURNDATASIZE PUSH1 0x0 REVERT JUMPDEST POP POP POP POP PUSH1 0x40 MLOAD RETURNDATASIZE PUSH1 0x1F NOT PUSH1 0x1F DUP3 ADD AND DUP3 ADD DUP1 PUSH1 0x40 MSTORE POP DUP2 ADD SWAP1 PUSH2 0x10DA SWAP2 SWAP1 PUSH2 0x269B JUMP JUMPDEST PUSH1 0xB DUP1 SLOAD PUSH1 0x0 SWAP1 DUP2 MSTORE PUSH1 0xA PUSH1 0x20 SWAP1 DUP2 MSTORE PUSH1 0x40 DUP1 DUP4 KECCAK256 DUP1 SLOAD PUSH20 0xFFFFFFFFFFFFFFFFFFFFFFFFFFFFFFFFFFFFFFFF SWAP7 DUP8 AND PUSH32 0xFFFFFFFFFFFFFFFFFFFFFFFF0000000000000000000000000000000000000000 SWAP2 DUP3 AND OR SWAP1 SWAP2 SSTORE DUP5 SLOAD DUP5 MSTORE DUP2 DUP5 KECCAK256 PUSH1 0x1 SWAP1 DUP2 ADD DUP1 SLOAD SWAP8 DUP10 AND SWAP8 SWAP1 SWAP3 AND DUP8 OR SWAP1 SWAP2 SSTORE SWAP5 DUP4 MSTORE PUSH1 0xC SWAP1 SWAP2 MSTORE SWAP1 KECCAK256 DUP1 SLOAD PUSH32 0xFFFFFFFFFFFFFFFFFFFFFFFFFFFFFFFFFFFFFFFFFFFFFFFFFFFFFFFFFFFFFF00 AND SWAP1 SWAP3 OR SWAP1 SWAP2 SSTORE SLOAD PUSH2 0x1189 SWAP1 PUSH2 0x5E4 JUMP JUMPDEST PUSH1 0xB DUP1 SLOAD SWAP1 PUSH1 0x0 PUSH2 0x1199 DUP4 PUSH2 0x2A9C JUMP JUMPDEST SWAP1 SWAP2 SSTORE POP POP PUSH1 0x40 MLOAD PUSH20 0xFFFFFFFFFFFFFFFFFFFFFFFFFFFFFFFFFFFFFFFF DUP3 AND SWAP1 PUSH32 0x8C82D670BC9247C2CFB6964089BC9CFF0255F9CAADE6FBC74A13368083E55466 SWAP1 PUSH1 0x0 SWAP1 LOG2 POP PUSH1 0x1 DUP1 SSTORE JUMP JUMPDEST PUSH1 0x2 PUSH1 0x1 SLOAD EQ ISZERO PUSH2 0x1253 JUMPI PUSH1 0x40 MLOAD PUSH32 0x8C379A000000000000000000000000000000000000000000000000000000000 DUP2 MSTORE PUSH1 0x20 PUSH1 0x4 DUP3 ADD MSTORE PUSH1 0x1F PUSH1 0x24 DUP3 ADD MSTORE PUSH32 0x5265656E7472616E637947756172643A207265656E7472616E742063616C6C00 PUSH1 0x44 DUP3 ADD MSTORE PUSH1 0x64 ADD PUSH2 0x433 JUMP JUMPDEST PUSH1 0x2 PUSH1 0x1 SSTORE PUSH1 0xE SLOAD PUSH1 0xFF AND DUP1 ISZERO PUSH2 0x129A JUMPI POP PUSH1 0xD SLOAD ISZERO DUP1 PUSH2 0x1283 JUMPI POP CALLER PUSH1 0x0 SWAP1 DUP2 MSTORE PUSH1 0x2 PUSH1 0x20 MSTORE PUSH1 0x40 SWAP1 KECCAK256 SLOAD PUSH1 0xFF AND JUMPDEST DUP1 PUSH2 0x129A JUMPI POP PUSH1 0xD SLOAD PUSH1 0x1 EQ DUP1 ISZERO PUSH2 0x129A JUMPI POP CALLER ORIGIN EQ JUMPDEST ISZERO PUSH2 0x12A7 JUMPI PUSH2 0x12A7 PUSH2 0x151F JUMP JUMPDEST PUSH2 0x8CB DUP3 DUP3 PUSH32 0xFFFFFFFFFFFFFFFFFFFFFFFFFFFFFFFFFFFFFFFFFFFFFFFFFFFFFFFFFFFFFFFF CALLER PUSH2 0x164E JUMP JUMPDEST PUSH1 0x0 SLOAD PUSH20 0xFFFFFFFFFFFFFFFFFFFFFFFFFFFFFFFFFFFFFFFF AND CALLER EQ PUSH2 0x1354 JUMPI PUSH1 0x40 MLOAD PUSH32 0x8C379A000000000000000000000000000000000000000000000000000000000 DUP2 MSTORE PUSH1 0x20 PUSH1 0x4 DUP3 ADD DUP2 SWAP1 MSTORE PUSH1 0x24 DUP3 ADD MSTORE PUSH32 0x4F776E61626C653A2063616C6C6572206973206E6F7420746865206F776E6572 PUSH1 0x44 DUP3 ADD MSTORE PUSH1 0x64 ADD PUSH2 0x433 JUMP JUMPDEST PUSH20 0xFFFFFFFFFFFFFFFFFFFFFFFFFFFFFFFFFFFFFFFF DUP2 AND PUSH2 0x13F7 JUMPI PUSH1 0x40 MLOAD PUSH32 0x8C379A000000000000000000000000000000000000000000000000000000000 DUP2 MSTORE PUSH1 0x20 PUSH1 0x4 DUP3 ADD MSTORE PUSH1 0x26 PUSH1 0x24 DUP3 ADD MSTORE PUSH32 0x4F776E61626C653A206E6577206F776E657220697320746865207A65726F2061 PUSH1 0x44 DUP3 ADD MSTORE PUSH32 0x6464726573730000000000000000000000000000000000000000000000000000 PUSH1 0x64 DUP3 ADD MSTORE PUSH1 0x84 ADD PUSH2 0x433 JUMP JUMPDEST PUSH2 0x665 DUP2 PUSH2 0x1C70 JUMP JUMPDEST PUSH1 0x2 PUSH1 0x1 SLOAD EQ ISZERO PUSH2 0x146D JUMPI PUSH1 0x40 MLOAD PUSH32 0x8C379A000000000000000000000000000000000000000000000000000000000 DUP2 MSTORE PUSH1 0x20 PUSH1 0x4 DUP3 ADD MSTORE PUSH1 0x1F PUSH1 0x24 DUP3 ADD MSTORE PUSH32 0x5265656E7472616E637947756172643A207265656E7472616E742063616C6C00 PUSH1 0x44 DUP3 ADD MSTORE PUSH1 0x64 ADD PUSH2 0x433 JUMP JUMPDEST PUSH1 0x2 PUSH1 0x1 DUP2 SWAP1 SSTORE CALLER PUSH1 0x0 SWAP1 DUP2 MSTORE PUSH1 0x20 SWAP2 SWAP1 SWAP2 MSTORE PUSH1 0x40 SWAP1 KECCAK256 SLOAD PUSH1 0xFF AND PUSH2 0x1513 JUMPI PUSH1 0x40 MLOAD PUSH32 0x8C379A000000000000000000000000000000000000000000000000000000000 DUP2 MSTORE PUSH1 0x20 PUSH1 0x4 DUP3 ADD MSTORE PUSH1 0x24 DUP1 DUP3 ADD MSTORE PUSH32 0x4F70657261746F723A2063616C6C6572206973206E6F7420746865206F706572 PUSH1 0x44 DUP3 ADD MSTORE PUSH32 0x61746F7200000000000000000000000000000000000000000000000000000000 PUSH1 0x64 DUP3 ADD MSTORE PUSH1 0x84 ADD PUSH2 0x433 JUMP JUMPDEST PUSH2 0xECF DUP5 DUP5 DUP5 DUP5 PUSH2 0x164E JUMP JUMPDEST PUSH1 0xB SLOAD PUSH1 0xA SWAP1 PUSH1 0x0 JUMPDEST DUP2 DUP2 LT ISZERO PUSH2 0x1649 JUMPI PUSH1 0x0 DUP2 DUP2 MSTORE PUSH1 0x20 DUP5 SWAP1 MSTORE PUSH1 0x40 SWAP1 DUP2 SWAP1 KECCAK256 PUSH1 0x1 DUP2 ADD SLOAD PUSH1 0x4 SWAP2 DUP3 ADD SLOAD SWAP3 MLOAD PUSH32 0xE65A011700000000000000000000000000000000000000000000000000000000 DUP2 MSTORE PUSH20 0xFFFFFFFFFFFFFFFFFFFFFFFFFFFFFFFFFFFFFFFF SWAP1 SWAP2 AND SWAP3 PUSH4 0xE65A0117 SWAP3 PUSH2 0x159D SWAP3 ADD SWAP1 DUP2 MSTORE PUSH1 0x20 ADD SWAP1 JUMP JUMPDEST PUSH1 0x0 PUSH1 0x40 MLOAD DUP1 DUP4 SUB DUP2 PUSH1 0x0 DUP8 DUP1 EXTCODESIZE ISZERO DUP1 ISZERO PUSH2 0x15B7 JUMPI PUSH1 0x0 DUP1 REVERT JUMPDEST POP GAS CALL SWAP3 POP POP POP DUP1 ISZERO PUSH2 0x15C8 JUMPI POP PUSH1 0x1 JUMPDEST PUSH2 0x1637 JUMPI RETURNDATASIZE DUP1 DUP1 ISZERO PUSH2 0x15F6 JUMPI PUSH1 0x40 MLOAD SWAP2 POP PUSH1 0x1F NOT PUSH1 0x3F RETURNDATASIZE ADD AND DUP3 ADD PUSH1 0x40 MSTORE RETURNDATASIZE DUP3 MSTORE RETURNDATASIZE PUSH1 0x0 PUSH1 0x20 DUP5 ADD RETURNDATACOPY PUSH2 0x15FB JUMP JUMPDEST PUSH1 0x60 SWAP2 POP JUMPDEST POP PUSH32 0xAE452807C2B0698EA0D198E28DAB35283CBB33B5FFD82A4DC799E21279D0A630 DUP3 DUP3 PUSH1 0x40 MLOAD PUSH2 0x162D SWAP3 SWAP2 SWAP1 PUSH2 0x28EF JUMP JUMPDEST PUSH1 0x40 MLOAD DUP1 SWAP2 SUB SWAP1 LOG1 POP JUMPDEST DUP1 PUSH2 0x1641 DUP2 PUSH2 0x2A9C JUMP JUMPDEST SWAP2 POP POP PUSH2 0x1528 JUMP JUMPDEST POP POP POP JUMP JUMPDEST PUSH1 0x0 DUP5 DUP2 MSTORE PUSH1 0xA PUSH1 0x20 SWAP1 DUP2 MSTORE PUSH1 0x40 SWAP2 DUP3 SWAP1 KECCAK256 PUSH1 0x1 DUP2 ADD SLOAD DUP4 MLOAD PUSH32 0x42DA4EB300000000000000000000000000000000000000000000000000000000 DUP2 MSTORE SWAP4 MLOAD SWAP2 SWAP4 PUSH20 0xFFFFFFFFFFFFFFFFFFFFFFFFFFFFFFFFFFFFFFFF SWAP1 SWAP2 AND SWAP3 PUSH4 0x42DA4EB3 SWAP3 PUSH1 0x4 DUP1 DUP5 ADD SWAP4 DUP3 SWAP1 SUB ADD DUP2 DUP7 DUP1 EXTCODESIZE ISZERO DUP1 ISZERO PUSH2 0x16C7 JUMPI PUSH1 0x0 DUP1 REVERT JUMPDEST POP GAS STATICCALL ISZERO DUP1 ISZERO PUSH2 0x16DB JUMPI RETURNDATASIZE PUSH1 0x0 DUP1 RETURNDATACOPY RETURNDATASIZE PUSH1 0x0 REVERT JUMPDEST POP POP POP POP PUSH1 0x40 MLOAD RETURNDATASIZE PUSH1 0x1F NOT PUSH1 0x1F DUP3 ADD AND DUP3 ADD DUP1 PUSH1 0x40 MSTORE POP DUP2 ADD SWAP1 PUSH2 0x16FF SWAP2 SWAP1 PUSH2 0x2727 JUMP JUMPDEST PUSH1 0x2 DUP3 ADD SSTORE DUP4 ISZERO PUSH2 0x19BE JUMPI PUSH1 0x0 DUP1 PUSH2 0x1717 DUP4 CALLER PUSH2 0x1D0D JUMP JUMPDEST SWAP1 SWAP3 POP SWAP1 POP PUSH1 0x0 PUSH2 0x1728 DUP3 DUP5 PUSH2 0x297C JUMP JUMPDEST PUSH1 0x1 DUP6 ADD SLOAD DUP6 SLOAD SWAP2 SWAP3 POP PUSH2 0x1758 SWAP2 PUSH20 0xFFFFFFFFFFFFFFFFFFFFFFFFFFFFFFFFFFFFFFFF SWAP1 DUP2 AND SWAP2 CALLER SWAP2 AND DUP11 PUSH2 0x1D99 JUMP JUMPDEST PUSH1 0x1 DUP5 ADD SLOAD PUSH1 0x2 DUP6 ADD SLOAD PUSH1 0x40 MLOAD PUSH32 0xE2BBB15800000000000000000000000000000000000000000000000000000000 DUP2 MSTORE PUSH1 0x4 DUP2 ADD SWAP2 SWAP1 SWAP2 MSTORE PUSH1 0x24 DUP2 ADD DUP10 SWAP1 MSTORE PUSH1 0x0 SWAP2 PUSH20 0xFFFFFFFFFFFFFFFFFFFFFFFFFFFFFFFFFFFFFFFF AND SWAP1 PUSH4 0xE2BBB158 SWAP1 PUSH1 0x44 ADD PUSH1 0x20 PUSH1 0x40 MLOAD DUP1 DUP4 SUB DUP2 PUSH1 0x0 DUP8 DUP1 EXTCODESIZE ISZERO DUP1 ISZERO PUSH2 0x17D4 JUMPI PUSH1 0x0 DUP1 REVERT JUMPDEST POP GAS CALL ISZERO DUP1 ISZERO PUSH2 0x17E8 JUMPI RETURNDATASIZE PUSH1 0x0 DUP1 RETURNDATACOPY RETURNDATASIZE PUSH1 0x0 REVERT JUMPDEST POP POP POP POP PUSH1 0x40 MLOAD RETURNDATASIZE PUSH1 0x1F NOT PUSH1 0x1F DUP3 ADD AND DUP3 ADD DUP1 PUSH1 0x40 MSTORE POP DUP2 ADD SWAP1 PUSH2 0x180C SWAP2 SWAP1 PUSH2 0x2727 JUMP JUMPDEST SWAP1 POP DUP5 PUSH1 0x2 ADD SLOAD DUP6 PUSH1 0x1 ADD PUSH1 0x0 SWAP1 SLOAD SWAP1 PUSH2 0x100 EXP SWAP1 DIV PUSH20 0xFFFFFFFFFFFFFFFFFFFFFFFFFFFFFFFFFFFFFFFF AND PUSH20 0xFFFFFFFFFFFFFFFFFFFFFFFFFFFFFFFFFFFFFFFF AND PUSH4 0x42DA4EB3 PUSH1 0x40 MLOAD DUP2 PUSH4 0xFFFFFFFF AND PUSH1 0xE0 SHL DUP2 MSTORE PUSH1 0x4 ADD PUSH1 0x20 PUSH1 0x40 MLOAD DUP1 DUP4 SUB DUP2 DUP7 DUP1 EXTCODESIZE ISZERO DUP1 ISZERO PUSH2 0x187D JUMPI PUSH1 0x0 DUP1 REVERT JUMPDEST POP GAS STATICCALL ISZERO DUP1 ISZERO PUSH2 0x1891 JUMPI RETURNDATASIZE PUSH1 0x0 DUP1 RETURNDATACOPY RETURNDATASIZE PUSH1 0x0 REVERT JUMPDEST POP POP POP POP PUSH1 0x40 MLOAD RETURNDATASIZE PUSH1 0x1F NOT PUSH1 0x1F DUP3 ADD AND DUP3 ADD DUP1 PUSH1 0x40 MSTORE POP DUP2 ADD SWAP1 PUSH2 0x18B5 SWAP2 SWAP1 PUSH2 0x2727 JUMP JUMPDEST PUSH2 0x18BF SWAP2 SWAP1 PUSH2 0x2A59 JUMP JUMPDEST DUP2 EQ PUSH2 0x1927 JUMPI PUSH1 0x40 MLOAD PUSH32 0x8C379A000000000000000000000000000000000000000000000000000000000 DUP2 MSTORE PUSH1 0x20 PUSH1 0x4 DUP3 ADD MSTORE PUSH1 0x13 PUSH1 0x24 DUP3 ADD MSTORE PUSH32 0x6173736572743A206465706F7369742062756700000000000000000000000000 PUSH1 0x44 DUP3 ADD MSTORE PUSH1 0x64 ADD PUSH2 0x433 JUMP JUMPDEST PUSH1 0x0 PUSH20 0xFFFFFFFFFFFFFFFFFFFFFFFFFFFFFFFFFFFFFFFF DUP8 AND CALLER EQ DUP1 ISZERO PUSH2 0x196E JUMPI POP PUSH32 0xFFFFFFFFFFFFFFFFFFFFFFFFFFFFFFFFFFFFFFFFFFFFFFFFFFFFFFFFFFFFFFFF DUP9 EQ ISZERO JUMPDEST SWAP1 POP PUSH32 0xFFFFFFFFFFFFFFFFFFFFFFFFFFFFFFFFFFFFFFFFFFFFFFFFFFFFFFFFFFFFFFFF DUP9 EQ ISZERO PUSH2 0x199D JUMPI PUSH1 0x0 SWAP8 POP JUMPDEST PUSH2 0x19B8 DUP11 DUP9 PUSH2 0x19AC DUP6 DUP8 PUSH2 0x297C JUMP JUMPDEST PUSH1 0x3 SWAP3 SWAP2 SWAP1 DUP13 DUP7 PUSH2 0x1E34 JUMP JUMPDEST POP POP POP POP POP JUMPDEST DUP5 DUP3 PUSH20 0xFFFFFFFFFFFFFFFFFFFFFFFFFFFFFFFFFFFFFFFF AND PUSH32 0x90890809C654F11D6E72A28FA60149770A0D11EC6C92319D6CEB2BB0A4EA1A15 DUP7 PUSH1 0x40 MLOAD PUSH2 0x1A07 SWAP2 DUP2 MSTORE PUSH1 0x20 ADD SWAP1 JUMP JUMPDEST PUSH1 0x40 MLOAD DUP1 SWAP2 SUB SWAP1 LOG3 POP POP POP POP POP JUMP JUMPDEST PUSH1 0x0 DUP5 DUP2 MSTORE PUSH1 0xA PUSH1 0x20 SWAP1 DUP2 MSTORE PUSH1 0x40 SWAP2 DUP3 SWAP1 KECCAK256 PUSH1 0x1 DUP2 ADD SLOAD DUP4 MLOAD PUSH32 0x42DA4EB300000000000000000000000000000000000000000000000000000000 DUP2 MSTORE SWAP4 MLOAD SWAP2 SWAP4 PUSH20 0xFFFFFFFFFFFFFFFFFFFFFFFFFFFFFFFFFFFFFFFF SWAP1 SWAP2 AND SWAP3 PUSH4 0x42DA4EB3 SWAP3 PUSH1 0x4 DUP1 DUP5 ADD SWAP4 DUP3 SWAP1 SUB ADD DUP2 DUP7 DUP1 EXTCODESIZE ISZERO DUP1 ISZERO PUSH2 0x1A8F JUMPI PUSH1 0x0 DUP1 REVERT JUMPDEST POP GAS STATICCALL ISZERO DUP1 ISZERO PUSH2 0x1AA3 JUMPI RETURNDATASIZE PUSH1 0x0 DUP1 RETURNDATACOPY RETURNDATASIZE PUSH1 0x0 REVERT JUMPDEST POP POP POP POP PUSH1 0x40 MLOAD RETURNDATASIZE PUSH1 0x1F NOT PUSH1 0x1F DUP3 ADD AND DUP3 ADD DUP1 PUSH1 0x40 MSTORE POP DUP2 ADD SWAP1 PUSH2 0x1AC7 SWAP2 SWAP1 PUSH2 0x2727 JUMP JUMPDEST PUSH1 0x2 DUP3 ADD SSTORE PUSH1 0x0 DUP1 PUSH2 0x1AD9 DUP4 CALLER PUSH2 0x1D0D JUMP JUMPDEST SWAP1 SWAP3 POP SWAP1 POP PUSH1 0x0 PUSH2 0x1AEA DUP3 DUP5 PUSH2 0x297C JUMP JUMPDEST SWAP1 POP DUP7 ISZERO DUP1 PUSH2 0x1AF7 JUMPI POP DUP1 ISZERO JUMPDEST ISZERO PUSH2 0x1B11 JUMPI PUSH2 0x1B0C PUSH1 0x3 DUP10 CALLER DUP5 DUP11 PUSH1 0x1 PUSH2 0x1E34 JUMP JUMPDEST PUSH2 0x1C2F JUMP JUMPDEST DUP1 DUP8 GT ISZERO PUSH2 0x1B1D JUMPI DUP1 SWAP7 POP JUMPDEST DUP7 ISZERO PUSH2 0x1C2F JUMPI PUSH1 0x1 DUP5 ADD SLOAD PUSH1 0x2 DUP6 ADD SLOAD PUSH1 0x40 MLOAD PUSH32 0x441A3E7000000000000000000000000000000000000000000000000000000000 DUP2 MSTORE PUSH1 0x0 SWAP3 DUP4 SWAP3 PUSH20 0xFFFFFFFFFFFFFFFFFFFFFFFFFFFFFFFFFFFFFFFF SWAP1 SWAP2 AND SWAP2 PUSH4 0x441A3E70 SWAP2 PUSH2 0x1B8E SWAP2 DUP14 SWAP1 PUSH1 0x4 ADD SWAP2 DUP3 MSTORE PUSH1 0x20 DUP3 ADD MSTORE PUSH1 0x40 ADD SWAP1 JUMP JUMPDEST PUSH1 0x40 DUP1 MLOAD DUP1 DUP4 SUB DUP2 PUSH1 0x0 DUP8 DUP1 EXTCODESIZE ISZERO DUP1 ISZERO PUSH2 0x1BA7 JUMPI PUSH1 0x0 DUP1 REVERT JUMPDEST POP GAS CALL ISZERO DUP1 ISZERO PUSH2 0x1BBB JUMPI RETURNDATASIZE PUSH1 0x0 DUP1 RETURNDATACOPY RETURNDATASIZE PUSH1 0x0 REVERT JUMPDEST POP POP POP POP PUSH1 0x40 MLOAD RETURNDATASIZE PUSH1 0x1F NOT PUSH1 0x1F DUP3 ADD AND DUP3 ADD DUP1 PUSH1 0x40 MSTORE POP DUP2 ADD SWAP1 PUSH2 0x1BDF SWAP2 SWAP1 PUSH2 0x27AC JUMP JUMPDEST SWAP1 SWAP3 POP SWAP1 POP PUSH2 0x1C00 DUP11 CALLER PUSH2 0x1BF3 DUP6 DUP8 PUSH2 0x2A59 JUMP JUMPDEST PUSH1 0x3 SWAP3 SWAP2 SWAP1 DUP13 PUSH1 0x1 PUSH2 0x1E34 JUMP JUMPDEST PUSH1 0x1 DUP7 ADD SLOAD DUP7 SLOAD PUSH2 0x1C2C SWAP2 PUSH20 0xFFFFFFFFFFFFFFFFFFFFFFFFFFFFFFFFFFFFFFFF SWAP2 DUP3 AND SWAP2 AND DUP10 DUP5 PUSH2 0x1D99 JUMP JUMPDEST POP POP JUMPDEST PUSH1 0x40 MLOAD DUP8 DUP2 MSTORE DUP9 SWAP1 CALLER SWAP1 PUSH32 0xF279E6A1F5E320CCA91135676D9CB6E44CA8A08C0B88342BCDB1144F6511B568 SWAP1 PUSH1 0x20 ADD PUSH1 0x40 MLOAD DUP1 SWAP2 SUB SWAP1 LOG3 POP POP POP POP POP POP POP POP JUMP JUMPDEST PUSH1 0x0 DUP1 SLOAD PUSH20 0xFFFFFFFFFFFFFFFFFFFFFFFFFFFFFFFFFFFFFFFF DUP4 DUP2 AND PUSH32 0xFFFFFFFFFFFFFFFFFFFFFFFF0000000000000000000000000000000000000000 DUP4 AND DUP2 OR DUP5 SSTORE PUSH1 0x40 MLOAD SWAP2 SWAP1 SWAP3 AND SWAP3 DUP4 SWAP2 PUSH32 0x8BE0079C531659141344CD1FD0A4F28419497F9722A3DAAFE3B4186F6B6457E0 SWAP2 SWAP1 LOG3 POP POP JUMP JUMPDEST PUSH1 0x0 DUP3 DUP2 MSTORE PUSH1 0x7 DUP5 ADD PUSH1 0x20 MSTORE PUSH1 0x40 DUP2 KECCAK256 DUP2 SWAP1 PUSH2 0x1D01 SWAP1 DUP5 PUSH2 0x1D0D JUMP JUMPDEST SWAP2 POP SWAP2 POP SWAP4 POP SWAP4 SWAP2 POP POP JUMP JUMPDEST PUSH1 0x0 DUP1 PUSH1 0x0 DUP5 PUSH1 0x3 ADD SLOAD GT ISZERO PUSH2 0x1D66 JUMPI PUSH1 0x3 DUP5 ADD SLOAD PUSH20 0xFFFFFFFFFFFFFFFFFFFFFFFFFFFFFFFFFFFFFFFF DUP5 AND PUSH1 0x0 SWAP1 DUP2 MSTORE PUSH1 0x5 DUP7 ADD PUSH1 0x20 MSTORE PUSH1 0x40 SWAP1 KECCAK256 SLOAD PUSH1 0x2 DUP7 ADD SLOAD PUSH2 0x1D59 SWAP2 SWAP1 PUSH2 0x29A8 JUMP JUMPDEST PUSH2 0x1D63 SWAP2 SWAP1 PUSH2 0x2994 JUMP JUMPDEST SWAP2 POP JUMPDEST POP PUSH20 0xFFFFFFFFFFFFFFFFFFFFFFFFFFFFFFFFFFFFFFFF SWAP1 SWAP2 AND PUSH1 0x0 SWAP1 DUP2 MSTORE PUSH1 0x5 SWAP1 SWAP3 ADD PUSH1 0x20 MSTORE PUSH1 0x40 SWAP1 SWAP2 KECCAK256 PUSH1 0x1 ADD SLOAD SWAP1 SWAP2 JUMP JUMPDEST PUSH1 0x40 DUP1 MLOAD PUSH20 0xFFFFFFFFFFFFFFFFFFFFFFFFFFFFFFFFFFFFFFFF DUP6 DUP2 AND PUSH1 0x24 DUP4 ADD MSTORE DUP5 AND PUSH1 0x44 DUP3 ADD MSTORE PUSH1 0x64 DUP1 DUP3 ADD DUP5 SWAP1 MSTORE DUP3 MLOAD DUP1 DUP4 SUB SWAP1 SWAP2 ADD DUP2 MSTORE PUSH1 0x84 SWAP1 SWAP2 ADD SWAP1 SWAP2 MSTORE PUSH1 0x20 DUP2 ADD DUP1 MLOAD PUSH28 0xFFFFFFFFFFFFFFFFFFFFFFFFFFFFFFFFFFFFFFFFFFFFFFFFFFFFFFFF AND PUSH32 0x23B872DD00000000000000000000000000000000000000000000000000000000 OR SWAP1 MSTORE PUSH2 0x1E2E SWAP1 DUP6 SWAP1 PUSH2 0x234F JUMP JUMPDEST POP POP POP POP JUMP JUMPDEST PUSH1 0x0 DUP6 DUP2 MSTORE PUSH1 0x7 DUP8 ADD PUSH1 0x20 SWAP1 DUP2 MSTORE PUSH1 0x40 DUP1 DUP4 KECCAK256 PUSH20 0xFFFFFFFFFFFFFFFFFFFFFFFFFFFFFFFFFFFFFFFF DUP9 AND DUP5 MSTORE PUSH1 0x5 DUP2 ADD SWAP1 SWAP3 MSTORE SWAP1 SWAP2 KECCAK256 PUSH32 0xFFFFFFFFFFFFFFFFFFFFFFFFFFFFFFFFFFFFFFFFFFFFFFFFFFFFFFFFFFFFFFFF DUP5 EQ ISZERO PUSH2 0x1EA4 JUMPI PUSH1 0x2 DUP2 ADD SLOAD PUSH8 0xFFFFFFFFFFFFFFFF AND SWAP4 POP JUMPDEST PUSH8 0xDE0B6B3A7640000 DUP5 GT ISZERO PUSH2 0x1F16 JUMPI PUSH1 0x40 MLOAD PUSH32 0x8C379A000000000000000000000000000000000000000000000000000000000 DUP2 MSTORE PUSH1 0x20 PUSH1 0x4 DUP3 ADD MSTORE PUSH1 0xF PUSH1 0x24 DUP3 ADD MSTORE PUSH32 0x31653138203D206D61782F313030250000000000000000000000000000000000 PUSH1 0x44 DUP3 ADD MSTORE PUSH1 0x64 ADD PUSH2 0x433 JUMP JUMPDEST PUSH1 0x2 DUP2 ADD SLOAD PUSH9 0x10000000000000000 SWAP1 DIV PUSH8 0xFFFFFFFFFFFFFFFF AND TIMESTAMP GT PUSH2 0x1F99 JUMPI PUSH1 0x40 MLOAD PUSH32 0x8C379A000000000000000000000000000000000000000000000000000000000 DUP2 MSTORE PUSH1 0x20 PUSH1 0x4 DUP3 ADD MSTORE PUSH1 0x1E PUSH1 0x24 DUP3 ADD MSTORE PUSH32 0x6F6E6520616374696F6E20706572207661756C742070657220626C6F636B0000 PUSH1 0x44 DUP3 ADD MSTORE PUSH1 0x64 ADD PUSH2 0x433 JUMP JUMPDEST DUP3 ISZERO PUSH2 0x1FE9 JUMPI PUSH1 0x2 DUP2 ADD DUP1 SLOAD TIMESTAMP PUSH8 0xFFFFFFFFFFFFFFFF SWAP1 DUP2 AND PUSH9 0x10000000000000000 MUL PUSH32 0xFFFFFFFFFFFFFFFFFFFFFFFFFFFFFFFF00000000000000000000000000000000 SWAP1 SWAP3 AND SWAP1 DUP8 AND OR OR SWAP1 SSTORE JUMPDEST PUSH1 0x4 DUP3 ADD SLOAD PUSH1 0x3 DUP4 ADD SLOAD PUSH1 0x0 SWAP1 ISZERO PUSH2 0x2046 JUMPI PUSH1 0x3 DUP5 ADD SLOAD PUSH20 0xFFFFFFFFFFFFFFFFFFFFFFFFFFFFFFFFFFFFFFFF DUP10 AND PUSH1 0x0 SWAP1 DUP2 MSTORE PUSH1 0x5 DUP7 ADD PUSH1 0x20 MSTORE PUSH1 0x40 SWAP1 KECCAK256 SLOAD PUSH1 0x2 DUP7 ADD SLOAD PUSH2 0x2037 SWAP2 SWAP1 PUSH2 0x29A8 JUMP JUMPDEST PUSH2 0x2041 SWAP2 SWAP1 PUSH2 0x2994 JUMP JUMPDEST PUSH2 0x2049 JUMP JUMPDEST PUSH1 0x0 JUMPDEST PUSH20 0xFFFFFFFFFFFFFFFFFFFFFFFFFFFFFFFFFFFFFFFF DUP10 AND PUSH1 0x0 SWAP1 DUP2 MSTORE PUSH1 0x5 DUP7 ADD PUSH1 0x20 MSTORE PUSH1 0x40 DUP2 KECCAK256 PUSH1 0x1 ADD SLOAD SWAP2 SWAP3 POP PUSH2 0x2081 DUP3 DUP5 PUSH2 0x297C JUMP JUMPDEST SWAP1 POP DUP7 DUP1 PUSH2 0x208F JUMPI POP DUP1 DUP10 LT ISZERO JUMPDEST PUSH2 0x20F5 JUMPI PUSH1 0x40 MLOAD PUSH32 0x8C379A000000000000000000000000000000000000000000000000000000000 DUP2 MSTORE PUSH1 0x20 PUSH1 0x4 DUP3 ADD MSTORE PUSH1 0x1D PUSH1 0x24 DUP3 ADD MSTORE PUSH32 0x7769746864726177616C206D75737420626520617574686F72697A6564000000 PUSH1 0x44 DUP3 ADD MSTORE PUSH1 0x64 ADD PUSH2 0x433 JUMP JUMPDEST PUSH1 0x0 PUSH2 0x2101 DUP11 DUP11 PUSH2 0x29A8 JUMP JUMPDEST SWAP1 POP PUSH1 0x0 PUSH2 0x210F DUP3 DUP13 PUSH2 0x2A59 JUMP JUMPDEST SWAP1 POP DUP9 ISZERO DUP1 ISZERO PUSH2 0x211E JUMPI POP DUP5 DUP2 LT JUMPDEST ISZERO PUSH2 0x2169 JUMPI DUP3 DUP12 DUP9 PUSH1 0x1 ADD SLOAD PUSH2 0x2134 SWAP2 SWAP1 PUSH2 0x297C JUMP JUMPDEST PUSH2 0x213E SWAP2 SWAP1 PUSH2 0x2A59 JUMP JUMPDEST PUSH1 0x1 DUP9 ADD SSTORE PUSH1 0x4 DUP9 ADD SLOAD DUP4 SWAP1 PUSH2 0x2155 SWAP1 DUP14 SWAP1 PUSH2 0x297C JUMP JUMPDEST PUSH2 0x215F SWAP2 SWAP1 PUSH2 0x2A59 JUMP JUMPDEST PUSH1 0x4 DUP10 ADD SSTORE PUSH2 0x22A0 JUMP JUMPDEST DUP9 ISZERO DUP1 ISZERO PUSH2 0x2176 JUMPI POP DUP4 DUP3 LT JUMPDEST ISZERO PUSH2 0x21FB JUMPI PUSH1 0x0 PUSH2 0x2187 DUP5 DUP14 PUSH2 0x2A59 JUMP JUMPDEST PUSH1 0x3 DUP11 ADD SLOAD SWAP1 SWAP2 POP ISZERO PUSH2 0x21C0 JUMPI DUP7 DUP10 PUSH1 0x2 ADD SLOAD PUSH2 0x21A4 SWAP2 SWAP1 PUSH2 0x2A59 JUMP JUMPDEST PUSH1 0x3 DUP11 ADD SLOAD PUSH2 0x21B3 SWAP1 DUP4 PUSH2 0x29A8 JUMP JUMPDEST PUSH2 0x21BD SWAP2 SWAP1 PUSH2 0x2994 JUMP JUMPDEST SWAP1 POP JUMPDEST DUP1 DUP9 PUSH1 0x0 ADD PUSH1 0x0 DUP3 DUP3 SLOAD PUSH2 0x21D4 SWAP2 SWAP1 PUSH2 0x297C JUMP JUMPDEST SWAP3 POP POP DUP2 SWAP1 SSTORE POP DUP1 DUP10 PUSH1 0x3 ADD PUSH1 0x0 DUP3 DUP3 SLOAD PUSH2 0x21EF SWAP2 SWAP1 PUSH2 0x297C JUMP JUMPDEST SWAP1 SWAP2 SSTORE POP PUSH2 0x22A0 SWAP2 POP POP JUMP JUMPDEST PUSH1 0x1 DUP8 ADD DUP3 SWAP1 SSTORE PUSH1 0x4 DUP9 ADD SLOAD DUP5 SWAP1 PUSH2 0x2214 SWAP1 DUP5 SWAP1 PUSH2 0x297C JUMP JUMPDEST PUSH2 0x221E SWAP2 SWAP1 PUSH2 0x2A59 JUMP JUMPDEST PUSH1 0x4 DUP10 ADD SSTORE DUP5 DUP2 LT PUSH2 0x2236 JUMPI PUSH1 0x0 PUSH2 0x2187 DUP7 DUP4 PUSH2 0x2A59 JUMP JUMPDEST PUSH1 0x0 PUSH2 0x226A DUP8 DUP11 PUSH1 0x2 ADD SLOAD PUSH2 0x224B SWAP2 SWAP1 PUSH2 0x2A59 JUMP JUMPDEST PUSH1 0x3 DUP12 ADD SLOAD PUSH2 0x225A DUP6 DUP11 PUSH2 0x2A59 JUMP JUMPDEST PUSH2 0x2264 SWAP2 SWAP1 PUSH2 0x29A8 JUMP JUMPDEST SWAP1 PUSH2 0x245B JUMP JUMPDEST SWAP1 POP DUP1 DUP10 PUSH1 0x3 ADD PUSH1 0x0 DUP3 DUP3 SLOAD PUSH2 0x2280 SWAP2 SWAP1 PUSH2 0x2A59 JUMP JUMPDEST SWAP1 SWAP2 SSTORE POP POP DUP8 SLOAD DUP2 SWAP1 DUP10 SWAP1 PUSH1 0x0 SWAP1 PUSH2 0x2299 SWAP1 DUP5 SWAP1 PUSH2 0x2A59 JUMP JUMPDEST SWAP1 SWAP2 SSTORE POP POP POP JUMPDEST PUSH1 0x0 DUP7 GT DUP1 ISZERO PUSH2 0x22B4 JUMPI POP DUP8 PUSH1 0x4 ADD SLOAD DUP7 EQ ISZERO JUMPDEST ISZERO PUSH2 0x233F JUMPI PUSH1 0x6 DUP9 ADD SLOAD PUSH1 0x4 DUP10 ADD SLOAD PUSH2 0x22D4 SWAP1 DUP9 SWAP1 PUSH2 0x2264 SWAP1 DUP5 SWAP1 PUSH2 0x29A8 JUMP JUMPDEST PUSH1 0x6 DUP11 ADD DUP2 SWAP1 SSTORE PUSH2 0x22E5 SWAP1 DUP3 PUSH2 0x29E5 JUMP JUMPDEST DUP16 PUSH1 0x0 ADD PUSH1 0x4 ADD PUSH1 0x0 DUP16 PUSH20 0xFFFFFFFFFFFFFFFFFFFFFFFFFFFFFFFFFFFFFFFF AND PUSH20 0xFFFFFFFFFFFFFFFFFFFFFFFFFFFFFFFFFFFFFFFF AND DUP2 MSTORE PUSH1 0x20 ADD SWAP1 DUP2 MSTORE PUSH1 0x20 ADD PUSH1 0x0 KECCAK256 PUSH1 0x0 DUP3 DUP3 SLOAD PUSH2 0x2338 SWAP2 SWAP1 PUSH2 0x2908 JUMP JUMPDEST SWAP1 SWAP2 SSTORE POP POP POP JUMPDEST POP POP POP POP POP POP POP POP POP POP POP POP POP POP JUMP JUMPDEST PUSH1 0x0 PUSH2 0x23B1 DUP3 PUSH1 0x40 MLOAD DUP1 PUSH1 0x40 ADD PUSH1 0x40 MSTORE DUP1 PUSH1 0x20 DUP2 MSTORE PUSH1 0x20 ADD PUSH32 0x5361666545524332303A206C6F772D6C6576656C2063616C6C206661696C6564 DUP2 MSTORE POP DUP6 PUSH20 0xFFFFFFFFFFFFFFFFFFFFFFFFFFFFFFFFFFFFFFFF AND PUSH2 0x2494 SWAP1 SWAP3 SWAP2 SWAP1 PUSH4 0xFFFFFFFF AND JUMP JUMPDEST DUP1 MLOAD SWAP1 SWAP2 POP ISZERO PUSH2 0x1649 JUMPI DUP1 DUP1 PUSH1 0x20 ADD SWAP1 MLOAD DUP2 ADD SWAP1 PUSH2 0x23CF SWAP2 SWAP1 PUSH2 0x26F1 JUMP JUMPDEST PUSH2 0x1649 JUMPI PUSH1 0x40 MLOAD PUSH32 0x8C379A000000000000000000000000000000000000000000000000000000000 DUP2 MSTORE PUSH1 0x20 PUSH1 0x4 DUP3 ADD MSTORE PUSH1 0x2A PUSH1 0x24 DUP3 ADD MSTORE PUSH32 0x5361666545524332303A204552433230206F7065726174696F6E20646964206E PUSH1 0x44 DUP3 ADD MSTORE PUSH32 0x6F74207375636365656400000000000000000000000000000000000000000000 PUSH1 0x64 DUP3 ADD MSTORE PUSH1 0x84 ADD PUSH2 0x433 JUMP JUMPDEST PUSH1 0x0 PUSH2 0x2467 DUP3 DUP5 PUSH2 0x2AD5 JUMP JUMPDEST ISZERO PUSH2 0x2473 JUMPI PUSH1 0x1 PUSH2 0x2476 JUMP JUMPDEST PUSH1 0x0 JUMPDEST PUSH1 0xFF AND PUSH2 0x2483 DUP4 DUP6 PUSH2 0x2994 JUMP JUMPDEST PUSH2 0x248D SWAP2 SWAP1 PUSH2 0x297C JUMP JUMPDEST SWAP4 SWAP3 POP POP POP JUMP JUMPDEST PUSH1 0x60 PUSH2 0x24A3 DUP5 DUP5 PUSH1 0x0 DUP6 PUSH2 0x24AB JUMP JUMPDEST SWAP5 SWAP4 POP POP POP POP JUMP JUMPDEST PUSH1 0x60 DUP3 SELFBALANCE LT ISZERO PUSH2 0x253D JUMPI PUSH1 0x40 MLOAD PUSH32 0x8C379A000000000000000000000000000000000000000000000000000000000 DUP2 MSTORE PUSH1 0x20 PUSH1 0x4 DUP3 ADD MSTORE PUSH1 0x26 PUSH1 0x24 DUP3 ADD MSTORE PUSH32 0x416464726573733A20696E73756666696369656E742062616C616E636520666F PUSH1 0x44 DUP3 ADD MSTORE PUSH32 0x722063616C6C0000000000000000000000000000000000000000000000000000 PUSH1 0x64 DUP3 ADD MSTORE PUSH1 0x84 ADD PUSH2 0x433 JUMP JUMPDEST DUP5 EXTCODESIZE PUSH2 0x25A5 JUMPI PUSH1 0x40 MLOAD PUSH32 0x8C379A000000000000000000000000000000000000000000000000000000000 DUP2 MSTORE PUSH1 0x20 PUSH1 0x4 DUP3 ADD MSTORE PUSH1 0x1D PUSH1 0x24 DUP3 ADD MSTORE PUSH32 0x416464726573733A2063616C6C20746F206E6F6E2D636F6E7472616374000000 PUSH1 0x44 DUP3 ADD MSTORE PUSH1 0x64 ADD PUSH2 0x433 JUMP JUMPDEST PUSH1 0x0 DUP1 DUP7 PUSH20 0xFFFFFFFFFFFFFFFFFFFFFFFFFFFFFFFFFFFFFFFF AND DUP6 DUP8 PUSH1 0x40 MLOAD PUSH2 0x25CE SWAP2 SWAP1 PUSH2 0x28C0 JUMP JUMPDEST PUSH1 0x0 PUSH1 0x40 MLOAD DUP1 DUP4 SUB DUP2 DUP6 DUP8 GAS CALL SWAP3 POP POP POP RETURNDATASIZE DUP1 PUSH1 0x0 DUP2 EQ PUSH2 0x260B JUMPI PUSH1 0x40 MLOAD SWAP2 POP PUSH1 0x1F NOT PUSH1 0x3F RETURNDATASIZE ADD AND DUP3 ADD PUSH1 0x40 MSTORE RETURNDATASIZE DUP3 MSTORE RETURNDATASIZE PUSH1 0x0 PUSH1 0x20 DUP5 ADD RETURNDATACOPY PUSH2 0x2610 JUMP JUMPDEST PUSH1 0x60 SWAP2 POP JUMPDEST POP SWAP2 POP SWAP2 POP PUSH2 0x2620 DUP3 DUP3 DUP7 PUSH2 0x262B JUMP JUMPDEST SWAP8 SWAP7 POP POP POP POP POP POP POP JUMP JUMPDEST PUSH1 0x60 DUP4 ISZERO PUSH2 0x263A JUMPI POP DUP2 PUSH2 0x248D JUMP JUMPDEST DUP3 MLOAD ISZERO PUSH2 0x264A JUMPI DUP3 MLOAD DUP1 DUP5 PUSH1 0x20 ADD REVERT JUMPDEST DUP2 PUSH1 0x40 MLOAD PUSH32 0x8C379A000000000000000000000000000000000000000000000000000000000 DUP2 MSTORE PUSH1 0x4 ADD PUSH2 0x433 SWAP2 SWAP1 PUSH2 0x28DC JUMP JUMPDEST PUSH1 0x0 PUSH1 0x20 DUP3 DUP5 SUB SLT ISZERO PUSH2 0x2690 JUMPI PUSH1 0x0 DUP1 REVERT JUMPDEST DUP2 CALLDATALOAD PUSH2 0x248D DUP2 PUSH2 0x2B47 JUMP JUMPDEST PUSH1 0x0 PUSH1 0x20 DUP3 DUP5 SUB SLT ISZERO PUSH2 0x26AD JUMPI PUSH1 0x0 DUP1 REVERT JUMPDEST DUP2 MLOAD PUSH2 0x248D DUP2 PUSH2 0x2B47 JUMP JUMPDEST PUSH1 0x0 DUP1 PUSH1 0x40 DUP4 DUP6 SUB SLT ISZERO PUSH2 0x26CB JUMPI PUSH1 0x0 DUP1 REVERT JUMPDEST DUP3 CALLDATALOAD PUSH2 0x26D6 DUP2 PUSH2 0x2B47 JUMP JUMPDEST SWAP2 POP PUSH1 0x20 DUP4 ADD CALLDATALOAD PUSH2 0x26E6 DUP2 PUSH2 0x2B69 JUMP JUMPDEST DUP1 SWAP2 POP POP SWAP3 POP SWAP3 SWAP1 POP JUMP JUMPDEST PUSH1 0x0 PUSH1 0x20 DUP3 DUP5 SUB SLT ISZERO PUSH2 0x2703 JUMPI PUSH1 0x0 DUP1 REVERT JUMPDEST DUP2 MLOAD PUSH2 0x248D DUP2 PUSH2 0x2B69 JUMP JUMPDEST PUSH1 0x0 PUSH1 0x20 DUP3 DUP5 SUB SLT ISZERO PUSH2 0x2720 JUMPI PUSH1 0x0 DUP1 REVERT JUMPDEST POP CALLDATALOAD SWAP2 SWAP1 POP JUMP JUMPDEST PUSH1 0x0 PUSH1 0x20 DUP3 DUP5 SUB SLT ISZERO PUSH2 0x2739 JUMPI PUSH1 0x0 DUP1 REVERT JUMPDEST POP MLOAD SWAP2 SWAP1 POP JUMP JUMPDEST PUSH1 0x0 DUP1 PUSH1 0x40 DUP4 DUP6 SUB SLT ISZERO PUSH2 0x2753 JUMPI PUSH1 0x0 DUP1 REVERT JUMPDEST DUP3 CALLDATALOAD SWAP2 POP PUSH1 0x20 DUP4 ADD CALLDATALOAD PUSH2 0x26E6 DUP2 PUSH2 0x2B47 JUMP JUMPDEST PUSH1 0x0 DUP1 PUSH1 0x40 DUP4 DUP6 SUB SLT ISZERO PUSH2 0x2778 JUMPI PUSH1 0x0 DUP1 REVERT JUMPDEST DUP3 CALLDATALOAD SWAP2 POP PUSH1 0x20 DUP4 ADD CALLDATALOAD PUSH2 0x26E6 DUP2 PUSH2 0x2B69 JUMP JUMPDEST PUSH1 0x0 DUP1 PUSH1 0x40 DUP4 DUP6 SUB SLT ISZERO PUSH2 0x279D JUMPI PUSH1 0x0 DUP1 REVERT JUMPDEST POP POP DUP1 CALLDATALOAD SWAP3 PUSH1 0x20 SWAP1 SWAP2 ADD CALLDATALOAD SWAP2 POP JUMP JUMPDEST PUSH1 0x0 DUP1 PUSH1 0x40 DUP4 DUP6 SUB SLT ISZERO PUSH2 0x27BF JUMPI PUSH1 0x0 DUP1 REVERT JUMPDEST POP POP DUP1 MLOAD PUSH1 0x20 SWAP1 SWAP2 ADD MLOAD SWAP1 SWAP3 SWAP1 SWAP2 POP JUMP JUMPDEST PUSH1 0x0 DUP1 PUSH1 0x0 PUSH1 0x60 DUP5 DUP7 SUB SLT ISZERO PUSH2 0x27E5 JUMPI PUSH1 0x0 DUP1 REVERT JUMPDEST DUP4 CALLDATALOAD SWAP3 POP PUSH1 0x20 DUP5 ADD CALLDATALOAD SWAP2 POP PUSH1 0x40 DUP5 ADD CALLDATALOAD PUSH2 0x27FE DUP2 PUSH2 0x2B47 JUMP JUMPDEST DUP1 SWAP2 POP POP SWAP3 POP SWAP3 POP SWAP3 JUMP JUMPDEST PUSH1 0x0 DUP1 PUSH1 0x0 PUSH1 0x60 DUP5 DUP7 SUB SLT ISZERO PUSH2 0x281E JUMPI PUSH1 0x0 DUP1 REVERT JUMPDEST POP POP DUP2 CALLDATALOAD SWAP4 PUSH1 0x20 DUP4 ADD CALLDATALOAD SWAP4 POP PUSH1 0x40 SWAP1 SWAP3 ADD CALLDATALOAD SWAP2 SWAP1 POP JUMP JUMPDEST PUSH1 0x0 DUP1 PUSH1 0x0 DUP1 PUSH1 0x80 DUP6 DUP8 SUB SLT ISZERO PUSH2 0x284B JUMPI PUSH1 0x0 DUP1 REVERT JUMPDEST DUP5 CALLDATALOAD SWAP4 POP PUSH1 0x20 DUP6 ADD CALLDATALOAD SWAP3 POP PUSH1 0x40 DUP6 ADD CALLDATALOAD SWAP2 POP PUSH1 0x60 DUP6 ADD CALLDATALOAD PUSH2 0x286B DUP2 PUSH2 0x2B47 JUMP JUMPDEST SWAP4 SWAP7 SWAP3 SWAP6 POP SWAP1 SWAP4 POP POP JUMP JUMPDEST PUSH1 0x0 DUP2 MLOAD DUP1 DUP5 MSTORE PUSH2 0x288E DUP2 PUSH1 0x20 DUP7 ADD PUSH1 0x20 DUP7 ADD PUSH2 0x2A70 JUMP JUMPDEST PUSH1 0x1F ADD PUSH32 0xFFFFFFFFFFFFFFFFFFFFFFFFFFFFFFFFFFFFFFFFFFFFFFFFFFFFFFFFFFFFFFE0 AND SWAP3 SWAP1 SWAP3 ADD PUSH1 0x20 ADD SWAP3 SWAP2 POP POP JUMP JUMPDEST PUSH1 0x0 DUP3 MLOAD PUSH2 0x28D2 DUP2 DUP5 PUSH1 0x20 DUP8 ADD PUSH2 0x2A70 JUMP JUMPDEST SWAP2 SWAP1 SWAP2 ADD SWAP3 SWAP2 POP POP JUMP JUMPDEST PUSH1 0x20 DUP2 MSTORE PUSH1 0x0 PUSH2 0x248D PUSH1 0x20 DUP4 ADD DUP5 PUSH2 0x2876 JUMP JUMPDEST DUP3 DUP2 MSTORE PUSH1 0x40 PUSH1 0x20 DUP3 ADD MSTORE PUSH1 0x0 PUSH2 0x24A3 PUSH1 0x40 DUP4 ADD DUP5 PUSH2 0x2876 JUMP JUMPDEST PUSH1 0x0 DUP1 DUP3 SLT DUP3 PUSH32 0x7FFFFFFFFFFFFFFFFFFFFFFFFFFFFFFFFFFFFFFFFFFFFFFFFFFFFFFFFFFFFFFF SUB DUP5 SGT DUP2 ISZERO AND ISZERO PUSH2 0x2942 JUMPI PUSH2 0x2942 PUSH2 0x2AE9 JUMP JUMPDEST DUP3 PUSH32 0x8000000000000000000000000000000000000000000000000000000000000000 SUB DUP5 SLT DUP2 AND ISZERO PUSH2 0x2976 JUMPI PUSH2 0x2976 PUSH2 0x2AE9 JUMP JUMPDEST POP POP ADD SWAP1 JUMP JUMPDEST PUSH1 0x0 DUP3 NOT DUP3 GT ISZERO PUSH2 0x298F JUMPI PUSH2 0x298F PUSH2 0x2AE9 JUMP JUMPDEST POP ADD SWAP1 JUMP JUMPDEST PUSH1 0x0 DUP3 PUSH2 0x29A3 JUMPI PUSH2 0x29A3 PUSH2 0x2B18 JUMP JUMPDEST POP DIV SWAP1 JUMP JUMPDEST PUSH1 0x0 DUP2 PUSH32 0xFFFFFFFFFFFFFFFFFFFFFFFFFFFFFFFFFFFFFFFFFFFFFFFFFFFFFFFFFFFFFFFF DIV DUP4 GT DUP3 ISZERO ISZERO AND ISZERO PUSH2 0x29E0 JUMPI PUSH2 0x29E0 PUSH2 0x2AE9 JUMP JUMPDEST POP MUL SWAP1 JUMP JUMPDEST PUSH1 0x0 DUP1 DUP4 SLT DUP4 PUSH32 0x8000000000000000000000000000000000000000000000000000000000000000 ADD DUP4 SLT DUP2 ISZERO AND ISZERO PUSH2 0x2A1F JUMPI PUSH2 0x2A1F PUSH2 0x2AE9 JUMP JUMPDEST DUP4 PUSH32 0x7FFFFFFFFFFFFFFFFFFFFFFFFFFFFFFFFFFFFFFFFFFFFFFFFFFFFFFFFFFFFFFF ADD DUP4 SGT DUP2 AND ISZERO PUSH2 0x2A53 JUMPI PUSH2 0x2A53 PUSH2 0x2AE9 JUMP JUMPDEST POP POP SUB SWAP1 JUMP JUMPDEST PUSH1 0x0 DUP3 DUP3 LT ISZERO PUSH2 0x2A6B JUMPI PUSH2 0x2A6B PUSH2 0x2AE9 JUMP JUMPDEST POP SUB SWAP1 JUMP JUMPDEST PUSH1 0x0 JUMPDEST DUP4 DUP2 LT ISZERO PUSH2 0x2A8B JUMPI DUP2 DUP2 ADD MLOAD DUP4 DUP3 ADD MSTORE PUSH1 0x20 ADD PUSH2 0x2A73 JUMP JUMPDEST DUP4 DUP2 GT ISZERO PUSH2 0x1E2E JUMPI POP POP PUSH1 0x0 SWAP2 ADD MSTORE JUMP JUMPDEST PUSH1 0x0 PUSH32 0xFFFFFFFFFFFFFFFFFFFFFFFFFFFFFFFFFFFFFFFFFFFFFFFFFFFFFFFFFFFFFFFF DUP3 EQ ISZERO PUSH2 0x2ACE JUMPI PUSH2 0x2ACE PUSH2 0x2AE9 JUMP JUMPDEST POP PUSH1 0x1 ADD SWAP1 JUMP JUMPDEST PUSH1 0x0 DUP3 PUSH2 0x2AE4 JUMPI PUSH2 0x2AE4 PUSH2 0x2B18 JUMP JUMPDEST POP MOD SWAP1 JUMP JUMPDEST PUSH32 0x4E487B7100000000000000000000000000000000000000000000000000000000 PUSH1 0x0 MSTORE PUSH1 0x11 PUSH1 0x4 MSTORE PUSH1 0x24 PUSH1 0x0 REVERT JUMPDEST PUSH32 0x4E487B7100000000000000000000000000000000000000000000000000000000 PUSH1 0x0 MSTORE PUSH1 0x12 PUSH1 0x4 MSTORE PUSH1 0x24 PUSH1 0x0 REVERT JUMPDEST PUSH20 0xFFFFFFFFFFFFFFFFFFFFFFFFFFFFFFFFFFFFFFFF DUP2 AND DUP2 EQ PUSH2 0x665 JUMPI PUSH1 0x0 DUP1 REVERT JUMPDEST DUP1 ISZERO ISZERO DUP2 EQ PUSH2 0x665 JUMPI PUSH1 0x0 DUP1 REVERT INVALID LOG2 PUSH5 0x6970667358 0x22 SLT KECCAK256 SELFBALANCE PUSH3 0x301876 0xCB 0xD 0x29 0xE3 0xDB PUSH27 0x65BE3B4405B093838AC5964CDBF46F5B2808D4DEE764736F6C6343 STOP ADDMOD SMOD STOP CALLER "
		},
		"gasEstimates": {
			"creation": {
				"codeDepositCost": "2236200",
				"executionCost": "96676",
				"totalCost": "2332876"
			},
			"external": {
				"addPool(address)": "infinite",
				"autocompoundOn()": "2354",
				"compoundAll()": "infinite",
				"compoundMode()": "2329",
				"deposit(uint256,uint256)": "infinite",
				"deposit(uint256,uint256,address)": "infinite",
				"deposit(uint256,uint256,uint256)": "infinite",
				"deposit(uint256,uint256,uint256,address)": "infinite",
				"operators(address)": "2559",
				"owner()": "2357",
				"poolInfo(uint256)": "4678",
				"poolLength()": "2339",
				"renounceOwnership()": "28164",
				"resetAllowances()": "2422",
				"resetSingleAllowance(uint256)": "2543",
				"setCompoundMode(uint256,bool)": "50197",
				"stakedWantTokens(uint256,address)": "11585",
				"transferOwnership(address)": "infinite",
				"updateOperator(address,bool)": "infinite",
				"withdraw(uint256,uint256)": "infinite",
				"withdraw(uint256,uint256,address)": "infinite",
				"withdraw(uint256,uint256,uint256)": "infinite",
				"withdraw(uint256,uint256,uint256,address)": "infinite",
				"withdrawAll(uint256)": "infinite"
			},
			"internal": {
				"_compoundAll()": "infinite",
				"_deposit(uint256,uint256,uint256,address)": "infinite",
				"_withdraw(uint256,uint256,uint256,address)": "infinite"
			}
		},
		"methodIdentifiers": {
			"addPool(address)": "d914cd4b",
			"autocompoundOn()": "e2ff2f47",
			"compoundAll()": "9b05ddb3",
			"compoundMode()": "5d142d07",
			"deposit(uint256,uint256)": "e2bbb158",
			"deposit(uint256,uint256,address)": "8dbdbe6d",
			"deposit(uint256,uint256,uint256)": "00aeef8a",
			"deposit(uint256,uint256,uint256,address)": "fad3cc4b",
			"operators(address)": "13e7c9d8",
			"owner()": "8da5cb5b",
			"poolInfo(uint256)": "1526fe27",
			"poolLength()": "081e3eda",
			"renounceOwnership()": "715018a6",
			"resetAllowances()": "3505b09f",
			"resetSingleAllowance(uint256)": "23e1ad7d",
			"setCompoundMode(uint256,bool)": "3d4fc8d1",
			"stakedWantTokens(uint256,address)": "7b84daec",
			"transferOwnership(address)": "f2fde38b",
			"updateOperator(address,bool)": "6d44a3b2",
			"withdraw(uint256,uint256)": "441a3e70",
			"withdraw(uint256,uint256,address)": "0ad58d2f",
			"withdraw(uint256,uint256,uint256)": "a41fe49f",
			"withdraw(uint256,uint256,uint256,address)": "d331bef7",
			"withdrawAll(uint256)": "958e2d31"
		}
	},
	"abi": [
		{
			"anonymous": false,
			"inputs": [
				{
					"indexed": true,
					"internalType": "address",
					"name": "strat",
					"type": "address"
				}
			],
			"name": "AddPool",
			"type": "event"
		},
		{
			"anonymous": false,
			"inputs": [
				{
					"indexed": false,
					"internalType": "uint256",
					"name": "pid",
					"type": "uint256"
				},
				{
					"indexed": false,
					"internalType": "bytes",
					"name": "reason",
					"type": "bytes"
				}
			],
			"name": "CompoundError",
			"type": "event"
		},
		{
			"anonymous": false,
			"inputs": [
				{
					"indexed": true,
					"internalType": "address",
					"name": "user",
					"type": "address"
				},
				{
					"indexed": true,
					"internalType": "uint256",
					"name": "pid",
					"type": "uint256"
				},
				{
					"indexed": false,
					"internalType": "uint256",
					"name": "amount",
					"type": "uint256"
				}
			],
			"name": "Deposit",
			"type": "event"
		},
		{
			"anonymous": false,
			"inputs": [
				{
					"indexed": true,
					"internalType": "address",
					"name": "user",
					"type": "address"
				},
				{
					"indexed": true,
					"internalType": "uint256",
					"name": "pid",
					"type": "uint256"
				},
				{
					"indexed": false,
					"internalType": "uint256",
					"name": "amount",
					"type": "uint256"
				}
			],
			"name": "EmergencyWithdraw",
			"type": "event"
		},
		{
			"anonymous": false,
			"inputs": [
				{
					"indexed": true,
					"internalType": "address",
					"name": "operator",
					"type": "address"
				},
				{
					"indexed": true,
					"internalType": "bool",
					"name": "status",
					"type": "bool"
				}
			],
			"name": "OperatorUpdated",
			"type": "event"
		},
		{
			"anonymous": false,
			"inputs": [
				{
					"indexed": true,
					"internalType": "address",
					"name": "previousOwner",
					"type": "address"
				},
				{
					"indexed": true,
					"internalType": "address",
					"name": "newOwner",
					"type": "address"
				}
			],
			"name": "OwnershipTransferred",
			"type": "event"
		},
		{
			"anonymous": false,
			"inputs": [
				{
					"indexed": false,
					"internalType": "uint256",
					"name": "locked",
					"type": "uint256"
				},
				{
					"indexed": false,
					"internalType": "bool",
					"name": "automatic",
					"type": "bool"
				}
			],
			"name": "SetCompoundMode",
			"type": "event"
		},
		{
			"anonymous": false,
			"inputs": [
				{
					"indexed": true,
					"internalType": "address",
					"name": "user",
					"type": "address"
				},
				{
					"indexed": true,
					"internalType": "uint256",
					"name": "pid",
					"type": "uint256"
				},
				{
					"indexed": false,
					"internalType": "uint256",
					"name": "amount",
					"type": "uint256"
				}
			],
			"name": "Withdraw",
			"type": "event"
		},
		{
			"inputs": [
				{
					"internalType": "address",
					"name": "_strat",
					"type": "address"
				}
			],
			"name": "addPool",
			"outputs": [],
			"stateMutability": "nonpayable",
			"type": "function"
		},
		{
			"inputs": [],
			"name": "autocompoundOn",
			"outputs": [
				{
					"internalType": "bool",
					"name": "",
					"type": "bool"
				}
			],
			"stateMutability": "view",
			"type": "function"
		},
		{
			"inputs": [],
			"name": "compoundAll",
			"outputs": [],
			"stateMutability": "nonpayable",
			"type": "function"
		},
		{
			"inputs": [],
			"name": "compoundMode",
			"outputs": [
				{
					"internalType": "uint256",
					"name": "",
					"type": "uint256"
				}
			],
			"stateMutability": "view",
			"type": "function"
		},
		{
			"inputs": [
				{
					"internalType": "uint256",
					"name": "_vid",
					"type": "uint256"
				},
				{
					"internalType": "uint256",
					"name": "_wantAmt",
					"type": "uint256"
				},
				{
					"internalType": "uint256",
					"name": "_maxiPercent",
					"type": "uint256"
				}
			],
			"name": "deposit",
			"outputs": [],
			"stateMutability": "nonpayable",
			"type": "function"
		},
		{
			"inputs": [
				{
					"internalType": "uint256",
					"name": "_vid",
					"type": "uint256"
				},
				{
					"internalType": "uint256",
					"name": "_wantAmt",
					"type": "uint256"
				},
				{
					"internalType": "address",
					"name": "_to",
					"type": "address"
				}
			],
			"name": "deposit",
			"outputs": [],
			"stateMutability": "nonpayable",
			"type": "function"
		},
		{
			"inputs": [
				{
					"internalType": "uint256",
					"name": "_vid",
					"type": "uint256"
				},
				{
					"internalType": "uint256",
					"name": "_wantAmt",
					"type": "uint256"
				}
			],
			"name": "deposit",
			"outputs": [],
			"stateMutability": "nonpayable",
			"type": "function"
		},
		{
			"inputs": [
				{
					"internalType": "uint256",
					"name": "_vid",
					"type": "uint256"
				},
				{
					"internalType": "uint256",
					"name": "_wantAmt",
					"type": "uint256"
				},
				{
					"internalType": "uint256",
					"name": "_maxiPercent",
					"type": "uint256"
				},
				{
					"internalType": "address",
					"name": "_to",
					"type": "address"
				}
			],
			"name": "deposit",
			"outputs": [],
			"stateMutability": "nonpayable",
			"type": "function"
		},
		{
			"inputs": [
				{
					"internalType": "address",
					"name": "",
					"type": "address"
				}
			],
			"name": "operators",
			"outputs": [
				{
					"internalType": "bool",
					"name": "",
					"type": "bool"
				}
			],
			"stateMutability": "view",
			"type": "function"
		},
		{
			"inputs": [],
			"name": "owner",
			"outputs": [
				{
					"internalType": "address",
					"name": "",
					"type": "address"
				}
			],
			"stateMutability": "view",
			"type": "function"
		},
		{
			"inputs": [
				{
					"internalType": "uint256",
					"name": "_vid",
					"type": "uint256"
				}
			],
			"name": "poolInfo",
			"outputs": [
				{
					"internalType": "contract IERC20",
					"name": "want",
					"type": "address"
				},
				{
					"internalType": "contract IStrategy",
					"name": "strat",
					"type": "address"
				}
			],
			"stateMutability": "view",
			"type": "function"
		},
		{
			"inputs": [],
			"name": "poolLength",
			"outputs": [
				{
					"internalType": "uint256",
					"name": "",
					"type": "uint256"
				}
			],
			"stateMutability": "view",
			"type": "function"
		},
		{
			"inputs": [],
			"name": "renounceOwnership",
			"outputs": [],
			"stateMutability": "nonpayable",
			"type": "function"
		},
		{
			"inputs": [],
			"name": "resetAllowances",
			"outputs": [],
			"stateMutability": "nonpayable",
			"type": "function"
		},
		{
			"inputs": [
				{
					"internalType": "uint256",
					"name": "_pid",
					"type": "uint256"
				}
			],
			"name": "resetSingleAllowance",
			"outputs": [],
			"stateMutability": "nonpayable",
			"type": "function"
		},
		{
			"inputs": [
				{
					"internalType": "uint256",
					"name": "mode",
					"type": "uint256"
				},
				{
					"internalType": "bool",
					"name": "autoC",
					"type": "bool"
				}
			],
			"name": "setCompoundMode",
			"outputs": [],
			"stateMutability": "nonpayable",
			"type": "function"
		},
		{
			"inputs": [
				{
					"internalType": "uint256",
					"name": "_vid",
					"type": "uint256"
				},
				{
					"internalType": "address",
					"name": "_user",
					"type": "address"
				}
			],
			"name": "stakedWantTokens",
			"outputs": [
				{
					"internalType": "uint256",
					"name": "",
					"type": "uint256"
				}
			],
			"stateMutability": "view",
			"type": "function"
		},
		{
			"inputs": [
				{
					"internalType": "address",
					"name": "newOwner",
					"type": "address"
				}
			],
			"name": "transferOwnership",
			"outputs": [],
			"stateMutability": "nonpayable",
			"type": "function"
		},
		{
			"inputs": [
				{
					"internalType": "address",
					"name": "_operator",
					"type": "address"
				},
				{
					"internalType": "bool",
					"name": "_status",
					"type": "bool"
				}
			],
			"name": "updateOperator",
			"outputs": [],
			"stateMutability": "nonpayable",
			"type": "function"
		},
		{
			"inputs": [
				{
					"internalType": "uint256",
					"name": "_vid",
					"type": "uint256"
				},
				{
					"internalType": "uint256",
					"name": "_wantAmt",
					"type": "uint256"
				},
				{
					"internalType": "address",
					"name": "_to",
					"type": "address"
				}
			],
			"name": "withdraw",
			"outputs": [],
			"stateMutability": "nonpayable",
			"type": "function"
		},
		{
			"inputs": [
				{
					"internalType": "uint256",
					"name": "_vid",
					"type": "uint256"
				},
				{
					"internalType": "uint256",
					"name": "_wantAmt",
					"type": "uint256"
				}
			],
			"name": "withdraw",
			"outputs": [],
			"stateMutability": "nonpayable",
			"type": "function"
		},
		{
			"inputs": [
				{
					"internalType": "uint256",
					"name": "_vid",
					"type": "uint256"
				},
				{
					"internalType": "uint256",
					"name": "_wantAmt",
					"type": "uint256"
				},
				{
					"internalType": "uint256",
					"name": "_maxiPercent",
					"type": "uint256"
				}
			],
			"name": "withdraw",
			"outputs": [],
			"stateMutability": "nonpayable",
			"type": "function"
		},
		{
			"inputs": [
				{
					"internalType": "uint256",
					"name": "_vid",
					"type": "uint256"
				},
				{
					"internalType": "uint256",
					"name": "_wantAmt",
					"type": "uint256"
				},
				{
					"internalType": "uint256",
					"name": "_maxiPercent",
					"type": "uint256"
				},
				{
					"internalType": "address",
					"name": "_to",
					"type": "address"
				}
			],
			"name": "withdraw",
			"outputs": [],
			"stateMutability": "nonpayable",
			"type": "function"
		},
		{
			"inputs": [
				{
					"internalType": "uint256",
					"name": "_vid",
					"type": "uint256"
				}
			],
			"name": "withdrawAll",
			"outputs": [],
			"stateMutability": "nonpayable",
			"type": "function"
		}
	]
}