{
	"data": {
		"bytecode": {
			"linkReferences": {},
			"object": "6080604052600160068190556007805460ff191690911790553480156200002557600080fd5b50600160005562000036336200003c565b6200008e565b600180546001600160a01b038381166001600160a01b0319831681179093556040519116919082907f8be0079c531659141344cd1fd0a4f28419497f9722a3daafe3b4186f6b6457e090600090a35050565b614215806200009e6000396000f3fe60806040523480156200001157600080fd5b5060043610620002015760003560e01c8063715018a61162000119578063d914cd4b11620000af578063e2ff2f47116200007a578063e2ff2f4714620004ba578063e718d12914620004c8578063f2fde38b14620004ee578063fc77c9db146200050557600080fd5b8063d914cd4b146200044d578063d9b40aef1462000464578063de1c6ff0146200047b578063e2bbb15814620004a357600080fd5b80638dbdbe6d11620000f05780638dbdbe6d14620003fe57806393f1a40b1462000415578063958e2d31146200042c5780639b05ddb3146200044357600080fd5b8063715018a614620003be5780637b84daec14620003c85780638da5cb5b14620003df57600080fd5b80633505b09f116200019b5780634c2077ab11620001665780634c2077ab14620003635780635d142d07146200037a57806369b5525d14620003845780636d44a3b214620003a757600080fd5b80633505b09f146200030a5780633d4fc8d11462000314578063441a3e70146200032b57806348b3b036146200034257600080fd5b806313e7c9d811620001dc57806313e7c9d8146200024d5780631526fe27146200028457806323e1ad7d14620002ac578063244e017c14620002c357600080fd5b8063081e3eda14620002065780630ad58d2f146200021d57806310e51e141462000236575b600080fd5b6003545b6040519081526020015b60405180910390f35b620002346200022e3660046200390b565b6200051c565b005b620002346200024736600462003947565b6200064d565b620002736200025e366004620037a3565b60026020526000908152604090205460ff1681565b604051901515815260200162000214565b6200029b6200029536600462003864565b620009d5565b604051620002149392919062003af5565b62000234620002bd36600462003864565b62000a3a565b600854620002e49073ffffffffffffffffffffffffffffffffffffffff1681565b60405173ffffffffffffffffffffffffffffffffffffffff909116815260200162000214565b6200023462000b68565b6200023462000325366004620038c0565b62000cb9565b620002346200033c366004620038e8565b62000dae565b600954620002e49073ffffffffffffffffffffffffffffffffffffffff1681565b6200023462000374366004620039c0565b62000e90565b6200020a60065481565b6200020a62000395366004620037a3565b600a6020526000908152604090205481565b62000234620003b8366004620037e3565b620011e3565b62000234620012e5565b6200020a620003d936600462003898565b62001376565b60015473ffffffffffffffffffffffffffffffffffffffff16620002e4565b620002346200040f3660046200390b565b6200155b565b6200020a6200042636600462003898565b6200167c565b620002346200043d36600462003864565b62001691565b6200023462001719565b620002346200045e366004620037a3565b620017c3565b6200023462000475366004620039c0565b62001c29565b600754620002e4906301000000900473ffffffffffffffffffffffffffffffffffffffff1681565b62000234620004b4366004620038e8565b62001deb565b600754620002739060ff1681565b62000273620004d9366004620037a3565b60056020526000908152604090205460ff1681565b62000234620004ff366004620037a3565b62001ecc565b620002346200051636600462003864565b62001fff565b600260005414156200058f576040517f08c379a000000000000000000000000000000000000000000000000000000000815260206004820152601f60248201527f5265656e7472616e637947756172643a207265656e7472616e742063616c6c0060448201526064015b60405180910390fd5b60026000818155338152602091909152604090205460ff1662000634576040517f08c379a0000000000000000000000000000000000000000000000000000000008152602060048201526024808201527f4f70657261746f723a2063616c6c6572206973206e6f7420746865206f70657260448201527f61746f7200000000000000000000000000000000000000000000000000000000606482015260840162000586565b6200064183838362002088565b50506001600055505050565b60075462010000900460ff16806200066d5750600754610100900460ff16155b620006fb576040517f08c379a000000000000000000000000000000000000000000000000000000000815260206004820152602e60248201527f496e697469616c697a61626c653a20636f6e747261637420697320616c72656160448201527f647920696e697469616c697a6564000000000000000000000000000000000000606482015260840162000586565b60075462010000900460ff161580156200073d57600780547fffffffffffffffffffffffffffffffffffffffffffffffffffffffffff0000ff16620101001790555b60015473ffffffffffffffffffffffffffffffffffffffff163314620007c0576040517f08c379a000000000000000000000000000000000000000000000000000000000815260206004820181905260248201527f4f776e61626c653a2063616c6c6572206973206e6f7420746865206f776e6572604482015260640162000586565b600780547685ca967ebcf5572aaf3953bcc51635b6a02d122a0000007fffffffffffffffffff0000000000000000000000000000000000000000ffffff909116179055600880547fffffffffffffffffffffffff0000000000000000000000000000000000000000908116734b19f4755a162b0cc6990e181b474db36af9613a1790915560098054909116735ac89891aebed834cd387b9af727ad5a6a3a7fbd179055604051600090600290620008779062003795565b62000883919062003b29565b604051809103906000f080158015620008a0573d6000803e3d6000fd5b5090508073ffffffffffffffffffffffffffffffffffffffff16631268a28f8989620008e160015473ffffffffffffffffffffffffffffffffffffffff1690565b6040517fffffffff0000000000000000000000000000000000000000000000000000000060e086901b1681526004810193909352602483019190915273ffffffffffffffffffffffffffffffffffffffff9081166044830152808a166064830152808916608483015280881660a4830152861660c482015260e401600060405180830381600087803b1580156200097757600080fd5b505af11580156200098c573d6000803e3d6000fd5b505050506200099b81620017c3565b508015620009cc57600780547fffffffffffffffffffffffffffffffffffffffffffffffffffffffffff00ffff1690555b50505050505050565b60038181548110620009e657600080fd5b60009182526020909120600290910201805460019091015473ffffffffffffffffffffffffffffffffffffffff91821692509081169074010000000000000000000000000000000000000000900460ff1683565b60015473ffffffffffffffffffffffffffffffffffffffff16331462000abd576040517f08c379a000000000000000000000000000000000000000000000000000000000815260206004820181905260248201527f4f776e61626c653a2063616c6c6572206973206e6f7420746865206f776e6572604482015260640162000586565b60006003828154811062000ad55762000ad562003d04565b600091825260208220600160029092020190810154815491935062000b179273ffffffffffffffffffffffffffffffffffffffff9283169290911690620021b7565b6001810154815462000b649173ffffffffffffffffffffffffffffffffffffffff91821691167fffffffffffffffffffffffffffffffffffffffffffffffffffffffffffffffff620023cf565b5050565b60015473ffffffffffffffffffffffffffffffffffffffff16331462000beb576040517f08c379a000000000000000000000000000000000000000000000000000000000815260206004820181905260248201527f4f776e61626c653a2063616c6c6572206973206e6f7420746865206f776e6572604482015260640162000586565b60005b60035481101562000cb65760006003828154811062000c115762000c1162003d04565b600091825260208220600160029092020190810154815491935062000c539273ffffffffffffffffffffffffffffffffffffffff9283169290911690620021b7565b6001810154815462000ca09173ffffffffffffffffffffffffffffffffffffffff91821691167fffffffffffffffffffffffffffffffffffffffffffffffffffffffffffffffff620023cf565b508062000cad8162003c24565b91505062000bee565b50565b60015473ffffffffffffffffffffffffffffffffffffffff16331462000d3c576040517f08c379a000000000000000000000000000000000000000000000000000000000815260206004820181905260248201527f4f776e61626c653a2063616c6c6572206973206e6f7420746865206f776e6572604482015260640162000586565b6006829055600780547fffffffffffffffffffffffffffffffffffffffffffffffffffffffffffffff00168215159081179091556040805184815260208101929092527feba593b5bd3e604f0314995a4d3b960cc02497e58addcb6f2f5b03b3308500f4910160405180910390a15050565b6002600054141562000e1d576040517f08c379a000000000000000000000000000000000000000000000000000000000815260206004820152601f60248201527f5265656e7472616e637947756172643a207265656e7472616e742063616c6c00604482015260640162000586565b600260005560075460ff16801562000e685750600654158062000e4f57503360009081526002602052604090205460ff165b8062000e685750600654600114801562000e6857503332145b1562000e785762000e78620024ea565b62000e8582823362002088565b505060016000555050565b60015473ffffffffffffffffffffffffffffffffffffffff16331462000f13576040517f08c379a000000000000000000000000000000000000000000000000000000000815260206004820181905260248201527f4f776e61626c653a2063616c6c6572206973206e6f7420746865206f776e6572604482015260640162000586565b6000600360405162000f259062003795565b62000f31919062003b29565b604051809103906000f08015801562000f4e573d6000803e3d6000fd5b5090508073ffffffffffffffffffffffffffffffffffffffff1663ff63a736898962000f8f60015473ffffffffffffffffffffffffffffffffffffffff1690565b6040517fffffffff0000000000000000000000000000000000000000000000000000000060e086901b1681526004810193909352602483019190915273ffffffffffffffffffffffffffffffffffffffff9081166044830152808a166064830152808916608483015280881660a483015280871660c4830152851660e482015261010401600060405180830381600087803b1580156200102e57600080fd5b505af115801562001043573d6000803e3d6000fd5b505050506200105281620017c3565b600360008154811062001069576200106962003d04565b906000526020600020906002020160000160009054906101000a900473ffffffffffffffffffffffffffffffffffffffff1673ffffffffffffffffffffffffffffffffffffffff168173ffffffffffffffffffffffffffffffffffffffff1663d62e969d6040518163ffffffff1660e01b8152600401602060405180830381600087803b158015620010fa57600080fd5b505af11580156200110f573d6000803e3d6000fd5b505050506040513d601f19601f82011682018060405250810190620011359190620037c3565b73ffffffffffffffffffffffffffffffffffffffff1614620011d9576040517f08c379a0000000000000000000000000000000000000000000000000000000008152602060048201526024808201527f6d6178696d697a6572206d6178696d697a6573207468652077726f6e6720746f60448201527f6b656e2100000000000000000000000000000000000000000000000000000000606482015260840162000586565b5050505050505050565b60015473ffffffffffffffffffffffffffffffffffffffff16331462001266576040517f08c379a000000000000000000000000000000000000000000000000000000000815260206004820181905260248201527f4f776e61626c653a2063616c6c6572206973206e6f7420746865206f776e6572604482015260640162000586565b73ffffffffffffffffffffffffffffffffffffffff821660008181526002602052604080822080547fffffffffffffffffffffffffffffffffffffffffffffffffffffffffffffff001685151590811790915590519092917f966c160e1c4dbc7df8d69af4ace01e9297c3cf016397b7914971f2fbfa32672d91a35050565b60015473ffffffffffffffffffffffffffffffffffffffff16331462001368576040517f08c379a000000000000000000000000000000000000000000000000000000000815260206004820181905260248201527f4f776e61626c653a2063616c6c6572206973206e6f7420746865206f776e6572604482015260640162000586565b62001374600062002621565b565b600080600384815481106200138f576200138f62003d04565b9060005260206000209060020201905060008160010160009054906101000a900473ffffffffffffffffffffffffffffffffffffffff1673ffffffffffffffffffffffffffffffffffffffff166344a3955e6040518163ffffffff1660e01b815260040160206040518083038186803b1580156200140c57600080fd5b505afa15801562001421573d6000803e3d6000fd5b505050506040513d601f19601f820116820180604052508101906200144791906200387e565b905060006003868154811062001461576200146162003d04565b600091825260209182902060016002909202010154604080517f42da4eb3000000000000000000000000000000000000000000000000000000008152905173ffffffffffffffffffffffffffffffffffffffff909216926342da4eb392600480840193829003018186803b158015620014d957600080fd5b505afa158015620014ee573d6000803e3d6000fd5b505050506040513d601f19601f820116820180604052508101906200151491906200387e565b90508162001529576000935050505062001555565b818162001537888862002698565b62001543919062003b9b565b6200154f919062003b84565b93505050505b92915050565b60026000541415620015ca576040517f08c379a000000000000000000000000000000000000000000000000000000000815260206004820152601f60248201527f5265656e7472616e637947756172643a207265656e7472616e742063616c6c00604482015260640162000586565b60026000818155338152602091909152604090205460ff166200166f576040517f08c379a0000000000000000000000000000000000000000000000000000000008152602060048201526024808201527f4f70657261746f723a2063616c6c6572206973206e6f7420746865206f70657260448201527f61746f7200000000000000000000000000000000000000000000000000000000606482015260840162000586565b62000e8583838362002788565b60006200168a838362002698565b9392505050565b60075460ff168015620016d757506006541580620016be57503360009081526002602052604090205460ff165b80620016d757506006546001148015620016d757503332145b15620016e757620016e7620024ea565b62001714817fffffffffffffffffffffffffffffffffffffffffffffffffffffffffffffffff3362002088565b505050565b60065415806200173857503360009081526002602052604090205460ff165b8062001751575060065460011480156200175157503332145b620017b9576040517f08c379a000000000000000000000000000000000000000000000000000000000815260206004820152601960248201527f436f6d706f756e64696e67206973207265737472696374656400000000000000604482015260640162000586565b62001374620024ea565b60015473ffffffffffffffffffffffffffffffffffffffff16331462001846576040517f08c379a000000000000000000000000000000000000000000000000000000000815260206004820181905260248201527f4f776e61626c653a2063616c6c6572206973206e6f7420746865206f776e6572604482015260640162000586565b60026000541415620018b5576040517f08c379a000000000000000000000000000000000000000000000000000000000815260206004820152601f60248201527f5265656e7472616e637947756172643a207265656e7472616e742063616c6c00604482015260640162000586565b6002600090815573ffffffffffffffffffffffffffffffffffffffff821681526005602052604090205460ff16156200194b576040517f08c379a000000000000000000000000000000000000000000000000000000000815260206004820152601160248201527f4578697374696e67207374726174656779000000000000000000000000000000604482015260640162000586565b600360405180606001604052808373ffffffffffffffffffffffffffffffffffffffff1663e7a036796040518163ffffffff1660e01b815260040160206040518083038186803b1580156200199f57600080fd5b505afa158015620019b4573d6000803e3d6000fd5b505050506040513d601f19601f82011682018060405250810190620019da9190620037c3565b73ffffffffffffffffffffffffffffffffffffffff1681526020018373ffffffffffffffffffffffffffffffffffffffff1681526020018373ffffffffffffffffffffffffffffffffffffffff16637115e9fa6040518163ffffffff1660e01b8152600401602060405180830381600087803b15801562001a5a57600080fd5b505af115801562001a6f573d6000803e3d6000fd5b505050506040513d601f19601f8201168201806040525081019062001a95919062003841565b600381111562001aa95762001aa962003cd5565b905281546001818101845560009384526020938490208351600290930201805473ffffffffffffffffffffffffffffffffffffffff9384167fffffffffffffffffffffffff0000000000000000000000000000000000000000918216178255948401519181018054929093169482168517835560408401519394909392917fffffffffffffffffffffff00000000000000000000000000000000000000000016177401000000000000000000000000000000000000000083600381111562001b755762001b7562003cd5565b0217905550505073ffffffffffffffffffffffffffffffffffffffff8116600090815260056020526040902080547fffffffffffffffffffffffffffffffffffffffffffffffffffffffffffffff0016600190811790915560035462001be091620002bd9162003bdb565b60405173ffffffffffffffffffffffffffffffffffffffff8216907f8c82d670bc9247c2cfb6964089bc9cff0255f9caade6fbc74a13368083e5546690600090a2506001600055565b60015473ffffffffffffffffffffffffffffffffffffffff16331462001cac576040517f08c379a000000000000000000000000000000000000000000000000000000000815260206004820181905260248201527f4f776e61626c653a2063616c6c6572206973206e6f7420746865206f776e6572604482015260640162000586565b6000600160405162001cbe9062003795565b62001cca919062003b29565b604051809103906000f08015801562001ce7573d6000803e3d6000fd5b5090508073ffffffffffffffffffffffffffffffffffffffff1663ff63a736898962001d2860015473ffffffffffffffffffffffffffffffffffffffff1690565b6040517fffffffff0000000000000000000000000000000000000000000000000000000060e086901b1681526004810193909352602483019190915273ffffffffffffffffffffffffffffffffffffffff9081166044830152808a166064830152808916608483015280881660a483015280871660c4830152851660e482015261010401600060405180830381600087803b15801562001dc757600080fd5b505af115801562001ddc573d6000803e3d6000fd5b50505050620011d981620017c3565b6002600054141562001e5a576040517f08c379a000000000000000000000000000000000000000000000000000000000815260206004820152601f60248201527f5265656e7472616e637947756172643a207265656e7472616e742063616c6c00604482015260640162000586565b600260005560075460ff16801562001ea55750600654158062001e8c57503360009081526002602052604090205460ff165b8062001ea55750600654600114801562001ea557503332145b1562001eb55762001eb5620024ea565b62001ec282823362002788565b5050600160005550565b60015473ffffffffffffffffffffffffffffffffffffffff16331462001f4f576040517f08c379a000000000000000000000000000000000000000000000000000000000815260206004820181905260248201527f4f776e61626c653a2063616c6c6572206973206e6f7420746865206f776e6572604482015260640162000586565b73ffffffffffffffffffffffffffffffffffffffff811662001ff4576040517f08c379a000000000000000000000000000000000000000000000000000000000815260206004820152602660248201527f4f776e61626c653a206e6577206f776e657220697320746865207a65726f206160448201527f6464726573730000000000000000000000000000000000000000000000000000606482015260840162000586565b62000cb68162002621565b3360009081526005602052604090205460ff166200207a576040517f08c379a000000000000000000000000000000000000000000000000000000000815260206004820152601b60248201527f6f6e6c792063616c6c61626c6520627920737472617465676965730000000000604482015260640162000586565b62000b64600082336200293e565b6000806200209885858562002ad9565b90925090508415801590620020ad5750600082115b80156200210157506003808681548110620020cc57620020cc62003d04565b906000526020600020906002020160010160149054906101000a900460ff166003811115620020ff57620020ff62003cd5565b145b15620021af576000600386815481106200211f576200211f62003d04565b6000918252602082206001600290920201015473ffffffffffffffffffffffffffffffffffffffff16915062002156818362002698565b905060006200217f85836200216c878362003bdb565b62002178919062003b9b565b9062002fd6565b6200218b908362003bdb565b90506200219b6000848362003010565b50620021aa60008783620030fb565b505050505b935093915050565b8015806200226b57506040517fdd62ed3e00000000000000000000000000000000000000000000000000000000815230600482015273ffffffffffffffffffffffffffffffffffffffff838116602483015284169063dd62ed3e9060440160206040518083038186803b1580156200222e57600080fd5b505afa15801562002243573d6000803e3d6000fd5b505050506040513d601f19601f820116820180604052508101906200226991906200387e565b155b620022f9576040517f08c379a000000000000000000000000000000000000000000000000000000000815260206004820152603660248201527f5361666545524332303a20617070726f76652066726f6d206e6f6e2d7a65726f60448201527f20746f206e6f6e2d7a65726f20616c6c6f77616e636500000000000000000000606482015260840162000586565b60405173ffffffffffffffffffffffffffffffffffffffff8316602482015260448101829052620017149084907f095ea7b300000000000000000000000000000000000000000000000000000000906064015b604080517fffffffffffffffffffffffffffffffffffffffffffffffffffffffffffffffe08184030181529190526020810180517bffffffffffffffffffffffffffffffffffffffffffffffffffffffff167fffffffff00000000000000000000000000000000000000000000000000000000909316929092179091526200317a565b6040517fdd62ed3e00000000000000000000000000000000000000000000000000000000815230600482015273ffffffffffffffffffffffffffffffffffffffff8381166024830152600091839186169063dd62ed3e9060440160206040518083038186803b1580156200244257600080fd5b505afa15801562002457573d6000803e3d6000fd5b505050506040513d601f19601f820116820180604052508101906200247d91906200387e565b62002489919062003b69565b60405173ffffffffffffffffffffffffffffffffffffffff8516602482015260448101829052909150620024e49085907f095ea7b300000000000000000000000000000000000000000000000000000000906064016200234c565b50505050565b60035460005b8181101562000b6457600381815481106200250f576200250f62003d04565b60009182526020822060016002909202010154604080517fd389800f000000000000000000000000000000000000000000000000000000008152905173ffffffffffffffffffffffffffffffffffffffff9092169263d389800f9260048084019382900301818387803b1580156200258657600080fd5b505af192505050801562002598575060015b6200260c573d808015620025c9576040519150601f19603f3d011682016040523d82523d6000602084013e620025ce565b606091505b507fae452807c2b0698ea0d198e28dab35283cbb33b5ffd82a4dc799e21279d0a63082826040516200260292919062003b4e565b60405180910390a1505b80620026188162003c24565b915050620024f0565b6001805473ffffffffffffffffffffffffffffffffffffffff8381167fffffffffffffffffffffffff0000000000000000000000000000000000000000831681179093556040519116919082907f8be0079c531659141344cd1fd0a4f28419497f9722a3daafe3b4186f6b6457e090600090a35050565b73ffffffffffffffffffffffffffffffffffffffff811660009081527f17ef568e3e12ab5b9c7254a8d58478811de00f9e6eb34345acd53bf8fd09d3ec60205260409020548215801562002712575073ffffffffffffffffffffffffffffffffffffffff821660009081526005602052604090205460ff16155b15620015555760015b60035481101562002755576200273281846200328d565b6200273e908362003b69565b9150806200274c8162003c24565b9150506200271b565b5073ffffffffffffffffffffffffffffffffffffffff82166000908152600a60205260409020546200168a908262003bdb565b60008060038581548110620027a157620027a162003d04565b906000526020600020906002020160010160009054906101000a900473ffffffffffffffffffffffffffffffffffffffff16905060008173ffffffffffffffffffffffffffffffffffffffff166344a3955e6040518163ffffffff1660e01b815260040160206040518083038186803b1580156200281e57600080fd5b505afa15801562002833573d6000803e3d6000fd5b505050506040513d601f19601f820116820180604052508101906200285991906200387e565b9050620028688686866200293e565b92506000861180156200287b5750600081115b8015620028cf575060038087815481106200289a576200289a62003d04565b906000526020600020906002020160010160149054906101000a900460ff166003811115620028cd57620028cd62003cd5565b145b1562002935576000620028e460008462002698565b90506000816200290684620028fa888262003b69565b62002178908662003b9b565b62002912919062003bdb565b90506200292260008583620030fb565b50620029316000878362003010565b5050505b50509392505050565b6000806003858154811062002957576200295762003d04565b90600052602060002090600202019050600084111562002a7f578054620029979073ffffffffffffffffffffffffffffffffffffffff16333087620034b0565b60038581548110620029ad57620029ad62003d04565b60009182526020909120600290910201600101546040517f47e7ef2400000000000000000000000000000000000000000000000000000000815273ffffffffffffffffffffffffffffffffffffffff858116600483015260248201879052909116906347e7ef2490604401602060405180830381600087803b15801562002a3357600080fd5b505af115801562002a48573d6000803e3d6000fd5b505050506040513d601f19601f8201168201806040525081019062002a6e91906200387e565b915062002a7d858484620030fb565b505b848373ffffffffffffffffffffffffffffffffffffffff167f90890809c654f11d6e72a28fa60149770a0d11ec6c92319d6ceb2bb0a4ea1a158660405162002ac991815260200190565b60405180910390a3509392505050565b60008060006003868154811062002af45762002af462003d04565b90600052602060002090600202019050600062002b12873362002698565b905060006003888154811062002b2c5762002b2c62003d04565b600091825260209182902060016002909202010154604080517f42da4eb3000000000000000000000000000000000000000000000000000000008152905173ffffffffffffffffffffffffffffffffffffffff909216926342da4eb392600480840193829003018186803b15801562002ba457600080fd5b505afa15801562002bb9573d6000803e3d6000fd5b505050506040513d601f19601f8201168201806040525081019062002bdf91906200387e565b90506003888154811062002bf75762002bf762003d04565b600091825260209182902060016002909202010154604080517f44a3955e000000000000000000000000000000000000000000000000000000008152905173ffffffffffffffffffffffffffffffffffffffff909216926344a3955e92600480840193829003018186803b15801562002c6f57600080fd5b505afa15801562002c84573d6000803e3d6000fd5b505050506040513d601f19601f8201168201806040525081019062002caa91906200387e565b94506000821162002d18576040517f08c379a000000000000000000000000000000000000000000000000000000000815260206004820152600f60248201527f7573657253686172657320697320300000000000000000000000000000000000604482015260640162000586565b6000851162002d84576040517f08c379a000000000000000000000000000000000000000000000000000000000815260206004820152601060248201527f736861726573546f74616c206973203000000000000000000000000000000000604482015260640162000586565b60008562002d93838562003b9b565b62002d9f919062003b84565b90508088111562002dae578097505b871562002f93576003898154811062002dcb5762002dcb62003d04565b60009182526020909120600290910201600101546040517ff3fef3a3000000000000000000000000000000000000000000000000000000008152336004820152602481018a905273ffffffffffffffffffffffffffffffffffffffff9091169063f3fef3a390604401602060405180830381600087803b15801562002e4f57600080fd5b505af115801562002e64573d6000803e3d6000fd5b505050506040513d601f19601f8201168201806040525081019062002e8a91906200387e565b94508285111562002ea95762002ea289338562003010565b5062002eb8565b62002eb689338762003010565b505b83546040517f70a0823100000000000000000000000000000000000000000000000000000000815230600482015260009173ffffffffffffffffffffffffffffffffffffffff16906370a082319060240160206040518083038186803b15801562002f2257600080fd5b505afa15801562002f37573d6000803e3d6000fd5b505050506040513d601f19601f8201168201806040525081019062002f5d91906200387e565b90508881101562002f6c578098505b845462002f919073ffffffffffffffffffffffffffffffffffffffff16898b62003510565b505b604051888152899033907ff279e6a1f5e320cca91135676d9cb6e44ca8a08c0b88342bcdb1144f6511b5689060200160405180910390a350505050935093915050565b600062002fe4828462003c60565b1562002ff257600162002ff5565b60005b60ff1662003004838562003b84565b6200168a919062003b69565b60008315801562003047575073ffffffffffffffffffffffffffffffffffffffff831660009081526005602052604090205460ff16155b801562003097575073ffffffffffffffffffffffffffffffffffffffff831660009081527f17ef568e3e12ab5b9c7254a8d58478811de00f9e6eb34345acd53bf8fd09d3ec602052604090205482115b15620030ee5773ffffffffffffffffffffffffffffffffffffffff83166000908152600a602052604081208054849290620030d490849062003b69565b90915550620030e69050848462002698565b90506200168a565b620030e684848462003568565b600083815260046020908152604080832073ffffffffffffffffffffffffffffffffffffffff861684529091528120805483919083906200313e90849062003b69565b90915550505060009283525060046020908152604080842073ffffffffffffffffffffffffffffffffffffffff93909316845291905290205490565b6000620031de826040518060400160405280602081526020017f5361666545524332303a206c6f772d6c6576656c2063616c6c206661696c65648152508573ffffffffffffffffffffffffffffffffffffffff16620035ab9092919063ffffffff16565b805190915015620017145780806020019051810190620031ff919062003821565b62001714576040517f08c379a000000000000000000000000000000000000000000000000000000000815260206004820152602a60248201527f5361666545524332303a204552433230206f7065726174696f6e20646964206e60448201527f6f74207375636365656400000000000000000000000000000000000000000000606482015260840162000586565b60008083118015620032a0575060035483105b6200332e576040517f08c379a000000000000000000000000000000000000000000000000000000000815260206004820152603060248201527f5661756c744865616c65724d6178693a20636f726553686172657346726f6d4d60448201527f6178696d697a6572206261642070696400000000000000000000000000000000606482015260840162000586565b600380848154811062003345576200334562003d04565b906000526020600020906002020160010160149054906101000a900460ff16600381111562003378576200337862003cd5565b14620033875750600062001555565b600062003395848462002698565b9050600060038581548110620033af57620033af62003d04565b906000526020600020906002020160010160009054906101000a900473ffffffffffffffffffffffffffffffffffffffff16905060008173ffffffffffffffffffffffffffffffffffffffff166344a3955e6040518163ffffffff1660e01b815260040160206040518083038186803b1580156200342c57600080fd5b505afa15801562003441573d6000803e3d6000fd5b505050506040513d601f19601f820116820180604052508101906200346791906200387e565b9050806200347c576000935050505062001555565b60006200348a878462002698565b90508162003499828662003b9b565b620034a5919062003b84565b979650505050505050565b60405173ffffffffffffffffffffffffffffffffffffffff80851660248301528316604482015260648101829052620024e49085907f23b872dd00000000000000000000000000000000000000000000000000000000906084016200234c565b60405173ffffffffffffffffffffffffffffffffffffffff8316602482015260448101829052620017149084907fa9059cbb00000000000000000000000000000000000000000000000000000000906064016200234c565b600083815260046020908152604080832073ffffffffffffffffffffffffffffffffffffffff861684529091528120805483919083906200313e90849062003bdb565b6060620035bc8484600085620035c4565b949350505050565b60608247101562003658576040517f08c379a000000000000000000000000000000000000000000000000000000000815260206004820152602660248201527f416464726573733a20696e73756666696369656e742062616c616e636520666f60448201527f722063616c6c0000000000000000000000000000000000000000000000000000606482015260840162000586565b843b620036c2576040517f08c379a000000000000000000000000000000000000000000000000000000000815260206004820152601d60248201527f416464726573733a2063616c6c20746f206e6f6e2d636f6e7472616374000000604482015260640162000586565b6000808673ffffffffffffffffffffffffffffffffffffffff168587604051620036ed919062003ad7565b60006040518083038185875af1925050503d80600081146200372c576040519150601f19603f3d011682016040523d82523d6000602084013e62003731565b606091505b5091509150620034a5828286606083156200374e5750816200168a565b8251156200375f5782518084602001fd5b816040517f08c379a000000000000000000000000000000000000000000000000000000000815260040162000586919062003b39565b61047a8062003d6683390190565b600060208284031215620037b657600080fd5b81356200168a8162003d33565b600060208284031215620037d657600080fd5b81516200168a8162003d33565b60008060408385031215620037f757600080fd5b8235620038048162003d33565b91506020830135620038168162003d56565b809150509250929050565b6000602082840312156200383457600080fd5b81516200168a8162003d56565b6000602082840312156200385457600080fd5b8151600481106200168a57600080fd5b6000602082840312156200387757600080fd5b5035919050565b6000602082840312156200389157600080fd5b5051919050565b60008060408385031215620038ac57600080fd5b823591506020830135620038168162003d33565b60008060408385031215620038d457600080fd5b823591506020830135620038168162003d56565b60008060408385031215620038fc57600080fd5b50508035926020909101359150565b6000806000606084860312156200392157600080fd5b833592506020840135915060408401356200393c8162003d33565b809150509250925092565b60008060008060008060c087890312156200396157600080fd5b863595506020870135945060408701356200397c8162003d33565b935060608701356200398e8162003d33565b92506080870135620039a08162003d33565b915060a0870135620039b28162003d33565b809150509295509295509295565b600080600080600080600060e0888a031215620039dc57600080fd5b87359650602088013595506040880135620039f78162003d33565b9450606088013562003a098162003d33565b9350608088013562003a1b8162003d33565b925060a088013562003a2d8162003d33565b915060c088013562003a3f8162003d33565b8091505092959891949750929550565b6000815180845262003a6981602086016020860162003bf5565b601f017fffffffffffffffffffffffffffffffffffffffffffffffffffffffffffffffe0169290920160200192915050565b6004811062003ad3577f4e487b7100000000000000000000000000000000000000000000000000000000600052602160045260246000fd5b9052565b6000825162003aeb81846020870162003bf5565b9190910192915050565b73ffffffffffffffffffffffffffffffffffffffff84811682528316602082015260608101620035bc604083018462003a9b565b6020810162001555828462003a9b565b6020815260006200168a602083018462003a4f565b828152604060208201526000620035bc604083018462003a4f565b6000821982111562003b7f5762003b7f62003c77565b500190565b60008262003b965762003b9662003ca6565b500490565b6000817fffffffffffffffffffffffffffffffffffffffffffffffffffffffffffffffff048311821515161562003bd65762003bd662003c77565b500290565b60008282101562003bf05762003bf062003c77565b500390565b60005b8381101562003c1257818101518382015260200162003bf8565b83811115620024e45750506000910152565b60007fffffffffffffffffffffffffffffffffffffffffffffffffffffffffffffffff82141562003c595762003c5962003c77565b5060010190565b60008262003c725762003c7262003ca6565b500690565b7f4e487b7100000000000000000000000000000000000000000000000000000000600052601160045260246000fd5b7f4e487b7100000000000000000000000000000000000000000000000000000000600052601260045260246000fd5b7f4e487b7100000000000000000000000000000000000000000000000000000000600052602160045260246000fd5b7f4e487b7100000000000000000000000000000000000000000000000000000000600052603260045260246000fd5b73ffffffffffffffffffffffffffffffffffffffff8116811462000cb657600080fd5b801515811462000cb657600080fdfe608060405234801561001057600080fd5b5060405161047a38038061047a83398101604081905261002f916100c2565b6000816003811115610043576100436100ea565b14156100805760405162461bcd60e51b8152602060048201526008602482015267594120424153494360c01b604482015260640160405180910390fd5b6000805482919060ff60a01b1916600160a01b8360038111156100a5576100a56100ea565b021790555050600080546001600160a01b03191633179055610100565b6000602082840312156100d457600080fd5b8151600481106100e357600080fd5b9392505050565b634e487b7160e01b600052602160045260246000fd5b61036b8061010f6000396000f3fe60806040523661001357610011610017565b005b6100115b610027610022610029565b6102a5565b565b6000600160005474010000000000000000000000000000000000000000900460ff16600381111561005c5761005c610306565b14156101055760008054906101000a900473ffffffffffffffffffffffffffffffffffffffff1673ffffffffffffffffffffffffffffffffffffffff1663244e017c6040518163ffffffff1660e01b815260040160206040518083038186803b1580156100c857600080fd5b505afa1580156100dc573d6000803e3d6000fd5b505050506040513d601f19601f8201168201806040525081019061010091906102c9565b905090565b600260005474010000000000000000000000000000000000000000900460ff16600381111561013657610136610306565b14156101a25760008054906101000a900473ffffffffffffffffffffffffffffffffffffffff1673ffffffffffffffffffffffffffffffffffffffff1663de1c6ff06040518163ffffffff1660e01b815260040160206040518083038186803b1580156100c857600080fd5b600360005474010000000000000000000000000000000000000000900460ff1660038111156101d3576101d3610306565b141561023f5760008054906101000a900473ffffffffffffffffffffffffffffffffffffffff1673ffffffffffffffffffffffffffffffffffffffff166348b3b0366040518163ffffffff1660e01b815260040160206040518083038186803b1580156100c857600080fd5b6040517f08c379a000000000000000000000000000000000000000000000000000000000815260206004820152601160248201527f4e6f20696d706c656d656e746174696f6e000000000000000000000000000000604482015260640160405180910390fd5b3660008037600080366000845af43d6000803e8080156102c4573d6000f35b3d6000fd5b6000602082840312156102db57600080fd5b815173ffffffffffffffffffffffffffffffffffffffff811681146102ff57600080fd5b9392505050565b7f4e487b7100000000000000000000000000000000000000000000000000000000600052602160045260246000fdfea2646970667358221220e96e3f8305feb2c990d720726efdb9df3fa4f481eb232d6806f0d50d74a1121b64736f6c63430008070033a26469706673582212201a5c492b979285c3538f59eca4b6a18f9aecd929fcd621673df5fa9527e7e2a464736f6c63430008070033",
			"opcodes": "PUSH1 0x80 PUSH1 0x40 MSTORE PUSH1 0x1 PUSH1 0x6 DUP2 SWAP1 SSTORE PUSH1 0x7 DUP1 SLOAD PUSH1 0xFF NOT AND SWAP1 SWAP2 OR SWAP1 SSTORE CALLVALUE DUP1 ISZERO PUSH3 0x25 JUMPI PUSH1 0x0 DUP1 REVERT JUMPDEST POP PUSH1 0x1 PUSH1 0x0 SSTORE PUSH3 0x36 CALLER PUSH3 0x3C JUMP JUMPDEST PUSH3 0x8E JUMP JUMPDEST PUSH1 0x1 DUP1 SLOAD PUSH1 0x1 PUSH1 0x1 PUSH1 0xA0 SHL SUB DUP4 DUP2 AND PUSH1 0x1 PUSH1 0x1 PUSH1 0xA0 SHL SUB NOT DUP4 AND DUP2 OR SWAP1 SWAP4 SSTORE PUSH1 0x40 MLOAD SWAP2 AND SWAP2 SWAP1 DUP3 SWAP1 PUSH32 0x8BE0079C531659141344CD1FD0A4F28419497F9722A3DAAFE3B4186F6B6457E0 SWAP1 PUSH1 0x0 SWAP1 LOG3 POP POP JUMP JUMPDEST PUSH2 0x4215 DUP1 PUSH3 0x9E PUSH1 0x0 CODECOPY PUSH1 0x0 RETURN INVALID PUSH1 0x80 PUSH1 0x40 MSTORE CALLVALUE DUP1 ISZERO PUSH3 0x11 JUMPI PUSH1 0x0 DUP1 REVERT JUMPDEST POP PUSH1 0x4 CALLDATASIZE LT PUSH3 0x201 JUMPI PUSH1 0x0 CALLDATALOAD PUSH1 0xE0 SHR DUP1 PUSH4 0x715018A6 GT PUSH3 0x119 JUMPI DUP1 PUSH4 0xD914CD4B GT PUSH3 0xAF JUMPI DUP1 PUSH4 0xE2FF2F47 GT PUSH3 0x7A JUMPI DUP1 PUSH4 0xE2FF2F47 EQ PUSH3 0x4BA JUMPI DUP1 PUSH4 0xE718D129 EQ PUSH3 0x4C8 JUMPI DUP1 PUSH4 0xF2FDE38B EQ PUSH3 0x4EE JUMPI DUP1 PUSH4 0xFC77C9DB EQ PUSH3 0x505 JUMPI PUSH1 0x0 DUP1 REVERT JUMPDEST DUP1 PUSH4 0xD914CD4B EQ PUSH3 0x44D JUMPI DUP1 PUSH4 0xD9B40AEF EQ PUSH3 0x464 JUMPI DUP1 PUSH4 0xDE1C6FF0 EQ PUSH3 0x47B JUMPI DUP1 PUSH4 0xE2BBB158 EQ PUSH3 0x4A3 JUMPI PUSH1 0x0 DUP1 REVERT JUMPDEST DUP1 PUSH4 0x8DBDBE6D GT PUSH3 0xF0 JUMPI DUP1 PUSH4 0x8DBDBE6D EQ PUSH3 0x3FE JUMPI DUP1 PUSH4 0x93F1A40B EQ PUSH3 0x415 JUMPI DUP1 PUSH4 0x958E2D31 EQ PUSH3 0x42C JUMPI DUP1 PUSH4 0x9B05DDB3 EQ PUSH3 0x443 JUMPI PUSH1 0x0 DUP1 REVERT JUMPDEST DUP1 PUSH4 0x715018A6 EQ PUSH3 0x3BE JUMPI DUP1 PUSH4 0x7B84DAEC EQ PUSH3 0x3C8 JUMPI DUP1 PUSH4 0x8DA5CB5B EQ PUSH3 0x3DF JUMPI PUSH1 0x0 DUP1 REVERT JUMPDEST DUP1 PUSH4 0x3505B09F GT PUSH3 0x19B JUMPI DUP1 PUSH4 0x4C2077AB GT PUSH3 0x166 JUMPI DUP1 PUSH4 0x4C2077AB EQ PUSH3 0x363 JUMPI DUP1 PUSH4 0x5D142D07 EQ PUSH3 0x37A JUMPI DUP1 PUSH4 0x69B5525D EQ PUSH3 0x384 JUMPI DUP1 PUSH4 0x6D44A3B2 EQ PUSH3 0x3A7 JUMPI PUSH1 0x0 DUP1 REVERT JUMPDEST DUP1 PUSH4 0x3505B09F EQ PUSH3 0x30A JUMPI DUP1 PUSH4 0x3D4FC8D1 EQ PUSH3 0x314 JUMPI DUP1 PUSH4 0x441A3E70 EQ PUSH3 0x32B JUMPI DUP1 PUSH4 0x48B3B036 EQ PUSH3 0x342 JUMPI PUSH1 0x0 DUP1 REVERT JUMPDEST DUP1 PUSH4 0x13E7C9D8 GT PUSH3 0x1DC JUMPI DUP1 PUSH4 0x13E7C9D8 EQ PUSH3 0x24D JUMPI DUP1 PUSH4 0x1526FE27 EQ PUSH3 0x284 JUMPI DUP1 PUSH4 0x23E1AD7D EQ PUSH3 0x2AC JUMPI DUP1 PUSH4 0x244E017C EQ PUSH3 0x2C3 JUMPI PUSH1 0x0 DUP1 REVERT JUMPDEST DUP1 PUSH4 0x81E3EDA EQ PUSH3 0x206 JUMPI DUP1 PUSH4 0xAD58D2F EQ PUSH3 0x21D JUMPI DUP1 PUSH4 0x10E51E14 EQ PUSH3 0x236 JUMPI JUMPDEST PUSH1 0x0 DUP1 REVERT JUMPDEST PUSH1 0x3 SLOAD JUMPDEST PUSH1 0x40 MLOAD SWAP1 DUP2 MSTORE PUSH1 0x20 ADD JUMPDEST PUSH1 0x40 MLOAD DUP1 SWAP2 SUB SWAP1 RETURN JUMPDEST PUSH3 0x234 PUSH3 0x22E CALLDATASIZE PUSH1 0x4 PUSH3 0x390B JUMP JUMPDEST PUSH3 0x51C JUMP JUMPDEST STOP JUMPDEST PUSH3 0x234 PUSH3 0x247 CALLDATASIZE PUSH1 0x4 PUSH3 0x3947 JUMP JUMPDEST PUSH3 0x64D JUMP JUMPDEST PUSH3 0x273 PUSH3 0x25E CALLDATASIZE PUSH1 0x4 PUSH3 0x37A3 JUMP JUMPDEST PUSH1 0x2 PUSH1 0x20 MSTORE PUSH1 0x0 SWAP1 DUP2 MSTORE PUSH1 0x40 SWAP1 KECCAK256 SLOAD PUSH1 0xFF AND DUP2 JUMP JUMPDEST PUSH1 0x40 MLOAD SWAP1 ISZERO ISZERO DUP2 MSTORE PUSH1 0x20 ADD PUSH3 0x214 JUMP JUMPDEST PUSH3 0x29B PUSH3 0x295 CALLDATASIZE PUSH1 0x4 PUSH3 0x3864 JUMP JUMPDEST PUSH3 0x9D5 JUMP JUMPDEST PUSH1 0x40 MLOAD PUSH3 0x214 SWAP4 SWAP3 SWAP2 SWAP1 PUSH3 0x3AF5 JUMP JUMPDEST PUSH3 0x234 PUSH3 0x2BD CALLDATASIZE PUSH1 0x4 PUSH3 0x3864 JUMP JUMPDEST PUSH3 0xA3A JUMP JUMPDEST PUSH1 0x8 SLOAD PUSH3 0x2E4 SWAP1 PUSH20 0xFFFFFFFFFFFFFFFFFFFFFFFFFFFFFFFFFFFFFFFF AND DUP2 JUMP JUMPDEST PUSH1 0x40 MLOAD PUSH20 0xFFFFFFFFFFFFFFFFFFFFFFFFFFFFFFFFFFFFFFFF SWAP1 SWAP2 AND DUP2 MSTORE PUSH1 0x20 ADD PUSH3 0x214 JUMP JUMPDEST PUSH3 0x234 PUSH3 0xB68 JUMP JUMPDEST PUSH3 0x234 PUSH3 0x325 CALLDATASIZE PUSH1 0x4 PUSH3 0x38C0 JUMP JUMPDEST PUSH3 0xCB9 JUMP JUMPDEST PUSH3 0x234 PUSH3 0x33C CALLDATASIZE PUSH1 0x4 PUSH3 0x38E8 JUMP JUMPDEST PUSH3 0xDAE JUMP JUMPDEST PUSH1 0x9 SLOAD PUSH3 0x2E4 SWAP1 PUSH20 0xFFFFFFFFFFFFFFFFFFFFFFFFFFFFFFFFFFFFFFFF AND DUP2 JUMP JUMPDEST PUSH3 0x234 PUSH3 0x374 CALLDATASIZE PUSH1 0x4 PUSH3 0x39C0 JUMP JUMPDEST PUSH3 0xE90 JUMP JUMPDEST PUSH3 0x20A PUSH1 0x6 SLOAD DUP2 JUMP JUMPDEST PUSH3 0x20A PUSH3 0x395 CALLDATASIZE PUSH1 0x4 PUSH3 0x37A3 JUMP JUMPDEST PUSH1 0xA PUSH1 0x20 MSTORE PUSH1 0x0 SWAP1 DUP2 MSTORE PUSH1 0x40 SWAP1 KECCAK256 SLOAD DUP2 JUMP JUMPDEST PUSH3 0x234 PUSH3 0x3B8 CALLDATASIZE PUSH1 0x4 PUSH3 0x37E3 JUMP JUMPDEST PUSH3 0x11E3 JUMP JUMPDEST PUSH3 0x234 PUSH3 0x12E5 JUMP JUMPDEST PUSH3 0x20A PUSH3 0x3D9 CALLDATASIZE PUSH1 0x4 PUSH3 0x3898 JUMP JUMPDEST PUSH3 0x1376 JUMP JUMPDEST PUSH1 0x1 SLOAD PUSH20 0xFFFFFFFFFFFFFFFFFFFFFFFFFFFFFFFFFFFFFFFF AND PUSH3 0x2E4 JUMP JUMPDEST PUSH3 0x234 PUSH3 0x40F CALLDATASIZE PUSH1 0x4 PUSH3 0x390B JUMP JUMPDEST PUSH3 0x155B JUMP JUMPDEST PUSH3 0x20A PUSH3 0x426 CALLDATASIZE PUSH1 0x4 PUSH3 0x3898 JUMP JUMPDEST PUSH3 0x167C JUMP JUMPDEST PUSH3 0x234 PUSH3 0x43D CALLDATASIZE PUSH1 0x4 PUSH3 0x3864 JUMP JUMPDEST PUSH3 0x1691 JUMP JUMPDEST PUSH3 0x234 PUSH3 0x1719 JUMP JUMPDEST PUSH3 0x234 PUSH3 0x45E CALLDATASIZE PUSH1 0x4 PUSH3 0x37A3 JUMP JUMPDEST PUSH3 0x17C3 JUMP JUMPDEST PUSH3 0x234 PUSH3 0x475 CALLDATASIZE PUSH1 0x4 PUSH3 0x39C0 JUMP JUMPDEST PUSH3 0x1C29 JUMP JUMPDEST PUSH1 0x7 SLOAD PUSH3 0x2E4 SWAP1 PUSH4 0x1000000 SWAP1 DIV PUSH20 0xFFFFFFFFFFFFFFFFFFFFFFFFFFFFFFFFFFFFFFFF AND DUP2 JUMP JUMPDEST PUSH3 0x234 PUSH3 0x4B4 CALLDATASIZE PUSH1 0x4 PUSH3 0x38E8 JUMP JUMPDEST PUSH3 0x1DEB JUMP JUMPDEST PUSH1 0x7 SLOAD PUSH3 0x273 SWAP1 PUSH1 0xFF AND DUP2 JUMP JUMPDEST PUSH3 0x273 PUSH3 0x4D9 CALLDATASIZE PUSH1 0x4 PUSH3 0x37A3 JUMP JUMPDEST PUSH1 0x5 PUSH1 0x20 MSTORE PUSH1 0x0 SWAP1 DUP2 MSTORE PUSH1 0x40 SWAP1 KECCAK256 SLOAD PUSH1 0xFF AND DUP2 JUMP JUMPDEST PUSH3 0x234 PUSH3 0x4FF CALLDATASIZE PUSH1 0x4 PUSH3 0x37A3 JUMP JUMPDEST PUSH3 0x1ECC JUMP JUMPDEST PUSH3 0x234 PUSH3 0x516 CALLDATASIZE PUSH1 0x4 PUSH3 0x3864 JUMP JUMPDEST PUSH3 0x1FFF JUMP JUMPDEST PUSH1 0x2 PUSH1 0x0 SLOAD EQ ISZERO PUSH3 0x58F JUMPI PUSH1 0x40 MLOAD PUSH32 0x8C379A000000000000000000000000000000000000000000000000000000000 DUP2 MSTORE PUSH1 0x20 PUSH1 0x4 DUP3 ADD MSTORE PUSH1 0x1F PUSH1 0x24 DUP3 ADD MSTORE PUSH32 0x5265656E7472616E637947756172643A207265656E7472616E742063616C6C00 PUSH1 0x44 DUP3 ADD MSTORE PUSH1 0x64 ADD JUMPDEST PUSH1 0x40 MLOAD DUP1 SWAP2 SUB SWAP1 REVERT JUMPDEST PUSH1 0x2 PUSH1 0x0 DUP2 DUP2 SSTORE CALLER DUP2 MSTORE PUSH1 0x20 SWAP2 SWAP1 SWAP2 MSTORE PUSH1 0x40 SWAP1 KECCAK256 SLOAD PUSH1 0xFF AND PUSH3 0x634 JUMPI PUSH1 0x40 MLOAD PUSH32 0x8C379A000000000000000000000000000000000000000000000000000000000 DUP2 MSTORE PUSH1 0x20 PUSH1 0x4 DUP3 ADD MSTORE PUSH1 0x24 DUP1 DUP3 ADD MSTORE PUSH32 0x4F70657261746F723A2063616C6C6572206973206E6F7420746865206F706572 PUSH1 0x44 DUP3 ADD MSTORE PUSH32 0x61746F7200000000000000000000000000000000000000000000000000000000 PUSH1 0x64 DUP3 ADD MSTORE PUSH1 0x84 ADD PUSH3 0x586 JUMP JUMPDEST PUSH3 0x641 DUP4 DUP4 DUP4 PUSH3 0x2088 JUMP JUMPDEST POP POP PUSH1 0x1 PUSH1 0x0 SSTORE POP POP POP JUMP JUMPDEST PUSH1 0x7 SLOAD PUSH3 0x10000 SWAP1 DIV PUSH1 0xFF AND DUP1 PUSH3 0x66D JUMPI POP PUSH1 0x7 SLOAD PUSH2 0x100 SWAP1 DIV PUSH1 0xFF AND ISZERO JUMPDEST PUSH3 0x6FB JUMPI PUSH1 0x40 MLOAD PUSH32 0x8C379A000000000000000000000000000000000000000000000000000000000 DUP2 MSTORE PUSH1 0x20 PUSH1 0x4 DUP3 ADD MSTORE PUSH1 0x2E PUSH1 0x24 DUP3 ADD MSTORE PUSH32 0x496E697469616C697A61626C653A20636F6E747261637420697320616C726561 PUSH1 0x44 DUP3 ADD MSTORE PUSH32 0x647920696E697469616C697A6564000000000000000000000000000000000000 PUSH1 0x64 DUP3 ADD MSTORE PUSH1 0x84 ADD PUSH3 0x586 JUMP JUMPDEST PUSH1 0x7 SLOAD PUSH3 0x10000 SWAP1 DIV PUSH1 0xFF AND ISZERO DUP1 ISZERO PUSH3 0x73D JUMPI PUSH1 0x7 DUP1 SLOAD PUSH32 0xFFFFFFFFFFFFFFFFFFFFFFFFFFFFFFFFFFFFFFFFFFFFFFFFFFFFFFFFFF0000FF AND PUSH3 0x10100 OR SWAP1 SSTORE JUMPDEST PUSH1 0x1 SLOAD PUSH20 0xFFFFFFFFFFFFFFFFFFFFFFFFFFFFFFFFFFFFFFFF AND CALLER EQ PUSH3 0x7C0 JUMPI PUSH1 0x40 MLOAD PUSH32 0x8C379A000000000000000000000000000000000000000000000000000000000 DUP2 MSTORE PUSH1 0x20 PUSH1 0x4 DUP3 ADD DUP2 SWAP1 MSTORE PUSH1 0x24 DUP3 ADD MSTORE PUSH32 0x4F776E61626C653A2063616C6C6572206973206E6F7420746865206F776E6572 PUSH1 0x44 DUP3 ADD MSTORE PUSH1 0x64 ADD PUSH3 0x586 JUMP JUMPDEST PUSH1 0x7 DUP1 SLOAD PUSH23 0x85CA967EBCF5572AAF3953BCC51635B6A02D122A000000 PUSH32 0xFFFFFFFFFFFFFFFFFF0000000000000000000000000000000000000000FFFFFF SWAP1 SWAP2 AND OR SWAP1 SSTORE PUSH1 0x8 DUP1 SLOAD PUSH32 0xFFFFFFFFFFFFFFFFFFFFFFFF0000000000000000000000000000000000000000 SWAP1 DUP2 AND PUSH20 0x4B19F4755A162B0CC6990E181B474DB36AF9613A OR SWAP1 SWAP2 SSTORE PUSH1 0x9 DUP1 SLOAD SWAP1 SWAP2 AND PUSH20 0x5AC89891AEBED834CD387B9AF727AD5A6A3A7FBD OR SWAP1 SSTORE PUSH1 0x40 MLOAD PUSH1 0x0 SWAP1 PUSH1 0x2 SWAP1 PUSH3 0x877 SWAP1 PUSH3 0x3795 JUMP JUMPDEST PUSH3 0x883 SWAP2 SWAP1 PUSH3 0x3B29 JUMP JUMPDEST PUSH1 0x40 MLOAD DUP1 SWAP2 SUB SWAP1 PUSH1 0x0 CREATE DUP1 ISZERO DUP1 ISZERO PUSH3 0x8A0 JUMPI RETURNDATASIZE PUSH1 0x0 DUP1 RETURNDATACOPY RETURNDATASIZE PUSH1 0x0 REVERT JUMPDEST POP SWAP1 POP DUP1 PUSH20 0xFFFFFFFFFFFFFFFFFFFFFFFFFFFFFFFFFFFFFFFF AND PUSH4 0x1268A28F DUP10 DUP10 PUSH3 0x8E1 PUSH1 0x1 SLOAD PUSH20 0xFFFFFFFFFFFFFFFFFFFFFFFFFFFFFFFFFFFFFFFF AND SWAP1 JUMP JUMPDEST PUSH1 0x40 MLOAD PUSH32 0xFFFFFFFF00000000000000000000000000000000000000000000000000000000 PUSH1 0xE0 DUP7 SWAP1 SHL AND DUP2 MSTORE PUSH1 0x4 DUP2 ADD SWAP4 SWAP1 SWAP4 MSTORE PUSH1 0x24 DUP4 ADD SWAP2 SWAP1 SWAP2 MSTORE PUSH20 0xFFFFFFFFFFFFFFFFFFFFFFFFFFFFFFFFFFFFFFFF SWAP1 DUP2 AND PUSH1 0x44 DUP4 ADD MSTORE DUP1 DUP11 AND PUSH1 0x64 DUP4 ADD MSTORE DUP1 DUP10 AND PUSH1 0x84 DUP4 ADD MSTORE DUP1 DUP9 AND PUSH1 0xA4 DUP4 ADD MSTORE DUP7 AND PUSH1 0xC4 DUP3 ADD MSTORE PUSH1 0xE4 ADD PUSH1 0x0 PUSH1 0x40 MLOAD DUP1 DUP4 SUB DUP2 PUSH1 0x0 DUP8 DUP1 EXTCODESIZE ISZERO DUP1 ISZERO PUSH3 0x977 JUMPI PUSH1 0x0 DUP1 REVERT JUMPDEST POP GAS CALL ISZERO DUP1 ISZERO PUSH3 0x98C JUMPI RETURNDATASIZE PUSH1 0x0 DUP1 RETURNDATACOPY RETURNDATASIZE PUSH1 0x0 REVERT JUMPDEST POP POP POP POP PUSH3 0x99B DUP2 PUSH3 0x17C3 JUMP JUMPDEST POP DUP1 ISZERO PUSH3 0x9CC JUMPI PUSH1 0x7 DUP1 SLOAD PUSH32 0xFFFFFFFFFFFFFFFFFFFFFFFFFFFFFFFFFFFFFFFFFFFFFFFFFFFFFFFFFF00FFFF AND SWAP1 SSTORE JUMPDEST POP POP POP POP POP POP POP JUMP JUMPDEST PUSH1 0x3 DUP2 DUP2 SLOAD DUP2 LT PUSH3 0x9E6 JUMPI PUSH1 0x0 DUP1 REVERT JUMPDEST PUSH1 0x0 SWAP2 DUP3 MSTORE PUSH1 0x20 SWAP1 SWAP2 KECCAK256 PUSH1 0x2 SWAP1 SWAP2 MUL ADD DUP1 SLOAD PUSH1 0x1 SWAP1 SWAP2 ADD SLOAD PUSH20 0xFFFFFFFFFFFFFFFFFFFFFFFFFFFFFFFFFFFFFFFF SWAP2 DUP3 AND SWAP3 POP SWAP1 DUP2 AND SWAP1 PUSH21 0x10000000000000000000000000000000000000000 SWAP1 DIV PUSH1 0xFF AND DUP4 JUMP JUMPDEST PUSH1 0x1 SLOAD PUSH20 0xFFFFFFFFFFFFFFFFFFFFFFFFFFFFFFFFFFFFFFFF AND CALLER EQ PUSH3 0xABD JUMPI PUSH1 0x40 MLOAD PUSH32 0x8C379A000000000000000000000000000000000000000000000000000000000 DUP2 MSTORE PUSH1 0x20 PUSH1 0x4 DUP3 ADD DUP2 SWAP1 MSTORE PUSH1 0x24 DUP3 ADD MSTORE PUSH32 0x4F776E61626C653A2063616C6C6572206973206E6F7420746865206F776E6572 PUSH1 0x44 DUP3 ADD MSTORE PUSH1 0x64 ADD PUSH3 0x586 JUMP JUMPDEST PUSH1 0x0 PUSH1 0x3 DUP3 DUP2 SLOAD DUP2 LT PUSH3 0xAD5 JUMPI PUSH3 0xAD5 PUSH3 0x3D04 JUMP JUMPDEST PUSH1 0x0 SWAP2 DUP3 MSTORE PUSH1 0x20 DUP3 KECCAK256 PUSH1 0x1 PUSH1 0x2 SWAP1 SWAP3 MUL ADD SWAP1 DUP2 ADD SLOAD DUP2 SLOAD SWAP2 SWAP4 POP PUSH3 0xB17 SWAP3 PUSH20 0xFFFFFFFFFFFFFFFFFFFFFFFFFFFFFFFFFFFFFFFF SWAP3 DUP4 AND SWAP3 SWAP1 SWAP2 AND SWAP1 PUSH3 0x21B7 JUMP JUMPDEST PUSH1 0x1 DUP2 ADD SLOAD DUP2 SLOAD PUSH3 0xB64 SWAP2 PUSH20 0xFFFFFFFFFFFFFFFFFFFFFFFFFFFFFFFFFFFFFFFF SWAP2 DUP3 AND SWAP2 AND PUSH32 0xFFFFFFFFFFFFFFFFFFFFFFFFFFFFFFFFFFFFFFFFFFFFFFFFFFFFFFFFFFFFFFFF PUSH3 0x23CF JUMP JUMPDEST POP POP JUMP JUMPDEST PUSH1 0x1 SLOAD PUSH20 0xFFFFFFFFFFFFFFFFFFFFFFFFFFFFFFFFFFFFFFFF AND CALLER EQ PUSH3 0xBEB JUMPI PUSH1 0x40 MLOAD PUSH32 0x8C379A000000000000000000000000000000000000000000000000000000000 DUP2 MSTORE PUSH1 0x20 PUSH1 0x4 DUP3 ADD DUP2 SWAP1 MSTORE PUSH1 0x24 DUP3 ADD MSTORE PUSH32 0x4F776E61626C653A2063616C6C6572206973206E6F7420746865206F776E6572 PUSH1 0x44 DUP3 ADD MSTORE PUSH1 0x64 ADD PUSH3 0x586 JUMP JUMPDEST PUSH1 0x0 JUMPDEST PUSH1 0x3 SLOAD DUP2 LT ISZERO PUSH3 0xCB6 JUMPI PUSH1 0x0 PUSH1 0x3 DUP3 DUP2 SLOAD DUP2 LT PUSH3 0xC11 JUMPI PUSH3 0xC11 PUSH3 0x3D04 JUMP JUMPDEST PUSH1 0x0 SWAP2 DUP3 MSTORE PUSH1 0x20 DUP3 KECCAK256 PUSH1 0x1 PUSH1 0x2 SWAP1 SWAP3 MUL ADD SWAP1 DUP2 ADD SLOAD DUP2 SLOAD SWAP2 SWAP4 POP PUSH3 0xC53 SWAP3 PUSH20 0xFFFFFFFFFFFFFFFFFFFFFFFFFFFFFFFFFFFFFFFF SWAP3 DUP4 AND SWAP3 SWAP1 SWAP2 AND SWAP1 PUSH3 0x21B7 JUMP JUMPDEST PUSH1 0x1 DUP2 ADD SLOAD DUP2 SLOAD PUSH3 0xCA0 SWAP2 PUSH20 0xFFFFFFFFFFFFFFFFFFFFFFFFFFFFFFFFFFFFFFFF SWAP2 DUP3 AND SWAP2 AND PUSH32 0xFFFFFFFFFFFFFFFFFFFFFFFFFFFFFFFFFFFFFFFFFFFFFFFFFFFFFFFFFFFFFFFF PUSH3 0x23CF JUMP JUMPDEST POP DUP1 PUSH3 0xCAD DUP2 PUSH3 0x3C24 JUMP JUMPDEST SWAP2 POP POP PUSH3 0xBEE JUMP JUMPDEST POP JUMP JUMPDEST PUSH1 0x1 SLOAD PUSH20 0xFFFFFFFFFFFFFFFFFFFFFFFFFFFFFFFFFFFFFFFF AND CALLER EQ PUSH3 0xD3C JUMPI PUSH1 0x40 MLOAD PUSH32 0x8C379A000000000000000000000000000000000000000000000000000000000 DUP2 MSTORE PUSH1 0x20 PUSH1 0x4 DUP3 ADD DUP2 SWAP1 MSTORE PUSH1 0x24 DUP3 ADD MSTORE PUSH32 0x4F776E61626C653A2063616C6C6572206973206E6F7420746865206F776E6572 PUSH1 0x44 DUP3 ADD MSTORE PUSH1 0x64 ADD PUSH3 0x586 JUMP JUMPDEST PUSH1 0x6 DUP3 SWAP1 SSTORE PUSH1 0x7 DUP1 SLOAD PUSH32 0xFFFFFFFFFFFFFFFFFFFFFFFFFFFFFFFFFFFFFFFFFFFFFFFFFFFFFFFFFFFFFF00 AND DUP3 ISZERO ISZERO SWAP1 DUP2 OR SWAP1 SWAP2 SSTORE PUSH1 0x40 DUP1 MLOAD DUP5 DUP2 MSTORE PUSH1 0x20 DUP2 ADD SWAP3 SWAP1 SWAP3 MSTORE PUSH32 0xEBA593B5BD3E604F0314995A4D3B960CC02497E58ADDCB6F2F5B03B3308500F4 SWAP2 ADD PUSH1 0x40 MLOAD DUP1 SWAP2 SUB SWAP1 LOG1 POP POP JUMP JUMPDEST PUSH1 0x2 PUSH1 0x0 SLOAD EQ ISZERO PUSH3 0xE1D JUMPI PUSH1 0x40 MLOAD PUSH32 0x8C379A000000000000000000000000000000000000000000000000000000000 DUP2 MSTORE PUSH1 0x20 PUSH1 0x4 DUP3 ADD MSTORE PUSH1 0x1F PUSH1 0x24 DUP3 ADD MSTORE PUSH32 0x5265656E7472616E637947756172643A207265656E7472616E742063616C6C00 PUSH1 0x44 DUP3 ADD MSTORE PUSH1 0x64 ADD PUSH3 0x586 JUMP JUMPDEST PUSH1 0x2 PUSH1 0x0 SSTORE PUSH1 0x7 SLOAD PUSH1 0xFF AND DUP1 ISZERO PUSH3 0xE68 JUMPI POP PUSH1 0x6 SLOAD ISZERO DUP1 PUSH3 0xE4F JUMPI POP CALLER PUSH1 0x0 SWAP1 DUP2 MSTORE PUSH1 0x2 PUSH1 0x20 MSTORE PUSH1 0x40 SWAP1 KECCAK256 SLOAD PUSH1 0xFF AND JUMPDEST DUP1 PUSH3 0xE68 JUMPI POP PUSH1 0x6 SLOAD PUSH1 0x1 EQ DUP1 ISZERO PUSH3 0xE68 JUMPI POP CALLER ORIGIN EQ JUMPDEST ISZERO PUSH3 0xE78 JUMPI PUSH3 0xE78 PUSH3 0x24EA JUMP JUMPDEST PUSH3 0xE85 DUP3 DUP3 CALLER PUSH3 0x2088 JUMP JUMPDEST POP POP PUSH1 0x1 PUSH1 0x0 SSTORE POP POP JUMP JUMPDEST PUSH1 0x1 SLOAD PUSH20 0xFFFFFFFFFFFFFFFFFFFFFFFFFFFFFFFFFFFFFFFF AND CALLER EQ PUSH3 0xF13 JUMPI PUSH1 0x40 MLOAD PUSH32 0x8C379A000000000000000000000000000000000000000000000000000000000 DUP2 MSTORE PUSH1 0x20 PUSH1 0x4 DUP3 ADD DUP2 SWAP1 MSTORE PUSH1 0x24 DUP3 ADD MSTORE PUSH32 0x4F776E61626C653A2063616C6C6572206973206E6F7420746865206F776E6572 PUSH1 0x44 DUP3 ADD MSTORE PUSH1 0x64 ADD PUSH3 0x586 JUMP JUMPDEST PUSH1 0x0 PUSH1 0x3 PUSH1 0x40 MLOAD PUSH3 0xF25 SWAP1 PUSH3 0x3795 JUMP JUMPDEST PUSH3 0xF31 SWAP2 SWAP1 PUSH3 0x3B29 JUMP JUMPDEST PUSH1 0x40 MLOAD DUP1 SWAP2 SUB SWAP1 PUSH1 0x0 CREATE DUP1 ISZERO DUP1 ISZERO PUSH3 0xF4E JUMPI RETURNDATASIZE PUSH1 0x0 DUP1 RETURNDATACOPY RETURNDATASIZE PUSH1 0x0 REVERT JUMPDEST POP SWAP1 POP DUP1 PUSH20 0xFFFFFFFFFFFFFFFFFFFFFFFFFFFFFFFFFFFFFFFF AND PUSH4 0xFF63A736 DUP10 DUP10 PUSH3 0xF8F PUSH1 0x1 SLOAD PUSH20 0xFFFFFFFFFFFFFFFFFFFFFFFFFFFFFFFFFFFFFFFF AND SWAP1 JUMP JUMPDEST PUSH1 0x40 MLOAD PUSH32 0xFFFFFFFF00000000000000000000000000000000000000000000000000000000 PUSH1 0xE0 DUP7 SWAP1 SHL AND DUP2 MSTORE PUSH1 0x4 DUP2 ADD SWAP4 SWAP1 SWAP4 MSTORE PUSH1 0x24 DUP4 ADD SWAP2 SWAP1 SWAP2 MSTORE PUSH20 0xFFFFFFFFFFFFFFFFFFFFFFFFFFFFFFFFFFFFFFFF SWAP1 DUP2 AND PUSH1 0x44 DUP4 ADD MSTORE DUP1 DUP11 AND PUSH1 0x64 DUP4 ADD MSTORE DUP1 DUP10 AND PUSH1 0x84 DUP4 ADD MSTORE DUP1 DUP9 AND PUSH1 0xA4 DUP4 ADD MSTORE DUP1 DUP8 AND PUSH1 0xC4 DUP4 ADD MSTORE DUP6 AND PUSH1 0xE4 DUP3 ADD MSTORE PUSH2 0x104 ADD PUSH1 0x0 PUSH1 0x40 MLOAD DUP1 DUP4 SUB DUP2 PUSH1 0x0 DUP8 DUP1 EXTCODESIZE ISZERO DUP1 ISZERO PUSH3 0x102E JUMPI PUSH1 0x0 DUP1 REVERT JUMPDEST POP GAS CALL ISZERO DUP1 ISZERO PUSH3 0x1043 JUMPI RETURNDATASIZE PUSH1 0x0 DUP1 RETURNDATACOPY RETURNDATASIZE PUSH1 0x0 REVERT JUMPDEST POP POP POP POP PUSH3 0x1052 DUP2 PUSH3 0x17C3 JUMP JUMPDEST PUSH1 0x3 PUSH1 0x0 DUP2 SLOAD DUP2 LT PUSH3 0x1069 JUMPI PUSH3 0x1069 PUSH3 0x3D04 JUMP JUMPDEST SWAP1 PUSH1 0x0 MSTORE PUSH1 0x20 PUSH1 0x0 KECCAK256 SWAP1 PUSH1 0x2 MUL ADD PUSH1 0x0 ADD PUSH1 0x0 SWAP1 SLOAD SWAP1 PUSH2 0x100 EXP SWAP1 DIV PUSH20 0xFFFFFFFFFFFFFFFFFFFFFFFFFFFFFFFFFFFFFFFF AND PUSH20 0xFFFFFFFFFFFFFFFFFFFFFFFFFFFFFFFFFFFFFFFF AND DUP2 PUSH20 0xFFFFFFFFFFFFFFFFFFFFFFFFFFFFFFFFFFFFFFFF AND PUSH4 0xD62E969D PUSH1 0x40 MLOAD DUP2 PUSH4 0xFFFFFFFF AND PUSH1 0xE0 SHL DUP2 MSTORE PUSH1 0x4 ADD PUSH1 0x20 PUSH1 0x40 MLOAD DUP1 DUP4 SUB DUP2 PUSH1 0x0 DUP8 DUP1 EXTCODESIZE ISZERO DUP1 ISZERO PUSH3 0x10FA JUMPI PUSH1 0x0 DUP1 REVERT JUMPDEST POP GAS CALL ISZERO DUP1 ISZERO PUSH3 0x110F JUMPI RETURNDATASIZE PUSH1 0x0 DUP1 RETURNDATACOPY RETURNDATASIZE PUSH1 0x0 REVERT JUMPDEST POP POP POP POP PUSH1 0x40 MLOAD RETURNDATASIZE PUSH1 0x1F NOT PUSH1 0x1F DUP3 ADD AND DUP3 ADD DUP1 PUSH1 0x40 MSTORE POP DUP2 ADD SWAP1 PUSH3 0x1135 SWAP2 SWAP1 PUSH3 0x37C3 JUMP JUMPDEST PUSH20 0xFFFFFFFFFFFFFFFFFFFFFFFFFFFFFFFFFFFFFFFF AND EQ PUSH3 0x11D9 JUMPI PUSH1 0x40 MLOAD PUSH32 0x8C379A000000000000000000000000000000000000000000000000000000000 DUP2 MSTORE PUSH1 0x20 PUSH1 0x4 DUP3 ADD MSTORE PUSH1 0x24 DUP1 DUP3 ADD MSTORE PUSH32 0x6D6178696D697A6572206D6178696D697A6573207468652077726F6E6720746F PUSH1 0x44 DUP3 ADD MSTORE PUSH32 0x6B656E2100000000000000000000000000000000000000000000000000000000 PUSH1 0x64 DUP3 ADD MSTORE PUSH1 0x84 ADD PUSH3 0x586 JUMP JUMPDEST POP POP POP POP POP POP POP POP JUMP JUMPDEST PUSH1 0x1 SLOAD PUSH20 0xFFFFFFFFFFFFFFFFFFFFFFFFFFFFFFFFFFFFFFFF AND CALLER EQ PUSH3 0x1266 JUMPI PUSH1 0x40 MLOAD PUSH32 0x8C379A000000000000000000000000000000000000000000000000000000000 DUP2 MSTORE PUSH1 0x20 PUSH1 0x4 DUP3 ADD DUP2 SWAP1 MSTORE PUSH1 0x24 DUP3 ADD MSTORE PUSH32 0x4F776E61626C653A2063616C6C6572206973206E6F7420746865206F776E6572 PUSH1 0x44 DUP3 ADD MSTORE PUSH1 0x64 ADD PUSH3 0x586 JUMP JUMPDEST PUSH20 0xFFFFFFFFFFFFFFFFFFFFFFFFFFFFFFFFFFFFFFFF DUP3 AND PUSH1 0x0 DUP2 DUP2 MSTORE PUSH1 0x2 PUSH1 0x20 MSTORE PUSH1 0x40 DUP1 DUP3 KECCAK256 DUP1 SLOAD PUSH32 0xFFFFFFFFFFFFFFFFFFFFFFFFFFFFFFFFFFFFFFFFFFFFFFFFFFFFFFFFFFFFFF00 AND DUP6 ISZERO ISZERO SWAP1 DUP2 OR SWAP1 SWAP2 SSTORE SWAP1 MLOAD SWAP1 SWAP3 SWAP2 PUSH32 0x966C160E1C4DBC7DF8D69AF4ACE01E9297C3CF016397B7914971F2FBFA32672D SWAP2 LOG3 POP POP JUMP JUMPDEST PUSH1 0x1 SLOAD PUSH20 0xFFFFFFFFFFFFFFFFFFFFFFFFFFFFFFFFFFFFFFFF AND CALLER EQ PUSH3 0x1368 JUMPI PUSH1 0x40 MLOAD PUSH32 0x8C379A000000000000000000000000000000000000000000000000000000000 DUP2 MSTORE PUSH1 0x20 PUSH1 0x4 DUP3 ADD DUP2 SWAP1 MSTORE PUSH1 0x24 DUP3 ADD MSTORE PUSH32 0x4F776E61626C653A2063616C6C6572206973206E6F7420746865206F776E6572 PUSH1 0x44 DUP3 ADD MSTORE PUSH1 0x64 ADD PUSH3 0x586 JUMP JUMPDEST PUSH3 0x1374 PUSH1 0x0 PUSH3 0x2621 JUMP JUMPDEST JUMP JUMPDEST PUSH1 0x0 DUP1 PUSH1 0x3 DUP5 DUP2 SLOAD DUP2 LT PUSH3 0x138F JUMPI PUSH3 0x138F PUSH3 0x3D04 JUMP JUMPDEST SWAP1 PUSH1 0x0 MSTORE PUSH1 0x20 PUSH1 0x0 KECCAK256 SWAP1 PUSH1 0x2 MUL ADD SWAP1 POP PUSH1 0x0 DUP2 PUSH1 0x1 ADD PUSH1 0x0 SWAP1 SLOAD SWAP1 PUSH2 0x100 EXP SWAP1 DIV PUSH20 0xFFFFFFFFFFFFFFFFFFFFFFFFFFFFFFFFFFFFFFFF AND PUSH20 0xFFFFFFFFFFFFFFFFFFFFFFFFFFFFFFFFFFFFFFFF AND PUSH4 0x44A3955E PUSH1 0x40 MLOAD DUP2 PUSH4 0xFFFFFFFF AND PUSH1 0xE0 SHL DUP2 MSTORE PUSH1 0x4 ADD PUSH1 0x20 PUSH1 0x40 MLOAD DUP1 DUP4 SUB DUP2 DUP7 DUP1 EXTCODESIZE ISZERO DUP1 ISZERO PUSH3 0x140C JUMPI PUSH1 0x0 DUP1 REVERT JUMPDEST POP GAS STATICCALL ISZERO DUP1 ISZERO PUSH3 0x1421 JUMPI RETURNDATASIZE PUSH1 0x0 DUP1 RETURNDATACOPY RETURNDATASIZE PUSH1 0x0 REVERT JUMPDEST POP POP POP POP PUSH1 0x40 MLOAD RETURNDATASIZE PUSH1 0x1F NOT PUSH1 0x1F DUP3 ADD AND DUP3 ADD DUP1 PUSH1 0x40 MSTORE POP DUP2 ADD SWAP1 PUSH3 0x1447 SWAP2 SWAP1 PUSH3 0x387E JUMP JUMPDEST SWAP1 POP PUSH1 0x0 PUSH1 0x3 DUP7 DUP2 SLOAD DUP2 LT PUSH3 0x1461 JUMPI PUSH3 0x1461 PUSH3 0x3D04 JUMP JUMPDEST PUSH1 0x0 SWAP2 DUP3 MSTORE PUSH1 0x20 SWAP2 DUP3 SWAP1 KECCAK256 PUSH1 0x1 PUSH1 0x2 SWAP1 SWAP3 MUL ADD ADD SLOAD PUSH1 0x40 DUP1 MLOAD PUSH32 0x42DA4EB300000000000000000000000000000000000000000000000000000000 DUP2 MSTORE SWAP1 MLOAD PUSH20 0xFFFFFFFFFFFFFFFFFFFFFFFFFFFFFFFFFFFFFFFF SWAP1 SWAP3 AND SWAP3 PUSH4 0x42DA4EB3 SWAP3 PUSH1 0x4 DUP1 DUP5 ADD SWAP4 DUP3 SWAP1 SUB ADD DUP2 DUP7 DUP1 EXTCODESIZE ISZERO DUP1 ISZERO PUSH3 0x14D9 JUMPI PUSH1 0x0 DUP1 REVERT JUMPDEST POP GAS STATICCALL ISZERO DUP1 ISZERO PUSH3 0x14EE JUMPI RETURNDATASIZE PUSH1 0x0 DUP1 RETURNDATACOPY RETURNDATASIZE PUSH1 0x0 REVERT JUMPDEST POP POP POP POP PUSH1 0x40 MLOAD RETURNDATASIZE PUSH1 0x1F NOT PUSH1 0x1F DUP3 ADD AND DUP3 ADD DUP1 PUSH1 0x40 MSTORE POP DUP2 ADD SWAP1 PUSH3 0x1514 SWAP2 SWAP1 PUSH3 0x387E JUMP JUMPDEST SWAP1 POP DUP2 PUSH3 0x1529 JUMPI PUSH1 0x0 SWAP4 POP POP POP POP PUSH3 0x1555 JUMP JUMPDEST DUP2 DUP2 PUSH3 0x1537 DUP9 DUP9 PUSH3 0x2698 JUMP JUMPDEST PUSH3 0x1543 SWAP2 SWAP1 PUSH3 0x3B9B JUMP JUMPDEST PUSH3 0x154F SWAP2 SWAP1 PUSH3 0x3B84 JUMP JUMPDEST SWAP4 POP POP POP POP JUMPDEST SWAP3 SWAP2 POP POP JUMP JUMPDEST PUSH1 0x2 PUSH1 0x0 SLOAD EQ ISZERO PUSH3 0x15CA JUMPI PUSH1 0x40 MLOAD PUSH32 0x8C379A000000000000000000000000000000000000000000000000000000000 DUP2 MSTORE PUSH1 0x20 PUSH1 0x4 DUP3 ADD MSTORE PUSH1 0x1F PUSH1 0x24 DUP3 ADD MSTORE PUSH32 0x5265656E7472616E637947756172643A207265656E7472616E742063616C6C00 PUSH1 0x44 DUP3 ADD MSTORE PUSH1 0x64 ADD PUSH3 0x586 JUMP JUMPDEST PUSH1 0x2 PUSH1 0x0 DUP2 DUP2 SSTORE CALLER DUP2 MSTORE PUSH1 0x20 SWAP2 SWAP1 SWAP2 MSTORE PUSH1 0x40 SWAP1 KECCAK256 SLOAD PUSH1 0xFF AND PUSH3 0x166F JUMPI PUSH1 0x40 MLOAD PUSH32 0x8C379A000000000000000000000000000000000000000000000000000000000 DUP2 MSTORE PUSH1 0x20 PUSH1 0x4 DUP3 ADD MSTORE PUSH1 0x24 DUP1 DUP3 ADD MSTORE PUSH32 0x4F70657261746F723A2063616C6C6572206973206E6F7420746865206F706572 PUSH1 0x44 DUP3 ADD MSTORE PUSH32 0x61746F7200000000000000000000000000000000000000000000000000000000 PUSH1 0x64 DUP3 ADD MSTORE PUSH1 0x84 ADD PUSH3 0x586 JUMP JUMPDEST PUSH3 0xE85 DUP4 DUP4 DUP4 PUSH3 0x2788 JUMP JUMPDEST PUSH1 0x0 PUSH3 0x168A DUP4 DUP4 PUSH3 0x2698 JUMP JUMPDEST SWAP4 SWAP3 POP POP POP JUMP JUMPDEST PUSH1 0x7 SLOAD PUSH1 0xFF AND DUP1 ISZERO PUSH3 0x16D7 JUMPI POP PUSH1 0x6 SLOAD ISZERO DUP1 PUSH3 0x16BE JUMPI POP CALLER PUSH1 0x0 SWAP1 DUP2 MSTORE PUSH1 0x2 PUSH1 0x20 MSTORE PUSH1 0x40 SWAP1 KECCAK256 SLOAD PUSH1 0xFF AND JUMPDEST DUP1 PUSH3 0x16D7 JUMPI POP PUSH1 0x6 SLOAD PUSH1 0x1 EQ DUP1 ISZERO PUSH3 0x16D7 JUMPI POP CALLER ORIGIN EQ JUMPDEST ISZERO PUSH3 0x16E7 JUMPI PUSH3 0x16E7 PUSH3 0x24EA JUMP JUMPDEST PUSH3 0x1714 DUP2 PUSH32 0xFFFFFFFFFFFFFFFFFFFFFFFFFFFFFFFFFFFFFFFFFFFFFFFFFFFFFFFFFFFFFFFF CALLER PUSH3 0x2088 JUMP JUMPDEST POP POP POP JUMP JUMPDEST PUSH1 0x6 SLOAD ISZERO DUP1 PUSH3 0x1738 JUMPI POP CALLER PUSH1 0x0 SWAP1 DUP2 MSTORE PUSH1 0x2 PUSH1 0x20 MSTORE PUSH1 0x40 SWAP1 KECCAK256 SLOAD PUSH1 0xFF AND JUMPDEST DUP1 PUSH3 0x1751 JUMPI POP PUSH1 0x6 SLOAD PUSH1 0x1 EQ DUP1 ISZERO PUSH3 0x1751 JUMPI POP CALLER ORIGIN EQ JUMPDEST PUSH3 0x17B9 JUMPI PUSH1 0x40 MLOAD PUSH32 0x8C379A000000000000000000000000000000000000000000000000000000000 DUP2 MSTORE PUSH1 0x20 PUSH1 0x4 DUP3 ADD MSTORE PUSH1 0x19 PUSH1 0x24 DUP3 ADD MSTORE PUSH32 0x436F6D706F756E64696E67206973207265737472696374656400000000000000 PUSH1 0x44 DUP3 ADD MSTORE PUSH1 0x64 ADD PUSH3 0x586 JUMP JUMPDEST PUSH3 0x1374 PUSH3 0x24EA JUMP JUMPDEST PUSH1 0x1 SLOAD PUSH20 0xFFFFFFFFFFFFFFFFFFFFFFFFFFFFFFFFFFFFFFFF AND CALLER EQ PUSH3 0x1846 JUMPI PUSH1 0x40 MLOAD PUSH32 0x8C379A000000000000000000000000000000000000000000000000000000000 DUP2 MSTORE PUSH1 0x20 PUSH1 0x4 DUP3 ADD DUP2 SWAP1 MSTORE PUSH1 0x24 DUP3 ADD MSTORE PUSH32 0x4F776E61626C653A2063616C6C6572206973206E6F7420746865206F776E6572 PUSH1 0x44 DUP3 ADD MSTORE PUSH1 0x64 ADD PUSH3 0x586 JUMP JUMPDEST PUSH1 0x2 PUSH1 0x0 SLOAD EQ ISZERO PUSH3 0x18B5 JUMPI PUSH1 0x40 MLOAD PUSH32 0x8C379A000000000000000000000000000000000000000000000000000000000 DUP2 MSTORE PUSH1 0x20 PUSH1 0x4 DUP3 ADD MSTORE PUSH1 0x1F PUSH1 0x24 DUP3 ADD MSTORE PUSH32 0x5265656E7472616E637947756172643A207265656E7472616E742063616C6C00 PUSH1 0x44 DUP3 ADD MSTORE PUSH1 0x64 ADD PUSH3 0x586 JUMP JUMPDEST PUSH1 0x2 PUSH1 0x0 SWAP1 DUP2 SSTORE PUSH20 0xFFFFFFFFFFFFFFFFFFFFFFFFFFFFFFFFFFFFFFFF DUP3 AND DUP2 MSTORE PUSH1 0x5 PUSH1 0x20 MSTORE PUSH1 0x40 SWAP1 KECCAK256 SLOAD PUSH1 0xFF AND ISZERO PUSH3 0x194B JUMPI PUSH1 0x40 MLOAD PUSH32 0x8C379A000000000000000000000000000000000000000000000000000000000 DUP2 MSTORE PUSH1 0x20 PUSH1 0x4 DUP3 ADD MSTORE PUSH1 0x11 PUSH1 0x24 DUP3 ADD MSTORE PUSH32 0x4578697374696E67207374726174656779000000000000000000000000000000 PUSH1 0x44 DUP3 ADD MSTORE PUSH1 0x64 ADD PUSH3 0x586 JUMP JUMPDEST PUSH1 0x3 PUSH1 0x40 MLOAD DUP1 PUSH1 0x60 ADD PUSH1 0x40 MSTORE DUP1 DUP4 PUSH20 0xFFFFFFFFFFFFFFFFFFFFFFFFFFFFFFFFFFFFFFFF AND PUSH4 0xE7A03679 PUSH1 0x40 MLOAD DUP2 PUSH4 0xFFFFFFFF AND PUSH1 0xE0 SHL DUP2 MSTORE PUSH1 0x4 ADD PUSH1 0x20 PUSH1 0x40 MLOAD DUP1 DUP4 SUB DUP2 DUP7 DUP1 EXTCODESIZE ISZERO DUP1 ISZERO PUSH3 0x199F JUMPI PUSH1 0x0 DUP1 REVERT JUMPDEST POP GAS STATICCALL ISZERO DUP1 ISZERO PUSH3 0x19B4 JUMPI RETURNDATASIZE PUSH1 0x0 DUP1 RETURNDATACOPY RETURNDATASIZE PUSH1 0x0 REVERT JUMPDEST POP POP POP POP PUSH1 0x40 MLOAD RETURNDATASIZE PUSH1 0x1F NOT PUSH1 0x1F DUP3 ADD AND DUP3 ADD DUP1 PUSH1 0x40 MSTORE POP DUP2 ADD SWAP1 PUSH3 0x19DA SWAP2 SWAP1 PUSH3 0x37C3 JUMP JUMPDEST PUSH20 0xFFFFFFFFFFFFFFFFFFFFFFFFFFFFFFFFFFFFFFFF AND DUP2 MSTORE PUSH1 0x20 ADD DUP4 PUSH20 0xFFFFFFFFFFFFFFFFFFFFFFFFFFFFFFFFFFFFFFFF AND DUP2 MSTORE PUSH1 0x20 ADD DUP4 PUSH20 0xFFFFFFFFFFFFFFFFFFFFFFFFFFFFFFFFFFFFFFFF AND PUSH4 0x7115E9FA PUSH1 0x40 MLOAD DUP2 PUSH4 0xFFFFFFFF AND PUSH1 0xE0 SHL DUP2 MSTORE PUSH1 0x4 ADD PUSH1 0x20 PUSH1 0x40 MLOAD DUP1 DUP4 SUB DUP2 PUSH1 0x0 DUP8 DUP1 EXTCODESIZE ISZERO DUP1 ISZERO PUSH3 0x1A5A JUMPI PUSH1 0x0 DUP1 REVERT JUMPDEST POP GAS CALL ISZERO DUP1 ISZERO PUSH3 0x1A6F JUMPI RETURNDATASIZE PUSH1 0x0 DUP1 RETURNDATACOPY RETURNDATASIZE PUSH1 0x0 REVERT JUMPDEST POP POP POP POP PUSH1 0x40 MLOAD RETURNDATASIZE PUSH1 0x1F NOT PUSH1 0x1F DUP3 ADD AND DUP3 ADD DUP1 PUSH1 0x40 MSTORE POP DUP2 ADD SWAP1 PUSH3 0x1A95 SWAP2 SWAP1 PUSH3 0x3841 JUMP JUMPDEST PUSH1 0x3 DUP2 GT ISZERO PUSH3 0x1AA9 JUMPI PUSH3 0x1AA9 PUSH3 0x3CD5 JUMP JUMPDEST SWAP1 MSTORE DUP2 SLOAD PUSH1 0x1 DUP2 DUP2 ADD DUP5 SSTORE PUSH1 0x0 SWAP4 DUP5 MSTORE PUSH1 0x20 SWAP4 DUP5 SWAP1 KECCAK256 DUP4 MLOAD PUSH1 0x2 SWAP1 SWAP4 MUL ADD DUP1 SLOAD PUSH20 0xFFFFFFFFFFFFFFFFFFFFFFFFFFFFFFFFFFFFFFFF SWAP4 DUP5 AND PUSH32 0xFFFFFFFFFFFFFFFFFFFFFFFF0000000000000000000000000000000000000000 SWAP2 DUP3 AND OR DUP3 SSTORE SWAP5 DUP5 ADD MLOAD SWAP2 DUP2 ADD DUP1 SLOAD SWAP3 SWAP1 SWAP4 AND SWAP5 DUP3 AND DUP6 OR DUP4 SSTORE PUSH1 0x40 DUP5 ADD MLOAD SWAP4 SWAP5 SWAP1 SWAP4 SWAP3 SWAP2 PUSH32 0xFFFFFFFFFFFFFFFFFFFFFF000000000000000000000000000000000000000000 AND OR PUSH21 0x10000000000000000000000000000000000000000 DUP4 PUSH1 0x3 DUP2 GT ISZERO PUSH3 0x1B75 JUMPI PUSH3 0x1B75 PUSH3 0x3CD5 JUMP JUMPDEST MUL OR SWAP1 SSTORE POP POP POP PUSH20 0xFFFFFFFFFFFFFFFFFFFFFFFFFFFFFFFFFFFFFFFF DUP2 AND PUSH1 0x0 SWAP1 DUP2 MSTORE PUSH1 0x5 PUSH1 0x20 MSTORE PUSH1 0x40 SWAP1 KECCAK256 DUP1 SLOAD PUSH32 0xFFFFFFFFFFFFFFFFFFFFFFFFFFFFFFFFFFFFFFFFFFFFFFFFFFFFFFFFFFFFFF00 AND PUSH1 0x1 SWAP1 DUP2 OR SWAP1 SWAP2 SSTORE PUSH1 0x3 SLOAD PUSH3 0x1BE0 SWAP2 PUSH3 0x2BD SWAP2 PUSH3 0x3BDB JUMP JUMPDEST PUSH1 0x40 MLOAD PUSH20 0xFFFFFFFFFFFFFFFFFFFFFFFFFFFFFFFFFFFFFFFF DUP3 AND SWAP1 PUSH32 0x8C82D670BC9247C2CFB6964089BC9CFF0255F9CAADE6FBC74A13368083E55466 SWAP1 PUSH1 0x0 SWAP1 LOG2 POP PUSH1 0x1 PUSH1 0x0 SSTORE JUMP JUMPDEST PUSH1 0x1 SLOAD PUSH20 0xFFFFFFFFFFFFFFFFFFFFFFFFFFFFFFFFFFFFFFFF AND CALLER EQ PUSH3 0x1CAC JUMPI PUSH1 0x40 MLOAD PUSH32 0x8C379A000000000000000000000000000000000000000000000000000000000 DUP2 MSTORE PUSH1 0x20 PUSH1 0x4 DUP3 ADD DUP2 SWAP1 MSTORE PUSH1 0x24 DUP3 ADD MSTORE PUSH32 0x4F776E61626C653A2063616C6C6572206973206E6F7420746865206F776E6572 PUSH1 0x44 DUP3 ADD MSTORE PUSH1 0x64 ADD PUSH3 0x586 JUMP JUMPDEST PUSH1 0x0 PUSH1 0x1 PUSH1 0x40 MLOAD PUSH3 0x1CBE SWAP1 PUSH3 0x3795 JUMP JUMPDEST PUSH3 0x1CCA SWAP2 SWAP1 PUSH3 0x3B29 JUMP JUMPDEST PUSH1 0x40 MLOAD DUP1 SWAP2 SUB SWAP1 PUSH1 0x0 CREATE DUP1 ISZERO DUP1 ISZERO PUSH3 0x1CE7 JUMPI RETURNDATASIZE PUSH1 0x0 DUP1 RETURNDATACOPY RETURNDATASIZE PUSH1 0x0 REVERT JUMPDEST POP SWAP1 POP DUP1 PUSH20 0xFFFFFFFFFFFFFFFFFFFFFFFFFFFFFFFFFFFFFFFF AND PUSH4 0xFF63A736 DUP10 DUP10 PUSH3 0x1D28 PUSH1 0x1 SLOAD PUSH20 0xFFFFFFFFFFFFFFFFFFFFFFFFFFFFFFFFFFFFFFFF AND SWAP1 JUMP JUMPDEST PUSH1 0x40 MLOAD PUSH32 0xFFFFFFFF00000000000000000000000000000000000000000000000000000000 PUSH1 0xE0 DUP7 SWAP1 SHL AND DUP2 MSTORE PUSH1 0x4 DUP2 ADD SWAP4 SWAP1 SWAP4 MSTORE PUSH1 0x24 DUP4 ADD SWAP2 SWAP1 SWAP2 MSTORE PUSH20 0xFFFFFFFFFFFFFFFFFFFFFFFFFFFFFFFFFFFFFFFF SWAP1 DUP2 AND PUSH1 0x44 DUP4 ADD MSTORE DUP1 DUP11 AND PUSH1 0x64 DUP4 ADD MSTORE DUP1 DUP10 AND PUSH1 0x84 DUP4 ADD MSTORE DUP1 DUP9 AND PUSH1 0xA4 DUP4 ADD MSTORE DUP1 DUP8 AND PUSH1 0xC4 DUP4 ADD MSTORE DUP6 AND PUSH1 0xE4 DUP3 ADD MSTORE PUSH2 0x104 ADD PUSH1 0x0 PUSH1 0x40 MLOAD DUP1 DUP4 SUB DUP2 PUSH1 0x0 DUP8 DUP1 EXTCODESIZE ISZERO DUP1 ISZERO PUSH3 0x1DC7 JUMPI PUSH1 0x0 DUP1 REVERT JUMPDEST POP GAS CALL ISZERO DUP1 ISZERO PUSH3 0x1DDC JUMPI RETURNDATASIZE PUSH1 0x0 DUP1 RETURNDATACOPY RETURNDATASIZE PUSH1 0x0 REVERT JUMPDEST POP POP POP POP PUSH3 0x11D9 DUP2 PUSH3 0x17C3 JUMP JUMPDEST PUSH1 0x2 PUSH1 0x0 SLOAD EQ ISZERO PUSH3 0x1E5A JUMPI PUSH1 0x40 MLOAD PUSH32 0x8C379A000000000000000000000000000000000000000000000000000000000 DUP2 MSTORE PUSH1 0x20 PUSH1 0x4 DUP3 ADD MSTORE PUSH1 0x1F PUSH1 0x24 DUP3 ADD MSTORE PUSH32 0x5265656E7472616E637947756172643A207265656E7472616E742063616C6C00 PUSH1 0x44 DUP3 ADD MSTORE PUSH1 0x64 ADD PUSH3 0x586 JUMP JUMPDEST PUSH1 0x2 PUSH1 0x0 SSTORE PUSH1 0x7 SLOAD PUSH1 0xFF AND DUP1 ISZERO PUSH3 0x1EA5 JUMPI POP PUSH1 0x6 SLOAD ISZERO DUP1 PUSH3 0x1E8C JUMPI POP CALLER PUSH1 0x0 SWAP1 DUP2 MSTORE PUSH1 0x2 PUSH1 0x20 MSTORE PUSH1 0x40 SWAP1 KECCAK256 SLOAD PUSH1 0xFF AND JUMPDEST DUP1 PUSH3 0x1EA5 JUMPI POP PUSH1 0x6 SLOAD PUSH1 0x1 EQ DUP1 ISZERO PUSH3 0x1EA5 JUMPI POP CALLER ORIGIN EQ JUMPDEST ISZERO PUSH3 0x1EB5 JUMPI PUSH3 0x1EB5 PUSH3 0x24EA JUMP JUMPDEST PUSH3 0x1EC2 DUP3 DUP3 CALLER PUSH3 0x2788 JUMP JUMPDEST POP POP PUSH1 0x1 PUSH1 0x0 SSTORE POP JUMP JUMPDEST PUSH1 0x1 SLOAD PUSH20 0xFFFFFFFFFFFFFFFFFFFFFFFFFFFFFFFFFFFFFFFF AND CALLER EQ PUSH3 0x1F4F JUMPI PUSH1 0x40 MLOAD PUSH32 0x8C379A000000000000000000000000000000000000000000000000000000000 DUP2 MSTORE PUSH1 0x20 PUSH1 0x4 DUP3 ADD DUP2 SWAP1 MSTORE PUSH1 0x24 DUP3 ADD MSTORE PUSH32 0x4F776E61626C653A2063616C6C6572206973206E6F7420746865206F776E6572 PUSH1 0x44 DUP3 ADD MSTORE PUSH1 0x64 ADD PUSH3 0x586 JUMP JUMPDEST PUSH20 0xFFFFFFFFFFFFFFFFFFFFFFFFFFFFFFFFFFFFFFFF DUP2 AND PUSH3 0x1FF4 JUMPI PUSH1 0x40 MLOAD PUSH32 0x8C379A000000000000000000000000000000000000000000000000000000000 DUP2 MSTORE PUSH1 0x20 PUSH1 0x4 DUP3 ADD MSTORE PUSH1 0x26 PUSH1 0x24 DUP3 ADD MSTORE PUSH32 0x4F776E61626C653A206E6577206F776E657220697320746865207A65726F2061 PUSH1 0x44 DUP3 ADD MSTORE PUSH32 0x6464726573730000000000000000000000000000000000000000000000000000 PUSH1 0x64 DUP3 ADD MSTORE PUSH1 0x84 ADD PUSH3 0x586 JUMP JUMPDEST PUSH3 0xCB6 DUP2 PUSH3 0x2621 JUMP JUMPDEST CALLER PUSH1 0x0 SWAP1 DUP2 MSTORE PUSH1 0x5 PUSH1 0x20 MSTORE PUSH1 0x40 SWAP1 KECCAK256 SLOAD PUSH1 0xFF AND PUSH3 0x207A JUMPI PUSH1 0x40 MLOAD PUSH32 0x8C379A000000000000000000000000000000000000000000000000000000000 DUP2 MSTORE PUSH1 0x20 PUSH1 0x4 DUP3 ADD MSTORE PUSH1 0x1B PUSH1 0x24 DUP3 ADD MSTORE PUSH32 0x6F6E6C792063616C6C61626C6520627920737472617465676965730000000000 PUSH1 0x44 DUP3 ADD MSTORE PUSH1 0x64 ADD PUSH3 0x586 JUMP JUMPDEST PUSH3 0xB64 PUSH1 0x0 DUP3 CALLER PUSH3 0x293E JUMP JUMPDEST PUSH1 0x0 DUP1 PUSH3 0x2098 DUP6 DUP6 DUP6 PUSH3 0x2AD9 JUMP JUMPDEST SWAP1 SWAP3 POP SWAP1 POP DUP5 ISZERO DUP1 ISZERO SWAP1 PUSH3 0x20AD JUMPI POP PUSH1 0x0 DUP3 GT JUMPDEST DUP1 ISZERO PUSH3 0x2101 JUMPI POP PUSH1 0x3 DUP1 DUP7 DUP2 SLOAD DUP2 LT PUSH3 0x20CC JUMPI PUSH3 0x20CC PUSH3 0x3D04 JUMP JUMPDEST SWAP1 PUSH1 0x0 MSTORE PUSH1 0x20 PUSH1 0x0 KECCAK256 SWAP1 PUSH1 0x2 MUL ADD PUSH1 0x1 ADD PUSH1 0x14 SWAP1 SLOAD SWAP1 PUSH2 0x100 EXP SWAP1 DIV PUSH1 0xFF AND PUSH1 0x3 DUP2 GT ISZERO PUSH3 0x20FF JUMPI PUSH3 0x20FF PUSH3 0x3CD5 JUMP JUMPDEST EQ JUMPDEST ISZERO PUSH3 0x21AF JUMPI PUSH1 0x0 PUSH1 0x3 DUP7 DUP2 SLOAD DUP2 LT PUSH3 0x211F JUMPI PUSH3 0x211F PUSH3 0x3D04 JUMP JUMPDEST PUSH1 0x0 SWAP2 DUP3 MSTORE PUSH1 0x20 DUP3 KECCAK256 PUSH1 0x1 PUSH1 0x2 SWAP1 SWAP3 MUL ADD ADD SLOAD PUSH20 0xFFFFFFFFFFFFFFFFFFFFFFFFFFFFFFFFFFFFFFFF AND SWAP2 POP PUSH3 0x2156 DUP2 DUP4 PUSH3 0x2698 JUMP JUMPDEST SWAP1 POP PUSH1 0x0 PUSH3 0x217F DUP6 DUP4 PUSH3 0x216C DUP8 DUP4 PUSH3 0x3BDB JUMP JUMPDEST PUSH3 0x2178 SWAP2 SWAP1 PUSH3 0x3B9B JUMP JUMPDEST SWAP1 PUSH3 0x2FD6 JUMP JUMPDEST PUSH3 0x218B SWAP1 DUP4 PUSH3 0x3BDB JUMP JUMPDEST SWAP1 POP PUSH3 0x219B PUSH1 0x0 DUP5 DUP4 PUSH3 0x3010 JUMP JUMPDEST POP PUSH3 0x21AA PUSH1 0x0 DUP8 DUP4 PUSH3 0x30FB JUMP JUMPDEST POP POP POP POP JUMPDEST SWAP4 POP SWAP4 SWAP2 POP POP JUMP JUMPDEST DUP1 ISZERO DUP1 PUSH3 0x226B JUMPI POP PUSH1 0x40 MLOAD PUSH32 0xDD62ED3E00000000000000000000000000000000000000000000000000000000 DUP2 MSTORE ADDRESS PUSH1 0x4 DUP3 ADD MSTORE PUSH20 0xFFFFFFFFFFFFFFFFFFFFFFFFFFFFFFFFFFFFFFFF DUP4 DUP2 AND PUSH1 0x24 DUP4 ADD MSTORE DUP5 AND SWAP1 PUSH4 0xDD62ED3E SWAP1 PUSH1 0x44 ADD PUSH1 0x20 PUSH1 0x40 MLOAD DUP1 DUP4 SUB DUP2 DUP7 DUP1 EXTCODESIZE ISZERO DUP1 ISZERO PUSH3 0x222E JUMPI PUSH1 0x0 DUP1 REVERT JUMPDEST POP GAS STATICCALL ISZERO DUP1 ISZERO PUSH3 0x2243 JUMPI RETURNDATASIZE PUSH1 0x0 DUP1 RETURNDATACOPY RETURNDATASIZE PUSH1 0x0 REVERT JUMPDEST POP POP POP POP PUSH1 0x40 MLOAD RETURNDATASIZE PUSH1 0x1F NOT PUSH1 0x1F DUP3 ADD AND DUP3 ADD DUP1 PUSH1 0x40 MSTORE POP DUP2 ADD SWAP1 PUSH3 0x2269 SWAP2 SWAP1 PUSH3 0x387E JUMP JUMPDEST ISZERO JUMPDEST PUSH3 0x22F9 JUMPI PUSH1 0x40 MLOAD PUSH32 0x8C379A000000000000000000000000000000000000000000000000000000000 DUP2 MSTORE PUSH1 0x20 PUSH1 0x4 DUP3 ADD MSTORE PUSH1 0x36 PUSH1 0x24 DUP3 ADD MSTORE PUSH32 0x5361666545524332303A20617070726F76652066726F6D206E6F6E2D7A65726F PUSH1 0x44 DUP3 ADD MSTORE PUSH32 0x20746F206E6F6E2D7A65726F20616C6C6F77616E636500000000000000000000 PUSH1 0x64 DUP3 ADD MSTORE PUSH1 0x84 ADD PUSH3 0x586 JUMP JUMPDEST PUSH1 0x40 MLOAD PUSH20 0xFFFFFFFFFFFFFFFFFFFFFFFFFFFFFFFFFFFFFFFF DUP4 AND PUSH1 0x24 DUP3 ADD MSTORE PUSH1 0x44 DUP2 ADD DUP3 SWAP1 MSTORE PUSH3 0x1714 SWAP1 DUP5 SWAP1 PUSH32 0x95EA7B300000000000000000000000000000000000000000000000000000000 SWAP1 PUSH1 0x64 ADD JUMPDEST PUSH1 0x40 DUP1 MLOAD PUSH32 0xFFFFFFFFFFFFFFFFFFFFFFFFFFFFFFFFFFFFFFFFFFFFFFFFFFFFFFFFFFFFFFE0 DUP2 DUP5 SUB ADD DUP2 MSTORE SWAP2 SWAP1 MSTORE PUSH1 0x20 DUP2 ADD DUP1 MLOAD PUSH28 0xFFFFFFFFFFFFFFFFFFFFFFFFFFFFFFFFFFFFFFFFFFFFFFFFFFFFFFFF AND PUSH32 0xFFFFFFFF00000000000000000000000000000000000000000000000000000000 SWAP1 SWAP4 AND SWAP3 SWAP1 SWAP3 OR SWAP1 SWAP2 MSTORE PUSH3 0x317A JUMP JUMPDEST PUSH1 0x40 MLOAD PUSH32 0xDD62ED3E00000000000000000000000000000000000000000000000000000000 DUP2 MSTORE ADDRESS PUSH1 0x4 DUP3 ADD MSTORE PUSH20 0xFFFFFFFFFFFFFFFFFFFFFFFFFFFFFFFFFFFFFFFF DUP4 DUP2 AND PUSH1 0x24 DUP4 ADD MSTORE PUSH1 0x0 SWAP2 DUP4 SWAP2 DUP7 AND SWAP1 PUSH4 0xDD62ED3E SWAP1 PUSH1 0x44 ADD PUSH1 0x20 PUSH1 0x40 MLOAD DUP1 DUP4 SUB DUP2 DUP7 DUP1 EXTCODESIZE ISZERO DUP1 ISZERO PUSH3 0x2442 JUMPI PUSH1 0x0 DUP1 REVERT JUMPDEST POP GAS STATICCALL ISZERO DUP1 ISZERO PUSH3 0x2457 JUMPI RETURNDATASIZE PUSH1 0x0 DUP1 RETURNDATACOPY RETURNDATASIZE PUSH1 0x0 REVERT JUMPDEST POP POP POP POP PUSH1 0x40 MLOAD RETURNDATASIZE PUSH1 0x1F NOT PUSH1 0x1F DUP3 ADD AND DUP3 ADD DUP1 PUSH1 0x40 MSTORE POP DUP2 ADD SWAP1 PUSH3 0x247D SWAP2 SWAP1 PUSH3 0x387E JUMP JUMPDEST PUSH3 0x2489 SWAP2 SWAP1 PUSH3 0x3B69 JUMP JUMPDEST PUSH1 0x40 MLOAD PUSH20 0xFFFFFFFFFFFFFFFFFFFFFFFFFFFFFFFFFFFFFFFF DUP6 AND PUSH1 0x24 DUP3 ADD MSTORE PUSH1 0x44 DUP2 ADD DUP3 SWAP1 MSTORE SWAP1 SWAP2 POP PUSH3 0x24E4 SWAP1 DUP6 SWAP1 PUSH32 0x95EA7B300000000000000000000000000000000000000000000000000000000 SWAP1 PUSH1 0x64 ADD PUSH3 0x234C JUMP JUMPDEST POP POP POP POP JUMP JUMPDEST PUSH1 0x3 SLOAD PUSH1 0x0 JUMPDEST DUP2 DUP2 LT ISZERO PUSH3 0xB64 JUMPI PUSH1 0x3 DUP2 DUP2 SLOAD DUP2 LT PUSH3 0x250F JUMPI PUSH3 0x250F PUSH3 0x3D04 JUMP JUMPDEST PUSH1 0x0 SWAP2 DUP3 MSTORE PUSH1 0x20 DUP3 KECCAK256 PUSH1 0x1 PUSH1 0x2 SWAP1 SWAP3 MUL ADD ADD SLOAD PUSH1 0x40 DUP1 MLOAD PUSH32 0xD389800F00000000000000000000000000000000000000000000000000000000 DUP2 MSTORE SWAP1 MLOAD PUSH20 0xFFFFFFFFFFFFFFFFFFFFFFFFFFFFFFFFFFFFFFFF SWAP1 SWAP3 AND SWAP3 PUSH4 0xD389800F SWAP3 PUSH1 0x4 DUP1 DUP5 ADD SWAP4 DUP3 SWAP1 SUB ADD DUP2 DUP4 DUP8 DUP1 EXTCODESIZE ISZERO DUP1 ISZERO PUSH3 0x2586 JUMPI PUSH1 0x0 DUP1 REVERT JUMPDEST POP GAS CALL SWAP3 POP POP POP DUP1 ISZERO PUSH3 0x2598 JUMPI POP PUSH1 0x1 JUMPDEST PUSH3 0x260C JUMPI RETURNDATASIZE DUP1 DUP1 ISZERO PUSH3 0x25C9 JUMPI PUSH1 0x40 MLOAD SWAP2 POP PUSH1 0x1F NOT PUSH1 0x3F RETURNDATASIZE ADD AND DUP3 ADD PUSH1 0x40 MSTORE RETURNDATASIZE DUP3 MSTORE RETURNDATASIZE PUSH1 0x0 PUSH1 0x20 DUP5 ADD RETURNDATACOPY PUSH3 0x25CE JUMP JUMPDEST PUSH1 0x60 SWAP2 POP JUMPDEST POP PUSH32 0xAE452807C2B0698EA0D198E28DAB35283CBB33B5FFD82A4DC799E21279D0A630 DUP3 DUP3 PUSH1 0x40 MLOAD PUSH3 0x2602 SWAP3 SWAP2 SWAP1 PUSH3 0x3B4E JUMP JUMPDEST PUSH1 0x40 MLOAD DUP1 SWAP2 SUB SWAP1 LOG1 POP JUMPDEST DUP1 PUSH3 0x2618 DUP2 PUSH3 0x3C24 JUMP JUMPDEST SWAP2 POP POP PUSH3 0x24F0 JUMP JUMPDEST PUSH1 0x1 DUP1 SLOAD PUSH20 0xFFFFFFFFFFFFFFFFFFFFFFFFFFFFFFFFFFFFFFFF DUP4 DUP2 AND PUSH32 0xFFFFFFFFFFFFFFFFFFFFFFFF0000000000000000000000000000000000000000 DUP4 AND DUP2 OR SWAP1 SWAP4 SSTORE PUSH1 0x40 MLOAD SWAP2 AND SWAP2 SWAP1 DUP3 SWAP1 PUSH32 0x8BE0079C531659141344CD1FD0A4F28419497F9722A3DAAFE3B4186F6B6457E0 SWAP1 PUSH1 0x0 SWAP1 LOG3 POP POP JUMP JUMPDEST PUSH20 0xFFFFFFFFFFFFFFFFFFFFFFFFFFFFFFFFFFFFFFFF DUP2 AND PUSH1 0x0 SWAP1 DUP2 MSTORE PUSH32 0x17EF568E3E12AB5B9C7254A8D58478811DE00F9E6EB34345ACD53BF8FD09D3EC PUSH1 0x20 MSTORE PUSH1 0x40 SWAP1 KECCAK256 SLOAD DUP3 ISZERO DUP1 ISZERO PUSH3 0x2712 JUMPI POP PUSH20 0xFFFFFFFFFFFFFFFFFFFFFFFFFFFFFFFFFFFFFFFF DUP3 AND PUSH1 0x0 SWAP1 DUP2 MSTORE PUSH1 0x5 PUSH1 0x20 MSTORE PUSH1 0x40 SWAP1 KECCAK256 SLOAD PUSH1 0xFF AND ISZERO JUMPDEST ISZERO PUSH3 0x1555 JUMPI PUSH1 0x1 JUMPDEST PUSH1 0x3 SLOAD DUP2 LT ISZERO PUSH3 0x2755 JUMPI PUSH3 0x2732 DUP2 DUP5 PUSH3 0x328D JUMP JUMPDEST PUSH3 0x273E SWAP1 DUP4 PUSH3 0x3B69 JUMP JUMPDEST SWAP2 POP DUP1 PUSH3 0x274C DUP2 PUSH3 0x3C24 JUMP JUMPDEST SWAP2 POP POP PUSH3 0x271B JUMP JUMPDEST POP PUSH20 0xFFFFFFFFFFFFFFFFFFFFFFFFFFFFFFFFFFFFFFFF DUP3 AND PUSH1 0x0 SWAP1 DUP2 MSTORE PUSH1 0xA PUSH1 0x20 MSTORE PUSH1 0x40 SWAP1 KECCAK256 SLOAD PUSH3 0x168A SWAP1 DUP3 PUSH3 0x3BDB JUMP JUMPDEST PUSH1 0x0 DUP1 PUSH1 0x3 DUP6 DUP2 SLOAD DUP2 LT PUSH3 0x27A1 JUMPI PUSH3 0x27A1 PUSH3 0x3D04 JUMP JUMPDEST SWAP1 PUSH1 0x0 MSTORE PUSH1 0x20 PUSH1 0x0 KECCAK256 SWAP1 PUSH1 0x2 MUL ADD PUSH1 0x1 ADD PUSH1 0x0 SWAP1 SLOAD SWAP1 PUSH2 0x100 EXP SWAP1 DIV PUSH20 0xFFFFFFFFFFFFFFFFFFFFFFFFFFFFFFFFFFFFFFFF AND SWAP1 POP PUSH1 0x0 DUP2 PUSH20 0xFFFFFFFFFFFFFFFFFFFFFFFFFFFFFFFFFFFFFFFF AND PUSH4 0x44A3955E PUSH1 0x40 MLOAD DUP2 PUSH4 0xFFFFFFFF AND PUSH1 0xE0 SHL DUP2 MSTORE PUSH1 0x4 ADD PUSH1 0x20 PUSH1 0x40 MLOAD DUP1 DUP4 SUB DUP2 DUP7 DUP1 EXTCODESIZE ISZERO DUP1 ISZERO PUSH3 0x281E JUMPI PUSH1 0x0 DUP1 REVERT JUMPDEST POP GAS STATICCALL ISZERO DUP1 ISZERO PUSH3 0x2833 JUMPI RETURNDATASIZE PUSH1 0x0 DUP1 RETURNDATACOPY RETURNDATASIZE PUSH1 0x0 REVERT JUMPDEST POP POP POP POP PUSH1 0x40 MLOAD RETURNDATASIZE PUSH1 0x1F NOT PUSH1 0x1F DUP3 ADD AND DUP3 ADD DUP1 PUSH1 0x40 MSTORE POP DUP2 ADD SWAP1 PUSH3 0x2859 SWAP2 SWAP1 PUSH3 0x387E JUMP JUMPDEST SWAP1 POP PUSH3 0x2868 DUP7 DUP7 DUP7 PUSH3 0x293E JUMP JUMPDEST SWAP3 POP PUSH1 0x0 DUP7 GT DUP1 ISZERO PUSH3 0x287B JUMPI POP PUSH1 0x0 DUP2 GT JUMPDEST DUP1 ISZERO PUSH3 0x28CF JUMPI POP PUSH1 0x3 DUP1 DUP8 DUP2 SLOAD DUP2 LT PUSH3 0x289A JUMPI PUSH3 0x289A PUSH3 0x3D04 JUMP JUMPDEST SWAP1 PUSH1 0x0 MSTORE PUSH1 0x20 PUSH1 0x0 KECCAK256 SWAP1 PUSH1 0x2 MUL ADD PUSH1 0x1 ADD PUSH1 0x14 SWAP1 SLOAD SWAP1 PUSH2 0x100 EXP SWAP1 DIV PUSH1 0xFF AND PUSH1 0x3 DUP2 GT ISZERO PUSH3 0x28CD JUMPI PUSH3 0x28CD PUSH3 0x3CD5 JUMP JUMPDEST EQ JUMPDEST ISZERO PUSH3 0x2935 JUMPI PUSH1 0x0 PUSH3 0x28E4 PUSH1 0x0 DUP5 PUSH3 0x2698 JUMP JUMPDEST SWAP1 POP PUSH1 0x0 DUP2 PUSH3 0x2906 DUP5 PUSH3 0x28FA DUP9 DUP3 PUSH3 0x3B69 JUMP JUMPDEST PUSH3 0x2178 SWAP1 DUP7 PUSH3 0x3B9B JUMP JUMPDEST PUSH3 0x2912 SWAP2 SWAP1 PUSH3 0x3BDB JUMP JUMPDEST SWAP1 POP PUSH3 0x2922 PUSH1 0x0 DUP6 DUP4 PUSH3 0x30FB JUMP JUMPDEST POP PUSH3 0x2931 PUSH1 0x0 DUP8 DUP4 PUSH3 0x3010 JUMP JUMPDEST POP POP POP JUMPDEST POP POP SWAP4 SWAP3 POP POP POP JUMP JUMPDEST PUSH1 0x0 DUP1 PUSH1 0x3 DUP6 DUP2 SLOAD DUP2 LT PUSH3 0x2957 JUMPI PUSH3 0x2957 PUSH3 0x3D04 JUMP JUMPDEST SWAP1 PUSH1 0x0 MSTORE PUSH1 0x20 PUSH1 0x0 KECCAK256 SWAP1 PUSH1 0x2 MUL ADD SWAP1 POP PUSH1 0x0 DUP5 GT ISZERO PUSH3 0x2A7F JUMPI DUP1 SLOAD PUSH3 0x2997 SWAP1 PUSH20 0xFFFFFFFFFFFFFFFFFFFFFFFFFFFFFFFFFFFFFFFF AND CALLER ADDRESS DUP8 PUSH3 0x34B0 JUMP JUMPDEST PUSH1 0x3 DUP6 DUP2 SLOAD DUP2 LT PUSH3 0x29AD JUMPI PUSH3 0x29AD PUSH3 0x3D04 JUMP JUMPDEST PUSH1 0x0 SWAP2 DUP3 MSTORE PUSH1 0x20 SWAP1 SWAP2 KECCAK256 PUSH1 0x2 SWAP1 SWAP2 MUL ADD PUSH1 0x1 ADD SLOAD PUSH1 0x40 MLOAD PUSH32 0x47E7EF2400000000000000000000000000000000000000000000000000000000 DUP2 MSTORE PUSH20 0xFFFFFFFFFFFFFFFFFFFFFFFFFFFFFFFFFFFFFFFF DUP6 DUP2 AND PUSH1 0x4 DUP4 ADD MSTORE PUSH1 0x24 DUP3 ADD DUP8 SWAP1 MSTORE SWAP1 SWAP2 AND SWAP1 PUSH4 0x47E7EF24 SWAP1 PUSH1 0x44 ADD PUSH1 0x20 PUSH1 0x40 MLOAD DUP1 DUP4 SUB DUP2 PUSH1 0x0 DUP8 DUP1 EXTCODESIZE ISZERO DUP1 ISZERO PUSH3 0x2A33 JUMPI PUSH1 0x0 DUP1 REVERT JUMPDEST POP GAS CALL ISZERO DUP1 ISZERO PUSH3 0x2A48 JUMPI RETURNDATASIZE PUSH1 0x0 DUP1 RETURNDATACOPY RETURNDATASIZE PUSH1 0x0 REVERT JUMPDEST POP POP POP POP PUSH1 0x40 MLOAD RETURNDATASIZE PUSH1 0x1F NOT PUSH1 0x1F DUP3 ADD AND DUP3 ADD DUP1 PUSH1 0x40 MSTORE POP DUP2 ADD SWAP1 PUSH3 0x2A6E SWAP2 SWAP1 PUSH3 0x387E JUMP JUMPDEST SWAP2 POP PUSH3 0x2A7D DUP6 DUP5 DUP5 PUSH3 0x30FB JUMP JUMPDEST POP JUMPDEST DUP5 DUP4 PUSH20 0xFFFFFFFFFFFFFFFFFFFFFFFFFFFFFFFFFFFFFFFF AND PUSH32 0x90890809C654F11D6E72A28FA60149770A0D11EC6C92319D6CEB2BB0A4EA1A15 DUP7 PUSH1 0x40 MLOAD PUSH3 0x2AC9 SWAP2 DUP2 MSTORE PUSH1 0x20 ADD SWAP1 JUMP JUMPDEST PUSH1 0x40 MLOAD DUP1 SWAP2 SUB SWAP1 LOG3 POP SWAP4 SWAP3 POP POP POP JUMP JUMPDEST PUSH1 0x0 DUP1 PUSH1 0x0 PUSH1 0x3 DUP7 DUP2 SLOAD DUP2 LT PUSH3 0x2AF4 JUMPI PUSH3 0x2AF4 PUSH3 0x3D04 JUMP JUMPDEST SWAP1 PUSH1 0x0 MSTORE PUSH1 0x20 PUSH1 0x0 KECCAK256 SWAP1 PUSH1 0x2 MUL ADD SWAP1 POP PUSH1 0x0 PUSH3 0x2B12 DUP8 CALLER PUSH3 0x2698 JUMP JUMPDEST SWAP1 POP PUSH1 0x0 PUSH1 0x3 DUP9 DUP2 SLOAD DUP2 LT PUSH3 0x2B2C JUMPI PUSH3 0x2B2C PUSH3 0x3D04 JUMP JUMPDEST PUSH1 0x0 SWAP2 DUP3 MSTORE PUSH1 0x20 SWAP2 DUP3 SWAP1 KECCAK256 PUSH1 0x1 PUSH1 0x2 SWAP1 SWAP3 MUL ADD ADD SLOAD PUSH1 0x40 DUP1 MLOAD PUSH32 0x42DA4EB300000000000000000000000000000000000000000000000000000000 DUP2 MSTORE SWAP1 MLOAD PUSH20 0xFFFFFFFFFFFFFFFFFFFFFFFFFFFFFFFFFFFFFFFF SWAP1 SWAP3 AND SWAP3 PUSH4 0x42DA4EB3 SWAP3 PUSH1 0x4 DUP1 DUP5 ADD SWAP4 DUP3 SWAP1 SUB ADD DUP2 DUP7 DUP1 EXTCODESIZE ISZERO DUP1 ISZERO PUSH3 0x2BA4 JUMPI PUSH1 0x0 DUP1 REVERT JUMPDEST POP GAS STATICCALL ISZERO DUP1 ISZERO PUSH3 0x2BB9 JUMPI RETURNDATASIZE PUSH1 0x0 DUP1 RETURNDATACOPY RETURNDATASIZE PUSH1 0x0 REVERT JUMPDEST POP POP POP POP PUSH1 0x40 MLOAD RETURNDATASIZE PUSH1 0x1F NOT PUSH1 0x1F DUP3 ADD AND DUP3 ADD DUP1 PUSH1 0x40 MSTORE POP DUP2 ADD SWAP1 PUSH3 0x2BDF SWAP2 SWAP1 PUSH3 0x387E JUMP JUMPDEST SWAP1 POP PUSH1 0x3 DUP9 DUP2 SLOAD DUP2 LT PUSH3 0x2BF7 JUMPI PUSH3 0x2BF7 PUSH3 0x3D04 JUMP JUMPDEST PUSH1 0x0 SWAP2 DUP3 MSTORE PUSH1 0x20 SWAP2 DUP3 SWAP1 KECCAK256 PUSH1 0x1 PUSH1 0x2 SWAP1 SWAP3 MUL ADD ADD SLOAD PUSH1 0x40 DUP1 MLOAD PUSH32 0x44A3955E00000000000000000000000000000000000000000000000000000000 DUP2 MSTORE SWAP1 MLOAD PUSH20 0xFFFFFFFFFFFFFFFFFFFFFFFFFFFFFFFFFFFFFFFF SWAP1 SWAP3 AND SWAP3 PUSH4 0x44A3955E SWAP3 PUSH1 0x4 DUP1 DUP5 ADD SWAP4 DUP3 SWAP1 SUB ADD DUP2 DUP7 DUP1 EXTCODESIZE ISZERO DUP1 ISZERO PUSH3 0x2C6F JUMPI PUSH1 0x0 DUP1 REVERT JUMPDEST POP GAS STATICCALL ISZERO DUP1 ISZERO PUSH3 0x2C84 JUMPI RETURNDATASIZE PUSH1 0x0 DUP1 RETURNDATACOPY RETURNDATASIZE PUSH1 0x0 REVERT JUMPDEST POP POP POP POP PUSH1 0x40 MLOAD RETURNDATASIZE PUSH1 0x1F NOT PUSH1 0x1F DUP3 ADD AND DUP3 ADD DUP1 PUSH1 0x40 MSTORE POP DUP2 ADD SWAP1 PUSH3 0x2CAA SWAP2 SWAP1 PUSH3 0x387E JUMP JUMPDEST SWAP5 POP PUSH1 0x0 DUP3 GT PUSH3 0x2D18 JUMPI PUSH1 0x40 MLOAD PUSH32 0x8C379A000000000000000000000000000000000000000000000000000000000 DUP2 MSTORE PUSH1 0x20 PUSH1 0x4 DUP3 ADD MSTORE PUSH1 0xF PUSH1 0x24 DUP3 ADD MSTORE PUSH32 0x7573657253686172657320697320300000000000000000000000000000000000 PUSH1 0x44 DUP3 ADD MSTORE PUSH1 0x64 ADD PUSH3 0x586 JUMP JUMPDEST PUSH1 0x0 DUP6 GT PUSH3 0x2D84 JUMPI PUSH1 0x40 MLOAD PUSH32 0x8C379A000000000000000000000000000000000000000000000000000000000 DUP2 MSTORE PUSH1 0x20 PUSH1 0x4 DUP3 ADD MSTORE PUSH1 0x10 PUSH1 0x24 DUP3 ADD MSTORE PUSH32 0x736861726573546F74616C206973203000000000000000000000000000000000 PUSH1 0x44 DUP3 ADD MSTORE PUSH1 0x64 ADD PUSH3 0x586 JUMP JUMPDEST PUSH1 0x0 DUP6 PUSH3 0x2D93 DUP4 DUP6 PUSH3 0x3B9B JUMP JUMPDEST PUSH3 0x2D9F SWAP2 SWAP1 PUSH3 0x3B84 JUMP JUMPDEST SWAP1 POP DUP1 DUP9 GT ISZERO PUSH3 0x2DAE JUMPI DUP1 SWAP8 POP JUMPDEST DUP8 ISZERO PUSH3 0x2F93 JUMPI PUSH1 0x3 DUP10 DUP2 SLOAD DUP2 LT PUSH3 0x2DCB JUMPI PUSH3 0x2DCB PUSH3 0x3D04 JUMP JUMPDEST PUSH1 0x0 SWAP2 DUP3 MSTORE PUSH1 0x20 SWAP1 SWAP2 KECCAK256 PUSH1 0x2 SWAP1 SWAP2 MUL ADD PUSH1 0x1 ADD SLOAD PUSH1 0x40 MLOAD PUSH32 0xF3FEF3A300000000000000000000000000000000000000000000000000000000 DUP2 MSTORE CALLER PUSH1 0x4 DUP3 ADD MSTORE PUSH1 0x24 DUP2 ADD DUP11 SWAP1 MSTORE PUSH20 0xFFFFFFFFFFFFFFFFFFFFFFFFFFFFFFFFFFFFFFFF SWAP1 SWAP2 AND SWAP1 PUSH4 0xF3FEF3A3 SWAP1 PUSH1 0x44 ADD PUSH1 0x20 PUSH1 0x40 MLOAD DUP1 DUP4 SUB DUP2 PUSH1 0x0 DUP8 DUP1 EXTCODESIZE ISZERO DUP1 ISZERO PUSH3 0x2E4F JUMPI PUSH1 0x0 DUP1 REVERT JUMPDEST POP GAS CALL ISZERO DUP1 ISZERO PUSH3 0x2E64 JUMPI RETURNDATASIZE PUSH1 0x0 DUP1 RETURNDATACOPY RETURNDATASIZE PUSH1 0x0 REVERT JUMPDEST POP POP POP POP PUSH1 0x40 MLOAD RETURNDATASIZE PUSH1 0x1F NOT PUSH1 0x1F DUP3 ADD AND DUP3 ADD DUP1 PUSH1 0x40 MSTORE POP DUP2 ADD SWAP1 PUSH3 0x2E8A SWAP2 SWAP1 PUSH3 0x387E JUMP JUMPDEST SWAP5 POP DUP3 DUP6 GT ISZERO PUSH3 0x2EA9 JUMPI PUSH3 0x2EA2 DUP10 CALLER DUP6 PUSH3 0x3010 JUMP JUMPDEST POP PUSH3 0x2EB8 JUMP JUMPDEST PUSH3 0x2EB6 DUP10 CALLER DUP8 PUSH3 0x3010 JUMP JUMPDEST POP JUMPDEST DUP4 SLOAD PUSH1 0x40 MLOAD PUSH32 0x70A0823100000000000000000000000000000000000000000000000000000000 DUP2 MSTORE ADDRESS PUSH1 0x4 DUP3 ADD MSTORE PUSH1 0x0 SWAP2 PUSH20 0xFFFFFFFFFFFFFFFFFFFFFFFFFFFFFFFFFFFFFFFF AND SWAP1 PUSH4 0x70A08231 SWAP1 PUSH1 0x24 ADD PUSH1 0x20 PUSH1 0x40 MLOAD DUP1 DUP4 SUB DUP2 DUP7 DUP1 EXTCODESIZE ISZERO DUP1 ISZERO PUSH3 0x2F22 JUMPI PUSH1 0x0 DUP1 REVERT JUMPDEST POP GAS STATICCALL ISZERO DUP1 ISZERO PUSH3 0x2F37 JUMPI RETURNDATASIZE PUSH1 0x0 DUP1 RETURNDATACOPY RETURNDATASIZE PUSH1 0x0 REVERT JUMPDEST POP POP POP POP PUSH1 0x40 MLOAD RETURNDATASIZE PUSH1 0x1F NOT PUSH1 0x1F DUP3 ADD AND DUP3 ADD DUP1 PUSH1 0x40 MSTORE POP DUP2 ADD SWAP1 PUSH3 0x2F5D SWAP2 SWAP1 PUSH3 0x387E JUMP JUMPDEST SWAP1 POP DUP9 DUP2 LT ISZERO PUSH3 0x2F6C JUMPI DUP1 SWAP9 POP JUMPDEST DUP5 SLOAD PUSH3 0x2F91 SWAP1 PUSH20 0xFFFFFFFFFFFFFFFFFFFFFFFFFFFFFFFFFFFFFFFF AND DUP10 DUP12 PUSH3 0x3510 JUMP JUMPDEST POP JUMPDEST PUSH1 0x40 MLOAD DUP9 DUP2 MSTORE DUP10 SWAP1 CALLER SWAP1 PUSH32 0xF279E6A1F5E320CCA91135676D9CB6E44CA8A08C0B88342BCDB1144F6511B568 SWAP1 PUSH1 0x20 ADD PUSH1 0x40 MLOAD DUP1 SWAP2 SUB SWAP1 LOG3 POP POP POP POP SWAP4 POP SWAP4 SWAP2 POP POP JUMP JUMPDEST PUSH1 0x0 PUSH3 0x2FE4 DUP3 DUP5 PUSH3 0x3C60 JUMP JUMPDEST ISZERO PUSH3 0x2FF2 JUMPI PUSH1 0x1 PUSH3 0x2FF5 JUMP JUMPDEST PUSH1 0x0 JUMPDEST PUSH1 0xFF AND PUSH3 0x3004 DUP4 DUP6 PUSH3 0x3B84 JUMP JUMPDEST PUSH3 0x168A SWAP2 SWAP1 PUSH3 0x3B69 JUMP JUMPDEST PUSH1 0x0 DUP4 ISZERO DUP1 ISZERO PUSH3 0x3047 JUMPI POP PUSH20 0xFFFFFFFFFFFFFFFFFFFFFFFFFFFFFFFFFFFFFFFF DUP4 AND PUSH1 0x0 SWAP1 DUP2 MSTORE PUSH1 0x5 PUSH1 0x20 MSTORE PUSH1 0x40 SWAP1 KECCAK256 SLOAD PUSH1 0xFF AND ISZERO JUMPDEST DUP1 ISZERO PUSH3 0x3097 JUMPI POP PUSH20 0xFFFFFFFFFFFFFFFFFFFFFFFFFFFFFFFFFFFFFFFF DUP4 AND PUSH1 0x0 SWAP1 DUP2 MSTORE PUSH32 0x17EF568E3E12AB5B9C7254A8D58478811DE00F9E6EB34345ACD53BF8FD09D3EC PUSH1 0x20 MSTORE PUSH1 0x40 SWAP1 KECCAK256 SLOAD DUP3 GT JUMPDEST ISZERO PUSH3 0x30EE JUMPI PUSH20 0xFFFFFFFFFFFFFFFFFFFFFFFFFFFFFFFFFFFFFFFF DUP4 AND PUSH1 0x0 SWAP1 DUP2 MSTORE PUSH1 0xA PUSH1 0x20 MSTORE PUSH1 0x40 DUP2 KECCAK256 DUP1 SLOAD DUP5 SWAP3 SWAP1 PUSH3 0x30D4 SWAP1 DUP5 SWAP1 PUSH3 0x3B69 JUMP JUMPDEST SWAP1 SWAP2 SSTORE POP PUSH3 0x30E6 SWAP1 POP DUP5 DUP5 PUSH3 0x2698 JUMP JUMPDEST SWAP1 POP PUSH3 0x168A JUMP JUMPDEST PUSH3 0x30E6 DUP5 DUP5 DUP5 PUSH3 0x3568 JUMP JUMPDEST PUSH1 0x0 DUP4 DUP2 MSTORE PUSH1 0x4 PUSH1 0x20 SWAP1 DUP2 MSTORE PUSH1 0x40 DUP1 DUP4 KECCAK256 PUSH20 0xFFFFFFFFFFFFFFFFFFFFFFFFFFFFFFFFFFFFFFFF DUP7 AND DUP5 MSTORE SWAP1 SWAP2 MSTORE DUP2 KECCAK256 DUP1 SLOAD DUP4 SWAP2 SWAP1 DUP4 SWAP1 PUSH3 0x313E SWAP1 DUP5 SWAP1 PUSH3 0x3B69 JUMP JUMPDEST SWAP1 SWAP2 SSTORE POP POP POP PUSH1 0x0 SWAP3 DUP4 MSTORE POP PUSH1 0x4 PUSH1 0x20 SWAP1 DUP2 MSTORE PUSH1 0x40 DUP1 DUP5 KECCAK256 PUSH20 0xFFFFFFFFFFFFFFFFFFFFFFFFFFFFFFFFFFFFFFFF SWAP4 SWAP1 SWAP4 AND DUP5 MSTORE SWAP2 SWAP1 MSTORE SWAP1 KECCAK256 SLOAD SWAP1 JUMP JUMPDEST PUSH1 0x0 PUSH3 0x31DE DUP3 PUSH1 0x40 MLOAD DUP1 PUSH1 0x40 ADD PUSH1 0x40 MSTORE DUP1 PUSH1 0x20 DUP2 MSTORE PUSH1 0x20 ADD PUSH32 0x5361666545524332303A206C6F772D6C6576656C2063616C6C206661696C6564 DUP2 MSTORE POP DUP6 PUSH20 0xFFFFFFFFFFFFFFFFFFFFFFFFFFFFFFFFFFFFFFFF AND PUSH3 0x35AB SWAP1 SWAP3 SWAP2 SWAP1 PUSH4 0xFFFFFFFF AND JUMP JUMPDEST DUP1 MLOAD SWAP1 SWAP2 POP ISZERO PUSH3 0x1714 JUMPI DUP1 DUP1 PUSH1 0x20 ADD SWAP1 MLOAD DUP2 ADD SWAP1 PUSH3 0x31FF SWAP2 SWAP1 PUSH3 0x3821 JUMP JUMPDEST PUSH3 0x1714 JUMPI PUSH1 0x40 MLOAD PUSH32 0x8C379A000000000000000000000000000000000000000000000000000000000 DUP2 MSTORE PUSH1 0x20 PUSH1 0x4 DUP3 ADD MSTORE PUSH1 0x2A PUSH1 0x24 DUP3 ADD MSTORE PUSH32 0x5361666545524332303A204552433230206F7065726174696F6E20646964206E PUSH1 0x44 DUP3 ADD MSTORE PUSH32 0x6F74207375636365656400000000000000000000000000000000000000000000 PUSH1 0x64 DUP3 ADD MSTORE PUSH1 0x84 ADD PUSH3 0x586 JUMP JUMPDEST PUSH1 0x0 DUP1 DUP4 GT DUP1 ISZERO PUSH3 0x32A0 JUMPI POP PUSH1 0x3 SLOAD DUP4 LT JUMPDEST PUSH3 0x332E JUMPI PUSH1 0x40 MLOAD PUSH32 0x8C379A000000000000000000000000000000000000000000000000000000000 DUP2 MSTORE PUSH1 0x20 PUSH1 0x4 DUP3 ADD MSTORE PUSH1 0x30 PUSH1 0x24 DUP3 ADD MSTORE PUSH32 0x5661756C744865616C65724D6178693A20636F726553686172657346726F6D4D PUSH1 0x44 DUP3 ADD MSTORE PUSH32 0x6178696D697A6572206261642070696400000000000000000000000000000000 PUSH1 0x64 DUP3 ADD MSTORE PUSH1 0x84 ADD PUSH3 0x586 JUMP JUMPDEST PUSH1 0x3 DUP1 DUP5 DUP2 SLOAD DUP2 LT PUSH3 0x3345 JUMPI PUSH3 0x3345 PUSH3 0x3D04 JUMP JUMPDEST SWAP1 PUSH1 0x0 MSTORE PUSH1 0x20 PUSH1 0x0 KECCAK256 SWAP1 PUSH1 0x2 MUL ADD PUSH1 0x1 ADD PUSH1 0x14 SWAP1 SLOAD SWAP1 PUSH2 0x100 EXP SWAP1 DIV PUSH1 0xFF AND PUSH1 0x3 DUP2 GT ISZERO PUSH3 0x3378 JUMPI PUSH3 0x3378 PUSH3 0x3CD5 JUMP JUMPDEST EQ PUSH3 0x3387 JUMPI POP PUSH1 0x0 PUSH3 0x1555 JUMP JUMPDEST PUSH1 0x0 PUSH3 0x3395 DUP5 DUP5 PUSH3 0x2698 JUMP JUMPDEST SWAP1 POP PUSH1 0x0 PUSH1 0x3 DUP6 DUP2 SLOAD DUP2 LT PUSH3 0x33AF JUMPI PUSH3 0x33AF PUSH3 0x3D04 JUMP JUMPDEST SWAP1 PUSH1 0x0 MSTORE PUSH1 0x20 PUSH1 0x0 KECCAK256 SWAP1 PUSH1 0x2 MUL ADD PUSH1 0x1 ADD PUSH1 0x0 SWAP1 SLOAD SWAP1 PUSH2 0x100 EXP SWAP1 DIV PUSH20 0xFFFFFFFFFFFFFFFFFFFFFFFFFFFFFFFFFFFFFFFF AND SWAP1 POP PUSH1 0x0 DUP2 PUSH20 0xFFFFFFFFFFFFFFFFFFFFFFFFFFFFFFFFFFFFFFFF AND PUSH4 0x44A3955E PUSH1 0x40 MLOAD DUP2 PUSH4 0xFFFFFFFF AND PUSH1 0xE0 SHL DUP2 MSTORE PUSH1 0x4 ADD PUSH1 0x20 PUSH1 0x40 MLOAD DUP1 DUP4 SUB DUP2 DUP7 DUP1 EXTCODESIZE ISZERO DUP1 ISZERO PUSH3 0x342C JUMPI PUSH1 0x0 DUP1 REVERT JUMPDEST POP GAS STATICCALL ISZERO DUP1 ISZERO PUSH3 0x3441 JUMPI RETURNDATASIZE PUSH1 0x0 DUP1 RETURNDATACOPY RETURNDATASIZE PUSH1 0x0 REVERT JUMPDEST POP POP POP POP PUSH1 0x40 MLOAD RETURNDATASIZE PUSH1 0x1F NOT PUSH1 0x1F DUP3 ADD AND DUP3 ADD DUP1 PUSH1 0x40 MSTORE POP DUP2 ADD SWAP1 PUSH3 0x3467 SWAP2 SWAP1 PUSH3 0x387E JUMP JUMPDEST SWAP1 POP DUP1 PUSH3 0x347C JUMPI PUSH1 0x0 SWAP4 POP POP POP POP PUSH3 0x1555 JUMP JUMPDEST PUSH1 0x0 PUSH3 0x348A DUP8 DUP5 PUSH3 0x2698 JUMP JUMPDEST SWAP1 POP DUP2 PUSH3 0x3499 DUP3 DUP7 PUSH3 0x3B9B JUMP JUMPDEST PUSH3 0x34A5 SWAP2 SWAP1 PUSH3 0x3B84 JUMP JUMPDEST SWAP8 SWAP7 POP POP POP POP POP POP POP JUMP JUMPDEST PUSH1 0x40 MLOAD PUSH20 0xFFFFFFFFFFFFFFFFFFFFFFFFFFFFFFFFFFFFFFFF DUP1 DUP6 AND PUSH1 0x24 DUP4 ADD MSTORE DUP4 AND PUSH1 0x44 DUP3 ADD MSTORE PUSH1 0x64 DUP2 ADD DUP3 SWAP1 MSTORE PUSH3 0x24E4 SWAP1 DUP6 SWAP1 PUSH32 0x23B872DD00000000000000000000000000000000000000000000000000000000 SWAP1 PUSH1 0x84 ADD PUSH3 0x234C JUMP JUMPDEST PUSH1 0x40 MLOAD PUSH20 0xFFFFFFFFFFFFFFFFFFFFFFFFFFFFFFFFFFFFFFFF DUP4 AND PUSH1 0x24 DUP3 ADD MSTORE PUSH1 0x44 DUP2 ADD DUP3 SWAP1 MSTORE PUSH3 0x1714 SWAP1 DUP5 SWAP1 PUSH32 0xA9059CBB00000000000000000000000000000000000000000000000000000000 SWAP1 PUSH1 0x64 ADD PUSH3 0x234C JUMP JUMPDEST PUSH1 0x0 DUP4 DUP2 MSTORE PUSH1 0x4 PUSH1 0x20 SWAP1 DUP2 MSTORE PUSH1 0x40 DUP1 DUP4 KECCAK256 PUSH20 0xFFFFFFFFFFFFFFFFFFFFFFFFFFFFFFFFFFFFFFFF DUP7 AND DUP5 MSTORE SWAP1 SWAP2 MSTORE DUP2 KECCAK256 DUP1 SLOAD DUP4 SWAP2 SWAP1 DUP4 SWAP1 PUSH3 0x313E SWAP1 DUP5 SWAP1 PUSH3 0x3BDB JUMP JUMPDEST PUSH1 0x60 PUSH3 0x35BC DUP5 DUP5 PUSH1 0x0 DUP6 PUSH3 0x35C4 JUMP JUMPDEST SWAP5 SWAP4 POP POP POP POP JUMP JUMPDEST PUSH1 0x60 DUP3 SELFBALANCE LT ISZERO PUSH3 0x3658 JUMPI PUSH1 0x40 MLOAD PUSH32 0x8C379A000000000000000000000000000000000000000000000000000000000 DUP2 MSTORE PUSH1 0x20 PUSH1 0x4 DUP3 ADD MSTORE PUSH1 0x26 PUSH1 0x24 DUP3 ADD MSTORE PUSH32 0x416464726573733A20696E73756666696369656E742062616C616E636520666F PUSH1 0x44 DUP3 ADD MSTORE PUSH32 0x722063616C6C0000000000000000000000000000000000000000000000000000 PUSH1 0x64 DUP3 ADD MSTORE PUSH1 0x84 ADD PUSH3 0x586 JUMP JUMPDEST DUP5 EXTCODESIZE PUSH3 0x36C2 JUMPI PUSH1 0x40 MLOAD PUSH32 0x8C379A000000000000000000000000000000000000000000000000000000000 DUP2 MSTORE PUSH1 0x20 PUSH1 0x4 DUP3 ADD MSTORE PUSH1 0x1D PUSH1 0x24 DUP3 ADD MSTORE PUSH32 0x416464726573733A2063616C6C20746F206E6F6E2D636F6E7472616374000000 PUSH1 0x44 DUP3 ADD MSTORE PUSH1 0x64 ADD PUSH3 0x586 JUMP JUMPDEST PUSH1 0x0 DUP1 DUP7 PUSH20 0xFFFFFFFFFFFFFFFFFFFFFFFFFFFFFFFFFFFFFFFF AND DUP6 DUP8 PUSH1 0x40 MLOAD PUSH3 0x36ED SWAP2 SWAP1 PUSH3 0x3AD7 JUMP JUMPDEST PUSH1 0x0 PUSH1 0x40 MLOAD DUP1 DUP4 SUB DUP2 DUP6 DUP8 GAS CALL SWAP3 POP POP POP RETURNDATASIZE DUP1 PUSH1 0x0 DUP2 EQ PUSH3 0x372C JUMPI PUSH1 0x40 MLOAD SWAP2 POP PUSH1 0x1F NOT PUSH1 0x3F RETURNDATASIZE ADD AND DUP3 ADD PUSH1 0x40 MSTORE RETURNDATASIZE DUP3 MSTORE RETURNDATASIZE PUSH1 0x0 PUSH1 0x20 DUP5 ADD RETURNDATACOPY PUSH3 0x3731 JUMP JUMPDEST PUSH1 0x60 SWAP2 POP JUMPDEST POP SWAP2 POP SWAP2 POP PUSH3 0x34A5 DUP3 DUP3 DUP7 PUSH1 0x60 DUP4 ISZERO PUSH3 0x374E JUMPI POP DUP2 PUSH3 0x168A JUMP JUMPDEST DUP3 MLOAD ISZERO PUSH3 0x375F JUMPI DUP3 MLOAD DUP1 DUP5 PUSH1 0x20 ADD REVERT JUMPDEST DUP2 PUSH1 0x40 MLOAD PUSH32 0x8C379A000000000000000000000000000000000000000000000000000000000 DUP2 MSTORE PUSH1 0x4 ADD PUSH3 0x586 SWAP2 SWAP1 PUSH3 0x3B39 JUMP JUMPDEST PUSH2 0x47A DUP1 PUSH3 0x3D66 DUP4 CODECOPY ADD SWAP1 JUMP JUMPDEST PUSH1 0x0 PUSH1 0x20 DUP3 DUP5 SUB SLT ISZERO PUSH3 0x37B6 JUMPI PUSH1 0x0 DUP1 REVERT JUMPDEST DUP2 CALLDATALOAD PUSH3 0x168A DUP2 PUSH3 0x3D33 JUMP JUMPDEST PUSH1 0x0 PUSH1 0x20 DUP3 DUP5 SUB SLT ISZERO PUSH3 0x37D6 JUMPI PUSH1 0x0 DUP1 REVERT JUMPDEST DUP2 MLOAD PUSH3 0x168A DUP2 PUSH3 0x3D33 JUMP JUMPDEST PUSH1 0x0 DUP1 PUSH1 0x40 DUP4 DUP6 SUB SLT ISZERO PUSH3 0x37F7 JUMPI PUSH1 0x0 DUP1 REVERT JUMPDEST DUP3 CALLDATALOAD PUSH3 0x3804 DUP2 PUSH3 0x3D33 JUMP JUMPDEST SWAP2 POP PUSH1 0x20 DUP4 ADD CALLDATALOAD PUSH3 0x3816 DUP2 PUSH3 0x3D56 JUMP JUMPDEST DUP1 SWAP2 POP POP SWAP3 POP SWAP3 SWAP1 POP JUMP JUMPDEST PUSH1 0x0 PUSH1 0x20 DUP3 DUP5 SUB SLT ISZERO PUSH3 0x3834 JUMPI PUSH1 0x0 DUP1 REVERT JUMPDEST DUP2 MLOAD PUSH3 0x168A DUP2 PUSH3 0x3D56 JUMP JUMPDEST PUSH1 0x0 PUSH1 0x20 DUP3 DUP5 SUB SLT ISZERO PUSH3 0x3854 JUMPI PUSH1 0x0 DUP1 REVERT JUMPDEST DUP2 MLOAD PUSH1 0x4 DUP2 LT PUSH3 0x168A JUMPI PUSH1 0x0 DUP1 REVERT JUMPDEST PUSH1 0x0 PUSH1 0x20 DUP3 DUP5 SUB SLT ISZERO PUSH3 0x3877 JUMPI PUSH1 0x0 DUP1 REVERT JUMPDEST POP CALLDATALOAD SWAP2 SWAP1 POP JUMP JUMPDEST PUSH1 0x0 PUSH1 0x20 DUP3 DUP5 SUB SLT ISZERO PUSH3 0x3891 JUMPI PUSH1 0x0 DUP1 REVERT JUMPDEST POP MLOAD SWAP2 SWAP1 POP JUMP JUMPDEST PUSH1 0x0 DUP1 PUSH1 0x40 DUP4 DUP6 SUB SLT ISZERO PUSH3 0x38AC JUMPI PUSH1 0x0 DUP1 REVERT JUMPDEST DUP3 CALLDATALOAD SWAP2 POP PUSH1 0x20 DUP4 ADD CALLDATALOAD PUSH3 0x3816 DUP2 PUSH3 0x3D33 JUMP JUMPDEST PUSH1 0x0 DUP1 PUSH1 0x40 DUP4 DUP6 SUB SLT ISZERO PUSH3 0x38D4 JUMPI PUSH1 0x0 DUP1 REVERT JUMPDEST DUP3 CALLDATALOAD SWAP2 POP PUSH1 0x20 DUP4 ADD CALLDATALOAD PUSH3 0x3816 DUP2 PUSH3 0x3D56 JUMP JUMPDEST PUSH1 0x0 DUP1 PUSH1 0x40 DUP4 DUP6 SUB SLT ISZERO PUSH3 0x38FC JUMPI PUSH1 0x0 DUP1 REVERT JUMPDEST POP POP DUP1 CALLDATALOAD SWAP3 PUSH1 0x20 SWAP1 SWAP2 ADD CALLDATALOAD SWAP2 POP JUMP JUMPDEST PUSH1 0x0 DUP1 PUSH1 0x0 PUSH1 0x60 DUP5 DUP7 SUB SLT ISZERO PUSH3 0x3921 JUMPI PUSH1 0x0 DUP1 REVERT JUMPDEST DUP4 CALLDATALOAD SWAP3 POP PUSH1 0x20 DUP5 ADD CALLDATALOAD SWAP2 POP PUSH1 0x40 DUP5 ADD CALLDATALOAD PUSH3 0x393C DUP2 PUSH3 0x3D33 JUMP JUMPDEST DUP1 SWAP2 POP POP SWAP3 POP SWAP3 POP SWAP3 JUMP JUMPDEST PUSH1 0x0 DUP1 PUSH1 0x0 DUP1 PUSH1 0x0 DUP1 PUSH1 0xC0 DUP8 DUP10 SUB SLT ISZERO PUSH3 0x3961 JUMPI PUSH1 0x0 DUP1 REVERT JUMPDEST DUP7 CALLDATALOAD SWAP6 POP PUSH1 0x20 DUP8 ADD CALLDATALOAD SWAP5 POP PUSH1 0x40 DUP8 ADD CALLDATALOAD PUSH3 0x397C DUP2 PUSH3 0x3D33 JUMP JUMPDEST SWAP4 POP PUSH1 0x60 DUP8 ADD CALLDATALOAD PUSH3 0x398E DUP2 PUSH3 0x3D33 JUMP JUMPDEST SWAP3 POP PUSH1 0x80 DUP8 ADD CALLDATALOAD PUSH3 0x39A0 DUP2 PUSH3 0x3D33 JUMP JUMPDEST SWAP2 POP PUSH1 0xA0 DUP8 ADD CALLDATALOAD PUSH3 0x39B2 DUP2 PUSH3 0x3D33 JUMP JUMPDEST DUP1 SWAP2 POP POP SWAP3 SWAP6 POP SWAP3 SWAP6 POP SWAP3 SWAP6 JUMP JUMPDEST PUSH1 0x0 DUP1 PUSH1 0x0 DUP1 PUSH1 0x0 DUP1 PUSH1 0x0 PUSH1 0xE0 DUP9 DUP11 SUB SLT ISZERO PUSH3 0x39DC JUMPI PUSH1 0x0 DUP1 REVERT JUMPDEST DUP8 CALLDATALOAD SWAP7 POP PUSH1 0x20 DUP9 ADD CALLDATALOAD SWAP6 POP PUSH1 0x40 DUP9 ADD CALLDATALOAD PUSH3 0x39F7 DUP2 PUSH3 0x3D33 JUMP JUMPDEST SWAP5 POP PUSH1 0x60 DUP9 ADD CALLDATALOAD PUSH3 0x3A09 DUP2 PUSH3 0x3D33 JUMP JUMPDEST SWAP4 POP PUSH1 0x80 DUP9 ADD CALLDATALOAD PUSH3 0x3A1B DUP2 PUSH3 0x3D33 JUMP JUMPDEST SWAP3 POP PUSH1 0xA0 DUP9 ADD CALLDATALOAD PUSH3 0x3A2D DUP2 PUSH3 0x3D33 JUMP JUMPDEST SWAP2 POP PUSH1 0xC0 DUP9 ADD CALLDATALOAD PUSH3 0x3A3F DUP2 PUSH3 0x3D33 JUMP JUMPDEST DUP1 SWAP2 POP POP SWAP3 SWAP6 SWAP9 SWAP2 SWAP5 SWAP8 POP SWAP3 SWAP6 POP JUMP JUMPDEST PUSH1 0x0 DUP2 MLOAD DUP1 DUP5 MSTORE PUSH3 0x3A69 DUP2 PUSH1 0x20 DUP7 ADD PUSH1 0x20 DUP7 ADD PUSH3 0x3BF5 JUMP JUMPDEST PUSH1 0x1F ADD PUSH32 0xFFFFFFFFFFFFFFFFFFFFFFFFFFFFFFFFFFFFFFFFFFFFFFFFFFFFFFFFFFFFFFE0 AND SWAP3 SWAP1 SWAP3 ADD PUSH1 0x20 ADD SWAP3 SWAP2 POP POP JUMP JUMPDEST PUSH1 0x4 DUP2 LT PUSH3 0x3AD3 JUMPI PUSH32 0x4E487B7100000000000000000000000000000000000000000000000000000000 PUSH1 0x0 MSTORE PUSH1 0x21 PUSH1 0x4 MSTORE PUSH1 0x24 PUSH1 0x0 REVERT JUMPDEST SWAP1 MSTORE JUMP JUMPDEST PUSH1 0x0 DUP3 MLOAD PUSH3 0x3AEB DUP2 DUP5 PUSH1 0x20 DUP8 ADD PUSH3 0x3BF5 JUMP JUMPDEST SWAP2 SWAP1 SWAP2 ADD SWAP3 SWAP2 POP POP JUMP JUMPDEST PUSH20 0xFFFFFFFFFFFFFFFFFFFFFFFFFFFFFFFFFFFFFFFF DUP5 DUP2 AND DUP3 MSTORE DUP4 AND PUSH1 0x20 DUP3 ADD MSTORE PUSH1 0x60 DUP2 ADD PUSH3 0x35BC PUSH1 0x40 DUP4 ADD DUP5 PUSH3 0x3A9B JUMP JUMPDEST PUSH1 0x20 DUP2 ADD PUSH3 0x1555 DUP3 DUP5 PUSH3 0x3A9B JUMP JUMPDEST PUSH1 0x20 DUP2 MSTORE PUSH1 0x0 PUSH3 0x168A PUSH1 0x20 DUP4 ADD DUP5 PUSH3 0x3A4F JUMP JUMPDEST DUP3 DUP2 MSTORE PUSH1 0x40 PUSH1 0x20 DUP3 ADD MSTORE PUSH1 0x0 PUSH3 0x35BC PUSH1 0x40 DUP4 ADD DUP5 PUSH3 0x3A4F JUMP JUMPDEST PUSH1 0x0 DUP3 NOT DUP3 GT ISZERO PUSH3 0x3B7F JUMPI PUSH3 0x3B7F PUSH3 0x3C77 JUMP JUMPDEST POP ADD SWAP1 JUMP JUMPDEST PUSH1 0x0 DUP3 PUSH3 0x3B96 JUMPI PUSH3 0x3B96 PUSH3 0x3CA6 JUMP JUMPDEST POP DIV SWAP1 JUMP JUMPDEST PUSH1 0x0 DUP2 PUSH32 0xFFFFFFFFFFFFFFFFFFFFFFFFFFFFFFFFFFFFFFFFFFFFFFFFFFFFFFFFFFFFFFFF DIV DUP4 GT DUP3 ISZERO ISZERO AND ISZERO PUSH3 0x3BD6 JUMPI PUSH3 0x3BD6 PUSH3 0x3C77 JUMP JUMPDEST POP MUL SWAP1 JUMP JUMPDEST PUSH1 0x0 DUP3 DUP3 LT ISZERO PUSH3 0x3BF0 JUMPI PUSH3 0x3BF0 PUSH3 0x3C77 JUMP JUMPDEST POP SUB SWAP1 JUMP JUMPDEST PUSH1 0x0 JUMPDEST DUP4 DUP2 LT ISZERO PUSH3 0x3C12 JUMPI DUP2 DUP2 ADD MLOAD DUP4 DUP3 ADD MSTORE PUSH1 0x20 ADD PUSH3 0x3BF8 JUMP JUMPDEST DUP4 DUP2 GT ISZERO PUSH3 0x24E4 JUMPI POP POP PUSH1 0x0 SWAP2 ADD MSTORE JUMP JUMPDEST PUSH1 0x0 PUSH32 0xFFFFFFFFFFFFFFFFFFFFFFFFFFFFFFFFFFFFFFFFFFFFFFFFFFFFFFFFFFFFFFFF DUP3 EQ ISZERO PUSH3 0x3C59 JUMPI PUSH3 0x3C59 PUSH3 0x3C77 JUMP JUMPDEST POP PUSH1 0x1 ADD SWAP1 JUMP JUMPDEST PUSH1 0x0 DUP3 PUSH3 0x3C72 JUMPI PUSH3 0x3C72 PUSH3 0x3CA6 JUMP JUMPDEST POP MOD SWAP1 JUMP JUMPDEST PUSH32 0x4E487B7100000000000000000000000000000000000000000000000000000000 PUSH1 0x0 MSTORE PUSH1 0x11 PUSH1 0x4 MSTORE PUSH1 0x24 PUSH1 0x0 REVERT JUMPDEST PUSH32 0x4E487B7100000000000000000000000000000000000000000000000000000000 PUSH1 0x0 MSTORE PUSH1 0x12 PUSH1 0x4 MSTORE PUSH1 0x24 PUSH1 0x0 REVERT JUMPDEST PUSH32 0x4E487B7100000000000000000000000000000000000000000000000000000000 PUSH1 0x0 MSTORE PUSH1 0x21 PUSH1 0x4 MSTORE PUSH1 0x24 PUSH1 0x0 REVERT JUMPDEST PUSH32 0x4E487B7100000000000000000000000000000000000000000000000000000000 PUSH1 0x0 MSTORE PUSH1 0x32 PUSH1 0x4 MSTORE PUSH1 0x24 PUSH1 0x0 REVERT JUMPDEST PUSH20 0xFFFFFFFFFFFFFFFFFFFFFFFFFFFFFFFFFFFFFFFF DUP2 AND DUP2 EQ PUSH3 0xCB6 JUMPI PUSH1 0x0 DUP1 REVERT JUMPDEST DUP1 ISZERO ISZERO DUP2 EQ PUSH3 0xCB6 JUMPI PUSH1 0x0 DUP1 REVERT INVALID PUSH1 0x80 PUSH1 0x40 MSTORE CALLVALUE DUP1 ISZERO PUSH2 0x10 JUMPI PUSH1 0x0 DUP1 REVERT JUMPDEST POP PUSH1 0x40 MLOAD PUSH2 0x47A CODESIZE SUB DUP1 PUSH2 0x47A DUP4 CODECOPY DUP2 ADD PUSH1 0x40 DUP2 SWAP1 MSTORE PUSH2 0x2F SWAP2 PUSH2 0xC2 JUMP JUMPDEST PUSH1 0x0 DUP2 PUSH1 0x3 DUP2 GT ISZERO PUSH2 0x43 JUMPI PUSH2 0x43 PUSH2 0xEA JUMP JUMPDEST EQ ISZERO PUSH2 0x80 JUMPI PUSH1 0x40 MLOAD PUSH3 0x461BCD PUSH1 0xE5 SHL DUP2 MSTORE PUSH1 0x20 PUSH1 0x4 DUP3 ADD MSTORE PUSH1 0x8 PUSH1 0x24 DUP3 ADD MSTORE PUSH8 0x5941204241534943 PUSH1 0xC0 SHL PUSH1 0x44 DUP3 ADD MSTORE PUSH1 0x64 ADD PUSH1 0x40 MLOAD DUP1 SWAP2 SUB SWAP1 REVERT JUMPDEST PUSH1 0x0 DUP1 SLOAD DUP3 SWAP2 SWAP1 PUSH1 0xFF PUSH1 0xA0 SHL NOT AND PUSH1 0x1 PUSH1 0xA0 SHL DUP4 PUSH1 0x3 DUP2 GT ISZERO PUSH2 0xA5 JUMPI PUSH2 0xA5 PUSH2 0xEA JUMP JUMPDEST MUL OR SWAP1 SSTORE POP POP PUSH1 0x0 DUP1 SLOAD PUSH1 0x1 PUSH1 0x1 PUSH1 0xA0 SHL SUB NOT AND CALLER OR SWAP1 SSTORE PUSH2 0x100 JUMP JUMPDEST PUSH1 0x0 PUSH1 0x20 DUP3 DUP5 SUB SLT ISZERO PUSH2 0xD4 JUMPI PUSH1 0x0 DUP1 REVERT JUMPDEST DUP2 MLOAD PUSH1 0x4 DUP2 LT PUSH2 0xE3 JUMPI PUSH1 0x0 DUP1 REVERT JUMPDEST SWAP4 SWAP3 POP POP POP JUMP JUMPDEST PUSH4 0x4E487B71 PUSH1 0xE0 SHL PUSH1 0x0 MSTORE PUSH1 0x21 PUSH1 0x4 MSTORE PUSH1 0x24 PUSH1 0x0 REVERT JUMPDEST PUSH2 0x36B DUP1 PUSH2 0x10F PUSH1 0x0 CODECOPY PUSH1 0x0 RETURN INVALID PUSH1 0x80 PUSH1 0x40 MSTORE CALLDATASIZE PUSH2 0x13 JUMPI PUSH2 0x11 PUSH2 0x17 JUMP JUMPDEST STOP JUMPDEST PUSH2 0x11 JUMPDEST PUSH2 0x27 PUSH2 0x22 PUSH2 0x29 JUMP JUMPDEST PUSH2 0x2A5 JUMP JUMPDEST JUMP JUMPDEST PUSH1 0x0 PUSH1 0x1 PUSH1 0x0 SLOAD PUSH21 0x10000000000000000000000000000000000000000 SWAP1 DIV PUSH1 0xFF AND PUSH1 0x3 DUP2 GT ISZERO PUSH2 0x5C JUMPI PUSH2 0x5C PUSH2 0x306 JUMP JUMPDEST EQ ISZERO PUSH2 0x105 JUMPI PUSH1 0x0 DUP1 SLOAD SWAP1 PUSH2 0x100 EXP SWAP1 DIV PUSH20 0xFFFFFFFFFFFFFFFFFFFFFFFFFFFFFFFFFFFFFFFF AND PUSH20 0xFFFFFFFFFFFFFFFFFFFFFFFFFFFFFFFFFFFFFFFF AND PUSH4 0x244E017C PUSH1 0x40 MLOAD DUP2 PUSH4 0xFFFFFFFF AND PUSH1 0xE0 SHL DUP2 MSTORE PUSH1 0x4 ADD PUSH1 0x20 PUSH1 0x40 MLOAD DUP1 DUP4 SUB DUP2 DUP7 DUP1 EXTCODESIZE ISZERO DUP1 ISZERO PUSH2 0xC8 JUMPI PUSH1 0x0 DUP1 REVERT JUMPDEST POP GAS STATICCALL ISZERO DUP1 ISZERO PUSH2 0xDC JUMPI RETURNDATASIZE PUSH1 0x0 DUP1 RETURNDATACOPY RETURNDATASIZE PUSH1 0x0 REVERT JUMPDEST POP POP POP POP PUSH1 0x40 MLOAD RETURNDATASIZE PUSH1 0x1F NOT PUSH1 0x1F DUP3 ADD AND DUP3 ADD DUP1 PUSH1 0x40 MSTORE POP DUP2 ADD SWAP1 PUSH2 0x100 SWAP2 SWAP1 PUSH2 0x2C9 JUMP JUMPDEST SWAP1 POP SWAP1 JUMP JUMPDEST PUSH1 0x2 PUSH1 0x0 SLOAD PUSH21 0x10000000000000000000000000000000000000000 SWAP1 DIV PUSH1 0xFF AND PUSH1 0x3 DUP2 GT ISZERO PUSH2 0x136 JUMPI PUSH2 0x136 PUSH2 0x306 JUMP JUMPDEST EQ ISZERO PUSH2 0x1A2 JUMPI PUSH1 0x0 DUP1 SLOAD SWAP1 PUSH2 0x100 EXP SWAP1 DIV PUSH20 0xFFFFFFFFFFFFFFFFFFFFFFFFFFFFFFFFFFFFFFFF AND PUSH20 0xFFFFFFFFFFFFFFFFFFFFFFFFFFFFFFFFFFFFFFFF AND PUSH4 0xDE1C6FF0 PUSH1 0x40 MLOAD DUP2 PUSH4 0xFFFFFFFF AND PUSH1 0xE0 SHL DUP2 MSTORE PUSH1 0x4 ADD PUSH1 0x20 PUSH1 0x40 MLOAD DUP1 DUP4 SUB DUP2 DUP7 DUP1 EXTCODESIZE ISZERO DUP1 ISZERO PUSH2 0xC8 JUMPI PUSH1 0x0 DUP1 REVERT JUMPDEST PUSH1 0x3 PUSH1 0x0 SLOAD PUSH21 0x10000000000000000000000000000000000000000 SWAP1 DIV PUSH1 0xFF AND PUSH1 0x3 DUP2 GT ISZERO PUSH2 0x1D3 JUMPI PUSH2 0x1D3 PUSH2 0x306 JUMP JUMPDEST EQ ISZERO PUSH2 0x23F JUMPI PUSH1 0x0 DUP1 SLOAD SWAP1 PUSH2 0x100 EXP SWAP1 DIV PUSH20 0xFFFFFFFFFFFFFFFFFFFFFFFFFFFFFFFFFFFFFFFF AND PUSH20 0xFFFFFFFFFFFFFFFFFFFFFFFFFFFFFFFFFFFFFFFF AND PUSH4 0x48B3B036 PUSH1 0x40 MLOAD DUP2 PUSH4 0xFFFFFFFF AND PUSH1 0xE0 SHL DUP2 MSTORE PUSH1 0x4 ADD PUSH1 0x20 PUSH1 0x40 MLOAD DUP1 DUP4 SUB DUP2 DUP7 DUP1 EXTCODESIZE ISZERO DUP1 ISZERO PUSH2 0xC8 JUMPI PUSH1 0x0 DUP1 REVERT JUMPDEST PUSH1 0x40 MLOAD PUSH32 0x8C379A000000000000000000000000000000000000000000000000000000000 DUP2 MSTORE PUSH1 0x20 PUSH1 0x4 DUP3 ADD MSTORE PUSH1 0x11 PUSH1 0x24 DUP3 ADD MSTORE PUSH32 0x4E6F20696D706C656D656E746174696F6E000000000000000000000000000000 PUSH1 0x44 DUP3 ADD MSTORE PUSH1 0x64 ADD PUSH1 0x40 MLOAD DUP1 SWAP2 SUB SWAP1 REVERT JUMPDEST CALLDATASIZE PUSH1 0x0 DUP1 CALLDATACOPY PUSH1 0x0 DUP1 CALLDATASIZE PUSH1 0x0 DUP5 GAS DELEGATECALL RETURNDATASIZE PUSH1 0x0 DUP1 RETURNDATACOPY DUP1 DUP1 ISZERO PUSH2 0x2C4 JUMPI RETURNDATASIZE PUSH1 0x0 RETURN JUMPDEST RETURNDATASIZE PUSH1 0x0 REVERT JUMPDEST PUSH1 0x0 PUSH1 0x20 DUP3 DUP5 SUB SLT ISZERO PUSH2 0x2DB JUMPI PUSH1 0x0 DUP1 REVERT JUMPDEST DUP2 MLOAD PUSH20 0xFFFFFFFFFFFFFFFFFFFFFFFFFFFFFFFFFFFFFFFF DUP2 AND DUP2 EQ PUSH2 0x2FF JUMPI PUSH1 0x0 DUP1 REVERT JUMPDEST SWAP4 SWAP3 POP POP POP JUMP JUMPDEST PUSH32 0x4E487B7100000000000000000000000000000000000000000000000000000000 PUSH1 0x0 MSTORE PUSH1 0x21 PUSH1 0x4 MSTORE PUSH1 0x24 PUSH1 0x0 REVERT INVALID LOG2 PUSH5 0x6970667358 0x22 SLT KECCAK256 0xE9 PUSH15 0x3F8305FEB2C990D720726EFDB9DF3F LOG4 DELEGATECALL DUP2 0xEB 0x23 0x2D PUSH9 0x6F0D50D74A1121B64 PUSH20 0x6F6C63430008070033A26469706673582212201A 0x5C 0x49 0x2B SWAP8 SWAP3 DUP6 0xC3 MSTORE8 DUP16 MSIZE 0xEC LOG4 0xB6 LOG1 DUP16 SWAP11 0xEC 0xD9 0x29 0xFC 0xD6 0x21 PUSH8 0x3DF5FA9527E7E2A4 PUSH5 0x736F6C6343 STOP ADDMOD SMOD STOP CALLER "
		},
		"gasEstimates": {
			"creation": {
				"codeDepositCost": "3383400",
				"executionCost": "98060",
				"totalCost": "3481460"
			},
			"external": {
				"addMHMaximizerStrategy(uint256,uint256,address,address,address,address,address)": "infinite",
				"addMHStandardStrategy(uint256,uint256,address,address,address,address,address)": "infinite",
				"addPool(address)": "infinite",
				"autocompoundOn()": "2354",
				"compoundAll()": "infinite",
				"compoundMode()": "2351",
				"deposit(uint256,uint256)": "infinite",
				"deposit(uint256,uint256,address)": "infinite",
				"initialize(uint256,uint256,address,address,address,address)": "infinite",
				"maxiDebt(address)": "2579",
				"maximizerDeposit(uint256)": "infinite",
				"operators(address)": "2559",
				"owner()": "2397",
				"poolInfo(uint256)": "6952",
				"poolLength()": "2317",
				"renounceOwnership()": "28124",
				"resetAllowances()": "infinite",
				"resetSingleAllowance(uint256)": "infinite",
				"setCompoundMode(uint256,bool)": "50197",
				"stakedWantTokens(uint256,address)": "infinite",
				"strategyMasterHealer()": "2425",
				"strategyMaxiCore()": "2413",
				"strategyMaxiMasterHealer()": "2425",
				"strats(address)": "2579",
				"transferOwnership(address)": "infinite",
				"updateOperator(address,bool)": "infinite",
				"userInfo(uint256,address)": "infinite",
				"withdraw(uint256,uint256)": "infinite",
				"withdraw(uint256,uint256,address)": "infinite",
				"withdrawAll(uint256)": "infinite"
			},
			"internal": {
				"_deposit(uint256,uint256,address)": "infinite",
				"_withdraw(uint256,uint256,address)": "infinite",
				"coreSharesFromMaximizer(uint256,address)": "infinite",
				"getUserShares(uint256,address)": "infinite",
				"removeUserShares(uint256,address,uint256)": "infinite"
			}
		},
		"methodIdentifiers": {
			"addMHMaximizerStrategy(uint256,uint256,address,address,address,address,address)": "4c2077ab",
			"addMHStandardStrategy(uint256,uint256,address,address,address,address,address)": "d9b40aef",
			"addPool(address)": "d914cd4b",
			"autocompoundOn()": "e2ff2f47",
			"compoundAll()": "9b05ddb3",
			"compoundMode()": "5d142d07",
			"deposit(uint256,uint256)": "e2bbb158",
			"deposit(uint256,uint256,address)": "8dbdbe6d",
			"initialize(uint256,uint256,address,address,address,address)": "10e51e14",
			"maxiDebt(address)": "69b5525d",
			"maximizerDeposit(uint256)": "fc77c9db",
			"operators(address)": "13e7c9d8",
			"owner()": "8da5cb5b",
			"poolInfo(uint256)": "1526fe27",
			"poolLength()": "081e3eda",
			"renounceOwnership()": "715018a6",
			"resetAllowances()": "3505b09f",
			"resetSingleAllowance(uint256)": "23e1ad7d",
			"setCompoundMode(uint256,bool)": "3d4fc8d1",
			"stakedWantTokens(uint256,address)": "7b84daec",
			"strategyMasterHealer()": "244e017c",
			"strategyMaxiCore()": "de1c6ff0",
			"strategyMaxiMasterHealer()": "48b3b036",
			"strats(address)": "e718d129",
			"transferOwnership(address)": "f2fde38b",
			"updateOperator(address,bool)": "6d44a3b2",
			"userInfo(uint256,address)": "93f1a40b",
			"withdraw(uint256,uint256)": "441a3e70",
			"withdraw(uint256,uint256,address)": "0ad58d2f",
			"withdrawAll(uint256)": "958e2d31"
		}
	},
	"abi": [
		{
			"anonymous": false,
			"inputs": [
				{
					"indexed": true,
					"internalType": "address",
					"name": "strat",
					"type": "address"
				}
			],
			"name": "AddPool",
			"type": "event"
		},
		{
			"anonymous": false,
			"inputs": [
				{
					"indexed": false,
					"internalType": "uint256",
					"name": "pid",
					"type": "uint256"
				},
				{
					"indexed": false,
					"internalType": "bytes",
					"name": "reason",
					"type": "bytes"
				}
			],
			"name": "CompoundError",
			"type": "event"
		},
		{
			"anonymous": false,
			"inputs": [
				{
					"indexed": true,
					"internalType": "address",
					"name": "user",
					"type": "address"
				},
				{
					"indexed": true,
					"internalType": "uint256",
					"name": "pid",
					"type": "uint256"
				},
				{
					"indexed": false,
					"internalType": "uint256",
					"name": "amount",
					"type": "uint256"
				}
			],
			"name": "Deposit",
			"type": "event"
		},
		{
			"anonymous": false,
			"inputs": [
				{
					"indexed": true,
					"internalType": "address",
					"name": "user",
					"type": "address"
				},
				{
					"indexed": true,
					"internalType": "uint256",
					"name": "pid",
					"type": "uint256"
				},
				{
					"indexed": false,
					"internalType": "uint256",
					"name": "amount",
					"type": "uint256"
				}
			],
			"name": "EmergencyWithdraw",
			"type": "event"
		},
		{
			"anonymous": false,
			"inputs": [
				{
					"indexed": true,
					"internalType": "address",
					"name": "operator",
					"type": "address"
				},
				{
					"indexed": true,
					"internalType": "bool",
					"name": "status",
					"type": "bool"
				}
			],
			"name": "OperatorUpdated",
			"type": "event"
		},
		{
			"anonymous": false,
			"inputs": [
				{
					"indexed": true,
					"internalType": "address",
					"name": "previousOwner",
					"type": "address"
				},
				{
					"indexed": true,
					"internalType": "address",
					"name": "newOwner",
					"type": "address"
				}
			],
			"name": "OwnershipTransferred",
			"type": "event"
		},
		{
			"anonymous": false,
			"inputs": [
				{
					"indexed": false,
					"internalType": "uint256",
					"name": "locked",
					"type": "uint256"
				},
				{
					"indexed": false,
					"internalType": "bool",
					"name": "automatic",
					"type": "bool"
				}
			],
			"name": "SetCompoundMode",
			"type": "event"
		},
		{
			"anonymous": false,
			"inputs": [
				{
					"indexed": true,
					"internalType": "address",
					"name": "user",
					"type": "address"
				},
				{
					"indexed": true,
					"internalType": "uint256",
					"name": "pid",
					"type": "uint256"
				},
				{
					"indexed": false,
					"internalType": "uint256",
					"name": "amount",
					"type": "uint256"
				}
			],
			"name": "Withdraw",
			"type": "event"
		},
		{
			"inputs": [
				{
					"internalType": "uint256",
					"name": "_pid",
					"type": "uint256"
				},
				{
					"internalType": "uint256",
					"name": "_tolerance",
					"type": "uint256"
				},
				{
					"internalType": "address",
					"name": "_masterChef",
					"type": "address"
				},
				{
					"internalType": "address",
					"name": "_uniRouter",
					"type": "address"
				},
				{
					"internalType": "address",
					"name": "_wantAddress",
					"type": "address"
				},
				{
					"internalType": "address",
					"name": "_earnedAddress",
					"type": "address"
				},
				{
					"internalType": "address",
					"name": "_earnedToWmaticStep",
					"type": "address"
				}
			],
			"name": "addMHMaximizerStrategy",
			"outputs": [],
			"stateMutability": "nonpayable",
			"type": "function"
		},
		{
			"inputs": [
				{
					"internalType": "uint256",
					"name": "_pid",
					"type": "uint256"
				},
				{
					"internalType": "uint256",
					"name": "_tolerance",
					"type": "uint256"
				},
				{
					"internalType": "address",
					"name": "_masterChef",
					"type": "address"
				},
				{
					"internalType": "address",
					"name": "_uniRouter",
					"type": "address"
				},
				{
					"internalType": "address",
					"name": "_wantAddress",
					"type": "address"
				},
				{
					"internalType": "address",
					"name": "_earnedAddress",
					"type": "address"
				},
				{
					"internalType": "address",
					"name": "_earnedToWmaticStep",
					"type": "address"
				}
			],
			"name": "addMHStandardStrategy",
			"outputs": [],
			"stateMutability": "nonpayable",
			"type": "function"
		},
		{
			"inputs": [
				{
					"internalType": "address",
					"name": "_strat",
					"type": "address"
				}
			],
			"name": "addPool",
			"outputs": [],
			"stateMutability": "nonpayable",
			"type": "function"
		},
		{
			"inputs": [],
			"name": "autocompoundOn",
			"outputs": [
				{
					"internalType": "bool",
					"name": "",
					"type": "bool"
				}
			],
			"stateMutability": "view",
			"type": "function"
		},
		{
			"inputs": [],
			"name": "compoundAll",
			"outputs": [],
			"stateMutability": "nonpayable",
			"type": "function"
		},
		{
			"inputs": [],
			"name": "compoundMode",
			"outputs": [
				{
					"internalType": "uint256",
					"name": "",
					"type": "uint256"
				}
			],
			"stateMutability": "view",
			"type": "function"
		},
		{
			"inputs": [
				{
					"internalType": "uint256",
					"name": "_pid",
					"type": "uint256"
				},
				{
					"internalType": "uint256",
					"name": "_wantAmt",
					"type": "uint256"
				},
				{
					"internalType": "address",
					"name": "_to",
					"type": "address"
				}
			],
			"name": "deposit",
			"outputs": [],
			"stateMutability": "nonpayable",
			"type": "function"
		},
		{
			"inputs": [
				{
					"internalType": "uint256",
					"name": "_pid",
					"type": "uint256"
				},
				{
					"internalType": "uint256",
					"name": "_wantAmt",
					"type": "uint256"
				}
			],
			"name": "deposit",
			"outputs": [],
			"stateMutability": "nonpayable",
			"type": "function"
		},
		{
			"inputs": [
				{
					"internalType": "uint256",
					"name": "_pid",
					"type": "uint256"
				},
				{
					"internalType": "uint256",
					"name": "_tolerance",
					"type": "uint256"
				},
				{
					"internalType": "address",
					"name": "_masterChef",
					"type": "address"
				},
				{
					"internalType": "address",
					"name": "_uniRouter",
					"type": "address"
				},
				{
					"internalType": "address",
					"name": "_wantAddress",
					"type": "address"
				},
				{
					"internalType": "address",
					"name": "_earnedToWmaticStep",
					"type": "address"
				}
			],
			"name": "initialize",
			"outputs": [],
			"stateMutability": "nonpayable",
			"type": "function"
		},
		{
			"inputs": [
				{
					"internalType": "address",
					"name": "",
					"type": "address"
				}
			],
			"name": "maxiDebt",
			"outputs": [
				{
					"internalType": "uint256",
					"name": "",
					"type": "uint256"
				}
			],
			"stateMutability": "view",
			"type": "function"
		},
		{
			"inputs": [
				{
					"internalType": "uint256",
					"name": "_wantAmt",
					"type": "uint256"
				}
			],
			"name": "maximizerDeposit",
			"outputs": [],
			"stateMutability": "nonpayable",
			"type": "function"
		},
		{
			"inputs": [
				{
					"internalType": "address",
					"name": "",
					"type": "address"
				}
			],
			"name": "operators",
			"outputs": [
				{
					"internalType": "bool",
					"name": "",
					"type": "bool"
				}
			],
			"stateMutability": "view",
			"type": "function"
		},
		{
			"inputs": [],
			"name": "owner",
			"outputs": [
				{
					"internalType": "address",
					"name": "",
					"type": "address"
				}
			],
			"stateMutability": "view",
			"type": "function"
		},
		{
			"inputs": [
				{
					"internalType": "uint256",
					"name": "",
					"type": "uint256"
				}
			],
			"name": "poolInfo",
			"outputs": [
				{
					"internalType": "contract IERC20",
					"name": "want",
					"type": "address"
				},
				{
					"internalType": "contract IStrategy",
					"name": "strat",
					"type": "address"
				},
				{
					"internalType": "enum StratType",
					"name": "stratType",
					"type": "uint8"
				}
			],
			"stateMutability": "view",
			"type": "function"
		},
		{
			"inputs": [],
			"name": "poolLength",
			"outputs": [
				{
					"internalType": "uint256",
					"name": "",
					"type": "uint256"
				}
			],
			"stateMutability": "view",
			"type": "function"
		},
		{
			"inputs": [],
			"name": "renounceOwnership",
			"outputs": [],
			"stateMutability": "nonpayable",
			"type": "function"
		},
		{
			"inputs": [],
			"name": "resetAllowances",
			"outputs": [],
			"stateMutability": "nonpayable",
			"type": "function"
		},
		{
			"inputs": [
				{
					"internalType": "uint256",
					"name": "_pid",
					"type": "uint256"
				}
			],
			"name": "resetSingleAllowance",
			"outputs": [],
			"stateMutability": "nonpayable",
			"type": "function"
		},
		{
			"inputs": [
				{
					"internalType": "uint256",
					"name": "mode",
					"type": "uint256"
				},
				{
					"internalType": "bool",
					"name": "autoC",
					"type": "bool"
				}
			],
			"name": "setCompoundMode",
			"outputs": [],
			"stateMutability": "nonpayable",
			"type": "function"
		},
		{
			"inputs": [
				{
					"internalType": "uint256",
					"name": "_pid",
					"type": "uint256"
				},
				{
					"internalType": "address",
					"name": "_user",
					"type": "address"
				}
			],
			"name": "stakedWantTokens",
			"outputs": [
				{
					"internalType": "uint256",
					"name": "",
					"type": "uint256"
				}
			],
			"stateMutability": "view",
			"type": "function"
		},
		{
			"inputs": [],
			"name": "strategyMasterHealer",
			"outputs": [
				{
					"internalType": "address",
					"name": "",
					"type": "address"
				}
			],
			"stateMutability": "view",
			"type": "function"
		},
		{
			"inputs": [],
			"name": "strategyMaxiCore",
			"outputs": [
				{
					"internalType": "address",
					"name": "",
					"type": "address"
				}
			],
			"stateMutability": "view",
			"type": "function"
		},
		{
			"inputs": [],
			"name": "strategyMaxiMasterHealer",
			"outputs": [
				{
					"internalType": "address",
					"name": "",
					"type": "address"
				}
			],
			"stateMutability": "view",
			"type": "function"
		},
		{
			"inputs": [
				{
					"internalType": "address",
					"name": "",
					"type": "address"
				}
			],
			"name": "strats",
			"outputs": [
				{
					"internalType": "bool",
					"name": "",
					"type": "bool"
				}
			],
			"stateMutability": "view",
			"type": "function"
		},
		{
			"inputs": [
				{
					"internalType": "address",
					"name": "newOwner",
					"type": "address"
				}
			],
			"name": "transferOwnership",
			"outputs": [],
			"stateMutability": "nonpayable",
			"type": "function"
		},
		{
			"inputs": [
				{
					"internalType": "address",
					"name": "_operator",
					"type": "address"
				},
				{
					"internalType": "bool",
					"name": "_status",
					"type": "bool"
				}
			],
			"name": "updateOperator",
			"outputs": [],
			"stateMutability": "nonpayable",
			"type": "function"
		},
		{
			"inputs": [
				{
					"internalType": "uint256",
					"name": "_pid",
					"type": "uint256"
				},
				{
					"internalType": "address",
					"name": "_user",
					"type": "address"
				}
			],
			"name": "userInfo",
			"outputs": [
				{
					"internalType": "uint256",
					"name": "",
					"type": "uint256"
				}
			],
			"stateMutability": "view",
			"type": "function"
		},
		{
			"inputs": [
				{
					"internalType": "uint256",
					"name": "_pid",
					"type": "uint256"
				},
				{
					"internalType": "uint256",
					"name": "_wantAmt",
					"type": "uint256"
				},
				{
					"internalType": "address",
					"name": "_to",
					"type": "address"
				}
			],
			"name": "withdraw",
			"outputs": [],
			"stateMutability": "nonpayable",
			"type": "function"
		},
		{
			"inputs": [
				{
					"internalType": "uint256",
					"name": "_pid",
					"type": "uint256"
				},
				{
					"internalType": "uint256",
					"name": "_wantAmt",
					"type": "uint256"
				}
			],
			"name": "withdraw",
			"outputs": [],
			"stateMutability": "nonpayable",
			"type": "function"
		},
		{
			"inputs": [
				{
					"internalType": "uint256",
					"name": "_pid",
					"type": "uint256"
				}
			],
			"name": "withdrawAll",
			"outputs": [],
			"stateMutability": "nonpayable",
			"type": "function"
		}
	]
}